{"contracts/ALProjectVoting.sol":{"ALProjectVoting":{"abi":[{"inputs":[{"internalType":"address","name":"_project","type":"address"},{"internalType":"string","name":"_votingConsensus","type":"string"},{"internalType":"uint256","name":"_votingTimeoutSeconds","type":"uint256"}],"stateMutability":"nonpayable","type":"constructor"},{"anonymous":false,"inputs":[{"indexed":false,"internalType":"uint256","name":"round","type":"uint256"},{"indexed":false,"internalType":"uint256","name":"completedSamples","type":"uint256"},{"indexed":false,"internalType":"uint256","name":"timestamp","type":"uint256"}],"name":"BatchCompleted","type":"event"},{"anonymous":false,"inputs":[{"indexed":false,"internalType":"uint256","name":"round","type":"uint256"},{"indexed":false,"internalType":"string","name":"sampleId","type":"string"},{"indexed":false,"internalType":"string","name":"finalLabel","type":"string"},{"indexed":false,"internalType":"uint256","name":"remainingSamples","type":"uint256"}],"name":"BatchSampleCompleted","type":"event"},{"anonymous":false,"inputs":[{"indexed":false,"internalType":"uint256","name":"round","type":"uint256"},{"indexed":false,"internalType":"string[]","name":"sampleIds","type":"string[]"},{"indexed":false,"internalType":"uint256","name":"startTime","type":"uint256"}],"name":"BatchStarted","type":"event"},{"anonymous":false,"inputs":[{"indexed":false,"internalType":"string","name":"sampleId","type":"string"},{"indexed":false,"internalType":"string","name":"label","type":"string"}],"name":"ConsensusReached","type":"event"},{"anonymous":false,"inputs":[{"indexed":false,"internalType":"string","name":"sampleId","type":"string"},{"indexed":false,"internalType":"string","name":"finalLabel","type":"string"},{"indexed":false,"internalType":"uint256","name":"timestamp","type":"uint256"}],"name":"LabelStoredInProject","type":"event"},{"anonymous":false,"inputs":[{"indexed":false,"internalType":"string","name":"sampleId","type":"string"},{"indexed":false,"internalType":"uint256","name":"endTime","type":"uint256"}],"name":"TimeoutReached","type":"event"},{"anonymous":false,"inputs":[{"indexed":false,"internalType":"string","name":"sampleId","type":"string"},{"indexed":true,"internalType":"address","name":"voter","type":"address"},{"indexed":false,"internalType":"string","name":"label","type":"string"},{"indexed":false,"internalType":"bool","name":"support","type":"bool"},{"indexed":false,"internalType":"uint256","name":"timestamp","type":"uint256"}],"name":"VoteSubmitted","type":"event"},{"anonymous":false,"inputs":[{"indexed":false,"internalType":"string","name":"sampleId","type":"string"},{"indexed":false,"internalType":"uint256","name":"endTime","type":"uint256"}],"name":"VotingSessionEnded","type":"event"},{"anonymous":false,"inputs":[{"indexed":false,"internalType":"string","name":"sampleId","type":"string"},{"indexed":false,"internalType":"string","name":"finalLabel","type":"string"},{"indexed":false,"internalType":"uint256","name":"endTime","type":"uint256"},{"indexed":false,"internalType":"string","name":"reason","type":"string"}],"name":"VotingSessionFinalized","type":"event"},{"anonymous":false,"inputs":[{"indexed":false,"internalType":"string","name":"sampleId","type":"string"},{"indexed":false,"internalType":"uint256","name":"startTime","type":"uint256"}],"name":"VotingSessionStarted","type":"event"},{"inputs":[{"internalType":"uint256","name":"","type":"uint256"}],"name":"batches","outputs":[{"internalType":"uint256","name":"round","type":"uint256"},{"internalType":"uint256","name":"completedCount","type":"uint256"},{"internalType":"bool","name":"isActive","type":"bool"},{"internalType":"uint256","name":"startTime","type":"uint256"}],"stateMutability":"view","type":"function"},{"inputs":[{"internalType":"string","name":"sampleId","type":"string"}],"name":"checkAndFinalizeTimeout","outputs":[],"stateMutability":"nonpayable","type":"function"},{"inputs":[{"internalType":"string[]","name":"allSampleIds","type":"string[]"},{"internalType":"bool[]","name":"sampleActiveStates","type":"bool[]"},{"internalType":"string[]","name":"labelSpace","type":"string[]"},{"internalType":"uint256","name":"votingTimeout","type":"uint256"},{"internalType":"uint256","name":"_currentRound","type":"uint256"}],"name":"computeActiveBatch","outputs":[{"internalType":"string[]","name":"activeSampleIds","type":"string[]"},{"internalType":"string[]","name":"sampleData","type":"string[]"},{"internalType":"string[]","name":"labelOptions","type":"string[]"},{"internalType":"uint256","name":"timeRemaining","type":"uint256"},{"internalType":"uint256","name":"round","type":"uint256"}],"stateMutability":"view","type":"function"},{"inputs":[{"internalType":"uint256","name":"round","type":"uint256"},{"internalType":"string[]","name":"sampleIds","type":"string[]"},{"internalType":"bool[]","name":"sampleActiveStates","type":"bool[]"}],"name":"computeBatchProgress","outputs":[{"internalType":"uint256","name":"_round","type":"uint256"},{"internalType":"uint256","name":"totalSamples","type":"uint256"},{"internalType":"uint256","name":"activeSamplesCount","type":"uint256"},{"internalType":"uint256","name":"completedSamples","type":"uint256"},{"internalType":"string[]","name":"_sampleIds","type":"string[]"},{"internalType":"bool","name":"batchActive","type":"bool"}],"stateMutability":"pure","type":"function"},{"inputs":[{"internalType":"address[]","name":"participants","type":"address[]"},{"internalType":"string[]","name":"roles","type":"string[]"},{"internalType":"uint256[]","name":"weights","type":"uint256[]"}],"name":"computeEligibleVoters","outputs":[{"internalType":"address[]","name":"voters","type":"address[]"},{"internalType":"uint256[]","name":"eligibleWeights","type":"uint256[]"}],"stateMutability":"pure","type":"function"},{"inputs":[],"name":"consensusThreshold","outputs":[{"internalType":"uint256","name":"","type":"uint256"}],"stateMutability":"view","type":"function"},{"inputs":[],"name":"currentRound","outputs":[{"internalType":"uint256","name":"","type":"uint256"}],"stateMutability":"view","type":"function"},{"inputs":[{"internalType":"uint256","name":"round","type":"uint256"}],"name":"endBatchVoting","outputs":[],"stateMutability":"nonpayable","type":"function"},{"inputs":[{"internalType":"uint256","name":"round","type":"uint256"}],"name":"getBatchSamples","outputs":[{"internalType":"string[]","name":"","type":"string[]"}],"stateMutability":"view","type":"function"},{"inputs":[{"internalType":"uint256","name":"round","type":"uint256"}],"name":"getBatchStatus","outputs":[{"internalType":"bool","name":"isActive","type":"bool"},{"internalType":"uint256","name":"totalSamples","type":"uint256"},{"internalType":"uint256","name":"completedSamples","type":"uint256"},{"internalType":"uint256","name":"remainingSamples","type":"uint256"},{"internalType":"uint256","name":"startTime","type":"uint256"},{"internalType":"string[]","name":"sampleIds","type":"string[]"},{"internalType":"string[]","name":"sampleDataHashes","type":"string[]"},{"internalType":"uint256[]","name":"sampleOriginalIndices","type":"uint256[]"}],"stateMutability":"view","type":"function"},{"inputs":[],"name":"getCurrentBatchProgress","outputs":[{"internalType":"uint256","name":"round","type":"uint256"},{"internalType":"bool","name":"isActive","type":"bool"},{"internalType":"uint256","name":"totalSamples","type":"uint256"},{"internalType":"uint256","name":"completedSamples","type":"uint256"},{"internalType":"string[]","name":"sampleIds","type":"string[]"}],"stateMutability":"view","type":"function"},{"inputs":[{"internalType":"string","name":"sampleId","type":"string"}],"name":"getFinalLabel","outputs":[{"internalType":"string","name":"","type":"string"}],"stateMutability":"view","type":"function"},{"inputs":[{"internalType":"string","name":"sampleId","type":"string"}],"name":"getSampleOriginalIndex","outputs":[{"internalType":"uint256","name":"","type":"uint256"}],"stateMutability":"view","type":"function"},{"inputs":[],"name":"getVoterList","outputs":[{"components":[{"internalType":"address","name":"addr","type":"address"},{"internalType":"uint256","name":"weight","type":"uint256"}],"internalType":"struct ALProjectVoting.Voter[]","name":"","type":"tuple[]"}],"stateMutability":"view","type":"function"},{"inputs":[{"internalType":"string","name":"sampleId","type":"string"}],"name":"getVotes","outputs":[{"components":[{"internalType":"address","name":"voter","type":"address"},{"internalType":"string","name":"label","type":"string"},{"internalType":"bool","name":"support","type":"bool"},{"internalType":"uint256","name":"timestamp","type":"uint256"}],"internalType":"struct ALProjectVoting.Vote[]","name":"","type":"tuple[]"}],"stateMutability":"view","type":"function"},{"inputs":[{"internalType":"string","name":"sampleId","type":"string"}],"name":"getVotingDistribution","outputs":[{"internalType":"string[]","name":"labels","type":"string[]"},{"internalType":"uint256[]","name":"voteCounts","type":"uint256[]"},{"internalType":"uint256[]","name":"voteWeights","type":"uint256[]"}],"stateMutability":"view","type":"function"},{"inputs":[{"internalType":"string","name":"sampleId","type":"string"}],"name":"getVotingResult","outputs":[{"internalType":"bool","name":"isFinalized","type":"bool"},{"internalType":"string","name":"finalLabel","type":"string"},{"internalType":"uint256","name":"totalVotes","type":"uint256"},{"internalType":"uint256","name":"votedCount","type":"uint256"}],"stateMutability":"view","type":"function"},{"inputs":[{"internalType":"string","name":"sampleId","type":"string"}],"name":"getVotingSession","outputs":[{"internalType":"uint256","name":"startTime","type":"uint256"},{"internalType":"bool","name":"isActive","type":"bool"},{"internalType":"bool","name":"isFinalized","type":"bool"},{"internalType":"string","name":"finalLabel","type":"string"}],"stateMutability":"view","type":"function"},{"inputs":[{"internalType":"string","name":"sampleId","type":"string"}],"name":"getVotingSessionStatus","outputs":[{"internalType":"bool","name":"isActive","type":"bool"},{"internalType":"bool","name":"isFinalized","type":"bool"},{"internalType":"string","name":"finalLabel","type":"string"},{"internalType":"uint256","name":"startTime","type":"uint256"},{"internalType":"uint256","name":"timeRemaining","type":"uint256"},{"internalType":"uint256","name":"votedCount","type":"uint256"},{"internalType":"uint256","name":"totalVoters","type":"uint256"}],"stateMutability":"view","type":"function"},{"inputs":[{"internalType":"string","name":"sampleId","type":"string"},{"internalType":"address","name":"user","type":"address"}],"name":"hasUserVoted","outputs":[{"internalType":"bool","name":"","type":"bool"}],"stateMutability":"view","type":"function"},{"inputs":[{"internalType":"string","name":"sampleId","type":"string"}],"name":"isTimeoutReached","outputs":[{"internalType":"bool","name":"","type":"bool"}],"stateMutability":"view","type":"function"},{"inputs":[{"internalType":"string","name":"sampleId","type":"string"}],"name":"isVotingActive","outputs":[{"internalType":"bool","name":"","type":"bool"}],"stateMutability":"view","type":"function"},{"inputs":[{"internalType":"string","name":"sampleId","type":"string"},{"internalType":"string","name":"finalLabel","type":"string"}],"name":"notifyMainContractExternal","outputs":[],"stateMutability":"nonpayable","type":"function"},{"inputs":[],"name":"project","outputs":[{"internalType":"address","name":"","type":"address"}],"stateMutability":"view","type":"function"},{"inputs":[{"internalType":"address[]","name":"_voters","type":"address[]"},{"internalType":"uint256[]","name":"_weights","type":"uint256[]"}],"name":"setVoters","outputs":[],"stateMutability":"nonpayable","type":"function"},{"inputs":[{"internalType":"string[]","name":"sampleIds","type":"string[]"},{"internalType":"uint256","name":"round","type":"uint256"},{"internalType":"string[]","name":"sampleDataHashes","type":"string[]"},{"internalType":"uint256[]","name":"originalIndices","type":"uint256[]"}],"name":"startBatchVoting","outputs":[],"stateMutability":"nonpayable","type":"function"},{"inputs":[{"internalType":"string[]","name":"sampleIds","type":"string[]"},{"internalType":"string[]","name":"labels","type":"string[]"},{"internalType":"bool[]","name":"support","type":"bool[]"}],"name":"submitBatchVote","outputs":[],"stateMutability":"nonpayable","type":"function"},{"inputs":[{"internalType":"string[]","name":"sampleIds","type":"string[]"},{"internalType":"string[]","name":"labels","type":"string[]"},{"internalType":"address","name":"voter","type":"address"}],"name":"submitBatchVoteOnBehalf","outputs":[],"stateMutability":"nonpayable","type":"function"},{"inputs":[{"internalType":"uint256","name":"","type":"uint256"}],"name":"voterList","outputs":[{"internalType":"address","name":"","type":"address"}],"stateMutability":"view","type":"function"},{"inputs":[{"internalType":"address","name":"","type":"address"}],"name":"voterWeights","outputs":[{"internalType":"uint256","name":"","type":"uint256"}],"stateMutability":"view","type":"function"},{"inputs":[{"internalType":"string","name":"","type":"string"},{"internalType":"uint256","name":"","type":"uint256"}],"name":"votes","outputs":[{"internalType":"address","name":"voter","type":"address"},{"internalType":"string","name":"label","type":"string"},{"internalType":"bool","name":"support","type":"bool"},{"internalType":"uint256","name":"timestamp","type":"uint256"}],"stateMutability":"view","type":"function"},{"inputs":[],"name":"votingConsensus","outputs":[{"internalType":"string","name":"","type":"string"}],"stateMutability":"view","type":"function"},{"inputs":[{"internalType":"string","name":"","type":"string"}],"name":"votingSessions","outputs":[{"internalType":"uint256","name":"startTime","type":"uint256"},{"internalType":"bool","name":"isActive","type":"bool"},{"internalType":"bool","name":"isFinalized","type":"bool"},{"internalType":"string","name":"finalLabel","type":"string"},{"internalType":"uint256","name":"totalVoters","type":"uint256"},{"internalType":"uint256","name":"round","type":"uint256"}],"stateMutability":"view","type":"function"},{"inputs":[],"name":"votingTimeoutSeconds","outputs":[{"internalType":"uint256","name":"","type":"uint256"}],"stateMutability":"view","type":"function"},{"inputs":[{"internalType":"string","name":"sampleId","type":"string"}],"name":"wasConsensusAchieved","outputs":[{"internalType":"bool","name":"","type":"bool"}],"stateMutability":"view","type":"function"}],"evm":{"bytecode":{"linkReferences":{},"object":"60806040523461029757614903803803806100198161029c565b9283398101906060818303126102975780516001600160a01b03811691908290036102975760208101516001600160401b03811161029757810183601f82011215610297578051906001600160401b03821161023557610082601f8301601f191660200161029c565b94828652602083830101116102975760005b82811061028257505060009084016020015260400151603360015590801561024b57600080546001600160a01b03191691909117905581516001600160401b03811161023557600354600181811c9116801561022b575b602082101461021557601f81116101b0575b50602092601f821160011461014b5792819293600092610140575b50508160011b916000199060031b1c1916176003555b60025560405161464190816102c28239f35b015190503880610118565b601f198216936003600052806000209160005b868110610198575083600195961061017f575b505050811b0160035561012e565b015160001960f88460031b161c19169055388080610171565b9192602060018192868501518155019401920161015e565b60036000527fc2575a0e9e593c00f959f8c92f12db2869c3395a3b0502d05e2516446f71f85b601f830160051c8101916020841061020b575b601f0160051c01905b8181106101ff57506100fd565b600081556001016101f2565b90915081906101e9565b634e487b7160e01b600052602260045260246000fd5b90607f16906100eb565b634e487b7160e01b600052604160045260246000fd5b60405162461bcd60e51b815260206004820152600f60248201526e496e76616c6964206164647265737360881b6044820152606490fd5b80602080928401015182828901015201610094565b600080fd5b6040519190601f01601f191682016001600160401b038111838210176102355760405256fe6080604052600436101561001257600080fd5b60003560e01c806304574fe814612af157806326a0613a14612ab75780632d1bbc8e1461296f57806333f9625d1461216b578063367cb924146120095780634149738514611f7b578063414f8e7614611f3d578063428f833814611ef057806350e2e8af14611eae57806355d389a414611dcd5780635c97951e14611c9f5780636042ad6114611be35780636787225b14611ba157806368acb1ab14611b5e57806372678fcc146119f857806375c255fc146117d157806379c4ab151461174c578063805265e5146115ec5780638520eb781461157e5780638a19c8bc146115605780639a6e81ab1461113b578063a58df19a1461111d578063a76fd84e14611017578063ab40d3ba14610f48578063b28d92ae14610e08578063b32c4d8d14610db5578063b49c447e14610d41578063b8c3903414610be7578063cdbf3d0114610899578063db7cde8b14610778578063e7016ca714610734578063f02a0f751461029c578063f18a5cec146101e9578063f60ca60d146101c05763f9b0b5b91461019d57600080fd5b346101bb5760003660031901126101bb576020600154604051908152f35b600080fd5b346101bb5760003660031901126101bb576000546040516001600160a01b039091168152602090f35b346101bb5760203660031901126101bb576004356001600160401b0381116101bb57602061021e610231923690600401612c07565b8160405193828580945193849201612c4e565b81016007815203019020805460018201549161024f60028201612e80565b61028d600460038401549301549160ff60405196879687528181161515602088015260081c161515604086015260c0606086015260c0850190612c71565b91608084015260a08301520390f35b346101bb5760603660031901126101bb576004356001600160401b0381116101bb576102cc903690600401612d3a565b6024356001600160401b0381116101bb576102eb903690600401612d3a565b6044356001600160401b0381116101bb5761030a903690600401612ffa565b336000526004602052604060002054156106f65782518251036106b157825181510361066d5790339060005b845181101561057c578061034c6001928761311e565b51610357828561311e565b5190610363838861311e565b5115159160405161039760ff878551936020818189019661038581838a612c4e565b81016007815203019020015416613396565b6103c660ff8760405160208188516103b081838a612c4e565b81016007815203019020015460081c16156133de565b6103fe60ff60406005815160208189516103e181838b612c4e565b81016007815203019020016000908c825260205220541615613429565b61040783613d8b565b610562576000805160206145ec83398151915292916104c6916104676040516020818751610436818388612c4e565b810160068152030190206040519061044d82612b93565b3382528460208301528860408301524260608301526134a1565b85604060058151602081895161047e81838a612c4e565b81016007815203019020016000908d8252602052208960ff198254161790556104df575b506104b860405193608085526080850190612c71565b908382036020850152612c71565b9260408201524260608201528033930390a25b01610336565b610508600660405160208188516104f7818389612c4e565b810160078152030190200183612f4a565b61051281546132e5565b905533600052600460205261055a6105526007610542602060406000205495604051809381928c51928391612c4e565b8101848152030190200184612f4a565b918254613389565b90558b6104a2565b50506105779150610571613474565b90613dc5565b6104d9565b848051610586575b005b61059a610594600492613111565b51612f24565b01548015158061065e575b6105ab57005b60005260086020526105c36001604060002001613155565b60005b815181101561058457806105dc6001928461311e565b5160405160ff84835192602081818701956105f8818389612c4e565b81016007815203019020015416908161062b575b50610619575b50016105c6565b61062590610571613619565b83610612565b60ff915061064760208692604051809381928851928391612c4e565b81016007815203019020015460081c16158561060c565b5061066881614220565b6105a5565b606460405162461bcd60e51b815260206004820152602060248201527f4d69736d6174636865642073616d706c6549647320616e6420737570706f72746044820152fd5b60405162461bcd60e51b815260206004820152601f60248201527f4d69736d6174636865642073616d706c6549647320616e64206c6162656c73006044820152606490fd5b60405162461bcd60e51b81526020600482015260166024820152752737ba1030903932b3b4b9ba32b932b2103b37ba32b960511b6044820152606490fd5b346101bb5760203660031901126101bb576004356001600160401b0381116101bb5761076e6107696020923690600401612c07565b613cdc565b6040519015158152f35b346101bb5760203660031901126101bb576004356001600160401b0381116101bb576107a8903690600401612c07565b60405190805191602081818401946107c1818388612c4e565b8101600781520301902060009260006005549060058401905b82811061084c57505050600261080c602061081e9360ff600187015460081c1696604051938492839251928391612c4e565b81016006815203019020549201612e80565b9261083d60405194859415158552608060208601526080850190612c71565b91604084015260608301520390f35b60ff604061085983612e15565b905460039190911b1c6001600160a01b031660009081526020859052205416610885575b6001016107da565b956108916001916132e5565b96905061087d565b346101bb5760603660031901126101bb576004356001600160401b0381116101bb576108c9903690600401612f8c565b6024356001600160401b0381116101bb576108e8903690600401612d3a565b906044356001600160401b0381116101bb57610908903690600401612db8565b908051835103610b97578051825103610b4657600090815b81518110156109ca57610933818661311e565b5160208151910120610943613c15565b602081519101201480156109a2575b801561097a575b610966575b600101610920565b916109726001916132e5565b92905061095e565b50610985818661311e565b5160208151910120610995613c63565b6020815191012014610959565b506109ad818661311e565b51602081519101206109bd613c3a565b6020815191012014610952565b5090916109d683612d23565b6109e36040519182612bc9565b838152610a046109f285612d23565b602083019590601f19013687376130df565b9260009560005b8251811015610aeb57610a1e818361311e565b5160208151910120610a2e613c15565b60208151910120148015610ac3575b8015610a9b575b610a51575b600101610a0b565b96600190610a93906001600160a01b03610a6b8b8761311e565b5116610a77828861311e565b52610a828a8861311e565b51610a8d828a61311e565b526132e5565b979050610a49565b50610aa6818361311e565b5160208151910120610ab6613c63565b6020815191012014610a44565b50610ace818361311e565b5160208151910120610ade613c3a565b6020815191012014610a3d565b868487604051916040830190604084525180915260608301939060005b818110610b27578480610b2388878382036020850152612cef565b0390f35b82516001600160a01b0316865260209586019590920191600101610b08565b60405162461bcd60e51b8152602060048201526024808201527f5061727469636970616e74732f77656967687473206c656e677468206d69736d6044820152630c2e8c6d60e31b6064820152608490fd5b60405162461bcd60e51b815260206004820152602260248201527f5061727469636970616e74732f726f6c6573206c656e677468206d69736d61746044820152610c6d60f31b6064820152608490fd5b346101bb5760203660031901126101bb57600435610c1060018060a01b036000541633146131ad565b80600052600860205260ff6003604060002001541615610d09576000526008602052610c426001604060002001613155565b60005b81518110156105845780610c5b6001928461311e565b5160405160ff8483519260208181870195610c77818389612c4e565b810160078152030190200154169081610cd6575b50610c98575b5001610c45565b610cd090604090610cab82519283612bc9565b60138252724d616e75616c20626174636820656e64696e6760681b6020830152613dc5565b83610c91565b60ff9150610cf260208692604051809381928851928391612c4e565b81016007815203019020015460081c161585610c8b565b60405162461bcd60e51b815260206004820152601060248201526f4261746368206e6f742061637469766560801b6044820152606490fd5b346101bb5760203660031901126101bb576004356001600160401b0381116101bb57610da7610b23610d82610d7d610d99943690600401612c07565b6139c1565b919390604051958695606087526060870190612c96565b908582036020870152612cef565b908382036040850152612cef565b346101bb5760203660031901126101bb57600435600052600860205260806040600020805490600281015490600460ff600383015416910154916040519384526020840152151560408301526060820152f35b346101bb5760003660031901126101bb57600554610e2581612d23565b90610e336040519283612bc9565b808252601f19610e4282612d23565b0160005b818110610f2357505060005b818110610eb4578260405180916020820160208352815180915260206040840192019060005b818110610e86575050500390f35b825180516001600160a01b031685526020908101518186015286955060409094019390920191600101610e78565b80610ec0600192612e15565b838060a01b0391549060031b1c16610ed782612e15565b848060a01b0391549060031b1c16600052600460205260406000205460405191610f0083612bae565b82526020820152610f11828661311e565b52610f1c818561311e565b5001610e52565b602090604051610f3281612bae565b6000815260008382015282828701015201610e46565b346101bb5760a03660031901126101bb576004356001600160401b0381116101bb57610f78903690600401612d3a565b6024356001600160401b0381116101bb57610f97903690600401612ffa565b604435916001600160401b0383116101bb57610fd261100892610ffa92610fc5610fec963690600401612d3a565b608435926064359261369c565b93959260409591955197889760a0895260a0890190612c96565b908782036020890152612c96565b908582036040870152612c96565b91606084015260808301520390f35b346101bb5760603660031901126101bb576024356001600160401b0381116101bb57611047903690600401612d3a565b6044356001600160401b0381116101bb57611066903690600401612ffa565b906110748151835114613651565b600080805b83518210156110ca5761108c828661311e565b51156110a65761109d6001916132e5565b915b0190611079565b9083516110b6575b60019061109f565b916110c26001916132e5565b9290506110ae565b8351838115158681611113575b6111079192604051958695600435875260208701526040860152606085015260c0608085015260c0840190612c96565b90151560a08301520390f35b84151591506110d7565b346101bb5760003660031901126101bb576020600254604051908152f35b346101bb5760603660031901126101bb576004356001600160401b0381116101bb5761116b903690600401612d3a565b6024356001600160401b0381116101bb5761118a903690600401612d3a565b6044356001600160a01b038116908190036101bb576111b460018060a01b036000541633146131ad565b8251825103611527578251156114f457806000526004602052604060002054156114b85760009160005b84518110156113e6576111f1818661311e565b516111fc828461311e565b5160405161121c60ff60018551936020818189019661038581838a612c4e565b61123660ff600160405160208188516103b081838a612c4e565b61126e60ff604060058151602081895161125181838b612c4e565b81016007815203019020016000908a825260205220541615613429565b83156113af575b9185916001949361128583613d8b565b61139b57916113856104b8926000805160206145ec833981519152946112e860405160208187516112b7818388612c4e565b81016006815203019020604051906112ce82612b93565b8982528460208301528b60408301524260608301526134a1565b60406005815160208188516112fe818389612c4e565b8101600781520301902001600090898252602052208960ff19825416179055611335600660405160208188516104f7818389612c4e565b61133f81546132e5565b905586600052600460205261136f6105526007610542602060406000205495604051809381928c51928391612c4e565b9055604051938493608085526080850190612c71565b8660408301524260608301520390a25b016111de565b50506113aa9150610571613474565b611395565b95506001929185916004604051602081806113ce8d8851928391612c4e565b81016007815203019020015497919394509150611275565b83801515806114a9575b6113f657005b600052600860205261140e6001604060002001613155565b60005b815181101561058457806114276001928461311e565b5160405160ff8483519260208181870195611443818389612c4e565b810160078152030190200154169081611476575b50611464575b5001611411565b61147090610571613619565b8361145d565b60ff915061149260208692604051809381928851928391612c4e565b81016007815203019020015460081c161585611457565b506114b381614220565b6113f0565b60405162461bcd60e51b8152602060048201526014602482015273159bdd195c881b9bdd081c9959da5cdd195c995960621b6044820152606490fd5b60405162461bcd60e51b815260206004820152600b60248201526a08adae0e8f240c4c2e8c6d60ab1b6044820152606490fd5b60405162461bcd60e51b81526020600482015260116024820152704d69736d6174636865642061727261797360781b6044820152606490fd5b346101bb5760003660031901126101bb576020600954604051908152f35b346101bb5760003660031901126101bb57600954806000526008602052604060002090610b2360ff60038401541692600181016115c16002825493015491613155565b916040519586958652151560208601526040850152606084015260a0608084015260a0830190612c96565b346101bb5760203660031901126101bb576004356001600160401b0381116101bb57602061021e611621923690600401612c07565b8101600681520301902080549061163782612d23565b916116456040519384612bc9565b80835260208301809260005260206000206000915b8383106116f857848660405191829160208301906020845251809152604083019060408160051b85010192916000905b82821061169957505050500390f35b919360019193955060208091603f19898203018552875190848060a01b0382511681526060806116d6858501516080878601526080850190612c71565b936040810151151560408501520151910152960192019201859493919261168a565b6004602060019260405161170b81612b93565b848060a01b038654168152611721858701612e80565b8382015260ff600287015416151560408201526003860154606082015281520192019201919061165a565b346101bb5760203660031901126101bb576004356001600160401b0381116101bb57602061021e611781923690600401612c07565b810160078152030190208054610b236117a1600260018501549401612e80565b60ff60405194859485528181161515602086015260081c1615156040840152608060608401526080830190612c71565b346101bb5760403660031901126101bb576004356001600160401b0381116101bb57611801903690600401612f8c565b6024356001600160401b0381116101bb57611820903690600401612db8565b9061183660018060a01b036000541633146131ad565b80518251036119be5760005b60055481101561187b5780611858600192612e15565b838060a01b0391549060031b1c1660005260046020526000604081205501611842565b50600554600060055580611985575b5060005b8151811015610584576118a1818461311e565b5115611940576118b1818461311e565b516001600160a01b036118c4838561311e565b51166000908152600460205260409020556001600160a01b036118e7828461311e565b51600554929116600160401b83101561192a5761190b836001809501600555612e15565b819291549060031b91821b91858060a01b03901b19161790550161188e565b634e487b7160e01b600052604160045260246000fd5b60405162461bcd60e51b815260206004820152601d60248201527f576569676874206d7573742062652067726561746572207468616e20300000006044820152606490fd5b60056000526119b8907f036b6384b5eca791c62761152d0c79bb0604c104a5fb6f4eb0703f3154bb3db0908101906131f6565b8261188a565b60405162461bcd60e51b81526020600482015260126024820152714d69736d617463686564206c656e6774687360701b6044820152606490fd5b346101bb5760203660031901126101bb576004356001600160401b0381116101bb57602061021e611a2d923690600401612c07565b81016007815203019020600060025480151580611b50575b80611b3e575b611b19575b5060009060009260055460058201945b818110611acc57505060ff9350600181015492815492611ab3611a8a600260038601549501612e80565b6040519787818a99161515895260081c161515602088015260e0604088015260e0870190612c71565b936060860152608085015260a084015260c08301520390f35b60ff6040611ad983612e15565b905460039190911b1c6001600160a01b031660009081526020899052205416611b05575b600101611a60565b93611b116001916132e5565b949050611afd565b611b24908354613389565b80421015611a5057611b3891504290613132565b82611a50565b5060ff600184015460081c1615611a4b565b5060ff600184015416611a45565b346101bb5760203660031901126101bb576004356000526008602052610b23611b8d6001604060002001613155565b604051918291602083526020830190612c96565b346101bb5760203660031901126101bb576004356001600160401b0381116101bb57611bdb611bd66020923690600401612c07565b6132f4565b604051908152f35b346101bb5760403660031901126101bb576004356001600160401b0381116101bb57611c13903690600401612c07565b611c2f6020602435928160405193828580945193849201612c4e565b810160068152030190209081548110156101bb57611c4c91612f70565b5080546001600160a01b0316611c6460018301612e80565b91600360ff600283015416910154611c8e6040519485948552608060208601526080850190612c71565b911515604084015260608301520390f35b346101bb5760403660031901126101bb576004356001600160401b0381116101bb57611ccf903690600401612c07565b6024356001600160401b0381116101bb57611cee903690600401612c07565b90303303611d93576000546001600160a01b0316803b156101bb576000604051809263160c220d60e31b8252818381611d2b8989600484016132bd565b03925af1611d82575b506000546001600160a01b031691823b156101bb57611d6d92600092836040518096819582946314faf32d60e11b8452600484016132bd565b03925af1611d7757005b600061058491612bc9565b6000611d8d91612bc9565b82611d34565b60405162461bcd60e51b8152602060048201526012602482015271496e7465726e616c2063616c6c206f6e6c7960701b6044820152606490fd5b346101bb5760003660031901126101bb576040516000600354611def81612e46565b8084529060018116908115611e8a5750600114611e2b575b610b2383611e1781850382612bc9565b604051918291602083526020830190612c71565b600360009081527fc2575a0e9e593c00f959f8c92f12db2869c3395a3b0502d05e2516446f71f85b939250905b808210611e7057509091508101602001611e17611e07565b919260018160209254838588010152019101909291611e58565b60ff191660208086019190915291151560051b84019091019150611e179050611e07565b346101bb5760203660031901126101bb576004356005548110156101bb57611ed7602091612e15565b905460405160039290921b1c6001600160a01b03168152f35b346101bb5760203660031901126101bb576004356001600160401b0381116101bb57611e176002611f2d602061021e610b23953690600401612c07565b8101600781520301902001612e80565b346101bb5760203660031901126101bb576004356001600160a01b038116908190036101bb5760005260046020526020604060002054604051908152f35b346101bb5760403660031901126101bb576004356001600160401b0381116101bb57611fab903690600401612c07565b602435906001600160a01b03821682036101bb57611fda60206005928160405193828580945193849201612c4e565b81016007815203019020019060018060a01b0316600052602052602060ff604060002054166040519015158152f35b346101bb5760203660031901126101bb576004356001600160401b0381116101bb57612039903690600401612c07565b61209a60ff6001612084602060405161207385858951938581818d019661206181838a612c4e565b8101600781520301902001541661323c565b604051809381928951928391612c4e565b81016007815203019020015460081c161561327d565b6120a381613d8b565b1561212c576121277ffe2a617c3a0856bbd203e77cee3d518a00f599c8a955224e80b1d0a1afd95703916121196040516120de606082612bc9565b602281527f54696d656f75742072656163686564202d2065787465726e616c20747269676760208201526132b960f11b604082015282613dc5565b604051918291429083613220565b0390a1005b60405162461bcd60e51b8152602060048201526017602482015276151a5b595bdd5d081b9bdd081c995858da1959081e595d604a1b6044820152606490fd5b346101bb5760803660031901126101bb576004356001600160401b0381116101bb5761219b903690600401612d3a565b6024356044356001600160401b0381116101bb576121bd903690600401612d3a565b906064356001600160401b0381116101bb576121dd903690600401612db8565b926121f360018060a01b036000541633146131ad565b8051156129355780518351036128e25780518451036128855781600052600860205260ff600360406000200154166128345760008281526008602052604090208281558151600190910190600160401b811161192a5781548183558082106127b6575b5060208301916000526020600020916000905b8282106126ac5750505060008381526008602052604081206002810182905560038101805460ff191660011790554260049091015590505b815181101561240d576122b4818561311e565b518360005260086020526122d960056040600020016122d3848661311e565b51612f4a565b815190916001600160401b03821161192a576122f58354612e46565b601f81116123d0575b50602090601f831160011461236557918061232792600196959460009261235a575b505061320d565b90555b612334818761311e565b5184600052600860205261235360066040600020016122d3848761311e565b55016122a1565b015190508a80612320565b90601f1983169184600052816000209260005b8181106123b857509160019695949291838895931061239f575b505050811b01905561232a565b015160001960f88460031b161c19169055898080612392565b92936020600181928786015181550195019301612378565b6123fd90846000526020600020601f850160051c81019160208610612403575b601f0160051c01906131f6565b886122fe565b90915081906123f0565b508160095560005b815181101561266257612428818361311e565b519060405160ff600184519260208181880195612446818389612c4e565b810160078152030190200154166126135760ff6001604051602081875161246e818389612c4e565b81016007815203019020015460081c166125d357600461253160208793604051875161249b818385612c4e565b81019060078252838142930301902055600160405183818a516124bf818388612c4e565b8101600781520301902001600160ff19825416179055600160405183818a516124e9818388612c4e565b810160078152030190200161ff00198154169055600554600360405184818b51612514818389612c4e565b810160078152030190200155604051809381928951928391612c4e565b8101600781520301902001557f1a6063ea5a85373503082e9047ebbde10c2ef86a0029b81921668e4a2ea190e36040518061256d428683613220565b0390a16000546001600160a01b031691823b156101bb5760006125b2600194829360405194858094819363b2be4d6560e01b8352602060048401526024830190612c71565b03925af16125c2575b5001612415565b60006125cd91612bc9565b846125bb565b60405162461bcd60e51b815260206004820152601860248201527714d85b5c1b1948185b1c9958591e48199a5b985b1a5e995960421b6044820152606490fd5b60405162461bcd60e51b815260206004820152602160248201527f53616d706c6520616c726561647920686173206163746976652073657373696f6044820152603760f91b6064820152608490fd5b507f915b7f3f33ca682a46c0a82bcae59307624896b80801e6ea2c6e702a10499ece916126a16040519283928352606060208401526060830190612c96565b4260408301520390a1005b80518051906001600160401b03821161192a576126c98654612e46565b601f8111612784575b50602090601f831160011461271757926126fd8360019594602094879660009261270c57505061320d565b87555b01940191019092612269565b015190508e80612320565b90601f1983169187600052816000209260005b81811061276c5750936020936001969387969383889510612753575b505050811b018755612700565b015160001960f88460031b161c191690558d8080612746565b9293602060018192878601518155019501930161272a565b6127b090876000526020600020601f850160051c8101916020861061240357601f0160051c01906131f6565b8a6126d2565b8260005281602060002091820191015b8181106127d35750612256565b806127e060019254612e46565b806127ed575b50016127c6565b601f811183146128035750600081555b896127e6565b612821908260005283601f6020600020920160051c820191016131f6565b80600052600060208120818355556127fd565b60405162461bcd60e51b815260206004820152602360248201527f426174636820616c72656164792061637469766520666f72207468697320726f6044820152621d5b9960ea1b6064820152608490fd5b60405162461bcd60e51b815260206004820152602f60248201527f53616d706c652049447320616e64206f726967696e616c20696e64696365732060448201526e0d8cadccee8d040dad2e6dac2e8c6d608b1b6064820152608490fd5b60405162461bcd60e51b815260206004820152602560248201527f53616d706c652049447320616e6420686173686573206c656e677468206d69736044820152640dac2e8c6d60db1b6064820152608490fd5b60405162461bcd60e51b815260206004820152601260248201527108adae0e8f240e6c2dae0d8ca40c4c2e8c6d60731b6044820152606490fd5b346101bb5760203660031901126101bb5760043560005260086020526040600020600181018054916129a083613095565b6129a9846130df565b91600060058201600683018654925b888110612a42578888610b2389612a348a612a268b60ff600382015416966002820154916129f460046129eb858d613132565b92015492613155565b926040519a8b9a15158b5260208b015260408a01526060890152608088015261010060a0880152610100870190612c96565b9085820360c0870152612c96565b9083820360e0850152612cef565b600084821015612aa35790612a9183612a64836020868e600198522001612e80565b612a76612a718883612f4a565b612e80565b612a80858c61311e565b52612a8b848b61311e565b50612f4a565b54612a9c828a61311e565b52016129b8565b634e487b7160e01b81526032600452602490fd5b346101bb5760203660031901126101bb576004356001600160401b0381116101bb5761076e612aec6020923690600401612c07565b613d8b565b346101bb5760203660031901126101bb576004356001600160401b0381116101bb57612b236020913690600401612c07565b60405160ff6001835192858181870195612b3e818389612c4e565b810160078152030190200154169182612b5e575b50506040519015158152f35b60ff925083600192612b7b92604051938492839251928391612c4e565b81016007815203019020015460081c16158280612b52565b608081019081106001600160401b0382111761192a57604052565b604081019081106001600160401b0382111761192a57604052565b601f909101601f19168101906001600160401b0382119082101761192a57604052565b6001600160401b03811161192a57601f01601f191660200190565b81601f820112156101bb57803590612c1e82612bec565b92612c2c6040519485612bc9565b828452602083830101116101bb57816000926020809301838601378301015290565b60005b838110612c615750506000910152565b8181015183820152602001612c51565b90602091612c8a81518092818552858086019101612c4e565b601f01601f1916010190565b9080602083519182815201916020808360051b8301019401926000915b838310612cc257505050505090565b9091929394602080612ce0600193601f198682030187528951612c71565b97019301930191939290612cb3565b906020808351928381520192019060005b818110612d0d5750505090565b8251845260209384019390920191600101612d00565b6001600160401b03811161192a5760051b60200190565b9080601f830112156101bb578135612d5181612d23565b92612d5f6040519485612bc9565b81845260208085019260051b820101918383116101bb5760208201905b838210612d8b57505050505090565b81356001600160401b0381116101bb57602091612dad87848094880101612c07565b815201910190612d7c565b9080601f830112156101bb578135612dcf81612d23565b92612ddd6040519485612bc9565b81845260208085019260051b8201019283116101bb57602001905b828210612e055750505090565b8135815260209182019101612df8565b600554811015612e3057600560005260206000200190600090565b634e487b7160e01b600052603260045260246000fd5b90600182811c92168015612e76575b6020831014612e6057565b634e487b7160e01b600052602260045260246000fd5b91607f1691612e55565b9060405191826000825492612e9484612e46565b8084529360018116908115612f025750600114612ebb575b50612eb992500383612bc9565b565b90506000929192526020600020906000915b818310612ee6575050906020612eb99282010138612eac565b6020919350806001915483858901015201910190918492612ecd565b905060209250612eb994915060ff191682840152151560051b82010138612eac565b6020612f3d918160405193828580945193849201612c4e565b8101600781520301902090565b602090612f64928260405194838680955193849201612c4e565b82019081520301902090565b8054821015612e305760005260206000209060021b0190600090565b9080601f830112156101bb57813590612fa482612d23565b92612fb26040519485612bc9565b82845260208085019360051b8201019182116101bb57602001915b818310612fda5750505090565b82356001600160a01b03811681036101bb57815260209283019201612fcd565b9080601f830112156101bb5781359061301282612d23565b926130206040519485612bc9565b82845260208085019360051b8201019182116101bb57602001915b8183106130485750505090565b823580151581036101bb5781526020928301920161303b565b60405190613070602083612bc9565b600080835282815b82811061308457505050565b806060602080938501015201613078565b9061309f82612d23565b6130ac6040519182612bc9565b82815280926130bd601f1991612d23565b019060005b8281106130ce57505050565b8060606020809385010152016130c2565b906130e982612d23565b6130f66040519182612bc9565b8281528092613107601f1991612d23565b0190602036910137565b805115612e305760200190565b8051821015612e305760209160051b010190565b9190820391821161313f57565b634e487b7160e01b600052601160045260246000fd5b90815461316181612d23565b9261316f6040519485612bc9565b818452602084019060005260206000206000915b8383106131905750505050565b60016020819261319f85612e80565b815201920192019190613183565b156131b457565b60405162461bcd60e51b815260206004820152601a60248201527913db9b1e481b585a5b881c1c9bda9958dd0818d85b8818d85b1b60321b6044820152606490fd5b818110613201575050565b600081556001016131f6565b8160011b916000199060031b1c19161790565b929190613237602091604086526040860190612c71565b930152565b1561324357565b60405162461bcd60e51b815260206004820152601260248201527153657373696f6e206e6f742061637469766560701b6044820152606490fd5b1561328457565b60405162461bcd60e51b8152602060048201526011602482015270105b1c9958591e48199a5b985b1a5e9959607a1b6044820152606490fd5b90916132d46132e293604084526040840190612c71565b916020818403910152612c71565b90565b600019811461313f5760010190565b6009549060015b8281111561330b57505050600090565b8060005260086020526133246001604060002001613155565b9260005b84518110156133785761333b818661311e565b5160208151910120845160208601201461335757600101613328565b505061337492506000526008602052600660406000200190612f4a565b5490565b509250613384906132e5565b6132fb565b9190820180921161313f57565b1561339d57565b60405162461bcd60e51b8152602060048201526019602482015278566f74696e672073657373696f6e206e6f742061637469766560381b6044820152606490fd5b156133e557565b606460405162461bcd60e51b815260206004820152602060248201527f566f74696e672073657373696f6e20616c72656164792066696e616c697a65646044820152fd5b1561343057565b60405162461bcd60e51b815260206004820152601c60248201527b416c726561647920766f746564206f6e20746869732073616d706c6560201b6044820152606490fd5b60405190613483604083612bc9565b600f82526e151a5b595bdd5d081c995858da1959608a1b6020830152565b8054600160401b81101561192a576134be91600182018155612f70565b91909161360357805182546001600160a01b0319166001600160a01b03919091161782556020810151805160018401916001600160401b03821161192a576135068354612e46565b601f81116135d1575b50602090601f8311600114613565578260039593606095936135399360009261355a57505061320d565b90555b600284016040820151151560ff801983541691161790550151910155565b015190503880612320565b90601f1983169184600052816000209260005b8181106135b957509260019285926003989660609896106135a1575b505050811b01905561353c565b015160001983891b60f8161c19169055388080613594565b92936020600181928786015181550195019301613578565b6135fd90846000526020600020601f850160051c8101916020861061240357601f0160051c01906131f6565b3861350f565b634e487b7160e01b600052600060045260246000fd5b60405190613628604083612bc9565b601a825279082d8d840ecdee8cae4e640c6dedae0d8cae8cac840c4c2e8c6d60331b6020830152565b1561365857565b60405162461bcd60e51b815260206004820152600f60248201526e098cadccee8d040dad2e6dac2e8c6d608b1b6044820152606490fd5b519081151582036101bb57565b929390946136ad8451875114613651565b60009360005b81518110156136e8576136c6818961311e565b516136d4575b6001016136b3565b946136e06001916132e5565b9590506136cc565b509193949092948015613996576136fe90613095565b9360009360005b845181101561375b57613718818a61311e565b51613726575b600101613705565b94613753600191613737888861311e565b51613742828b61311e565b5261374d818a61311e565b506132e5565b95905061371e565b50959250939250945061376e8251613095565b94836000526008602052604060002093600560009501945b8451811015613836578061379c6001928761311e565b516137aa612a718983612f4a565b8051909190156137d257506137bf828b61311e565b526137ca818a61311e565b505b01613786565b905061381b603060405180936f029b0b6b83632903230ba30903337b9160851b602083015261380a8151809260208686019101612c4e565b81010301601f198101835282612bc9565b613825828b61311e565b52613830818a61311e565b506137cc565b50929093509390936000938151613850575b509493929190565b6138808561385d84613111565b51604051809381926379c4ab1560e01b8352602060048401526024830190612c71565b0381305afa90811561398b578691879188916138e2575b50816138d9575b506138aa575b50613848565b6138b79095929542613132565b908082106138ca5750505b9238806138a4565b6138d49250613132565b6138c2565b9050153861389e565b925050503d8087833e6138f58183612bc9565b8101906080818303126139875780516139106020830161368f565b9261391d6040840161368f565b606084015190936001600160401b03821161397f570181601f820112156139835780519161394a83612bec565b906139586040519283612bc9565b8382526020848401011161397f57906020806139779493019101612c4e565b919038613897565b8a80fd5b8980fd5b8680fd5b6040513d88823e3d90fd5b505050915091506139a5613061565b906139ae613061565b926139b7613061565b9293929160009190565b604051815190602081818501936139d9818387612c4e565b810160068152030190209182546139ef81612d23565b936139fd6040519586612bc9565b818552602085019060005260206000206000915b838310613bc15750505050613a3491602091604051938492839251928391612c4e565b8101600781520301902090805115613b8057613a508151613095565b90600093845b8251811015613ae2576020613a6b828561311e565b510151600060208201815b898110613ab3575b505015613a8f575b50600101613a56565b86613aac91613aa1600194998861311e565b5261374d818761311e565b9590613a86565b613abd818961311e565b51602081519101208451832014613ad657600101613a76565b50505060013880613a7e565b509192939050613af181613095565b90613afb816130df565b94613b05826130df565b94600782019160060160005b848110613b22575050505050929190565b80613b2f6001928561311e565b51613b3a828961311e565b52613b45818861311e565b50613b54836122d3838761311e565b54613b5f828c61311e565b52613b6e856122d3838761311e565b54613b79828b61311e565b5201613b11565b5050613b8a613061565b60405191602091613b9b8385612bc9565b60008452600036813760405192613bb28185612bc9565b60008452506000368137929190565b60046020600192604051613bd481612b93565b848060a01b038654168152613bea858701612e80565b8382015260ff6002870154161515604082015260038601546060820152815201920192019190613a11565b60405190613c24604083612bc9565b600782526631b932b0ba37b960c91b6020830152565b60405190613c49604083612bc9565b600b82526a31b7b73a3934b13aba37b960a91b6020830152565b60405190613c72604083612bc9565b600b82526a31b7b7b93234b730ba37b960a91b6020830152565b60405190613c9b604083612bc9565b600c82526b4e4f5f434f4e53454e53555360a01b6020830152565b60405190613cc5604083612bc9565b60088252674e4f5f564f54455360c01b6020830152565b60405160ff600183519260208181870195613cf8818389612c4e565b81016007815203019020015460081c1615613d4a576002611f2d6020613d2993604051809381928851928391612c4e565b80518015908115613d6e575b508015613d51575b613d4a576132e2916142c7565b5050600090565b5080516020820120613d61613cb6565b6020815191012014613d3d565b90506020820120613d7d613c8c565b602081519101201438613d35565b6002548015613d4a57613db06020613dc0938160405193828580945193849201612c4e565b8101600781520301902054613389565b421190565b906000604051613de760ff6001865193602081818a019661206181838a612c4e565b613e0160ff6001604051602081895161208481838a612c4e565b60016040516020818751613e16818388612c4e565b810160078152030190200160ff19815416905560016040516020818751613e3e818388612c4e565b810160078152030190200161010061ff0019825416179055613e5f8461444f565b9260026040516020818851613e75818389612c4e565b8101600781520301902001845160018060401b03811161420c57613e998254612e46565b601f81116141dc575b506020601f821160011461416057613f52613f6694602094613edf85600499966000805160206145cc833981519152968c91614155575b5061320d565b90555b7f8a0cc662156da5580404150064cc81955de64ef5a8090364795edcbac842999160405180613f138d429083613220565b0390a160405191829160808352613f3e613f318d6080860190612c71565b848103898601528c612c71565b904260408501528382036060850152612c71565b0390a1604051809381928951928391612c4e565b8101600781520301902001548015158061413c575b614019575b50303b1561401657604051632e4bca8f60e11b815290808280613fa78688600484016132bd565b038183305af19182614006575b5050613fbe575050565b7fdabbbde127ef4ac1b0a84891a674bfc7b3ceff8d1e7350abd0f7c48021420d3291613ffb6104b892604051938493606085526060850190612c71565b4260408301520390a1565b8161401091612bc9565b38613fb4565b80fd5b80825260086020526002604083200161403281546132e5565b905580825260086020527f145f86831bf675d553efc81172882ecdb1776f5bdfa7f1b8367ad08b5788874061407e60016040852001548385526008602052600260408620015490613132565b6040518091848252608060208301526140ab61409d608084018a612c71565b838103604085015288612c71565b9060608301520390a1808252600860205260026040832001548183526008602052600160408420015411613f80576060817fcdf3a25ac86d8c6a422a8356f0fb7d6cc09b23caca39fd699cbc6038e558736492845260086020526003604085200160ff198154169055808452600860205260026040852001546040519182526020820152426040820152a138613f80565b50808252600860205260ff600360408420015416613f7b565b90508c015138613ed9565b82865280862090601f198316875b8181106141c45750946020946001856000805160206145cc83398151915295613f529560049b98613f669b106141ab575b5050811b019055613ee2565b8d015160001960f88460031b161c19169055388061419f565b9192602060018192868d01518155019401920161416e565b6142069083875260208720601f840160051c8101916020851061240357601f0160051c01906131f6565b38613ea2565b634e487b7160e01b85526041600452602485fd5b60005260086020526142386001604060002001613155565b8051156142c1576005546000915b81831061425557505050600190565b61425e83612e15565b905460039190911b1c6001600160a01b03169160005b82518110156142b45760ff60406005614290610594858861311e565b01600090878252602052205416156142aa57600101614274565b5050505050600090565b5091509160010191614246565b50600090565b60206142e3919392938160405193828580945193849201612c4e565b8101600681520301902080546142f881612d23565b916143066040519384612bc9565b818352602083019060005260206000206000915b8383106143fb57505050508051156143f45760009081825b8251811015614399576020614347828561311e565b510151602081519101208651602088012014614366575b600101614332565b90614370906132e5565b90604061437d828561311e565b5101511561435e57926143916001916132e5565b93905061435e565b50909192935080156143ec5782146143b2575050600090565b5160648202918083046064149015171561313f5780156143d6576001549104101590565b634e487b7160e01b600052601260045260246000fd5b505050600090565b5060009150565b6004602060019260405161440e81612b93565b848060a01b038654168152614424858701612e80565b8382015260ff600287015416151560408201526003860154606082015281520192019201919061431a565b6060906040518151906020818185019361446a818387612c4e565b8101600681520301902080549061448082612d23565b9461448e6040519687612bc9565b82865260208601916000526020600020906000925b84841061457857505050505082511561456d5760206144d091600793604051938492839251928391612c4e565b810184815203019020016020926040516144eb602082612bc9565b600081529260009160005b825181101561455057604061450b828561311e565b51015161451b575b6001016144f6565b86614526828561311e565b5101516145338682612f4a565b54858111614543575b5050614513565b909650935060013861453c565b509450505050805115156000146145645790565b506132e2613c8c565b5050506132e2613cb6565b6004602060019260405161458b81612b93565b848060a01b0387541681526145a1858801612e80565b8382015260ff600288015416151560408201526003870154868201528152019301930192916144a356fea8e1279888c174a6fbf4fd42a8be4469b313be30a5edac87aff45c5f8a450deb2579d0860b48f37c239a6db657bad6560c277bbce0a8a989d70227407fc62e06a2646970667358221220422432f06c24f30b0e7aa4b3d134352015744e561b16b9235ca828c078e85bc064736f6c634300081c0033","opcodes":"PUSH1 0x80 PUSH1 0x40 MSTORE CALLVALUE PUSH2 0x297 JUMPI PUSH2 0x4903 DUP1 CODESIZE SUB DUP1 PUSH2 0x19 DUP2 PUSH2 0x29C JUMP JUMPDEST SWAP3 DUP4 CODECOPY DUP2 ADD SWAP1 PUSH1 0x60 DUP2 DUP4 SUB SLT PUSH2 0x297 JUMPI DUP1 MLOAD PUSH1 0x1 PUSH1 0x1 PUSH1 0xA0 SHL SUB DUP2 AND SWAP2 SWAP1 DUP3 SWAP1 SUB PUSH2 0x297 JUMPI PUSH1 0x20 DUP2 ADD MLOAD PUSH1 0x1 PUSH1 0x1 PUSH1 0x40 SHL SUB DUP2 GT PUSH2 0x297 JUMPI DUP2 ADD DUP4 PUSH1 0x1F DUP3 ADD SLT ISZERO PUSH2 0x297 JUMPI DUP1 MLOAD SWAP1 PUSH1 0x1 PUSH1 0x1 PUSH1 0x40 SHL SUB DUP3 GT PUSH2 0x235 JUMPI PUSH2 0x82 PUSH1 0x1F DUP4 ADD PUSH1 0x1F NOT AND PUSH1 0x20 ADD PUSH2 0x29C JUMP JUMPDEST SWAP5 DUP3 DUP7 MSTORE PUSH1 0x20 DUP4 DUP4 ADD ADD GT PUSH2 0x297 JUMPI PUSH1 0x0 JUMPDEST DUP3 DUP2 LT PUSH2 0x282 JUMPI POP POP PUSH1 0x0 SWAP1 DUP5 ADD PUSH1 0x20 ADD MSTORE PUSH1 0x40 ADD MLOAD PUSH1 0x33 PUSH1 0x1 SSTORE SWAP1 DUP1 ISZERO PUSH2 0x24B JUMPI PUSH1 0x0 DUP1 SLOAD PUSH1 0x1 PUSH1 0x1 PUSH1 0xA0 SHL SUB NOT AND SWAP2 SWAP1 SWAP2 OR SWAP1 SSTORE DUP2 MLOAD PUSH1 0x1 PUSH1 0x1 PUSH1 0x40 SHL SUB DUP2 GT PUSH2 0x235 JUMPI PUSH1 0x3 SLOAD PUSH1 0x1 DUP2 DUP2 SHR SWAP2 AND DUP1 ISZERO PUSH2 0x22B JUMPI JUMPDEST PUSH1 0x20 DUP3 LT EQ PUSH2 0x215 JUMPI PUSH1 0x1F DUP2 GT PUSH2 0x1B0 JUMPI JUMPDEST POP PUSH1 0x20 SWAP3 PUSH1 0x1F DUP3 GT PUSH1 0x1 EQ PUSH2 0x14B JUMPI SWAP3 DUP2 SWAP3 SWAP4 PUSH1 0x0 SWAP3 PUSH2 0x140 JUMPI JUMPDEST POP POP DUP2 PUSH1 0x1 SHL SWAP2 PUSH1 0x0 NOT SWAP1 PUSH1 0x3 SHL SHR NOT AND OR PUSH1 0x3 SSTORE JUMPDEST PUSH1 0x2 SSTORE PUSH1 0x40 MLOAD PUSH2 0x4641 SWAP1 DUP2 PUSH2 0x2C2 DUP3 CODECOPY RETURN JUMPDEST ADD MLOAD SWAP1 POP CODESIZE DUP1 PUSH2 0x118 JUMP JUMPDEST PUSH1 0x1F NOT DUP3 AND SWAP4 PUSH1 0x3 PUSH1 0x0 MSTORE DUP1 PUSH1 0x0 KECCAK256 SWAP2 PUSH1 0x0 JUMPDEST DUP7 DUP2 LT PUSH2 0x198 JUMPI POP DUP4 PUSH1 0x1 SWAP6 SWAP7 LT PUSH2 0x17F JUMPI JUMPDEST POP POP POP DUP2 SHL ADD PUSH1 0x3 SSTORE PUSH2 0x12E JUMP JUMPDEST ADD MLOAD PUSH1 0x0 NOT PUSH1 0xF8 DUP5 PUSH1 0x3 SHL AND SHR NOT AND SWAP1 SSTORE CODESIZE DUP1 DUP1 PUSH2 0x171 JUMP JUMPDEST SWAP2 SWAP3 PUSH1 0x20 PUSH1 0x1 DUP2 SWAP3 DUP7 DUP6 ADD MLOAD DUP2 SSTORE ADD SWAP5 ADD SWAP3 ADD PUSH2 0x15E JUMP JUMPDEST PUSH1 0x3 PUSH1 0x0 MSTORE PUSH32 0xC2575A0E9E593C00F959F8C92F12DB2869C3395A3B0502D05E2516446F71F85B PUSH1 0x1F DUP4 ADD PUSH1 0x5 SHR DUP2 ADD SWAP2 PUSH1 0x20 DUP5 LT PUSH2 0x20B JUMPI JUMPDEST PUSH1 0x1F ADD PUSH1 0x5 SHR ADD SWAP1 JUMPDEST DUP2 DUP2 LT PUSH2 0x1FF JUMPI POP PUSH2 0xFD JUMP JUMPDEST PUSH1 0x0 DUP2 SSTORE PUSH1 0x1 ADD PUSH2 0x1F2 JUMP JUMPDEST SWAP1 SWAP2 POP DUP2 SWAP1 PUSH2 0x1E9 JUMP JUMPDEST PUSH4 0x4E487B71 PUSH1 0xE0 SHL PUSH1 0x0 MSTORE PUSH1 0x22 PUSH1 0x4 MSTORE PUSH1 0x24 PUSH1 0x0 REVERT JUMPDEST SWAP1 PUSH1 0x7F AND SWAP1 PUSH2 0xEB JUMP JUMPDEST PUSH4 0x4E487B71 PUSH1 0xE0 SHL PUSH1 0x0 MSTORE PUSH1 0x41 PUSH1 0x4 MSTORE PUSH1 0x24 PUSH1 0x0 REVERT JUMPDEST PUSH1 0x40 MLOAD PUSH3 0x461BCD PUSH1 0xE5 SHL DUP2 MSTORE PUSH1 0x20 PUSH1 0x4 DUP3 ADD MSTORE PUSH1 0xF PUSH1 0x24 DUP3 ADD MSTORE PUSH15 0x496E76616C69642061646472657373 PUSH1 0x88 SHL PUSH1 0x44 DUP3 ADD MSTORE PUSH1 0x64 SWAP1 REVERT JUMPDEST DUP1 PUSH1 0x20 DUP1 SWAP3 DUP5 ADD ADD MLOAD DUP3 DUP3 DUP10 ADD ADD MSTORE ADD PUSH2 0x94 JUMP JUMPDEST PUSH1 0x0 DUP1 REVERT JUMPDEST PUSH1 0x40 MLOAD SWAP2 SWAP1 PUSH1 0x1F ADD PUSH1 0x1F NOT AND DUP3 ADD PUSH1 0x1 PUSH1 0x1 PUSH1 0x40 SHL SUB DUP2 GT DUP4 DUP3 LT OR PUSH2 0x235 JUMPI PUSH1 0x40 MSTORE JUMP INVALID PUSH1 0x80 PUSH1 0x40 MSTORE PUSH1 0x4 CALLDATASIZE LT ISZERO PUSH2 0x12 JUMPI PUSH1 0x0 DUP1 REVERT JUMPDEST PUSH1 0x0 CALLDATALOAD PUSH1 0xE0 SHR DUP1 PUSH4 0x4574FE8 EQ PUSH2 0x2AF1 JUMPI DUP1 PUSH4 0x26A0613A EQ PUSH2 0x2AB7 JUMPI DUP1 PUSH4 0x2D1BBC8E EQ PUSH2 0x296F JUMPI DUP1 PUSH4 0x33F9625D EQ PUSH2 0x216B JUMPI DUP1 PUSH4 0x367CB924 EQ PUSH2 0x2009 JUMPI DUP1 PUSH4 0x41497385 EQ PUSH2 0x1F7B JUMPI DUP1 PUSH4 0x414F8E76 EQ PUSH2 0x1F3D JUMPI DUP1 PUSH4 0x428F8338 EQ PUSH2 0x1EF0 JUMPI DUP1 PUSH4 0x50E2E8AF EQ PUSH2 0x1EAE JUMPI DUP1 PUSH4 0x55D389A4 EQ PUSH2 0x1DCD JUMPI DUP1 PUSH4 0x5C97951E EQ PUSH2 0x1C9F JUMPI DUP1 PUSH4 0x6042AD61 EQ PUSH2 0x1BE3 JUMPI DUP1 PUSH4 0x6787225B EQ PUSH2 0x1BA1 JUMPI DUP1 PUSH4 0x68ACB1AB EQ PUSH2 0x1B5E JUMPI DUP1 PUSH4 0x72678FCC EQ PUSH2 0x19F8 JUMPI DUP1 PUSH4 0x75C255FC EQ PUSH2 0x17D1 JUMPI DUP1 PUSH4 0x79C4AB15 EQ PUSH2 0x174C JUMPI DUP1 PUSH4 0x805265E5 EQ PUSH2 0x15EC JUMPI DUP1 PUSH4 0x8520EB78 EQ PUSH2 0x157E JUMPI DUP1 PUSH4 0x8A19C8BC EQ PUSH2 0x1560 JUMPI DUP1 PUSH4 0x9A6E81AB EQ PUSH2 0x113B JUMPI DUP1 PUSH4 0xA58DF19A EQ PUSH2 0x111D JUMPI DUP1 PUSH4 0xA76FD84E EQ PUSH2 0x1017 JUMPI DUP1 PUSH4 0xAB40D3BA EQ PUSH2 0xF48 JUMPI DUP1 PUSH4 0xB28D92AE EQ PUSH2 0xE08 JUMPI DUP1 PUSH4 0xB32C4D8D EQ PUSH2 0xDB5 JUMPI DUP1 PUSH4 0xB49C447E EQ PUSH2 0xD41 JUMPI DUP1 PUSH4 0xB8C39034 EQ PUSH2 0xBE7 JUMPI DUP1 PUSH4 0xCDBF3D01 EQ PUSH2 0x899 JUMPI DUP1 PUSH4 0xDB7CDE8B EQ PUSH2 0x778 JUMPI DUP1 PUSH4 0xE7016CA7 EQ PUSH2 0x734 JUMPI DUP1 PUSH4 0xF02A0F75 EQ PUSH2 0x29C JUMPI DUP1 PUSH4 0xF18A5CEC EQ PUSH2 0x1E9 JUMPI DUP1 PUSH4 0xF60CA60D EQ PUSH2 0x1C0 JUMPI PUSH4 0xF9B0B5B9 EQ PUSH2 0x19D JUMPI PUSH1 0x0 DUP1 REVERT JUMPDEST CALLVALUE PUSH2 0x1BB JUMPI PUSH1 0x0 CALLDATASIZE PUSH1 0x3 NOT ADD SLT PUSH2 0x1BB JUMPI PUSH1 0x20 PUSH1 0x1 SLOAD PUSH1 0x40 MLOAD SWAP1 DUP2 MSTORE RETURN JUMPDEST PUSH1 0x0 DUP1 REVERT JUMPDEST CALLVALUE PUSH2 0x1BB JUMPI PUSH1 0x0 CALLDATASIZE PUSH1 0x3 NOT ADD SLT PUSH2 0x1BB JUMPI PUSH1 0x0 SLOAD PUSH1 0x40 MLOAD PUSH1 0x1 PUSH1 0x1 PUSH1 0xA0 SHL SUB SWAP1 SWAP2 AND DUP2 MSTORE PUSH1 0x20 SWAP1 RETURN JUMPDEST CALLVALUE PUSH2 0x1BB JUMPI PUSH1 0x20 CALLDATASIZE PUSH1 0x3 NOT ADD SLT PUSH2 0x1BB JUMPI PUSH1 0x4 CALLDATALOAD PUSH1 0x1 PUSH1 0x1 PUSH1 0x40 SHL SUB DUP2 GT PUSH2 0x1BB JUMPI PUSH1 0x20 PUSH2 0x21E PUSH2 0x231 SWAP3 CALLDATASIZE SWAP1 PUSH1 0x4 ADD PUSH2 0x2C07 JUMP JUMPDEST DUP2 PUSH1 0x40 MLOAD SWAP4 DUP3 DUP6 DUP1 SWAP5 MLOAD SWAP4 DUP5 SWAP3 ADD PUSH2 0x2C4E JUMP JUMPDEST DUP2 ADD PUSH1 0x7 DUP2 MSTORE SUB ADD SWAP1 KECCAK256 DUP1 SLOAD PUSH1 0x1 DUP3 ADD SLOAD SWAP2 PUSH2 0x24F PUSH1 0x2 DUP3 ADD PUSH2 0x2E80 JUMP JUMPDEST PUSH2 0x28D PUSH1 0x4 PUSH1 0x3 DUP5 ADD SLOAD SWAP4 ADD SLOAD SWAP2 PUSH1 0xFF PUSH1 0x40 MLOAD SWAP7 DUP8 SWAP7 DUP8 MSTORE DUP2 DUP2 AND ISZERO ISZERO PUSH1 0x20 DUP9 ADD MSTORE PUSH1 0x8 SHR AND ISZERO ISZERO PUSH1 0x40 DUP7 ADD MSTORE PUSH1 0xC0 PUSH1 0x60 DUP7 ADD MSTORE PUSH1 0xC0 DUP6 ADD SWAP1 PUSH2 0x2C71 JUMP JUMPDEST SWAP2 PUSH1 0x80 DUP5 ADD MSTORE PUSH1 0xA0 DUP4 ADD MSTORE SUB SWAP1 RETURN JUMPDEST CALLVALUE PUSH2 0x1BB JUMPI PUSH1 0x60 CALLDATASIZE PUSH1 0x3 NOT ADD SLT PUSH2 0x1BB JUMPI PUSH1 0x4 CALLDATALOAD PUSH1 0x1 PUSH1 0x1 PUSH1 0x40 SHL SUB DUP2 GT PUSH2 0x1BB JUMPI PUSH2 0x2CC SWAP1 CALLDATASIZE SWAP1 PUSH1 0x4 ADD PUSH2 0x2D3A JUMP JUMPDEST PUSH1 0x24 CALLDATALOAD PUSH1 0x1 PUSH1 0x1 PUSH1 0x40 SHL SUB DUP2 GT PUSH2 0x1BB JUMPI PUSH2 0x2EB SWAP1 CALLDATASIZE SWAP1 PUSH1 0x4 ADD PUSH2 0x2D3A JUMP JUMPDEST PUSH1 0x44 CALLDATALOAD PUSH1 0x1 PUSH1 0x1 PUSH1 0x40 SHL SUB DUP2 GT PUSH2 0x1BB JUMPI PUSH2 0x30A SWAP1 CALLDATASIZE SWAP1 PUSH1 0x4 ADD PUSH2 0x2FFA JUMP JUMPDEST CALLER PUSH1 0x0 MSTORE PUSH1 0x4 PUSH1 0x20 MSTORE PUSH1 0x40 PUSH1 0x0 KECCAK256 SLOAD ISZERO PUSH2 0x6F6 JUMPI DUP3 MLOAD DUP3 MLOAD SUB PUSH2 0x6B1 JUMPI DUP3 MLOAD DUP2 MLOAD SUB PUSH2 0x66D JUMPI SWAP1 CALLER SWAP1 PUSH1 0x0 JUMPDEST DUP5 MLOAD DUP2 LT ISZERO PUSH2 0x57C JUMPI DUP1 PUSH2 0x34C PUSH1 0x1 SWAP3 DUP8 PUSH2 0x311E JUMP JUMPDEST MLOAD PUSH2 0x357 DUP3 DUP6 PUSH2 0x311E JUMP JUMPDEST MLOAD SWAP1 PUSH2 0x363 DUP4 DUP9 PUSH2 0x311E JUMP JUMPDEST MLOAD ISZERO ISZERO SWAP2 PUSH1 0x40 MLOAD PUSH2 0x397 PUSH1 0xFF DUP8 DUP6 MLOAD SWAP4 PUSH1 0x20 DUP2 DUP2 DUP10 ADD SWAP7 PUSH2 0x385 DUP2 DUP4 DUP11 PUSH2 0x2C4E JUMP JUMPDEST DUP2 ADD PUSH1 0x7 DUP2 MSTORE SUB ADD SWAP1 KECCAK256 ADD SLOAD AND PUSH2 0x3396 JUMP JUMPDEST PUSH2 0x3C6 PUSH1 0xFF DUP8 PUSH1 0x40 MLOAD PUSH1 0x20 DUP2 DUP9 MLOAD PUSH2 0x3B0 DUP2 DUP4 DUP11 PUSH2 0x2C4E JUMP JUMPDEST DUP2 ADD PUSH1 0x7 DUP2 MSTORE SUB ADD SWAP1 KECCAK256 ADD SLOAD PUSH1 0x8 SHR AND ISZERO PUSH2 0x33DE JUMP JUMPDEST PUSH2 0x3FE PUSH1 0xFF PUSH1 0x40 PUSH1 0x5 DUP2 MLOAD PUSH1 0x20 DUP2 DUP10 MLOAD PUSH2 0x3E1 DUP2 DUP4 DUP12 PUSH2 0x2C4E JUMP JUMPDEST DUP2 ADD PUSH1 0x7 DUP2 MSTORE SUB ADD SWAP1 KECCAK256 ADD PUSH1 0x0 SWAP1 DUP13 DUP3 MSTORE PUSH1 0x20 MSTORE KECCAK256 SLOAD AND ISZERO PUSH2 0x3429 JUMP JUMPDEST PUSH2 0x407 DUP4 PUSH2 0x3D8B JUMP JUMPDEST PUSH2 0x562 JUMPI PUSH1 0x0 DUP1 MLOAD PUSH1 0x20 PUSH2 0x45EC DUP4 CODECOPY DUP2 MLOAD SWAP2 MSTORE SWAP3 SWAP2 PUSH2 0x4C6 SWAP2 PUSH2 0x467 PUSH1 0x40 MLOAD PUSH1 0x20 DUP2 DUP8 MLOAD PUSH2 0x436 DUP2 DUP4 DUP9 PUSH2 0x2C4E JUMP JUMPDEST DUP2 ADD PUSH1 0x6 DUP2 MSTORE SUB ADD SWAP1 KECCAK256 PUSH1 0x40 MLOAD SWAP1 PUSH2 0x44D DUP3 PUSH2 0x2B93 JUMP JUMPDEST CALLER DUP3 MSTORE DUP5 PUSH1 0x20 DUP4 ADD MSTORE DUP9 PUSH1 0x40 DUP4 ADD MSTORE TIMESTAMP PUSH1 0x60 DUP4 ADD MSTORE PUSH2 0x34A1 JUMP JUMPDEST DUP6 PUSH1 0x40 PUSH1 0x5 DUP2 MLOAD PUSH1 0x20 DUP2 DUP10 MLOAD PUSH2 0x47E DUP2 DUP4 DUP11 PUSH2 0x2C4E JUMP JUMPDEST DUP2 ADD PUSH1 0x7 DUP2 MSTORE SUB ADD SWAP1 KECCAK256 ADD PUSH1 0x0 SWAP1 DUP14 DUP3 MSTORE PUSH1 0x20 MSTORE KECCAK256 DUP10 PUSH1 0xFF NOT DUP3 SLOAD AND OR SWAP1 SSTORE PUSH2 0x4DF JUMPI JUMPDEST POP PUSH2 0x4B8 PUSH1 0x40 MLOAD SWAP4 PUSH1 0x80 DUP6 MSTORE PUSH1 0x80 DUP6 ADD SWAP1 PUSH2 0x2C71 JUMP JUMPDEST SWAP1 DUP4 DUP3 SUB PUSH1 0x20 DUP6 ADD MSTORE PUSH2 0x2C71 JUMP JUMPDEST SWAP3 PUSH1 0x40 DUP3 ADD MSTORE TIMESTAMP PUSH1 0x60 DUP3 ADD MSTORE DUP1 CALLER SWAP4 SUB SWAP1 LOG2 JUMPDEST ADD PUSH2 0x336 JUMP JUMPDEST PUSH2 0x508 PUSH1 0x6 PUSH1 0x40 MLOAD PUSH1 0x20 DUP2 DUP9 MLOAD PUSH2 0x4F7 DUP2 DUP4 DUP10 PUSH2 0x2C4E JUMP JUMPDEST DUP2 ADD PUSH1 0x7 DUP2 MSTORE SUB ADD SWAP1 KECCAK256 ADD DUP4 PUSH2 0x2F4A JUMP JUMPDEST PUSH2 0x512 DUP2 SLOAD PUSH2 0x32E5 JUMP JUMPDEST SWAP1 SSTORE CALLER PUSH1 0x0 MSTORE PUSH1 0x4 PUSH1 0x20 MSTORE PUSH2 0x55A PUSH2 0x552 PUSH1 0x7 PUSH2 0x542 PUSH1 0x20 PUSH1 0x40 PUSH1 0x0 KECCAK256 SLOAD SWAP6 PUSH1 0x40 MLOAD DUP1 SWAP4 DUP2 SWAP3 DUP13 MLOAD SWAP3 DUP4 SWAP2 PUSH2 0x2C4E JUMP JUMPDEST DUP2 ADD DUP5 DUP2 MSTORE SUB ADD SWAP1 KECCAK256 ADD DUP5 PUSH2 0x2F4A JUMP JUMPDEST SWAP2 DUP3 SLOAD PUSH2 0x3389 JUMP JUMPDEST SWAP1 SSTORE DUP12 PUSH2 0x4A2 JUMP JUMPDEST POP POP PUSH2 0x577 SWAP2 POP PUSH2 0x571 PUSH2 0x3474 JUMP JUMPDEST SWAP1 PUSH2 0x3DC5 JUMP JUMPDEST PUSH2 0x4D9 JUMP JUMPDEST DUP5 DUP1 MLOAD PUSH2 0x586 JUMPI JUMPDEST STOP JUMPDEST PUSH2 0x59A PUSH2 0x594 PUSH1 0x4 SWAP3 PUSH2 0x3111 JUMP JUMPDEST MLOAD PUSH2 0x2F24 JUMP JUMPDEST ADD SLOAD DUP1 ISZERO ISZERO DUP1 PUSH2 0x65E JUMPI JUMPDEST PUSH2 0x5AB JUMPI STOP JUMPDEST PUSH1 0x0 MSTORE PUSH1 0x8 PUSH1 0x20 MSTORE PUSH2 0x5C3 PUSH1 0x1 PUSH1 0x40 PUSH1 0x0 KECCAK256 ADD PUSH2 0x3155 JUMP JUMPDEST PUSH1 0x0 JUMPDEST DUP2 MLOAD DUP2 LT ISZERO PUSH2 0x584 JUMPI DUP1 PUSH2 0x5DC PUSH1 0x1 SWAP3 DUP5 PUSH2 0x311E JUMP JUMPDEST MLOAD PUSH1 0x40 MLOAD PUSH1 0xFF DUP5 DUP4 MLOAD SWAP3 PUSH1 0x20 DUP2 DUP2 DUP8 ADD SWAP6 PUSH2 0x5F8 DUP2 DUP4 DUP10 PUSH2 0x2C4E JUMP JUMPDEST DUP2 ADD PUSH1 0x7 DUP2 MSTORE SUB ADD SWAP1 KECCAK256 ADD SLOAD AND SWAP1 DUP2 PUSH2 0x62B JUMPI JUMPDEST POP PUSH2 0x619 JUMPI JUMPDEST POP ADD PUSH2 0x5C6 JUMP JUMPDEST PUSH2 0x625 SWAP1 PUSH2 0x571 PUSH2 0x3619 JUMP JUMPDEST DUP4 PUSH2 0x612 JUMP JUMPDEST PUSH1 0xFF SWAP2 POP PUSH2 0x647 PUSH1 0x20 DUP7 SWAP3 PUSH1 0x40 MLOAD DUP1 SWAP4 DUP2 SWAP3 DUP9 MLOAD SWAP3 DUP4 SWAP2 PUSH2 0x2C4E JUMP JUMPDEST DUP2 ADD PUSH1 0x7 DUP2 MSTORE SUB ADD SWAP1 KECCAK256 ADD SLOAD PUSH1 0x8 SHR AND ISZERO DUP6 PUSH2 0x60C JUMP JUMPDEST POP PUSH2 0x668 DUP2 PUSH2 0x4220 JUMP JUMPDEST PUSH2 0x5A5 JUMP JUMPDEST PUSH1 0x64 PUSH1 0x40 MLOAD PUSH3 0x461BCD PUSH1 0xE5 SHL DUP2 MSTORE PUSH1 0x20 PUSH1 0x4 DUP3 ADD MSTORE PUSH1 0x20 PUSH1 0x24 DUP3 ADD MSTORE PUSH32 0x4D69736D6174636865642073616D706C6549647320616E6420737570706F7274 PUSH1 0x44 DUP3 ADD MSTORE REVERT JUMPDEST PUSH1 0x40 MLOAD PUSH3 0x461BCD PUSH1 0xE5 SHL DUP2 MSTORE PUSH1 0x20 PUSH1 0x4 DUP3 ADD MSTORE PUSH1 0x1F PUSH1 0x24 DUP3 ADD MSTORE PUSH32 0x4D69736D6174636865642073616D706C6549647320616E64206C6162656C7300 PUSH1 0x44 DUP3 ADD MSTORE PUSH1 0x64 SWAP1 REVERT JUMPDEST PUSH1 0x40 MLOAD PUSH3 0x461BCD PUSH1 0xE5 SHL DUP2 MSTORE PUSH1 0x20 PUSH1 0x4 DUP3 ADD MSTORE PUSH1 0x16 PUSH1 0x24 DUP3 ADD MSTORE PUSH22 0x2737BA1030903932B3B4B9BA32B932B2103B37BA32B9 PUSH1 0x51 SHL PUSH1 0x44 DUP3 ADD MSTORE PUSH1 0x64 SWAP1 REVERT JUMPDEST CALLVALUE PUSH2 0x1BB JUMPI PUSH1 0x20 CALLDATASIZE PUSH1 0x3 NOT ADD SLT PUSH2 0x1BB JUMPI PUSH1 0x4 CALLDATALOAD PUSH1 0x1 PUSH1 0x1 PUSH1 0x40 SHL SUB DUP2 GT PUSH2 0x1BB JUMPI PUSH2 0x76E PUSH2 0x769 PUSH1 0x20 SWAP3 CALLDATASIZE SWAP1 PUSH1 0x4 ADD PUSH2 0x2C07 JUMP JUMPDEST PUSH2 0x3CDC JUMP JUMPDEST PUSH1 0x40 MLOAD SWAP1 ISZERO ISZERO DUP2 MSTORE RETURN JUMPDEST CALLVALUE PUSH2 0x1BB JUMPI PUSH1 0x20 CALLDATASIZE PUSH1 0x3 NOT ADD SLT PUSH2 0x1BB JUMPI PUSH1 0x4 CALLDATALOAD PUSH1 0x1 PUSH1 0x1 PUSH1 0x40 SHL SUB DUP2 GT PUSH2 0x1BB JUMPI PUSH2 0x7A8 SWAP1 CALLDATASIZE SWAP1 PUSH1 0x4 ADD PUSH2 0x2C07 JUMP JUMPDEST PUSH1 0x40 MLOAD SWAP1 DUP1 MLOAD SWAP2 PUSH1 0x20 DUP2 DUP2 DUP5 ADD SWAP5 PUSH2 0x7C1 DUP2 DUP4 DUP9 PUSH2 0x2C4E JUMP JUMPDEST DUP2 ADD PUSH1 0x7 DUP2 MSTORE SUB ADD SWAP1 KECCAK256 PUSH1 0x0 SWAP3 PUSH1 0x0 PUSH1 0x5 SLOAD SWAP1 PUSH1 0x5 DUP5 ADD SWAP1 JUMPDEST DUP3 DUP2 LT PUSH2 0x84C JUMPI POP POP POP PUSH1 0x2 PUSH2 0x80C PUSH1 0x20 PUSH2 0x81E SWAP4 PUSH1 0xFF PUSH1 0x1 DUP8 ADD SLOAD PUSH1 0x8 SHR AND SWAP7 PUSH1 0x40 MLOAD SWAP4 DUP5 SWAP3 DUP4 SWAP3 MLOAD SWAP3 DUP4 SWAP2 PUSH2 0x2C4E JUMP JUMPDEST DUP2 ADD PUSH1 0x6 DUP2 MSTORE SUB ADD SWAP1 KECCAK256 SLOAD SWAP3 ADD PUSH2 0x2E80 JUMP JUMPDEST SWAP3 PUSH2 0x83D PUSH1 0x40 MLOAD SWAP5 DUP6 SWAP5 ISZERO ISZERO DUP6 MSTORE PUSH1 0x80 PUSH1 0x20 DUP7 ADD MSTORE PUSH1 0x80 DUP6 ADD SWAP1 PUSH2 0x2C71 JUMP JUMPDEST SWAP2 PUSH1 0x40 DUP5 ADD MSTORE PUSH1 0x60 DUP4 ADD MSTORE SUB SWAP1 RETURN JUMPDEST PUSH1 0xFF PUSH1 0x40 PUSH2 0x859 DUP4 PUSH2 0x2E15 JUMP JUMPDEST SWAP1 SLOAD PUSH1 0x3 SWAP2 SWAP1 SWAP2 SHL SHR PUSH1 0x1 PUSH1 0x1 PUSH1 0xA0 SHL SUB AND PUSH1 0x0 SWAP1 DUP2 MSTORE PUSH1 0x20 DUP6 SWAP1 MSTORE KECCAK256 SLOAD AND PUSH2 0x885 JUMPI JUMPDEST PUSH1 0x1 ADD PUSH2 0x7DA JUMP JUMPDEST SWAP6 PUSH2 0x891 PUSH1 0x1 SWAP2 PUSH2 0x32E5 JUMP JUMPDEST SWAP7 SWAP1 POP PUSH2 0x87D JUMP JUMPDEST CALLVALUE PUSH2 0x1BB JUMPI PUSH1 0x60 CALLDATASIZE PUSH1 0x3 NOT ADD SLT PUSH2 0x1BB JUMPI PUSH1 0x4 CALLDATALOAD PUSH1 0x1 PUSH1 0x1 PUSH1 0x40 SHL SUB DUP2 GT PUSH2 0x1BB JUMPI PUSH2 0x8C9 SWAP1 CALLDATASIZE SWAP1 PUSH1 0x4 ADD PUSH2 0x2F8C JUMP JUMPDEST PUSH1 0x24 CALLDATALOAD PUSH1 0x1 PUSH1 0x1 PUSH1 0x40 SHL SUB DUP2 GT PUSH2 0x1BB JUMPI PUSH2 0x8E8 SWAP1 CALLDATASIZE SWAP1 PUSH1 0x4 ADD PUSH2 0x2D3A JUMP JUMPDEST SWAP1 PUSH1 0x44 CALLDATALOAD PUSH1 0x1 PUSH1 0x1 PUSH1 0x40 SHL SUB DUP2 GT PUSH2 0x1BB JUMPI PUSH2 0x908 SWAP1 CALLDATASIZE SWAP1 PUSH1 0x4 ADD PUSH2 0x2DB8 JUMP JUMPDEST SWAP1 DUP1 MLOAD DUP4 MLOAD SUB PUSH2 0xB97 JUMPI DUP1 MLOAD DUP3 MLOAD SUB PUSH2 0xB46 JUMPI PUSH1 0x0 SWAP1 DUP2 JUMPDEST DUP2 MLOAD DUP2 LT ISZERO PUSH2 0x9CA JUMPI PUSH2 0x933 DUP2 DUP7 PUSH2 0x311E JUMP JUMPDEST MLOAD PUSH1 0x20 DUP2 MLOAD SWAP2 ADD KECCAK256 PUSH2 0x943 PUSH2 0x3C15 JUMP JUMPDEST PUSH1 0x20 DUP2 MLOAD SWAP2 ADD KECCAK256 EQ DUP1 ISZERO PUSH2 0x9A2 JUMPI JUMPDEST DUP1 ISZERO PUSH2 0x97A JUMPI JUMPDEST PUSH2 0x966 JUMPI JUMPDEST PUSH1 0x1 ADD PUSH2 0x920 JUMP JUMPDEST SWAP2 PUSH2 0x972 PUSH1 0x1 SWAP2 PUSH2 0x32E5 JUMP JUMPDEST SWAP3 SWAP1 POP PUSH2 0x95E JUMP JUMPDEST POP PUSH2 0x985 DUP2 DUP7 PUSH2 0x311E JUMP JUMPDEST MLOAD PUSH1 0x20 DUP2 MLOAD SWAP2 ADD KECCAK256 PUSH2 0x995 PUSH2 0x3C63 JUMP JUMPDEST PUSH1 0x20 DUP2 MLOAD SWAP2 ADD KECCAK256 EQ PUSH2 0x959 JUMP JUMPDEST POP PUSH2 0x9AD DUP2 DUP7 PUSH2 0x311E JUMP JUMPDEST MLOAD PUSH1 0x20 DUP2 MLOAD SWAP2 ADD KECCAK256 PUSH2 0x9BD PUSH2 0x3C3A JUMP JUMPDEST PUSH1 0x20 DUP2 MLOAD SWAP2 ADD KECCAK256 EQ PUSH2 0x952 JUMP JUMPDEST POP SWAP1 SWAP2 PUSH2 0x9D6 DUP4 PUSH2 0x2D23 JUMP JUMPDEST PUSH2 0x9E3 PUSH1 0x40 MLOAD SWAP2 DUP3 PUSH2 0x2BC9 JUMP JUMPDEST DUP4 DUP2 MSTORE PUSH2 0xA04 PUSH2 0x9F2 DUP6 PUSH2 0x2D23 JUMP JUMPDEST PUSH1 0x20 DUP4 ADD SWAP6 SWAP1 PUSH1 0x1F NOT ADD CALLDATASIZE DUP8 CALLDATACOPY PUSH2 0x30DF JUMP JUMPDEST SWAP3 PUSH1 0x0 SWAP6 PUSH1 0x0 JUMPDEST DUP3 MLOAD DUP2 LT ISZERO PUSH2 0xAEB JUMPI PUSH2 0xA1E DUP2 DUP4 PUSH2 0x311E JUMP JUMPDEST MLOAD PUSH1 0x20 DUP2 MLOAD SWAP2 ADD KECCAK256 PUSH2 0xA2E PUSH2 0x3C15 JUMP JUMPDEST PUSH1 0x20 DUP2 MLOAD SWAP2 ADD KECCAK256 EQ DUP1 ISZERO PUSH2 0xAC3 JUMPI JUMPDEST DUP1 ISZERO PUSH2 0xA9B JUMPI JUMPDEST PUSH2 0xA51 JUMPI JUMPDEST PUSH1 0x1 ADD PUSH2 0xA0B JUMP JUMPDEST SWAP7 PUSH1 0x1 SWAP1 PUSH2 0xA93 SWAP1 PUSH1 0x1 PUSH1 0x1 PUSH1 0xA0 SHL SUB PUSH2 0xA6B DUP12 DUP8 PUSH2 0x311E JUMP JUMPDEST MLOAD AND PUSH2 0xA77 DUP3 DUP9 PUSH2 0x311E JUMP JUMPDEST MSTORE PUSH2 0xA82 DUP11 DUP9 PUSH2 0x311E JUMP JUMPDEST MLOAD PUSH2 0xA8D DUP3 DUP11 PUSH2 0x311E JUMP JUMPDEST MSTORE PUSH2 0x32E5 JUMP JUMPDEST SWAP8 SWAP1 POP PUSH2 0xA49 JUMP JUMPDEST POP PUSH2 0xAA6 DUP2 DUP4 PUSH2 0x311E JUMP JUMPDEST MLOAD PUSH1 0x20 DUP2 MLOAD SWAP2 ADD KECCAK256 PUSH2 0xAB6 PUSH2 0x3C63 JUMP JUMPDEST PUSH1 0x20 DUP2 MLOAD SWAP2 ADD KECCAK256 EQ PUSH2 0xA44 JUMP JUMPDEST POP PUSH2 0xACE DUP2 DUP4 PUSH2 0x311E JUMP JUMPDEST MLOAD PUSH1 0x20 DUP2 MLOAD SWAP2 ADD KECCAK256 PUSH2 0xADE PUSH2 0x3C3A JUMP JUMPDEST PUSH1 0x20 DUP2 MLOAD SWAP2 ADD KECCAK256 EQ PUSH2 0xA3D JUMP JUMPDEST DUP7 DUP5 DUP8 PUSH1 0x40 MLOAD SWAP2 PUSH1 0x40 DUP4 ADD SWAP1 PUSH1 0x40 DUP5 MSTORE MLOAD DUP1 SWAP2 MSTORE PUSH1 0x60 DUP4 ADD SWAP4 SWAP1 PUSH1 0x0 JUMPDEST DUP2 DUP2 LT PUSH2 0xB27 JUMPI DUP5 DUP1 PUSH2 0xB23 DUP9 DUP8 DUP4 DUP3 SUB PUSH1 0x20 DUP6 ADD MSTORE PUSH2 0x2CEF JUMP JUMPDEST SUB SWAP1 RETURN JUMPDEST DUP3 MLOAD PUSH1 0x1 PUSH1 0x1 PUSH1 0xA0 SHL SUB AND DUP7 MSTORE PUSH1 0x20 SWAP6 DUP7 ADD SWAP6 SWAP1 SWAP3 ADD SWAP2 PUSH1 0x1 ADD PUSH2 0xB08 JUMP JUMPDEST PUSH1 0x40 MLOAD PUSH3 0x461BCD PUSH1 0xE5 SHL DUP2 MSTORE PUSH1 0x20 PUSH1 0x4 DUP3 ADD MSTORE PUSH1 0x24 DUP1 DUP3 ADD MSTORE PUSH32 0x5061727469636970616E74732F77656967687473206C656E677468206D69736D PUSH1 0x44 DUP3 ADD MSTORE PUSH4 0xC2E8C6D PUSH1 0xE3 SHL PUSH1 0x64 DUP3 ADD MSTORE PUSH1 0x84 SWAP1 REVERT JUMPDEST PUSH1 0x40 MLOAD PUSH3 0x461BCD PUSH1 0xE5 SHL DUP2 MSTORE PUSH1 0x20 PUSH1 0x4 DUP3 ADD MSTORE PUSH1 0x22 PUSH1 0x24 DUP3 ADD MSTORE PUSH32 0x5061727469636970616E74732F726F6C6573206C656E677468206D69736D6174 PUSH1 0x44 DUP3 ADD MSTORE PUSH2 0xC6D PUSH1 0xF3 SHL PUSH1 0x64 DUP3 ADD MSTORE PUSH1 0x84 SWAP1 REVERT JUMPDEST CALLVALUE PUSH2 0x1BB JUMPI PUSH1 0x20 CALLDATASIZE PUSH1 0x3 NOT ADD SLT PUSH2 0x1BB JUMPI PUSH1 0x4 CALLDATALOAD PUSH2 0xC10 PUSH1 0x1 DUP1 PUSH1 0xA0 SHL SUB PUSH1 0x0 SLOAD AND CALLER EQ PUSH2 0x31AD JUMP JUMPDEST DUP1 PUSH1 0x0 MSTORE PUSH1 0x8 PUSH1 0x20 MSTORE PUSH1 0xFF PUSH1 0x3 PUSH1 0x40 PUSH1 0x0 KECCAK256 ADD SLOAD AND ISZERO PUSH2 0xD09 JUMPI PUSH1 0x0 MSTORE PUSH1 0x8 PUSH1 0x20 MSTORE PUSH2 0xC42 PUSH1 0x1 PUSH1 0x40 PUSH1 0x0 KECCAK256 ADD PUSH2 0x3155 JUMP JUMPDEST PUSH1 0x0 JUMPDEST DUP2 MLOAD DUP2 LT ISZERO PUSH2 0x584 JUMPI DUP1 PUSH2 0xC5B PUSH1 0x1 SWAP3 DUP5 PUSH2 0x311E JUMP JUMPDEST MLOAD PUSH1 0x40 MLOAD PUSH1 0xFF DUP5 DUP4 MLOAD SWAP3 PUSH1 0x20 DUP2 DUP2 DUP8 ADD SWAP6 PUSH2 0xC77 DUP2 DUP4 DUP10 PUSH2 0x2C4E JUMP JUMPDEST DUP2 ADD PUSH1 0x7 DUP2 MSTORE SUB ADD SWAP1 KECCAK256 ADD SLOAD AND SWAP1 DUP2 PUSH2 0xCD6 JUMPI JUMPDEST POP PUSH2 0xC98 JUMPI JUMPDEST POP ADD PUSH2 0xC45 JUMP JUMPDEST PUSH2 0xCD0 SWAP1 PUSH1 0x40 SWAP1 PUSH2 0xCAB DUP3 MLOAD SWAP3 DUP4 PUSH2 0x2BC9 JUMP JUMPDEST PUSH1 0x13 DUP3 MSTORE PUSH19 0x4D616E75616C20626174636820656E64696E67 PUSH1 0x68 SHL PUSH1 0x20 DUP4 ADD MSTORE PUSH2 0x3DC5 JUMP JUMPDEST DUP4 PUSH2 0xC91 JUMP JUMPDEST PUSH1 0xFF SWAP2 POP PUSH2 0xCF2 PUSH1 0x20 DUP7 SWAP3 PUSH1 0x40 MLOAD DUP1 SWAP4 DUP2 SWAP3 DUP9 MLOAD SWAP3 DUP4 SWAP2 PUSH2 0x2C4E JUMP JUMPDEST DUP2 ADD PUSH1 0x7 DUP2 MSTORE SUB ADD SWAP1 KECCAK256 ADD SLOAD PUSH1 0x8 SHR AND ISZERO DUP6 PUSH2 0xC8B JUMP JUMPDEST PUSH1 0x40 MLOAD PUSH3 0x461BCD PUSH1 0xE5 SHL DUP2 MSTORE PUSH1 0x20 PUSH1 0x4 DUP3 ADD MSTORE PUSH1 0x10 PUSH1 0x24 DUP3 ADD MSTORE PUSH16 0x4261746368206E6F7420616374697665 PUSH1 0x80 SHL PUSH1 0x44 DUP3 ADD MSTORE PUSH1 0x64 SWAP1 REVERT JUMPDEST CALLVALUE PUSH2 0x1BB JUMPI PUSH1 0x20 CALLDATASIZE PUSH1 0x3 NOT ADD SLT PUSH2 0x1BB JUMPI PUSH1 0x4 CALLDATALOAD PUSH1 0x1 PUSH1 0x1 PUSH1 0x40 SHL SUB DUP2 GT PUSH2 0x1BB JUMPI PUSH2 0xDA7 PUSH2 0xB23 PUSH2 0xD82 PUSH2 0xD7D PUSH2 0xD99 SWAP5 CALLDATASIZE SWAP1 PUSH1 0x4 ADD PUSH2 0x2C07 JUMP JUMPDEST PUSH2 0x39C1 JUMP JUMPDEST SWAP2 SWAP4 SWAP1 PUSH1 0x40 MLOAD SWAP6 DUP7 SWAP6 PUSH1 0x60 DUP8 MSTORE PUSH1 0x60 DUP8 ADD SWAP1 PUSH2 0x2C96 JUMP JUMPDEST SWAP1 DUP6 DUP3 SUB PUSH1 0x20 DUP8 ADD MSTORE PUSH2 0x2CEF JUMP JUMPDEST SWAP1 DUP4 DUP3 SUB PUSH1 0x40 DUP6 ADD MSTORE PUSH2 0x2CEF JUMP JUMPDEST CALLVALUE PUSH2 0x1BB JUMPI PUSH1 0x20 CALLDATASIZE PUSH1 0x3 NOT ADD SLT PUSH2 0x1BB JUMPI PUSH1 0x4 CALLDATALOAD PUSH1 0x0 MSTORE PUSH1 0x8 PUSH1 0x20 MSTORE PUSH1 0x80 PUSH1 0x40 PUSH1 0x0 KECCAK256 DUP1 SLOAD SWAP1 PUSH1 0x2 DUP2 ADD SLOAD SWAP1 PUSH1 0x4 PUSH1 0xFF PUSH1 0x3 DUP4 ADD SLOAD AND SWAP2 ADD SLOAD SWAP2 PUSH1 0x40 MLOAD SWAP4 DUP5 MSTORE PUSH1 0x20 DUP5 ADD MSTORE ISZERO ISZERO PUSH1 0x40 DUP4 ADD MSTORE PUSH1 0x60 DUP3 ADD MSTORE RETURN JUMPDEST CALLVALUE PUSH2 0x1BB JUMPI PUSH1 0x0 CALLDATASIZE PUSH1 0x3 NOT ADD SLT PUSH2 0x1BB JUMPI PUSH1 0x5 SLOAD PUSH2 0xE25 DUP2 PUSH2 0x2D23 JUMP JUMPDEST SWAP1 PUSH2 0xE33 PUSH1 0x40 MLOAD SWAP3 DUP4 PUSH2 0x2BC9 JUMP JUMPDEST DUP1 DUP3 MSTORE PUSH1 0x1F NOT PUSH2 0xE42 DUP3 PUSH2 0x2D23 JUMP JUMPDEST ADD PUSH1 0x0 JUMPDEST DUP2 DUP2 LT PUSH2 0xF23 JUMPI POP POP PUSH1 0x0 JUMPDEST DUP2 DUP2 LT PUSH2 0xEB4 JUMPI DUP3 PUSH1 0x40 MLOAD DUP1 SWAP2 PUSH1 0x20 DUP3 ADD PUSH1 0x20 DUP4 MSTORE DUP2 MLOAD DUP1 SWAP2 MSTORE PUSH1 0x20 PUSH1 0x40 DUP5 ADD SWAP3 ADD SWAP1 PUSH1 0x0 JUMPDEST DUP2 DUP2 LT PUSH2 0xE86 JUMPI POP POP POP SUB SWAP1 RETURN JUMPDEST DUP3 MLOAD DUP1 MLOAD PUSH1 0x1 PUSH1 0x1 PUSH1 0xA0 SHL SUB AND DUP6 MSTORE PUSH1 0x20 SWAP1 DUP2 ADD MLOAD DUP2 DUP7 ADD MSTORE DUP7 SWAP6 POP PUSH1 0x40 SWAP1 SWAP5 ADD SWAP4 SWAP1 SWAP3 ADD SWAP2 PUSH1 0x1 ADD PUSH2 0xE78 JUMP JUMPDEST DUP1 PUSH2 0xEC0 PUSH1 0x1 SWAP3 PUSH2 0x2E15 JUMP JUMPDEST DUP4 DUP1 PUSH1 0xA0 SHL SUB SWAP2 SLOAD SWAP1 PUSH1 0x3 SHL SHR AND PUSH2 0xED7 DUP3 PUSH2 0x2E15 JUMP JUMPDEST DUP5 DUP1 PUSH1 0xA0 SHL SUB SWAP2 SLOAD SWAP1 PUSH1 0x3 SHL SHR AND PUSH1 0x0 MSTORE PUSH1 0x4 PUSH1 0x20 MSTORE PUSH1 0x40 PUSH1 0x0 KECCAK256 SLOAD PUSH1 0x40 MLOAD SWAP2 PUSH2 0xF00 DUP4 PUSH2 0x2BAE JUMP JUMPDEST DUP3 MSTORE PUSH1 0x20 DUP3 ADD MSTORE PUSH2 0xF11 DUP3 DUP7 PUSH2 0x311E JUMP JUMPDEST MSTORE PUSH2 0xF1C DUP2 DUP6 PUSH2 0x311E JUMP JUMPDEST POP ADD PUSH2 0xE52 JUMP JUMPDEST PUSH1 0x20 SWAP1 PUSH1 0x40 MLOAD PUSH2 0xF32 DUP2 PUSH2 0x2BAE JUMP JUMPDEST PUSH1 0x0 DUP2 MSTORE PUSH1 0x0 DUP4 DUP3 ADD MSTORE DUP3 DUP3 DUP8 ADD ADD MSTORE ADD PUSH2 0xE46 JUMP JUMPDEST CALLVALUE PUSH2 0x1BB JUMPI PUSH1 0xA0 CALLDATASIZE PUSH1 0x3 NOT ADD SLT PUSH2 0x1BB JUMPI PUSH1 0x4 CALLDATALOAD PUSH1 0x1 PUSH1 0x1 PUSH1 0x40 SHL SUB DUP2 GT PUSH2 0x1BB JUMPI PUSH2 0xF78 SWAP1 CALLDATASIZE SWAP1 PUSH1 0x4 ADD PUSH2 0x2D3A JUMP JUMPDEST PUSH1 0x24 CALLDATALOAD PUSH1 0x1 PUSH1 0x1 PUSH1 0x40 SHL SUB DUP2 GT PUSH2 0x1BB JUMPI PUSH2 0xF97 SWAP1 CALLDATASIZE SWAP1 PUSH1 0x4 ADD PUSH2 0x2FFA JUMP JUMPDEST PUSH1 0x44 CALLDATALOAD SWAP2 PUSH1 0x1 PUSH1 0x1 PUSH1 0x40 SHL SUB DUP4 GT PUSH2 0x1BB JUMPI PUSH2 0xFD2 PUSH2 0x1008 SWAP3 PUSH2 0xFFA SWAP3 PUSH2 0xFC5 PUSH2 0xFEC SWAP7 CALLDATASIZE SWAP1 PUSH1 0x4 ADD PUSH2 0x2D3A JUMP JUMPDEST PUSH1 0x84 CALLDATALOAD SWAP3 PUSH1 0x64 CALLDATALOAD SWAP3 PUSH2 0x369C JUMP JUMPDEST SWAP4 SWAP6 SWAP3 PUSH1 0x40 SWAP6 SWAP2 SWAP6 MLOAD SWAP8 DUP9 SWAP8 PUSH1 0xA0 DUP10 MSTORE PUSH1 0xA0 DUP10 ADD SWAP1 PUSH2 0x2C96 JUMP JUMPDEST SWAP1 DUP8 DUP3 SUB PUSH1 0x20 DUP10 ADD MSTORE PUSH2 0x2C96 JUMP JUMPDEST SWAP1 DUP6 DUP3 SUB PUSH1 0x40 DUP8 ADD MSTORE PUSH2 0x2C96 JUMP JUMPDEST SWAP2 PUSH1 0x60 DUP5 ADD MSTORE PUSH1 0x80 DUP4 ADD MSTORE SUB SWAP1 RETURN JUMPDEST CALLVALUE PUSH2 0x1BB JUMPI PUSH1 0x60 CALLDATASIZE PUSH1 0x3 NOT ADD SLT PUSH2 0x1BB JUMPI PUSH1 0x24 CALLDATALOAD PUSH1 0x1 PUSH1 0x1 PUSH1 0x40 SHL SUB DUP2 GT PUSH2 0x1BB JUMPI PUSH2 0x1047 SWAP1 CALLDATASIZE SWAP1 PUSH1 0x4 ADD PUSH2 0x2D3A JUMP JUMPDEST PUSH1 0x44 CALLDATALOAD PUSH1 0x1 PUSH1 0x1 PUSH1 0x40 SHL SUB DUP2 GT PUSH2 0x1BB JUMPI PUSH2 0x1066 SWAP1 CALLDATASIZE SWAP1 PUSH1 0x4 ADD PUSH2 0x2FFA JUMP JUMPDEST SWAP1 PUSH2 0x1074 DUP2 MLOAD DUP4 MLOAD EQ PUSH2 0x3651 JUMP JUMPDEST PUSH1 0x0 DUP1 DUP1 JUMPDEST DUP4 MLOAD DUP3 LT ISZERO PUSH2 0x10CA JUMPI PUSH2 0x108C DUP3 DUP7 PUSH2 0x311E JUMP JUMPDEST MLOAD ISZERO PUSH2 0x10A6 JUMPI PUSH2 0x109D PUSH1 0x1 SWAP2 PUSH2 0x32E5 JUMP JUMPDEST SWAP2 JUMPDEST ADD SWAP1 PUSH2 0x1079 JUMP JUMPDEST SWAP1 DUP4 MLOAD PUSH2 0x10B6 JUMPI JUMPDEST PUSH1 0x1 SWAP1 PUSH2 0x109F JUMP JUMPDEST SWAP2 PUSH2 0x10C2 PUSH1 0x1 SWAP2 PUSH2 0x32E5 JUMP JUMPDEST SWAP3 SWAP1 POP PUSH2 0x10AE JUMP JUMPDEST DUP4 MLOAD DUP4 DUP2 ISZERO ISZERO DUP7 DUP2 PUSH2 0x1113 JUMPI JUMPDEST PUSH2 0x1107 SWAP2 SWAP3 PUSH1 0x40 MLOAD SWAP6 DUP7 SWAP6 PUSH1 0x4 CALLDATALOAD DUP8 MSTORE PUSH1 0x20 DUP8 ADD MSTORE PUSH1 0x40 DUP7 ADD MSTORE PUSH1 0x60 DUP6 ADD MSTORE PUSH1 0xC0 PUSH1 0x80 DUP6 ADD MSTORE PUSH1 0xC0 DUP5 ADD SWAP1 PUSH2 0x2C96 JUMP JUMPDEST SWAP1 ISZERO ISZERO PUSH1 0xA0 DUP4 ADD MSTORE SUB SWAP1 RETURN JUMPDEST DUP5 ISZERO ISZERO SWAP2 POP PUSH2 0x10D7 JUMP JUMPDEST CALLVALUE PUSH2 0x1BB JUMPI PUSH1 0x0 CALLDATASIZE PUSH1 0x3 NOT ADD SLT PUSH2 0x1BB JUMPI PUSH1 0x20 PUSH1 0x2 SLOAD PUSH1 0x40 MLOAD SWAP1 DUP2 MSTORE RETURN JUMPDEST CALLVALUE PUSH2 0x1BB JUMPI PUSH1 0x60 CALLDATASIZE PUSH1 0x3 NOT ADD SLT PUSH2 0x1BB JUMPI PUSH1 0x4 CALLDATALOAD PUSH1 0x1 PUSH1 0x1 PUSH1 0x40 SHL SUB DUP2 GT PUSH2 0x1BB JUMPI PUSH2 0x116B SWAP1 CALLDATASIZE SWAP1 PUSH1 0x4 ADD PUSH2 0x2D3A JUMP JUMPDEST PUSH1 0x24 CALLDATALOAD PUSH1 0x1 PUSH1 0x1 PUSH1 0x40 SHL SUB DUP2 GT PUSH2 0x1BB JUMPI PUSH2 0x118A SWAP1 CALLDATASIZE SWAP1 PUSH1 0x4 ADD PUSH2 0x2D3A JUMP JUMPDEST PUSH1 0x44 CALLDATALOAD PUSH1 0x1 PUSH1 0x1 PUSH1 0xA0 SHL SUB DUP2 AND SWAP1 DUP2 SWAP1 SUB PUSH2 0x1BB JUMPI PUSH2 0x11B4 PUSH1 0x1 DUP1 PUSH1 0xA0 SHL SUB PUSH1 0x0 SLOAD AND CALLER EQ PUSH2 0x31AD JUMP JUMPDEST DUP3 MLOAD DUP3 MLOAD SUB PUSH2 0x1527 JUMPI DUP3 MLOAD ISZERO PUSH2 0x14F4 JUMPI DUP1 PUSH1 0x0 MSTORE PUSH1 0x4 PUSH1 0x20 MSTORE PUSH1 0x40 PUSH1 0x0 KECCAK256 SLOAD ISZERO PUSH2 0x14B8 JUMPI PUSH1 0x0 SWAP2 PUSH1 0x0 JUMPDEST DUP5 MLOAD DUP2 LT ISZERO PUSH2 0x13E6 JUMPI PUSH2 0x11F1 DUP2 DUP7 PUSH2 0x311E JUMP JUMPDEST MLOAD PUSH2 0x11FC DUP3 DUP5 PUSH2 0x311E JUMP JUMPDEST MLOAD PUSH1 0x40 MLOAD PUSH2 0x121C PUSH1 0xFF PUSH1 0x1 DUP6 MLOAD SWAP4 PUSH1 0x20 DUP2 DUP2 DUP10 ADD SWAP7 PUSH2 0x385 DUP2 DUP4 DUP11 PUSH2 0x2C4E JUMP JUMPDEST PUSH2 0x1236 PUSH1 0xFF PUSH1 0x1 PUSH1 0x40 MLOAD PUSH1 0x20 DUP2 DUP9 MLOAD PUSH2 0x3B0 DUP2 DUP4 DUP11 PUSH2 0x2C4E JUMP JUMPDEST PUSH2 0x126E PUSH1 0xFF PUSH1 0x40 PUSH1 0x5 DUP2 MLOAD PUSH1 0x20 DUP2 DUP10 MLOAD PUSH2 0x1251 DUP2 DUP4 DUP12 PUSH2 0x2C4E JUMP JUMPDEST DUP2 ADD PUSH1 0x7 DUP2 MSTORE SUB ADD SWAP1 KECCAK256 ADD PUSH1 0x0 SWAP1 DUP11 DUP3 MSTORE PUSH1 0x20 MSTORE KECCAK256 SLOAD AND ISZERO PUSH2 0x3429 JUMP JUMPDEST DUP4 ISZERO PUSH2 0x13AF JUMPI JUMPDEST SWAP2 DUP6 SWAP2 PUSH1 0x1 SWAP5 SWAP4 PUSH2 0x1285 DUP4 PUSH2 0x3D8B JUMP JUMPDEST PUSH2 0x139B JUMPI SWAP2 PUSH2 0x1385 PUSH2 0x4B8 SWAP3 PUSH1 0x0 DUP1 MLOAD PUSH1 0x20 PUSH2 0x45EC DUP4 CODECOPY DUP2 MLOAD SWAP2 MSTORE SWAP5 PUSH2 0x12E8 PUSH1 0x40 MLOAD PUSH1 0x20 DUP2 DUP8 MLOAD PUSH2 0x12B7 DUP2 DUP4 DUP9 PUSH2 0x2C4E JUMP JUMPDEST DUP2 ADD PUSH1 0x6 DUP2 MSTORE SUB ADD SWAP1 KECCAK256 PUSH1 0x40 MLOAD SWAP1 PUSH2 0x12CE DUP3 PUSH2 0x2B93 JUMP JUMPDEST DUP10 DUP3 MSTORE DUP5 PUSH1 0x20 DUP4 ADD MSTORE DUP12 PUSH1 0x40 DUP4 ADD MSTORE TIMESTAMP PUSH1 0x60 DUP4 ADD MSTORE PUSH2 0x34A1 JUMP JUMPDEST PUSH1 0x40 PUSH1 0x5 DUP2 MLOAD PUSH1 0x20 DUP2 DUP9 MLOAD PUSH2 0x12FE DUP2 DUP4 DUP10 PUSH2 0x2C4E JUMP JUMPDEST DUP2 ADD PUSH1 0x7 DUP2 MSTORE SUB ADD SWAP1 KECCAK256 ADD PUSH1 0x0 SWAP1 DUP10 DUP3 MSTORE PUSH1 0x20 MSTORE KECCAK256 DUP10 PUSH1 0xFF NOT DUP3 SLOAD AND OR SWAP1 SSTORE PUSH2 0x1335 PUSH1 0x6 PUSH1 0x40 MLOAD PUSH1 0x20 DUP2 DUP9 MLOAD PUSH2 0x4F7 DUP2 DUP4 DUP10 PUSH2 0x2C4E JUMP JUMPDEST PUSH2 0x133F DUP2 SLOAD PUSH2 0x32E5 JUMP JUMPDEST SWAP1 SSTORE DUP7 PUSH1 0x0 MSTORE PUSH1 0x4 PUSH1 0x20 MSTORE PUSH2 0x136F PUSH2 0x552 PUSH1 0x7 PUSH2 0x542 PUSH1 0x20 PUSH1 0x40 PUSH1 0x0 KECCAK256 SLOAD SWAP6 PUSH1 0x40 MLOAD DUP1 SWAP4 DUP2 SWAP3 DUP13 MLOAD SWAP3 DUP4 SWAP2 PUSH2 0x2C4E JUMP JUMPDEST SWAP1 SSTORE PUSH1 0x40 MLOAD SWAP4 DUP5 SWAP4 PUSH1 0x80 DUP6 MSTORE PUSH1 0x80 DUP6 ADD SWAP1 PUSH2 0x2C71 JUMP JUMPDEST DUP7 PUSH1 0x40 DUP4 ADD MSTORE TIMESTAMP PUSH1 0x60 DUP4 ADD MSTORE SUB SWAP1 LOG2 JUMPDEST ADD PUSH2 0x11DE JUMP JUMPDEST POP POP PUSH2 0x13AA SWAP2 POP PUSH2 0x571 PUSH2 0x3474 JUMP JUMPDEST PUSH2 0x1395 JUMP JUMPDEST SWAP6 POP PUSH1 0x1 SWAP3 SWAP2 DUP6 SWAP2 PUSH1 0x4 PUSH1 0x40 MLOAD PUSH1 0x20 DUP2 DUP1 PUSH2 0x13CE DUP14 DUP9 MLOAD SWAP3 DUP4 SWAP2 PUSH2 0x2C4E JUMP JUMPDEST DUP2 ADD PUSH1 0x7 DUP2 MSTORE SUB ADD SWAP1 KECCAK256 ADD SLOAD SWAP8 SWAP2 SWAP4 SWAP5 POP SWAP2 POP PUSH2 0x1275 JUMP JUMPDEST DUP4 DUP1 ISZERO ISZERO DUP1 PUSH2 0x14A9 JUMPI JUMPDEST PUSH2 0x13F6 JUMPI STOP JUMPDEST PUSH1 0x0 MSTORE PUSH1 0x8 PUSH1 0x20 MSTORE PUSH2 0x140E PUSH1 0x1 PUSH1 0x40 PUSH1 0x0 KECCAK256 ADD PUSH2 0x3155 JUMP JUMPDEST PUSH1 0x0 JUMPDEST DUP2 MLOAD DUP2 LT ISZERO PUSH2 0x584 JUMPI DUP1 PUSH2 0x1427 PUSH1 0x1 SWAP3 DUP5 PUSH2 0x311E JUMP JUMPDEST MLOAD PUSH1 0x40 MLOAD PUSH1 0xFF DUP5 DUP4 MLOAD SWAP3 PUSH1 0x20 DUP2 DUP2 DUP8 ADD SWAP6 PUSH2 0x1443 DUP2 DUP4 DUP10 PUSH2 0x2C4E JUMP JUMPDEST DUP2 ADD PUSH1 0x7 DUP2 MSTORE SUB ADD SWAP1 KECCAK256 ADD SLOAD AND SWAP1 DUP2 PUSH2 0x1476 JUMPI JUMPDEST POP PUSH2 0x1464 JUMPI JUMPDEST POP ADD PUSH2 0x1411 JUMP JUMPDEST PUSH2 0x1470 SWAP1 PUSH2 0x571 PUSH2 0x3619 JUMP JUMPDEST DUP4 PUSH2 0x145D JUMP JUMPDEST PUSH1 0xFF SWAP2 POP PUSH2 0x1492 PUSH1 0x20 DUP7 SWAP3 PUSH1 0x40 MLOAD DUP1 SWAP4 DUP2 SWAP3 DUP9 MLOAD SWAP3 DUP4 SWAP2 PUSH2 0x2C4E JUMP JUMPDEST DUP2 ADD PUSH1 0x7 DUP2 MSTORE SUB ADD SWAP1 KECCAK256 ADD SLOAD PUSH1 0x8 SHR AND ISZERO DUP6 PUSH2 0x1457 JUMP JUMPDEST POP PUSH2 0x14B3 DUP2 PUSH2 0x4220 JUMP JUMPDEST PUSH2 0x13F0 JUMP JUMPDEST PUSH1 0x40 MLOAD PUSH3 0x461BCD PUSH1 0xE5 SHL DUP2 MSTORE PUSH1 0x20 PUSH1 0x4 DUP3 ADD MSTORE PUSH1 0x14 PUSH1 0x24 DUP3 ADD MSTORE PUSH20 0x159BDD195C881B9BDD081C9959DA5CDD195C9959 PUSH1 0x62 SHL PUSH1 0x44 DUP3 ADD MSTORE PUSH1 0x64 SWAP1 REVERT JUMPDEST PUSH1 0x40 MLOAD PUSH3 0x461BCD PUSH1 0xE5 SHL DUP2 MSTORE PUSH1 0x20 PUSH1 0x4 DUP3 ADD MSTORE PUSH1 0xB PUSH1 0x24 DUP3 ADD MSTORE PUSH11 0x8ADAE0E8F240C4C2E8C6D PUSH1 0xAB SHL PUSH1 0x44 DUP3 ADD MSTORE PUSH1 0x64 SWAP1 REVERT JUMPDEST PUSH1 0x40 MLOAD PUSH3 0x461BCD PUSH1 0xE5 SHL DUP2 MSTORE PUSH1 0x20 PUSH1 0x4 DUP3 ADD MSTORE PUSH1 0x11 PUSH1 0x24 DUP3 ADD MSTORE PUSH17 0x4D69736D61746368656420617272617973 PUSH1 0x78 SHL PUSH1 0x44 DUP3 ADD MSTORE PUSH1 0x64 SWAP1 REVERT JUMPDEST CALLVALUE PUSH2 0x1BB JUMPI PUSH1 0x0 CALLDATASIZE PUSH1 0x3 NOT ADD SLT PUSH2 0x1BB JUMPI PUSH1 0x20 PUSH1 0x9 SLOAD PUSH1 0x40 MLOAD SWAP1 DUP2 MSTORE RETURN JUMPDEST CALLVALUE PUSH2 0x1BB JUMPI PUSH1 0x0 CALLDATASIZE PUSH1 0x3 NOT ADD SLT PUSH2 0x1BB JUMPI PUSH1 0x9 SLOAD DUP1 PUSH1 0x0 MSTORE PUSH1 0x8 PUSH1 0x20 MSTORE PUSH1 0x40 PUSH1 0x0 KECCAK256 SWAP1 PUSH2 0xB23 PUSH1 0xFF PUSH1 0x3 DUP5 ADD SLOAD AND SWAP3 PUSH1 0x1 DUP2 ADD PUSH2 0x15C1 PUSH1 0x2 DUP3 SLOAD SWAP4 ADD SLOAD SWAP2 PUSH2 0x3155 JUMP JUMPDEST SWAP2 PUSH1 0x40 MLOAD SWAP6 DUP7 SWAP6 DUP7 MSTORE ISZERO ISZERO PUSH1 0x20 DUP7 ADD MSTORE PUSH1 0x40 DUP6 ADD MSTORE PUSH1 0x60 DUP5 ADD MSTORE PUSH1 0xA0 PUSH1 0x80 DUP5 ADD MSTORE PUSH1 0xA0 DUP4 ADD SWAP1 PUSH2 0x2C96 JUMP JUMPDEST CALLVALUE PUSH2 0x1BB JUMPI PUSH1 0x20 CALLDATASIZE PUSH1 0x3 NOT ADD SLT PUSH2 0x1BB JUMPI PUSH1 0x4 CALLDATALOAD PUSH1 0x1 PUSH1 0x1 PUSH1 0x40 SHL SUB DUP2 GT PUSH2 0x1BB JUMPI PUSH1 0x20 PUSH2 0x21E PUSH2 0x1621 SWAP3 CALLDATASIZE SWAP1 PUSH1 0x4 ADD PUSH2 0x2C07 JUMP JUMPDEST DUP2 ADD PUSH1 0x6 DUP2 MSTORE SUB ADD SWAP1 KECCAK256 DUP1 SLOAD SWAP1 PUSH2 0x1637 DUP3 PUSH2 0x2D23 JUMP JUMPDEST SWAP2 PUSH2 0x1645 PUSH1 0x40 MLOAD SWAP4 DUP5 PUSH2 0x2BC9 JUMP JUMPDEST DUP1 DUP4 MSTORE PUSH1 0x20 DUP4 ADD DUP1 SWAP3 PUSH1 0x0 MSTORE PUSH1 0x20 PUSH1 0x0 KECCAK256 PUSH1 0x0 SWAP2 JUMPDEST DUP4 DUP4 LT PUSH2 0x16F8 JUMPI DUP5 DUP7 PUSH1 0x40 MLOAD SWAP2 DUP3 SWAP2 PUSH1 0x20 DUP4 ADD SWAP1 PUSH1 0x20 DUP5 MSTORE MLOAD DUP1 SWAP2 MSTORE PUSH1 0x40 DUP4 ADD SWAP1 PUSH1 0x40 DUP2 PUSH1 0x5 SHL DUP6 ADD ADD SWAP3 SWAP2 PUSH1 0x0 SWAP1 JUMPDEST DUP3 DUP3 LT PUSH2 0x1699 JUMPI POP POP POP POP SUB SWAP1 RETURN JUMPDEST SWAP2 SWAP4 PUSH1 0x1 SWAP2 SWAP4 SWAP6 POP PUSH1 0x20 DUP1 SWAP2 PUSH1 0x3F NOT DUP10 DUP3 SUB ADD DUP6 MSTORE DUP8 MLOAD SWAP1 DUP5 DUP1 PUSH1 0xA0 SHL SUB DUP3 MLOAD AND DUP2 MSTORE PUSH1 0x60 DUP1 PUSH2 0x16D6 DUP6 DUP6 ADD MLOAD PUSH1 0x80 DUP8 DUP7 ADD MSTORE PUSH1 0x80 DUP6 ADD SWAP1 PUSH2 0x2C71 JUMP JUMPDEST SWAP4 PUSH1 0x40 DUP2 ADD MLOAD ISZERO ISZERO PUSH1 0x40 DUP6 ADD MSTORE ADD MLOAD SWAP2 ADD MSTORE SWAP7 ADD SWAP3 ADD SWAP3 ADD DUP6 SWAP5 SWAP4 SWAP2 SWAP3 PUSH2 0x168A JUMP JUMPDEST PUSH1 0x4 PUSH1 0x20 PUSH1 0x1 SWAP3 PUSH1 0x40 MLOAD PUSH2 0x170B DUP2 PUSH2 0x2B93 JUMP JUMPDEST DUP5 DUP1 PUSH1 0xA0 SHL SUB DUP7 SLOAD AND DUP2 MSTORE PUSH2 0x1721 DUP6 DUP8 ADD PUSH2 0x2E80 JUMP JUMPDEST DUP4 DUP3 ADD MSTORE PUSH1 0xFF PUSH1 0x2 DUP8 ADD SLOAD AND ISZERO ISZERO PUSH1 0x40 DUP3 ADD MSTORE PUSH1 0x3 DUP7 ADD SLOAD PUSH1 0x60 DUP3 ADD MSTORE DUP2 MSTORE ADD SWAP3 ADD SWAP3 ADD SWAP2 SWAP1 PUSH2 0x165A JUMP JUMPDEST CALLVALUE PUSH2 0x1BB JUMPI PUSH1 0x20 CALLDATASIZE PUSH1 0x3 NOT ADD SLT PUSH2 0x1BB JUMPI PUSH1 0x4 CALLDATALOAD PUSH1 0x1 PUSH1 0x1 PUSH1 0x40 SHL SUB DUP2 GT PUSH2 0x1BB JUMPI PUSH1 0x20 PUSH2 0x21E PUSH2 0x1781 SWAP3 CALLDATASIZE SWAP1 PUSH1 0x4 ADD PUSH2 0x2C07 JUMP JUMPDEST DUP2 ADD PUSH1 0x7 DUP2 MSTORE SUB ADD SWAP1 KECCAK256 DUP1 SLOAD PUSH2 0xB23 PUSH2 0x17A1 PUSH1 0x2 PUSH1 0x1 DUP6 ADD SLOAD SWAP5 ADD PUSH2 0x2E80 JUMP JUMPDEST PUSH1 0xFF PUSH1 0x40 MLOAD SWAP5 DUP6 SWAP5 DUP6 MSTORE DUP2 DUP2 AND ISZERO ISZERO PUSH1 0x20 DUP7 ADD MSTORE PUSH1 0x8 SHR AND ISZERO ISZERO PUSH1 0x40 DUP5 ADD MSTORE PUSH1 0x80 PUSH1 0x60 DUP5 ADD MSTORE PUSH1 0x80 DUP4 ADD SWAP1 PUSH2 0x2C71 JUMP JUMPDEST CALLVALUE PUSH2 0x1BB JUMPI PUSH1 0x40 CALLDATASIZE PUSH1 0x3 NOT ADD SLT PUSH2 0x1BB JUMPI PUSH1 0x4 CALLDATALOAD PUSH1 0x1 PUSH1 0x1 PUSH1 0x40 SHL SUB DUP2 GT PUSH2 0x1BB JUMPI PUSH2 0x1801 SWAP1 CALLDATASIZE SWAP1 PUSH1 0x4 ADD PUSH2 0x2F8C JUMP JUMPDEST PUSH1 0x24 CALLDATALOAD PUSH1 0x1 PUSH1 0x1 PUSH1 0x40 SHL SUB DUP2 GT PUSH2 0x1BB JUMPI PUSH2 0x1820 SWAP1 CALLDATASIZE SWAP1 PUSH1 0x4 ADD PUSH2 0x2DB8 JUMP JUMPDEST SWAP1 PUSH2 0x1836 PUSH1 0x1 DUP1 PUSH1 0xA0 SHL SUB PUSH1 0x0 SLOAD AND CALLER EQ PUSH2 0x31AD JUMP JUMPDEST DUP1 MLOAD DUP3 MLOAD SUB PUSH2 0x19BE JUMPI PUSH1 0x0 JUMPDEST PUSH1 0x5 SLOAD DUP2 LT ISZERO PUSH2 0x187B JUMPI DUP1 PUSH2 0x1858 PUSH1 0x1 SWAP3 PUSH2 0x2E15 JUMP JUMPDEST DUP4 DUP1 PUSH1 0xA0 SHL SUB SWAP2 SLOAD SWAP1 PUSH1 0x3 SHL SHR AND PUSH1 0x0 MSTORE PUSH1 0x4 PUSH1 0x20 MSTORE PUSH1 0x0 PUSH1 0x40 DUP2 KECCAK256 SSTORE ADD PUSH2 0x1842 JUMP JUMPDEST POP PUSH1 0x5 SLOAD PUSH1 0x0 PUSH1 0x5 SSTORE DUP1 PUSH2 0x1985 JUMPI JUMPDEST POP PUSH1 0x0 JUMPDEST DUP2 MLOAD DUP2 LT ISZERO PUSH2 0x584 JUMPI PUSH2 0x18A1 DUP2 DUP5 PUSH2 0x311E JUMP JUMPDEST MLOAD ISZERO PUSH2 0x1940 JUMPI PUSH2 0x18B1 DUP2 DUP5 PUSH2 0x311E JUMP JUMPDEST MLOAD PUSH1 0x1 PUSH1 0x1 PUSH1 0xA0 SHL SUB PUSH2 0x18C4 DUP4 DUP6 PUSH2 0x311E JUMP JUMPDEST MLOAD AND PUSH1 0x0 SWAP1 DUP2 MSTORE PUSH1 0x4 PUSH1 0x20 MSTORE PUSH1 0x40 SWAP1 KECCAK256 SSTORE PUSH1 0x1 PUSH1 0x1 PUSH1 0xA0 SHL SUB PUSH2 0x18E7 DUP3 DUP5 PUSH2 0x311E JUMP JUMPDEST MLOAD PUSH1 0x5 SLOAD SWAP3 SWAP2 AND PUSH1 0x1 PUSH1 0x40 SHL DUP4 LT ISZERO PUSH2 0x192A JUMPI PUSH2 0x190B DUP4 PUSH1 0x1 DUP1 SWAP6 ADD PUSH1 0x5 SSTORE PUSH2 0x2E15 JUMP JUMPDEST DUP2 SWAP3 SWAP2 SLOAD SWAP1 PUSH1 0x3 SHL SWAP2 DUP3 SHL SWAP2 DUP6 DUP1 PUSH1 0xA0 SHL SUB SWAP1 SHL NOT AND OR SWAP1 SSTORE ADD PUSH2 0x188E JUMP JUMPDEST PUSH4 0x4E487B71 PUSH1 0xE0 SHL PUSH1 0x0 MSTORE PUSH1 0x41 PUSH1 0x4 MSTORE PUSH1 0x24 PUSH1 0x0 REVERT JUMPDEST PUSH1 0x40 MLOAD PUSH3 0x461BCD PUSH1 0xE5 SHL DUP2 MSTORE PUSH1 0x20 PUSH1 0x4 DUP3 ADD MSTORE PUSH1 0x1D PUSH1 0x24 DUP3 ADD MSTORE PUSH32 0x576569676874206D7573742062652067726561746572207468616E2030000000 PUSH1 0x44 DUP3 ADD MSTORE PUSH1 0x64 SWAP1 REVERT JUMPDEST PUSH1 0x5 PUSH1 0x0 MSTORE PUSH2 0x19B8 SWAP1 PUSH32 0x36B6384B5ECA791C62761152D0C79BB0604C104A5FB6F4EB0703F3154BB3DB0 SWAP1 DUP2 ADD SWAP1 PUSH2 0x31F6 JUMP JUMPDEST DUP3 PUSH2 0x188A JUMP JUMPDEST PUSH1 0x40 MLOAD PUSH3 0x461BCD PUSH1 0xE5 SHL DUP2 MSTORE PUSH1 0x20 PUSH1 0x4 DUP3 ADD MSTORE PUSH1 0x12 PUSH1 0x24 DUP3 ADD MSTORE PUSH18 0x4D69736D617463686564206C656E67746873 PUSH1 0x70 SHL PUSH1 0x44 DUP3 ADD MSTORE PUSH1 0x64 SWAP1 REVERT JUMPDEST CALLVALUE PUSH2 0x1BB JUMPI PUSH1 0x20 CALLDATASIZE PUSH1 0x3 NOT ADD SLT PUSH2 0x1BB JUMPI PUSH1 0x4 CALLDATALOAD PUSH1 0x1 PUSH1 0x1 PUSH1 0x40 SHL SUB DUP2 GT PUSH2 0x1BB JUMPI PUSH1 0x20 PUSH2 0x21E PUSH2 0x1A2D SWAP3 CALLDATASIZE SWAP1 PUSH1 0x4 ADD PUSH2 0x2C07 JUMP JUMPDEST DUP2 ADD PUSH1 0x7 DUP2 MSTORE SUB ADD SWAP1 KECCAK256 PUSH1 0x0 PUSH1 0x2 SLOAD DUP1 ISZERO ISZERO DUP1 PUSH2 0x1B50 JUMPI JUMPDEST DUP1 PUSH2 0x1B3E JUMPI JUMPDEST PUSH2 0x1B19 JUMPI JUMPDEST POP PUSH1 0x0 SWAP1 PUSH1 0x0 SWAP3 PUSH1 0x5 SLOAD PUSH1 0x5 DUP3 ADD SWAP5 JUMPDEST DUP2 DUP2 LT PUSH2 0x1ACC JUMPI POP POP PUSH1 0xFF SWAP4 POP PUSH1 0x1 DUP2 ADD SLOAD SWAP3 DUP2 SLOAD SWAP3 PUSH2 0x1AB3 PUSH2 0x1A8A PUSH1 0x2 PUSH1 0x3 DUP7 ADD SLOAD SWAP6 ADD PUSH2 0x2E80 JUMP JUMPDEST PUSH1 0x40 MLOAD SWAP8 DUP8 DUP2 DUP11 SWAP10 AND ISZERO ISZERO DUP10 MSTORE PUSH1 0x8 SHR AND ISZERO ISZERO PUSH1 0x20 DUP9 ADD MSTORE PUSH1 0xE0 PUSH1 0x40 DUP9 ADD MSTORE PUSH1 0xE0 DUP8 ADD SWAP1 PUSH2 0x2C71 JUMP JUMPDEST SWAP4 PUSH1 0x60 DUP7 ADD MSTORE PUSH1 0x80 DUP6 ADD MSTORE PUSH1 0xA0 DUP5 ADD MSTORE PUSH1 0xC0 DUP4 ADD MSTORE SUB SWAP1 RETURN JUMPDEST PUSH1 0xFF PUSH1 0x40 PUSH2 0x1AD9 DUP4 PUSH2 0x2E15 JUMP JUMPDEST SWAP1 SLOAD PUSH1 0x3 SWAP2 SWAP1 SWAP2 SHL SHR PUSH1 0x1 PUSH1 0x1 PUSH1 0xA0 SHL SUB AND PUSH1 0x0 SWAP1 DUP2 MSTORE PUSH1 0x20 DUP10 SWAP1 MSTORE KECCAK256 SLOAD AND PUSH2 0x1B05 JUMPI JUMPDEST PUSH1 0x1 ADD PUSH2 0x1A60 JUMP JUMPDEST SWAP4 PUSH2 0x1B11 PUSH1 0x1 SWAP2 PUSH2 0x32E5 JUMP JUMPDEST SWAP5 SWAP1 POP PUSH2 0x1AFD JUMP JUMPDEST PUSH2 0x1B24 SWAP1 DUP4 SLOAD PUSH2 0x3389 JUMP JUMPDEST DUP1 TIMESTAMP LT ISZERO PUSH2 0x1A50 JUMPI PUSH2 0x1B38 SWAP2 POP TIMESTAMP SWAP1 PUSH2 0x3132 JUMP JUMPDEST DUP3 PUSH2 0x1A50 JUMP JUMPDEST POP PUSH1 0xFF PUSH1 0x1 DUP5 ADD SLOAD PUSH1 0x8 SHR AND ISZERO PUSH2 0x1A4B JUMP JUMPDEST POP PUSH1 0xFF PUSH1 0x1 DUP5 ADD SLOAD AND PUSH2 0x1A45 JUMP JUMPDEST CALLVALUE PUSH2 0x1BB JUMPI PUSH1 0x20 CALLDATASIZE PUSH1 0x3 NOT ADD SLT PUSH2 0x1BB JUMPI PUSH1 0x4 CALLDATALOAD PUSH1 0x0 MSTORE PUSH1 0x8 PUSH1 0x20 MSTORE PUSH2 0xB23 PUSH2 0x1B8D PUSH1 0x1 PUSH1 0x40 PUSH1 0x0 KECCAK256 ADD PUSH2 0x3155 JUMP JUMPDEST PUSH1 0x40 MLOAD SWAP2 DUP3 SWAP2 PUSH1 0x20 DUP4 MSTORE PUSH1 0x20 DUP4 ADD SWAP1 PUSH2 0x2C96 JUMP JUMPDEST CALLVALUE PUSH2 0x1BB JUMPI PUSH1 0x20 CALLDATASIZE PUSH1 0x3 NOT ADD SLT PUSH2 0x1BB JUMPI PUSH1 0x4 CALLDATALOAD PUSH1 0x1 PUSH1 0x1 PUSH1 0x40 SHL SUB DUP2 GT PUSH2 0x1BB JUMPI PUSH2 0x1BDB PUSH2 0x1BD6 PUSH1 0x20 SWAP3 CALLDATASIZE SWAP1 PUSH1 0x4 ADD PUSH2 0x2C07 JUMP JUMPDEST PUSH2 0x32F4 JUMP JUMPDEST PUSH1 0x40 MLOAD SWAP1 DUP2 MSTORE RETURN JUMPDEST CALLVALUE PUSH2 0x1BB JUMPI PUSH1 0x40 CALLDATASIZE PUSH1 0x3 NOT ADD SLT PUSH2 0x1BB JUMPI PUSH1 0x4 CALLDATALOAD PUSH1 0x1 PUSH1 0x1 PUSH1 0x40 SHL SUB DUP2 GT PUSH2 0x1BB JUMPI PUSH2 0x1C13 SWAP1 CALLDATASIZE SWAP1 PUSH1 0x4 ADD PUSH2 0x2C07 JUMP JUMPDEST PUSH2 0x1C2F PUSH1 0x20 PUSH1 0x24 CALLDATALOAD SWAP3 DUP2 PUSH1 0x40 MLOAD SWAP4 DUP3 DUP6 DUP1 SWAP5 MLOAD SWAP4 DUP5 SWAP3 ADD PUSH2 0x2C4E JUMP JUMPDEST DUP2 ADD PUSH1 0x6 DUP2 MSTORE SUB ADD SWAP1 KECCAK256 SWAP1 DUP2 SLOAD DUP2 LT ISZERO PUSH2 0x1BB JUMPI PUSH2 0x1C4C SWAP2 PUSH2 0x2F70 JUMP JUMPDEST POP DUP1 SLOAD PUSH1 0x1 PUSH1 0x1 PUSH1 0xA0 SHL SUB AND PUSH2 0x1C64 PUSH1 0x1 DUP4 ADD PUSH2 0x2E80 JUMP JUMPDEST SWAP2 PUSH1 0x3 PUSH1 0xFF PUSH1 0x2 DUP4 ADD SLOAD AND SWAP2 ADD SLOAD PUSH2 0x1C8E PUSH1 0x40 MLOAD SWAP5 DUP6 SWAP5 DUP6 MSTORE PUSH1 0x80 PUSH1 0x20 DUP7 ADD MSTORE PUSH1 0x80 DUP6 ADD SWAP1 PUSH2 0x2C71 JUMP JUMPDEST SWAP2 ISZERO ISZERO PUSH1 0x40 DUP5 ADD MSTORE PUSH1 0x60 DUP4 ADD MSTORE SUB SWAP1 RETURN JUMPDEST CALLVALUE PUSH2 0x1BB JUMPI PUSH1 0x40 CALLDATASIZE PUSH1 0x3 NOT ADD SLT PUSH2 0x1BB JUMPI PUSH1 0x4 CALLDATALOAD PUSH1 0x1 PUSH1 0x1 PUSH1 0x40 SHL SUB DUP2 GT PUSH2 0x1BB JUMPI PUSH2 0x1CCF SWAP1 CALLDATASIZE SWAP1 PUSH1 0x4 ADD PUSH2 0x2C07 JUMP JUMPDEST PUSH1 0x24 CALLDATALOAD PUSH1 0x1 PUSH1 0x1 PUSH1 0x40 SHL SUB DUP2 GT PUSH2 0x1BB JUMPI PUSH2 0x1CEE SWAP1 CALLDATASIZE SWAP1 PUSH1 0x4 ADD PUSH2 0x2C07 JUMP JUMPDEST SWAP1 ADDRESS CALLER SUB PUSH2 0x1D93 JUMPI PUSH1 0x0 SLOAD PUSH1 0x1 PUSH1 0x1 PUSH1 0xA0 SHL SUB AND DUP1 EXTCODESIZE ISZERO PUSH2 0x1BB JUMPI PUSH1 0x0 PUSH1 0x40 MLOAD DUP1 SWAP3 PUSH4 0x160C220D PUSH1 0xE3 SHL DUP3 MSTORE DUP2 DUP4 DUP2 PUSH2 0x1D2B DUP10 DUP10 PUSH1 0x4 DUP5 ADD PUSH2 0x32BD JUMP JUMPDEST SUB SWAP3 GAS CALL PUSH2 0x1D82 JUMPI JUMPDEST POP PUSH1 0x0 SLOAD PUSH1 0x1 PUSH1 0x1 PUSH1 0xA0 SHL SUB AND SWAP2 DUP3 EXTCODESIZE ISZERO PUSH2 0x1BB JUMPI PUSH2 0x1D6D SWAP3 PUSH1 0x0 SWAP3 DUP4 PUSH1 0x40 MLOAD DUP1 SWAP7 DUP2 SWAP6 DUP3 SWAP5 PUSH4 0x14FAF32D PUSH1 0xE1 SHL DUP5 MSTORE PUSH1 0x4 DUP5 ADD PUSH2 0x32BD JUMP JUMPDEST SUB SWAP3 GAS CALL PUSH2 0x1D77 JUMPI STOP JUMPDEST PUSH1 0x0 PUSH2 0x584 SWAP2 PUSH2 0x2BC9 JUMP JUMPDEST PUSH1 0x0 PUSH2 0x1D8D SWAP2 PUSH2 0x2BC9 JUMP JUMPDEST DUP3 PUSH2 0x1D34 JUMP JUMPDEST PUSH1 0x40 MLOAD PUSH3 0x461BCD PUSH1 0xE5 SHL DUP2 MSTORE PUSH1 0x20 PUSH1 0x4 DUP3 ADD MSTORE PUSH1 0x12 PUSH1 0x24 DUP3 ADD MSTORE PUSH18 0x496E7465726E616C2063616C6C206F6E6C79 PUSH1 0x70 SHL PUSH1 0x44 DUP3 ADD MSTORE PUSH1 0x64 SWAP1 REVERT JUMPDEST CALLVALUE PUSH2 0x1BB JUMPI PUSH1 0x0 CALLDATASIZE PUSH1 0x3 NOT ADD SLT PUSH2 0x1BB JUMPI PUSH1 0x40 MLOAD PUSH1 0x0 PUSH1 0x3 SLOAD PUSH2 0x1DEF DUP2 PUSH2 0x2E46 JUMP JUMPDEST DUP1 DUP5 MSTORE SWAP1 PUSH1 0x1 DUP2 AND SWAP1 DUP2 ISZERO PUSH2 0x1E8A JUMPI POP PUSH1 0x1 EQ PUSH2 0x1E2B JUMPI JUMPDEST PUSH2 0xB23 DUP4 PUSH2 0x1E17 DUP2 DUP6 SUB DUP3 PUSH2 0x2BC9 JUMP JUMPDEST PUSH1 0x40 MLOAD SWAP2 DUP3 SWAP2 PUSH1 0x20 DUP4 MSTORE PUSH1 0x20 DUP4 ADD SWAP1 PUSH2 0x2C71 JUMP JUMPDEST PUSH1 0x3 PUSH1 0x0 SWAP1 DUP2 MSTORE PUSH32 0xC2575A0E9E593C00F959F8C92F12DB2869C3395A3B0502D05E2516446F71F85B SWAP4 SWAP3 POP SWAP1 JUMPDEST DUP1 DUP3 LT PUSH2 0x1E70 JUMPI POP SWAP1 SWAP2 POP DUP2 ADD PUSH1 0x20 ADD PUSH2 0x1E17 PUSH2 0x1E07 JUMP JUMPDEST SWAP2 SWAP3 PUSH1 0x1 DUP2 PUSH1 0x20 SWAP3 SLOAD DUP4 DUP6 DUP9 ADD ADD MSTORE ADD SWAP2 ADD SWAP1 SWAP3 SWAP2 PUSH2 0x1E58 JUMP JUMPDEST PUSH1 0xFF NOT AND PUSH1 0x20 DUP1 DUP7 ADD SWAP2 SWAP1 SWAP2 MSTORE SWAP2 ISZERO ISZERO PUSH1 0x5 SHL DUP5 ADD SWAP1 SWAP2 ADD SWAP2 POP PUSH2 0x1E17 SWAP1 POP PUSH2 0x1E07 JUMP JUMPDEST CALLVALUE PUSH2 0x1BB JUMPI PUSH1 0x20 CALLDATASIZE PUSH1 0x3 NOT ADD SLT PUSH2 0x1BB JUMPI PUSH1 0x4 CALLDATALOAD PUSH1 0x5 SLOAD DUP2 LT ISZERO PUSH2 0x1BB JUMPI PUSH2 0x1ED7 PUSH1 0x20 SWAP2 PUSH2 0x2E15 JUMP JUMPDEST SWAP1 SLOAD PUSH1 0x40 MLOAD PUSH1 0x3 SWAP3 SWAP1 SWAP3 SHL SHR PUSH1 0x1 PUSH1 0x1 PUSH1 0xA0 SHL SUB AND DUP2 MSTORE RETURN JUMPDEST CALLVALUE PUSH2 0x1BB JUMPI PUSH1 0x20 CALLDATASIZE PUSH1 0x3 NOT ADD SLT PUSH2 0x1BB JUMPI PUSH1 0x4 CALLDATALOAD PUSH1 0x1 PUSH1 0x1 PUSH1 0x40 SHL SUB DUP2 GT PUSH2 0x1BB JUMPI PUSH2 0x1E17 PUSH1 0x2 PUSH2 0x1F2D PUSH1 0x20 PUSH2 0x21E PUSH2 0xB23 SWAP6 CALLDATASIZE SWAP1 PUSH1 0x4 ADD PUSH2 0x2C07 JUMP JUMPDEST DUP2 ADD PUSH1 0x7 DUP2 MSTORE SUB ADD SWAP1 KECCAK256 ADD PUSH2 0x2E80 JUMP JUMPDEST CALLVALUE PUSH2 0x1BB JUMPI PUSH1 0x20 CALLDATASIZE PUSH1 0x3 NOT ADD SLT PUSH2 0x1BB JUMPI PUSH1 0x4 CALLDATALOAD PUSH1 0x1 PUSH1 0x1 PUSH1 0xA0 SHL SUB DUP2 AND SWAP1 DUP2 SWAP1 SUB PUSH2 0x1BB JUMPI PUSH1 0x0 MSTORE PUSH1 0x4 PUSH1 0x20 MSTORE PUSH1 0x20 PUSH1 0x40 PUSH1 0x0 KECCAK256 SLOAD PUSH1 0x40 MLOAD SWAP1 DUP2 MSTORE RETURN JUMPDEST CALLVALUE PUSH2 0x1BB JUMPI PUSH1 0x40 CALLDATASIZE PUSH1 0x3 NOT ADD SLT PUSH2 0x1BB JUMPI PUSH1 0x4 CALLDATALOAD PUSH1 0x1 PUSH1 0x1 PUSH1 0x40 SHL SUB DUP2 GT PUSH2 0x1BB JUMPI PUSH2 0x1FAB SWAP1 CALLDATASIZE SWAP1 PUSH1 0x4 ADD PUSH2 0x2C07 JUMP JUMPDEST PUSH1 0x24 CALLDATALOAD SWAP1 PUSH1 0x1 PUSH1 0x1 PUSH1 0xA0 SHL SUB DUP3 AND DUP3 SUB PUSH2 0x1BB JUMPI PUSH2 0x1FDA PUSH1 0x20 PUSH1 0x5 SWAP3 DUP2 PUSH1 0x40 MLOAD SWAP4 DUP3 DUP6 DUP1 SWAP5 MLOAD SWAP4 DUP5 SWAP3 ADD PUSH2 0x2C4E JUMP JUMPDEST DUP2 ADD PUSH1 0x7 DUP2 MSTORE SUB ADD SWAP1 KECCAK256 ADD SWAP1 PUSH1 0x1 DUP1 PUSH1 0xA0 SHL SUB AND PUSH1 0x0 MSTORE PUSH1 0x20 MSTORE PUSH1 0x20 PUSH1 0xFF PUSH1 0x40 PUSH1 0x0 KECCAK256 SLOAD AND PUSH1 0x40 MLOAD SWAP1 ISZERO ISZERO DUP2 MSTORE RETURN JUMPDEST CALLVALUE PUSH2 0x1BB JUMPI PUSH1 0x20 CALLDATASIZE PUSH1 0x3 NOT ADD SLT PUSH2 0x1BB JUMPI PUSH1 0x4 CALLDATALOAD PUSH1 0x1 PUSH1 0x1 PUSH1 0x40 SHL SUB DUP2 GT PUSH2 0x1BB JUMPI PUSH2 0x2039 SWAP1 CALLDATASIZE SWAP1 PUSH1 0x4 ADD PUSH2 0x2C07 JUMP JUMPDEST PUSH2 0x209A PUSH1 0xFF PUSH1 0x1 PUSH2 0x2084 PUSH1 0x20 PUSH1 0x40 MLOAD PUSH2 0x2073 DUP6 DUP6 DUP10 MLOAD SWAP4 DUP6 DUP2 DUP2 DUP14 ADD SWAP7 PUSH2 0x2061 DUP2 DUP4 DUP11 PUSH2 0x2C4E JUMP JUMPDEST DUP2 ADD PUSH1 0x7 DUP2 MSTORE SUB ADD SWAP1 KECCAK256 ADD SLOAD AND PUSH2 0x323C JUMP JUMPDEST PUSH1 0x40 MLOAD DUP1 SWAP4 DUP2 SWAP3 DUP10 MLOAD SWAP3 DUP4 SWAP2 PUSH2 0x2C4E JUMP JUMPDEST DUP2 ADD PUSH1 0x7 DUP2 MSTORE SUB ADD SWAP1 KECCAK256 ADD SLOAD PUSH1 0x8 SHR AND ISZERO PUSH2 0x327D JUMP JUMPDEST PUSH2 0x20A3 DUP2 PUSH2 0x3D8B JUMP JUMPDEST ISZERO PUSH2 0x212C JUMPI PUSH2 0x2127 PUSH32 0xFE2A617C3A0856BBD203E77CEE3D518A00F599C8A955224E80B1D0A1AFD95703 SWAP2 PUSH2 0x2119 PUSH1 0x40 MLOAD PUSH2 0x20DE PUSH1 0x60 DUP3 PUSH2 0x2BC9 JUMP JUMPDEST PUSH1 0x22 DUP2 MSTORE PUSH32 0x54696D656F75742072656163686564202D2065787465726E616C207472696767 PUSH1 0x20 DUP3 ADD MSTORE PUSH2 0x32B9 PUSH1 0xF1 SHL PUSH1 0x40 DUP3 ADD MSTORE DUP3 PUSH2 0x3DC5 JUMP JUMPDEST PUSH1 0x40 MLOAD SWAP2 DUP3 SWAP2 TIMESTAMP SWAP1 DUP4 PUSH2 0x3220 JUMP JUMPDEST SUB SWAP1 LOG1 STOP JUMPDEST PUSH1 0x40 MLOAD PUSH3 0x461BCD PUSH1 0xE5 SHL DUP2 MSTORE PUSH1 0x20 PUSH1 0x4 DUP3 ADD MSTORE PUSH1 0x17 PUSH1 0x24 DUP3 ADD MSTORE PUSH23 0x151A5B595BDD5D081B9BDD081C995858DA1959081E595D PUSH1 0x4A SHL PUSH1 0x44 DUP3 ADD MSTORE PUSH1 0x64 SWAP1 REVERT JUMPDEST CALLVALUE PUSH2 0x1BB JUMPI PUSH1 0x80 CALLDATASIZE PUSH1 0x3 NOT ADD SLT PUSH2 0x1BB JUMPI PUSH1 0x4 CALLDATALOAD PUSH1 0x1 PUSH1 0x1 PUSH1 0x40 SHL SUB DUP2 GT PUSH2 0x1BB JUMPI PUSH2 0x219B SWAP1 CALLDATASIZE SWAP1 PUSH1 0x4 ADD PUSH2 0x2D3A JUMP JUMPDEST PUSH1 0x24 CALLDATALOAD PUSH1 0x44 CALLDATALOAD PUSH1 0x1 PUSH1 0x1 PUSH1 0x40 SHL SUB DUP2 GT PUSH2 0x1BB JUMPI PUSH2 0x21BD SWAP1 CALLDATASIZE SWAP1 PUSH1 0x4 ADD PUSH2 0x2D3A JUMP JUMPDEST SWAP1 PUSH1 0x64 CALLDATALOAD PUSH1 0x1 PUSH1 0x1 PUSH1 0x40 SHL SUB DUP2 GT PUSH2 0x1BB JUMPI PUSH2 0x21DD SWAP1 CALLDATASIZE SWAP1 PUSH1 0x4 ADD PUSH2 0x2DB8 JUMP JUMPDEST SWAP3 PUSH2 0x21F3 PUSH1 0x1 DUP1 PUSH1 0xA0 SHL SUB PUSH1 0x0 SLOAD AND CALLER EQ PUSH2 0x31AD JUMP JUMPDEST DUP1 MLOAD ISZERO PUSH2 0x2935 JUMPI DUP1 MLOAD DUP4 MLOAD SUB PUSH2 0x28E2 JUMPI DUP1 MLOAD DUP5 MLOAD SUB PUSH2 0x2885 JUMPI DUP2 PUSH1 0x0 MSTORE PUSH1 0x8 PUSH1 0x20 MSTORE PUSH1 0xFF PUSH1 0x3 PUSH1 0x40 PUSH1 0x0 KECCAK256 ADD SLOAD AND PUSH2 0x2834 JUMPI PUSH1 0x0 DUP3 DUP2 MSTORE PUSH1 0x8 PUSH1 0x20 MSTORE PUSH1 0x40 SWAP1 KECCAK256 DUP3 DUP2 SSTORE DUP2 MLOAD PUSH1 0x1 SWAP1 SWAP2 ADD SWAP1 PUSH1 0x1 PUSH1 0x40 SHL DUP2 GT PUSH2 0x192A JUMPI DUP2 SLOAD DUP2 DUP4 SSTORE DUP1 DUP3 LT PUSH2 0x27B6 JUMPI JUMPDEST POP PUSH1 0x20 DUP4 ADD SWAP2 PUSH1 0x0 MSTORE PUSH1 0x20 PUSH1 0x0 KECCAK256 SWAP2 PUSH1 0x0 SWAP1 JUMPDEST DUP3 DUP3 LT PUSH2 0x26AC JUMPI POP POP POP PUSH1 0x0 DUP4 DUP2 MSTORE PUSH1 0x8 PUSH1 0x20 MSTORE PUSH1 0x40 DUP2 KECCAK256 PUSH1 0x2 DUP2 ADD DUP3 SWAP1 SSTORE PUSH1 0x3 DUP2 ADD DUP1 SLOAD PUSH1 0xFF NOT AND PUSH1 0x1 OR SWAP1 SSTORE TIMESTAMP PUSH1 0x4 SWAP1 SWAP2 ADD SSTORE SWAP1 POP JUMPDEST DUP2 MLOAD DUP2 LT ISZERO PUSH2 0x240D JUMPI PUSH2 0x22B4 DUP2 DUP6 PUSH2 0x311E JUMP JUMPDEST MLOAD DUP4 PUSH1 0x0 MSTORE PUSH1 0x8 PUSH1 0x20 MSTORE PUSH2 0x22D9 PUSH1 0x5 PUSH1 0x40 PUSH1 0x0 KECCAK256 ADD PUSH2 0x22D3 DUP5 DUP7 PUSH2 0x311E JUMP JUMPDEST MLOAD PUSH2 0x2F4A JUMP JUMPDEST DUP2 MLOAD SWAP1 SWAP2 PUSH1 0x1 PUSH1 0x1 PUSH1 0x40 SHL SUB DUP3 GT PUSH2 0x192A JUMPI PUSH2 0x22F5 DUP4 SLOAD PUSH2 0x2E46 JUMP JUMPDEST PUSH1 0x1F DUP2 GT PUSH2 0x23D0 JUMPI JUMPDEST POP PUSH1 0x20 SWAP1 PUSH1 0x1F DUP4 GT PUSH1 0x1 EQ PUSH2 0x2365 JUMPI SWAP2 DUP1 PUSH2 0x2327 SWAP3 PUSH1 0x1 SWAP7 SWAP6 SWAP5 PUSH1 0x0 SWAP3 PUSH2 0x235A JUMPI JUMPDEST POP POP PUSH2 0x320D JUMP JUMPDEST SWAP1 SSTORE JUMPDEST PUSH2 0x2334 DUP2 DUP8 PUSH2 0x311E JUMP JUMPDEST MLOAD DUP5 PUSH1 0x0 MSTORE PUSH1 0x8 PUSH1 0x20 MSTORE PUSH2 0x2353 PUSH1 0x6 PUSH1 0x40 PUSH1 0x0 KECCAK256 ADD PUSH2 0x22D3 DUP5 DUP8 PUSH2 0x311E JUMP JUMPDEST SSTORE ADD PUSH2 0x22A1 JUMP JUMPDEST ADD MLOAD SWAP1 POP DUP11 DUP1 PUSH2 0x2320 JUMP JUMPDEST SWAP1 PUSH1 0x1F NOT DUP4 AND SWAP2 DUP5 PUSH1 0x0 MSTORE DUP2 PUSH1 0x0 KECCAK256 SWAP3 PUSH1 0x0 JUMPDEST DUP2 DUP2 LT PUSH2 0x23B8 JUMPI POP SWAP2 PUSH1 0x1 SWAP7 SWAP6 SWAP5 SWAP3 SWAP2 DUP4 DUP9 SWAP6 SWAP4 LT PUSH2 0x239F JUMPI JUMPDEST POP POP POP DUP2 SHL ADD SWAP1 SSTORE PUSH2 0x232A JUMP JUMPDEST ADD MLOAD PUSH1 0x0 NOT PUSH1 0xF8 DUP5 PUSH1 0x3 SHL AND SHR NOT AND SWAP1 SSTORE DUP10 DUP1 DUP1 PUSH2 0x2392 JUMP JUMPDEST SWAP3 SWAP4 PUSH1 0x20 PUSH1 0x1 DUP2 SWAP3 DUP8 DUP7 ADD MLOAD DUP2 SSTORE ADD SWAP6 ADD SWAP4 ADD PUSH2 0x2378 JUMP JUMPDEST PUSH2 0x23FD SWAP1 DUP5 PUSH1 0x0 MSTORE PUSH1 0x20 PUSH1 0x0 KECCAK256 PUSH1 0x1F DUP6 ADD PUSH1 0x5 SHR DUP2 ADD SWAP2 PUSH1 0x20 DUP7 LT PUSH2 0x2403 JUMPI JUMPDEST PUSH1 0x1F ADD PUSH1 0x5 SHR ADD SWAP1 PUSH2 0x31F6 JUMP JUMPDEST DUP9 PUSH2 0x22FE JUMP JUMPDEST SWAP1 SWAP2 POP DUP2 SWAP1 PUSH2 0x23F0 JUMP JUMPDEST POP DUP2 PUSH1 0x9 SSTORE PUSH1 0x0 JUMPDEST DUP2 MLOAD DUP2 LT ISZERO PUSH2 0x2662 JUMPI PUSH2 0x2428 DUP2 DUP4 PUSH2 0x311E JUMP JUMPDEST MLOAD SWAP1 PUSH1 0x40 MLOAD PUSH1 0xFF PUSH1 0x1 DUP5 MLOAD SWAP3 PUSH1 0x20 DUP2 DUP2 DUP9 ADD SWAP6 PUSH2 0x2446 DUP2 DUP4 DUP10 PUSH2 0x2C4E JUMP JUMPDEST DUP2 ADD PUSH1 0x7 DUP2 MSTORE SUB ADD SWAP1 KECCAK256 ADD SLOAD AND PUSH2 0x2613 JUMPI PUSH1 0xFF PUSH1 0x1 PUSH1 0x40 MLOAD PUSH1 0x20 DUP2 DUP8 MLOAD PUSH2 0x246E DUP2 DUP4 DUP10 PUSH2 0x2C4E JUMP JUMPDEST DUP2 ADD PUSH1 0x7 DUP2 MSTORE SUB ADD SWAP1 KECCAK256 ADD SLOAD PUSH1 0x8 SHR AND PUSH2 0x25D3 JUMPI PUSH1 0x4 PUSH2 0x2531 PUSH1 0x20 DUP8 SWAP4 PUSH1 0x40 MLOAD DUP8 MLOAD PUSH2 0x249B DUP2 DUP4 DUP6 PUSH2 0x2C4E JUMP JUMPDEST DUP2 ADD SWAP1 PUSH1 0x7 DUP3 MSTORE DUP4 DUP2 TIMESTAMP SWAP4 SUB ADD SWAP1 KECCAK256 SSTORE PUSH1 0x1 PUSH1 0x40 MLOAD DUP4 DUP2 DUP11 MLOAD PUSH2 0x24BF DUP2 DUP4 DUP9 PUSH2 0x2C4E JUMP JUMPDEST DUP2 ADD PUSH1 0x7 DUP2 MSTORE SUB ADD SWAP1 KECCAK256 ADD PUSH1 0x1 PUSH1 0xFF NOT DUP3 SLOAD AND OR SWAP1 SSTORE PUSH1 0x1 PUSH1 0x40 MLOAD DUP4 DUP2 DUP11 MLOAD PUSH2 0x24E9 DUP2 DUP4 DUP9 PUSH2 0x2C4E JUMP JUMPDEST DUP2 ADD PUSH1 0x7 DUP2 MSTORE SUB ADD SWAP1 KECCAK256 ADD PUSH2 0xFF00 NOT DUP2 SLOAD AND SWAP1 SSTORE PUSH1 0x5 SLOAD PUSH1 0x3 PUSH1 0x40 MLOAD DUP5 DUP2 DUP12 MLOAD PUSH2 0x2514 DUP2 DUP4 DUP10 PUSH2 0x2C4E JUMP JUMPDEST DUP2 ADD PUSH1 0x7 DUP2 MSTORE SUB ADD SWAP1 KECCAK256 ADD SSTORE PUSH1 0x40 MLOAD DUP1 SWAP4 DUP2 SWAP3 DUP10 MLOAD SWAP3 DUP4 SWAP2 PUSH2 0x2C4E JUMP JUMPDEST DUP2 ADD PUSH1 0x7 DUP2 MSTORE SUB ADD SWAP1 KECCAK256 ADD SSTORE PUSH32 0x1A6063EA5A85373503082E9047EBBDE10C2EF86A0029B81921668E4A2EA190E3 PUSH1 0x40 MLOAD DUP1 PUSH2 0x256D TIMESTAMP DUP7 DUP4 PUSH2 0x3220 JUMP JUMPDEST SUB SWAP1 LOG1 PUSH1 0x0 SLOAD PUSH1 0x1 PUSH1 0x1 PUSH1 0xA0 SHL SUB AND SWAP2 DUP3 EXTCODESIZE ISZERO PUSH2 0x1BB JUMPI PUSH1 0x0 PUSH2 0x25B2 PUSH1 0x1 SWAP5 DUP3 SWAP4 PUSH1 0x40 MLOAD SWAP5 DUP6 DUP1 SWAP5 DUP2 SWAP4 PUSH4 0xB2BE4D65 PUSH1 0xE0 SHL DUP4 MSTORE PUSH1 0x20 PUSH1 0x4 DUP5 ADD MSTORE PUSH1 0x24 DUP4 ADD SWAP1 PUSH2 0x2C71 JUMP JUMPDEST SUB SWAP3 GAS CALL PUSH2 0x25C2 JUMPI JUMPDEST POP ADD PUSH2 0x2415 JUMP JUMPDEST PUSH1 0x0 PUSH2 0x25CD SWAP2 PUSH2 0x2BC9 JUMP JUMPDEST DUP5 PUSH2 0x25BB JUMP JUMPDEST PUSH1 0x40 MLOAD PUSH3 0x461BCD PUSH1 0xE5 SHL DUP2 MSTORE PUSH1 0x20 PUSH1 0x4 DUP3 ADD MSTORE PUSH1 0x18 PUSH1 0x24 DUP3 ADD MSTORE PUSH24 0x14D85B5C1B1948185B1C9958591E48199A5B985B1A5E9959 PUSH1 0x42 SHL PUSH1 0x44 DUP3 ADD MSTORE PUSH1 0x64 SWAP1 REVERT JUMPDEST PUSH1 0x40 MLOAD PUSH3 0x461BCD PUSH1 0xE5 SHL DUP2 MSTORE PUSH1 0x20 PUSH1 0x4 DUP3 ADD MSTORE PUSH1 0x21 PUSH1 0x24 DUP3 ADD MSTORE PUSH32 0x53616D706C6520616C726561647920686173206163746976652073657373696F PUSH1 0x44 DUP3 ADD MSTORE PUSH1 0x37 PUSH1 0xF9 SHL PUSH1 0x64 DUP3 ADD MSTORE PUSH1 0x84 SWAP1 REVERT JUMPDEST POP PUSH32 0x915B7F3F33CA682A46C0A82BCAE59307624896B80801E6EA2C6E702A10499ECE SWAP2 PUSH2 0x26A1 PUSH1 0x40 MLOAD SWAP3 DUP4 SWAP3 DUP4 MSTORE PUSH1 0x60 PUSH1 0x20 DUP5 ADD MSTORE PUSH1 0x60 DUP4 ADD SWAP1 PUSH2 0x2C96 JUMP JUMPDEST TIMESTAMP PUSH1 0x40 DUP4 ADD MSTORE SUB SWAP1 LOG1 STOP JUMPDEST DUP1 MLOAD DUP1 MLOAD SWAP1 PUSH1 0x1 PUSH1 0x1 PUSH1 0x40 SHL SUB DUP3 GT PUSH2 0x192A JUMPI PUSH2 0x26C9 DUP7 SLOAD PUSH2 0x2E46 JUMP JUMPDEST PUSH1 0x1F DUP2 GT PUSH2 0x2784 JUMPI JUMPDEST POP PUSH1 0x20 SWAP1 PUSH1 0x1F DUP4 GT PUSH1 0x1 EQ PUSH2 0x2717 JUMPI SWAP3 PUSH2 0x26FD DUP4 PUSH1 0x1 SWAP6 SWAP5 PUSH1 0x20 SWAP5 DUP8 SWAP7 PUSH1 0x0 SWAP3 PUSH2 0x270C JUMPI POP POP PUSH2 0x320D JUMP JUMPDEST DUP8 SSTORE JUMPDEST ADD SWAP5 ADD SWAP2 ADD SWAP1 SWAP3 PUSH2 0x2269 JUMP JUMPDEST ADD MLOAD SWAP1 POP DUP15 DUP1 PUSH2 0x2320 JUMP JUMPDEST SWAP1 PUSH1 0x1F NOT DUP4 AND SWAP2 DUP8 PUSH1 0x0 MSTORE DUP2 PUSH1 0x0 KECCAK256 SWAP3 PUSH1 0x0 JUMPDEST DUP2 DUP2 LT PUSH2 0x276C JUMPI POP SWAP4 PUSH1 0x20 SWAP4 PUSH1 0x1 SWAP7 SWAP4 DUP8 SWAP7 SWAP4 DUP4 DUP9 SWAP6 LT PUSH2 0x2753 JUMPI JUMPDEST POP POP POP DUP2 SHL ADD DUP8 SSTORE PUSH2 0x2700 JUMP JUMPDEST ADD MLOAD PUSH1 0x0 NOT PUSH1 0xF8 DUP5 PUSH1 0x3 SHL AND SHR NOT AND SWAP1 SSTORE DUP14 DUP1 DUP1 PUSH2 0x2746 JUMP JUMPDEST SWAP3 SWAP4 PUSH1 0x20 PUSH1 0x1 DUP2 SWAP3 DUP8 DUP7 ADD MLOAD DUP2 SSTORE ADD SWAP6 ADD SWAP4 ADD PUSH2 0x272A JUMP JUMPDEST PUSH2 0x27B0 SWAP1 DUP8 PUSH1 0x0 MSTORE PUSH1 0x20 PUSH1 0x0 KECCAK256 PUSH1 0x1F DUP6 ADD PUSH1 0x5 SHR DUP2 ADD SWAP2 PUSH1 0x20 DUP7 LT PUSH2 0x2403 JUMPI PUSH1 0x1F ADD PUSH1 0x5 SHR ADD SWAP1 PUSH2 0x31F6 JUMP JUMPDEST DUP11 PUSH2 0x26D2 JUMP JUMPDEST DUP3 PUSH1 0x0 MSTORE DUP2 PUSH1 0x20 PUSH1 0x0 KECCAK256 SWAP2 DUP3 ADD SWAP2 ADD JUMPDEST DUP2 DUP2 LT PUSH2 0x27D3 JUMPI POP PUSH2 0x2256 JUMP JUMPDEST DUP1 PUSH2 0x27E0 PUSH1 0x1 SWAP3 SLOAD PUSH2 0x2E46 JUMP JUMPDEST DUP1 PUSH2 0x27ED JUMPI JUMPDEST POP ADD PUSH2 0x27C6 JUMP JUMPDEST PUSH1 0x1F DUP2 GT DUP4 EQ PUSH2 0x2803 JUMPI POP PUSH1 0x0 DUP2 SSTORE JUMPDEST DUP10 PUSH2 0x27E6 JUMP JUMPDEST PUSH2 0x2821 SWAP1 DUP3 PUSH1 0x0 MSTORE DUP4 PUSH1 0x1F PUSH1 0x20 PUSH1 0x0 KECCAK256 SWAP3 ADD PUSH1 0x5 SHR DUP3 ADD SWAP2 ADD PUSH2 0x31F6 JUMP JUMPDEST DUP1 PUSH1 0x0 MSTORE PUSH1 0x0 PUSH1 0x20 DUP2 KECCAK256 DUP2 DUP4 SSTORE SSTORE PUSH2 0x27FD JUMP JUMPDEST PUSH1 0x40 MLOAD PUSH3 0x461BCD PUSH1 0xE5 SHL DUP2 MSTORE PUSH1 0x20 PUSH1 0x4 DUP3 ADD MSTORE PUSH1 0x23 PUSH1 0x24 DUP3 ADD MSTORE PUSH32 0x426174636820616C72656164792061637469766520666F72207468697320726F PUSH1 0x44 DUP3 ADD MSTORE PUSH3 0x1D5B99 PUSH1 0xEA SHL PUSH1 0x64 DUP3 ADD MSTORE PUSH1 0x84 SWAP1 REVERT JUMPDEST PUSH1 0x40 MLOAD PUSH3 0x461BCD PUSH1 0xE5 SHL DUP2 MSTORE PUSH1 0x20 PUSH1 0x4 DUP3 ADD MSTORE PUSH1 0x2F PUSH1 0x24 DUP3 ADD MSTORE PUSH32 0x53616D706C652049447320616E64206F726967696E616C20696E646963657320 PUSH1 0x44 DUP3 ADD MSTORE PUSH15 0xD8CADCCEE8D040DAD2E6DAC2E8C6D PUSH1 0x8B SHL PUSH1 0x64 DUP3 ADD MSTORE PUSH1 0x84 SWAP1 REVERT JUMPDEST PUSH1 0x40 MLOAD PUSH3 0x461BCD PUSH1 0xE5 SHL DUP2 MSTORE PUSH1 0x20 PUSH1 0x4 DUP3 ADD MSTORE PUSH1 0x25 PUSH1 0x24 DUP3 ADD MSTORE PUSH32 0x53616D706C652049447320616E6420686173686573206C656E677468206D6973 PUSH1 0x44 DUP3 ADD MSTORE PUSH5 0xDAC2E8C6D PUSH1 0xDB SHL PUSH1 0x64 DUP3 ADD MSTORE PUSH1 0x84 SWAP1 REVERT JUMPDEST PUSH1 0x40 MLOAD PUSH3 0x461BCD PUSH1 0xE5 SHL DUP2 MSTORE PUSH1 0x20 PUSH1 0x4 DUP3 ADD MSTORE PUSH1 0x12 PUSH1 0x24 DUP3 ADD MSTORE PUSH18 0x8ADAE0E8F240E6C2DAE0D8CA40C4C2E8C6D PUSH1 0x73 SHL PUSH1 0x44 DUP3 ADD MSTORE PUSH1 0x64 SWAP1 REVERT JUMPDEST CALLVALUE PUSH2 0x1BB JUMPI PUSH1 0x20 CALLDATASIZE PUSH1 0x3 NOT ADD SLT PUSH2 0x1BB JUMPI PUSH1 0x4 CALLDATALOAD PUSH1 0x0 MSTORE PUSH1 0x8 PUSH1 0x20 MSTORE PUSH1 0x40 PUSH1 0x0 KECCAK256 PUSH1 0x1 DUP2 ADD DUP1 SLOAD SWAP2 PUSH2 0x29A0 DUP4 PUSH2 0x3095 JUMP JUMPDEST PUSH2 0x29A9 DUP5 PUSH2 0x30DF JUMP JUMPDEST SWAP2 PUSH1 0x0 PUSH1 0x5 DUP3 ADD PUSH1 0x6 DUP4 ADD DUP7 SLOAD SWAP3 JUMPDEST DUP9 DUP2 LT PUSH2 0x2A42 JUMPI DUP9 DUP9 PUSH2 0xB23 DUP10 PUSH2 0x2A34 DUP11 PUSH2 0x2A26 DUP12 PUSH1 0xFF PUSH1 0x3 DUP3 ADD SLOAD AND SWAP7 PUSH1 0x2 DUP3 ADD SLOAD SWAP2 PUSH2 0x29F4 PUSH1 0x4 PUSH2 0x29EB DUP6 DUP14 PUSH2 0x3132 JUMP JUMPDEST SWAP3 ADD SLOAD SWAP3 PUSH2 0x3155 JUMP JUMPDEST SWAP3 PUSH1 0x40 MLOAD SWAP11 DUP12 SWAP11 ISZERO ISZERO DUP12 MSTORE PUSH1 0x20 DUP12 ADD MSTORE PUSH1 0x40 DUP11 ADD MSTORE PUSH1 0x60 DUP10 ADD MSTORE PUSH1 0x80 DUP9 ADD MSTORE PUSH2 0x100 PUSH1 0xA0 DUP9 ADD MSTORE PUSH2 0x100 DUP8 ADD SWAP1 PUSH2 0x2C96 JUMP JUMPDEST SWAP1 DUP6 DUP3 SUB PUSH1 0xC0 DUP8 ADD MSTORE PUSH2 0x2C96 JUMP JUMPDEST SWAP1 DUP4 DUP3 SUB PUSH1 0xE0 DUP6 ADD MSTORE PUSH2 0x2CEF JUMP JUMPDEST PUSH1 0x0 DUP5 DUP3 LT ISZERO PUSH2 0x2AA3 JUMPI SWAP1 PUSH2 0x2A91 DUP4 PUSH2 0x2A64 DUP4 PUSH1 0x20 DUP7 DUP15 PUSH1 0x1 SWAP9 MSTORE KECCAK256 ADD PUSH2 0x2E80 JUMP JUMPDEST PUSH2 0x2A76 PUSH2 0x2A71 DUP9 DUP4 PUSH2 0x2F4A JUMP JUMPDEST PUSH2 0x2E80 JUMP JUMPDEST PUSH2 0x2A80 DUP6 DUP13 PUSH2 0x311E JUMP JUMPDEST MSTORE PUSH2 0x2A8B DUP5 DUP12 PUSH2 0x311E JUMP JUMPDEST POP PUSH2 0x2F4A JUMP JUMPDEST SLOAD PUSH2 0x2A9C DUP3 DUP11 PUSH2 0x311E JUMP JUMPDEST MSTORE ADD PUSH2 0x29B8 JUMP JUMPDEST PUSH4 0x4E487B71 PUSH1 0xE0 SHL DUP2 MSTORE PUSH1 0x32 PUSH1 0x4 MSTORE PUSH1 0x24 SWAP1 REVERT JUMPDEST CALLVALUE PUSH2 0x1BB JUMPI PUSH1 0x20 CALLDATASIZE PUSH1 0x3 NOT ADD SLT PUSH2 0x1BB JUMPI PUSH1 0x4 CALLDATALOAD PUSH1 0x1 PUSH1 0x1 PUSH1 0x40 SHL SUB DUP2 GT PUSH2 0x1BB JUMPI PUSH2 0x76E PUSH2 0x2AEC PUSH1 0x20 SWAP3 CALLDATASIZE SWAP1 PUSH1 0x4 ADD PUSH2 0x2C07 JUMP JUMPDEST PUSH2 0x3D8B JUMP JUMPDEST CALLVALUE PUSH2 0x1BB JUMPI PUSH1 0x20 CALLDATASIZE PUSH1 0x3 NOT ADD SLT PUSH2 0x1BB JUMPI PUSH1 0x4 CALLDATALOAD PUSH1 0x1 PUSH1 0x1 PUSH1 0x40 SHL SUB DUP2 GT PUSH2 0x1BB JUMPI PUSH2 0x2B23 PUSH1 0x20 SWAP2 CALLDATASIZE SWAP1 PUSH1 0x4 ADD PUSH2 0x2C07 JUMP JUMPDEST PUSH1 0x40 MLOAD PUSH1 0xFF PUSH1 0x1 DUP4 MLOAD SWAP3 DUP6 DUP2 DUP2 DUP8 ADD SWAP6 PUSH2 0x2B3E DUP2 DUP4 DUP10 PUSH2 0x2C4E JUMP JUMPDEST DUP2 ADD PUSH1 0x7 DUP2 MSTORE SUB ADD SWAP1 KECCAK256 ADD SLOAD AND SWAP2 DUP3 PUSH2 0x2B5E JUMPI JUMPDEST POP POP PUSH1 0x40 MLOAD SWAP1 ISZERO ISZERO DUP2 MSTORE RETURN JUMPDEST PUSH1 0xFF SWAP3 POP DUP4 PUSH1 0x1 SWAP3 PUSH2 0x2B7B SWAP3 PUSH1 0x40 MLOAD SWAP4 DUP5 SWAP3 DUP4 SWAP3 MLOAD SWAP3 DUP4 SWAP2 PUSH2 0x2C4E JUMP JUMPDEST DUP2 ADD PUSH1 0x7 DUP2 MSTORE SUB ADD SWAP1 KECCAK256 ADD SLOAD PUSH1 0x8 SHR AND ISZERO DUP3 DUP1 PUSH2 0x2B52 JUMP JUMPDEST PUSH1 0x80 DUP2 ADD SWAP1 DUP2 LT PUSH1 0x1 PUSH1 0x1 PUSH1 0x40 SHL SUB DUP3 GT OR PUSH2 0x192A JUMPI PUSH1 0x40 MSTORE JUMP JUMPDEST PUSH1 0x40 DUP2 ADD SWAP1 DUP2 LT PUSH1 0x1 PUSH1 0x1 PUSH1 0x40 SHL SUB DUP3 GT OR PUSH2 0x192A JUMPI PUSH1 0x40 MSTORE JUMP JUMPDEST PUSH1 0x1F SWAP1 SWAP2 ADD PUSH1 0x1F NOT AND DUP2 ADD SWAP1 PUSH1 0x1 PUSH1 0x1 PUSH1 0x40 SHL SUB DUP3 GT SWAP1 DUP3 LT OR PUSH2 0x192A JUMPI PUSH1 0x40 MSTORE JUMP JUMPDEST PUSH1 0x1 PUSH1 0x1 PUSH1 0x40 SHL SUB DUP2 GT PUSH2 0x192A JUMPI PUSH1 0x1F ADD PUSH1 0x1F NOT AND PUSH1 0x20 ADD SWAP1 JUMP JUMPDEST DUP2 PUSH1 0x1F DUP3 ADD SLT ISZERO PUSH2 0x1BB JUMPI DUP1 CALLDATALOAD SWAP1 PUSH2 0x2C1E DUP3 PUSH2 0x2BEC JUMP JUMPDEST SWAP3 PUSH2 0x2C2C PUSH1 0x40 MLOAD SWAP5 DUP6 PUSH2 0x2BC9 JUMP JUMPDEST DUP3 DUP5 MSTORE PUSH1 0x20 DUP4 DUP4 ADD ADD GT PUSH2 0x1BB JUMPI DUP2 PUSH1 0x0 SWAP3 PUSH1 0x20 DUP1 SWAP4 ADD DUP4 DUP7 ADD CALLDATACOPY DUP4 ADD ADD MSTORE SWAP1 JUMP JUMPDEST PUSH1 0x0 JUMPDEST DUP4 DUP2 LT PUSH2 0x2C61 JUMPI POP POP PUSH1 0x0 SWAP2 ADD MSTORE JUMP JUMPDEST DUP2 DUP2 ADD MLOAD DUP4 DUP3 ADD MSTORE PUSH1 0x20 ADD PUSH2 0x2C51 JUMP JUMPDEST SWAP1 PUSH1 0x20 SWAP2 PUSH2 0x2C8A DUP2 MLOAD DUP1 SWAP3 DUP2 DUP6 MSTORE DUP6 DUP1 DUP7 ADD SWAP2 ADD PUSH2 0x2C4E JUMP JUMPDEST PUSH1 0x1F ADD PUSH1 0x1F NOT AND ADD ADD SWAP1 JUMP JUMPDEST SWAP1 DUP1 PUSH1 0x20 DUP4 MLOAD SWAP2 DUP3 DUP2 MSTORE ADD SWAP2 PUSH1 0x20 DUP1 DUP4 PUSH1 0x5 SHL DUP4 ADD ADD SWAP5 ADD SWAP3 PUSH1 0x0 SWAP2 JUMPDEST DUP4 DUP4 LT PUSH2 0x2CC2 JUMPI POP POP POP POP POP SWAP1 JUMP JUMPDEST SWAP1 SWAP2 SWAP3 SWAP4 SWAP5 PUSH1 0x20 DUP1 PUSH2 0x2CE0 PUSH1 0x1 SWAP4 PUSH1 0x1F NOT DUP7 DUP3 SUB ADD DUP8 MSTORE DUP10 MLOAD PUSH2 0x2C71 JUMP JUMPDEST SWAP8 ADD SWAP4 ADD SWAP4 ADD SWAP2 SWAP4 SWAP3 SWAP1 PUSH2 0x2CB3 JUMP JUMPDEST SWAP1 PUSH1 0x20 DUP1 DUP4 MLOAD SWAP3 DUP4 DUP2 MSTORE ADD SWAP3 ADD SWAP1 PUSH1 0x0 JUMPDEST DUP2 DUP2 LT PUSH2 0x2D0D JUMPI POP POP POP SWAP1 JUMP JUMPDEST DUP3 MLOAD DUP5 MSTORE PUSH1 0x20 SWAP4 DUP5 ADD SWAP4 SWAP1 SWAP3 ADD SWAP2 PUSH1 0x1 ADD PUSH2 0x2D00 JUMP JUMPDEST PUSH1 0x1 PUSH1 0x1 PUSH1 0x40 SHL SUB DUP2 GT PUSH2 0x192A JUMPI PUSH1 0x5 SHL PUSH1 0x20 ADD SWAP1 JUMP JUMPDEST SWAP1 DUP1 PUSH1 0x1F DUP4 ADD SLT ISZERO PUSH2 0x1BB JUMPI DUP2 CALLDATALOAD PUSH2 0x2D51 DUP2 PUSH2 0x2D23 JUMP JUMPDEST SWAP3 PUSH2 0x2D5F PUSH1 0x40 MLOAD SWAP5 DUP6 PUSH2 0x2BC9 JUMP JUMPDEST DUP2 DUP5 MSTORE PUSH1 0x20 DUP1 DUP6 ADD SWAP3 PUSH1 0x5 SHL DUP3 ADD ADD SWAP2 DUP4 DUP4 GT PUSH2 0x1BB JUMPI PUSH1 0x20 DUP3 ADD SWAP1 JUMPDEST DUP4 DUP3 LT PUSH2 0x2D8B JUMPI POP POP POP POP POP SWAP1 JUMP JUMPDEST DUP2 CALLDATALOAD PUSH1 0x1 PUSH1 0x1 PUSH1 0x40 SHL SUB DUP2 GT PUSH2 0x1BB JUMPI PUSH1 0x20 SWAP2 PUSH2 0x2DAD DUP8 DUP5 DUP1 SWAP5 DUP9 ADD ADD PUSH2 0x2C07 JUMP JUMPDEST DUP2 MSTORE ADD SWAP2 ADD SWAP1 PUSH2 0x2D7C JUMP JUMPDEST SWAP1 DUP1 PUSH1 0x1F DUP4 ADD SLT ISZERO PUSH2 0x1BB JUMPI DUP2 CALLDATALOAD PUSH2 0x2DCF DUP2 PUSH2 0x2D23 JUMP JUMPDEST SWAP3 PUSH2 0x2DDD PUSH1 0x40 MLOAD SWAP5 DUP6 PUSH2 0x2BC9 JUMP JUMPDEST DUP2 DUP5 MSTORE PUSH1 0x20 DUP1 DUP6 ADD SWAP3 PUSH1 0x5 SHL DUP3 ADD ADD SWAP3 DUP4 GT PUSH2 0x1BB JUMPI PUSH1 0x20 ADD SWAP1 JUMPDEST DUP3 DUP3 LT PUSH2 0x2E05 JUMPI POP POP POP SWAP1 JUMP JUMPDEST DUP2 CALLDATALOAD DUP2 MSTORE PUSH1 0x20 SWAP2 DUP3 ADD SWAP2 ADD PUSH2 0x2DF8 JUMP JUMPDEST PUSH1 0x5 SLOAD DUP2 LT ISZERO PUSH2 0x2E30 JUMPI PUSH1 0x5 PUSH1 0x0 MSTORE PUSH1 0x20 PUSH1 0x0 KECCAK256 ADD SWAP1 PUSH1 0x0 SWAP1 JUMP JUMPDEST PUSH4 0x4E487B71 PUSH1 0xE0 SHL PUSH1 0x0 MSTORE PUSH1 0x32 PUSH1 0x4 MSTORE PUSH1 0x24 PUSH1 0x0 REVERT JUMPDEST SWAP1 PUSH1 0x1 DUP3 DUP2 SHR SWAP3 AND DUP1 ISZERO PUSH2 0x2E76 JUMPI JUMPDEST PUSH1 0x20 DUP4 LT EQ PUSH2 0x2E60 JUMPI JUMP JUMPDEST PUSH4 0x4E487B71 PUSH1 0xE0 SHL PUSH1 0x0 MSTORE PUSH1 0x22 PUSH1 0x4 MSTORE PUSH1 0x24 PUSH1 0x0 REVERT JUMPDEST SWAP2 PUSH1 0x7F AND SWAP2 PUSH2 0x2E55 JUMP JUMPDEST SWAP1 PUSH1 0x40 MLOAD SWAP2 DUP3 PUSH1 0x0 DUP3 SLOAD SWAP3 PUSH2 0x2E94 DUP5 PUSH2 0x2E46 JUMP JUMPDEST DUP1 DUP5 MSTORE SWAP4 PUSH1 0x1 DUP2 AND SWAP1 DUP2 ISZERO PUSH2 0x2F02 JUMPI POP PUSH1 0x1 EQ PUSH2 0x2EBB JUMPI JUMPDEST POP PUSH2 0x2EB9 SWAP3 POP SUB DUP4 PUSH2 0x2BC9 JUMP JUMPDEST JUMP JUMPDEST SWAP1 POP PUSH1 0x0 SWAP3 SWAP2 SWAP3 MSTORE PUSH1 0x20 PUSH1 0x0 KECCAK256 SWAP1 PUSH1 0x0 SWAP2 JUMPDEST DUP2 DUP4 LT PUSH2 0x2EE6 JUMPI POP POP SWAP1 PUSH1 0x20 PUSH2 0x2EB9 SWAP3 DUP3 ADD ADD CODESIZE PUSH2 0x2EAC JUMP JUMPDEST PUSH1 0x20 SWAP2 SWAP4 POP DUP1 PUSH1 0x1 SWAP2 SLOAD DUP4 DUP6 DUP10 ADD ADD MSTORE ADD SWAP2 ADD SWAP1 SWAP2 DUP5 SWAP3 PUSH2 0x2ECD JUMP JUMPDEST SWAP1 POP PUSH1 0x20 SWAP3 POP PUSH2 0x2EB9 SWAP5 SWAP2 POP PUSH1 0xFF NOT AND DUP3 DUP5 ADD MSTORE ISZERO ISZERO PUSH1 0x5 SHL DUP3 ADD ADD CODESIZE PUSH2 0x2EAC JUMP JUMPDEST PUSH1 0x20 PUSH2 0x2F3D SWAP2 DUP2 PUSH1 0x40 MLOAD SWAP4 DUP3 DUP6 DUP1 SWAP5 MLOAD SWAP4 DUP5 SWAP3 ADD PUSH2 0x2C4E JUMP JUMPDEST DUP2 ADD PUSH1 0x7 DUP2 MSTORE SUB ADD SWAP1 KECCAK256 SWAP1 JUMP JUMPDEST PUSH1 0x20 SWAP1 PUSH2 0x2F64 SWAP3 DUP3 PUSH1 0x40 MLOAD SWAP5 DUP4 DUP7 DUP1 SWAP6 MLOAD SWAP4 DUP5 SWAP3 ADD PUSH2 0x2C4E JUMP JUMPDEST DUP3 ADD SWAP1 DUP2 MSTORE SUB ADD SWAP1 KECCAK256 SWAP1 JUMP JUMPDEST DUP1 SLOAD DUP3 LT ISZERO PUSH2 0x2E30 JUMPI PUSH1 0x0 MSTORE PUSH1 0x20 PUSH1 0x0 KECCAK256 SWAP1 PUSH1 0x2 SHL ADD SWAP1 PUSH1 0x0 SWAP1 JUMP JUMPDEST SWAP1 DUP1 PUSH1 0x1F DUP4 ADD SLT ISZERO PUSH2 0x1BB JUMPI DUP2 CALLDATALOAD SWAP1 PUSH2 0x2FA4 DUP3 PUSH2 0x2D23 JUMP JUMPDEST SWAP3 PUSH2 0x2FB2 PUSH1 0x40 MLOAD SWAP5 DUP6 PUSH2 0x2BC9 JUMP JUMPDEST DUP3 DUP5 MSTORE PUSH1 0x20 DUP1 DUP6 ADD SWAP4 PUSH1 0x5 SHL DUP3 ADD ADD SWAP2 DUP3 GT PUSH2 0x1BB JUMPI PUSH1 0x20 ADD SWAP2 JUMPDEST DUP2 DUP4 LT PUSH2 0x2FDA JUMPI POP POP POP SWAP1 JUMP JUMPDEST DUP3 CALLDATALOAD PUSH1 0x1 PUSH1 0x1 PUSH1 0xA0 SHL SUB DUP2 AND DUP2 SUB PUSH2 0x1BB JUMPI DUP2 MSTORE PUSH1 0x20 SWAP3 DUP4 ADD SWAP3 ADD PUSH2 0x2FCD JUMP JUMPDEST SWAP1 DUP1 PUSH1 0x1F DUP4 ADD SLT ISZERO PUSH2 0x1BB JUMPI DUP2 CALLDATALOAD SWAP1 PUSH2 0x3012 DUP3 PUSH2 0x2D23 JUMP JUMPDEST SWAP3 PUSH2 0x3020 PUSH1 0x40 MLOAD SWAP5 DUP6 PUSH2 0x2BC9 JUMP JUMPDEST DUP3 DUP5 MSTORE PUSH1 0x20 DUP1 DUP6 ADD SWAP4 PUSH1 0x5 SHL DUP3 ADD ADD SWAP2 DUP3 GT PUSH2 0x1BB JUMPI PUSH1 0x20 ADD SWAP2 JUMPDEST DUP2 DUP4 LT PUSH2 0x3048 JUMPI POP POP POP SWAP1 JUMP JUMPDEST DUP3 CALLDATALOAD DUP1 ISZERO ISZERO DUP2 SUB PUSH2 0x1BB JUMPI DUP2 MSTORE PUSH1 0x20 SWAP3 DUP4 ADD SWAP3 ADD PUSH2 0x303B JUMP JUMPDEST PUSH1 0x40 MLOAD SWAP1 PUSH2 0x3070 PUSH1 0x20 DUP4 PUSH2 0x2BC9 JUMP JUMPDEST PUSH1 0x0 DUP1 DUP4 MSTORE DUP3 DUP2 JUMPDEST DUP3 DUP2 LT PUSH2 0x3084 JUMPI POP POP POP JUMP JUMPDEST DUP1 PUSH1 0x60 PUSH1 0x20 DUP1 SWAP4 DUP6 ADD ADD MSTORE ADD PUSH2 0x3078 JUMP JUMPDEST SWAP1 PUSH2 0x309F DUP3 PUSH2 0x2D23 JUMP JUMPDEST PUSH2 0x30AC PUSH1 0x40 MLOAD SWAP2 DUP3 PUSH2 0x2BC9 JUMP JUMPDEST DUP3 DUP2 MSTORE DUP1 SWAP3 PUSH2 0x30BD PUSH1 0x1F NOT SWAP2 PUSH2 0x2D23 JUMP JUMPDEST ADD SWAP1 PUSH1 0x0 JUMPDEST DUP3 DUP2 LT PUSH2 0x30CE JUMPI POP POP POP JUMP JUMPDEST DUP1 PUSH1 0x60 PUSH1 0x20 DUP1 SWAP4 DUP6 ADD ADD MSTORE ADD PUSH2 0x30C2 JUMP JUMPDEST SWAP1 PUSH2 0x30E9 DUP3 PUSH2 0x2D23 JUMP JUMPDEST PUSH2 0x30F6 PUSH1 0x40 MLOAD SWAP2 DUP3 PUSH2 0x2BC9 JUMP JUMPDEST DUP3 DUP2 MSTORE DUP1 SWAP3 PUSH2 0x3107 PUSH1 0x1F NOT SWAP2 PUSH2 0x2D23 JUMP JUMPDEST ADD SWAP1 PUSH1 0x20 CALLDATASIZE SWAP2 ADD CALLDATACOPY JUMP JUMPDEST DUP1 MLOAD ISZERO PUSH2 0x2E30 JUMPI PUSH1 0x20 ADD SWAP1 JUMP JUMPDEST DUP1 MLOAD DUP3 LT ISZERO PUSH2 0x2E30 JUMPI PUSH1 0x20 SWAP2 PUSH1 0x5 SHL ADD ADD SWAP1 JUMP JUMPDEST SWAP2 SWAP1 DUP3 SUB SWAP2 DUP3 GT PUSH2 0x313F JUMPI JUMP JUMPDEST PUSH4 0x4E487B71 PUSH1 0xE0 SHL PUSH1 0x0 MSTORE PUSH1 0x11 PUSH1 0x4 MSTORE PUSH1 0x24 PUSH1 0x0 REVERT JUMPDEST SWAP1 DUP2 SLOAD PUSH2 0x3161 DUP2 PUSH2 0x2D23 JUMP JUMPDEST SWAP3 PUSH2 0x316F PUSH1 0x40 MLOAD SWAP5 DUP6 PUSH2 0x2BC9 JUMP JUMPDEST DUP2 DUP5 MSTORE PUSH1 0x20 DUP5 ADD SWAP1 PUSH1 0x0 MSTORE PUSH1 0x20 PUSH1 0x0 KECCAK256 PUSH1 0x0 SWAP2 JUMPDEST DUP4 DUP4 LT PUSH2 0x3190 JUMPI POP POP POP POP JUMP JUMPDEST PUSH1 0x1 PUSH1 0x20 DUP2 SWAP3 PUSH2 0x319F DUP6 PUSH2 0x2E80 JUMP JUMPDEST DUP2 MSTORE ADD SWAP3 ADD SWAP3 ADD SWAP2 SWAP1 PUSH2 0x3183 JUMP JUMPDEST ISZERO PUSH2 0x31B4 JUMPI JUMP JUMPDEST PUSH1 0x40 MLOAD PUSH3 0x461BCD PUSH1 0xE5 SHL DUP2 MSTORE PUSH1 0x20 PUSH1 0x4 DUP3 ADD MSTORE PUSH1 0x1A PUSH1 0x24 DUP3 ADD MSTORE PUSH26 0x13DB9B1E481B585A5B881C1C9BDA9958DD0818D85B8818D85B1B PUSH1 0x32 SHL PUSH1 0x44 DUP3 ADD MSTORE PUSH1 0x64 SWAP1 REVERT JUMPDEST DUP2 DUP2 LT PUSH2 0x3201 JUMPI POP POP JUMP JUMPDEST PUSH1 0x0 DUP2 SSTORE PUSH1 0x1 ADD PUSH2 0x31F6 JUMP JUMPDEST DUP2 PUSH1 0x1 SHL SWAP2 PUSH1 0x0 NOT SWAP1 PUSH1 0x3 SHL SHR NOT AND OR SWAP1 JUMP JUMPDEST SWAP3 SWAP2 SWAP1 PUSH2 0x3237 PUSH1 0x20 SWAP2 PUSH1 0x40 DUP7 MSTORE PUSH1 0x40 DUP7 ADD SWAP1 PUSH2 0x2C71 JUMP JUMPDEST SWAP4 ADD MSTORE JUMP JUMPDEST ISZERO PUSH2 0x3243 JUMPI JUMP JUMPDEST PUSH1 0x40 MLOAD PUSH3 0x461BCD PUSH1 0xE5 SHL DUP2 MSTORE PUSH1 0x20 PUSH1 0x4 DUP3 ADD MSTORE PUSH1 0x12 PUSH1 0x24 DUP3 ADD MSTORE PUSH18 0x53657373696F6E206E6F7420616374697665 PUSH1 0x70 SHL PUSH1 0x44 DUP3 ADD MSTORE PUSH1 0x64 SWAP1 REVERT JUMPDEST ISZERO PUSH2 0x3284 JUMPI JUMP JUMPDEST PUSH1 0x40 MLOAD PUSH3 0x461BCD PUSH1 0xE5 SHL DUP2 MSTORE PUSH1 0x20 PUSH1 0x4 DUP3 ADD MSTORE PUSH1 0x11 PUSH1 0x24 DUP3 ADD MSTORE PUSH17 0x105B1C9958591E48199A5B985B1A5E9959 PUSH1 0x7A SHL PUSH1 0x44 DUP3 ADD MSTORE PUSH1 0x64 SWAP1 REVERT JUMPDEST SWAP1 SWAP2 PUSH2 0x32D4 PUSH2 0x32E2 SWAP4 PUSH1 0x40 DUP5 MSTORE PUSH1 0x40 DUP5 ADD SWAP1 PUSH2 0x2C71 JUMP JUMPDEST SWAP2 PUSH1 0x20 DUP2 DUP5 SUB SWAP2 ADD MSTORE PUSH2 0x2C71 JUMP JUMPDEST SWAP1 JUMP JUMPDEST PUSH1 0x0 NOT DUP2 EQ PUSH2 0x313F JUMPI PUSH1 0x1 ADD SWAP1 JUMP JUMPDEST PUSH1 0x9 SLOAD SWAP1 PUSH1 0x1 JUMPDEST DUP3 DUP2 GT ISZERO PUSH2 0x330B JUMPI POP POP POP PUSH1 0x0 SWAP1 JUMP JUMPDEST DUP1 PUSH1 0x0 MSTORE PUSH1 0x8 PUSH1 0x20 MSTORE PUSH2 0x3324 PUSH1 0x1 PUSH1 0x40 PUSH1 0x0 KECCAK256 ADD PUSH2 0x3155 JUMP JUMPDEST SWAP3 PUSH1 0x0 JUMPDEST DUP5 MLOAD DUP2 LT ISZERO PUSH2 0x3378 JUMPI PUSH2 0x333B DUP2 DUP7 PUSH2 0x311E JUMP JUMPDEST MLOAD PUSH1 0x20 DUP2 MLOAD SWAP2 ADD KECCAK256 DUP5 MLOAD PUSH1 0x20 DUP7 ADD KECCAK256 EQ PUSH2 0x3357 JUMPI PUSH1 0x1 ADD PUSH2 0x3328 JUMP JUMPDEST POP POP PUSH2 0x3374 SWAP3 POP PUSH1 0x0 MSTORE PUSH1 0x8 PUSH1 0x20 MSTORE PUSH1 0x6 PUSH1 0x40 PUSH1 0x0 KECCAK256 ADD SWAP1 PUSH2 0x2F4A JUMP JUMPDEST SLOAD SWAP1 JUMP JUMPDEST POP SWAP3 POP PUSH2 0x3384 SWAP1 PUSH2 0x32E5 JUMP JUMPDEST PUSH2 0x32FB JUMP JUMPDEST SWAP2 SWAP1 DUP3 ADD DUP1 SWAP3 GT PUSH2 0x313F JUMPI JUMP JUMPDEST ISZERO PUSH2 0x339D JUMPI JUMP JUMPDEST PUSH1 0x40 MLOAD PUSH3 0x461BCD PUSH1 0xE5 SHL DUP2 MSTORE PUSH1 0x20 PUSH1 0x4 DUP3 ADD MSTORE PUSH1 0x19 PUSH1 0x24 DUP3 ADD MSTORE PUSH25 0x566F74696E672073657373696F6E206E6F7420616374697665 PUSH1 0x38 SHL PUSH1 0x44 DUP3 ADD MSTORE PUSH1 0x64 SWAP1 REVERT JUMPDEST ISZERO PUSH2 0x33E5 JUMPI JUMP JUMPDEST PUSH1 0x64 PUSH1 0x40 MLOAD PUSH3 0x461BCD PUSH1 0xE5 SHL DUP2 MSTORE PUSH1 0x20 PUSH1 0x4 DUP3 ADD MSTORE PUSH1 0x20 PUSH1 0x24 DUP3 ADD MSTORE PUSH32 0x566F74696E672073657373696F6E20616C72656164792066696E616C697A6564 PUSH1 0x44 DUP3 ADD MSTORE REVERT JUMPDEST ISZERO PUSH2 0x3430 JUMPI JUMP JUMPDEST PUSH1 0x40 MLOAD PUSH3 0x461BCD PUSH1 0xE5 SHL DUP2 MSTORE PUSH1 0x20 PUSH1 0x4 DUP3 ADD MSTORE PUSH1 0x1C PUSH1 0x24 DUP3 ADD MSTORE PUSH28 0x416C726561647920766F746564206F6E20746869732073616D706C65 PUSH1 0x20 SHL PUSH1 0x44 DUP3 ADD MSTORE PUSH1 0x64 SWAP1 REVERT JUMPDEST PUSH1 0x40 MLOAD SWAP1 PUSH2 0x3483 PUSH1 0x40 DUP4 PUSH2 0x2BC9 JUMP JUMPDEST PUSH1 0xF DUP3 MSTORE PUSH15 0x151A5B595BDD5D081C995858DA1959 PUSH1 0x8A SHL PUSH1 0x20 DUP4 ADD MSTORE JUMP JUMPDEST DUP1 SLOAD PUSH1 0x1 PUSH1 0x40 SHL DUP2 LT ISZERO PUSH2 0x192A JUMPI PUSH2 0x34BE SWAP2 PUSH1 0x1 DUP3 ADD DUP2 SSTORE PUSH2 0x2F70 JUMP JUMPDEST SWAP2 SWAP1 SWAP2 PUSH2 0x3603 JUMPI DUP1 MLOAD DUP3 SLOAD PUSH1 0x1 PUSH1 0x1 PUSH1 0xA0 SHL SUB NOT AND PUSH1 0x1 PUSH1 0x1 PUSH1 0xA0 SHL SUB SWAP2 SWAP1 SWAP2 AND OR DUP3 SSTORE PUSH1 0x20 DUP2 ADD MLOAD DUP1 MLOAD PUSH1 0x1 DUP5 ADD SWAP2 PUSH1 0x1 PUSH1 0x1 PUSH1 0x40 SHL SUB DUP3 GT PUSH2 0x192A JUMPI PUSH2 0x3506 DUP4 SLOAD PUSH2 0x2E46 JUMP JUMPDEST PUSH1 0x1F DUP2 GT PUSH2 0x35D1 JUMPI JUMPDEST POP PUSH1 0x20 SWAP1 PUSH1 0x1F DUP4 GT PUSH1 0x1 EQ PUSH2 0x3565 JUMPI DUP3 PUSH1 0x3 SWAP6 SWAP4 PUSH1 0x60 SWAP6 SWAP4 PUSH2 0x3539 SWAP4 PUSH1 0x0 SWAP3 PUSH2 0x355A JUMPI POP POP PUSH2 0x320D JUMP JUMPDEST SWAP1 SSTORE JUMPDEST PUSH1 0x2 DUP5 ADD PUSH1 0x40 DUP3 ADD MLOAD ISZERO ISZERO PUSH1 0xFF DUP1 NOT DUP4 SLOAD AND SWAP2 AND OR SWAP1 SSTORE ADD MLOAD SWAP2 ADD SSTORE JUMP JUMPDEST ADD MLOAD SWAP1 POP CODESIZE DUP1 PUSH2 0x2320 JUMP JUMPDEST SWAP1 PUSH1 0x1F NOT DUP4 AND SWAP2 DUP5 PUSH1 0x0 MSTORE DUP2 PUSH1 0x0 KECCAK256 SWAP3 PUSH1 0x0 JUMPDEST DUP2 DUP2 LT PUSH2 0x35B9 JUMPI POP SWAP3 PUSH1 0x1 SWAP3 DUP6 SWAP3 PUSH1 0x3 SWAP9 SWAP7 PUSH1 0x60 SWAP9 SWAP7 LT PUSH2 0x35A1 JUMPI JUMPDEST POP POP POP DUP2 SHL ADD SWAP1 SSTORE PUSH2 0x353C JUMP JUMPDEST ADD MLOAD PUSH1 0x0 NOT DUP4 DUP10 SHL PUSH1 0xF8 AND SHR NOT AND SWAP1 SSTORE CODESIZE DUP1 DUP1 PUSH2 0x3594 JUMP JUMPDEST SWAP3 SWAP4 PUSH1 0x20 PUSH1 0x1 DUP2 SWAP3 DUP8 DUP7 ADD MLOAD DUP2 SSTORE ADD SWAP6 ADD SWAP4 ADD PUSH2 0x3578 JUMP JUMPDEST PUSH2 0x35FD SWAP1 DUP5 PUSH1 0x0 MSTORE PUSH1 0x20 PUSH1 0x0 KECCAK256 PUSH1 0x1F DUP6 ADD PUSH1 0x5 SHR DUP2 ADD SWAP2 PUSH1 0x20 DUP7 LT PUSH2 0x2403 JUMPI PUSH1 0x1F ADD PUSH1 0x5 SHR ADD SWAP1 PUSH2 0x31F6 JUMP JUMPDEST CODESIZE PUSH2 0x350F JUMP JUMPDEST PUSH4 0x4E487B71 PUSH1 0xE0 SHL PUSH1 0x0 MSTORE PUSH1 0x0 PUSH1 0x4 MSTORE PUSH1 0x24 PUSH1 0x0 REVERT JUMPDEST PUSH1 0x40 MLOAD SWAP1 PUSH2 0x3628 PUSH1 0x40 DUP4 PUSH2 0x2BC9 JUMP JUMPDEST PUSH1 0x1A DUP3 MSTORE PUSH26 0x82D8D840ECDEE8CAE4E640C6DEDAE0D8CAE8CAC840C4C2E8C6D PUSH1 0x33 SHL PUSH1 0x20 DUP4 ADD MSTORE JUMP JUMPDEST ISZERO PUSH2 0x3658 JUMPI JUMP JUMPDEST PUSH1 0x40 MLOAD PUSH3 0x461BCD PUSH1 0xE5 SHL DUP2 MSTORE PUSH1 0x20 PUSH1 0x4 DUP3 ADD MSTORE PUSH1 0xF PUSH1 0x24 DUP3 ADD MSTORE PUSH15 0x98CADCCEE8D040DAD2E6DAC2E8C6D PUSH1 0x8B SHL PUSH1 0x44 DUP3 ADD MSTORE PUSH1 0x64 SWAP1 REVERT JUMPDEST MLOAD SWAP1 DUP2 ISZERO ISZERO DUP3 SUB PUSH2 0x1BB JUMPI JUMP JUMPDEST SWAP3 SWAP4 SWAP1 SWAP5 PUSH2 0x36AD DUP5 MLOAD DUP8 MLOAD EQ PUSH2 0x3651 JUMP JUMPDEST PUSH1 0x0 SWAP4 PUSH1 0x0 JUMPDEST DUP2 MLOAD DUP2 LT ISZERO PUSH2 0x36E8 JUMPI PUSH2 0x36C6 DUP2 DUP10 PUSH2 0x311E JUMP JUMPDEST MLOAD PUSH2 0x36D4 JUMPI JUMPDEST PUSH1 0x1 ADD PUSH2 0x36B3 JUMP JUMPDEST SWAP5 PUSH2 0x36E0 PUSH1 0x1 SWAP2 PUSH2 0x32E5 JUMP JUMPDEST SWAP6 SWAP1 POP PUSH2 0x36CC JUMP JUMPDEST POP SWAP2 SWAP4 SWAP5 SWAP1 SWAP3 SWAP5 DUP1 ISZERO PUSH2 0x3996 JUMPI PUSH2 0x36FE SWAP1 PUSH2 0x3095 JUMP JUMPDEST SWAP4 PUSH1 0x0 SWAP4 PUSH1 0x0 JUMPDEST DUP5 MLOAD DUP2 LT ISZERO PUSH2 0x375B JUMPI PUSH2 0x3718 DUP2 DUP11 PUSH2 0x311E JUMP JUMPDEST MLOAD PUSH2 0x3726 JUMPI JUMPDEST PUSH1 0x1 ADD PUSH2 0x3705 JUMP JUMPDEST SWAP5 PUSH2 0x3753 PUSH1 0x1 SWAP2 PUSH2 0x3737 DUP9 DUP9 PUSH2 0x311E JUMP JUMPDEST MLOAD PUSH2 0x3742 DUP3 DUP12 PUSH2 0x311E JUMP JUMPDEST MSTORE PUSH2 0x374D DUP2 DUP11 PUSH2 0x311E JUMP JUMPDEST POP PUSH2 0x32E5 JUMP JUMPDEST SWAP6 SWAP1 POP PUSH2 0x371E JUMP JUMPDEST POP SWAP6 SWAP3 POP SWAP4 SWAP3 POP SWAP5 POP PUSH2 0x376E DUP3 MLOAD PUSH2 0x3095 JUMP JUMPDEST SWAP5 DUP4 PUSH1 0x0 MSTORE PUSH1 0x8 PUSH1 0x20 MSTORE PUSH1 0x40 PUSH1 0x0 KECCAK256 SWAP4 PUSH1 0x5 PUSH1 0x0 SWAP6 ADD SWAP5 JUMPDEST DUP5 MLOAD DUP2 LT ISZERO PUSH2 0x3836 JUMPI DUP1 PUSH2 0x379C PUSH1 0x1 SWAP3 DUP8 PUSH2 0x311E JUMP JUMPDEST MLOAD PUSH2 0x37AA PUSH2 0x2A71 DUP10 DUP4 PUSH2 0x2F4A JUMP JUMPDEST DUP1 MLOAD SWAP1 SWAP2 SWAP1 ISZERO PUSH2 0x37D2 JUMPI POP PUSH2 0x37BF DUP3 DUP12 PUSH2 0x311E JUMP JUMPDEST MSTORE PUSH2 0x37CA DUP2 DUP11 PUSH2 0x311E JUMP JUMPDEST POP JUMPDEST ADD PUSH2 0x3786 JUMP JUMPDEST SWAP1 POP PUSH2 0x381B PUSH1 0x30 PUSH1 0x40 MLOAD DUP1 SWAP4 PUSH16 0x29B0B6B83632903230BA30903337B91 PUSH1 0x85 SHL PUSH1 0x20 DUP4 ADD MSTORE PUSH2 0x380A DUP2 MLOAD DUP1 SWAP3 PUSH1 0x20 DUP7 DUP7 ADD SWAP2 ADD PUSH2 0x2C4E JUMP JUMPDEST DUP2 ADD SUB ADD PUSH1 0x1F NOT DUP2 ADD DUP4 MSTORE DUP3 PUSH2 0x2BC9 JUMP JUMPDEST PUSH2 0x3825 DUP3 DUP12 PUSH2 0x311E JUMP JUMPDEST MSTORE PUSH2 0x3830 DUP2 DUP11 PUSH2 0x311E JUMP JUMPDEST POP PUSH2 0x37CC JUMP JUMPDEST POP SWAP3 SWAP1 SWAP4 POP SWAP4 SWAP1 SWAP4 PUSH1 0x0 SWAP4 DUP2 MLOAD PUSH2 0x3850 JUMPI JUMPDEST POP SWAP5 SWAP4 SWAP3 SWAP2 SWAP1 JUMP JUMPDEST PUSH2 0x3880 DUP6 PUSH2 0x385D DUP5 PUSH2 0x3111 JUMP JUMPDEST MLOAD PUSH1 0x40 MLOAD DUP1 SWAP4 DUP2 SWAP3 PUSH4 0x79C4AB15 PUSH1 0xE0 SHL DUP4 MSTORE PUSH1 0x20 PUSH1 0x4 DUP5 ADD MSTORE PUSH1 0x24 DUP4 ADD SWAP1 PUSH2 0x2C71 JUMP JUMPDEST SUB DUP2 ADDRESS GAS STATICCALL SWAP1 DUP2 ISZERO PUSH2 0x398B JUMPI DUP7 SWAP2 DUP8 SWAP2 DUP9 SWAP2 PUSH2 0x38E2 JUMPI JUMPDEST POP DUP2 PUSH2 0x38D9 JUMPI JUMPDEST POP PUSH2 0x38AA JUMPI JUMPDEST POP PUSH2 0x3848 JUMP JUMPDEST PUSH2 0x38B7 SWAP1 SWAP6 SWAP3 SWAP6 TIMESTAMP PUSH2 0x3132 JUMP JUMPDEST SWAP1 DUP1 DUP3 LT PUSH2 0x38CA JUMPI POP POP JUMPDEST SWAP3 CODESIZE DUP1 PUSH2 0x38A4 JUMP JUMPDEST PUSH2 0x38D4 SWAP3 POP PUSH2 0x3132 JUMP JUMPDEST PUSH2 0x38C2 JUMP JUMPDEST SWAP1 POP ISZERO CODESIZE PUSH2 0x389E JUMP JUMPDEST SWAP3 POP POP POP RETURNDATASIZE DUP1 DUP8 DUP4 RETURNDATACOPY PUSH2 0x38F5 DUP2 DUP4 PUSH2 0x2BC9 JUMP JUMPDEST DUP2 ADD SWAP1 PUSH1 0x80 DUP2 DUP4 SUB SLT PUSH2 0x3987 JUMPI DUP1 MLOAD PUSH2 0x3910 PUSH1 0x20 DUP4 ADD PUSH2 0x368F JUMP JUMPDEST SWAP3 PUSH2 0x391D PUSH1 0x40 DUP5 ADD PUSH2 0x368F JUMP JUMPDEST PUSH1 0x60 DUP5 ADD MLOAD SWAP1 SWAP4 PUSH1 0x1 PUSH1 0x1 PUSH1 0x40 SHL SUB DUP3 GT PUSH2 0x397F JUMPI ADD DUP2 PUSH1 0x1F DUP3 ADD SLT ISZERO PUSH2 0x3983 JUMPI DUP1 MLOAD SWAP2 PUSH2 0x394A DUP4 PUSH2 0x2BEC JUMP JUMPDEST SWAP1 PUSH2 0x3958 PUSH1 0x40 MLOAD SWAP3 DUP4 PUSH2 0x2BC9 JUMP JUMPDEST DUP4 DUP3 MSTORE PUSH1 0x20 DUP5 DUP5 ADD ADD GT PUSH2 0x397F JUMPI SWAP1 PUSH1 0x20 DUP1 PUSH2 0x3977 SWAP5 SWAP4 ADD SWAP2 ADD PUSH2 0x2C4E JUMP JUMPDEST SWAP2 SWAP1 CODESIZE PUSH2 0x3897 JUMP JUMPDEST DUP11 DUP1 REVERT JUMPDEST DUP10 DUP1 REVERT JUMPDEST DUP7 DUP1 REVERT JUMPDEST PUSH1 0x40 MLOAD RETURNDATASIZE DUP9 DUP3 RETURNDATACOPY RETURNDATASIZE SWAP1 REVERT JUMPDEST POP POP POP SWAP2 POP SWAP2 POP PUSH2 0x39A5 PUSH2 0x3061 JUMP JUMPDEST SWAP1 PUSH2 0x39AE PUSH2 0x3061 JUMP JUMPDEST SWAP3 PUSH2 0x39B7 PUSH2 0x3061 JUMP JUMPDEST SWAP3 SWAP4 SWAP3 SWAP2 PUSH1 0x0 SWAP2 SWAP1 JUMP JUMPDEST PUSH1 0x40 MLOAD DUP2 MLOAD SWAP1 PUSH1 0x20 DUP2 DUP2 DUP6 ADD SWAP4 PUSH2 0x39D9 DUP2 DUP4 DUP8 PUSH2 0x2C4E JUMP JUMPDEST DUP2 ADD PUSH1 0x6 DUP2 MSTORE SUB ADD SWAP1 KECCAK256 SWAP2 DUP3 SLOAD PUSH2 0x39EF DUP2 PUSH2 0x2D23 JUMP JUMPDEST SWAP4 PUSH2 0x39FD PUSH1 0x40 MLOAD SWAP6 DUP7 PUSH2 0x2BC9 JUMP JUMPDEST DUP2 DUP6 MSTORE PUSH1 0x20 DUP6 ADD SWAP1 PUSH1 0x0 MSTORE PUSH1 0x20 PUSH1 0x0 KECCAK256 PUSH1 0x0 SWAP2 JUMPDEST DUP4 DUP4 LT PUSH2 0x3BC1 JUMPI POP POP POP POP PUSH2 0x3A34 SWAP2 PUSH1 0x20 SWAP2 PUSH1 0x40 MLOAD SWAP4 DUP5 SWAP3 DUP4 SWAP3 MLOAD SWAP3 DUP4 SWAP2 PUSH2 0x2C4E JUMP JUMPDEST DUP2 ADD PUSH1 0x7 DUP2 MSTORE SUB ADD SWAP1 KECCAK256 SWAP1 DUP1 MLOAD ISZERO PUSH2 0x3B80 JUMPI PUSH2 0x3A50 DUP2 MLOAD PUSH2 0x3095 JUMP JUMPDEST SWAP1 PUSH1 0x0 SWAP4 DUP5 JUMPDEST DUP3 MLOAD DUP2 LT ISZERO PUSH2 0x3AE2 JUMPI PUSH1 0x20 PUSH2 0x3A6B DUP3 DUP6 PUSH2 0x311E JUMP JUMPDEST MLOAD ADD MLOAD PUSH1 0x0 PUSH1 0x20 DUP3 ADD DUP2 JUMPDEST DUP10 DUP2 LT PUSH2 0x3AB3 JUMPI JUMPDEST POP POP ISZERO PUSH2 0x3A8F JUMPI JUMPDEST POP PUSH1 0x1 ADD PUSH2 0x3A56 JUMP JUMPDEST DUP7 PUSH2 0x3AAC SWAP2 PUSH2 0x3AA1 PUSH1 0x1 SWAP5 SWAP10 DUP9 PUSH2 0x311E JUMP JUMPDEST MSTORE PUSH2 0x374D DUP2 DUP8 PUSH2 0x311E JUMP JUMPDEST SWAP6 SWAP1 PUSH2 0x3A86 JUMP JUMPDEST PUSH2 0x3ABD DUP2 DUP10 PUSH2 0x311E JUMP JUMPDEST MLOAD PUSH1 0x20 DUP2 MLOAD SWAP2 ADD KECCAK256 DUP5 MLOAD DUP4 KECCAK256 EQ PUSH2 0x3AD6 JUMPI PUSH1 0x1 ADD PUSH2 0x3A76 JUMP JUMPDEST POP POP POP PUSH1 0x1 CODESIZE DUP1 PUSH2 0x3A7E JUMP JUMPDEST POP SWAP2 SWAP3 SWAP4 SWAP1 POP PUSH2 0x3AF1 DUP2 PUSH2 0x3095 JUMP JUMPDEST SWAP1 PUSH2 0x3AFB DUP2 PUSH2 0x30DF JUMP JUMPDEST SWAP5 PUSH2 0x3B05 DUP3 PUSH2 0x30DF JUMP JUMPDEST SWAP5 PUSH1 0x7 DUP3 ADD SWAP2 PUSH1 0x6 ADD PUSH1 0x0 JUMPDEST DUP5 DUP2 LT PUSH2 0x3B22 JUMPI POP POP POP POP POP SWAP3 SWAP2 SWAP1 JUMP JUMPDEST DUP1 PUSH2 0x3B2F PUSH1 0x1 SWAP3 DUP6 PUSH2 0x311E JUMP JUMPDEST MLOAD PUSH2 0x3B3A DUP3 DUP10 PUSH2 0x311E JUMP JUMPDEST MSTORE PUSH2 0x3B45 DUP2 DUP9 PUSH2 0x311E JUMP JUMPDEST POP PUSH2 0x3B54 DUP4 PUSH2 0x22D3 DUP4 DUP8 PUSH2 0x311E JUMP JUMPDEST SLOAD PUSH2 0x3B5F DUP3 DUP13 PUSH2 0x311E JUMP JUMPDEST MSTORE PUSH2 0x3B6E DUP6 PUSH2 0x22D3 DUP4 DUP8 PUSH2 0x311E JUMP JUMPDEST SLOAD PUSH2 0x3B79 DUP3 DUP12 PUSH2 0x311E JUMP JUMPDEST MSTORE ADD PUSH2 0x3B11 JUMP JUMPDEST POP POP PUSH2 0x3B8A PUSH2 0x3061 JUMP JUMPDEST PUSH1 0x40 MLOAD SWAP2 PUSH1 0x20 SWAP2 PUSH2 0x3B9B DUP4 DUP6 PUSH2 0x2BC9 JUMP JUMPDEST PUSH1 0x0 DUP5 MSTORE PUSH1 0x0 CALLDATASIZE DUP2 CALLDATACOPY PUSH1 0x40 MLOAD SWAP3 PUSH2 0x3BB2 DUP2 DUP6 PUSH2 0x2BC9 JUMP JUMPDEST PUSH1 0x0 DUP5 MSTORE POP PUSH1 0x0 CALLDATASIZE DUP2 CALLDATACOPY SWAP3 SWAP2 SWAP1 JUMP JUMPDEST PUSH1 0x4 PUSH1 0x20 PUSH1 0x1 SWAP3 PUSH1 0x40 MLOAD PUSH2 0x3BD4 DUP2 PUSH2 0x2B93 JUMP JUMPDEST DUP5 DUP1 PUSH1 0xA0 SHL SUB DUP7 SLOAD AND DUP2 MSTORE PUSH2 0x3BEA DUP6 DUP8 ADD PUSH2 0x2E80 JUMP JUMPDEST DUP4 DUP3 ADD MSTORE PUSH1 0xFF PUSH1 0x2 DUP8 ADD SLOAD AND ISZERO ISZERO PUSH1 0x40 DUP3 ADD MSTORE PUSH1 0x3 DUP7 ADD SLOAD PUSH1 0x60 DUP3 ADD MSTORE DUP2 MSTORE ADD SWAP3 ADD SWAP3 ADD SWAP2 SWAP1 PUSH2 0x3A11 JUMP JUMPDEST PUSH1 0x40 MLOAD SWAP1 PUSH2 0x3C24 PUSH1 0x40 DUP4 PUSH2 0x2BC9 JUMP JUMPDEST PUSH1 0x7 DUP3 MSTORE PUSH7 0x31B932B0BA37B9 PUSH1 0xC9 SHL PUSH1 0x20 DUP4 ADD MSTORE JUMP JUMPDEST PUSH1 0x40 MLOAD SWAP1 PUSH2 0x3C49 PUSH1 0x40 DUP4 PUSH2 0x2BC9 JUMP JUMPDEST PUSH1 0xB DUP3 MSTORE PUSH11 0x31B7B73A3934B13ABA37B9 PUSH1 0xA9 SHL PUSH1 0x20 DUP4 ADD MSTORE JUMP JUMPDEST PUSH1 0x40 MLOAD SWAP1 PUSH2 0x3C72 PUSH1 0x40 DUP4 PUSH2 0x2BC9 JUMP JUMPDEST PUSH1 0xB DUP3 MSTORE PUSH11 0x31B7B7B93234B730BA37B9 PUSH1 0xA9 SHL PUSH1 0x20 DUP4 ADD MSTORE JUMP JUMPDEST PUSH1 0x40 MLOAD SWAP1 PUSH2 0x3C9B PUSH1 0x40 DUP4 PUSH2 0x2BC9 JUMP JUMPDEST PUSH1 0xC DUP3 MSTORE PUSH12 0x4E4F5F434F4E53454E535553 PUSH1 0xA0 SHL PUSH1 0x20 DUP4 ADD MSTORE JUMP JUMPDEST PUSH1 0x40 MLOAD SWAP1 PUSH2 0x3CC5 PUSH1 0x40 DUP4 PUSH2 0x2BC9 JUMP JUMPDEST PUSH1 0x8 DUP3 MSTORE PUSH8 0x4E4F5F564F544553 PUSH1 0xC0 SHL PUSH1 0x20 DUP4 ADD MSTORE JUMP JUMPDEST PUSH1 0x40 MLOAD PUSH1 0xFF PUSH1 0x1 DUP4 MLOAD SWAP3 PUSH1 0x20 DUP2 DUP2 DUP8 ADD SWAP6 PUSH2 0x3CF8 DUP2 DUP4 DUP10 PUSH2 0x2C4E JUMP JUMPDEST DUP2 ADD PUSH1 0x7 DUP2 MSTORE SUB ADD SWAP1 KECCAK256 ADD SLOAD PUSH1 0x8 SHR AND ISZERO PUSH2 0x3D4A JUMPI PUSH1 0x2 PUSH2 0x1F2D PUSH1 0x20 PUSH2 0x3D29 SWAP4 PUSH1 0x40 MLOAD DUP1 SWAP4 DUP2 SWAP3 DUP9 MLOAD SWAP3 DUP4 SWAP2 PUSH2 0x2C4E JUMP JUMPDEST DUP1 MLOAD DUP1 ISZERO SWAP1 DUP2 ISZERO PUSH2 0x3D6E JUMPI JUMPDEST POP DUP1 ISZERO PUSH2 0x3D51 JUMPI JUMPDEST PUSH2 0x3D4A JUMPI PUSH2 0x32E2 SWAP2 PUSH2 0x42C7 JUMP JUMPDEST POP POP PUSH1 0x0 SWAP1 JUMP JUMPDEST POP DUP1 MLOAD PUSH1 0x20 DUP3 ADD KECCAK256 PUSH2 0x3D61 PUSH2 0x3CB6 JUMP JUMPDEST PUSH1 0x20 DUP2 MLOAD SWAP2 ADD KECCAK256 EQ PUSH2 0x3D3D JUMP JUMPDEST SWAP1 POP PUSH1 0x20 DUP3 ADD KECCAK256 PUSH2 0x3D7D PUSH2 0x3C8C JUMP JUMPDEST PUSH1 0x20 DUP2 MLOAD SWAP2 ADD KECCAK256 EQ CODESIZE PUSH2 0x3D35 JUMP JUMPDEST PUSH1 0x2 SLOAD DUP1 ISZERO PUSH2 0x3D4A JUMPI PUSH2 0x3DB0 PUSH1 0x20 PUSH2 0x3DC0 SWAP4 DUP2 PUSH1 0x40 MLOAD SWAP4 DUP3 DUP6 DUP1 SWAP5 MLOAD SWAP4 DUP5 SWAP3 ADD PUSH2 0x2C4E JUMP JUMPDEST DUP2 ADD PUSH1 0x7 DUP2 MSTORE SUB ADD SWAP1 KECCAK256 SLOAD PUSH2 0x3389 JUMP JUMPDEST TIMESTAMP GT SWAP1 JUMP JUMPDEST SWAP1 PUSH1 0x0 PUSH1 0x40 MLOAD PUSH2 0x3DE7 PUSH1 0xFF PUSH1 0x1 DUP7 MLOAD SWAP4 PUSH1 0x20 DUP2 DUP2 DUP11 ADD SWAP7 PUSH2 0x2061 DUP2 DUP4 DUP11 PUSH2 0x2C4E JUMP JUMPDEST PUSH2 0x3E01 PUSH1 0xFF PUSH1 0x1 PUSH1 0x40 MLOAD PUSH1 0x20 DUP2 DUP10 MLOAD PUSH2 0x2084 DUP2 DUP4 DUP11 PUSH2 0x2C4E JUMP JUMPDEST PUSH1 0x1 PUSH1 0x40 MLOAD PUSH1 0x20 DUP2 DUP8 MLOAD PUSH2 0x3E16 DUP2 DUP4 DUP9 PUSH2 0x2C4E JUMP JUMPDEST DUP2 ADD PUSH1 0x7 DUP2 MSTORE SUB ADD SWAP1 KECCAK256 ADD PUSH1 0xFF NOT DUP2 SLOAD AND SWAP1 SSTORE PUSH1 0x1 PUSH1 0x40 MLOAD PUSH1 0x20 DUP2 DUP8 MLOAD PUSH2 0x3E3E DUP2 DUP4 DUP9 PUSH2 0x2C4E JUMP JUMPDEST DUP2 ADD PUSH1 0x7 DUP2 MSTORE SUB ADD SWAP1 KECCAK256 ADD PUSH2 0x100 PUSH2 0xFF00 NOT DUP3 SLOAD AND OR SWAP1 SSTORE PUSH2 0x3E5F DUP5 PUSH2 0x444F JUMP JUMPDEST SWAP3 PUSH1 0x2 PUSH1 0x40 MLOAD PUSH1 0x20 DUP2 DUP9 MLOAD PUSH2 0x3E75 DUP2 DUP4 DUP10 PUSH2 0x2C4E JUMP JUMPDEST DUP2 ADD PUSH1 0x7 DUP2 MSTORE SUB ADD SWAP1 KECCAK256 ADD DUP5 MLOAD PUSH1 0x1 DUP1 PUSH1 0x40 SHL SUB DUP2 GT PUSH2 0x420C JUMPI PUSH2 0x3E99 DUP3 SLOAD PUSH2 0x2E46 JUMP JUMPDEST PUSH1 0x1F DUP2 GT PUSH2 0x41DC JUMPI JUMPDEST POP PUSH1 0x20 PUSH1 0x1F DUP3 GT PUSH1 0x1 EQ PUSH2 0x4160 JUMPI PUSH2 0x3F52 PUSH2 0x3F66 SWAP5 PUSH1 0x20 SWAP5 PUSH2 0x3EDF DUP6 PUSH1 0x4 SWAP10 SWAP7 PUSH1 0x0 DUP1 MLOAD PUSH1 0x20 PUSH2 0x45CC DUP4 CODECOPY DUP2 MLOAD SWAP2 MSTORE SWAP7 DUP13 SWAP2 PUSH2 0x4155 JUMPI JUMPDEST POP PUSH2 0x320D JUMP JUMPDEST SWAP1 SSTORE JUMPDEST PUSH32 0x8A0CC662156DA5580404150064CC81955DE64EF5A8090364795EDCBAC8429991 PUSH1 0x40 MLOAD DUP1 PUSH2 0x3F13 DUP14 TIMESTAMP SWAP1 DUP4 PUSH2 0x3220 JUMP JUMPDEST SUB SWAP1 LOG1 PUSH1 0x40 MLOAD SWAP2 DUP3 SWAP2 PUSH1 0x80 DUP4 MSTORE PUSH2 0x3F3E PUSH2 0x3F31 DUP14 PUSH1 0x80 DUP7 ADD SWAP1 PUSH2 0x2C71 JUMP JUMPDEST DUP5 DUP2 SUB DUP10 DUP7 ADD MSTORE DUP13 PUSH2 0x2C71 JUMP JUMPDEST SWAP1 TIMESTAMP PUSH1 0x40 DUP6 ADD MSTORE DUP4 DUP3 SUB PUSH1 0x60 DUP6 ADD MSTORE PUSH2 0x2C71 JUMP JUMPDEST SUB SWAP1 LOG1 PUSH1 0x40 MLOAD DUP1 SWAP4 DUP2 SWAP3 DUP10 MLOAD SWAP3 DUP4 SWAP2 PUSH2 0x2C4E JUMP JUMPDEST DUP2 ADD PUSH1 0x7 DUP2 MSTORE SUB ADD SWAP1 KECCAK256 ADD SLOAD DUP1 ISZERO ISZERO DUP1 PUSH2 0x413C JUMPI JUMPDEST PUSH2 0x4019 JUMPI JUMPDEST POP ADDRESS EXTCODESIZE ISZERO PUSH2 0x4016 JUMPI PUSH1 0x40 MLOAD PUSH4 0x2E4BCA8F PUSH1 0xE1 SHL DUP2 MSTORE SWAP1 DUP1 DUP3 DUP1 PUSH2 0x3FA7 DUP7 DUP9 PUSH1 0x4 DUP5 ADD PUSH2 0x32BD JUMP JUMPDEST SUB DUP2 DUP4 ADDRESS GAS CALL SWAP2 DUP3 PUSH2 0x4006 JUMPI JUMPDEST POP POP PUSH2 0x3FBE JUMPI POP POP JUMP JUMPDEST PUSH32 0xDABBBDE127EF4AC1B0A84891A674BFC7B3CEFF8D1E7350ABD0F7C48021420D32 SWAP2 PUSH2 0x3FFB PUSH2 0x4B8 SWAP3 PUSH1 0x40 MLOAD SWAP4 DUP5 SWAP4 PUSH1 0x60 DUP6 MSTORE PUSH1 0x60 DUP6 ADD SWAP1 PUSH2 0x2C71 JUMP JUMPDEST TIMESTAMP PUSH1 0x40 DUP4 ADD MSTORE SUB SWAP1 LOG1 JUMP JUMPDEST DUP2 PUSH2 0x4010 SWAP2 PUSH2 0x2BC9 JUMP JUMPDEST CODESIZE PUSH2 0x3FB4 JUMP JUMPDEST DUP1 REVERT JUMPDEST DUP1 DUP3 MSTORE PUSH1 0x8 PUSH1 0x20 MSTORE PUSH1 0x2 PUSH1 0x40 DUP4 KECCAK256 ADD PUSH2 0x4032 DUP2 SLOAD PUSH2 0x32E5 JUMP JUMPDEST SWAP1 SSTORE DUP1 DUP3 MSTORE PUSH1 0x8 PUSH1 0x20 MSTORE PUSH32 0x145F86831BF675D553EFC81172882ECDB1776F5BDFA7F1B8367AD08B57888740 PUSH2 0x407E PUSH1 0x1 PUSH1 0x40 DUP6 KECCAK256 ADD SLOAD DUP4 DUP6 MSTORE PUSH1 0x8 PUSH1 0x20 MSTORE PUSH1 0x2 PUSH1 0x40 DUP7 KECCAK256 ADD SLOAD SWAP1 PUSH2 0x3132 JUMP JUMPDEST PUSH1 0x40 MLOAD DUP1 SWAP2 DUP5 DUP3 MSTORE PUSH1 0x80 PUSH1 0x20 DUP4 ADD MSTORE PUSH2 0x40AB PUSH2 0x409D PUSH1 0x80 DUP5 ADD DUP11 PUSH2 0x2C71 JUMP JUMPDEST DUP4 DUP2 SUB PUSH1 0x40 DUP6 ADD MSTORE DUP9 PUSH2 0x2C71 JUMP JUMPDEST SWAP1 PUSH1 0x60 DUP4 ADD MSTORE SUB SWAP1 LOG1 DUP1 DUP3 MSTORE PUSH1 0x8 PUSH1 0x20 MSTORE PUSH1 0x2 PUSH1 0x40 DUP4 KECCAK256 ADD SLOAD DUP2 DUP4 MSTORE PUSH1 0x8 PUSH1 0x20 MSTORE PUSH1 0x1 PUSH1 0x40 DUP5 KECCAK256 ADD SLOAD GT PUSH2 0x3F80 JUMPI PUSH1 0x60 DUP2 PUSH32 0xCDF3A25AC86D8C6A422A8356F0FB7D6CC09B23CACA39FD699CBC6038E5587364 SWAP3 DUP5 MSTORE PUSH1 0x8 PUSH1 0x20 MSTORE PUSH1 0x3 PUSH1 0x40 DUP6 KECCAK256 ADD PUSH1 0xFF NOT DUP2 SLOAD AND SWAP1 SSTORE DUP1 DUP5 MSTORE PUSH1 0x8 PUSH1 0x20 MSTORE PUSH1 0x2 PUSH1 0x40 DUP6 KECCAK256 ADD SLOAD PUSH1 0x40 MLOAD SWAP2 DUP3 MSTORE PUSH1 0x20 DUP3 ADD MSTORE TIMESTAMP PUSH1 0x40 DUP3 ADD MSTORE LOG1 CODESIZE PUSH2 0x3F80 JUMP JUMPDEST POP DUP1 DUP3 MSTORE PUSH1 0x8 PUSH1 0x20 MSTORE PUSH1 0xFF PUSH1 0x3 PUSH1 0x40 DUP5 KECCAK256 ADD SLOAD AND PUSH2 0x3F7B JUMP JUMPDEST SWAP1 POP DUP13 ADD MLOAD CODESIZE PUSH2 0x3ED9 JUMP JUMPDEST DUP3 DUP7 MSTORE DUP1 DUP7 KECCAK256 SWAP1 PUSH1 0x1F NOT DUP4 AND DUP8 JUMPDEST DUP2 DUP2 LT PUSH2 0x41C4 JUMPI POP SWAP5 PUSH1 0x20 SWAP5 PUSH1 0x1 DUP6 PUSH1 0x0 DUP1 MLOAD PUSH1 0x20 PUSH2 0x45CC DUP4 CODECOPY DUP2 MLOAD SWAP2 MSTORE SWAP6 PUSH2 0x3F52 SWAP6 PUSH1 0x4 SWAP12 SWAP9 PUSH2 0x3F66 SWAP12 LT PUSH2 0x41AB JUMPI JUMPDEST POP POP DUP2 SHL ADD SWAP1 SSTORE PUSH2 0x3EE2 JUMP JUMPDEST DUP14 ADD MLOAD PUSH1 0x0 NOT PUSH1 0xF8 DUP5 PUSH1 0x3 SHL AND SHR NOT AND SWAP1 SSTORE CODESIZE DUP1 PUSH2 0x419F JUMP JUMPDEST SWAP2 SWAP3 PUSH1 0x20 PUSH1 0x1 DUP2 SWAP3 DUP7 DUP14 ADD MLOAD DUP2 SSTORE ADD SWAP5 ADD SWAP3 ADD PUSH2 0x416E JUMP JUMPDEST PUSH2 0x4206 SWAP1 DUP4 DUP8 MSTORE PUSH1 0x20 DUP8 KECCAK256 PUSH1 0x1F DUP5 ADD PUSH1 0x5 SHR DUP2 ADD SWAP2 PUSH1 0x20 DUP6 LT PUSH2 0x2403 JUMPI PUSH1 0x1F ADD PUSH1 0x5 SHR ADD SWAP1 PUSH2 0x31F6 JUMP JUMPDEST CODESIZE PUSH2 0x3EA2 JUMP JUMPDEST PUSH4 0x4E487B71 PUSH1 0xE0 SHL DUP6 MSTORE PUSH1 0x41 PUSH1 0x4 MSTORE PUSH1 0x24 DUP6 REVERT JUMPDEST PUSH1 0x0 MSTORE PUSH1 0x8 PUSH1 0x20 MSTORE PUSH2 0x4238 PUSH1 0x1 PUSH1 0x40 PUSH1 0x0 KECCAK256 ADD PUSH2 0x3155 JUMP JUMPDEST DUP1 MLOAD ISZERO PUSH2 0x42C1 JUMPI PUSH1 0x5 SLOAD PUSH1 0x0 SWAP2 JUMPDEST DUP2 DUP4 LT PUSH2 0x4255 JUMPI POP POP POP PUSH1 0x1 SWAP1 JUMP JUMPDEST PUSH2 0x425E DUP4 PUSH2 0x2E15 JUMP JUMPDEST SWAP1 SLOAD PUSH1 0x3 SWAP2 SWAP1 SWAP2 SHL SHR PUSH1 0x1 PUSH1 0x1 PUSH1 0xA0 SHL SUB AND SWAP2 PUSH1 0x0 JUMPDEST DUP3 MLOAD DUP2 LT ISZERO PUSH2 0x42B4 JUMPI PUSH1 0xFF PUSH1 0x40 PUSH1 0x5 PUSH2 0x4290 PUSH2 0x594 DUP6 DUP9 PUSH2 0x311E JUMP JUMPDEST ADD PUSH1 0x0 SWAP1 DUP8 DUP3 MSTORE PUSH1 0x20 MSTORE KECCAK256 SLOAD AND ISZERO PUSH2 0x42AA JUMPI PUSH1 0x1 ADD PUSH2 0x4274 JUMP JUMPDEST POP POP POP POP POP PUSH1 0x0 SWAP1 JUMP JUMPDEST POP SWAP2 POP SWAP2 PUSH1 0x1 ADD SWAP2 PUSH2 0x4246 JUMP JUMPDEST POP PUSH1 0x0 SWAP1 JUMP JUMPDEST PUSH1 0x20 PUSH2 0x42E3 SWAP2 SWAP4 SWAP3 SWAP4 DUP2 PUSH1 0x40 MLOAD SWAP4 DUP3 DUP6 DUP1 SWAP5 MLOAD SWAP4 DUP5 SWAP3 ADD PUSH2 0x2C4E JUMP JUMPDEST DUP2 ADD PUSH1 0x6 DUP2 MSTORE SUB ADD SWAP1 KECCAK256 DUP1 SLOAD PUSH2 0x42F8 DUP2 PUSH2 0x2D23 JUMP JUMPDEST SWAP2 PUSH2 0x4306 PUSH1 0x40 MLOAD SWAP4 DUP5 PUSH2 0x2BC9 JUMP JUMPDEST DUP2 DUP4 MSTORE PUSH1 0x20 DUP4 ADD SWAP1 PUSH1 0x0 MSTORE PUSH1 0x20 PUSH1 0x0 KECCAK256 PUSH1 0x0 SWAP2 JUMPDEST DUP4 DUP4 LT PUSH2 0x43FB JUMPI POP POP POP POP DUP1 MLOAD ISZERO PUSH2 0x43F4 JUMPI PUSH1 0x0 SWAP1 DUP2 DUP3 JUMPDEST DUP3 MLOAD DUP2 LT ISZERO PUSH2 0x4399 JUMPI PUSH1 0x20 PUSH2 0x4347 DUP3 DUP6 PUSH2 0x311E JUMP JUMPDEST MLOAD ADD MLOAD PUSH1 0x20 DUP2 MLOAD SWAP2 ADD KECCAK256 DUP7 MLOAD PUSH1 0x20 DUP9 ADD KECCAK256 EQ PUSH2 0x4366 JUMPI JUMPDEST PUSH1 0x1 ADD PUSH2 0x4332 JUMP JUMPDEST SWAP1 PUSH2 0x4370 SWAP1 PUSH2 0x32E5 JUMP JUMPDEST SWAP1 PUSH1 0x40 PUSH2 0x437D DUP3 DUP6 PUSH2 0x311E JUMP JUMPDEST MLOAD ADD MLOAD ISZERO PUSH2 0x435E JUMPI SWAP3 PUSH2 0x4391 PUSH1 0x1 SWAP2 PUSH2 0x32E5 JUMP JUMPDEST SWAP4 SWAP1 POP PUSH2 0x435E JUMP JUMPDEST POP SWAP1 SWAP2 SWAP3 SWAP4 POP DUP1 ISZERO PUSH2 0x43EC JUMPI DUP3 EQ PUSH2 0x43B2 JUMPI POP POP PUSH1 0x0 SWAP1 JUMP JUMPDEST MLOAD PUSH1 0x64 DUP3 MUL SWAP2 DUP1 DUP4 DIV PUSH1 0x64 EQ SWAP1 ISZERO OR ISZERO PUSH2 0x313F JUMPI DUP1 ISZERO PUSH2 0x43D6 JUMPI PUSH1 0x1 SLOAD SWAP2 DIV LT ISZERO SWAP1 JUMP JUMPDEST PUSH4 0x4E487B71 PUSH1 0xE0 SHL PUSH1 0x0 MSTORE PUSH1 0x12 PUSH1 0x4 MSTORE PUSH1 0x24 PUSH1 0x0 REVERT JUMPDEST POP POP POP PUSH1 0x0 SWAP1 JUMP JUMPDEST POP PUSH1 0x0 SWAP2 POP JUMP JUMPDEST PUSH1 0x4 PUSH1 0x20 PUSH1 0x1 SWAP3 PUSH1 0x40 MLOAD PUSH2 0x440E DUP2 PUSH2 0x2B93 JUMP JUMPDEST DUP5 DUP1 PUSH1 0xA0 SHL SUB DUP7 SLOAD AND DUP2 MSTORE PUSH2 0x4424 DUP6 DUP8 ADD PUSH2 0x2E80 JUMP JUMPDEST DUP4 DUP3 ADD MSTORE PUSH1 0xFF PUSH1 0x2 DUP8 ADD SLOAD AND ISZERO ISZERO PUSH1 0x40 DUP3 ADD MSTORE PUSH1 0x3 DUP7 ADD SLOAD PUSH1 0x60 DUP3 ADD MSTORE DUP2 MSTORE ADD SWAP3 ADD SWAP3 ADD SWAP2 SWAP1 PUSH2 0x431A JUMP JUMPDEST PUSH1 0x60 SWAP1 PUSH1 0x40 MLOAD DUP2 MLOAD SWAP1 PUSH1 0x20 DUP2 DUP2 DUP6 ADD SWAP4 PUSH2 0x446A DUP2 DUP4 DUP8 PUSH2 0x2C4E JUMP JUMPDEST DUP2 ADD PUSH1 0x6 DUP2 MSTORE SUB ADD SWAP1 KECCAK256 DUP1 SLOAD SWAP1 PUSH2 0x4480 DUP3 PUSH2 0x2D23 JUMP JUMPDEST SWAP5 PUSH2 0x448E PUSH1 0x40 MLOAD SWAP7 DUP8 PUSH2 0x2BC9 JUMP JUMPDEST DUP3 DUP7 MSTORE PUSH1 0x20 DUP7 ADD SWAP2 PUSH1 0x0 MSTORE PUSH1 0x20 PUSH1 0x0 KECCAK256 SWAP1 PUSH1 0x0 SWAP3 JUMPDEST DUP5 DUP5 LT PUSH2 0x4578 JUMPI POP POP POP POP POP DUP3 MLOAD ISZERO PUSH2 0x456D JUMPI PUSH1 0x20 PUSH2 0x44D0 SWAP2 PUSH1 0x7 SWAP4 PUSH1 0x40 MLOAD SWAP4 DUP5 SWAP3 DUP4 SWAP3 MLOAD SWAP3 DUP4 SWAP2 PUSH2 0x2C4E JUMP JUMPDEST DUP2 ADD DUP5 DUP2 MSTORE SUB ADD SWAP1 KECCAK256 ADD PUSH1 0x20 SWAP3 PUSH1 0x40 MLOAD PUSH2 0x44EB PUSH1 0x20 DUP3 PUSH2 0x2BC9 JUMP JUMPDEST PUSH1 0x0 DUP2 MSTORE SWAP3 PUSH1 0x0 SWAP2 PUSH1 0x0 JUMPDEST DUP3 MLOAD DUP2 LT ISZERO PUSH2 0x4550 JUMPI PUSH1 0x40 PUSH2 0x450B DUP3 DUP6 PUSH2 0x311E JUMP JUMPDEST MLOAD ADD MLOAD PUSH2 0x451B JUMPI JUMPDEST PUSH1 0x1 ADD PUSH2 0x44F6 JUMP JUMPDEST DUP7 PUSH2 0x4526 DUP3 DUP6 PUSH2 0x311E JUMP JUMPDEST MLOAD ADD MLOAD PUSH2 0x4533 DUP7 DUP3 PUSH2 0x2F4A JUMP JUMPDEST SLOAD DUP6 DUP2 GT PUSH2 0x4543 JUMPI JUMPDEST POP POP PUSH2 0x4513 JUMP JUMPDEST SWAP1 SWAP7 POP SWAP4 POP PUSH1 0x1 CODESIZE PUSH2 0x453C JUMP JUMPDEST POP SWAP5 POP POP POP POP DUP1 MLOAD ISZERO ISZERO PUSH1 0x0 EQ PUSH2 0x4564 JUMPI SWAP1 JUMP JUMPDEST POP PUSH2 0x32E2 PUSH2 0x3C8C JUMP JUMPDEST POP POP POP PUSH2 0x32E2 PUSH2 0x3CB6 JUMP JUMPDEST PUSH1 0x4 PUSH1 0x20 PUSH1 0x1 SWAP3 PUSH1 0x40 MLOAD PUSH2 0x458B DUP2 PUSH2 0x2B93 JUMP JUMPDEST DUP5 DUP1 PUSH1 0xA0 SHL SUB DUP8 SLOAD AND DUP2 MSTORE PUSH2 0x45A1 DUP6 DUP9 ADD PUSH2 0x2E80 JUMP JUMPDEST DUP4 DUP3 ADD MSTORE PUSH1 0xFF PUSH1 0x2 DUP9 ADD SLOAD AND ISZERO ISZERO PUSH1 0x40 DUP3 ADD MSTORE PUSH1 0x3 DUP8 ADD SLOAD DUP7 DUP3 ADD MSTORE DUP2 MSTORE ADD SWAP4 ADD SWAP4 ADD SWAP3 SWAP2 PUSH2 0x44A3 JUMP INVALID 0xA8 0xE1 0x27 SWAP9 DUP9 0xC1 PUSH21 0xA6FBF4FD42A8BE4469B313BE30A5EDAC87AFF45C5F DUP11 GASLIMIT 0xD 0xEB 0x25 PUSH26 0xD0860B48F37C239A6DB657BAD6560C277BBCE0A8A989D7022740 PUSH32 0xC62E06A2646970667358221220422432F06C24F30B0E7AA4B3D134352015744E JUMP SHL AND 0xB9 0x23 TLOAD 0xA8 0x28 0xC0 PUSH25 0xE85BC064736F6C634300081C00330000000000000000000000 "},"methodIdentifiers":{"batches(uint256)":"b32c4d8d","checkAndFinalizeTimeout(string)":"367cb924","computeActiveBatch(string[],bool[],string[],uint256,uint256)":"ab40d3ba","computeBatchProgress(uint256,string[],bool[])":"a76fd84e","computeEligibleVoters(address[],string[],uint256[])":"cdbf3d01","consensusThreshold()":"f9b0b5b9","currentRound()":"8a19c8bc","endBatchVoting(uint256)":"b8c39034","getBatchSamples(uint256)":"68acb1ab","getBatchStatus(uint256)":"2d1bbc8e","getCurrentBatchProgress()":"8520eb78","getFinalLabel(string)":"428f8338","getSampleOriginalIndex(string)":"6787225b","getVoterList()":"b28d92ae","getVotes(string)":"805265e5","getVotingDistribution(string)":"b49c447e","getVotingResult(string)":"db7cde8b","getVotingSession(string)":"79c4ab15","getVotingSessionStatus(string)":"72678fcc","hasUserVoted(string,address)":"41497385","isTimeoutReached(string)":"26a0613a","isVotingActive(string)":"04574fe8","notifyMainContractExternal(string,string)":"5c97951e","project()":"f60ca60d","setVoters(address[],uint256[])":"75c255fc","startBatchVoting(string[],uint256,string[],uint256[])":"33f9625d","submitBatchVote(string[],string[],bool[])":"f02a0f75","submitBatchVoteOnBehalf(string[],string[],address)":"9a6e81ab","voterList(uint256)":"50e2e8af","voterWeights(address)":"414f8e76","votes(string,uint256)":"6042ad61","votingConsensus()":"55d389a4","votingSessions(string)":"f18a5cec","votingTimeoutSeconds()":"a58df19a","wasConsensusAchieved(string)":"e7016ca7"}}}}}