{"contracts/ALProjectStorage.sol":{"ALProjectStorage":{"abi":[{"inputs":[{"internalType":"address","name":"_project","type":"address"}],"stateMutability":"nonpayable","type":"constructor"},{"anonymous":false,"inputs":[{"indexed":false,"internalType":"string","name":"sampleId","type":"string"},{"indexed":false,"internalType":"string","name":"label","type":"string"},{"indexed":false,"internalType":"uint256","name":"round","type":"uint256"},{"indexed":false,"internalType":"uint256","name":"timestamp","type":"uint256"}],"name":"LabelFinalized","type":"event"},{"inputs":[{"internalType":"string","name":"","type":"string"}],"name":"finalLabels","outputs":[{"internalType":"string","name":"sampleId","type":"string"},{"internalType":"string","name":"label","type":"string"},{"internalType":"uint256","name":"round","type":"uint256"},{"internalType":"uint256","name":"timestamp","type":"uint256"}],"stateMutability":"view","type":"function"},{"inputs":[{"internalType":"string","name":"sampleId","type":"string"}],"name":"getFinalLabel","outputs":[{"internalType":"string","name":"label","type":"string"},{"internalType":"uint256","name":"round","type":"uint256"},{"internalType":"uint256","name":"timestamp","type":"uint256"}],"stateMutability":"view","type":"function"},{"inputs":[{"internalType":"string","name":"sampleId","type":"string"}],"name":"getLabel","outputs":[{"internalType":"string","name":"","type":"string"}],"stateMutability":"view","type":"function"},{"inputs":[{"internalType":"string","name":"sampleId","type":"string"}],"name":"hasFinalLabel","outputs":[{"internalType":"bool","name":"","type":"bool"}],"stateMutability":"view","type":"function"},{"inputs":[{"internalType":"string","name":"sampleId","type":"string"}],"name":"isValidSampleId","outputs":[{"internalType":"bool","name":"","type":"bool"}],"stateMutability":"pure","type":"function"},{"inputs":[],"name":"project","outputs":[{"internalType":"address","name":"","type":"address"}],"stateMutability":"view","type":"function"},{"inputs":[{"internalType":"string","name":"sampleId","type":"string"},{"internalType":"string","name":"label","type":"string"},{"internalType":"uint256","name":"round","type":"uint256"}],"name":"storeFinalLabel","outputs":[],"stateMutability":"nonpayable","type":"function"}],"evm":{"bytecode":{"linkReferences":{},"object":"60803460ba57601f6109f138819003918201601f19168301916001600160401b0383118484101760bf5780849260209460405283398101031260ba57516001600160a01b0381169081900360ba578015607557600080546001600160a01b03191691909117905560405161091b90816100d68239f35b60405162461bcd60e51b815260206004820152601760248201527f496e76616c69642070726f6a65637420616464726573730000000000000000006044820152606490fd5b600080fd5b634e487b7160e01b600052604160045260246000fdfe6080604052600436101561001257600080fd5b60003560e01c806308837df6146106825780630f7fcf40146106225780633ae94379146105af578063428f8338146105085780638bb7b700146104a2578063a6ea915b146100975763f60ca60d1461006957600080fd5b34610092576000366003190112610092576000546040516001600160a01b039091168152602090f35b600080fd5b34610092576060366003190112610092576004356001600160401b038111610092576100c7903690600401610714565b6024356001600160401b038111610092576100e6903690600401610714565b60005460443591906001600160a01b031633036104605782511561041f578051156103e25760405192610118846106d6565b808452602084019382855260408101848152606082019042825260405160208186516101478183858b0161076a565b60019082019081520301902092518051906001600160401b03821161030957819061017286546107b2565b601f811161038f575b50602090601f831160011461032a5760009261031f575b50508160011b916000199060031b1c19161783555b9551805190969060018401906001600160401b038111610309576101cb82546107b2565b601f81116102c1575b506020601f821160011461024357918160039492610233989796946000805160206108c68339815191529c600092610238575b50508160011b9160001990871b1c19161790555b51600284015551910155604051938493429285610890565b0390a1005b015190508c80610207565b601f1982169983600052816000209a60005b8181106102a95750926000805160206108c68339815191529b6102339998979593600193836003999710610291575b505050811b01905561021b565b015160001983891b60f8161c191690558c8080610284565b838301518d556001909c019b60209384019301610255565b826000526020600020601f830160051c810191602084106102ff575b601f0160051c01905b8181106102f357506101d4565b600081556001016102e6565b90915081906102dd565b634e487b7160e01b600052604160045260246000fd5b015190508980610192565b60008781528281209350601f198516905b818110610377575090846001959493921061035e575b505050811b0183556101a7565b015160001960f88460031b161c19169055898080610351565b9293602060018192878601518155019501930161033b565b909150856000526020600020601f840160051c810191602085106103d8575b90601f859493920160051c01905b8181106103c9575061017b565b600081558493506001016103bc565b90915081906103ae565b60405162461bcd60e51b81526020600482015260156024820152744c6162656c2063616e6e6f7420626520656d70747960581b6044820152606490fd5b60405162461bcd60e51b815260206004820152601960248201527853616d706c652049442063616e6e6f7420626520656d70747960381b6044820152606490fd5b60405162461bcd60e51b815260206004820152601a60248201527913db9b1e481b585a5b881c1c9bda9958dd0818d85b8818d85b1b60321b6044820152606490fd5b34610092576020366003190112610092576004356001600160401b038111610092576104fe6104ee60206104db81943690600401610714565b816040519382858094519384920161076a565b81016001815203019020546107b2565b1515604051908152f35b34610092576020366003190112610092576004356001600160401b0381116100925761054060206104db6105a0933690600401610714565b8101600181520301902060405190610557826106d6565b610560816107ec565b82526060610570600183016107ec565b9283602082015260036002840154938460408401520154918291015260405193849360608552606085019061078d565b91602084015260408301520390f35b34610092576020366003190112610092576004356001600160401b0381116100925760206104db6105e4923690600401610714565b810160018152030190206105f7816107ec565b61061e610606600184016107ec565b92600360028201549101549060405194859485610890565b0390f35b34610092576020366003190112610092576004356001600160401b0381116100925761066e600161065f60206104db61061e953690600401610714565b810184815203019020016107ec565b60405191829160208352602083019061078d565b34610092576020366003190112610092576004356001600160401b038111610092576106b46020913690600401610714565b5180151590816106ca575b506040519015158152f35b604091501115826106bf565b608081019081106001600160401b0382111761030957604052565b601f909101601f19168101906001600160401b0382119082101761030957604052565b81601f82011215610092578035906001600160401b0382116103095760405192610748601f8401601f1916602001856106f1565b8284526020838301011161009257816000926020809301838601378301015290565b60005b83811061077d5750506000910152565b818101518382015260200161076d565b906020916107a68151809281855285808601910161076a565b601f01601f1916010190565b90600182811c921680156107e2575b60208310146107cc57565b634e487b7160e01b600052602260045260246000fd5b91607f16916107c1565b9060405191826000825492610800846107b2565b808452936001811690811561086e5750600114610827575b50610825925003836106f1565b565b90506000929192526020600020906000915b8183106108525750509060206108259282010138610818565b6020919350806001915483858901015201910190918492610839565b90506020925061082594915060ff191682840152151560051b82010138610818565b906060926108ad6108bb929796959760808552608085019061078d565b90838203602085015261078d565b946040820152015256fe05d9bd516b3006f59566e0f16512deba749ab72f8386653d11b06758dd395be0a264697066735822122065d4f7cf83520b13ab682548a61cb6a859265a95339dfe3381f84fae8c2998f164736f6c634300081c0033","opcodes":"PUSH1 0x80 CALLVALUE PUSH1 0xBA JUMPI PUSH1 0x1F PUSH2 0x9F1 CODESIZE DUP2 SWAP1 SUB SWAP2 DUP3 ADD PUSH1 0x1F NOT AND DUP4 ADD SWAP2 PUSH1 0x1 PUSH1 0x1 PUSH1 0x40 SHL SUB DUP4 GT DUP5 DUP5 LT OR PUSH1 0xBF JUMPI DUP1 DUP5 SWAP3 PUSH1 0x20 SWAP5 PUSH1 0x40 MSTORE DUP4 CODECOPY DUP2 ADD SUB SLT PUSH1 0xBA JUMPI MLOAD PUSH1 0x1 PUSH1 0x1 PUSH1 0xA0 SHL SUB DUP2 AND SWAP1 DUP2 SWAP1 SUB PUSH1 0xBA JUMPI DUP1 ISZERO PUSH1 0x75 JUMPI PUSH1 0x0 DUP1 SLOAD PUSH1 0x1 PUSH1 0x1 PUSH1 0xA0 SHL SUB NOT AND SWAP2 SWAP1 SWAP2 OR SWAP1 SSTORE PUSH1 0x40 MLOAD PUSH2 0x91B SWAP1 DUP2 PUSH2 0xD6 DUP3 CODECOPY RETURN JUMPDEST PUSH1 0x40 MLOAD PUSH3 0x461BCD PUSH1 0xE5 SHL DUP2 MSTORE PUSH1 0x20 PUSH1 0x4 DUP3 ADD MSTORE PUSH1 0x17 PUSH1 0x24 DUP3 ADD MSTORE PUSH32 0x496E76616C69642070726F6A6563742061646472657373000000000000000000 PUSH1 0x44 DUP3 ADD MSTORE PUSH1 0x64 SWAP1 REVERT JUMPDEST PUSH1 0x0 DUP1 REVERT JUMPDEST PUSH4 0x4E487B71 PUSH1 0xE0 SHL PUSH1 0x0 MSTORE PUSH1 0x41 PUSH1 0x4 MSTORE PUSH1 0x24 PUSH1 0x0 REVERT INVALID PUSH1 0x80 PUSH1 0x40 MSTORE PUSH1 0x4 CALLDATASIZE LT ISZERO PUSH2 0x12 JUMPI PUSH1 0x0 DUP1 REVERT JUMPDEST PUSH1 0x0 CALLDATALOAD PUSH1 0xE0 SHR DUP1 PUSH4 0x8837DF6 EQ PUSH2 0x682 JUMPI DUP1 PUSH4 0xF7FCF40 EQ PUSH2 0x622 JUMPI DUP1 PUSH4 0x3AE94379 EQ PUSH2 0x5AF JUMPI DUP1 PUSH4 0x428F8338 EQ PUSH2 0x508 JUMPI DUP1 PUSH4 0x8BB7B700 EQ PUSH2 0x4A2 JUMPI DUP1 PUSH4 0xA6EA915B EQ PUSH2 0x97 JUMPI PUSH4 0xF60CA60D EQ PUSH2 0x69 JUMPI PUSH1 0x0 DUP1 REVERT JUMPDEST CALLVALUE PUSH2 0x92 JUMPI PUSH1 0x0 CALLDATASIZE PUSH1 0x3 NOT ADD SLT PUSH2 0x92 JUMPI PUSH1 0x0 SLOAD PUSH1 0x40 MLOAD PUSH1 0x1 PUSH1 0x1 PUSH1 0xA0 SHL SUB SWAP1 SWAP2 AND DUP2 MSTORE PUSH1 0x20 SWAP1 RETURN JUMPDEST PUSH1 0x0 DUP1 REVERT JUMPDEST CALLVALUE PUSH2 0x92 JUMPI PUSH1 0x60 CALLDATASIZE PUSH1 0x3 NOT ADD SLT PUSH2 0x92 JUMPI PUSH1 0x4 CALLDATALOAD PUSH1 0x1 PUSH1 0x1 PUSH1 0x40 SHL SUB DUP2 GT PUSH2 0x92 JUMPI PUSH2 0xC7 SWAP1 CALLDATASIZE SWAP1 PUSH1 0x4 ADD PUSH2 0x714 JUMP JUMPDEST PUSH1 0x24 CALLDATALOAD PUSH1 0x1 PUSH1 0x1 PUSH1 0x40 SHL SUB DUP2 GT PUSH2 0x92 JUMPI PUSH2 0xE6 SWAP1 CALLDATASIZE SWAP1 PUSH1 0x4 ADD PUSH2 0x714 JUMP JUMPDEST PUSH1 0x0 SLOAD PUSH1 0x44 CALLDATALOAD SWAP2 SWAP1 PUSH1 0x1 PUSH1 0x1 PUSH1 0xA0 SHL SUB AND CALLER SUB PUSH2 0x460 JUMPI DUP3 MLOAD ISZERO PUSH2 0x41F JUMPI DUP1 MLOAD ISZERO PUSH2 0x3E2 JUMPI PUSH1 0x40 MLOAD SWAP3 PUSH2 0x118 DUP5 PUSH2 0x6D6 JUMP JUMPDEST DUP1 DUP5 MSTORE PUSH1 0x20 DUP5 ADD SWAP4 DUP3 DUP6 MSTORE PUSH1 0x40 DUP2 ADD DUP5 DUP2 MSTORE PUSH1 0x60 DUP3 ADD SWAP1 TIMESTAMP DUP3 MSTORE PUSH1 0x40 MLOAD PUSH1 0x20 DUP2 DUP7 MLOAD PUSH2 0x147 DUP2 DUP4 DUP6 DUP12 ADD PUSH2 0x76A JUMP JUMPDEST PUSH1 0x1 SWAP1 DUP3 ADD SWAP1 DUP2 MSTORE SUB ADD SWAP1 KECCAK256 SWAP3 MLOAD DUP1 MLOAD SWAP1 PUSH1 0x1 PUSH1 0x1 PUSH1 0x40 SHL SUB DUP3 GT PUSH2 0x309 JUMPI DUP2 SWAP1 PUSH2 0x172 DUP7 SLOAD PUSH2 0x7B2 JUMP JUMPDEST PUSH1 0x1F DUP2 GT PUSH2 0x38F JUMPI JUMPDEST POP PUSH1 0x20 SWAP1 PUSH1 0x1F DUP4 GT PUSH1 0x1 EQ PUSH2 0x32A JUMPI PUSH1 0x0 SWAP3 PUSH2 0x31F JUMPI JUMPDEST POP POP DUP2 PUSH1 0x1 SHL SWAP2 PUSH1 0x0 NOT SWAP1 PUSH1 0x3 SHL SHR NOT AND OR DUP4 SSTORE JUMPDEST SWAP6 MLOAD DUP1 MLOAD SWAP1 SWAP7 SWAP1 PUSH1 0x1 DUP5 ADD SWAP1 PUSH1 0x1 PUSH1 0x1 PUSH1 0x40 SHL SUB DUP2 GT PUSH2 0x309 JUMPI PUSH2 0x1CB DUP3 SLOAD PUSH2 0x7B2 JUMP JUMPDEST PUSH1 0x1F DUP2 GT PUSH2 0x2C1 JUMPI JUMPDEST POP PUSH1 0x20 PUSH1 0x1F DUP3 GT PUSH1 0x1 EQ PUSH2 0x243 JUMPI SWAP2 DUP2 PUSH1 0x3 SWAP5 SWAP3 PUSH2 0x233 SWAP9 SWAP8 SWAP7 SWAP5 PUSH1 0x0 DUP1 MLOAD PUSH1 0x20 PUSH2 0x8C6 DUP4 CODECOPY DUP2 MLOAD SWAP2 MSTORE SWAP13 PUSH1 0x0 SWAP3 PUSH2 0x238 JUMPI JUMPDEST POP POP DUP2 PUSH1 0x1 SHL SWAP2 PUSH1 0x0 NOT SWAP1 DUP8 SHL SHR NOT AND OR SWAP1 SSTORE JUMPDEST MLOAD PUSH1 0x2 DUP5 ADD SSTORE MLOAD SWAP2 ADD SSTORE PUSH1 0x40 MLOAD SWAP4 DUP5 SWAP4 TIMESTAMP SWAP3 DUP6 PUSH2 0x890 JUMP JUMPDEST SUB SWAP1 LOG1 STOP JUMPDEST ADD MLOAD SWAP1 POP DUP13 DUP1 PUSH2 0x207 JUMP JUMPDEST PUSH1 0x1F NOT DUP3 AND SWAP10 DUP4 PUSH1 0x0 MSTORE DUP2 PUSH1 0x0 KECCAK256 SWAP11 PUSH1 0x0 JUMPDEST DUP2 DUP2 LT PUSH2 0x2A9 JUMPI POP SWAP3 PUSH1 0x0 DUP1 MLOAD PUSH1 0x20 PUSH2 0x8C6 DUP4 CODECOPY DUP2 MLOAD SWAP2 MSTORE SWAP12 PUSH2 0x233 SWAP10 SWAP9 SWAP8 SWAP6 SWAP4 PUSH1 0x1 SWAP4 DUP4 PUSH1 0x3 SWAP10 SWAP8 LT PUSH2 0x291 JUMPI JUMPDEST POP POP POP DUP2 SHL ADD SWAP1 SSTORE PUSH2 0x21B JUMP JUMPDEST ADD MLOAD PUSH1 0x0 NOT DUP4 DUP10 SHL PUSH1 0xF8 AND SHR NOT AND SWAP1 SSTORE DUP13 DUP1 DUP1 PUSH2 0x284 JUMP JUMPDEST DUP4 DUP4 ADD MLOAD DUP14 SSTORE PUSH1 0x1 SWAP1 SWAP13 ADD SWAP12 PUSH1 0x20 SWAP4 DUP5 ADD SWAP4 ADD PUSH2 0x255 JUMP JUMPDEST DUP3 PUSH1 0x0 MSTORE PUSH1 0x20 PUSH1 0x0 KECCAK256 PUSH1 0x1F DUP4 ADD PUSH1 0x5 SHR DUP2 ADD SWAP2 PUSH1 0x20 DUP5 LT PUSH2 0x2FF JUMPI JUMPDEST PUSH1 0x1F ADD PUSH1 0x5 SHR ADD SWAP1 JUMPDEST DUP2 DUP2 LT PUSH2 0x2F3 JUMPI POP PUSH2 0x1D4 JUMP JUMPDEST PUSH1 0x0 DUP2 SSTORE PUSH1 0x1 ADD PUSH2 0x2E6 JUMP JUMPDEST SWAP1 SWAP2 POP DUP2 SWAP1 PUSH2 0x2DD JUMP JUMPDEST PUSH4 0x4E487B71 PUSH1 0xE0 SHL PUSH1 0x0 MSTORE PUSH1 0x41 PUSH1 0x4 MSTORE PUSH1 0x24 PUSH1 0x0 REVERT JUMPDEST ADD MLOAD SWAP1 POP DUP10 DUP1 PUSH2 0x192 JUMP JUMPDEST PUSH1 0x0 DUP8 DUP2 MSTORE DUP3 DUP2 KECCAK256 SWAP4 POP PUSH1 0x1F NOT DUP6 AND SWAP1 JUMPDEST DUP2 DUP2 LT PUSH2 0x377 JUMPI POP SWAP1 DUP5 PUSH1 0x1 SWAP6 SWAP5 SWAP4 SWAP3 LT PUSH2 0x35E JUMPI JUMPDEST POP POP POP DUP2 SHL ADD DUP4 SSTORE PUSH2 0x1A7 JUMP JUMPDEST ADD MLOAD PUSH1 0x0 NOT PUSH1 0xF8 DUP5 PUSH1 0x3 SHL AND SHR NOT AND SWAP1 SSTORE DUP10 DUP1 DUP1 PUSH2 0x351 JUMP JUMPDEST SWAP3 SWAP4 PUSH1 0x20 PUSH1 0x1 DUP2 SWAP3 DUP8 DUP7 ADD MLOAD DUP2 SSTORE ADD SWAP6 ADD SWAP4 ADD PUSH2 0x33B JUMP JUMPDEST SWAP1 SWAP2 POP DUP6 PUSH1 0x0 MSTORE PUSH1 0x20 PUSH1 0x0 KECCAK256 PUSH1 0x1F DUP5 ADD PUSH1 0x5 SHR DUP2 ADD SWAP2 PUSH1 0x20 DUP6 LT PUSH2 0x3D8 JUMPI JUMPDEST SWAP1 PUSH1 0x1F DUP6 SWAP5 SWAP4 SWAP3 ADD PUSH1 0x5 SHR ADD SWAP1 JUMPDEST DUP2 DUP2 LT PUSH2 0x3C9 JUMPI POP PUSH2 0x17B JUMP JUMPDEST PUSH1 0x0 DUP2 SSTORE DUP5 SWAP4 POP PUSH1 0x1 ADD PUSH2 0x3BC JUMP JUMPDEST SWAP1 SWAP2 POP DUP2 SWAP1 PUSH2 0x3AE JUMP JUMPDEST PUSH1 0x40 MLOAD PUSH3 0x461BCD PUSH1 0xE5 SHL DUP2 MSTORE PUSH1 0x20 PUSH1 0x4 DUP3 ADD MSTORE PUSH1 0x15 PUSH1 0x24 DUP3 ADD MSTORE PUSH21 0x4C6162656C2063616E6E6F7420626520656D707479 PUSH1 0x58 SHL PUSH1 0x44 DUP3 ADD MSTORE PUSH1 0x64 SWAP1 REVERT JUMPDEST PUSH1 0x40 MLOAD PUSH3 0x461BCD PUSH1 0xE5 SHL DUP2 MSTORE PUSH1 0x20 PUSH1 0x4 DUP3 ADD MSTORE PUSH1 0x19 PUSH1 0x24 DUP3 ADD MSTORE PUSH25 0x53616D706C652049442063616E6E6F7420626520656D707479 PUSH1 0x38 SHL PUSH1 0x44 DUP3 ADD MSTORE PUSH1 0x64 SWAP1 REVERT JUMPDEST PUSH1 0x40 MLOAD PUSH3 0x461BCD PUSH1 0xE5 SHL DUP2 MSTORE PUSH1 0x20 PUSH1 0x4 DUP3 ADD MSTORE PUSH1 0x1A PUSH1 0x24 DUP3 ADD MSTORE PUSH26 0x13DB9B1E481B585A5B881C1C9BDA9958DD0818D85B8818D85B1B PUSH1 0x32 SHL PUSH1 0x44 DUP3 ADD MSTORE PUSH1 0x64 SWAP1 REVERT JUMPDEST CALLVALUE PUSH2 0x92 JUMPI PUSH1 0x20 CALLDATASIZE PUSH1 0x3 NOT ADD SLT PUSH2 0x92 JUMPI PUSH1 0x4 CALLDATALOAD PUSH1 0x1 PUSH1 0x1 PUSH1 0x40 SHL SUB DUP2 GT PUSH2 0x92 JUMPI PUSH2 0x4FE PUSH2 0x4EE PUSH1 0x20 PUSH2 0x4DB DUP2 SWAP5 CALLDATASIZE SWAP1 PUSH1 0x4 ADD PUSH2 0x714 JUMP JUMPDEST DUP2 PUSH1 0x40 MLOAD SWAP4 DUP3 DUP6 DUP1 SWAP5 MLOAD SWAP4 DUP5 SWAP3 ADD PUSH2 0x76A JUMP JUMPDEST DUP2 ADD PUSH1 0x1 DUP2 MSTORE SUB ADD SWAP1 KECCAK256 SLOAD PUSH2 0x7B2 JUMP JUMPDEST ISZERO ISZERO PUSH1 0x40 MLOAD SWAP1 DUP2 MSTORE RETURN JUMPDEST CALLVALUE PUSH2 0x92 JUMPI PUSH1 0x20 CALLDATASIZE PUSH1 0x3 NOT ADD SLT PUSH2 0x92 JUMPI PUSH1 0x4 CALLDATALOAD PUSH1 0x1 PUSH1 0x1 PUSH1 0x40 SHL SUB DUP2 GT PUSH2 0x92 JUMPI PUSH2 0x540 PUSH1 0x20 PUSH2 0x4DB PUSH2 0x5A0 SWAP4 CALLDATASIZE SWAP1 PUSH1 0x4 ADD PUSH2 0x714 JUMP JUMPDEST DUP2 ADD PUSH1 0x1 DUP2 MSTORE SUB ADD SWAP1 KECCAK256 PUSH1 0x40 MLOAD SWAP1 PUSH2 0x557 DUP3 PUSH2 0x6D6 JUMP JUMPDEST PUSH2 0x560 DUP2 PUSH2 0x7EC JUMP JUMPDEST DUP3 MSTORE PUSH1 0x60 PUSH2 0x570 PUSH1 0x1 DUP4 ADD PUSH2 0x7EC JUMP JUMPDEST SWAP3 DUP4 PUSH1 0x20 DUP3 ADD MSTORE PUSH1 0x3 PUSH1 0x2 DUP5 ADD SLOAD SWAP4 DUP5 PUSH1 0x40 DUP5 ADD MSTORE ADD SLOAD SWAP2 DUP3 SWAP2 ADD MSTORE PUSH1 0x40 MLOAD SWAP4 DUP5 SWAP4 PUSH1 0x60 DUP6 MSTORE PUSH1 0x60 DUP6 ADD SWAP1 PUSH2 0x78D JUMP JUMPDEST SWAP2 PUSH1 0x20 DUP5 ADD MSTORE PUSH1 0x40 DUP4 ADD MSTORE SUB SWAP1 RETURN JUMPDEST CALLVALUE PUSH2 0x92 JUMPI PUSH1 0x20 CALLDATASIZE PUSH1 0x3 NOT ADD SLT PUSH2 0x92 JUMPI PUSH1 0x4 CALLDATALOAD PUSH1 0x1 PUSH1 0x1 PUSH1 0x40 SHL SUB DUP2 GT PUSH2 0x92 JUMPI PUSH1 0x20 PUSH2 0x4DB PUSH2 0x5E4 SWAP3 CALLDATASIZE SWAP1 PUSH1 0x4 ADD PUSH2 0x714 JUMP JUMPDEST DUP2 ADD PUSH1 0x1 DUP2 MSTORE SUB ADD SWAP1 KECCAK256 PUSH2 0x5F7 DUP2 PUSH2 0x7EC JUMP JUMPDEST PUSH2 0x61E PUSH2 0x606 PUSH1 0x1 DUP5 ADD PUSH2 0x7EC JUMP JUMPDEST SWAP3 PUSH1 0x3 PUSH1 0x2 DUP3 ADD SLOAD SWAP2 ADD SLOAD SWAP1 PUSH1 0x40 MLOAD SWAP5 DUP6 SWAP5 DUP6 PUSH2 0x890 JUMP JUMPDEST SUB SWAP1 RETURN JUMPDEST CALLVALUE PUSH2 0x92 JUMPI PUSH1 0x20 CALLDATASIZE PUSH1 0x3 NOT ADD SLT PUSH2 0x92 JUMPI PUSH1 0x4 CALLDATALOAD PUSH1 0x1 PUSH1 0x1 PUSH1 0x40 SHL SUB DUP2 GT PUSH2 0x92 JUMPI PUSH2 0x66E PUSH1 0x1 PUSH2 0x65F PUSH1 0x20 PUSH2 0x4DB PUSH2 0x61E SWAP6 CALLDATASIZE SWAP1 PUSH1 0x4 ADD PUSH2 0x714 JUMP JUMPDEST DUP2 ADD DUP5 DUP2 MSTORE SUB ADD SWAP1 KECCAK256 ADD PUSH2 0x7EC JUMP JUMPDEST PUSH1 0x40 MLOAD SWAP2 DUP3 SWAP2 PUSH1 0x20 DUP4 MSTORE PUSH1 0x20 DUP4 ADD SWAP1 PUSH2 0x78D JUMP JUMPDEST CALLVALUE PUSH2 0x92 JUMPI PUSH1 0x20 CALLDATASIZE PUSH1 0x3 NOT ADD SLT PUSH2 0x92 JUMPI PUSH1 0x4 CALLDATALOAD PUSH1 0x1 PUSH1 0x1 PUSH1 0x40 SHL SUB DUP2 GT PUSH2 0x92 JUMPI PUSH2 0x6B4 PUSH1 0x20 SWAP2 CALLDATASIZE SWAP1 PUSH1 0x4 ADD PUSH2 0x714 JUMP JUMPDEST MLOAD DUP1 ISZERO ISZERO SWAP1 DUP2 PUSH2 0x6CA JUMPI JUMPDEST POP PUSH1 0x40 MLOAD SWAP1 ISZERO ISZERO DUP2 MSTORE RETURN JUMPDEST PUSH1 0x40 SWAP2 POP GT ISZERO DUP3 PUSH2 0x6BF JUMP JUMPDEST PUSH1 0x80 DUP2 ADD SWAP1 DUP2 LT PUSH1 0x1 PUSH1 0x1 PUSH1 0x40 SHL SUB DUP3 GT OR PUSH2 0x309 JUMPI PUSH1 0x40 MSTORE JUMP JUMPDEST PUSH1 0x1F SWAP1 SWAP2 ADD PUSH1 0x1F NOT AND DUP2 ADD SWAP1 PUSH1 0x1 PUSH1 0x1 PUSH1 0x40 SHL SUB DUP3 GT SWAP1 DUP3 LT OR PUSH2 0x309 JUMPI PUSH1 0x40 MSTORE JUMP JUMPDEST DUP2 PUSH1 0x1F DUP3 ADD SLT ISZERO PUSH2 0x92 JUMPI DUP1 CALLDATALOAD SWAP1 PUSH1 0x1 PUSH1 0x1 PUSH1 0x40 SHL SUB DUP3 GT PUSH2 0x309 JUMPI PUSH1 0x40 MLOAD SWAP3 PUSH2 0x748 PUSH1 0x1F DUP5 ADD PUSH1 0x1F NOT AND PUSH1 0x20 ADD DUP6 PUSH2 0x6F1 JUMP JUMPDEST DUP3 DUP5 MSTORE PUSH1 0x20 DUP4 DUP4 ADD ADD GT PUSH2 0x92 JUMPI DUP2 PUSH1 0x0 SWAP3 PUSH1 0x20 DUP1 SWAP4 ADD DUP4 DUP7 ADD CALLDATACOPY DUP4 ADD ADD MSTORE SWAP1 JUMP JUMPDEST PUSH1 0x0 JUMPDEST DUP4 DUP2 LT PUSH2 0x77D JUMPI POP POP PUSH1 0x0 SWAP2 ADD MSTORE JUMP JUMPDEST DUP2 DUP2 ADD MLOAD DUP4 DUP3 ADD MSTORE PUSH1 0x20 ADD PUSH2 0x76D JUMP JUMPDEST SWAP1 PUSH1 0x20 SWAP2 PUSH2 0x7A6 DUP2 MLOAD DUP1 SWAP3 DUP2 DUP6 MSTORE DUP6 DUP1 DUP7 ADD SWAP2 ADD PUSH2 0x76A JUMP JUMPDEST PUSH1 0x1F ADD PUSH1 0x1F NOT AND ADD ADD SWAP1 JUMP JUMPDEST SWAP1 PUSH1 0x1 DUP3 DUP2 SHR SWAP3 AND DUP1 ISZERO PUSH2 0x7E2 JUMPI JUMPDEST PUSH1 0x20 DUP4 LT EQ PUSH2 0x7CC JUMPI JUMP JUMPDEST PUSH4 0x4E487B71 PUSH1 0xE0 SHL PUSH1 0x0 MSTORE PUSH1 0x22 PUSH1 0x4 MSTORE PUSH1 0x24 PUSH1 0x0 REVERT JUMPDEST SWAP2 PUSH1 0x7F AND SWAP2 PUSH2 0x7C1 JUMP JUMPDEST SWAP1 PUSH1 0x40 MLOAD SWAP2 DUP3 PUSH1 0x0 DUP3 SLOAD SWAP3 PUSH2 0x800 DUP5 PUSH2 0x7B2 JUMP JUMPDEST DUP1 DUP5 MSTORE SWAP4 PUSH1 0x1 DUP2 AND SWAP1 DUP2 ISZERO PUSH2 0x86E JUMPI POP PUSH1 0x1 EQ PUSH2 0x827 JUMPI JUMPDEST POP PUSH2 0x825 SWAP3 POP SUB DUP4 PUSH2 0x6F1 JUMP JUMPDEST JUMP JUMPDEST SWAP1 POP PUSH1 0x0 SWAP3 SWAP2 SWAP3 MSTORE PUSH1 0x20 PUSH1 0x0 KECCAK256 SWAP1 PUSH1 0x0 SWAP2 JUMPDEST DUP2 DUP4 LT PUSH2 0x852 JUMPI POP POP SWAP1 PUSH1 0x20 PUSH2 0x825 SWAP3 DUP3 ADD ADD CODESIZE PUSH2 0x818 JUMP JUMPDEST PUSH1 0x20 SWAP2 SWAP4 POP DUP1 PUSH1 0x1 SWAP2 SLOAD DUP4 DUP6 DUP10 ADD ADD MSTORE ADD SWAP2 ADD SWAP1 SWAP2 DUP5 SWAP3 PUSH2 0x839 JUMP JUMPDEST SWAP1 POP PUSH1 0x20 SWAP3 POP PUSH2 0x825 SWAP5 SWAP2 POP PUSH1 0xFF NOT AND DUP3 DUP5 ADD MSTORE ISZERO ISZERO PUSH1 0x5 SHL DUP3 ADD ADD CODESIZE PUSH2 0x818 JUMP JUMPDEST SWAP1 PUSH1 0x60 SWAP3 PUSH2 0x8AD PUSH2 0x8BB SWAP3 SWAP8 SWAP7 SWAP6 SWAP8 PUSH1 0x80 DUP6 MSTORE PUSH1 0x80 DUP6 ADD SWAP1 PUSH2 0x78D JUMP JUMPDEST SWAP1 DUP4 DUP3 SUB PUSH1 0x20 DUP6 ADD MSTORE PUSH2 0x78D JUMP JUMPDEST SWAP5 PUSH1 0x40 DUP3 ADD MSTORE ADD MSTORE JUMP INVALID SDIV 0xD9 0xBD MLOAD PUSH12 0x3006F59566E0F16512DEBA74 SWAP11 0xB7 0x2F DUP4 DUP7 PUSH6 0x3D11B06758DD CODECOPY JUMPDEST 0xE0 LOG2 PUSH5 0x6970667358 0x22 SLT KECCAK256 PUSH6 0xD4F7CF83520B SGT 0xAB PUSH9 0x2548A61CB6A859265A SWAP6 CALLER SWAP14 INVALID CALLER DUP2 0xF8 0x4F 0xAE DUP13 0x29 SWAP9 CALL PUSH5 0x736F6C6343 STOP ADDMOD SHR STOP CALLER "},"methodIdentifiers":{"finalLabels(string)":"3ae94379","getFinalLabel(string)":"428f8338","getLabel(string)":"0f7fcf40","hasFinalLabel(string)":"8bb7b700","isValidSampleId(string)":"08837df6","project()":"f60ca60d","storeFinalLabel(string,string,uint256)":"a6ea915b"}}}}}