{"contracts/ALProjectVoting.sol":{"ALProjectVoting":{"abi":[{"inputs":[{"internalType":"address","name":"_project","type":"address"},{"internalType":"string","name":"_votingConsensus","type":"string"},{"internalType":"uint256","name":"_votingTimeoutSeconds","type":"uint256"}],"stateMutability":"nonpayable","type":"constructor"},{"anonymous":false,"inputs":[{"indexed":false,"internalType":"uint256","name":"round","type":"uint256"},{"indexed":false,"internalType":"uint256","name":"completedSamples","type":"uint256"},{"indexed":false,"internalType":"uint256","name":"timestamp","type":"uint256"}],"name":"BatchCompleted","type":"event"},{"anonymous":false,"inputs":[{"indexed":false,"internalType":"uint256","name":"round","type":"uint256"},{"indexed":false,"internalType":"string","name":"sampleId","type":"string"},{"indexed":false,"internalType":"string","name":"finalLabel","type":"string"},{"indexed":false,"internalType":"uint256","name":"remainingSamples","type":"uint256"}],"name":"BatchSampleCompleted","type":"event"},{"anonymous":false,"inputs":[{"indexed":false,"internalType":"uint256","name":"round","type":"uint256"},{"indexed":false,"internalType":"string[]","name":"sampleIds","type":"string[]"},{"indexed":false,"internalType":"uint256","name":"startTime","type":"uint256"}],"name":"BatchStarted","type":"event"},{"anonymous":false,"inputs":[{"indexed":false,"internalType":"string","name":"sampleId","type":"string"},{"indexed":false,"internalType":"string","name":"label","type":"string"}],"name":"ConsensusReached","type":"event"},{"anonymous":false,"inputs":[{"indexed":false,"internalType":"string","name":"sampleId","type":"string"},{"indexed":false,"internalType":"string","name":"finalLabel","type":"string"},{"indexed":false,"internalType":"uint256","name":"timestamp","type":"uint256"}],"name":"LabelStoredInProject","type":"event"},{"anonymous":false,"inputs":[{"indexed":false,"internalType":"string","name":"sampleId","type":"string"},{"indexed":false,"internalType":"uint256","name":"endTime","type":"uint256"}],"name":"TimeoutReached","type":"event"},{"anonymous":false,"inputs":[{"indexed":false,"internalType":"string","name":"sampleId","type":"string"},{"indexed":true,"internalType":"address","name":"voter","type":"address"},{"indexed":false,"internalType":"string","name":"label","type":"string"},{"indexed":false,"internalType":"bool","name":"support","type":"bool"},{"indexed":false,"internalType":"uint256","name":"timestamp","type":"uint256"}],"name":"VoteSubmitted","type":"event"},{"anonymous":false,"inputs":[{"indexed":false,"internalType":"string","name":"sampleId","type":"string"},{"indexed":false,"internalType":"uint256","name":"endTime","type":"uint256"}],"name":"VotingSessionEnded","type":"event"},{"anonymous":false,"inputs":[{"indexed":false,"internalType":"string","name":"sampleId","type":"string"},{"indexed":false,"internalType":"string","name":"finalLabel","type":"string"},{"indexed":false,"internalType":"uint256","name":"endTime","type":"uint256"},{"indexed":false,"internalType":"string","name":"reason","type":"string"}],"name":"VotingSessionFinalized","type":"event"},{"anonymous":false,"inputs":[{"indexed":false,"internalType":"string","name":"sampleId","type":"string"},{"indexed":false,"internalType":"uint256","name":"startTime","type":"uint256"}],"name":"VotingSessionStarted","type":"event"},{"inputs":[{"internalType":"uint256","name":"","type":"uint256"}],"name":"batches","outputs":[{"internalType":"uint256","name":"round","type":"uint256"},{"internalType":"uint256","name":"completedCount","type":"uint256"},{"internalType":"bool","name":"isActive","type":"bool"},{"internalType":"uint256","name":"startTime","type":"uint256"}],"stateMutability":"view","type":"function"},{"inputs":[{"internalType":"string","name":"sampleId","type":"string"}],"name":"checkAndFinalizeTimeout","outputs":[],"stateMutability":"nonpayable","type":"function"},{"inputs":[{"internalType":"string[]","name":"allSampleIds","type":"string[]"},{"internalType":"bool[]","name":"sampleActiveStates","type":"bool[]"},{"internalType":"string[]","name":"labelSpace","type":"string[]"},{"internalType":"uint256","name":"votingTimeout","type":"uint256"},{"internalType":"uint256","name":"_currentRound","type":"uint256"}],"name":"computeActiveBatch","outputs":[{"internalType":"string[]","name":"activeSampleIds","type":"string[]"},{"internalType":"string[]","name":"sampleData","type":"string[]"},{"internalType":"string[]","name":"labelOptions","type":"string[]"},{"internalType":"uint256","name":"timeRemaining","type":"uint256"},{"internalType":"uint256","name":"round","type":"uint256"}],"stateMutability":"view","type":"function"},{"inputs":[{"internalType":"uint256","name":"round","type":"uint256"},{"internalType":"string[]","name":"sampleIds","type":"string[]"},{"internalType":"bool[]","name":"sampleActiveStates","type":"bool[]"}],"name":"computeBatchProgress","outputs":[{"internalType":"uint256","name":"_round","type":"uint256"},{"internalType":"uint256","name":"totalSamples","type":"uint256"},{"internalType":"uint256","name":"activeSamplesCount","type":"uint256"},{"internalType":"uint256","name":"completedSamples","type":"uint256"},{"internalType":"string[]","name":"_sampleIds","type":"string[]"},{"internalType":"bool","name":"batchActive","type":"bool"}],"stateMutability":"pure","type":"function"},{"inputs":[{"internalType":"address[]","name":"participants","type":"address[]"},{"internalType":"string[]","name":"roles","type":"string[]"},{"internalType":"uint256[]","name":"weights","type":"uint256[]"}],"name":"computeEligibleVoters","outputs":[{"internalType":"address[]","name":"voters","type":"address[]"},{"internalType":"uint256[]","name":"eligibleWeights","type":"uint256[]"}],"stateMutability":"pure","type":"function"},{"inputs":[],"name":"consensusThreshold","outputs":[{"internalType":"uint256","name":"","type":"uint256"}],"stateMutability":"view","type":"function"},{"inputs":[],"name":"currentRound","outputs":[{"internalType":"uint256","name":"","type":"uint256"}],"stateMutability":"view","type":"function"},{"inputs":[{"internalType":"uint256","name":"round","type":"uint256"}],"name":"endBatchVoting","outputs":[],"stateMutability":"nonpayable","type":"function"},{"inputs":[{"internalType":"uint256","name":"round","type":"uint256"}],"name":"getBatchSamples","outputs":[{"internalType":"string[]","name":"","type":"string[]"}],"stateMutability":"view","type":"function"},{"inputs":[{"internalType":"uint256","name":"round","type":"uint256"}],"name":"getBatchStatus","outputs":[{"internalType":"bool","name":"isActive","type":"bool"},{"internalType":"uint256","name":"totalSamples","type":"uint256"},{"internalType":"uint256","name":"completedSamples","type":"uint256"},{"internalType":"uint256","name":"remainingSamples","type":"uint256"},{"internalType":"uint256","name":"startTime","type":"uint256"}],"stateMutability":"view","type":"function"},{"inputs":[],"name":"getCurrentBatchProgress","outputs":[{"internalType":"uint256","name":"round","type":"uint256"},{"internalType":"bool","name":"isActive","type":"bool"},{"internalType":"uint256","name":"totalSamples","type":"uint256"},{"internalType":"uint256","name":"completedSamples","type":"uint256"},{"internalType":"string[]","name":"sampleIds","type":"string[]"}],"stateMutability":"view","type":"function"},{"inputs":[{"internalType":"string","name":"sampleId","type":"string"}],"name":"getFinalLabel","outputs":[{"internalType":"string","name":"","type":"string"}],"stateMutability":"view","type":"function"},{"inputs":[],"name":"getVoterList","outputs":[{"components":[{"internalType":"address","name":"addr","type":"address"},{"internalType":"uint256","name":"weight","type":"uint256"}],"internalType":"struct ALProjectVoting.Voter[]","name":"","type":"tuple[]"}],"stateMutability":"view","type":"function"},{"inputs":[{"internalType":"string","name":"sampleId","type":"string"}],"name":"getVotes","outputs":[{"components":[{"internalType":"address","name":"voter","type":"address"},{"internalType":"string","name":"label","type":"string"},{"internalType":"bool","name":"support","type":"bool"},{"internalType":"uint256","name":"timestamp","type":"uint256"}],"internalType":"struct ALProjectVoting.Vote[]","name":"","type":"tuple[]"}],"stateMutability":"view","type":"function"},{"inputs":[{"internalType":"string","name":"sampleId","type":"string"}],"name":"getVotingDistribution","outputs":[{"internalType":"string[]","name":"labels","type":"string[]"},{"internalType":"uint256[]","name":"voteCounts","type":"uint256[]"},{"internalType":"uint256[]","name":"voteWeights","type":"uint256[]"}],"stateMutability":"view","type":"function"},{"inputs":[{"internalType":"string","name":"sampleId","type":"string"}],"name":"getVotingResult","outputs":[{"internalType":"bool","name":"isFinalized","type":"bool"},{"internalType":"string","name":"finalLabel","type":"string"},{"internalType":"uint256","name":"totalVotes","type":"uint256"},{"internalType":"uint256","name":"votedCount","type":"uint256"}],"stateMutability":"view","type":"function"},{"inputs":[{"internalType":"string","name":"sampleId","type":"string"}],"name":"getVotingSession","outputs":[{"internalType":"uint256","name":"startTime","type":"uint256"},{"internalType":"bool","name":"isActive","type":"bool"},{"internalType":"bool","name":"isFinalized","type":"bool"},{"internalType":"string","name":"finalLabel","type":"string"}],"stateMutability":"view","type":"function"},{"inputs":[{"internalType":"string","name":"sampleId","type":"string"}],"name":"getVotingSessionStatus","outputs":[{"internalType":"bool","name":"isActive","type":"bool"},{"internalType":"bool","name":"isFinalized","type":"bool"},{"internalType":"string","name":"finalLabel","type":"string"},{"internalType":"uint256","name":"startTime","type":"uint256"},{"internalType":"uint256","name":"timeRemaining","type":"uint256"},{"internalType":"uint256","name":"votedCount","type":"uint256"},{"internalType":"uint256","name":"totalVoters","type":"uint256"}],"stateMutability":"view","type":"function"},{"inputs":[{"internalType":"string","name":"sampleId","type":"string"},{"internalType":"address","name":"user","type":"address"}],"name":"hasUserVoted","outputs":[{"internalType":"bool","name":"","type":"bool"}],"stateMutability":"view","type":"function"},{"inputs":[{"internalType":"string","name":"sampleId","type":"string"}],"name":"isTimeoutReached","outputs":[{"internalType":"bool","name":"","type":"bool"}],"stateMutability":"view","type":"function"},{"inputs":[{"internalType":"string","name":"sampleId","type":"string"}],"name":"isVotingActive","outputs":[{"internalType":"bool","name":"","type":"bool"}],"stateMutability":"view","type":"function"},{"inputs":[{"internalType":"string","name":"sampleId","type":"string"},{"internalType":"string","name":"finalLabel","type":"string"}],"name":"notifyMainContractExternal","outputs":[],"stateMutability":"nonpayable","type":"function"},{"inputs":[],"name":"project","outputs":[{"internalType":"address","name":"","type":"address"}],"stateMutability":"view","type":"function"},{"inputs":[{"internalType":"address[]","name":"_voters","type":"address[]"},{"internalType":"uint256[]","name":"_weights","type":"uint256[]"}],"name":"setVoters","outputs":[],"stateMutability":"nonpayable","type":"function"},{"inputs":[{"internalType":"string[]","name":"sampleIds","type":"string[]"},{"internalType":"uint256","name":"round","type":"uint256"},{"internalType":"string[]","name":"sampleDataHashes","type":"string[]"}],"name":"startBatchVoting","outputs":[],"stateMutability":"nonpayable","type":"function"},{"inputs":[{"internalType":"string[]","name":"sampleIds","type":"string[]"},{"internalType":"string[]","name":"labels","type":"string[]"},{"internalType":"bool[]","name":"support","type":"bool[]"}],"name":"submitBatchVote","outputs":[],"stateMutability":"nonpayable","type":"function"},{"inputs":[{"internalType":"string[]","name":"sampleIds","type":"string[]"},{"internalType":"string[]","name":"labels","type":"string[]"},{"internalType":"address","name":"voter","type":"address"}],"name":"submitBatchVoteOnBehalf","outputs":[],"stateMutability":"nonpayable","type":"function"},{"inputs":[{"internalType":"uint256","name":"","type":"uint256"}],"name":"voterList","outputs":[{"internalType":"address","name":"","type":"address"}],"stateMutability":"view","type":"function"},{"inputs":[{"internalType":"address","name":"","type":"address"}],"name":"voterWeights","outputs":[{"internalType":"uint256","name":"","type":"uint256"}],"stateMutability":"view","type":"function"},{"inputs":[{"internalType":"string","name":"","type":"string"},{"internalType":"uint256","name":"","type":"uint256"}],"name":"votes","outputs":[{"internalType":"address","name":"voter","type":"address"},{"internalType":"string","name":"label","type":"string"},{"internalType":"bool","name":"support","type":"bool"},{"internalType":"uint256","name":"timestamp","type":"uint256"}],"stateMutability":"view","type":"function"},{"inputs":[],"name":"votingConsensus","outputs":[{"internalType":"string","name":"","type":"string"}],"stateMutability":"view","type":"function"},{"inputs":[{"internalType":"string","name":"","type":"string"}],"name":"votingSessions","outputs":[{"internalType":"uint256","name":"startTime","type":"uint256"},{"internalType":"bool","name":"isActive","type":"bool"},{"internalType":"bool","name":"isFinalized","type":"bool"},{"internalType":"string","name":"finalLabel","type":"string"},{"internalType":"uint256","name":"totalVoters","type":"uint256"},{"internalType":"uint256","name":"round","type":"uint256"}],"stateMutability":"view","type":"function"},{"inputs":[],"name":"votingTimeoutSeconds","outputs":[{"internalType":"uint256","name":"","type":"uint256"}],"stateMutability":"view","type":"function"},{"inputs":[{"internalType":"string","name":"sampleId","type":"string"}],"name":"wasConsensusAchieved","outputs":[{"internalType":"bool","name":"","type":"bool"}],"stateMutability":"view","type":"function"}],"evm":{"bytecode":{"linkReferences":{},"object":"60806040523461029757614957803803806100198161029c565b9283398101906060818303126102975780516001600160a01b03811691908290036102975760208101516001600160401b03811161029757810183601f82011215610297578051906001600160401b03821161023557610082601f8301601f191660200161029c565b94828652602083830101116102975760005b82811061028257505060009084016020015260400151603360015590801561024b57600080546001600160a01b03191691909117905581516001600160401b03811161023557600354600181811c9116801561022b575b602082101461021557601f81116101b0575b50602092601f821160011461014b5792819293600092610140575b50508160011b916000199060031b1c1916176003555b60025560405161469590816102c28239f35b015190503880610118565b601f198216936003600052806000209160005b868110610198575083600195961061017f575b505050811b0160035561012e565b015160001960f88460031b161c19169055388080610171565b9192602060018192868501518155019401920161015e565b60036000527fc2575a0e9e593c00f959f8c92f12db2869c3395a3b0502d05e2516446f71f85b601f830160051c8101916020841061020b575b601f0160051c01905b8181106101ff57506100fd565b600081556001016101f2565b90915081906101e9565b634e487b7160e01b600052602260045260246000fd5b90607f16906100eb565b634e487b7160e01b600052604160045260246000fd5b60405162461bcd60e51b815260206004820152600f60248201526e496e76616c6964206164647265737360881b6044820152606490fd5b80602080928401015182828901015201610094565b600080fd5b6040519190601f01601f191682016001600160401b038111838210176102355760405256fe6080604052600436101561001257600080fd5b6000803560e01c806304574fe8146129c757806326a0613a1461298c5780632d1bbc8e14612928578063367cb924146127c45780634149738514612735578063414f8e76146126f8578063428f8338146126aa57806350e2e8af1461266657806355d389a4146125835780635c97951e146124435780636042ad611461238657806368acb1ab1461234457806372678fcc146121e157806375c255fc14611fd557806379c4ab1514611f4f578063805265e514611df45780638520eb7814611d885780638a19c8bc14611d6a5780639a6e81ab14611908578063a58df19a146118ea578063a76fd84e146117e5578063ab40d3ba14611715578063af37b5c614610f90578063b28d92ae14610e56578063b32c4d8d14610e04578063b49c447e14610d8f578063b8c3903414610c36578063cdbf3d01146108e7578063db7cde8b146107c9578063e7016ca714610784578063f02a0f751461028e578063f18a5cec146101da578063f60ca60d146101b35763f9b0b5b91461019357600080fd5b346101b057806003193601126101b0576020600154604051908152f35b80fd5b50346101b057806003193601126101b057546040516001600160a01b039091168152602090f35b50346101b05760203660031901126101b057600435906001600160401b0382116101b05761022360206102103660048601612af4565b8160405193828580945193849201612b40565b81016007815203019020805460018201549161024160028201612bf3565b61027f600460038401549301549160ff60405196879687528181161515602088015260081c161515604086015260c0606086015260c0850190612b63565b91608084015260a08301520390f35b50346101b05760603660031901126101b0576004356001600160401b038111610780576102bf903690600401612e3a565b906024356001600160401b038111610780576102df903690600401612e3a565b6044356001600160401b03811161077c576102fe903690600401612eb8565b338352600460205260408320541561073e5783518251036106f95783518151036106b557913390805b8551811015610572578061033d6001928861311c565b51610348828761311c565b5190610354838961311c565b5115159160405161038860ff878551936020818189019661037681838a612b40565b81016007815203019020015416613130565b6103b760ff8760405160208188516103a181838a612b40565b81016007815203019020015460081c1615613178565b6103ef60ff60406005815160208189516103d281838b612b40565b81016007815203019020016000908c8252602052205416156131c3565b6103f883613c11565b6105585760008051602061464083398151915292916104bb916104586040516020818751610427818388612b40565b810160068152030190206040519061043e82612a6a565b33825284602083015288604083015242606083015261324e565b88848760408d60058251602081875161047281838d612b40565b81016007815203019020016000918252602052208b60ff198254161790556104d4575b5050506104ad60405193608085526080850190612b63565b908382036020850152612b63565b9260408201524260608201528033930390a25b01610327565b60076105366020604061054e9561050f60066104ff858b6105469a8751938492839251928391612b40565b81018a815203019020018a612cbd565b61051981546130a0565b905533815260048352205495604051809381928c51928391612b40565b8101848152030190200184612cbd565b918254613093565b9055388884610495565b505061056d915061056761320e565b90613c4b565b6104ce565b5084805161057e575080f35b61059261058c60049261310f565b51612c97565b0154801515806106a6575b6105a5575080f35b815260086020526105bb6001604083200161303b565b90805b82518110156106a057806105d46001928561311c565b5160405160ff84835192602081818701956105f0818389612b40565b81016007815203019020015416908161066d575b50610611575b50016105be565b61061a8161414a565b80511561065b576000805160206146208339815191529161064261063c6133f3565b82613c4b565b61065160405192839283613013565b0390a15b8461060a565b50610668906105676133bb565b610655565b60ff915061068960208692604051809381928851928391612b40565b81016007815203019020015460081c161586610604565b50905080f35b506106b0816140a3565b61059d565b606460405162461bcd60e51b815260206004820152602060248201527f4d69736d6174636865642073616d706c6549647320616e6420737570706f72746044820152fd5b60405162461bcd60e51b815260206004820152601f60248201527f4d69736d6174636865642073616d706c6549647320616e64206c6162656c73006044820152606490fd5b60405162461bcd60e51b81526020600482015260166024820152752737ba1030903932b3b4b9ba32b932b2103b37ba32b960511b6044820152606490fd5b8280fd5b5080fd5b50346101b05760203660031901126101b057600435906001600160401b0382116101b05760206107bf6107ba3660048601612af4565b613b62565b6040519015158152f35b50346101b05760203660031901126101b0576004356001600160401b038111610780576107fa903690600401612af4565b60405181519060208181850193610812818387612b40565b8101600781520301902090836005549060058401905b82811061089a57505050600261085a602061086c9360ff600187015460081c1696604051938492839251928391612b40565b81016006815203019020549201612bf3565b9261088b60405194859415158552608060208601526080850190612b63565b91604084015260608301520390f35b60ff60406108a783612b88565b905460039190911b1c6001600160a01b0316600090815260208590522054166108d3575b600101610828565b956108df6001916130a0565b9690506108cb565b50346101b05760603660031901126101b0576004356001600160401b03811161078057610918903690600401612d6f565b6024356001600160401b03811161077c57610937903690600401612e3a565b6044356001600160401b038111610c3257610956903690600401612ddd565b928251825103610be2578251845103610b91578093815b8451811015610a1757610980818561311c565b5160208151910120610990613a9b565b602081519101201480156109ef575b80156109c7575b6109b3575b60010161096d565b946109bf6001916130a0565b9590506109ab565b506109d2818561311c565b51602081519101206109e2613ae9565b60208151910120146109a6565b506109fa818561311c565b5160208151910120610a0a613ac0565b602081519101201461099f565b509092610a2385612d58565b90610a316040519283612ab6565b858252610a52610a4087612d58565b602084019790601f1901368937613815565b938596865b8351811015610b3757610a6a818461311c565b5160208151910120610a7a613a9b565b60208151910120148015610b0f575b8015610ae7575b610a9d575b600101610a57565b97600190610adf906001600160a01b03610ab78c8861311c565b5116610ac3828961311c565b52610ace8b8961311c565b51610ad9828b61311c565b526130a0565b989050610a95565b50610af2818461311c565b5160208151910120610b02613ae9565b6020815191012014610a90565b50610b1a818461311c565b5160208151910120610b2a613ac0565b6020815191012014610a89565b5083868860405192604084019060408552518091526060840194915b818110610b72578480610b6e88878382036020850152612f1f565b0390f35b82516001600160a01b0316865260209586019590920191600101610b53565b60405162461bcd60e51b8152602060048201526024808201527f5061727469636970616e74732f77656967687473206c656e677468206d69736d6044820152630c2e8c6d60e31b6064820152608490fd5b60405162461bcd60e51b815260206004820152602260248201527f5061727469636970616e74732f726f6c6573206c656e677468206d69736d61746044820152610c6d60f31b6064820152608490fd5b8380fd5b50346101b05760203660031901126101b057600435610c5f60018060a01b0383541633146130af565b808252600860205260ff60036040842001541615610d575781526008602052610c8d6001604083200161303b565b815b8151811015610d535780610ca56001928461311c565b5160405160ff8483519260208181870195610cc1818389612b40565b810160078152030190200154169081610d20575b50610ce2575b5001610c8f565b610d1a90604090610cf582519283612ab6565b60138252724d616e75616c20626174636820656e64696e6760681b6020830152613c4b565b38610cdb565b60ff9150610d3c60208692604051809381928851928391612b40565b81016007815203019020015460081c161538610cd5565b8280f35b60405162461bcd60e51b815260206004820152601060248201526f4261746368206e6f742061637469766560801b6044820152606490fd5b50346101b05760203660031901126101b057600435906001600160401b0382116101b057610de8610df6610b6e610dd1610dcc3660048801612af4565b613847565b919390604051958695606087526060870190612cff565b908582036020870152612f1f565b908382036040850152612f1f565b50346101b05760203660031901126101b05760406080916004358152600860205220805490600281015490600460ff600383015416910154916040519384526020840152151560408301526060820152f35b50346101b057806003193601126101b057600554610e7381612d58565b90610e816040519283612ab6565b808252601f19610e9082612d58565b01835b818110610f6d575050825b818110610f00578284604051918291602083016020845282518091526020604085019301915b818110610ed2575050500390f35b825180516001600160a01b031685526020908101518186015286955060409094019390920191600101610ec4565b80610f0c600192612b88565b838060a01b0391549060031b1c16610f2382612b88565b848060a01b0391549060031b1c1686526004602052604086205460405191610f4a83612a9b565b82526020820152610f5b828661311c565b52610f66818561311c565b5001610e9e565b602090604051610f7c81612a9b565b868152868382015282828701015201610e93565b50346101b05760603660031901126101b0576004356001600160401b03811161078057610fc1903690600401612e3a565b602435916044356001600160401b03811161078057610fe4903690600401612e3a565b91610ff960018060a01b0383541633146130af565b8051156116db57805183510361168857838252600860205260ff600360408420015416611637578382526008602052836040832055838252600860205260016040832001815190600160401b82116116235780548282558083106115ad575b5083526020808420849184015b8383106114a157505050508382526008602052816002604082200155838252600860205260036040832001600160ff198254161790558382526008602052426004604084200155815b81518110156111fb576110c1818561311c565b5185845260086020526110e4600560408620016110de848661311c565b51612cbd565b815190916001600160401b0382116111e7576111008354612bb9565b601f81116111ac575b50602090601f8311600114611145579180611131926001969594899261113a575b505061323b565b90555b016110ae565b01519050388061112a565b8387528187209190601f198416885b81811061119457509160019695949291838895931061117b575b505050811b019055611134565b015160001960f88460031b161c1916905538808061116e565b92936020600181928786015181550195019301611154565b6111d79084885260208820601f850160051c810191602086106111dd575b601f0160051c01906130f8565b38611109565b90915081906111ca565b634e487b7160e01b86526041600452602486fd5b508380600955825b825181101561145557611216818461311c565b516040519060ff60018251936020818186019661123481838a612b40565b810160078152030190200154166114065760ff6001604051602081855161125c81838a612b40565b81016007815203019020015460081c166113c65783600461132060208995604051865161128a818385612b40565b810190600782528381429303019020556001604051838189516112ae818388612b40565b8101600781520301902001600160ff198254161790556001604051838189516112d8818388612b40565b810160078152030190200161ff00198154169055600554600360405184818a51611303818389612b40565b810160078152030190200155604051809381928851928391612b40565b8101600781520301902001557f1a6063ea5a85373503082e9047ebbde10c2ef86a0029b81921668e4a2ea190e36040518061135c428583612ff7565b0390a181546001600160a01b0316803b1561077c5760405163b2be4d6560e01b815260206004820152918391839182908490829061139e906024830190612b63565b03925af16113b1575b5050600101611203565b816113bb91612ab6565b610c325783856113a7565b60405162461bcd60e51b815260206004820152601860248201527714d85b5c1b1948185b1c9958591e48199a5b985b1a5e995960421b6044820152606490fd5b60405162461bcd60e51b815260206004820152602160248201527f53616d706c6520616c726561647920686173206163746976652073657373696f6044820152603760f91b6064820152608490fd5b50907f915b7f3f33ca682a46c0a82bcae59307624896b80801e6ea2c6e702a10499ece916114956040519283928352606060208401526060830190612cff565b4260408301520390a180f35b80518051906001600160401b038211611599576114be8454612bb9565b601f8111611569575b50602090601f831160011461150057926114f1836001959460209487968d9261113a57505061323b565b85555b01920192019190611065565b8489528189209190601f1984168a5b8181106115515750936020936001969387969383889510611538575b505050811b0185556114f4565b015160001960f88460031b161c1916905538808061152b565b9293602060018192878601518155019501930161150f565b61159390858a5260208a20601f850160051c810191602086106111dd57601f0160051c01906130f8565b386114c7565b634e487b7160e01b88526041600452602488fd5b818552826020862091820191015b8181106115c85750611058565b806115d560019254612bb9565b806115e2575b50016115bb565b601f811183146115f757508681555b386115db565b8188526020882061161291601f0160051c81019084016130f8565b8087528660208120818355556115f1565b634e487b7160e01b84526041600452602484fd5b60405162461bcd60e51b815260206004820152602360248201527f426174636820616c72656164792061637469766520666f72207468697320726f6044820152621d5b9960ea1b6064820152608490fd5b60405162461bcd60e51b815260206004820152602560248201527f53616d706c652049447320616e6420686173686573206c656e677468206d69736044820152640dac2e8c6d60db1b6064820152608490fd5b60405162461bcd60e51b815260206004820152601260248201527108adae0e8f240e6c2dae0d8ca40c4c2e8c6d60731b6044820152606490fd5b50346101b05760a03660031901126101b0576004356001600160401b03811161078057611746903690600401612e3a565b6024356001600160401b03811161077c57611765903690600401612eb8565b91604435906001600160401b0382116101b0576117ba6117d66117c86117a087876117933660048a01612e3a565b60843592606435926134eb565b93959260409591955197889760a0895260a0890190612cff565b908782036020890152612cff565b908582036040870152612cff565b91606084015260808301520390f35b50346101b05760603660031901126101b0576024356001600160401b03811161078057611816903690600401612e3a565b6044356001600160401b03811161077c57611835903690600401612eb8565b916118438251845114613422565b80805b835182101561189757611859828661311c565b51156118735761186a6001916130a0565b915b0190611846565b908351611883575b60019061186c565b9161188f6001916130a0565b92905061187b565b83518381151586816118e0575b6118d49192604051958695600435875260208701526040860152606085015260c0608085015260c0840190612cff565b90151560a08301520390f35b84151591506118a4565b50346101b057806003193601126101b0576020600254604051908152f35b50346101b05760603660031901126101b0576004356001600160401b03811161078057611939903690600401612e3a565b6024356001600160401b03811161077c57611958903690600401612e3a565b6044356001600160a01b0381169190829003610c325761198260018060a01b0385541633146130af565b8251815103611d3157825115611cfe578184526004602052604084205415611cc2578392845b8151811015611bab576119bb818361311c565b51866119c7838661311c565b516040516119e760ff6001865193602081818a019661037681838a612b40565b611a0160ff600160405160208189516103a181838a612b40565b611a1c60ff6040600581516020818a516103d281838b612b40565b8415611b70575b9183918893611a3460019796613c11565b611b5b57600080516020614640833981519152939291611b4591611a956040516020818851611a64818388612b40565b8101600681520301902060405190611a7b82612a6a565b8982528460208301528b604083015242606083015261324e565b6040600581516020818951611aab818389612b40565b8101600781520301902001600090898252602052208960ff19825416179055611af360066040516020818951611ae2818389612b40565b810160078152030190200183612cbd565b611afd81546130a0565b90558684526004602052611b2b61054660076105366020604089205495604051809381928d51928391612b40565b90556104ad60405194859450608085526080850190612b63565b8660408301524260608301520390a25b016119a8565b505050611b6b915061056761320e565b611b55565b9750918691600194936004611b9260208c604051809381928951928391612b40565b8101600781520301902001549991935091939450611a23565b858580151580611cb3575b611bbe575080f35b81526008602052611bd46001604083200161303b565b90805b82518110156106a05780611bed6001928561311c565b5160405160ff8483519260208181870195611c09818389612b40565b810160078152030190200154169081611c80575b50611c2a575b5001611bd7565b611c338161414a565b805115611c6e5760008051602061462083398151915291611c5561063c6133f3565b611c6460405192839283613013565b0390a15b84611c23565b50611c7b906105676133bb565b611c68565b60ff9150611c9c60208692604051809381928851928391612b40565b81016007815203019020015460081c161586611c1d565b50611cbd816140a3565b611bb6565b60405162461bcd60e51b8152602060048201526014602482015273159bdd195c881b9bdd081c9959da5cdd195c995960621b6044820152606490fd5b60405162461bcd60e51b815260206004820152600b60248201526a08adae0e8f240c4c2e8c6d60ab1b6044820152606490fd5b60405162461bcd60e51b81526020600482015260116024820152704d69736d6174636865642061727261797360781b6044820152606490fd5b50346101b057806003193601126101b0576020600954604051908152f35b50346101b057806003193601126101b05760406009549182815260086020522090610b6e60ff6003840154169260018101611dc9600282549301549161303b565b916040519586958652151560208601526040850152606084015260a0608084015260a0830190612cff565b50346101b05760203660031901126101b0576004356001600160401b038111610780576020610210611e2a923690600401612af4565b810160068152030190208054611e3f81612d58565b90611e4d6040519283612ab6565b80825260208201809385526020852085915b838310611efb57868587604051928392602084019060208552518091526040840160408260051b8601019392905b828210611e9c57505050500390f35b919360019193955060208091603f19898203018552875190848060a01b038251168152606080611ed9858501516080878601526080850190612b63565b9360408101511515604085015201519101529601920192018594939192611e8d565b60046020600192604051611f0e81612a6a565b848060a01b038654168152611f24858701612bf3565b8382015260ff6002870154161515604082015260038601546060820152815201920192019190611e5f565b50346101b05760203660031901126101b057600435906001600160401b0382116101b057611f8560206102103660048601612af4565b810160078152030190208054610b6e611fa5600260018501549401612bf3565b60ff60405194859485528181161515602086015260081c1615156040840152608060608401526080830190612b63565b50346101b05760403660031901126101b0576004356001600160401b03811161078057612006903690600401612d6f565b6024356001600160401b03811161077c57612025903690600401612ddd565b61203960018060a01b0384541633146130af565b81518151036121a757825b60055481101561207b578061205a600192612b88565b838060a01b0391549060031b1c168552600460205284604081205501612044565b5090600554836005558061216f575b50825b815181101561216b576120a0818461311c565b5115612126576120b0818461311c565b516001600160a01b036120c3838561311c565b51168552600460205260408520556001600160a01b036120e3828461311c565b5116600554600160401b8110156111e7579061210782600180959401600555612b88565b819291549060031b91821b91858060a01b03901b19161790550161208d565b60405162461bcd60e51b815260206004820152601d60248201527f576569676874206d7573742062652067726561746572207468616e20300000006044820152606490fd5b8380f35b600584526121a1907f036b6384b5eca791c62761152d0c79bb0604c104a5fb6f4eb0703f3154bb3db0908101906130f8565b3861208a565b60405162461bcd60e51b81526020600482015260126024820152714d69736d617463686564206c656e6774687360701b6044820152606490fd5b50346101b05760203660031901126101b0576004356001600160401b038111610780576020610210612217923690600401612af4565b81016007815203019020908060025480151580612336575b80612324575b6122ff575b50819260055460058201945b8181106122b257505060ff9350600181015492815492612299612270600260038601549501612bf3565b6040519787818a99161515895260081c161515602088015260e0604088015260e0870190612b63565b936060860152608085015260a084015260c08301520390f35b60ff60406122bf83612b88565b905460039190911b1c6001600160a01b0316600090815260208990522054166122eb575b600101612246565b936122f76001916130a0565b9490506122e3565b61230a908454613093565b8042101561223a5761231e91504290612f53565b3861223a565b5060ff600185015460081c1615612235565b5060ff60018501541661222f565b50346101b05760203660031901126101b05761237260016040610b6e9360043581526008602052200161303b565b604051918291602083526020830190612cff565b50346101b05760403660031901126101b0576004356001600160401b038111610780576123b7903690600401612af4565b6123d36020602435928160405193828580945193849201612b40565b81016006815203019020805482101561077c576123f09250612ce3565b5080546001600160a01b031661240860018301612bf3565b91600360ff6002830154169101546124326040519485948552608060208601526080850190612b63565b911515604084015260608301520390f35b50346101b05760403660031901126101b0576004356001600160401b03811161078057612474903690600401612af4565b906024356001600160401b03811161078057612494903690600401612af4565b3033036125495781546001600160a01b031692833b1561077c5782604051809563160c220d60e31b82528183816124cf888860048401613013565b03925af1612534575b825492935083926001600160a01b031691823b1561252f57612513928492836040518096819582946314faf32d60e11b845260048401613013565b03925af161251e5750f35b8161252891612ab6565b6101b05780f35b505050fd5b9190928161254191612ab6565b9082906124d8565b60405162461bcd60e51b8152602060048201526012602482015271496e7465726e616c2063616c6c206f6e6c7960701b6044820152606490fd5b50346101b057806003193601126101b0576040519080600354906125a682612bb9565b808552916001811690811561263f57506001146125e2575b610b6e846125ce81860382612ab6565b604051918291602083526020830190612b63565b600381527fc2575a0e9e593c00f959f8c92f12db2869c3395a3b0502d05e2516446f71f85b939250905b808210612625575090915081016020016125ce826125be565b91926001816020925483858801015201910190929161260c565b60ff191660208087019190915292151560051b850190920192506125ce91508390506125be565b50346101b05760203660031901126101b057600435906005548210156101b057602061269183612b88565b905460405160039290921b1c6001600160a01b03168152f35b50346101b05760203660031901126101b057600435906001600160401b0382116101b057610b6e6125ce60026126e860206102103660048901612af4565b8101600781520301902001612bf3565b50346101b05760203660031901126101b0576004356001600160a01b03811690819003610780578160409160209352600483522054604051908152f35b50346101b05760403660031901126101b0576004356001600160401b03811161078057612766903690600401612af4565b602435906001600160a01b038216820361077c5760209260ff92600561279b8660409581875193828580945193849201612b40565b6007908201908152030190206001600160a01b0390921683520184522054604051911615158152f35b50346101b05760203660031901126101b0576004356001600160401b038111610780576127f5903690600401612af4565b61285660ff6001612840602060405161282f85858951938581818d019661281d81838a612b40565b81016007815203019020015416612f76565b604051809381928951928391612b40565b81016007815203019020015460081c1615612fb7565b61285f81613c11565b156128e9576128e37ffe2a617c3a0856bbd203e77cee3d518a00f599c8a955224e80b1d0a1afd95703916128d560405161289a606082612ab6565b602281527f54696d656f75742072656163686564202d2065787465726e616c20747269676760208201526132b960f11b604082015282613c4b565b604051918291429083612ff7565b0390a180f35b60405162461bcd60e51b8152602060048201526017602482015276151a5b595bdd5d081b9bdd081c995858da1959081e595d604a1b6044820152606490fd5b50346101b05760203660031901126101b057604060a091600435815260086020522060ff600382015416906001810154906002810154600461296a8285612f53565b9201549260405194151585526020850152604084015260608301526080820152f35b50346101b05760203660031901126101b057600435906001600160401b0382116101b05760206107bf6129c23660048601612af4565b613c11565b50346101b05760203660031901126101b057600435906001600160401b0382116101b05760206129fa3660048501612af4565b60405160ff6001835192858181870195612a15818389612b40565b810160078152030190200154169182612a35575b50506040519015158152f35b60ff925083600192612a5292604051938492839251928391612b40565b81016007815203019020015460081c16158280612a29565b608081019081106001600160401b03821117612a8557604052565b634e487b7160e01b600052604160045260246000fd5b604081019081106001600160401b03821117612a8557604052565b601f909101601f19168101906001600160401b03821190821017612a8557604052565b6001600160401b038111612a8557601f01601f191660200190565b81601f82011215612b3b57803590612b0b82612ad9565b92612b196040519485612ab6565b82845260208383010111612b3b57816000926020809301838601378301015290565b600080fd5b60005b838110612b535750506000910152565b8181015183820152602001612b43565b90602091612b7c81518092818552858086019101612b40565b601f01601f1916010190565b600554811015612ba357600560005260206000200190600090565b634e487b7160e01b600052603260045260246000fd5b90600182811c92168015612be9575b6020831014612bd357565b634e487b7160e01b600052602260045260246000fd5b91607f1691612bc8565b9060405191826000825492612c0784612bb9565b8084529360018116908115612c755750600114612c2e575b50612c2c92500383612ab6565b565b90506000929192526020600020906000915b818310612c59575050906020612c2c9282010138612c1f565b6020919350806001915483858901015201910190918492612c40565b905060209250612c2c94915060ff191682840152151560051b82010138612c1f565b6020612cb0918160405193828580945193849201612b40565b8101600781520301902090565b602090612cd7928260405194838680955193849201612b40565b82019081520301902090565b8054821015612ba35760005260206000209060021b0190600090565b9080602083519182815201916020808360051b8301019401926000915b838310612d2b57505050505090565b9091929394602080612d49600193601f198682030187528951612b63565b97019301930191939290612d1c565b6001600160401b038111612a855760051b60200190565b9080601f83011215612b3b57813590612d8782612d58565b92612d956040519485612ab6565b82845260208085019360051b820101918211612b3b57602001915b818310612dbd5750505090565b82356001600160a01b0381168103612b3b57815260209283019201612db0565b9080601f83011215612b3b578135612df481612d58565b92612e026040519485612ab6565b81845260208085019260051b820101928311612b3b57602001905b828210612e2a5750505090565b8135815260209182019101612e1d565b9080601f83011215612b3b578135612e5181612d58565b92612e5f6040519485612ab6565b81845260208085019260051b82010191838311612b3b5760208201905b838210612e8b57505050505090565b81356001600160401b038111612b3b57602091612ead87848094880101612af4565b815201910190612e7c565b9080601f83011215612b3b57813590612ed082612d58565b92612ede6040519485612ab6565b82845260208085019360051b820101918211612b3b57602001915b818310612f065750505090565b82358015158103612b3b57815260209283019201612ef9565b906020808351928381520192019060005b818110612f3d5750505090565b8251845260209384019390920191600101612f30565b91908203918211612f6057565b634e487b7160e01b600052601160045260246000fd5b15612f7d57565b60405162461bcd60e51b815260206004820152601260248201527153657373696f6e206e6f742061637469766560701b6044820152606490fd5b15612fbe57565b60405162461bcd60e51b8152602060048201526011602482015270105b1c9958591e48199a5b985b1a5e9959607a1b6044820152606490fd5b92919061300e602091604086526040860190612b63565b930152565b909161302a61303893604084526040840190612b63565b916020818403910152612b63565b90565b90815461304781612d58565b926130556040519485612ab6565b818452602084019060005260206000206000915b8383106130765750505050565b60016020819261308585612bf3565b815201920192019190613069565b91908201809211612f6057565b6000198114612f605760010190565b156130b657565b60405162461bcd60e51b815260206004820152601a60248201527913db9b1e481b585a5b881c1c9bda9958dd0818d85b8818d85b1b60321b6044820152606490fd5b818110613103575050565b600081556001016130f8565b805115612ba35760200190565b8051821015612ba35760209160051b010190565b1561313757565b60405162461bcd60e51b8152602060048201526019602482015278566f74696e672073657373696f6e206e6f742061637469766560381b6044820152606490fd5b1561317f57565b606460405162461bcd60e51b815260206004820152602060248201527f566f74696e672073657373696f6e20616c72656164792066696e616c697a65646044820152fd5b156131ca57565b60405162461bcd60e51b815260206004820152601c60248201527b416c726561647920766f746564206f6e20746869732073616d706c6560201b6044820152606490fd5b6040519061321d604083612ab6565b600f82526e151a5b595bdd5d081c995858da1959608a1b6020830152565b8160011b916000199060031b1c19161790565b8054600160401b811015612a855761326b91600182018155612ce3565b9190916133a557805182546001600160a01b0319166001600160a01b03919091161782556020810151805160018401916001600160401b038211612a85576132b38354612bb9565b601f8111613373575b50602090601f8311600114613307578260039593606095936132e69360009261113a57505061323b565b90555b600284016040820151151560ff801983541691161790550151910155565b90601f1983169184600052816000209260005b81811061335b5750926001928592600398966060989610613343575b505050811b0190556132e9565b015160001983891b60f8161c19169055388080613336565b9293602060018192878601518155019501930161331a565b61339f90846000526020600020601f850160051c810191602086106111dd57601f0160051c01906130f8565b386132bc565b634e487b7160e01b600052600060045260246000fd5b604051906133ca604083612ab6565b601a825279082d8d840ecdee8cae4e640c6dedae0d8cae8cac840c4c2e8c6d60331b6020830152565b60405190613402604083612ab6565b601182527010dbdb9cd95b9cdd5cc81c995858da1959607a1b6020830152565b1561342957565b60405162461bcd60e51b815260206004820152600f60248201526e098cadccee8d040dad2e6dac2e8c6d608b1b6044820152606490fd5b6040519061346f602083612ab6565b600080835282815b82811061348357505050565b806060602080938501015201613477565b9061349e82612d58565b6134ab6040519182612ab6565b82815280926134bc601f1991612d58565b019060005b8281106134cd57505050565b8060606020809385010152016134c1565b51908115158203612b3b57565b929390946134fc8451875114613422565b60009360005b815181101561353757613515818961311c565b51613523575b600101613502565b9461352f6001916130a0565b95905061351b565b5091939490929480156137ea5761354d90613494565b9360009360005b84518110156135aa57613567818a61311c565b51613575575b600101613554565b946135a2600191613586888861311c565b51613591828b61311c565b5261359c818a61311c565b506130a0565b95905061356d565b5095925093925094506135bd8251613494565b94836000526008602052604060002093600560009501945b845181101561368a57806135eb6001928761311c565b516135fe6135f98983612cbd565b612bf3565b8051909190156136265750613613828b61311c565b5261361e818a61311c565b505b016135d5565b905061366f603060405180936f029b0b6b83632903230ba30903337b9160851b602083015261365e8151809260208686019101612b40565b81010301601f198101835282612ab6565b613679828b61311c565b52613684818a61311c565b50613620565b509290935093909360009381516136a4575b509493929190565b6136d4856136b18461310f565b51604051809381926379c4ab1560e01b8352602060048401526024830190612b63565b0381305afa9081156137df57869187918891613736575b508161372d575b506136fe575b5061369c565b61370b9095929542612f53565b9080821061371e5750505b9238806136f8565b6137289250612f53565b613716565b905015386136f2565b925050503d8087833e6137498183612ab6565b8101906080818303126137db578051613764602083016134de565b92613771604084016134de565b606084015190936001600160401b0382116137d3570181601f820112156137d75780519161379e83612ad9565b906137ac6040519283612ab6565b838252602084840101116137d357906020806137cb9493019101612b40565b9190386136eb565b8a80fd5b8980fd5b8680fd5b6040513d88823e3d90fd5b505050915091506137f9613460565b90613802613460565b9261380b613460565b9293929160009190565b9061381f82612d58565b61382c6040519182612ab6565b828152809261383d601f1991612d58565b0190602036910137565b6040518151906020818185019361385f818387612b40565b8101600681520301902091825461387581612d58565b936138836040519586612ab6565b818552602085019060005260206000206000915b838310613a4757505050506138ba91602091604051938492839251928391612b40565b8101600781520301902090805115613a06576138d68151613494565b90600093845b82518110156139685760206138f1828561311c565b510151600060208201815b898110613939575b505015613915575b506001016138dc565b8661393291613927600194998861311c565b5261359c818761311c565b959061390c565b613943818961311c565b5160208151910120845183201461395c576001016138fc565b50505060013880613904565b50919293905061397781613494565b9061398181613815565b9461398b82613815565b94600782019160060160005b8481106139a8575050505050929190565b806139b56001928561311c565b516139c0828961311c565b526139cb818861311c565b506139da836110de838761311c565b546139e5828c61311c565b526139f4856110de838761311c565b546139ff828b61311c565b5201613997565b5050613a10613460565b60405191602091613a218385612ab6565b60008452600036813760405192613a388185612ab6565b60008452506000368137929190565b60046020600192604051613a5a81612a6a565b848060a01b038654168152613a70858701612bf3565b8382015260ff6002870154161515604082015260038601546060820152815201920192019190613897565b60405190613aaa604083612ab6565b600782526631b932b0ba37b960c91b6020830152565b60405190613acf604083612ab6565b600b82526a31b7b73a3934b13aba37b960a91b6020830152565b60405190613af8604083612ab6565b600b82526a31b7b7b93234b730ba37b960a91b6020830152565b60405190613b21604083612ab6565b600c82526b4e4f5f434f4e53454e53555360a01b6020830152565b60405190613b4b604083612ab6565b60088252674e4f5f564f54455360c01b6020830152565b60405160ff600183519260208181870195613b7e818389612b40565b81016007815203019020015460081c1615613bd05760026126e86020613baf93604051809381928851928391612b40565b80518015908115613bf4575b508015613bd7575b613bd057613038916142fb565b5050600090565b5080516020820120613be7613b3c565b6020815191012014613bc3565b90506020820120613c03613b12565b602081519101201438613bbb565b6002548015613bd057613c366020613c46938160405193828580945193849201612b40565b8101600781520301902054613093565b421190565b906000604051613c6d60ff6001865193602081818a019661281d81838a612b40565b613c8760ff6001604051602081895161284081838a612b40565b60016040516020818751613c9c818388612b40565b810160078152030190200160ff19815416905560016040516020818751613cc4818388612b40565b810160078152030190200161010061ff0019825416179055613ce584614483565b9260026040516020818851613cfb818389612b40565b8101600781520301902001845160018060401b03811161408f57613d1f8254612bb9565b601f811161405f575b506020601f8211600114613fe357613dd8613dec94602094613d658560049996600080516020614600833981519152968c91613fd8575b5061323b565b90555b7f8a0cc662156da5580404150064cc81955de64ef5a8090364795edcbac842999160405180613d998d429083612ff7565b0390a160405191829160808352613dc4613db78d6080860190612b63565b848103898601528c612b63565b904260408501528382036060850152612b63565b0390a1604051809381928951928391612b40565b81016007815203019020015480151580613fbf575b613e9c575b50303b156101b057604051632e4bca8f60e11b815290808280613e2d868860048401613013565b038183305af19182613e8c575b5050613e44575050565b7fdabbbde127ef4ac1b0a84891a674bfc7b3ceff8d1e7350abd0f7c48021420d3291613e816104ad92604051938493606085526060850190612b63565b4260408301520390a1565b81613e9691612ab6565b38613e3a565b808252600860205260026040832001613eb581546130a0565b905580825260086020527f145f86831bf675d553efc81172882ecdb1776f5bdfa7f1b8367ad08b57888740613f0160016040852001548385526008602052600260408620015490612f53565b604051809184825260806020830152613f2e613f20608084018a612b63565b838103604085015288612b63565b9060608301520390a1808252600860205260026040832001548183526008602052600160408420015411613e06576060817fcdf3a25ac86d8c6a422a8356f0fb7d6cc09b23caca39fd699cbc6038e558736492845260086020526003604085200160ff198154169055808452600860205260026040852001546040519182526020820152426040820152a138613e06565b50808252600860205260ff600360408420015416613e01565b90508c015138613d5f565b82865280862090601f198316875b81811061404757509460209460018560008051602061460083398151915295613dd89560049b98613dec9b1061402e575b5050811b019055613d68565b8d015160001960f88460031b161c191690553880614022565b9192602060018192868d015181550194019201613ff1565b6140899083875260208720601f840160051c810191602085106111dd57601f0160051c01906130f8565b38613d28565b634e487b7160e01b85526041600452602485fd5b60005260086020526140bb600160406000200161303b565b805115614144576005546000915b8183106140d857505050600190565b6140e183612b88565b905460039190911b1c6001600160a01b03169160005b82518110156141375760ff6040600561411361058c858861311c565b016000908782526020522054161561412d576001016140f7565b5050505050600090565b50915091600101916140c9565b50600090565b60609160405160208184516141628183858901612b40565b8101600681520301902080549061417882612d58565b946141866040519687612ab6565b82865260208601916000526020600020906000925b8484106142a8575050505050825115614297576141b88351613494565b90600090815b855181101561423f5760206141d3828861311c565b510151600060208201815b868110614210575b5050156141f7575b506001016141be565b8361420991613927600194968861311c565b92906141ee565b61421a818961311c565b51602081519101208451832014614233576001016141de565b505050600138806141e6565b5093509160005b838110614266575050505060405161425f602082612ab6565b6000815290565b61427a614273828561311c565b51836142fb565b61428657600101614246565b919050614293925061311c565b5190565b91505060405161425f602082612ab6565b600460206001926040516142bb81612a6a565b848060a01b0387541681526142d1858801612bf3565b8382015260ff6002880154161515604082015260038701548682015281520193019301929161419b565b6020614317919392938160405193828580945193849201612b40565b81016006815203019020805461432c81612d58565b9161433a6040519384612ab6565b818352602083019060005260206000206000915b83831061442f57505050508051156144285760009081825b82518110156143cd57602061437b828561311c565b51015160208151910120865160208801201461439a575b600101614366565b906143a4906130a0565b9060406143b1828561311c565b5101511561439257926143c56001916130a0565b939050614392565b50909192935080156144205782146143e6575050600090565b51606482029180830460641490151715612f6057801561440a576001549104101590565b634e487b7160e01b600052601260045260246000fd5b505050600090565b5060009150565b6004602060019260405161444281612a6a565b848060a01b038654168152614458858701612bf3565b8382015260ff600287015416151560408201526003860154606082015281520192019201919061434e565b6060906040518151906020818185019361449e818387612b40565b810160068152030190208054906144b482612d58565b946144c26040519687612ab6565b82865260208601916000526020600020906000925b8484106145ac5750505050508251156145a157602061450491600793604051938492839251928391612b40565b8101848152030190200160209260405161451f602082612ab6565b600081529260009160005b825181101561458457604061453f828561311c565b51015161454f575b60010161452a565b8661455a828561311c565b5101516145678682612cbd565b54858111614577575b5050614547565b9096509350600138614570565b509450505050805115156000146145985790565b50613038613b12565b505050613038613b3c565b600460206001926040516145bf81612a6a565b848060a01b0387541681526145d5858801612bf3565b8382015260ff600288015416151560408201526003870154868201528152019301930192916144d756fea8e1279888c174a6fbf4fd42a8be4469b313be30a5edac87aff45c5f8a450deb0cc62c8b09788a11d11e96187c34c67fad5e9651cadc6ace24e1518490bed9812579d0860b48f37c239a6db657bad6560c277bbce0a8a989d70227407fc62e06a26469706673582212203c58c01e4f0227d73e5d43717e061b360f065c89f829e0ce8f690afc753d2c2664736f6c634300081c0033","opcodes":"PUSH1 0x80 PUSH1 0x40 MSTORE CALLVALUE PUSH2 0x297 JUMPI PUSH2 0x4957 DUP1 CODESIZE SUB DUP1 PUSH2 0x19 DUP2 PUSH2 0x29C JUMP JUMPDEST SWAP3 DUP4 CODECOPY DUP2 ADD SWAP1 PUSH1 0x60 DUP2 DUP4 SUB SLT PUSH2 0x297 JUMPI DUP1 MLOAD PUSH1 0x1 PUSH1 0x1 PUSH1 0xA0 SHL SUB DUP2 AND SWAP2 SWAP1 DUP3 SWAP1 SUB PUSH2 0x297 JUMPI PUSH1 0x20 DUP2 ADD MLOAD PUSH1 0x1 PUSH1 0x1 PUSH1 0x40 SHL SUB DUP2 GT PUSH2 0x297 JUMPI DUP2 ADD DUP4 PUSH1 0x1F DUP3 ADD SLT ISZERO PUSH2 0x297 JUMPI DUP1 MLOAD SWAP1 PUSH1 0x1 PUSH1 0x1 PUSH1 0x40 SHL SUB DUP3 GT PUSH2 0x235 JUMPI PUSH2 0x82 PUSH1 0x1F DUP4 ADD PUSH1 0x1F NOT AND PUSH1 0x20 ADD PUSH2 0x29C JUMP JUMPDEST SWAP5 DUP3 DUP7 MSTORE PUSH1 0x20 DUP4 DUP4 ADD ADD GT PUSH2 0x297 JUMPI PUSH1 0x0 JUMPDEST DUP3 DUP2 LT PUSH2 0x282 JUMPI POP POP PUSH1 0x0 SWAP1 DUP5 ADD PUSH1 0x20 ADD MSTORE PUSH1 0x40 ADD MLOAD PUSH1 0x33 PUSH1 0x1 SSTORE SWAP1 DUP1 ISZERO PUSH2 0x24B JUMPI PUSH1 0x0 DUP1 SLOAD PUSH1 0x1 PUSH1 0x1 PUSH1 0xA0 SHL SUB NOT AND SWAP2 SWAP1 SWAP2 OR SWAP1 SSTORE DUP2 MLOAD PUSH1 0x1 PUSH1 0x1 PUSH1 0x40 SHL SUB DUP2 GT PUSH2 0x235 JUMPI PUSH1 0x3 SLOAD PUSH1 0x1 DUP2 DUP2 SHR SWAP2 AND DUP1 ISZERO PUSH2 0x22B JUMPI JUMPDEST PUSH1 0x20 DUP3 LT EQ PUSH2 0x215 JUMPI PUSH1 0x1F DUP2 GT PUSH2 0x1B0 JUMPI JUMPDEST POP PUSH1 0x20 SWAP3 PUSH1 0x1F DUP3 GT PUSH1 0x1 EQ PUSH2 0x14B JUMPI SWAP3 DUP2 SWAP3 SWAP4 PUSH1 0x0 SWAP3 PUSH2 0x140 JUMPI JUMPDEST POP POP DUP2 PUSH1 0x1 SHL SWAP2 PUSH1 0x0 NOT SWAP1 PUSH1 0x3 SHL SHR NOT AND OR PUSH1 0x3 SSTORE JUMPDEST PUSH1 0x2 SSTORE PUSH1 0x40 MLOAD PUSH2 0x4695 SWAP1 DUP2 PUSH2 0x2C2 DUP3 CODECOPY RETURN JUMPDEST ADD MLOAD SWAP1 POP CODESIZE DUP1 PUSH2 0x118 JUMP JUMPDEST PUSH1 0x1F NOT DUP3 AND SWAP4 PUSH1 0x3 PUSH1 0x0 MSTORE DUP1 PUSH1 0x0 KECCAK256 SWAP2 PUSH1 0x0 JUMPDEST DUP7 DUP2 LT PUSH2 0x198 JUMPI POP DUP4 PUSH1 0x1 SWAP6 SWAP7 LT PUSH2 0x17F JUMPI JUMPDEST POP POP POP DUP2 SHL ADD PUSH1 0x3 SSTORE PUSH2 0x12E JUMP JUMPDEST ADD MLOAD PUSH1 0x0 NOT PUSH1 0xF8 DUP5 PUSH1 0x3 SHL AND SHR NOT AND SWAP1 SSTORE CODESIZE DUP1 DUP1 PUSH2 0x171 JUMP JUMPDEST SWAP2 SWAP3 PUSH1 0x20 PUSH1 0x1 DUP2 SWAP3 DUP7 DUP6 ADD MLOAD DUP2 SSTORE ADD SWAP5 ADD SWAP3 ADD PUSH2 0x15E JUMP JUMPDEST PUSH1 0x3 PUSH1 0x0 MSTORE PUSH32 0xC2575A0E9E593C00F959F8C92F12DB2869C3395A3B0502D05E2516446F71F85B PUSH1 0x1F DUP4 ADD PUSH1 0x5 SHR DUP2 ADD SWAP2 PUSH1 0x20 DUP5 LT PUSH2 0x20B JUMPI JUMPDEST PUSH1 0x1F ADD PUSH1 0x5 SHR ADD SWAP1 JUMPDEST DUP2 DUP2 LT PUSH2 0x1FF JUMPI POP PUSH2 0xFD JUMP JUMPDEST PUSH1 0x0 DUP2 SSTORE PUSH1 0x1 ADD PUSH2 0x1F2 JUMP JUMPDEST SWAP1 SWAP2 POP DUP2 SWAP1 PUSH2 0x1E9 JUMP JUMPDEST PUSH4 0x4E487B71 PUSH1 0xE0 SHL PUSH1 0x0 MSTORE PUSH1 0x22 PUSH1 0x4 MSTORE PUSH1 0x24 PUSH1 0x0 REVERT JUMPDEST SWAP1 PUSH1 0x7F AND SWAP1 PUSH2 0xEB JUMP JUMPDEST PUSH4 0x4E487B71 PUSH1 0xE0 SHL PUSH1 0x0 MSTORE PUSH1 0x41 PUSH1 0x4 MSTORE PUSH1 0x24 PUSH1 0x0 REVERT JUMPDEST PUSH1 0x40 MLOAD PUSH3 0x461BCD PUSH1 0xE5 SHL DUP2 MSTORE PUSH1 0x20 PUSH1 0x4 DUP3 ADD MSTORE PUSH1 0xF PUSH1 0x24 DUP3 ADD MSTORE PUSH15 0x496E76616C69642061646472657373 PUSH1 0x88 SHL PUSH1 0x44 DUP3 ADD MSTORE PUSH1 0x64 SWAP1 REVERT JUMPDEST DUP1 PUSH1 0x20 DUP1 SWAP3 DUP5 ADD ADD MLOAD DUP3 DUP3 DUP10 ADD ADD MSTORE ADD PUSH2 0x94 JUMP JUMPDEST PUSH1 0x0 DUP1 REVERT JUMPDEST PUSH1 0x40 MLOAD SWAP2 SWAP1 PUSH1 0x1F ADD PUSH1 0x1F NOT AND DUP3 ADD PUSH1 0x1 PUSH1 0x1 PUSH1 0x40 SHL SUB DUP2 GT DUP4 DUP3 LT OR PUSH2 0x235 JUMPI PUSH1 0x40 MSTORE JUMP INVALID PUSH1 0x80 PUSH1 0x40 MSTORE PUSH1 0x4 CALLDATASIZE LT ISZERO PUSH2 0x12 JUMPI PUSH1 0x0 DUP1 REVERT JUMPDEST PUSH1 0x0 DUP1 CALLDATALOAD PUSH1 0xE0 SHR DUP1 PUSH4 0x4574FE8 EQ PUSH2 0x29C7 JUMPI DUP1 PUSH4 0x26A0613A EQ PUSH2 0x298C JUMPI DUP1 PUSH4 0x2D1BBC8E EQ PUSH2 0x2928 JUMPI DUP1 PUSH4 0x367CB924 EQ PUSH2 0x27C4 JUMPI DUP1 PUSH4 0x41497385 EQ PUSH2 0x2735 JUMPI DUP1 PUSH4 0x414F8E76 EQ PUSH2 0x26F8 JUMPI DUP1 PUSH4 0x428F8338 EQ PUSH2 0x26AA JUMPI DUP1 PUSH4 0x50E2E8AF EQ PUSH2 0x2666 JUMPI DUP1 PUSH4 0x55D389A4 EQ PUSH2 0x2583 JUMPI DUP1 PUSH4 0x5C97951E EQ PUSH2 0x2443 JUMPI DUP1 PUSH4 0x6042AD61 EQ PUSH2 0x2386 JUMPI DUP1 PUSH4 0x68ACB1AB EQ PUSH2 0x2344 JUMPI DUP1 PUSH4 0x72678FCC EQ PUSH2 0x21E1 JUMPI DUP1 PUSH4 0x75C255FC EQ PUSH2 0x1FD5 JUMPI DUP1 PUSH4 0x79C4AB15 EQ PUSH2 0x1F4F JUMPI DUP1 PUSH4 0x805265E5 EQ PUSH2 0x1DF4 JUMPI DUP1 PUSH4 0x8520EB78 EQ PUSH2 0x1D88 JUMPI DUP1 PUSH4 0x8A19C8BC EQ PUSH2 0x1D6A JUMPI DUP1 PUSH4 0x9A6E81AB EQ PUSH2 0x1908 JUMPI DUP1 PUSH4 0xA58DF19A EQ PUSH2 0x18EA JUMPI DUP1 PUSH4 0xA76FD84E EQ PUSH2 0x17E5 JUMPI DUP1 PUSH4 0xAB40D3BA EQ PUSH2 0x1715 JUMPI DUP1 PUSH4 0xAF37B5C6 EQ PUSH2 0xF90 JUMPI DUP1 PUSH4 0xB28D92AE EQ PUSH2 0xE56 JUMPI DUP1 PUSH4 0xB32C4D8D EQ PUSH2 0xE04 JUMPI DUP1 PUSH4 0xB49C447E EQ PUSH2 0xD8F JUMPI DUP1 PUSH4 0xB8C39034 EQ PUSH2 0xC36 JUMPI DUP1 PUSH4 0xCDBF3D01 EQ PUSH2 0x8E7 JUMPI DUP1 PUSH4 0xDB7CDE8B EQ PUSH2 0x7C9 JUMPI DUP1 PUSH4 0xE7016CA7 EQ PUSH2 0x784 JUMPI DUP1 PUSH4 0xF02A0F75 EQ PUSH2 0x28E JUMPI DUP1 PUSH4 0xF18A5CEC EQ PUSH2 0x1DA JUMPI DUP1 PUSH4 0xF60CA60D EQ PUSH2 0x1B3 JUMPI PUSH4 0xF9B0B5B9 EQ PUSH2 0x193 JUMPI PUSH1 0x0 DUP1 REVERT JUMPDEST CALLVALUE PUSH2 0x1B0 JUMPI DUP1 PUSH1 0x3 NOT CALLDATASIZE ADD SLT PUSH2 0x1B0 JUMPI PUSH1 0x20 PUSH1 0x1 SLOAD PUSH1 0x40 MLOAD SWAP1 DUP2 MSTORE RETURN JUMPDEST DUP1 REVERT JUMPDEST POP CALLVALUE PUSH2 0x1B0 JUMPI DUP1 PUSH1 0x3 NOT CALLDATASIZE ADD SLT PUSH2 0x1B0 JUMPI SLOAD PUSH1 0x40 MLOAD PUSH1 0x1 PUSH1 0x1 PUSH1 0xA0 SHL SUB SWAP1 SWAP2 AND DUP2 MSTORE PUSH1 0x20 SWAP1 RETURN JUMPDEST POP CALLVALUE PUSH2 0x1B0 JUMPI PUSH1 0x20 CALLDATASIZE PUSH1 0x3 NOT ADD SLT PUSH2 0x1B0 JUMPI PUSH1 0x4 CALLDATALOAD SWAP1 PUSH1 0x1 PUSH1 0x1 PUSH1 0x40 SHL SUB DUP3 GT PUSH2 0x1B0 JUMPI PUSH2 0x223 PUSH1 0x20 PUSH2 0x210 CALLDATASIZE PUSH1 0x4 DUP7 ADD PUSH2 0x2AF4 JUMP JUMPDEST DUP2 PUSH1 0x40 MLOAD SWAP4 DUP3 DUP6 DUP1 SWAP5 MLOAD SWAP4 DUP5 SWAP3 ADD PUSH2 0x2B40 JUMP JUMPDEST DUP2 ADD PUSH1 0x7 DUP2 MSTORE SUB ADD SWAP1 KECCAK256 DUP1 SLOAD PUSH1 0x1 DUP3 ADD SLOAD SWAP2 PUSH2 0x241 PUSH1 0x2 DUP3 ADD PUSH2 0x2BF3 JUMP JUMPDEST PUSH2 0x27F PUSH1 0x4 PUSH1 0x3 DUP5 ADD SLOAD SWAP4 ADD SLOAD SWAP2 PUSH1 0xFF PUSH1 0x40 MLOAD SWAP7 DUP8 SWAP7 DUP8 MSTORE DUP2 DUP2 AND ISZERO ISZERO PUSH1 0x20 DUP9 ADD MSTORE PUSH1 0x8 SHR AND ISZERO ISZERO PUSH1 0x40 DUP7 ADD MSTORE PUSH1 0xC0 PUSH1 0x60 DUP7 ADD MSTORE PUSH1 0xC0 DUP6 ADD SWAP1 PUSH2 0x2B63 JUMP JUMPDEST SWAP2 PUSH1 0x80 DUP5 ADD MSTORE PUSH1 0xA0 DUP4 ADD MSTORE SUB SWAP1 RETURN JUMPDEST POP CALLVALUE PUSH2 0x1B0 JUMPI PUSH1 0x60 CALLDATASIZE PUSH1 0x3 NOT ADD SLT PUSH2 0x1B0 JUMPI PUSH1 0x4 CALLDATALOAD PUSH1 0x1 PUSH1 0x1 PUSH1 0x40 SHL SUB DUP2 GT PUSH2 0x780 JUMPI PUSH2 0x2BF SWAP1 CALLDATASIZE SWAP1 PUSH1 0x4 ADD PUSH2 0x2E3A JUMP JUMPDEST SWAP1 PUSH1 0x24 CALLDATALOAD PUSH1 0x1 PUSH1 0x1 PUSH1 0x40 SHL SUB DUP2 GT PUSH2 0x780 JUMPI PUSH2 0x2DF SWAP1 CALLDATASIZE SWAP1 PUSH1 0x4 ADD PUSH2 0x2E3A JUMP JUMPDEST PUSH1 0x44 CALLDATALOAD PUSH1 0x1 PUSH1 0x1 PUSH1 0x40 SHL SUB DUP2 GT PUSH2 0x77C JUMPI PUSH2 0x2FE SWAP1 CALLDATASIZE SWAP1 PUSH1 0x4 ADD PUSH2 0x2EB8 JUMP JUMPDEST CALLER DUP4 MSTORE PUSH1 0x4 PUSH1 0x20 MSTORE PUSH1 0x40 DUP4 KECCAK256 SLOAD ISZERO PUSH2 0x73E JUMPI DUP4 MLOAD DUP3 MLOAD SUB PUSH2 0x6F9 JUMPI DUP4 MLOAD DUP2 MLOAD SUB PUSH2 0x6B5 JUMPI SWAP2 CALLER SWAP1 DUP1 JUMPDEST DUP6 MLOAD DUP2 LT ISZERO PUSH2 0x572 JUMPI DUP1 PUSH2 0x33D PUSH1 0x1 SWAP3 DUP9 PUSH2 0x311C JUMP JUMPDEST MLOAD PUSH2 0x348 DUP3 DUP8 PUSH2 0x311C JUMP JUMPDEST MLOAD SWAP1 PUSH2 0x354 DUP4 DUP10 PUSH2 0x311C JUMP JUMPDEST MLOAD ISZERO ISZERO SWAP2 PUSH1 0x40 MLOAD PUSH2 0x388 PUSH1 0xFF DUP8 DUP6 MLOAD SWAP4 PUSH1 0x20 DUP2 DUP2 DUP10 ADD SWAP7 PUSH2 0x376 DUP2 DUP4 DUP11 PUSH2 0x2B40 JUMP JUMPDEST DUP2 ADD PUSH1 0x7 DUP2 MSTORE SUB ADD SWAP1 KECCAK256 ADD SLOAD AND PUSH2 0x3130 JUMP JUMPDEST PUSH2 0x3B7 PUSH1 0xFF DUP8 PUSH1 0x40 MLOAD PUSH1 0x20 DUP2 DUP9 MLOAD PUSH2 0x3A1 DUP2 DUP4 DUP11 PUSH2 0x2B40 JUMP JUMPDEST DUP2 ADD PUSH1 0x7 DUP2 MSTORE SUB ADD SWAP1 KECCAK256 ADD SLOAD PUSH1 0x8 SHR AND ISZERO PUSH2 0x3178 JUMP JUMPDEST PUSH2 0x3EF PUSH1 0xFF PUSH1 0x40 PUSH1 0x5 DUP2 MLOAD PUSH1 0x20 DUP2 DUP10 MLOAD PUSH2 0x3D2 DUP2 DUP4 DUP12 PUSH2 0x2B40 JUMP JUMPDEST DUP2 ADD PUSH1 0x7 DUP2 MSTORE SUB ADD SWAP1 KECCAK256 ADD PUSH1 0x0 SWAP1 DUP13 DUP3 MSTORE PUSH1 0x20 MSTORE KECCAK256 SLOAD AND ISZERO PUSH2 0x31C3 JUMP JUMPDEST PUSH2 0x3F8 DUP4 PUSH2 0x3C11 JUMP JUMPDEST PUSH2 0x558 JUMPI PUSH1 0x0 DUP1 MLOAD PUSH1 0x20 PUSH2 0x4640 DUP4 CODECOPY DUP2 MLOAD SWAP2 MSTORE SWAP3 SWAP2 PUSH2 0x4BB SWAP2 PUSH2 0x458 PUSH1 0x40 MLOAD PUSH1 0x20 DUP2 DUP8 MLOAD PUSH2 0x427 DUP2 DUP4 DUP9 PUSH2 0x2B40 JUMP JUMPDEST DUP2 ADD PUSH1 0x6 DUP2 MSTORE SUB ADD SWAP1 KECCAK256 PUSH1 0x40 MLOAD SWAP1 PUSH2 0x43E DUP3 PUSH2 0x2A6A JUMP JUMPDEST CALLER DUP3 MSTORE DUP5 PUSH1 0x20 DUP4 ADD MSTORE DUP9 PUSH1 0x40 DUP4 ADD MSTORE TIMESTAMP PUSH1 0x60 DUP4 ADD MSTORE PUSH2 0x324E JUMP JUMPDEST DUP9 DUP5 DUP8 PUSH1 0x40 DUP14 PUSH1 0x5 DUP3 MLOAD PUSH1 0x20 DUP2 DUP8 MLOAD PUSH2 0x472 DUP2 DUP4 DUP14 PUSH2 0x2B40 JUMP JUMPDEST DUP2 ADD PUSH1 0x7 DUP2 MSTORE SUB ADD SWAP1 KECCAK256 ADD PUSH1 0x0 SWAP2 DUP3 MSTORE PUSH1 0x20 MSTORE KECCAK256 DUP12 PUSH1 0xFF NOT DUP3 SLOAD AND OR SWAP1 SSTORE PUSH2 0x4D4 JUMPI JUMPDEST POP POP POP PUSH2 0x4AD PUSH1 0x40 MLOAD SWAP4 PUSH1 0x80 DUP6 MSTORE PUSH1 0x80 DUP6 ADD SWAP1 PUSH2 0x2B63 JUMP JUMPDEST SWAP1 DUP4 DUP3 SUB PUSH1 0x20 DUP6 ADD MSTORE PUSH2 0x2B63 JUMP JUMPDEST SWAP3 PUSH1 0x40 DUP3 ADD MSTORE TIMESTAMP PUSH1 0x60 DUP3 ADD MSTORE DUP1 CALLER SWAP4 SUB SWAP1 LOG2 JUMPDEST ADD PUSH2 0x327 JUMP JUMPDEST PUSH1 0x7 PUSH2 0x536 PUSH1 0x20 PUSH1 0x40 PUSH2 0x54E SWAP6 PUSH2 0x50F PUSH1 0x6 PUSH2 0x4FF DUP6 DUP12 PUSH2 0x546 SWAP11 DUP8 MLOAD SWAP4 DUP5 SWAP3 DUP4 SWAP3 MLOAD SWAP3 DUP4 SWAP2 PUSH2 0x2B40 JUMP JUMPDEST DUP2 ADD DUP11 DUP2 MSTORE SUB ADD SWAP1 KECCAK256 ADD DUP11 PUSH2 0x2CBD JUMP JUMPDEST PUSH2 0x519 DUP2 SLOAD PUSH2 0x30A0 JUMP JUMPDEST SWAP1 SSTORE CALLER DUP2 MSTORE PUSH1 0x4 DUP4 MSTORE KECCAK256 SLOAD SWAP6 PUSH1 0x40 MLOAD DUP1 SWAP4 DUP2 SWAP3 DUP13 MLOAD SWAP3 DUP4 SWAP2 PUSH2 0x2B40 JUMP JUMPDEST DUP2 ADD DUP5 DUP2 MSTORE SUB ADD SWAP1 KECCAK256 ADD DUP5 PUSH2 0x2CBD JUMP JUMPDEST SWAP2 DUP3 SLOAD PUSH2 0x3093 JUMP JUMPDEST SWAP1 SSTORE CODESIZE DUP9 DUP5 PUSH2 0x495 JUMP JUMPDEST POP POP PUSH2 0x56D SWAP2 POP PUSH2 0x567 PUSH2 0x320E JUMP JUMPDEST SWAP1 PUSH2 0x3C4B JUMP JUMPDEST PUSH2 0x4CE JUMP JUMPDEST POP DUP5 DUP1 MLOAD PUSH2 0x57E JUMPI POP DUP1 RETURN JUMPDEST PUSH2 0x592 PUSH2 0x58C PUSH1 0x4 SWAP3 PUSH2 0x310F JUMP JUMPDEST MLOAD PUSH2 0x2C97 JUMP JUMPDEST ADD SLOAD DUP1 ISZERO ISZERO DUP1 PUSH2 0x6A6 JUMPI JUMPDEST PUSH2 0x5A5 JUMPI POP DUP1 RETURN JUMPDEST DUP2 MSTORE PUSH1 0x8 PUSH1 0x20 MSTORE PUSH2 0x5BB PUSH1 0x1 PUSH1 0x40 DUP4 KECCAK256 ADD PUSH2 0x303B JUMP JUMPDEST SWAP1 DUP1 JUMPDEST DUP3 MLOAD DUP2 LT ISZERO PUSH2 0x6A0 JUMPI DUP1 PUSH2 0x5D4 PUSH1 0x1 SWAP3 DUP6 PUSH2 0x311C JUMP JUMPDEST MLOAD PUSH1 0x40 MLOAD PUSH1 0xFF DUP5 DUP4 MLOAD SWAP3 PUSH1 0x20 DUP2 DUP2 DUP8 ADD SWAP6 PUSH2 0x5F0 DUP2 DUP4 DUP10 PUSH2 0x2B40 JUMP JUMPDEST DUP2 ADD PUSH1 0x7 DUP2 MSTORE SUB ADD SWAP1 KECCAK256 ADD SLOAD AND SWAP1 DUP2 PUSH2 0x66D JUMPI JUMPDEST POP PUSH2 0x611 JUMPI JUMPDEST POP ADD PUSH2 0x5BE JUMP JUMPDEST PUSH2 0x61A DUP2 PUSH2 0x414A JUMP JUMPDEST DUP1 MLOAD ISZERO PUSH2 0x65B JUMPI PUSH1 0x0 DUP1 MLOAD PUSH1 0x20 PUSH2 0x4620 DUP4 CODECOPY DUP2 MLOAD SWAP2 MSTORE SWAP2 PUSH2 0x642 PUSH2 0x63C PUSH2 0x33F3 JUMP JUMPDEST DUP3 PUSH2 0x3C4B JUMP JUMPDEST PUSH2 0x651 PUSH1 0x40 MLOAD SWAP3 DUP4 SWAP3 DUP4 PUSH2 0x3013 JUMP JUMPDEST SUB SWAP1 LOG1 JUMPDEST DUP5 PUSH2 0x60A JUMP JUMPDEST POP PUSH2 0x668 SWAP1 PUSH2 0x567 PUSH2 0x33BB JUMP JUMPDEST PUSH2 0x655 JUMP JUMPDEST PUSH1 0xFF SWAP2 POP PUSH2 0x689 PUSH1 0x20 DUP7 SWAP3 PUSH1 0x40 MLOAD DUP1 SWAP4 DUP2 SWAP3 DUP9 MLOAD SWAP3 DUP4 SWAP2 PUSH2 0x2B40 JUMP JUMPDEST DUP2 ADD PUSH1 0x7 DUP2 MSTORE SUB ADD SWAP1 KECCAK256 ADD SLOAD PUSH1 0x8 SHR AND ISZERO DUP7 PUSH2 0x604 JUMP JUMPDEST POP SWAP1 POP DUP1 RETURN JUMPDEST POP PUSH2 0x6B0 DUP2 PUSH2 0x40A3 JUMP JUMPDEST PUSH2 0x59D JUMP JUMPDEST PUSH1 0x64 PUSH1 0x40 MLOAD PUSH3 0x461BCD PUSH1 0xE5 SHL DUP2 MSTORE PUSH1 0x20 PUSH1 0x4 DUP3 ADD MSTORE PUSH1 0x20 PUSH1 0x24 DUP3 ADD MSTORE PUSH32 0x4D69736D6174636865642073616D706C6549647320616E6420737570706F7274 PUSH1 0x44 DUP3 ADD MSTORE REVERT JUMPDEST PUSH1 0x40 MLOAD PUSH3 0x461BCD PUSH1 0xE5 SHL DUP2 MSTORE PUSH1 0x20 PUSH1 0x4 DUP3 ADD MSTORE PUSH1 0x1F PUSH1 0x24 DUP3 ADD MSTORE PUSH32 0x4D69736D6174636865642073616D706C6549647320616E64206C6162656C7300 PUSH1 0x44 DUP3 ADD MSTORE PUSH1 0x64 SWAP1 REVERT JUMPDEST PUSH1 0x40 MLOAD PUSH3 0x461BCD PUSH1 0xE5 SHL DUP2 MSTORE PUSH1 0x20 PUSH1 0x4 DUP3 ADD MSTORE PUSH1 0x16 PUSH1 0x24 DUP3 ADD MSTORE PUSH22 0x2737BA1030903932B3B4B9BA32B932B2103B37BA32B9 PUSH1 0x51 SHL PUSH1 0x44 DUP3 ADD MSTORE PUSH1 0x64 SWAP1 REVERT JUMPDEST DUP3 DUP1 REVERT JUMPDEST POP DUP1 REVERT JUMPDEST POP CALLVALUE PUSH2 0x1B0 JUMPI PUSH1 0x20 CALLDATASIZE PUSH1 0x3 NOT ADD SLT PUSH2 0x1B0 JUMPI PUSH1 0x4 CALLDATALOAD SWAP1 PUSH1 0x1 PUSH1 0x1 PUSH1 0x40 SHL SUB DUP3 GT PUSH2 0x1B0 JUMPI PUSH1 0x20 PUSH2 0x7BF PUSH2 0x7BA CALLDATASIZE PUSH1 0x4 DUP7 ADD PUSH2 0x2AF4 JUMP JUMPDEST PUSH2 0x3B62 JUMP JUMPDEST PUSH1 0x40 MLOAD SWAP1 ISZERO ISZERO DUP2 MSTORE RETURN JUMPDEST POP CALLVALUE PUSH2 0x1B0 JUMPI PUSH1 0x20 CALLDATASIZE PUSH1 0x3 NOT ADD SLT PUSH2 0x1B0 JUMPI PUSH1 0x4 CALLDATALOAD PUSH1 0x1 PUSH1 0x1 PUSH1 0x40 SHL SUB DUP2 GT PUSH2 0x780 JUMPI PUSH2 0x7FA SWAP1 CALLDATASIZE SWAP1 PUSH1 0x4 ADD PUSH2 0x2AF4 JUMP JUMPDEST PUSH1 0x40 MLOAD DUP2 MLOAD SWAP1 PUSH1 0x20 DUP2 DUP2 DUP6 ADD SWAP4 PUSH2 0x812 DUP2 DUP4 DUP8 PUSH2 0x2B40 JUMP JUMPDEST DUP2 ADD PUSH1 0x7 DUP2 MSTORE SUB ADD SWAP1 KECCAK256 SWAP1 DUP4 PUSH1 0x5 SLOAD SWAP1 PUSH1 0x5 DUP5 ADD SWAP1 JUMPDEST DUP3 DUP2 LT PUSH2 0x89A JUMPI POP POP POP PUSH1 0x2 PUSH2 0x85A PUSH1 0x20 PUSH2 0x86C SWAP4 PUSH1 0xFF PUSH1 0x1 DUP8 ADD SLOAD PUSH1 0x8 SHR AND SWAP7 PUSH1 0x40 MLOAD SWAP4 DUP5 SWAP3 DUP4 SWAP3 MLOAD SWAP3 DUP4 SWAP2 PUSH2 0x2B40 JUMP JUMPDEST DUP2 ADD PUSH1 0x6 DUP2 MSTORE SUB ADD SWAP1 KECCAK256 SLOAD SWAP3 ADD PUSH2 0x2BF3 JUMP JUMPDEST SWAP3 PUSH2 0x88B PUSH1 0x40 MLOAD SWAP5 DUP6 SWAP5 ISZERO ISZERO DUP6 MSTORE PUSH1 0x80 PUSH1 0x20 DUP7 ADD MSTORE PUSH1 0x80 DUP6 ADD SWAP1 PUSH2 0x2B63 JUMP JUMPDEST SWAP2 PUSH1 0x40 DUP5 ADD MSTORE PUSH1 0x60 DUP4 ADD MSTORE SUB SWAP1 RETURN JUMPDEST PUSH1 0xFF PUSH1 0x40 PUSH2 0x8A7 DUP4 PUSH2 0x2B88 JUMP JUMPDEST SWAP1 SLOAD PUSH1 0x3 SWAP2 SWAP1 SWAP2 SHL SHR PUSH1 0x1 PUSH1 0x1 PUSH1 0xA0 SHL SUB AND PUSH1 0x0 SWAP1 DUP2 MSTORE PUSH1 0x20 DUP6 SWAP1 MSTORE KECCAK256 SLOAD AND PUSH2 0x8D3 JUMPI JUMPDEST PUSH1 0x1 ADD PUSH2 0x828 JUMP JUMPDEST SWAP6 PUSH2 0x8DF PUSH1 0x1 SWAP2 PUSH2 0x30A0 JUMP JUMPDEST SWAP7 SWAP1 POP PUSH2 0x8CB JUMP JUMPDEST POP CALLVALUE PUSH2 0x1B0 JUMPI PUSH1 0x60 CALLDATASIZE PUSH1 0x3 NOT ADD SLT PUSH2 0x1B0 JUMPI PUSH1 0x4 CALLDATALOAD PUSH1 0x1 PUSH1 0x1 PUSH1 0x40 SHL SUB DUP2 GT PUSH2 0x780 JUMPI PUSH2 0x918 SWAP1 CALLDATASIZE SWAP1 PUSH1 0x4 ADD PUSH2 0x2D6F JUMP JUMPDEST PUSH1 0x24 CALLDATALOAD PUSH1 0x1 PUSH1 0x1 PUSH1 0x40 SHL SUB DUP2 GT PUSH2 0x77C JUMPI PUSH2 0x937 SWAP1 CALLDATASIZE SWAP1 PUSH1 0x4 ADD PUSH2 0x2E3A JUMP JUMPDEST PUSH1 0x44 CALLDATALOAD PUSH1 0x1 PUSH1 0x1 PUSH1 0x40 SHL SUB DUP2 GT PUSH2 0xC32 JUMPI PUSH2 0x956 SWAP1 CALLDATASIZE SWAP1 PUSH1 0x4 ADD PUSH2 0x2DDD JUMP JUMPDEST SWAP3 DUP3 MLOAD DUP3 MLOAD SUB PUSH2 0xBE2 JUMPI DUP3 MLOAD DUP5 MLOAD SUB PUSH2 0xB91 JUMPI DUP1 SWAP4 DUP2 JUMPDEST DUP5 MLOAD DUP2 LT ISZERO PUSH2 0xA17 JUMPI PUSH2 0x980 DUP2 DUP6 PUSH2 0x311C JUMP JUMPDEST MLOAD PUSH1 0x20 DUP2 MLOAD SWAP2 ADD KECCAK256 PUSH2 0x990 PUSH2 0x3A9B JUMP JUMPDEST PUSH1 0x20 DUP2 MLOAD SWAP2 ADD KECCAK256 EQ DUP1 ISZERO PUSH2 0x9EF JUMPI JUMPDEST DUP1 ISZERO PUSH2 0x9C7 JUMPI JUMPDEST PUSH2 0x9B3 JUMPI JUMPDEST PUSH1 0x1 ADD PUSH2 0x96D JUMP JUMPDEST SWAP5 PUSH2 0x9BF PUSH1 0x1 SWAP2 PUSH2 0x30A0 JUMP JUMPDEST SWAP6 SWAP1 POP PUSH2 0x9AB JUMP JUMPDEST POP PUSH2 0x9D2 DUP2 DUP6 PUSH2 0x311C JUMP JUMPDEST MLOAD PUSH1 0x20 DUP2 MLOAD SWAP2 ADD KECCAK256 PUSH2 0x9E2 PUSH2 0x3AE9 JUMP JUMPDEST PUSH1 0x20 DUP2 MLOAD SWAP2 ADD KECCAK256 EQ PUSH2 0x9A6 JUMP JUMPDEST POP PUSH2 0x9FA DUP2 DUP6 PUSH2 0x311C JUMP JUMPDEST MLOAD PUSH1 0x20 DUP2 MLOAD SWAP2 ADD KECCAK256 PUSH2 0xA0A PUSH2 0x3AC0 JUMP JUMPDEST PUSH1 0x20 DUP2 MLOAD SWAP2 ADD KECCAK256 EQ PUSH2 0x99F JUMP JUMPDEST POP SWAP1 SWAP3 PUSH2 0xA23 DUP6 PUSH2 0x2D58 JUMP JUMPDEST SWAP1 PUSH2 0xA31 PUSH1 0x40 MLOAD SWAP3 DUP4 PUSH2 0x2AB6 JUMP JUMPDEST DUP6 DUP3 MSTORE PUSH2 0xA52 PUSH2 0xA40 DUP8 PUSH2 0x2D58 JUMP JUMPDEST PUSH1 0x20 DUP5 ADD SWAP8 SWAP1 PUSH1 0x1F NOT ADD CALLDATASIZE DUP10 CALLDATACOPY PUSH2 0x3815 JUMP JUMPDEST SWAP4 DUP6 SWAP7 DUP7 JUMPDEST DUP4 MLOAD DUP2 LT ISZERO PUSH2 0xB37 JUMPI PUSH2 0xA6A DUP2 DUP5 PUSH2 0x311C JUMP JUMPDEST MLOAD PUSH1 0x20 DUP2 MLOAD SWAP2 ADD KECCAK256 PUSH2 0xA7A PUSH2 0x3A9B JUMP JUMPDEST PUSH1 0x20 DUP2 MLOAD SWAP2 ADD KECCAK256 EQ DUP1 ISZERO PUSH2 0xB0F JUMPI JUMPDEST DUP1 ISZERO PUSH2 0xAE7 JUMPI JUMPDEST PUSH2 0xA9D JUMPI JUMPDEST PUSH1 0x1 ADD PUSH2 0xA57 JUMP JUMPDEST SWAP8 PUSH1 0x1 SWAP1 PUSH2 0xADF SWAP1 PUSH1 0x1 PUSH1 0x1 PUSH1 0xA0 SHL SUB PUSH2 0xAB7 DUP13 DUP9 PUSH2 0x311C JUMP JUMPDEST MLOAD AND PUSH2 0xAC3 DUP3 DUP10 PUSH2 0x311C JUMP JUMPDEST MSTORE PUSH2 0xACE DUP12 DUP10 PUSH2 0x311C JUMP JUMPDEST MLOAD PUSH2 0xAD9 DUP3 DUP12 PUSH2 0x311C JUMP JUMPDEST MSTORE PUSH2 0x30A0 JUMP JUMPDEST SWAP9 SWAP1 POP PUSH2 0xA95 JUMP JUMPDEST POP PUSH2 0xAF2 DUP2 DUP5 PUSH2 0x311C JUMP JUMPDEST MLOAD PUSH1 0x20 DUP2 MLOAD SWAP2 ADD KECCAK256 PUSH2 0xB02 PUSH2 0x3AE9 JUMP JUMPDEST PUSH1 0x20 DUP2 MLOAD SWAP2 ADD KECCAK256 EQ PUSH2 0xA90 JUMP JUMPDEST POP PUSH2 0xB1A DUP2 DUP5 PUSH2 0x311C JUMP JUMPDEST MLOAD PUSH1 0x20 DUP2 MLOAD SWAP2 ADD KECCAK256 PUSH2 0xB2A PUSH2 0x3AC0 JUMP JUMPDEST PUSH1 0x20 DUP2 MLOAD SWAP2 ADD KECCAK256 EQ PUSH2 0xA89 JUMP JUMPDEST POP DUP4 DUP7 DUP9 PUSH1 0x40 MLOAD SWAP3 PUSH1 0x40 DUP5 ADD SWAP1 PUSH1 0x40 DUP6 MSTORE MLOAD DUP1 SWAP2 MSTORE PUSH1 0x60 DUP5 ADD SWAP5 SWAP2 JUMPDEST DUP2 DUP2 LT PUSH2 0xB72 JUMPI DUP5 DUP1 PUSH2 0xB6E DUP9 DUP8 DUP4 DUP3 SUB PUSH1 0x20 DUP6 ADD MSTORE PUSH2 0x2F1F JUMP JUMPDEST SUB SWAP1 RETURN JUMPDEST DUP3 MLOAD PUSH1 0x1 PUSH1 0x1 PUSH1 0xA0 SHL SUB AND DUP7 MSTORE PUSH1 0x20 SWAP6 DUP7 ADD SWAP6 SWAP1 SWAP3 ADD SWAP2 PUSH1 0x1 ADD PUSH2 0xB53 JUMP JUMPDEST PUSH1 0x40 MLOAD PUSH3 0x461BCD PUSH1 0xE5 SHL DUP2 MSTORE PUSH1 0x20 PUSH1 0x4 DUP3 ADD MSTORE PUSH1 0x24 DUP1 DUP3 ADD MSTORE PUSH32 0x5061727469636970616E74732F77656967687473206C656E677468206D69736D PUSH1 0x44 DUP3 ADD MSTORE PUSH4 0xC2E8C6D PUSH1 0xE3 SHL PUSH1 0x64 DUP3 ADD MSTORE PUSH1 0x84 SWAP1 REVERT JUMPDEST PUSH1 0x40 MLOAD PUSH3 0x461BCD PUSH1 0xE5 SHL DUP2 MSTORE PUSH1 0x20 PUSH1 0x4 DUP3 ADD MSTORE PUSH1 0x22 PUSH1 0x24 DUP3 ADD MSTORE PUSH32 0x5061727469636970616E74732F726F6C6573206C656E677468206D69736D6174 PUSH1 0x44 DUP3 ADD MSTORE PUSH2 0xC6D PUSH1 0xF3 SHL PUSH1 0x64 DUP3 ADD MSTORE PUSH1 0x84 SWAP1 REVERT JUMPDEST DUP4 DUP1 REVERT JUMPDEST POP CALLVALUE PUSH2 0x1B0 JUMPI PUSH1 0x20 CALLDATASIZE PUSH1 0x3 NOT ADD SLT PUSH2 0x1B0 JUMPI PUSH1 0x4 CALLDATALOAD PUSH2 0xC5F PUSH1 0x1 DUP1 PUSH1 0xA0 SHL SUB DUP4 SLOAD AND CALLER EQ PUSH2 0x30AF JUMP JUMPDEST DUP1 DUP3 MSTORE PUSH1 0x8 PUSH1 0x20 MSTORE PUSH1 0xFF PUSH1 0x3 PUSH1 0x40 DUP5 KECCAK256 ADD SLOAD AND ISZERO PUSH2 0xD57 JUMPI DUP2 MSTORE PUSH1 0x8 PUSH1 0x20 MSTORE PUSH2 0xC8D PUSH1 0x1 PUSH1 0x40 DUP4 KECCAK256 ADD PUSH2 0x303B JUMP JUMPDEST DUP2 JUMPDEST DUP2 MLOAD DUP2 LT ISZERO PUSH2 0xD53 JUMPI DUP1 PUSH2 0xCA5 PUSH1 0x1 SWAP3 DUP5 PUSH2 0x311C JUMP JUMPDEST MLOAD PUSH1 0x40 MLOAD PUSH1 0xFF DUP5 DUP4 MLOAD SWAP3 PUSH1 0x20 DUP2 DUP2 DUP8 ADD SWAP6 PUSH2 0xCC1 DUP2 DUP4 DUP10 PUSH2 0x2B40 JUMP JUMPDEST DUP2 ADD PUSH1 0x7 DUP2 MSTORE SUB ADD SWAP1 KECCAK256 ADD SLOAD AND SWAP1 DUP2 PUSH2 0xD20 JUMPI JUMPDEST POP PUSH2 0xCE2 JUMPI JUMPDEST POP ADD PUSH2 0xC8F JUMP JUMPDEST PUSH2 0xD1A SWAP1 PUSH1 0x40 SWAP1 PUSH2 0xCF5 DUP3 MLOAD SWAP3 DUP4 PUSH2 0x2AB6 JUMP JUMPDEST PUSH1 0x13 DUP3 MSTORE PUSH19 0x4D616E75616C20626174636820656E64696E67 PUSH1 0x68 SHL PUSH1 0x20 DUP4 ADD MSTORE PUSH2 0x3C4B JUMP JUMPDEST CODESIZE PUSH2 0xCDB JUMP JUMPDEST PUSH1 0xFF SWAP2 POP PUSH2 0xD3C PUSH1 0x20 DUP7 SWAP3 PUSH1 0x40 MLOAD DUP1 SWAP4 DUP2 SWAP3 DUP9 MLOAD SWAP3 DUP4 SWAP2 PUSH2 0x2B40 JUMP JUMPDEST DUP2 ADD PUSH1 0x7 DUP2 MSTORE SUB ADD SWAP1 KECCAK256 ADD SLOAD PUSH1 0x8 SHR AND ISZERO CODESIZE PUSH2 0xCD5 JUMP JUMPDEST DUP3 DUP1 RETURN JUMPDEST PUSH1 0x40 MLOAD PUSH3 0x461BCD PUSH1 0xE5 SHL DUP2 MSTORE PUSH1 0x20 PUSH1 0x4 DUP3 ADD MSTORE PUSH1 0x10 PUSH1 0x24 DUP3 ADD MSTORE PUSH16 0x4261746368206E6F7420616374697665 PUSH1 0x80 SHL PUSH1 0x44 DUP3 ADD MSTORE PUSH1 0x64 SWAP1 REVERT JUMPDEST POP CALLVALUE PUSH2 0x1B0 JUMPI PUSH1 0x20 CALLDATASIZE PUSH1 0x3 NOT ADD SLT PUSH2 0x1B0 JUMPI PUSH1 0x4 CALLDATALOAD SWAP1 PUSH1 0x1 PUSH1 0x1 PUSH1 0x40 SHL SUB DUP3 GT PUSH2 0x1B0 JUMPI PUSH2 0xDE8 PUSH2 0xDF6 PUSH2 0xB6E PUSH2 0xDD1 PUSH2 0xDCC CALLDATASIZE PUSH1 0x4 DUP9 ADD PUSH2 0x2AF4 JUMP JUMPDEST PUSH2 0x3847 JUMP JUMPDEST SWAP2 SWAP4 SWAP1 PUSH1 0x40 MLOAD SWAP6 DUP7 SWAP6 PUSH1 0x60 DUP8 MSTORE PUSH1 0x60 DUP8 ADD SWAP1 PUSH2 0x2CFF JUMP JUMPDEST SWAP1 DUP6 DUP3 SUB PUSH1 0x20 DUP8 ADD MSTORE PUSH2 0x2F1F JUMP JUMPDEST SWAP1 DUP4 DUP3 SUB PUSH1 0x40 DUP6 ADD MSTORE PUSH2 0x2F1F JUMP JUMPDEST POP CALLVALUE PUSH2 0x1B0 JUMPI PUSH1 0x20 CALLDATASIZE PUSH1 0x3 NOT ADD SLT PUSH2 0x1B0 JUMPI PUSH1 0x40 PUSH1 0x80 SWAP2 PUSH1 0x4 CALLDATALOAD DUP2 MSTORE PUSH1 0x8 PUSH1 0x20 MSTORE KECCAK256 DUP1 SLOAD SWAP1 PUSH1 0x2 DUP2 ADD SLOAD SWAP1 PUSH1 0x4 PUSH1 0xFF PUSH1 0x3 DUP4 ADD SLOAD AND SWAP2 ADD SLOAD SWAP2 PUSH1 0x40 MLOAD SWAP4 DUP5 MSTORE PUSH1 0x20 DUP5 ADD MSTORE ISZERO ISZERO PUSH1 0x40 DUP4 ADD MSTORE PUSH1 0x60 DUP3 ADD MSTORE RETURN JUMPDEST POP CALLVALUE PUSH2 0x1B0 JUMPI DUP1 PUSH1 0x3 NOT CALLDATASIZE ADD SLT PUSH2 0x1B0 JUMPI PUSH1 0x5 SLOAD PUSH2 0xE73 DUP2 PUSH2 0x2D58 JUMP JUMPDEST SWAP1 PUSH2 0xE81 PUSH1 0x40 MLOAD SWAP3 DUP4 PUSH2 0x2AB6 JUMP JUMPDEST DUP1 DUP3 MSTORE PUSH1 0x1F NOT PUSH2 0xE90 DUP3 PUSH2 0x2D58 JUMP JUMPDEST ADD DUP4 JUMPDEST DUP2 DUP2 LT PUSH2 0xF6D JUMPI POP POP DUP3 JUMPDEST DUP2 DUP2 LT PUSH2 0xF00 JUMPI DUP3 DUP5 PUSH1 0x40 MLOAD SWAP2 DUP3 SWAP2 PUSH1 0x20 DUP4 ADD PUSH1 0x20 DUP5 MSTORE DUP3 MLOAD DUP1 SWAP2 MSTORE PUSH1 0x20 PUSH1 0x40 DUP6 ADD SWAP4 ADD SWAP2 JUMPDEST DUP2 DUP2 LT PUSH2 0xED2 JUMPI POP POP POP SUB SWAP1 RETURN JUMPDEST DUP3 MLOAD DUP1 MLOAD PUSH1 0x1 PUSH1 0x1 PUSH1 0xA0 SHL SUB AND DUP6 MSTORE PUSH1 0x20 SWAP1 DUP2 ADD MLOAD DUP2 DUP7 ADD MSTORE DUP7 SWAP6 POP PUSH1 0x40 SWAP1 SWAP5 ADD SWAP4 SWAP1 SWAP3 ADD SWAP2 PUSH1 0x1 ADD PUSH2 0xEC4 JUMP JUMPDEST DUP1 PUSH2 0xF0C PUSH1 0x1 SWAP3 PUSH2 0x2B88 JUMP JUMPDEST DUP4 DUP1 PUSH1 0xA0 SHL SUB SWAP2 SLOAD SWAP1 PUSH1 0x3 SHL SHR AND PUSH2 0xF23 DUP3 PUSH2 0x2B88 JUMP JUMPDEST DUP5 DUP1 PUSH1 0xA0 SHL SUB SWAP2 SLOAD SWAP1 PUSH1 0x3 SHL SHR AND DUP7 MSTORE PUSH1 0x4 PUSH1 0x20 MSTORE PUSH1 0x40 DUP7 KECCAK256 SLOAD PUSH1 0x40 MLOAD SWAP2 PUSH2 0xF4A DUP4 PUSH2 0x2A9B JUMP JUMPDEST DUP3 MSTORE PUSH1 0x20 DUP3 ADD MSTORE PUSH2 0xF5B DUP3 DUP7 PUSH2 0x311C JUMP JUMPDEST MSTORE PUSH2 0xF66 DUP2 DUP6 PUSH2 0x311C JUMP JUMPDEST POP ADD PUSH2 0xE9E JUMP JUMPDEST PUSH1 0x20 SWAP1 PUSH1 0x40 MLOAD PUSH2 0xF7C DUP2 PUSH2 0x2A9B JUMP JUMPDEST DUP7 DUP2 MSTORE DUP7 DUP4 DUP3 ADD MSTORE DUP3 DUP3 DUP8 ADD ADD MSTORE ADD PUSH2 0xE93 JUMP JUMPDEST POP CALLVALUE PUSH2 0x1B0 JUMPI PUSH1 0x60 CALLDATASIZE PUSH1 0x3 NOT ADD SLT PUSH2 0x1B0 JUMPI PUSH1 0x4 CALLDATALOAD PUSH1 0x1 PUSH1 0x1 PUSH1 0x40 SHL SUB DUP2 GT PUSH2 0x780 JUMPI PUSH2 0xFC1 SWAP1 CALLDATASIZE SWAP1 PUSH1 0x4 ADD PUSH2 0x2E3A JUMP JUMPDEST PUSH1 0x24 CALLDATALOAD SWAP2 PUSH1 0x44 CALLDATALOAD PUSH1 0x1 PUSH1 0x1 PUSH1 0x40 SHL SUB DUP2 GT PUSH2 0x780 JUMPI PUSH2 0xFE4 SWAP1 CALLDATASIZE SWAP1 PUSH1 0x4 ADD PUSH2 0x2E3A JUMP JUMPDEST SWAP2 PUSH2 0xFF9 PUSH1 0x1 DUP1 PUSH1 0xA0 SHL SUB DUP4 SLOAD AND CALLER EQ PUSH2 0x30AF JUMP JUMPDEST DUP1 MLOAD ISZERO PUSH2 0x16DB JUMPI DUP1 MLOAD DUP4 MLOAD SUB PUSH2 0x1688 JUMPI DUP4 DUP3 MSTORE PUSH1 0x8 PUSH1 0x20 MSTORE PUSH1 0xFF PUSH1 0x3 PUSH1 0x40 DUP5 KECCAK256 ADD SLOAD AND PUSH2 0x1637 JUMPI DUP4 DUP3 MSTORE PUSH1 0x8 PUSH1 0x20 MSTORE DUP4 PUSH1 0x40 DUP4 KECCAK256 SSTORE DUP4 DUP3 MSTORE PUSH1 0x8 PUSH1 0x20 MSTORE PUSH1 0x1 PUSH1 0x40 DUP4 KECCAK256 ADD DUP2 MLOAD SWAP1 PUSH1 0x1 PUSH1 0x40 SHL DUP3 GT PUSH2 0x1623 JUMPI DUP1 SLOAD DUP3 DUP3 SSTORE DUP1 DUP4 LT PUSH2 0x15AD JUMPI JUMPDEST POP DUP4 MSTORE PUSH1 0x20 DUP1 DUP5 KECCAK256 DUP5 SWAP2 DUP5 ADD JUMPDEST DUP4 DUP4 LT PUSH2 0x14A1 JUMPI POP POP POP POP DUP4 DUP3 MSTORE PUSH1 0x8 PUSH1 0x20 MSTORE DUP2 PUSH1 0x2 PUSH1 0x40 DUP3 KECCAK256 ADD SSTORE DUP4 DUP3 MSTORE PUSH1 0x8 PUSH1 0x20 MSTORE PUSH1 0x3 PUSH1 0x40 DUP4 KECCAK256 ADD PUSH1 0x1 PUSH1 0xFF NOT DUP3 SLOAD AND OR SWAP1 SSTORE DUP4 DUP3 MSTORE PUSH1 0x8 PUSH1 0x20 MSTORE TIMESTAMP PUSH1 0x4 PUSH1 0x40 DUP5 KECCAK256 ADD SSTORE DUP2 JUMPDEST DUP2 MLOAD DUP2 LT ISZERO PUSH2 0x11FB JUMPI PUSH2 0x10C1 DUP2 DUP6 PUSH2 0x311C JUMP JUMPDEST MLOAD DUP6 DUP5 MSTORE PUSH1 0x8 PUSH1 0x20 MSTORE PUSH2 0x10E4 PUSH1 0x5 PUSH1 0x40 DUP7 KECCAK256 ADD PUSH2 0x10DE DUP5 DUP7 PUSH2 0x311C JUMP JUMPDEST MLOAD PUSH2 0x2CBD JUMP JUMPDEST DUP2 MLOAD SWAP1 SWAP2 PUSH1 0x1 PUSH1 0x1 PUSH1 0x40 SHL SUB DUP3 GT PUSH2 0x11E7 JUMPI PUSH2 0x1100 DUP4 SLOAD PUSH2 0x2BB9 JUMP JUMPDEST PUSH1 0x1F DUP2 GT PUSH2 0x11AC JUMPI JUMPDEST POP PUSH1 0x20 SWAP1 PUSH1 0x1F DUP4 GT PUSH1 0x1 EQ PUSH2 0x1145 JUMPI SWAP2 DUP1 PUSH2 0x1131 SWAP3 PUSH1 0x1 SWAP7 SWAP6 SWAP5 DUP10 SWAP3 PUSH2 0x113A JUMPI JUMPDEST POP POP PUSH2 0x323B JUMP JUMPDEST SWAP1 SSTORE JUMPDEST ADD PUSH2 0x10AE JUMP JUMPDEST ADD MLOAD SWAP1 POP CODESIZE DUP1 PUSH2 0x112A JUMP JUMPDEST DUP4 DUP8 MSTORE DUP2 DUP8 KECCAK256 SWAP2 SWAP1 PUSH1 0x1F NOT DUP5 AND DUP9 JUMPDEST DUP2 DUP2 LT PUSH2 0x1194 JUMPI POP SWAP2 PUSH1 0x1 SWAP7 SWAP6 SWAP5 SWAP3 SWAP2 DUP4 DUP9 SWAP6 SWAP4 LT PUSH2 0x117B JUMPI JUMPDEST POP POP POP DUP2 SHL ADD SWAP1 SSTORE PUSH2 0x1134 JUMP JUMPDEST ADD MLOAD PUSH1 0x0 NOT PUSH1 0xF8 DUP5 PUSH1 0x3 SHL AND SHR NOT AND SWAP1 SSTORE CODESIZE DUP1 DUP1 PUSH2 0x116E JUMP JUMPDEST SWAP3 SWAP4 PUSH1 0x20 PUSH1 0x1 DUP2 SWAP3 DUP8 DUP7 ADD MLOAD DUP2 SSTORE ADD SWAP6 ADD SWAP4 ADD PUSH2 0x1154 JUMP JUMPDEST PUSH2 0x11D7 SWAP1 DUP5 DUP9 MSTORE PUSH1 0x20 DUP9 KECCAK256 PUSH1 0x1F DUP6 ADD PUSH1 0x5 SHR DUP2 ADD SWAP2 PUSH1 0x20 DUP7 LT PUSH2 0x11DD JUMPI JUMPDEST PUSH1 0x1F ADD PUSH1 0x5 SHR ADD SWAP1 PUSH2 0x30F8 JUMP JUMPDEST CODESIZE PUSH2 0x1109 JUMP JUMPDEST SWAP1 SWAP2 POP DUP2 SWAP1 PUSH2 0x11CA JUMP JUMPDEST PUSH4 0x4E487B71 PUSH1 0xE0 SHL DUP7 MSTORE PUSH1 0x41 PUSH1 0x4 MSTORE PUSH1 0x24 DUP7 REVERT JUMPDEST POP DUP4 DUP1 PUSH1 0x9 SSTORE DUP3 JUMPDEST DUP3 MLOAD DUP2 LT ISZERO PUSH2 0x1455 JUMPI PUSH2 0x1216 DUP2 DUP5 PUSH2 0x311C JUMP JUMPDEST MLOAD PUSH1 0x40 MLOAD SWAP1 PUSH1 0xFF PUSH1 0x1 DUP3 MLOAD SWAP4 PUSH1 0x20 DUP2 DUP2 DUP7 ADD SWAP7 PUSH2 0x1234 DUP2 DUP4 DUP11 PUSH2 0x2B40 JUMP JUMPDEST DUP2 ADD PUSH1 0x7 DUP2 MSTORE SUB ADD SWAP1 KECCAK256 ADD SLOAD AND PUSH2 0x1406 JUMPI PUSH1 0xFF PUSH1 0x1 PUSH1 0x40 MLOAD PUSH1 0x20 DUP2 DUP6 MLOAD PUSH2 0x125C DUP2 DUP4 DUP11 PUSH2 0x2B40 JUMP JUMPDEST DUP2 ADD PUSH1 0x7 DUP2 MSTORE SUB ADD SWAP1 KECCAK256 ADD SLOAD PUSH1 0x8 SHR AND PUSH2 0x13C6 JUMPI DUP4 PUSH1 0x4 PUSH2 0x1320 PUSH1 0x20 DUP10 SWAP6 PUSH1 0x40 MLOAD DUP7 MLOAD PUSH2 0x128A DUP2 DUP4 DUP6 PUSH2 0x2B40 JUMP JUMPDEST DUP2 ADD SWAP1 PUSH1 0x7 DUP3 MSTORE DUP4 DUP2 TIMESTAMP SWAP4 SUB ADD SWAP1 KECCAK256 SSTORE PUSH1 0x1 PUSH1 0x40 MLOAD DUP4 DUP2 DUP10 MLOAD PUSH2 0x12AE DUP2 DUP4 DUP9 PUSH2 0x2B40 JUMP JUMPDEST DUP2 ADD PUSH1 0x7 DUP2 MSTORE SUB ADD SWAP1 KECCAK256 ADD PUSH1 0x1 PUSH1 0xFF NOT DUP3 SLOAD AND OR SWAP1 SSTORE PUSH1 0x1 PUSH1 0x40 MLOAD DUP4 DUP2 DUP10 MLOAD PUSH2 0x12D8 DUP2 DUP4 DUP9 PUSH2 0x2B40 JUMP JUMPDEST DUP2 ADD PUSH1 0x7 DUP2 MSTORE SUB ADD SWAP1 KECCAK256 ADD PUSH2 0xFF00 NOT DUP2 SLOAD AND SWAP1 SSTORE PUSH1 0x5 SLOAD PUSH1 0x3 PUSH1 0x40 MLOAD DUP5 DUP2 DUP11 MLOAD PUSH2 0x1303 DUP2 DUP4 DUP10 PUSH2 0x2B40 JUMP JUMPDEST DUP2 ADD PUSH1 0x7 DUP2 MSTORE SUB ADD SWAP1 KECCAK256 ADD SSTORE PUSH1 0x40 MLOAD DUP1 SWAP4 DUP2 SWAP3 DUP9 MLOAD SWAP3 DUP4 SWAP2 PUSH2 0x2B40 JUMP JUMPDEST DUP2 ADD PUSH1 0x7 DUP2 MSTORE SUB ADD SWAP1 KECCAK256 ADD SSTORE PUSH32 0x1A6063EA5A85373503082E9047EBBDE10C2EF86A0029B81921668E4A2EA190E3 PUSH1 0x40 MLOAD DUP1 PUSH2 0x135C TIMESTAMP DUP6 DUP4 PUSH2 0x2FF7 JUMP JUMPDEST SUB SWAP1 LOG1 DUP2 SLOAD PUSH1 0x1 PUSH1 0x1 PUSH1 0xA0 SHL SUB AND DUP1 EXTCODESIZE ISZERO PUSH2 0x77C JUMPI PUSH1 0x40 MLOAD PUSH4 0xB2BE4D65 PUSH1 0xE0 SHL DUP2 MSTORE PUSH1 0x20 PUSH1 0x4 DUP3 ADD MSTORE SWAP2 DUP4 SWAP2 DUP4 SWAP2 DUP3 SWAP1 DUP5 SWAP1 DUP3 SWAP1 PUSH2 0x139E SWAP1 PUSH1 0x24 DUP4 ADD SWAP1 PUSH2 0x2B63 JUMP JUMPDEST SUB SWAP3 GAS CALL PUSH2 0x13B1 JUMPI JUMPDEST POP POP PUSH1 0x1 ADD PUSH2 0x1203 JUMP JUMPDEST DUP2 PUSH2 0x13BB SWAP2 PUSH2 0x2AB6 JUMP JUMPDEST PUSH2 0xC32 JUMPI DUP4 DUP6 PUSH2 0x13A7 JUMP JUMPDEST PUSH1 0x40 MLOAD PUSH3 0x461BCD PUSH1 0xE5 SHL DUP2 MSTORE PUSH1 0x20 PUSH1 0x4 DUP3 ADD MSTORE PUSH1 0x18 PUSH1 0x24 DUP3 ADD MSTORE PUSH24 0x14D85B5C1B1948185B1C9958591E48199A5B985B1A5E9959 PUSH1 0x42 SHL PUSH1 0x44 DUP3 ADD MSTORE PUSH1 0x64 SWAP1 REVERT JUMPDEST PUSH1 0x40 MLOAD PUSH3 0x461BCD PUSH1 0xE5 SHL DUP2 MSTORE PUSH1 0x20 PUSH1 0x4 DUP3 ADD MSTORE PUSH1 0x21 PUSH1 0x24 DUP3 ADD MSTORE PUSH32 0x53616D706C6520616C726561647920686173206163746976652073657373696F PUSH1 0x44 DUP3 ADD MSTORE PUSH1 0x37 PUSH1 0xF9 SHL PUSH1 0x64 DUP3 ADD MSTORE PUSH1 0x84 SWAP1 REVERT JUMPDEST POP SWAP1 PUSH32 0x915B7F3F33CA682A46C0A82BCAE59307624896B80801E6EA2C6E702A10499ECE SWAP2 PUSH2 0x1495 PUSH1 0x40 MLOAD SWAP3 DUP4 SWAP3 DUP4 MSTORE PUSH1 0x60 PUSH1 0x20 DUP5 ADD MSTORE PUSH1 0x60 DUP4 ADD SWAP1 PUSH2 0x2CFF JUMP JUMPDEST TIMESTAMP PUSH1 0x40 DUP4 ADD MSTORE SUB SWAP1 LOG1 DUP1 RETURN JUMPDEST DUP1 MLOAD DUP1 MLOAD SWAP1 PUSH1 0x1 PUSH1 0x1 PUSH1 0x40 SHL SUB DUP3 GT PUSH2 0x1599 JUMPI PUSH2 0x14BE DUP5 SLOAD PUSH2 0x2BB9 JUMP JUMPDEST PUSH1 0x1F DUP2 GT PUSH2 0x1569 JUMPI JUMPDEST POP PUSH1 0x20 SWAP1 PUSH1 0x1F DUP4 GT PUSH1 0x1 EQ PUSH2 0x1500 JUMPI SWAP3 PUSH2 0x14F1 DUP4 PUSH1 0x1 SWAP6 SWAP5 PUSH1 0x20 SWAP5 DUP8 SWAP7 DUP14 SWAP3 PUSH2 0x113A JUMPI POP POP PUSH2 0x323B JUMP JUMPDEST DUP6 SSTORE JUMPDEST ADD SWAP3 ADD SWAP3 ADD SWAP2 SWAP1 PUSH2 0x1065 JUMP JUMPDEST DUP5 DUP10 MSTORE DUP2 DUP10 KECCAK256 SWAP2 SWAP1 PUSH1 0x1F NOT DUP5 AND DUP11 JUMPDEST DUP2 DUP2 LT PUSH2 0x1551 JUMPI POP SWAP4 PUSH1 0x20 SWAP4 PUSH1 0x1 SWAP7 SWAP4 DUP8 SWAP7 SWAP4 DUP4 DUP9 SWAP6 LT PUSH2 0x1538 JUMPI JUMPDEST POP POP POP DUP2 SHL ADD DUP6 SSTORE PUSH2 0x14F4 JUMP JUMPDEST ADD MLOAD PUSH1 0x0 NOT PUSH1 0xF8 DUP5 PUSH1 0x3 SHL AND SHR NOT AND SWAP1 SSTORE CODESIZE DUP1 DUP1 PUSH2 0x152B JUMP JUMPDEST SWAP3 SWAP4 PUSH1 0x20 PUSH1 0x1 DUP2 SWAP3 DUP8 DUP7 ADD MLOAD DUP2 SSTORE ADD SWAP6 ADD SWAP4 ADD PUSH2 0x150F JUMP JUMPDEST PUSH2 0x1593 SWAP1 DUP6 DUP11 MSTORE PUSH1 0x20 DUP11 KECCAK256 PUSH1 0x1F DUP6 ADD PUSH1 0x5 SHR DUP2 ADD SWAP2 PUSH1 0x20 DUP7 LT PUSH2 0x11DD JUMPI PUSH1 0x1F ADD PUSH1 0x5 SHR ADD SWAP1 PUSH2 0x30F8 JUMP JUMPDEST CODESIZE PUSH2 0x14C7 JUMP JUMPDEST PUSH4 0x4E487B71 PUSH1 0xE0 SHL DUP9 MSTORE PUSH1 0x41 PUSH1 0x4 MSTORE PUSH1 0x24 DUP9 REVERT JUMPDEST DUP2 DUP6 MSTORE DUP3 PUSH1 0x20 DUP7 KECCAK256 SWAP2 DUP3 ADD SWAP2 ADD JUMPDEST DUP2 DUP2 LT PUSH2 0x15C8 JUMPI POP PUSH2 0x1058 JUMP JUMPDEST DUP1 PUSH2 0x15D5 PUSH1 0x1 SWAP3 SLOAD PUSH2 0x2BB9 JUMP JUMPDEST DUP1 PUSH2 0x15E2 JUMPI JUMPDEST POP ADD PUSH2 0x15BB JUMP JUMPDEST PUSH1 0x1F DUP2 GT DUP4 EQ PUSH2 0x15F7 JUMPI POP DUP7 DUP2 SSTORE JUMPDEST CODESIZE PUSH2 0x15DB JUMP JUMPDEST DUP2 DUP9 MSTORE PUSH1 0x20 DUP9 KECCAK256 PUSH2 0x1612 SWAP2 PUSH1 0x1F ADD PUSH1 0x5 SHR DUP2 ADD SWAP1 DUP5 ADD PUSH2 0x30F8 JUMP JUMPDEST DUP1 DUP8 MSTORE DUP7 PUSH1 0x20 DUP2 KECCAK256 DUP2 DUP4 SSTORE SSTORE PUSH2 0x15F1 JUMP JUMPDEST PUSH4 0x4E487B71 PUSH1 0xE0 SHL DUP5 MSTORE PUSH1 0x41 PUSH1 0x4 MSTORE PUSH1 0x24 DUP5 REVERT JUMPDEST PUSH1 0x40 MLOAD PUSH3 0x461BCD PUSH1 0xE5 SHL DUP2 MSTORE PUSH1 0x20 PUSH1 0x4 DUP3 ADD MSTORE PUSH1 0x23 PUSH1 0x24 DUP3 ADD MSTORE PUSH32 0x426174636820616C72656164792061637469766520666F72207468697320726F PUSH1 0x44 DUP3 ADD MSTORE PUSH3 0x1D5B99 PUSH1 0xEA SHL PUSH1 0x64 DUP3 ADD MSTORE PUSH1 0x84 SWAP1 REVERT JUMPDEST PUSH1 0x40 MLOAD PUSH3 0x461BCD PUSH1 0xE5 SHL DUP2 MSTORE PUSH1 0x20 PUSH1 0x4 DUP3 ADD MSTORE PUSH1 0x25 PUSH1 0x24 DUP3 ADD MSTORE PUSH32 0x53616D706C652049447320616E6420686173686573206C656E677468206D6973 PUSH1 0x44 DUP3 ADD MSTORE PUSH5 0xDAC2E8C6D PUSH1 0xDB SHL PUSH1 0x64 DUP3 ADD MSTORE PUSH1 0x84 SWAP1 REVERT JUMPDEST PUSH1 0x40 MLOAD PUSH3 0x461BCD PUSH1 0xE5 SHL DUP2 MSTORE PUSH1 0x20 PUSH1 0x4 DUP3 ADD MSTORE PUSH1 0x12 PUSH1 0x24 DUP3 ADD MSTORE PUSH18 0x8ADAE0E8F240E6C2DAE0D8CA40C4C2E8C6D PUSH1 0x73 SHL PUSH1 0x44 DUP3 ADD MSTORE PUSH1 0x64 SWAP1 REVERT JUMPDEST POP CALLVALUE PUSH2 0x1B0 JUMPI PUSH1 0xA0 CALLDATASIZE PUSH1 0x3 NOT ADD SLT PUSH2 0x1B0 JUMPI PUSH1 0x4 CALLDATALOAD PUSH1 0x1 PUSH1 0x1 PUSH1 0x40 SHL SUB DUP2 GT PUSH2 0x780 JUMPI PUSH2 0x1746 SWAP1 CALLDATASIZE SWAP1 PUSH1 0x4 ADD PUSH2 0x2E3A JUMP JUMPDEST PUSH1 0x24 CALLDATALOAD PUSH1 0x1 PUSH1 0x1 PUSH1 0x40 SHL SUB DUP2 GT PUSH2 0x77C JUMPI PUSH2 0x1765 SWAP1 CALLDATASIZE SWAP1 PUSH1 0x4 ADD PUSH2 0x2EB8 JUMP JUMPDEST SWAP2 PUSH1 0x44 CALLDATALOAD SWAP1 PUSH1 0x1 PUSH1 0x1 PUSH1 0x40 SHL SUB DUP3 GT PUSH2 0x1B0 JUMPI PUSH2 0x17BA PUSH2 0x17D6 PUSH2 0x17C8 PUSH2 0x17A0 DUP8 DUP8 PUSH2 0x1793 CALLDATASIZE PUSH1 0x4 DUP11 ADD PUSH2 0x2E3A JUMP JUMPDEST PUSH1 0x84 CALLDATALOAD SWAP3 PUSH1 0x64 CALLDATALOAD SWAP3 PUSH2 0x34EB JUMP JUMPDEST SWAP4 SWAP6 SWAP3 PUSH1 0x40 SWAP6 SWAP2 SWAP6 MLOAD SWAP8 DUP9 SWAP8 PUSH1 0xA0 DUP10 MSTORE PUSH1 0xA0 DUP10 ADD SWAP1 PUSH2 0x2CFF JUMP JUMPDEST SWAP1 DUP8 DUP3 SUB PUSH1 0x20 DUP10 ADD MSTORE PUSH2 0x2CFF JUMP JUMPDEST SWAP1 DUP6 DUP3 SUB PUSH1 0x40 DUP8 ADD MSTORE PUSH2 0x2CFF JUMP JUMPDEST SWAP2 PUSH1 0x60 DUP5 ADD MSTORE PUSH1 0x80 DUP4 ADD MSTORE SUB SWAP1 RETURN JUMPDEST POP CALLVALUE PUSH2 0x1B0 JUMPI PUSH1 0x60 CALLDATASIZE PUSH1 0x3 NOT ADD SLT PUSH2 0x1B0 JUMPI PUSH1 0x24 CALLDATALOAD PUSH1 0x1 PUSH1 0x1 PUSH1 0x40 SHL SUB DUP2 GT PUSH2 0x780 JUMPI PUSH2 0x1816 SWAP1 CALLDATASIZE SWAP1 PUSH1 0x4 ADD PUSH2 0x2E3A JUMP JUMPDEST PUSH1 0x44 CALLDATALOAD PUSH1 0x1 PUSH1 0x1 PUSH1 0x40 SHL SUB DUP2 GT PUSH2 0x77C JUMPI PUSH2 0x1835 SWAP1 CALLDATASIZE SWAP1 PUSH1 0x4 ADD PUSH2 0x2EB8 JUMP JUMPDEST SWAP2 PUSH2 0x1843 DUP3 MLOAD DUP5 MLOAD EQ PUSH2 0x3422 JUMP JUMPDEST DUP1 DUP1 JUMPDEST DUP4 MLOAD DUP3 LT ISZERO PUSH2 0x1897 JUMPI PUSH2 0x1859 DUP3 DUP7 PUSH2 0x311C JUMP JUMPDEST MLOAD ISZERO PUSH2 0x1873 JUMPI PUSH2 0x186A PUSH1 0x1 SWAP2 PUSH2 0x30A0 JUMP JUMPDEST SWAP2 JUMPDEST ADD SWAP1 PUSH2 0x1846 JUMP JUMPDEST SWAP1 DUP4 MLOAD PUSH2 0x1883 JUMPI JUMPDEST PUSH1 0x1 SWAP1 PUSH2 0x186C JUMP JUMPDEST SWAP2 PUSH2 0x188F PUSH1 0x1 SWAP2 PUSH2 0x30A0 JUMP JUMPDEST SWAP3 SWAP1 POP PUSH2 0x187B JUMP JUMPDEST DUP4 MLOAD DUP4 DUP2 ISZERO ISZERO DUP7 DUP2 PUSH2 0x18E0 JUMPI JUMPDEST PUSH2 0x18D4 SWAP2 SWAP3 PUSH1 0x40 MLOAD SWAP6 DUP7 SWAP6 PUSH1 0x4 CALLDATALOAD DUP8 MSTORE PUSH1 0x20 DUP8 ADD MSTORE PUSH1 0x40 DUP7 ADD MSTORE PUSH1 0x60 DUP6 ADD MSTORE PUSH1 0xC0 PUSH1 0x80 DUP6 ADD MSTORE PUSH1 0xC0 DUP5 ADD SWAP1 PUSH2 0x2CFF JUMP JUMPDEST SWAP1 ISZERO ISZERO PUSH1 0xA0 DUP4 ADD MSTORE SUB SWAP1 RETURN JUMPDEST DUP5 ISZERO ISZERO SWAP2 POP PUSH2 0x18A4 JUMP JUMPDEST POP CALLVALUE PUSH2 0x1B0 JUMPI DUP1 PUSH1 0x3 NOT CALLDATASIZE ADD SLT PUSH2 0x1B0 JUMPI PUSH1 0x20 PUSH1 0x2 SLOAD PUSH1 0x40 MLOAD SWAP1 DUP2 MSTORE RETURN JUMPDEST POP CALLVALUE PUSH2 0x1B0 JUMPI PUSH1 0x60 CALLDATASIZE PUSH1 0x3 NOT ADD SLT PUSH2 0x1B0 JUMPI PUSH1 0x4 CALLDATALOAD PUSH1 0x1 PUSH1 0x1 PUSH1 0x40 SHL SUB DUP2 GT PUSH2 0x780 JUMPI PUSH2 0x1939 SWAP1 CALLDATASIZE SWAP1 PUSH1 0x4 ADD PUSH2 0x2E3A JUMP JUMPDEST PUSH1 0x24 CALLDATALOAD PUSH1 0x1 PUSH1 0x1 PUSH1 0x40 SHL SUB DUP2 GT PUSH2 0x77C JUMPI PUSH2 0x1958 SWAP1 CALLDATASIZE SWAP1 PUSH1 0x4 ADD PUSH2 0x2E3A JUMP JUMPDEST PUSH1 0x44 CALLDATALOAD PUSH1 0x1 PUSH1 0x1 PUSH1 0xA0 SHL SUB DUP2 AND SWAP2 SWAP1 DUP3 SWAP1 SUB PUSH2 0xC32 JUMPI PUSH2 0x1982 PUSH1 0x1 DUP1 PUSH1 0xA0 SHL SUB DUP6 SLOAD AND CALLER EQ PUSH2 0x30AF JUMP JUMPDEST DUP3 MLOAD DUP2 MLOAD SUB PUSH2 0x1D31 JUMPI DUP3 MLOAD ISZERO PUSH2 0x1CFE JUMPI DUP2 DUP5 MSTORE PUSH1 0x4 PUSH1 0x20 MSTORE PUSH1 0x40 DUP5 KECCAK256 SLOAD ISZERO PUSH2 0x1CC2 JUMPI DUP4 SWAP3 DUP5 JUMPDEST DUP2 MLOAD DUP2 LT ISZERO PUSH2 0x1BAB JUMPI PUSH2 0x19BB DUP2 DUP4 PUSH2 0x311C JUMP JUMPDEST MLOAD DUP7 PUSH2 0x19C7 DUP4 DUP7 PUSH2 0x311C JUMP JUMPDEST MLOAD PUSH1 0x40 MLOAD PUSH2 0x19E7 PUSH1 0xFF PUSH1 0x1 DUP7 MLOAD SWAP4 PUSH1 0x20 DUP2 DUP2 DUP11 ADD SWAP7 PUSH2 0x376 DUP2 DUP4 DUP11 PUSH2 0x2B40 JUMP JUMPDEST PUSH2 0x1A01 PUSH1 0xFF PUSH1 0x1 PUSH1 0x40 MLOAD PUSH1 0x20 DUP2 DUP10 MLOAD PUSH2 0x3A1 DUP2 DUP4 DUP11 PUSH2 0x2B40 JUMP JUMPDEST PUSH2 0x1A1C PUSH1 0xFF PUSH1 0x40 PUSH1 0x5 DUP2 MLOAD PUSH1 0x20 DUP2 DUP11 MLOAD PUSH2 0x3D2 DUP2 DUP4 DUP12 PUSH2 0x2B40 JUMP JUMPDEST DUP5 ISZERO PUSH2 0x1B70 JUMPI JUMPDEST SWAP2 DUP4 SWAP2 DUP9 SWAP4 PUSH2 0x1A34 PUSH1 0x1 SWAP8 SWAP7 PUSH2 0x3C11 JUMP JUMPDEST PUSH2 0x1B5B JUMPI PUSH1 0x0 DUP1 MLOAD PUSH1 0x20 PUSH2 0x4640 DUP4 CODECOPY DUP2 MLOAD SWAP2 MSTORE SWAP4 SWAP3 SWAP2 PUSH2 0x1B45 SWAP2 PUSH2 0x1A95 PUSH1 0x40 MLOAD PUSH1 0x20 DUP2 DUP9 MLOAD PUSH2 0x1A64 DUP2 DUP4 DUP9 PUSH2 0x2B40 JUMP JUMPDEST DUP2 ADD PUSH1 0x6 DUP2 MSTORE SUB ADD SWAP1 KECCAK256 PUSH1 0x40 MLOAD SWAP1 PUSH2 0x1A7B DUP3 PUSH2 0x2A6A JUMP JUMPDEST DUP10 DUP3 MSTORE DUP5 PUSH1 0x20 DUP4 ADD MSTORE DUP12 PUSH1 0x40 DUP4 ADD MSTORE TIMESTAMP PUSH1 0x60 DUP4 ADD MSTORE PUSH2 0x324E JUMP JUMPDEST PUSH1 0x40 PUSH1 0x5 DUP2 MLOAD PUSH1 0x20 DUP2 DUP10 MLOAD PUSH2 0x1AAB DUP2 DUP4 DUP10 PUSH2 0x2B40 JUMP JUMPDEST DUP2 ADD PUSH1 0x7 DUP2 MSTORE SUB ADD SWAP1 KECCAK256 ADD PUSH1 0x0 SWAP1 DUP10 DUP3 MSTORE PUSH1 0x20 MSTORE KECCAK256 DUP10 PUSH1 0xFF NOT DUP3 SLOAD AND OR SWAP1 SSTORE PUSH2 0x1AF3 PUSH1 0x6 PUSH1 0x40 MLOAD PUSH1 0x20 DUP2 DUP10 MLOAD PUSH2 0x1AE2 DUP2 DUP4 DUP10 PUSH2 0x2B40 JUMP JUMPDEST DUP2 ADD PUSH1 0x7 DUP2 MSTORE SUB ADD SWAP1 KECCAK256 ADD DUP4 PUSH2 0x2CBD JUMP JUMPDEST PUSH2 0x1AFD DUP2 SLOAD PUSH2 0x30A0 JUMP JUMPDEST SWAP1 SSTORE DUP7 DUP5 MSTORE PUSH1 0x4 PUSH1 0x20 MSTORE PUSH2 0x1B2B PUSH2 0x546 PUSH1 0x7 PUSH2 0x536 PUSH1 0x20 PUSH1 0x40 DUP10 KECCAK256 SLOAD SWAP6 PUSH1 0x40 MLOAD DUP1 SWAP4 DUP2 SWAP3 DUP14 MLOAD SWAP3 DUP4 SWAP2 PUSH2 0x2B40 JUMP JUMPDEST SWAP1 SSTORE PUSH2 0x4AD PUSH1 0x40 MLOAD SWAP5 DUP6 SWAP5 POP PUSH1 0x80 DUP6 MSTORE PUSH1 0x80 DUP6 ADD SWAP1 PUSH2 0x2B63 JUMP JUMPDEST DUP7 PUSH1 0x40 DUP4 ADD MSTORE TIMESTAMP PUSH1 0x60 DUP4 ADD MSTORE SUB SWAP1 LOG2 JUMPDEST ADD PUSH2 0x19A8 JUMP JUMPDEST POP POP POP PUSH2 0x1B6B SWAP2 POP PUSH2 0x567 PUSH2 0x320E JUMP JUMPDEST PUSH2 0x1B55 JUMP JUMPDEST SWAP8 POP SWAP2 DUP7 SWAP2 PUSH1 0x1 SWAP5 SWAP4 PUSH1 0x4 PUSH2 0x1B92 PUSH1 0x20 DUP13 PUSH1 0x40 MLOAD DUP1 SWAP4 DUP2 SWAP3 DUP10 MLOAD SWAP3 DUP4 SWAP2 PUSH2 0x2B40 JUMP JUMPDEST DUP2 ADD PUSH1 0x7 DUP2 MSTORE SUB ADD SWAP1 KECCAK256 ADD SLOAD SWAP10 SWAP2 SWAP4 POP SWAP2 SWAP4 SWAP5 POP PUSH2 0x1A23 JUMP JUMPDEST DUP6 DUP6 DUP1 ISZERO ISZERO DUP1 PUSH2 0x1CB3 JUMPI JUMPDEST PUSH2 0x1BBE JUMPI POP DUP1 RETURN JUMPDEST DUP2 MSTORE PUSH1 0x8 PUSH1 0x20 MSTORE PUSH2 0x1BD4 PUSH1 0x1 PUSH1 0x40 DUP4 KECCAK256 ADD PUSH2 0x303B JUMP JUMPDEST SWAP1 DUP1 JUMPDEST DUP3 MLOAD DUP2 LT ISZERO PUSH2 0x6A0 JUMPI DUP1 PUSH2 0x1BED PUSH1 0x1 SWAP3 DUP6 PUSH2 0x311C JUMP JUMPDEST MLOAD PUSH1 0x40 MLOAD PUSH1 0xFF DUP5 DUP4 MLOAD SWAP3 PUSH1 0x20 DUP2 DUP2 DUP8 ADD SWAP6 PUSH2 0x1C09 DUP2 DUP4 DUP10 PUSH2 0x2B40 JUMP JUMPDEST DUP2 ADD PUSH1 0x7 DUP2 MSTORE SUB ADD SWAP1 KECCAK256 ADD SLOAD AND SWAP1 DUP2 PUSH2 0x1C80 JUMPI JUMPDEST POP PUSH2 0x1C2A JUMPI JUMPDEST POP ADD PUSH2 0x1BD7 JUMP JUMPDEST PUSH2 0x1C33 DUP2 PUSH2 0x414A JUMP JUMPDEST DUP1 MLOAD ISZERO PUSH2 0x1C6E JUMPI PUSH1 0x0 DUP1 MLOAD PUSH1 0x20 PUSH2 0x4620 DUP4 CODECOPY DUP2 MLOAD SWAP2 MSTORE SWAP2 PUSH2 0x1C55 PUSH2 0x63C PUSH2 0x33F3 JUMP JUMPDEST PUSH2 0x1C64 PUSH1 0x40 MLOAD SWAP3 DUP4 SWAP3 DUP4 PUSH2 0x3013 JUMP JUMPDEST SUB SWAP1 LOG1 JUMPDEST DUP5 PUSH2 0x1C23 JUMP JUMPDEST POP PUSH2 0x1C7B SWAP1 PUSH2 0x567 PUSH2 0x33BB JUMP JUMPDEST PUSH2 0x1C68 JUMP JUMPDEST PUSH1 0xFF SWAP2 POP PUSH2 0x1C9C PUSH1 0x20 DUP7 SWAP3 PUSH1 0x40 MLOAD DUP1 SWAP4 DUP2 SWAP3 DUP9 MLOAD SWAP3 DUP4 SWAP2 PUSH2 0x2B40 JUMP JUMPDEST DUP2 ADD PUSH1 0x7 DUP2 MSTORE SUB ADD SWAP1 KECCAK256 ADD SLOAD PUSH1 0x8 SHR AND ISZERO DUP7 PUSH2 0x1C1D JUMP JUMPDEST POP PUSH2 0x1CBD DUP2 PUSH2 0x40A3 JUMP JUMPDEST PUSH2 0x1BB6 JUMP JUMPDEST PUSH1 0x40 MLOAD PUSH3 0x461BCD PUSH1 0xE5 SHL DUP2 MSTORE PUSH1 0x20 PUSH1 0x4 DUP3 ADD MSTORE PUSH1 0x14 PUSH1 0x24 DUP3 ADD MSTORE PUSH20 0x159BDD195C881B9BDD081C9959DA5CDD195C9959 PUSH1 0x62 SHL PUSH1 0x44 DUP3 ADD MSTORE PUSH1 0x64 SWAP1 REVERT JUMPDEST PUSH1 0x40 MLOAD PUSH3 0x461BCD PUSH1 0xE5 SHL DUP2 MSTORE PUSH1 0x20 PUSH1 0x4 DUP3 ADD MSTORE PUSH1 0xB PUSH1 0x24 DUP3 ADD MSTORE PUSH11 0x8ADAE0E8F240C4C2E8C6D PUSH1 0xAB SHL PUSH1 0x44 DUP3 ADD MSTORE PUSH1 0x64 SWAP1 REVERT JUMPDEST PUSH1 0x40 MLOAD PUSH3 0x461BCD PUSH1 0xE5 SHL DUP2 MSTORE PUSH1 0x20 PUSH1 0x4 DUP3 ADD MSTORE PUSH1 0x11 PUSH1 0x24 DUP3 ADD MSTORE PUSH17 0x4D69736D61746368656420617272617973 PUSH1 0x78 SHL PUSH1 0x44 DUP3 ADD MSTORE PUSH1 0x64 SWAP1 REVERT JUMPDEST POP CALLVALUE PUSH2 0x1B0 JUMPI DUP1 PUSH1 0x3 NOT CALLDATASIZE ADD SLT PUSH2 0x1B0 JUMPI PUSH1 0x20 PUSH1 0x9 SLOAD PUSH1 0x40 MLOAD SWAP1 DUP2 MSTORE RETURN JUMPDEST POP CALLVALUE PUSH2 0x1B0 JUMPI DUP1 PUSH1 0x3 NOT CALLDATASIZE ADD SLT PUSH2 0x1B0 JUMPI PUSH1 0x40 PUSH1 0x9 SLOAD SWAP2 DUP3 DUP2 MSTORE PUSH1 0x8 PUSH1 0x20 MSTORE KECCAK256 SWAP1 PUSH2 0xB6E PUSH1 0xFF PUSH1 0x3 DUP5 ADD SLOAD AND SWAP3 PUSH1 0x1 DUP2 ADD PUSH2 0x1DC9 PUSH1 0x2 DUP3 SLOAD SWAP4 ADD SLOAD SWAP2 PUSH2 0x303B JUMP JUMPDEST SWAP2 PUSH1 0x40 MLOAD SWAP6 DUP7 SWAP6 DUP7 MSTORE ISZERO ISZERO PUSH1 0x20 DUP7 ADD MSTORE PUSH1 0x40 DUP6 ADD MSTORE PUSH1 0x60 DUP5 ADD MSTORE PUSH1 0xA0 PUSH1 0x80 DUP5 ADD MSTORE PUSH1 0xA0 DUP4 ADD SWAP1 PUSH2 0x2CFF JUMP JUMPDEST POP CALLVALUE PUSH2 0x1B0 JUMPI PUSH1 0x20 CALLDATASIZE PUSH1 0x3 NOT ADD SLT PUSH2 0x1B0 JUMPI PUSH1 0x4 CALLDATALOAD PUSH1 0x1 PUSH1 0x1 PUSH1 0x40 SHL SUB DUP2 GT PUSH2 0x780 JUMPI PUSH1 0x20 PUSH2 0x210 PUSH2 0x1E2A SWAP3 CALLDATASIZE SWAP1 PUSH1 0x4 ADD PUSH2 0x2AF4 JUMP JUMPDEST DUP2 ADD PUSH1 0x6 DUP2 MSTORE SUB ADD SWAP1 KECCAK256 DUP1 SLOAD PUSH2 0x1E3F DUP2 PUSH2 0x2D58 JUMP JUMPDEST SWAP1 PUSH2 0x1E4D PUSH1 0x40 MLOAD SWAP3 DUP4 PUSH2 0x2AB6 JUMP JUMPDEST DUP1 DUP3 MSTORE PUSH1 0x20 DUP3 ADD DUP1 SWAP4 DUP6 MSTORE PUSH1 0x20 DUP6 KECCAK256 DUP6 SWAP2 JUMPDEST DUP4 DUP4 LT PUSH2 0x1EFB JUMPI DUP7 DUP6 DUP8 PUSH1 0x40 MLOAD SWAP3 DUP4 SWAP3 PUSH1 0x20 DUP5 ADD SWAP1 PUSH1 0x20 DUP6 MSTORE MLOAD DUP1 SWAP2 MSTORE PUSH1 0x40 DUP5 ADD PUSH1 0x40 DUP3 PUSH1 0x5 SHL DUP7 ADD ADD SWAP4 SWAP3 SWAP1 JUMPDEST DUP3 DUP3 LT PUSH2 0x1E9C JUMPI POP POP POP POP SUB SWAP1 RETURN JUMPDEST SWAP2 SWAP4 PUSH1 0x1 SWAP2 SWAP4 SWAP6 POP PUSH1 0x20 DUP1 SWAP2 PUSH1 0x3F NOT DUP10 DUP3 SUB ADD DUP6 MSTORE DUP8 MLOAD SWAP1 DUP5 DUP1 PUSH1 0xA0 SHL SUB DUP3 MLOAD AND DUP2 MSTORE PUSH1 0x60 DUP1 PUSH2 0x1ED9 DUP6 DUP6 ADD MLOAD PUSH1 0x80 DUP8 DUP7 ADD MSTORE PUSH1 0x80 DUP6 ADD SWAP1 PUSH2 0x2B63 JUMP JUMPDEST SWAP4 PUSH1 0x40 DUP2 ADD MLOAD ISZERO ISZERO PUSH1 0x40 DUP6 ADD MSTORE ADD MLOAD SWAP2 ADD MSTORE SWAP7 ADD SWAP3 ADD SWAP3 ADD DUP6 SWAP5 SWAP4 SWAP2 SWAP3 PUSH2 0x1E8D JUMP JUMPDEST PUSH1 0x4 PUSH1 0x20 PUSH1 0x1 SWAP3 PUSH1 0x40 MLOAD PUSH2 0x1F0E DUP2 PUSH2 0x2A6A JUMP JUMPDEST DUP5 DUP1 PUSH1 0xA0 SHL SUB DUP7 SLOAD AND DUP2 MSTORE PUSH2 0x1F24 DUP6 DUP8 ADD PUSH2 0x2BF3 JUMP JUMPDEST DUP4 DUP3 ADD MSTORE PUSH1 0xFF PUSH1 0x2 DUP8 ADD SLOAD AND ISZERO ISZERO PUSH1 0x40 DUP3 ADD MSTORE PUSH1 0x3 DUP7 ADD SLOAD PUSH1 0x60 DUP3 ADD MSTORE DUP2 MSTORE ADD SWAP3 ADD SWAP3 ADD SWAP2 SWAP1 PUSH2 0x1E5F JUMP JUMPDEST POP CALLVALUE PUSH2 0x1B0 JUMPI PUSH1 0x20 CALLDATASIZE PUSH1 0x3 NOT ADD SLT PUSH2 0x1B0 JUMPI PUSH1 0x4 CALLDATALOAD SWAP1 PUSH1 0x1 PUSH1 0x1 PUSH1 0x40 SHL SUB DUP3 GT PUSH2 0x1B0 JUMPI PUSH2 0x1F85 PUSH1 0x20 PUSH2 0x210 CALLDATASIZE PUSH1 0x4 DUP7 ADD PUSH2 0x2AF4 JUMP JUMPDEST DUP2 ADD PUSH1 0x7 DUP2 MSTORE SUB ADD SWAP1 KECCAK256 DUP1 SLOAD PUSH2 0xB6E PUSH2 0x1FA5 PUSH1 0x2 PUSH1 0x1 DUP6 ADD SLOAD SWAP5 ADD PUSH2 0x2BF3 JUMP JUMPDEST PUSH1 0xFF PUSH1 0x40 MLOAD SWAP5 DUP6 SWAP5 DUP6 MSTORE DUP2 DUP2 AND ISZERO ISZERO PUSH1 0x20 DUP7 ADD MSTORE PUSH1 0x8 SHR AND ISZERO ISZERO PUSH1 0x40 DUP5 ADD MSTORE PUSH1 0x80 PUSH1 0x60 DUP5 ADD MSTORE PUSH1 0x80 DUP4 ADD SWAP1 PUSH2 0x2B63 JUMP JUMPDEST POP CALLVALUE PUSH2 0x1B0 JUMPI PUSH1 0x40 CALLDATASIZE PUSH1 0x3 NOT ADD SLT PUSH2 0x1B0 JUMPI PUSH1 0x4 CALLDATALOAD PUSH1 0x1 PUSH1 0x1 PUSH1 0x40 SHL SUB DUP2 GT PUSH2 0x780 JUMPI PUSH2 0x2006 SWAP1 CALLDATASIZE SWAP1 PUSH1 0x4 ADD PUSH2 0x2D6F JUMP JUMPDEST PUSH1 0x24 CALLDATALOAD PUSH1 0x1 PUSH1 0x1 PUSH1 0x40 SHL SUB DUP2 GT PUSH2 0x77C JUMPI PUSH2 0x2025 SWAP1 CALLDATASIZE SWAP1 PUSH1 0x4 ADD PUSH2 0x2DDD JUMP JUMPDEST PUSH2 0x2039 PUSH1 0x1 DUP1 PUSH1 0xA0 SHL SUB DUP5 SLOAD AND CALLER EQ PUSH2 0x30AF JUMP JUMPDEST DUP2 MLOAD DUP2 MLOAD SUB PUSH2 0x21A7 JUMPI DUP3 JUMPDEST PUSH1 0x5 SLOAD DUP2 LT ISZERO PUSH2 0x207B JUMPI DUP1 PUSH2 0x205A PUSH1 0x1 SWAP3 PUSH2 0x2B88 JUMP JUMPDEST DUP4 DUP1 PUSH1 0xA0 SHL SUB SWAP2 SLOAD SWAP1 PUSH1 0x3 SHL SHR AND DUP6 MSTORE PUSH1 0x4 PUSH1 0x20 MSTORE DUP5 PUSH1 0x40 DUP2 KECCAK256 SSTORE ADD PUSH2 0x2044 JUMP JUMPDEST POP SWAP1 PUSH1 0x5 SLOAD DUP4 PUSH1 0x5 SSTORE DUP1 PUSH2 0x216F JUMPI JUMPDEST POP DUP3 JUMPDEST DUP2 MLOAD DUP2 LT ISZERO PUSH2 0x216B JUMPI PUSH2 0x20A0 DUP2 DUP5 PUSH2 0x311C JUMP JUMPDEST MLOAD ISZERO PUSH2 0x2126 JUMPI PUSH2 0x20B0 DUP2 DUP5 PUSH2 0x311C JUMP JUMPDEST MLOAD PUSH1 0x1 PUSH1 0x1 PUSH1 0xA0 SHL SUB PUSH2 0x20C3 DUP4 DUP6 PUSH2 0x311C JUMP JUMPDEST MLOAD AND DUP6 MSTORE PUSH1 0x4 PUSH1 0x20 MSTORE PUSH1 0x40 DUP6 KECCAK256 SSTORE PUSH1 0x1 PUSH1 0x1 PUSH1 0xA0 SHL SUB PUSH2 0x20E3 DUP3 DUP5 PUSH2 0x311C JUMP JUMPDEST MLOAD AND PUSH1 0x5 SLOAD PUSH1 0x1 PUSH1 0x40 SHL DUP2 LT ISZERO PUSH2 0x11E7 JUMPI SWAP1 PUSH2 0x2107 DUP3 PUSH1 0x1 DUP1 SWAP6 SWAP5 ADD PUSH1 0x5 SSTORE PUSH2 0x2B88 JUMP JUMPDEST DUP2 SWAP3 SWAP2 SLOAD SWAP1 PUSH1 0x3 SHL SWAP2 DUP3 SHL SWAP2 DUP6 DUP1 PUSH1 0xA0 SHL SUB SWAP1 SHL NOT AND OR SWAP1 SSTORE ADD PUSH2 0x208D JUMP JUMPDEST PUSH1 0x40 MLOAD PUSH3 0x461BCD PUSH1 0xE5 SHL DUP2 MSTORE PUSH1 0x20 PUSH1 0x4 DUP3 ADD MSTORE PUSH1 0x1D PUSH1 0x24 DUP3 ADD MSTORE PUSH32 0x576569676874206D7573742062652067726561746572207468616E2030000000 PUSH1 0x44 DUP3 ADD MSTORE PUSH1 0x64 SWAP1 REVERT JUMPDEST DUP4 DUP1 RETURN JUMPDEST PUSH1 0x5 DUP5 MSTORE PUSH2 0x21A1 SWAP1 PUSH32 0x36B6384B5ECA791C62761152D0C79BB0604C104A5FB6F4EB0703F3154BB3DB0 SWAP1 DUP2 ADD SWAP1 PUSH2 0x30F8 JUMP JUMPDEST CODESIZE PUSH2 0x208A JUMP JUMPDEST PUSH1 0x40 MLOAD PUSH3 0x461BCD PUSH1 0xE5 SHL DUP2 MSTORE PUSH1 0x20 PUSH1 0x4 DUP3 ADD MSTORE PUSH1 0x12 PUSH1 0x24 DUP3 ADD MSTORE PUSH18 0x4D69736D617463686564206C656E67746873 PUSH1 0x70 SHL PUSH1 0x44 DUP3 ADD MSTORE PUSH1 0x64 SWAP1 REVERT JUMPDEST POP CALLVALUE PUSH2 0x1B0 JUMPI PUSH1 0x20 CALLDATASIZE PUSH1 0x3 NOT ADD SLT PUSH2 0x1B0 JUMPI PUSH1 0x4 CALLDATALOAD PUSH1 0x1 PUSH1 0x1 PUSH1 0x40 SHL SUB DUP2 GT PUSH2 0x780 JUMPI PUSH1 0x20 PUSH2 0x210 PUSH2 0x2217 SWAP3 CALLDATASIZE SWAP1 PUSH1 0x4 ADD PUSH2 0x2AF4 JUMP JUMPDEST DUP2 ADD PUSH1 0x7 DUP2 MSTORE SUB ADD SWAP1 KECCAK256 SWAP1 DUP1 PUSH1 0x2 SLOAD DUP1 ISZERO ISZERO DUP1 PUSH2 0x2336 JUMPI JUMPDEST DUP1 PUSH2 0x2324 JUMPI JUMPDEST PUSH2 0x22FF JUMPI JUMPDEST POP DUP2 SWAP3 PUSH1 0x5 SLOAD PUSH1 0x5 DUP3 ADD SWAP5 JUMPDEST DUP2 DUP2 LT PUSH2 0x22B2 JUMPI POP POP PUSH1 0xFF SWAP4 POP PUSH1 0x1 DUP2 ADD SLOAD SWAP3 DUP2 SLOAD SWAP3 PUSH2 0x2299 PUSH2 0x2270 PUSH1 0x2 PUSH1 0x3 DUP7 ADD SLOAD SWAP6 ADD PUSH2 0x2BF3 JUMP JUMPDEST PUSH1 0x40 MLOAD SWAP8 DUP8 DUP2 DUP11 SWAP10 AND ISZERO ISZERO DUP10 MSTORE PUSH1 0x8 SHR AND ISZERO ISZERO PUSH1 0x20 DUP9 ADD MSTORE PUSH1 0xE0 PUSH1 0x40 DUP9 ADD MSTORE PUSH1 0xE0 DUP8 ADD SWAP1 PUSH2 0x2B63 JUMP JUMPDEST SWAP4 PUSH1 0x60 DUP7 ADD MSTORE PUSH1 0x80 DUP6 ADD MSTORE PUSH1 0xA0 DUP5 ADD MSTORE PUSH1 0xC0 DUP4 ADD MSTORE SUB SWAP1 RETURN JUMPDEST PUSH1 0xFF PUSH1 0x40 PUSH2 0x22BF DUP4 PUSH2 0x2B88 JUMP JUMPDEST SWAP1 SLOAD PUSH1 0x3 SWAP2 SWAP1 SWAP2 SHL SHR PUSH1 0x1 PUSH1 0x1 PUSH1 0xA0 SHL SUB AND PUSH1 0x0 SWAP1 DUP2 MSTORE PUSH1 0x20 DUP10 SWAP1 MSTORE KECCAK256 SLOAD AND PUSH2 0x22EB JUMPI JUMPDEST PUSH1 0x1 ADD PUSH2 0x2246 JUMP JUMPDEST SWAP4 PUSH2 0x22F7 PUSH1 0x1 SWAP2 PUSH2 0x30A0 JUMP JUMPDEST SWAP5 SWAP1 POP PUSH2 0x22E3 JUMP JUMPDEST PUSH2 0x230A SWAP1 DUP5 SLOAD PUSH2 0x3093 JUMP JUMPDEST DUP1 TIMESTAMP LT ISZERO PUSH2 0x223A JUMPI PUSH2 0x231E SWAP2 POP TIMESTAMP SWAP1 PUSH2 0x2F53 JUMP JUMPDEST CODESIZE PUSH2 0x223A JUMP JUMPDEST POP PUSH1 0xFF PUSH1 0x1 DUP6 ADD SLOAD PUSH1 0x8 SHR AND ISZERO PUSH2 0x2235 JUMP JUMPDEST POP PUSH1 0xFF PUSH1 0x1 DUP6 ADD SLOAD AND PUSH2 0x222F JUMP JUMPDEST POP CALLVALUE PUSH2 0x1B0 JUMPI PUSH1 0x20 CALLDATASIZE PUSH1 0x3 NOT ADD SLT PUSH2 0x1B0 JUMPI PUSH2 0x2372 PUSH1 0x1 PUSH1 0x40 PUSH2 0xB6E SWAP4 PUSH1 0x4 CALLDATALOAD DUP2 MSTORE PUSH1 0x8 PUSH1 0x20 MSTORE KECCAK256 ADD PUSH2 0x303B JUMP JUMPDEST PUSH1 0x40 MLOAD SWAP2 DUP3 SWAP2 PUSH1 0x20 DUP4 MSTORE PUSH1 0x20 DUP4 ADD SWAP1 PUSH2 0x2CFF JUMP JUMPDEST POP CALLVALUE PUSH2 0x1B0 JUMPI PUSH1 0x40 CALLDATASIZE PUSH1 0x3 NOT ADD SLT PUSH2 0x1B0 JUMPI PUSH1 0x4 CALLDATALOAD PUSH1 0x1 PUSH1 0x1 PUSH1 0x40 SHL SUB DUP2 GT PUSH2 0x780 JUMPI PUSH2 0x23B7 SWAP1 CALLDATASIZE SWAP1 PUSH1 0x4 ADD PUSH2 0x2AF4 JUMP JUMPDEST PUSH2 0x23D3 PUSH1 0x20 PUSH1 0x24 CALLDATALOAD SWAP3 DUP2 PUSH1 0x40 MLOAD SWAP4 DUP3 DUP6 DUP1 SWAP5 MLOAD SWAP4 DUP5 SWAP3 ADD PUSH2 0x2B40 JUMP JUMPDEST DUP2 ADD PUSH1 0x6 DUP2 MSTORE SUB ADD SWAP1 KECCAK256 DUP1 SLOAD DUP3 LT ISZERO PUSH2 0x77C JUMPI PUSH2 0x23F0 SWAP3 POP PUSH2 0x2CE3 JUMP JUMPDEST POP DUP1 SLOAD PUSH1 0x1 PUSH1 0x1 PUSH1 0xA0 SHL SUB AND PUSH2 0x2408 PUSH1 0x1 DUP4 ADD PUSH2 0x2BF3 JUMP JUMPDEST SWAP2 PUSH1 0x3 PUSH1 0xFF PUSH1 0x2 DUP4 ADD SLOAD AND SWAP2 ADD SLOAD PUSH2 0x2432 PUSH1 0x40 MLOAD SWAP5 DUP6 SWAP5 DUP6 MSTORE PUSH1 0x80 PUSH1 0x20 DUP7 ADD MSTORE PUSH1 0x80 DUP6 ADD SWAP1 PUSH2 0x2B63 JUMP JUMPDEST SWAP2 ISZERO ISZERO PUSH1 0x40 DUP5 ADD MSTORE PUSH1 0x60 DUP4 ADD MSTORE SUB SWAP1 RETURN JUMPDEST POP CALLVALUE PUSH2 0x1B0 JUMPI PUSH1 0x40 CALLDATASIZE PUSH1 0x3 NOT ADD SLT PUSH2 0x1B0 JUMPI PUSH1 0x4 CALLDATALOAD PUSH1 0x1 PUSH1 0x1 PUSH1 0x40 SHL SUB DUP2 GT PUSH2 0x780 JUMPI PUSH2 0x2474 SWAP1 CALLDATASIZE SWAP1 PUSH1 0x4 ADD PUSH2 0x2AF4 JUMP JUMPDEST SWAP1 PUSH1 0x24 CALLDATALOAD PUSH1 0x1 PUSH1 0x1 PUSH1 0x40 SHL SUB DUP2 GT PUSH2 0x780 JUMPI PUSH2 0x2494 SWAP1 CALLDATASIZE SWAP1 PUSH1 0x4 ADD PUSH2 0x2AF4 JUMP JUMPDEST ADDRESS CALLER SUB PUSH2 0x2549 JUMPI DUP2 SLOAD PUSH1 0x1 PUSH1 0x1 PUSH1 0xA0 SHL SUB AND SWAP3 DUP4 EXTCODESIZE ISZERO PUSH2 0x77C JUMPI DUP3 PUSH1 0x40 MLOAD DUP1 SWAP6 PUSH4 0x160C220D PUSH1 0xE3 SHL DUP3 MSTORE DUP2 DUP4 DUP2 PUSH2 0x24CF DUP9 DUP9 PUSH1 0x4 DUP5 ADD PUSH2 0x3013 JUMP JUMPDEST SUB SWAP3 GAS CALL PUSH2 0x2534 JUMPI JUMPDEST DUP3 SLOAD SWAP3 SWAP4 POP DUP4 SWAP3 PUSH1 0x1 PUSH1 0x1 PUSH1 0xA0 SHL SUB AND SWAP2 DUP3 EXTCODESIZE ISZERO PUSH2 0x252F JUMPI PUSH2 0x2513 SWAP3 DUP5 SWAP3 DUP4 PUSH1 0x40 MLOAD DUP1 SWAP7 DUP2 SWAP6 DUP3 SWAP5 PUSH4 0x14FAF32D PUSH1 0xE1 SHL DUP5 MSTORE PUSH1 0x4 DUP5 ADD PUSH2 0x3013 JUMP JUMPDEST SUB SWAP3 GAS CALL PUSH2 0x251E JUMPI POP RETURN JUMPDEST DUP2 PUSH2 0x2528 SWAP2 PUSH2 0x2AB6 JUMP JUMPDEST PUSH2 0x1B0 JUMPI DUP1 RETURN JUMPDEST POP POP POP REVERT JUMPDEST SWAP2 SWAP1 SWAP3 DUP2 PUSH2 0x2541 SWAP2 PUSH2 0x2AB6 JUMP JUMPDEST SWAP1 DUP3 SWAP1 PUSH2 0x24D8 JUMP JUMPDEST PUSH1 0x40 MLOAD PUSH3 0x461BCD PUSH1 0xE5 SHL DUP2 MSTORE PUSH1 0x20 PUSH1 0x4 DUP3 ADD MSTORE PUSH1 0x12 PUSH1 0x24 DUP3 ADD MSTORE PUSH18 0x496E7465726E616C2063616C6C206F6E6C79 PUSH1 0x70 SHL PUSH1 0x44 DUP3 ADD MSTORE PUSH1 0x64 SWAP1 REVERT JUMPDEST POP CALLVALUE PUSH2 0x1B0 JUMPI DUP1 PUSH1 0x3 NOT CALLDATASIZE ADD SLT PUSH2 0x1B0 JUMPI PUSH1 0x40 MLOAD SWAP1 DUP1 PUSH1 0x3 SLOAD SWAP1 PUSH2 0x25A6 DUP3 PUSH2 0x2BB9 JUMP JUMPDEST DUP1 DUP6 MSTORE SWAP2 PUSH1 0x1 DUP2 AND SWAP1 DUP2 ISZERO PUSH2 0x263F JUMPI POP PUSH1 0x1 EQ PUSH2 0x25E2 JUMPI JUMPDEST PUSH2 0xB6E DUP5 PUSH2 0x25CE DUP2 DUP7 SUB DUP3 PUSH2 0x2AB6 JUMP JUMPDEST PUSH1 0x40 MLOAD SWAP2 DUP3 SWAP2 PUSH1 0x20 DUP4 MSTORE PUSH1 0x20 DUP4 ADD SWAP1 PUSH2 0x2B63 JUMP JUMPDEST PUSH1 0x3 DUP2 MSTORE PUSH32 0xC2575A0E9E593C00F959F8C92F12DB2869C3395A3B0502D05E2516446F71F85B SWAP4 SWAP3 POP SWAP1 JUMPDEST DUP1 DUP3 LT PUSH2 0x2625 JUMPI POP SWAP1 SWAP2 POP DUP2 ADD PUSH1 0x20 ADD PUSH2 0x25CE DUP3 PUSH2 0x25BE JUMP JUMPDEST SWAP2 SWAP3 PUSH1 0x1 DUP2 PUSH1 0x20 SWAP3 SLOAD DUP4 DUP6 DUP9 ADD ADD MSTORE ADD SWAP2 ADD SWAP1 SWAP3 SWAP2 PUSH2 0x260C JUMP JUMPDEST PUSH1 0xFF NOT AND PUSH1 0x20 DUP1 DUP8 ADD SWAP2 SWAP1 SWAP2 MSTORE SWAP3 ISZERO ISZERO PUSH1 0x5 SHL DUP6 ADD SWAP1 SWAP3 ADD SWAP3 POP PUSH2 0x25CE SWAP2 POP DUP4 SWAP1 POP PUSH2 0x25BE JUMP JUMPDEST POP CALLVALUE PUSH2 0x1B0 JUMPI PUSH1 0x20 CALLDATASIZE PUSH1 0x3 NOT ADD SLT PUSH2 0x1B0 JUMPI PUSH1 0x4 CALLDATALOAD SWAP1 PUSH1 0x5 SLOAD DUP3 LT ISZERO PUSH2 0x1B0 JUMPI PUSH1 0x20 PUSH2 0x2691 DUP4 PUSH2 0x2B88 JUMP JUMPDEST SWAP1 SLOAD PUSH1 0x40 MLOAD PUSH1 0x3 SWAP3 SWAP1 SWAP3 SHL SHR PUSH1 0x1 PUSH1 0x1 PUSH1 0xA0 SHL SUB AND DUP2 MSTORE RETURN JUMPDEST POP CALLVALUE PUSH2 0x1B0 JUMPI PUSH1 0x20 CALLDATASIZE PUSH1 0x3 NOT ADD SLT PUSH2 0x1B0 JUMPI PUSH1 0x4 CALLDATALOAD SWAP1 PUSH1 0x1 PUSH1 0x1 PUSH1 0x40 SHL SUB DUP3 GT PUSH2 0x1B0 JUMPI PUSH2 0xB6E PUSH2 0x25CE PUSH1 0x2 PUSH2 0x26E8 PUSH1 0x20 PUSH2 0x210 CALLDATASIZE PUSH1 0x4 DUP10 ADD PUSH2 0x2AF4 JUMP JUMPDEST DUP2 ADD PUSH1 0x7 DUP2 MSTORE SUB ADD SWAP1 KECCAK256 ADD PUSH2 0x2BF3 JUMP JUMPDEST POP CALLVALUE PUSH2 0x1B0 JUMPI PUSH1 0x20 CALLDATASIZE PUSH1 0x3 NOT ADD SLT PUSH2 0x1B0 JUMPI PUSH1 0x4 CALLDATALOAD PUSH1 0x1 PUSH1 0x1 PUSH1 0xA0 SHL SUB DUP2 AND SWAP1 DUP2 SWAP1 SUB PUSH2 0x780 JUMPI DUP2 PUSH1 0x40 SWAP2 PUSH1 0x20 SWAP4 MSTORE PUSH1 0x4 DUP4 MSTORE KECCAK256 SLOAD PUSH1 0x40 MLOAD SWAP1 DUP2 MSTORE RETURN JUMPDEST POP CALLVALUE PUSH2 0x1B0 JUMPI PUSH1 0x40 CALLDATASIZE PUSH1 0x3 NOT ADD SLT PUSH2 0x1B0 JUMPI PUSH1 0x4 CALLDATALOAD PUSH1 0x1 PUSH1 0x1 PUSH1 0x40 SHL SUB DUP2 GT PUSH2 0x780 JUMPI PUSH2 0x2766 SWAP1 CALLDATASIZE SWAP1 PUSH1 0x4 ADD PUSH2 0x2AF4 JUMP JUMPDEST PUSH1 0x24 CALLDATALOAD SWAP1 PUSH1 0x1 PUSH1 0x1 PUSH1 0xA0 SHL SUB DUP3 AND DUP3 SUB PUSH2 0x77C JUMPI PUSH1 0x20 SWAP3 PUSH1 0xFF SWAP3 PUSH1 0x5 PUSH2 0x279B DUP7 PUSH1 0x40 SWAP6 DUP2 DUP8 MLOAD SWAP4 DUP3 DUP6 DUP1 SWAP5 MLOAD SWAP4 DUP5 SWAP3 ADD PUSH2 0x2B40 JUMP JUMPDEST PUSH1 0x7 SWAP1 DUP3 ADD SWAP1 DUP2 MSTORE SUB ADD SWAP1 KECCAK256 PUSH1 0x1 PUSH1 0x1 PUSH1 0xA0 SHL SUB SWAP1 SWAP3 AND DUP4 MSTORE ADD DUP5 MSTORE KECCAK256 SLOAD PUSH1 0x40 MLOAD SWAP2 AND ISZERO ISZERO DUP2 MSTORE RETURN JUMPDEST POP CALLVALUE PUSH2 0x1B0 JUMPI PUSH1 0x20 CALLDATASIZE PUSH1 0x3 NOT ADD SLT PUSH2 0x1B0 JUMPI PUSH1 0x4 CALLDATALOAD PUSH1 0x1 PUSH1 0x1 PUSH1 0x40 SHL SUB DUP2 GT PUSH2 0x780 JUMPI PUSH2 0x27F5 SWAP1 CALLDATASIZE SWAP1 PUSH1 0x4 ADD PUSH2 0x2AF4 JUMP JUMPDEST PUSH2 0x2856 PUSH1 0xFF PUSH1 0x1 PUSH2 0x2840 PUSH1 0x20 PUSH1 0x40 MLOAD PUSH2 0x282F DUP6 DUP6 DUP10 MLOAD SWAP4 DUP6 DUP2 DUP2 DUP14 ADD SWAP7 PUSH2 0x281D DUP2 DUP4 DUP11 PUSH2 0x2B40 JUMP JUMPDEST DUP2 ADD PUSH1 0x7 DUP2 MSTORE SUB ADD SWAP1 KECCAK256 ADD SLOAD AND PUSH2 0x2F76 JUMP JUMPDEST PUSH1 0x40 MLOAD DUP1 SWAP4 DUP2 SWAP3 DUP10 MLOAD SWAP3 DUP4 SWAP2 PUSH2 0x2B40 JUMP JUMPDEST DUP2 ADD PUSH1 0x7 DUP2 MSTORE SUB ADD SWAP1 KECCAK256 ADD SLOAD PUSH1 0x8 SHR AND ISZERO PUSH2 0x2FB7 JUMP JUMPDEST PUSH2 0x285F DUP2 PUSH2 0x3C11 JUMP JUMPDEST ISZERO PUSH2 0x28E9 JUMPI PUSH2 0x28E3 PUSH32 0xFE2A617C3A0856BBD203E77CEE3D518A00F599C8A955224E80B1D0A1AFD95703 SWAP2 PUSH2 0x28D5 PUSH1 0x40 MLOAD PUSH2 0x289A PUSH1 0x60 DUP3 PUSH2 0x2AB6 JUMP JUMPDEST PUSH1 0x22 DUP2 MSTORE PUSH32 0x54696D656F75742072656163686564202D2065787465726E616C207472696767 PUSH1 0x20 DUP3 ADD MSTORE PUSH2 0x32B9 PUSH1 0xF1 SHL PUSH1 0x40 DUP3 ADD MSTORE DUP3 PUSH2 0x3C4B JUMP JUMPDEST PUSH1 0x40 MLOAD SWAP2 DUP3 SWAP2 TIMESTAMP SWAP1 DUP4 PUSH2 0x2FF7 JUMP JUMPDEST SUB SWAP1 LOG1 DUP1 RETURN JUMPDEST PUSH1 0x40 MLOAD PUSH3 0x461BCD PUSH1 0xE5 SHL DUP2 MSTORE PUSH1 0x20 PUSH1 0x4 DUP3 ADD MSTORE PUSH1 0x17 PUSH1 0x24 DUP3 ADD MSTORE PUSH23 0x151A5B595BDD5D081B9BDD081C995858DA1959081E595D PUSH1 0x4A SHL PUSH1 0x44 DUP3 ADD MSTORE PUSH1 0x64 SWAP1 REVERT JUMPDEST POP CALLVALUE PUSH2 0x1B0 JUMPI PUSH1 0x20 CALLDATASIZE PUSH1 0x3 NOT ADD SLT PUSH2 0x1B0 JUMPI PUSH1 0x40 PUSH1 0xA0 SWAP2 PUSH1 0x4 CALLDATALOAD DUP2 MSTORE PUSH1 0x8 PUSH1 0x20 MSTORE KECCAK256 PUSH1 0xFF PUSH1 0x3 DUP3 ADD SLOAD AND SWAP1 PUSH1 0x1 DUP2 ADD SLOAD SWAP1 PUSH1 0x2 DUP2 ADD SLOAD PUSH1 0x4 PUSH2 0x296A DUP3 DUP6 PUSH2 0x2F53 JUMP JUMPDEST SWAP3 ADD SLOAD SWAP3 PUSH1 0x40 MLOAD SWAP5 ISZERO ISZERO DUP6 MSTORE PUSH1 0x20 DUP6 ADD MSTORE PUSH1 0x40 DUP5 ADD MSTORE PUSH1 0x60 DUP4 ADD MSTORE PUSH1 0x80 DUP3 ADD MSTORE RETURN JUMPDEST POP CALLVALUE PUSH2 0x1B0 JUMPI PUSH1 0x20 CALLDATASIZE PUSH1 0x3 NOT ADD SLT PUSH2 0x1B0 JUMPI PUSH1 0x4 CALLDATALOAD SWAP1 PUSH1 0x1 PUSH1 0x1 PUSH1 0x40 SHL SUB DUP3 GT PUSH2 0x1B0 JUMPI PUSH1 0x20 PUSH2 0x7BF PUSH2 0x29C2 CALLDATASIZE PUSH1 0x4 DUP7 ADD PUSH2 0x2AF4 JUMP JUMPDEST PUSH2 0x3C11 JUMP JUMPDEST POP CALLVALUE PUSH2 0x1B0 JUMPI PUSH1 0x20 CALLDATASIZE PUSH1 0x3 NOT ADD SLT PUSH2 0x1B0 JUMPI PUSH1 0x4 CALLDATALOAD SWAP1 PUSH1 0x1 PUSH1 0x1 PUSH1 0x40 SHL SUB DUP3 GT PUSH2 0x1B0 JUMPI PUSH1 0x20 PUSH2 0x29FA CALLDATASIZE PUSH1 0x4 DUP6 ADD PUSH2 0x2AF4 JUMP JUMPDEST PUSH1 0x40 MLOAD PUSH1 0xFF PUSH1 0x1 DUP4 MLOAD SWAP3 DUP6 DUP2 DUP2 DUP8 ADD SWAP6 PUSH2 0x2A15 DUP2 DUP4 DUP10 PUSH2 0x2B40 JUMP JUMPDEST DUP2 ADD PUSH1 0x7 DUP2 MSTORE SUB ADD SWAP1 KECCAK256 ADD SLOAD AND SWAP2 DUP3 PUSH2 0x2A35 JUMPI JUMPDEST POP POP PUSH1 0x40 MLOAD SWAP1 ISZERO ISZERO DUP2 MSTORE RETURN JUMPDEST PUSH1 0xFF SWAP3 POP DUP4 PUSH1 0x1 SWAP3 PUSH2 0x2A52 SWAP3 PUSH1 0x40 MLOAD SWAP4 DUP5 SWAP3 DUP4 SWAP3 MLOAD SWAP3 DUP4 SWAP2 PUSH2 0x2B40 JUMP JUMPDEST DUP2 ADD PUSH1 0x7 DUP2 MSTORE SUB ADD SWAP1 KECCAK256 ADD SLOAD PUSH1 0x8 SHR AND ISZERO DUP3 DUP1 PUSH2 0x2A29 JUMP JUMPDEST PUSH1 0x80 DUP2 ADD SWAP1 DUP2 LT PUSH1 0x1 PUSH1 0x1 PUSH1 0x40 SHL SUB DUP3 GT OR PUSH2 0x2A85 JUMPI PUSH1 0x40 MSTORE JUMP JUMPDEST PUSH4 0x4E487B71 PUSH1 0xE0 SHL PUSH1 0x0 MSTORE PUSH1 0x41 PUSH1 0x4 MSTORE PUSH1 0x24 PUSH1 0x0 REVERT JUMPDEST PUSH1 0x40 DUP2 ADD SWAP1 DUP2 LT PUSH1 0x1 PUSH1 0x1 PUSH1 0x40 SHL SUB DUP3 GT OR PUSH2 0x2A85 JUMPI PUSH1 0x40 MSTORE JUMP JUMPDEST PUSH1 0x1F SWAP1 SWAP2 ADD PUSH1 0x1F NOT AND DUP2 ADD SWAP1 PUSH1 0x1 PUSH1 0x1 PUSH1 0x40 SHL SUB DUP3 GT SWAP1 DUP3 LT OR PUSH2 0x2A85 JUMPI PUSH1 0x40 MSTORE JUMP JUMPDEST PUSH1 0x1 PUSH1 0x1 PUSH1 0x40 SHL SUB DUP2 GT PUSH2 0x2A85 JUMPI PUSH1 0x1F ADD PUSH1 0x1F NOT AND PUSH1 0x20 ADD SWAP1 JUMP JUMPDEST DUP2 PUSH1 0x1F DUP3 ADD SLT ISZERO PUSH2 0x2B3B JUMPI DUP1 CALLDATALOAD SWAP1 PUSH2 0x2B0B DUP3 PUSH2 0x2AD9 JUMP JUMPDEST SWAP3 PUSH2 0x2B19 PUSH1 0x40 MLOAD SWAP5 DUP6 PUSH2 0x2AB6 JUMP JUMPDEST DUP3 DUP5 MSTORE PUSH1 0x20 DUP4 DUP4 ADD ADD GT PUSH2 0x2B3B JUMPI DUP2 PUSH1 0x0 SWAP3 PUSH1 0x20 DUP1 SWAP4 ADD DUP4 DUP7 ADD CALLDATACOPY DUP4 ADD ADD MSTORE SWAP1 JUMP JUMPDEST PUSH1 0x0 DUP1 REVERT JUMPDEST PUSH1 0x0 JUMPDEST DUP4 DUP2 LT PUSH2 0x2B53 JUMPI POP POP PUSH1 0x0 SWAP2 ADD MSTORE JUMP JUMPDEST DUP2 DUP2 ADD MLOAD DUP4 DUP3 ADD MSTORE PUSH1 0x20 ADD PUSH2 0x2B43 JUMP JUMPDEST SWAP1 PUSH1 0x20 SWAP2 PUSH2 0x2B7C DUP2 MLOAD DUP1 SWAP3 DUP2 DUP6 MSTORE DUP6 DUP1 DUP7 ADD SWAP2 ADD PUSH2 0x2B40 JUMP JUMPDEST PUSH1 0x1F ADD PUSH1 0x1F NOT AND ADD ADD SWAP1 JUMP JUMPDEST PUSH1 0x5 SLOAD DUP2 LT ISZERO PUSH2 0x2BA3 JUMPI PUSH1 0x5 PUSH1 0x0 MSTORE PUSH1 0x20 PUSH1 0x0 KECCAK256 ADD SWAP1 PUSH1 0x0 SWAP1 JUMP JUMPDEST PUSH4 0x4E487B71 PUSH1 0xE0 SHL PUSH1 0x0 MSTORE PUSH1 0x32 PUSH1 0x4 MSTORE PUSH1 0x24 PUSH1 0x0 REVERT JUMPDEST SWAP1 PUSH1 0x1 DUP3 DUP2 SHR SWAP3 AND DUP1 ISZERO PUSH2 0x2BE9 JUMPI JUMPDEST PUSH1 0x20 DUP4 LT EQ PUSH2 0x2BD3 JUMPI JUMP JUMPDEST PUSH4 0x4E487B71 PUSH1 0xE0 SHL PUSH1 0x0 MSTORE PUSH1 0x22 PUSH1 0x4 MSTORE PUSH1 0x24 PUSH1 0x0 REVERT JUMPDEST SWAP2 PUSH1 0x7F AND SWAP2 PUSH2 0x2BC8 JUMP JUMPDEST SWAP1 PUSH1 0x40 MLOAD SWAP2 DUP3 PUSH1 0x0 DUP3 SLOAD SWAP3 PUSH2 0x2C07 DUP5 PUSH2 0x2BB9 JUMP JUMPDEST DUP1 DUP5 MSTORE SWAP4 PUSH1 0x1 DUP2 AND SWAP1 DUP2 ISZERO PUSH2 0x2C75 JUMPI POP PUSH1 0x1 EQ PUSH2 0x2C2E JUMPI JUMPDEST POP PUSH2 0x2C2C SWAP3 POP SUB DUP4 PUSH2 0x2AB6 JUMP JUMPDEST JUMP JUMPDEST SWAP1 POP PUSH1 0x0 SWAP3 SWAP2 SWAP3 MSTORE PUSH1 0x20 PUSH1 0x0 KECCAK256 SWAP1 PUSH1 0x0 SWAP2 JUMPDEST DUP2 DUP4 LT PUSH2 0x2C59 JUMPI POP POP SWAP1 PUSH1 0x20 PUSH2 0x2C2C SWAP3 DUP3 ADD ADD CODESIZE PUSH2 0x2C1F JUMP JUMPDEST PUSH1 0x20 SWAP2 SWAP4 POP DUP1 PUSH1 0x1 SWAP2 SLOAD DUP4 DUP6 DUP10 ADD ADD MSTORE ADD SWAP2 ADD SWAP1 SWAP2 DUP5 SWAP3 PUSH2 0x2C40 JUMP JUMPDEST SWAP1 POP PUSH1 0x20 SWAP3 POP PUSH2 0x2C2C SWAP5 SWAP2 POP PUSH1 0xFF NOT AND DUP3 DUP5 ADD MSTORE ISZERO ISZERO PUSH1 0x5 SHL DUP3 ADD ADD CODESIZE PUSH2 0x2C1F JUMP JUMPDEST PUSH1 0x20 PUSH2 0x2CB0 SWAP2 DUP2 PUSH1 0x40 MLOAD SWAP4 DUP3 DUP6 DUP1 SWAP5 MLOAD SWAP4 DUP5 SWAP3 ADD PUSH2 0x2B40 JUMP JUMPDEST DUP2 ADD PUSH1 0x7 DUP2 MSTORE SUB ADD SWAP1 KECCAK256 SWAP1 JUMP JUMPDEST PUSH1 0x20 SWAP1 PUSH2 0x2CD7 SWAP3 DUP3 PUSH1 0x40 MLOAD SWAP5 DUP4 DUP7 DUP1 SWAP6 MLOAD SWAP4 DUP5 SWAP3 ADD PUSH2 0x2B40 JUMP JUMPDEST DUP3 ADD SWAP1 DUP2 MSTORE SUB ADD SWAP1 KECCAK256 SWAP1 JUMP JUMPDEST DUP1 SLOAD DUP3 LT ISZERO PUSH2 0x2BA3 JUMPI PUSH1 0x0 MSTORE PUSH1 0x20 PUSH1 0x0 KECCAK256 SWAP1 PUSH1 0x2 SHL ADD SWAP1 PUSH1 0x0 SWAP1 JUMP JUMPDEST SWAP1 DUP1 PUSH1 0x20 DUP4 MLOAD SWAP2 DUP3 DUP2 MSTORE ADD SWAP2 PUSH1 0x20 DUP1 DUP4 PUSH1 0x5 SHL DUP4 ADD ADD SWAP5 ADD SWAP3 PUSH1 0x0 SWAP2 JUMPDEST DUP4 DUP4 LT PUSH2 0x2D2B JUMPI POP POP POP POP POP SWAP1 JUMP JUMPDEST SWAP1 SWAP2 SWAP3 SWAP4 SWAP5 PUSH1 0x20 DUP1 PUSH2 0x2D49 PUSH1 0x1 SWAP4 PUSH1 0x1F NOT DUP7 DUP3 SUB ADD DUP8 MSTORE DUP10 MLOAD PUSH2 0x2B63 JUMP JUMPDEST SWAP8 ADD SWAP4 ADD SWAP4 ADD SWAP2 SWAP4 SWAP3 SWAP1 PUSH2 0x2D1C JUMP JUMPDEST PUSH1 0x1 PUSH1 0x1 PUSH1 0x40 SHL SUB DUP2 GT PUSH2 0x2A85 JUMPI PUSH1 0x5 SHL PUSH1 0x20 ADD SWAP1 JUMP JUMPDEST SWAP1 DUP1 PUSH1 0x1F DUP4 ADD SLT ISZERO PUSH2 0x2B3B JUMPI DUP2 CALLDATALOAD SWAP1 PUSH2 0x2D87 DUP3 PUSH2 0x2D58 JUMP JUMPDEST SWAP3 PUSH2 0x2D95 PUSH1 0x40 MLOAD SWAP5 DUP6 PUSH2 0x2AB6 JUMP JUMPDEST DUP3 DUP5 MSTORE PUSH1 0x20 DUP1 DUP6 ADD SWAP4 PUSH1 0x5 SHL DUP3 ADD ADD SWAP2 DUP3 GT PUSH2 0x2B3B JUMPI PUSH1 0x20 ADD SWAP2 JUMPDEST DUP2 DUP4 LT PUSH2 0x2DBD JUMPI POP POP POP SWAP1 JUMP JUMPDEST DUP3 CALLDATALOAD PUSH1 0x1 PUSH1 0x1 PUSH1 0xA0 SHL SUB DUP2 AND DUP2 SUB PUSH2 0x2B3B JUMPI DUP2 MSTORE PUSH1 0x20 SWAP3 DUP4 ADD SWAP3 ADD PUSH2 0x2DB0 JUMP JUMPDEST SWAP1 DUP1 PUSH1 0x1F DUP4 ADD SLT ISZERO PUSH2 0x2B3B JUMPI DUP2 CALLDATALOAD PUSH2 0x2DF4 DUP2 PUSH2 0x2D58 JUMP JUMPDEST SWAP3 PUSH2 0x2E02 PUSH1 0x40 MLOAD SWAP5 DUP6 PUSH2 0x2AB6 JUMP JUMPDEST DUP2 DUP5 MSTORE PUSH1 0x20 DUP1 DUP6 ADD SWAP3 PUSH1 0x5 SHL DUP3 ADD ADD SWAP3 DUP4 GT PUSH2 0x2B3B JUMPI PUSH1 0x20 ADD SWAP1 JUMPDEST DUP3 DUP3 LT PUSH2 0x2E2A JUMPI POP POP POP SWAP1 JUMP JUMPDEST DUP2 CALLDATALOAD DUP2 MSTORE PUSH1 0x20 SWAP2 DUP3 ADD SWAP2 ADD PUSH2 0x2E1D JUMP JUMPDEST SWAP1 DUP1 PUSH1 0x1F DUP4 ADD SLT ISZERO PUSH2 0x2B3B JUMPI DUP2 CALLDATALOAD PUSH2 0x2E51 DUP2 PUSH2 0x2D58 JUMP JUMPDEST SWAP3 PUSH2 0x2E5F PUSH1 0x40 MLOAD SWAP5 DUP6 PUSH2 0x2AB6 JUMP JUMPDEST DUP2 DUP5 MSTORE PUSH1 0x20 DUP1 DUP6 ADD SWAP3 PUSH1 0x5 SHL DUP3 ADD ADD SWAP2 DUP4 DUP4 GT PUSH2 0x2B3B JUMPI PUSH1 0x20 DUP3 ADD SWAP1 JUMPDEST DUP4 DUP3 LT PUSH2 0x2E8B JUMPI POP POP POP POP POP SWAP1 JUMP JUMPDEST DUP2 CALLDATALOAD PUSH1 0x1 PUSH1 0x1 PUSH1 0x40 SHL SUB DUP2 GT PUSH2 0x2B3B JUMPI PUSH1 0x20 SWAP2 PUSH2 0x2EAD DUP8 DUP5 DUP1 SWAP5 DUP9 ADD ADD PUSH2 0x2AF4 JUMP JUMPDEST DUP2 MSTORE ADD SWAP2 ADD SWAP1 PUSH2 0x2E7C JUMP JUMPDEST SWAP1 DUP1 PUSH1 0x1F DUP4 ADD SLT ISZERO PUSH2 0x2B3B JUMPI DUP2 CALLDATALOAD SWAP1 PUSH2 0x2ED0 DUP3 PUSH2 0x2D58 JUMP JUMPDEST SWAP3 PUSH2 0x2EDE PUSH1 0x40 MLOAD SWAP5 DUP6 PUSH2 0x2AB6 JUMP JUMPDEST DUP3 DUP5 MSTORE PUSH1 0x20 DUP1 DUP6 ADD SWAP4 PUSH1 0x5 SHL DUP3 ADD ADD SWAP2 DUP3 GT PUSH2 0x2B3B JUMPI PUSH1 0x20 ADD SWAP2 JUMPDEST DUP2 DUP4 LT PUSH2 0x2F06 JUMPI POP POP POP SWAP1 JUMP JUMPDEST DUP3 CALLDATALOAD DUP1 ISZERO ISZERO DUP2 SUB PUSH2 0x2B3B JUMPI DUP2 MSTORE PUSH1 0x20 SWAP3 DUP4 ADD SWAP3 ADD PUSH2 0x2EF9 JUMP JUMPDEST SWAP1 PUSH1 0x20 DUP1 DUP4 MLOAD SWAP3 DUP4 DUP2 MSTORE ADD SWAP3 ADD SWAP1 PUSH1 0x0 JUMPDEST DUP2 DUP2 LT PUSH2 0x2F3D JUMPI POP POP POP SWAP1 JUMP JUMPDEST DUP3 MLOAD DUP5 MSTORE PUSH1 0x20 SWAP4 DUP5 ADD SWAP4 SWAP1 SWAP3 ADD SWAP2 PUSH1 0x1 ADD PUSH2 0x2F30 JUMP JUMPDEST SWAP2 SWAP1 DUP3 SUB SWAP2 DUP3 GT PUSH2 0x2F60 JUMPI JUMP JUMPDEST PUSH4 0x4E487B71 PUSH1 0xE0 SHL PUSH1 0x0 MSTORE PUSH1 0x11 PUSH1 0x4 MSTORE PUSH1 0x24 PUSH1 0x0 REVERT JUMPDEST ISZERO PUSH2 0x2F7D JUMPI JUMP JUMPDEST PUSH1 0x40 MLOAD PUSH3 0x461BCD PUSH1 0xE5 SHL DUP2 MSTORE PUSH1 0x20 PUSH1 0x4 DUP3 ADD MSTORE PUSH1 0x12 PUSH1 0x24 DUP3 ADD MSTORE PUSH18 0x53657373696F6E206E6F7420616374697665 PUSH1 0x70 SHL PUSH1 0x44 DUP3 ADD MSTORE PUSH1 0x64 SWAP1 REVERT JUMPDEST ISZERO PUSH2 0x2FBE JUMPI JUMP JUMPDEST PUSH1 0x40 MLOAD PUSH3 0x461BCD PUSH1 0xE5 SHL DUP2 MSTORE PUSH1 0x20 PUSH1 0x4 DUP3 ADD MSTORE PUSH1 0x11 PUSH1 0x24 DUP3 ADD MSTORE PUSH17 0x105B1C9958591E48199A5B985B1A5E9959 PUSH1 0x7A SHL PUSH1 0x44 DUP3 ADD MSTORE PUSH1 0x64 SWAP1 REVERT JUMPDEST SWAP3 SWAP2 SWAP1 PUSH2 0x300E PUSH1 0x20 SWAP2 PUSH1 0x40 DUP7 MSTORE PUSH1 0x40 DUP7 ADD SWAP1 PUSH2 0x2B63 JUMP JUMPDEST SWAP4 ADD MSTORE JUMP JUMPDEST SWAP1 SWAP2 PUSH2 0x302A PUSH2 0x3038 SWAP4 PUSH1 0x40 DUP5 MSTORE PUSH1 0x40 DUP5 ADD SWAP1 PUSH2 0x2B63 JUMP JUMPDEST SWAP2 PUSH1 0x20 DUP2 DUP5 SUB SWAP2 ADD MSTORE PUSH2 0x2B63 JUMP JUMPDEST SWAP1 JUMP JUMPDEST SWAP1 DUP2 SLOAD PUSH2 0x3047 DUP2 PUSH2 0x2D58 JUMP JUMPDEST SWAP3 PUSH2 0x3055 PUSH1 0x40 MLOAD SWAP5 DUP6 PUSH2 0x2AB6 JUMP JUMPDEST DUP2 DUP5 MSTORE PUSH1 0x20 DUP5 ADD SWAP1 PUSH1 0x0 MSTORE PUSH1 0x20 PUSH1 0x0 KECCAK256 PUSH1 0x0 SWAP2 JUMPDEST DUP4 DUP4 LT PUSH2 0x3076 JUMPI POP POP POP POP JUMP JUMPDEST PUSH1 0x1 PUSH1 0x20 DUP2 SWAP3 PUSH2 0x3085 DUP6 PUSH2 0x2BF3 JUMP JUMPDEST DUP2 MSTORE ADD SWAP3 ADD SWAP3 ADD SWAP2 SWAP1 PUSH2 0x3069 JUMP JUMPDEST SWAP2 SWAP1 DUP3 ADD DUP1 SWAP3 GT PUSH2 0x2F60 JUMPI JUMP JUMPDEST PUSH1 0x0 NOT DUP2 EQ PUSH2 0x2F60 JUMPI PUSH1 0x1 ADD SWAP1 JUMP JUMPDEST ISZERO PUSH2 0x30B6 JUMPI JUMP JUMPDEST PUSH1 0x40 MLOAD PUSH3 0x461BCD PUSH1 0xE5 SHL DUP2 MSTORE PUSH1 0x20 PUSH1 0x4 DUP3 ADD MSTORE PUSH1 0x1A PUSH1 0x24 DUP3 ADD MSTORE PUSH26 0x13DB9B1E481B585A5B881C1C9BDA9958DD0818D85B8818D85B1B PUSH1 0x32 SHL PUSH1 0x44 DUP3 ADD MSTORE PUSH1 0x64 SWAP1 REVERT JUMPDEST DUP2 DUP2 LT PUSH2 0x3103 JUMPI POP POP JUMP JUMPDEST PUSH1 0x0 DUP2 SSTORE PUSH1 0x1 ADD PUSH2 0x30F8 JUMP JUMPDEST DUP1 MLOAD ISZERO PUSH2 0x2BA3 JUMPI PUSH1 0x20 ADD SWAP1 JUMP JUMPDEST DUP1 MLOAD DUP3 LT ISZERO PUSH2 0x2BA3 JUMPI PUSH1 0x20 SWAP2 PUSH1 0x5 SHL ADD ADD SWAP1 JUMP JUMPDEST ISZERO PUSH2 0x3137 JUMPI JUMP JUMPDEST PUSH1 0x40 MLOAD PUSH3 0x461BCD PUSH1 0xE5 SHL DUP2 MSTORE PUSH1 0x20 PUSH1 0x4 DUP3 ADD MSTORE PUSH1 0x19 PUSH1 0x24 DUP3 ADD MSTORE PUSH25 0x566F74696E672073657373696F6E206E6F7420616374697665 PUSH1 0x38 SHL PUSH1 0x44 DUP3 ADD MSTORE PUSH1 0x64 SWAP1 REVERT JUMPDEST ISZERO PUSH2 0x317F JUMPI JUMP JUMPDEST PUSH1 0x64 PUSH1 0x40 MLOAD PUSH3 0x461BCD PUSH1 0xE5 SHL DUP2 MSTORE PUSH1 0x20 PUSH1 0x4 DUP3 ADD MSTORE PUSH1 0x20 PUSH1 0x24 DUP3 ADD MSTORE PUSH32 0x566F74696E672073657373696F6E20616C72656164792066696E616C697A6564 PUSH1 0x44 DUP3 ADD MSTORE REVERT JUMPDEST ISZERO PUSH2 0x31CA JUMPI JUMP JUMPDEST PUSH1 0x40 MLOAD PUSH3 0x461BCD PUSH1 0xE5 SHL DUP2 MSTORE PUSH1 0x20 PUSH1 0x4 DUP3 ADD MSTORE PUSH1 0x1C PUSH1 0x24 DUP3 ADD MSTORE PUSH28 0x416C726561647920766F746564206F6E20746869732073616D706C65 PUSH1 0x20 SHL PUSH1 0x44 DUP3 ADD MSTORE PUSH1 0x64 SWAP1 REVERT JUMPDEST PUSH1 0x40 MLOAD SWAP1 PUSH2 0x321D PUSH1 0x40 DUP4 PUSH2 0x2AB6 JUMP JUMPDEST PUSH1 0xF DUP3 MSTORE PUSH15 0x151A5B595BDD5D081C995858DA1959 PUSH1 0x8A SHL PUSH1 0x20 DUP4 ADD MSTORE JUMP JUMPDEST DUP2 PUSH1 0x1 SHL SWAP2 PUSH1 0x0 NOT SWAP1 PUSH1 0x3 SHL SHR NOT AND OR SWAP1 JUMP JUMPDEST DUP1 SLOAD PUSH1 0x1 PUSH1 0x40 SHL DUP2 LT ISZERO PUSH2 0x2A85 JUMPI PUSH2 0x326B SWAP2 PUSH1 0x1 DUP3 ADD DUP2 SSTORE PUSH2 0x2CE3 JUMP JUMPDEST SWAP2 SWAP1 SWAP2 PUSH2 0x33A5 JUMPI DUP1 MLOAD DUP3 SLOAD PUSH1 0x1 PUSH1 0x1 PUSH1 0xA0 SHL SUB NOT AND PUSH1 0x1 PUSH1 0x1 PUSH1 0xA0 SHL SUB SWAP2 SWAP1 SWAP2 AND OR DUP3 SSTORE PUSH1 0x20 DUP2 ADD MLOAD DUP1 MLOAD PUSH1 0x1 DUP5 ADD SWAP2 PUSH1 0x1 PUSH1 0x1 PUSH1 0x40 SHL SUB DUP3 GT PUSH2 0x2A85 JUMPI PUSH2 0x32B3 DUP4 SLOAD PUSH2 0x2BB9 JUMP JUMPDEST PUSH1 0x1F DUP2 GT PUSH2 0x3373 JUMPI JUMPDEST POP PUSH1 0x20 SWAP1 PUSH1 0x1F DUP4 GT PUSH1 0x1 EQ PUSH2 0x3307 JUMPI DUP3 PUSH1 0x3 SWAP6 SWAP4 PUSH1 0x60 SWAP6 SWAP4 PUSH2 0x32E6 SWAP4 PUSH1 0x0 SWAP3 PUSH2 0x113A JUMPI POP POP PUSH2 0x323B JUMP JUMPDEST SWAP1 SSTORE JUMPDEST PUSH1 0x2 DUP5 ADD PUSH1 0x40 DUP3 ADD MLOAD ISZERO ISZERO PUSH1 0xFF DUP1 NOT DUP4 SLOAD AND SWAP2 AND OR SWAP1 SSTORE ADD MLOAD SWAP2 ADD SSTORE JUMP JUMPDEST SWAP1 PUSH1 0x1F NOT DUP4 AND SWAP2 DUP5 PUSH1 0x0 MSTORE DUP2 PUSH1 0x0 KECCAK256 SWAP3 PUSH1 0x0 JUMPDEST DUP2 DUP2 LT PUSH2 0x335B JUMPI POP SWAP3 PUSH1 0x1 SWAP3 DUP6 SWAP3 PUSH1 0x3 SWAP9 SWAP7 PUSH1 0x60 SWAP9 SWAP7 LT PUSH2 0x3343 JUMPI JUMPDEST POP POP POP DUP2 SHL ADD SWAP1 SSTORE PUSH2 0x32E9 JUMP JUMPDEST ADD MLOAD PUSH1 0x0 NOT DUP4 DUP10 SHL PUSH1 0xF8 AND SHR NOT AND SWAP1 SSTORE CODESIZE DUP1 DUP1 PUSH2 0x3336 JUMP JUMPDEST SWAP3 SWAP4 PUSH1 0x20 PUSH1 0x1 DUP2 SWAP3 DUP8 DUP7 ADD MLOAD DUP2 SSTORE ADD SWAP6 ADD SWAP4 ADD PUSH2 0x331A JUMP JUMPDEST PUSH2 0x339F SWAP1 DUP5 PUSH1 0x0 MSTORE PUSH1 0x20 PUSH1 0x0 KECCAK256 PUSH1 0x1F DUP6 ADD PUSH1 0x5 SHR DUP2 ADD SWAP2 PUSH1 0x20 DUP7 LT PUSH2 0x11DD JUMPI PUSH1 0x1F ADD PUSH1 0x5 SHR ADD SWAP1 PUSH2 0x30F8 JUMP JUMPDEST CODESIZE PUSH2 0x32BC JUMP JUMPDEST PUSH4 0x4E487B71 PUSH1 0xE0 SHL PUSH1 0x0 MSTORE PUSH1 0x0 PUSH1 0x4 MSTORE PUSH1 0x24 PUSH1 0x0 REVERT JUMPDEST PUSH1 0x40 MLOAD SWAP1 PUSH2 0x33CA PUSH1 0x40 DUP4 PUSH2 0x2AB6 JUMP JUMPDEST PUSH1 0x1A DUP3 MSTORE PUSH26 0x82D8D840ECDEE8CAE4E640C6DEDAE0D8CAE8CAC840C4C2E8C6D PUSH1 0x33 SHL PUSH1 0x20 DUP4 ADD MSTORE JUMP JUMPDEST PUSH1 0x40 MLOAD SWAP1 PUSH2 0x3402 PUSH1 0x40 DUP4 PUSH2 0x2AB6 JUMP JUMPDEST PUSH1 0x11 DUP3 MSTORE PUSH17 0x10DBDB9CD95B9CDD5CC81C995858DA1959 PUSH1 0x7A SHL PUSH1 0x20 DUP4 ADD MSTORE JUMP JUMPDEST ISZERO PUSH2 0x3429 JUMPI JUMP JUMPDEST PUSH1 0x40 MLOAD PUSH3 0x461BCD PUSH1 0xE5 SHL DUP2 MSTORE PUSH1 0x20 PUSH1 0x4 DUP3 ADD MSTORE PUSH1 0xF PUSH1 0x24 DUP3 ADD MSTORE PUSH15 0x98CADCCEE8D040DAD2E6DAC2E8C6D PUSH1 0x8B SHL PUSH1 0x44 DUP3 ADD MSTORE PUSH1 0x64 SWAP1 REVERT JUMPDEST PUSH1 0x40 MLOAD SWAP1 PUSH2 0x346F PUSH1 0x20 DUP4 PUSH2 0x2AB6 JUMP JUMPDEST PUSH1 0x0 DUP1 DUP4 MSTORE DUP3 DUP2 JUMPDEST DUP3 DUP2 LT PUSH2 0x3483 JUMPI POP POP POP JUMP JUMPDEST DUP1 PUSH1 0x60 PUSH1 0x20 DUP1 SWAP4 DUP6 ADD ADD MSTORE ADD PUSH2 0x3477 JUMP JUMPDEST SWAP1 PUSH2 0x349E DUP3 PUSH2 0x2D58 JUMP JUMPDEST PUSH2 0x34AB PUSH1 0x40 MLOAD SWAP2 DUP3 PUSH2 0x2AB6 JUMP JUMPDEST DUP3 DUP2 MSTORE DUP1 SWAP3 PUSH2 0x34BC PUSH1 0x1F NOT SWAP2 PUSH2 0x2D58 JUMP JUMPDEST ADD SWAP1 PUSH1 0x0 JUMPDEST DUP3 DUP2 LT PUSH2 0x34CD JUMPI POP POP POP JUMP JUMPDEST DUP1 PUSH1 0x60 PUSH1 0x20 DUP1 SWAP4 DUP6 ADD ADD MSTORE ADD PUSH2 0x34C1 JUMP JUMPDEST MLOAD SWAP1 DUP2 ISZERO ISZERO DUP3 SUB PUSH2 0x2B3B JUMPI JUMP JUMPDEST SWAP3 SWAP4 SWAP1 SWAP5 PUSH2 0x34FC DUP5 MLOAD DUP8 MLOAD EQ PUSH2 0x3422 JUMP JUMPDEST PUSH1 0x0 SWAP4 PUSH1 0x0 JUMPDEST DUP2 MLOAD DUP2 LT ISZERO PUSH2 0x3537 JUMPI PUSH2 0x3515 DUP2 DUP10 PUSH2 0x311C JUMP JUMPDEST MLOAD PUSH2 0x3523 JUMPI JUMPDEST PUSH1 0x1 ADD PUSH2 0x3502 JUMP JUMPDEST SWAP5 PUSH2 0x352F PUSH1 0x1 SWAP2 PUSH2 0x30A0 JUMP JUMPDEST SWAP6 SWAP1 POP PUSH2 0x351B JUMP JUMPDEST POP SWAP2 SWAP4 SWAP5 SWAP1 SWAP3 SWAP5 DUP1 ISZERO PUSH2 0x37EA JUMPI PUSH2 0x354D SWAP1 PUSH2 0x3494 JUMP JUMPDEST SWAP4 PUSH1 0x0 SWAP4 PUSH1 0x0 JUMPDEST DUP5 MLOAD DUP2 LT ISZERO PUSH2 0x35AA JUMPI PUSH2 0x3567 DUP2 DUP11 PUSH2 0x311C JUMP JUMPDEST MLOAD PUSH2 0x3575 JUMPI JUMPDEST PUSH1 0x1 ADD PUSH2 0x3554 JUMP JUMPDEST SWAP5 PUSH2 0x35A2 PUSH1 0x1 SWAP2 PUSH2 0x3586 DUP9 DUP9 PUSH2 0x311C JUMP JUMPDEST MLOAD PUSH2 0x3591 DUP3 DUP12 PUSH2 0x311C JUMP JUMPDEST MSTORE PUSH2 0x359C DUP2 DUP11 PUSH2 0x311C JUMP JUMPDEST POP PUSH2 0x30A0 JUMP JUMPDEST SWAP6 SWAP1 POP PUSH2 0x356D JUMP JUMPDEST POP SWAP6 SWAP3 POP SWAP4 SWAP3 POP SWAP5 POP PUSH2 0x35BD DUP3 MLOAD PUSH2 0x3494 JUMP JUMPDEST SWAP5 DUP4 PUSH1 0x0 MSTORE PUSH1 0x8 PUSH1 0x20 MSTORE PUSH1 0x40 PUSH1 0x0 KECCAK256 SWAP4 PUSH1 0x5 PUSH1 0x0 SWAP6 ADD SWAP5 JUMPDEST DUP5 MLOAD DUP2 LT ISZERO PUSH2 0x368A JUMPI DUP1 PUSH2 0x35EB PUSH1 0x1 SWAP3 DUP8 PUSH2 0x311C JUMP JUMPDEST MLOAD PUSH2 0x35FE PUSH2 0x35F9 DUP10 DUP4 PUSH2 0x2CBD JUMP JUMPDEST PUSH2 0x2BF3 JUMP JUMPDEST DUP1 MLOAD SWAP1 SWAP2 SWAP1 ISZERO PUSH2 0x3626 JUMPI POP PUSH2 0x3613 DUP3 DUP12 PUSH2 0x311C JUMP JUMPDEST MSTORE PUSH2 0x361E DUP2 DUP11 PUSH2 0x311C JUMP JUMPDEST POP JUMPDEST ADD PUSH2 0x35D5 JUMP JUMPDEST SWAP1 POP PUSH2 0x366F PUSH1 0x30 PUSH1 0x40 MLOAD DUP1 SWAP4 PUSH16 0x29B0B6B83632903230BA30903337B91 PUSH1 0x85 SHL PUSH1 0x20 DUP4 ADD MSTORE PUSH2 0x365E DUP2 MLOAD DUP1 SWAP3 PUSH1 0x20 DUP7 DUP7 ADD SWAP2 ADD PUSH2 0x2B40 JUMP JUMPDEST DUP2 ADD SUB ADD PUSH1 0x1F NOT DUP2 ADD DUP4 MSTORE DUP3 PUSH2 0x2AB6 JUMP JUMPDEST PUSH2 0x3679 DUP3 DUP12 PUSH2 0x311C JUMP JUMPDEST MSTORE PUSH2 0x3684 DUP2 DUP11 PUSH2 0x311C JUMP JUMPDEST POP PUSH2 0x3620 JUMP JUMPDEST POP SWAP3 SWAP1 SWAP4 POP SWAP4 SWAP1 SWAP4 PUSH1 0x0 SWAP4 DUP2 MLOAD PUSH2 0x36A4 JUMPI JUMPDEST POP SWAP5 SWAP4 SWAP3 SWAP2 SWAP1 JUMP JUMPDEST PUSH2 0x36D4 DUP6 PUSH2 0x36B1 DUP5 PUSH2 0x310F JUMP JUMPDEST MLOAD PUSH1 0x40 MLOAD DUP1 SWAP4 DUP2 SWAP3 PUSH4 0x79C4AB15 PUSH1 0xE0 SHL DUP4 MSTORE PUSH1 0x20 PUSH1 0x4 DUP5 ADD MSTORE PUSH1 0x24 DUP4 ADD SWAP1 PUSH2 0x2B63 JUMP JUMPDEST SUB DUP2 ADDRESS GAS STATICCALL SWAP1 DUP2 ISZERO PUSH2 0x37DF JUMPI DUP7 SWAP2 DUP8 SWAP2 DUP9 SWAP2 PUSH2 0x3736 JUMPI JUMPDEST POP DUP2 PUSH2 0x372D JUMPI JUMPDEST POP PUSH2 0x36FE JUMPI JUMPDEST POP PUSH2 0x369C JUMP JUMPDEST PUSH2 0x370B SWAP1 SWAP6 SWAP3 SWAP6 TIMESTAMP PUSH2 0x2F53 JUMP JUMPDEST SWAP1 DUP1 DUP3 LT PUSH2 0x371E JUMPI POP POP JUMPDEST SWAP3 CODESIZE DUP1 PUSH2 0x36F8 JUMP JUMPDEST PUSH2 0x3728 SWAP3 POP PUSH2 0x2F53 JUMP JUMPDEST PUSH2 0x3716 JUMP JUMPDEST SWAP1 POP ISZERO CODESIZE PUSH2 0x36F2 JUMP JUMPDEST SWAP3 POP POP POP RETURNDATASIZE DUP1 DUP8 DUP4 RETURNDATACOPY PUSH2 0x3749 DUP2 DUP4 PUSH2 0x2AB6 JUMP JUMPDEST DUP2 ADD SWAP1 PUSH1 0x80 DUP2 DUP4 SUB SLT PUSH2 0x37DB JUMPI DUP1 MLOAD PUSH2 0x3764 PUSH1 0x20 DUP4 ADD PUSH2 0x34DE JUMP JUMPDEST SWAP3 PUSH2 0x3771 PUSH1 0x40 DUP5 ADD PUSH2 0x34DE JUMP JUMPDEST PUSH1 0x60 DUP5 ADD MLOAD SWAP1 SWAP4 PUSH1 0x1 PUSH1 0x1 PUSH1 0x40 SHL SUB DUP3 GT PUSH2 0x37D3 JUMPI ADD DUP2 PUSH1 0x1F DUP3 ADD SLT ISZERO PUSH2 0x37D7 JUMPI DUP1 MLOAD SWAP2 PUSH2 0x379E DUP4 PUSH2 0x2AD9 JUMP JUMPDEST SWAP1 PUSH2 0x37AC PUSH1 0x40 MLOAD SWAP3 DUP4 PUSH2 0x2AB6 JUMP JUMPDEST DUP4 DUP3 MSTORE PUSH1 0x20 DUP5 DUP5 ADD ADD GT PUSH2 0x37D3 JUMPI SWAP1 PUSH1 0x20 DUP1 PUSH2 0x37CB SWAP5 SWAP4 ADD SWAP2 ADD PUSH2 0x2B40 JUMP JUMPDEST SWAP2 SWAP1 CODESIZE PUSH2 0x36EB JUMP JUMPDEST DUP11 DUP1 REVERT JUMPDEST DUP10 DUP1 REVERT JUMPDEST DUP7 DUP1 REVERT JUMPDEST PUSH1 0x40 MLOAD RETURNDATASIZE DUP9 DUP3 RETURNDATACOPY RETURNDATASIZE SWAP1 REVERT JUMPDEST POP POP POP SWAP2 POP SWAP2 POP PUSH2 0x37F9 PUSH2 0x3460 JUMP JUMPDEST SWAP1 PUSH2 0x3802 PUSH2 0x3460 JUMP JUMPDEST SWAP3 PUSH2 0x380B PUSH2 0x3460 JUMP JUMPDEST SWAP3 SWAP4 SWAP3 SWAP2 PUSH1 0x0 SWAP2 SWAP1 JUMP JUMPDEST SWAP1 PUSH2 0x381F DUP3 PUSH2 0x2D58 JUMP JUMPDEST PUSH2 0x382C PUSH1 0x40 MLOAD SWAP2 DUP3 PUSH2 0x2AB6 JUMP JUMPDEST DUP3 DUP2 MSTORE DUP1 SWAP3 PUSH2 0x383D PUSH1 0x1F NOT SWAP2 PUSH2 0x2D58 JUMP JUMPDEST ADD SWAP1 PUSH1 0x20 CALLDATASIZE SWAP2 ADD CALLDATACOPY JUMP JUMPDEST PUSH1 0x40 MLOAD DUP2 MLOAD SWAP1 PUSH1 0x20 DUP2 DUP2 DUP6 ADD SWAP4 PUSH2 0x385F DUP2 DUP4 DUP8 PUSH2 0x2B40 JUMP JUMPDEST DUP2 ADD PUSH1 0x6 DUP2 MSTORE SUB ADD SWAP1 KECCAK256 SWAP2 DUP3 SLOAD PUSH2 0x3875 DUP2 PUSH2 0x2D58 JUMP JUMPDEST SWAP4 PUSH2 0x3883 PUSH1 0x40 MLOAD SWAP6 DUP7 PUSH2 0x2AB6 JUMP JUMPDEST DUP2 DUP6 MSTORE PUSH1 0x20 DUP6 ADD SWAP1 PUSH1 0x0 MSTORE PUSH1 0x20 PUSH1 0x0 KECCAK256 PUSH1 0x0 SWAP2 JUMPDEST DUP4 DUP4 LT PUSH2 0x3A47 JUMPI POP POP POP POP PUSH2 0x38BA SWAP2 PUSH1 0x20 SWAP2 PUSH1 0x40 MLOAD SWAP4 DUP5 SWAP3 DUP4 SWAP3 MLOAD SWAP3 DUP4 SWAP2 PUSH2 0x2B40 JUMP JUMPDEST DUP2 ADD PUSH1 0x7 DUP2 MSTORE SUB ADD SWAP1 KECCAK256 SWAP1 DUP1 MLOAD ISZERO PUSH2 0x3A06 JUMPI PUSH2 0x38D6 DUP2 MLOAD PUSH2 0x3494 JUMP JUMPDEST SWAP1 PUSH1 0x0 SWAP4 DUP5 JUMPDEST DUP3 MLOAD DUP2 LT ISZERO PUSH2 0x3968 JUMPI PUSH1 0x20 PUSH2 0x38F1 DUP3 DUP6 PUSH2 0x311C JUMP JUMPDEST MLOAD ADD MLOAD PUSH1 0x0 PUSH1 0x20 DUP3 ADD DUP2 JUMPDEST DUP10 DUP2 LT PUSH2 0x3939 JUMPI JUMPDEST POP POP ISZERO PUSH2 0x3915 JUMPI JUMPDEST POP PUSH1 0x1 ADD PUSH2 0x38DC JUMP JUMPDEST DUP7 PUSH2 0x3932 SWAP2 PUSH2 0x3927 PUSH1 0x1 SWAP5 SWAP10 DUP9 PUSH2 0x311C JUMP JUMPDEST MSTORE PUSH2 0x359C DUP2 DUP8 PUSH2 0x311C JUMP JUMPDEST SWAP6 SWAP1 PUSH2 0x390C JUMP JUMPDEST PUSH2 0x3943 DUP2 DUP10 PUSH2 0x311C JUMP JUMPDEST MLOAD PUSH1 0x20 DUP2 MLOAD SWAP2 ADD KECCAK256 DUP5 MLOAD DUP4 KECCAK256 EQ PUSH2 0x395C JUMPI PUSH1 0x1 ADD PUSH2 0x38FC JUMP JUMPDEST POP POP POP PUSH1 0x1 CODESIZE DUP1 PUSH2 0x3904 JUMP JUMPDEST POP SWAP2 SWAP3 SWAP4 SWAP1 POP PUSH2 0x3977 DUP2 PUSH2 0x3494 JUMP JUMPDEST SWAP1 PUSH2 0x3981 DUP2 PUSH2 0x3815 JUMP JUMPDEST SWAP5 PUSH2 0x398B DUP3 PUSH2 0x3815 JUMP JUMPDEST SWAP5 PUSH1 0x7 DUP3 ADD SWAP2 PUSH1 0x6 ADD PUSH1 0x0 JUMPDEST DUP5 DUP2 LT PUSH2 0x39A8 JUMPI POP POP POP POP POP SWAP3 SWAP2 SWAP1 JUMP JUMPDEST DUP1 PUSH2 0x39B5 PUSH1 0x1 SWAP3 DUP6 PUSH2 0x311C JUMP JUMPDEST MLOAD PUSH2 0x39C0 DUP3 DUP10 PUSH2 0x311C JUMP JUMPDEST MSTORE PUSH2 0x39CB DUP2 DUP9 PUSH2 0x311C JUMP JUMPDEST POP PUSH2 0x39DA DUP4 PUSH2 0x10DE DUP4 DUP8 PUSH2 0x311C JUMP JUMPDEST SLOAD PUSH2 0x39E5 DUP3 DUP13 PUSH2 0x311C JUMP JUMPDEST MSTORE PUSH2 0x39F4 DUP6 PUSH2 0x10DE DUP4 DUP8 PUSH2 0x311C JUMP JUMPDEST SLOAD PUSH2 0x39FF DUP3 DUP12 PUSH2 0x311C JUMP JUMPDEST MSTORE ADD PUSH2 0x3997 JUMP JUMPDEST POP POP PUSH2 0x3A10 PUSH2 0x3460 JUMP JUMPDEST PUSH1 0x40 MLOAD SWAP2 PUSH1 0x20 SWAP2 PUSH2 0x3A21 DUP4 DUP6 PUSH2 0x2AB6 JUMP JUMPDEST PUSH1 0x0 DUP5 MSTORE PUSH1 0x0 CALLDATASIZE DUP2 CALLDATACOPY PUSH1 0x40 MLOAD SWAP3 PUSH2 0x3A38 DUP2 DUP6 PUSH2 0x2AB6 JUMP JUMPDEST PUSH1 0x0 DUP5 MSTORE POP PUSH1 0x0 CALLDATASIZE DUP2 CALLDATACOPY SWAP3 SWAP2 SWAP1 JUMP JUMPDEST PUSH1 0x4 PUSH1 0x20 PUSH1 0x1 SWAP3 PUSH1 0x40 MLOAD PUSH2 0x3A5A DUP2 PUSH2 0x2A6A JUMP JUMPDEST DUP5 DUP1 PUSH1 0xA0 SHL SUB DUP7 SLOAD AND DUP2 MSTORE PUSH2 0x3A70 DUP6 DUP8 ADD PUSH2 0x2BF3 JUMP JUMPDEST DUP4 DUP3 ADD MSTORE PUSH1 0xFF PUSH1 0x2 DUP8 ADD SLOAD AND ISZERO ISZERO PUSH1 0x40 DUP3 ADD MSTORE PUSH1 0x3 DUP7 ADD SLOAD PUSH1 0x60 DUP3 ADD MSTORE DUP2 MSTORE ADD SWAP3 ADD SWAP3 ADD SWAP2 SWAP1 PUSH2 0x3897 JUMP JUMPDEST PUSH1 0x40 MLOAD SWAP1 PUSH2 0x3AAA PUSH1 0x40 DUP4 PUSH2 0x2AB6 JUMP JUMPDEST PUSH1 0x7 DUP3 MSTORE PUSH7 0x31B932B0BA37B9 PUSH1 0xC9 SHL PUSH1 0x20 DUP4 ADD MSTORE JUMP JUMPDEST PUSH1 0x40 MLOAD SWAP1 PUSH2 0x3ACF PUSH1 0x40 DUP4 PUSH2 0x2AB6 JUMP JUMPDEST PUSH1 0xB DUP3 MSTORE PUSH11 0x31B7B73A3934B13ABA37B9 PUSH1 0xA9 SHL PUSH1 0x20 DUP4 ADD MSTORE JUMP JUMPDEST PUSH1 0x40 MLOAD SWAP1 PUSH2 0x3AF8 PUSH1 0x40 DUP4 PUSH2 0x2AB6 JUMP JUMPDEST PUSH1 0xB DUP3 MSTORE PUSH11 0x31B7B7B93234B730BA37B9 PUSH1 0xA9 SHL PUSH1 0x20 DUP4 ADD MSTORE JUMP JUMPDEST PUSH1 0x40 MLOAD SWAP1 PUSH2 0x3B21 PUSH1 0x40 DUP4 PUSH2 0x2AB6 JUMP JUMPDEST PUSH1 0xC DUP3 MSTORE PUSH12 0x4E4F5F434F4E53454E535553 PUSH1 0xA0 SHL PUSH1 0x20 DUP4 ADD MSTORE JUMP JUMPDEST PUSH1 0x40 MLOAD SWAP1 PUSH2 0x3B4B PUSH1 0x40 DUP4 PUSH2 0x2AB6 JUMP JUMPDEST PUSH1 0x8 DUP3 MSTORE PUSH8 0x4E4F5F564F544553 PUSH1 0xC0 SHL PUSH1 0x20 DUP4 ADD MSTORE JUMP JUMPDEST PUSH1 0x40 MLOAD PUSH1 0xFF PUSH1 0x1 DUP4 MLOAD SWAP3 PUSH1 0x20 DUP2 DUP2 DUP8 ADD SWAP6 PUSH2 0x3B7E DUP2 DUP4 DUP10 PUSH2 0x2B40 JUMP JUMPDEST DUP2 ADD PUSH1 0x7 DUP2 MSTORE SUB ADD SWAP1 KECCAK256 ADD SLOAD PUSH1 0x8 SHR AND ISZERO PUSH2 0x3BD0 JUMPI PUSH1 0x2 PUSH2 0x26E8 PUSH1 0x20 PUSH2 0x3BAF SWAP4 PUSH1 0x40 MLOAD DUP1 SWAP4 DUP2 SWAP3 DUP9 MLOAD SWAP3 DUP4 SWAP2 PUSH2 0x2B40 JUMP JUMPDEST DUP1 MLOAD DUP1 ISZERO SWAP1 DUP2 ISZERO PUSH2 0x3BF4 JUMPI JUMPDEST POP DUP1 ISZERO PUSH2 0x3BD7 JUMPI JUMPDEST PUSH2 0x3BD0 JUMPI PUSH2 0x3038 SWAP2 PUSH2 0x42FB JUMP JUMPDEST POP POP PUSH1 0x0 SWAP1 JUMP JUMPDEST POP DUP1 MLOAD PUSH1 0x20 DUP3 ADD KECCAK256 PUSH2 0x3BE7 PUSH2 0x3B3C JUMP JUMPDEST PUSH1 0x20 DUP2 MLOAD SWAP2 ADD KECCAK256 EQ PUSH2 0x3BC3 JUMP JUMPDEST SWAP1 POP PUSH1 0x20 DUP3 ADD KECCAK256 PUSH2 0x3C03 PUSH2 0x3B12 JUMP JUMPDEST PUSH1 0x20 DUP2 MLOAD SWAP2 ADD KECCAK256 EQ CODESIZE PUSH2 0x3BBB JUMP JUMPDEST PUSH1 0x2 SLOAD DUP1 ISZERO PUSH2 0x3BD0 JUMPI PUSH2 0x3C36 PUSH1 0x20 PUSH2 0x3C46 SWAP4 DUP2 PUSH1 0x40 MLOAD SWAP4 DUP3 DUP6 DUP1 SWAP5 MLOAD SWAP4 DUP5 SWAP3 ADD PUSH2 0x2B40 JUMP JUMPDEST DUP2 ADD PUSH1 0x7 DUP2 MSTORE SUB ADD SWAP1 KECCAK256 SLOAD PUSH2 0x3093 JUMP JUMPDEST TIMESTAMP GT SWAP1 JUMP JUMPDEST SWAP1 PUSH1 0x0 PUSH1 0x40 MLOAD PUSH2 0x3C6D PUSH1 0xFF PUSH1 0x1 DUP7 MLOAD SWAP4 PUSH1 0x20 DUP2 DUP2 DUP11 ADD SWAP7 PUSH2 0x281D DUP2 DUP4 DUP11 PUSH2 0x2B40 JUMP JUMPDEST PUSH2 0x3C87 PUSH1 0xFF PUSH1 0x1 PUSH1 0x40 MLOAD PUSH1 0x20 DUP2 DUP10 MLOAD PUSH2 0x2840 DUP2 DUP4 DUP11 PUSH2 0x2B40 JUMP JUMPDEST PUSH1 0x1 PUSH1 0x40 MLOAD PUSH1 0x20 DUP2 DUP8 MLOAD PUSH2 0x3C9C DUP2 DUP4 DUP9 PUSH2 0x2B40 JUMP JUMPDEST DUP2 ADD PUSH1 0x7 DUP2 MSTORE SUB ADD SWAP1 KECCAK256 ADD PUSH1 0xFF NOT DUP2 SLOAD AND SWAP1 SSTORE PUSH1 0x1 PUSH1 0x40 MLOAD PUSH1 0x20 DUP2 DUP8 MLOAD PUSH2 0x3CC4 DUP2 DUP4 DUP9 PUSH2 0x2B40 JUMP JUMPDEST DUP2 ADD PUSH1 0x7 DUP2 MSTORE SUB ADD SWAP1 KECCAK256 ADD PUSH2 0x100 PUSH2 0xFF00 NOT DUP3 SLOAD AND OR SWAP1 SSTORE PUSH2 0x3CE5 DUP5 PUSH2 0x4483 JUMP JUMPDEST SWAP3 PUSH1 0x2 PUSH1 0x40 MLOAD PUSH1 0x20 DUP2 DUP9 MLOAD PUSH2 0x3CFB DUP2 DUP4 DUP10 PUSH2 0x2B40 JUMP JUMPDEST DUP2 ADD PUSH1 0x7 DUP2 MSTORE SUB ADD SWAP1 KECCAK256 ADD DUP5 MLOAD PUSH1 0x1 DUP1 PUSH1 0x40 SHL SUB DUP2 GT PUSH2 0x408F JUMPI PUSH2 0x3D1F DUP3 SLOAD PUSH2 0x2BB9 JUMP JUMPDEST PUSH1 0x1F DUP2 GT PUSH2 0x405F JUMPI JUMPDEST POP PUSH1 0x20 PUSH1 0x1F DUP3 GT PUSH1 0x1 EQ PUSH2 0x3FE3 JUMPI PUSH2 0x3DD8 PUSH2 0x3DEC SWAP5 PUSH1 0x20 SWAP5 PUSH2 0x3D65 DUP6 PUSH1 0x4 SWAP10 SWAP7 PUSH1 0x0 DUP1 MLOAD PUSH1 0x20 PUSH2 0x4600 DUP4 CODECOPY DUP2 MLOAD SWAP2 MSTORE SWAP7 DUP13 SWAP2 PUSH2 0x3FD8 JUMPI JUMPDEST POP PUSH2 0x323B JUMP JUMPDEST SWAP1 SSTORE JUMPDEST PUSH32 0x8A0CC662156DA5580404150064CC81955DE64EF5A8090364795EDCBAC8429991 PUSH1 0x40 MLOAD DUP1 PUSH2 0x3D99 DUP14 TIMESTAMP SWAP1 DUP4 PUSH2 0x2FF7 JUMP JUMPDEST SUB SWAP1 LOG1 PUSH1 0x40 MLOAD SWAP2 DUP3 SWAP2 PUSH1 0x80 DUP4 MSTORE PUSH2 0x3DC4 PUSH2 0x3DB7 DUP14 PUSH1 0x80 DUP7 ADD SWAP1 PUSH2 0x2B63 JUMP JUMPDEST DUP5 DUP2 SUB DUP10 DUP7 ADD MSTORE DUP13 PUSH2 0x2B63 JUMP JUMPDEST SWAP1 TIMESTAMP PUSH1 0x40 DUP6 ADD MSTORE DUP4 DUP3 SUB PUSH1 0x60 DUP6 ADD MSTORE PUSH2 0x2B63 JUMP JUMPDEST SUB SWAP1 LOG1 PUSH1 0x40 MLOAD DUP1 SWAP4 DUP2 SWAP3 DUP10 MLOAD SWAP3 DUP4 SWAP2 PUSH2 0x2B40 JUMP JUMPDEST DUP2 ADD PUSH1 0x7 DUP2 MSTORE SUB ADD SWAP1 KECCAK256 ADD SLOAD DUP1 ISZERO ISZERO DUP1 PUSH2 0x3FBF JUMPI JUMPDEST PUSH2 0x3E9C JUMPI JUMPDEST POP ADDRESS EXTCODESIZE ISZERO PUSH2 0x1B0 JUMPI PUSH1 0x40 MLOAD PUSH4 0x2E4BCA8F PUSH1 0xE1 SHL DUP2 MSTORE SWAP1 DUP1 DUP3 DUP1 PUSH2 0x3E2D DUP7 DUP9 PUSH1 0x4 DUP5 ADD PUSH2 0x3013 JUMP JUMPDEST SUB DUP2 DUP4 ADDRESS GAS CALL SWAP2 DUP3 PUSH2 0x3E8C JUMPI JUMPDEST POP POP PUSH2 0x3E44 JUMPI POP POP JUMP JUMPDEST PUSH32 0xDABBBDE127EF4AC1B0A84891A674BFC7B3CEFF8D1E7350ABD0F7C48021420D32 SWAP2 PUSH2 0x3E81 PUSH2 0x4AD SWAP3 PUSH1 0x40 MLOAD SWAP4 DUP5 SWAP4 PUSH1 0x60 DUP6 MSTORE PUSH1 0x60 DUP6 ADD SWAP1 PUSH2 0x2B63 JUMP JUMPDEST TIMESTAMP PUSH1 0x40 DUP4 ADD MSTORE SUB SWAP1 LOG1 JUMP JUMPDEST DUP2 PUSH2 0x3E96 SWAP2 PUSH2 0x2AB6 JUMP JUMPDEST CODESIZE PUSH2 0x3E3A JUMP JUMPDEST DUP1 DUP3 MSTORE PUSH1 0x8 PUSH1 0x20 MSTORE PUSH1 0x2 PUSH1 0x40 DUP4 KECCAK256 ADD PUSH2 0x3EB5 DUP2 SLOAD PUSH2 0x30A0 JUMP JUMPDEST SWAP1 SSTORE DUP1 DUP3 MSTORE PUSH1 0x8 PUSH1 0x20 MSTORE PUSH32 0x145F86831BF675D553EFC81172882ECDB1776F5BDFA7F1B8367AD08B57888740 PUSH2 0x3F01 PUSH1 0x1 PUSH1 0x40 DUP6 KECCAK256 ADD SLOAD DUP4 DUP6 MSTORE PUSH1 0x8 PUSH1 0x20 MSTORE PUSH1 0x2 PUSH1 0x40 DUP7 KECCAK256 ADD SLOAD SWAP1 PUSH2 0x2F53 JUMP JUMPDEST PUSH1 0x40 MLOAD DUP1 SWAP2 DUP5 DUP3 MSTORE PUSH1 0x80 PUSH1 0x20 DUP4 ADD MSTORE PUSH2 0x3F2E PUSH2 0x3F20 PUSH1 0x80 DUP5 ADD DUP11 PUSH2 0x2B63 JUMP JUMPDEST DUP4 DUP2 SUB PUSH1 0x40 DUP6 ADD MSTORE DUP9 PUSH2 0x2B63 JUMP JUMPDEST SWAP1 PUSH1 0x60 DUP4 ADD MSTORE SUB SWAP1 LOG1 DUP1 DUP3 MSTORE PUSH1 0x8 PUSH1 0x20 MSTORE PUSH1 0x2 PUSH1 0x40 DUP4 KECCAK256 ADD SLOAD DUP2 DUP4 MSTORE PUSH1 0x8 PUSH1 0x20 MSTORE PUSH1 0x1 PUSH1 0x40 DUP5 KECCAK256 ADD SLOAD GT PUSH2 0x3E06 JUMPI PUSH1 0x60 DUP2 PUSH32 0xCDF3A25AC86D8C6A422A8356F0FB7D6CC09B23CACA39FD699CBC6038E5587364 SWAP3 DUP5 MSTORE PUSH1 0x8 PUSH1 0x20 MSTORE PUSH1 0x3 PUSH1 0x40 DUP6 KECCAK256 ADD PUSH1 0xFF NOT DUP2 SLOAD AND SWAP1 SSTORE DUP1 DUP5 MSTORE PUSH1 0x8 PUSH1 0x20 MSTORE PUSH1 0x2 PUSH1 0x40 DUP6 KECCAK256 ADD SLOAD PUSH1 0x40 MLOAD SWAP2 DUP3 MSTORE PUSH1 0x20 DUP3 ADD MSTORE TIMESTAMP PUSH1 0x40 DUP3 ADD MSTORE LOG1 CODESIZE PUSH2 0x3E06 JUMP JUMPDEST POP DUP1 DUP3 MSTORE PUSH1 0x8 PUSH1 0x20 MSTORE PUSH1 0xFF PUSH1 0x3 PUSH1 0x40 DUP5 KECCAK256 ADD SLOAD AND PUSH2 0x3E01 JUMP JUMPDEST SWAP1 POP DUP13 ADD MLOAD CODESIZE PUSH2 0x3D5F JUMP JUMPDEST DUP3 DUP7 MSTORE DUP1 DUP7 KECCAK256 SWAP1 PUSH1 0x1F NOT DUP4 AND DUP8 JUMPDEST DUP2 DUP2 LT PUSH2 0x4047 JUMPI POP SWAP5 PUSH1 0x20 SWAP5 PUSH1 0x1 DUP6 PUSH1 0x0 DUP1 MLOAD PUSH1 0x20 PUSH2 0x4600 DUP4 CODECOPY DUP2 MLOAD SWAP2 MSTORE SWAP6 PUSH2 0x3DD8 SWAP6 PUSH1 0x4 SWAP12 SWAP9 PUSH2 0x3DEC SWAP12 LT PUSH2 0x402E JUMPI JUMPDEST POP POP DUP2 SHL ADD SWAP1 SSTORE PUSH2 0x3D68 JUMP JUMPDEST DUP14 ADD MLOAD PUSH1 0x0 NOT PUSH1 0xF8 DUP5 PUSH1 0x3 SHL AND SHR NOT AND SWAP1 SSTORE CODESIZE DUP1 PUSH2 0x4022 JUMP JUMPDEST SWAP2 SWAP3 PUSH1 0x20 PUSH1 0x1 DUP2 SWAP3 DUP7 DUP14 ADD MLOAD DUP2 SSTORE ADD SWAP5 ADD SWAP3 ADD PUSH2 0x3FF1 JUMP JUMPDEST PUSH2 0x4089 SWAP1 DUP4 DUP8 MSTORE PUSH1 0x20 DUP8 KECCAK256 PUSH1 0x1F DUP5 ADD PUSH1 0x5 SHR DUP2 ADD SWAP2 PUSH1 0x20 DUP6 LT PUSH2 0x11DD JUMPI PUSH1 0x1F ADD PUSH1 0x5 SHR ADD SWAP1 PUSH2 0x30F8 JUMP JUMPDEST CODESIZE PUSH2 0x3D28 JUMP JUMPDEST PUSH4 0x4E487B71 PUSH1 0xE0 SHL DUP6 MSTORE PUSH1 0x41 PUSH1 0x4 MSTORE PUSH1 0x24 DUP6 REVERT JUMPDEST PUSH1 0x0 MSTORE PUSH1 0x8 PUSH1 0x20 MSTORE PUSH2 0x40BB PUSH1 0x1 PUSH1 0x40 PUSH1 0x0 KECCAK256 ADD PUSH2 0x303B JUMP JUMPDEST DUP1 MLOAD ISZERO PUSH2 0x4144 JUMPI PUSH1 0x5 SLOAD PUSH1 0x0 SWAP2 JUMPDEST DUP2 DUP4 LT PUSH2 0x40D8 JUMPI POP POP POP PUSH1 0x1 SWAP1 JUMP JUMPDEST PUSH2 0x40E1 DUP4 PUSH2 0x2B88 JUMP JUMPDEST SWAP1 SLOAD PUSH1 0x3 SWAP2 SWAP1 SWAP2 SHL SHR PUSH1 0x1 PUSH1 0x1 PUSH1 0xA0 SHL SUB AND SWAP2 PUSH1 0x0 JUMPDEST DUP3 MLOAD DUP2 LT ISZERO PUSH2 0x4137 JUMPI PUSH1 0xFF PUSH1 0x40 PUSH1 0x5 PUSH2 0x4113 PUSH2 0x58C DUP6 DUP9 PUSH2 0x311C JUMP JUMPDEST ADD PUSH1 0x0 SWAP1 DUP8 DUP3 MSTORE PUSH1 0x20 MSTORE KECCAK256 SLOAD AND ISZERO PUSH2 0x412D JUMPI PUSH1 0x1 ADD PUSH2 0x40F7 JUMP JUMPDEST POP POP POP POP POP PUSH1 0x0 SWAP1 JUMP JUMPDEST POP SWAP2 POP SWAP2 PUSH1 0x1 ADD SWAP2 PUSH2 0x40C9 JUMP JUMPDEST POP PUSH1 0x0 SWAP1 JUMP JUMPDEST PUSH1 0x60 SWAP2 PUSH1 0x40 MLOAD PUSH1 0x20 DUP2 DUP5 MLOAD PUSH2 0x4162 DUP2 DUP4 DUP6 DUP10 ADD PUSH2 0x2B40 JUMP JUMPDEST DUP2 ADD PUSH1 0x6 DUP2 MSTORE SUB ADD SWAP1 KECCAK256 DUP1 SLOAD SWAP1 PUSH2 0x4178 DUP3 PUSH2 0x2D58 JUMP JUMPDEST SWAP5 PUSH2 0x4186 PUSH1 0x40 MLOAD SWAP7 DUP8 PUSH2 0x2AB6 JUMP JUMPDEST DUP3 DUP7 MSTORE PUSH1 0x20 DUP7 ADD SWAP2 PUSH1 0x0 MSTORE PUSH1 0x20 PUSH1 0x0 KECCAK256 SWAP1 PUSH1 0x0 SWAP3 JUMPDEST DUP5 DUP5 LT PUSH2 0x42A8 JUMPI POP POP POP POP POP DUP3 MLOAD ISZERO PUSH2 0x4297 JUMPI PUSH2 0x41B8 DUP4 MLOAD PUSH2 0x3494 JUMP JUMPDEST SWAP1 PUSH1 0x0 SWAP1 DUP2 JUMPDEST DUP6 MLOAD DUP2 LT ISZERO PUSH2 0x423F JUMPI PUSH1 0x20 PUSH2 0x41D3 DUP3 DUP9 PUSH2 0x311C JUMP JUMPDEST MLOAD ADD MLOAD PUSH1 0x0 PUSH1 0x20 DUP3 ADD DUP2 JUMPDEST DUP7 DUP2 LT PUSH2 0x4210 JUMPI JUMPDEST POP POP ISZERO PUSH2 0x41F7 JUMPI JUMPDEST POP PUSH1 0x1 ADD PUSH2 0x41BE JUMP JUMPDEST DUP4 PUSH2 0x4209 SWAP2 PUSH2 0x3927 PUSH1 0x1 SWAP5 SWAP7 DUP9 PUSH2 0x311C JUMP JUMPDEST SWAP3 SWAP1 PUSH2 0x41EE JUMP JUMPDEST PUSH2 0x421A DUP2 DUP10 PUSH2 0x311C JUMP JUMPDEST MLOAD PUSH1 0x20 DUP2 MLOAD SWAP2 ADD KECCAK256 DUP5 MLOAD DUP4 KECCAK256 EQ PUSH2 0x4233 JUMPI PUSH1 0x1 ADD PUSH2 0x41DE JUMP JUMPDEST POP POP POP PUSH1 0x1 CODESIZE DUP1 PUSH2 0x41E6 JUMP JUMPDEST POP SWAP4 POP SWAP2 PUSH1 0x0 JUMPDEST DUP4 DUP2 LT PUSH2 0x4266 JUMPI POP POP POP POP PUSH1 0x40 MLOAD PUSH2 0x425F PUSH1 0x20 DUP3 PUSH2 0x2AB6 JUMP JUMPDEST PUSH1 0x0 DUP2 MSTORE SWAP1 JUMP JUMPDEST PUSH2 0x427A PUSH2 0x4273 DUP3 DUP6 PUSH2 0x311C JUMP JUMPDEST MLOAD DUP4 PUSH2 0x42FB JUMP JUMPDEST PUSH2 0x4286 JUMPI PUSH1 0x1 ADD PUSH2 0x4246 JUMP JUMPDEST SWAP2 SWAP1 POP PUSH2 0x4293 SWAP3 POP PUSH2 0x311C JUMP JUMPDEST MLOAD SWAP1 JUMP JUMPDEST SWAP2 POP POP PUSH1 0x40 MLOAD PUSH2 0x425F PUSH1 0x20 DUP3 PUSH2 0x2AB6 JUMP JUMPDEST PUSH1 0x4 PUSH1 0x20 PUSH1 0x1 SWAP3 PUSH1 0x40 MLOAD PUSH2 0x42BB DUP2 PUSH2 0x2A6A JUMP JUMPDEST DUP5 DUP1 PUSH1 0xA0 SHL SUB DUP8 SLOAD AND DUP2 MSTORE PUSH2 0x42D1 DUP6 DUP9 ADD PUSH2 0x2BF3 JUMP JUMPDEST DUP4 DUP3 ADD MSTORE PUSH1 0xFF PUSH1 0x2 DUP9 ADD SLOAD AND ISZERO ISZERO PUSH1 0x40 DUP3 ADD MSTORE PUSH1 0x3 DUP8 ADD SLOAD DUP7 DUP3 ADD MSTORE DUP2 MSTORE ADD SWAP4 ADD SWAP4 ADD SWAP3 SWAP2 PUSH2 0x419B JUMP JUMPDEST PUSH1 0x20 PUSH2 0x4317 SWAP2 SWAP4 SWAP3 SWAP4 DUP2 PUSH1 0x40 MLOAD SWAP4 DUP3 DUP6 DUP1 SWAP5 MLOAD SWAP4 DUP5 SWAP3 ADD PUSH2 0x2B40 JUMP JUMPDEST DUP2 ADD PUSH1 0x6 DUP2 MSTORE SUB ADD SWAP1 KECCAK256 DUP1 SLOAD PUSH2 0x432C DUP2 PUSH2 0x2D58 JUMP JUMPDEST SWAP2 PUSH2 0x433A PUSH1 0x40 MLOAD SWAP4 DUP5 PUSH2 0x2AB6 JUMP JUMPDEST DUP2 DUP4 MSTORE PUSH1 0x20 DUP4 ADD SWAP1 PUSH1 0x0 MSTORE PUSH1 0x20 PUSH1 0x0 KECCAK256 PUSH1 0x0 SWAP2 JUMPDEST DUP4 DUP4 LT PUSH2 0x442F JUMPI POP POP POP POP DUP1 MLOAD ISZERO PUSH2 0x4428 JUMPI PUSH1 0x0 SWAP1 DUP2 DUP3 JUMPDEST DUP3 MLOAD DUP2 LT ISZERO PUSH2 0x43CD JUMPI PUSH1 0x20 PUSH2 0x437B DUP3 DUP6 PUSH2 0x311C JUMP JUMPDEST MLOAD ADD MLOAD PUSH1 0x20 DUP2 MLOAD SWAP2 ADD KECCAK256 DUP7 MLOAD PUSH1 0x20 DUP9 ADD KECCAK256 EQ PUSH2 0x439A JUMPI JUMPDEST PUSH1 0x1 ADD PUSH2 0x4366 JUMP JUMPDEST SWAP1 PUSH2 0x43A4 SWAP1 PUSH2 0x30A0 JUMP JUMPDEST SWAP1 PUSH1 0x40 PUSH2 0x43B1 DUP3 DUP6 PUSH2 0x311C JUMP JUMPDEST MLOAD ADD MLOAD ISZERO PUSH2 0x4392 JUMPI SWAP3 PUSH2 0x43C5 PUSH1 0x1 SWAP2 PUSH2 0x30A0 JUMP JUMPDEST SWAP4 SWAP1 POP PUSH2 0x4392 JUMP JUMPDEST POP SWAP1 SWAP2 SWAP3 SWAP4 POP DUP1 ISZERO PUSH2 0x4420 JUMPI DUP3 EQ PUSH2 0x43E6 JUMPI POP POP PUSH1 0x0 SWAP1 JUMP JUMPDEST MLOAD PUSH1 0x64 DUP3 MUL SWAP2 DUP1 DUP4 DIV PUSH1 0x64 EQ SWAP1 ISZERO OR ISZERO PUSH2 0x2F60 JUMPI DUP1 ISZERO PUSH2 0x440A JUMPI PUSH1 0x1 SLOAD SWAP2 DIV LT ISZERO SWAP1 JUMP JUMPDEST PUSH4 0x4E487B71 PUSH1 0xE0 SHL PUSH1 0x0 MSTORE PUSH1 0x12 PUSH1 0x4 MSTORE PUSH1 0x24 PUSH1 0x0 REVERT JUMPDEST POP POP POP PUSH1 0x0 SWAP1 JUMP JUMPDEST POP PUSH1 0x0 SWAP2 POP JUMP JUMPDEST PUSH1 0x4 PUSH1 0x20 PUSH1 0x1 SWAP3 PUSH1 0x40 MLOAD PUSH2 0x4442 DUP2 PUSH2 0x2A6A JUMP JUMPDEST DUP5 DUP1 PUSH1 0xA0 SHL SUB DUP7 SLOAD AND DUP2 MSTORE PUSH2 0x4458 DUP6 DUP8 ADD PUSH2 0x2BF3 JUMP JUMPDEST DUP4 DUP3 ADD MSTORE PUSH1 0xFF PUSH1 0x2 DUP8 ADD SLOAD AND ISZERO ISZERO PUSH1 0x40 DUP3 ADD MSTORE PUSH1 0x3 DUP7 ADD SLOAD PUSH1 0x60 DUP3 ADD MSTORE DUP2 MSTORE ADD SWAP3 ADD SWAP3 ADD SWAP2 SWAP1 PUSH2 0x434E JUMP JUMPDEST PUSH1 0x60 SWAP1 PUSH1 0x40 MLOAD DUP2 MLOAD SWAP1 PUSH1 0x20 DUP2 DUP2 DUP6 ADD SWAP4 PUSH2 0x449E DUP2 DUP4 DUP8 PUSH2 0x2B40 JUMP JUMPDEST DUP2 ADD PUSH1 0x6 DUP2 MSTORE SUB ADD SWAP1 KECCAK256 DUP1 SLOAD SWAP1 PUSH2 0x44B4 DUP3 PUSH2 0x2D58 JUMP JUMPDEST SWAP5 PUSH2 0x44C2 PUSH1 0x40 MLOAD SWAP7 DUP8 PUSH2 0x2AB6 JUMP JUMPDEST DUP3 DUP7 MSTORE PUSH1 0x20 DUP7 ADD SWAP2 PUSH1 0x0 MSTORE PUSH1 0x20 PUSH1 0x0 KECCAK256 SWAP1 PUSH1 0x0 SWAP3 JUMPDEST DUP5 DUP5 LT PUSH2 0x45AC JUMPI POP POP POP POP POP DUP3 MLOAD ISZERO PUSH2 0x45A1 JUMPI PUSH1 0x20 PUSH2 0x4504 SWAP2 PUSH1 0x7 SWAP4 PUSH1 0x40 MLOAD SWAP4 DUP5 SWAP3 DUP4 SWAP3 MLOAD SWAP3 DUP4 SWAP2 PUSH2 0x2B40 JUMP JUMPDEST DUP2 ADD DUP5 DUP2 MSTORE SUB ADD SWAP1 KECCAK256 ADD PUSH1 0x20 SWAP3 PUSH1 0x40 MLOAD PUSH2 0x451F PUSH1 0x20 DUP3 PUSH2 0x2AB6 JUMP JUMPDEST PUSH1 0x0 DUP2 MSTORE SWAP3 PUSH1 0x0 SWAP2 PUSH1 0x0 JUMPDEST DUP3 MLOAD DUP2 LT ISZERO PUSH2 0x4584 JUMPI PUSH1 0x40 PUSH2 0x453F DUP3 DUP6 PUSH2 0x311C JUMP JUMPDEST MLOAD ADD MLOAD PUSH2 0x454F JUMPI JUMPDEST PUSH1 0x1 ADD PUSH2 0x452A JUMP JUMPDEST DUP7 PUSH2 0x455A DUP3 DUP6 PUSH2 0x311C JUMP JUMPDEST MLOAD ADD MLOAD PUSH2 0x4567 DUP7 DUP3 PUSH2 0x2CBD JUMP JUMPDEST SLOAD DUP6 DUP2 GT PUSH2 0x4577 JUMPI JUMPDEST POP POP PUSH2 0x4547 JUMP JUMPDEST SWAP1 SWAP7 POP SWAP4 POP PUSH1 0x1 CODESIZE PUSH2 0x4570 JUMP JUMPDEST POP SWAP5 POP POP POP POP DUP1 MLOAD ISZERO ISZERO PUSH1 0x0 EQ PUSH2 0x4598 JUMPI SWAP1 JUMP JUMPDEST POP PUSH2 0x3038 PUSH2 0x3B12 JUMP JUMPDEST POP POP POP PUSH2 0x3038 PUSH2 0x3B3C JUMP JUMPDEST PUSH1 0x4 PUSH1 0x20 PUSH1 0x1 SWAP3 PUSH1 0x40 MLOAD PUSH2 0x45BF DUP2 PUSH2 0x2A6A JUMP JUMPDEST DUP5 DUP1 PUSH1 0xA0 SHL SUB DUP8 SLOAD AND DUP2 MSTORE PUSH2 0x45D5 DUP6 DUP9 ADD PUSH2 0x2BF3 JUMP JUMPDEST DUP4 DUP3 ADD MSTORE PUSH1 0xFF PUSH1 0x2 DUP9 ADD SLOAD AND ISZERO ISZERO PUSH1 0x40 DUP3 ADD MSTORE PUSH1 0x3 DUP8 ADD SLOAD DUP7 DUP3 ADD MSTORE DUP2 MSTORE ADD SWAP4 ADD SWAP4 ADD SWAP3 SWAP2 PUSH2 0x44D7 JUMP INVALID 0xA8 0xE1 0x27 SWAP9 DUP9 0xC1 PUSH21 0xA6FBF4FD42A8BE4469B313BE30A5EDAC87AFF45C5F DUP11 GASLIMIT 0xD 0xEB 0xC 0xC6 0x2C DUP12 MULMOD PUSH25 0x8A11D11E96187C34C67FAD5E9651CADC6ACE24E1518490BED9 DUP2 0x25 PUSH26 0xD0860B48F37C239A6DB657BAD6560C277BBCE0A8A989D7022740 PUSH32 0xC62E06A26469706673582212203C58C01E4F0227D73E5D43717E061B360F065C DUP10 0xF8 0x29 0xE0 0xCE DUP16 PUSH10 0xAFC753D2C2664736F6C PUSH4 0x4300081C STOP CALLER "},"methodIdentifiers":{"batches(uint256)":"b32c4d8d","checkAndFinalizeTimeout(string)":"367cb924","computeActiveBatch(string[],bool[],string[],uint256,uint256)":"ab40d3ba","computeBatchProgress(uint256,string[],bool[])":"a76fd84e","computeEligibleVoters(address[],string[],uint256[])":"cdbf3d01","consensusThreshold()":"f9b0b5b9","currentRound()":"8a19c8bc","endBatchVoting(uint256)":"b8c39034","getBatchSamples(uint256)":"68acb1ab","getBatchStatus(uint256)":"2d1bbc8e","getCurrentBatchProgress()":"8520eb78","getFinalLabel(string)":"428f8338","getVoterList()":"b28d92ae","getVotes(string)":"805265e5","getVotingDistribution(string)":"b49c447e","getVotingResult(string)":"db7cde8b","getVotingSession(string)":"79c4ab15","getVotingSessionStatus(string)":"72678fcc","hasUserVoted(string,address)":"41497385","isTimeoutReached(string)":"26a0613a","isVotingActive(string)":"04574fe8","notifyMainContractExternal(string,string)":"5c97951e","project()":"f60ca60d","setVoters(address[],uint256[])":"75c255fc","startBatchVoting(string[],uint256,string[])":"af37b5c6","submitBatchVote(string[],string[],bool[])":"f02a0f75","submitBatchVoteOnBehalf(string[],string[],address)":"9a6e81ab","voterList(uint256)":"50e2e8af","voterWeights(address)":"414f8e76","votes(string,uint256)":"6042ad61","votingConsensus()":"55d389a4","votingSessions(string)":"f18a5cec","votingTimeoutSeconds()":"a58df19a","wasConsensusAchieved(string)":"e7016ca7"}}}}}