{"contracts/UserMetadataFactory.sol":{"UserMetadataFactory":{"abi":[{"anonymous":false,"inputs":[{"indexed":true,"internalType":"address","name":"user","type":"address"},{"indexed":false,"internalType":"address","name":"metadataContract","type":"address"}],"name":"UserMetadataCreated","type":"event"},{"inputs":[{"internalType":"uint256","name":"","type":"uint256"}],"name":"allUsers","outputs":[{"internalType":"address","name":"","type":"address"}],"stateMutability":"view","type":"function"},{"inputs":[],"name":"getAllUsers","outputs":[{"internalType":"address[]","name":"","type":"address[]"}],"stateMutability":"view","type":"function"},{"inputs":[],"name":"getTotalUsers","outputs":[{"internalType":"uint256","name":"","type":"uint256"}],"stateMutability":"view","type":"function"},{"inputs":[{"internalType":"address","name":"user","type":"address"}],"name":"getUserMetadataContract","outputs":[{"internalType":"address","name":"","type":"address"}],"stateMutability":"view","type":"function"},{"inputs":[{"internalType":"address","name":"user","type":"address"}],"name":"getUserMetadataJSON","outputs":[{"internalType":"string","name":"","type":"string"}],"stateMutability":"view","type":"function"},{"inputs":[{"internalType":"string","name":"email","type":"string"},{"internalType":"string","name":"name","type":"string"},{"internalType":"string","name":"institution","type":"string"}],"name":"registerUser","outputs":[],"stateMutability":"nonpayable","type":"function"},{"inputs":[{"internalType":"address","name":"","type":"address"}],"name":"userMetadataContracts","outputs":[{"internalType":"address","name":"","type":"address"}],"stateMutability":"view","type":"function"}],"evm":{"bytecode":{"linkReferences":{},"object":"608080604052346015576113a4908161001b8239f35b600080fdfe608080604052600436101561001357600080fd5b60003560e01c908163073b4c95146104f2575080639be572f6146104d4578063a2bdedf414610492578063a35ea4dc1461044c578063d637dcfa14610274578063e2842d79146101c45763ee69c4261461006c57600080fd5b346101bf5760203660031901126101bf576004356001600160a01b038116908190036101bf576000908152602081905260409020546001600160a01b031680156101845760006004916040519283809263db00e6b560e01b82525afa908115610178576000916100f1575b604051602080825281906100ed9082018561060f565b0390f35b3d8083833e6101008183610567565b810190602081830312610170578051906001600160401b038211610174570181601f82011215610170578051926101368461058a565b926101446040519485610567565b8484526020858401011161016d57506100ed9261016791602080850191016105ec565b906100d7565b80fd5b8280fd5b8380fd5b6040513d6000823e3d90fd5b60405162461bcd60e51b8152602060048201526013602482015272155cd95c881b9bdd081c9959da5cdd195c9959606a1b6044820152606490fd5b600080fd5b346101bf5760003660031901126101bf5760405180602060015492838152018092600160005260206000209060005b8181106102555750505081610209910382610567565b6040519182916020830190602084525180915260408301919060005b818110610233575050500390f35b82516001600160a01b0316845285945060209384019390920191600101610225565b82546001600160a01b03168452602090930192600192830192016101f3565b346101bf5760603660031901126101bf576004356001600160401b0381116101bf576102a49036906004016105a5565b6024356001600160401b0381116101bf576102c39036906004016105a5565b6044356001600160401b0381116101bf576102e29036906004016105a5565b336000908152602081905260409020546001600160a01b03166104125760405192610d3a91828501916001600160401b038311868410176103fc5785946103436103519261035f96610635893933865260806020870152608086019061060f565b90848203604086015261060f565b91606081840391015261060f565b03906000f080156101785733600090815260208190526040902080546001600160a01b0319166001600160a01b03929092169182179055600154600160401b8110156103fc578060016103b59201600155610536565b81549060031b9033821b9160018060a01b03901b19161790556040519081527fb6f19680cffbaef72e9e8c7664c30f56d86dd917d14d3ed104529c7c888e74a160203392a2005b634e487b7160e01b600052604160045260246000fd5b60405162461bcd60e51b8152602060048201526012602482015271105b1c9958591e481c9959da5cdd195c995960721b6044820152606490fd5b346101bf5760203660031901126101bf576004356001600160a01b038116908190036101bf576000526000602052602060018060a01b0360406000205416604051908152f35b346101bf5760203660031901126101bf576004356001548110156101bf576104bb602091610536565b905460405160039290921b1c6001600160a01b03168152f35b346101bf5760003660031901126101bf576020600154604051908152f35b346101bf5760203660031901126101bf576004356001600160a01b03811691908290036101bf57600091825260208281526040909220546001600160a01b03168152f35b60015481101561055157600160005260206000200190600090565b634e487b7160e01b600052603260045260246000fd5b601f909101601f19168101906001600160401b038211908210176103fc57604052565b6001600160401b0381116103fc57601f01601f191660200190565b81601f820112156101bf578035906105bc8261058a565b926105ca6040519485610567565b828452602083830101116101bf57816000926020809301838601378301015290565b60005b8381106105ff5750506000910152565b81810151838201526020016105ef565b90602091610628815180928185528580860191016105ec565b601f01601f191601019056fe6080604052346104b457610d3a80380380610019816104b9565b92833981016080828203126104b45781516001600160a01b038116908190036104b45760208301516001600160401b0381116104b4578261005b9185016104de565b60408401519093906001600160401b0381116104b4578361007d9183016104de565b60608201519093906001600160401b0381116104b45761009d92016104de565b600080546001600160a01b03191690921790915582516001600160401b0381116102de57600154600181811c911680156104aa575b60208210146102be57601f8111610445575b506020601f82116001146103de57819293946000926103d3575b50508160011b916000199060031b1c1916176001555b81516001600160401b0381116102de57600254600181811c911680156103c9575b60208210146102be57601f8111610364575b50602092601f82116001146102ff57928192936000926102f4575b50508160011b916000199060031b1c1916176002555b80516001600160401b0381116102de57600354600181811c911680156102d4575b60208210146102be57601f8111610259575b50602091601f82116001146101f5579181926000926101ea575b50508160011b916000199060031b1c1916176003555b6040516107f0908161054a8239f35b0151905038806101c5565b601f198216926003600052806000209160005b85811061024157508360019510610228575b505050811b016003556101db565b015160001960f88460031b161c1916905538808061021a565b91926020600181928685015181550194019201610208565b60036000527fc2575a0e9e593c00f959f8c92f12db2869c3395a3b0502d05e2516446f71f85b601f830160051c810191602084106102b4575b601f0160051c01905b8181106102a857506101ab565b6000815560010161029b565b9091508190610292565b634e487b7160e01b600052602260045260246000fd5b90607f1690610199565b634e487b7160e01b600052604160045260246000fd5b015190503880610162565b601f198216936002600052806000209160005b86811061034c5750836001959610610333575b505050811b01600255610178565b015160001960f88460031b161c19169055388080610325565b91926020600181928685015181550194019201610312565b60026000527f405787fa12a823e0f2b7631cc41b3ba8828b3321ca811111fa75cd3aa3bb5ace601f830160051c810191602084106103bf575b601f0160051c01905b8181106103b35750610147565b600081556001016103a6565b909150819061039d565b90607f1690610135565b0151905038806100fe565b601f198216906001600052806000209160005b81811061042d57509583600195969710610414575b505050811b01600155610114565b015160001960f88460031b161c19169055388080610406565b9192602060018192868b0151815501940192016103f1565b60016000527fb10e2d527612073b26eecdfd717e6a320cf44b4afac2b0732d9fcbe2b7fa0cf6601f830160051c810191602084106104a0575b601f0160051c01905b81811061049457506100e4565b60008155600101610487565b909150819061047e565b90607f16906100d2565b600080fd5b6040519190601f01601f191682016001600160401b038111838210176102de57604052565b81601f820112156104b4578051906001600160401b0382116102de5761050d601f8301601f19166020016104b9565b92828452602083830101116104b45760005b82811061053457505060206000918301015290565b8060208092840101518282870101520161051f56fe6080604052600436101561001257600080fd5b60003560e01c806306fdde03146105af578063820e93f5146105195780638da5cb5b146104f0578063d1384eb6146104325763db00e6b51461005357600080fd5b3461042d57600036600319011261042d57600054604051906001600160a01b031661007f60608361067f565b602a8252602082019060403683378251156104175760308253825160011015610417576078602184015360005b601481106103045750506100de604051926a3d913bb0b63632ba111d1160a91b6020850152518092602b8501906106b8565b6a11161132b6b0b4b6111d1160a91b602b918301918201526001546000929161010682610645565b91600181169081156102e4575060011461029c575b5050691116113730b6b2911d1160b11b825260025460009261013c82610645565b916001811690811561027c5750600114610234575b50507011161134b739ba34ba3aba34b7b7111d1160791b825260035460009261017982610645565b916001811690811561020c57506001146101c0575b6101bc836101b06002828861227d60f01b815203601d1981018452018261067f565b604051918291826106db565b0390f35b600360009081529193509060008051602061077b8339815191525b8482106101f5575050909101601101906101b0600261018e565b6001816020925460118587010152019101906101db565b6101bc95508491506002926101b09460119260ff19168383015280151502010194505061018e565b60026000908152929350909160008051602061075b8339815191525b83821061026557505001600a01903880610151565b60018160209254600a858701015201910190610250565b9050600a93945060ff929192191683830152801515020101903880610151565b60016000908152929350909160008051602061079b8339815191525b8382106102cd5750500160360190388061011b565b6001816020925460368587010152019101906102b8565b9050603693945060ff92919219168383015280151502010190388061011b565b80601303601381116103eb57600381901b906001600160fd1b038116036103eb5760ff81116103eb576001811b156104015782901c60f481901b600f60f81b169060f081169060ff1660ff16039060ff82116103eb5761036d906001600160f81b031916610718565b600183901b916001600160ff1b03841684036103eb57600283018084116103eb5761039f6103b29360001a9189610707565b5360f81b6001600160f81b031916610718565b6000600383018093116103d75760019392916103d0911a9187610707565b53016100ac565b634e487b7160e01b81526011600452602490fd5b634e487b7160e01b600052601160045260246000fd5b634e487b7160e01b600052601260045260246000fd5b634e487b7160e01b600052603260045260246000fd5b600080fd5b3461042d57600036600319011261042d576040516003546000908161045682610645565b80855291600181169081156104c9575060011461047e575b6101bc846101b08186038261067f565b6003815260008051602061077b833981519152939250905b8082106104af575090915081016020016101b08261046e565b919260018160209254838588010152019101909291610496565b60ff191660208087019190915292151560051b850190920192506101b0915083905061046e565b3461042d57600036600319011261042d576000546040516001600160a01b039091168152602090f35b3461042d57600036600319011261042d576040516001546000908161053d82610645565b80855291600181169081156104c95750600114610564576101bc846101b08186038261067f565b6001815260008051602061079b833981519152939250905b808210610595575090915081016020016101b08261046e565b91926001816020925483858801015201910190929161057c565b3461042d57600036600319011261042d57604051600254600090816105d382610645565b80855291600181169081156104c957506001146105fa576101bc846101b08186038261067f565b6002815260008051602061075b833981519152939250905b80821061062b575090915081016020016101b08261046e565b919260018160209254838588010152019101909291610612565b90600182811c92168015610675575b602083101461065f57565b634e487b7160e01b600052602260045260246000fd5b91607f1691610654565b601f909101601f19168101906001600160401b038211908210176106a257604052565b634e487b7160e01b600052604160045260246000fd5b60005b8381106106cb5750506000910152565b81810151838201526020016106bb565b604091602082526106fb81518092816020860152602086860191016106b8565b601f01601f1916010190565b908151811015610417570160200190565b60f81c600a81101561073f5760300160ff81116103eb5760f81b6001600160f81b03191690565b60570160ff81116103eb5760f81b6001600160f81b0319169056fe405787fa12a823e0f2b7631cc41b3ba8828b3321ca811111fa75cd3aa3bb5acec2575a0e9e593c00f959f8c92f12db2869c3395a3b0502d05e2516446f71f85bb10e2d527612073b26eecdfd717e6a320cf44b4afac2b0732d9fcbe2b7fa0cf6a264697066735822122026bb0d6f30d96512df7871819e6fbd4a0f91e30003d10fa6c041739fa8fe73d564736f6c634300081c0033a264697066735822122012359500be53b088cf4e34466c380cf8b0f1a2bd65065a32984f38ec54283ac564736f6c634300081c0033","opcodes":"PUSH1 0x80 DUP1 PUSH1 0x40 MSTORE CALLVALUE PUSH1 0x15 JUMPI PUSH2 0x13A4 SWAP1 DUP2 PUSH2 0x1B DUP3 CODECOPY RETURN JUMPDEST PUSH1 0x0 DUP1 REVERT INVALID PUSH1 0x80 DUP1 PUSH1 0x40 MSTORE PUSH1 0x4 CALLDATASIZE LT ISZERO PUSH2 0x13 JUMPI PUSH1 0x0 DUP1 REVERT JUMPDEST PUSH1 0x0 CALLDATALOAD PUSH1 0xE0 SHR SWAP1 DUP2 PUSH4 0x73B4C95 EQ PUSH2 0x4F2 JUMPI POP DUP1 PUSH4 0x9BE572F6 EQ PUSH2 0x4D4 JUMPI DUP1 PUSH4 0xA2BDEDF4 EQ PUSH2 0x492 JUMPI DUP1 PUSH4 0xA35EA4DC EQ PUSH2 0x44C JUMPI DUP1 PUSH4 0xD637DCFA EQ PUSH2 0x274 JUMPI DUP1 PUSH4 0xE2842D79 EQ PUSH2 0x1C4 JUMPI PUSH4 0xEE69C426 EQ PUSH2 0x6C JUMPI PUSH1 0x0 DUP1 REVERT JUMPDEST CALLVALUE PUSH2 0x1BF JUMPI PUSH1 0x20 CALLDATASIZE PUSH1 0x3 NOT ADD SLT PUSH2 0x1BF JUMPI PUSH1 0x4 CALLDATALOAD PUSH1 0x1 PUSH1 0x1 PUSH1 0xA0 SHL SUB DUP2 AND SWAP1 DUP2 SWAP1 SUB PUSH2 0x1BF JUMPI PUSH1 0x0 SWAP1 DUP2 MSTORE PUSH1 0x20 DUP2 SWAP1 MSTORE PUSH1 0x40 SWAP1 KECCAK256 SLOAD PUSH1 0x1 PUSH1 0x1 PUSH1 0xA0 SHL SUB AND DUP1 ISZERO PUSH2 0x184 JUMPI PUSH1 0x0 PUSH1 0x4 SWAP2 PUSH1 0x40 MLOAD SWAP3 DUP4 DUP1 SWAP3 PUSH4 0xDB00E6B5 PUSH1 0xE0 SHL DUP3 MSTORE GAS STATICCALL SWAP1 DUP2 ISZERO PUSH2 0x178 JUMPI PUSH1 0x0 SWAP2 PUSH2 0xF1 JUMPI JUMPDEST PUSH1 0x40 MLOAD PUSH1 0x20 DUP1 DUP3 MSTORE DUP2 SWAP1 PUSH2 0xED SWAP1 DUP3 ADD DUP6 PUSH2 0x60F JUMP JUMPDEST SUB SWAP1 RETURN JUMPDEST RETURNDATASIZE DUP1 DUP4 DUP4 RETURNDATACOPY PUSH2 0x100 DUP2 DUP4 PUSH2 0x567 JUMP JUMPDEST DUP2 ADD SWAP1 PUSH1 0x20 DUP2 DUP4 SUB SLT PUSH2 0x170 JUMPI DUP1 MLOAD SWAP1 PUSH1 0x1 PUSH1 0x1 PUSH1 0x40 SHL SUB DUP3 GT PUSH2 0x174 JUMPI ADD DUP2 PUSH1 0x1F DUP3 ADD SLT ISZERO PUSH2 0x170 JUMPI DUP1 MLOAD SWAP3 PUSH2 0x136 DUP5 PUSH2 0x58A JUMP JUMPDEST SWAP3 PUSH2 0x144 PUSH1 0x40 MLOAD SWAP5 DUP6 PUSH2 0x567 JUMP JUMPDEST DUP5 DUP5 MSTORE PUSH1 0x20 DUP6 DUP5 ADD ADD GT PUSH2 0x16D JUMPI POP PUSH2 0xED SWAP3 PUSH2 0x167 SWAP2 PUSH1 0x20 DUP1 DUP6 ADD SWAP2 ADD PUSH2 0x5EC JUMP JUMPDEST SWAP1 PUSH2 0xD7 JUMP JUMPDEST DUP1 REVERT JUMPDEST DUP3 DUP1 REVERT JUMPDEST DUP4 DUP1 REVERT JUMPDEST PUSH1 0x40 MLOAD RETURNDATASIZE PUSH1 0x0 DUP3 RETURNDATACOPY RETURNDATASIZE SWAP1 REVERT JUMPDEST PUSH1 0x40 MLOAD PUSH3 0x461BCD PUSH1 0xE5 SHL DUP2 MSTORE PUSH1 0x20 PUSH1 0x4 DUP3 ADD MSTORE PUSH1 0x13 PUSH1 0x24 DUP3 ADD MSTORE PUSH19 0x155CD95C881B9BDD081C9959DA5CDD195C9959 PUSH1 0x6A SHL PUSH1 0x44 DUP3 ADD MSTORE PUSH1 0x64 SWAP1 REVERT JUMPDEST PUSH1 0x0 DUP1 REVERT JUMPDEST CALLVALUE PUSH2 0x1BF JUMPI PUSH1 0x0 CALLDATASIZE PUSH1 0x3 NOT ADD SLT PUSH2 0x1BF JUMPI PUSH1 0x40 MLOAD DUP1 PUSH1 0x20 PUSH1 0x1 SLOAD SWAP3 DUP4 DUP2 MSTORE ADD DUP1 SWAP3 PUSH1 0x1 PUSH1 0x0 MSTORE PUSH1 0x20 PUSH1 0x0 KECCAK256 SWAP1 PUSH1 0x0 JUMPDEST DUP2 DUP2 LT PUSH2 0x255 JUMPI POP POP POP DUP2 PUSH2 0x209 SWAP2 SUB DUP3 PUSH2 0x567 JUMP JUMPDEST PUSH1 0x40 MLOAD SWAP2 DUP3 SWAP2 PUSH1 0x20 DUP4 ADD SWAP1 PUSH1 0x20 DUP5 MSTORE MLOAD DUP1 SWAP2 MSTORE PUSH1 0x40 DUP4 ADD SWAP2 SWAP1 PUSH1 0x0 JUMPDEST DUP2 DUP2 LT PUSH2 0x233 JUMPI POP POP POP SUB SWAP1 RETURN JUMPDEST DUP3 MLOAD PUSH1 0x1 PUSH1 0x1 PUSH1 0xA0 SHL SUB AND DUP5 MSTORE DUP6 SWAP5 POP PUSH1 0x20 SWAP4 DUP5 ADD SWAP4 SWAP1 SWAP3 ADD SWAP2 PUSH1 0x1 ADD PUSH2 0x225 JUMP JUMPDEST DUP3 SLOAD PUSH1 0x1 PUSH1 0x1 PUSH1 0xA0 SHL SUB AND DUP5 MSTORE PUSH1 0x20 SWAP1 SWAP4 ADD SWAP3 PUSH1 0x1 SWAP3 DUP4 ADD SWAP3 ADD PUSH2 0x1F3 JUMP JUMPDEST CALLVALUE PUSH2 0x1BF JUMPI PUSH1 0x60 CALLDATASIZE PUSH1 0x3 NOT ADD SLT PUSH2 0x1BF JUMPI PUSH1 0x4 CALLDATALOAD PUSH1 0x1 PUSH1 0x1 PUSH1 0x40 SHL SUB DUP2 GT PUSH2 0x1BF JUMPI PUSH2 0x2A4 SWAP1 CALLDATASIZE SWAP1 PUSH1 0x4 ADD PUSH2 0x5A5 JUMP JUMPDEST PUSH1 0x24 CALLDATALOAD PUSH1 0x1 PUSH1 0x1 PUSH1 0x40 SHL SUB DUP2 GT PUSH2 0x1BF JUMPI PUSH2 0x2C3 SWAP1 CALLDATASIZE SWAP1 PUSH1 0x4 ADD PUSH2 0x5A5 JUMP JUMPDEST PUSH1 0x44 CALLDATALOAD PUSH1 0x1 PUSH1 0x1 PUSH1 0x40 SHL SUB DUP2 GT PUSH2 0x1BF JUMPI PUSH2 0x2E2 SWAP1 CALLDATASIZE SWAP1 PUSH1 0x4 ADD PUSH2 0x5A5 JUMP JUMPDEST CALLER PUSH1 0x0 SWAP1 DUP2 MSTORE PUSH1 0x20 DUP2 SWAP1 MSTORE PUSH1 0x40 SWAP1 KECCAK256 SLOAD PUSH1 0x1 PUSH1 0x1 PUSH1 0xA0 SHL SUB AND PUSH2 0x412 JUMPI PUSH1 0x40 MLOAD SWAP3 PUSH2 0xD3A SWAP2 DUP3 DUP6 ADD SWAP2 PUSH1 0x1 PUSH1 0x1 PUSH1 0x40 SHL SUB DUP4 GT DUP7 DUP5 LT OR PUSH2 0x3FC JUMPI DUP6 SWAP5 PUSH2 0x343 PUSH2 0x351 SWAP3 PUSH2 0x35F SWAP7 PUSH2 0x635 DUP10 CODECOPY CALLER DUP7 MSTORE PUSH1 0x80 PUSH1 0x20 DUP8 ADD MSTORE PUSH1 0x80 DUP7 ADD SWAP1 PUSH2 0x60F JUMP JUMPDEST SWAP1 DUP5 DUP3 SUB PUSH1 0x40 DUP7 ADD MSTORE PUSH2 0x60F JUMP JUMPDEST SWAP2 PUSH1 0x60 DUP2 DUP5 SUB SWAP2 ADD MSTORE PUSH2 0x60F JUMP JUMPDEST SUB SWAP1 PUSH1 0x0 CREATE DUP1 ISZERO PUSH2 0x178 JUMPI CALLER PUSH1 0x0 SWAP1 DUP2 MSTORE PUSH1 0x20 DUP2 SWAP1 MSTORE PUSH1 0x40 SWAP1 KECCAK256 DUP1 SLOAD PUSH1 0x1 PUSH1 0x1 PUSH1 0xA0 SHL SUB NOT AND PUSH1 0x1 PUSH1 0x1 PUSH1 0xA0 SHL SUB SWAP3 SWAP1 SWAP3 AND SWAP2 DUP3 OR SWAP1 SSTORE PUSH1 0x1 SLOAD PUSH1 0x1 PUSH1 0x40 SHL DUP2 LT ISZERO PUSH2 0x3FC JUMPI DUP1 PUSH1 0x1 PUSH2 0x3B5 SWAP3 ADD PUSH1 0x1 SSTORE PUSH2 0x536 JUMP JUMPDEST DUP2 SLOAD SWAP1 PUSH1 0x3 SHL SWAP1 CALLER DUP3 SHL SWAP2 PUSH1 0x1 DUP1 PUSH1 0xA0 SHL SUB SWAP1 SHL NOT AND OR SWAP1 SSTORE PUSH1 0x40 MLOAD SWAP1 DUP2 MSTORE PUSH32 0xB6F19680CFFBAEF72E9E8C7664C30F56D86DD917D14D3ED104529C7C888E74A1 PUSH1 0x20 CALLER SWAP3 LOG2 STOP JUMPDEST PUSH4 0x4E487B71 PUSH1 0xE0 SHL PUSH1 0x0 MSTORE PUSH1 0x41 PUSH1 0x4 MSTORE PUSH1 0x24 PUSH1 0x0 REVERT JUMPDEST PUSH1 0x40 MLOAD PUSH3 0x461BCD PUSH1 0xE5 SHL DUP2 MSTORE PUSH1 0x20 PUSH1 0x4 DUP3 ADD MSTORE PUSH1 0x12 PUSH1 0x24 DUP3 ADD MSTORE PUSH18 0x105B1C9958591E481C9959DA5CDD195C9959 PUSH1 0x72 SHL PUSH1 0x44 DUP3 ADD MSTORE PUSH1 0x64 SWAP1 REVERT JUMPDEST CALLVALUE PUSH2 0x1BF JUMPI PUSH1 0x20 CALLDATASIZE PUSH1 0x3 NOT ADD SLT PUSH2 0x1BF JUMPI PUSH1 0x4 CALLDATALOAD PUSH1 0x1 PUSH1 0x1 PUSH1 0xA0 SHL SUB DUP2 AND SWAP1 DUP2 SWAP1 SUB PUSH2 0x1BF JUMPI PUSH1 0x0 MSTORE PUSH1 0x0 PUSH1 0x20 MSTORE PUSH1 0x20 PUSH1 0x1 DUP1 PUSH1 0xA0 SHL SUB PUSH1 0x40 PUSH1 0x0 KECCAK256 SLOAD AND PUSH1 0x40 MLOAD SWAP1 DUP2 MSTORE RETURN JUMPDEST CALLVALUE PUSH2 0x1BF JUMPI PUSH1 0x20 CALLDATASIZE PUSH1 0x3 NOT ADD SLT PUSH2 0x1BF JUMPI PUSH1 0x4 CALLDATALOAD PUSH1 0x1 SLOAD DUP2 LT ISZERO PUSH2 0x1BF JUMPI PUSH2 0x4BB PUSH1 0x20 SWAP2 PUSH2 0x536 JUMP JUMPDEST SWAP1 SLOAD PUSH1 0x40 MLOAD PUSH1 0x3 SWAP3 SWAP1 SWAP3 SHL SHR PUSH1 0x1 PUSH1 0x1 PUSH1 0xA0 SHL SUB AND DUP2 MSTORE RETURN JUMPDEST CALLVALUE PUSH2 0x1BF JUMPI PUSH1 0x0 CALLDATASIZE PUSH1 0x3 NOT ADD SLT PUSH2 0x1BF JUMPI PUSH1 0x20 PUSH1 0x1 SLOAD PUSH1 0x40 MLOAD SWAP1 DUP2 MSTORE RETURN JUMPDEST CALLVALUE PUSH2 0x1BF JUMPI PUSH1 0x20 CALLDATASIZE PUSH1 0x3 NOT ADD SLT PUSH2 0x1BF JUMPI PUSH1 0x4 CALLDATALOAD PUSH1 0x1 PUSH1 0x1 PUSH1 0xA0 SHL SUB DUP2 AND SWAP2 SWAP1 DUP3 SWAP1 SUB PUSH2 0x1BF JUMPI PUSH1 0x0 SWAP2 DUP3 MSTORE PUSH1 0x20 DUP3 DUP2 MSTORE PUSH1 0x40 SWAP1 SWAP3 KECCAK256 SLOAD PUSH1 0x1 PUSH1 0x1 PUSH1 0xA0 SHL SUB AND DUP2 MSTORE RETURN JUMPDEST PUSH1 0x1 SLOAD DUP2 LT ISZERO PUSH2 0x551 JUMPI PUSH1 0x1 PUSH1 0x0 MSTORE PUSH1 0x20 PUSH1 0x0 KECCAK256 ADD SWAP1 PUSH1 0x0 SWAP1 JUMP JUMPDEST PUSH4 0x4E487B71 PUSH1 0xE0 SHL PUSH1 0x0 MSTORE PUSH1 0x32 PUSH1 0x4 MSTORE PUSH1 0x24 PUSH1 0x0 REVERT JUMPDEST PUSH1 0x1F SWAP1 SWAP2 ADD PUSH1 0x1F NOT AND DUP2 ADD SWAP1 PUSH1 0x1 PUSH1 0x1 PUSH1 0x40 SHL SUB DUP3 GT SWAP1 DUP3 LT OR PUSH2 0x3FC JUMPI PUSH1 0x40 MSTORE JUMP JUMPDEST PUSH1 0x1 PUSH1 0x1 PUSH1 0x40 SHL SUB DUP2 GT PUSH2 0x3FC JUMPI PUSH1 0x1F ADD PUSH1 0x1F NOT AND PUSH1 0x20 ADD SWAP1 JUMP JUMPDEST DUP2 PUSH1 0x1F DUP3 ADD SLT ISZERO PUSH2 0x1BF JUMPI DUP1 CALLDATALOAD SWAP1 PUSH2 0x5BC DUP3 PUSH2 0x58A JUMP JUMPDEST SWAP3 PUSH2 0x5CA PUSH1 0x40 MLOAD SWAP5 DUP6 PUSH2 0x567 JUMP JUMPDEST DUP3 DUP5 MSTORE PUSH1 0x20 DUP4 DUP4 ADD ADD GT PUSH2 0x1BF JUMPI DUP2 PUSH1 0x0 SWAP3 PUSH1 0x20 DUP1 SWAP4 ADD DUP4 DUP7 ADD CALLDATACOPY DUP4 ADD ADD MSTORE SWAP1 JUMP JUMPDEST PUSH1 0x0 JUMPDEST DUP4 DUP2 LT PUSH2 0x5FF JUMPI POP POP PUSH1 0x0 SWAP2 ADD MSTORE JUMP JUMPDEST DUP2 DUP2 ADD MLOAD DUP4 DUP3 ADD MSTORE PUSH1 0x20 ADD PUSH2 0x5EF JUMP JUMPDEST SWAP1 PUSH1 0x20 SWAP2 PUSH2 0x628 DUP2 MLOAD DUP1 SWAP3 DUP2 DUP6 MSTORE DUP6 DUP1 DUP7 ADD SWAP2 ADD PUSH2 0x5EC JUMP JUMPDEST PUSH1 0x1F ADD PUSH1 0x1F NOT AND ADD ADD SWAP1 JUMP INVALID PUSH1 0x80 PUSH1 0x40 MSTORE CALLVALUE PUSH2 0x4B4 JUMPI PUSH2 0xD3A DUP1 CODESIZE SUB DUP1 PUSH2 0x19 DUP2 PUSH2 0x4B9 JUMP JUMPDEST SWAP3 DUP4 CODECOPY DUP2 ADD PUSH1 0x80 DUP3 DUP3 SUB SLT PUSH2 0x4B4 JUMPI DUP2 MLOAD PUSH1 0x1 PUSH1 0x1 PUSH1 0xA0 SHL SUB DUP2 AND SWAP1 DUP2 SWAP1 SUB PUSH2 0x4B4 JUMPI PUSH1 0x20 DUP4 ADD MLOAD PUSH1 0x1 PUSH1 0x1 PUSH1 0x40 SHL SUB DUP2 GT PUSH2 0x4B4 JUMPI DUP3 PUSH2 0x5B SWAP2 DUP6 ADD PUSH2 0x4DE JUMP JUMPDEST PUSH1 0x40 DUP5 ADD MLOAD SWAP1 SWAP4 SWAP1 PUSH1 0x1 PUSH1 0x1 PUSH1 0x40 SHL SUB DUP2 GT PUSH2 0x4B4 JUMPI DUP4 PUSH2 0x7D SWAP2 DUP4 ADD PUSH2 0x4DE JUMP JUMPDEST PUSH1 0x60 DUP3 ADD MLOAD SWAP1 SWAP4 SWAP1 PUSH1 0x1 PUSH1 0x1 PUSH1 0x40 SHL SUB DUP2 GT PUSH2 0x4B4 JUMPI PUSH2 0x9D SWAP3 ADD PUSH2 0x4DE JUMP JUMPDEST PUSH1 0x0 DUP1 SLOAD PUSH1 0x1 PUSH1 0x1 PUSH1 0xA0 SHL SUB NOT AND SWAP1 SWAP3 OR SWAP1 SWAP2 SSTORE DUP3 MLOAD PUSH1 0x1 PUSH1 0x1 PUSH1 0x40 SHL SUB DUP2 GT PUSH2 0x2DE JUMPI PUSH1 0x1 SLOAD PUSH1 0x1 DUP2 DUP2 SHR SWAP2 AND DUP1 ISZERO PUSH2 0x4AA JUMPI JUMPDEST PUSH1 0x20 DUP3 LT EQ PUSH2 0x2BE JUMPI PUSH1 0x1F DUP2 GT PUSH2 0x445 JUMPI JUMPDEST POP PUSH1 0x20 PUSH1 0x1F DUP3 GT PUSH1 0x1 EQ PUSH2 0x3DE JUMPI DUP2 SWAP3 SWAP4 SWAP5 PUSH1 0x0 SWAP3 PUSH2 0x3D3 JUMPI JUMPDEST POP POP DUP2 PUSH1 0x1 SHL SWAP2 PUSH1 0x0 NOT SWAP1 PUSH1 0x3 SHL SHR NOT AND OR PUSH1 0x1 SSTORE JUMPDEST DUP2 MLOAD PUSH1 0x1 PUSH1 0x1 PUSH1 0x40 SHL SUB DUP2 GT PUSH2 0x2DE JUMPI PUSH1 0x2 SLOAD PUSH1 0x1 DUP2 DUP2 SHR SWAP2 AND DUP1 ISZERO PUSH2 0x3C9 JUMPI JUMPDEST PUSH1 0x20 DUP3 LT EQ PUSH2 0x2BE JUMPI PUSH1 0x1F DUP2 GT PUSH2 0x364 JUMPI JUMPDEST POP PUSH1 0x20 SWAP3 PUSH1 0x1F DUP3 GT PUSH1 0x1 EQ PUSH2 0x2FF JUMPI SWAP3 DUP2 SWAP3 SWAP4 PUSH1 0x0 SWAP3 PUSH2 0x2F4 JUMPI JUMPDEST POP POP DUP2 PUSH1 0x1 SHL SWAP2 PUSH1 0x0 NOT SWAP1 PUSH1 0x3 SHL SHR NOT AND OR PUSH1 0x2 SSTORE JUMPDEST DUP1 MLOAD PUSH1 0x1 PUSH1 0x1 PUSH1 0x40 SHL SUB DUP2 GT PUSH2 0x2DE JUMPI PUSH1 0x3 SLOAD PUSH1 0x1 DUP2 DUP2 SHR SWAP2 AND DUP1 ISZERO PUSH2 0x2D4 JUMPI JUMPDEST PUSH1 0x20 DUP3 LT EQ PUSH2 0x2BE JUMPI PUSH1 0x1F DUP2 GT PUSH2 0x259 JUMPI JUMPDEST POP PUSH1 0x20 SWAP2 PUSH1 0x1F DUP3 GT PUSH1 0x1 EQ PUSH2 0x1F5 JUMPI SWAP2 DUP2 SWAP3 PUSH1 0x0 SWAP3 PUSH2 0x1EA JUMPI JUMPDEST POP POP DUP2 PUSH1 0x1 SHL SWAP2 PUSH1 0x0 NOT SWAP1 PUSH1 0x3 SHL SHR NOT AND OR PUSH1 0x3 SSTORE JUMPDEST PUSH1 0x40 MLOAD PUSH2 0x7F0 SWAP1 DUP2 PUSH2 0x54A DUP3 CODECOPY RETURN JUMPDEST ADD MLOAD SWAP1 POP CODESIZE DUP1 PUSH2 0x1C5 JUMP JUMPDEST PUSH1 0x1F NOT DUP3 AND SWAP3 PUSH1 0x3 PUSH1 0x0 MSTORE DUP1 PUSH1 0x0 KECCAK256 SWAP2 PUSH1 0x0 JUMPDEST DUP6 DUP2 LT PUSH2 0x241 JUMPI POP DUP4 PUSH1 0x1 SWAP6 LT PUSH2 0x228 JUMPI JUMPDEST POP POP POP DUP2 SHL ADD PUSH1 0x3 SSTORE PUSH2 0x1DB JUMP JUMPDEST ADD MLOAD PUSH1 0x0 NOT PUSH1 0xF8 DUP5 PUSH1 0x3 SHL AND SHR NOT AND SWAP1 SSTORE CODESIZE DUP1 DUP1 PUSH2 0x21A JUMP JUMPDEST SWAP2 SWAP3 PUSH1 0x20 PUSH1 0x1 DUP2 SWAP3 DUP7 DUP6 ADD MLOAD DUP2 SSTORE ADD SWAP5 ADD SWAP3 ADD PUSH2 0x208 JUMP JUMPDEST PUSH1 0x3 PUSH1 0x0 MSTORE PUSH32 0xC2575A0E9E593C00F959F8C92F12DB2869C3395A3B0502D05E2516446F71F85B PUSH1 0x1F DUP4 ADD PUSH1 0x5 SHR DUP2 ADD SWAP2 PUSH1 0x20 DUP5 LT PUSH2 0x2B4 JUMPI JUMPDEST PUSH1 0x1F ADD PUSH1 0x5 SHR ADD SWAP1 JUMPDEST DUP2 DUP2 LT PUSH2 0x2A8 JUMPI POP PUSH2 0x1AB JUMP JUMPDEST PUSH1 0x0 DUP2 SSTORE PUSH1 0x1 ADD PUSH2 0x29B JUMP JUMPDEST SWAP1 SWAP2 POP DUP2 SWAP1 PUSH2 0x292 JUMP JUMPDEST PUSH4 0x4E487B71 PUSH1 0xE0 SHL PUSH1 0x0 MSTORE PUSH1 0x22 PUSH1 0x4 MSTORE PUSH1 0x24 PUSH1 0x0 REVERT JUMPDEST SWAP1 PUSH1 0x7F AND SWAP1 PUSH2 0x199 JUMP JUMPDEST PUSH4 0x4E487B71 PUSH1 0xE0 SHL PUSH1 0x0 MSTORE PUSH1 0x41 PUSH1 0x4 MSTORE PUSH1 0x24 PUSH1 0x0 REVERT JUMPDEST ADD MLOAD SWAP1 POP CODESIZE DUP1 PUSH2 0x162 JUMP JUMPDEST PUSH1 0x1F NOT DUP3 AND SWAP4 PUSH1 0x2 PUSH1 0x0 MSTORE DUP1 PUSH1 0x0 KECCAK256 SWAP2 PUSH1 0x0 JUMPDEST DUP7 DUP2 LT PUSH2 0x34C JUMPI POP DUP4 PUSH1 0x1 SWAP6 SWAP7 LT PUSH2 0x333 JUMPI JUMPDEST POP POP POP DUP2 SHL ADD PUSH1 0x2 SSTORE PUSH2 0x178 JUMP JUMPDEST ADD MLOAD PUSH1 0x0 NOT PUSH1 0xF8 DUP5 PUSH1 0x3 SHL AND SHR NOT AND SWAP1 SSTORE CODESIZE DUP1 DUP1 PUSH2 0x325 JUMP JUMPDEST SWAP2 SWAP3 PUSH1 0x20 PUSH1 0x1 DUP2 SWAP3 DUP7 DUP6 ADD MLOAD DUP2 SSTORE ADD SWAP5 ADD SWAP3 ADD PUSH2 0x312 JUMP JUMPDEST PUSH1 0x2 PUSH1 0x0 MSTORE PUSH32 0x405787FA12A823E0F2B7631CC41B3BA8828B3321CA811111FA75CD3AA3BB5ACE PUSH1 0x1F DUP4 ADD PUSH1 0x5 SHR DUP2 ADD SWAP2 PUSH1 0x20 DUP5 LT PUSH2 0x3BF JUMPI JUMPDEST PUSH1 0x1F ADD PUSH1 0x5 SHR ADD SWAP1 JUMPDEST DUP2 DUP2 LT PUSH2 0x3B3 JUMPI POP PUSH2 0x147 JUMP JUMPDEST PUSH1 0x0 DUP2 SSTORE PUSH1 0x1 ADD PUSH2 0x3A6 JUMP JUMPDEST SWAP1 SWAP2 POP DUP2 SWAP1 PUSH2 0x39D JUMP JUMPDEST SWAP1 PUSH1 0x7F AND SWAP1 PUSH2 0x135 JUMP JUMPDEST ADD MLOAD SWAP1 POP CODESIZE DUP1 PUSH2 0xFE JUMP JUMPDEST PUSH1 0x1F NOT DUP3 AND SWAP1 PUSH1 0x1 PUSH1 0x0 MSTORE DUP1 PUSH1 0x0 KECCAK256 SWAP2 PUSH1 0x0 JUMPDEST DUP2 DUP2 LT PUSH2 0x42D JUMPI POP SWAP6 DUP4 PUSH1 0x1 SWAP6 SWAP7 SWAP8 LT PUSH2 0x414 JUMPI JUMPDEST POP POP POP DUP2 SHL ADD PUSH1 0x1 SSTORE PUSH2 0x114 JUMP JUMPDEST ADD MLOAD PUSH1 0x0 NOT PUSH1 0xF8 DUP5 PUSH1 0x3 SHL AND SHR NOT AND SWAP1 SSTORE CODESIZE DUP1 DUP1 PUSH2 0x406 JUMP JUMPDEST SWAP2 SWAP3 PUSH1 0x20 PUSH1 0x1 DUP2 SWAP3 DUP7 DUP12 ADD MLOAD DUP2 SSTORE ADD SWAP5 ADD SWAP3 ADD PUSH2 0x3F1 JUMP JUMPDEST PUSH1 0x1 PUSH1 0x0 MSTORE PUSH32 0xB10E2D527612073B26EECDFD717E6A320CF44B4AFAC2B0732D9FCBE2B7FA0CF6 PUSH1 0x1F DUP4 ADD PUSH1 0x5 SHR DUP2 ADD SWAP2 PUSH1 0x20 DUP5 LT PUSH2 0x4A0 JUMPI JUMPDEST PUSH1 0x1F ADD PUSH1 0x5 SHR ADD SWAP1 JUMPDEST DUP2 DUP2 LT PUSH2 0x494 JUMPI POP PUSH2 0xE4 JUMP JUMPDEST PUSH1 0x0 DUP2 SSTORE PUSH1 0x1 ADD PUSH2 0x487 JUMP JUMPDEST SWAP1 SWAP2 POP DUP2 SWAP1 PUSH2 0x47E JUMP JUMPDEST SWAP1 PUSH1 0x7F AND SWAP1 PUSH2 0xD2 JUMP JUMPDEST PUSH1 0x0 DUP1 REVERT JUMPDEST PUSH1 0x40 MLOAD SWAP2 SWAP1 PUSH1 0x1F ADD PUSH1 0x1F NOT AND DUP3 ADD PUSH1 0x1 PUSH1 0x1 PUSH1 0x40 SHL SUB DUP2 GT DUP4 DUP3 LT OR PUSH2 0x2DE JUMPI PUSH1 0x40 MSTORE JUMP JUMPDEST DUP2 PUSH1 0x1F DUP3 ADD SLT ISZERO PUSH2 0x4B4 JUMPI DUP1 MLOAD SWAP1 PUSH1 0x1 PUSH1 0x1 PUSH1 0x40 SHL SUB DUP3 GT PUSH2 0x2DE JUMPI PUSH2 0x50D PUSH1 0x1F DUP4 ADD PUSH1 0x1F NOT AND PUSH1 0x20 ADD PUSH2 0x4B9 JUMP JUMPDEST SWAP3 DUP3 DUP5 MSTORE PUSH1 0x20 DUP4 DUP4 ADD ADD GT PUSH2 0x4B4 JUMPI PUSH1 0x0 JUMPDEST DUP3 DUP2 LT PUSH2 0x534 JUMPI POP POP PUSH1 0x20 PUSH1 0x0 SWAP2 DUP4 ADD ADD MSTORE SWAP1 JUMP JUMPDEST DUP1 PUSH1 0x20 DUP1 SWAP3 DUP5 ADD ADD MLOAD DUP3 DUP3 DUP8 ADD ADD MSTORE ADD PUSH2 0x51F JUMP INVALID PUSH1 0x80 PUSH1 0x40 MSTORE PUSH1 0x4 CALLDATASIZE LT ISZERO PUSH2 0x12 JUMPI PUSH1 0x0 DUP1 REVERT JUMPDEST PUSH1 0x0 CALLDATALOAD PUSH1 0xE0 SHR DUP1 PUSH4 0x6FDDE03 EQ PUSH2 0x5AF JUMPI DUP1 PUSH4 0x820E93F5 EQ PUSH2 0x519 JUMPI DUP1 PUSH4 0x8DA5CB5B EQ PUSH2 0x4F0 JUMPI DUP1 PUSH4 0xD1384EB6 EQ PUSH2 0x432 JUMPI PUSH4 0xDB00E6B5 EQ PUSH2 0x53 JUMPI PUSH1 0x0 DUP1 REVERT JUMPDEST CALLVALUE PUSH2 0x42D JUMPI PUSH1 0x0 CALLDATASIZE PUSH1 0x3 NOT ADD SLT PUSH2 0x42D JUMPI PUSH1 0x0 SLOAD PUSH1 0x40 MLOAD SWAP1 PUSH1 0x1 PUSH1 0x1 PUSH1 0xA0 SHL SUB AND PUSH2 0x7F PUSH1 0x60 DUP4 PUSH2 0x67F JUMP JUMPDEST PUSH1 0x2A DUP3 MSTORE PUSH1 0x20 DUP3 ADD SWAP1 PUSH1 0x40 CALLDATASIZE DUP4 CALLDATACOPY DUP3 MLOAD ISZERO PUSH2 0x417 JUMPI PUSH1 0x30 DUP3 MSTORE8 DUP3 MLOAD PUSH1 0x1 LT ISZERO PUSH2 0x417 JUMPI PUSH1 0x78 PUSH1 0x21 DUP5 ADD MSTORE8 PUSH1 0x0 JUMPDEST PUSH1 0x14 DUP2 LT PUSH2 0x304 JUMPI POP POP PUSH2 0xDE PUSH1 0x40 MLOAD SWAP3 PUSH11 0x3D913BB0B63632BA111D11 PUSH1 0xA9 SHL PUSH1 0x20 DUP6 ADD MSTORE MLOAD DUP1 SWAP3 PUSH1 0x2B DUP6 ADD SWAP1 PUSH2 0x6B8 JUMP JUMPDEST PUSH11 0x11161132B6B0B4B6111D11 PUSH1 0xA9 SHL PUSH1 0x2B SWAP2 DUP4 ADD SWAP2 DUP3 ADD MSTORE PUSH1 0x1 SLOAD PUSH1 0x0 SWAP3 SWAP2 PUSH2 0x106 DUP3 PUSH2 0x645 JUMP JUMPDEST SWAP2 PUSH1 0x1 DUP2 AND SWAP1 DUP2 ISZERO PUSH2 0x2E4 JUMPI POP PUSH1 0x1 EQ PUSH2 0x29C JUMPI JUMPDEST POP POP PUSH10 0x1116113730B6B2911D11 PUSH1 0xB1 SHL DUP3 MSTORE PUSH1 0x2 SLOAD PUSH1 0x0 SWAP3 PUSH2 0x13C DUP3 PUSH2 0x645 JUMP JUMPDEST SWAP2 PUSH1 0x1 DUP2 AND SWAP1 DUP2 ISZERO PUSH2 0x27C JUMPI POP PUSH1 0x1 EQ PUSH2 0x234 JUMPI JUMPDEST POP POP PUSH17 0x11161134B739BA34BA3ABA34B7B7111D11 PUSH1 0x79 SHL DUP3 MSTORE PUSH1 0x3 SLOAD PUSH1 0x0 SWAP3 PUSH2 0x179 DUP3 PUSH2 0x645 JUMP JUMPDEST SWAP2 PUSH1 0x1 DUP2 AND SWAP1 DUP2 ISZERO PUSH2 0x20C JUMPI POP PUSH1 0x1 EQ PUSH2 0x1C0 JUMPI JUMPDEST PUSH2 0x1BC DUP4 PUSH2 0x1B0 PUSH1 0x2 DUP3 DUP9 PUSH2 0x227D PUSH1 0xF0 SHL DUP2 MSTORE SUB PUSH1 0x1D NOT DUP2 ADD DUP5 MSTORE ADD DUP3 PUSH2 0x67F JUMP JUMPDEST PUSH1 0x40 MLOAD SWAP2 DUP3 SWAP2 DUP3 PUSH2 0x6DB JUMP JUMPDEST SUB SWAP1 RETURN JUMPDEST PUSH1 0x3 PUSH1 0x0 SWAP1 DUP2 MSTORE SWAP2 SWAP4 POP SWAP1 PUSH1 0x0 DUP1 MLOAD PUSH1 0x20 PUSH2 0x77B DUP4 CODECOPY DUP2 MLOAD SWAP2 MSTORE JUMPDEST DUP5 DUP3 LT PUSH2 0x1F5 JUMPI POP POP SWAP1 SWAP2 ADD PUSH1 0x11 ADD SWAP1 PUSH2 0x1B0 PUSH1 0x2 PUSH2 0x18E JUMP JUMPDEST PUSH1 0x1 DUP2 PUSH1 0x20 SWAP3 SLOAD PUSH1 0x11 DUP6 DUP8 ADD ADD MSTORE ADD SWAP2 ADD SWAP1 PUSH2 0x1DB JUMP JUMPDEST PUSH2 0x1BC SWAP6 POP DUP5 SWAP2 POP PUSH1 0x2 SWAP3 PUSH2 0x1B0 SWAP5 PUSH1 0x11 SWAP3 PUSH1 0xFF NOT AND DUP4 DUP4 ADD MSTORE DUP1 ISZERO ISZERO MUL ADD ADD SWAP5 POP POP PUSH2 0x18E JUMP JUMPDEST PUSH1 0x2 PUSH1 0x0 SWAP1 DUP2 MSTORE SWAP3 SWAP4 POP SWAP1 SWAP2 PUSH1 0x0 DUP1 MLOAD PUSH1 0x20 PUSH2 0x75B DUP4 CODECOPY DUP2 MLOAD SWAP2 MSTORE JUMPDEST DUP4 DUP3 LT PUSH2 0x265 JUMPI POP POP ADD PUSH1 0xA ADD SWAP1 CODESIZE DUP1 PUSH2 0x151 JUMP JUMPDEST PUSH1 0x1 DUP2 PUSH1 0x20 SWAP3 SLOAD PUSH1 0xA DUP6 DUP8 ADD ADD MSTORE ADD SWAP2 ADD SWAP1 PUSH2 0x250 JUMP JUMPDEST SWAP1 POP PUSH1 0xA SWAP4 SWAP5 POP PUSH1 0xFF SWAP3 SWAP2 SWAP3 NOT AND DUP4 DUP4 ADD MSTORE DUP1 ISZERO ISZERO MUL ADD ADD SWAP1 CODESIZE DUP1 PUSH2 0x151 JUMP JUMPDEST PUSH1 0x1 PUSH1 0x0 SWAP1 DUP2 MSTORE SWAP3 SWAP4 POP SWAP1 SWAP2 PUSH1 0x0 DUP1 MLOAD PUSH1 0x20 PUSH2 0x79B DUP4 CODECOPY DUP2 MLOAD SWAP2 MSTORE JUMPDEST DUP4 DUP3 LT PUSH2 0x2CD JUMPI POP POP ADD PUSH1 0x36 ADD SWAP1 CODESIZE DUP1 PUSH2 0x11B JUMP JUMPDEST PUSH1 0x1 DUP2 PUSH1 0x20 SWAP3 SLOAD PUSH1 0x36 DUP6 DUP8 ADD ADD MSTORE ADD SWAP2 ADD SWAP1 PUSH2 0x2B8 JUMP JUMPDEST SWAP1 POP PUSH1 0x36 SWAP4 SWAP5 POP PUSH1 0xFF SWAP3 SWAP2 SWAP3 NOT AND DUP4 DUP4 ADD MSTORE DUP1 ISZERO ISZERO MUL ADD ADD SWAP1 CODESIZE DUP1 PUSH2 0x11B JUMP JUMPDEST DUP1 PUSH1 0x13 SUB PUSH1 0x13 DUP2 GT PUSH2 0x3EB JUMPI PUSH1 0x3 DUP2 SWAP1 SHL SWAP1 PUSH1 0x1 PUSH1 0x1 PUSH1 0xFD SHL SUB DUP2 AND SUB PUSH2 0x3EB JUMPI PUSH1 0xFF DUP2 GT PUSH2 0x3EB JUMPI PUSH1 0x1 DUP2 SHL ISZERO PUSH2 0x401 JUMPI DUP3 SWAP1 SHR PUSH1 0xF4 DUP2 SWAP1 SHL PUSH1 0xF PUSH1 0xF8 SHL AND SWAP1 PUSH1 0xF0 DUP2 AND SWAP1 PUSH1 0xFF AND PUSH1 0xFF AND SUB SWAP1 PUSH1 0xFF DUP3 GT PUSH2 0x3EB JUMPI PUSH2 0x36D SWAP1 PUSH1 0x1 PUSH1 0x1 PUSH1 0xF8 SHL SUB NOT AND PUSH2 0x718 JUMP JUMPDEST PUSH1 0x1 DUP4 SWAP1 SHL SWAP2 PUSH1 0x1 PUSH1 0x1 PUSH1 0xFF SHL SUB DUP5 AND DUP5 SUB PUSH2 0x3EB JUMPI PUSH1 0x2 DUP4 ADD DUP1 DUP5 GT PUSH2 0x3EB JUMPI PUSH2 0x39F PUSH2 0x3B2 SWAP4 PUSH1 0x0 BYTE SWAP2 DUP10 PUSH2 0x707 JUMP JUMPDEST MSTORE8 PUSH1 0xF8 SHL PUSH1 0x1 PUSH1 0x1 PUSH1 0xF8 SHL SUB NOT AND PUSH2 0x718 JUMP JUMPDEST PUSH1 0x0 PUSH1 0x3 DUP4 ADD DUP1 SWAP4 GT PUSH2 0x3D7 JUMPI PUSH1 0x1 SWAP4 SWAP3 SWAP2 PUSH2 0x3D0 SWAP2 BYTE SWAP2 DUP8 PUSH2 0x707 JUMP JUMPDEST MSTORE8 ADD PUSH2 0xAC JUMP JUMPDEST PUSH4 0x4E487B71 PUSH1 0xE0 SHL DUP2 MSTORE PUSH1 0x11 PUSH1 0x4 MSTORE PUSH1 0x24 SWAP1 REVERT JUMPDEST PUSH4 0x4E487B71 PUSH1 0xE0 SHL PUSH1 0x0 MSTORE PUSH1 0x11 PUSH1 0x4 MSTORE PUSH1 0x24 PUSH1 0x0 REVERT JUMPDEST PUSH4 0x4E487B71 PUSH1 0xE0 SHL PUSH1 0x0 MSTORE PUSH1 0x12 PUSH1 0x4 MSTORE PUSH1 0x24 PUSH1 0x0 REVERT JUMPDEST PUSH4 0x4E487B71 PUSH1 0xE0 SHL PUSH1 0x0 MSTORE PUSH1 0x32 PUSH1 0x4 MSTORE PUSH1 0x24 PUSH1 0x0 REVERT JUMPDEST PUSH1 0x0 DUP1 REVERT JUMPDEST CALLVALUE PUSH2 0x42D JUMPI PUSH1 0x0 CALLDATASIZE PUSH1 0x3 NOT ADD SLT PUSH2 0x42D JUMPI PUSH1 0x40 MLOAD PUSH1 0x3 SLOAD PUSH1 0x0 SWAP1 DUP2 PUSH2 0x456 DUP3 PUSH2 0x645 JUMP JUMPDEST DUP1 DUP6 MSTORE SWAP2 PUSH1 0x1 DUP2 AND SWAP1 DUP2 ISZERO PUSH2 0x4C9 JUMPI POP PUSH1 0x1 EQ PUSH2 0x47E JUMPI JUMPDEST PUSH2 0x1BC DUP5 PUSH2 0x1B0 DUP2 DUP7 SUB DUP3 PUSH2 0x67F JUMP JUMPDEST PUSH1 0x3 DUP2 MSTORE PUSH1 0x0 DUP1 MLOAD PUSH1 0x20 PUSH2 0x77B DUP4 CODECOPY DUP2 MLOAD SWAP2 MSTORE SWAP4 SWAP3 POP SWAP1 JUMPDEST DUP1 DUP3 LT PUSH2 0x4AF JUMPI POP SWAP1 SWAP2 POP DUP2 ADD PUSH1 0x20 ADD PUSH2 0x1B0 DUP3 PUSH2 0x46E JUMP JUMPDEST SWAP2 SWAP3 PUSH1 0x1 DUP2 PUSH1 0x20 SWAP3 SLOAD DUP4 DUP6 DUP9 ADD ADD MSTORE ADD SWAP2 ADD SWAP1 SWAP3 SWAP2 PUSH2 0x496 JUMP JUMPDEST PUSH1 0xFF NOT AND PUSH1 0x20 DUP1 DUP8 ADD SWAP2 SWAP1 SWAP2 MSTORE SWAP3 ISZERO ISZERO PUSH1 0x5 SHL DUP6 ADD SWAP1 SWAP3 ADD SWAP3 POP PUSH2 0x1B0 SWAP2 POP DUP4 SWAP1 POP PUSH2 0x46E JUMP JUMPDEST CALLVALUE PUSH2 0x42D JUMPI PUSH1 0x0 CALLDATASIZE PUSH1 0x3 NOT ADD SLT PUSH2 0x42D JUMPI PUSH1 0x0 SLOAD PUSH1 0x40 MLOAD PUSH1 0x1 PUSH1 0x1 PUSH1 0xA0 SHL SUB SWAP1 SWAP2 AND DUP2 MSTORE PUSH1 0x20 SWAP1 RETURN JUMPDEST CALLVALUE PUSH2 0x42D JUMPI PUSH1 0x0 CALLDATASIZE PUSH1 0x3 NOT ADD SLT PUSH2 0x42D JUMPI PUSH1 0x40 MLOAD PUSH1 0x1 SLOAD PUSH1 0x0 SWAP1 DUP2 PUSH2 0x53D DUP3 PUSH2 0x645 JUMP JUMPDEST DUP1 DUP6 MSTORE SWAP2 PUSH1 0x1 DUP2 AND SWAP1 DUP2 ISZERO PUSH2 0x4C9 JUMPI POP PUSH1 0x1 EQ PUSH2 0x564 JUMPI PUSH2 0x1BC DUP5 PUSH2 0x1B0 DUP2 DUP7 SUB DUP3 PUSH2 0x67F JUMP JUMPDEST PUSH1 0x1 DUP2 MSTORE PUSH1 0x0 DUP1 MLOAD PUSH1 0x20 PUSH2 0x79B DUP4 CODECOPY DUP2 MLOAD SWAP2 MSTORE SWAP4 SWAP3 POP SWAP1 JUMPDEST DUP1 DUP3 LT PUSH2 0x595 JUMPI POP SWAP1 SWAP2 POP DUP2 ADD PUSH1 0x20 ADD PUSH2 0x1B0 DUP3 PUSH2 0x46E JUMP JUMPDEST SWAP2 SWAP3 PUSH1 0x1 DUP2 PUSH1 0x20 SWAP3 SLOAD DUP4 DUP6 DUP9 ADD ADD MSTORE ADD SWAP2 ADD SWAP1 SWAP3 SWAP2 PUSH2 0x57C JUMP JUMPDEST CALLVALUE PUSH2 0x42D JUMPI PUSH1 0x0 CALLDATASIZE PUSH1 0x3 NOT ADD SLT PUSH2 0x42D JUMPI PUSH1 0x40 MLOAD PUSH1 0x2 SLOAD PUSH1 0x0 SWAP1 DUP2 PUSH2 0x5D3 DUP3 PUSH2 0x645 JUMP JUMPDEST DUP1 DUP6 MSTORE SWAP2 PUSH1 0x1 DUP2 AND SWAP1 DUP2 ISZERO PUSH2 0x4C9 JUMPI POP PUSH1 0x1 EQ PUSH2 0x5FA JUMPI PUSH2 0x1BC DUP5 PUSH2 0x1B0 DUP2 DUP7 SUB DUP3 PUSH2 0x67F JUMP JUMPDEST PUSH1 0x2 DUP2 MSTORE PUSH1 0x0 DUP1 MLOAD PUSH1 0x20 PUSH2 0x75B DUP4 CODECOPY DUP2 MLOAD SWAP2 MSTORE SWAP4 SWAP3 POP SWAP1 JUMPDEST DUP1 DUP3 LT PUSH2 0x62B JUMPI POP SWAP1 SWAP2 POP DUP2 ADD PUSH1 0x20 ADD PUSH2 0x1B0 DUP3 PUSH2 0x46E JUMP JUMPDEST SWAP2 SWAP3 PUSH1 0x1 DUP2 PUSH1 0x20 SWAP3 SLOAD DUP4 DUP6 DUP9 ADD ADD MSTORE ADD SWAP2 ADD SWAP1 SWAP3 SWAP2 PUSH2 0x612 JUMP JUMPDEST SWAP1 PUSH1 0x1 DUP3 DUP2 SHR SWAP3 AND DUP1 ISZERO PUSH2 0x675 JUMPI JUMPDEST PUSH1 0x20 DUP4 LT EQ PUSH2 0x65F JUMPI JUMP JUMPDEST PUSH4 0x4E487B71 PUSH1 0xE0 SHL PUSH1 0x0 MSTORE PUSH1 0x22 PUSH1 0x4 MSTORE PUSH1 0x24 PUSH1 0x0 REVERT JUMPDEST SWAP2 PUSH1 0x7F AND SWAP2 PUSH2 0x654 JUMP JUMPDEST PUSH1 0x1F SWAP1 SWAP2 ADD PUSH1 0x1F NOT AND DUP2 ADD SWAP1 PUSH1 0x1 PUSH1 0x1 PUSH1 0x40 SHL SUB DUP3 GT SWAP1 DUP3 LT OR PUSH2 0x6A2 JUMPI PUSH1 0x40 MSTORE JUMP JUMPDEST PUSH4 0x4E487B71 PUSH1 0xE0 SHL PUSH1 0x0 MSTORE PUSH1 0x41 PUSH1 0x4 MSTORE PUSH1 0x24 PUSH1 0x0 REVERT JUMPDEST PUSH1 0x0 JUMPDEST DUP4 DUP2 LT PUSH2 0x6CB JUMPI POP POP PUSH1 0x0 SWAP2 ADD MSTORE JUMP JUMPDEST DUP2 DUP2 ADD MLOAD DUP4 DUP3 ADD MSTORE PUSH1 0x20 ADD PUSH2 0x6BB JUMP JUMPDEST PUSH1 0x40 SWAP2 PUSH1 0x20 DUP3 MSTORE PUSH2 0x6FB DUP2 MLOAD DUP1 SWAP3 DUP2 PUSH1 0x20 DUP7 ADD MSTORE PUSH1 0x20 DUP7 DUP7 ADD SWAP2 ADD PUSH2 0x6B8 JUMP JUMPDEST PUSH1 0x1F ADD PUSH1 0x1F NOT AND ADD ADD SWAP1 JUMP JUMPDEST SWAP1 DUP2 MLOAD DUP2 LT ISZERO PUSH2 0x417 JUMPI ADD PUSH1 0x20 ADD SWAP1 JUMP JUMPDEST PUSH1 0xF8 SHR PUSH1 0xA DUP2 LT ISZERO PUSH2 0x73F JUMPI PUSH1 0x30 ADD PUSH1 0xFF DUP2 GT PUSH2 0x3EB JUMPI PUSH1 0xF8 SHL PUSH1 0x1 PUSH1 0x1 PUSH1 0xF8 SHL SUB NOT AND SWAP1 JUMP JUMPDEST PUSH1 0x57 ADD PUSH1 0xFF DUP2 GT PUSH2 0x3EB JUMPI PUSH1 0xF8 SHL PUSH1 0x1 PUSH1 0x1 PUSH1 0xF8 SHL SUB NOT AND SWAP1 JUMP INVALID BLOCKHASH JUMPI DUP8 STATICCALL SLT 0xA8 0x23 0xE0 CALLCODE 0xB7 PUSH4 0x1CC41B3B 0xA8 DUP3 DUP12 CALLER 0x21 0xCA DUP2 GT GT STATICCALL PUSH22 0xCD3AA3BB5ACEC2575A0E9E593C00F959F8C92F12DB28 PUSH10 0xC3395A3B0502D05E2516 PREVRANDAO PUSH16 0x71F85BB10E2D527612073B26EECDFD71 PUSH31 0x6A320CF44B4AFAC2B0732D9FCBE2B7FA0CF6A264697066735822122026BB0D PUSH16 0x30D96512DF7871819E6FBD4A0F91E300 SUB 0xD1 0xF 0xA6 0xC0 COINBASE PUSH20 0x9FA8FE73D564736F6C634300081C0033A2646970 PUSH7 0x73582212201235 SWAP6 STOP 0xBE MSTORE8 0xB0 DUP9 0xCF 0x4E CALLVALUE CHAINID PUSH13 0x380CF8B0F1A2BD65065A32984F CODESIZE 0xEC SLOAD 0x28 GASPRICE 0xC5 PUSH5 0x736F6C6343 STOP ADDMOD SHR STOP CALLER "},"methodIdentifiers":{"allUsers(uint256)":"a2bdedf4","getAllUsers()":"e2842d79","getTotalUsers()":"9be572f6","getUserMetadataContract(address)":"073b4c95","getUserMetadataJSON(address)":"ee69c426","registerUser(string,string,string)":"d637dcfa","userMetadataContracts(address)":"a35ea4dc"}}}}}