{"contracts/ProjectFactory.sol":{"ProjectFactory":{"abi":[{"inputs":[{"internalType":"address","name":"_templateRegistry","type":"address"}],"stateMutability":"nonpayable","type":"constructor"},{"anonymous":false,"inputs":[{"indexed":true,"internalType":"address","name":"creator","type":"address"},{"indexed":true,"internalType":"address","name":"projectAddress","type":"address"},{"indexed":false,"internalType":"string","name":"projectType","type":"string"},{"indexed":false,"internalType":"uint256","name":"templateId","type":"uint256"},{"indexed":false,"internalType":"uint256","name":"timestamp","type":"uint256"}],"name":"ProjectCreated","type":"event"},{"inputs":[{"internalType":"uint256","name":"","type":"uint256"}],"name":"allProjects","outputs":[{"internalType":"address","name":"","type":"address"}],"stateMutability":"view","type":"function"},{"inputs":[{"internalType":"address","name":"_projectAddress","type":"address"}],"name":"checkIsDALProject","outputs":[{"internalType":"bool","name":"","type":"bool"}],"stateMutability":"view","type":"function"},{"inputs":[{"internalType":"address","name":"_projectAddress","type":"address"}],"name":"checkIsProject","outputs":[{"internalType":"bool","name":"","type":"bool"}],"stateMutability":"view","type":"function"},{"inputs":[{"internalType":"string","name":"_projectData","type":"string"}],"name":"createCustomProject","outputs":[{"internalType":"address","name":"","type":"address"}],"stateMutability":"nonpayable","type":"function"},{"inputs":[{"internalType":"uint256","name":"_templateId","type":"uint256"},{"internalType":"string","name":"_projectData","type":"string"}],"name":"createProjectFromTemplate","outputs":[{"internalType":"address","name":"","type":"address"}],"stateMutability":"nonpayable","type":"function"},{"inputs":[{"internalType":"uint256","name":"","type":"uint256"}],"name":"dalProjects","outputs":[{"internalType":"address","name":"","type":"address"}],"stateMutability":"view","type":"function"},{"inputs":[],"name":"getAllProjects","outputs":[{"internalType":"address[]","name":"","type":"address[]"}],"stateMutability":"view","type":"function"},{"inputs":[],"name":"getDALProjectCount","outputs":[{"internalType":"uint256","name":"","type":"uint256"}],"stateMutability":"view","type":"function"},{"inputs":[],"name":"getDALProjects","outputs":[{"internalType":"address[]","name":"","type":"address[]"}],"stateMutability":"view","type":"function"},{"inputs":[],"name":"getProjectCount","outputs":[{"internalType":"uint256","name":"","type":"uint256"}],"stateMutability":"view","type":"function"},{"inputs":[{"internalType":"address","name":"_user","type":"address"}],"name":"getUserProjectCount","outputs":[{"internalType":"uint256","name":"","type":"uint256"}],"stateMutability":"view","type":"function"},{"inputs":[{"internalType":"address","name":"_user","type":"address"}],"name":"getUserProjects","outputs":[{"internalType":"address[]","name":"","type":"address[]"}],"stateMutability":"view","type":"function"},{"inputs":[{"internalType":"address","name":"","type":"address"}],"name":"isDALProject","outputs":[{"internalType":"bool","name":"","type":"bool"}],"stateMutability":"view","type":"function"},{"inputs":[{"internalType":"address","name":"","type":"address"}],"name":"isProject","outputs":[{"internalType":"bool","name":"","type":"bool"}],"stateMutability":"view","type":"function"},{"inputs":[],"name":"templateRegistry","outputs":[{"internalType":"contract ProjectTemplateRegistry","name":"","type":"address"}],"stateMutability":"view","type":"function"},{"inputs":[{"internalType":"address","name":"","type":"address"},{"internalType":"uint256","name":"","type":"uint256"}],"name":"userProjects","outputs":[{"internalType":"address","name":"","type":"address"}],"stateMutability":"view","type":"function"}],"evm":{"bytecode":{"linkReferences":{},"object":"60803460cb57601f6140a938819003918201601f19168301916001600160401b0383118484101760d05780849260209460405283398101031260cb57516001600160a01b0381169081900360cb578015607557600080546001600160a01b031916919091179055604051613fc290816100e78239f35b60405162461bcd60e51b815260206004820152602860248201527f54656d706c61746520726567697374727920616464726573732063616e6e6f74604482015267206265207a65726f60c01b6064820152608490fd5b600080fd5b634e487b7160e01b600052604160045260246000fdfe608080604052600436101561001357600080fd5b60003560e01c90816305c8140814610966575080630e9eb496146100f25780632fa9c007146109035780633bcff3b0146108e55780633f3c9833146108a65780634780f786146104de57806353b3194c1461048857806380d038291461041b5780639c1fa044146103b1578063a0af81f014610388578063a375728a1461034e578063bb3098ff146102e1578063e32e723c14610251578063eabec3a314610131578063f0f847d6146100f25763f4d32852146100cf57600080fd5b346100ed5760003660031901126100ed576020600554604051908152f35b600080fd5b346100ed5760203660031901126100ed576001600160a01b036101136109a1565b166000526004602052602060ff604060002054166040519015158152f35b346100ed5760203660031901126100ed576004356001600160401b0381116100ed57610161903690600401610a23565b61016d81511515610b15565b60405190613323808301916001600160401b0383118484101761023b57839261019c92610c0a85393390610b85565b03906000f0801561022f5760209060018060a01b031633600052600182526101c8816040600020610bec565b80600052600282526040600020600160ff198254161790556101e981610ba7565b80604051606081526006606082015265637573746f6d60d01b6080820152600084820152426040820152600080516020613f4d83398151915260a03392a3604051908152f35b6040513d6000823e3d90fd5b634e487b7160e01b600052604160045260246000fd5b346100ed5760203660031901126100ed576001600160a01b036102726109a1565b166000526001602052604060002060405190816020825491828152019160005260206000209060005b8181106102c2576102be856102b2818703826109e5565b60405191829182610a6a565b0390f35b82546001600160a01b031684526020909301926001928301920161029b565b346100ed5760003660031901126100ed576040516005805480835260009182526020830191600080516020613f2d83398151915291905b81811061032f576102be856102b2818703826109e5565b82546001600160a01b0316845260209093019260019283019201610318565b346100ed5760203660031901126100ed576001600160a01b0361036f6109a1565b1660005260016020526020604060002054604051908152f35b346100ed5760003660031901126100ed576000546040516001600160a01b039091168152602090f35b346100ed5760203660031901126100ed576004356005548110156100ed57600090600554811015610407576005909152600080516020613f2d83398151915201546040516001600160a01b039091168152602090f35b634e487b7160e01b82526032600452602482fd5b346100ed5760003660031901126100ed576040516003805480835260009182526020830191600080516020613f6d83398151915291905b818110610469576102be856102b2818703826109e5565b82546001600160a01b0316845260209093019260019283019201610452565b346100ed5760203660031901126100ed576004356003548110156100ed57600090600354811015610407576003909152600080516020613f6d83398151915201546040516001600160a01b039091168152602090f35b346100ed5760403660031901126100ed576004356024356001600160401b0381116100ed576105136024913690600401610a23565b60008054604051630c550f3d60e21b81526004810186905293849182906001600160a01b03165afa801561022f576000928391610732575b50156106f45761055d81511515610b15565b60405190613323808301916001600160401b0383118484101761023b57839261058c92610c0a85393390610b85565b03906000f0801561022f5760018060a01b03169060405160208101906105ce60208285516105bd8187858a01610aad565b81010301601f1981018352826109e5565b51902060405160208101906e6163746976655f6c6561726e696e6760881b8252600f81526105fd602f826109e5565b5190201461067f575b602092600080516020613f4d83398151915283923360005260018652610630846040600020610bec565b83600052600286526040600020600160ff1982541617905561065184610ba7565b61066660405191606083526060830190610b60565b92868201524260408201528033930390a3604051908152f35b6000828152600460205260409020805460ff1916600117905560055492600160401b84101561023b57600080516020613f4d83398151915283926106cd8660016020980160055560056109b7565b81546001600160a01b0360039290921b91821b191695901b94909417909355509250610606565b60405162461bcd60e51b815260206004820152601660248201527554656d706c617465206973206e6f742061637469766560501b6044820152606490fd5b90503d8084833e61074381836109e5565b81019060c0818303126108a25780516001600160401b03811161089e578261076c918301610ad0565b5060208101516001600160401b03811161089e578261078c918301610ad0565b5060408101516001600160401b03811161089e57826107ac918301610ad0565b60608201519092906001600160401b03811161085157820181601f820112156108515780516001600160401b03811161088a576020808260051b92604051906107f7838601836109e5565b81520191830101918383116108865760208101915b838310610855575050505060808201516001600160401b0381116108515782916108399160a09401610ad0565b50015192831515840361084e5750918461054b565b80fd5b8580fd5b82516001600160401b0381116108825760209161087787848094870101610ad0565b81520192019161080c565b8980fd5b8780fd5b634e487b7160e01b87526041600452602487fd5b8480fd5b8380fd5b346100ed5760203660031901126100ed576001600160a01b036108c76109a1565b166000526002602052602060ff604060002054166040519015158152f35b346100ed5760003660031901126100ed576020600354604051908152f35b346100ed5760403660031901126100ed5761091c6109a1565b6001600160a01b03166000908152600160205260409020805460243591908210156100ed5760209161094d916109b7565b905460405160039290921b1c6001600160a01b03168152f35b346100ed5760203660031901126100ed576020906001600160a01b0361098a6109a1565b166000526002825260ff6040600020541615158152f35b600435906001600160a01b03821682036100ed57565b80548210156109cf5760005260206000200190600090565b634e487b7160e01b600052603260045260246000fd5b601f909101601f19168101906001600160401b0382119082101761023b57604052565b6001600160401b03811161023b57601f01601f191660200190565b81601f820112156100ed57803590610a3a82610a08565b92610a4860405194856109e5565b828452602083830101116100ed57816000926020809301838601378301015290565b602060408183019282815284518094520192019060005b818110610a8e5750505090565b82516001600160a01b0316845260209384019390920191600101610a81565b60005b838110610ac05750506000910152565b8181015183820152602001610ab0565b81601f820112156100ed578051610ae681610a08565b92610af460405194856109e5565b818452602082840101116100ed57610b129160208085019101610aad565b90565b15610b1c57565b60405162461bcd60e51b815260206004820152601c60248201527b50726f6a65637420646174612063616e6e6f7420626520656d70747960201b6044820152606490fd5b90602091610b7981518092818552858086019101610aad565b601f01601f1916010190565b6001600160a01b039091168152604060208201819052610b1292910190610b60565b600354600160401b81101561023b57806001610bc8920160035560036109b7565b81546001600160a01b0393841660039290921b91821b9390911b1916919091179055565b8054600160401b81101561023b57610bc8916001820181556109b756fe6080604052346103bb5761332380380380610019816103c0565b9283398101906040818303126103bb5780516001600160a01b03811691908290036103bb576020810151906001600160401b0382116103bb570182601f820112156103bb578051906001600160401b03821161029457610082601f8301601f19166020016103c0565b93828552602083830101116103bb5760005b8281106103a657505060206000918401015281511561037457600080546001600160a01b0319168217905581516001600160401b038111610294576100da6003546103e5565b601f811161031a575b50602092601f82116001146102b557928192936000926102aa575b50508160011b916000199060031b1c1916176003555b4260018190556002556000805460ff60a01b1916600160a01b179055600f5468010000000000000000811015610294576001810180600f5581101561027e577f8d1108e10bcb7c27dddfc02ed9d693a074039d026cf4ea4240b40f7d581ac8020180546001600160a01b031916821790556000818152601060205260409020805461019e906103e5565b601f811161025c575b50600e6631b932b0ba37b960c91b019055806000526011602052600160406000205580600052601260205242604060002055807f20bfd29f3d906f96fc35742fac45a554b19cbd4e21f8c4c1d84cb58fdfc32c896020604051428152a27fbceee304ac8d461cb65ac9f6dc37bbcb2c2c34c155224ffbfdc4752b89008f73608060405160408152600760408201526631b932b0ba37b960c91b606082015260016020820152a2604051612eec90816104378239f35b6102789082600052601f6020600020910160051c81019061041f565b386101a7565b634e487b7160e01b600052603260045260246000fd5b634e487b7160e01b600052604160045260246000fd5b0151905038806100fe565b601f198216936003600052806000209160005b86811061030257508360019596106102e9575b505050811b01600355610114565b015160001960f88460031b161c191690553880806102db565b919260206001819286850151815501940192016102c8565b6003600052610364907fc2575a0e9e593c00f959f8c92f12db2869c3395a3b0502d05e2516446f71f85b601f840160051c8101916020851061036a575b601f0160051c019061041f565b386100e3565b9091508190610357565b60405162461bcd60e51b815260206004820152600a602482015269456d707479206461746160b01b6044820152606490fd5b80602080928401015182828801015201610094565b600080fd5b6040519190601f01601f191682016001600160401b0381118382101761029457604052565b90600182811c92168015610415575b60208310146103ff57565b634e487b7160e01b600052602260045260246000fd5b91607f16916103f4565b81811061042a575050565b6000815560010161041f56fe608080604052600436101561001357600080fd5b60003560e01c90816302d05d3f146120fd57508063040023d614611f585780630ee2cb1014611f2f57806310218f4d14611e08578063195ec9ee14611bfd5780631af9fd1714611b56578063211a85e6146116dc57806322f3e2d41461022f5780632b17b8be146116a55780633197cbb61461168757806332c6afd01461161357806335c1d349146115ea578063383e1a5e1461158757806343862d231461156b5780634a79d50c1461154f57806355b31b5514610f7f57806358f43f761461150557806359abbfe4146114e05780635cf5a05814610bac5780635e1a6c17146114b75780637284e4161461149b578063728f1112146113da5780637847f1de146111fa57806378e97925146111dc57806379ec4f191461116557806384958fc314610f9b5780639c0768b314610f7f578063ab34c9e914610f45578063b568647914610eab578063b70825dc14610e69578063b9be92f914610c8e578063bbffd04c14610be6578063c2e4fe5a14610bac578063c2fc0d2614610b90578063c3feda1714610ae1578063c47d172414610570578063c4b192f714610946578063c6765d281461077a578063cf09e0d01461075c578063d64c58a714610722578063dfafe10f146106a1578063dfb748aa146105e5578063e7aa3afc146105a0578063e807c0b214610570578063ef21310614610507578063f7267cfd146104e9578063f75eade01461025a5763fba7cc791461022f57600080fd5b3461025557600036600319011261025557602060ff60005460a01c166040519015158152f35b600080fd5b3461025557604036600319011261025557610273612121565b6024356001600160401b03811161025557610292903690600401612175565b60005490916001600160a01b038216916102bd9060ff906102b4338614612766565b60a01c166127da565b6001600160a01b03169081156104aa57811461046d5780600052600c60205260ff6003604060002001541661042c576102f8825115156127a1565b806000526010602052610318610312604060002054612338565b156129c5565b61035060405161032781612137565b8281528360208201524260408201526001606082015282600052600c6020526040600020612a07565b600080600e54905b8181106103f7575b50501561039f575b7f07501885e0e140e0232eed19016a41bde16b8de699d11e7a461f88d6ba58a9cd6040518061039a3395429083612b8a565b0390a3005b600e54600160401b8110156103e1578060016103c09201600e55600e612320565b81546001600160a01b0360039290921b91821b19169083901b179055610368565b634e487b7160e01b600052604160045260246000fd5b8361040182612305565b905460039190911b1c6001600160a01b03161461042057600101610358565b50505060018380610360565b60405162461bcd60e51b8152602060048201526019602482015278496e7669746174696f6e20616c72656164792065786973747360381b6044820152606490fd5b60405162461bcd60e51b815260206004820152601560248201527421b0b73737ba1034b73b34ba329031b932b0ba37b960591b6044820152606490fd5b60405162461bcd60e51b8152602060048201526017602482015276496e76616c696420696e7669746565206164647265737360481b6044820152606490fd5b34610255576000366003190112610255576020600254604051908152f35b34610255576020366003190112610255576001600160a01b03610528612121565b166000908152600b6020526040902080546001600160a01b031661056c610551600184016126c4565b9260ff60036002830154920154169060405194859485612286565b0390f35b346102555760003660031901126102555761056c61058c61263f565b604051918291602083526020830190612211565b34610255576000366003190112610255576080600054600154906002546040519260ff8360a01c16151584526020840152604083015260018060a01b03166060820152f35b34610255576020366003190112610255576105fe612121565b61061360018060a01b03600054163314612766565b61065c60018060a01b0382169182600052600b60205261063d60ff60036040600020015416612ba6565b82600052600b60205261065660016040600020016126c4565b90612c25565b80600052600b6020526106726040600020612959565b604051904282527f423eb00b6a18c3ecfc2170a0e40ef0bad995279070614ba2e4be1b94f67eb88860203393a3005b34610255576020366003190112610255576107206106bd612121565b6106d260018060a01b03600054163314612766565b60018060a01b03811660005260106020526106f4610312604060002054612338565b60405190610703604083612152565b600b82526a31b7b73a3934b13aba37b960a91b6020830152612c25565b005b34610255576020366003190112610255576001600160a01b03610743612121565b1660005260116020526020604060002054604051908152f35b34610255576000366003190112610255576020600154604051908152f35b34610255576020366003190112610255576004356001600160401b038111610255576107aa903690600401612175565b6107bb60ff60005460a01c166127da565b6107c781511515612811565b3360005260106020526107de604060002054612338565b156109055780516001600160401b0381116103e1576107fe600354612338565b601f81116108bd575b50602091601f82116001146108595761082a926000918361084e575b5050612861565b6003555b42600255604051428152600080516020612dd783398151915260203392a2005b015190508380610823565b601f198216926003600052806000209160005b8581106108a55750836001951061088c575b505050811b0160035561082e565b015160001960f88460031b161c1916905582808061087e565b9192602060018192868501518155019401920161086c565b60036000526108f590600080516020612db7833981519152601f840160051c810191602085106108fb575b601f0160051c019061284a565b82610807565b90915081906108e8565b60405162461bcd60e51b8152602060048201526019602482015278139bdd0818481c1c9bda9958dd081c185c9d1a58da5c185b9d603a1b6044820152606490fd5b34610255576020366003190112610255576004356001600160401b03811161025557610976903690600401612175565b61098b60018060a01b03600054163314612766565b805115610a9c5780516001600160401b0381116103e1576109ad600754612338565b601f8111610a5f575b50602091601f82116001146109fb576109d8926000918361084e575050612861565b60075542600255604051428152600080516020612dd783398151915260203392a2005b601f198216926007600052806000209160005b858110610a4757508360019510610a2e575b505050811b0160075561082e565b015160001960f88460031b161c19169055828080610a20565b91926020600181928685015181550194019201610a0e565b6007600052610a9690600080516020612df7833981519152601f840160051c810191602085106108fb57601f0160051c019061284a565b826109b6565b60405162461bcd60e51b815260206004820152601d60248201527f524f2d437261746520686173682063616e6e6f7420626520656d7074790000006044820152606490fd5b3461025557600036600319011261025557600054610b09336001600160a01b03831614612766565b60ff8160a01c16610b5a5760ff60a01b1916600160a01b1760005542600281905560405190815233907fb351ba71ddc1d2bf39667cebde99fb92eb26b9f418d5049ba0200888ba81071590602090a2005b60405162461bcd60e51b815260206004820152600e60248201526d416c72656164792061637469766560901b6044820152606490fd5b346102555760003660031901126102555761056c61058c6124b0565b34610255576020366003190112610255576001600160a01b03610bcd612121565b16600052601060205261056c61058c60406000206126c4565b3461025557600036600319011261025557600054610c0e336001600160a01b03831614612766565b60ff8160a01c1615610c565760ff60a01b1916600055426002556040514281527f17064d72ee4a5901e55dfa45024ea8f67cdb4895ba6364ab2f8e7223f642ad3660203392a2005b60405162461bcd60e51b815260206004820152601060248201526f416c726561647920696e61637469766560801b6044820152606490fd5b3461025557610c9c366121cb565b9091610cb360018060a01b03600054163314612766565b60018060a01b031690816000526010602052610cd3604060002054612338565b15610e3057610ce4835115156127a1565b610cef811515612bdf565b6000828152601060205260409020835193906001600160401b0385116103e157610d198154612338565b601f8111610dfe575b506020601f8611600114610d8a5785600080516020612e978339815191529596610d5492600091610d7f575b50612861565b90555b8360005260116020528160406000205542600255610d7a60405192839283612b8a565b0390a2005b905084015188610d4e565b601f1986169082600052806000209160005b818110610de65750918791600080516020612e97833981519152979860019410610dcd575b5050811b019055610d57565b85015160001960f88460031b161c191690558780610dc1565b91926020600181928689015181550194019201610d9c565b610e2a90826000526020600020601f880160051c810191602089106108fb57601f0160051c019061284a565b85610d22565b60405162461bcd60e51b8152602060048201526011602482015270139bdd0818481c185c9d1a58da5c185b9d607a1b6044820152606490fd5b3461025557602036600319011261025557600435600e5481101561025557610e92602091612305565b905460405160039290921b1c6001600160a01b03168152f35b3461025557602036600319011261025557610ec4612121565b610ed960018060a01b03600054163314612766565b6001600160a01b03166000818152600b6020526040902060030154610f009060ff16612ba6565b80600052600b602052610f166040600020612959565b604051904282527f1a69e67d1be897d0ca0cf1517b4d17e345b4272a80bc900f9fe8e96f261ca1db60203393a3005b34610255576020366003190112610255576001600160a01b03610f66612121565b1660005260126020526020604060002054604051908152f35b346102555760003660031901126102555761056c61058c6125ba565b34610255576020366003190112610255576004356001600160401b03811161025557610fcb903690600401612175565b610fe060018060a01b03600054163314612766565b8051156111145780516001600160401b0381116103e157611002600854612338565b601f81116110d7575b506020601f821160011461107157908061102c926000916110665750612861565b6008555b426002557fad44b517dc31b3f923480dd93ac031881f73b79bbac3f589725988789414724460405180610d7a3394429083612b8a565b905083015184610d4e565b601f198216906008600052806000209160005b8181106110bf575090836001949392106110a6575b5050811b01600855611030565b84015160001960f88460031b161c191690558380611099565b91926020600181928689015181550194019201611084565b600860005261110e90600080516020612e17833981519152601f840160051c810191602085106108fb57601f0160051c019061284a565b8261100b565b60405162461bcd60e51b815260206004820152602360248201527f46696e616c20524f2d437261746520686173682063616e6e6f7420626520656d60448201526270747960e81b6064820152608490fd5b34610255576040366003190112610255576004356024359061119260018060a01b03600054163314612766565b818110156111a257600955600a55005b60405162461bcd60e51b8152602060048201526012602482015271496e76616c69642074696d652072616e676560701b6044820152606490fd5b34610255576000366003190112610255576020600954604051908152f35b34610255576020366003190112610255576004356001600160401b0381116102555761122a903690600401612175565b60005461123c60ff8260a01c166127da565b6001600160a01b0316331461139f5733600052600b60205260ff6003604060002001541661136957611270815115156127a1565b6112a860405161127f81612137565b3381528260208201524260408201526001606082015233600052600b6020526040600020612a07565b600080600d54905b818110611334575b5050156112f2575b7fe4d6c018abd0178d4bce0856089ef1876318617b97a1d700bb98506598ab0afc60405180610d7a3394429083612b8a565b600d54600160401b8110156103e1578060016113139201600d55600d612320565b81546001600160a01b0360039290921b91821b19163390911b1790556112c0565b61133d816122ea565b905460039190911b1c6001600160a01b0316331461135d576001016112b0565b505050600182806112b8565b60405162461bcd60e51b815260206004820152600e60248201526d526571756573742065786973747360901b6044820152606490fd5b60405162461bcd60e51b815260206004820152601360248201527221b932b0ba37b91031b0b73737ba103537b4b760691b6044820152606490fd5b34610255576000366003190112610255576113fc60ff60005460a01c166127da565b33600052600c60205261141960ff60036040600020015416612917565b336000526010602052611433610312604060002054612338565b33600052600c60205261145561144f60016040600020016126c4565b33612c25565b33600052600c60205261146b6040600020612959565b60405142815230907f7b7404d30440087c51e068aac60d434f5a3a121313c035893fdf187c11d077b660203392a3005b346102555760003660031901126102555761056c61058c612419565b3461025557602036600319011261025557600435600d5481101561025557610e926020916122ea565b3461025557600036600319011261025557604060015460025482519182526020820152f35b34610255576020366003190112610255576001600160a01b03611526612121565b166000908152600c6020526040902080546001600160a01b031661056c610551600184016126c4565b346102555760003660031901126102555761056c61058c612372565b346102555760003660031901126102555761056c61058c612535565b34610255576020366003190112610255576001600160a01b036115a8612121565b16600052600b6020526115be60406000206128d1565b60018060a01b0381511661056c6020830151926060604082015191015115159060405194859485612286565b3461025557602036600319011261025557600435600f5481101561025557610e926020916122b9565b346102555760003660031901126102555733600052600c60205261164160ff60036040600020015416612917565b33600052600c6020526116576040600020612959565b60405142815230907ff7bcbaa371c3a472d8f63f253317d896d63bf307f5e8e913f8eeb9351bc0d4c660203392a3005b34610255576000366003190112610255576020600a54604051908152f35b34610255576020366003190112610255576001600160a01b036116c6612121565b16600052600c6020526115be60406000206128d1565b34610255576080366003190112610255576004356001600160401b0381116102555761170c903690600401612175565b6024356001600160401b0381116102555761172b903690600401612175565b6044356001600160401b0381116102555761174a903690600401612175565b6064356001600160401b03811161025557611769903690600401612175565b61177e60018060a01b03600054163314612766565b83516001600160401b0381116103e157611799600454612338565b601f8111611b19575b50602094601f8211600114611ab2576117c8929394958291600092611aa7575050612861565b6004555b82516001600160401b0381116103e1576117e7600554612338565b601f8111611a74575b506020601f8211600114611a0d578190611814939495600092611a02575050612861565b6005555b81516001600160401b0381116103e157611833600654612338565b601f81116119c5575b50602092601f82116001146119605761186092938291600092611955575050612861565b6006555b80516001600160401b0381116103e15761187f600754612338565b601f8111611918575b50602091601f82116001146118b4576118aa926000918361084e575050612861565b6007555b42600255005b601f198216926007600052806000209160005b858110611900575083600195106118e7575b505050811b016007556118ae565b015160001960f88460031b161c191690558280806118d9565b919260206001819286850151815501940192016118c7565b600760005261194f90600080516020612df7833981519152601f840160051c810191602085106108fb57601f0160051c019061284a565b82611888565b015190508480610823565b601f198216936006600052806000209160005b8681106119ad5750836001959610611994575b505050811b01600655611864565b015160001960f88460031b161c19169055838080611986565b91926020600181928685015181550194019201611973565b60066000526119fc90600080516020612e37833981519152601f840160051c810191602085106108fb57601f0160051c019061284a565b8361183c565b015190508580610823565b601f198216906005600052806000209160005b818110611a5c57509583600195969710611a43575b505050811b01600555611818565b015160001960f88460031b161c19169055848080611a35565b9192602060018192868b015181550194019201611a20565b611aa19060056000526020600020601f840160051c810191602085106108fb57601f0160051c019061284a565b846117f0565b015190508680610823565b601f198216956004600052806000209160005b888110611b0157508360019596979810611ae8575b505050811b016004556117cc565b015160001960f88460031b161c19169055858080611ada565b91926020600181928685015181550194019201611ac5565b6004600052611b5090600080516020612e57833981519152601f840160051c810191602085106108fb57601f0160051c019061284a565b856117a2565b3461025557600036600319011261025557600054600954600a54611bbf926001600160a01b03169190611bee611b8a612372565b93611be0611b96612419565b91611b9f6124b0565b611bcd611baa612535565b946040519a8b9a60e08c5260e08c0190612211565b908a820360208c0152612211565b9160408901528782036060890152612211565b908582036080870152612211565b9160a084015260c08301520390f35b3461025557600036600319011261025557600f54611c1a81612874565b611c276040519182612152565b818152611c3382612874565b602082019290601f1901368437611c4981612874565b611c566040519182612152565b818152601f19611c6583612874565b0160005b818110611df5575050611c7b8261288b565b611c848361288b565b9260005b818110611d5e5750506040519485946080860190608087525180915260a08601919060005b818110611d3c575050508481036020860152825180825260208201916020808360051b8301019501926000915b838310611d0757888061056c8a611cf98b8b8582036040870152612252565b908382036060850152612252565b9193969750919394602080611d28600193601f198682030187528a51612211565b980193019301909288979695949293611cda565b82516001600160a01b0316845288975060209384019390920191600101611cad565b80611d706001929894959697986122b9565b838060a01b0391549060031b1c1680611d89838b6128bd565b52806000526010602052611da060406000206126c4565b611daa83896128bd565b52611db582886128bd565b50806000526011602052604060002054611dcf83886128bd565b526000526012602052604060002054611de882896128bd565b5201959493929195611c88565b6060602082850181019190915201611c69565b34610255576020366003190112610255576004356001600160401b03811161025557611e38903690600401612175565b600054611e569060ff906102b4336001600160a01b03831614612766565b611e6281511515612811565b80516001600160401b0381116103e157611e7d600354612338565b601f8111611ef2575b50602091601f8211600114611ea85761082a926000918361084e575050612861565b601f198216926003600052806000209160005b858110611eda5750836001951061088c57505050811b0160035561082e565b91926020600181928685015181550194019201611ebb565b6003600052611f2990600080516020612db7833981519152601f840160051c810191602085106108fb57601f0160051c019061284a565b82611e86565b34610255576000366003190112610255576000546040516001600160a01b039091168152602090f35b3461025557611f66366121cb565b611f7e60018060a09594951b03600054163314612766565b611f8a835115156127a1565b611fc160018060a01b03831692836000526010602052611fb1610312604060002054612338565b611fbc831515612bdf565b612b45565b6000828152601060205260409020835193906001600160401b0385116103e157611feb8154612338565b601f81116120cb575b506020601f86116001146120575785600080516020612e77833981519152959661202592600091610d7f5750612861565b90555b8360005260116020528160406000205583600052601260205242604060002055610d7a60405192839283612b8a565b601f1986169082600052806000209160005b8181106120b35750918791600080516020612e7783398151915297986001941061209a575b5050811b019055612028565b85015160001960f88460031b161c19169055878061208e565b91926020600181928689015181550194019201612069565b6120f790826000526020600020601f880160051c810191602089106108fb57601f0160051c019061284a565b85611ff4565b34610255576000366003190112610255576000546001600160a01b03168152602090f35b600435906001600160a01b038216820361025557565b608081019081106001600160401b038211176103e157604052565b601f909101601f19168101906001600160401b038211908210176103e157604052565b81601f82011215610255578035906001600160401b0382116103e157604051926121a9601f8401601f191660200185612152565b8284526020838301011161025557816000926020809301838601378301015290565b906060600319830112610255576004356001600160a01b03811681036102555791602435906001600160401b0382116102555761220a91600401612175565b9060443590565b919082519283825260005b84811061223d575050826000602080949584010152601f8019910116010190565b8060208092840101518282860101520161221c565b906020808351928381520192019060005b8181106122705750505090565b8251845260209384019390920191600101612263565b929493906060926122ac9160018060a01b03168552608060208601526080850190612211565b9460408401521515910152565b600f548110156122d457600f60005260206000200190600090565b634e487b7160e01b600052603260045260246000fd5b600d548110156122d457600d60005260206000200190600090565b600e548110156122d457600e60005260206000200190600090565b80548210156122d45760005260206000200190600090565b90600182811c92168015612368575b602083101461235257565b634e487b7160e01b600052602260045260246000fd5b91607f1691612347565b604051906000826004549161238683612338565b80835292600181169081156123fa57506001146123ac575b6123aa92500383612152565b565b50600460009081529091600080516020612e578339815191525b8183106123de5750509060206123aa9282010161239e565b60209193508060019154838589010152019101909184926123c6565b602092506123aa94915060ff191682840152151560051b82010161239e565b604051906000826005549161242d83612338565b80835292600181169081156123fa5750600114612450576123aa92500383612152565b506005600090815290917f036b6384b5eca791c62761152d0c79bb0604c104a5fb6f4eb0703f3154bb3db05b8183106124945750509060206123aa9282010161239e565b602091935080600191548385890101520191019091849261247c565b60405190600082600654916124c483612338565b80835292600181169081156123fa57506001146124e7576123aa92500383612152565b50600660009081529091600080516020612e378339815191525b8183106125195750509060206123aa9282010161239e565b6020919350806001915483858901015201910190918492612501565b604051906000826007549161254983612338565b80835292600181169081156123fa575060011461256c576123aa92500383612152565b50600760009081529091600080516020612df78339815191525b81831061259e5750509060206123aa9282010161239e565b6020919350806001915483858901015201910190918492612586565b60405190600082600354916125ce83612338565b80835292600181169081156123fa57506001146125f1576123aa92500383612152565b50600360009081529091600080516020612db78339815191525b8183106126235750509060206123aa9282010161239e565b602091935080600191548385890101520191019091849261260b565b604051906000826008549161265383612338565b80835292600181169081156123fa5750600114612676576123aa92500383612152565b50600860009081529091600080516020612e178339815191525b8183106126a85750509060206123aa9282010161239e565b6020919350806001915483858901015201910190918492612690565b90604051918260008254926126d884612338565b808452936001811690811561274457506001146126fd575b506123aa92500383612152565b90506000929192526020600020906000915b8183106127285750509060206123aa92820101386126f0565b602091935080600191548385890101520191019091849261270f565b9050602092506123aa94915060ff191682840152151560051b820101386126f0565b1561276d57565b60405162461bcd60e51b815260206004820152600c60248201526b27b7363c9031b932b0ba37b960a11b6044820152606490fd5b156127a857565b60405162461bcd60e51b815260206004820152600a602482015269456d70747920726f6c6560b01b6044820152606490fd5b156127e157565b60405162461bcd60e51b8152602060048201526008602482015267496e61637469766560c01b6044820152606490fd5b1561281857565b60405162461bcd60e51b815260206004820152600a602482015269456d707479206461746160b01b6044820152606490fd5b818110612855575050565b6000815560010161284a565b8160011b916000199060031b1c19161790565b6001600160401b0381116103e15760051b60200190565b9061289582612874565b6128a26040519182612152565b82815280926128b3601f1991612874565b0190602036910137565b80518210156122d45760209160051b010190565b906040516128de81612137565b606060ff6003839560018060a01b0381541685526128fe600182016126c4565b6020860152600281015460408601520154161515910152565b1561291e57565b60405162461bcd60e51b8152602060048201526013602482015272139bc81a5b9d9a5d185d1a5bdb88199bdd5b99606a1b6044820152606490fd5b60036000918281556001810161296f8154612338565b9081612982575b50508260028201550155565b81601f8693116001146129995750555b3880612976565b818352602083206129b591601f0160051c81019060010161284a565b8082528160208120915555612992565b156129cc57565b60405162461bcd60e51b8152602060048201526013602482015272105b1c9958591e481c185c9d1a58da5c185b9d606a1b6044820152606490fd5b815181546001600160a01b0319166001600160a01b03919091161781556020820151805160018301916001600160401b0382116103e157612a488354612338565b601f8111612b13575b50602090601f8311600114612aa757826060959360039593612a7b93600092612a9c575050612861565b90555b6040840151600282015501910151151560ff80198354169116179055565b015190503880610823565b90601f1983169184600052816000209260005b818110612afb5750926001928592606098966003989610612ae3575b505050811b019055612a7e565b015160001983881b60f8161c19169055388080612ad6565b92936020600181928786015181550195019301612aba565b612b3f90846000526020600020601f850160051c810191602086106108fb57601f0160051c019061284a565b38612a51565b600f54600160401b8110156103e157806001612b669201600f55600f612320565b81546001600160a01b0393841660039290921b91821b9390911b1916919091179055565b929190612ba1602091604086526040860190612211565b930152565b15612bad57565b60405162461bcd60e51b815260206004820152600a602482015269139bc81c995c5d595cdd60b21b6044820152606490fd5b15612be657565b60405162461bcd60e51b8152602060048201526017602482015276576569676874206d75737420626520706f73697469766560481b6044820152606490fd5b90612c5760018060a01b03831692836000526010602052612c4d610312604060002054612338565b611fbc6001612bdf565b600082815260106020526040902081516001600160401b0381116103e157612c7f8254612338565b601f8111612d84575b506020601f8211600114612d0c5791612cbd82600080516020612e778339815191529593612cf595600091612d015750612861565b90555b836000526011602052600160406000205583600052601260205242604060002055604051918291604083526040830190612211565b600160208301520390a2565b905084015138610d4e565b601f1982169083600052806000209160005b818110612d6c575092612cf5949260019282600080516020612e77833981519152989610612d53575b5050811b019055612cc0565b85015160001960f88460031b161c191690553880612d47565b9192602060018192868a015181550194019201612d1e565b612db090836000526020600020601f840160051c810191602085106108fb57601f0160051c019061284a565b38612c8856fec2575a0e9e593c00f959f8c92f12db2869c3395a3b0502d05e2516446f71f85bc1756fd99ac9a2b1b22b5e701ddb022b897a002144d045b77ac35ce46610fef6a66cc928b5edb82af9bd49922954155ab7b0942694bea4ce44661d9a8736c688f3f7a9fe364faab93b216da50a3214154f22a0a2b415b23a84c8169e8b636ee3f652222313e28459528d920b65115c16c04f3efc82aaedc97be59f3f377c0d3f8a35acfbc15ff81a39ae7d344fd709f28e8600b4aa8c65c6b64bfe7fe36bd19bbceee304ac8d461cb65ac9f6dc37bbcb2c2c34c155224ffbfdc4752b89008f73e8c250df70afa51c6916b9661d224a47fd9568cb0c1c9d0d49e2e45cc729a987a26469706673582212200648a34b0521783bdecd65399439c98241e1ca767d71326b3abb42558041a00c64736f6c634300081c0033036b6384b5eca791c62761152d0c79bb0604c104a5fb6f4eb0703f3154bb3db0f474a44bbf67e28a60e1e8977a0d7bdf30896d6b88b7c83710a32ad527611994c2575a0e9e593c00f959f8c92f12db2869c3395a3b0502d05e2516446f71f85ba26469706673582212203dd66ec61dbe10b4c48f8051d6988526eb514ae08f0a82ed483a36ca4d526c0164736f6c634300081c0033","opcodes":"PUSH1 0x80 CALLVALUE PUSH1 0xCB JUMPI PUSH1 0x1F PUSH2 0x40A9 CODESIZE DUP2 SWAP1 SUB SWAP2 DUP3 ADD PUSH1 0x1F NOT AND DUP4 ADD SWAP2 PUSH1 0x1 PUSH1 0x1 PUSH1 0x40 SHL SUB DUP4 GT DUP5 DUP5 LT OR PUSH1 0xD0 JUMPI DUP1 DUP5 SWAP3 PUSH1 0x20 SWAP5 PUSH1 0x40 MSTORE DUP4 CODECOPY DUP2 ADD SUB SLT PUSH1 0xCB JUMPI MLOAD PUSH1 0x1 PUSH1 0x1 PUSH1 0xA0 SHL SUB DUP2 AND SWAP1 DUP2 SWAP1 SUB PUSH1 0xCB JUMPI DUP1 ISZERO PUSH1 0x75 JUMPI PUSH1 0x0 DUP1 SLOAD PUSH1 0x1 PUSH1 0x1 PUSH1 0xA0 SHL SUB NOT AND SWAP2 SWAP1 SWAP2 OR SWAP1 SSTORE PUSH1 0x40 MLOAD PUSH2 0x3FC2 SWAP1 DUP2 PUSH2 0xE7 DUP3 CODECOPY RETURN JUMPDEST PUSH1 0x40 MLOAD PUSH3 0x461BCD PUSH1 0xE5 SHL DUP2 MSTORE PUSH1 0x20 PUSH1 0x4 DUP3 ADD MSTORE PUSH1 0x28 PUSH1 0x24 DUP3 ADD MSTORE PUSH32 0x54656D706C61746520726567697374727920616464726573732063616E6E6F74 PUSH1 0x44 DUP3 ADD MSTORE PUSH8 0x206265207A65726F PUSH1 0xC0 SHL PUSH1 0x64 DUP3 ADD MSTORE PUSH1 0x84 SWAP1 REVERT JUMPDEST PUSH1 0x0 DUP1 REVERT JUMPDEST PUSH4 0x4E487B71 PUSH1 0xE0 SHL PUSH1 0x0 MSTORE PUSH1 0x41 PUSH1 0x4 MSTORE PUSH1 0x24 PUSH1 0x0 REVERT INVALID PUSH1 0x80 DUP1 PUSH1 0x40 MSTORE PUSH1 0x4 CALLDATASIZE LT ISZERO PUSH2 0x13 JUMPI PUSH1 0x0 DUP1 REVERT JUMPDEST PUSH1 0x0 CALLDATALOAD PUSH1 0xE0 SHR SWAP1 DUP2 PUSH4 0x5C81408 EQ PUSH2 0x966 JUMPI POP DUP1 PUSH4 0xE9EB496 EQ PUSH2 0xF2 JUMPI DUP1 PUSH4 0x2FA9C007 EQ PUSH2 0x903 JUMPI DUP1 PUSH4 0x3BCFF3B0 EQ PUSH2 0x8E5 JUMPI DUP1 PUSH4 0x3F3C9833 EQ PUSH2 0x8A6 JUMPI DUP1 PUSH4 0x4780F786 EQ PUSH2 0x4DE JUMPI DUP1 PUSH4 0x53B3194C EQ PUSH2 0x488 JUMPI DUP1 PUSH4 0x80D03829 EQ PUSH2 0x41B JUMPI DUP1 PUSH4 0x9C1FA044 EQ PUSH2 0x3B1 JUMPI DUP1 PUSH4 0xA0AF81F0 EQ PUSH2 0x388 JUMPI DUP1 PUSH4 0xA375728A EQ PUSH2 0x34E JUMPI DUP1 PUSH4 0xBB3098FF EQ PUSH2 0x2E1 JUMPI DUP1 PUSH4 0xE32E723C EQ PUSH2 0x251 JUMPI DUP1 PUSH4 0xEABEC3A3 EQ PUSH2 0x131 JUMPI DUP1 PUSH4 0xF0F847D6 EQ PUSH2 0xF2 JUMPI PUSH4 0xF4D32852 EQ PUSH2 0xCF JUMPI PUSH1 0x0 DUP1 REVERT JUMPDEST CALLVALUE PUSH2 0xED JUMPI PUSH1 0x0 CALLDATASIZE PUSH1 0x3 NOT ADD SLT PUSH2 0xED JUMPI PUSH1 0x20 PUSH1 0x5 SLOAD PUSH1 0x40 MLOAD SWAP1 DUP2 MSTORE RETURN JUMPDEST PUSH1 0x0 DUP1 REVERT JUMPDEST CALLVALUE PUSH2 0xED JUMPI PUSH1 0x20 CALLDATASIZE PUSH1 0x3 NOT ADD SLT PUSH2 0xED JUMPI PUSH1 0x1 PUSH1 0x1 PUSH1 0xA0 SHL SUB PUSH2 0x113 PUSH2 0x9A1 JUMP JUMPDEST AND PUSH1 0x0 MSTORE PUSH1 0x4 PUSH1 0x20 MSTORE PUSH1 0x20 PUSH1 0xFF PUSH1 0x40 PUSH1 0x0 KECCAK256 SLOAD AND PUSH1 0x40 MLOAD SWAP1 ISZERO ISZERO DUP2 MSTORE RETURN JUMPDEST CALLVALUE PUSH2 0xED JUMPI PUSH1 0x20 CALLDATASIZE PUSH1 0x3 NOT ADD SLT PUSH2 0xED JUMPI PUSH1 0x4 CALLDATALOAD PUSH1 0x1 PUSH1 0x1 PUSH1 0x40 SHL SUB DUP2 GT PUSH2 0xED JUMPI PUSH2 0x161 SWAP1 CALLDATASIZE SWAP1 PUSH1 0x4 ADD PUSH2 0xA23 JUMP JUMPDEST PUSH2 0x16D DUP2 MLOAD ISZERO ISZERO PUSH2 0xB15 JUMP JUMPDEST PUSH1 0x40 MLOAD SWAP1 PUSH2 0x3323 DUP1 DUP4 ADD SWAP2 PUSH1 0x1 PUSH1 0x1 PUSH1 0x40 SHL SUB DUP4 GT DUP5 DUP5 LT OR PUSH2 0x23B JUMPI DUP4 SWAP3 PUSH2 0x19C SWAP3 PUSH2 0xC0A DUP6 CODECOPY CALLER SWAP1 PUSH2 0xB85 JUMP JUMPDEST SUB SWAP1 PUSH1 0x0 CREATE DUP1 ISZERO PUSH2 0x22F JUMPI PUSH1 0x20 SWAP1 PUSH1 0x1 DUP1 PUSH1 0xA0 SHL SUB AND CALLER PUSH1 0x0 MSTORE PUSH1 0x1 DUP3 MSTORE PUSH2 0x1C8 DUP2 PUSH1 0x40 PUSH1 0x0 KECCAK256 PUSH2 0xBEC JUMP JUMPDEST DUP1 PUSH1 0x0 MSTORE PUSH1 0x2 DUP3 MSTORE PUSH1 0x40 PUSH1 0x0 KECCAK256 PUSH1 0x1 PUSH1 0xFF NOT DUP3 SLOAD AND OR SWAP1 SSTORE PUSH2 0x1E9 DUP2 PUSH2 0xBA7 JUMP JUMPDEST DUP1 PUSH1 0x40 MLOAD PUSH1 0x60 DUP2 MSTORE PUSH1 0x6 PUSH1 0x60 DUP3 ADD MSTORE PUSH6 0x637573746F6D PUSH1 0xD0 SHL PUSH1 0x80 DUP3 ADD MSTORE PUSH1 0x0 DUP5 DUP3 ADD MSTORE TIMESTAMP PUSH1 0x40 DUP3 ADD MSTORE PUSH1 0x0 DUP1 MLOAD PUSH1 0x20 PUSH2 0x3F4D DUP4 CODECOPY DUP2 MLOAD SWAP2 MSTORE PUSH1 0xA0 CALLER SWAP3 LOG3 PUSH1 0x40 MLOAD SWAP1 DUP2 MSTORE RETURN JUMPDEST PUSH1 0x40 MLOAD RETURNDATASIZE PUSH1 0x0 DUP3 RETURNDATACOPY RETURNDATASIZE SWAP1 REVERT JUMPDEST PUSH4 0x4E487B71 PUSH1 0xE0 SHL PUSH1 0x0 MSTORE PUSH1 0x41 PUSH1 0x4 MSTORE PUSH1 0x24 PUSH1 0x0 REVERT JUMPDEST CALLVALUE PUSH2 0xED JUMPI PUSH1 0x20 CALLDATASIZE PUSH1 0x3 NOT ADD SLT PUSH2 0xED JUMPI PUSH1 0x1 PUSH1 0x1 PUSH1 0xA0 SHL SUB PUSH2 0x272 PUSH2 0x9A1 JUMP JUMPDEST AND PUSH1 0x0 MSTORE PUSH1 0x1 PUSH1 0x20 MSTORE PUSH1 0x40 PUSH1 0x0 KECCAK256 PUSH1 0x40 MLOAD SWAP1 DUP2 PUSH1 0x20 DUP3 SLOAD SWAP2 DUP3 DUP2 MSTORE ADD SWAP2 PUSH1 0x0 MSTORE PUSH1 0x20 PUSH1 0x0 KECCAK256 SWAP1 PUSH1 0x0 JUMPDEST DUP2 DUP2 LT PUSH2 0x2C2 JUMPI PUSH2 0x2BE DUP6 PUSH2 0x2B2 DUP2 DUP8 SUB DUP3 PUSH2 0x9E5 JUMP JUMPDEST PUSH1 0x40 MLOAD SWAP2 DUP3 SWAP2 DUP3 PUSH2 0xA6A JUMP JUMPDEST SUB SWAP1 RETURN JUMPDEST DUP3 SLOAD PUSH1 0x1 PUSH1 0x1 PUSH1 0xA0 SHL SUB AND DUP5 MSTORE PUSH1 0x20 SWAP1 SWAP4 ADD SWAP3 PUSH1 0x1 SWAP3 DUP4 ADD SWAP3 ADD PUSH2 0x29B JUMP JUMPDEST CALLVALUE PUSH2 0xED JUMPI PUSH1 0x0 CALLDATASIZE PUSH1 0x3 NOT ADD SLT PUSH2 0xED JUMPI PUSH1 0x40 MLOAD PUSH1 0x5 DUP1 SLOAD DUP1 DUP4 MSTORE PUSH1 0x0 SWAP2 DUP3 MSTORE PUSH1 0x20 DUP4 ADD SWAP2 PUSH1 0x0 DUP1 MLOAD PUSH1 0x20 PUSH2 0x3F2D DUP4 CODECOPY DUP2 MLOAD SWAP2 MSTORE SWAP2 SWAP1 JUMPDEST DUP2 DUP2 LT PUSH2 0x32F JUMPI PUSH2 0x2BE DUP6 PUSH2 0x2B2 DUP2 DUP8 SUB DUP3 PUSH2 0x9E5 JUMP JUMPDEST DUP3 SLOAD PUSH1 0x1 PUSH1 0x1 PUSH1 0xA0 SHL SUB AND DUP5 MSTORE PUSH1 0x20 SWAP1 SWAP4 ADD SWAP3 PUSH1 0x1 SWAP3 DUP4 ADD SWAP3 ADD PUSH2 0x318 JUMP JUMPDEST CALLVALUE PUSH2 0xED JUMPI PUSH1 0x20 CALLDATASIZE PUSH1 0x3 NOT ADD SLT PUSH2 0xED JUMPI PUSH1 0x1 PUSH1 0x1 PUSH1 0xA0 SHL SUB PUSH2 0x36F PUSH2 0x9A1 JUMP JUMPDEST AND PUSH1 0x0 MSTORE PUSH1 0x1 PUSH1 0x20 MSTORE PUSH1 0x20 PUSH1 0x40 PUSH1 0x0 KECCAK256 SLOAD PUSH1 0x40 MLOAD SWAP1 DUP2 MSTORE RETURN JUMPDEST CALLVALUE PUSH2 0xED JUMPI PUSH1 0x0 CALLDATASIZE PUSH1 0x3 NOT ADD SLT PUSH2 0xED JUMPI PUSH1 0x0 SLOAD PUSH1 0x40 MLOAD PUSH1 0x1 PUSH1 0x1 PUSH1 0xA0 SHL SUB SWAP1 SWAP2 AND DUP2 MSTORE PUSH1 0x20 SWAP1 RETURN JUMPDEST CALLVALUE PUSH2 0xED JUMPI PUSH1 0x20 CALLDATASIZE PUSH1 0x3 NOT ADD SLT PUSH2 0xED JUMPI PUSH1 0x4 CALLDATALOAD PUSH1 0x5 SLOAD DUP2 LT ISZERO PUSH2 0xED JUMPI PUSH1 0x0 SWAP1 PUSH1 0x5 SLOAD DUP2 LT ISZERO PUSH2 0x407 JUMPI PUSH1 0x5 SWAP1 SWAP2 MSTORE PUSH1 0x0 DUP1 MLOAD PUSH1 0x20 PUSH2 0x3F2D DUP4 CODECOPY DUP2 MLOAD SWAP2 MSTORE ADD SLOAD PUSH1 0x40 MLOAD PUSH1 0x1 PUSH1 0x1 PUSH1 0xA0 SHL SUB SWAP1 SWAP2 AND DUP2 MSTORE PUSH1 0x20 SWAP1 RETURN JUMPDEST PUSH4 0x4E487B71 PUSH1 0xE0 SHL DUP3 MSTORE PUSH1 0x32 PUSH1 0x4 MSTORE PUSH1 0x24 DUP3 REVERT JUMPDEST CALLVALUE PUSH2 0xED JUMPI PUSH1 0x0 CALLDATASIZE PUSH1 0x3 NOT ADD SLT PUSH2 0xED JUMPI PUSH1 0x40 MLOAD PUSH1 0x3 DUP1 SLOAD DUP1 DUP4 MSTORE PUSH1 0x0 SWAP2 DUP3 MSTORE PUSH1 0x20 DUP4 ADD SWAP2 PUSH1 0x0 DUP1 MLOAD PUSH1 0x20 PUSH2 0x3F6D DUP4 CODECOPY DUP2 MLOAD SWAP2 MSTORE SWAP2 SWAP1 JUMPDEST DUP2 DUP2 LT PUSH2 0x469 JUMPI PUSH2 0x2BE DUP6 PUSH2 0x2B2 DUP2 DUP8 SUB DUP3 PUSH2 0x9E5 JUMP JUMPDEST DUP3 SLOAD PUSH1 0x1 PUSH1 0x1 PUSH1 0xA0 SHL SUB AND DUP5 MSTORE PUSH1 0x20 SWAP1 SWAP4 ADD SWAP3 PUSH1 0x1 SWAP3 DUP4 ADD SWAP3 ADD PUSH2 0x452 JUMP JUMPDEST CALLVALUE PUSH2 0xED JUMPI PUSH1 0x20 CALLDATASIZE PUSH1 0x3 NOT ADD SLT PUSH2 0xED JUMPI PUSH1 0x4 CALLDATALOAD PUSH1 0x3 SLOAD DUP2 LT ISZERO PUSH2 0xED JUMPI PUSH1 0x0 SWAP1 PUSH1 0x3 SLOAD DUP2 LT ISZERO PUSH2 0x407 JUMPI PUSH1 0x3 SWAP1 SWAP2 MSTORE PUSH1 0x0 DUP1 MLOAD PUSH1 0x20 PUSH2 0x3F6D DUP4 CODECOPY DUP2 MLOAD SWAP2 MSTORE ADD SLOAD PUSH1 0x40 MLOAD PUSH1 0x1 PUSH1 0x1 PUSH1 0xA0 SHL SUB SWAP1 SWAP2 AND DUP2 MSTORE PUSH1 0x20 SWAP1 RETURN JUMPDEST CALLVALUE PUSH2 0xED JUMPI PUSH1 0x40 CALLDATASIZE PUSH1 0x3 NOT ADD SLT PUSH2 0xED JUMPI PUSH1 0x4 CALLDATALOAD PUSH1 0x24 CALLDATALOAD PUSH1 0x1 PUSH1 0x1 PUSH1 0x40 SHL SUB DUP2 GT PUSH2 0xED JUMPI PUSH2 0x513 PUSH1 0x24 SWAP2 CALLDATASIZE SWAP1 PUSH1 0x4 ADD PUSH2 0xA23 JUMP JUMPDEST PUSH1 0x0 DUP1 SLOAD PUSH1 0x40 MLOAD PUSH4 0xC550F3D PUSH1 0xE2 SHL DUP2 MSTORE PUSH1 0x4 DUP2 ADD DUP7 SWAP1 MSTORE SWAP4 DUP5 SWAP2 DUP3 SWAP1 PUSH1 0x1 PUSH1 0x1 PUSH1 0xA0 SHL SUB AND GAS STATICCALL DUP1 ISZERO PUSH2 0x22F JUMPI PUSH1 0x0 SWAP3 DUP4 SWAP2 PUSH2 0x732 JUMPI JUMPDEST POP ISZERO PUSH2 0x6F4 JUMPI PUSH2 0x55D DUP2 MLOAD ISZERO ISZERO PUSH2 0xB15 JUMP JUMPDEST PUSH1 0x40 MLOAD SWAP1 PUSH2 0x3323 DUP1 DUP4 ADD SWAP2 PUSH1 0x1 PUSH1 0x1 PUSH1 0x40 SHL SUB DUP4 GT DUP5 DUP5 LT OR PUSH2 0x23B JUMPI DUP4 SWAP3 PUSH2 0x58C SWAP3 PUSH2 0xC0A DUP6 CODECOPY CALLER SWAP1 PUSH2 0xB85 JUMP JUMPDEST SUB SWAP1 PUSH1 0x0 CREATE DUP1 ISZERO PUSH2 0x22F JUMPI PUSH1 0x1 DUP1 PUSH1 0xA0 SHL SUB AND SWAP1 PUSH1 0x40 MLOAD PUSH1 0x20 DUP2 ADD SWAP1 PUSH2 0x5CE PUSH1 0x20 DUP3 DUP6 MLOAD PUSH2 0x5BD DUP2 DUP8 DUP6 DUP11 ADD PUSH2 0xAAD JUMP JUMPDEST DUP2 ADD SUB ADD PUSH1 0x1F NOT DUP2 ADD DUP4 MSTORE DUP3 PUSH2 0x9E5 JUMP JUMPDEST MLOAD SWAP1 KECCAK256 PUSH1 0x40 MLOAD PUSH1 0x20 DUP2 ADD SWAP1 PUSH15 0x6163746976655F6C6561726E696E67 PUSH1 0x88 SHL DUP3 MSTORE PUSH1 0xF DUP2 MSTORE PUSH2 0x5FD PUSH1 0x2F DUP3 PUSH2 0x9E5 JUMP JUMPDEST MLOAD SWAP1 KECCAK256 EQ PUSH2 0x67F JUMPI JUMPDEST PUSH1 0x20 SWAP3 PUSH1 0x0 DUP1 MLOAD PUSH1 0x20 PUSH2 0x3F4D DUP4 CODECOPY DUP2 MLOAD SWAP2 MSTORE DUP4 SWAP3 CALLER PUSH1 0x0 MSTORE PUSH1 0x1 DUP7 MSTORE PUSH2 0x630 DUP5 PUSH1 0x40 PUSH1 0x0 KECCAK256 PUSH2 0xBEC JUMP JUMPDEST DUP4 PUSH1 0x0 MSTORE PUSH1 0x2 DUP7 MSTORE PUSH1 0x40 PUSH1 0x0 KECCAK256 PUSH1 0x1 PUSH1 0xFF NOT DUP3 SLOAD AND OR SWAP1 SSTORE PUSH2 0x651 DUP5 PUSH2 0xBA7 JUMP JUMPDEST PUSH2 0x666 PUSH1 0x40 MLOAD SWAP2 PUSH1 0x60 DUP4 MSTORE PUSH1 0x60 DUP4 ADD SWAP1 PUSH2 0xB60 JUMP JUMPDEST SWAP3 DUP7 DUP3 ADD MSTORE TIMESTAMP PUSH1 0x40 DUP3 ADD MSTORE DUP1 CALLER SWAP4 SUB SWAP1 LOG3 PUSH1 0x40 MLOAD SWAP1 DUP2 MSTORE RETURN JUMPDEST PUSH1 0x0 DUP3 DUP2 MSTORE PUSH1 0x4 PUSH1 0x20 MSTORE PUSH1 0x40 SWAP1 KECCAK256 DUP1 SLOAD PUSH1 0xFF NOT AND PUSH1 0x1 OR SWAP1 SSTORE PUSH1 0x5 SLOAD SWAP3 PUSH1 0x1 PUSH1 0x40 SHL DUP5 LT ISZERO PUSH2 0x23B JUMPI PUSH1 0x0 DUP1 MLOAD PUSH1 0x20 PUSH2 0x3F4D DUP4 CODECOPY DUP2 MLOAD SWAP2 MSTORE DUP4 SWAP3 PUSH2 0x6CD DUP7 PUSH1 0x1 PUSH1 0x20 SWAP9 ADD PUSH1 0x5 SSTORE PUSH1 0x5 PUSH2 0x9B7 JUMP JUMPDEST DUP2 SLOAD PUSH1 0x1 PUSH1 0x1 PUSH1 0xA0 SHL SUB PUSH1 0x3 SWAP3 SWAP1 SWAP3 SHL SWAP2 DUP3 SHL NOT AND SWAP6 SWAP1 SHL SWAP5 SWAP1 SWAP5 OR SWAP1 SWAP4 SSTORE POP SWAP3 POP PUSH2 0x606 JUMP JUMPDEST PUSH1 0x40 MLOAD PUSH3 0x461BCD PUSH1 0xE5 SHL DUP2 MSTORE PUSH1 0x20 PUSH1 0x4 DUP3 ADD MSTORE PUSH1 0x16 PUSH1 0x24 DUP3 ADD MSTORE PUSH22 0x54656D706C617465206973206E6F7420616374697665 PUSH1 0x50 SHL PUSH1 0x44 DUP3 ADD MSTORE PUSH1 0x64 SWAP1 REVERT JUMPDEST SWAP1 POP RETURNDATASIZE DUP1 DUP5 DUP4 RETURNDATACOPY PUSH2 0x743 DUP2 DUP4 PUSH2 0x9E5 JUMP JUMPDEST DUP2 ADD SWAP1 PUSH1 0xC0 DUP2 DUP4 SUB SLT PUSH2 0x8A2 JUMPI DUP1 MLOAD PUSH1 0x1 PUSH1 0x1 PUSH1 0x40 SHL SUB DUP2 GT PUSH2 0x89E JUMPI DUP3 PUSH2 0x76C SWAP2 DUP4 ADD PUSH2 0xAD0 JUMP JUMPDEST POP PUSH1 0x20 DUP2 ADD MLOAD PUSH1 0x1 PUSH1 0x1 PUSH1 0x40 SHL SUB DUP2 GT PUSH2 0x89E JUMPI DUP3 PUSH2 0x78C SWAP2 DUP4 ADD PUSH2 0xAD0 JUMP JUMPDEST POP PUSH1 0x40 DUP2 ADD MLOAD PUSH1 0x1 PUSH1 0x1 PUSH1 0x40 SHL SUB DUP2 GT PUSH2 0x89E JUMPI DUP3 PUSH2 0x7AC SWAP2 DUP4 ADD PUSH2 0xAD0 JUMP JUMPDEST PUSH1 0x60 DUP3 ADD MLOAD SWAP1 SWAP3 SWAP1 PUSH1 0x1 PUSH1 0x1 PUSH1 0x40 SHL SUB DUP2 GT PUSH2 0x851 JUMPI DUP3 ADD DUP2 PUSH1 0x1F DUP3 ADD SLT ISZERO PUSH2 0x851 JUMPI DUP1 MLOAD PUSH1 0x1 PUSH1 0x1 PUSH1 0x40 SHL SUB DUP2 GT PUSH2 0x88A JUMPI PUSH1 0x20 DUP1 DUP3 PUSH1 0x5 SHL SWAP3 PUSH1 0x40 MLOAD SWAP1 PUSH2 0x7F7 DUP4 DUP7 ADD DUP4 PUSH2 0x9E5 JUMP JUMPDEST DUP2 MSTORE ADD SWAP2 DUP4 ADD ADD SWAP2 DUP4 DUP4 GT PUSH2 0x886 JUMPI PUSH1 0x20 DUP2 ADD SWAP2 JUMPDEST DUP4 DUP4 LT PUSH2 0x855 JUMPI POP POP POP POP PUSH1 0x80 DUP3 ADD MLOAD PUSH1 0x1 PUSH1 0x1 PUSH1 0x40 SHL SUB DUP2 GT PUSH2 0x851 JUMPI DUP3 SWAP2 PUSH2 0x839 SWAP2 PUSH1 0xA0 SWAP5 ADD PUSH2 0xAD0 JUMP JUMPDEST POP ADD MLOAD SWAP3 DUP4 ISZERO ISZERO DUP5 SUB PUSH2 0x84E JUMPI POP SWAP2 DUP5 PUSH2 0x54B JUMP JUMPDEST DUP1 REVERT JUMPDEST DUP6 DUP1 REVERT JUMPDEST DUP3 MLOAD PUSH1 0x1 PUSH1 0x1 PUSH1 0x40 SHL SUB DUP2 GT PUSH2 0x882 JUMPI PUSH1 0x20 SWAP2 PUSH2 0x877 DUP8 DUP5 DUP1 SWAP5 DUP8 ADD ADD PUSH2 0xAD0 JUMP JUMPDEST DUP2 MSTORE ADD SWAP3 ADD SWAP2 PUSH2 0x80C JUMP JUMPDEST DUP10 DUP1 REVERT JUMPDEST DUP8 DUP1 REVERT JUMPDEST PUSH4 0x4E487B71 PUSH1 0xE0 SHL DUP8 MSTORE PUSH1 0x41 PUSH1 0x4 MSTORE PUSH1 0x24 DUP8 REVERT JUMPDEST DUP5 DUP1 REVERT JUMPDEST DUP4 DUP1 REVERT JUMPDEST CALLVALUE PUSH2 0xED JUMPI PUSH1 0x20 CALLDATASIZE PUSH1 0x3 NOT ADD SLT PUSH2 0xED JUMPI PUSH1 0x1 PUSH1 0x1 PUSH1 0xA0 SHL SUB PUSH2 0x8C7 PUSH2 0x9A1 JUMP JUMPDEST AND PUSH1 0x0 MSTORE PUSH1 0x2 PUSH1 0x20 MSTORE PUSH1 0x20 PUSH1 0xFF PUSH1 0x40 PUSH1 0x0 KECCAK256 SLOAD AND PUSH1 0x40 MLOAD SWAP1 ISZERO ISZERO DUP2 MSTORE RETURN JUMPDEST CALLVALUE PUSH2 0xED JUMPI PUSH1 0x0 CALLDATASIZE PUSH1 0x3 NOT ADD SLT PUSH2 0xED JUMPI PUSH1 0x20 PUSH1 0x3 SLOAD PUSH1 0x40 MLOAD SWAP1 DUP2 MSTORE RETURN JUMPDEST CALLVALUE PUSH2 0xED JUMPI PUSH1 0x40 CALLDATASIZE PUSH1 0x3 NOT ADD SLT PUSH2 0xED JUMPI PUSH2 0x91C PUSH2 0x9A1 JUMP JUMPDEST PUSH1 0x1 PUSH1 0x1 PUSH1 0xA0 SHL SUB AND PUSH1 0x0 SWAP1 DUP2 MSTORE PUSH1 0x1 PUSH1 0x20 MSTORE PUSH1 0x40 SWAP1 KECCAK256 DUP1 SLOAD PUSH1 0x24 CALLDATALOAD SWAP2 SWAP1 DUP3 LT ISZERO PUSH2 0xED JUMPI PUSH1 0x20 SWAP2 PUSH2 0x94D SWAP2 PUSH2 0x9B7 JUMP JUMPDEST SWAP1 SLOAD PUSH1 0x40 MLOAD PUSH1 0x3 SWAP3 SWAP1 SWAP3 SHL SHR PUSH1 0x1 PUSH1 0x1 PUSH1 0xA0 SHL SUB AND DUP2 MSTORE RETURN JUMPDEST CALLVALUE PUSH2 0xED JUMPI PUSH1 0x20 CALLDATASIZE PUSH1 0x3 NOT ADD SLT PUSH2 0xED JUMPI PUSH1 0x20 SWAP1 PUSH1 0x1 PUSH1 0x1 PUSH1 0xA0 SHL SUB PUSH2 0x98A PUSH2 0x9A1 JUMP JUMPDEST AND PUSH1 0x0 MSTORE PUSH1 0x2 DUP3 MSTORE PUSH1 0xFF PUSH1 0x40 PUSH1 0x0 KECCAK256 SLOAD AND ISZERO ISZERO DUP2 MSTORE RETURN JUMPDEST PUSH1 0x4 CALLDATALOAD SWAP1 PUSH1 0x1 PUSH1 0x1 PUSH1 0xA0 SHL SUB DUP3 AND DUP3 SUB PUSH2 0xED JUMPI JUMP JUMPDEST DUP1 SLOAD DUP3 LT ISZERO PUSH2 0x9CF JUMPI PUSH1 0x0 MSTORE PUSH1 0x20 PUSH1 0x0 KECCAK256 ADD SWAP1 PUSH1 0x0 SWAP1 JUMP JUMPDEST PUSH4 0x4E487B71 PUSH1 0xE0 SHL PUSH1 0x0 MSTORE PUSH1 0x32 PUSH1 0x4 MSTORE PUSH1 0x24 PUSH1 0x0 REVERT JUMPDEST PUSH1 0x1F SWAP1 SWAP2 ADD PUSH1 0x1F NOT AND DUP2 ADD SWAP1 PUSH1 0x1 PUSH1 0x1 PUSH1 0x40 SHL SUB DUP3 GT SWAP1 DUP3 LT OR PUSH2 0x23B JUMPI PUSH1 0x40 MSTORE JUMP JUMPDEST PUSH1 0x1 PUSH1 0x1 PUSH1 0x40 SHL SUB DUP2 GT PUSH2 0x23B JUMPI PUSH1 0x1F ADD PUSH1 0x1F NOT AND PUSH1 0x20 ADD SWAP1 JUMP JUMPDEST DUP2 PUSH1 0x1F DUP3 ADD SLT ISZERO PUSH2 0xED JUMPI DUP1 CALLDATALOAD SWAP1 PUSH2 0xA3A DUP3 PUSH2 0xA08 JUMP JUMPDEST SWAP3 PUSH2 0xA48 PUSH1 0x40 MLOAD SWAP5 DUP6 PUSH2 0x9E5 JUMP JUMPDEST DUP3 DUP5 MSTORE PUSH1 0x20 DUP4 DUP4 ADD ADD GT PUSH2 0xED JUMPI DUP2 PUSH1 0x0 SWAP3 PUSH1 0x20 DUP1 SWAP4 ADD DUP4 DUP7 ADD CALLDATACOPY DUP4 ADD ADD MSTORE SWAP1 JUMP JUMPDEST PUSH1 0x20 PUSH1 0x40 DUP2 DUP4 ADD SWAP3 DUP3 DUP2 MSTORE DUP5 MLOAD DUP1 SWAP5 MSTORE ADD SWAP3 ADD SWAP1 PUSH1 0x0 JUMPDEST DUP2 DUP2 LT PUSH2 0xA8E JUMPI POP POP POP SWAP1 JUMP JUMPDEST DUP3 MLOAD PUSH1 0x1 PUSH1 0x1 PUSH1 0xA0 SHL SUB AND DUP5 MSTORE PUSH1 0x20 SWAP4 DUP5 ADD SWAP4 SWAP1 SWAP3 ADD SWAP2 PUSH1 0x1 ADD PUSH2 0xA81 JUMP JUMPDEST PUSH1 0x0 JUMPDEST DUP4 DUP2 LT PUSH2 0xAC0 JUMPI POP POP PUSH1 0x0 SWAP2 ADD MSTORE JUMP JUMPDEST DUP2 DUP2 ADD MLOAD DUP4 DUP3 ADD MSTORE PUSH1 0x20 ADD PUSH2 0xAB0 JUMP JUMPDEST DUP2 PUSH1 0x1F DUP3 ADD SLT ISZERO PUSH2 0xED JUMPI DUP1 MLOAD PUSH2 0xAE6 DUP2 PUSH2 0xA08 JUMP JUMPDEST SWAP3 PUSH2 0xAF4 PUSH1 0x40 MLOAD SWAP5 DUP6 PUSH2 0x9E5 JUMP JUMPDEST DUP2 DUP5 MSTORE PUSH1 0x20 DUP3 DUP5 ADD ADD GT PUSH2 0xED JUMPI PUSH2 0xB12 SWAP2 PUSH1 0x20 DUP1 DUP6 ADD SWAP2 ADD PUSH2 0xAAD JUMP JUMPDEST SWAP1 JUMP JUMPDEST ISZERO PUSH2 0xB1C JUMPI JUMP JUMPDEST PUSH1 0x40 MLOAD PUSH3 0x461BCD PUSH1 0xE5 SHL DUP2 MSTORE PUSH1 0x20 PUSH1 0x4 DUP3 ADD MSTORE PUSH1 0x1C PUSH1 0x24 DUP3 ADD MSTORE PUSH28 0x50726F6A65637420646174612063616E6E6F7420626520656D707479 PUSH1 0x20 SHL PUSH1 0x44 DUP3 ADD MSTORE PUSH1 0x64 SWAP1 REVERT JUMPDEST SWAP1 PUSH1 0x20 SWAP2 PUSH2 0xB79 DUP2 MLOAD DUP1 SWAP3 DUP2 DUP6 MSTORE DUP6 DUP1 DUP7 ADD SWAP2 ADD PUSH2 0xAAD JUMP JUMPDEST PUSH1 0x1F ADD PUSH1 0x1F NOT AND ADD ADD SWAP1 JUMP JUMPDEST PUSH1 0x1 PUSH1 0x1 PUSH1 0xA0 SHL SUB SWAP1 SWAP2 AND DUP2 MSTORE PUSH1 0x40 PUSH1 0x20 DUP3 ADD DUP2 SWAP1 MSTORE PUSH2 0xB12 SWAP3 SWAP2 ADD SWAP1 PUSH2 0xB60 JUMP JUMPDEST PUSH1 0x3 SLOAD PUSH1 0x1 PUSH1 0x40 SHL DUP2 LT ISZERO PUSH2 0x23B JUMPI DUP1 PUSH1 0x1 PUSH2 0xBC8 SWAP3 ADD PUSH1 0x3 SSTORE PUSH1 0x3 PUSH2 0x9B7 JUMP JUMPDEST DUP2 SLOAD PUSH1 0x1 PUSH1 0x1 PUSH1 0xA0 SHL SUB SWAP4 DUP5 AND PUSH1 0x3 SWAP3 SWAP1 SWAP3 SHL SWAP2 DUP3 SHL SWAP4 SWAP1 SWAP2 SHL NOT AND SWAP2 SWAP1 SWAP2 OR SWAP1 SSTORE JUMP JUMPDEST DUP1 SLOAD PUSH1 0x1 PUSH1 0x40 SHL DUP2 LT ISZERO PUSH2 0x23B JUMPI PUSH2 0xBC8 SWAP2 PUSH1 0x1 DUP3 ADD DUP2 SSTORE PUSH2 0x9B7 JUMP INVALID PUSH1 0x80 PUSH1 0x40 MSTORE CALLVALUE PUSH2 0x3BB JUMPI PUSH2 0x3323 DUP1 CODESIZE SUB DUP1 PUSH2 0x19 DUP2 PUSH2 0x3C0 JUMP JUMPDEST SWAP3 DUP4 CODECOPY DUP2 ADD SWAP1 PUSH1 0x40 DUP2 DUP4 SUB SLT PUSH2 0x3BB JUMPI DUP1 MLOAD PUSH1 0x1 PUSH1 0x1 PUSH1 0xA0 SHL SUB DUP2 AND SWAP2 SWAP1 DUP3 SWAP1 SUB PUSH2 0x3BB JUMPI PUSH1 0x20 DUP2 ADD MLOAD SWAP1 PUSH1 0x1 PUSH1 0x1 PUSH1 0x40 SHL SUB DUP3 GT PUSH2 0x3BB JUMPI ADD DUP3 PUSH1 0x1F DUP3 ADD SLT ISZERO PUSH2 0x3BB JUMPI DUP1 MLOAD SWAP1 PUSH1 0x1 PUSH1 0x1 PUSH1 0x40 SHL SUB DUP3 GT PUSH2 0x294 JUMPI PUSH2 0x82 PUSH1 0x1F DUP4 ADD PUSH1 0x1F NOT AND PUSH1 0x20 ADD PUSH2 0x3C0 JUMP JUMPDEST SWAP4 DUP3 DUP6 MSTORE PUSH1 0x20 DUP4 DUP4 ADD ADD GT PUSH2 0x3BB JUMPI PUSH1 0x0 JUMPDEST DUP3 DUP2 LT PUSH2 0x3A6 JUMPI POP POP PUSH1 0x20 PUSH1 0x0 SWAP2 DUP5 ADD ADD MSTORE DUP2 MLOAD ISZERO PUSH2 0x374 JUMPI PUSH1 0x0 DUP1 SLOAD PUSH1 0x1 PUSH1 0x1 PUSH1 0xA0 SHL SUB NOT AND DUP3 OR SWAP1 SSTORE DUP2 MLOAD PUSH1 0x1 PUSH1 0x1 PUSH1 0x40 SHL SUB DUP2 GT PUSH2 0x294 JUMPI PUSH2 0xDA PUSH1 0x3 SLOAD PUSH2 0x3E5 JUMP JUMPDEST PUSH1 0x1F DUP2 GT PUSH2 0x31A JUMPI JUMPDEST POP PUSH1 0x20 SWAP3 PUSH1 0x1F DUP3 GT PUSH1 0x1 EQ PUSH2 0x2B5 JUMPI SWAP3 DUP2 SWAP3 SWAP4 PUSH1 0x0 SWAP3 PUSH2 0x2AA JUMPI JUMPDEST POP POP DUP2 PUSH1 0x1 SHL SWAP2 PUSH1 0x0 NOT SWAP1 PUSH1 0x3 SHL SHR NOT AND OR PUSH1 0x3 SSTORE JUMPDEST TIMESTAMP PUSH1 0x1 DUP2 SWAP1 SSTORE PUSH1 0x2 SSTORE PUSH1 0x0 DUP1 SLOAD PUSH1 0xFF PUSH1 0xA0 SHL NOT AND PUSH1 0x1 PUSH1 0xA0 SHL OR SWAP1 SSTORE PUSH1 0xF SLOAD PUSH9 0x10000000000000000 DUP2 LT ISZERO PUSH2 0x294 JUMPI PUSH1 0x1 DUP2 ADD DUP1 PUSH1 0xF SSTORE DUP2 LT ISZERO PUSH2 0x27E JUMPI PUSH32 0x8D1108E10BCB7C27DDDFC02ED9D693A074039D026CF4EA4240B40F7D581AC802 ADD DUP1 SLOAD PUSH1 0x1 PUSH1 0x1 PUSH1 0xA0 SHL SUB NOT AND DUP3 OR SWAP1 SSTORE PUSH1 0x0 DUP2 DUP2 MSTORE PUSH1 0x10 PUSH1 0x20 MSTORE PUSH1 0x40 SWAP1 KECCAK256 DUP1 SLOAD PUSH2 0x19E SWAP1 PUSH2 0x3E5 JUMP JUMPDEST PUSH1 0x1F DUP2 GT PUSH2 0x25C JUMPI JUMPDEST POP PUSH1 0xE PUSH7 0x31B932B0BA37B9 PUSH1 0xC9 SHL ADD SWAP1 SSTORE DUP1 PUSH1 0x0 MSTORE PUSH1 0x11 PUSH1 0x20 MSTORE PUSH1 0x1 PUSH1 0x40 PUSH1 0x0 KECCAK256 SSTORE DUP1 PUSH1 0x0 MSTORE PUSH1 0x12 PUSH1 0x20 MSTORE TIMESTAMP PUSH1 0x40 PUSH1 0x0 KECCAK256 SSTORE DUP1 PUSH32 0x20BFD29F3D906F96FC35742FAC45A554B19CBD4E21F8C4C1D84CB58FDFC32C89 PUSH1 0x20 PUSH1 0x40 MLOAD TIMESTAMP DUP2 MSTORE LOG2 PUSH32 0xBCEEE304AC8D461CB65AC9F6DC37BBCB2C2C34C155224FFBFDC4752B89008F73 PUSH1 0x80 PUSH1 0x40 MLOAD PUSH1 0x40 DUP2 MSTORE PUSH1 0x7 PUSH1 0x40 DUP3 ADD MSTORE PUSH7 0x31B932B0BA37B9 PUSH1 0xC9 SHL PUSH1 0x60 DUP3 ADD MSTORE PUSH1 0x1 PUSH1 0x20 DUP3 ADD MSTORE LOG2 PUSH1 0x40 MLOAD PUSH2 0x2EEC SWAP1 DUP2 PUSH2 0x437 DUP3 CODECOPY RETURN JUMPDEST PUSH2 0x278 SWAP1 DUP3 PUSH1 0x0 MSTORE PUSH1 0x1F PUSH1 0x20 PUSH1 0x0 KECCAK256 SWAP2 ADD PUSH1 0x5 SHR DUP2 ADD SWAP1 PUSH2 0x41F JUMP JUMPDEST CODESIZE PUSH2 0x1A7 JUMP JUMPDEST PUSH4 0x4E487B71 PUSH1 0xE0 SHL PUSH1 0x0 MSTORE PUSH1 0x32 PUSH1 0x4 MSTORE PUSH1 0x24 PUSH1 0x0 REVERT JUMPDEST PUSH4 0x4E487B71 PUSH1 0xE0 SHL PUSH1 0x0 MSTORE PUSH1 0x41 PUSH1 0x4 MSTORE PUSH1 0x24 PUSH1 0x0 REVERT JUMPDEST ADD MLOAD SWAP1 POP CODESIZE DUP1 PUSH2 0xFE JUMP JUMPDEST PUSH1 0x1F NOT DUP3 AND SWAP4 PUSH1 0x3 PUSH1 0x0 MSTORE DUP1 PUSH1 0x0 KECCAK256 SWAP2 PUSH1 0x0 JUMPDEST DUP7 DUP2 LT PUSH2 0x302 JUMPI POP DUP4 PUSH1 0x1 SWAP6 SWAP7 LT PUSH2 0x2E9 JUMPI JUMPDEST POP POP POP DUP2 SHL ADD PUSH1 0x3 SSTORE PUSH2 0x114 JUMP JUMPDEST ADD MLOAD PUSH1 0x0 NOT PUSH1 0xF8 DUP5 PUSH1 0x3 SHL AND SHR NOT AND SWAP1 SSTORE CODESIZE DUP1 DUP1 PUSH2 0x2DB JUMP JUMPDEST SWAP2 SWAP3 PUSH1 0x20 PUSH1 0x1 DUP2 SWAP3 DUP7 DUP6 ADD MLOAD DUP2 SSTORE ADD SWAP5 ADD SWAP3 ADD PUSH2 0x2C8 JUMP JUMPDEST PUSH1 0x3 PUSH1 0x0 MSTORE PUSH2 0x364 SWAP1 PUSH32 0xC2575A0E9E593C00F959F8C92F12DB2869C3395A3B0502D05E2516446F71F85B PUSH1 0x1F DUP5 ADD PUSH1 0x5 SHR DUP2 ADD SWAP2 PUSH1 0x20 DUP6 LT PUSH2 0x36A JUMPI JUMPDEST PUSH1 0x1F ADD PUSH1 0x5 SHR ADD SWAP1 PUSH2 0x41F JUMP JUMPDEST CODESIZE PUSH2 0xE3 JUMP JUMPDEST SWAP1 SWAP2 POP DUP2 SWAP1 PUSH2 0x357 JUMP JUMPDEST PUSH1 0x40 MLOAD PUSH3 0x461BCD PUSH1 0xE5 SHL DUP2 MSTORE PUSH1 0x20 PUSH1 0x4 DUP3 ADD MSTORE PUSH1 0xA PUSH1 0x24 DUP3 ADD MSTORE PUSH10 0x456D7074792064617461 PUSH1 0xB0 SHL PUSH1 0x44 DUP3 ADD MSTORE PUSH1 0x64 SWAP1 REVERT JUMPDEST DUP1 PUSH1 0x20 DUP1 SWAP3 DUP5 ADD ADD MLOAD DUP3 DUP3 DUP9 ADD ADD MSTORE ADD PUSH2 0x94 JUMP JUMPDEST PUSH1 0x0 DUP1 REVERT JUMPDEST PUSH1 0x40 MLOAD SWAP2 SWAP1 PUSH1 0x1F ADD PUSH1 0x1F NOT AND DUP3 ADD PUSH1 0x1 PUSH1 0x1 PUSH1 0x40 SHL SUB DUP2 GT DUP4 DUP3 LT OR PUSH2 0x294 JUMPI PUSH1 0x40 MSTORE JUMP JUMPDEST SWAP1 PUSH1 0x1 DUP3 DUP2 SHR SWAP3 AND DUP1 ISZERO PUSH2 0x415 JUMPI JUMPDEST PUSH1 0x20 DUP4 LT EQ PUSH2 0x3FF JUMPI JUMP JUMPDEST PUSH4 0x4E487B71 PUSH1 0xE0 SHL PUSH1 0x0 MSTORE PUSH1 0x22 PUSH1 0x4 MSTORE PUSH1 0x24 PUSH1 0x0 REVERT JUMPDEST SWAP2 PUSH1 0x7F AND SWAP2 PUSH2 0x3F4 JUMP JUMPDEST DUP2 DUP2 LT PUSH2 0x42A JUMPI POP POP JUMP JUMPDEST PUSH1 0x0 DUP2 SSTORE PUSH1 0x1 ADD PUSH2 0x41F JUMP INVALID PUSH1 0x80 DUP1 PUSH1 0x40 MSTORE PUSH1 0x4 CALLDATASIZE LT ISZERO PUSH2 0x13 JUMPI PUSH1 0x0 DUP1 REVERT JUMPDEST PUSH1 0x0 CALLDATALOAD PUSH1 0xE0 SHR SWAP1 DUP2 PUSH4 0x2D05D3F EQ PUSH2 0x20FD JUMPI POP DUP1 PUSH4 0x40023D6 EQ PUSH2 0x1F58 JUMPI DUP1 PUSH4 0xEE2CB10 EQ PUSH2 0x1F2F JUMPI DUP1 PUSH4 0x10218F4D EQ PUSH2 0x1E08 JUMPI DUP1 PUSH4 0x195EC9EE EQ PUSH2 0x1BFD JUMPI DUP1 PUSH4 0x1AF9FD17 EQ PUSH2 0x1B56 JUMPI DUP1 PUSH4 0x211A85E6 EQ PUSH2 0x16DC JUMPI DUP1 PUSH4 0x22F3E2D4 EQ PUSH2 0x22F JUMPI DUP1 PUSH4 0x2B17B8BE EQ PUSH2 0x16A5 JUMPI DUP1 PUSH4 0x3197CBB6 EQ PUSH2 0x1687 JUMPI DUP1 PUSH4 0x32C6AFD0 EQ PUSH2 0x1613 JUMPI DUP1 PUSH4 0x35C1D349 EQ PUSH2 0x15EA JUMPI DUP1 PUSH4 0x383E1A5E EQ PUSH2 0x1587 JUMPI DUP1 PUSH4 0x43862D23 EQ PUSH2 0x156B JUMPI DUP1 PUSH4 0x4A79D50C EQ PUSH2 0x154F JUMPI DUP1 PUSH4 0x55B31B55 EQ PUSH2 0xF7F JUMPI DUP1 PUSH4 0x58F43F76 EQ PUSH2 0x1505 JUMPI DUP1 PUSH4 0x59ABBFE4 EQ PUSH2 0x14E0 JUMPI DUP1 PUSH4 0x5CF5A058 EQ PUSH2 0xBAC JUMPI DUP1 PUSH4 0x5E1A6C17 EQ PUSH2 0x14B7 JUMPI DUP1 PUSH4 0x7284E416 EQ PUSH2 0x149B JUMPI DUP1 PUSH4 0x728F1112 EQ PUSH2 0x13DA JUMPI DUP1 PUSH4 0x7847F1DE EQ PUSH2 0x11FA JUMPI DUP1 PUSH4 0x78E97925 EQ PUSH2 0x11DC JUMPI DUP1 PUSH4 0x79EC4F19 EQ PUSH2 0x1165 JUMPI DUP1 PUSH4 0x84958FC3 EQ PUSH2 0xF9B JUMPI DUP1 PUSH4 0x9C0768B3 EQ PUSH2 0xF7F JUMPI DUP1 PUSH4 0xAB34C9E9 EQ PUSH2 0xF45 JUMPI DUP1 PUSH4 0xB5686479 EQ PUSH2 0xEAB JUMPI DUP1 PUSH4 0xB70825DC EQ PUSH2 0xE69 JUMPI DUP1 PUSH4 0xB9BE92F9 EQ PUSH2 0xC8E JUMPI DUP1 PUSH4 0xBBFFD04C EQ PUSH2 0xBE6 JUMPI DUP1 PUSH4 0xC2E4FE5A EQ PUSH2 0xBAC JUMPI DUP1 PUSH4 0xC2FC0D26 EQ PUSH2 0xB90 JUMPI DUP1 PUSH4 0xC3FEDA17 EQ PUSH2 0xAE1 JUMPI DUP1 PUSH4 0xC47D1724 EQ PUSH2 0x570 JUMPI DUP1 PUSH4 0xC4B192F7 EQ PUSH2 0x946 JUMPI DUP1 PUSH4 0xC6765D28 EQ PUSH2 0x77A JUMPI DUP1 PUSH4 0xCF09E0D0 EQ PUSH2 0x75C JUMPI DUP1 PUSH4 0xD64C58A7 EQ PUSH2 0x722 JUMPI DUP1 PUSH4 0xDFAFE10F EQ PUSH2 0x6A1 JUMPI DUP1 PUSH4 0xDFB748AA EQ PUSH2 0x5E5 JUMPI DUP1 PUSH4 0xE7AA3AFC EQ PUSH2 0x5A0 JUMPI DUP1 PUSH4 0xE807C0B2 EQ PUSH2 0x570 JUMPI DUP1 PUSH4 0xEF213106 EQ PUSH2 0x507 JUMPI DUP1 PUSH4 0xF7267CFD EQ PUSH2 0x4E9 JUMPI DUP1 PUSH4 0xF75EADE0 EQ PUSH2 0x25A JUMPI PUSH4 0xFBA7CC79 EQ PUSH2 0x22F JUMPI PUSH1 0x0 DUP1 REVERT JUMPDEST CALLVALUE PUSH2 0x255 JUMPI PUSH1 0x0 CALLDATASIZE PUSH1 0x3 NOT ADD SLT PUSH2 0x255 JUMPI PUSH1 0x20 PUSH1 0xFF PUSH1 0x0 SLOAD PUSH1 0xA0 SHR AND PUSH1 0x40 MLOAD SWAP1 ISZERO ISZERO DUP2 MSTORE RETURN JUMPDEST PUSH1 0x0 DUP1 REVERT JUMPDEST CALLVALUE PUSH2 0x255 JUMPI PUSH1 0x40 CALLDATASIZE PUSH1 0x3 NOT ADD SLT PUSH2 0x255 JUMPI PUSH2 0x273 PUSH2 0x2121 JUMP JUMPDEST PUSH1 0x24 CALLDATALOAD PUSH1 0x1 PUSH1 0x1 PUSH1 0x40 SHL SUB DUP2 GT PUSH2 0x255 JUMPI PUSH2 0x292 SWAP1 CALLDATASIZE SWAP1 PUSH1 0x4 ADD PUSH2 0x2175 JUMP JUMPDEST PUSH1 0x0 SLOAD SWAP1 SWAP2 PUSH1 0x1 PUSH1 0x1 PUSH1 0xA0 SHL SUB DUP3 AND SWAP2 PUSH2 0x2BD SWAP1 PUSH1 0xFF SWAP1 PUSH2 0x2B4 CALLER DUP7 EQ PUSH2 0x2766 JUMP JUMPDEST PUSH1 0xA0 SHR AND PUSH2 0x27DA JUMP JUMPDEST PUSH1 0x1 PUSH1 0x1 PUSH1 0xA0 SHL SUB AND SWAP1 DUP2 ISZERO PUSH2 0x4AA JUMPI DUP2 EQ PUSH2 0x46D JUMPI DUP1 PUSH1 0x0 MSTORE PUSH1 0xC PUSH1 0x20 MSTORE PUSH1 0xFF PUSH1 0x3 PUSH1 0x40 PUSH1 0x0 KECCAK256 ADD SLOAD AND PUSH2 0x42C JUMPI PUSH2 0x2F8 DUP3 MLOAD ISZERO ISZERO PUSH2 0x27A1 JUMP JUMPDEST DUP1 PUSH1 0x0 MSTORE PUSH1 0x10 PUSH1 0x20 MSTORE PUSH2 0x318 PUSH2 0x312 PUSH1 0x40 PUSH1 0x0 KECCAK256 SLOAD PUSH2 0x2338 JUMP JUMPDEST ISZERO PUSH2 0x29C5 JUMP JUMPDEST PUSH2 0x350 PUSH1 0x40 MLOAD PUSH2 0x327 DUP2 PUSH2 0x2137 JUMP JUMPDEST DUP3 DUP2 MSTORE DUP4 PUSH1 0x20 DUP3 ADD MSTORE TIMESTAMP PUSH1 0x40 DUP3 ADD MSTORE PUSH1 0x1 PUSH1 0x60 DUP3 ADD MSTORE DUP3 PUSH1 0x0 MSTORE PUSH1 0xC PUSH1 0x20 MSTORE PUSH1 0x40 PUSH1 0x0 KECCAK256 PUSH2 0x2A07 JUMP JUMPDEST PUSH1 0x0 DUP1 PUSH1 0xE SLOAD SWAP1 JUMPDEST DUP2 DUP2 LT PUSH2 0x3F7 JUMPI JUMPDEST POP POP ISZERO PUSH2 0x39F JUMPI JUMPDEST PUSH32 0x7501885E0E140E0232EED19016A41BDE16B8DE699D11E7A461F88D6BA58A9CD PUSH1 0x40 MLOAD DUP1 PUSH2 0x39A CALLER SWAP6 TIMESTAMP SWAP1 DUP4 PUSH2 0x2B8A JUMP JUMPDEST SUB SWAP1 LOG3 STOP JUMPDEST PUSH1 0xE SLOAD PUSH1 0x1 PUSH1 0x40 SHL DUP2 LT ISZERO PUSH2 0x3E1 JUMPI DUP1 PUSH1 0x1 PUSH2 0x3C0 SWAP3 ADD PUSH1 0xE SSTORE PUSH1 0xE PUSH2 0x2320 JUMP JUMPDEST DUP2 SLOAD PUSH1 0x1 PUSH1 0x1 PUSH1 0xA0 SHL SUB PUSH1 0x3 SWAP3 SWAP1 SWAP3 SHL SWAP2 DUP3 SHL NOT AND SWAP1 DUP4 SWAP1 SHL OR SWAP1 SSTORE PUSH2 0x368 JUMP JUMPDEST PUSH4 0x4E487B71 PUSH1 0xE0 SHL PUSH1 0x0 MSTORE PUSH1 0x41 PUSH1 0x4 MSTORE PUSH1 0x24 PUSH1 0x0 REVERT JUMPDEST DUP4 PUSH2 0x401 DUP3 PUSH2 0x2305 JUMP JUMPDEST SWAP1 SLOAD PUSH1 0x3 SWAP2 SWAP1 SWAP2 SHL SHR PUSH1 0x1 PUSH1 0x1 PUSH1 0xA0 SHL SUB AND EQ PUSH2 0x420 JUMPI PUSH1 0x1 ADD PUSH2 0x358 JUMP JUMPDEST POP POP POP PUSH1 0x1 DUP4 DUP1 PUSH2 0x360 JUMP JUMPDEST PUSH1 0x40 MLOAD PUSH3 0x461BCD PUSH1 0xE5 SHL DUP2 MSTORE PUSH1 0x20 PUSH1 0x4 DUP3 ADD MSTORE PUSH1 0x19 PUSH1 0x24 DUP3 ADD MSTORE PUSH25 0x496E7669746174696F6E20616C726561647920657869737473 PUSH1 0x38 SHL PUSH1 0x44 DUP3 ADD MSTORE PUSH1 0x64 SWAP1 REVERT JUMPDEST PUSH1 0x40 MLOAD PUSH3 0x461BCD PUSH1 0xE5 SHL DUP2 MSTORE PUSH1 0x20 PUSH1 0x4 DUP3 ADD MSTORE PUSH1 0x15 PUSH1 0x24 DUP3 ADD MSTORE PUSH21 0x21B0B73737BA1034B73B34BA329031B932B0BA37B9 PUSH1 0x59 SHL PUSH1 0x44 DUP3 ADD MSTORE PUSH1 0x64 SWAP1 REVERT JUMPDEST PUSH1 0x40 MLOAD PUSH3 0x461BCD PUSH1 0xE5 SHL DUP2 MSTORE PUSH1 0x20 PUSH1 0x4 DUP3 ADD MSTORE PUSH1 0x17 PUSH1 0x24 DUP3 ADD MSTORE PUSH23 0x496E76616C696420696E76697465652061646472657373 PUSH1 0x48 SHL PUSH1 0x44 DUP3 ADD MSTORE PUSH1 0x64 SWAP1 REVERT JUMPDEST CALLVALUE PUSH2 0x255 JUMPI PUSH1 0x0 CALLDATASIZE PUSH1 0x3 NOT ADD SLT PUSH2 0x255 JUMPI PUSH1 0x20 PUSH1 0x2 SLOAD PUSH1 0x40 MLOAD SWAP1 DUP2 MSTORE RETURN JUMPDEST CALLVALUE PUSH2 0x255 JUMPI PUSH1 0x20 CALLDATASIZE PUSH1 0x3 NOT ADD SLT PUSH2 0x255 JUMPI PUSH1 0x1 PUSH1 0x1 PUSH1 0xA0 SHL SUB PUSH2 0x528 PUSH2 0x2121 JUMP JUMPDEST AND PUSH1 0x0 SWAP1 DUP2 MSTORE PUSH1 0xB PUSH1 0x20 MSTORE PUSH1 0x40 SWAP1 KECCAK256 DUP1 SLOAD PUSH1 0x1 PUSH1 0x1 PUSH1 0xA0 SHL SUB AND PUSH2 0x56C PUSH2 0x551 PUSH1 0x1 DUP5 ADD PUSH2 0x26C4 JUMP JUMPDEST SWAP3 PUSH1 0xFF PUSH1 0x3 PUSH1 0x2 DUP4 ADD SLOAD SWAP3 ADD SLOAD AND SWAP1 PUSH1 0x40 MLOAD SWAP5 DUP6 SWAP5 DUP6 PUSH2 0x2286 JUMP JUMPDEST SUB SWAP1 RETURN JUMPDEST CALLVALUE PUSH2 0x255 JUMPI PUSH1 0x0 CALLDATASIZE PUSH1 0x3 NOT ADD SLT PUSH2 0x255 JUMPI PUSH2 0x56C PUSH2 0x58C PUSH2 0x263F JUMP JUMPDEST PUSH1 0x40 MLOAD SWAP2 DUP3 SWAP2 PUSH1 0x20 DUP4 MSTORE PUSH1 0x20 DUP4 ADD SWAP1 PUSH2 0x2211 JUMP JUMPDEST CALLVALUE PUSH2 0x255 JUMPI PUSH1 0x0 CALLDATASIZE PUSH1 0x3 NOT ADD SLT PUSH2 0x255 JUMPI PUSH1 0x80 PUSH1 0x0 SLOAD PUSH1 0x1 SLOAD SWAP1 PUSH1 0x2 SLOAD PUSH1 0x40 MLOAD SWAP3 PUSH1 0xFF DUP4 PUSH1 0xA0 SHR AND ISZERO ISZERO DUP5 MSTORE PUSH1 0x20 DUP5 ADD MSTORE PUSH1 0x40 DUP4 ADD MSTORE PUSH1 0x1 DUP1 PUSH1 0xA0 SHL SUB AND PUSH1 0x60 DUP3 ADD MSTORE RETURN JUMPDEST CALLVALUE PUSH2 0x255 JUMPI PUSH1 0x20 CALLDATASIZE PUSH1 0x3 NOT ADD SLT PUSH2 0x255 JUMPI PUSH2 0x5FE PUSH2 0x2121 JUMP JUMPDEST PUSH2 0x613 PUSH1 0x1 DUP1 PUSH1 0xA0 SHL SUB PUSH1 0x0 SLOAD AND CALLER EQ PUSH2 0x2766 JUMP JUMPDEST PUSH2 0x65C PUSH1 0x1 DUP1 PUSH1 0xA0 SHL SUB DUP3 AND SWAP2 DUP3 PUSH1 0x0 MSTORE PUSH1 0xB PUSH1 0x20 MSTORE PUSH2 0x63D PUSH1 0xFF PUSH1 0x3 PUSH1 0x40 PUSH1 0x0 KECCAK256 ADD SLOAD AND PUSH2 0x2BA6 JUMP JUMPDEST DUP3 PUSH1 0x0 MSTORE PUSH1 0xB PUSH1 0x20 MSTORE PUSH2 0x656 PUSH1 0x1 PUSH1 0x40 PUSH1 0x0 KECCAK256 ADD PUSH2 0x26C4 JUMP JUMPDEST SWAP1 PUSH2 0x2C25 JUMP JUMPDEST DUP1 PUSH1 0x0 MSTORE PUSH1 0xB PUSH1 0x20 MSTORE PUSH2 0x672 PUSH1 0x40 PUSH1 0x0 KECCAK256 PUSH2 0x2959 JUMP JUMPDEST PUSH1 0x40 MLOAD SWAP1 TIMESTAMP DUP3 MSTORE PUSH32 0x423EB00B6A18C3ECFC2170A0E40EF0BAD995279070614BA2E4BE1B94F67EB888 PUSH1 0x20 CALLER SWAP4 LOG3 STOP JUMPDEST CALLVALUE PUSH2 0x255 JUMPI PUSH1 0x20 CALLDATASIZE PUSH1 0x3 NOT ADD SLT PUSH2 0x255 JUMPI PUSH2 0x720 PUSH2 0x6BD PUSH2 0x2121 JUMP JUMPDEST PUSH2 0x6D2 PUSH1 0x1 DUP1 PUSH1 0xA0 SHL SUB PUSH1 0x0 SLOAD AND CALLER EQ PUSH2 0x2766 JUMP JUMPDEST PUSH1 0x1 DUP1 PUSH1 0xA0 SHL SUB DUP2 AND PUSH1 0x0 MSTORE PUSH1 0x10 PUSH1 0x20 MSTORE PUSH2 0x6F4 PUSH2 0x312 PUSH1 0x40 PUSH1 0x0 KECCAK256 SLOAD PUSH2 0x2338 JUMP JUMPDEST PUSH1 0x40 MLOAD SWAP1 PUSH2 0x703 PUSH1 0x40 DUP4 PUSH2 0x2152 JUMP JUMPDEST PUSH1 0xB DUP3 MSTORE PUSH11 0x31B7B73A3934B13ABA37B9 PUSH1 0xA9 SHL PUSH1 0x20 DUP4 ADD MSTORE PUSH2 0x2C25 JUMP JUMPDEST STOP JUMPDEST CALLVALUE PUSH2 0x255 JUMPI PUSH1 0x20 CALLDATASIZE PUSH1 0x3 NOT ADD SLT PUSH2 0x255 JUMPI PUSH1 0x1 PUSH1 0x1 PUSH1 0xA0 SHL SUB PUSH2 0x743 PUSH2 0x2121 JUMP JUMPDEST AND PUSH1 0x0 MSTORE PUSH1 0x11 PUSH1 0x20 MSTORE PUSH1 0x20 PUSH1 0x40 PUSH1 0x0 KECCAK256 SLOAD PUSH1 0x40 MLOAD SWAP1 DUP2 MSTORE RETURN JUMPDEST CALLVALUE PUSH2 0x255 JUMPI PUSH1 0x0 CALLDATASIZE PUSH1 0x3 NOT ADD SLT PUSH2 0x255 JUMPI PUSH1 0x20 PUSH1 0x1 SLOAD PUSH1 0x40 MLOAD SWAP1 DUP2 MSTORE RETURN JUMPDEST CALLVALUE PUSH2 0x255 JUMPI PUSH1 0x20 CALLDATASIZE PUSH1 0x3 NOT ADD SLT PUSH2 0x255 JUMPI PUSH1 0x4 CALLDATALOAD PUSH1 0x1 PUSH1 0x1 PUSH1 0x40 SHL SUB DUP2 GT PUSH2 0x255 JUMPI PUSH2 0x7AA SWAP1 CALLDATASIZE SWAP1 PUSH1 0x4 ADD PUSH2 0x2175 JUMP JUMPDEST PUSH2 0x7BB PUSH1 0xFF PUSH1 0x0 SLOAD PUSH1 0xA0 SHR AND PUSH2 0x27DA JUMP JUMPDEST PUSH2 0x7C7 DUP2 MLOAD ISZERO ISZERO PUSH2 0x2811 JUMP JUMPDEST CALLER PUSH1 0x0 MSTORE PUSH1 0x10 PUSH1 0x20 MSTORE PUSH2 0x7DE PUSH1 0x40 PUSH1 0x0 KECCAK256 SLOAD PUSH2 0x2338 JUMP JUMPDEST ISZERO PUSH2 0x905 JUMPI DUP1 MLOAD PUSH1 0x1 PUSH1 0x1 PUSH1 0x40 SHL SUB DUP2 GT PUSH2 0x3E1 JUMPI PUSH2 0x7FE PUSH1 0x3 SLOAD PUSH2 0x2338 JUMP JUMPDEST PUSH1 0x1F DUP2 GT PUSH2 0x8BD JUMPI JUMPDEST POP PUSH1 0x20 SWAP2 PUSH1 0x1F DUP3 GT PUSH1 0x1 EQ PUSH2 0x859 JUMPI PUSH2 0x82A SWAP3 PUSH1 0x0 SWAP2 DUP4 PUSH2 0x84E JUMPI JUMPDEST POP POP PUSH2 0x2861 JUMP JUMPDEST PUSH1 0x3 SSTORE JUMPDEST TIMESTAMP PUSH1 0x2 SSTORE PUSH1 0x40 MLOAD TIMESTAMP DUP2 MSTORE PUSH1 0x0 DUP1 MLOAD PUSH1 0x20 PUSH2 0x2DD7 DUP4 CODECOPY DUP2 MLOAD SWAP2 MSTORE PUSH1 0x20 CALLER SWAP3 LOG2 STOP JUMPDEST ADD MLOAD SWAP1 POP DUP4 DUP1 PUSH2 0x823 JUMP JUMPDEST PUSH1 0x1F NOT DUP3 AND SWAP3 PUSH1 0x3 PUSH1 0x0 MSTORE DUP1 PUSH1 0x0 KECCAK256 SWAP2 PUSH1 0x0 JUMPDEST DUP6 DUP2 LT PUSH2 0x8A5 JUMPI POP DUP4 PUSH1 0x1 SWAP6 LT PUSH2 0x88C JUMPI JUMPDEST POP POP POP DUP2 SHL ADD PUSH1 0x3 SSTORE PUSH2 0x82E JUMP JUMPDEST ADD MLOAD PUSH1 0x0 NOT PUSH1 0xF8 DUP5 PUSH1 0x3 SHL AND SHR NOT AND SWAP1 SSTORE DUP3 DUP1 DUP1 PUSH2 0x87E JUMP JUMPDEST SWAP2 SWAP3 PUSH1 0x20 PUSH1 0x1 DUP2 SWAP3 DUP7 DUP6 ADD MLOAD DUP2 SSTORE ADD SWAP5 ADD SWAP3 ADD PUSH2 0x86C JUMP JUMPDEST PUSH1 0x3 PUSH1 0x0 MSTORE PUSH2 0x8F5 SWAP1 PUSH1 0x0 DUP1 MLOAD PUSH1 0x20 PUSH2 0x2DB7 DUP4 CODECOPY DUP2 MLOAD SWAP2 MSTORE PUSH1 0x1F DUP5 ADD PUSH1 0x5 SHR DUP2 ADD SWAP2 PUSH1 0x20 DUP6 LT PUSH2 0x8FB JUMPI JUMPDEST PUSH1 0x1F ADD PUSH1 0x5 SHR ADD SWAP1 PUSH2 0x284A JUMP JUMPDEST DUP3 PUSH2 0x807 JUMP JUMPDEST SWAP1 SWAP2 POP DUP2 SWAP1 PUSH2 0x8E8 JUMP JUMPDEST PUSH1 0x40 MLOAD PUSH3 0x461BCD PUSH1 0xE5 SHL DUP2 MSTORE PUSH1 0x20 PUSH1 0x4 DUP3 ADD MSTORE PUSH1 0x19 PUSH1 0x24 DUP3 ADD MSTORE PUSH25 0x139BDD0818481C1C9BDA9958DD081C185C9D1A58DA5C185B9D PUSH1 0x3A SHL PUSH1 0x44 DUP3 ADD MSTORE PUSH1 0x64 SWAP1 REVERT JUMPDEST CALLVALUE PUSH2 0x255 JUMPI PUSH1 0x20 CALLDATASIZE PUSH1 0x3 NOT ADD SLT PUSH2 0x255 JUMPI PUSH1 0x4 CALLDATALOAD PUSH1 0x1 PUSH1 0x1 PUSH1 0x40 SHL SUB DUP2 GT PUSH2 0x255 JUMPI PUSH2 0x976 SWAP1 CALLDATASIZE SWAP1 PUSH1 0x4 ADD PUSH2 0x2175 JUMP JUMPDEST PUSH2 0x98B PUSH1 0x1 DUP1 PUSH1 0xA0 SHL SUB PUSH1 0x0 SLOAD AND CALLER EQ PUSH2 0x2766 JUMP JUMPDEST DUP1 MLOAD ISZERO PUSH2 0xA9C JUMPI DUP1 MLOAD PUSH1 0x1 PUSH1 0x1 PUSH1 0x40 SHL SUB DUP2 GT PUSH2 0x3E1 JUMPI PUSH2 0x9AD PUSH1 0x7 SLOAD PUSH2 0x2338 JUMP JUMPDEST PUSH1 0x1F DUP2 GT PUSH2 0xA5F JUMPI JUMPDEST POP PUSH1 0x20 SWAP2 PUSH1 0x1F DUP3 GT PUSH1 0x1 EQ PUSH2 0x9FB JUMPI PUSH2 0x9D8 SWAP3 PUSH1 0x0 SWAP2 DUP4 PUSH2 0x84E JUMPI POP POP PUSH2 0x2861 JUMP JUMPDEST PUSH1 0x7 SSTORE TIMESTAMP PUSH1 0x2 SSTORE PUSH1 0x40 MLOAD TIMESTAMP DUP2 MSTORE PUSH1 0x0 DUP1 MLOAD PUSH1 0x20 PUSH2 0x2DD7 DUP4 CODECOPY DUP2 MLOAD SWAP2 MSTORE PUSH1 0x20 CALLER SWAP3 LOG2 STOP JUMPDEST PUSH1 0x1F NOT DUP3 AND SWAP3 PUSH1 0x7 PUSH1 0x0 MSTORE DUP1 PUSH1 0x0 KECCAK256 SWAP2 PUSH1 0x0 JUMPDEST DUP6 DUP2 LT PUSH2 0xA47 JUMPI POP DUP4 PUSH1 0x1 SWAP6 LT PUSH2 0xA2E JUMPI JUMPDEST POP POP POP DUP2 SHL ADD PUSH1 0x7 SSTORE PUSH2 0x82E JUMP JUMPDEST ADD MLOAD PUSH1 0x0 NOT PUSH1 0xF8 DUP5 PUSH1 0x3 SHL AND SHR NOT AND SWAP1 SSTORE DUP3 DUP1 DUP1 PUSH2 0xA20 JUMP JUMPDEST SWAP2 SWAP3 PUSH1 0x20 PUSH1 0x1 DUP2 SWAP3 DUP7 DUP6 ADD MLOAD DUP2 SSTORE ADD SWAP5 ADD SWAP3 ADD PUSH2 0xA0E JUMP JUMPDEST PUSH1 0x7 PUSH1 0x0 MSTORE PUSH2 0xA96 SWAP1 PUSH1 0x0 DUP1 MLOAD PUSH1 0x20 PUSH2 0x2DF7 DUP4 CODECOPY DUP2 MLOAD SWAP2 MSTORE PUSH1 0x1F DUP5 ADD PUSH1 0x5 SHR DUP2 ADD SWAP2 PUSH1 0x20 DUP6 LT PUSH2 0x8FB JUMPI PUSH1 0x1F ADD PUSH1 0x5 SHR ADD SWAP1 PUSH2 0x284A JUMP JUMPDEST DUP3 PUSH2 0x9B6 JUMP JUMPDEST PUSH1 0x40 MLOAD PUSH3 0x461BCD PUSH1 0xE5 SHL DUP2 MSTORE PUSH1 0x20 PUSH1 0x4 DUP3 ADD MSTORE PUSH1 0x1D PUSH1 0x24 DUP3 ADD MSTORE PUSH32 0x524F2D437261746520686173682063616E6E6F7420626520656D707479000000 PUSH1 0x44 DUP3 ADD MSTORE PUSH1 0x64 SWAP1 REVERT JUMPDEST CALLVALUE PUSH2 0x255 JUMPI PUSH1 0x0 CALLDATASIZE PUSH1 0x3 NOT ADD SLT PUSH2 0x255 JUMPI PUSH1 0x0 SLOAD PUSH2 0xB09 CALLER PUSH1 0x1 PUSH1 0x1 PUSH1 0xA0 SHL SUB DUP4 AND EQ PUSH2 0x2766 JUMP JUMPDEST PUSH1 0xFF DUP2 PUSH1 0xA0 SHR AND PUSH2 0xB5A JUMPI PUSH1 0xFF PUSH1 0xA0 SHL NOT AND PUSH1 0x1 PUSH1 0xA0 SHL OR PUSH1 0x0 SSTORE TIMESTAMP PUSH1 0x2 DUP2 SWAP1 SSTORE PUSH1 0x40 MLOAD SWAP1 DUP2 MSTORE CALLER SWAP1 PUSH32 0xB351BA71DDC1D2BF39667CEBDE99FB92EB26B9F418D5049BA0200888BA810715 SWAP1 PUSH1 0x20 SWAP1 LOG2 STOP JUMPDEST PUSH1 0x40 MLOAD PUSH3 0x461BCD PUSH1 0xE5 SHL DUP2 MSTORE PUSH1 0x20 PUSH1 0x4 DUP3 ADD MSTORE PUSH1 0xE PUSH1 0x24 DUP3 ADD MSTORE PUSH14 0x416C726561647920616374697665 PUSH1 0x90 SHL PUSH1 0x44 DUP3 ADD MSTORE PUSH1 0x64 SWAP1 REVERT JUMPDEST CALLVALUE PUSH2 0x255 JUMPI PUSH1 0x0 CALLDATASIZE PUSH1 0x3 NOT ADD SLT PUSH2 0x255 JUMPI PUSH2 0x56C PUSH2 0x58C PUSH2 0x24B0 JUMP JUMPDEST CALLVALUE PUSH2 0x255 JUMPI PUSH1 0x20 CALLDATASIZE PUSH1 0x3 NOT ADD SLT PUSH2 0x255 JUMPI PUSH1 0x1 PUSH1 0x1 PUSH1 0xA0 SHL SUB PUSH2 0xBCD PUSH2 0x2121 JUMP JUMPDEST AND PUSH1 0x0 MSTORE PUSH1 0x10 PUSH1 0x20 MSTORE PUSH2 0x56C PUSH2 0x58C PUSH1 0x40 PUSH1 0x0 KECCAK256 PUSH2 0x26C4 JUMP JUMPDEST CALLVALUE PUSH2 0x255 JUMPI PUSH1 0x0 CALLDATASIZE PUSH1 0x3 NOT ADD SLT PUSH2 0x255 JUMPI PUSH1 0x0 SLOAD PUSH2 0xC0E CALLER PUSH1 0x1 PUSH1 0x1 PUSH1 0xA0 SHL SUB DUP4 AND EQ PUSH2 0x2766 JUMP JUMPDEST PUSH1 0xFF DUP2 PUSH1 0xA0 SHR AND ISZERO PUSH2 0xC56 JUMPI PUSH1 0xFF PUSH1 0xA0 SHL NOT AND PUSH1 0x0 SSTORE TIMESTAMP PUSH1 0x2 SSTORE PUSH1 0x40 MLOAD TIMESTAMP DUP2 MSTORE PUSH32 0x17064D72EE4A5901E55DFA45024EA8F67CDB4895BA6364AB2F8E7223F642AD36 PUSH1 0x20 CALLER SWAP3 LOG2 STOP JUMPDEST PUSH1 0x40 MLOAD PUSH3 0x461BCD PUSH1 0xE5 SHL DUP2 MSTORE PUSH1 0x20 PUSH1 0x4 DUP3 ADD MSTORE PUSH1 0x10 PUSH1 0x24 DUP3 ADD MSTORE PUSH16 0x416C726561647920696E616374697665 PUSH1 0x80 SHL PUSH1 0x44 DUP3 ADD MSTORE PUSH1 0x64 SWAP1 REVERT JUMPDEST CALLVALUE PUSH2 0x255 JUMPI PUSH2 0xC9C CALLDATASIZE PUSH2 0x21CB JUMP JUMPDEST SWAP1 SWAP2 PUSH2 0xCB3 PUSH1 0x1 DUP1 PUSH1 0xA0 SHL SUB PUSH1 0x0 SLOAD AND CALLER EQ PUSH2 0x2766 JUMP JUMPDEST PUSH1 0x1 DUP1 PUSH1 0xA0 SHL SUB AND SWAP1 DUP2 PUSH1 0x0 MSTORE PUSH1 0x10 PUSH1 0x20 MSTORE PUSH2 0xCD3 PUSH1 0x40 PUSH1 0x0 KECCAK256 SLOAD PUSH2 0x2338 JUMP JUMPDEST ISZERO PUSH2 0xE30 JUMPI PUSH2 0xCE4 DUP4 MLOAD ISZERO ISZERO PUSH2 0x27A1 JUMP JUMPDEST PUSH2 0xCEF DUP2 ISZERO ISZERO PUSH2 0x2BDF JUMP JUMPDEST PUSH1 0x0 DUP3 DUP2 MSTORE PUSH1 0x10 PUSH1 0x20 MSTORE PUSH1 0x40 SWAP1 KECCAK256 DUP4 MLOAD SWAP4 SWAP1 PUSH1 0x1 PUSH1 0x1 PUSH1 0x40 SHL SUB DUP6 GT PUSH2 0x3E1 JUMPI PUSH2 0xD19 DUP2 SLOAD PUSH2 0x2338 JUMP JUMPDEST PUSH1 0x1F DUP2 GT PUSH2 0xDFE JUMPI JUMPDEST POP PUSH1 0x20 PUSH1 0x1F DUP7 GT PUSH1 0x1 EQ PUSH2 0xD8A JUMPI DUP6 PUSH1 0x0 DUP1 MLOAD PUSH1 0x20 PUSH2 0x2E97 DUP4 CODECOPY DUP2 MLOAD SWAP2 MSTORE SWAP6 SWAP7 PUSH2 0xD54 SWAP3 PUSH1 0x0 SWAP2 PUSH2 0xD7F JUMPI JUMPDEST POP PUSH2 0x2861 JUMP JUMPDEST SWAP1 SSTORE JUMPDEST DUP4 PUSH1 0x0 MSTORE PUSH1 0x11 PUSH1 0x20 MSTORE DUP2 PUSH1 0x40 PUSH1 0x0 KECCAK256 SSTORE TIMESTAMP PUSH1 0x2 SSTORE PUSH2 0xD7A PUSH1 0x40 MLOAD SWAP3 DUP4 SWAP3 DUP4 PUSH2 0x2B8A JUMP JUMPDEST SUB SWAP1 LOG2 STOP JUMPDEST SWAP1 POP DUP5 ADD MLOAD DUP9 PUSH2 0xD4E JUMP JUMPDEST PUSH1 0x1F NOT DUP7 AND SWAP1 DUP3 PUSH1 0x0 MSTORE DUP1 PUSH1 0x0 KECCAK256 SWAP2 PUSH1 0x0 JUMPDEST DUP2 DUP2 LT PUSH2 0xDE6 JUMPI POP SWAP2 DUP8 SWAP2 PUSH1 0x0 DUP1 MLOAD PUSH1 0x20 PUSH2 0x2E97 DUP4 CODECOPY DUP2 MLOAD SWAP2 MSTORE SWAP8 SWAP9 PUSH1 0x1 SWAP5 LT PUSH2 0xDCD JUMPI JUMPDEST POP POP DUP2 SHL ADD SWAP1 SSTORE PUSH2 0xD57 JUMP JUMPDEST DUP6 ADD MLOAD PUSH1 0x0 NOT PUSH1 0xF8 DUP5 PUSH1 0x3 SHL AND SHR NOT AND SWAP1 SSTORE DUP8 DUP1 PUSH2 0xDC1 JUMP JUMPDEST SWAP2 SWAP3 PUSH1 0x20 PUSH1 0x1 DUP2 SWAP3 DUP7 DUP10 ADD MLOAD DUP2 SSTORE ADD SWAP5 ADD SWAP3 ADD PUSH2 0xD9C JUMP JUMPDEST PUSH2 0xE2A SWAP1 DUP3 PUSH1 0x0 MSTORE PUSH1 0x20 PUSH1 0x0 KECCAK256 PUSH1 0x1F DUP9 ADD PUSH1 0x5 SHR DUP2 ADD SWAP2 PUSH1 0x20 DUP10 LT PUSH2 0x8FB JUMPI PUSH1 0x1F ADD PUSH1 0x5 SHR ADD SWAP1 PUSH2 0x284A JUMP JUMPDEST DUP6 PUSH2 0xD22 JUMP JUMPDEST PUSH1 0x40 MLOAD PUSH3 0x461BCD PUSH1 0xE5 SHL DUP2 MSTORE PUSH1 0x20 PUSH1 0x4 DUP3 ADD MSTORE PUSH1 0x11 PUSH1 0x24 DUP3 ADD MSTORE PUSH17 0x139BDD0818481C185C9D1A58DA5C185B9D PUSH1 0x7A SHL PUSH1 0x44 DUP3 ADD MSTORE PUSH1 0x64 SWAP1 REVERT JUMPDEST CALLVALUE PUSH2 0x255 JUMPI PUSH1 0x20 CALLDATASIZE PUSH1 0x3 NOT ADD SLT PUSH2 0x255 JUMPI PUSH1 0x4 CALLDATALOAD PUSH1 0xE SLOAD DUP2 LT ISZERO PUSH2 0x255 JUMPI PUSH2 0xE92 PUSH1 0x20 SWAP2 PUSH2 0x2305 JUMP JUMPDEST SWAP1 SLOAD PUSH1 0x40 MLOAD PUSH1 0x3 SWAP3 SWAP1 SWAP3 SHL SHR PUSH1 0x1 PUSH1 0x1 PUSH1 0xA0 SHL SUB AND DUP2 MSTORE RETURN JUMPDEST CALLVALUE PUSH2 0x255 JUMPI PUSH1 0x20 CALLDATASIZE PUSH1 0x3 NOT ADD SLT PUSH2 0x255 JUMPI PUSH2 0xEC4 PUSH2 0x2121 JUMP JUMPDEST PUSH2 0xED9 PUSH1 0x1 DUP1 PUSH1 0xA0 SHL SUB PUSH1 0x0 SLOAD AND CALLER EQ PUSH2 0x2766 JUMP JUMPDEST PUSH1 0x1 PUSH1 0x1 PUSH1 0xA0 SHL SUB AND PUSH1 0x0 DUP2 DUP2 MSTORE PUSH1 0xB PUSH1 0x20 MSTORE PUSH1 0x40 SWAP1 KECCAK256 PUSH1 0x3 ADD SLOAD PUSH2 0xF00 SWAP1 PUSH1 0xFF AND PUSH2 0x2BA6 JUMP JUMPDEST DUP1 PUSH1 0x0 MSTORE PUSH1 0xB PUSH1 0x20 MSTORE PUSH2 0xF16 PUSH1 0x40 PUSH1 0x0 KECCAK256 PUSH2 0x2959 JUMP JUMPDEST PUSH1 0x40 MLOAD SWAP1 TIMESTAMP DUP3 MSTORE PUSH32 0x1A69E67D1BE897D0CA0CF1517B4D17E345B4272A80BC900F9FE8E96F261CA1DB PUSH1 0x20 CALLER SWAP4 LOG3 STOP JUMPDEST CALLVALUE PUSH2 0x255 JUMPI PUSH1 0x20 CALLDATASIZE PUSH1 0x3 NOT ADD SLT PUSH2 0x255 JUMPI PUSH1 0x1 PUSH1 0x1 PUSH1 0xA0 SHL SUB PUSH2 0xF66 PUSH2 0x2121 JUMP JUMPDEST AND PUSH1 0x0 MSTORE PUSH1 0x12 PUSH1 0x20 MSTORE PUSH1 0x20 PUSH1 0x40 PUSH1 0x0 KECCAK256 SLOAD PUSH1 0x40 MLOAD SWAP1 DUP2 MSTORE RETURN JUMPDEST CALLVALUE PUSH2 0x255 JUMPI PUSH1 0x0 CALLDATASIZE PUSH1 0x3 NOT ADD SLT PUSH2 0x255 JUMPI PUSH2 0x56C PUSH2 0x58C PUSH2 0x25BA JUMP JUMPDEST CALLVALUE PUSH2 0x255 JUMPI PUSH1 0x20 CALLDATASIZE PUSH1 0x3 NOT ADD SLT PUSH2 0x255 JUMPI PUSH1 0x4 CALLDATALOAD PUSH1 0x1 PUSH1 0x1 PUSH1 0x40 SHL SUB DUP2 GT PUSH2 0x255 JUMPI PUSH2 0xFCB SWAP1 CALLDATASIZE SWAP1 PUSH1 0x4 ADD PUSH2 0x2175 JUMP JUMPDEST PUSH2 0xFE0 PUSH1 0x1 DUP1 PUSH1 0xA0 SHL SUB PUSH1 0x0 SLOAD AND CALLER EQ PUSH2 0x2766 JUMP JUMPDEST DUP1 MLOAD ISZERO PUSH2 0x1114 JUMPI DUP1 MLOAD PUSH1 0x1 PUSH1 0x1 PUSH1 0x40 SHL SUB DUP2 GT PUSH2 0x3E1 JUMPI PUSH2 0x1002 PUSH1 0x8 SLOAD PUSH2 0x2338 JUMP JUMPDEST PUSH1 0x1F DUP2 GT PUSH2 0x10D7 JUMPI JUMPDEST POP PUSH1 0x20 PUSH1 0x1F DUP3 GT PUSH1 0x1 EQ PUSH2 0x1071 JUMPI SWAP1 DUP1 PUSH2 0x102C SWAP3 PUSH1 0x0 SWAP2 PUSH2 0x1066 JUMPI POP PUSH2 0x2861 JUMP JUMPDEST PUSH1 0x8 SSTORE JUMPDEST TIMESTAMP PUSH1 0x2 SSTORE PUSH32 0xAD44B517DC31B3F923480DD93AC031881F73B79BBAC3F5897259887894147244 PUSH1 0x40 MLOAD DUP1 PUSH2 0xD7A CALLER SWAP5 TIMESTAMP SWAP1 DUP4 PUSH2 0x2B8A JUMP JUMPDEST SWAP1 POP DUP4 ADD MLOAD DUP5 PUSH2 0xD4E JUMP JUMPDEST PUSH1 0x1F NOT DUP3 AND SWAP1 PUSH1 0x8 PUSH1 0x0 MSTORE DUP1 PUSH1 0x0 KECCAK256 SWAP2 PUSH1 0x0 JUMPDEST DUP2 DUP2 LT PUSH2 0x10BF JUMPI POP SWAP1 DUP4 PUSH1 0x1 SWAP5 SWAP4 SWAP3 LT PUSH2 0x10A6 JUMPI JUMPDEST POP POP DUP2 SHL ADD PUSH1 0x8 SSTORE PUSH2 0x1030 JUMP JUMPDEST DUP5 ADD MLOAD PUSH1 0x0 NOT PUSH1 0xF8 DUP5 PUSH1 0x3 SHL AND SHR NOT AND SWAP1 SSTORE DUP4 DUP1 PUSH2 0x1099 JUMP JUMPDEST SWAP2 SWAP3 PUSH1 0x20 PUSH1 0x1 DUP2 SWAP3 DUP7 DUP10 ADD MLOAD DUP2 SSTORE ADD SWAP5 ADD SWAP3 ADD PUSH2 0x1084 JUMP JUMPDEST PUSH1 0x8 PUSH1 0x0 MSTORE PUSH2 0x110E SWAP1 PUSH1 0x0 DUP1 MLOAD PUSH1 0x20 PUSH2 0x2E17 DUP4 CODECOPY DUP2 MLOAD SWAP2 MSTORE PUSH1 0x1F DUP5 ADD PUSH1 0x5 SHR DUP2 ADD SWAP2 PUSH1 0x20 DUP6 LT PUSH2 0x8FB JUMPI PUSH1 0x1F ADD PUSH1 0x5 SHR ADD SWAP1 PUSH2 0x284A JUMP JUMPDEST DUP3 PUSH2 0x100B JUMP JUMPDEST PUSH1 0x40 MLOAD PUSH3 0x461BCD PUSH1 0xE5 SHL DUP2 MSTORE PUSH1 0x20 PUSH1 0x4 DUP3 ADD MSTORE PUSH1 0x23 PUSH1 0x24 DUP3 ADD MSTORE PUSH32 0x46696E616C20524F2D437261746520686173682063616E6E6F7420626520656D PUSH1 0x44 DUP3 ADD MSTORE PUSH3 0x707479 PUSH1 0xE8 SHL PUSH1 0x64 DUP3 ADD MSTORE PUSH1 0x84 SWAP1 REVERT JUMPDEST CALLVALUE PUSH2 0x255 JUMPI PUSH1 0x40 CALLDATASIZE PUSH1 0x3 NOT ADD SLT PUSH2 0x255 JUMPI PUSH1 0x4 CALLDATALOAD PUSH1 0x24 CALLDATALOAD SWAP1 PUSH2 0x1192 PUSH1 0x1 DUP1 PUSH1 0xA0 SHL SUB PUSH1 0x0 SLOAD AND CALLER EQ PUSH2 0x2766 JUMP JUMPDEST DUP2 DUP2 LT ISZERO PUSH2 0x11A2 JUMPI PUSH1 0x9 SSTORE PUSH1 0xA SSTORE STOP JUMPDEST PUSH1 0x40 MLOAD PUSH3 0x461BCD PUSH1 0xE5 SHL DUP2 MSTORE PUSH1 0x20 PUSH1 0x4 DUP3 ADD MSTORE PUSH1 0x12 PUSH1 0x24 DUP3 ADD MSTORE PUSH18 0x496E76616C69642074696D652072616E6765 PUSH1 0x70 SHL PUSH1 0x44 DUP3 ADD MSTORE PUSH1 0x64 SWAP1 REVERT JUMPDEST CALLVALUE PUSH2 0x255 JUMPI PUSH1 0x0 CALLDATASIZE PUSH1 0x3 NOT ADD SLT PUSH2 0x255 JUMPI PUSH1 0x20 PUSH1 0x9 SLOAD PUSH1 0x40 MLOAD SWAP1 DUP2 MSTORE RETURN JUMPDEST CALLVALUE PUSH2 0x255 JUMPI PUSH1 0x20 CALLDATASIZE PUSH1 0x3 NOT ADD SLT PUSH2 0x255 JUMPI PUSH1 0x4 CALLDATALOAD PUSH1 0x1 PUSH1 0x1 PUSH1 0x40 SHL SUB DUP2 GT PUSH2 0x255 JUMPI PUSH2 0x122A SWAP1 CALLDATASIZE SWAP1 PUSH1 0x4 ADD PUSH2 0x2175 JUMP JUMPDEST PUSH1 0x0 SLOAD PUSH2 0x123C PUSH1 0xFF DUP3 PUSH1 0xA0 SHR AND PUSH2 0x27DA JUMP JUMPDEST PUSH1 0x1 PUSH1 0x1 PUSH1 0xA0 SHL SUB AND CALLER EQ PUSH2 0x139F JUMPI CALLER PUSH1 0x0 MSTORE PUSH1 0xB PUSH1 0x20 MSTORE PUSH1 0xFF PUSH1 0x3 PUSH1 0x40 PUSH1 0x0 KECCAK256 ADD SLOAD AND PUSH2 0x1369 JUMPI PUSH2 0x1270 DUP2 MLOAD ISZERO ISZERO PUSH2 0x27A1 JUMP JUMPDEST PUSH2 0x12A8 PUSH1 0x40 MLOAD PUSH2 0x127F DUP2 PUSH2 0x2137 JUMP JUMPDEST CALLER DUP2 MSTORE DUP3 PUSH1 0x20 DUP3 ADD MSTORE TIMESTAMP PUSH1 0x40 DUP3 ADD MSTORE PUSH1 0x1 PUSH1 0x60 DUP3 ADD MSTORE CALLER PUSH1 0x0 MSTORE PUSH1 0xB PUSH1 0x20 MSTORE PUSH1 0x40 PUSH1 0x0 KECCAK256 PUSH2 0x2A07 JUMP JUMPDEST PUSH1 0x0 DUP1 PUSH1 0xD SLOAD SWAP1 JUMPDEST DUP2 DUP2 LT PUSH2 0x1334 JUMPI JUMPDEST POP POP ISZERO PUSH2 0x12F2 JUMPI JUMPDEST PUSH32 0xE4D6C018ABD0178D4BCE0856089EF1876318617B97A1D700BB98506598AB0AFC PUSH1 0x40 MLOAD DUP1 PUSH2 0xD7A CALLER SWAP5 TIMESTAMP SWAP1 DUP4 PUSH2 0x2B8A JUMP JUMPDEST PUSH1 0xD SLOAD PUSH1 0x1 PUSH1 0x40 SHL DUP2 LT ISZERO PUSH2 0x3E1 JUMPI DUP1 PUSH1 0x1 PUSH2 0x1313 SWAP3 ADD PUSH1 0xD SSTORE PUSH1 0xD PUSH2 0x2320 JUMP JUMPDEST DUP2 SLOAD PUSH1 0x1 PUSH1 0x1 PUSH1 0xA0 SHL SUB PUSH1 0x3 SWAP3 SWAP1 SWAP3 SHL SWAP2 DUP3 SHL NOT AND CALLER SWAP1 SWAP2 SHL OR SWAP1 SSTORE PUSH2 0x12C0 JUMP JUMPDEST PUSH2 0x133D DUP2 PUSH2 0x22EA JUMP JUMPDEST SWAP1 SLOAD PUSH1 0x3 SWAP2 SWAP1 SWAP2 SHL SHR PUSH1 0x1 PUSH1 0x1 PUSH1 0xA0 SHL SUB AND CALLER EQ PUSH2 0x135D JUMPI PUSH1 0x1 ADD PUSH2 0x12B0 JUMP JUMPDEST POP POP POP PUSH1 0x1 DUP3 DUP1 PUSH2 0x12B8 JUMP JUMPDEST PUSH1 0x40 MLOAD PUSH3 0x461BCD PUSH1 0xE5 SHL DUP2 MSTORE PUSH1 0x20 PUSH1 0x4 DUP3 ADD MSTORE PUSH1 0xE PUSH1 0x24 DUP3 ADD MSTORE PUSH14 0x5265717565737420657869737473 PUSH1 0x90 SHL PUSH1 0x44 DUP3 ADD MSTORE PUSH1 0x64 SWAP1 REVERT JUMPDEST PUSH1 0x40 MLOAD PUSH3 0x461BCD PUSH1 0xE5 SHL DUP2 MSTORE PUSH1 0x20 PUSH1 0x4 DUP3 ADD MSTORE PUSH1 0x13 PUSH1 0x24 DUP3 ADD MSTORE PUSH19 0x21B932B0BA37B91031B0B73737BA103537B4B7 PUSH1 0x69 SHL PUSH1 0x44 DUP3 ADD MSTORE PUSH1 0x64 SWAP1 REVERT JUMPDEST CALLVALUE PUSH2 0x255 JUMPI PUSH1 0x0 CALLDATASIZE PUSH1 0x3 NOT ADD SLT PUSH2 0x255 JUMPI PUSH2 0x13FC PUSH1 0xFF PUSH1 0x0 SLOAD PUSH1 0xA0 SHR AND PUSH2 0x27DA JUMP JUMPDEST CALLER PUSH1 0x0 MSTORE PUSH1 0xC PUSH1 0x20 MSTORE PUSH2 0x1419 PUSH1 0xFF PUSH1 0x3 PUSH1 0x40 PUSH1 0x0 KECCAK256 ADD SLOAD AND PUSH2 0x2917 JUMP JUMPDEST CALLER PUSH1 0x0 MSTORE PUSH1 0x10 PUSH1 0x20 MSTORE PUSH2 0x1433 PUSH2 0x312 PUSH1 0x40 PUSH1 0x0 KECCAK256 SLOAD PUSH2 0x2338 JUMP JUMPDEST CALLER PUSH1 0x0 MSTORE PUSH1 0xC PUSH1 0x20 MSTORE PUSH2 0x1455 PUSH2 0x144F PUSH1 0x1 PUSH1 0x40 PUSH1 0x0 KECCAK256 ADD PUSH2 0x26C4 JUMP JUMPDEST CALLER PUSH2 0x2C25 JUMP JUMPDEST CALLER PUSH1 0x0 MSTORE PUSH1 0xC PUSH1 0x20 MSTORE PUSH2 0x146B PUSH1 0x40 PUSH1 0x0 KECCAK256 PUSH2 0x2959 JUMP JUMPDEST PUSH1 0x40 MLOAD TIMESTAMP DUP2 MSTORE ADDRESS SWAP1 PUSH32 0x7B7404D30440087C51E068AAC60D434F5A3A121313C035893FDF187C11D077B6 PUSH1 0x20 CALLER SWAP3 LOG3 STOP JUMPDEST CALLVALUE PUSH2 0x255 JUMPI PUSH1 0x0 CALLDATASIZE PUSH1 0x3 NOT ADD SLT PUSH2 0x255 JUMPI PUSH2 0x56C PUSH2 0x58C PUSH2 0x2419 JUMP JUMPDEST CALLVALUE PUSH2 0x255 JUMPI PUSH1 0x20 CALLDATASIZE PUSH1 0x3 NOT ADD SLT PUSH2 0x255 JUMPI PUSH1 0x4 CALLDATALOAD PUSH1 0xD SLOAD DUP2 LT ISZERO PUSH2 0x255 JUMPI PUSH2 0xE92 PUSH1 0x20 SWAP2 PUSH2 0x22EA JUMP JUMPDEST CALLVALUE PUSH2 0x255 JUMPI PUSH1 0x0 CALLDATASIZE PUSH1 0x3 NOT ADD SLT PUSH2 0x255 JUMPI PUSH1 0x40 PUSH1 0x1 SLOAD PUSH1 0x2 SLOAD DUP3 MLOAD SWAP2 DUP3 MSTORE PUSH1 0x20 DUP3 ADD MSTORE RETURN JUMPDEST CALLVALUE PUSH2 0x255 JUMPI PUSH1 0x20 CALLDATASIZE PUSH1 0x3 NOT ADD SLT PUSH2 0x255 JUMPI PUSH1 0x1 PUSH1 0x1 PUSH1 0xA0 SHL SUB PUSH2 0x1526 PUSH2 0x2121 JUMP JUMPDEST AND PUSH1 0x0 SWAP1 DUP2 MSTORE PUSH1 0xC PUSH1 0x20 MSTORE PUSH1 0x40 SWAP1 KECCAK256 DUP1 SLOAD PUSH1 0x1 PUSH1 0x1 PUSH1 0xA0 SHL SUB AND PUSH2 0x56C PUSH2 0x551 PUSH1 0x1 DUP5 ADD PUSH2 0x26C4 JUMP JUMPDEST CALLVALUE PUSH2 0x255 JUMPI PUSH1 0x0 CALLDATASIZE PUSH1 0x3 NOT ADD SLT PUSH2 0x255 JUMPI PUSH2 0x56C PUSH2 0x58C PUSH2 0x2372 JUMP JUMPDEST CALLVALUE PUSH2 0x255 JUMPI PUSH1 0x0 CALLDATASIZE PUSH1 0x3 NOT ADD SLT PUSH2 0x255 JUMPI PUSH2 0x56C PUSH2 0x58C PUSH2 0x2535 JUMP JUMPDEST CALLVALUE PUSH2 0x255 JUMPI PUSH1 0x20 CALLDATASIZE PUSH1 0x3 NOT ADD SLT PUSH2 0x255 JUMPI PUSH1 0x1 PUSH1 0x1 PUSH1 0xA0 SHL SUB PUSH2 0x15A8 PUSH2 0x2121 JUMP JUMPDEST AND PUSH1 0x0 MSTORE PUSH1 0xB PUSH1 0x20 MSTORE PUSH2 0x15BE PUSH1 0x40 PUSH1 0x0 KECCAK256 PUSH2 0x28D1 JUMP JUMPDEST PUSH1 0x1 DUP1 PUSH1 0xA0 SHL SUB DUP2 MLOAD AND PUSH2 0x56C PUSH1 0x20 DUP4 ADD MLOAD SWAP3 PUSH1 0x60 PUSH1 0x40 DUP3 ADD MLOAD SWAP2 ADD MLOAD ISZERO ISZERO SWAP1 PUSH1 0x40 MLOAD SWAP5 DUP6 SWAP5 DUP6 PUSH2 0x2286 JUMP JUMPDEST CALLVALUE PUSH2 0x255 JUMPI PUSH1 0x20 CALLDATASIZE PUSH1 0x3 NOT ADD SLT PUSH2 0x255 JUMPI PUSH1 0x4 CALLDATALOAD PUSH1 0xF SLOAD DUP2 LT ISZERO PUSH2 0x255 JUMPI PUSH2 0xE92 PUSH1 0x20 SWAP2 PUSH2 0x22B9 JUMP JUMPDEST CALLVALUE PUSH2 0x255 JUMPI PUSH1 0x0 CALLDATASIZE PUSH1 0x3 NOT ADD SLT PUSH2 0x255 JUMPI CALLER PUSH1 0x0 MSTORE PUSH1 0xC PUSH1 0x20 MSTORE PUSH2 0x1641 PUSH1 0xFF PUSH1 0x3 PUSH1 0x40 PUSH1 0x0 KECCAK256 ADD SLOAD AND PUSH2 0x2917 JUMP JUMPDEST CALLER PUSH1 0x0 MSTORE PUSH1 0xC PUSH1 0x20 MSTORE PUSH2 0x1657 PUSH1 0x40 PUSH1 0x0 KECCAK256 PUSH2 0x2959 JUMP JUMPDEST PUSH1 0x40 MLOAD TIMESTAMP DUP2 MSTORE ADDRESS SWAP1 PUSH32 0xF7BCBAA371C3A472D8F63F253317D896D63BF307F5E8E913F8EEB9351BC0D4C6 PUSH1 0x20 CALLER SWAP3 LOG3 STOP JUMPDEST CALLVALUE PUSH2 0x255 JUMPI PUSH1 0x0 CALLDATASIZE PUSH1 0x3 NOT ADD SLT PUSH2 0x255 JUMPI PUSH1 0x20 PUSH1 0xA SLOAD PUSH1 0x40 MLOAD SWAP1 DUP2 MSTORE RETURN JUMPDEST CALLVALUE PUSH2 0x255 JUMPI PUSH1 0x20 CALLDATASIZE PUSH1 0x3 NOT ADD SLT PUSH2 0x255 JUMPI PUSH1 0x1 PUSH1 0x1 PUSH1 0xA0 SHL SUB PUSH2 0x16C6 PUSH2 0x2121 JUMP JUMPDEST AND PUSH1 0x0 MSTORE PUSH1 0xC PUSH1 0x20 MSTORE PUSH2 0x15BE PUSH1 0x40 PUSH1 0x0 KECCAK256 PUSH2 0x28D1 JUMP JUMPDEST CALLVALUE PUSH2 0x255 JUMPI PUSH1 0x80 CALLDATASIZE PUSH1 0x3 NOT ADD SLT PUSH2 0x255 JUMPI PUSH1 0x4 CALLDATALOAD PUSH1 0x1 PUSH1 0x1 PUSH1 0x40 SHL SUB DUP2 GT PUSH2 0x255 JUMPI PUSH2 0x170C SWAP1 CALLDATASIZE SWAP1 PUSH1 0x4 ADD PUSH2 0x2175 JUMP JUMPDEST PUSH1 0x24 CALLDATALOAD PUSH1 0x1 PUSH1 0x1 PUSH1 0x40 SHL SUB DUP2 GT PUSH2 0x255 JUMPI PUSH2 0x172B SWAP1 CALLDATASIZE SWAP1 PUSH1 0x4 ADD PUSH2 0x2175 JUMP JUMPDEST PUSH1 0x44 CALLDATALOAD PUSH1 0x1 PUSH1 0x1 PUSH1 0x40 SHL SUB DUP2 GT PUSH2 0x255 JUMPI PUSH2 0x174A SWAP1 CALLDATASIZE SWAP1 PUSH1 0x4 ADD PUSH2 0x2175 JUMP JUMPDEST PUSH1 0x64 CALLDATALOAD PUSH1 0x1 PUSH1 0x1 PUSH1 0x40 SHL SUB DUP2 GT PUSH2 0x255 JUMPI PUSH2 0x1769 SWAP1 CALLDATASIZE SWAP1 PUSH1 0x4 ADD PUSH2 0x2175 JUMP JUMPDEST PUSH2 0x177E PUSH1 0x1 DUP1 PUSH1 0xA0 SHL SUB PUSH1 0x0 SLOAD AND CALLER EQ PUSH2 0x2766 JUMP JUMPDEST DUP4 MLOAD PUSH1 0x1 PUSH1 0x1 PUSH1 0x40 SHL SUB DUP2 GT PUSH2 0x3E1 JUMPI PUSH2 0x1799 PUSH1 0x4 SLOAD PUSH2 0x2338 JUMP JUMPDEST PUSH1 0x1F DUP2 GT PUSH2 0x1B19 JUMPI JUMPDEST POP PUSH1 0x20 SWAP5 PUSH1 0x1F DUP3 GT PUSH1 0x1 EQ PUSH2 0x1AB2 JUMPI PUSH2 0x17C8 SWAP3 SWAP4 SWAP5 SWAP6 DUP3 SWAP2 PUSH1 0x0 SWAP3 PUSH2 0x1AA7 JUMPI POP POP PUSH2 0x2861 JUMP JUMPDEST PUSH1 0x4 SSTORE JUMPDEST DUP3 MLOAD PUSH1 0x1 PUSH1 0x1 PUSH1 0x40 SHL SUB DUP2 GT PUSH2 0x3E1 JUMPI PUSH2 0x17E7 PUSH1 0x5 SLOAD PUSH2 0x2338 JUMP JUMPDEST PUSH1 0x1F DUP2 GT PUSH2 0x1A74 JUMPI JUMPDEST POP PUSH1 0x20 PUSH1 0x1F DUP3 GT PUSH1 0x1 EQ PUSH2 0x1A0D JUMPI DUP2 SWAP1 PUSH2 0x1814 SWAP4 SWAP5 SWAP6 PUSH1 0x0 SWAP3 PUSH2 0x1A02 JUMPI POP POP PUSH2 0x2861 JUMP JUMPDEST PUSH1 0x5 SSTORE JUMPDEST DUP2 MLOAD PUSH1 0x1 PUSH1 0x1 PUSH1 0x40 SHL SUB DUP2 GT PUSH2 0x3E1 JUMPI PUSH2 0x1833 PUSH1 0x6 SLOAD PUSH2 0x2338 JUMP JUMPDEST PUSH1 0x1F DUP2 GT PUSH2 0x19C5 JUMPI JUMPDEST POP PUSH1 0x20 SWAP3 PUSH1 0x1F DUP3 GT PUSH1 0x1 EQ PUSH2 0x1960 JUMPI PUSH2 0x1860 SWAP3 SWAP4 DUP3 SWAP2 PUSH1 0x0 SWAP3 PUSH2 0x1955 JUMPI POP POP PUSH2 0x2861 JUMP JUMPDEST PUSH1 0x6 SSTORE JUMPDEST DUP1 MLOAD PUSH1 0x1 PUSH1 0x1 PUSH1 0x40 SHL SUB DUP2 GT PUSH2 0x3E1 JUMPI PUSH2 0x187F PUSH1 0x7 SLOAD PUSH2 0x2338 JUMP JUMPDEST PUSH1 0x1F DUP2 GT PUSH2 0x1918 JUMPI JUMPDEST POP PUSH1 0x20 SWAP2 PUSH1 0x1F DUP3 GT PUSH1 0x1 EQ PUSH2 0x18B4 JUMPI PUSH2 0x18AA SWAP3 PUSH1 0x0 SWAP2 DUP4 PUSH2 0x84E JUMPI POP POP PUSH2 0x2861 JUMP JUMPDEST PUSH1 0x7 SSTORE JUMPDEST TIMESTAMP PUSH1 0x2 SSTORE STOP JUMPDEST PUSH1 0x1F NOT DUP3 AND SWAP3 PUSH1 0x7 PUSH1 0x0 MSTORE DUP1 PUSH1 0x0 KECCAK256 SWAP2 PUSH1 0x0 JUMPDEST DUP6 DUP2 LT PUSH2 0x1900 JUMPI POP DUP4 PUSH1 0x1 SWAP6 LT PUSH2 0x18E7 JUMPI JUMPDEST POP POP POP DUP2 SHL ADD PUSH1 0x7 SSTORE PUSH2 0x18AE JUMP JUMPDEST ADD MLOAD PUSH1 0x0 NOT PUSH1 0xF8 DUP5 PUSH1 0x3 SHL AND SHR NOT AND SWAP1 SSTORE DUP3 DUP1 DUP1 PUSH2 0x18D9 JUMP JUMPDEST SWAP2 SWAP3 PUSH1 0x20 PUSH1 0x1 DUP2 SWAP3 DUP7 DUP6 ADD MLOAD DUP2 SSTORE ADD SWAP5 ADD SWAP3 ADD PUSH2 0x18C7 JUMP JUMPDEST PUSH1 0x7 PUSH1 0x0 MSTORE PUSH2 0x194F SWAP1 PUSH1 0x0 DUP1 MLOAD PUSH1 0x20 PUSH2 0x2DF7 DUP4 CODECOPY DUP2 MLOAD SWAP2 MSTORE PUSH1 0x1F DUP5 ADD PUSH1 0x5 SHR DUP2 ADD SWAP2 PUSH1 0x20 DUP6 LT PUSH2 0x8FB JUMPI PUSH1 0x1F ADD PUSH1 0x5 SHR ADD SWAP1 PUSH2 0x284A JUMP JUMPDEST DUP3 PUSH2 0x1888 JUMP JUMPDEST ADD MLOAD SWAP1 POP DUP5 DUP1 PUSH2 0x823 JUMP JUMPDEST PUSH1 0x1F NOT DUP3 AND SWAP4 PUSH1 0x6 PUSH1 0x0 MSTORE DUP1 PUSH1 0x0 KECCAK256 SWAP2 PUSH1 0x0 JUMPDEST DUP7 DUP2 LT PUSH2 0x19AD JUMPI POP DUP4 PUSH1 0x1 SWAP6 SWAP7 LT PUSH2 0x1994 JUMPI JUMPDEST POP POP POP DUP2 SHL ADD PUSH1 0x6 SSTORE PUSH2 0x1864 JUMP JUMPDEST ADD MLOAD PUSH1 0x0 NOT PUSH1 0xF8 DUP5 PUSH1 0x3 SHL AND SHR NOT AND SWAP1 SSTORE DUP4 DUP1 DUP1 PUSH2 0x1986 JUMP JUMPDEST SWAP2 SWAP3 PUSH1 0x20 PUSH1 0x1 DUP2 SWAP3 DUP7 DUP6 ADD MLOAD DUP2 SSTORE ADD SWAP5 ADD SWAP3 ADD PUSH2 0x1973 JUMP JUMPDEST PUSH1 0x6 PUSH1 0x0 MSTORE PUSH2 0x19FC SWAP1 PUSH1 0x0 DUP1 MLOAD PUSH1 0x20 PUSH2 0x2E37 DUP4 CODECOPY DUP2 MLOAD SWAP2 MSTORE PUSH1 0x1F DUP5 ADD PUSH1 0x5 SHR DUP2 ADD SWAP2 PUSH1 0x20 DUP6 LT PUSH2 0x8FB JUMPI PUSH1 0x1F ADD PUSH1 0x5 SHR ADD SWAP1 PUSH2 0x284A JUMP JUMPDEST DUP4 PUSH2 0x183C JUMP JUMPDEST ADD MLOAD SWAP1 POP DUP6 DUP1 PUSH2 0x823 JUMP JUMPDEST PUSH1 0x1F NOT DUP3 AND SWAP1 PUSH1 0x5 PUSH1 0x0 MSTORE DUP1 PUSH1 0x0 KECCAK256 SWAP2 PUSH1 0x0 JUMPDEST DUP2 DUP2 LT PUSH2 0x1A5C JUMPI POP SWAP6 DUP4 PUSH1 0x1 SWAP6 SWAP7 SWAP8 LT PUSH2 0x1A43 JUMPI JUMPDEST POP POP POP DUP2 SHL ADD PUSH1 0x5 SSTORE PUSH2 0x1818 JUMP JUMPDEST ADD MLOAD PUSH1 0x0 NOT PUSH1 0xF8 DUP5 PUSH1 0x3 SHL AND SHR NOT AND SWAP1 SSTORE DUP5 DUP1 DUP1 PUSH2 0x1A35 JUMP JUMPDEST SWAP2 SWAP3 PUSH1 0x20 PUSH1 0x1 DUP2 SWAP3 DUP7 DUP12 ADD MLOAD DUP2 SSTORE ADD SWAP5 ADD SWAP3 ADD PUSH2 0x1A20 JUMP JUMPDEST PUSH2 0x1AA1 SWAP1 PUSH1 0x5 PUSH1 0x0 MSTORE PUSH1 0x20 PUSH1 0x0 KECCAK256 PUSH1 0x1F DUP5 ADD PUSH1 0x5 SHR DUP2 ADD SWAP2 PUSH1 0x20 DUP6 LT PUSH2 0x8FB JUMPI PUSH1 0x1F ADD PUSH1 0x5 SHR ADD SWAP1 PUSH2 0x284A JUMP JUMPDEST DUP5 PUSH2 0x17F0 JUMP JUMPDEST ADD MLOAD SWAP1 POP DUP7 DUP1 PUSH2 0x823 JUMP JUMPDEST PUSH1 0x1F NOT DUP3 AND SWAP6 PUSH1 0x4 PUSH1 0x0 MSTORE DUP1 PUSH1 0x0 KECCAK256 SWAP2 PUSH1 0x0 JUMPDEST DUP9 DUP2 LT PUSH2 0x1B01 JUMPI POP DUP4 PUSH1 0x1 SWAP6 SWAP7 SWAP8 SWAP9 LT PUSH2 0x1AE8 JUMPI JUMPDEST POP POP POP DUP2 SHL ADD PUSH1 0x4 SSTORE PUSH2 0x17CC JUMP JUMPDEST ADD MLOAD PUSH1 0x0 NOT PUSH1 0xF8 DUP5 PUSH1 0x3 SHL AND SHR NOT AND SWAP1 SSTORE DUP6 DUP1 DUP1 PUSH2 0x1ADA JUMP JUMPDEST SWAP2 SWAP3 PUSH1 0x20 PUSH1 0x1 DUP2 SWAP3 DUP7 DUP6 ADD MLOAD DUP2 SSTORE ADD SWAP5 ADD SWAP3 ADD PUSH2 0x1AC5 JUMP JUMPDEST PUSH1 0x4 PUSH1 0x0 MSTORE PUSH2 0x1B50 SWAP1 PUSH1 0x0 DUP1 MLOAD PUSH1 0x20 PUSH2 0x2E57 DUP4 CODECOPY DUP2 MLOAD SWAP2 MSTORE PUSH1 0x1F DUP5 ADD PUSH1 0x5 SHR DUP2 ADD SWAP2 PUSH1 0x20 DUP6 LT PUSH2 0x8FB JUMPI PUSH1 0x1F ADD PUSH1 0x5 SHR ADD SWAP1 PUSH2 0x284A JUMP JUMPDEST DUP6 PUSH2 0x17A2 JUMP JUMPDEST CALLVALUE PUSH2 0x255 JUMPI PUSH1 0x0 CALLDATASIZE PUSH1 0x3 NOT ADD SLT PUSH2 0x255 JUMPI PUSH1 0x0 SLOAD PUSH1 0x9 SLOAD PUSH1 0xA SLOAD PUSH2 0x1BBF SWAP3 PUSH1 0x1 PUSH1 0x1 PUSH1 0xA0 SHL SUB AND SWAP2 SWAP1 PUSH2 0x1BEE PUSH2 0x1B8A PUSH2 0x2372 JUMP JUMPDEST SWAP4 PUSH2 0x1BE0 PUSH2 0x1B96 PUSH2 0x2419 JUMP JUMPDEST SWAP2 PUSH2 0x1B9F PUSH2 0x24B0 JUMP JUMPDEST PUSH2 0x1BCD PUSH2 0x1BAA PUSH2 0x2535 JUMP JUMPDEST SWAP5 PUSH1 0x40 MLOAD SWAP11 DUP12 SWAP11 PUSH1 0xE0 DUP13 MSTORE PUSH1 0xE0 DUP13 ADD SWAP1 PUSH2 0x2211 JUMP JUMPDEST SWAP1 DUP11 DUP3 SUB PUSH1 0x20 DUP13 ADD MSTORE PUSH2 0x2211 JUMP JUMPDEST SWAP2 PUSH1 0x40 DUP10 ADD MSTORE DUP8 DUP3 SUB PUSH1 0x60 DUP10 ADD MSTORE PUSH2 0x2211 JUMP JUMPDEST SWAP1 DUP6 DUP3 SUB PUSH1 0x80 DUP8 ADD MSTORE PUSH2 0x2211 JUMP JUMPDEST SWAP2 PUSH1 0xA0 DUP5 ADD MSTORE PUSH1 0xC0 DUP4 ADD MSTORE SUB SWAP1 RETURN JUMPDEST CALLVALUE PUSH2 0x255 JUMPI PUSH1 0x0 CALLDATASIZE PUSH1 0x3 NOT ADD SLT PUSH2 0x255 JUMPI PUSH1 0xF SLOAD PUSH2 0x1C1A DUP2 PUSH2 0x2874 JUMP JUMPDEST PUSH2 0x1C27 PUSH1 0x40 MLOAD SWAP2 DUP3 PUSH2 0x2152 JUMP JUMPDEST DUP2 DUP2 MSTORE PUSH2 0x1C33 DUP3 PUSH2 0x2874 JUMP JUMPDEST PUSH1 0x20 DUP3 ADD SWAP3 SWAP1 PUSH1 0x1F NOT ADD CALLDATASIZE DUP5 CALLDATACOPY PUSH2 0x1C49 DUP2 PUSH2 0x2874 JUMP JUMPDEST PUSH2 0x1C56 PUSH1 0x40 MLOAD SWAP2 DUP3 PUSH2 0x2152 JUMP JUMPDEST DUP2 DUP2 MSTORE PUSH1 0x1F NOT PUSH2 0x1C65 DUP4 PUSH2 0x2874 JUMP JUMPDEST ADD PUSH1 0x0 JUMPDEST DUP2 DUP2 LT PUSH2 0x1DF5 JUMPI POP POP PUSH2 0x1C7B DUP3 PUSH2 0x288B JUMP JUMPDEST PUSH2 0x1C84 DUP4 PUSH2 0x288B JUMP JUMPDEST SWAP3 PUSH1 0x0 JUMPDEST DUP2 DUP2 LT PUSH2 0x1D5E JUMPI POP POP PUSH1 0x40 MLOAD SWAP5 DUP6 SWAP5 PUSH1 0x80 DUP7 ADD SWAP1 PUSH1 0x80 DUP8 MSTORE MLOAD DUP1 SWAP2 MSTORE PUSH1 0xA0 DUP7 ADD SWAP2 SWAP1 PUSH1 0x0 JUMPDEST DUP2 DUP2 LT PUSH2 0x1D3C JUMPI POP POP POP DUP5 DUP2 SUB PUSH1 0x20 DUP7 ADD MSTORE DUP3 MLOAD DUP1 DUP3 MSTORE PUSH1 0x20 DUP3 ADD SWAP2 PUSH1 0x20 DUP1 DUP4 PUSH1 0x5 SHL DUP4 ADD ADD SWAP6 ADD SWAP3 PUSH1 0x0 SWAP2 JUMPDEST DUP4 DUP4 LT PUSH2 0x1D07 JUMPI DUP9 DUP1 PUSH2 0x56C DUP11 PUSH2 0x1CF9 DUP12 DUP12 DUP6 DUP3 SUB PUSH1 0x40 DUP8 ADD MSTORE PUSH2 0x2252 JUMP JUMPDEST SWAP1 DUP4 DUP3 SUB PUSH1 0x60 DUP6 ADD MSTORE PUSH2 0x2252 JUMP JUMPDEST SWAP2 SWAP4 SWAP7 SWAP8 POP SWAP2 SWAP4 SWAP5 PUSH1 0x20 DUP1 PUSH2 0x1D28 PUSH1 0x1 SWAP4 PUSH1 0x1F NOT DUP7 DUP3 SUB ADD DUP8 MSTORE DUP11 MLOAD PUSH2 0x2211 JUMP JUMPDEST SWAP9 ADD SWAP4 ADD SWAP4 ADD SWAP1 SWAP3 DUP9 SWAP8 SWAP7 SWAP6 SWAP5 SWAP3 SWAP4 PUSH2 0x1CDA JUMP JUMPDEST DUP3 MLOAD PUSH1 0x1 PUSH1 0x1 PUSH1 0xA0 SHL SUB AND DUP5 MSTORE DUP9 SWAP8 POP PUSH1 0x20 SWAP4 DUP5 ADD SWAP4 SWAP1 SWAP3 ADD SWAP2 PUSH1 0x1 ADD PUSH2 0x1CAD JUMP JUMPDEST DUP1 PUSH2 0x1D70 PUSH1 0x1 SWAP3 SWAP9 SWAP5 SWAP6 SWAP7 SWAP8 SWAP9 PUSH2 0x22B9 JUMP JUMPDEST DUP4 DUP1 PUSH1 0xA0 SHL SUB SWAP2 SLOAD SWAP1 PUSH1 0x3 SHL SHR AND DUP1 PUSH2 0x1D89 DUP4 DUP12 PUSH2 0x28BD JUMP JUMPDEST MSTORE DUP1 PUSH1 0x0 MSTORE PUSH1 0x10 PUSH1 0x20 MSTORE PUSH2 0x1DA0 PUSH1 0x40 PUSH1 0x0 KECCAK256 PUSH2 0x26C4 JUMP JUMPDEST PUSH2 0x1DAA DUP4 DUP10 PUSH2 0x28BD JUMP JUMPDEST MSTORE PUSH2 0x1DB5 DUP3 DUP9 PUSH2 0x28BD JUMP JUMPDEST POP DUP1 PUSH1 0x0 MSTORE PUSH1 0x11 PUSH1 0x20 MSTORE PUSH1 0x40 PUSH1 0x0 KECCAK256 SLOAD PUSH2 0x1DCF DUP4 DUP9 PUSH2 0x28BD JUMP JUMPDEST MSTORE PUSH1 0x0 MSTORE PUSH1 0x12 PUSH1 0x20 MSTORE PUSH1 0x40 PUSH1 0x0 KECCAK256 SLOAD PUSH2 0x1DE8 DUP3 DUP10 PUSH2 0x28BD JUMP JUMPDEST MSTORE ADD SWAP6 SWAP5 SWAP4 SWAP3 SWAP2 SWAP6 PUSH2 0x1C88 JUMP JUMPDEST PUSH1 0x60 PUSH1 0x20 DUP3 DUP6 ADD DUP2 ADD SWAP2 SWAP1 SWAP2 MSTORE ADD PUSH2 0x1C69 JUMP JUMPDEST CALLVALUE PUSH2 0x255 JUMPI PUSH1 0x20 CALLDATASIZE PUSH1 0x3 NOT ADD SLT PUSH2 0x255 JUMPI PUSH1 0x4 CALLDATALOAD PUSH1 0x1 PUSH1 0x1 PUSH1 0x40 SHL SUB DUP2 GT PUSH2 0x255 JUMPI PUSH2 0x1E38 SWAP1 CALLDATASIZE SWAP1 PUSH1 0x4 ADD PUSH2 0x2175 JUMP JUMPDEST PUSH1 0x0 SLOAD PUSH2 0x1E56 SWAP1 PUSH1 0xFF SWAP1 PUSH2 0x2B4 CALLER PUSH1 0x1 PUSH1 0x1 PUSH1 0xA0 SHL SUB DUP4 AND EQ PUSH2 0x2766 JUMP JUMPDEST PUSH2 0x1E62 DUP2 MLOAD ISZERO ISZERO PUSH2 0x2811 JUMP JUMPDEST DUP1 MLOAD PUSH1 0x1 PUSH1 0x1 PUSH1 0x40 SHL SUB DUP2 GT PUSH2 0x3E1 JUMPI PUSH2 0x1E7D PUSH1 0x3 SLOAD PUSH2 0x2338 JUMP JUMPDEST PUSH1 0x1F DUP2 GT PUSH2 0x1EF2 JUMPI JUMPDEST POP PUSH1 0x20 SWAP2 PUSH1 0x1F DUP3 GT PUSH1 0x1 EQ PUSH2 0x1EA8 JUMPI PUSH2 0x82A SWAP3 PUSH1 0x0 SWAP2 DUP4 PUSH2 0x84E JUMPI POP POP PUSH2 0x2861 JUMP JUMPDEST PUSH1 0x1F NOT DUP3 AND SWAP3 PUSH1 0x3 PUSH1 0x0 MSTORE DUP1 PUSH1 0x0 KECCAK256 SWAP2 PUSH1 0x0 JUMPDEST DUP6 DUP2 LT PUSH2 0x1EDA JUMPI POP DUP4 PUSH1 0x1 SWAP6 LT PUSH2 0x88C JUMPI POP POP POP DUP2 SHL ADD PUSH1 0x3 SSTORE PUSH2 0x82E JUMP JUMPDEST SWAP2 SWAP3 PUSH1 0x20 PUSH1 0x1 DUP2 SWAP3 DUP7 DUP6 ADD MLOAD DUP2 SSTORE ADD SWAP5 ADD SWAP3 ADD PUSH2 0x1EBB JUMP JUMPDEST PUSH1 0x3 PUSH1 0x0 MSTORE PUSH2 0x1F29 SWAP1 PUSH1 0x0 DUP1 MLOAD PUSH1 0x20 PUSH2 0x2DB7 DUP4 CODECOPY DUP2 MLOAD SWAP2 MSTORE PUSH1 0x1F DUP5 ADD PUSH1 0x5 SHR DUP2 ADD SWAP2 PUSH1 0x20 DUP6 LT PUSH2 0x8FB JUMPI PUSH1 0x1F ADD PUSH1 0x5 SHR ADD SWAP1 PUSH2 0x284A JUMP JUMPDEST DUP3 PUSH2 0x1E86 JUMP JUMPDEST CALLVALUE PUSH2 0x255 JUMPI PUSH1 0x0 CALLDATASIZE PUSH1 0x3 NOT ADD SLT PUSH2 0x255 JUMPI PUSH1 0x0 SLOAD PUSH1 0x40 MLOAD PUSH1 0x1 PUSH1 0x1 PUSH1 0xA0 SHL SUB SWAP1 SWAP2 AND DUP2 MSTORE PUSH1 0x20 SWAP1 RETURN JUMPDEST CALLVALUE PUSH2 0x255 JUMPI PUSH2 0x1F66 CALLDATASIZE PUSH2 0x21CB JUMP JUMPDEST PUSH2 0x1F7E PUSH1 0x1 DUP1 PUSH1 0xA0 SWAP6 SWAP5 SWAP6 SHL SUB PUSH1 0x0 SLOAD AND CALLER EQ PUSH2 0x2766 JUMP JUMPDEST PUSH2 0x1F8A DUP4 MLOAD ISZERO ISZERO PUSH2 0x27A1 JUMP JUMPDEST PUSH2 0x1FC1 PUSH1 0x1 DUP1 PUSH1 0xA0 SHL SUB DUP4 AND SWAP3 DUP4 PUSH1 0x0 MSTORE PUSH1 0x10 PUSH1 0x20 MSTORE PUSH2 0x1FB1 PUSH2 0x312 PUSH1 0x40 PUSH1 0x0 KECCAK256 SLOAD PUSH2 0x2338 JUMP JUMPDEST PUSH2 0x1FBC DUP4 ISZERO ISZERO PUSH2 0x2BDF JUMP JUMPDEST PUSH2 0x2B45 JUMP JUMPDEST PUSH1 0x0 DUP3 DUP2 MSTORE PUSH1 0x10 PUSH1 0x20 MSTORE PUSH1 0x40 SWAP1 KECCAK256 DUP4 MLOAD SWAP4 SWAP1 PUSH1 0x1 PUSH1 0x1 PUSH1 0x40 SHL SUB DUP6 GT PUSH2 0x3E1 JUMPI PUSH2 0x1FEB DUP2 SLOAD PUSH2 0x2338 JUMP JUMPDEST PUSH1 0x1F DUP2 GT PUSH2 0x20CB JUMPI JUMPDEST POP PUSH1 0x20 PUSH1 0x1F DUP7 GT PUSH1 0x1 EQ PUSH2 0x2057 JUMPI DUP6 PUSH1 0x0 DUP1 MLOAD PUSH1 0x20 PUSH2 0x2E77 DUP4 CODECOPY DUP2 MLOAD SWAP2 MSTORE SWAP6 SWAP7 PUSH2 0x2025 SWAP3 PUSH1 0x0 SWAP2 PUSH2 0xD7F JUMPI POP PUSH2 0x2861 JUMP JUMPDEST SWAP1 SSTORE JUMPDEST DUP4 PUSH1 0x0 MSTORE PUSH1 0x11 PUSH1 0x20 MSTORE DUP2 PUSH1 0x40 PUSH1 0x0 KECCAK256 SSTORE DUP4 PUSH1 0x0 MSTORE PUSH1 0x12 PUSH1 0x20 MSTORE TIMESTAMP PUSH1 0x40 PUSH1 0x0 KECCAK256 SSTORE PUSH2 0xD7A PUSH1 0x40 MLOAD SWAP3 DUP4 SWAP3 DUP4 PUSH2 0x2B8A JUMP JUMPDEST PUSH1 0x1F NOT DUP7 AND SWAP1 DUP3 PUSH1 0x0 MSTORE DUP1 PUSH1 0x0 KECCAK256 SWAP2 PUSH1 0x0 JUMPDEST DUP2 DUP2 LT PUSH2 0x20B3 JUMPI POP SWAP2 DUP8 SWAP2 PUSH1 0x0 DUP1 MLOAD PUSH1 0x20 PUSH2 0x2E77 DUP4 CODECOPY DUP2 MLOAD SWAP2 MSTORE SWAP8 SWAP9 PUSH1 0x1 SWAP5 LT PUSH2 0x209A JUMPI JUMPDEST POP POP DUP2 SHL ADD SWAP1 SSTORE PUSH2 0x2028 JUMP JUMPDEST DUP6 ADD MLOAD PUSH1 0x0 NOT PUSH1 0xF8 DUP5 PUSH1 0x3 SHL AND SHR NOT AND SWAP1 SSTORE DUP8 DUP1 PUSH2 0x208E JUMP JUMPDEST SWAP2 SWAP3 PUSH1 0x20 PUSH1 0x1 DUP2 SWAP3 DUP7 DUP10 ADD MLOAD DUP2 SSTORE ADD SWAP5 ADD SWAP3 ADD PUSH2 0x2069 JUMP JUMPDEST PUSH2 0x20F7 SWAP1 DUP3 PUSH1 0x0 MSTORE PUSH1 0x20 PUSH1 0x0 KECCAK256 PUSH1 0x1F DUP9 ADD PUSH1 0x5 SHR DUP2 ADD SWAP2 PUSH1 0x20 DUP10 LT PUSH2 0x8FB JUMPI PUSH1 0x1F ADD PUSH1 0x5 SHR ADD SWAP1 PUSH2 0x284A JUMP JUMPDEST DUP6 PUSH2 0x1FF4 JUMP JUMPDEST CALLVALUE PUSH2 0x255 JUMPI PUSH1 0x0 CALLDATASIZE PUSH1 0x3 NOT ADD SLT PUSH2 0x255 JUMPI PUSH1 0x0 SLOAD PUSH1 0x1 PUSH1 0x1 PUSH1 0xA0 SHL SUB AND DUP2 MSTORE PUSH1 0x20 SWAP1 RETURN JUMPDEST PUSH1 0x4 CALLDATALOAD SWAP1 PUSH1 0x1 PUSH1 0x1 PUSH1 0xA0 SHL SUB DUP3 AND DUP3 SUB PUSH2 0x255 JUMPI JUMP JUMPDEST PUSH1 0x80 DUP2 ADD SWAP1 DUP2 LT PUSH1 0x1 PUSH1 0x1 PUSH1 0x40 SHL SUB DUP3 GT OR PUSH2 0x3E1 JUMPI PUSH1 0x40 MSTORE JUMP JUMPDEST PUSH1 0x1F SWAP1 SWAP2 ADD PUSH1 0x1F NOT AND DUP2 ADD SWAP1 PUSH1 0x1 PUSH1 0x1 PUSH1 0x40 SHL SUB DUP3 GT SWAP1 DUP3 LT OR PUSH2 0x3E1 JUMPI PUSH1 0x40 MSTORE JUMP JUMPDEST DUP2 PUSH1 0x1F DUP3 ADD SLT ISZERO PUSH2 0x255 JUMPI DUP1 CALLDATALOAD SWAP1 PUSH1 0x1 PUSH1 0x1 PUSH1 0x40 SHL SUB DUP3 GT PUSH2 0x3E1 JUMPI PUSH1 0x40 MLOAD SWAP3 PUSH2 0x21A9 PUSH1 0x1F DUP5 ADD PUSH1 0x1F NOT AND PUSH1 0x20 ADD DUP6 PUSH2 0x2152 JUMP JUMPDEST DUP3 DUP5 MSTORE PUSH1 0x20 DUP4 DUP4 ADD ADD GT PUSH2 0x255 JUMPI DUP2 PUSH1 0x0 SWAP3 PUSH1 0x20 DUP1 SWAP4 ADD DUP4 DUP7 ADD CALLDATACOPY DUP4 ADD ADD MSTORE SWAP1 JUMP JUMPDEST SWAP1 PUSH1 0x60 PUSH1 0x3 NOT DUP4 ADD SLT PUSH2 0x255 JUMPI PUSH1 0x4 CALLDATALOAD PUSH1 0x1 PUSH1 0x1 PUSH1 0xA0 SHL SUB DUP2 AND DUP2 SUB PUSH2 0x255 JUMPI SWAP2 PUSH1 0x24 CALLDATALOAD SWAP1 PUSH1 0x1 PUSH1 0x1 PUSH1 0x40 SHL SUB DUP3 GT PUSH2 0x255 JUMPI PUSH2 0x220A SWAP2 PUSH1 0x4 ADD PUSH2 0x2175 JUMP JUMPDEST SWAP1 PUSH1 0x44 CALLDATALOAD SWAP1 JUMP JUMPDEST SWAP2 SWAP1 DUP3 MLOAD SWAP3 DUP4 DUP3 MSTORE PUSH1 0x0 JUMPDEST DUP5 DUP2 LT PUSH2 0x223D JUMPI POP POP DUP3 PUSH1 0x0 PUSH1 0x20 DUP1 SWAP5 SWAP6 DUP5 ADD ADD MSTORE PUSH1 0x1F DUP1 NOT SWAP2 ADD AND ADD ADD SWAP1 JUMP JUMPDEST DUP1 PUSH1 0x20 DUP1 SWAP3 DUP5 ADD ADD MLOAD DUP3 DUP3 DUP7 ADD ADD MSTORE ADD PUSH2 0x221C JUMP JUMPDEST SWAP1 PUSH1 0x20 DUP1 DUP4 MLOAD SWAP3 DUP4 DUP2 MSTORE ADD SWAP3 ADD SWAP1 PUSH1 0x0 JUMPDEST DUP2 DUP2 LT PUSH2 0x2270 JUMPI POP POP POP SWAP1 JUMP JUMPDEST DUP3 MLOAD DUP5 MSTORE PUSH1 0x20 SWAP4 DUP5 ADD SWAP4 SWAP1 SWAP3 ADD SWAP2 PUSH1 0x1 ADD PUSH2 0x2263 JUMP JUMPDEST SWAP3 SWAP5 SWAP4 SWAP1 PUSH1 0x60 SWAP3 PUSH2 0x22AC SWAP2 PUSH1 0x1 DUP1 PUSH1 0xA0 SHL SUB AND DUP6 MSTORE PUSH1 0x80 PUSH1 0x20 DUP7 ADD MSTORE PUSH1 0x80 DUP6 ADD SWAP1 PUSH2 0x2211 JUMP JUMPDEST SWAP5 PUSH1 0x40 DUP5 ADD MSTORE ISZERO ISZERO SWAP2 ADD MSTORE JUMP JUMPDEST PUSH1 0xF SLOAD DUP2 LT ISZERO PUSH2 0x22D4 JUMPI PUSH1 0xF PUSH1 0x0 MSTORE PUSH1 0x20 PUSH1 0x0 KECCAK256 ADD SWAP1 PUSH1 0x0 SWAP1 JUMP JUMPDEST PUSH4 0x4E487B71 PUSH1 0xE0 SHL PUSH1 0x0 MSTORE PUSH1 0x32 PUSH1 0x4 MSTORE PUSH1 0x24 PUSH1 0x0 REVERT JUMPDEST PUSH1 0xD SLOAD DUP2 LT ISZERO PUSH2 0x22D4 JUMPI PUSH1 0xD PUSH1 0x0 MSTORE PUSH1 0x20 PUSH1 0x0 KECCAK256 ADD SWAP1 PUSH1 0x0 SWAP1 JUMP JUMPDEST PUSH1 0xE SLOAD DUP2 LT ISZERO PUSH2 0x22D4 JUMPI PUSH1 0xE PUSH1 0x0 MSTORE PUSH1 0x20 PUSH1 0x0 KECCAK256 ADD SWAP1 PUSH1 0x0 SWAP1 JUMP JUMPDEST DUP1 SLOAD DUP3 LT ISZERO PUSH2 0x22D4 JUMPI PUSH1 0x0 MSTORE PUSH1 0x20 PUSH1 0x0 KECCAK256 ADD SWAP1 PUSH1 0x0 SWAP1 JUMP JUMPDEST SWAP1 PUSH1 0x1 DUP3 DUP2 SHR SWAP3 AND DUP1 ISZERO PUSH2 0x2368 JUMPI JUMPDEST PUSH1 0x20 DUP4 LT EQ PUSH2 0x2352 JUMPI JUMP JUMPDEST PUSH4 0x4E487B71 PUSH1 0xE0 SHL PUSH1 0x0 MSTORE PUSH1 0x22 PUSH1 0x4 MSTORE PUSH1 0x24 PUSH1 0x0 REVERT JUMPDEST SWAP2 PUSH1 0x7F AND SWAP2 PUSH2 0x2347 JUMP JUMPDEST PUSH1 0x40 MLOAD SWAP1 PUSH1 0x0 DUP3 PUSH1 0x4 SLOAD SWAP2 PUSH2 0x2386 DUP4 PUSH2 0x2338 JUMP JUMPDEST DUP1 DUP4 MSTORE SWAP3 PUSH1 0x1 DUP2 AND SWAP1 DUP2 ISZERO PUSH2 0x23FA JUMPI POP PUSH1 0x1 EQ PUSH2 0x23AC JUMPI JUMPDEST PUSH2 0x23AA SWAP3 POP SUB DUP4 PUSH2 0x2152 JUMP JUMPDEST JUMP JUMPDEST POP PUSH1 0x4 PUSH1 0x0 SWAP1 DUP2 MSTORE SWAP1 SWAP2 PUSH1 0x0 DUP1 MLOAD PUSH1 0x20 PUSH2 0x2E57 DUP4 CODECOPY DUP2 MLOAD SWAP2 MSTORE JUMPDEST DUP2 DUP4 LT PUSH2 0x23DE JUMPI POP POP SWAP1 PUSH1 0x20 PUSH2 0x23AA SWAP3 DUP3 ADD ADD PUSH2 0x239E JUMP JUMPDEST PUSH1 0x20 SWAP2 SWAP4 POP DUP1 PUSH1 0x1 SWAP2 SLOAD DUP4 DUP6 DUP10 ADD ADD MSTORE ADD SWAP2 ADD SWAP1 SWAP2 DUP5 SWAP3 PUSH2 0x23C6 JUMP JUMPDEST PUSH1 0x20 SWAP3 POP PUSH2 0x23AA SWAP5 SWAP2 POP PUSH1 0xFF NOT AND DUP3 DUP5 ADD MSTORE ISZERO ISZERO PUSH1 0x5 SHL DUP3 ADD ADD PUSH2 0x239E JUMP JUMPDEST PUSH1 0x40 MLOAD SWAP1 PUSH1 0x0 DUP3 PUSH1 0x5 SLOAD SWAP2 PUSH2 0x242D DUP4 PUSH2 0x2338 JUMP JUMPDEST DUP1 DUP4 MSTORE SWAP3 PUSH1 0x1 DUP2 AND SWAP1 DUP2 ISZERO PUSH2 0x23FA JUMPI POP PUSH1 0x1 EQ PUSH2 0x2450 JUMPI PUSH2 0x23AA SWAP3 POP SUB DUP4 PUSH2 0x2152 JUMP JUMPDEST POP PUSH1 0x5 PUSH1 0x0 SWAP1 DUP2 MSTORE SWAP1 SWAP2 PUSH32 0x36B6384B5ECA791C62761152D0C79BB0604C104A5FB6F4EB0703F3154BB3DB0 JUMPDEST DUP2 DUP4 LT PUSH2 0x2494 JUMPI POP POP SWAP1 PUSH1 0x20 PUSH2 0x23AA SWAP3 DUP3 ADD ADD PUSH2 0x239E JUMP JUMPDEST PUSH1 0x20 SWAP2 SWAP4 POP DUP1 PUSH1 0x1 SWAP2 SLOAD DUP4 DUP6 DUP10 ADD ADD MSTORE ADD SWAP2 ADD SWAP1 SWAP2 DUP5 SWAP3 PUSH2 0x247C JUMP JUMPDEST PUSH1 0x40 MLOAD SWAP1 PUSH1 0x0 DUP3 PUSH1 0x6 SLOAD SWAP2 PUSH2 0x24C4 DUP4 PUSH2 0x2338 JUMP JUMPDEST DUP1 DUP4 MSTORE SWAP3 PUSH1 0x1 DUP2 AND SWAP1 DUP2 ISZERO PUSH2 0x23FA JUMPI POP PUSH1 0x1 EQ PUSH2 0x24E7 JUMPI PUSH2 0x23AA SWAP3 POP SUB DUP4 PUSH2 0x2152 JUMP JUMPDEST POP PUSH1 0x6 PUSH1 0x0 SWAP1 DUP2 MSTORE SWAP1 SWAP2 PUSH1 0x0 DUP1 MLOAD PUSH1 0x20 PUSH2 0x2E37 DUP4 CODECOPY DUP2 MLOAD SWAP2 MSTORE JUMPDEST DUP2 DUP4 LT PUSH2 0x2519 JUMPI POP POP SWAP1 PUSH1 0x20 PUSH2 0x23AA SWAP3 DUP3 ADD ADD PUSH2 0x239E JUMP JUMPDEST PUSH1 0x20 SWAP2 SWAP4 POP DUP1 PUSH1 0x1 SWAP2 SLOAD DUP4 DUP6 DUP10 ADD ADD MSTORE ADD SWAP2 ADD SWAP1 SWAP2 DUP5 SWAP3 PUSH2 0x2501 JUMP JUMPDEST PUSH1 0x40 MLOAD SWAP1 PUSH1 0x0 DUP3 PUSH1 0x7 SLOAD SWAP2 PUSH2 0x2549 DUP4 PUSH2 0x2338 JUMP JUMPDEST DUP1 DUP4 MSTORE SWAP3 PUSH1 0x1 DUP2 AND SWAP1 DUP2 ISZERO PUSH2 0x23FA JUMPI POP PUSH1 0x1 EQ PUSH2 0x256C JUMPI PUSH2 0x23AA SWAP3 POP SUB DUP4 PUSH2 0x2152 JUMP JUMPDEST POP PUSH1 0x7 PUSH1 0x0 SWAP1 DUP2 MSTORE SWAP1 SWAP2 PUSH1 0x0 DUP1 MLOAD PUSH1 0x20 PUSH2 0x2DF7 DUP4 CODECOPY DUP2 MLOAD SWAP2 MSTORE JUMPDEST DUP2 DUP4 LT PUSH2 0x259E JUMPI POP POP SWAP1 PUSH1 0x20 PUSH2 0x23AA SWAP3 DUP3 ADD ADD PUSH2 0x239E JUMP JUMPDEST PUSH1 0x20 SWAP2 SWAP4 POP DUP1 PUSH1 0x1 SWAP2 SLOAD DUP4 DUP6 DUP10 ADD ADD MSTORE ADD SWAP2 ADD SWAP1 SWAP2 DUP5 SWAP3 PUSH2 0x2586 JUMP JUMPDEST PUSH1 0x40 MLOAD SWAP1 PUSH1 0x0 DUP3 PUSH1 0x3 SLOAD SWAP2 PUSH2 0x25CE DUP4 PUSH2 0x2338 JUMP JUMPDEST DUP1 DUP4 MSTORE SWAP3 PUSH1 0x1 DUP2 AND SWAP1 DUP2 ISZERO PUSH2 0x23FA JUMPI POP PUSH1 0x1 EQ PUSH2 0x25F1 JUMPI PUSH2 0x23AA SWAP3 POP SUB DUP4 PUSH2 0x2152 JUMP JUMPDEST POP PUSH1 0x3 PUSH1 0x0 SWAP1 DUP2 MSTORE SWAP1 SWAP2 PUSH1 0x0 DUP1 MLOAD PUSH1 0x20 PUSH2 0x2DB7 DUP4 CODECOPY DUP2 MLOAD SWAP2 MSTORE JUMPDEST DUP2 DUP4 LT PUSH2 0x2623 JUMPI POP POP SWAP1 PUSH1 0x20 PUSH2 0x23AA SWAP3 DUP3 ADD ADD PUSH2 0x239E JUMP JUMPDEST PUSH1 0x20 SWAP2 SWAP4 POP DUP1 PUSH1 0x1 SWAP2 SLOAD DUP4 DUP6 DUP10 ADD ADD MSTORE ADD SWAP2 ADD SWAP1 SWAP2 DUP5 SWAP3 PUSH2 0x260B JUMP JUMPDEST PUSH1 0x40 MLOAD SWAP1 PUSH1 0x0 DUP3 PUSH1 0x8 SLOAD SWAP2 PUSH2 0x2653 DUP4 PUSH2 0x2338 JUMP JUMPDEST DUP1 DUP4 MSTORE SWAP3 PUSH1 0x1 DUP2 AND SWAP1 DUP2 ISZERO PUSH2 0x23FA JUMPI POP PUSH1 0x1 EQ PUSH2 0x2676 JUMPI PUSH2 0x23AA SWAP3 POP SUB DUP4 PUSH2 0x2152 JUMP JUMPDEST POP PUSH1 0x8 PUSH1 0x0 SWAP1 DUP2 MSTORE SWAP1 SWAP2 PUSH1 0x0 DUP1 MLOAD PUSH1 0x20 PUSH2 0x2E17 DUP4 CODECOPY DUP2 MLOAD SWAP2 MSTORE JUMPDEST DUP2 DUP4 LT PUSH2 0x26A8 JUMPI POP POP SWAP1 PUSH1 0x20 PUSH2 0x23AA SWAP3 DUP3 ADD ADD PUSH2 0x239E JUMP JUMPDEST PUSH1 0x20 SWAP2 SWAP4 POP DUP1 PUSH1 0x1 SWAP2 SLOAD DUP4 DUP6 DUP10 ADD ADD MSTORE ADD SWAP2 ADD SWAP1 SWAP2 DUP5 SWAP3 PUSH2 0x2690 JUMP JUMPDEST SWAP1 PUSH1 0x40 MLOAD SWAP2 DUP3 PUSH1 0x0 DUP3 SLOAD SWAP3 PUSH2 0x26D8 DUP5 PUSH2 0x2338 JUMP JUMPDEST DUP1 DUP5 MSTORE SWAP4 PUSH1 0x1 DUP2 AND SWAP1 DUP2 ISZERO PUSH2 0x2744 JUMPI POP PUSH1 0x1 EQ PUSH2 0x26FD JUMPI JUMPDEST POP PUSH2 0x23AA SWAP3 POP SUB DUP4 PUSH2 0x2152 JUMP JUMPDEST SWAP1 POP PUSH1 0x0 SWAP3 SWAP2 SWAP3 MSTORE PUSH1 0x20 PUSH1 0x0 KECCAK256 SWAP1 PUSH1 0x0 SWAP2 JUMPDEST DUP2 DUP4 LT PUSH2 0x2728 JUMPI POP POP SWAP1 PUSH1 0x20 PUSH2 0x23AA SWAP3 DUP3 ADD ADD CODESIZE PUSH2 0x26F0 JUMP JUMPDEST PUSH1 0x20 SWAP2 SWAP4 POP DUP1 PUSH1 0x1 SWAP2 SLOAD DUP4 DUP6 DUP10 ADD ADD MSTORE ADD SWAP2 ADD SWAP1 SWAP2 DUP5 SWAP3 PUSH2 0x270F JUMP JUMPDEST SWAP1 POP PUSH1 0x20 SWAP3 POP PUSH2 0x23AA SWAP5 SWAP2 POP PUSH1 0xFF NOT AND DUP3 DUP5 ADD MSTORE ISZERO ISZERO PUSH1 0x5 SHL DUP3 ADD ADD CODESIZE PUSH2 0x26F0 JUMP JUMPDEST ISZERO PUSH2 0x276D JUMPI JUMP JUMPDEST PUSH1 0x40 MLOAD PUSH3 0x461BCD PUSH1 0xE5 SHL DUP2 MSTORE PUSH1 0x20 PUSH1 0x4 DUP3 ADD MSTORE PUSH1 0xC PUSH1 0x24 DUP3 ADD MSTORE PUSH12 0x27B7363C9031B932B0BA37B9 PUSH1 0xA1 SHL PUSH1 0x44 DUP3 ADD MSTORE PUSH1 0x64 SWAP1 REVERT JUMPDEST ISZERO PUSH2 0x27A8 JUMPI JUMP JUMPDEST PUSH1 0x40 MLOAD PUSH3 0x461BCD PUSH1 0xE5 SHL DUP2 MSTORE PUSH1 0x20 PUSH1 0x4 DUP3 ADD MSTORE PUSH1 0xA PUSH1 0x24 DUP3 ADD MSTORE PUSH10 0x456D70747920726F6C65 PUSH1 0xB0 SHL PUSH1 0x44 DUP3 ADD MSTORE PUSH1 0x64 SWAP1 REVERT JUMPDEST ISZERO PUSH2 0x27E1 JUMPI JUMP JUMPDEST PUSH1 0x40 MLOAD PUSH3 0x461BCD PUSH1 0xE5 SHL DUP2 MSTORE PUSH1 0x20 PUSH1 0x4 DUP3 ADD MSTORE PUSH1 0x8 PUSH1 0x24 DUP3 ADD MSTORE PUSH8 0x496E616374697665 PUSH1 0xC0 SHL PUSH1 0x44 DUP3 ADD MSTORE PUSH1 0x64 SWAP1 REVERT JUMPDEST ISZERO PUSH2 0x2818 JUMPI JUMP JUMPDEST PUSH1 0x40 MLOAD PUSH3 0x461BCD PUSH1 0xE5 SHL DUP2 MSTORE PUSH1 0x20 PUSH1 0x4 DUP3 ADD MSTORE PUSH1 0xA PUSH1 0x24 DUP3 ADD MSTORE PUSH10 0x456D7074792064617461 PUSH1 0xB0 SHL PUSH1 0x44 DUP3 ADD MSTORE PUSH1 0x64 SWAP1 REVERT JUMPDEST DUP2 DUP2 LT PUSH2 0x2855 JUMPI POP POP JUMP JUMPDEST PUSH1 0x0 DUP2 SSTORE PUSH1 0x1 ADD PUSH2 0x284A JUMP JUMPDEST DUP2 PUSH1 0x1 SHL SWAP2 PUSH1 0x0 NOT SWAP1 PUSH1 0x3 SHL SHR NOT AND OR SWAP1 JUMP JUMPDEST PUSH1 0x1 PUSH1 0x1 PUSH1 0x40 SHL SUB DUP2 GT PUSH2 0x3E1 JUMPI PUSH1 0x5 SHL PUSH1 0x20 ADD SWAP1 JUMP JUMPDEST SWAP1 PUSH2 0x2895 DUP3 PUSH2 0x2874 JUMP JUMPDEST PUSH2 0x28A2 PUSH1 0x40 MLOAD SWAP2 DUP3 PUSH2 0x2152 JUMP JUMPDEST DUP3 DUP2 MSTORE DUP1 SWAP3 PUSH2 0x28B3 PUSH1 0x1F NOT SWAP2 PUSH2 0x2874 JUMP JUMPDEST ADD SWAP1 PUSH1 0x20 CALLDATASIZE SWAP2 ADD CALLDATACOPY JUMP JUMPDEST DUP1 MLOAD DUP3 LT ISZERO PUSH2 0x22D4 JUMPI PUSH1 0x20 SWAP2 PUSH1 0x5 SHL ADD ADD SWAP1 JUMP JUMPDEST SWAP1 PUSH1 0x40 MLOAD PUSH2 0x28DE DUP2 PUSH2 0x2137 JUMP JUMPDEST PUSH1 0x60 PUSH1 0xFF PUSH1 0x3 DUP4 SWAP6 PUSH1 0x1 DUP1 PUSH1 0xA0 SHL SUB DUP2 SLOAD AND DUP6 MSTORE PUSH2 0x28FE PUSH1 0x1 DUP3 ADD PUSH2 0x26C4 JUMP JUMPDEST PUSH1 0x20 DUP7 ADD MSTORE PUSH1 0x2 DUP2 ADD SLOAD PUSH1 0x40 DUP7 ADD MSTORE ADD SLOAD AND ISZERO ISZERO SWAP2 ADD MSTORE JUMP JUMPDEST ISZERO PUSH2 0x291E JUMPI JUMP JUMPDEST PUSH1 0x40 MLOAD PUSH3 0x461BCD PUSH1 0xE5 SHL DUP2 MSTORE PUSH1 0x20 PUSH1 0x4 DUP3 ADD MSTORE PUSH1 0x13 PUSH1 0x24 DUP3 ADD MSTORE PUSH19 0x139BC81A5B9D9A5D185D1A5BDB88199BDD5B99 PUSH1 0x6A SHL PUSH1 0x44 DUP3 ADD MSTORE PUSH1 0x64 SWAP1 REVERT JUMPDEST PUSH1 0x3 PUSH1 0x0 SWAP2 DUP3 DUP2 SSTORE PUSH1 0x1 DUP2 ADD PUSH2 0x296F DUP2 SLOAD PUSH2 0x2338 JUMP JUMPDEST SWAP1 DUP2 PUSH2 0x2982 JUMPI JUMPDEST POP POP DUP3 PUSH1 0x2 DUP3 ADD SSTORE ADD SSTORE JUMP JUMPDEST DUP2 PUSH1 0x1F DUP7 SWAP4 GT PUSH1 0x1 EQ PUSH2 0x2999 JUMPI POP SSTORE JUMPDEST CODESIZE DUP1 PUSH2 0x2976 JUMP JUMPDEST DUP2 DUP4 MSTORE PUSH1 0x20 DUP4 KECCAK256 PUSH2 0x29B5 SWAP2 PUSH1 0x1F ADD PUSH1 0x5 SHR DUP2 ADD SWAP1 PUSH1 0x1 ADD PUSH2 0x284A JUMP JUMPDEST DUP1 DUP3 MSTORE DUP2 PUSH1 0x20 DUP2 KECCAK256 SWAP2 SSTORE SSTORE PUSH2 0x2992 JUMP JUMPDEST ISZERO PUSH2 0x29CC JUMPI JUMP JUMPDEST PUSH1 0x40 MLOAD PUSH3 0x461BCD PUSH1 0xE5 SHL DUP2 MSTORE PUSH1 0x20 PUSH1 0x4 DUP3 ADD MSTORE PUSH1 0x13 PUSH1 0x24 DUP3 ADD MSTORE PUSH19 0x105B1C9958591E481C185C9D1A58DA5C185B9D PUSH1 0x6A SHL PUSH1 0x44 DUP3 ADD MSTORE PUSH1 0x64 SWAP1 REVERT JUMPDEST DUP2 MLOAD DUP2 SLOAD PUSH1 0x1 PUSH1 0x1 PUSH1 0xA0 SHL SUB NOT AND PUSH1 0x1 PUSH1 0x1 PUSH1 0xA0 SHL SUB SWAP2 SWAP1 SWAP2 AND OR DUP2 SSTORE PUSH1 0x20 DUP3 ADD MLOAD DUP1 MLOAD PUSH1 0x1 DUP4 ADD SWAP2 PUSH1 0x1 PUSH1 0x1 PUSH1 0x40 SHL SUB DUP3 GT PUSH2 0x3E1 JUMPI PUSH2 0x2A48 DUP4 SLOAD PUSH2 0x2338 JUMP JUMPDEST PUSH1 0x1F DUP2 GT PUSH2 0x2B13 JUMPI JUMPDEST POP PUSH1 0x20 SWAP1 PUSH1 0x1F DUP4 GT PUSH1 0x1 EQ PUSH2 0x2AA7 JUMPI DUP3 PUSH1 0x60 SWAP6 SWAP4 PUSH1 0x3 SWAP6 SWAP4 PUSH2 0x2A7B SWAP4 PUSH1 0x0 SWAP3 PUSH2 0x2A9C JUMPI POP POP PUSH2 0x2861 JUMP JUMPDEST SWAP1 SSTORE JUMPDEST PUSH1 0x40 DUP5 ADD MLOAD PUSH1 0x2 DUP3 ADD SSTORE ADD SWAP2 ADD MLOAD ISZERO ISZERO PUSH1 0xFF DUP1 NOT DUP4 SLOAD AND SWAP2 AND OR SWAP1 SSTORE JUMP JUMPDEST ADD MLOAD SWAP1 POP CODESIZE DUP1 PUSH2 0x823 JUMP JUMPDEST SWAP1 PUSH1 0x1F NOT DUP4 AND SWAP2 DUP5 PUSH1 0x0 MSTORE DUP2 PUSH1 0x0 KECCAK256 SWAP3 PUSH1 0x0 JUMPDEST DUP2 DUP2 LT PUSH2 0x2AFB JUMPI POP SWAP3 PUSH1 0x1 SWAP3 DUP6 SWAP3 PUSH1 0x60 SWAP9 SWAP7 PUSH1 0x3 SWAP9 SWAP7 LT PUSH2 0x2AE3 JUMPI JUMPDEST POP POP POP DUP2 SHL ADD SWAP1 SSTORE PUSH2 0x2A7E JUMP JUMPDEST ADD MLOAD PUSH1 0x0 NOT DUP4 DUP9 SHL PUSH1 0xF8 AND SHR NOT AND SWAP1 SSTORE CODESIZE DUP1 DUP1 PUSH2 0x2AD6 JUMP JUMPDEST SWAP3 SWAP4 PUSH1 0x20 PUSH1 0x1 DUP2 SWAP3 DUP8 DUP7 ADD MLOAD DUP2 SSTORE ADD SWAP6 ADD SWAP4 ADD PUSH2 0x2ABA JUMP JUMPDEST PUSH2 0x2B3F SWAP1 DUP5 PUSH1 0x0 MSTORE PUSH1 0x20 PUSH1 0x0 KECCAK256 PUSH1 0x1F DUP6 ADD PUSH1 0x5 SHR DUP2 ADD SWAP2 PUSH1 0x20 DUP7 LT PUSH2 0x8FB JUMPI PUSH1 0x1F ADD PUSH1 0x5 SHR ADD SWAP1 PUSH2 0x284A JUMP JUMPDEST CODESIZE PUSH2 0x2A51 JUMP JUMPDEST PUSH1 0xF SLOAD PUSH1 0x1 PUSH1 0x40 SHL DUP2 LT ISZERO PUSH2 0x3E1 JUMPI DUP1 PUSH1 0x1 PUSH2 0x2B66 SWAP3 ADD PUSH1 0xF SSTORE PUSH1 0xF PUSH2 0x2320 JUMP JUMPDEST DUP2 SLOAD PUSH1 0x1 PUSH1 0x1 PUSH1 0xA0 SHL SUB SWAP4 DUP5 AND PUSH1 0x3 SWAP3 SWAP1 SWAP3 SHL SWAP2 DUP3 SHL SWAP4 SWAP1 SWAP2 SHL NOT AND SWAP2 SWAP1 SWAP2 OR SWAP1 SSTORE JUMP JUMPDEST SWAP3 SWAP2 SWAP1 PUSH2 0x2BA1 PUSH1 0x20 SWAP2 PUSH1 0x40 DUP7 MSTORE PUSH1 0x40 DUP7 ADD SWAP1 PUSH2 0x2211 JUMP JUMPDEST SWAP4 ADD MSTORE JUMP JUMPDEST ISZERO PUSH2 0x2BAD JUMPI JUMP JUMPDEST PUSH1 0x40 MLOAD PUSH3 0x461BCD PUSH1 0xE5 SHL DUP2 MSTORE PUSH1 0x20 PUSH1 0x4 DUP3 ADD MSTORE PUSH1 0xA PUSH1 0x24 DUP3 ADD MSTORE PUSH10 0x139BC81C995C5D595CDD PUSH1 0xB2 SHL PUSH1 0x44 DUP3 ADD MSTORE PUSH1 0x64 SWAP1 REVERT JUMPDEST ISZERO PUSH2 0x2BE6 JUMPI JUMP JUMPDEST PUSH1 0x40 MLOAD PUSH3 0x461BCD PUSH1 0xE5 SHL DUP2 MSTORE PUSH1 0x20 PUSH1 0x4 DUP3 ADD MSTORE PUSH1 0x17 PUSH1 0x24 DUP3 ADD MSTORE PUSH23 0x576569676874206D75737420626520706F736974697665 PUSH1 0x48 SHL PUSH1 0x44 DUP3 ADD MSTORE PUSH1 0x64 SWAP1 REVERT JUMPDEST SWAP1 PUSH2 0x2C57 PUSH1 0x1 DUP1 PUSH1 0xA0 SHL SUB DUP4 AND SWAP3 DUP4 PUSH1 0x0 MSTORE PUSH1 0x10 PUSH1 0x20 MSTORE PUSH2 0x2C4D PUSH2 0x312 PUSH1 0x40 PUSH1 0x0 KECCAK256 SLOAD PUSH2 0x2338 JUMP JUMPDEST PUSH2 0x1FBC PUSH1 0x1 PUSH2 0x2BDF JUMP JUMPDEST PUSH1 0x0 DUP3 DUP2 MSTORE PUSH1 0x10 PUSH1 0x20 MSTORE PUSH1 0x40 SWAP1 KECCAK256 DUP2 MLOAD PUSH1 0x1 PUSH1 0x1 PUSH1 0x40 SHL SUB DUP2 GT PUSH2 0x3E1 JUMPI PUSH2 0x2C7F DUP3 SLOAD PUSH2 0x2338 JUMP JUMPDEST PUSH1 0x1F DUP2 GT PUSH2 0x2D84 JUMPI JUMPDEST POP PUSH1 0x20 PUSH1 0x1F DUP3 GT PUSH1 0x1 EQ PUSH2 0x2D0C JUMPI SWAP2 PUSH2 0x2CBD DUP3 PUSH1 0x0 DUP1 MLOAD PUSH1 0x20 PUSH2 0x2E77 DUP4 CODECOPY DUP2 MLOAD SWAP2 MSTORE SWAP6 SWAP4 PUSH2 0x2CF5 SWAP6 PUSH1 0x0 SWAP2 PUSH2 0x2D01 JUMPI POP PUSH2 0x2861 JUMP JUMPDEST SWAP1 SSTORE JUMPDEST DUP4 PUSH1 0x0 MSTORE PUSH1 0x11 PUSH1 0x20 MSTORE PUSH1 0x1 PUSH1 0x40 PUSH1 0x0 KECCAK256 SSTORE DUP4 PUSH1 0x0 MSTORE PUSH1 0x12 PUSH1 0x20 MSTORE TIMESTAMP PUSH1 0x40 PUSH1 0x0 KECCAK256 SSTORE PUSH1 0x40 MLOAD SWAP2 DUP3 SWAP2 PUSH1 0x40 DUP4 MSTORE PUSH1 0x40 DUP4 ADD SWAP1 PUSH2 0x2211 JUMP JUMPDEST PUSH1 0x1 PUSH1 0x20 DUP4 ADD MSTORE SUB SWAP1 LOG2 JUMP JUMPDEST SWAP1 POP DUP5 ADD MLOAD CODESIZE PUSH2 0xD4E JUMP JUMPDEST PUSH1 0x1F NOT DUP3 AND SWAP1 DUP4 PUSH1 0x0 MSTORE DUP1 PUSH1 0x0 KECCAK256 SWAP2 PUSH1 0x0 JUMPDEST DUP2 DUP2 LT PUSH2 0x2D6C JUMPI POP SWAP3 PUSH2 0x2CF5 SWAP5 SWAP3 PUSH1 0x1 SWAP3 DUP3 PUSH1 0x0 DUP1 MLOAD PUSH1 0x20 PUSH2 0x2E77 DUP4 CODECOPY DUP2 MLOAD SWAP2 MSTORE SWAP9 SWAP7 LT PUSH2 0x2D53 JUMPI JUMPDEST POP POP DUP2 SHL ADD SWAP1 SSTORE PUSH2 0x2CC0 JUMP JUMPDEST DUP6 ADD MLOAD PUSH1 0x0 NOT PUSH1 0xF8 DUP5 PUSH1 0x3 SHL AND SHR NOT AND SWAP1 SSTORE CODESIZE DUP1 PUSH2 0x2D47 JUMP JUMPDEST SWAP2 SWAP3 PUSH1 0x20 PUSH1 0x1 DUP2 SWAP3 DUP7 DUP11 ADD MLOAD DUP2 SSTORE ADD SWAP5 ADD SWAP3 ADD PUSH2 0x2D1E JUMP JUMPDEST PUSH2 0x2DB0 SWAP1 DUP4 PUSH1 0x0 MSTORE PUSH1 0x20 PUSH1 0x0 KECCAK256 PUSH1 0x1F DUP5 ADD PUSH1 0x5 SHR DUP2 ADD SWAP2 PUSH1 0x20 DUP6 LT PUSH2 0x8FB JUMPI PUSH1 0x1F ADD PUSH1 0x5 SHR ADD SWAP1 PUSH2 0x284A JUMP JUMPDEST CODESIZE PUSH2 0x2C88 JUMP INVALID 0xC2 JUMPI GAS 0xE SWAP15 MSIZE EXTCODECOPY STOP 0xF9 MSIZE 0xF8 0xC9 0x2F SLT 0xDB 0x28 PUSH10 0xC3395A3B0502D05E2516 PREVRANDAO PUSH16 0x71F85BC1756FD99AC9A2B1B22B5E701D 0xDB MUL 0x2B DUP10 PUSH27 0x2144D045B77AC35CE46610FEF6A66CC928B5EDB82AF9BD499229 SLOAD ISZERO GAS 0xB7 0xB0 SWAP5 0x26 SWAP5 0xBE LOG4 0xCE PREVRANDAO PUSH7 0x1D9A8736C688F3 0xF7 0xA9 INVALID CALLDATASIZE 0x4F 0xAA 0xB9 EXTCODESIZE 0x21 PUSH14 0xA50A3214154F22A0A2B415B23A84 0xC8 AND SWAP15 DUP12 PUSH4 0x6EE3F652 0x22 0x23 SGT 0xE2 DUP5 MSIZE MSTORE DUP14 SWAP3 SIGNEXTEND PUSH6 0x115C16C04F3E 0xFC DUP3 0xAA 0xED 0xC9 PUSH28 0xE59F3F377C0D3F8A35ACFBC15FF81A39AE7D344FD709F28E8600B4AA DUP13 PUSH6 0xC6B64BFE7FE3 PUSH12 0xD19BBCEEE304AC8D461CB65A 0xC9 0xF6 0xDC CALLDATACOPY 0xBB 0xCB 0x2C 0x2C CALLVALUE 0xC1 SSTORE 0x22 0x4F 0xFB REVERT 0xC4 PUSH22 0x2B89008F73E8C250DF70AFA51C6916B9661D224A47FD SWAP6 PUSH9 0xCB0C1C9D0D49E2E45C 0xC7 0x29 0xA9 DUP8 LOG2 PUSH5 0x6970667358 0x22 SLT KECCAK256 MOD BASEFEE LOG3 0x4B SDIV 0x21 PUSH25 0x3BDECD65399439C98241E1CA767D71326B3ABB42558041A00C PUSH5 0x736F6C6343 STOP ADDMOD SHR STOP CALLER SUB PUSH12 0x6384B5ECA791C62761152D0C PUSH26 0xBB0604C104A5FB6F4EB0703F3154BB3DB0F474A44BBF67E28A60 0xE1 0xE8 SWAP8 PUSH27 0xD7BDF30896D6B88B7C83710A32AD527611994C2575A0E9E593C00 0xF9 MSIZE 0xF8 0xC9 0x2F SLT 0xDB 0x28 PUSH10 0xC3395A3B0502D05E2516 PREVRANDAO PUSH16 0x71F85BA26469706673582212203DD66E 0xC6 SAR 0xBE LT 0xB4 0xC4 DUP16 DUP1 MLOAD 0xD6 SWAP9 DUP6 0x26 0xEB MLOAD BLOBBASEFEE 0xE0 DUP16 EXP DUP3 0xED BASEFEE GASPRICE CALLDATASIZE 0xCA 0x4D MSTORE PUSH13 0x164736F6C634300081C003300 "},"methodIdentifiers":{"allProjects(uint256)":"53b3194c","checkIsDALProject(address)":"f0f847d6","checkIsProject(address)":"3f3c9833","createCustomProject(string)":"eabec3a3","createProjectFromTemplate(uint256,string)":"4780f786","dalProjects(uint256)":"9c1fa044","getAllProjects()":"80d03829","getDALProjectCount()":"f4d32852","getDALProjects()":"bb3098ff","getProjectCount()":"3bcff3b0","getUserProjectCount(address)":"a375728a","getUserProjects(address)":"e32e723c","isDALProject(address)":"0e9eb496","isProject(address)":"05c81408","templateRegistry()":"a0af81f0","userProjects(address,uint256)":"2fa9c007"}}}}}