{"contracts/ALProject.sol":{"ALProject":{"abi":[{"inputs":[{"internalType":"address","name":"_creator","type":"address"},{"internalType":"string","name":"_projectData","type":"string"}],"stateMutability":"nonpayable","type":"constructor"},{"anonymous":false,"inputs":[{"indexed":false,"internalType":"uint256","name":"round","type":"uint256"},{"indexed":false,"internalType":"uint256","name":"completedSamples","type":"uint256"},{"indexed":false,"internalType":"uint256","name":"timestamp","type":"uint256"}],"name":"ALBatchCompleted","type":"event"},{"anonymous":false,"inputs":[{"indexed":false,"internalType":"uint256","name":"round","type":"uint256"},{"indexed":false,"internalType":"uint256","name":"sampleCount","type":"uint256"},{"indexed":false,"internalType":"uint256","name":"timestamp","type":"uint256"}],"name":"ALBatchStarted","type":"event"},{"anonymous":false,"inputs":[{"indexed":false,"internalType":"address","name":"votingContract","type":"address"},{"indexed":false,"internalType":"address","name":"storageContract","type":"address"}],"name":"ALContractsDeployed","type":"event"},{"anonymous":false,"inputs":[{"indexed":false,"internalType":"uint256","name":"round","type":"uint256"},{"indexed":false,"internalType":"string","name":"reason","type":"string"},{"indexed":false,"internalType":"uint256","name":"timestamp","type":"uint256"}],"name":"ALRoundTriggered","type":"event"},{"anonymous":false,"inputs":[{"indexed":false,"internalType":"string","name":"sampleId","type":"string"},{"indexed":false,"internalType":"string","name":"label","type":"string"},{"indexed":false,"internalType":"uint256","name":"round","type":"uint256"},{"indexed":false,"internalType":"uint256","name":"timestamp","type":"uint256"}],"name":"AutoLabelStored","type":"event"},{"anonymous":false,"inputs":[{"indexed":true,"internalType":"address","name":"updater","type":"address"},{"indexed":false,"internalType":"string","name":"rocrateHashFinal","type":"string"},{"indexed":false,"internalType":"uint256","name":"timestamp","type":"uint256"}],"name":"FinalROCrateHashUpdated","type":"event"},{"anonymous":false,"inputs":[{"indexed":true,"internalType":"address","name":"invitee","type":"address"},{"indexed":true,"internalType":"address","name":"project","type":"address"},{"indexed":false,"internalType":"uint256","name":"timestamp","type":"uint256"}],"name":"InvitationAccepted","type":"event"},{"anonymous":false,"inputs":[{"indexed":true,"internalType":"address","name":"invitee","type":"address"},{"indexed":true,"internalType":"address","name":"project","type":"address"},{"indexed":false,"internalType":"uint256","name":"timestamp","type":"uint256"}],"name":"InvitationRejected","type":"event"},{"anonymous":false,"inputs":[{"indexed":true,"internalType":"address","name":"invitee","type":"address"},{"indexed":true,"internalType":"address","name":"inviter","type":"address"},{"indexed":false,"internalType":"string","name":"role","type":"string"},{"indexed":false,"internalType":"uint256","name":"timestamp","type":"uint256"}],"name":"InvitationSent","type":"event"},{"anonymous":false,"inputs":[{"indexed":true,"internalType":"address","name":"requester","type":"address"},{"indexed":true,"internalType":"address","name":"approver","type":"address"},{"indexed":false,"internalType":"uint256","name":"timestamp","type":"uint256"}],"name":"JoinRequestApproved","type":"event"},{"anonymous":false,"inputs":[{"indexed":true,"internalType":"address","name":"requester","type":"address"},{"indexed":true,"internalType":"address","name":"rejector","type":"address"},{"indexed":false,"internalType":"uint256","name":"timestamp","type":"uint256"}],"name":"JoinRequestRejected","type":"event"},{"anonymous":false,"inputs":[{"indexed":true,"internalType":"address","name":"requester","type":"address"},{"indexed":false,"internalType":"string","name":"role","type":"string"},{"indexed":false,"internalType":"uint256","name":"timestamp","type":"uint256"}],"name":"JoinRequestSubmitted","type":"event"},{"anonymous":false,"inputs":[{"indexed":true,"internalType":"address","name":"participant","type":"address"},{"indexed":false,"internalType":"string","name":"role","type":"string"},{"indexed":false,"internalType":"uint256","name":"weight","type":"uint256"}],"name":"ParticipantAutoAdded","type":"event"},{"anonymous":false,"inputs":[{"indexed":true,"internalType":"address","name":"participant","type":"address"},{"indexed":false,"internalType":"string","name":"role","type":"string"},{"indexed":false,"internalType":"uint256","name":"weight","type":"uint256"}],"name":"ParticipantUpdated","type":"event"},{"anonymous":false,"inputs":[{"indexed":true,"internalType":"address","name":"creator","type":"address"},{"indexed":false,"internalType":"uint256","name":"timestamp","type":"uint256"}],"name":"ProjectCreated","type":"event"},{"anonymous":false,"inputs":[{"indexed":true,"internalType":"address","name":"creator","type":"address"},{"indexed":false,"internalType":"uint256","name":"timestamp","type":"uint256"}],"name":"ProjectDeactivated","type":"event"},{"anonymous":false,"inputs":[{"indexed":true,"internalType":"address","name":"trigger","type":"address"},{"indexed":false,"internalType":"string","name":"reason","type":"string"},{"indexed":false,"internalType":"uint256","name":"currentRound","type":"uint256"},{"indexed":false,"internalType":"uint256","name":"timestamp","type":"uint256"}],"name":"ProjectEndTriggered","type":"event"},{"anonymous":false,"inputs":[{"indexed":true,"internalType":"address","name":"creator","type":"address"},{"indexed":false,"internalType":"uint256","name":"timestamp","type":"uint256"}],"name":"ProjectReactivated","type":"event"},{"anonymous":false,"inputs":[{"indexed":true,"internalType":"address","name":"updater","type":"address"},{"indexed":false,"internalType":"uint256","name":"timestamp","type":"uint256"}],"name":"ProjectUpdated","type":"event"},{"anonymous":false,"inputs":[{"indexed":false,"internalType":"uint256","name":"newRound","type":"uint256"}],"name":"RoundIncremented","type":"event"},{"anonymous":false,"inputs":[{"indexed":false,"internalType":"string","name":"sampleId","type":"string"},{"indexed":false,"internalType":"address","name":"voter","type":"address"},{"indexed":false,"internalType":"string","name":"label","type":"string"},{"indexed":false,"internalType":"uint256","name":"timestamp","type":"uint256"}],"name":"VoteSubmitted","type":"event"},{"anonymous":false,"inputs":[{"indexed":false,"internalType":"uint256","name":"round","type":"uint256"},{"indexed":false,"internalType":"uint256","name":"voterCount","type":"uint256"},{"indexed":false,"internalType":"uint256","name":"timestamp","type":"uint256"}],"name":"VotersUpdated","type":"event"},{"anonymous":false,"inputs":[{"indexed":false,"internalType":"string","name":"sampleId","type":"string"},{"indexed":false,"internalType":"string","name":"finalLabel","type":"string"},{"indexed":false,"internalType":"uint256","name":"round","type":"uint256"},{"indexed":false,"internalType":"uint256","name":"timestamp","type":"uint256"}],"name":"VotingSessionEnded","type":"event"},{"anonymous":false,"inputs":[{"indexed":false,"internalType":"string","name":"sampleId","type":"string"},{"indexed":false,"internalType":"uint256","name":"round","type":"uint256"},{"indexed":false,"internalType":"uint256","name":"timeout","type":"uint256"},{"indexed":false,"internalType":"uint256","name":"timestamp","type":"uint256"}],"name":"VotingSessionStarted","type":"event"},{"inputs":[],"name":"acceptInvitation","outputs":[],"stateMutability":"nonpayable","type":"function"},{"inputs":[{"internalType":"address","name":"_participant","type":"address"}],"name":"addParticipant","outputs":[],"stateMutability":"nonpayable","type":"function"},{"inputs":[{"internalType":"address","name":"_participant","type":"address"},{"internalType":"string","name":"_role","type":"string"},{"internalType":"uint256","name":"_weight","type":"uint256"}],"name":"addParticipantWithRole","outputs":[],"stateMutability":"nonpayable","type":"function"},{"inputs":[],"name":"alScenario","outputs":[{"internalType":"string","name":"","type":"string"}],"stateMutability":"view","type":"function"},{"inputs":[{"internalType":"address","name":"_requester","type":"address"}],"name":"approveJoinRequest","outputs":[],"stateMutability":"nonpayable","type":"function"},{"inputs":[],"name":"createdAt","outputs":[{"internalType":"uint256","name":"","type":"uint256"}],"stateMutability":"view","type":"function"},{"inputs":[],"name":"creator","outputs":[{"internalType":"address","name":"","type":"address"}],"stateMutability":"view","type":"function"},{"inputs":[],"name":"currentRound","outputs":[{"internalType":"uint256","name":"","type":"uint256"}],"stateMutability":"view","type":"function"},{"inputs":[],"name":"deactivateProject","outputs":[],"stateMutability":"nonpayable","type":"function"},{"inputs":[],"name":"description","outputs":[{"internalType":"string","name":"","type":"string"}],"stateMutability":"view","type":"function"},{"inputs":[{"internalType":"uint256","name":"round","type":"uint256"}],"name":"endBatchVoting","outputs":[],"stateMutability":"nonpayable","type":"function"},{"inputs":[],"name":"endTime","outputs":[{"internalType":"uint256","name":"","type":"uint256"}],"stateMutability":"view","type":"function"},{"inputs":[],"name":"getALConfiguration","outputs":[{"internalType":"string","name":"_queryStrategy","type":"string"},{"internalType":"string","name":"_alScenario","type":"string"},{"internalType":"uint256","name":"_maxIteration","type":"uint256"},{"internalType":"uint256","name":"_currentRound","type":"uint256"},{"internalType":"uint256","name":"_queryBatchSize","type":"uint256"},{"internalType":"uint256","name":"_votingTimeout","type":"uint256"},{"internalType":"string[]","name":"_labelSpace","type":"string[]"}],"stateMutability":"view","type":"function"},{"inputs":[],"name":"getALProjectMetadata","outputs":[{"internalType":"string","name":"_title","type":"string"},{"internalType":"string","name":"_description","type":"string"},{"internalType":"address","name":"_owner","type":"address"},{"internalType":"string","name":"_projectType","type":"string"},{"internalType":"string","name":"_rocrateHash","type":"string"},{"internalType":"uint256","name":"_start","type":"uint256"},{"internalType":"uint256","name":"_end","type":"uint256"},{"internalType":"string","name":"_queryStrategy","type":"string"},{"internalType":"string","name":"_alScenario","type":"string"},{"internalType":"uint256","name":"_maxIteration","type":"uint256"},{"internalType":"uint256","name":"_queryBatchSize","type":"uint256"},{"internalType":"string[]","name":"_labelSpace","type":"string[]"}],"stateMutability":"view","type":"function"},{"inputs":[],"name":"getAllParticipants","outputs":[{"internalType":"address[]","name":"participantAddresses","type":"address[]"},{"internalType":"string[]","name":"roles","type":"string[]"},{"internalType":"uint256[]","name":"weights","type":"uint256[]"},{"internalType":"uint256[]","name":"joinTimestamps","type":"uint256[]"}],"stateMutability":"view","type":"function"},{"inputs":[],"name":"getCreator","outputs":[{"internalType":"address","name":"","type":"address"}],"stateMutability":"view","type":"function"},{"inputs":[],"name":"getCurrentBatchSampleIds","outputs":[{"internalType":"string[]","name":"","type":"string[]"}],"stateMutability":"view","type":"function"},{"inputs":[],"name":"getFinalROCrateHash","outputs":[{"internalType":"string","name":"","type":"string"}],"stateMutability":"view","type":"function"},{"inputs":[{"internalType":"address","name":"_invitee","type":"address"}],"name":"getInvitation","outputs":[{"internalType":"address","name":"invitee","type":"address"},{"internalType":"string","name":"role","type":"string"},{"internalType":"uint256","name":"timestamp","type":"uint256"},{"internalType":"bool","name":"exists","type":"bool"}],"stateMutability":"view","type":"function"},{"inputs":[],"name":"getIsActive","outputs":[{"internalType":"bool","name":"","type":"bool"}],"stateMutability":"view","type":"function"},{"inputs":[{"internalType":"address","name":"_requester","type":"address"}],"name":"getJoinRequest","outputs":[{"internalType":"address","name":"requester","type":"address"},{"internalType":"string","name":"role","type":"string"},{"internalType":"uint256","name":"timestamp","type":"uint256"},{"internalType":"bool","name":"exists","type":"bool"}],"stateMutability":"view","type":"function"},{"inputs":[{"internalType":"address","name":"_participant","type":"address"}],"name":"getParticipantRole","outputs":[{"internalType":"string","name":"","type":"string"}],"stateMutability":"view","type":"function"},{"inputs":[],"name":"getProjectData","outputs":[{"internalType":"string","name":"","type":"string"}],"stateMutability":"view","type":"function"},{"inputs":[],"name":"getProjectMetadata","outputs":[{"internalType":"string","name":"_title","type":"string"},{"internalType":"string","name":"_description","type":"string"},{"internalType":"address","name":"_owner","type":"address"},{"internalType":"string","name":"_projectType","type":"string"},{"internalType":"string","name":"_rocrateHash","type":"string"},{"internalType":"uint256","name":"_start","type":"uint256"},{"internalType":"uint256","name":"_end","type":"uint256"}],"stateMutability":"view","type":"function"},{"inputs":[],"name":"getProjectStatus","outputs":[{"internalType":"bool","name":"active","type":"bool"},{"internalType":"uint256","name":"created","type":"uint256"},{"internalType":"uint256","name":"modified","type":"uint256"},{"internalType":"address","name":"projectCreator","type":"address"}],"stateMutability":"view","type":"function"},{"inputs":[],"name":"getTimestamps","outputs":[{"internalType":"uint256","name":"created","type":"uint256"},{"internalType":"uint256","name":"modified","type":"uint256"}],"stateMutability":"view","type":"function"},{"inputs":[],"name":"hasALContracts","outputs":[{"internalType":"bool","name":"","type":"bool"}],"stateMutability":"view","type":"function"},{"inputs":[],"name":"incrementRound","outputs":[],"stateMutability":"nonpayable","type":"function"},{"inputs":[{"internalType":"address","name":"","type":"address"}],"name":"invitations","outputs":[{"internalType":"address","name":"invitee","type":"address"},{"internalType":"string","name":"role","type":"string"},{"internalType":"uint256","name":"timestamp","type":"uint256"},{"internalType":"bool","name":"exists","type":"bool"}],"stateMutability":"view","type":"function"},{"inputs":[{"internalType":"uint256","name":"","type":"uint256"}],"name":"invitees","outputs":[{"internalType":"address","name":"","type":"address"}],"stateMutability":"view","type":"function"},{"inputs":[],"name":"isActive","outputs":[{"internalType":"bool","name":"","type":"bool"}],"stateMutability":"view","type":"function"},{"inputs":[{"internalType":"string","name":"sampleId","type":"string"}],"name":"isSampleActive","outputs":[{"internalType":"bool","name":"","type":"bool"}],"stateMutability":"view","type":"function"},{"inputs":[{"internalType":"address","name":"","type":"address"}],"name":"joinRequests","outputs":[{"internalType":"address","name":"requester","type":"address"},{"internalType":"string","name":"role","type":"string"},{"internalType":"uint256","name":"timestamp","type":"uint256"},{"internalType":"bool","name":"exists","type":"bool"}],"stateMutability":"view","type":"function"},{"inputs":[{"internalType":"address","name":"","type":"address"}],"name":"joinedAt","outputs":[{"internalType":"uint256","name":"","type":"uint256"}],"stateMutability":"view","type":"function"},{"inputs":[{"internalType":"uint256","name":"","type":"uint256"}],"name":"labelSpace","outputs":[{"internalType":"string","name":"","type":"string"}],"stateMutability":"view","type":"function"},{"inputs":[],"name":"lastModified","outputs":[{"internalType":"uint256","name":"","type":"uint256"}],"stateMutability":"view","type":"function"},{"inputs":[],"name":"maxIteration","outputs":[{"internalType":"uint256","name":"","type":"uint256"}],"stateMutability":"view","type":"function"},{"inputs":[],"name":"needsALDeployment","outputs":[{"internalType":"bool","name":"","type":"bool"}],"stateMutability":"view","type":"function"},{"inputs":[],"name":"notifyUnlabeledSamplesExhausted","outputs":[],"stateMutability":"nonpayable","type":"function"},{"inputs":[{"internalType":"string","name":"sampleId","type":"string"},{"internalType":"string","name":"finalLabel","type":"string"}],"name":"notifyVotingSessionEnded","outputs":[],"stateMutability":"nonpayable","type":"function"},{"inputs":[{"internalType":"string","name":"sampleId","type":"string"}],"name":"notifyVotingSessionStarted","outputs":[],"stateMutability":"nonpayable","type":"function"},{"inputs":[{"internalType":"address","name":"","type":"address"}],"name":"participantRoles","outputs":[{"internalType":"string","name":"","type":"string"}],"stateMutability":"view","type":"function"},{"inputs":[{"internalType":"address","name":"","type":"address"}],"name":"participantWeights","outputs":[{"internalType":"uint256","name":"","type":"uint256"}],"stateMutability":"view","type":"function"},{"inputs":[{"internalType":"uint256","name":"","type":"uint256"}],"name":"participants","outputs":[{"internalType":"address","name":"","type":"address"}],"stateMutability":"view","type":"function"},{"inputs":[],"name":"projectData","outputs":[{"internalType":"string","name":"","type":"string"}],"stateMutability":"view","type":"function"},{"inputs":[],"name":"projectType","outputs":[{"internalType":"string","name":"","type":"string"}],"stateMutability":"view","type":"function"},{"inputs":[],"name":"queryBatchSize","outputs":[{"internalType":"uint256","name":"","type":"uint256"}],"stateMutability":"view","type":"function"},{"inputs":[],"name":"queryStrategy","outputs":[{"internalType":"string","name":"","type":"string"}],"stateMutability":"view","type":"function"},{"inputs":[],"name":"reactivateProject","outputs":[],"stateMutability":"nonpayable","type":"function"},{"inputs":[{"internalType":"string","name":"sampleId","type":"string"},{"internalType":"string","name":"label","type":"string"}],"name":"receiveFinalLabelFromVoting","outputs":[],"stateMutability":"nonpayable","type":"function"},{"inputs":[],"name":"rejectInvitation","outputs":[],"stateMutability":"nonpayable","type":"function"},{"inputs":[{"internalType":"address","name":"_requester","type":"address"}],"name":"rejectJoinRequest","outputs":[],"stateMutability":"nonpayable","type":"function"},{"inputs":[{"internalType":"uint256","name":"","type":"uint256"}],"name":"requesters","outputs":[{"internalType":"address","name":"","type":"address"}],"stateMutability":"view","type":"function"},{"inputs":[],"name":"rocrateHash","outputs":[{"internalType":"string","name":"","type":"string"}],"stateMutability":"view","type":"function"},{"inputs":[],"name":"rocrateHashFinal","outputs":[{"internalType":"string","name":"","type":"string"}],"stateMutability":"view","type":"function"},{"inputs":[{"internalType":"address","name":"_invitee","type":"address"},{"internalType":"string","name":"_role","type":"string"}],"name":"sendInvitation","outputs":[],"stateMutability":"nonpayable","type":"function"},{"inputs":[{"internalType":"string","name":"_rocrateHashFinal","type":"string"}],"name":"setFinalROCrateHash","outputs":[],"stateMutability":"nonpayable","type":"function"},{"inputs":[{"internalType":"string","name":"_title","type":"string"},{"internalType":"string","name":"_description","type":"string"},{"internalType":"string","name":"_projectType","type":"string"},{"internalType":"string","name":"_rocrateHash","type":"string"}],"name":"setProjectMetadata","outputs":[],"stateMutability":"nonpayable","type":"function"},{"inputs":[{"internalType":"uint256","name":"_start","type":"uint256"},{"internalType":"uint256","name":"_end","type":"uint256"}],"name":"setStartAndEndTime","outputs":[],"stateMutability":"nonpayable","type":"function"},{"inputs":[{"internalType":"address","name":"_votingContract","type":"address"},{"internalType":"address","name":"_storageContract","type":"address"},{"internalType":"string","name":"_queryStrategy","type":"string"},{"internalType":"string","name":"_alScenario","type":"string"},{"internalType":"uint256","name":"_maxIteration","type":"uint256"},{"internalType":"uint256","name":"_queryBatchSize","type":"uint256"},{"internalType":"string[]","name":"_labelSpace","type":"string[]"},{"internalType":"string","name":"_rocrateHash","type":"string"}],"name":"setupALProject","outputs":[],"stateMutability":"nonpayable","type":"function"},{"inputs":[],"name":"shouldProjectEnd","outputs":[{"internalType":"bool","name":"shouldEnd","type":"bool"},{"internalType":"string","name":"reason","type":"string"}],"stateMutability":"view","type":"function"},{"inputs":[{"internalType":"string[]","name":"sampleIds","type":"string[]"},{"internalType":"string[]","name":"sampleDataHashes","type":"string[]"}],"name":"startBatchVoting","outputs":[],"stateMutability":"nonpayable","type":"function"},{"inputs":[],"name":"startTime","outputs":[{"internalType":"uint256","name":"","type":"uint256"}],"stateMutability":"view","type":"function"},{"inputs":[],"name":"storageContract","outputs":[{"internalType":"address","name":"","type":"address"}],"stateMutability":"view","type":"function"},{"inputs":[{"internalType":"string","name":"sampleId","type":"string"},{"internalType":"string","name":"label","type":"string"},{"internalType":"uint256","name":"round","type":"uint256"}],"name":"storeFinalLabel","outputs":[],"stateMutability":"nonpayable","type":"function"},{"inputs":[{"internalType":"string[]","name":"sampleIds","type":"string[]"},{"internalType":"string[]","name":"labels","type":"string[]"}],"name":"submitBatchVote","outputs":[],"stateMutability":"nonpayable","type":"function"},{"inputs":[{"internalType":"string","name":"_role","type":"string"}],"name":"submitJoinRequest","outputs":[],"stateMutability":"nonpayable","type":"function"},{"inputs":[],"name":"title","outputs":[{"internalType":"string","name":"","type":"string"}],"stateMutability":"view","type":"function"},{"inputs":[{"internalType":"string","name":"reason","type":"string"}],"name":"triggerNextRound","outputs":[],"stateMutability":"nonpayable","type":"function"},{"inputs":[],"name":"unlabeledSamplesExhausted","outputs":[{"internalType":"bool","name":"","type":"bool"}],"stateMutability":"view","type":"function"},{"inputs":[{"internalType":"address","name":"_participant","type":"address"},{"internalType":"string","name":"_role","type":"string"},{"internalType":"uint256","name":"_weight","type":"uint256"}],"name":"updateParticipant","outputs":[],"stateMutability":"nonpayable","type":"function"},{"inputs":[{"internalType":"string","name":"_newProjectData","type":"string"}],"name":"updateProjectData","outputs":[],"stateMutability":"nonpayable","type":"function"},{"inputs":[{"internalType":"string","name":"_newProjectData","type":"string"}],"name":"updateProjectDataAfterAcceptance","outputs":[],"stateMutability":"nonpayable","type":"function"},{"inputs":[{"internalType":"string","name":"_rocrateHash","type":"string"}],"name":"updateROCrateHash","outputs":[],"stateMutability":"nonpayable","type":"function"},{"inputs":[],"name":"votingContract","outputs":[{"internalType":"address","name":"","type":"address"}],"stateMutability":"view","type":"function"},{"inputs":[],"name":"votingTimeout","outputs":[{"internalType":"uint256","name":"","type":"uint256"}],"stateMutability":"view","type":"function"}],"evm":{"bytecode":{"linkReferences":{},"object":"6080604052346103cb5761554680380380610019816103d0565b9283398101906040818303126103cb5780516001600160a01b03811691908290036103cb576020810151906001600160401b0382116103cb570182601f820112156103cb578051906001600160401b0382116102a457610082601f8301601f19166020016103d0565b93828552602083830101116103cb5760005b8281106103b657505060206000918401015281511561038457600080546001600160a01b0319168217905581516001600160401b0381116102a4576100da6003546103f5565b601f811161032a575b50602092601f82116001146102c557928192936000926102ba575b50508160011b916000199060031b1c1916176003555b4260018190556002556000805460ff60a01b1916600160a01b179055600f54680100000000000000008110156102a4576001810180600f5581101561028e577f8d1108e10bcb7c27dddfc02ed9d693a074039d026cf4ea4240b40f7d581ac8020180546001600160a01b031916821790556000818152601060205260409020805461019e906103f5565b601f811161026c575b50600e6631b932b0ba37b960c91b019055806000526011602052600160406000205580600052601260205242604060002055807f20bfd29f3d906f96fc35742fac45a554b19cbd4e21f8c4c1d84cb58fdfc32c896020604051428152a27fbceee304ac8d461cb65ac9f6dc37bbcb2c2c34c155224ffbfdc4752b89008f73608060405160408152600760408201526631b932b0ba37b960c91b606082015260016020820152a2610e1060185560ff19601e5416601e556040516150ff90816104478239f35b6102889082600052601f6020600020910160051c81019061042f565b386101a7565b634e487b7160e01b600052603260045260246000fd5b634e487b7160e01b600052604160045260246000fd5b0151905038806100fe565b601f198216936003600052806000209160005b86811061031257508360019596106102f9575b505050811b01600355610114565b015160001960f88460031b161c191690553880806102eb565b919260206001819286850151815501940192016102d8565b6003600052610374907fc2575a0e9e593c00f959f8c92f12db2869c3395a3b0502d05e2516446f71f85b601f840160051c8101916020851061037a575b601f0160051c019061042f565b386100e3565b9091508190610367565b60405162461bcd60e51b815260206004820152600a602482015269456d707479206461746160b01b6044820152606490fd5b80602080928401015182828801015201610094565b600080fd5b6040519190601f01601f191682016001600160401b038111838210176102a457604052565b90600182811c92168015610425575b602083101461040f57565b634e487b7160e01b600052602260045260246000fd5b91607f1691610404565b81811061043a575050565b6000815560010161042f56fe608080604052600436101561001357600080fd5b600090813560e01c90816302d05d3f146135b957508063040023d6146135025780630ee2cb10146134db57806310218f4d1461347e57806311ce0267146134555780631633e06214612f64578063195ec9ee14612de657806319b2122714612d615780631af9fd1714612c8c578063211a85e61461290557806322f3e2d4146128e057806329f5e65a146126e65780632b17b8be146126af5780633197cbb61461269157806332c6afd01461262057806335c1d349146125f5578063383e1a5e1461259257806343862d231461256e578063461e198b1461248d5780634a79d50c1461246957806355b31b551461158f57806358f43f761461241957806359abbfe4146123f45780635bb06c0b14611e895780635cf5a05814610ded5780635e1a6c1714611e5e5780636ac4e50e14611dde5780636c86d12414611dbb5780637284e41614611d97578063728f111214611cd457806372a1c45d14611b6c57806377c39c2114611b4e5780637847f1de1461197357806378e979251461195557806379ec4f19146118dd5780637a83a44b146118b85780637c13f6cf146118805780637f52cadc1461185c57806380a8c849146117be57806384958fc3146115d15780638a19c8bc146115b35780639c0768b31461158f578063a07401841461156b578063a6ea915b146114a9578063ab34c9e914611470578063b0611068146113a3578063b0942ce514611385578063b2be4d6514611209578063b568647914611172578063b70825dc1461112e578063b8c3903414611066578063b9be92f914610f68578063bbffd04c14610e5c578063c1fc006a14610e33578063c2e4fe5a14610ded578063c2fc0d2614610dc9578063c3a4b41a14610d83578063c3feda1714610cd5578063c47d172414610838578063c4b192f714610c7c578063c6765d2814610bd5578063cf09e0d014610bb7578063d2291e1114610b2f578063d64c58a714610af6578063dfafe10f14610a94578063dfb748aa146109cd578063e03083231461096b578063e1d5a2c8146108bb578063e7aa3afc14610877578063e807c0b214610838578063eed016be146106c8578063ef21310614610653578063f1bc33b414610635578063f7267cfd14610617578063f75eade01461038c5763fba7cc791461036557600080fd5b3461038957806003193601126103895760ff6020915460a01c166040519015158152f35b80fd5b5034610389576040366003190112610389576103a66135dd565b6024356001600160401b038111610613576103c5903690600401613667565b825490916001600160a01b038216916103ef9060ff906103e6338614613e82565b60a01c166142c9565b6001600160a01b03169081156105d457811461059757808352600c60205260ff6003604085200154166105565761042882511515613ebd565b808352601060205261044661044060408520546139ff565b15613ef6565b61047c604051610455816135f8565b82815283602082015242604082015260016060820152828552600c60205260408520614733565b8283600e54905b818110610521575b5050156104cb575b7f07501885e0e140e0232eed19016a41bde16b8de699d11e7a461f88d6ba58a9cd604051806104c533954290836142ad565b0390a380f35b600e54600160401b81101561050d578060016104ec9201600e55600e6139e7565b81546001600160a01b0360039290921b91821b19169083901b179055610493565b634e487b7160e01b84526041600452602484fd5b8361052b826139cc565b905460039190911b1c6001600160a01b03161461054a57600101610483565b5050506001388061048b565b60405162461bcd60e51b8152602060048201526019602482015278496e7669746174696f6e20616c72656164792065786973747360381b6044820152606490fd5b60405162461bcd60e51b815260206004820152601560248201527421b0b73737ba1034b73b34ba329031b932b0ba37b960591b6044820152606490fd5b60405162461bcd60e51b8152602060048201526017602482015276496e76616c696420696e7669746565206164647265737360481b6044820152606490fd5b8280fd5b50346103895780600319360112610389576020600254604051908152f35b50346103895780600319360112610389576020601854604051908152f35b5034610389576020366003190112610389576040906001600160a01b036106786135dd565b168152600b6020522060018060a01b038154166106c4604051926106aa846106a38160018501613dff565b0385613629565b60ff60036002830154920154169060405194859485613932565b0390f35b5034610389576106d736613789565b6106eb60018060a01b038454163314613e82565b601b546001600160a01b031690610703821515614339565b8251156107fe57601d54600181018091116107ea579081859392601d55610728614d8a565b823b156107e6576107749284928360405180968195829463579bdae360e11b84526060600485015261075d606485018d61385b565b91602485015260031984830301604485015261385b565b03925af180156107db576107c2575b507f24c323b0138f1f608c855cccb8550ac649c15bf3cea39b8fdbde80d33258a74f82601d5490516107bc60405192839242918461451e565b0390a180f35b816107cc91613629565b6107d7578138610783565b5080fd5b6040513d84823e3d90fd5b8380fd5b634e487b7160e01b85526011600452602485fd5b60405162461bcd60e51b815260206004820152601260248201527108adae0e8f240e6c2dae0d8ca40c4c2e8c6d60731b6044820152606490fd5b50346103895780600319360112610389576106c46040516108638161085c81613d8c565b0382613629565b604051918291602083526020830190613836565b503461038957806003193601126103895760809054600154906002546040519260ff8360a01c16151584526020840152604083015260018060a01b03166060820152f35b5034610389578060031936011261038957601b546001600160a01b0316330361093857806040516108ed602082613629565b52601d546001810180911161092457602081600080516020614fea83398151915292601d55604051908152a1610921614d8a565b80f35b634e487b7160e01b82526011600452602482fd5b60405162461bcd60e51b815260206004820152600b60248201526a4f6e6c7920766f74696e6760a81b6044820152606490fd5b503461038957602036600319011261038957600435906001600160401b03821161038957602060ff6109b7826109a43660048801613667565b8160405193828580945193849201613813565b8101601a81520301902054166040519015158152f35b5034610389576020366003190112610389576109e76135dd565b6109fb60018060a01b038354163314613e82565b610a50610a4460018060a01b03831692838552600b602052610a2660ff6003604088200154166149d2565b838552600b602052610a4b6001604087200160405193848092613dff565b0383613629565b614e6c565b808252600b602052610a6460408320614614565b604051904282527f423eb00b6a18c3ecfc2170a0e40ef0bad995279070614ba2e4be1b94f67eb88860203393a380f35b503461038957602036600319011261038957610921610ab16135dd565b610ac560018060a01b038454163314613e82565b6001600160a01b038116835260106020526040832054610ae890610440906139ff565b610af06143fa565b90614e6c565b5034610389576020366003190112610389576020906040906001600160a01b03610b1e6135dd565b168152601183522054604051908152f35b5034610389578060031936011261038957601954610b4c816136f4565b91610b5a6040519384613629565b818352601981526000805160206150aa833981519152602084015b838310610b9257604051602080825281906106c49082018861385b565b600160208192604051610ba98161085c8189613dff565b815201920192019190610b75565b50346103895780600319360112610389576020600154604051908152f35b5034610389576020366003190112610389576004356001600160401b0381116107d757610c09610c49913690600401613667565b610c1960ff845460a01c166142c9565b610c2581511515614300565b3383526010602052610c44610c3d60408520546139ff565b1515614423565b613fed565b426002556040514281527fc1756fd99ac9a2b1b22b5e701ddb022b897a002144d045b77ac35ce46610fef660203392a280f35b5034610389576020366003190112610389576004356001600160401b0381116107d757610cb0610c49913690600401613667565b610cc460018060a01b038454163314613e82565b610cd08151151561467c565b6140dc565b50346103895780600319360112610389578054610cfc336001600160a01b03831614613e82565b60ff8160a01c16610d4d5760ff60a01b1916600160a01b17815542600281905560405190815233907fb351ba71ddc1d2bf39667cebde99fb92eb26b9f418d5049ba0200888ba81071590602090a280f35b60405162461bcd60e51b815260206004820152600e60248201526d416c72656164792061637469766560901b6044820152606490fd5b5034610389578060031936011261038957601b546001600160a01b0316151580610db5575b6020906040519015158152f35b50601c546001600160a01b03161515610da8565b50346103895780600319360112610389576106c46040516108638161085c81613b4d565b5034610389576020366003190112610389576106c49061085c90610863906040906001600160a01b03610e1e6135dd565b16815260106020522060405192838092613dff565b5034610389578060031936011261038957601b546040516001600160a01b039091168152602090f35b50346103895780600319360112610389578054610e83336001600160a01b03831614613e82565b60ff8160a01c1615610f305760ff60a01b19168155426002556040514281527f17064d72ee4a5901e55dfa45024ea8f67cdb4895ba6364ab2f8e7223f642ad3660203392a2601d546040519060608252602560608301527f50726f6a656374206d616e75616c6c7920656e64656420627920636f6f7264696080830152643730ba37b960d91b60a08301526020820152426040820152600080516020614f8a83398151915260c03392a280f35b60405162461bcd60e51b815260206004820152601060248201526f416c726561647920696e61637469766560801b6044820152606490fd5b503461038957610f77366136ae565b91610f8c60018060a01b038554163314613e82565b6001600160a01b031680845260106020526040842054909290610fae906139ff565b1561102d5781610fe17fe8c250df70afa51c6916b9661d224a47fd9568cb0c1c9d0d49e2e45cc729a98793511515613ebd565b610fec821515613f38565b838552601060205261100181604087206141cb565b838552601160205281604086205542600255611022604051928392836142ad565b0390a2610921614ad6565b60405162461bcd60e51b8152602060048201526011602482015270139bdd0818481c185c9d1a58da5c185b9d607a1b6044820152606490fd5b50346103895760203660031901126103895760043561108f60018060a01b038354163314613e82565b601b546001600160a01b03166110a6811515614339565b601d5482036110f9578291813b156110f5578291602483926040519485938492632e30e40d60e21b845260048401525af180156107db576110e45750f35b816110ee91613629565b6103895780f35b5050fd5b60405162461bcd60e51b815260206004820152600d60248201526c125b9d985b1a59081c9bdd5b99609a1b6044820152606490fd5b50346103895760203660031901126103895760043590600e54821015610389576020611159836139cc565b905460405160039290921b1c6001600160a01b03168152f35b50346103895760203660031901126103895761118c6135dd565b6111a060018060a01b038354163314613e82565b6001600160a01b0316808252600b60205260408220600301546111c59060ff166149d2565b808252600b6020526111d960408320614614565b604051904282527f1a69e67d1be897d0ca0cf1517b4d17e345b4272a80bc900f9fe8e96f261ca1db60203393a380f35b5034610389576020366003190112610389576004356001600160401b0381116107d75761123a903690600401613667565b61124f60018060a01b03601b5416331461449d565b60405181519060208181850193611267818387613813565b8101601a815203019020600160ff19825416179055828391601954925b838110611345575b5050156112d9575b506112c2600080516020614f2a83398151915291601d54601854604051938493608085526080850190613836565b91602084015260408301524260608301520390a180f35b600160401b811015611331578060016112f59201601955613996565b61131d5781611316600080516020614f2a833981519152936112c2936141cb565b9150611294565b634e487b7160e01b83526004839052602483fd5b634e487b7160e01b83526041600452602483fd5b61085c61136161135483613996565b5060405192838092613dff565b60208151910120855183201461137957600101611284565b5050506001388061128c565b50346103895780600319360112610389576020601554604051908152f35b5034610389576113b2366138e8565b906113c860018060a01b03601b5416331461449d565b601c5483906001600160a01b03166113e1811515614962565b601d5490803b156106135760405163a6ea915b60e01b81529183918391829084908290611413908b8b600485016149a9565b03925af180156107db5761145b575b50507f503607074d0e95d8c0c6b1660c3441384010e05305da22aef0594eb3fcae6236916107bc601d54926040519384934292856144e9565b8161146591613629565b610613578238611422565b5034610389576020366003190112610389576020906040906001600160a01b036114986135dd565b168152601283522054604051908152f35b503461038957606036600319011261038957806004356001600160401b038111611568576114db903690600401613667565b6024356001600160401b0381116110f5576114fa903690600401613667565b61150e60018060a01b038454163314613e82565b601c546001600160a01b031691611526831515614962565b823b15611565576115549284928360405180968195829463a6ea915b60e01b845260443591600485016149a9565b03925af180156107db576110e45750f35b50505b50fd5b50346103895780600319360112610389576106c46040516108638161085c81613ca6565b50346103895780600319360112610389576106c46040516108638161085c81613c33565b50346103895780600319360112610389576020601d54604051908152f35b5034610389576020366003190112610389576004356001600160401b0381116107d757611602903690600401613667565b9061161760018060a01b038254163314613e82565b81511561176d578151916001600160401b0383116117595761163a6008546139ff565b601f8111611712575b50602092601f81116001146116b1578083946116669394916116a6575b50613fda565b6008555b426002557fad44b517dc31b3f923480dd93ac031881f73b79bbac3f5897259887894147244604051806116a033944290836142ad565b0390a280f35b905083015138611660565b60088352838320601f19821694845b8681106116fa5750826001949596106116e1575b5050811b0160085561166a565b84015160001960f88460031b161c1916905538806116d4565b909160206001819285880151815501930191016116c0565b6008835261174990600080516020614fca833981519152601f860160051c8101916020871061174f575b601f0160051c0190613fc3565b38611643565b909150819061173c565b634e487b7160e01b82526041600452602482fd5b60405162461bcd60e51b815260206004820152602360248201527f46696e616c20524f2d437261746520686173682063616e6e6f7420626520656d60448201526270747960e81b6064820152608490fd5b503461038957806003193601126103895761182c6015546106c4601d549160165492601854604051946117fb866117f481613ca6565b0387613629565b6040519261180c846106a381613d19565b61183a6118176146c8565b94604051998a9960e08b5260e08b0190613836565b9089820360208b0152613836565b9460408801526060870152608086015260a085015283820360c085015261385b565b50346103895780600319360112610389576106c46040516108638161085c81613d19565b5034610389578060031936011261038957611899614843565b906106c460405192839215158352604060208401526040830190613836565b503461038957806003193601126103895760206118d3614786565b6040519015158152f35b5034610389576040366003190112610389576004356024359061190a60018060a01b038454163314613e82565b8181101561191b57600955600a5580f35b60405162461bcd60e51b8152602060048201526012602482015271496e76616c69642074696d652072616e676560701b6044820152606490fd5b50346103895780600319360112610389576020600954604051908152f35b5034610389576020366003190112610389576004356001600160401b0381116107d7576119a4903690600401613667565b81546119b560ff8260a01c166142c9565b6001600160a01b03163314611b1357338252600b60205260ff600360408420015416611add576119e781511515613ebd565b611a1d6040516119f6816135f8565b33815282602082015242604082015260016060820152338452600b60205260408420614733565b8182600d54905b818110611aa8575b505015611a66575b7fe4d6c018abd0178d4bce0856089ef1876318617b97a1d700bb98506598ab0afc604051806116a033944290836142ad565b600d54600160401b81101561133157806001611a879201600d55600d6139e7565b81546001600160a01b0360039290921b91821b19163390911b179055611a34565b611ab1816139b1565b905460039190911b1c6001600160a01b03163314611ad157600101611a24565b50505060013880611a2c565b60405162461bcd60e51b815260206004820152600e60248201526d526571756573742065786973747360901b6044820152606490fd5b60405162461bcd60e51b815260206004820152601360248201527221b932b0ba37b91031b0b73737ba103537b4b760691b6044820152606490fd5b50346103895780600319360112610389576020601654604051908152f35b5034610389578060031936011261038957600160a01b60019003905416600954600a54916015546016546040519384611ba481613a39565b03611baf9086613629565b6040519586611bbd81613ac8565b03611bc89088613629565b6040519182611bd681613b4d565b03611be19084613629565b6040519182611bef81613bc0565b03611bfa9084613629565b6040519283611c0881613ca6565b03611c139085613629565b6040519485611c2181613d19565b03611c2c9087613629565b611c346146c8565b986040519b8c9b6101808d526101808d01611c4e91613836565b8c810360208e0152611c5f91613836565b9060408c01528a810360608c0152611c7691613836565b89810360808b0152611c8791613836565b9160a089015260c088015286810360e0880152611ca391613836565b858103610100870152611cb591613836565b916101208501526101408401528281036101608401526106c49161385b565b5034610389578060031936011261038957611cf560ff825460a01c166142c9565b338152600c602052611d1060ff6003604084200154166145d2565b3381526010602052611d2861044060408320546139ff565b338152600c602052611d5261085c611d4c6001604085200160405192838092613dff565b33614e6c565b338152600c602052611d6660408220614614565b60405142815230907f7b7404d30440087c51e068aac60d434f5a3a121313c035893fdf187c11d077b660203392a380f35b50346103895780600319360112610389576106c46040516108638161085c81613ac8565b5034610389578060031936011261038957602060ff601e54166040519015158152f35b5034610389576020366003190112610389576004356017548110156107d757601754811015611e4a576017825260008051602061504a833981519152019080611e36576040516106c4906108638161085c8187613dff565b634e487b7160e01b81526004819052602490fd5b634e487b7160e01b82526032600452602482fd5b50346103895760203660031901126103895760043590600d54821015610389576020611159836139b1565b50346103895761010036600319011261038957611ea46135dd565b6024356001600160a01b03811690819003610613576044356001600160401b0381116107e657611ed8903690600401613667565b916064356001600160401b0381116123f057611ef8903690600401613667565b60a43560843560c4356001600160401b0381116123ec57611f1d90369060040161370b565b9260e4356001600160401b0381116123e857611f3d903690600401613667565b94611f5260018060a01b038a54163314613e82565b6001600160a01b031696871515806123df575b1561239d57601b54611f806001600160a01b03821615614632565b601c54611f966001600160a01b03821615614632565b841561236057851561232657898992611fb18a51151561467c565b6001600160a01b031990811691909117601b551617601c55611fd1614ad6565b8051906001600160401b03821161231257611fed6013546139ff565b601f81116122d6575b50602090601f83116001146122715761201992918b91836121b1575b5050613fda565b6013555b8051906001600160401b03821161225d576120396014546139ff565b601f8111612221575b50602090601f83116001146121bc5761206492918a91836121b1575050613fda565b6014555b601555601655805190600160401b821161219d5760175482601755808310612164575b506017865285929190839060008051602061504a833981519152906020015b83831061213d5750505050303b156107d757816120e3916040518093819263c4b192f760e01b8352602060048401526024830190613836565b038183305af180156107db57612128575b507fb009e24dd5f140ab58abb9e6f2187d998561150b7da958ebad23a90e26d7366b6040848482519182526020820152a180f35b8161213291613629565b6106135782386120f4565b6001919293949550602081612154849351866141cb565b01920192019091879493926120aa565b6017875260008051602061504a8339815191529081019083015b81811061218b575061208b565b80612197600192614534565b0161217e565b634e487b7160e01b86526041600452602486fd5b015190503880612012565b60148a52818a209190601f1984168b5b81811061220957509084600195949392106121f0575b505050811b01601455612068565b015160001960f88460031b161c191690553880806121e2565b929360206001819287860151815501950193016121cc565b60148a526122579060008051602061506a833981519152601f850160051c8101916020861061174f57601f0160051c0190613fc3565b38612042565b634e487b7160e01b89526041600452602489fd5b60138b52818b209190601f1984168c5b8181106122be57509084600195949392106122a5575b505050811b0160135561201d565b015160001960f88460031b161c19169055388080612297565b92936020600181928786015181550195019301612281565b60138b5261230c90600080516020614f6a833981519152601f850160051c8101916020861061174f57601f0160051c0190613fc3565b38611ff6565b634e487b7160e01b8a52604160045260248afd5b60405162461bcd60e51b8152602060048201526012602482015271496e76616c69642062617463682073697a6560701b6044820152606490fd5b60405162461bcd60e51b815260206004820152601560248201527424b73b30b634b21036b0bc1034ba32b930ba34b7b760591b6044820152606490fd5b60405162461bcd60e51b815260206004820152601a602482015279496e76616c696420636f6e74726163742061646472657373657360301b6044820152606490fd5b50861515611f65565b8880fd5b8780fd5b8480fd5b5034610389578060031936011261038957604060015460025482519182526020820152f35b5034610389576020366003190112610389576040906001600160a01b0361243e6135dd565b168152600c6020522060018060a01b038154166106c4604051926106aa846106a38160018501613dff565b50346103895780600319360112610389576106c46040516108638161085c81613a39565b5034610389576020366003190112610389576004356001600160401b0381116107d7576124be903690600401613667565b81546124db9060ff906103e6336001600160a01b03831614613e82565b601d54906001820180921161255a57817fbb4ba47257d82c025e976bcdc375cc2e26de94efd111bca20cbc9a330d297455612542602093600080516020614fea83398151915295601d55426002556040519182918583526060878401526060830190613836565b4260408301520390a1604051908152a1610921614d8a565b634e487b7160e01b83526011600452602483fd5b50346103895780600319360112610389576106c46040516108638161085c81613bc0565b5034610389576020366003190112610389576125c9906040906001600160a01b036125bb6135dd565b168152600b60205220614584565b60018060a01b038151166106c46020830151926060604082015191015115159060405194859485613932565b50346103895760203660031901126103895760043590600f5482101561038957602061115983613965565b5034610389578060031936011261038957338152600c60205261264c60ff6003604084200154166145d2565b338152600c60205261266060408220614614565b60405142815230907ff7bcbaa371c3a472d8f63f253317d896d63bf307f5e8e913f8eeb9351bc0d4c660203392a380f35b50346103895780600319360112610389576020600a54604051908152f35b5034610389576020366003190112610389576125c9906040906001600160a01b036126d86135dd565b168152600c60205220614584565b5034610389576127697f0a1e2f362ccc64de291011914f5087c611557a7331c80f2cdd2aacf89b9dc564612719366138e8565b61272e60018060a01b03601b5416331461449d565b60405160208184516127438183858901613813565b8101601a81520301902060ff198154169055601d549384926040519384934292856144e9565b0390a1600190829183601954905b81811061281657508161280c575b5061278e578280f35b7f72db402a1d505e0ee50fba411e34bd1f9a6e90ab67b824c438255e747a886b28916127c160405192839242918461451e565b0390a160195481601955806127d557808280f35b601982526000805160206150aa833981519152908101905b8181106127fa5750808280f35b80612806600192614534565b016127ed565b9050151538612785565b9161282083613996565b50604051908790805490612833826139ff565b91600181169081156128c85750600114612895575b5050601a815281900360200190205460ff161561286b5750600185925b01612777565b9193600019811461288157600180910194612865565b634e487b7160e01b86526011600452602486fd5b90915088526020882088905b8282106128b45750508101602082612848565b6001816020925484870152019101906128a1565b60ff1916855250508015150282019050602082612848565b503461038957806003193601126103895760ff6020915460a01c166040519015158152f35b5034610389576080366003190112610389576004356001600160401b0381116107d757612936903690600401613667565b906024356001600160401b0381116107d757612956903690600401613667565b916044356001600160401b03811161061357612976903690600401613667565b6064356001600160401b0381116107e657612995903690600401613667565b916129aa60018060a01b038554163314613e82565b8051906001600160401b038211612c78576129c66004546139ff565b601f8111612c3c575b50602090601f8311600114612bd7576129f192918691836121b1575050613fda565b6004555b83516001600160401b03811161050d57612a106005546139ff565b601f8111612ba6575b50602094601f8211600114612b425784958291612a3e949596926121b1575050613fda565b6005555b8051906001600160401b03821161050d57612a5e6006546139ff565b601f8111612b06575b50602090601f8311600114612a9d579180612a8e92612a96959487926121b1575050613fda565b6006556140dc565b4260025580f35b600685528185209190601f198416865b818110612aee5750916001939185612a9697969410612ad5575b505050811b016006556140dc565b015160001960f88460031b161c19169055388080612ac7565b92936020600181928786015181550195019301612aad565b60068552612b3c9060008051602061500a833981519152601f850160051c8101916020861061174f57601f0160051c0190613fc3565b38612a67565b601f198216956005865280862091865b888110612b8e57508360019596979810612b75575b505050811b01600555612a42565b015160001960f88460031b161c19169055388080612b67565b91926020600181928685015181550194019201612b52565b612bd1906005865260208620601f840160051c8101916020851061174f57601f0160051c0190613fc3565b38612a19565b600486528186209190601f198416875b818110612c245750908460019594939210612c0b575b505050811b016004556129f5565b015160001960f88460031b161c19169055388080612bfd565b92936020600181928786015181550195019301612be7565b60048652612c729060008051602061502a833981519152601f850160051c8101916020861061174f57601f0160051c0190613fc3565b386129cf565b634e487b7160e01b85526041600452602485fd5b503461038957806003193601126103895754600954600a54604051612d239390929190612d52906001600160a01b0316612cd085612cc981613a39565b0386613629565b612d4460405191612ceb83612ce481613ac8565b0384613629565b604051612cfb8161085c81613b4d565b612d3160405194612d0f866117f481613bc0565b6040519a8b9a60e08c5260e08c0190613836565b908a820360208c0152613836565b9160408901528782036060890152613836565b908582036080870152613836565b9160a084015260c08301520390f35b5034610389578060031936011261038957612d8660018060a01b038254163314613e82565b601e5460ff8116612da35760ff1916600117601e55610921614d8a565b60405162461bcd60e51b815260206004820152601b60248201527a105b1c9958591e481b585c9ad95908185cc8195e1a185d5cdd1959602a1b6044820152606490fd5b5034610389578060031936011261038957600f5490612e04826136f4565b90612e126040519283613629565b828252601f19612e21846136f4565b01366020840137612e31836136f4565b612e3e6040519182613629565b838152601f19612e4d856136f4565b01825b818110612f53575050612e628461446b565b93612e6c8161446b565b92805b828110612ec457612e9a866106c487612eb68b612ea88a6040519788976080895260808901906137d6565b90878203602089015261385b565b9085820360408701526138b4565b9083820360608501526138b4565b80612ed0600192613965565b838060a01b0391549060031b1c1680612ee9838a61437f565b52808452601060205261085c612f086040862060405192838092613dff565b612f12838861437f565b52612f1d828761437f565b5080845260116020526040842054612f35838b61437f565b52835260126020526040832054612f4c828861437f565b5201612e6f565b806060602080938601015201612e50565b503461038957612f7336613789565b601b54909190612f8d906001600160a01b03161515614339565b805182510361341c578051156133e957825b81518110156130b65760ff612fcd6020612fb9848661437f565b518160405193828580945193849201613813565b8101601a81520301902054161561307257612fe8818361437f565b51511561303b57612ff9818461437f565b51511561300857600101612f9f565b60405162461bcd60e51b815260206004820152600b60248201526a115b5c1d1e481b1858995b60aa1b6044820152606490fd5b60405162461bcd60e51b815260206004820152600f60248201526e115b5c1d1e481cd85b5c1b19481251608a1b6044820152606490fd5b60405162461bcd60e51b815260206004820152601c60248201527b53616d706c65206e6f742061637469766520666f7220766f74696e6760201b6044820152606490fd5b509190604051630b9eb40b60e31b81523360048201528281602481305afa90811561330a5783916133cf575b505115613315575b604051630b9eb40b60e31b81523360048201528281602481305afa90811561330a57906131219184916132e8575b50511515614423565b601b546040516320a7c73b60e11b81523360048201526001600160a01b039091169290602081602481875afa9081156107db5782916132b6575b501561326157805b84518110156131e357807f55b5b37db3e79e0cf5fa16c3b213f5856ebaf6a6e58c56813245533b65587bbd6131c061319d6001948961437f565b516131d46131ab858961437f565b51604051938493608085526080850190613836565b903360208501528382036040850152613836565b4260608301520390a101613163565b50928391833b156106135761322f9361321d84809460405197889586948593639a6e81ab60e01b855260606004860152606485019061385b565b8381036003190160248501529061385b565b33604483015203925af18015613254576132465780f35b61324f91613629565b388180f35b50604051903d90823e3d90fd5b60405162461bcd60e51b815260206004820152602760248201527f566f746572206e6f74207265676973746572656420696e20766f74696e6720636044820152661bdb9d1c9858dd60ca1b6064820152608490fd5b90506020813d6020116132e0575b816132d160209383613629565b810103126107d757513861315b565b3d91506132c4565b61330491503d8086833e6132fc8183613629565b8101906143d5565b38613118565b6040513d85823e3d90fd5b61331d6143fa565b61333160018060a01b038454163314613e82565b61333d81511515613ebd565b338352601060205261335561044060408520546139ff565b61335e33613f7e565b338352601060205261337381604085206141cb565b338352601160205260016040842055338352601260205242604084205560008051602061508a8339815191526133b460405192604084526040840190613836565b91600160208201528033930390a26133ca614ad6565b6130ea565b6133e391503d8085833e6132fc8183613629565b386130e2565b60405162461bcd60e51b815260206004820152600b60248201526a08adae0e8f240c4c2e8c6d60ab1b6044820152606490fd5b60405162461bcd60e51b81526020600482015260116024820152704d69736d6174636865642061727261797360781b6044820152606490fd5b5034610389578060031936011261038957601c546040516001600160a01b039091168152602090f35b5034610389576020366003190112610389576004356001600160401b0381116107d7576134b2610c49913690600401613667565b82546134cf9060ff906103e6336001600160a01b03831614613e82565b610c4481511515614300565b5034610389578060031936011261038957546040516001600160a01b039091168152602090f35b50346103895760008051602061508a833981519152613520366136ae565b9061353860018060a09695961b038654163314613e82565b61354481511515613ebd565b61357960018060a01b03851694858752601060205261356961044060408920546139ff565b613574841515613f38565b613f7e565b838552601060205261358e81604087206141cb565b83855260116020528160408620558385526012602052426040862055611022604051928392836142ad565b9050346107d757816003193601126107d75790546001600160a01b03168152602090f35b600435906001600160a01b03821682036135f357565b600080fd5b608081019081106001600160401b0382111761361357604052565b634e487b7160e01b600052604160045260246000fd5b601f909101601f19168101906001600160401b0382119082101761361357604052565b6001600160401b03811161361357601f01601f191660200190565b81601f820112156135f35780359061367e8261364c565b9261368c6040519485613629565b828452602083830101116135f357816000926020809301838601378301015290565b9060606003198301126135f3576004356001600160a01b03811681036135f35791602435906001600160401b0382116135f3576136ed91600401613667565b9060443590565b6001600160401b0381116136135760051b60200190565b9080601f830112156135f3578135613722816136f4565b926137306040519485613629565b81845260208085019260051b820101918383116135f35760208201905b83821061375c57505050505090565b81356001600160401b0381116135f35760209161377e87848094880101613667565b81520191019061374d565b9060406003198301126135f3576004356001600160401b0381116135f357826137b49160040161370b565b91602435906001600160401b0382116135f3576137d39160040161370b565b90565b906020808351928381520192019060005b8181106137f45750505090565b82516001600160a01b03168452602093840193909201916001016137e7565b60005b8381106138265750506000910152565b8181015183820152602001613816565b9060209161384f81518092818552858086019101613813565b601f01601f1916010190565b9080602083519182815201916020808360051b8301019401926000915b83831061388757505050505090565b90919293946020806138a5600193601f198682030187528951613836565b97019301930191939290613878565b906020808351928381520192019060005b8181106138d25750505090565b82518452602093840193909201916001016138c5565b9060406003198301126135f3576004356001600160401b0381116135f3578261391391600401613667565b91602435906001600160401b0382116135f3576137d391600401613667565b929493906060926139589160018060a01b03168552608060208601526080850190613836565b9460408401521515910152565b600f5481101561398057600f60005260206000200190600090565b634e487b7160e01b600052603260045260246000fd5b60195481101561398057601960005260206000200190600090565b600d5481101561398057600d60005260206000200190600090565b600e5481101561398057600e60005260206000200190600090565b80548210156139805760005260206000200190600090565b90600182811c92168015613a2f575b6020831014613a1957565b634e487b7160e01b600052602260045260246000fd5b91607f1691613a0e565b60045460009291613a49826139ff565b8082529160018116908115613aac5750600114613a64575050565b6004600090815292935090919060008051602061502a8339815191525b838310613a92575060209250010190565b600181602092949394548385870101520191019190613a81565b9050602093945060ff929192191683830152151560051b010190565b60055460009291613ad8826139ff565b8082529160018116908115613aac5750600114613af3575050565b600560009081529293509091907f036b6384b5eca791c62761152d0c79bb0604c104a5fb6f4eb0703f3154bb3db05b838310613b33575060209250010190565b600181602092949394548385870101520191019190613b22565b60065460009291613b5d826139ff565b8082529160018116908115613aac5750600114613b78575050565b6006600090815292935090919060008051602061500a8339815191525b838310613ba6575060209250010190565b600181602092949394548385870101520191019190613b95565b60075460009291613bd0826139ff565b8082529160018116908115613aac5750600114613beb575050565b60076000908152929350909190600080516020614f4a8339815191525b838310613c19575060209250010190565b600181602092949394548385870101520191019190613c08565b60035460009291613c43826139ff565b8082529160018116908115613aac5750600114613c5e575050565b60036000908152929350909190600080516020614f0a8339815191525b838310613c8c575060209250010190565b600181602092949394548385870101520191019190613c7b565b60135460009291613cb6826139ff565b8082529160018116908115613aac5750600114613cd1575050565b60136000908152929350909190600080516020614f6a8339815191525b838310613cff575060209250010190565b600181602092949394548385870101520191019190613cee565b60145460009291613d29826139ff565b8082529160018116908115613aac5750600114613d44575050565b6014600090815292935090919060008051602061506a8339815191525b838310613d72575060209250010190565b600181602092949394548385870101520191019190613d61565b60085460009291613d9c826139ff565b8082529160018116908115613aac5750600114613db7575050565b60086000908152929350909190600080516020614fca8339815191525b838310613de5575060209250010190565b600181602092949394548385870101520191019190613dd4565b60009291815491613e0f836139ff565b8083529260018116908115613e655750600114613e2b57505050565b60009081526020812093945091925b838310613e4b575060209250010190565b600181602092949394548385870101520191019190613e3a565b915050602093945060ff929192191683830152151560051b010190565b15613e8957565b60405162461bcd60e51b815260206004820152600c60248201526b27b7363c9031b932b0ba37b960a11b6044820152606490fd5b15613ec457565b60405162461bcd60e51b815260206004820152600a602482015269456d70747920726f6c6560b01b6044820152606490fd5b15613efd57565b60405162461bcd60e51b8152602060048201526013602482015272105b1c9958591e481c185c9d1a58da5c185b9d606a1b6044820152606490fd5b15613f3f57565b60405162461bcd60e51b8152602060048201526017602482015276576569676874206d75737420626520706f73697469766560481b6044820152606490fd5b600f54600160401b81101561361357806001613f9f9201600f55600f6139e7565b81546001600160a01b0393841660039290921b91821b9390911b1916919091179055565b818110613fce575050565b60008155600101613fc3565b8160011b916000199060031b1c19161790565b80519091906001600160401b0381116136135761400b6003546139ff565b601f811161409f575b50602092601f821160011461403d57614038929382916000926121b1575050613fda565b600355565b601f198216936003600052806000209160005b868110614087575083600195961061406e575b505050811b01600355565b015160001960f88460031b161c19169055388080614063565b91926020600181928685015181550194019201614050565b60036000526140d690600080516020614f0a833981519152601f840160051c8101916020851061174f57601f0160051c0190613fc3565b38614014565b80519091906001600160401b038111613613576140fa6007546139ff565b601f811161418e575b50602092601f821160011461412c57614127929382916000926121b1575050613fda565b600755565b601f198216936007600052806000209160005b868110614176575083600195961061415d575b505050811b01600755565b015160001960f88460031b161c19169055388080614152565b9192602060018192868501518155019401920161413f565b60076000526141c590600080516020614f4a833981519152601f840160051c8101916020851061174f57601f0160051c0190613fc3565b38614103565b81519192916001600160401b038111613613576141e882546139ff565b601f811161427b575b506020601f82116001146142195781906142159394956000926121b1575050613fda565b9055565b601f1982169083600052806000209160005b8181106142635750958360019596971061424a575b505050811b019055565b015160001960f88460031b161c19169055388080614240565b9192602060018192868b01518155019401920161422b565b6142a790836000526020600020601f840160051c8101916020851061174f57601f0160051c0190613fc3565b386141f1565b9291906142c4602091604086526040860190613836565b930152565b156142d057565b60405162461bcd60e51b8152602060048201526008602482015267496e61637469766560c01b6044820152606490fd5b1561430757565b60405162461bcd60e51b815260206004820152600a602482015269456d707479206461746160b01b6044820152606490fd5b1561434057565b60405162461bcd60e51b8152602060048201526017602482015276159bdd1a5b99c818dbdb9d1c9858dd081b9bdd081cd95d604a1b6044820152606490fd5b80518210156139805760209160051b010190565b81601f820112156135f35780516143a98161364c565b926143b76040519485613629565b818452602082840101116135f3576137d39160208085019101613813565b906020828203126135f35781516001600160401b0381116135f3576137d39201614393565b60405190614409604083613629565b600b82526a31b7b73a3934b13aba37b960a91b6020830152565b1561442a57565b60405162461bcd60e51b8152602060048201526019602482015278139bdd0818481c1c9bda9958dd081c185c9d1a58da5c185b9d603a1b6044820152606490fd5b90614475826136f4565b6144826040519182613629565b8281528092614493601f19916136f4565b0190602036910137565b156144a457565b60405162461bcd60e51b815260206004820152601d60248201527f4f6e6c7920766f74696e6720636f6e74726163742063616e2063616c6c0000006044820152606490fd5b906060926145066145149297969597608085526080850190613836565b908382036020850152613836565b9460408201520152565b6040919493926060820195825260208201520152565b61453e81546139ff565b9081614548575050565b81601f6000931160011461455b5750555b565b8183526020832061457791601f0160051c810190600101613fc3565b8082528160208120915555565b90604051614591816135f8565b606060ff6003839560018060a01b0381541685526040516145b98161085c8160018601613dff565b6020860152600281015460408601520154161515910152565b156145d957565b60405162461bcd60e51b8152602060048201526013602482015272139bc81a5b9d9a5d185d1a5bdb88199bdd5b99606a1b6044820152606490fd5b600360009182815561462860018201614534565b8260028201550155565b1561463957565b60405162461bcd60e51b815260206004820152601b60248201527a10530818dbdb9d1c9858dd1cc8185b1c9958591e481b1a5b9ad959602a1b6044820152606490fd5b1561468357565b60405162461bcd60e51b815260206004820152601d60248201527f524f2d437261746520686173682063616e6e6f7420626520656d7074790000006044820152606490fd5b601754906146d5826136f4565b916146e36040519384613629565b8083526017600090815260008051602061504a833981519152602085015b83831061470e5750505050565b6001602081926040516147258161085c8189613dff565b815201920192019190614701565b815181546001600160a01b0319166001600160a01b0391909116178155602082015160609160039161476890600183016141cb565b6040840151600282015501910151151560ff80198354169116179055565b6040516361d25a0d60e11b8152602081600481305afa908115614837576000916147fc575b506147f7576040516147c08161085c81613b4d565b60208151910120600f60206040516147d9604082613629565b828152016e6163746976655f6c6561726e696e6760881b8152201490565b600090565b6020813d60201161482f575b8161481560209383613629565b810103126107d757519081151582036103895750386147ab565b3d9150614808565b6040513d6000823e3d90fd5b60ff60005460a01c1615614925576015548015159081614918575b506148dd5760ff601e54166148a55760009060405161487e604082613629565b601781527650726f6a656374206973207374696c6c2061637469766560481b602082015290565b6001906040516148b6606082613629565b60238152600080516020614faa833981519152602082015262626c6560e81b604082015290565b6001906040516148ee604082613629565b601a81527913585e1a5b5d5b481a5d195c985d1a5bdb9cc81c995858da195960321b602082015290565b9050601d5410153861485e565b600190604051614936604082613629565b601c81527b141c9bda9958dd081b585b9d585b1b1e4819195858dd1a5d985d195960221b602082015290565b1561496957565b60405162461bcd60e51b815260206004820152601860248201527714dd1bdc9859d94818dbdb9d1c9858dd081b9bdd081cd95d60421b6044820152606490fd5b9392916142c4906149c4604093606088526060880190613836565b908682036020880152613836565b156149d957565b60405162461bcd60e51b815260206004820152600a602482015269139bc81c995c5d595cdd60b21b6044820152606490fd5b9080601f830112156135f357815190614a23826136f4565b92614a316040519485613629565b82845260208085019360051b8201019182116135f357602001915b818310614a595750505090565b82516001600160a01b03811681036135f357815260209283019201614a4c565b9080601f830112156135f3578151614a90816136f4565b92614a9e6040519485613629565b81845260208085019260051b8201019283116135f357602001905b828210614ac65750505090565b8151815260209182019101614ab9565b601b546000906001600160a01b03168015614d8657604051630caf64f760e11b8152908282600481305afa801561330a57839084938591614c6b575b50815115614c64578491614b6d614b4992614b5b604051978895869563cdbf3d0160e01b87526060600488015260648701906137d6565b8581036003190160248701529061385b565b838103600319016044850152906138b4565b0381845afa91821561330a5783908493614bff575b508051614b90575b50505050565b813b156107e657918391614bc783614bd99560405196879586948593631d70957f60e21b85526040600486015260448501906137d6565b838103600319016024850152906138b4565b03925af180156107db57614bef575b8080614b8a565b81614bf991613629565b38614be8565b9250503d8084843e614c118184613629565b82016040838203126107e65782516001600160401b0381116123f05781614c39918501614a0b565b602084015190936001600160401b038211614c6057614c59929101614a79565b9138614b82565b8580fd5b5050505050565b935050503d8084843e614c7e8184613629565b82016080838203126107e65782516001600160401b0381116123f05781614ca6918501614a0b565b60208401516001600160401b038111614c605784019180601f84011215614c6057825192614cd3846136f4565b93614ce16040519586613629565b80855260208086019160051b830101918383116123e85760208101915b838310614d55575050505060408501516001600160401b038111614d515781614d28918701614a79565b606086015190956001600160401b0382116123ec57614d48929101614a79565b50909238614b12565b8680fd5b82516001600160401b038111614d8257602091614d7787848094870101614393565b815201920191614cfe565b8a80fd5b5050565b60ff60005460a01c1615614559576015548015159081614e5f575b50614e095760ff601e5416614db657565b601d54604051906060825260236060830152600080516020614faa833981519152608083015262626c6560e81b60a08301526020820152426040820152600080516020614f8a83398151915260c03392a2565b601d546040519060608252601a60608301527913585e1a5b5d5b481a5d195c985d1a5bdb9cc81c995858da195960321b60808301526020820152426040820152600080516020614f8a83398151915260a03392a2565b9050601d54101538614da5565b90614efd60008051602061508a83398151915291614eb160018060a01b03851694856000526010602052614ea76104406040600020546139ff565b6135746001613f38565b836000526010602052614ec88160406000206141cb565b836000526011602052600160406000205583600052601260205242604060002055604051918291604083526040830190613836565b600160208301520390a256fec2575a0e9e593c00f959f8c92f12db2869c3395a3b0502d05e2516446f71f85b9b196abb2588eccefb36f3e6c9b15d9e260c633d5b2e0b8f497e6e71c6c1c1eaa66cc928b5edb82af9bd49922954155ab7b0942694bea4ce44661d9a8736c68866de8ffda797e3de9c05e8fc57b3bf0ec28a930d40b0d285d93c06501cf6a090aee3ab89a33c4a6f38aa24238aed506e7f6db5e298e1f32a0ede72dbe23112c44e6f206d6f726520756e6c6162656c65642073616d706c657320617661696c61f3f7a9fe364faab93b216da50a3214154f22a0a2b415b23a84c8169e8b636ee39aa934e5a98d12b60dabec0f34647f2b63b8fd257ba6480e7ded4cc1ef24c573f652222313e28459528d920b65115c16c04f3efc82aaedc97be59f3f377c0d3f8a35acfbc15ff81a39ae7d344fd709f28e8600b4aa8c65c6b64bfe7fe36bd19bc624b66cc0138b8fabc209247f72d758e1cf3343756d543badbf24212bed8c15ce6d7b5282bd9a3661ae061feed1dbda4e52ab073b1f9285be6e155d9c38d4ecbceee304ac8d461cb65ac9f6dc37bbcb2c2c34c155224ffbfdc4752b89008f73944998273e477b495144fb8794c914197f3ccb46be2900f4698fd0ef743c9695a2646970667358221220f52f3f99f1e8a52230201b3df0fd5d163f143cbeca6f694425cb90c6b671aef064736f6c634300081c0033","opcodes":"PUSH1 0x80 PUSH1 0x40 MSTORE CALLVALUE PUSH2 0x3CB JUMPI PUSH2 0x5546 DUP1 CODESIZE SUB DUP1 PUSH2 0x19 DUP2 PUSH2 0x3D0 JUMP JUMPDEST SWAP3 DUP4 CODECOPY DUP2 ADD SWAP1 PUSH1 0x40 DUP2 DUP4 SUB SLT PUSH2 0x3CB JUMPI DUP1 MLOAD PUSH1 0x1 PUSH1 0x1 PUSH1 0xA0 SHL SUB DUP2 AND SWAP2 SWAP1 DUP3 SWAP1 SUB PUSH2 0x3CB JUMPI PUSH1 0x20 DUP2 ADD MLOAD SWAP1 PUSH1 0x1 PUSH1 0x1 PUSH1 0x40 SHL SUB DUP3 GT PUSH2 0x3CB JUMPI ADD DUP3 PUSH1 0x1F DUP3 ADD SLT ISZERO PUSH2 0x3CB JUMPI DUP1 MLOAD SWAP1 PUSH1 0x1 PUSH1 0x1 PUSH1 0x40 SHL SUB DUP3 GT PUSH2 0x2A4 JUMPI PUSH2 0x82 PUSH1 0x1F DUP4 ADD PUSH1 0x1F NOT AND PUSH1 0x20 ADD PUSH2 0x3D0 JUMP JUMPDEST SWAP4 DUP3 DUP6 MSTORE PUSH1 0x20 DUP4 DUP4 ADD ADD GT PUSH2 0x3CB JUMPI PUSH1 0x0 JUMPDEST DUP3 DUP2 LT PUSH2 0x3B6 JUMPI POP POP PUSH1 0x20 PUSH1 0x0 SWAP2 DUP5 ADD ADD MSTORE DUP2 MLOAD ISZERO PUSH2 0x384 JUMPI PUSH1 0x0 DUP1 SLOAD PUSH1 0x1 PUSH1 0x1 PUSH1 0xA0 SHL SUB NOT AND DUP3 OR SWAP1 SSTORE DUP2 MLOAD PUSH1 0x1 PUSH1 0x1 PUSH1 0x40 SHL SUB DUP2 GT PUSH2 0x2A4 JUMPI PUSH2 0xDA PUSH1 0x3 SLOAD PUSH2 0x3F5 JUMP JUMPDEST PUSH1 0x1F DUP2 GT PUSH2 0x32A JUMPI JUMPDEST POP PUSH1 0x20 SWAP3 PUSH1 0x1F DUP3 GT PUSH1 0x1 EQ PUSH2 0x2C5 JUMPI SWAP3 DUP2 SWAP3 SWAP4 PUSH1 0x0 SWAP3 PUSH2 0x2BA JUMPI JUMPDEST POP POP DUP2 PUSH1 0x1 SHL SWAP2 PUSH1 0x0 NOT SWAP1 PUSH1 0x3 SHL SHR NOT AND OR PUSH1 0x3 SSTORE JUMPDEST TIMESTAMP PUSH1 0x1 DUP2 SWAP1 SSTORE PUSH1 0x2 SSTORE PUSH1 0x0 DUP1 SLOAD PUSH1 0xFF PUSH1 0xA0 SHL NOT AND PUSH1 0x1 PUSH1 0xA0 SHL OR SWAP1 SSTORE PUSH1 0xF SLOAD PUSH9 0x10000000000000000 DUP2 LT ISZERO PUSH2 0x2A4 JUMPI PUSH1 0x1 DUP2 ADD DUP1 PUSH1 0xF SSTORE DUP2 LT ISZERO PUSH2 0x28E JUMPI PUSH32 0x8D1108E10BCB7C27DDDFC02ED9D693A074039D026CF4EA4240B40F7D581AC802 ADD DUP1 SLOAD PUSH1 0x1 PUSH1 0x1 PUSH1 0xA0 SHL SUB NOT AND DUP3 OR SWAP1 SSTORE PUSH1 0x0 DUP2 DUP2 MSTORE PUSH1 0x10 PUSH1 0x20 MSTORE PUSH1 0x40 SWAP1 KECCAK256 DUP1 SLOAD PUSH2 0x19E SWAP1 PUSH2 0x3F5 JUMP JUMPDEST PUSH1 0x1F DUP2 GT PUSH2 0x26C JUMPI JUMPDEST POP PUSH1 0xE PUSH7 0x31B932B0BA37B9 PUSH1 0xC9 SHL ADD SWAP1 SSTORE DUP1 PUSH1 0x0 MSTORE PUSH1 0x11 PUSH1 0x20 MSTORE PUSH1 0x1 PUSH1 0x40 PUSH1 0x0 KECCAK256 SSTORE DUP1 PUSH1 0x0 MSTORE PUSH1 0x12 PUSH1 0x20 MSTORE TIMESTAMP PUSH1 0x40 PUSH1 0x0 KECCAK256 SSTORE DUP1 PUSH32 0x20BFD29F3D906F96FC35742FAC45A554B19CBD4E21F8C4C1D84CB58FDFC32C89 PUSH1 0x20 PUSH1 0x40 MLOAD TIMESTAMP DUP2 MSTORE LOG2 PUSH32 0xBCEEE304AC8D461CB65AC9F6DC37BBCB2C2C34C155224FFBFDC4752B89008F73 PUSH1 0x80 PUSH1 0x40 MLOAD PUSH1 0x40 DUP2 MSTORE PUSH1 0x7 PUSH1 0x40 DUP3 ADD MSTORE PUSH7 0x31B932B0BA37B9 PUSH1 0xC9 SHL PUSH1 0x60 DUP3 ADD MSTORE PUSH1 0x1 PUSH1 0x20 DUP3 ADD MSTORE LOG2 PUSH2 0xE10 PUSH1 0x18 SSTORE PUSH1 0xFF NOT PUSH1 0x1E SLOAD AND PUSH1 0x1E SSTORE PUSH1 0x40 MLOAD PUSH2 0x50FF SWAP1 DUP2 PUSH2 0x447 DUP3 CODECOPY RETURN JUMPDEST PUSH2 0x288 SWAP1 DUP3 PUSH1 0x0 MSTORE PUSH1 0x1F PUSH1 0x20 PUSH1 0x0 KECCAK256 SWAP2 ADD PUSH1 0x5 SHR DUP2 ADD SWAP1 PUSH2 0x42F JUMP JUMPDEST CODESIZE PUSH2 0x1A7 JUMP JUMPDEST PUSH4 0x4E487B71 PUSH1 0xE0 SHL PUSH1 0x0 MSTORE PUSH1 0x32 PUSH1 0x4 MSTORE PUSH1 0x24 PUSH1 0x0 REVERT JUMPDEST PUSH4 0x4E487B71 PUSH1 0xE0 SHL PUSH1 0x0 MSTORE PUSH1 0x41 PUSH1 0x4 MSTORE PUSH1 0x24 PUSH1 0x0 REVERT JUMPDEST ADD MLOAD SWAP1 POP CODESIZE DUP1 PUSH2 0xFE JUMP JUMPDEST PUSH1 0x1F NOT DUP3 AND SWAP4 PUSH1 0x3 PUSH1 0x0 MSTORE DUP1 PUSH1 0x0 KECCAK256 SWAP2 PUSH1 0x0 JUMPDEST DUP7 DUP2 LT PUSH2 0x312 JUMPI POP DUP4 PUSH1 0x1 SWAP6 SWAP7 LT PUSH2 0x2F9 JUMPI JUMPDEST POP POP POP DUP2 SHL ADD PUSH1 0x3 SSTORE PUSH2 0x114 JUMP JUMPDEST ADD MLOAD PUSH1 0x0 NOT PUSH1 0xF8 DUP5 PUSH1 0x3 SHL AND SHR NOT AND SWAP1 SSTORE CODESIZE DUP1 DUP1 PUSH2 0x2EB JUMP JUMPDEST SWAP2 SWAP3 PUSH1 0x20 PUSH1 0x1 DUP2 SWAP3 DUP7 DUP6 ADD MLOAD DUP2 SSTORE ADD SWAP5 ADD SWAP3 ADD PUSH2 0x2D8 JUMP JUMPDEST PUSH1 0x3 PUSH1 0x0 MSTORE PUSH2 0x374 SWAP1 PUSH32 0xC2575A0E9E593C00F959F8C92F12DB2869C3395A3B0502D05E2516446F71F85B PUSH1 0x1F DUP5 ADD PUSH1 0x5 SHR DUP2 ADD SWAP2 PUSH1 0x20 DUP6 LT PUSH2 0x37A JUMPI JUMPDEST PUSH1 0x1F ADD PUSH1 0x5 SHR ADD SWAP1 PUSH2 0x42F JUMP JUMPDEST CODESIZE PUSH2 0xE3 JUMP JUMPDEST SWAP1 SWAP2 POP DUP2 SWAP1 PUSH2 0x367 JUMP JUMPDEST PUSH1 0x40 MLOAD PUSH3 0x461BCD PUSH1 0xE5 SHL DUP2 MSTORE PUSH1 0x20 PUSH1 0x4 DUP3 ADD MSTORE PUSH1 0xA PUSH1 0x24 DUP3 ADD MSTORE PUSH10 0x456D7074792064617461 PUSH1 0xB0 SHL PUSH1 0x44 DUP3 ADD MSTORE PUSH1 0x64 SWAP1 REVERT JUMPDEST DUP1 PUSH1 0x20 DUP1 SWAP3 DUP5 ADD ADD MLOAD DUP3 DUP3 DUP9 ADD ADD MSTORE ADD PUSH2 0x94 JUMP JUMPDEST PUSH1 0x0 DUP1 REVERT JUMPDEST PUSH1 0x40 MLOAD SWAP2 SWAP1 PUSH1 0x1F ADD PUSH1 0x1F NOT AND DUP3 ADD PUSH1 0x1 PUSH1 0x1 PUSH1 0x40 SHL SUB DUP2 GT DUP4 DUP3 LT OR PUSH2 0x2A4 JUMPI PUSH1 0x40 MSTORE JUMP JUMPDEST SWAP1 PUSH1 0x1 DUP3 DUP2 SHR SWAP3 AND DUP1 ISZERO PUSH2 0x425 JUMPI JUMPDEST PUSH1 0x20 DUP4 LT EQ PUSH2 0x40F JUMPI JUMP JUMPDEST PUSH4 0x4E487B71 PUSH1 0xE0 SHL PUSH1 0x0 MSTORE PUSH1 0x22 PUSH1 0x4 MSTORE PUSH1 0x24 PUSH1 0x0 REVERT JUMPDEST SWAP2 PUSH1 0x7F AND SWAP2 PUSH2 0x404 JUMP JUMPDEST DUP2 DUP2 LT PUSH2 0x43A JUMPI POP POP JUMP JUMPDEST PUSH1 0x0 DUP2 SSTORE PUSH1 0x1 ADD PUSH2 0x42F JUMP INVALID PUSH1 0x80 DUP1 PUSH1 0x40 MSTORE PUSH1 0x4 CALLDATASIZE LT ISZERO PUSH2 0x13 JUMPI PUSH1 0x0 DUP1 REVERT JUMPDEST PUSH1 0x0 SWAP1 DUP2 CALLDATALOAD PUSH1 0xE0 SHR SWAP1 DUP2 PUSH4 0x2D05D3F EQ PUSH2 0x35B9 JUMPI POP DUP1 PUSH4 0x40023D6 EQ PUSH2 0x3502 JUMPI DUP1 PUSH4 0xEE2CB10 EQ PUSH2 0x34DB JUMPI DUP1 PUSH4 0x10218F4D EQ PUSH2 0x347E JUMPI DUP1 PUSH4 0x11CE0267 EQ PUSH2 0x3455 JUMPI DUP1 PUSH4 0x1633E062 EQ PUSH2 0x2F64 JUMPI DUP1 PUSH4 0x195EC9EE EQ PUSH2 0x2DE6 JUMPI DUP1 PUSH4 0x19B21227 EQ PUSH2 0x2D61 JUMPI DUP1 PUSH4 0x1AF9FD17 EQ PUSH2 0x2C8C JUMPI DUP1 PUSH4 0x211A85E6 EQ PUSH2 0x2905 JUMPI DUP1 PUSH4 0x22F3E2D4 EQ PUSH2 0x28E0 JUMPI DUP1 PUSH4 0x29F5E65A EQ PUSH2 0x26E6 JUMPI DUP1 PUSH4 0x2B17B8BE EQ PUSH2 0x26AF JUMPI DUP1 PUSH4 0x3197CBB6 EQ PUSH2 0x2691 JUMPI DUP1 PUSH4 0x32C6AFD0 EQ PUSH2 0x2620 JUMPI DUP1 PUSH4 0x35C1D349 EQ PUSH2 0x25F5 JUMPI DUP1 PUSH4 0x383E1A5E EQ PUSH2 0x2592 JUMPI DUP1 PUSH4 0x43862D23 EQ PUSH2 0x256E JUMPI DUP1 PUSH4 0x461E198B EQ PUSH2 0x248D JUMPI DUP1 PUSH4 0x4A79D50C EQ PUSH2 0x2469 JUMPI DUP1 PUSH4 0x55B31B55 EQ PUSH2 0x158F JUMPI DUP1 PUSH4 0x58F43F76 EQ PUSH2 0x2419 JUMPI DUP1 PUSH4 0x59ABBFE4 EQ PUSH2 0x23F4 JUMPI DUP1 PUSH4 0x5BB06C0B EQ PUSH2 0x1E89 JUMPI DUP1 PUSH4 0x5CF5A058 EQ PUSH2 0xDED JUMPI DUP1 PUSH4 0x5E1A6C17 EQ PUSH2 0x1E5E JUMPI DUP1 PUSH4 0x6AC4E50E EQ PUSH2 0x1DDE JUMPI DUP1 PUSH4 0x6C86D124 EQ PUSH2 0x1DBB JUMPI DUP1 PUSH4 0x7284E416 EQ PUSH2 0x1D97 JUMPI DUP1 PUSH4 0x728F1112 EQ PUSH2 0x1CD4 JUMPI DUP1 PUSH4 0x72A1C45D EQ PUSH2 0x1B6C JUMPI DUP1 PUSH4 0x77C39C21 EQ PUSH2 0x1B4E JUMPI DUP1 PUSH4 0x7847F1DE EQ PUSH2 0x1973 JUMPI DUP1 PUSH4 0x78E97925 EQ PUSH2 0x1955 JUMPI DUP1 PUSH4 0x79EC4F19 EQ PUSH2 0x18DD JUMPI DUP1 PUSH4 0x7A83A44B EQ PUSH2 0x18B8 JUMPI DUP1 PUSH4 0x7C13F6CF EQ PUSH2 0x1880 JUMPI DUP1 PUSH4 0x7F52CADC EQ PUSH2 0x185C JUMPI DUP1 PUSH4 0x80A8C849 EQ PUSH2 0x17BE JUMPI DUP1 PUSH4 0x84958FC3 EQ PUSH2 0x15D1 JUMPI DUP1 PUSH4 0x8A19C8BC EQ PUSH2 0x15B3 JUMPI DUP1 PUSH4 0x9C0768B3 EQ PUSH2 0x158F JUMPI DUP1 PUSH4 0xA0740184 EQ PUSH2 0x156B JUMPI DUP1 PUSH4 0xA6EA915B EQ PUSH2 0x14A9 JUMPI DUP1 PUSH4 0xAB34C9E9 EQ PUSH2 0x1470 JUMPI DUP1 PUSH4 0xB0611068 EQ PUSH2 0x13A3 JUMPI DUP1 PUSH4 0xB0942CE5 EQ PUSH2 0x1385 JUMPI DUP1 PUSH4 0xB2BE4D65 EQ PUSH2 0x1209 JUMPI DUP1 PUSH4 0xB5686479 EQ PUSH2 0x1172 JUMPI DUP1 PUSH4 0xB70825DC EQ PUSH2 0x112E JUMPI DUP1 PUSH4 0xB8C39034 EQ PUSH2 0x1066 JUMPI DUP1 PUSH4 0xB9BE92F9 EQ PUSH2 0xF68 JUMPI DUP1 PUSH4 0xBBFFD04C EQ PUSH2 0xE5C JUMPI DUP1 PUSH4 0xC1FC006A EQ PUSH2 0xE33 JUMPI DUP1 PUSH4 0xC2E4FE5A EQ PUSH2 0xDED JUMPI DUP1 PUSH4 0xC2FC0D26 EQ PUSH2 0xDC9 JUMPI DUP1 PUSH4 0xC3A4B41A EQ PUSH2 0xD83 JUMPI DUP1 PUSH4 0xC3FEDA17 EQ PUSH2 0xCD5 JUMPI DUP1 PUSH4 0xC47D1724 EQ PUSH2 0x838 JUMPI DUP1 PUSH4 0xC4B192F7 EQ PUSH2 0xC7C JUMPI DUP1 PUSH4 0xC6765D28 EQ PUSH2 0xBD5 JUMPI DUP1 PUSH4 0xCF09E0D0 EQ PUSH2 0xBB7 JUMPI DUP1 PUSH4 0xD2291E11 EQ PUSH2 0xB2F JUMPI DUP1 PUSH4 0xD64C58A7 EQ PUSH2 0xAF6 JUMPI DUP1 PUSH4 0xDFAFE10F EQ PUSH2 0xA94 JUMPI DUP1 PUSH4 0xDFB748AA EQ PUSH2 0x9CD JUMPI DUP1 PUSH4 0xE0308323 EQ PUSH2 0x96B JUMPI DUP1 PUSH4 0xE1D5A2C8 EQ PUSH2 0x8BB JUMPI DUP1 PUSH4 0xE7AA3AFC EQ PUSH2 0x877 JUMPI DUP1 PUSH4 0xE807C0B2 EQ PUSH2 0x838 JUMPI DUP1 PUSH4 0xEED016BE EQ PUSH2 0x6C8 JUMPI DUP1 PUSH4 0xEF213106 EQ PUSH2 0x653 JUMPI DUP1 PUSH4 0xF1BC33B4 EQ PUSH2 0x635 JUMPI DUP1 PUSH4 0xF7267CFD EQ PUSH2 0x617 JUMPI DUP1 PUSH4 0xF75EADE0 EQ PUSH2 0x38C JUMPI PUSH4 0xFBA7CC79 EQ PUSH2 0x365 JUMPI PUSH1 0x0 DUP1 REVERT JUMPDEST CALLVALUE PUSH2 0x389 JUMPI DUP1 PUSH1 0x3 NOT CALLDATASIZE ADD SLT PUSH2 0x389 JUMPI PUSH1 0xFF PUSH1 0x20 SWAP2 SLOAD PUSH1 0xA0 SHR AND PUSH1 0x40 MLOAD SWAP1 ISZERO ISZERO DUP2 MSTORE RETURN JUMPDEST DUP1 REVERT JUMPDEST POP CALLVALUE PUSH2 0x389 JUMPI PUSH1 0x40 CALLDATASIZE PUSH1 0x3 NOT ADD SLT PUSH2 0x389 JUMPI PUSH2 0x3A6 PUSH2 0x35DD JUMP JUMPDEST PUSH1 0x24 CALLDATALOAD PUSH1 0x1 PUSH1 0x1 PUSH1 0x40 SHL SUB DUP2 GT PUSH2 0x613 JUMPI PUSH2 0x3C5 SWAP1 CALLDATASIZE SWAP1 PUSH1 0x4 ADD PUSH2 0x3667 JUMP JUMPDEST DUP3 SLOAD SWAP1 SWAP2 PUSH1 0x1 PUSH1 0x1 PUSH1 0xA0 SHL SUB DUP3 AND SWAP2 PUSH2 0x3EF SWAP1 PUSH1 0xFF SWAP1 PUSH2 0x3E6 CALLER DUP7 EQ PUSH2 0x3E82 JUMP JUMPDEST PUSH1 0xA0 SHR AND PUSH2 0x42C9 JUMP JUMPDEST PUSH1 0x1 PUSH1 0x1 PUSH1 0xA0 SHL SUB AND SWAP1 DUP2 ISZERO PUSH2 0x5D4 JUMPI DUP2 EQ PUSH2 0x597 JUMPI DUP1 DUP4 MSTORE PUSH1 0xC PUSH1 0x20 MSTORE PUSH1 0xFF PUSH1 0x3 PUSH1 0x40 DUP6 KECCAK256 ADD SLOAD AND PUSH2 0x556 JUMPI PUSH2 0x428 DUP3 MLOAD ISZERO ISZERO PUSH2 0x3EBD JUMP JUMPDEST DUP1 DUP4 MSTORE PUSH1 0x10 PUSH1 0x20 MSTORE PUSH2 0x446 PUSH2 0x440 PUSH1 0x40 DUP6 KECCAK256 SLOAD PUSH2 0x39FF JUMP JUMPDEST ISZERO PUSH2 0x3EF6 JUMP JUMPDEST PUSH2 0x47C PUSH1 0x40 MLOAD PUSH2 0x455 DUP2 PUSH2 0x35F8 JUMP JUMPDEST DUP3 DUP2 MSTORE DUP4 PUSH1 0x20 DUP3 ADD MSTORE TIMESTAMP PUSH1 0x40 DUP3 ADD MSTORE PUSH1 0x1 PUSH1 0x60 DUP3 ADD MSTORE DUP3 DUP6 MSTORE PUSH1 0xC PUSH1 0x20 MSTORE PUSH1 0x40 DUP6 KECCAK256 PUSH2 0x4733 JUMP JUMPDEST DUP3 DUP4 PUSH1 0xE SLOAD SWAP1 JUMPDEST DUP2 DUP2 LT PUSH2 0x521 JUMPI JUMPDEST POP POP ISZERO PUSH2 0x4CB JUMPI JUMPDEST PUSH32 0x7501885E0E140E0232EED19016A41BDE16B8DE699D11E7A461F88D6BA58A9CD PUSH1 0x40 MLOAD DUP1 PUSH2 0x4C5 CALLER SWAP6 TIMESTAMP SWAP1 DUP4 PUSH2 0x42AD JUMP JUMPDEST SUB SWAP1 LOG3 DUP1 RETURN JUMPDEST PUSH1 0xE SLOAD PUSH1 0x1 PUSH1 0x40 SHL DUP2 LT ISZERO PUSH2 0x50D JUMPI DUP1 PUSH1 0x1 PUSH2 0x4EC SWAP3 ADD PUSH1 0xE SSTORE PUSH1 0xE PUSH2 0x39E7 JUMP JUMPDEST DUP2 SLOAD PUSH1 0x1 PUSH1 0x1 PUSH1 0xA0 SHL SUB PUSH1 0x3 SWAP3 SWAP1 SWAP3 SHL SWAP2 DUP3 SHL NOT AND SWAP1 DUP4 SWAP1 SHL OR SWAP1 SSTORE PUSH2 0x493 JUMP JUMPDEST PUSH4 0x4E487B71 PUSH1 0xE0 SHL DUP5 MSTORE PUSH1 0x41 PUSH1 0x4 MSTORE PUSH1 0x24 DUP5 REVERT JUMPDEST DUP4 PUSH2 0x52B DUP3 PUSH2 0x39CC JUMP JUMPDEST SWAP1 SLOAD PUSH1 0x3 SWAP2 SWAP1 SWAP2 SHL SHR PUSH1 0x1 PUSH1 0x1 PUSH1 0xA0 SHL SUB AND EQ PUSH2 0x54A JUMPI PUSH1 0x1 ADD PUSH2 0x483 JUMP JUMPDEST POP POP POP PUSH1 0x1 CODESIZE DUP1 PUSH2 0x48B JUMP JUMPDEST PUSH1 0x40 MLOAD PUSH3 0x461BCD PUSH1 0xE5 SHL DUP2 MSTORE PUSH1 0x20 PUSH1 0x4 DUP3 ADD MSTORE PUSH1 0x19 PUSH1 0x24 DUP3 ADD MSTORE PUSH25 0x496E7669746174696F6E20616C726561647920657869737473 PUSH1 0x38 SHL PUSH1 0x44 DUP3 ADD MSTORE PUSH1 0x64 SWAP1 REVERT JUMPDEST PUSH1 0x40 MLOAD PUSH3 0x461BCD PUSH1 0xE5 SHL DUP2 MSTORE PUSH1 0x20 PUSH1 0x4 DUP3 ADD MSTORE PUSH1 0x15 PUSH1 0x24 DUP3 ADD MSTORE PUSH21 0x21B0B73737BA1034B73B34BA329031B932B0BA37B9 PUSH1 0x59 SHL PUSH1 0x44 DUP3 ADD MSTORE PUSH1 0x64 SWAP1 REVERT JUMPDEST PUSH1 0x40 MLOAD PUSH3 0x461BCD PUSH1 0xE5 SHL DUP2 MSTORE PUSH1 0x20 PUSH1 0x4 DUP3 ADD MSTORE PUSH1 0x17 PUSH1 0x24 DUP3 ADD MSTORE PUSH23 0x496E76616C696420696E76697465652061646472657373 PUSH1 0x48 SHL PUSH1 0x44 DUP3 ADD MSTORE PUSH1 0x64 SWAP1 REVERT JUMPDEST DUP3 DUP1 REVERT JUMPDEST POP CALLVALUE PUSH2 0x389 JUMPI DUP1 PUSH1 0x3 NOT CALLDATASIZE ADD SLT PUSH2 0x389 JUMPI PUSH1 0x20 PUSH1 0x2 SLOAD PUSH1 0x40 MLOAD SWAP1 DUP2 MSTORE RETURN JUMPDEST POP CALLVALUE PUSH2 0x389 JUMPI DUP1 PUSH1 0x3 NOT CALLDATASIZE ADD SLT PUSH2 0x389 JUMPI PUSH1 0x20 PUSH1 0x18 SLOAD PUSH1 0x40 MLOAD SWAP1 DUP2 MSTORE RETURN JUMPDEST POP CALLVALUE PUSH2 0x389 JUMPI PUSH1 0x20 CALLDATASIZE PUSH1 0x3 NOT ADD SLT PUSH2 0x389 JUMPI PUSH1 0x40 SWAP1 PUSH1 0x1 PUSH1 0x1 PUSH1 0xA0 SHL SUB PUSH2 0x678 PUSH2 0x35DD JUMP JUMPDEST AND DUP2 MSTORE PUSH1 0xB PUSH1 0x20 MSTORE KECCAK256 PUSH1 0x1 DUP1 PUSH1 0xA0 SHL SUB DUP2 SLOAD AND PUSH2 0x6C4 PUSH1 0x40 MLOAD SWAP3 PUSH2 0x6AA DUP5 PUSH2 0x6A3 DUP2 PUSH1 0x1 DUP6 ADD PUSH2 0x3DFF JUMP JUMPDEST SUB DUP6 PUSH2 0x3629 JUMP JUMPDEST PUSH1 0xFF PUSH1 0x3 PUSH1 0x2 DUP4 ADD SLOAD SWAP3 ADD SLOAD AND SWAP1 PUSH1 0x40 MLOAD SWAP5 DUP6 SWAP5 DUP6 PUSH2 0x3932 JUMP JUMPDEST SUB SWAP1 RETURN JUMPDEST POP CALLVALUE PUSH2 0x389 JUMPI PUSH2 0x6D7 CALLDATASIZE PUSH2 0x3789 JUMP JUMPDEST PUSH2 0x6EB PUSH1 0x1 DUP1 PUSH1 0xA0 SHL SUB DUP5 SLOAD AND CALLER EQ PUSH2 0x3E82 JUMP JUMPDEST PUSH1 0x1B SLOAD PUSH1 0x1 PUSH1 0x1 PUSH1 0xA0 SHL SUB AND SWAP1 PUSH2 0x703 DUP3 ISZERO ISZERO PUSH2 0x4339 JUMP JUMPDEST DUP3 MLOAD ISZERO PUSH2 0x7FE JUMPI PUSH1 0x1D SLOAD PUSH1 0x1 DUP2 ADD DUP1 SWAP2 GT PUSH2 0x7EA JUMPI SWAP1 DUP2 DUP6 SWAP4 SWAP3 PUSH1 0x1D SSTORE PUSH2 0x728 PUSH2 0x4D8A JUMP JUMPDEST DUP3 EXTCODESIZE ISZERO PUSH2 0x7E6 JUMPI PUSH2 0x774 SWAP3 DUP5 SWAP3 DUP4 PUSH1 0x40 MLOAD DUP1 SWAP7 DUP2 SWAP6 DUP3 SWAP5 PUSH4 0x579BDAE3 PUSH1 0xE1 SHL DUP5 MSTORE PUSH1 0x60 PUSH1 0x4 DUP6 ADD MSTORE PUSH2 0x75D PUSH1 0x64 DUP6 ADD DUP14 PUSH2 0x385B JUMP JUMPDEST SWAP2 PUSH1 0x24 DUP6 ADD MSTORE PUSH1 0x3 NOT DUP5 DUP4 SUB ADD PUSH1 0x44 DUP6 ADD MSTORE PUSH2 0x385B JUMP JUMPDEST SUB SWAP3 GAS CALL DUP1 ISZERO PUSH2 0x7DB JUMPI PUSH2 0x7C2 JUMPI JUMPDEST POP PUSH32 0x24C323B0138F1F608C855CCCB8550AC649C15BF3CEA39B8FDBDE80D33258A74F DUP3 PUSH1 0x1D SLOAD SWAP1 MLOAD PUSH2 0x7BC PUSH1 0x40 MLOAD SWAP3 DUP4 SWAP3 TIMESTAMP SWAP2 DUP5 PUSH2 0x451E JUMP JUMPDEST SUB SWAP1 LOG1 DUP1 RETURN JUMPDEST DUP2 PUSH2 0x7CC SWAP2 PUSH2 0x3629 JUMP JUMPDEST PUSH2 0x7D7 JUMPI DUP2 CODESIZE PUSH2 0x783 JUMP JUMPDEST POP DUP1 REVERT JUMPDEST PUSH1 0x40 MLOAD RETURNDATASIZE DUP5 DUP3 RETURNDATACOPY RETURNDATASIZE SWAP1 REVERT JUMPDEST DUP4 DUP1 REVERT JUMPDEST PUSH4 0x4E487B71 PUSH1 0xE0 SHL DUP6 MSTORE PUSH1 0x11 PUSH1 0x4 MSTORE PUSH1 0x24 DUP6 REVERT JUMPDEST PUSH1 0x40 MLOAD PUSH3 0x461BCD PUSH1 0xE5 SHL DUP2 MSTORE PUSH1 0x20 PUSH1 0x4 DUP3 ADD MSTORE PUSH1 0x12 PUSH1 0x24 DUP3 ADD MSTORE PUSH18 0x8ADAE0E8F240E6C2DAE0D8CA40C4C2E8C6D PUSH1 0x73 SHL PUSH1 0x44 DUP3 ADD MSTORE PUSH1 0x64 SWAP1 REVERT JUMPDEST POP CALLVALUE PUSH2 0x389 JUMPI DUP1 PUSH1 0x3 NOT CALLDATASIZE ADD SLT PUSH2 0x389 JUMPI PUSH2 0x6C4 PUSH1 0x40 MLOAD PUSH2 0x863 DUP2 PUSH2 0x85C DUP2 PUSH2 0x3D8C JUMP JUMPDEST SUB DUP3 PUSH2 0x3629 JUMP JUMPDEST PUSH1 0x40 MLOAD SWAP2 DUP3 SWAP2 PUSH1 0x20 DUP4 MSTORE PUSH1 0x20 DUP4 ADD SWAP1 PUSH2 0x3836 JUMP JUMPDEST POP CALLVALUE PUSH2 0x389 JUMPI DUP1 PUSH1 0x3 NOT CALLDATASIZE ADD SLT PUSH2 0x389 JUMPI PUSH1 0x80 SWAP1 SLOAD PUSH1 0x1 SLOAD SWAP1 PUSH1 0x2 SLOAD PUSH1 0x40 MLOAD SWAP3 PUSH1 0xFF DUP4 PUSH1 0xA0 SHR AND ISZERO ISZERO DUP5 MSTORE PUSH1 0x20 DUP5 ADD MSTORE PUSH1 0x40 DUP4 ADD MSTORE PUSH1 0x1 DUP1 PUSH1 0xA0 SHL SUB AND PUSH1 0x60 DUP3 ADD MSTORE RETURN JUMPDEST POP CALLVALUE PUSH2 0x389 JUMPI DUP1 PUSH1 0x3 NOT CALLDATASIZE ADD SLT PUSH2 0x389 JUMPI PUSH1 0x1B SLOAD PUSH1 0x1 PUSH1 0x1 PUSH1 0xA0 SHL SUB AND CALLER SUB PUSH2 0x938 JUMPI DUP1 PUSH1 0x40 MLOAD PUSH2 0x8ED PUSH1 0x20 DUP3 PUSH2 0x3629 JUMP JUMPDEST MSTORE PUSH1 0x1D SLOAD PUSH1 0x1 DUP2 ADD DUP1 SWAP2 GT PUSH2 0x924 JUMPI PUSH1 0x20 DUP2 PUSH1 0x0 DUP1 MLOAD PUSH1 0x20 PUSH2 0x4FEA DUP4 CODECOPY DUP2 MLOAD SWAP2 MSTORE SWAP3 PUSH1 0x1D SSTORE PUSH1 0x40 MLOAD SWAP1 DUP2 MSTORE LOG1 PUSH2 0x921 PUSH2 0x4D8A JUMP JUMPDEST DUP1 RETURN JUMPDEST PUSH4 0x4E487B71 PUSH1 0xE0 SHL DUP3 MSTORE PUSH1 0x11 PUSH1 0x4 MSTORE PUSH1 0x24 DUP3 REVERT JUMPDEST PUSH1 0x40 MLOAD PUSH3 0x461BCD PUSH1 0xE5 SHL DUP2 MSTORE PUSH1 0x20 PUSH1 0x4 DUP3 ADD MSTORE PUSH1 0xB PUSH1 0x24 DUP3 ADD MSTORE PUSH11 0x4F6E6C7920766F74696E67 PUSH1 0xA8 SHL PUSH1 0x44 DUP3 ADD MSTORE PUSH1 0x64 SWAP1 REVERT JUMPDEST POP CALLVALUE PUSH2 0x389 JUMPI PUSH1 0x20 CALLDATASIZE PUSH1 0x3 NOT ADD SLT PUSH2 0x389 JUMPI PUSH1 0x4 CALLDATALOAD SWAP1 PUSH1 0x1 PUSH1 0x1 PUSH1 0x40 SHL SUB DUP3 GT PUSH2 0x389 JUMPI PUSH1 0x20 PUSH1 0xFF PUSH2 0x9B7 DUP3 PUSH2 0x9A4 CALLDATASIZE PUSH1 0x4 DUP9 ADD PUSH2 0x3667 JUMP JUMPDEST DUP2 PUSH1 0x40 MLOAD SWAP4 DUP3 DUP6 DUP1 SWAP5 MLOAD SWAP4 DUP5 SWAP3 ADD PUSH2 0x3813 JUMP JUMPDEST DUP2 ADD PUSH1 0x1A DUP2 MSTORE SUB ADD SWAP1 KECCAK256 SLOAD AND PUSH1 0x40 MLOAD SWAP1 ISZERO ISZERO DUP2 MSTORE RETURN JUMPDEST POP CALLVALUE PUSH2 0x389 JUMPI PUSH1 0x20 CALLDATASIZE PUSH1 0x3 NOT ADD SLT PUSH2 0x389 JUMPI PUSH2 0x9E7 PUSH2 0x35DD JUMP JUMPDEST PUSH2 0x9FB PUSH1 0x1 DUP1 PUSH1 0xA0 SHL SUB DUP4 SLOAD AND CALLER EQ PUSH2 0x3E82 JUMP JUMPDEST PUSH2 0xA50 PUSH2 0xA44 PUSH1 0x1 DUP1 PUSH1 0xA0 SHL SUB DUP4 AND SWAP3 DUP4 DUP6 MSTORE PUSH1 0xB PUSH1 0x20 MSTORE PUSH2 0xA26 PUSH1 0xFF PUSH1 0x3 PUSH1 0x40 DUP9 KECCAK256 ADD SLOAD AND PUSH2 0x49D2 JUMP JUMPDEST DUP4 DUP6 MSTORE PUSH1 0xB PUSH1 0x20 MSTORE PUSH2 0xA4B PUSH1 0x1 PUSH1 0x40 DUP8 KECCAK256 ADD PUSH1 0x40 MLOAD SWAP4 DUP5 DUP1 SWAP3 PUSH2 0x3DFF JUMP JUMPDEST SUB DUP4 PUSH2 0x3629 JUMP JUMPDEST PUSH2 0x4E6C JUMP JUMPDEST DUP1 DUP3 MSTORE PUSH1 0xB PUSH1 0x20 MSTORE PUSH2 0xA64 PUSH1 0x40 DUP4 KECCAK256 PUSH2 0x4614 JUMP JUMPDEST PUSH1 0x40 MLOAD SWAP1 TIMESTAMP DUP3 MSTORE PUSH32 0x423EB00B6A18C3ECFC2170A0E40EF0BAD995279070614BA2E4BE1B94F67EB888 PUSH1 0x20 CALLER SWAP4 LOG3 DUP1 RETURN JUMPDEST POP CALLVALUE PUSH2 0x389 JUMPI PUSH1 0x20 CALLDATASIZE PUSH1 0x3 NOT ADD SLT PUSH2 0x389 JUMPI PUSH2 0x921 PUSH2 0xAB1 PUSH2 0x35DD JUMP JUMPDEST PUSH2 0xAC5 PUSH1 0x1 DUP1 PUSH1 0xA0 SHL SUB DUP5 SLOAD AND CALLER EQ PUSH2 0x3E82 JUMP JUMPDEST PUSH1 0x1 PUSH1 0x1 PUSH1 0xA0 SHL SUB DUP2 AND DUP4 MSTORE PUSH1 0x10 PUSH1 0x20 MSTORE PUSH1 0x40 DUP4 KECCAK256 SLOAD PUSH2 0xAE8 SWAP1 PUSH2 0x440 SWAP1 PUSH2 0x39FF JUMP JUMPDEST PUSH2 0xAF0 PUSH2 0x43FA JUMP JUMPDEST SWAP1 PUSH2 0x4E6C JUMP JUMPDEST POP CALLVALUE PUSH2 0x389 JUMPI PUSH1 0x20 CALLDATASIZE PUSH1 0x3 NOT ADD SLT PUSH2 0x389 JUMPI PUSH1 0x20 SWAP1 PUSH1 0x40 SWAP1 PUSH1 0x1 PUSH1 0x1 PUSH1 0xA0 SHL SUB PUSH2 0xB1E PUSH2 0x35DD JUMP JUMPDEST AND DUP2 MSTORE PUSH1 0x11 DUP4 MSTORE KECCAK256 SLOAD PUSH1 0x40 MLOAD SWAP1 DUP2 MSTORE RETURN JUMPDEST POP CALLVALUE PUSH2 0x389 JUMPI DUP1 PUSH1 0x3 NOT CALLDATASIZE ADD SLT PUSH2 0x389 JUMPI PUSH1 0x19 SLOAD PUSH2 0xB4C DUP2 PUSH2 0x36F4 JUMP JUMPDEST SWAP2 PUSH2 0xB5A PUSH1 0x40 MLOAD SWAP4 DUP5 PUSH2 0x3629 JUMP JUMPDEST DUP2 DUP4 MSTORE PUSH1 0x19 DUP2 MSTORE PUSH1 0x0 DUP1 MLOAD PUSH1 0x20 PUSH2 0x50AA DUP4 CODECOPY DUP2 MLOAD SWAP2 MSTORE PUSH1 0x20 DUP5 ADD JUMPDEST DUP4 DUP4 LT PUSH2 0xB92 JUMPI PUSH1 0x40 MLOAD PUSH1 0x20 DUP1 DUP3 MSTORE DUP2 SWAP1 PUSH2 0x6C4 SWAP1 DUP3 ADD DUP9 PUSH2 0x385B JUMP JUMPDEST PUSH1 0x1 PUSH1 0x20 DUP2 SWAP3 PUSH1 0x40 MLOAD PUSH2 0xBA9 DUP2 PUSH2 0x85C DUP2 DUP10 PUSH2 0x3DFF JUMP JUMPDEST DUP2 MSTORE ADD SWAP3 ADD SWAP3 ADD SWAP2 SWAP1 PUSH2 0xB75 JUMP JUMPDEST POP CALLVALUE PUSH2 0x389 JUMPI DUP1 PUSH1 0x3 NOT CALLDATASIZE ADD SLT PUSH2 0x389 JUMPI PUSH1 0x20 PUSH1 0x1 SLOAD PUSH1 0x40 MLOAD SWAP1 DUP2 MSTORE RETURN JUMPDEST POP CALLVALUE PUSH2 0x389 JUMPI PUSH1 0x20 CALLDATASIZE PUSH1 0x3 NOT ADD SLT PUSH2 0x389 JUMPI PUSH1 0x4 CALLDATALOAD PUSH1 0x1 PUSH1 0x1 PUSH1 0x40 SHL SUB DUP2 GT PUSH2 0x7D7 JUMPI PUSH2 0xC09 PUSH2 0xC49 SWAP2 CALLDATASIZE SWAP1 PUSH1 0x4 ADD PUSH2 0x3667 JUMP JUMPDEST PUSH2 0xC19 PUSH1 0xFF DUP5 SLOAD PUSH1 0xA0 SHR AND PUSH2 0x42C9 JUMP JUMPDEST PUSH2 0xC25 DUP2 MLOAD ISZERO ISZERO PUSH2 0x4300 JUMP JUMPDEST CALLER DUP4 MSTORE PUSH1 0x10 PUSH1 0x20 MSTORE PUSH2 0xC44 PUSH2 0xC3D PUSH1 0x40 DUP6 KECCAK256 SLOAD PUSH2 0x39FF JUMP JUMPDEST ISZERO ISZERO PUSH2 0x4423 JUMP JUMPDEST PUSH2 0x3FED JUMP JUMPDEST TIMESTAMP PUSH1 0x2 SSTORE PUSH1 0x40 MLOAD TIMESTAMP DUP2 MSTORE PUSH32 0xC1756FD99AC9A2B1B22B5E701DDB022B897A002144D045B77AC35CE46610FEF6 PUSH1 0x20 CALLER SWAP3 LOG2 DUP1 RETURN JUMPDEST POP CALLVALUE PUSH2 0x389 JUMPI PUSH1 0x20 CALLDATASIZE PUSH1 0x3 NOT ADD SLT PUSH2 0x389 JUMPI PUSH1 0x4 CALLDATALOAD PUSH1 0x1 PUSH1 0x1 PUSH1 0x40 SHL SUB DUP2 GT PUSH2 0x7D7 JUMPI PUSH2 0xCB0 PUSH2 0xC49 SWAP2 CALLDATASIZE SWAP1 PUSH1 0x4 ADD PUSH2 0x3667 JUMP JUMPDEST PUSH2 0xCC4 PUSH1 0x1 DUP1 PUSH1 0xA0 SHL SUB DUP5 SLOAD AND CALLER EQ PUSH2 0x3E82 JUMP JUMPDEST PUSH2 0xCD0 DUP2 MLOAD ISZERO ISZERO PUSH2 0x467C JUMP JUMPDEST PUSH2 0x40DC JUMP JUMPDEST POP CALLVALUE PUSH2 0x389 JUMPI DUP1 PUSH1 0x3 NOT CALLDATASIZE ADD SLT PUSH2 0x389 JUMPI DUP1 SLOAD PUSH2 0xCFC CALLER PUSH1 0x1 PUSH1 0x1 PUSH1 0xA0 SHL SUB DUP4 AND EQ PUSH2 0x3E82 JUMP JUMPDEST PUSH1 0xFF DUP2 PUSH1 0xA0 SHR AND PUSH2 0xD4D JUMPI PUSH1 0xFF PUSH1 0xA0 SHL NOT AND PUSH1 0x1 PUSH1 0xA0 SHL OR DUP2 SSTORE TIMESTAMP PUSH1 0x2 DUP2 SWAP1 SSTORE PUSH1 0x40 MLOAD SWAP1 DUP2 MSTORE CALLER SWAP1 PUSH32 0xB351BA71DDC1D2BF39667CEBDE99FB92EB26B9F418D5049BA0200888BA810715 SWAP1 PUSH1 0x20 SWAP1 LOG2 DUP1 RETURN JUMPDEST PUSH1 0x40 MLOAD PUSH3 0x461BCD PUSH1 0xE5 SHL DUP2 MSTORE PUSH1 0x20 PUSH1 0x4 DUP3 ADD MSTORE PUSH1 0xE PUSH1 0x24 DUP3 ADD MSTORE PUSH14 0x416C726561647920616374697665 PUSH1 0x90 SHL PUSH1 0x44 DUP3 ADD MSTORE PUSH1 0x64 SWAP1 REVERT JUMPDEST POP CALLVALUE PUSH2 0x389 JUMPI DUP1 PUSH1 0x3 NOT CALLDATASIZE ADD SLT PUSH2 0x389 JUMPI PUSH1 0x1B SLOAD PUSH1 0x1 PUSH1 0x1 PUSH1 0xA0 SHL SUB AND ISZERO ISZERO DUP1 PUSH2 0xDB5 JUMPI JUMPDEST PUSH1 0x20 SWAP1 PUSH1 0x40 MLOAD SWAP1 ISZERO ISZERO DUP2 MSTORE RETURN JUMPDEST POP PUSH1 0x1C SLOAD PUSH1 0x1 PUSH1 0x1 PUSH1 0xA0 SHL SUB AND ISZERO ISZERO PUSH2 0xDA8 JUMP JUMPDEST POP CALLVALUE PUSH2 0x389 JUMPI DUP1 PUSH1 0x3 NOT CALLDATASIZE ADD SLT PUSH2 0x389 JUMPI PUSH2 0x6C4 PUSH1 0x40 MLOAD PUSH2 0x863 DUP2 PUSH2 0x85C DUP2 PUSH2 0x3B4D JUMP JUMPDEST POP CALLVALUE PUSH2 0x389 JUMPI PUSH1 0x20 CALLDATASIZE PUSH1 0x3 NOT ADD SLT PUSH2 0x389 JUMPI PUSH2 0x6C4 SWAP1 PUSH2 0x85C SWAP1 PUSH2 0x863 SWAP1 PUSH1 0x40 SWAP1 PUSH1 0x1 PUSH1 0x1 PUSH1 0xA0 SHL SUB PUSH2 0xE1E PUSH2 0x35DD JUMP JUMPDEST AND DUP2 MSTORE PUSH1 0x10 PUSH1 0x20 MSTORE KECCAK256 PUSH1 0x40 MLOAD SWAP3 DUP4 DUP1 SWAP3 PUSH2 0x3DFF JUMP JUMPDEST POP CALLVALUE PUSH2 0x389 JUMPI DUP1 PUSH1 0x3 NOT CALLDATASIZE ADD SLT PUSH2 0x389 JUMPI PUSH1 0x1B SLOAD PUSH1 0x40 MLOAD PUSH1 0x1 PUSH1 0x1 PUSH1 0xA0 SHL SUB SWAP1 SWAP2 AND DUP2 MSTORE PUSH1 0x20 SWAP1 RETURN JUMPDEST POP CALLVALUE PUSH2 0x389 JUMPI DUP1 PUSH1 0x3 NOT CALLDATASIZE ADD SLT PUSH2 0x389 JUMPI DUP1 SLOAD PUSH2 0xE83 CALLER PUSH1 0x1 PUSH1 0x1 PUSH1 0xA0 SHL SUB DUP4 AND EQ PUSH2 0x3E82 JUMP JUMPDEST PUSH1 0xFF DUP2 PUSH1 0xA0 SHR AND ISZERO PUSH2 0xF30 JUMPI PUSH1 0xFF PUSH1 0xA0 SHL NOT AND DUP2 SSTORE TIMESTAMP PUSH1 0x2 SSTORE PUSH1 0x40 MLOAD TIMESTAMP DUP2 MSTORE PUSH32 0x17064D72EE4A5901E55DFA45024EA8F67CDB4895BA6364AB2F8E7223F642AD36 PUSH1 0x20 CALLER SWAP3 LOG2 PUSH1 0x1D SLOAD PUSH1 0x40 MLOAD SWAP1 PUSH1 0x60 DUP3 MSTORE PUSH1 0x25 PUSH1 0x60 DUP4 ADD MSTORE PUSH32 0x50726F6A656374206D616E75616C6C7920656E64656420627920636F6F726469 PUSH1 0x80 DUP4 ADD MSTORE PUSH5 0x3730BA37B9 PUSH1 0xD9 SHL PUSH1 0xA0 DUP4 ADD MSTORE PUSH1 0x20 DUP3 ADD MSTORE TIMESTAMP PUSH1 0x40 DUP3 ADD MSTORE PUSH1 0x0 DUP1 MLOAD PUSH1 0x20 PUSH2 0x4F8A DUP4 CODECOPY DUP2 MLOAD SWAP2 MSTORE PUSH1 0xC0 CALLER SWAP3 LOG2 DUP1 RETURN JUMPDEST PUSH1 0x40 MLOAD PUSH3 0x461BCD PUSH1 0xE5 SHL DUP2 MSTORE PUSH1 0x20 PUSH1 0x4 DUP3 ADD MSTORE PUSH1 0x10 PUSH1 0x24 DUP3 ADD MSTORE PUSH16 0x416C726561647920696E616374697665 PUSH1 0x80 SHL PUSH1 0x44 DUP3 ADD MSTORE PUSH1 0x64 SWAP1 REVERT JUMPDEST POP CALLVALUE PUSH2 0x389 JUMPI PUSH2 0xF77 CALLDATASIZE PUSH2 0x36AE JUMP JUMPDEST SWAP2 PUSH2 0xF8C PUSH1 0x1 DUP1 PUSH1 0xA0 SHL SUB DUP6 SLOAD AND CALLER EQ PUSH2 0x3E82 JUMP JUMPDEST PUSH1 0x1 PUSH1 0x1 PUSH1 0xA0 SHL SUB AND DUP1 DUP5 MSTORE PUSH1 0x10 PUSH1 0x20 MSTORE PUSH1 0x40 DUP5 KECCAK256 SLOAD SWAP1 SWAP3 SWAP1 PUSH2 0xFAE SWAP1 PUSH2 0x39FF JUMP JUMPDEST ISZERO PUSH2 0x102D JUMPI DUP2 PUSH2 0xFE1 PUSH32 0xE8C250DF70AFA51C6916B9661D224A47FD9568CB0C1C9D0D49E2E45CC729A987 SWAP4 MLOAD ISZERO ISZERO PUSH2 0x3EBD JUMP JUMPDEST PUSH2 0xFEC DUP3 ISZERO ISZERO PUSH2 0x3F38 JUMP JUMPDEST DUP4 DUP6 MSTORE PUSH1 0x10 PUSH1 0x20 MSTORE PUSH2 0x1001 DUP2 PUSH1 0x40 DUP8 KECCAK256 PUSH2 0x41CB JUMP JUMPDEST DUP4 DUP6 MSTORE PUSH1 0x11 PUSH1 0x20 MSTORE DUP2 PUSH1 0x40 DUP7 KECCAK256 SSTORE TIMESTAMP PUSH1 0x2 SSTORE PUSH2 0x1022 PUSH1 0x40 MLOAD SWAP3 DUP4 SWAP3 DUP4 PUSH2 0x42AD JUMP JUMPDEST SUB SWAP1 LOG2 PUSH2 0x921 PUSH2 0x4AD6 JUMP JUMPDEST PUSH1 0x40 MLOAD PUSH3 0x461BCD PUSH1 0xE5 SHL DUP2 MSTORE PUSH1 0x20 PUSH1 0x4 DUP3 ADD MSTORE PUSH1 0x11 PUSH1 0x24 DUP3 ADD MSTORE PUSH17 0x139BDD0818481C185C9D1A58DA5C185B9D PUSH1 0x7A SHL PUSH1 0x44 DUP3 ADD MSTORE PUSH1 0x64 SWAP1 REVERT JUMPDEST POP CALLVALUE PUSH2 0x389 JUMPI PUSH1 0x20 CALLDATASIZE PUSH1 0x3 NOT ADD SLT PUSH2 0x389 JUMPI PUSH1 0x4 CALLDATALOAD PUSH2 0x108F PUSH1 0x1 DUP1 PUSH1 0xA0 SHL SUB DUP4 SLOAD AND CALLER EQ PUSH2 0x3E82 JUMP JUMPDEST PUSH1 0x1B SLOAD PUSH1 0x1 PUSH1 0x1 PUSH1 0xA0 SHL SUB AND PUSH2 0x10A6 DUP2 ISZERO ISZERO PUSH2 0x4339 JUMP JUMPDEST PUSH1 0x1D SLOAD DUP3 SUB PUSH2 0x10F9 JUMPI DUP3 SWAP2 DUP2 EXTCODESIZE ISZERO PUSH2 0x10F5 JUMPI DUP3 SWAP2 PUSH1 0x24 DUP4 SWAP3 PUSH1 0x40 MLOAD SWAP5 DUP6 SWAP4 DUP5 SWAP3 PUSH4 0x2E30E40D PUSH1 0xE2 SHL DUP5 MSTORE PUSH1 0x4 DUP5 ADD MSTORE GAS CALL DUP1 ISZERO PUSH2 0x7DB JUMPI PUSH2 0x10E4 JUMPI POP RETURN JUMPDEST DUP2 PUSH2 0x10EE SWAP2 PUSH2 0x3629 JUMP JUMPDEST PUSH2 0x389 JUMPI DUP1 RETURN JUMPDEST POP POP REVERT JUMPDEST PUSH1 0x40 MLOAD PUSH3 0x461BCD PUSH1 0xE5 SHL DUP2 MSTORE PUSH1 0x20 PUSH1 0x4 DUP3 ADD MSTORE PUSH1 0xD PUSH1 0x24 DUP3 ADD MSTORE PUSH13 0x125B9D985B1A59081C9BDD5B99 PUSH1 0x9A SHL PUSH1 0x44 DUP3 ADD MSTORE PUSH1 0x64 SWAP1 REVERT JUMPDEST POP CALLVALUE PUSH2 0x389 JUMPI PUSH1 0x20 CALLDATASIZE PUSH1 0x3 NOT ADD SLT PUSH2 0x389 JUMPI PUSH1 0x4 CALLDATALOAD SWAP1 PUSH1 0xE SLOAD DUP3 LT ISZERO PUSH2 0x389 JUMPI PUSH1 0x20 PUSH2 0x1159 DUP4 PUSH2 0x39CC JUMP JUMPDEST SWAP1 SLOAD PUSH1 0x40 MLOAD PUSH1 0x3 SWAP3 SWAP1 SWAP3 SHL SHR PUSH1 0x1 PUSH1 0x1 PUSH1 0xA0 SHL SUB AND DUP2 MSTORE RETURN JUMPDEST POP CALLVALUE PUSH2 0x389 JUMPI PUSH1 0x20 CALLDATASIZE PUSH1 0x3 NOT ADD SLT PUSH2 0x389 JUMPI PUSH2 0x118C PUSH2 0x35DD JUMP JUMPDEST PUSH2 0x11A0 PUSH1 0x1 DUP1 PUSH1 0xA0 SHL SUB DUP4 SLOAD AND CALLER EQ PUSH2 0x3E82 JUMP JUMPDEST PUSH1 0x1 PUSH1 0x1 PUSH1 0xA0 SHL SUB AND DUP1 DUP3 MSTORE PUSH1 0xB PUSH1 0x20 MSTORE PUSH1 0x40 DUP3 KECCAK256 PUSH1 0x3 ADD SLOAD PUSH2 0x11C5 SWAP1 PUSH1 0xFF AND PUSH2 0x49D2 JUMP JUMPDEST DUP1 DUP3 MSTORE PUSH1 0xB PUSH1 0x20 MSTORE PUSH2 0x11D9 PUSH1 0x40 DUP4 KECCAK256 PUSH2 0x4614 JUMP JUMPDEST PUSH1 0x40 MLOAD SWAP1 TIMESTAMP DUP3 MSTORE PUSH32 0x1A69E67D1BE897D0CA0CF1517B4D17E345B4272A80BC900F9FE8E96F261CA1DB PUSH1 0x20 CALLER SWAP4 LOG3 DUP1 RETURN JUMPDEST POP CALLVALUE PUSH2 0x389 JUMPI PUSH1 0x20 CALLDATASIZE PUSH1 0x3 NOT ADD SLT PUSH2 0x389 JUMPI PUSH1 0x4 CALLDATALOAD PUSH1 0x1 PUSH1 0x1 PUSH1 0x40 SHL SUB DUP2 GT PUSH2 0x7D7 JUMPI PUSH2 0x123A SWAP1 CALLDATASIZE SWAP1 PUSH1 0x4 ADD PUSH2 0x3667 JUMP JUMPDEST PUSH2 0x124F PUSH1 0x1 DUP1 PUSH1 0xA0 SHL SUB PUSH1 0x1B SLOAD AND CALLER EQ PUSH2 0x449D JUMP JUMPDEST PUSH1 0x40 MLOAD DUP2 MLOAD SWAP1 PUSH1 0x20 DUP2 DUP2 DUP6 ADD SWAP4 PUSH2 0x1267 DUP2 DUP4 DUP8 PUSH2 0x3813 JUMP JUMPDEST DUP2 ADD PUSH1 0x1A DUP2 MSTORE SUB ADD SWAP1 KECCAK256 PUSH1 0x1 PUSH1 0xFF NOT DUP3 SLOAD AND OR SWAP1 SSTORE DUP3 DUP4 SWAP2 PUSH1 0x19 SLOAD SWAP3 JUMPDEST DUP4 DUP2 LT PUSH2 0x1345 JUMPI JUMPDEST POP POP ISZERO PUSH2 0x12D9 JUMPI JUMPDEST POP PUSH2 0x12C2 PUSH1 0x0 DUP1 MLOAD PUSH1 0x20 PUSH2 0x4F2A DUP4 CODECOPY DUP2 MLOAD SWAP2 MSTORE SWAP2 PUSH1 0x1D SLOAD PUSH1 0x18 SLOAD PUSH1 0x40 MLOAD SWAP4 DUP5 SWAP4 PUSH1 0x80 DUP6 MSTORE PUSH1 0x80 DUP6 ADD SWAP1 PUSH2 0x3836 JUMP JUMPDEST SWAP2 PUSH1 0x20 DUP5 ADD MSTORE PUSH1 0x40 DUP4 ADD MSTORE TIMESTAMP PUSH1 0x60 DUP4 ADD MSTORE SUB SWAP1 LOG1 DUP1 RETURN JUMPDEST PUSH1 0x1 PUSH1 0x40 SHL DUP2 LT ISZERO PUSH2 0x1331 JUMPI DUP1 PUSH1 0x1 PUSH2 0x12F5 SWAP3 ADD PUSH1 0x19 SSTORE PUSH2 0x3996 JUMP JUMPDEST PUSH2 0x131D JUMPI DUP2 PUSH2 0x1316 PUSH1 0x0 DUP1 MLOAD PUSH1 0x20 PUSH2 0x4F2A DUP4 CODECOPY DUP2 MLOAD SWAP2 MSTORE SWAP4 PUSH2 0x12C2 SWAP4 PUSH2 0x41CB JUMP JUMPDEST SWAP2 POP PUSH2 0x1294 JUMP JUMPDEST PUSH4 0x4E487B71 PUSH1 0xE0 SHL DUP4 MSTORE PUSH1 0x4 DUP4 SWAP1 MSTORE PUSH1 0x24 DUP4 REVERT JUMPDEST PUSH4 0x4E487B71 PUSH1 0xE0 SHL DUP4 MSTORE PUSH1 0x41 PUSH1 0x4 MSTORE PUSH1 0x24 DUP4 REVERT JUMPDEST PUSH2 0x85C PUSH2 0x1361 PUSH2 0x1354 DUP4 PUSH2 0x3996 JUMP JUMPDEST POP PUSH1 0x40 MLOAD SWAP3 DUP4 DUP1 SWAP3 PUSH2 0x3DFF JUMP JUMPDEST PUSH1 0x20 DUP2 MLOAD SWAP2 ADD KECCAK256 DUP6 MLOAD DUP4 KECCAK256 EQ PUSH2 0x1379 JUMPI PUSH1 0x1 ADD PUSH2 0x1284 JUMP JUMPDEST POP POP POP PUSH1 0x1 CODESIZE DUP1 PUSH2 0x128C JUMP JUMPDEST POP CALLVALUE PUSH2 0x389 JUMPI DUP1 PUSH1 0x3 NOT CALLDATASIZE ADD SLT PUSH2 0x389 JUMPI PUSH1 0x20 PUSH1 0x15 SLOAD PUSH1 0x40 MLOAD SWAP1 DUP2 MSTORE RETURN JUMPDEST POP CALLVALUE PUSH2 0x389 JUMPI PUSH2 0x13B2 CALLDATASIZE PUSH2 0x38E8 JUMP JUMPDEST SWAP1 PUSH2 0x13C8 PUSH1 0x1 DUP1 PUSH1 0xA0 SHL SUB PUSH1 0x1B SLOAD AND CALLER EQ PUSH2 0x449D JUMP JUMPDEST PUSH1 0x1C SLOAD DUP4 SWAP1 PUSH1 0x1 PUSH1 0x1 PUSH1 0xA0 SHL SUB AND PUSH2 0x13E1 DUP2 ISZERO ISZERO PUSH2 0x4962 JUMP JUMPDEST PUSH1 0x1D SLOAD SWAP1 DUP1 EXTCODESIZE ISZERO PUSH2 0x613 JUMPI PUSH1 0x40 MLOAD PUSH4 0xA6EA915B PUSH1 0xE0 SHL DUP2 MSTORE SWAP2 DUP4 SWAP2 DUP4 SWAP2 DUP3 SWAP1 DUP5 SWAP1 DUP3 SWAP1 PUSH2 0x1413 SWAP1 DUP12 DUP12 PUSH1 0x4 DUP6 ADD PUSH2 0x49A9 JUMP JUMPDEST SUB SWAP3 GAS CALL DUP1 ISZERO PUSH2 0x7DB JUMPI PUSH2 0x145B JUMPI JUMPDEST POP POP PUSH32 0x503607074D0E95D8C0C6B1660C3441384010E05305DA22AEF0594EB3FCAE6236 SWAP2 PUSH2 0x7BC PUSH1 0x1D SLOAD SWAP3 PUSH1 0x40 MLOAD SWAP4 DUP5 SWAP4 TIMESTAMP SWAP3 DUP6 PUSH2 0x44E9 JUMP JUMPDEST DUP2 PUSH2 0x1465 SWAP2 PUSH2 0x3629 JUMP JUMPDEST PUSH2 0x613 JUMPI DUP3 CODESIZE PUSH2 0x1422 JUMP JUMPDEST POP CALLVALUE PUSH2 0x389 JUMPI PUSH1 0x20 CALLDATASIZE PUSH1 0x3 NOT ADD SLT PUSH2 0x389 JUMPI PUSH1 0x20 SWAP1 PUSH1 0x40 SWAP1 PUSH1 0x1 PUSH1 0x1 PUSH1 0xA0 SHL SUB PUSH2 0x1498 PUSH2 0x35DD JUMP JUMPDEST AND DUP2 MSTORE PUSH1 0x12 DUP4 MSTORE KECCAK256 SLOAD PUSH1 0x40 MLOAD SWAP1 DUP2 MSTORE RETURN JUMPDEST POP CALLVALUE PUSH2 0x389 JUMPI PUSH1 0x60 CALLDATASIZE PUSH1 0x3 NOT ADD SLT PUSH2 0x389 JUMPI DUP1 PUSH1 0x4 CALLDATALOAD PUSH1 0x1 PUSH1 0x1 PUSH1 0x40 SHL SUB DUP2 GT PUSH2 0x1568 JUMPI PUSH2 0x14DB SWAP1 CALLDATASIZE SWAP1 PUSH1 0x4 ADD PUSH2 0x3667 JUMP JUMPDEST PUSH1 0x24 CALLDATALOAD PUSH1 0x1 PUSH1 0x1 PUSH1 0x40 SHL SUB DUP2 GT PUSH2 0x10F5 JUMPI PUSH2 0x14FA SWAP1 CALLDATASIZE SWAP1 PUSH1 0x4 ADD PUSH2 0x3667 JUMP JUMPDEST PUSH2 0x150E PUSH1 0x1 DUP1 PUSH1 0xA0 SHL SUB DUP5 SLOAD AND CALLER EQ PUSH2 0x3E82 JUMP JUMPDEST PUSH1 0x1C SLOAD PUSH1 0x1 PUSH1 0x1 PUSH1 0xA0 SHL SUB AND SWAP2 PUSH2 0x1526 DUP4 ISZERO ISZERO PUSH2 0x4962 JUMP JUMPDEST DUP3 EXTCODESIZE ISZERO PUSH2 0x1565 JUMPI PUSH2 0x1554 SWAP3 DUP5 SWAP3 DUP4 PUSH1 0x40 MLOAD DUP1 SWAP7 DUP2 SWAP6 DUP3 SWAP5 PUSH4 0xA6EA915B PUSH1 0xE0 SHL DUP5 MSTORE PUSH1 0x44 CALLDATALOAD SWAP2 PUSH1 0x4 DUP6 ADD PUSH2 0x49A9 JUMP JUMPDEST SUB SWAP3 GAS CALL DUP1 ISZERO PUSH2 0x7DB JUMPI PUSH2 0x10E4 JUMPI POP RETURN JUMPDEST POP POP JUMPDEST POP REVERT JUMPDEST POP CALLVALUE PUSH2 0x389 JUMPI DUP1 PUSH1 0x3 NOT CALLDATASIZE ADD SLT PUSH2 0x389 JUMPI PUSH2 0x6C4 PUSH1 0x40 MLOAD PUSH2 0x863 DUP2 PUSH2 0x85C DUP2 PUSH2 0x3CA6 JUMP JUMPDEST POP CALLVALUE PUSH2 0x389 JUMPI DUP1 PUSH1 0x3 NOT CALLDATASIZE ADD SLT PUSH2 0x389 JUMPI PUSH2 0x6C4 PUSH1 0x40 MLOAD PUSH2 0x863 DUP2 PUSH2 0x85C DUP2 PUSH2 0x3C33 JUMP JUMPDEST POP CALLVALUE PUSH2 0x389 JUMPI DUP1 PUSH1 0x3 NOT CALLDATASIZE ADD SLT PUSH2 0x389 JUMPI PUSH1 0x20 PUSH1 0x1D SLOAD PUSH1 0x40 MLOAD SWAP1 DUP2 MSTORE RETURN JUMPDEST POP CALLVALUE PUSH2 0x389 JUMPI PUSH1 0x20 CALLDATASIZE PUSH1 0x3 NOT ADD SLT PUSH2 0x389 JUMPI PUSH1 0x4 CALLDATALOAD PUSH1 0x1 PUSH1 0x1 PUSH1 0x40 SHL SUB DUP2 GT PUSH2 0x7D7 JUMPI PUSH2 0x1602 SWAP1 CALLDATASIZE SWAP1 PUSH1 0x4 ADD PUSH2 0x3667 JUMP JUMPDEST SWAP1 PUSH2 0x1617 PUSH1 0x1 DUP1 PUSH1 0xA0 SHL SUB DUP3 SLOAD AND CALLER EQ PUSH2 0x3E82 JUMP JUMPDEST DUP2 MLOAD ISZERO PUSH2 0x176D JUMPI DUP2 MLOAD SWAP2 PUSH1 0x1 PUSH1 0x1 PUSH1 0x40 SHL SUB DUP4 GT PUSH2 0x1759 JUMPI PUSH2 0x163A PUSH1 0x8 SLOAD PUSH2 0x39FF JUMP JUMPDEST PUSH1 0x1F DUP2 GT PUSH2 0x1712 JUMPI JUMPDEST POP PUSH1 0x20 SWAP3 PUSH1 0x1F DUP2 GT PUSH1 0x1 EQ PUSH2 0x16B1 JUMPI DUP1 DUP4 SWAP5 PUSH2 0x1666 SWAP4 SWAP5 SWAP2 PUSH2 0x16A6 JUMPI JUMPDEST POP PUSH2 0x3FDA JUMP JUMPDEST PUSH1 0x8 SSTORE JUMPDEST TIMESTAMP PUSH1 0x2 SSTORE PUSH32 0xAD44B517DC31B3F923480DD93AC031881F73B79BBAC3F5897259887894147244 PUSH1 0x40 MLOAD DUP1 PUSH2 0x16A0 CALLER SWAP5 TIMESTAMP SWAP1 DUP4 PUSH2 0x42AD JUMP JUMPDEST SUB SWAP1 LOG2 DUP1 RETURN JUMPDEST SWAP1 POP DUP4 ADD MLOAD CODESIZE PUSH2 0x1660 JUMP JUMPDEST PUSH1 0x8 DUP4 MSTORE DUP4 DUP4 KECCAK256 PUSH1 0x1F NOT DUP3 AND SWAP5 DUP5 JUMPDEST DUP7 DUP2 LT PUSH2 0x16FA JUMPI POP DUP3 PUSH1 0x1 SWAP5 SWAP6 SWAP7 LT PUSH2 0x16E1 JUMPI JUMPDEST POP POP DUP2 SHL ADD PUSH1 0x8 SSTORE PUSH2 0x166A JUMP JUMPDEST DUP5 ADD MLOAD PUSH1 0x0 NOT PUSH1 0xF8 DUP5 PUSH1 0x3 SHL AND SHR NOT AND SWAP1 SSTORE CODESIZE DUP1 PUSH2 0x16D4 JUMP JUMPDEST SWAP1 SWAP2 PUSH1 0x20 PUSH1 0x1 DUP2 SWAP3 DUP6 DUP9 ADD MLOAD DUP2 SSTORE ADD SWAP4 ADD SWAP2 ADD PUSH2 0x16C0 JUMP JUMPDEST PUSH1 0x8 DUP4 MSTORE PUSH2 0x1749 SWAP1 PUSH1 0x0 DUP1 MLOAD PUSH1 0x20 PUSH2 0x4FCA DUP4 CODECOPY DUP2 MLOAD SWAP2 MSTORE PUSH1 0x1F DUP7 ADD PUSH1 0x5 SHR DUP2 ADD SWAP2 PUSH1 0x20 DUP8 LT PUSH2 0x174F JUMPI JUMPDEST PUSH1 0x1F ADD PUSH1 0x5 SHR ADD SWAP1 PUSH2 0x3FC3 JUMP JUMPDEST CODESIZE PUSH2 0x1643 JUMP JUMPDEST SWAP1 SWAP2 POP DUP2 SWAP1 PUSH2 0x173C JUMP JUMPDEST PUSH4 0x4E487B71 PUSH1 0xE0 SHL DUP3 MSTORE PUSH1 0x41 PUSH1 0x4 MSTORE PUSH1 0x24 DUP3 REVERT JUMPDEST PUSH1 0x40 MLOAD PUSH3 0x461BCD PUSH1 0xE5 SHL DUP2 MSTORE PUSH1 0x20 PUSH1 0x4 DUP3 ADD MSTORE PUSH1 0x23 PUSH1 0x24 DUP3 ADD MSTORE PUSH32 0x46696E616C20524F2D437261746520686173682063616E6E6F7420626520656D PUSH1 0x44 DUP3 ADD MSTORE PUSH3 0x707479 PUSH1 0xE8 SHL PUSH1 0x64 DUP3 ADD MSTORE PUSH1 0x84 SWAP1 REVERT JUMPDEST POP CALLVALUE PUSH2 0x389 JUMPI DUP1 PUSH1 0x3 NOT CALLDATASIZE ADD SLT PUSH2 0x389 JUMPI PUSH2 0x182C PUSH1 0x15 SLOAD PUSH2 0x6C4 PUSH1 0x1D SLOAD SWAP2 PUSH1 0x16 SLOAD SWAP3 PUSH1 0x18 SLOAD PUSH1 0x40 MLOAD SWAP5 PUSH2 0x17FB DUP7 PUSH2 0x17F4 DUP2 PUSH2 0x3CA6 JUMP JUMPDEST SUB DUP8 PUSH2 0x3629 JUMP JUMPDEST PUSH1 0x40 MLOAD SWAP3 PUSH2 0x180C DUP5 PUSH2 0x6A3 DUP2 PUSH2 0x3D19 JUMP JUMPDEST PUSH2 0x183A PUSH2 0x1817 PUSH2 0x46C8 JUMP JUMPDEST SWAP5 PUSH1 0x40 MLOAD SWAP10 DUP11 SWAP10 PUSH1 0xE0 DUP12 MSTORE PUSH1 0xE0 DUP12 ADD SWAP1 PUSH2 0x3836 JUMP JUMPDEST SWAP1 DUP10 DUP3 SUB PUSH1 0x20 DUP12 ADD MSTORE PUSH2 0x3836 JUMP JUMPDEST SWAP5 PUSH1 0x40 DUP9 ADD MSTORE PUSH1 0x60 DUP8 ADD MSTORE PUSH1 0x80 DUP7 ADD MSTORE PUSH1 0xA0 DUP6 ADD MSTORE DUP4 DUP3 SUB PUSH1 0xC0 DUP6 ADD MSTORE PUSH2 0x385B JUMP JUMPDEST POP CALLVALUE PUSH2 0x389 JUMPI DUP1 PUSH1 0x3 NOT CALLDATASIZE ADD SLT PUSH2 0x389 JUMPI PUSH2 0x6C4 PUSH1 0x40 MLOAD PUSH2 0x863 DUP2 PUSH2 0x85C DUP2 PUSH2 0x3D19 JUMP JUMPDEST POP CALLVALUE PUSH2 0x389 JUMPI DUP1 PUSH1 0x3 NOT CALLDATASIZE ADD SLT PUSH2 0x389 JUMPI PUSH2 0x1899 PUSH2 0x4843 JUMP JUMPDEST SWAP1 PUSH2 0x6C4 PUSH1 0x40 MLOAD SWAP3 DUP4 SWAP3 ISZERO ISZERO DUP4 MSTORE PUSH1 0x40 PUSH1 0x20 DUP5 ADD MSTORE PUSH1 0x40 DUP4 ADD SWAP1 PUSH2 0x3836 JUMP JUMPDEST POP CALLVALUE PUSH2 0x389 JUMPI DUP1 PUSH1 0x3 NOT CALLDATASIZE ADD SLT PUSH2 0x389 JUMPI PUSH1 0x20 PUSH2 0x18D3 PUSH2 0x4786 JUMP JUMPDEST PUSH1 0x40 MLOAD SWAP1 ISZERO ISZERO DUP2 MSTORE RETURN JUMPDEST POP CALLVALUE PUSH2 0x389 JUMPI PUSH1 0x40 CALLDATASIZE PUSH1 0x3 NOT ADD SLT PUSH2 0x389 JUMPI PUSH1 0x4 CALLDATALOAD PUSH1 0x24 CALLDATALOAD SWAP1 PUSH2 0x190A PUSH1 0x1 DUP1 PUSH1 0xA0 SHL SUB DUP5 SLOAD AND CALLER EQ PUSH2 0x3E82 JUMP JUMPDEST DUP2 DUP2 LT ISZERO PUSH2 0x191B JUMPI PUSH1 0x9 SSTORE PUSH1 0xA SSTORE DUP1 RETURN JUMPDEST PUSH1 0x40 MLOAD PUSH3 0x461BCD PUSH1 0xE5 SHL DUP2 MSTORE PUSH1 0x20 PUSH1 0x4 DUP3 ADD MSTORE PUSH1 0x12 PUSH1 0x24 DUP3 ADD MSTORE PUSH18 0x496E76616C69642074696D652072616E6765 PUSH1 0x70 SHL PUSH1 0x44 DUP3 ADD MSTORE PUSH1 0x64 SWAP1 REVERT JUMPDEST POP CALLVALUE PUSH2 0x389 JUMPI DUP1 PUSH1 0x3 NOT CALLDATASIZE ADD SLT PUSH2 0x389 JUMPI PUSH1 0x20 PUSH1 0x9 SLOAD PUSH1 0x40 MLOAD SWAP1 DUP2 MSTORE RETURN JUMPDEST POP CALLVALUE PUSH2 0x389 JUMPI PUSH1 0x20 CALLDATASIZE PUSH1 0x3 NOT ADD SLT PUSH2 0x389 JUMPI PUSH1 0x4 CALLDATALOAD PUSH1 0x1 PUSH1 0x1 PUSH1 0x40 SHL SUB DUP2 GT PUSH2 0x7D7 JUMPI PUSH2 0x19A4 SWAP1 CALLDATASIZE SWAP1 PUSH1 0x4 ADD PUSH2 0x3667 JUMP JUMPDEST DUP2 SLOAD PUSH2 0x19B5 PUSH1 0xFF DUP3 PUSH1 0xA0 SHR AND PUSH2 0x42C9 JUMP JUMPDEST PUSH1 0x1 PUSH1 0x1 PUSH1 0xA0 SHL SUB AND CALLER EQ PUSH2 0x1B13 JUMPI CALLER DUP3 MSTORE PUSH1 0xB PUSH1 0x20 MSTORE PUSH1 0xFF PUSH1 0x3 PUSH1 0x40 DUP5 KECCAK256 ADD SLOAD AND PUSH2 0x1ADD JUMPI PUSH2 0x19E7 DUP2 MLOAD ISZERO ISZERO PUSH2 0x3EBD JUMP JUMPDEST PUSH2 0x1A1D PUSH1 0x40 MLOAD PUSH2 0x19F6 DUP2 PUSH2 0x35F8 JUMP JUMPDEST CALLER DUP2 MSTORE DUP3 PUSH1 0x20 DUP3 ADD MSTORE TIMESTAMP PUSH1 0x40 DUP3 ADD MSTORE PUSH1 0x1 PUSH1 0x60 DUP3 ADD MSTORE CALLER DUP5 MSTORE PUSH1 0xB PUSH1 0x20 MSTORE PUSH1 0x40 DUP5 KECCAK256 PUSH2 0x4733 JUMP JUMPDEST DUP2 DUP3 PUSH1 0xD SLOAD SWAP1 JUMPDEST DUP2 DUP2 LT PUSH2 0x1AA8 JUMPI JUMPDEST POP POP ISZERO PUSH2 0x1A66 JUMPI JUMPDEST PUSH32 0xE4D6C018ABD0178D4BCE0856089EF1876318617B97A1D700BB98506598AB0AFC PUSH1 0x40 MLOAD DUP1 PUSH2 0x16A0 CALLER SWAP5 TIMESTAMP SWAP1 DUP4 PUSH2 0x42AD JUMP JUMPDEST PUSH1 0xD SLOAD PUSH1 0x1 PUSH1 0x40 SHL DUP2 LT ISZERO PUSH2 0x1331 JUMPI DUP1 PUSH1 0x1 PUSH2 0x1A87 SWAP3 ADD PUSH1 0xD SSTORE PUSH1 0xD PUSH2 0x39E7 JUMP JUMPDEST DUP2 SLOAD PUSH1 0x1 PUSH1 0x1 PUSH1 0xA0 SHL SUB PUSH1 0x3 SWAP3 SWAP1 SWAP3 SHL SWAP2 DUP3 SHL NOT AND CALLER SWAP1 SWAP2 SHL OR SWAP1 SSTORE PUSH2 0x1A34 JUMP JUMPDEST PUSH2 0x1AB1 DUP2 PUSH2 0x39B1 JUMP JUMPDEST SWAP1 SLOAD PUSH1 0x3 SWAP2 SWAP1 SWAP2 SHL SHR PUSH1 0x1 PUSH1 0x1 PUSH1 0xA0 SHL SUB AND CALLER EQ PUSH2 0x1AD1 JUMPI PUSH1 0x1 ADD PUSH2 0x1A24 JUMP JUMPDEST POP POP POP PUSH1 0x1 CODESIZE DUP1 PUSH2 0x1A2C JUMP JUMPDEST PUSH1 0x40 MLOAD PUSH3 0x461BCD PUSH1 0xE5 SHL DUP2 MSTORE PUSH1 0x20 PUSH1 0x4 DUP3 ADD MSTORE PUSH1 0xE PUSH1 0x24 DUP3 ADD MSTORE PUSH14 0x5265717565737420657869737473 PUSH1 0x90 SHL PUSH1 0x44 DUP3 ADD MSTORE PUSH1 0x64 SWAP1 REVERT JUMPDEST PUSH1 0x40 MLOAD PUSH3 0x461BCD PUSH1 0xE5 SHL DUP2 MSTORE PUSH1 0x20 PUSH1 0x4 DUP3 ADD MSTORE PUSH1 0x13 PUSH1 0x24 DUP3 ADD MSTORE PUSH19 0x21B932B0BA37B91031B0B73737BA103537B4B7 PUSH1 0x69 SHL PUSH1 0x44 DUP3 ADD MSTORE PUSH1 0x64 SWAP1 REVERT JUMPDEST POP CALLVALUE PUSH2 0x389 JUMPI DUP1 PUSH1 0x3 NOT CALLDATASIZE ADD SLT PUSH2 0x389 JUMPI PUSH1 0x20 PUSH1 0x16 SLOAD PUSH1 0x40 MLOAD SWAP1 DUP2 MSTORE RETURN JUMPDEST POP CALLVALUE PUSH2 0x389 JUMPI DUP1 PUSH1 0x3 NOT CALLDATASIZE ADD SLT PUSH2 0x389 JUMPI PUSH1 0x1 PUSH1 0xA0 SHL PUSH1 0x1 SWAP1 SUB SWAP1 SLOAD AND PUSH1 0x9 SLOAD PUSH1 0xA SLOAD SWAP2 PUSH1 0x15 SLOAD PUSH1 0x16 SLOAD PUSH1 0x40 MLOAD SWAP4 DUP5 PUSH2 0x1BA4 DUP2 PUSH2 0x3A39 JUMP JUMPDEST SUB PUSH2 0x1BAF SWAP1 DUP7 PUSH2 0x3629 JUMP JUMPDEST PUSH1 0x40 MLOAD SWAP6 DUP7 PUSH2 0x1BBD DUP2 PUSH2 0x3AC8 JUMP JUMPDEST SUB PUSH2 0x1BC8 SWAP1 DUP9 PUSH2 0x3629 JUMP JUMPDEST PUSH1 0x40 MLOAD SWAP2 DUP3 PUSH2 0x1BD6 DUP2 PUSH2 0x3B4D JUMP JUMPDEST SUB PUSH2 0x1BE1 SWAP1 DUP5 PUSH2 0x3629 JUMP JUMPDEST PUSH1 0x40 MLOAD SWAP2 DUP3 PUSH2 0x1BEF DUP2 PUSH2 0x3BC0 JUMP JUMPDEST SUB PUSH2 0x1BFA SWAP1 DUP5 PUSH2 0x3629 JUMP JUMPDEST PUSH1 0x40 MLOAD SWAP3 DUP4 PUSH2 0x1C08 DUP2 PUSH2 0x3CA6 JUMP JUMPDEST SUB PUSH2 0x1C13 SWAP1 DUP6 PUSH2 0x3629 JUMP JUMPDEST PUSH1 0x40 MLOAD SWAP5 DUP6 PUSH2 0x1C21 DUP2 PUSH2 0x3D19 JUMP JUMPDEST SUB PUSH2 0x1C2C SWAP1 DUP8 PUSH2 0x3629 JUMP JUMPDEST PUSH2 0x1C34 PUSH2 0x46C8 JUMP JUMPDEST SWAP9 PUSH1 0x40 MLOAD SWAP12 DUP13 SWAP12 PUSH2 0x180 DUP14 MSTORE PUSH2 0x180 DUP14 ADD PUSH2 0x1C4E SWAP2 PUSH2 0x3836 JUMP JUMPDEST DUP13 DUP2 SUB PUSH1 0x20 DUP15 ADD MSTORE PUSH2 0x1C5F SWAP2 PUSH2 0x3836 JUMP JUMPDEST SWAP1 PUSH1 0x40 DUP13 ADD MSTORE DUP11 DUP2 SUB PUSH1 0x60 DUP13 ADD MSTORE PUSH2 0x1C76 SWAP2 PUSH2 0x3836 JUMP JUMPDEST DUP10 DUP2 SUB PUSH1 0x80 DUP12 ADD MSTORE PUSH2 0x1C87 SWAP2 PUSH2 0x3836 JUMP JUMPDEST SWAP2 PUSH1 0xA0 DUP10 ADD MSTORE PUSH1 0xC0 DUP9 ADD MSTORE DUP7 DUP2 SUB PUSH1 0xE0 DUP9 ADD MSTORE PUSH2 0x1CA3 SWAP2 PUSH2 0x3836 JUMP JUMPDEST DUP6 DUP2 SUB PUSH2 0x100 DUP8 ADD MSTORE PUSH2 0x1CB5 SWAP2 PUSH2 0x3836 JUMP JUMPDEST SWAP2 PUSH2 0x120 DUP6 ADD MSTORE PUSH2 0x140 DUP5 ADD MSTORE DUP3 DUP2 SUB PUSH2 0x160 DUP5 ADD MSTORE PUSH2 0x6C4 SWAP2 PUSH2 0x385B JUMP JUMPDEST POP CALLVALUE PUSH2 0x389 JUMPI DUP1 PUSH1 0x3 NOT CALLDATASIZE ADD SLT PUSH2 0x389 JUMPI PUSH2 0x1CF5 PUSH1 0xFF DUP3 SLOAD PUSH1 0xA0 SHR AND PUSH2 0x42C9 JUMP JUMPDEST CALLER DUP2 MSTORE PUSH1 0xC PUSH1 0x20 MSTORE PUSH2 0x1D10 PUSH1 0xFF PUSH1 0x3 PUSH1 0x40 DUP5 KECCAK256 ADD SLOAD AND PUSH2 0x45D2 JUMP JUMPDEST CALLER DUP2 MSTORE PUSH1 0x10 PUSH1 0x20 MSTORE PUSH2 0x1D28 PUSH2 0x440 PUSH1 0x40 DUP4 KECCAK256 SLOAD PUSH2 0x39FF JUMP JUMPDEST CALLER DUP2 MSTORE PUSH1 0xC PUSH1 0x20 MSTORE PUSH2 0x1D52 PUSH2 0x85C PUSH2 0x1D4C PUSH1 0x1 PUSH1 0x40 DUP6 KECCAK256 ADD PUSH1 0x40 MLOAD SWAP3 DUP4 DUP1 SWAP3 PUSH2 0x3DFF JUMP JUMPDEST CALLER PUSH2 0x4E6C JUMP JUMPDEST CALLER DUP2 MSTORE PUSH1 0xC PUSH1 0x20 MSTORE PUSH2 0x1D66 PUSH1 0x40 DUP3 KECCAK256 PUSH2 0x4614 JUMP JUMPDEST PUSH1 0x40 MLOAD TIMESTAMP DUP2 MSTORE ADDRESS SWAP1 PUSH32 0x7B7404D30440087C51E068AAC60D434F5A3A121313C035893FDF187C11D077B6 PUSH1 0x20 CALLER SWAP3 LOG3 DUP1 RETURN JUMPDEST POP CALLVALUE PUSH2 0x389 JUMPI DUP1 PUSH1 0x3 NOT CALLDATASIZE ADD SLT PUSH2 0x389 JUMPI PUSH2 0x6C4 PUSH1 0x40 MLOAD PUSH2 0x863 DUP2 PUSH2 0x85C DUP2 PUSH2 0x3AC8 JUMP JUMPDEST POP CALLVALUE PUSH2 0x389 JUMPI DUP1 PUSH1 0x3 NOT CALLDATASIZE ADD SLT PUSH2 0x389 JUMPI PUSH1 0x20 PUSH1 0xFF PUSH1 0x1E SLOAD AND PUSH1 0x40 MLOAD SWAP1 ISZERO ISZERO DUP2 MSTORE RETURN JUMPDEST POP CALLVALUE PUSH2 0x389 JUMPI PUSH1 0x20 CALLDATASIZE PUSH1 0x3 NOT ADD SLT PUSH2 0x389 JUMPI PUSH1 0x4 CALLDATALOAD PUSH1 0x17 SLOAD DUP2 LT ISZERO PUSH2 0x7D7 JUMPI PUSH1 0x17 SLOAD DUP2 LT ISZERO PUSH2 0x1E4A JUMPI PUSH1 0x17 DUP3 MSTORE PUSH1 0x0 DUP1 MLOAD PUSH1 0x20 PUSH2 0x504A DUP4 CODECOPY DUP2 MLOAD SWAP2 MSTORE ADD SWAP1 DUP1 PUSH2 0x1E36 JUMPI PUSH1 0x40 MLOAD PUSH2 0x6C4 SWAP1 PUSH2 0x863 DUP2 PUSH2 0x85C DUP2 DUP8 PUSH2 0x3DFF JUMP JUMPDEST PUSH4 0x4E487B71 PUSH1 0xE0 SHL DUP2 MSTORE PUSH1 0x4 DUP2 SWAP1 MSTORE PUSH1 0x24 SWAP1 REVERT JUMPDEST PUSH4 0x4E487B71 PUSH1 0xE0 SHL DUP3 MSTORE PUSH1 0x32 PUSH1 0x4 MSTORE PUSH1 0x24 DUP3 REVERT JUMPDEST POP CALLVALUE PUSH2 0x389 JUMPI PUSH1 0x20 CALLDATASIZE PUSH1 0x3 NOT ADD SLT PUSH2 0x389 JUMPI PUSH1 0x4 CALLDATALOAD SWAP1 PUSH1 0xD SLOAD DUP3 LT ISZERO PUSH2 0x389 JUMPI PUSH1 0x20 PUSH2 0x1159 DUP4 PUSH2 0x39B1 JUMP JUMPDEST POP CALLVALUE PUSH2 0x389 JUMPI PUSH2 0x100 CALLDATASIZE PUSH1 0x3 NOT ADD SLT PUSH2 0x389 JUMPI PUSH2 0x1EA4 PUSH2 0x35DD JUMP JUMPDEST PUSH1 0x24 CALLDATALOAD PUSH1 0x1 PUSH1 0x1 PUSH1 0xA0 SHL SUB DUP2 AND SWAP1 DUP2 SWAP1 SUB PUSH2 0x613 JUMPI PUSH1 0x44 CALLDATALOAD PUSH1 0x1 PUSH1 0x1 PUSH1 0x40 SHL SUB DUP2 GT PUSH2 0x7E6 JUMPI PUSH2 0x1ED8 SWAP1 CALLDATASIZE SWAP1 PUSH1 0x4 ADD PUSH2 0x3667 JUMP JUMPDEST SWAP2 PUSH1 0x64 CALLDATALOAD PUSH1 0x1 PUSH1 0x1 PUSH1 0x40 SHL SUB DUP2 GT PUSH2 0x23F0 JUMPI PUSH2 0x1EF8 SWAP1 CALLDATASIZE SWAP1 PUSH1 0x4 ADD PUSH2 0x3667 JUMP JUMPDEST PUSH1 0xA4 CALLDATALOAD PUSH1 0x84 CALLDATALOAD PUSH1 0xC4 CALLDATALOAD PUSH1 0x1 PUSH1 0x1 PUSH1 0x40 SHL SUB DUP2 GT PUSH2 0x23EC JUMPI PUSH2 0x1F1D SWAP1 CALLDATASIZE SWAP1 PUSH1 0x4 ADD PUSH2 0x370B JUMP JUMPDEST SWAP3 PUSH1 0xE4 CALLDATALOAD PUSH1 0x1 PUSH1 0x1 PUSH1 0x40 SHL SUB DUP2 GT PUSH2 0x23E8 JUMPI PUSH2 0x1F3D SWAP1 CALLDATASIZE SWAP1 PUSH1 0x4 ADD PUSH2 0x3667 JUMP JUMPDEST SWAP5 PUSH2 0x1F52 PUSH1 0x1 DUP1 PUSH1 0xA0 SHL SUB DUP11 SLOAD AND CALLER EQ PUSH2 0x3E82 JUMP JUMPDEST PUSH1 0x1 PUSH1 0x1 PUSH1 0xA0 SHL SUB AND SWAP7 DUP8 ISZERO ISZERO DUP1 PUSH2 0x23DF JUMPI JUMPDEST ISZERO PUSH2 0x239D JUMPI PUSH1 0x1B SLOAD PUSH2 0x1F80 PUSH1 0x1 PUSH1 0x1 PUSH1 0xA0 SHL SUB DUP3 AND ISZERO PUSH2 0x4632 JUMP JUMPDEST PUSH1 0x1C SLOAD PUSH2 0x1F96 PUSH1 0x1 PUSH1 0x1 PUSH1 0xA0 SHL SUB DUP3 AND ISZERO PUSH2 0x4632 JUMP JUMPDEST DUP5 ISZERO PUSH2 0x2360 JUMPI DUP6 ISZERO PUSH2 0x2326 JUMPI DUP10 DUP10 SWAP3 PUSH2 0x1FB1 DUP11 MLOAD ISZERO ISZERO PUSH2 0x467C JUMP JUMPDEST PUSH1 0x1 PUSH1 0x1 PUSH1 0xA0 SHL SUB NOT SWAP1 DUP2 AND SWAP2 SWAP1 SWAP2 OR PUSH1 0x1B SSTORE AND OR PUSH1 0x1C SSTORE PUSH2 0x1FD1 PUSH2 0x4AD6 JUMP JUMPDEST DUP1 MLOAD SWAP1 PUSH1 0x1 PUSH1 0x1 PUSH1 0x40 SHL SUB DUP3 GT PUSH2 0x2312 JUMPI PUSH2 0x1FED PUSH1 0x13 SLOAD PUSH2 0x39FF JUMP JUMPDEST PUSH1 0x1F DUP2 GT PUSH2 0x22D6 JUMPI JUMPDEST POP PUSH1 0x20 SWAP1 PUSH1 0x1F DUP4 GT PUSH1 0x1 EQ PUSH2 0x2271 JUMPI PUSH2 0x2019 SWAP3 SWAP2 DUP12 SWAP2 DUP4 PUSH2 0x21B1 JUMPI JUMPDEST POP POP PUSH2 0x3FDA JUMP JUMPDEST PUSH1 0x13 SSTORE JUMPDEST DUP1 MLOAD SWAP1 PUSH1 0x1 PUSH1 0x1 PUSH1 0x40 SHL SUB DUP3 GT PUSH2 0x225D JUMPI PUSH2 0x2039 PUSH1 0x14 SLOAD PUSH2 0x39FF JUMP JUMPDEST PUSH1 0x1F DUP2 GT PUSH2 0x2221 JUMPI JUMPDEST POP PUSH1 0x20 SWAP1 PUSH1 0x1F DUP4 GT PUSH1 0x1 EQ PUSH2 0x21BC JUMPI PUSH2 0x2064 SWAP3 SWAP2 DUP11 SWAP2 DUP4 PUSH2 0x21B1 JUMPI POP POP PUSH2 0x3FDA JUMP JUMPDEST PUSH1 0x14 SSTORE JUMPDEST PUSH1 0x15 SSTORE PUSH1 0x16 SSTORE DUP1 MLOAD SWAP1 PUSH1 0x1 PUSH1 0x40 SHL DUP3 GT PUSH2 0x219D JUMPI PUSH1 0x17 SLOAD DUP3 PUSH1 0x17 SSTORE DUP1 DUP4 LT PUSH2 0x2164 JUMPI JUMPDEST POP PUSH1 0x17 DUP7 MSTORE DUP6 SWAP3 SWAP2 SWAP1 DUP4 SWAP1 PUSH1 0x0 DUP1 MLOAD PUSH1 0x20 PUSH2 0x504A DUP4 CODECOPY DUP2 MLOAD SWAP2 MSTORE SWAP1 PUSH1 0x20 ADD JUMPDEST DUP4 DUP4 LT PUSH2 0x213D JUMPI POP POP POP POP ADDRESS EXTCODESIZE ISZERO PUSH2 0x7D7 JUMPI DUP2 PUSH2 0x20E3 SWAP2 PUSH1 0x40 MLOAD DUP1 SWAP4 DUP2 SWAP3 PUSH4 0xC4B192F7 PUSH1 0xE0 SHL DUP4 MSTORE PUSH1 0x20 PUSH1 0x4 DUP5 ADD MSTORE PUSH1 0x24 DUP4 ADD SWAP1 PUSH2 0x3836 JUMP JUMPDEST SUB DUP2 DUP4 ADDRESS GAS CALL DUP1 ISZERO PUSH2 0x7DB JUMPI PUSH2 0x2128 JUMPI JUMPDEST POP PUSH32 0xB009E24DD5F140AB58ABB9E6F2187D998561150B7DA958EBAD23A90E26D7366B PUSH1 0x40 DUP5 DUP5 DUP3 MLOAD SWAP2 DUP3 MSTORE PUSH1 0x20 DUP3 ADD MSTORE LOG1 DUP1 RETURN JUMPDEST DUP2 PUSH2 0x2132 SWAP2 PUSH2 0x3629 JUMP JUMPDEST PUSH2 0x613 JUMPI DUP3 CODESIZE PUSH2 0x20F4 JUMP JUMPDEST PUSH1 0x1 SWAP2 SWAP3 SWAP4 SWAP5 SWAP6 POP PUSH1 0x20 DUP2 PUSH2 0x2154 DUP5 SWAP4 MLOAD DUP7 PUSH2 0x41CB JUMP JUMPDEST ADD SWAP3 ADD SWAP3 ADD SWAP1 SWAP2 DUP8 SWAP5 SWAP4 SWAP3 PUSH2 0x20AA JUMP JUMPDEST PUSH1 0x17 DUP8 MSTORE PUSH1 0x0 DUP1 MLOAD PUSH1 0x20 PUSH2 0x504A DUP4 CODECOPY DUP2 MLOAD SWAP2 MSTORE SWAP1 DUP2 ADD SWAP1 DUP4 ADD JUMPDEST DUP2 DUP2 LT PUSH2 0x218B JUMPI POP PUSH2 0x208B JUMP JUMPDEST DUP1 PUSH2 0x2197 PUSH1 0x1 SWAP3 PUSH2 0x4534 JUMP JUMPDEST ADD PUSH2 0x217E JUMP JUMPDEST PUSH4 0x4E487B71 PUSH1 0xE0 SHL DUP7 MSTORE PUSH1 0x41 PUSH1 0x4 MSTORE PUSH1 0x24 DUP7 REVERT JUMPDEST ADD MLOAD SWAP1 POP CODESIZE DUP1 PUSH2 0x2012 JUMP JUMPDEST PUSH1 0x14 DUP11 MSTORE DUP2 DUP11 KECCAK256 SWAP2 SWAP1 PUSH1 0x1F NOT DUP5 AND DUP12 JUMPDEST DUP2 DUP2 LT PUSH2 0x2209 JUMPI POP SWAP1 DUP5 PUSH1 0x1 SWAP6 SWAP5 SWAP4 SWAP3 LT PUSH2 0x21F0 JUMPI JUMPDEST POP POP POP DUP2 SHL ADD PUSH1 0x14 SSTORE PUSH2 0x2068 JUMP JUMPDEST ADD MLOAD PUSH1 0x0 NOT PUSH1 0xF8 DUP5 PUSH1 0x3 SHL AND SHR NOT AND SWAP1 SSTORE CODESIZE DUP1 DUP1 PUSH2 0x21E2 JUMP JUMPDEST SWAP3 SWAP4 PUSH1 0x20 PUSH1 0x1 DUP2 SWAP3 DUP8 DUP7 ADD MLOAD DUP2 SSTORE ADD SWAP6 ADD SWAP4 ADD PUSH2 0x21CC JUMP JUMPDEST PUSH1 0x14 DUP11 MSTORE PUSH2 0x2257 SWAP1 PUSH1 0x0 DUP1 MLOAD PUSH1 0x20 PUSH2 0x506A DUP4 CODECOPY DUP2 MLOAD SWAP2 MSTORE PUSH1 0x1F DUP6 ADD PUSH1 0x5 SHR DUP2 ADD SWAP2 PUSH1 0x20 DUP7 LT PUSH2 0x174F JUMPI PUSH1 0x1F ADD PUSH1 0x5 SHR ADD SWAP1 PUSH2 0x3FC3 JUMP JUMPDEST CODESIZE PUSH2 0x2042 JUMP JUMPDEST PUSH4 0x4E487B71 PUSH1 0xE0 SHL DUP10 MSTORE PUSH1 0x41 PUSH1 0x4 MSTORE PUSH1 0x24 DUP10 REVERT JUMPDEST PUSH1 0x13 DUP12 MSTORE DUP2 DUP12 KECCAK256 SWAP2 SWAP1 PUSH1 0x1F NOT DUP5 AND DUP13 JUMPDEST DUP2 DUP2 LT PUSH2 0x22BE JUMPI POP SWAP1 DUP5 PUSH1 0x1 SWAP6 SWAP5 SWAP4 SWAP3 LT PUSH2 0x22A5 JUMPI JUMPDEST POP POP POP DUP2 SHL ADD PUSH1 0x13 SSTORE PUSH2 0x201D JUMP JUMPDEST ADD MLOAD PUSH1 0x0 NOT PUSH1 0xF8 DUP5 PUSH1 0x3 SHL AND SHR NOT AND SWAP1 SSTORE CODESIZE DUP1 DUP1 PUSH2 0x2297 JUMP JUMPDEST SWAP3 SWAP4 PUSH1 0x20 PUSH1 0x1 DUP2 SWAP3 DUP8 DUP7 ADD MLOAD DUP2 SSTORE ADD SWAP6 ADD SWAP4 ADD PUSH2 0x2281 JUMP JUMPDEST PUSH1 0x13 DUP12 MSTORE PUSH2 0x230C SWAP1 PUSH1 0x0 DUP1 MLOAD PUSH1 0x20 PUSH2 0x4F6A DUP4 CODECOPY DUP2 MLOAD SWAP2 MSTORE PUSH1 0x1F DUP6 ADD PUSH1 0x5 SHR DUP2 ADD SWAP2 PUSH1 0x20 DUP7 LT PUSH2 0x174F JUMPI PUSH1 0x1F ADD PUSH1 0x5 SHR ADD SWAP1 PUSH2 0x3FC3 JUMP JUMPDEST CODESIZE PUSH2 0x1FF6 JUMP JUMPDEST PUSH4 0x4E487B71 PUSH1 0xE0 SHL DUP11 MSTORE PUSH1 0x41 PUSH1 0x4 MSTORE PUSH1 0x24 DUP11 REVERT JUMPDEST PUSH1 0x40 MLOAD PUSH3 0x461BCD PUSH1 0xE5 SHL DUP2 MSTORE PUSH1 0x20 PUSH1 0x4 DUP3 ADD MSTORE PUSH1 0x12 PUSH1 0x24 DUP3 ADD MSTORE PUSH18 0x496E76616C69642062617463682073697A65 PUSH1 0x70 SHL PUSH1 0x44 DUP3 ADD MSTORE PUSH1 0x64 SWAP1 REVERT JUMPDEST PUSH1 0x40 MLOAD PUSH3 0x461BCD PUSH1 0xE5 SHL DUP2 MSTORE PUSH1 0x20 PUSH1 0x4 DUP3 ADD MSTORE PUSH1 0x15 PUSH1 0x24 DUP3 ADD MSTORE PUSH21 0x24B73B30B634B21036B0BC1034BA32B930BA34B7B7 PUSH1 0x59 SHL PUSH1 0x44 DUP3 ADD MSTORE PUSH1 0x64 SWAP1 REVERT JUMPDEST PUSH1 0x40 MLOAD PUSH3 0x461BCD PUSH1 0xE5 SHL DUP2 MSTORE PUSH1 0x20 PUSH1 0x4 DUP3 ADD MSTORE PUSH1 0x1A PUSH1 0x24 DUP3 ADD MSTORE PUSH26 0x496E76616C696420636F6E747261637420616464726573736573 PUSH1 0x30 SHL PUSH1 0x44 DUP3 ADD MSTORE PUSH1 0x64 SWAP1 REVERT JUMPDEST POP DUP7 ISZERO ISZERO PUSH2 0x1F65 JUMP JUMPDEST DUP9 DUP1 REVERT JUMPDEST DUP8 DUP1 REVERT JUMPDEST DUP5 DUP1 REVERT JUMPDEST POP CALLVALUE PUSH2 0x389 JUMPI DUP1 PUSH1 0x3 NOT CALLDATASIZE ADD SLT PUSH2 0x389 JUMPI PUSH1 0x40 PUSH1 0x1 SLOAD PUSH1 0x2 SLOAD DUP3 MLOAD SWAP2 DUP3 MSTORE PUSH1 0x20 DUP3 ADD MSTORE RETURN JUMPDEST POP CALLVALUE PUSH2 0x389 JUMPI PUSH1 0x20 CALLDATASIZE PUSH1 0x3 NOT ADD SLT PUSH2 0x389 JUMPI PUSH1 0x40 SWAP1 PUSH1 0x1 PUSH1 0x1 PUSH1 0xA0 SHL SUB PUSH2 0x243E PUSH2 0x35DD JUMP JUMPDEST AND DUP2 MSTORE PUSH1 0xC PUSH1 0x20 MSTORE KECCAK256 PUSH1 0x1 DUP1 PUSH1 0xA0 SHL SUB DUP2 SLOAD AND PUSH2 0x6C4 PUSH1 0x40 MLOAD SWAP3 PUSH2 0x6AA DUP5 PUSH2 0x6A3 DUP2 PUSH1 0x1 DUP6 ADD PUSH2 0x3DFF JUMP JUMPDEST POP CALLVALUE PUSH2 0x389 JUMPI DUP1 PUSH1 0x3 NOT CALLDATASIZE ADD SLT PUSH2 0x389 JUMPI PUSH2 0x6C4 PUSH1 0x40 MLOAD PUSH2 0x863 DUP2 PUSH2 0x85C DUP2 PUSH2 0x3A39 JUMP JUMPDEST POP CALLVALUE PUSH2 0x389 JUMPI PUSH1 0x20 CALLDATASIZE PUSH1 0x3 NOT ADD SLT PUSH2 0x389 JUMPI PUSH1 0x4 CALLDATALOAD PUSH1 0x1 PUSH1 0x1 PUSH1 0x40 SHL SUB DUP2 GT PUSH2 0x7D7 JUMPI PUSH2 0x24BE SWAP1 CALLDATASIZE SWAP1 PUSH1 0x4 ADD PUSH2 0x3667 JUMP JUMPDEST DUP2 SLOAD PUSH2 0x24DB SWAP1 PUSH1 0xFF SWAP1 PUSH2 0x3E6 CALLER PUSH1 0x1 PUSH1 0x1 PUSH1 0xA0 SHL SUB DUP4 AND EQ PUSH2 0x3E82 JUMP JUMPDEST PUSH1 0x1D SLOAD SWAP1 PUSH1 0x1 DUP3 ADD DUP1 SWAP3 GT PUSH2 0x255A JUMPI DUP2 PUSH32 0xBB4BA47257D82C025E976BCDC375CC2E26DE94EFD111BCA20CBC9A330D297455 PUSH2 0x2542 PUSH1 0x20 SWAP4 PUSH1 0x0 DUP1 MLOAD PUSH1 0x20 PUSH2 0x4FEA DUP4 CODECOPY DUP2 MLOAD SWAP2 MSTORE SWAP6 PUSH1 0x1D SSTORE TIMESTAMP PUSH1 0x2 SSTORE PUSH1 0x40 MLOAD SWAP2 DUP3 SWAP2 DUP6 DUP4 MSTORE PUSH1 0x60 DUP8 DUP5 ADD MSTORE PUSH1 0x60 DUP4 ADD SWAP1 PUSH2 0x3836 JUMP JUMPDEST TIMESTAMP PUSH1 0x40 DUP4 ADD MSTORE SUB SWAP1 LOG1 PUSH1 0x40 MLOAD SWAP1 DUP2 MSTORE LOG1 PUSH2 0x921 PUSH2 0x4D8A JUMP JUMPDEST PUSH4 0x4E487B71 PUSH1 0xE0 SHL DUP4 MSTORE PUSH1 0x11 PUSH1 0x4 MSTORE PUSH1 0x24 DUP4 REVERT JUMPDEST POP CALLVALUE PUSH2 0x389 JUMPI DUP1 PUSH1 0x3 NOT CALLDATASIZE ADD SLT PUSH2 0x389 JUMPI PUSH2 0x6C4 PUSH1 0x40 MLOAD PUSH2 0x863 DUP2 PUSH2 0x85C DUP2 PUSH2 0x3BC0 JUMP JUMPDEST POP CALLVALUE PUSH2 0x389 JUMPI PUSH1 0x20 CALLDATASIZE PUSH1 0x3 NOT ADD SLT PUSH2 0x389 JUMPI PUSH2 0x25C9 SWAP1 PUSH1 0x40 SWAP1 PUSH1 0x1 PUSH1 0x1 PUSH1 0xA0 SHL SUB PUSH2 0x25BB PUSH2 0x35DD JUMP JUMPDEST AND DUP2 MSTORE PUSH1 0xB PUSH1 0x20 MSTORE KECCAK256 PUSH2 0x4584 JUMP JUMPDEST PUSH1 0x1 DUP1 PUSH1 0xA0 SHL SUB DUP2 MLOAD AND PUSH2 0x6C4 PUSH1 0x20 DUP4 ADD MLOAD SWAP3 PUSH1 0x60 PUSH1 0x40 DUP3 ADD MLOAD SWAP2 ADD MLOAD ISZERO ISZERO SWAP1 PUSH1 0x40 MLOAD SWAP5 DUP6 SWAP5 DUP6 PUSH2 0x3932 JUMP JUMPDEST POP CALLVALUE PUSH2 0x389 JUMPI PUSH1 0x20 CALLDATASIZE PUSH1 0x3 NOT ADD SLT PUSH2 0x389 JUMPI PUSH1 0x4 CALLDATALOAD SWAP1 PUSH1 0xF SLOAD DUP3 LT ISZERO PUSH2 0x389 JUMPI PUSH1 0x20 PUSH2 0x1159 DUP4 PUSH2 0x3965 JUMP JUMPDEST POP CALLVALUE PUSH2 0x389 JUMPI DUP1 PUSH1 0x3 NOT CALLDATASIZE ADD SLT PUSH2 0x389 JUMPI CALLER DUP2 MSTORE PUSH1 0xC PUSH1 0x20 MSTORE PUSH2 0x264C PUSH1 0xFF PUSH1 0x3 PUSH1 0x40 DUP5 KECCAK256 ADD SLOAD AND PUSH2 0x45D2 JUMP JUMPDEST CALLER DUP2 MSTORE PUSH1 0xC PUSH1 0x20 MSTORE PUSH2 0x2660 PUSH1 0x40 DUP3 KECCAK256 PUSH2 0x4614 JUMP JUMPDEST PUSH1 0x40 MLOAD TIMESTAMP DUP2 MSTORE ADDRESS SWAP1 PUSH32 0xF7BCBAA371C3A472D8F63F253317D896D63BF307F5E8E913F8EEB9351BC0D4C6 PUSH1 0x20 CALLER SWAP3 LOG3 DUP1 RETURN JUMPDEST POP CALLVALUE PUSH2 0x389 JUMPI DUP1 PUSH1 0x3 NOT CALLDATASIZE ADD SLT PUSH2 0x389 JUMPI PUSH1 0x20 PUSH1 0xA SLOAD PUSH1 0x40 MLOAD SWAP1 DUP2 MSTORE RETURN JUMPDEST POP CALLVALUE PUSH2 0x389 JUMPI PUSH1 0x20 CALLDATASIZE PUSH1 0x3 NOT ADD SLT PUSH2 0x389 JUMPI PUSH2 0x25C9 SWAP1 PUSH1 0x40 SWAP1 PUSH1 0x1 PUSH1 0x1 PUSH1 0xA0 SHL SUB PUSH2 0x26D8 PUSH2 0x35DD JUMP JUMPDEST AND DUP2 MSTORE PUSH1 0xC PUSH1 0x20 MSTORE KECCAK256 PUSH2 0x4584 JUMP JUMPDEST POP CALLVALUE PUSH2 0x389 JUMPI PUSH2 0x2769 PUSH32 0xA1E2F362CCC64DE291011914F5087C611557A7331C80F2CDD2AACF89B9DC564 PUSH2 0x2719 CALLDATASIZE PUSH2 0x38E8 JUMP JUMPDEST PUSH2 0x272E PUSH1 0x1 DUP1 PUSH1 0xA0 SHL SUB PUSH1 0x1B SLOAD AND CALLER EQ PUSH2 0x449D JUMP JUMPDEST PUSH1 0x40 MLOAD PUSH1 0x20 DUP2 DUP5 MLOAD PUSH2 0x2743 DUP2 DUP4 DUP6 DUP10 ADD PUSH2 0x3813 JUMP JUMPDEST DUP2 ADD PUSH1 0x1A DUP2 MSTORE SUB ADD SWAP1 KECCAK256 PUSH1 0xFF NOT DUP2 SLOAD AND SWAP1 SSTORE PUSH1 0x1D SLOAD SWAP4 DUP5 SWAP3 PUSH1 0x40 MLOAD SWAP4 DUP5 SWAP4 TIMESTAMP SWAP3 DUP6 PUSH2 0x44E9 JUMP JUMPDEST SUB SWAP1 LOG1 PUSH1 0x1 SWAP1 DUP3 SWAP2 DUP4 PUSH1 0x19 SLOAD SWAP1 JUMPDEST DUP2 DUP2 LT PUSH2 0x2816 JUMPI POP DUP2 PUSH2 0x280C JUMPI JUMPDEST POP PUSH2 0x278E JUMPI DUP3 DUP1 RETURN JUMPDEST PUSH32 0x72DB402A1D505E0EE50FBA411E34BD1F9A6E90AB67B824C438255E747A886B28 SWAP2 PUSH2 0x27C1 PUSH1 0x40 MLOAD SWAP3 DUP4 SWAP3 TIMESTAMP SWAP2 DUP5 PUSH2 0x451E JUMP JUMPDEST SUB SWAP1 LOG1 PUSH1 0x19 SLOAD DUP2 PUSH1 0x19 SSTORE DUP1 PUSH2 0x27D5 JUMPI DUP1 DUP3 DUP1 RETURN JUMPDEST PUSH1 0x19 DUP3 MSTORE PUSH1 0x0 DUP1 MLOAD PUSH1 0x20 PUSH2 0x50AA DUP4 CODECOPY DUP2 MLOAD SWAP2 MSTORE SWAP1 DUP2 ADD SWAP1 JUMPDEST DUP2 DUP2 LT PUSH2 0x27FA JUMPI POP DUP1 DUP3 DUP1 RETURN JUMPDEST DUP1 PUSH2 0x2806 PUSH1 0x1 SWAP3 PUSH2 0x4534 JUMP JUMPDEST ADD PUSH2 0x27ED JUMP JUMPDEST SWAP1 POP ISZERO ISZERO CODESIZE PUSH2 0x2785 JUMP JUMPDEST SWAP2 PUSH2 0x2820 DUP4 PUSH2 0x3996 JUMP JUMPDEST POP PUSH1 0x40 MLOAD SWAP1 DUP8 SWAP1 DUP1 SLOAD SWAP1 PUSH2 0x2833 DUP3 PUSH2 0x39FF JUMP JUMPDEST SWAP2 PUSH1 0x1 DUP2 AND SWAP1 DUP2 ISZERO PUSH2 0x28C8 JUMPI POP PUSH1 0x1 EQ PUSH2 0x2895 JUMPI JUMPDEST POP POP PUSH1 0x1A DUP2 MSTORE DUP2 SWAP1 SUB PUSH1 0x20 ADD SWAP1 KECCAK256 SLOAD PUSH1 0xFF AND ISZERO PUSH2 0x286B JUMPI POP PUSH1 0x1 DUP6 SWAP3 JUMPDEST ADD PUSH2 0x2777 JUMP JUMPDEST SWAP2 SWAP4 PUSH1 0x0 NOT DUP2 EQ PUSH2 0x2881 JUMPI PUSH1 0x1 DUP1 SWAP2 ADD SWAP5 PUSH2 0x2865 JUMP JUMPDEST PUSH4 0x4E487B71 PUSH1 0xE0 SHL DUP7 MSTORE PUSH1 0x11 PUSH1 0x4 MSTORE PUSH1 0x24 DUP7 REVERT JUMPDEST SWAP1 SWAP2 POP DUP9 MSTORE PUSH1 0x20 DUP9 KECCAK256 DUP9 SWAP1 JUMPDEST DUP3 DUP3 LT PUSH2 0x28B4 JUMPI POP POP DUP2 ADD PUSH1 0x20 DUP3 PUSH2 0x2848 JUMP JUMPDEST PUSH1 0x1 DUP2 PUSH1 0x20 SWAP3 SLOAD DUP5 DUP8 ADD MSTORE ADD SWAP2 ADD SWAP1 PUSH2 0x28A1 JUMP JUMPDEST PUSH1 0xFF NOT AND DUP6 MSTORE POP POP DUP1 ISZERO ISZERO MUL DUP3 ADD SWAP1 POP PUSH1 0x20 DUP3 PUSH2 0x2848 JUMP JUMPDEST POP CALLVALUE PUSH2 0x389 JUMPI DUP1 PUSH1 0x3 NOT CALLDATASIZE ADD SLT PUSH2 0x389 JUMPI PUSH1 0xFF PUSH1 0x20 SWAP2 SLOAD PUSH1 0xA0 SHR AND PUSH1 0x40 MLOAD SWAP1 ISZERO ISZERO DUP2 MSTORE RETURN JUMPDEST POP CALLVALUE PUSH2 0x389 JUMPI PUSH1 0x80 CALLDATASIZE PUSH1 0x3 NOT ADD SLT PUSH2 0x389 JUMPI PUSH1 0x4 CALLDATALOAD PUSH1 0x1 PUSH1 0x1 PUSH1 0x40 SHL SUB DUP2 GT PUSH2 0x7D7 JUMPI PUSH2 0x2936 SWAP1 CALLDATASIZE SWAP1 PUSH1 0x4 ADD PUSH2 0x3667 JUMP JUMPDEST SWAP1 PUSH1 0x24 CALLDATALOAD PUSH1 0x1 PUSH1 0x1 PUSH1 0x40 SHL SUB DUP2 GT PUSH2 0x7D7 JUMPI PUSH2 0x2956 SWAP1 CALLDATASIZE SWAP1 PUSH1 0x4 ADD PUSH2 0x3667 JUMP JUMPDEST SWAP2 PUSH1 0x44 CALLDATALOAD PUSH1 0x1 PUSH1 0x1 PUSH1 0x40 SHL SUB DUP2 GT PUSH2 0x613 JUMPI PUSH2 0x2976 SWAP1 CALLDATASIZE SWAP1 PUSH1 0x4 ADD PUSH2 0x3667 JUMP JUMPDEST PUSH1 0x64 CALLDATALOAD PUSH1 0x1 PUSH1 0x1 PUSH1 0x40 SHL SUB DUP2 GT PUSH2 0x7E6 JUMPI PUSH2 0x2995 SWAP1 CALLDATASIZE SWAP1 PUSH1 0x4 ADD PUSH2 0x3667 JUMP JUMPDEST SWAP2 PUSH2 0x29AA PUSH1 0x1 DUP1 PUSH1 0xA0 SHL SUB DUP6 SLOAD AND CALLER EQ PUSH2 0x3E82 JUMP JUMPDEST DUP1 MLOAD SWAP1 PUSH1 0x1 PUSH1 0x1 PUSH1 0x40 SHL SUB DUP3 GT PUSH2 0x2C78 JUMPI PUSH2 0x29C6 PUSH1 0x4 SLOAD PUSH2 0x39FF JUMP JUMPDEST PUSH1 0x1F DUP2 GT PUSH2 0x2C3C JUMPI JUMPDEST POP PUSH1 0x20 SWAP1 PUSH1 0x1F DUP4 GT PUSH1 0x1 EQ PUSH2 0x2BD7 JUMPI PUSH2 0x29F1 SWAP3 SWAP2 DUP7 SWAP2 DUP4 PUSH2 0x21B1 JUMPI POP POP PUSH2 0x3FDA JUMP JUMPDEST PUSH1 0x4 SSTORE JUMPDEST DUP4 MLOAD PUSH1 0x1 PUSH1 0x1 PUSH1 0x40 SHL SUB DUP2 GT PUSH2 0x50D JUMPI PUSH2 0x2A10 PUSH1 0x5 SLOAD PUSH2 0x39FF JUMP JUMPDEST PUSH1 0x1F DUP2 GT PUSH2 0x2BA6 JUMPI JUMPDEST POP PUSH1 0x20 SWAP5 PUSH1 0x1F DUP3 GT PUSH1 0x1 EQ PUSH2 0x2B42 JUMPI DUP5 SWAP6 DUP3 SWAP2 PUSH2 0x2A3E SWAP5 SWAP6 SWAP7 SWAP3 PUSH2 0x21B1 JUMPI POP POP PUSH2 0x3FDA JUMP JUMPDEST PUSH1 0x5 SSTORE JUMPDEST DUP1 MLOAD SWAP1 PUSH1 0x1 PUSH1 0x1 PUSH1 0x40 SHL SUB DUP3 GT PUSH2 0x50D JUMPI PUSH2 0x2A5E PUSH1 0x6 SLOAD PUSH2 0x39FF JUMP JUMPDEST PUSH1 0x1F DUP2 GT PUSH2 0x2B06 JUMPI JUMPDEST POP PUSH1 0x20 SWAP1 PUSH1 0x1F DUP4 GT PUSH1 0x1 EQ PUSH2 0x2A9D JUMPI SWAP2 DUP1 PUSH2 0x2A8E SWAP3 PUSH2 0x2A96 SWAP6 SWAP5 DUP8 SWAP3 PUSH2 0x21B1 JUMPI POP POP PUSH2 0x3FDA JUMP JUMPDEST PUSH1 0x6 SSTORE PUSH2 0x40DC JUMP JUMPDEST TIMESTAMP PUSH1 0x2 SSTORE DUP1 RETURN JUMPDEST PUSH1 0x6 DUP6 MSTORE DUP2 DUP6 KECCAK256 SWAP2 SWAP1 PUSH1 0x1F NOT DUP5 AND DUP7 JUMPDEST DUP2 DUP2 LT PUSH2 0x2AEE JUMPI POP SWAP2 PUSH1 0x1 SWAP4 SWAP2 DUP6 PUSH2 0x2A96 SWAP8 SWAP7 SWAP5 LT PUSH2 0x2AD5 JUMPI JUMPDEST POP POP POP DUP2 SHL ADD PUSH1 0x6 SSTORE PUSH2 0x40DC JUMP JUMPDEST ADD MLOAD PUSH1 0x0 NOT PUSH1 0xF8 DUP5 PUSH1 0x3 SHL AND SHR NOT AND SWAP1 SSTORE CODESIZE DUP1 DUP1 PUSH2 0x2AC7 JUMP JUMPDEST SWAP3 SWAP4 PUSH1 0x20 PUSH1 0x1 DUP2 SWAP3 DUP8 DUP7 ADD MLOAD DUP2 SSTORE ADD SWAP6 ADD SWAP4 ADD PUSH2 0x2AAD JUMP JUMPDEST PUSH1 0x6 DUP6 MSTORE PUSH2 0x2B3C SWAP1 PUSH1 0x0 DUP1 MLOAD PUSH1 0x20 PUSH2 0x500A DUP4 CODECOPY DUP2 MLOAD SWAP2 MSTORE PUSH1 0x1F DUP6 ADD PUSH1 0x5 SHR DUP2 ADD SWAP2 PUSH1 0x20 DUP7 LT PUSH2 0x174F JUMPI PUSH1 0x1F ADD PUSH1 0x5 SHR ADD SWAP1 PUSH2 0x3FC3 JUMP JUMPDEST CODESIZE PUSH2 0x2A67 JUMP JUMPDEST PUSH1 0x1F NOT DUP3 AND SWAP6 PUSH1 0x5 DUP7 MSTORE DUP1 DUP7 KECCAK256 SWAP2 DUP7 JUMPDEST DUP9 DUP2 LT PUSH2 0x2B8E JUMPI POP DUP4 PUSH1 0x1 SWAP6 SWAP7 SWAP8 SWAP9 LT PUSH2 0x2B75 JUMPI JUMPDEST POP POP POP DUP2 SHL ADD PUSH1 0x5 SSTORE PUSH2 0x2A42 JUMP JUMPDEST ADD MLOAD PUSH1 0x0 NOT PUSH1 0xF8 DUP5 PUSH1 0x3 SHL AND SHR NOT AND SWAP1 SSTORE CODESIZE DUP1 DUP1 PUSH2 0x2B67 JUMP JUMPDEST SWAP2 SWAP3 PUSH1 0x20 PUSH1 0x1 DUP2 SWAP3 DUP7 DUP6 ADD MLOAD DUP2 SSTORE ADD SWAP5 ADD SWAP3 ADD PUSH2 0x2B52 JUMP JUMPDEST PUSH2 0x2BD1 SWAP1 PUSH1 0x5 DUP7 MSTORE PUSH1 0x20 DUP7 KECCAK256 PUSH1 0x1F DUP5 ADD PUSH1 0x5 SHR DUP2 ADD SWAP2 PUSH1 0x20 DUP6 LT PUSH2 0x174F JUMPI PUSH1 0x1F ADD PUSH1 0x5 SHR ADD SWAP1 PUSH2 0x3FC3 JUMP JUMPDEST CODESIZE PUSH2 0x2A19 JUMP JUMPDEST PUSH1 0x4 DUP7 MSTORE DUP2 DUP7 KECCAK256 SWAP2 SWAP1 PUSH1 0x1F NOT DUP5 AND DUP8 JUMPDEST DUP2 DUP2 LT PUSH2 0x2C24 JUMPI POP SWAP1 DUP5 PUSH1 0x1 SWAP6 SWAP5 SWAP4 SWAP3 LT PUSH2 0x2C0B JUMPI JUMPDEST POP POP POP DUP2 SHL ADD PUSH1 0x4 SSTORE PUSH2 0x29F5 JUMP JUMPDEST ADD MLOAD PUSH1 0x0 NOT PUSH1 0xF8 DUP5 PUSH1 0x3 SHL AND SHR NOT AND SWAP1 SSTORE CODESIZE DUP1 DUP1 PUSH2 0x2BFD JUMP JUMPDEST SWAP3 SWAP4 PUSH1 0x20 PUSH1 0x1 DUP2 SWAP3 DUP8 DUP7 ADD MLOAD DUP2 SSTORE ADD SWAP6 ADD SWAP4 ADD PUSH2 0x2BE7 JUMP JUMPDEST PUSH1 0x4 DUP7 MSTORE PUSH2 0x2C72 SWAP1 PUSH1 0x0 DUP1 MLOAD PUSH1 0x20 PUSH2 0x502A DUP4 CODECOPY DUP2 MLOAD SWAP2 MSTORE PUSH1 0x1F DUP6 ADD PUSH1 0x5 SHR DUP2 ADD SWAP2 PUSH1 0x20 DUP7 LT PUSH2 0x174F JUMPI PUSH1 0x1F ADD PUSH1 0x5 SHR ADD SWAP1 PUSH2 0x3FC3 JUMP JUMPDEST CODESIZE PUSH2 0x29CF JUMP JUMPDEST PUSH4 0x4E487B71 PUSH1 0xE0 SHL DUP6 MSTORE PUSH1 0x41 PUSH1 0x4 MSTORE PUSH1 0x24 DUP6 REVERT JUMPDEST POP CALLVALUE PUSH2 0x389 JUMPI DUP1 PUSH1 0x3 NOT CALLDATASIZE ADD SLT PUSH2 0x389 JUMPI SLOAD PUSH1 0x9 SLOAD PUSH1 0xA SLOAD PUSH1 0x40 MLOAD PUSH2 0x2D23 SWAP4 SWAP1 SWAP3 SWAP2 SWAP1 PUSH2 0x2D52 SWAP1 PUSH1 0x1 PUSH1 0x1 PUSH1 0xA0 SHL SUB AND PUSH2 0x2CD0 DUP6 PUSH2 0x2CC9 DUP2 PUSH2 0x3A39 JUMP JUMPDEST SUB DUP7 PUSH2 0x3629 JUMP JUMPDEST PUSH2 0x2D44 PUSH1 0x40 MLOAD SWAP2 PUSH2 0x2CEB DUP4 PUSH2 0x2CE4 DUP2 PUSH2 0x3AC8 JUMP JUMPDEST SUB DUP5 PUSH2 0x3629 JUMP JUMPDEST PUSH1 0x40 MLOAD PUSH2 0x2CFB DUP2 PUSH2 0x85C DUP2 PUSH2 0x3B4D JUMP JUMPDEST PUSH2 0x2D31 PUSH1 0x40 MLOAD SWAP5 PUSH2 0x2D0F DUP7 PUSH2 0x17F4 DUP2 PUSH2 0x3BC0 JUMP JUMPDEST PUSH1 0x40 MLOAD SWAP11 DUP12 SWAP11 PUSH1 0xE0 DUP13 MSTORE PUSH1 0xE0 DUP13 ADD SWAP1 PUSH2 0x3836 JUMP JUMPDEST SWAP1 DUP11 DUP3 SUB PUSH1 0x20 DUP13 ADD MSTORE PUSH2 0x3836 JUMP JUMPDEST SWAP2 PUSH1 0x40 DUP10 ADD MSTORE DUP8 DUP3 SUB PUSH1 0x60 DUP10 ADD MSTORE PUSH2 0x3836 JUMP JUMPDEST SWAP1 DUP6 DUP3 SUB PUSH1 0x80 DUP8 ADD MSTORE PUSH2 0x3836 JUMP JUMPDEST SWAP2 PUSH1 0xA0 DUP5 ADD MSTORE PUSH1 0xC0 DUP4 ADD MSTORE SUB SWAP1 RETURN JUMPDEST POP CALLVALUE PUSH2 0x389 JUMPI DUP1 PUSH1 0x3 NOT CALLDATASIZE ADD SLT PUSH2 0x389 JUMPI PUSH2 0x2D86 PUSH1 0x1 DUP1 PUSH1 0xA0 SHL SUB DUP3 SLOAD AND CALLER EQ PUSH2 0x3E82 JUMP JUMPDEST PUSH1 0x1E SLOAD PUSH1 0xFF DUP2 AND PUSH2 0x2DA3 JUMPI PUSH1 0xFF NOT AND PUSH1 0x1 OR PUSH1 0x1E SSTORE PUSH2 0x921 PUSH2 0x4D8A JUMP JUMPDEST PUSH1 0x40 MLOAD PUSH3 0x461BCD PUSH1 0xE5 SHL DUP2 MSTORE PUSH1 0x20 PUSH1 0x4 DUP3 ADD MSTORE PUSH1 0x1B PUSH1 0x24 DUP3 ADD MSTORE PUSH27 0x105B1C9958591E481B585C9AD95908185CC8195E1A185D5CDD1959 PUSH1 0x2A SHL PUSH1 0x44 DUP3 ADD MSTORE PUSH1 0x64 SWAP1 REVERT JUMPDEST POP CALLVALUE PUSH2 0x389 JUMPI DUP1 PUSH1 0x3 NOT CALLDATASIZE ADD SLT PUSH2 0x389 JUMPI PUSH1 0xF SLOAD SWAP1 PUSH2 0x2E04 DUP3 PUSH2 0x36F4 JUMP JUMPDEST SWAP1 PUSH2 0x2E12 PUSH1 0x40 MLOAD SWAP3 DUP4 PUSH2 0x3629 JUMP JUMPDEST DUP3 DUP3 MSTORE PUSH1 0x1F NOT PUSH2 0x2E21 DUP5 PUSH2 0x36F4 JUMP JUMPDEST ADD CALLDATASIZE PUSH1 0x20 DUP5 ADD CALLDATACOPY PUSH2 0x2E31 DUP4 PUSH2 0x36F4 JUMP JUMPDEST PUSH2 0x2E3E PUSH1 0x40 MLOAD SWAP2 DUP3 PUSH2 0x3629 JUMP JUMPDEST DUP4 DUP2 MSTORE PUSH1 0x1F NOT PUSH2 0x2E4D DUP6 PUSH2 0x36F4 JUMP JUMPDEST ADD DUP3 JUMPDEST DUP2 DUP2 LT PUSH2 0x2F53 JUMPI POP POP PUSH2 0x2E62 DUP5 PUSH2 0x446B JUMP JUMPDEST SWAP4 PUSH2 0x2E6C DUP2 PUSH2 0x446B JUMP JUMPDEST SWAP3 DUP1 JUMPDEST DUP3 DUP2 LT PUSH2 0x2EC4 JUMPI PUSH2 0x2E9A DUP7 PUSH2 0x6C4 DUP8 PUSH2 0x2EB6 DUP12 PUSH2 0x2EA8 DUP11 PUSH1 0x40 MLOAD SWAP8 DUP9 SWAP8 PUSH1 0x80 DUP10 MSTORE PUSH1 0x80 DUP10 ADD SWAP1 PUSH2 0x37D6 JUMP JUMPDEST SWAP1 DUP8 DUP3 SUB PUSH1 0x20 DUP10 ADD MSTORE PUSH2 0x385B JUMP JUMPDEST SWAP1 DUP6 DUP3 SUB PUSH1 0x40 DUP8 ADD MSTORE PUSH2 0x38B4 JUMP JUMPDEST SWAP1 DUP4 DUP3 SUB PUSH1 0x60 DUP6 ADD MSTORE PUSH2 0x38B4 JUMP JUMPDEST DUP1 PUSH2 0x2ED0 PUSH1 0x1 SWAP3 PUSH2 0x3965 JUMP JUMPDEST DUP4 DUP1 PUSH1 0xA0 SHL SUB SWAP2 SLOAD SWAP1 PUSH1 0x3 SHL SHR AND DUP1 PUSH2 0x2EE9 DUP4 DUP11 PUSH2 0x437F JUMP JUMPDEST MSTORE DUP1 DUP5 MSTORE PUSH1 0x10 PUSH1 0x20 MSTORE PUSH2 0x85C PUSH2 0x2F08 PUSH1 0x40 DUP7 KECCAK256 PUSH1 0x40 MLOAD SWAP3 DUP4 DUP1 SWAP3 PUSH2 0x3DFF JUMP JUMPDEST PUSH2 0x2F12 DUP4 DUP9 PUSH2 0x437F JUMP JUMPDEST MSTORE PUSH2 0x2F1D DUP3 DUP8 PUSH2 0x437F JUMP JUMPDEST POP DUP1 DUP5 MSTORE PUSH1 0x11 PUSH1 0x20 MSTORE PUSH1 0x40 DUP5 KECCAK256 SLOAD PUSH2 0x2F35 DUP4 DUP12 PUSH2 0x437F JUMP JUMPDEST MSTORE DUP4 MSTORE PUSH1 0x12 PUSH1 0x20 MSTORE PUSH1 0x40 DUP4 KECCAK256 SLOAD PUSH2 0x2F4C DUP3 DUP9 PUSH2 0x437F JUMP JUMPDEST MSTORE ADD PUSH2 0x2E6F JUMP JUMPDEST DUP1 PUSH1 0x60 PUSH1 0x20 DUP1 SWAP4 DUP7 ADD ADD MSTORE ADD PUSH2 0x2E50 JUMP JUMPDEST POP CALLVALUE PUSH2 0x389 JUMPI PUSH2 0x2F73 CALLDATASIZE PUSH2 0x3789 JUMP JUMPDEST PUSH1 0x1B SLOAD SWAP1 SWAP2 SWAP1 PUSH2 0x2F8D SWAP1 PUSH1 0x1 PUSH1 0x1 PUSH1 0xA0 SHL SUB AND ISZERO ISZERO PUSH2 0x4339 JUMP JUMPDEST DUP1 MLOAD DUP3 MLOAD SUB PUSH2 0x341C JUMPI DUP1 MLOAD ISZERO PUSH2 0x33E9 JUMPI DUP3 JUMPDEST DUP2 MLOAD DUP2 LT ISZERO PUSH2 0x30B6 JUMPI PUSH1 0xFF PUSH2 0x2FCD PUSH1 0x20 PUSH2 0x2FB9 DUP5 DUP7 PUSH2 0x437F JUMP JUMPDEST MLOAD DUP2 PUSH1 0x40 MLOAD SWAP4 DUP3 DUP6 DUP1 SWAP5 MLOAD SWAP4 DUP5 SWAP3 ADD PUSH2 0x3813 JUMP JUMPDEST DUP2 ADD PUSH1 0x1A DUP2 MSTORE SUB ADD SWAP1 KECCAK256 SLOAD AND ISZERO PUSH2 0x3072 JUMPI PUSH2 0x2FE8 DUP2 DUP4 PUSH2 0x437F JUMP JUMPDEST MLOAD MLOAD ISZERO PUSH2 0x303B JUMPI PUSH2 0x2FF9 DUP2 DUP5 PUSH2 0x437F JUMP JUMPDEST MLOAD MLOAD ISZERO PUSH2 0x3008 JUMPI PUSH1 0x1 ADD PUSH2 0x2F9F JUMP JUMPDEST PUSH1 0x40 MLOAD PUSH3 0x461BCD PUSH1 0xE5 SHL DUP2 MSTORE PUSH1 0x20 PUSH1 0x4 DUP3 ADD MSTORE PUSH1 0xB PUSH1 0x24 DUP3 ADD MSTORE PUSH11 0x115B5C1D1E481B1858995B PUSH1 0xAA SHL PUSH1 0x44 DUP3 ADD MSTORE PUSH1 0x64 SWAP1 REVERT JUMPDEST PUSH1 0x40 MLOAD PUSH3 0x461BCD PUSH1 0xE5 SHL DUP2 MSTORE PUSH1 0x20 PUSH1 0x4 DUP3 ADD MSTORE PUSH1 0xF PUSH1 0x24 DUP3 ADD MSTORE PUSH15 0x115B5C1D1E481CD85B5C1B19481251 PUSH1 0x8A SHL PUSH1 0x44 DUP3 ADD MSTORE PUSH1 0x64 SWAP1 REVERT JUMPDEST PUSH1 0x40 MLOAD PUSH3 0x461BCD PUSH1 0xE5 SHL DUP2 MSTORE PUSH1 0x20 PUSH1 0x4 DUP3 ADD MSTORE PUSH1 0x1C PUSH1 0x24 DUP3 ADD MSTORE PUSH28 0x53616D706C65206E6F742061637469766520666F7220766F74696E67 PUSH1 0x20 SHL PUSH1 0x44 DUP3 ADD MSTORE PUSH1 0x64 SWAP1 REVERT JUMPDEST POP SWAP2 SWAP1 PUSH1 0x40 MLOAD PUSH4 0xB9EB40B PUSH1 0xE3 SHL DUP2 MSTORE CALLER PUSH1 0x4 DUP3 ADD MSTORE DUP3 DUP2 PUSH1 0x24 DUP2 ADDRESS GAS STATICCALL SWAP1 DUP2 ISZERO PUSH2 0x330A JUMPI DUP4 SWAP2 PUSH2 0x33CF JUMPI JUMPDEST POP MLOAD ISZERO PUSH2 0x3315 JUMPI JUMPDEST PUSH1 0x40 MLOAD PUSH4 0xB9EB40B PUSH1 0xE3 SHL DUP2 MSTORE CALLER PUSH1 0x4 DUP3 ADD MSTORE DUP3 DUP2 PUSH1 0x24 DUP2 ADDRESS GAS STATICCALL SWAP1 DUP2 ISZERO PUSH2 0x330A JUMPI SWAP1 PUSH2 0x3121 SWAP2 DUP5 SWAP2 PUSH2 0x32E8 JUMPI JUMPDEST POP MLOAD ISZERO ISZERO PUSH2 0x4423 JUMP JUMPDEST PUSH1 0x1B SLOAD PUSH1 0x40 MLOAD PUSH4 0x20A7C73B PUSH1 0xE1 SHL DUP2 MSTORE CALLER PUSH1 0x4 DUP3 ADD MSTORE PUSH1 0x1 PUSH1 0x1 PUSH1 0xA0 SHL SUB SWAP1 SWAP2 AND SWAP3 SWAP1 PUSH1 0x20 DUP2 PUSH1 0x24 DUP2 DUP8 GAS STATICCALL SWAP1 DUP2 ISZERO PUSH2 0x7DB JUMPI DUP3 SWAP2 PUSH2 0x32B6 JUMPI JUMPDEST POP ISZERO PUSH2 0x3261 JUMPI DUP1 JUMPDEST DUP5 MLOAD DUP2 LT ISZERO PUSH2 0x31E3 JUMPI DUP1 PUSH32 0x55B5B37DB3E79E0CF5FA16C3B213F5856EBAF6A6E58C56813245533B65587BBD PUSH2 0x31C0 PUSH2 0x319D PUSH1 0x1 SWAP5 DUP10 PUSH2 0x437F JUMP JUMPDEST MLOAD PUSH2 0x31D4 PUSH2 0x31AB DUP6 DUP10 PUSH2 0x437F JUMP JUMPDEST MLOAD PUSH1 0x40 MLOAD SWAP4 DUP5 SWAP4 PUSH1 0x80 DUP6 MSTORE PUSH1 0x80 DUP6 ADD SWAP1 PUSH2 0x3836 JUMP JUMPDEST SWAP1 CALLER PUSH1 0x20 DUP6 ADD MSTORE DUP4 DUP3 SUB PUSH1 0x40 DUP6 ADD MSTORE PUSH2 0x3836 JUMP JUMPDEST TIMESTAMP PUSH1 0x60 DUP4 ADD MSTORE SUB SWAP1 LOG1 ADD PUSH2 0x3163 JUMP JUMPDEST POP SWAP3 DUP4 SWAP2 DUP4 EXTCODESIZE ISZERO PUSH2 0x613 JUMPI PUSH2 0x322F SWAP4 PUSH2 0x321D DUP5 DUP1 SWAP5 PUSH1 0x40 MLOAD SWAP8 DUP9 SWAP6 DUP7 SWAP5 DUP6 SWAP4 PUSH4 0x9A6E81AB PUSH1 0xE0 SHL DUP6 MSTORE PUSH1 0x60 PUSH1 0x4 DUP7 ADD MSTORE PUSH1 0x64 DUP6 ADD SWAP1 PUSH2 0x385B JUMP JUMPDEST DUP4 DUP2 SUB PUSH1 0x3 NOT ADD PUSH1 0x24 DUP6 ADD MSTORE SWAP1 PUSH2 0x385B JUMP JUMPDEST CALLER PUSH1 0x44 DUP4 ADD MSTORE SUB SWAP3 GAS CALL DUP1 ISZERO PUSH2 0x3254 JUMPI PUSH2 0x3246 JUMPI DUP1 RETURN JUMPDEST PUSH2 0x324F SWAP2 PUSH2 0x3629 JUMP JUMPDEST CODESIZE DUP2 DUP1 RETURN JUMPDEST POP PUSH1 0x40 MLOAD SWAP1 RETURNDATASIZE SWAP1 DUP3 RETURNDATACOPY RETURNDATASIZE SWAP1 REVERT JUMPDEST PUSH1 0x40 MLOAD PUSH3 0x461BCD PUSH1 0xE5 SHL DUP2 MSTORE PUSH1 0x20 PUSH1 0x4 DUP3 ADD MSTORE PUSH1 0x27 PUSH1 0x24 DUP3 ADD MSTORE PUSH32 0x566F746572206E6F74207265676973746572656420696E20766F74696E672063 PUSH1 0x44 DUP3 ADD MSTORE PUSH7 0x1BDB9D1C9858DD PUSH1 0xCA SHL PUSH1 0x64 DUP3 ADD MSTORE PUSH1 0x84 SWAP1 REVERT JUMPDEST SWAP1 POP PUSH1 0x20 DUP2 RETURNDATASIZE PUSH1 0x20 GT PUSH2 0x32E0 JUMPI JUMPDEST DUP2 PUSH2 0x32D1 PUSH1 0x20 SWAP4 DUP4 PUSH2 0x3629 JUMP JUMPDEST DUP2 ADD SUB SLT PUSH2 0x7D7 JUMPI MLOAD CODESIZE PUSH2 0x315B JUMP JUMPDEST RETURNDATASIZE SWAP2 POP PUSH2 0x32C4 JUMP JUMPDEST PUSH2 0x3304 SWAP2 POP RETURNDATASIZE DUP1 DUP7 DUP4 RETURNDATACOPY PUSH2 0x32FC DUP2 DUP4 PUSH2 0x3629 JUMP JUMPDEST DUP2 ADD SWAP1 PUSH2 0x43D5 JUMP JUMPDEST CODESIZE PUSH2 0x3118 JUMP JUMPDEST PUSH1 0x40 MLOAD RETURNDATASIZE DUP6 DUP3 RETURNDATACOPY RETURNDATASIZE SWAP1 REVERT JUMPDEST PUSH2 0x331D PUSH2 0x43FA JUMP JUMPDEST PUSH2 0x3331 PUSH1 0x1 DUP1 PUSH1 0xA0 SHL SUB DUP5 SLOAD AND CALLER EQ PUSH2 0x3E82 JUMP JUMPDEST PUSH2 0x333D DUP2 MLOAD ISZERO ISZERO PUSH2 0x3EBD JUMP JUMPDEST CALLER DUP4 MSTORE PUSH1 0x10 PUSH1 0x20 MSTORE PUSH2 0x3355 PUSH2 0x440 PUSH1 0x40 DUP6 KECCAK256 SLOAD PUSH2 0x39FF JUMP JUMPDEST PUSH2 0x335E CALLER PUSH2 0x3F7E JUMP JUMPDEST CALLER DUP4 MSTORE PUSH1 0x10 PUSH1 0x20 MSTORE PUSH2 0x3373 DUP2 PUSH1 0x40 DUP6 KECCAK256 PUSH2 0x41CB JUMP JUMPDEST CALLER DUP4 MSTORE PUSH1 0x11 PUSH1 0x20 MSTORE PUSH1 0x1 PUSH1 0x40 DUP5 KECCAK256 SSTORE CALLER DUP4 MSTORE PUSH1 0x12 PUSH1 0x20 MSTORE TIMESTAMP PUSH1 0x40 DUP5 KECCAK256 SSTORE PUSH1 0x0 DUP1 MLOAD PUSH1 0x20 PUSH2 0x508A DUP4 CODECOPY DUP2 MLOAD SWAP2 MSTORE PUSH2 0x33B4 PUSH1 0x40 MLOAD SWAP3 PUSH1 0x40 DUP5 MSTORE PUSH1 0x40 DUP5 ADD SWAP1 PUSH2 0x3836 JUMP JUMPDEST SWAP2 PUSH1 0x1 PUSH1 0x20 DUP3 ADD MSTORE DUP1 CALLER SWAP4 SUB SWAP1 LOG2 PUSH2 0x33CA PUSH2 0x4AD6 JUMP JUMPDEST PUSH2 0x30EA JUMP JUMPDEST PUSH2 0x33E3 SWAP2 POP RETURNDATASIZE DUP1 DUP6 DUP4 RETURNDATACOPY PUSH2 0x32FC DUP2 DUP4 PUSH2 0x3629 JUMP JUMPDEST CODESIZE PUSH2 0x30E2 JUMP JUMPDEST PUSH1 0x40 MLOAD PUSH3 0x461BCD PUSH1 0xE5 SHL DUP2 MSTORE PUSH1 0x20 PUSH1 0x4 DUP3 ADD MSTORE PUSH1 0xB PUSH1 0x24 DUP3 ADD MSTORE PUSH11 0x8ADAE0E8F240C4C2E8C6D PUSH1 0xAB SHL PUSH1 0x44 DUP3 ADD MSTORE PUSH1 0x64 SWAP1 REVERT JUMPDEST PUSH1 0x40 MLOAD PUSH3 0x461BCD PUSH1 0xE5 SHL DUP2 MSTORE PUSH1 0x20 PUSH1 0x4 DUP3 ADD MSTORE PUSH1 0x11 PUSH1 0x24 DUP3 ADD MSTORE PUSH17 0x4D69736D61746368656420617272617973 PUSH1 0x78 SHL PUSH1 0x44 DUP3 ADD MSTORE PUSH1 0x64 SWAP1 REVERT JUMPDEST POP CALLVALUE PUSH2 0x389 JUMPI DUP1 PUSH1 0x3 NOT CALLDATASIZE ADD SLT PUSH2 0x389 JUMPI PUSH1 0x1C SLOAD PUSH1 0x40 MLOAD PUSH1 0x1 PUSH1 0x1 PUSH1 0xA0 SHL SUB SWAP1 SWAP2 AND DUP2 MSTORE PUSH1 0x20 SWAP1 RETURN JUMPDEST POP CALLVALUE PUSH2 0x389 JUMPI PUSH1 0x20 CALLDATASIZE PUSH1 0x3 NOT ADD SLT PUSH2 0x389 JUMPI PUSH1 0x4 CALLDATALOAD PUSH1 0x1 PUSH1 0x1 PUSH1 0x40 SHL SUB DUP2 GT PUSH2 0x7D7 JUMPI PUSH2 0x34B2 PUSH2 0xC49 SWAP2 CALLDATASIZE SWAP1 PUSH1 0x4 ADD PUSH2 0x3667 JUMP JUMPDEST DUP3 SLOAD PUSH2 0x34CF SWAP1 PUSH1 0xFF SWAP1 PUSH2 0x3E6 CALLER PUSH1 0x1 PUSH1 0x1 PUSH1 0xA0 SHL SUB DUP4 AND EQ PUSH2 0x3E82 JUMP JUMPDEST PUSH2 0xC44 DUP2 MLOAD ISZERO ISZERO PUSH2 0x4300 JUMP JUMPDEST POP CALLVALUE PUSH2 0x389 JUMPI DUP1 PUSH1 0x3 NOT CALLDATASIZE ADD SLT PUSH2 0x389 JUMPI SLOAD PUSH1 0x40 MLOAD PUSH1 0x1 PUSH1 0x1 PUSH1 0xA0 SHL SUB SWAP1 SWAP2 AND DUP2 MSTORE PUSH1 0x20 SWAP1 RETURN JUMPDEST POP CALLVALUE PUSH2 0x389 JUMPI PUSH1 0x0 DUP1 MLOAD PUSH1 0x20 PUSH2 0x508A DUP4 CODECOPY DUP2 MLOAD SWAP2 MSTORE PUSH2 0x3520 CALLDATASIZE PUSH2 0x36AE JUMP JUMPDEST SWAP1 PUSH2 0x3538 PUSH1 0x1 DUP1 PUSH1 0xA0 SWAP7 SWAP6 SWAP7 SHL SUB DUP7 SLOAD AND CALLER EQ PUSH2 0x3E82 JUMP JUMPDEST PUSH2 0x3544 DUP2 MLOAD ISZERO ISZERO PUSH2 0x3EBD JUMP JUMPDEST PUSH2 0x3579 PUSH1 0x1 DUP1 PUSH1 0xA0 SHL SUB DUP6 AND SWAP5 DUP6 DUP8 MSTORE PUSH1 0x10 PUSH1 0x20 MSTORE PUSH2 0x3569 PUSH2 0x440 PUSH1 0x40 DUP10 KECCAK256 SLOAD PUSH2 0x39FF JUMP JUMPDEST PUSH2 0x3574 DUP5 ISZERO ISZERO PUSH2 0x3F38 JUMP JUMPDEST PUSH2 0x3F7E JUMP JUMPDEST DUP4 DUP6 MSTORE PUSH1 0x10 PUSH1 0x20 MSTORE PUSH2 0x358E DUP2 PUSH1 0x40 DUP8 KECCAK256 PUSH2 0x41CB JUMP JUMPDEST DUP4 DUP6 MSTORE PUSH1 0x11 PUSH1 0x20 MSTORE DUP2 PUSH1 0x40 DUP7 KECCAK256 SSTORE DUP4 DUP6 MSTORE PUSH1 0x12 PUSH1 0x20 MSTORE TIMESTAMP PUSH1 0x40 DUP7 KECCAK256 SSTORE PUSH2 0x1022 PUSH1 0x40 MLOAD SWAP3 DUP4 SWAP3 DUP4 PUSH2 0x42AD JUMP JUMPDEST SWAP1 POP CALLVALUE PUSH2 0x7D7 JUMPI DUP2 PUSH1 0x3 NOT CALLDATASIZE ADD SLT PUSH2 0x7D7 JUMPI SWAP1 SLOAD PUSH1 0x1 PUSH1 0x1 PUSH1 0xA0 SHL SUB AND DUP2 MSTORE PUSH1 0x20 SWAP1 RETURN JUMPDEST PUSH1 0x4 CALLDATALOAD SWAP1 PUSH1 0x1 PUSH1 0x1 PUSH1 0xA0 SHL SUB DUP3 AND DUP3 SUB PUSH2 0x35F3 JUMPI JUMP JUMPDEST PUSH1 0x0 DUP1 REVERT JUMPDEST PUSH1 0x80 DUP2 ADD SWAP1 DUP2 LT PUSH1 0x1 PUSH1 0x1 PUSH1 0x40 SHL SUB DUP3 GT OR PUSH2 0x3613 JUMPI PUSH1 0x40 MSTORE JUMP JUMPDEST PUSH4 0x4E487B71 PUSH1 0xE0 SHL PUSH1 0x0 MSTORE PUSH1 0x41 PUSH1 0x4 MSTORE PUSH1 0x24 PUSH1 0x0 REVERT JUMPDEST PUSH1 0x1F SWAP1 SWAP2 ADD PUSH1 0x1F NOT AND DUP2 ADD SWAP1 PUSH1 0x1 PUSH1 0x1 PUSH1 0x40 SHL SUB DUP3 GT SWAP1 DUP3 LT OR PUSH2 0x3613 JUMPI PUSH1 0x40 MSTORE JUMP JUMPDEST PUSH1 0x1 PUSH1 0x1 PUSH1 0x40 SHL SUB DUP2 GT PUSH2 0x3613 JUMPI PUSH1 0x1F ADD PUSH1 0x1F NOT AND PUSH1 0x20 ADD SWAP1 JUMP JUMPDEST DUP2 PUSH1 0x1F DUP3 ADD SLT ISZERO PUSH2 0x35F3 JUMPI DUP1 CALLDATALOAD SWAP1 PUSH2 0x367E DUP3 PUSH2 0x364C JUMP JUMPDEST SWAP3 PUSH2 0x368C PUSH1 0x40 MLOAD SWAP5 DUP6 PUSH2 0x3629 JUMP JUMPDEST DUP3 DUP5 MSTORE PUSH1 0x20 DUP4 DUP4 ADD ADD GT PUSH2 0x35F3 JUMPI DUP2 PUSH1 0x0 SWAP3 PUSH1 0x20 DUP1 SWAP4 ADD DUP4 DUP7 ADD CALLDATACOPY DUP4 ADD ADD MSTORE SWAP1 JUMP JUMPDEST SWAP1 PUSH1 0x60 PUSH1 0x3 NOT DUP4 ADD SLT PUSH2 0x35F3 JUMPI PUSH1 0x4 CALLDATALOAD PUSH1 0x1 PUSH1 0x1 PUSH1 0xA0 SHL SUB DUP2 AND DUP2 SUB PUSH2 0x35F3 JUMPI SWAP2 PUSH1 0x24 CALLDATALOAD SWAP1 PUSH1 0x1 PUSH1 0x1 PUSH1 0x40 SHL SUB DUP3 GT PUSH2 0x35F3 JUMPI PUSH2 0x36ED SWAP2 PUSH1 0x4 ADD PUSH2 0x3667 JUMP JUMPDEST SWAP1 PUSH1 0x44 CALLDATALOAD SWAP1 JUMP JUMPDEST PUSH1 0x1 PUSH1 0x1 PUSH1 0x40 SHL SUB DUP2 GT PUSH2 0x3613 JUMPI PUSH1 0x5 SHL PUSH1 0x20 ADD SWAP1 JUMP JUMPDEST SWAP1 DUP1 PUSH1 0x1F DUP4 ADD SLT ISZERO PUSH2 0x35F3 JUMPI DUP2 CALLDATALOAD PUSH2 0x3722 DUP2 PUSH2 0x36F4 JUMP JUMPDEST SWAP3 PUSH2 0x3730 PUSH1 0x40 MLOAD SWAP5 DUP6 PUSH2 0x3629 JUMP JUMPDEST DUP2 DUP5 MSTORE PUSH1 0x20 DUP1 DUP6 ADD SWAP3 PUSH1 0x5 SHL DUP3 ADD ADD SWAP2 DUP4 DUP4 GT PUSH2 0x35F3 JUMPI PUSH1 0x20 DUP3 ADD SWAP1 JUMPDEST DUP4 DUP3 LT PUSH2 0x375C JUMPI POP POP POP POP POP SWAP1 JUMP JUMPDEST DUP2 CALLDATALOAD PUSH1 0x1 PUSH1 0x1 PUSH1 0x40 SHL SUB DUP2 GT PUSH2 0x35F3 JUMPI PUSH1 0x20 SWAP2 PUSH2 0x377E DUP8 DUP5 DUP1 SWAP5 DUP9 ADD ADD PUSH2 0x3667 JUMP JUMPDEST DUP2 MSTORE ADD SWAP2 ADD SWAP1 PUSH2 0x374D JUMP JUMPDEST SWAP1 PUSH1 0x40 PUSH1 0x3 NOT DUP4 ADD SLT PUSH2 0x35F3 JUMPI PUSH1 0x4 CALLDATALOAD PUSH1 0x1 PUSH1 0x1 PUSH1 0x40 SHL SUB DUP2 GT PUSH2 0x35F3 JUMPI DUP3 PUSH2 0x37B4 SWAP2 PUSH1 0x4 ADD PUSH2 0x370B JUMP JUMPDEST SWAP2 PUSH1 0x24 CALLDATALOAD SWAP1 PUSH1 0x1 PUSH1 0x1 PUSH1 0x40 SHL SUB DUP3 GT PUSH2 0x35F3 JUMPI PUSH2 0x37D3 SWAP2 PUSH1 0x4 ADD PUSH2 0x370B JUMP JUMPDEST SWAP1 JUMP JUMPDEST SWAP1 PUSH1 0x20 DUP1 DUP4 MLOAD SWAP3 DUP4 DUP2 MSTORE ADD SWAP3 ADD SWAP1 PUSH1 0x0 JUMPDEST DUP2 DUP2 LT PUSH2 0x37F4 JUMPI POP POP POP SWAP1 JUMP JUMPDEST DUP3 MLOAD PUSH1 0x1 PUSH1 0x1 PUSH1 0xA0 SHL SUB AND DUP5 MSTORE PUSH1 0x20 SWAP4 DUP5 ADD SWAP4 SWAP1 SWAP3 ADD SWAP2 PUSH1 0x1 ADD PUSH2 0x37E7 JUMP JUMPDEST PUSH1 0x0 JUMPDEST DUP4 DUP2 LT PUSH2 0x3826 JUMPI POP POP PUSH1 0x0 SWAP2 ADD MSTORE JUMP JUMPDEST DUP2 DUP2 ADD MLOAD DUP4 DUP3 ADD MSTORE PUSH1 0x20 ADD PUSH2 0x3816 JUMP JUMPDEST SWAP1 PUSH1 0x20 SWAP2 PUSH2 0x384F DUP2 MLOAD DUP1 SWAP3 DUP2 DUP6 MSTORE DUP6 DUP1 DUP7 ADD SWAP2 ADD PUSH2 0x3813 JUMP JUMPDEST PUSH1 0x1F ADD PUSH1 0x1F NOT AND ADD ADD SWAP1 JUMP JUMPDEST SWAP1 DUP1 PUSH1 0x20 DUP4 MLOAD SWAP2 DUP3 DUP2 MSTORE ADD SWAP2 PUSH1 0x20 DUP1 DUP4 PUSH1 0x5 SHL DUP4 ADD ADD SWAP5 ADD SWAP3 PUSH1 0x0 SWAP2 JUMPDEST DUP4 DUP4 LT PUSH2 0x3887 JUMPI POP POP POP POP POP SWAP1 JUMP JUMPDEST SWAP1 SWAP2 SWAP3 SWAP4 SWAP5 PUSH1 0x20 DUP1 PUSH2 0x38A5 PUSH1 0x1 SWAP4 PUSH1 0x1F NOT DUP7 DUP3 SUB ADD DUP8 MSTORE DUP10 MLOAD PUSH2 0x3836 JUMP JUMPDEST SWAP8 ADD SWAP4 ADD SWAP4 ADD SWAP2 SWAP4 SWAP3 SWAP1 PUSH2 0x3878 JUMP JUMPDEST SWAP1 PUSH1 0x20 DUP1 DUP4 MLOAD SWAP3 DUP4 DUP2 MSTORE ADD SWAP3 ADD SWAP1 PUSH1 0x0 JUMPDEST DUP2 DUP2 LT PUSH2 0x38D2 JUMPI POP POP POP SWAP1 JUMP JUMPDEST DUP3 MLOAD DUP5 MSTORE PUSH1 0x20 SWAP4 DUP5 ADD SWAP4 SWAP1 SWAP3 ADD SWAP2 PUSH1 0x1 ADD PUSH2 0x38C5 JUMP JUMPDEST SWAP1 PUSH1 0x40 PUSH1 0x3 NOT DUP4 ADD SLT PUSH2 0x35F3 JUMPI PUSH1 0x4 CALLDATALOAD PUSH1 0x1 PUSH1 0x1 PUSH1 0x40 SHL SUB DUP2 GT PUSH2 0x35F3 JUMPI DUP3 PUSH2 0x3913 SWAP2 PUSH1 0x4 ADD PUSH2 0x3667 JUMP JUMPDEST SWAP2 PUSH1 0x24 CALLDATALOAD SWAP1 PUSH1 0x1 PUSH1 0x1 PUSH1 0x40 SHL SUB DUP3 GT PUSH2 0x35F3 JUMPI PUSH2 0x37D3 SWAP2 PUSH1 0x4 ADD PUSH2 0x3667 JUMP JUMPDEST SWAP3 SWAP5 SWAP4 SWAP1 PUSH1 0x60 SWAP3 PUSH2 0x3958 SWAP2 PUSH1 0x1 DUP1 PUSH1 0xA0 SHL SUB AND DUP6 MSTORE PUSH1 0x80 PUSH1 0x20 DUP7 ADD MSTORE PUSH1 0x80 DUP6 ADD SWAP1 PUSH2 0x3836 JUMP JUMPDEST SWAP5 PUSH1 0x40 DUP5 ADD MSTORE ISZERO ISZERO SWAP2 ADD MSTORE JUMP JUMPDEST PUSH1 0xF SLOAD DUP2 LT ISZERO PUSH2 0x3980 JUMPI PUSH1 0xF PUSH1 0x0 MSTORE PUSH1 0x20 PUSH1 0x0 KECCAK256 ADD SWAP1 PUSH1 0x0 SWAP1 JUMP JUMPDEST PUSH4 0x4E487B71 PUSH1 0xE0 SHL PUSH1 0x0 MSTORE PUSH1 0x32 PUSH1 0x4 MSTORE PUSH1 0x24 PUSH1 0x0 REVERT JUMPDEST PUSH1 0x19 SLOAD DUP2 LT ISZERO PUSH2 0x3980 JUMPI PUSH1 0x19 PUSH1 0x0 MSTORE PUSH1 0x20 PUSH1 0x0 KECCAK256 ADD SWAP1 PUSH1 0x0 SWAP1 JUMP JUMPDEST PUSH1 0xD SLOAD DUP2 LT ISZERO PUSH2 0x3980 JUMPI PUSH1 0xD PUSH1 0x0 MSTORE PUSH1 0x20 PUSH1 0x0 KECCAK256 ADD SWAP1 PUSH1 0x0 SWAP1 JUMP JUMPDEST PUSH1 0xE SLOAD DUP2 LT ISZERO PUSH2 0x3980 JUMPI PUSH1 0xE PUSH1 0x0 MSTORE PUSH1 0x20 PUSH1 0x0 KECCAK256 ADD SWAP1 PUSH1 0x0 SWAP1 JUMP JUMPDEST DUP1 SLOAD DUP3 LT ISZERO PUSH2 0x3980 JUMPI PUSH1 0x0 MSTORE PUSH1 0x20 PUSH1 0x0 KECCAK256 ADD SWAP1 PUSH1 0x0 SWAP1 JUMP JUMPDEST SWAP1 PUSH1 0x1 DUP3 DUP2 SHR SWAP3 AND DUP1 ISZERO PUSH2 0x3A2F JUMPI JUMPDEST PUSH1 0x20 DUP4 LT EQ PUSH2 0x3A19 JUMPI JUMP JUMPDEST PUSH4 0x4E487B71 PUSH1 0xE0 SHL PUSH1 0x0 MSTORE PUSH1 0x22 PUSH1 0x4 MSTORE PUSH1 0x24 PUSH1 0x0 REVERT JUMPDEST SWAP2 PUSH1 0x7F AND SWAP2 PUSH2 0x3A0E JUMP JUMPDEST PUSH1 0x4 SLOAD PUSH1 0x0 SWAP3 SWAP2 PUSH2 0x3A49 DUP3 PUSH2 0x39FF JUMP JUMPDEST DUP1 DUP3 MSTORE SWAP2 PUSH1 0x1 DUP2 AND SWAP1 DUP2 ISZERO PUSH2 0x3AAC JUMPI POP PUSH1 0x1 EQ PUSH2 0x3A64 JUMPI POP POP JUMP JUMPDEST PUSH1 0x4 PUSH1 0x0 SWAP1 DUP2 MSTORE SWAP3 SWAP4 POP SWAP1 SWAP2 SWAP1 PUSH1 0x0 DUP1 MLOAD PUSH1 0x20 PUSH2 0x502A DUP4 CODECOPY DUP2 MLOAD SWAP2 MSTORE JUMPDEST DUP4 DUP4 LT PUSH2 0x3A92 JUMPI POP PUSH1 0x20 SWAP3 POP ADD ADD SWAP1 JUMP JUMPDEST PUSH1 0x1 DUP2 PUSH1 0x20 SWAP3 SWAP5 SWAP4 SWAP5 SLOAD DUP4 DUP6 DUP8 ADD ADD MSTORE ADD SWAP2 ADD SWAP2 SWAP1 PUSH2 0x3A81 JUMP JUMPDEST SWAP1 POP PUSH1 0x20 SWAP4 SWAP5 POP PUSH1 0xFF SWAP3 SWAP2 SWAP3 NOT AND DUP4 DUP4 ADD MSTORE ISZERO ISZERO PUSH1 0x5 SHL ADD ADD SWAP1 JUMP JUMPDEST PUSH1 0x5 SLOAD PUSH1 0x0 SWAP3 SWAP2 PUSH2 0x3AD8 DUP3 PUSH2 0x39FF JUMP JUMPDEST DUP1 DUP3 MSTORE SWAP2 PUSH1 0x1 DUP2 AND SWAP1 DUP2 ISZERO PUSH2 0x3AAC JUMPI POP PUSH1 0x1 EQ PUSH2 0x3AF3 JUMPI POP POP JUMP JUMPDEST PUSH1 0x5 PUSH1 0x0 SWAP1 DUP2 MSTORE SWAP3 SWAP4 POP SWAP1 SWAP2 SWAP1 PUSH32 0x36B6384B5ECA791C62761152D0C79BB0604C104A5FB6F4EB0703F3154BB3DB0 JUMPDEST DUP4 DUP4 LT PUSH2 0x3B33 JUMPI POP PUSH1 0x20 SWAP3 POP ADD ADD SWAP1 JUMP JUMPDEST PUSH1 0x1 DUP2 PUSH1 0x20 SWAP3 SWAP5 SWAP4 SWAP5 SLOAD DUP4 DUP6 DUP8 ADD ADD MSTORE ADD SWAP2 ADD SWAP2 SWAP1 PUSH2 0x3B22 JUMP JUMPDEST PUSH1 0x6 SLOAD PUSH1 0x0 SWAP3 SWAP2 PUSH2 0x3B5D DUP3 PUSH2 0x39FF JUMP JUMPDEST DUP1 DUP3 MSTORE SWAP2 PUSH1 0x1 DUP2 AND SWAP1 DUP2 ISZERO PUSH2 0x3AAC JUMPI POP PUSH1 0x1 EQ PUSH2 0x3B78 JUMPI POP POP JUMP JUMPDEST PUSH1 0x6 PUSH1 0x0 SWAP1 DUP2 MSTORE SWAP3 SWAP4 POP SWAP1 SWAP2 SWAP1 PUSH1 0x0 DUP1 MLOAD PUSH1 0x20 PUSH2 0x500A DUP4 CODECOPY DUP2 MLOAD SWAP2 MSTORE JUMPDEST DUP4 DUP4 LT PUSH2 0x3BA6 JUMPI POP PUSH1 0x20 SWAP3 POP ADD ADD SWAP1 JUMP JUMPDEST PUSH1 0x1 DUP2 PUSH1 0x20 SWAP3 SWAP5 SWAP4 SWAP5 SLOAD DUP4 DUP6 DUP8 ADD ADD MSTORE ADD SWAP2 ADD SWAP2 SWAP1 PUSH2 0x3B95 JUMP JUMPDEST PUSH1 0x7 SLOAD PUSH1 0x0 SWAP3 SWAP2 PUSH2 0x3BD0 DUP3 PUSH2 0x39FF JUMP JUMPDEST DUP1 DUP3 MSTORE SWAP2 PUSH1 0x1 DUP2 AND SWAP1 DUP2 ISZERO PUSH2 0x3AAC JUMPI POP PUSH1 0x1 EQ PUSH2 0x3BEB JUMPI POP POP JUMP JUMPDEST PUSH1 0x7 PUSH1 0x0 SWAP1 DUP2 MSTORE SWAP3 SWAP4 POP SWAP1 SWAP2 SWAP1 PUSH1 0x0 DUP1 MLOAD PUSH1 0x20 PUSH2 0x4F4A DUP4 CODECOPY DUP2 MLOAD SWAP2 MSTORE JUMPDEST DUP4 DUP4 LT PUSH2 0x3C19 JUMPI POP PUSH1 0x20 SWAP3 POP ADD ADD SWAP1 JUMP JUMPDEST PUSH1 0x1 DUP2 PUSH1 0x20 SWAP3 SWAP5 SWAP4 SWAP5 SLOAD DUP4 DUP6 DUP8 ADD ADD MSTORE ADD SWAP2 ADD SWAP2 SWAP1 PUSH2 0x3C08 JUMP JUMPDEST PUSH1 0x3 SLOAD PUSH1 0x0 SWAP3 SWAP2 PUSH2 0x3C43 DUP3 PUSH2 0x39FF JUMP JUMPDEST DUP1 DUP3 MSTORE SWAP2 PUSH1 0x1 DUP2 AND SWAP1 DUP2 ISZERO PUSH2 0x3AAC JUMPI POP PUSH1 0x1 EQ PUSH2 0x3C5E JUMPI POP POP JUMP JUMPDEST PUSH1 0x3 PUSH1 0x0 SWAP1 DUP2 MSTORE SWAP3 SWAP4 POP SWAP1 SWAP2 SWAP1 PUSH1 0x0 DUP1 MLOAD PUSH1 0x20 PUSH2 0x4F0A DUP4 CODECOPY DUP2 MLOAD SWAP2 MSTORE JUMPDEST DUP4 DUP4 LT PUSH2 0x3C8C JUMPI POP PUSH1 0x20 SWAP3 POP ADD ADD SWAP1 JUMP JUMPDEST PUSH1 0x1 DUP2 PUSH1 0x20 SWAP3 SWAP5 SWAP4 SWAP5 SLOAD DUP4 DUP6 DUP8 ADD ADD MSTORE ADD SWAP2 ADD SWAP2 SWAP1 PUSH2 0x3C7B JUMP JUMPDEST PUSH1 0x13 SLOAD PUSH1 0x0 SWAP3 SWAP2 PUSH2 0x3CB6 DUP3 PUSH2 0x39FF JUMP JUMPDEST DUP1 DUP3 MSTORE SWAP2 PUSH1 0x1 DUP2 AND SWAP1 DUP2 ISZERO PUSH2 0x3AAC JUMPI POP PUSH1 0x1 EQ PUSH2 0x3CD1 JUMPI POP POP JUMP JUMPDEST PUSH1 0x13 PUSH1 0x0 SWAP1 DUP2 MSTORE SWAP3 SWAP4 POP SWAP1 SWAP2 SWAP1 PUSH1 0x0 DUP1 MLOAD PUSH1 0x20 PUSH2 0x4F6A DUP4 CODECOPY DUP2 MLOAD SWAP2 MSTORE JUMPDEST DUP4 DUP4 LT PUSH2 0x3CFF JUMPI POP PUSH1 0x20 SWAP3 POP ADD ADD SWAP1 JUMP JUMPDEST PUSH1 0x1 DUP2 PUSH1 0x20 SWAP3 SWAP5 SWAP4 SWAP5 SLOAD DUP4 DUP6 DUP8 ADD ADD MSTORE ADD SWAP2 ADD SWAP2 SWAP1 PUSH2 0x3CEE JUMP JUMPDEST PUSH1 0x14 SLOAD PUSH1 0x0 SWAP3 SWAP2 PUSH2 0x3D29 DUP3 PUSH2 0x39FF JUMP JUMPDEST DUP1 DUP3 MSTORE SWAP2 PUSH1 0x1 DUP2 AND SWAP1 DUP2 ISZERO PUSH2 0x3AAC JUMPI POP PUSH1 0x1 EQ PUSH2 0x3D44 JUMPI POP POP JUMP JUMPDEST PUSH1 0x14 PUSH1 0x0 SWAP1 DUP2 MSTORE SWAP3 SWAP4 POP SWAP1 SWAP2 SWAP1 PUSH1 0x0 DUP1 MLOAD PUSH1 0x20 PUSH2 0x506A DUP4 CODECOPY DUP2 MLOAD SWAP2 MSTORE JUMPDEST DUP4 DUP4 LT PUSH2 0x3D72 JUMPI POP PUSH1 0x20 SWAP3 POP ADD ADD SWAP1 JUMP JUMPDEST PUSH1 0x1 DUP2 PUSH1 0x20 SWAP3 SWAP5 SWAP4 SWAP5 SLOAD DUP4 DUP6 DUP8 ADD ADD MSTORE ADD SWAP2 ADD SWAP2 SWAP1 PUSH2 0x3D61 JUMP JUMPDEST PUSH1 0x8 SLOAD PUSH1 0x0 SWAP3 SWAP2 PUSH2 0x3D9C DUP3 PUSH2 0x39FF JUMP JUMPDEST DUP1 DUP3 MSTORE SWAP2 PUSH1 0x1 DUP2 AND SWAP1 DUP2 ISZERO PUSH2 0x3AAC JUMPI POP PUSH1 0x1 EQ PUSH2 0x3DB7 JUMPI POP POP JUMP JUMPDEST PUSH1 0x8 PUSH1 0x0 SWAP1 DUP2 MSTORE SWAP3 SWAP4 POP SWAP1 SWAP2 SWAP1 PUSH1 0x0 DUP1 MLOAD PUSH1 0x20 PUSH2 0x4FCA DUP4 CODECOPY DUP2 MLOAD SWAP2 MSTORE JUMPDEST DUP4 DUP4 LT PUSH2 0x3DE5 JUMPI POP PUSH1 0x20 SWAP3 POP ADD ADD SWAP1 JUMP JUMPDEST PUSH1 0x1 DUP2 PUSH1 0x20 SWAP3 SWAP5 SWAP4 SWAP5 SLOAD DUP4 DUP6 DUP8 ADD ADD MSTORE ADD SWAP2 ADD SWAP2 SWAP1 PUSH2 0x3DD4 JUMP JUMPDEST PUSH1 0x0 SWAP3 SWAP2 DUP2 SLOAD SWAP2 PUSH2 0x3E0F DUP4 PUSH2 0x39FF JUMP JUMPDEST DUP1 DUP4 MSTORE SWAP3 PUSH1 0x1 DUP2 AND SWAP1 DUP2 ISZERO PUSH2 0x3E65 JUMPI POP PUSH1 0x1 EQ PUSH2 0x3E2B JUMPI POP POP POP JUMP JUMPDEST PUSH1 0x0 SWAP1 DUP2 MSTORE PUSH1 0x20 DUP2 KECCAK256 SWAP4 SWAP5 POP SWAP2 SWAP3 JUMPDEST DUP4 DUP4 LT PUSH2 0x3E4B JUMPI POP PUSH1 0x20 SWAP3 POP ADD ADD SWAP1 JUMP JUMPDEST PUSH1 0x1 DUP2 PUSH1 0x20 SWAP3 SWAP5 SWAP4 SWAP5 SLOAD DUP4 DUP6 DUP8 ADD ADD MSTORE ADD SWAP2 ADD SWAP2 SWAP1 PUSH2 0x3E3A JUMP JUMPDEST SWAP2 POP POP PUSH1 0x20 SWAP4 SWAP5 POP PUSH1 0xFF SWAP3 SWAP2 SWAP3 NOT AND DUP4 DUP4 ADD MSTORE ISZERO ISZERO PUSH1 0x5 SHL ADD ADD SWAP1 JUMP JUMPDEST ISZERO PUSH2 0x3E89 JUMPI JUMP JUMPDEST PUSH1 0x40 MLOAD PUSH3 0x461BCD PUSH1 0xE5 SHL DUP2 MSTORE PUSH1 0x20 PUSH1 0x4 DUP3 ADD MSTORE PUSH1 0xC PUSH1 0x24 DUP3 ADD MSTORE PUSH12 0x27B7363C9031B932B0BA37B9 PUSH1 0xA1 SHL PUSH1 0x44 DUP3 ADD MSTORE PUSH1 0x64 SWAP1 REVERT JUMPDEST ISZERO PUSH2 0x3EC4 JUMPI JUMP JUMPDEST PUSH1 0x40 MLOAD PUSH3 0x461BCD PUSH1 0xE5 SHL DUP2 MSTORE PUSH1 0x20 PUSH1 0x4 DUP3 ADD MSTORE PUSH1 0xA PUSH1 0x24 DUP3 ADD MSTORE PUSH10 0x456D70747920726F6C65 PUSH1 0xB0 SHL PUSH1 0x44 DUP3 ADD MSTORE PUSH1 0x64 SWAP1 REVERT JUMPDEST ISZERO PUSH2 0x3EFD JUMPI JUMP JUMPDEST PUSH1 0x40 MLOAD PUSH3 0x461BCD PUSH1 0xE5 SHL DUP2 MSTORE PUSH1 0x20 PUSH1 0x4 DUP3 ADD MSTORE PUSH1 0x13 PUSH1 0x24 DUP3 ADD MSTORE PUSH19 0x105B1C9958591E481C185C9D1A58DA5C185B9D PUSH1 0x6A SHL PUSH1 0x44 DUP3 ADD MSTORE PUSH1 0x64 SWAP1 REVERT JUMPDEST ISZERO PUSH2 0x3F3F JUMPI JUMP JUMPDEST PUSH1 0x40 MLOAD PUSH3 0x461BCD PUSH1 0xE5 SHL DUP2 MSTORE PUSH1 0x20 PUSH1 0x4 DUP3 ADD MSTORE PUSH1 0x17 PUSH1 0x24 DUP3 ADD MSTORE PUSH23 0x576569676874206D75737420626520706F736974697665 PUSH1 0x48 SHL PUSH1 0x44 DUP3 ADD MSTORE PUSH1 0x64 SWAP1 REVERT JUMPDEST PUSH1 0xF SLOAD PUSH1 0x1 PUSH1 0x40 SHL DUP2 LT ISZERO PUSH2 0x3613 JUMPI DUP1 PUSH1 0x1 PUSH2 0x3F9F SWAP3 ADD PUSH1 0xF SSTORE PUSH1 0xF PUSH2 0x39E7 JUMP JUMPDEST DUP2 SLOAD PUSH1 0x1 PUSH1 0x1 PUSH1 0xA0 SHL SUB SWAP4 DUP5 AND PUSH1 0x3 SWAP3 SWAP1 SWAP3 SHL SWAP2 DUP3 SHL SWAP4 SWAP1 SWAP2 SHL NOT AND SWAP2 SWAP1 SWAP2 OR SWAP1 SSTORE JUMP JUMPDEST DUP2 DUP2 LT PUSH2 0x3FCE JUMPI POP POP JUMP JUMPDEST PUSH1 0x0 DUP2 SSTORE PUSH1 0x1 ADD PUSH2 0x3FC3 JUMP JUMPDEST DUP2 PUSH1 0x1 SHL SWAP2 PUSH1 0x0 NOT SWAP1 PUSH1 0x3 SHL SHR NOT AND OR SWAP1 JUMP JUMPDEST DUP1 MLOAD SWAP1 SWAP2 SWAP1 PUSH1 0x1 PUSH1 0x1 PUSH1 0x40 SHL SUB DUP2 GT PUSH2 0x3613 JUMPI PUSH2 0x400B PUSH1 0x3 SLOAD PUSH2 0x39FF JUMP JUMPDEST PUSH1 0x1F DUP2 GT PUSH2 0x409F JUMPI JUMPDEST POP PUSH1 0x20 SWAP3 PUSH1 0x1F DUP3 GT PUSH1 0x1 EQ PUSH2 0x403D JUMPI PUSH2 0x4038 SWAP3 SWAP4 DUP3 SWAP2 PUSH1 0x0 SWAP3 PUSH2 0x21B1 JUMPI POP POP PUSH2 0x3FDA JUMP JUMPDEST PUSH1 0x3 SSTORE JUMP JUMPDEST PUSH1 0x1F NOT DUP3 AND SWAP4 PUSH1 0x3 PUSH1 0x0 MSTORE DUP1 PUSH1 0x0 KECCAK256 SWAP2 PUSH1 0x0 JUMPDEST DUP7 DUP2 LT PUSH2 0x4087 JUMPI POP DUP4 PUSH1 0x1 SWAP6 SWAP7 LT PUSH2 0x406E JUMPI JUMPDEST POP POP POP DUP2 SHL ADD PUSH1 0x3 SSTORE JUMP JUMPDEST ADD MLOAD PUSH1 0x0 NOT PUSH1 0xF8 DUP5 PUSH1 0x3 SHL AND SHR NOT AND SWAP1 SSTORE CODESIZE DUP1 DUP1 PUSH2 0x4063 JUMP JUMPDEST SWAP2 SWAP3 PUSH1 0x20 PUSH1 0x1 DUP2 SWAP3 DUP7 DUP6 ADD MLOAD DUP2 SSTORE ADD SWAP5 ADD SWAP3 ADD PUSH2 0x4050 JUMP JUMPDEST PUSH1 0x3 PUSH1 0x0 MSTORE PUSH2 0x40D6 SWAP1 PUSH1 0x0 DUP1 MLOAD PUSH1 0x20 PUSH2 0x4F0A DUP4 CODECOPY DUP2 MLOAD SWAP2 MSTORE PUSH1 0x1F DUP5 ADD PUSH1 0x5 SHR DUP2 ADD SWAP2 PUSH1 0x20 DUP6 LT PUSH2 0x174F JUMPI PUSH1 0x1F ADD PUSH1 0x5 SHR ADD SWAP1 PUSH2 0x3FC3 JUMP JUMPDEST CODESIZE PUSH2 0x4014 JUMP JUMPDEST DUP1 MLOAD SWAP1 SWAP2 SWAP1 PUSH1 0x1 PUSH1 0x1 PUSH1 0x40 SHL SUB DUP2 GT PUSH2 0x3613 JUMPI PUSH2 0x40FA PUSH1 0x7 SLOAD PUSH2 0x39FF JUMP JUMPDEST PUSH1 0x1F DUP2 GT PUSH2 0x418E JUMPI JUMPDEST POP PUSH1 0x20 SWAP3 PUSH1 0x1F DUP3 GT PUSH1 0x1 EQ PUSH2 0x412C JUMPI PUSH2 0x4127 SWAP3 SWAP4 DUP3 SWAP2 PUSH1 0x0 SWAP3 PUSH2 0x21B1 JUMPI POP POP PUSH2 0x3FDA JUMP JUMPDEST PUSH1 0x7 SSTORE JUMP JUMPDEST PUSH1 0x1F NOT DUP3 AND SWAP4 PUSH1 0x7 PUSH1 0x0 MSTORE DUP1 PUSH1 0x0 KECCAK256 SWAP2 PUSH1 0x0 JUMPDEST DUP7 DUP2 LT PUSH2 0x4176 JUMPI POP DUP4 PUSH1 0x1 SWAP6 SWAP7 LT PUSH2 0x415D JUMPI JUMPDEST POP POP POP DUP2 SHL ADD PUSH1 0x7 SSTORE JUMP JUMPDEST ADD MLOAD PUSH1 0x0 NOT PUSH1 0xF8 DUP5 PUSH1 0x3 SHL AND SHR NOT AND SWAP1 SSTORE CODESIZE DUP1 DUP1 PUSH2 0x4152 JUMP JUMPDEST SWAP2 SWAP3 PUSH1 0x20 PUSH1 0x1 DUP2 SWAP3 DUP7 DUP6 ADD MLOAD DUP2 SSTORE ADD SWAP5 ADD SWAP3 ADD PUSH2 0x413F JUMP JUMPDEST PUSH1 0x7 PUSH1 0x0 MSTORE PUSH2 0x41C5 SWAP1 PUSH1 0x0 DUP1 MLOAD PUSH1 0x20 PUSH2 0x4F4A DUP4 CODECOPY DUP2 MLOAD SWAP2 MSTORE PUSH1 0x1F DUP5 ADD PUSH1 0x5 SHR DUP2 ADD SWAP2 PUSH1 0x20 DUP6 LT PUSH2 0x174F JUMPI PUSH1 0x1F ADD PUSH1 0x5 SHR ADD SWAP1 PUSH2 0x3FC3 JUMP JUMPDEST CODESIZE PUSH2 0x4103 JUMP JUMPDEST DUP2 MLOAD SWAP2 SWAP3 SWAP2 PUSH1 0x1 PUSH1 0x1 PUSH1 0x40 SHL SUB DUP2 GT PUSH2 0x3613 JUMPI PUSH2 0x41E8 DUP3 SLOAD PUSH2 0x39FF JUMP JUMPDEST PUSH1 0x1F DUP2 GT PUSH2 0x427B JUMPI JUMPDEST POP PUSH1 0x20 PUSH1 0x1F DUP3 GT PUSH1 0x1 EQ PUSH2 0x4219 JUMPI DUP2 SWAP1 PUSH2 0x4215 SWAP4 SWAP5 SWAP6 PUSH1 0x0 SWAP3 PUSH2 0x21B1 JUMPI POP POP PUSH2 0x3FDA JUMP JUMPDEST SWAP1 SSTORE JUMP JUMPDEST PUSH1 0x1F NOT DUP3 AND SWAP1 DUP4 PUSH1 0x0 MSTORE DUP1 PUSH1 0x0 KECCAK256 SWAP2 PUSH1 0x0 JUMPDEST DUP2 DUP2 LT PUSH2 0x4263 JUMPI POP SWAP6 DUP4 PUSH1 0x1 SWAP6 SWAP7 SWAP8 LT PUSH2 0x424A JUMPI JUMPDEST POP POP POP DUP2 SHL ADD SWAP1 SSTORE JUMP JUMPDEST ADD MLOAD PUSH1 0x0 NOT PUSH1 0xF8 DUP5 PUSH1 0x3 SHL AND SHR NOT AND SWAP1 SSTORE CODESIZE DUP1 DUP1 PUSH2 0x4240 JUMP JUMPDEST SWAP2 SWAP3 PUSH1 0x20 PUSH1 0x1 DUP2 SWAP3 DUP7 DUP12 ADD MLOAD DUP2 SSTORE ADD SWAP5 ADD SWAP3 ADD PUSH2 0x422B JUMP JUMPDEST PUSH2 0x42A7 SWAP1 DUP4 PUSH1 0x0 MSTORE PUSH1 0x20 PUSH1 0x0 KECCAK256 PUSH1 0x1F DUP5 ADD PUSH1 0x5 SHR DUP2 ADD SWAP2 PUSH1 0x20 DUP6 LT PUSH2 0x174F JUMPI PUSH1 0x1F ADD PUSH1 0x5 SHR ADD SWAP1 PUSH2 0x3FC3 JUMP JUMPDEST CODESIZE PUSH2 0x41F1 JUMP JUMPDEST SWAP3 SWAP2 SWAP1 PUSH2 0x42C4 PUSH1 0x20 SWAP2 PUSH1 0x40 DUP7 MSTORE PUSH1 0x40 DUP7 ADD SWAP1 PUSH2 0x3836 JUMP JUMPDEST SWAP4 ADD MSTORE JUMP JUMPDEST ISZERO PUSH2 0x42D0 JUMPI JUMP JUMPDEST PUSH1 0x40 MLOAD PUSH3 0x461BCD PUSH1 0xE5 SHL DUP2 MSTORE PUSH1 0x20 PUSH1 0x4 DUP3 ADD MSTORE PUSH1 0x8 PUSH1 0x24 DUP3 ADD MSTORE PUSH8 0x496E616374697665 PUSH1 0xC0 SHL PUSH1 0x44 DUP3 ADD MSTORE PUSH1 0x64 SWAP1 REVERT JUMPDEST ISZERO PUSH2 0x4307 JUMPI JUMP JUMPDEST PUSH1 0x40 MLOAD PUSH3 0x461BCD PUSH1 0xE5 SHL DUP2 MSTORE PUSH1 0x20 PUSH1 0x4 DUP3 ADD MSTORE PUSH1 0xA PUSH1 0x24 DUP3 ADD MSTORE PUSH10 0x456D7074792064617461 PUSH1 0xB0 SHL PUSH1 0x44 DUP3 ADD MSTORE PUSH1 0x64 SWAP1 REVERT JUMPDEST ISZERO PUSH2 0x4340 JUMPI JUMP JUMPDEST PUSH1 0x40 MLOAD PUSH3 0x461BCD PUSH1 0xE5 SHL DUP2 MSTORE PUSH1 0x20 PUSH1 0x4 DUP3 ADD MSTORE PUSH1 0x17 PUSH1 0x24 DUP3 ADD MSTORE PUSH23 0x159BDD1A5B99C818DBDB9D1C9858DD081B9BDD081CD95D PUSH1 0x4A SHL PUSH1 0x44 DUP3 ADD MSTORE PUSH1 0x64 SWAP1 REVERT JUMPDEST DUP1 MLOAD DUP3 LT ISZERO PUSH2 0x3980 JUMPI PUSH1 0x20 SWAP2 PUSH1 0x5 SHL ADD ADD SWAP1 JUMP JUMPDEST DUP2 PUSH1 0x1F DUP3 ADD SLT ISZERO PUSH2 0x35F3 JUMPI DUP1 MLOAD PUSH2 0x43A9 DUP2 PUSH2 0x364C JUMP JUMPDEST SWAP3 PUSH2 0x43B7 PUSH1 0x40 MLOAD SWAP5 DUP6 PUSH2 0x3629 JUMP JUMPDEST DUP2 DUP5 MSTORE PUSH1 0x20 DUP3 DUP5 ADD ADD GT PUSH2 0x35F3 JUMPI PUSH2 0x37D3 SWAP2 PUSH1 0x20 DUP1 DUP6 ADD SWAP2 ADD PUSH2 0x3813 JUMP JUMPDEST SWAP1 PUSH1 0x20 DUP3 DUP3 SUB SLT PUSH2 0x35F3 JUMPI DUP2 MLOAD PUSH1 0x1 PUSH1 0x1 PUSH1 0x40 SHL SUB DUP2 GT PUSH2 0x35F3 JUMPI PUSH2 0x37D3 SWAP3 ADD PUSH2 0x4393 JUMP JUMPDEST PUSH1 0x40 MLOAD SWAP1 PUSH2 0x4409 PUSH1 0x40 DUP4 PUSH2 0x3629 JUMP JUMPDEST PUSH1 0xB DUP3 MSTORE PUSH11 0x31B7B73A3934B13ABA37B9 PUSH1 0xA9 SHL PUSH1 0x20 DUP4 ADD MSTORE JUMP JUMPDEST ISZERO PUSH2 0x442A JUMPI JUMP JUMPDEST PUSH1 0x40 MLOAD PUSH3 0x461BCD PUSH1 0xE5 SHL DUP2 MSTORE PUSH1 0x20 PUSH1 0x4 DUP3 ADD MSTORE PUSH1 0x19 PUSH1 0x24 DUP3 ADD MSTORE PUSH25 0x139BDD0818481C1C9BDA9958DD081C185C9D1A58DA5C185B9D PUSH1 0x3A SHL PUSH1 0x44 DUP3 ADD MSTORE PUSH1 0x64 SWAP1 REVERT JUMPDEST SWAP1 PUSH2 0x4475 DUP3 PUSH2 0x36F4 JUMP JUMPDEST PUSH2 0x4482 PUSH1 0x40 MLOAD SWAP2 DUP3 PUSH2 0x3629 JUMP JUMPDEST DUP3 DUP2 MSTORE DUP1 SWAP3 PUSH2 0x4493 PUSH1 0x1F NOT SWAP2 PUSH2 0x36F4 JUMP JUMPDEST ADD SWAP1 PUSH1 0x20 CALLDATASIZE SWAP2 ADD CALLDATACOPY JUMP JUMPDEST ISZERO PUSH2 0x44A4 JUMPI JUMP JUMPDEST PUSH1 0x40 MLOAD PUSH3 0x461BCD PUSH1 0xE5 SHL DUP2 MSTORE PUSH1 0x20 PUSH1 0x4 DUP3 ADD MSTORE PUSH1 0x1D PUSH1 0x24 DUP3 ADD MSTORE PUSH32 0x4F6E6C7920766F74696E6720636F6E74726163742063616E2063616C6C000000 PUSH1 0x44 DUP3 ADD MSTORE PUSH1 0x64 SWAP1 REVERT JUMPDEST SWAP1 PUSH1 0x60 SWAP3 PUSH2 0x4506 PUSH2 0x4514 SWAP3 SWAP8 SWAP7 SWAP6 SWAP8 PUSH1 0x80 DUP6 MSTORE PUSH1 0x80 DUP6 ADD SWAP1 PUSH2 0x3836 JUMP JUMPDEST SWAP1 DUP4 DUP3 SUB PUSH1 0x20 DUP6 ADD MSTORE PUSH2 0x3836 JUMP JUMPDEST SWAP5 PUSH1 0x40 DUP3 ADD MSTORE ADD MSTORE JUMP JUMPDEST PUSH1 0x40 SWAP2 SWAP5 SWAP4 SWAP3 PUSH1 0x60 DUP3 ADD SWAP6 DUP3 MSTORE PUSH1 0x20 DUP3 ADD MSTORE ADD MSTORE JUMP JUMPDEST PUSH2 0x453E DUP2 SLOAD PUSH2 0x39FF JUMP JUMPDEST SWAP1 DUP2 PUSH2 0x4548 JUMPI POP POP JUMP JUMPDEST DUP2 PUSH1 0x1F PUSH1 0x0 SWAP4 GT PUSH1 0x1 EQ PUSH2 0x455B JUMPI POP SSTORE JUMPDEST JUMP JUMPDEST DUP2 DUP4 MSTORE PUSH1 0x20 DUP4 KECCAK256 PUSH2 0x4577 SWAP2 PUSH1 0x1F ADD PUSH1 0x5 SHR DUP2 ADD SWAP1 PUSH1 0x1 ADD PUSH2 0x3FC3 JUMP JUMPDEST DUP1 DUP3 MSTORE DUP2 PUSH1 0x20 DUP2 KECCAK256 SWAP2 SSTORE SSTORE JUMP JUMPDEST SWAP1 PUSH1 0x40 MLOAD PUSH2 0x4591 DUP2 PUSH2 0x35F8 JUMP JUMPDEST PUSH1 0x60 PUSH1 0xFF PUSH1 0x3 DUP4 SWAP6 PUSH1 0x1 DUP1 PUSH1 0xA0 SHL SUB DUP2 SLOAD AND DUP6 MSTORE PUSH1 0x40 MLOAD PUSH2 0x45B9 DUP2 PUSH2 0x85C DUP2 PUSH1 0x1 DUP7 ADD PUSH2 0x3DFF JUMP JUMPDEST PUSH1 0x20 DUP7 ADD MSTORE PUSH1 0x2 DUP2 ADD SLOAD PUSH1 0x40 DUP7 ADD MSTORE ADD SLOAD AND ISZERO ISZERO SWAP2 ADD MSTORE JUMP JUMPDEST ISZERO PUSH2 0x45D9 JUMPI JUMP JUMPDEST PUSH1 0x40 MLOAD PUSH3 0x461BCD PUSH1 0xE5 SHL DUP2 MSTORE PUSH1 0x20 PUSH1 0x4 DUP3 ADD MSTORE PUSH1 0x13 PUSH1 0x24 DUP3 ADD MSTORE PUSH19 0x139BC81A5B9D9A5D185D1A5BDB88199BDD5B99 PUSH1 0x6A SHL PUSH1 0x44 DUP3 ADD MSTORE PUSH1 0x64 SWAP1 REVERT JUMPDEST PUSH1 0x3 PUSH1 0x0 SWAP2 DUP3 DUP2 SSTORE PUSH2 0x4628 PUSH1 0x1 DUP3 ADD PUSH2 0x4534 JUMP JUMPDEST DUP3 PUSH1 0x2 DUP3 ADD SSTORE ADD SSTORE JUMP JUMPDEST ISZERO PUSH2 0x4639 JUMPI JUMP JUMPDEST PUSH1 0x40 MLOAD PUSH3 0x461BCD PUSH1 0xE5 SHL DUP2 MSTORE PUSH1 0x20 PUSH1 0x4 DUP3 ADD MSTORE PUSH1 0x1B PUSH1 0x24 DUP3 ADD MSTORE PUSH27 0x10530818DBDB9D1C9858DD1CC8185B1C9958591E481B1A5B9AD959 PUSH1 0x2A SHL PUSH1 0x44 DUP3 ADD MSTORE PUSH1 0x64 SWAP1 REVERT JUMPDEST ISZERO PUSH2 0x4683 JUMPI JUMP JUMPDEST PUSH1 0x40 MLOAD PUSH3 0x461BCD PUSH1 0xE5 SHL DUP2 MSTORE PUSH1 0x20 PUSH1 0x4 DUP3 ADD MSTORE PUSH1 0x1D PUSH1 0x24 DUP3 ADD MSTORE PUSH32 0x524F2D437261746520686173682063616E6E6F7420626520656D707479000000 PUSH1 0x44 DUP3 ADD MSTORE PUSH1 0x64 SWAP1 REVERT JUMPDEST PUSH1 0x17 SLOAD SWAP1 PUSH2 0x46D5 DUP3 PUSH2 0x36F4 JUMP JUMPDEST SWAP2 PUSH2 0x46E3 PUSH1 0x40 MLOAD SWAP4 DUP5 PUSH2 0x3629 JUMP JUMPDEST DUP1 DUP4 MSTORE PUSH1 0x17 PUSH1 0x0 SWAP1 DUP2 MSTORE PUSH1 0x0 DUP1 MLOAD PUSH1 0x20 PUSH2 0x504A DUP4 CODECOPY DUP2 MLOAD SWAP2 MSTORE PUSH1 0x20 DUP6 ADD JUMPDEST DUP4 DUP4 LT PUSH2 0x470E JUMPI POP POP POP POP JUMP JUMPDEST PUSH1 0x1 PUSH1 0x20 DUP2 SWAP3 PUSH1 0x40 MLOAD PUSH2 0x4725 DUP2 PUSH2 0x85C DUP2 DUP10 PUSH2 0x3DFF JUMP JUMPDEST DUP2 MSTORE ADD SWAP3 ADD SWAP3 ADD SWAP2 SWAP1 PUSH2 0x4701 JUMP JUMPDEST DUP2 MLOAD DUP2 SLOAD PUSH1 0x1 PUSH1 0x1 PUSH1 0xA0 SHL SUB NOT AND PUSH1 0x1 PUSH1 0x1 PUSH1 0xA0 SHL SUB SWAP2 SWAP1 SWAP2 AND OR DUP2 SSTORE PUSH1 0x20 DUP3 ADD MLOAD PUSH1 0x60 SWAP2 PUSH1 0x3 SWAP2 PUSH2 0x4768 SWAP1 PUSH1 0x1 DUP4 ADD PUSH2 0x41CB JUMP JUMPDEST PUSH1 0x40 DUP5 ADD MLOAD PUSH1 0x2 DUP3 ADD SSTORE ADD SWAP2 ADD MLOAD ISZERO ISZERO PUSH1 0xFF DUP1 NOT DUP4 SLOAD AND SWAP2 AND OR SWAP1 SSTORE JUMP JUMPDEST PUSH1 0x40 MLOAD PUSH4 0x61D25A0D PUSH1 0xE1 SHL DUP2 MSTORE PUSH1 0x20 DUP2 PUSH1 0x4 DUP2 ADDRESS GAS STATICCALL SWAP1 DUP2 ISZERO PUSH2 0x4837 JUMPI PUSH1 0x0 SWAP2 PUSH2 0x47FC JUMPI JUMPDEST POP PUSH2 0x47F7 JUMPI PUSH1 0x40 MLOAD PUSH2 0x47C0 DUP2 PUSH2 0x85C DUP2 PUSH2 0x3B4D JUMP JUMPDEST PUSH1 0x20 DUP2 MLOAD SWAP2 ADD KECCAK256 PUSH1 0xF PUSH1 0x20 PUSH1 0x40 MLOAD PUSH2 0x47D9 PUSH1 0x40 DUP3 PUSH2 0x3629 JUMP JUMPDEST DUP3 DUP2 MSTORE ADD PUSH15 0x6163746976655F6C6561726E696E67 PUSH1 0x88 SHL DUP2 MSTORE KECCAK256 EQ SWAP1 JUMP JUMPDEST PUSH1 0x0 SWAP1 JUMP JUMPDEST PUSH1 0x20 DUP2 RETURNDATASIZE PUSH1 0x20 GT PUSH2 0x482F JUMPI JUMPDEST DUP2 PUSH2 0x4815 PUSH1 0x20 SWAP4 DUP4 PUSH2 0x3629 JUMP JUMPDEST DUP2 ADD SUB SLT PUSH2 0x7D7 JUMPI MLOAD SWAP1 DUP2 ISZERO ISZERO DUP3 SUB PUSH2 0x389 JUMPI POP CODESIZE PUSH2 0x47AB JUMP JUMPDEST RETURNDATASIZE SWAP2 POP PUSH2 0x4808 JUMP JUMPDEST PUSH1 0x40 MLOAD RETURNDATASIZE PUSH1 0x0 DUP3 RETURNDATACOPY RETURNDATASIZE SWAP1 REVERT JUMPDEST PUSH1 0xFF PUSH1 0x0 SLOAD PUSH1 0xA0 SHR AND ISZERO PUSH2 0x4925 JUMPI PUSH1 0x15 SLOAD DUP1 ISZERO ISZERO SWAP1 DUP2 PUSH2 0x4918 JUMPI JUMPDEST POP PUSH2 0x48DD JUMPI PUSH1 0xFF PUSH1 0x1E SLOAD AND PUSH2 0x48A5 JUMPI PUSH1 0x0 SWAP1 PUSH1 0x40 MLOAD PUSH2 0x487E PUSH1 0x40 DUP3 PUSH2 0x3629 JUMP JUMPDEST PUSH1 0x17 DUP2 MSTORE PUSH23 0x50726F6A656374206973207374696C6C20616374697665 PUSH1 0x48 SHL PUSH1 0x20 DUP3 ADD MSTORE SWAP1 JUMP JUMPDEST PUSH1 0x1 SWAP1 PUSH1 0x40 MLOAD PUSH2 0x48B6 PUSH1 0x60 DUP3 PUSH2 0x3629 JUMP JUMPDEST PUSH1 0x23 DUP2 MSTORE PUSH1 0x0 DUP1 MLOAD PUSH1 0x20 PUSH2 0x4FAA DUP4 CODECOPY DUP2 MLOAD SWAP2 MSTORE PUSH1 0x20 DUP3 ADD MSTORE PUSH3 0x626C65 PUSH1 0xE8 SHL PUSH1 0x40 DUP3 ADD MSTORE SWAP1 JUMP JUMPDEST PUSH1 0x1 SWAP1 PUSH1 0x40 MLOAD PUSH2 0x48EE PUSH1 0x40 DUP3 PUSH2 0x3629 JUMP JUMPDEST PUSH1 0x1A DUP2 MSTORE PUSH26 0x13585E1A5B5D5B481A5D195C985D1A5BDB9CC81C995858DA1959 PUSH1 0x32 SHL PUSH1 0x20 DUP3 ADD MSTORE SWAP1 JUMP JUMPDEST SWAP1 POP PUSH1 0x1D SLOAD LT ISZERO CODESIZE PUSH2 0x485E JUMP JUMPDEST PUSH1 0x1 SWAP1 PUSH1 0x40 MLOAD PUSH2 0x4936 PUSH1 0x40 DUP3 PUSH2 0x3629 JUMP JUMPDEST PUSH1 0x1C DUP2 MSTORE PUSH28 0x141C9BDA9958DD081B585B9D585B1B1E4819195858DD1A5D985D1959 PUSH1 0x22 SHL PUSH1 0x20 DUP3 ADD MSTORE SWAP1 JUMP JUMPDEST ISZERO PUSH2 0x4969 JUMPI JUMP JUMPDEST PUSH1 0x40 MLOAD PUSH3 0x461BCD PUSH1 0xE5 SHL DUP2 MSTORE PUSH1 0x20 PUSH1 0x4 DUP3 ADD MSTORE PUSH1 0x18 PUSH1 0x24 DUP3 ADD MSTORE PUSH24 0x14DD1BDC9859D94818DBDB9D1C9858DD081B9BDD081CD95D PUSH1 0x42 SHL PUSH1 0x44 DUP3 ADD MSTORE PUSH1 0x64 SWAP1 REVERT JUMPDEST SWAP4 SWAP3 SWAP2 PUSH2 0x42C4 SWAP1 PUSH2 0x49C4 PUSH1 0x40 SWAP4 PUSH1 0x60 DUP9 MSTORE PUSH1 0x60 DUP9 ADD SWAP1 PUSH2 0x3836 JUMP JUMPDEST SWAP1 DUP7 DUP3 SUB PUSH1 0x20 DUP9 ADD MSTORE PUSH2 0x3836 JUMP JUMPDEST ISZERO PUSH2 0x49D9 JUMPI JUMP JUMPDEST PUSH1 0x40 MLOAD PUSH3 0x461BCD PUSH1 0xE5 SHL DUP2 MSTORE PUSH1 0x20 PUSH1 0x4 DUP3 ADD MSTORE PUSH1 0xA PUSH1 0x24 DUP3 ADD MSTORE PUSH10 0x139BC81C995C5D595CDD PUSH1 0xB2 SHL PUSH1 0x44 DUP3 ADD MSTORE PUSH1 0x64 SWAP1 REVERT JUMPDEST SWAP1 DUP1 PUSH1 0x1F DUP4 ADD SLT ISZERO PUSH2 0x35F3 JUMPI DUP2 MLOAD SWAP1 PUSH2 0x4A23 DUP3 PUSH2 0x36F4 JUMP JUMPDEST SWAP3 PUSH2 0x4A31 PUSH1 0x40 MLOAD SWAP5 DUP6 PUSH2 0x3629 JUMP JUMPDEST DUP3 DUP5 MSTORE PUSH1 0x20 DUP1 DUP6 ADD SWAP4 PUSH1 0x5 SHL DUP3 ADD ADD SWAP2 DUP3 GT PUSH2 0x35F3 JUMPI PUSH1 0x20 ADD SWAP2 JUMPDEST DUP2 DUP4 LT PUSH2 0x4A59 JUMPI POP POP POP SWAP1 JUMP JUMPDEST DUP3 MLOAD PUSH1 0x1 PUSH1 0x1 PUSH1 0xA0 SHL SUB DUP2 AND DUP2 SUB PUSH2 0x35F3 JUMPI DUP2 MSTORE PUSH1 0x20 SWAP3 DUP4 ADD SWAP3 ADD PUSH2 0x4A4C JUMP JUMPDEST SWAP1 DUP1 PUSH1 0x1F DUP4 ADD SLT ISZERO PUSH2 0x35F3 JUMPI DUP2 MLOAD PUSH2 0x4A90 DUP2 PUSH2 0x36F4 JUMP JUMPDEST SWAP3 PUSH2 0x4A9E PUSH1 0x40 MLOAD SWAP5 DUP6 PUSH2 0x3629 JUMP JUMPDEST DUP2 DUP5 MSTORE PUSH1 0x20 DUP1 DUP6 ADD SWAP3 PUSH1 0x5 SHL DUP3 ADD ADD SWAP3 DUP4 GT PUSH2 0x35F3 JUMPI PUSH1 0x20 ADD SWAP1 JUMPDEST DUP3 DUP3 LT PUSH2 0x4AC6 JUMPI POP POP POP SWAP1 JUMP JUMPDEST DUP2 MLOAD DUP2 MSTORE PUSH1 0x20 SWAP2 DUP3 ADD SWAP2 ADD PUSH2 0x4AB9 JUMP JUMPDEST PUSH1 0x1B SLOAD PUSH1 0x0 SWAP1 PUSH1 0x1 PUSH1 0x1 PUSH1 0xA0 SHL SUB AND DUP1 ISZERO PUSH2 0x4D86 JUMPI PUSH1 0x40 MLOAD PUSH4 0xCAF64F7 PUSH1 0xE1 SHL DUP2 MSTORE SWAP1 DUP3 DUP3 PUSH1 0x4 DUP2 ADDRESS GAS STATICCALL DUP1 ISZERO PUSH2 0x330A JUMPI DUP4 SWAP1 DUP5 SWAP4 DUP6 SWAP2 PUSH2 0x4C6B JUMPI JUMPDEST POP DUP2 MLOAD ISZERO PUSH2 0x4C64 JUMPI DUP5 SWAP2 PUSH2 0x4B6D PUSH2 0x4B49 SWAP3 PUSH2 0x4B5B PUSH1 0x40 MLOAD SWAP8 DUP9 SWAP6 DUP7 SWAP6 PUSH4 0xCDBF3D01 PUSH1 0xE0 SHL DUP8 MSTORE PUSH1 0x60 PUSH1 0x4 DUP9 ADD MSTORE PUSH1 0x64 DUP8 ADD SWAP1 PUSH2 0x37D6 JUMP JUMPDEST DUP6 DUP2 SUB PUSH1 0x3 NOT ADD PUSH1 0x24 DUP8 ADD MSTORE SWAP1 PUSH2 0x385B JUMP JUMPDEST DUP4 DUP2 SUB PUSH1 0x3 NOT ADD PUSH1 0x44 DUP6 ADD MSTORE SWAP1 PUSH2 0x38B4 JUMP JUMPDEST SUB DUP2 DUP5 GAS STATICCALL SWAP2 DUP3 ISZERO PUSH2 0x330A JUMPI DUP4 SWAP1 DUP5 SWAP4 PUSH2 0x4BFF JUMPI JUMPDEST POP DUP1 MLOAD PUSH2 0x4B90 JUMPI JUMPDEST POP POP POP POP JUMP JUMPDEST DUP2 EXTCODESIZE ISZERO PUSH2 0x7E6 JUMPI SWAP2 DUP4 SWAP2 PUSH2 0x4BC7 DUP4 PUSH2 0x4BD9 SWAP6 PUSH1 0x40 MLOAD SWAP7 DUP8 SWAP6 DUP7 SWAP5 DUP6 SWAP4 PUSH4 0x1D70957F PUSH1 0xE2 SHL DUP6 MSTORE PUSH1 0x40 PUSH1 0x4 DUP7 ADD MSTORE PUSH1 0x44 DUP6 ADD SWAP1 PUSH2 0x37D6 JUMP JUMPDEST DUP4 DUP2 SUB PUSH1 0x3 NOT ADD PUSH1 0x24 DUP6 ADD MSTORE SWAP1 PUSH2 0x38B4 JUMP JUMPDEST SUB SWAP3 GAS CALL DUP1 ISZERO PUSH2 0x7DB JUMPI PUSH2 0x4BEF JUMPI JUMPDEST DUP1 DUP1 PUSH2 0x4B8A JUMP JUMPDEST DUP2 PUSH2 0x4BF9 SWAP2 PUSH2 0x3629 JUMP JUMPDEST CODESIZE PUSH2 0x4BE8 JUMP JUMPDEST SWAP3 POP POP RETURNDATASIZE DUP1 DUP5 DUP5 RETURNDATACOPY PUSH2 0x4C11 DUP2 DUP5 PUSH2 0x3629 JUMP JUMPDEST DUP3 ADD PUSH1 0x40 DUP4 DUP3 SUB SLT PUSH2 0x7E6 JUMPI DUP3 MLOAD PUSH1 0x1 PUSH1 0x1 PUSH1 0x40 SHL SUB DUP2 GT PUSH2 0x23F0 JUMPI DUP2 PUSH2 0x4C39 SWAP2 DUP6 ADD PUSH2 0x4A0B JUMP JUMPDEST PUSH1 0x20 DUP5 ADD MLOAD SWAP1 SWAP4 PUSH1 0x1 PUSH1 0x1 PUSH1 0x40 SHL SUB DUP3 GT PUSH2 0x4C60 JUMPI PUSH2 0x4C59 SWAP3 SWAP2 ADD PUSH2 0x4A79 JUMP JUMPDEST SWAP2 CODESIZE PUSH2 0x4B82 JUMP JUMPDEST DUP6 DUP1 REVERT JUMPDEST POP POP POP POP POP JUMP JUMPDEST SWAP4 POP POP POP RETURNDATASIZE DUP1 DUP5 DUP5 RETURNDATACOPY PUSH2 0x4C7E DUP2 DUP5 PUSH2 0x3629 JUMP JUMPDEST DUP3 ADD PUSH1 0x80 DUP4 DUP3 SUB SLT PUSH2 0x7E6 JUMPI DUP3 MLOAD PUSH1 0x1 PUSH1 0x1 PUSH1 0x40 SHL SUB DUP2 GT PUSH2 0x23F0 JUMPI DUP2 PUSH2 0x4CA6 SWAP2 DUP6 ADD PUSH2 0x4A0B JUMP JUMPDEST PUSH1 0x20 DUP5 ADD MLOAD PUSH1 0x1 PUSH1 0x1 PUSH1 0x40 SHL SUB DUP2 GT PUSH2 0x4C60 JUMPI DUP5 ADD SWAP2 DUP1 PUSH1 0x1F DUP5 ADD SLT ISZERO PUSH2 0x4C60 JUMPI DUP3 MLOAD SWAP3 PUSH2 0x4CD3 DUP5 PUSH2 0x36F4 JUMP JUMPDEST SWAP4 PUSH2 0x4CE1 PUSH1 0x40 MLOAD SWAP6 DUP7 PUSH2 0x3629 JUMP JUMPDEST DUP1 DUP6 MSTORE PUSH1 0x20 DUP1 DUP7 ADD SWAP2 PUSH1 0x5 SHL DUP4 ADD ADD SWAP2 DUP4 DUP4 GT PUSH2 0x23E8 JUMPI PUSH1 0x20 DUP2 ADD SWAP2 JUMPDEST DUP4 DUP4 LT PUSH2 0x4D55 JUMPI POP POP POP POP PUSH1 0x40 DUP6 ADD MLOAD PUSH1 0x1 PUSH1 0x1 PUSH1 0x40 SHL SUB DUP2 GT PUSH2 0x4D51 JUMPI DUP2 PUSH2 0x4D28 SWAP2 DUP8 ADD PUSH2 0x4A79 JUMP JUMPDEST PUSH1 0x60 DUP7 ADD MLOAD SWAP1 SWAP6 PUSH1 0x1 PUSH1 0x1 PUSH1 0x40 SHL SUB DUP3 GT PUSH2 0x23EC JUMPI PUSH2 0x4D48 SWAP3 SWAP2 ADD PUSH2 0x4A79 JUMP JUMPDEST POP SWAP1 SWAP3 CODESIZE PUSH2 0x4B12 JUMP JUMPDEST DUP7 DUP1 REVERT JUMPDEST DUP3 MLOAD PUSH1 0x1 PUSH1 0x1 PUSH1 0x40 SHL SUB DUP2 GT PUSH2 0x4D82 JUMPI PUSH1 0x20 SWAP2 PUSH2 0x4D77 DUP8 DUP5 DUP1 SWAP5 DUP8 ADD ADD PUSH2 0x4393 JUMP JUMPDEST DUP2 MSTORE ADD SWAP3 ADD SWAP2 PUSH2 0x4CFE JUMP JUMPDEST DUP11 DUP1 REVERT JUMPDEST POP POP JUMP JUMPDEST PUSH1 0xFF PUSH1 0x0 SLOAD PUSH1 0xA0 SHR AND ISZERO PUSH2 0x4559 JUMPI PUSH1 0x15 SLOAD DUP1 ISZERO ISZERO SWAP1 DUP2 PUSH2 0x4E5F JUMPI JUMPDEST POP PUSH2 0x4E09 JUMPI PUSH1 0xFF PUSH1 0x1E SLOAD AND PUSH2 0x4DB6 JUMPI JUMP JUMPDEST PUSH1 0x1D SLOAD PUSH1 0x40 MLOAD SWAP1 PUSH1 0x60 DUP3 MSTORE PUSH1 0x23 PUSH1 0x60 DUP4 ADD MSTORE PUSH1 0x0 DUP1 MLOAD PUSH1 0x20 PUSH2 0x4FAA DUP4 CODECOPY DUP2 MLOAD SWAP2 MSTORE PUSH1 0x80 DUP4 ADD MSTORE PUSH3 0x626C65 PUSH1 0xE8 SHL PUSH1 0xA0 DUP4 ADD MSTORE PUSH1 0x20 DUP3 ADD MSTORE TIMESTAMP PUSH1 0x40 DUP3 ADD MSTORE PUSH1 0x0 DUP1 MLOAD PUSH1 0x20 PUSH2 0x4F8A DUP4 CODECOPY DUP2 MLOAD SWAP2 MSTORE PUSH1 0xC0 CALLER SWAP3 LOG2 JUMP JUMPDEST PUSH1 0x1D SLOAD PUSH1 0x40 MLOAD SWAP1 PUSH1 0x60 DUP3 MSTORE PUSH1 0x1A PUSH1 0x60 DUP4 ADD MSTORE PUSH26 0x13585E1A5B5D5B481A5D195C985D1A5BDB9CC81C995858DA1959 PUSH1 0x32 SHL PUSH1 0x80 DUP4 ADD MSTORE PUSH1 0x20 DUP3 ADD MSTORE TIMESTAMP PUSH1 0x40 DUP3 ADD MSTORE PUSH1 0x0 DUP1 MLOAD PUSH1 0x20 PUSH2 0x4F8A DUP4 CODECOPY DUP2 MLOAD SWAP2 MSTORE PUSH1 0xA0 CALLER SWAP3 LOG2 JUMP JUMPDEST SWAP1 POP PUSH1 0x1D SLOAD LT ISZERO CODESIZE PUSH2 0x4DA5 JUMP JUMPDEST SWAP1 PUSH2 0x4EFD PUSH1 0x0 DUP1 MLOAD PUSH1 0x20 PUSH2 0x508A DUP4 CODECOPY DUP2 MLOAD SWAP2 MSTORE SWAP2 PUSH2 0x4EB1 PUSH1 0x1 DUP1 PUSH1 0xA0 SHL SUB DUP6 AND SWAP5 DUP6 PUSH1 0x0 MSTORE PUSH1 0x10 PUSH1 0x20 MSTORE PUSH2 0x4EA7 PUSH2 0x440 PUSH1 0x40 PUSH1 0x0 KECCAK256 SLOAD PUSH2 0x39FF JUMP JUMPDEST PUSH2 0x3574 PUSH1 0x1 PUSH2 0x3F38 JUMP JUMPDEST DUP4 PUSH1 0x0 MSTORE PUSH1 0x10 PUSH1 0x20 MSTORE PUSH2 0x4EC8 DUP2 PUSH1 0x40 PUSH1 0x0 KECCAK256 PUSH2 0x41CB JUMP JUMPDEST DUP4 PUSH1 0x0 MSTORE PUSH1 0x11 PUSH1 0x20 MSTORE PUSH1 0x1 PUSH1 0x40 PUSH1 0x0 KECCAK256 SSTORE DUP4 PUSH1 0x0 MSTORE PUSH1 0x12 PUSH1 0x20 MSTORE TIMESTAMP PUSH1 0x40 PUSH1 0x0 KECCAK256 SSTORE PUSH1 0x40 MLOAD SWAP2 DUP3 SWAP2 PUSH1 0x40 DUP4 MSTORE PUSH1 0x40 DUP4 ADD SWAP1 PUSH2 0x3836 JUMP JUMPDEST PUSH1 0x1 PUSH1 0x20 DUP4 ADD MSTORE SUB SWAP1 LOG2 JUMP INVALID 0xC2 JUMPI GAS 0xE SWAP15 MSIZE EXTCODECOPY STOP 0xF9 MSIZE 0xF8 0xC9 0x2F SLT 0xDB 0x28 PUSH10 0xC3395A3B0502D05E2516 PREVRANDAO PUSH16 0x71F85B9B196ABB2588ECCEFB36F3E6C9 0xB1 TSTORE SWAP15 0x26 0xC PUSH4 0x3D5B2E0B DUP16 BLOBHASH PUSH31 0x6E71C6C1C1EAA66CC928B5EDB82AF9BD49922954155AB7B0942694BEA4CE44 PUSH7 0x1D9A8736C68866 0xDE DUP16 REVERT 0xA7 SWAP8 0xE3 0xDE SWAP13 SDIV 0xE8 0xFC JUMPI 0xB3 0xBF 0xE 0xC2 DUP11 SWAP4 0xD BLOCKHASH 0xB0 0xD2 DUP6 0xD9 EXTCODECOPY MOD POP SHR 0xF6 LOG0 SWAP1 0xAE 0xE3 0xAB DUP10 LOG3 EXTCODECOPY BLOBBASEFEE PUSH16 0x38AA24238AED506E7F6DB5E298E1F32A 0xE 0xDE PUSH19 0xDBE23112C44E6F206D6F726520756E6C616265 PUSH13 0x65642073616D706C6573206176 PUSH2 0x696C PUSH2 0xF3F7 0xA9 INVALID CALLDATASIZE 0x4F 0xAA 0xB9 EXTCODESIZE 0x21 PUSH14 0xA50A3214154F22A0A2B415B23A84 0xC8 AND SWAP15 DUP12 PUSH4 0x6EE39AA9 CALLVALUE 0xE5 0xA9 DUP14 SLT 0xB6 0xD 0xAB 0xEC 0xF CALLVALUE PUSH5 0x7F2B63B8FD 0x25 PUSH28 0xA6480E7DED4CC1EF24C573F652222313E28459528D920B65115C16C0 0x4F RETURNDATACOPY 0xFC DUP3 0xAA 0xED 0xC9 PUSH28 0xE59F3F377C0D3F8A35ACFBC15FF81A39AE7D344FD709F28E8600B4AA DUP13 PUSH6 0xC6B64BFE7FE3 PUSH12 0xD19BC624B66CC0138B8FABC2 MULMOD 0x24 PUSH32 0x72D758E1CF3343756D543BADBF24212BED8C15CE6D7B5282BD9A3661AE061FEE 0xD1 0xDB 0xDA 0x4E MSTORE 0xAB SMOD EXTCODESIZE 0x1F SWAP3 DUP6 0xBE PUSH15 0x155D9C38D4ECBCEEE304AC8D461CB6 GAS 0xC9 0xF6 0xDC CALLDATACOPY 0xBB 0xCB 0x2C 0x2C CALLVALUE 0xC1 SSTORE 0x22 0x4F 0xFB REVERT 0xC4 PUSH22 0x2B89008F73944998273E477B495144FB8794C914197F EXTCODECOPY 0xCB CHAINID 0xBE 0x29 STOP DELEGATECALL PUSH10 0x8FD0EF743C9695A26469 PUSH17 0x667358221220F52F3F99F1E8A52230201B RETURNDATASIZE CREATE REVERT TSTORE AND EXTCODEHASH EQ EXTCODECOPY 0xBE 0xCA PUSH16 0x694425CB90C6B671AEF064736F6C6343 STOP ADDMOD SHR STOP CALLER "},"methodIdentifiers":{"acceptInvitation()":"728f1112","addParticipant(address)":"dfafe10f","addParticipantWithRole(address,string,uint256)":"040023d6","alScenario()":"7f52cadc","approveJoinRequest(address)":"dfb748aa","createdAt()":"cf09e0d0","creator()":"02d05d3f","currentRound()":"8a19c8bc","deactivateProject()":"bbffd04c","description()":"7284e416","endBatchVoting(uint256)":"b8c39034","endTime()":"3197cbb6","getALConfiguration()":"80a8c849","getALProjectMetadata()":"72a1c45d","getAllParticipants()":"195ec9ee","getCreator()":"0ee2cb10","getCurrentBatchSampleIds()":"d2291e11","getFinalROCrateHash()":"e807c0b2","getInvitation(address)":"2b17b8be","getIsActive()":"fba7cc79","getJoinRequest(address)":"383e1a5e","getParticipantRole(address)":"5cf5a058","getProjectData()":"55b31b55","getProjectMetadata()":"1af9fd17","getProjectStatus()":"e7aa3afc","getTimestamps()":"59abbfe4","hasALContracts()":"c3a4b41a","incrementRound()":"e1d5a2c8","invitations(address)":"58f43f76","invitees(uint256)":"b70825dc","isActive()":"22f3e2d4","isSampleActive(string)":"e0308323","joinRequests(address)":"ef213106","joinedAt(address)":"ab34c9e9","labelSpace(uint256)":"6ac4e50e","lastModified()":"f7267cfd","maxIteration()":"b0942ce5","needsALDeployment()":"7a83a44b","notifyUnlabeledSamplesExhausted()":"19b21227","notifyVotingSessionEnded(string,string)":"29f5e65a","notifyVotingSessionStarted(string)":"b2be4d65","participantRoles(address)":"c2e4fe5a","participantWeights(address)":"d64c58a7","participants(uint256)":"35c1d349","projectData()":"9c0768b3","projectType()":"c2fc0d26","queryBatchSize()":"77c39c21","queryStrategy()":"a0740184","reactivateProject()":"c3feda17","receiveFinalLabelFromVoting(string,string)":"b0611068","rejectInvitation()":"32c6afd0","rejectJoinRequest(address)":"b5686479","requesters(uint256)":"5e1a6c17","rocrateHash()":"43862d23","rocrateHashFinal()":"c47d1724","sendInvitation(address,string)":"f75eade0","setFinalROCrateHash(string)":"84958fc3","setProjectMetadata(string,string,string,string)":"211a85e6","setStartAndEndTime(uint256,uint256)":"79ec4f19","setupALProject(address,address,string,string,uint256,uint256,string[],string)":"5bb06c0b","shouldProjectEnd()":"7c13f6cf","startBatchVoting(string[],string[])":"eed016be","startTime()":"78e97925","storageContract()":"11ce0267","storeFinalLabel(string,string,uint256)":"a6ea915b","submitBatchVote(string[],string[])":"1633e062","submitJoinRequest(string)":"7847f1de","title()":"4a79d50c","triggerNextRound(string)":"461e198b","unlabeledSamplesExhausted()":"6c86d124","updateParticipant(address,string,uint256)":"b9be92f9","updateProjectData(string)":"10218f4d","updateProjectDataAfterAcceptance(string)":"c6765d28","updateROCrateHash(string)":"c4b192f7","votingContract()":"c1fc006a","votingTimeout()":"f1bc33b4"}}}}}