{"contracts/ALProject.sol":{"ALProject":{"abi":[{"inputs":[{"internalType":"address","name":"_baseProject","type":"address"},{"internalType":"string","name":"_projectData","type":"string"}],"stateMutability":"nonpayable","type":"constructor"},{"anonymous":false,"inputs":[{"indexed":false,"internalType":"uint256","name":"round","type":"uint256"},{"indexed":false,"internalType":"uint256","name":"completedSamples","type":"uint256"},{"indexed":false,"internalType":"uint256","name":"timestamp","type":"uint256"}],"name":"ALBatchCompleted","type":"event"},{"anonymous":false,"inputs":[{"indexed":false,"internalType":"uint256","name":"round","type":"uint256"},{"indexed":false,"internalType":"uint256","name":"sampleCount","type":"uint256"},{"indexed":false,"internalType":"uint256","name":"timestamp","type":"uint256"}],"name":"ALBatchStarted","type":"event"},{"anonymous":false,"inputs":[{"indexed":false,"internalType":"address","name":"votingContract","type":"address"},{"indexed":false,"internalType":"address","name":"storageContract","type":"address"}],"name":"ALContractsDeployed","type":"event"},{"anonymous":false,"inputs":[{"indexed":false,"internalType":"uint256","name":"round","type":"uint256"},{"indexed":false,"internalType":"string","name":"reason","type":"string"},{"indexed":false,"internalType":"uint256","name":"timestamp","type":"uint256"}],"name":"ALRoundTriggered","type":"event"},{"anonymous":false,"inputs":[{"indexed":false,"internalType":"string","name":"sampleId","type":"string"},{"indexed":false,"internalType":"string","name":"label","type":"string"},{"indexed":false,"internalType":"uint256","name":"round","type":"uint256"},{"indexed":false,"internalType":"uint256","name":"timestamp","type":"uint256"}],"name":"AutoLabelStored","type":"event"},{"anonymous":false,"inputs":[{"indexed":true,"internalType":"address","name":"trigger","type":"address"},{"indexed":false,"internalType":"string","name":"reason","type":"string"},{"indexed":false,"internalType":"uint256","name":"currentRound","type":"uint256"},{"indexed":false,"internalType":"uint256","name":"timestamp","type":"uint256"}],"name":"ProjectEndTriggered","type":"event"},{"anonymous":false,"inputs":[{"indexed":false,"internalType":"uint256","name":"newRound","type":"uint256"}],"name":"RoundIncremented","type":"event"},{"anonymous":false,"inputs":[{"indexed":false,"internalType":"string","name":"sampleId","type":"string"},{"indexed":false,"internalType":"address","name":"voter","type":"address"},{"indexed":false,"internalType":"string","name":"label","type":"string"},{"indexed":false,"internalType":"uint256","name":"timestamp","type":"uint256"}],"name":"VoteSubmitted","type":"event"},{"anonymous":false,"inputs":[{"indexed":false,"internalType":"uint256","name":"round","type":"uint256"},{"indexed":false,"internalType":"uint256","name":"voterCount","type":"uint256"},{"indexed":false,"internalType":"uint256","name":"timestamp","type":"uint256"}],"name":"VotersUpdated","type":"event"},{"anonymous":false,"inputs":[{"indexed":false,"internalType":"string","name":"sampleId","type":"string"},{"indexed":false,"internalType":"string","name":"finalLabel","type":"string"},{"indexed":false,"internalType":"uint256","name":"round","type":"uint256"},{"indexed":false,"internalType":"uint256","name":"timestamp","type":"uint256"}],"name":"VotingSessionEnded","type":"event"},{"anonymous":false,"inputs":[{"indexed":false,"internalType":"string","name":"sampleId","type":"string"},{"indexed":false,"internalType":"uint256","name":"round","type":"uint256"},{"indexed":false,"internalType":"uint256","name":"timeout","type":"uint256"},{"indexed":false,"internalType":"uint256","name":"timestamp","type":"uint256"}],"name":"VotingSessionStarted","type":"event"},{"inputs":[],"name":"alScenario","outputs":[{"internalType":"string","name":"","type":"string"}],"stateMutability":"view","type":"function"},{"inputs":[],"name":"baseProject","outputs":[{"internalType":"address","name":"","type":"address"}],"stateMutability":"view","type":"function"},{"inputs":[],"name":"currentRound","outputs":[{"internalType":"uint256","name":"","type":"uint256"}],"stateMutability":"view","type":"function"},{"inputs":[{"internalType":"uint256","name":"round","type":"uint256"}],"name":"endBatchVoting","outputs":[],"stateMutability":"nonpayable","type":"function"},{"inputs":[],"name":"finalTraining","outputs":[{"internalType":"bool","name":"","type":"bool"}],"stateMutability":"view","type":"function"},{"inputs":[],"name":"getALConfiguration","outputs":[{"internalType":"string","name":"_queryStrategy","type":"string"},{"internalType":"string","name":"_alScenario","type":"string"},{"internalType":"uint256","name":"_maxIteration","type":"uint256"},{"internalType":"uint256","name":"_currentRound","type":"uint256"},{"internalType":"uint256","name":"_queryBatchSize","type":"uint256"},{"internalType":"uint256","name":"_votingTimeout","type":"uint256"},{"internalType":"string[]","name":"_labelSpace","type":"string[]"}],"stateMutability":"view","type":"function"},{"inputs":[],"name":"getALProjectMetadata","outputs":[{"internalType":"string","name":"_title","type":"string"},{"internalType":"string","name":"_description","type":"string"},{"internalType":"address","name":"_owner","type":"address"},{"internalType":"string","name":"_projectType","type":"string"},{"internalType":"string","name":"_rocrateHash","type":"string"},{"internalType":"uint256","name":"_start","type":"uint256"},{"internalType":"uint256","name":"_end","type":"uint256"},{"internalType":"string","name":"_queryStrategy","type":"string"},{"internalType":"string","name":"_alScenario","type":"string"},{"internalType":"uint256","name":"_maxIteration","type":"uint256"},{"internalType":"uint256","name":"_queryBatchSize","type":"uint256"},{"internalType":"string[]","name":"_labelSpace","type":"string[]"}],"stateMutability":"view","type":"function"},{"inputs":[],"name":"getCurrentBatchSampleIds","outputs":[{"internalType":"string[]","name":"","type":"string[]"}],"stateMutability":"view","type":"function"},{"inputs":[],"name":"hasALContracts","outputs":[{"internalType":"bool","name":"","type":"bool"}],"stateMutability":"view","type":"function"},{"inputs":[],"name":"incrementRound","outputs":[],"stateMutability":"nonpayable","type":"function"},{"inputs":[{"internalType":"string","name":"sampleId","type":"string"}],"name":"isSampleActive","outputs":[{"internalType":"bool","name":"","type":"bool"}],"stateMutability":"view","type":"function"},{"inputs":[{"internalType":"uint256","name":"","type":"uint256"}],"name":"labelSpace","outputs":[{"internalType":"string","name":"","type":"string"}],"stateMutability":"view","type":"function"},{"inputs":[],"name":"markFinalTrainingCompleted","outputs":[],"stateMutability":"nonpayable","type":"function"},{"inputs":[],"name":"maxIteration","outputs":[{"internalType":"uint256","name":"","type":"uint256"}],"stateMutability":"view","type":"function"},{"inputs":[],"name":"needsALDeployment","outputs":[{"internalType":"bool","name":"","type":"bool"}],"stateMutability":"view","type":"function"},{"inputs":[],"name":"notifyUnlabeledSamplesExhausted","outputs":[],"stateMutability":"nonpayable","type":"function"},{"inputs":[{"internalType":"string","name":"sampleId","type":"string"},{"internalType":"string","name":"finalLabel","type":"string"}],"name":"notifyVotingSessionEnded","outputs":[],"stateMutability":"nonpayable","type":"function"},{"inputs":[{"internalType":"string","name":"sampleId","type":"string"}],"name":"notifyVotingSessionStarted","outputs":[],"stateMutability":"nonpayable","type":"function"},{"inputs":[],"name":"queryBatchSize","outputs":[{"internalType":"uint256","name":"","type":"uint256"}],"stateMutability":"view","type":"function"},{"inputs":[],"name":"queryStrategy","outputs":[{"internalType":"string","name":"","type":"string"}],"stateMutability":"view","type":"function"},{"inputs":[{"internalType":"string","name":"sampleId","type":"string"},{"internalType":"string","name":"label","type":"string"}],"name":"receiveFinalLabelFromVoting","outputs":[],"stateMutability":"nonpayable","type":"function"},{"inputs":[{"internalType":"address","name":"_votingContract","type":"address"},{"internalType":"address","name":"_storageContract","type":"address"},{"internalType":"string","name":"_queryStrategy","type":"string"},{"internalType":"string","name":"_alScenario","type":"string"},{"internalType":"uint256","name":"_maxIteration","type":"uint256"},{"internalType":"uint256","name":"_queryBatchSize","type":"uint256"},{"internalType":"string[]","name":"_labelSpace","type":"string[]"},{"internalType":"string","name":"_rocrateHash","type":"string"}],"name":"setupALProject","outputs":[],"stateMutability":"nonpayable","type":"function"},{"inputs":[],"name":"shouldProjectEnd","outputs":[{"internalType":"bool","name":"shouldEnd","type":"bool"},{"internalType":"string","name":"reason","type":"string"}],"stateMutability":"view","type":"function"},{"inputs":[{"internalType":"string[]","name":"sampleIds","type":"string[]"},{"internalType":"string[]","name":"sampleDataHashes","type":"string[]"}],"name":"startBatchVoting","outputs":[],"stateMutability":"nonpayable","type":"function"},{"inputs":[],"name":"storageContract","outputs":[{"internalType":"address","name":"","type":"address"}],"stateMutability":"view","type":"function"},{"inputs":[{"internalType":"string","name":"sampleId","type":"string"},{"internalType":"string","name":"label","type":"string"},{"internalType":"uint256","name":"round","type":"uint256"}],"name":"storeFinalLabel","outputs":[],"stateMutability":"nonpayable","type":"function"},{"inputs":[{"internalType":"string[]","name":"sampleIds","type":"string[]"},{"internalType":"string[]","name":"labels","type":"string[]"}],"name":"submitBatchVote","outputs":[],"stateMutability":"nonpayable","type":"function"},{"inputs":[{"internalType":"string","name":"reason","type":"string"}],"name":"triggerNextRound","outputs":[],"stateMutability":"nonpayable","type":"function"},{"inputs":[],"name":"unlabeledSamplesExhausted","outputs":[{"internalType":"bool","name":"","type":"bool"}],"stateMutability":"view","type":"function"},{"inputs":[],"name":"votingContract","outputs":[{"internalType":"address","name":"","type":"address"}],"stateMutability":"view","type":"function"},{"inputs":[],"name":"votingTimeout","outputs":[{"internalType":"uint256","name":"","type":"uint256"}],"stateMutability":"view","type":"function"}],"evm":{"bytecode":{"linkReferences":{},"object":"6080604052346100eb576132c68038038061001981610106565b92833981016040828203126100eb5781516001600160a01b03811692908390036100eb576020810151906001600160401b0382116100eb57019080601f830112156100eb578151916001600160401b0383116100f057610082601f8401601f1916602001610106565b91838352602084830101116100eb5760005b8381106100d6576000838501602001819052610e10600655600c805461ffff1916905580546001600160a01b0319168617905560405161319a908161012c8239f35b80602080928401015182828601015201610094565b600080fd5b634e487b7160e01b600052604160045260246000fd5b6040519190601f01601f191682016001600160401b038111838210176100f05760405256fe608080604052600436101561001357600080fd5b600090813560e01c90816311ce0267146120a2575080631633e06214611bb957806319b2122714611ac657806329f5e65a14611883578063461e198b146116bc5780635bb06c0b146110915780636ac4e50e1461101a5780636c86d12414610ff757806372a1c45d14610de557806377c39c2114610dc75780637a83a44b14610da25780637c13f6cf14610d6a5780637f52cadc14610d4e57806380a8c84914610cc75780638a19c8bc14610ca9578063a074018414610c79578063a6ea915b14610b47578063b061106814610a7a578063b0942ce514610a5c578063b2be4d6514610859578063b8c3903414610716578063c1fc006a146106ed578063c3a4b41a146106a7578063cf3fc0b814610680578063d2291e11146105fc578063d5a977bd146105d6578063e030832314610574578063e1d5a2c8146104c4578063eed016be146102ea578063f1bc33b4146102cc5763f8c8fa021461017657600080fd5b346102c957806003193601126102c95780546040516302d05d3f60e01b815290602090829060049082906001600160a01b03165afa80156102be57829061027f575b6101cd91506001600160a01b03163314612642565b600c5460ff8160081c1661023b576101009061ff00191617600c556000805160206130a583398151915260a0600b54604051908152606060208201526018606082015277119a5b985b081d1c985a5b9a5b99c818dbdb5c1b195d195960421b6080820152426040820152a180f35b606460405162461bcd60e51b815260206004820152602060248201527f46696e616c20747261696e696e6720616c726561647920636f6d706c657465646044820152fd5b506020813d6020116102b6575b81610299602093836120c7565b810103126102b2576102ad6101cd9161262e565b6101b8565b5080fd5b3d915061028c565b6040513d84823e3d90fd5b80fd5b50346102c957806003193601126102c9576020600654604051908152f35b50346102c9576102f9366121fc565b82546040516302d05d3f60e01b815290602090829060049082906001600160a01b03165afa80156104b957849061047e575b61034091506001600160a01b03163314612642565b6009546001600160a01b03169061035882151561256d565b82511561044457600b5460018101809111610430579081859392600b5561037d612b24565b823b1561042c576103c99284928360405180968195829463579bdae360e11b8452606060048501526103b2606485018d612514565b916024850152600319848303016044850152612514565b03925af180156102be57610417575b507f24c323b0138f1f608c855cccb8550ac649c15bf3cea39b8fdbde80d33258a74f82600b5490516104116040519283924291846126fe565b0390a180f35b81610421916120c7565b6102b25781386103d8565b8380fd5b634e487b7160e01b85526011600452602485fd5b60405162461bcd60e51b815260206004820152601260248201527108adae0e8f240e6c2dae0d8ca40c4c2e8c6d60731b6044820152606490fd5b506020813d6020116104b1575b81610498602093836120c7565b8101031261042c576104ac6103409161262e565b61032b565b3d915061048b565b6040513d86823e3d90fd5b50346102c957806003193601126102c9576009546001600160a01b0316330361054157806040516104f66020826120c7565b52600b546001810180911161052d5760208160008051602061312583398151915292600b55604051908152a161052a612b24565b80f35b634e487b7160e01b82526011600452602482fd5b60405162461bcd60e51b815260206004820152600b60248201526a4f6e6c7920766f74696e6760a81b6044820152606490fd5b50346102c95760203660031901126102c957600435906001600160401b0382116102c957602060ff6105c0826105ad3660048801612132565b81604051938285809451938492016124cc565b8101600881520301902054166040519015158152f35b50346102c957806003193601126102c957602060ff600c5460081c166040519015158152f35b50346102c957806003193601126102c95760075461061981612100565b9161062760405193846120c7565b818352600781526000805160206130c5833981519152602084015b838310610663576040516020808252819061065f90820188612514565b0390f35b6001602081926106728561242a565b815201920192019190610642565b50346102c957806003193601126102c957546040516001600160a01b039091168152602090f35b50346102c957806003193601126102c9576009546001600160a01b03161515806106d9575b6020906040519015158152f35b50600a546001600160a01b031615156106cc565b50346102c957806003193601126102c9576009546040516001600160a01b039091168152602090f35b50346102c95760203660031901126102c95780546040516302d05d3f60e01b81526004803592602091839182906001600160a01b03165afa801561084e57839061080f575b61077091506001600160a01b03163314612642565b6009546001600160a01b031661078781151561256d565b600b5482036107da578291813b156107d6578291602483926040519485938492632e30e40d60e21b845260048401525af180156102be576107c55750f35b816107cf916120c7565b6102c95780f35b5050fd5b60405162461bcd60e51b815260206004820152600d60248201526c125b9d985b1a59081c9bdd5b99609a1b6044820152606490fd5b506020813d602011610846575b81610829602093836120c7565b810103126108425761083d6107709161262e565b61075b565b8280fd5b3d915061081c565b6040513d85823e3d90fd5b50346102c95760203660031901126102c9576004356001600160401b0381116102b25761088a903690600401612132565b61089f60018060a01b0360095416331461267d565b604051815190602081818501936108b78183876124cc565b81016008815203019020600160ff19825416179055828391600754925b838110610995575b505015610929575b5061091260008051602061308583398151915291600b546006546040519384936080855260808501906124ef565b91602084015260408301524260608301520390a180f35b600160401b811015610981578060016109459201600755612293565b61096d578161096660008051602061308583398151915293610912936127a0565b91506108e4565b634e487b7160e01b83526004839052602483fd5b634e487b7160e01b83526041600452602483fd5b61099e81612293565b5060405181549181896109b0856122c4565b928383526020830195600181169081600014610a3d57506001146109fc575b506109dc925003826120c7565b51902085518320146109f0576001016108d4565b505050600138806108dc565b8b52505060208920899183915b818410610a2157505060206109dc92820101386109cf565b6020919250806001915483868801015201920191908391610a09565b60ff19168752506109dc93151560051b830160200191503890506109cf565b50346102c957806003193601126102c9576020600354604051908152f35b50346102c957610a8936612249565b90610a9f60018060a01b0360095416331461267d565b600a5483906001600160a01b0316610ab8811515612aaf565b600b5490803b156108425760405163a6ea915b60e01b81529183918391829084908290610aea908b8b60048501612af6565b03925af180156102be57610b32575b50507f503607074d0e95d8c0c6b1660c3441384010e05305da22aef0594eb3fcae623691610411600b54926040519384934292856126c9565b81610b3c916120c7565b610842578238610af9565b50346102c95760603660031901126102c957806004356001600160401b038111610c7657610b79903690600401612132565b6024356001600160401b0381116107d657610b98903690600401612132565b82546040516302d05d3f60e01b815290602090829060049082906001600160a01b03165afa80156104b9578490610c3b575b610bdf91506001600160a01b03163314612642565b600a546001600160a01b031691610bf7831515612aaf565b823b15610c3657610c259284928360405180968195829463a6ea915b60e01b84526044359160048501612af6565b03925af180156102be576107c55750f35b505050fd5b506020813d602011610c6e575b81610c55602093836120c7565b81010312610c3657610c69610bdf9161262e565b610bca565b3d9150610c48565b50fd5b50346102c957806003193601126102c95761065f610c956123a5565b6040519182916020835260208301906124ef565b50346102c957806003193601126102c9576020600b54604051908152f35b50346102c957806003193601126102c957610d1e60035461065f600b549160045492600654610cf46123a5565b94610cfd6122fe565b92610d2c610d09612882565b94604051998a9960e08b5260e08b01906124ef565b9089820360208b01526124ef565b9460408801526060870152608086015260a085015283820360c0850152612514565b50346102c957806003193601126102c95761065f610c956122fe565b50346102c957806003193601126102c957610d83612944565b9061065f604051928392151583526040602084015260408301906124ef565b50346102c957806003193601126102c9576020610dbd6128e5565b6040519015158152f35b50346102c957806003193601126102c9576020600454604051908152f35b50346102c957806003193601126102c95780546040516302d05d3f60e01b815290602090829060049082906001600160a01b03165afa9081156102be578291610fbd575b50600354916004549260209360405193610e4386866120c7565b83855260405193610e5487866120c7565b80855260405190610e6588836120c7565b808252604051610e7589826120c7565b8181526040519283838b600154610e8b816122c4565b8085529060018116908115610fa35750600114610f6c575b505003610eb090856120c7565b610eb86122fe565b94610ec1612882565b986040519b8c9b6101808d526101808d01610edb916124ef565b908c8203908d0152610eec916124ef565b6001600160a01b0390911660408b015289810360608b0152610f0d916124ef565b88810360808a0152610f1e916124ef565b908060a089015260c088015286810360e0880152610f3b916124ef565b858103610100870152610f4d916124ef565b9161012085015261014084015282810361016084015261065f91612514565b6001875281872091925086915b818310610f8c5750508201018b38610ea3565b805489840185015288945091830191600101610f79565b60ff19168584015250151560051b83010190508b38610ea3565b90506020813d602011610fef575b81610fd8602093836120c7565b810103126102b257610fe99061262e565b38610e29565b3d9150610fcb565b50346102c957806003193601126102c957602060ff600c54166040519015158152f35b50346102c95760203660031901126102c9576004356005548110156102b25760055481101561107d57600582526000805160206130458339815191520190806110695761065f610c958361242a565b634e487b7160e01b81526004819052602490fd5b634e487b7160e01b82526032600452602482fd5b50346102c9576101003660031901126102c9576004356001600160a01b038116908190036102b2576024356001600160a01b03811690819003610842576044356001600160401b03811161042c576110ed903690600401612132565b6064356001600160401b0381116116b85761110c903690600401612132565b60a435906084359060c4356001600160401b0381116116b45761113390369060040161217e565b9360e4356001600160401b0381116116b057611153903690600401612132565b506009546001600160a01b0381161580158161169c575b6115cc575b881515806115c3575b156115815761118690612756565b600a5461119c6001600160a01b03821615612756565b841561154457851561150a576001600160a01b03199182168917600955168617600a556111c7612d85565b8051906001600160401b0382116114f6576111e36001546122c4565b601f81116114ba575b50602090601f83116001146114555761120f92918a918361138a575b505061272b565b6001555b8051906001600160401b0382116114415761122f6002546122c4565b601f81116113fa575b50602090601f83116001146113955761125a929189918361138a57505061272b565b6002555b600355600455805190600160401b821161137657600554826005558083106112f4575b50600585528490600080516020613045833981519152906020015b8383106112d757867fb009e24dd5f140ab58abb9e6f2187d998561150b7da958ebad23a90e26d7366b6040888882519182526020820152a180f35b60016020826112e8839451866127a0565b0192019201919061129c565b600586526000805160206130458339815191529081019083015b81811061131b5750611281565b80611328600192546122c4565b80611335575b500161130e565b601f8111831461134a57508781555b3861132e565b8189526020892061136591601f0160051c8101908401612714565b808852876020812081835555611344565b634e487b7160e01b85526041600452602485fd5b015190503880611208565b600289528189209190601f1984168a5b8181106113e257509084600195949392106113c9575b505050811b0160025561125e565b015160001960f88460031b161c191690553880806113bb565b929360206001819287860151815501950193016113a5565b6002895261143190600080516020613065833981519152601f850160051c81019160208610611437575b601f0160051c0190612714565b38611238565b9091508190611424565b634e487b7160e01b88526041600452602488fd5b60018a52818a209190601f1984168b5b8181106114a25750908460019594939210611489575b505050811b01600155611213565b015160001960f88460031b161c1916905538808061147b565b92936020600181928786015181550195019301611465565b60018a526114f090600080516020613145833981519152601f850160051c8101916020861061143757601f0160051c0190612714565b386111ec565b634e487b7160e01b89526041600452602489fd5b60405162461bcd60e51b8152602060048201526012602482015271496e76616c69642062617463682073697a6560701b6044820152606490fd5b60405162461bcd60e51b815260206004820152601560248201527424b73b30b634b21036b0bc1034ba32b930ba34b7b760591b6044820152606490fd5b60405162461bcd60e51b815260206004820152601a602482015279496e76616c696420636f6e74726163742061646472657373657360301b6044820152606490fd5b50871515611178565b89546040516302d05d3f60e01b815290602090829060049082906001600160a01b03165afa908115611691578b91611653575b506001600160a01b0316331461116f57606460405162461bcd60e51b815260206004820152602060248201527f4f6e6c792063726561746f7220616674657220696e697469616c2073657475706044820152fd5b90506020813d602011611689575b8161166e602093836120c7565b810103126116855761167f9061262e565b386115ff565b8a80fd5b3d9150611661565b6040513d8d823e3d90fd5b50600a546001600160a01b0316151561116a565b8880fd5b8780fd5b8480fd5b50346102c95760203660031901126102c9576004356001600160401b0381116102b2576116ed903690600401612132565b81546040516302d05d3f60e01b81526001600160a01b0390911690602081600481855afa9081156104b957849161183e575b5060049160209161173a906001600160a01b03163314612642565b6040516308bcf8b560e21b815292839182905afa90811561084e57839161180f575b50156117df57600b5490600182018092116117cb57816000805160206130a58339815191526117b360209360008051602061312583398151915295600b5560405191829185835260608784015260608301906124ef565b4260408301520390a1604051908152a161052a612b24565b634e487b7160e01b83526011600452602483fd5b60405162461bcd60e51b8152602060048201526008602482015267496e61637469766560c01b6044820152606490fd5b611831915060203d602011611837575b61182981836120c7565b81019061273e565b3861175c565b503d61181f565b90506020813d60201161187b575b81611859602093836120c7565b8101031261042c5760049161173a61187260209361262e565b9250509161171f565b3d915061184c565b50346102c9576119067f0a1e2f362ccc64de291011914f5087c611557a7331c80f2cdd2aacf89b9dc5646118b636612249565b6118cb60018060a01b0360095416331461267d565b60405160208184516118e081838589016124cc565b8101600881520301902060ff198154169055600b549384926040519384934292856126c9565b0390a1600190829183600754905b8181106119fc5750816119f2575b5061192b578280f35b7f72db402a1d505e0ee50fba411e34bd1f9a6e90ab67b824c438255e747a886b289161195e6040519283924291846126fe565b0390a1600754816007558061197257808280f35b600782526000805160206130c5833981519152908101905b8181106119975750808280f35b806119a4600192546122c4565b806119b1575b500161198a565b601f811183146119c657508381555b386119aa565b818552602085206119e191601f0160051c8101908401612714565b8084528360208120818355556119c0565b9050151538611922565b91611a0683612293565b50604051908790805490611a19826122c4565b9160018116908115611aae5750600114611a7b575b50506008815281900360200190205460ff1615611a515750600185925b01611914565b91936000198114611a6757600180910194611a4b565b634e487b7160e01b86526011600452602486fd5b90915088526020882088905b828210611a9a5750508101602082611a2e565b600181602092548487015201910190611a87565b60ff1916855250508015150282019050602082611a2e565b50346102c957806003193601126102c95780546040516302d05d3f60e01b815290602090829060049082906001600160a01b03165afa80156102be578290611b7e575b611b1e91506001600160a01b03163314612642565b600c5460ff8116611b3b5760ff1916600117600c5561052a612b24565b60405162461bcd60e51b815260206004820152601b60248201527a105b1c9958591e481b585c9ad95908185cc8195e1a185d5cdd1959602a1b6044820152606490fd5b506020813d602011611bb1575b81611b98602093836120c7565b810103126102b257611bac611b1e9161262e565b611b09565b3d9150611b8b565b50346102c957611bc8366121fc565b600954909190611be2906001600160a01b0316151561256d565b80518251036120695780511561203657825b8151811015611d0b5760ff611c226020611c0e84866125b3565b5181604051938285809451938492016124cc565b81016008815203019020541615611cc757611c3d81836125b3565b515115611c9057611c4e81846125b3565b515115611c5d57600101611bf4565b60405162461bcd60e51b815260206004820152600b60248201526a115b5c1d1e481b1858995b60aa1b6044820152606490fd5b60405162461bcd60e51b815260206004820152600f60248201526e115b5c1d1e481cd85b5c1b19481251608a1b6044820152606490fd5b60405162461bcd60e51b815260206004820152601c60248201527b53616d706c65206e6f742061637469766520666f7220766f74696e6760201b6044820152606490fd5b508254604051630b9eb40b60e31b815233600482015291929184916001600160a01b0316908281602481855afa90811561084e57839161201c575b505115611fa9575b508054604051630b9eb40b60e31b81523360048201529190829060249082906001600160a01b03165afa9081156104b9578491611f87575b505115611f46576009546040516320a7c73b60e11b81523360048201526001600160a01b039091169290602081602481875afa908115611f3b578591611f09575b5015611eb457835b848251821015611e515750807f55b5b37db3e79e0cf5fa16c3b213f5856ebaf6a6e58c56813245533b65587bbd611e2e611e0b600194866125b3565b51611e42611e1985896125b3565b516040519384936080855260808501906124ef565b9033602085015283820360408501526124ef565b4260608301520390a101611dcf565b93929050823b15610c3657611e9d92611e8b85809460405196879586948593639a6e81ab60e01b8552606060048601526064850190612514565b83810360031901602485015290612514565b33604483015203925af180156102be576107c55750f35b60405162461bcd60e51b815260206004820152602760248201527f566f746572206e6f74207265676973746572656420696e20766f74696e6720636044820152661bdb9d1c9858dd60ca1b6064820152608490fd5b90506020813d602011611f33575b81611f24602093836120c7565b810103126116b8575138611dc7565b3d9150611f17565b6040513d87823e3d90fd5b60405162461bcd60e51b8152602060048201526019602482015278139bdd0818481c1c9bda9958dd081c185c9d1a58da5c185b9d603a1b6044820152606490fd5b611fa391503d8086833e611f9b81836120c7565b810190612609565b38611d86565b803b156102b257819060a46040518094819363020011eb60e11b835233600484015260606024840152600b60648401526a31b7b73a3934b13aba37b960a91b6084840152600160448401525af180156104b957612008575b8390611d4e565b83612015919492946120c7565b9138612001565b61203091503d8085833e611f9b81836120c7565b38611d46565b60405162461bcd60e51b815260206004820152600b60248201526a08adae0e8f240c4c2e8c6d60ab1b6044820152606490fd5b60405162461bcd60e51b81526020600482015260116024820152704d69736d6174636865642061727261797360781b6044820152606490fd5b9050346102b257816003193601126102b257600a546001600160a01b03168152602090f35b601f909101601f19168101906001600160401b038211908210176120ea57604052565b634e487b7160e01b600052604160045260246000fd5b6001600160401b0381116120ea5760051b60200190565b6001600160401b0381116120ea57601f01601f191660200190565b81601f820112156121795780359061214982612117565b9261215760405194856120c7565b8284526020838301011161217957816000926020809301838601378301015290565b600080fd5b9080601f8301121561217957813561219581612100565b926121a360405194856120c7565b81845260208085019260051b820101918383116121795760208201905b8382106121cf57505050505090565b81356001600160401b038111612179576020916121f187848094880101612132565b8152019101906121c0565b906040600319830112612179576004356001600160401b03811161217957826122279160040161217e565b91602435906001600160401b038211612179576122469160040161217e565b90565b906040600319830112612179576004356001600160401b038111612179578261227491600401612132565b91602435906001600160401b0382116121795761224691600401612132565b6007548110156122ae57600760005260206000200190600090565b634e487b7160e01b600052603260045260246000fd5b90600182811c921680156122f4575b60208310146122de57565b634e487b7160e01b600052602260045260246000fd5b91607f16916122d3565b6040519060008260025491612312836122c4565b80835292600181169081156123865750600114612338575b612336925003836120c7565b565b506002600090815290916000805160206130658339815191525b81831061236a5750509060206123369282010161232a565b6020919350806001915483858901015201910190918492612352565b6020925061233694915060ff191682840152151560051b82010161232a565b60405190600082600154916123b9836122c4565b808352926001811690811561238657506001146123dc57612336925003836120c7565b506001600090815290916000805160206131458339815191525b81831061240e5750509060206123369282010161232a565b60209193508060019154838589010152019101909184926123f6565b906040519182600082549261243e846122c4565b80845293600181169081156124aa5750600114612463575b50612336925003836120c7565b90506000929192526020600020906000915b81831061248e5750509060206123369282010138612456565b6020919350806001915483858901015201910190918492612475565b90506020925061233694915060ff191682840152151560051b82010138612456565b60005b8381106124df5750506000910152565b81810151838201526020016124cf565b90602091612508815180928185528580860191016124cc565b601f01601f1916010190565b9080602083519182815201916020808360051b8301019401926000915b83831061254057505050505090565b909192939460208061255e600193601f1986820301875289516124ef565b97019301930191939290612531565b1561257457565b60405162461bcd60e51b8152602060048201526017602482015276159bdd1a5b99c818dbdb9d1c9858dd081b9bdd081cd95d604a1b6044820152606490fd5b80518210156122ae5760209160051b010190565b81601f820112156121795780516125dd81612117565b926125eb60405194856120c7565b818452602082840101116121795761224691602080850191016124cc565b906020828203126121795781516001600160401b0381116121795761224692016125c7565b51906001600160a01b038216820361217957565b1561264957565b60405162461bcd60e51b815260206004820152600c60248201526b27b7363c9031b932b0ba37b960a11b6044820152606490fd5b1561268457565b60405162461bcd60e51b815260206004820152601d60248201527f4f6e6c7920766f74696e6720636f6e74726163742063616e2063616c6c0000006044820152606490fd5b906060926126e66126f492979695976080855260808501906124ef565b9083820360208501526124ef565b9460408201520152565b6040919493926060820195825260208201520152565b81811061271f575050565b60008155600101612714565b8160011b916000199060031b1c19161790565b90816020910312612179575180151581036121795790565b1561275d57565b60405162461bcd60e51b815260206004820152601b60248201527a10530818dbdb9d1c9858dd1cc8185b1c9958591e481b1a5b9ad959602a1b6044820152606490fd5b81519192916001600160401b0381116120ea576127bd82546122c4565b601f8111612850575b506020601f82116001146127ee5781906127ea93949560009261138a57505061272b565b9055565b601f1982169083600052806000209160005b8181106128385750958360019596971061281f575b505050811b019055565b015160001960f88460031b161c19169055388080612815565b9192602060018192868b015181550194019201612800565b61287c90836000526020600020601f840160051c8101916020851061143757601f0160051c0190612714565b386127c6565b6005549061288f82612100565b9161289d60405193846120c7565b80835260056000908152600080516020613045833981519152602085015b8383106128c85750505050565b6001602081926128d78561242a565b8152019201920191906128bb565b6040516361d25a0d60e11b8152602081600481305afa90811561293857600091612919575b5061291457600190565b600090565b612932915060203d6020116118375761182981836120c7565b3861290a565b6040513d6000823e3d90fd5b6000546040516308bcf8b560e21b815290602090829060049082906001600160a01b03165afa90811561293857600091612a90575b5015612a53576003548015159081612a46575b50612a0b5760ff600c54166129d3576000906040516129ac6040826120c7565b601781527650726f6a656374206973207374696c6c2061637469766560481b602082015290565b6001906040516129e46060826120c7565b60238152600080516020613105833981519152602082015262626c6560e81b604082015290565b600190604051612a1c6040826120c7565b601a81527913585e1a5b5d5b481a5d195c985d1a5bdb9cc81c995858da195960321b602082015290565b9050600b5410153861298c565b600190604051612a646040826120c7565b601c81527b141c9bda9958dd081b585b9d585b1b1e4819195858dd1a5d985d195960221b602082015290565b612aa9915060203d6020116118375761182981836120c7565b38612979565b15612ab657565b60405162461bcd60e51b815260206004820152601860248201527714dd1bdc9859d94818dbdb9d1c9858dd081b9bdd081cd95d60421b6044820152606490fd5b939291612b1f90612b116040936060885260608801906124ef565b9086820360208801526124ef565b930152565b6000546040516308bcf8b560e21b815290602090829060049082906001600160a01b03165afa90811561293857600091612c33575b5015612336576003548015159081612c26575b50612bd05760ff600c5416612b7d57565b600b54604051906060825260236060830152600080516020613105833981519152608083015262626c6560e81b60a083015260208201524260408201526000805160206130e583398151915260c03392a2565b600b546040519060608252601a60608301527913585e1a5b5d5b481a5d195c985d1a5bdb9cc81c995858da195960321b608083015260208201524260408201526000805160206130e583398151915260a03392a2565b9050600b54101538612b6c565b612c4c915060203d6020116118375761182981836120c7565b38612b59565b9080601f83011215612179578151612c6981612100565b92612c7760405194856120c7565b81845260208085019260051b82010192831161217957602001905b828210612c9f5750505090565b60208091612cac8461262e565b815201910190612c92565b9080601f83011215612179578151612cce81612100565b92612cdc60405194856120c7565b81845260208085019260051b82010192831161217957602001905b828210612d045750505090565b8151815260209182019101612cf7565b906020808351928381520192019060005b818110612d325750505090565b82516001600160a01b0316845260209384019390920191600101612d25565b906020808351928381520192019060005b818110612d6f5750505090565b8251845260209384019390920191600101612d62565b6009546000906001600160a01b03168015613040578154604051630caf64f760e11b815291908390839060049082906001600160a01b03165afa801561084e57839084938591612f29575b50815115612f22578491612e2b612e0792612e19604051978895869563cdbf3d0160e01b8752606060048801526064870190612d14565b85810360031901602487015290612514565b83810360031901604485015290612d51565b0381845afa91821561084e5783908493612ebd575b508051612e4e575b50505050565b813b1561042c57918391612e8583612e979560405196879586948593631d70957f60e21b8552604060048601526044850190612d14565b83810360031901602485015290612d51565b03925af180156102be57612ead575b8080612e48565b81612eb7916120c7565b38612ea6565b9250503d8084843e612ecf81846120c7565b820160408382031261042c5782516001600160401b0381116116b85781612ef7918501612c52565b602084015190936001600160401b038211612f1e57612f17929101612cb7565b9138612e40565b8580fd5b5050505050565b935050503d8084843e612f3c81846120c7565b820160808382031261042c5782516001600160401b0381116116b85781612f64918501612c52565b60208401516001600160401b038111612f1e5784019180601f84011215612f1e57825192612f9184612100565b93612f9f60405195866120c7565b80855260208086019160051b830101918383116116b05760208101915b838310613013575050505060408501516001600160401b03811161300f5781612fe6918701612cb7565b606086015190956001600160401b0382116116b457613006929101612cb7565b50909238612dd0565b8680fd5b82516001600160401b03811161168557602091613035878480948701016125c7565b815201920191612fbc565b505056fe036b6384b5eca791c62761152d0c79bb0604c104a5fb6f4eb0703f3154bb3db0405787fa12a823e0f2b7631cc41b3ba8828b3321ca811111fa75cd3aa3bb5ace9b196abb2588eccefb36f3e6c9b15d9e260c633d5b2e0b8f497e6e71c6c1c1eabb4ba47257d82c025e976bcdc375cc2e26de94efd111bca20cbc9a330d297455a66cc928b5edb82af9bd49922954155ab7b0942694bea4ce44661d9a8736c688aee3ab89a33c4a6f38aa24238aed506e7f6db5e298e1f32a0ede72dbe23112c44e6f206d6f726520756e6c6162656c65642073616d706c657320617661696c619aa934e5a98d12b60dabec0f34647f2b63b8fd257ba6480e7ded4cc1ef24c573b10e2d527612073b26eecdfd717e6a320cf44b4afac2b0732d9fcbe2b7fa0cf6a2646970667358221220c0bfbabf6dbbd47e0ca3094c888b1dd7ebeb110a14c60d2e652cc124d79a964d64736f6c634300081c0033","opcodes":"PUSH1 0x80 PUSH1 0x40 MSTORE CALLVALUE PUSH2 0xEB JUMPI PUSH2 0x32C6 DUP1 CODESIZE SUB DUP1 PUSH2 0x19 DUP2 PUSH2 0x106 JUMP JUMPDEST SWAP3 DUP4 CODECOPY DUP2 ADD PUSH1 0x40 DUP3 DUP3 SUB SLT PUSH2 0xEB JUMPI DUP2 MLOAD PUSH1 0x1 PUSH1 0x1 PUSH1 0xA0 SHL SUB DUP2 AND SWAP3 SWAP1 DUP4 SWAP1 SUB PUSH2 0xEB JUMPI PUSH1 0x20 DUP2 ADD MLOAD SWAP1 PUSH1 0x1 PUSH1 0x1 PUSH1 0x40 SHL SUB DUP3 GT PUSH2 0xEB JUMPI ADD SWAP1 DUP1 PUSH1 0x1F DUP4 ADD SLT ISZERO PUSH2 0xEB JUMPI DUP2 MLOAD SWAP2 PUSH1 0x1 PUSH1 0x1 PUSH1 0x40 SHL SUB DUP4 GT PUSH2 0xF0 JUMPI PUSH2 0x82 PUSH1 0x1F DUP5 ADD PUSH1 0x1F NOT AND PUSH1 0x20 ADD PUSH2 0x106 JUMP JUMPDEST SWAP2 DUP4 DUP4 MSTORE PUSH1 0x20 DUP5 DUP4 ADD ADD GT PUSH2 0xEB JUMPI PUSH1 0x0 JUMPDEST DUP4 DUP2 LT PUSH2 0xD6 JUMPI PUSH1 0x0 DUP4 DUP6 ADD PUSH1 0x20 ADD DUP2 SWAP1 MSTORE PUSH2 0xE10 PUSH1 0x6 SSTORE PUSH1 0xC DUP1 SLOAD PUSH2 0xFFFF NOT AND SWAP1 SSTORE DUP1 SLOAD PUSH1 0x1 PUSH1 0x1 PUSH1 0xA0 SHL SUB NOT AND DUP7 OR SWAP1 SSTORE PUSH1 0x40 MLOAD PUSH2 0x319A SWAP1 DUP2 PUSH2 0x12C DUP3 CODECOPY RETURN JUMPDEST DUP1 PUSH1 0x20 DUP1 SWAP3 DUP5 ADD ADD MLOAD DUP3 DUP3 DUP7 ADD ADD MSTORE ADD PUSH2 0x94 JUMP JUMPDEST PUSH1 0x0 DUP1 REVERT JUMPDEST PUSH4 0x4E487B71 PUSH1 0xE0 SHL PUSH1 0x0 MSTORE PUSH1 0x41 PUSH1 0x4 MSTORE PUSH1 0x24 PUSH1 0x0 REVERT JUMPDEST PUSH1 0x40 MLOAD SWAP2 SWAP1 PUSH1 0x1F ADD PUSH1 0x1F NOT AND DUP3 ADD PUSH1 0x1 PUSH1 0x1 PUSH1 0x40 SHL SUB DUP2 GT DUP4 DUP3 LT OR PUSH2 0xF0 JUMPI PUSH1 0x40 MSTORE JUMP INVALID PUSH1 0x80 DUP1 PUSH1 0x40 MSTORE PUSH1 0x4 CALLDATASIZE LT ISZERO PUSH2 0x13 JUMPI PUSH1 0x0 DUP1 REVERT JUMPDEST PUSH1 0x0 SWAP1 DUP2 CALLDATALOAD PUSH1 0xE0 SHR SWAP1 DUP2 PUSH4 0x11CE0267 EQ PUSH2 0x20A2 JUMPI POP DUP1 PUSH4 0x1633E062 EQ PUSH2 0x1BB9 JUMPI DUP1 PUSH4 0x19B21227 EQ PUSH2 0x1AC6 JUMPI DUP1 PUSH4 0x29F5E65A EQ PUSH2 0x1883 JUMPI DUP1 PUSH4 0x461E198B EQ PUSH2 0x16BC JUMPI DUP1 PUSH4 0x5BB06C0B EQ PUSH2 0x1091 JUMPI DUP1 PUSH4 0x6AC4E50E EQ PUSH2 0x101A JUMPI DUP1 PUSH4 0x6C86D124 EQ PUSH2 0xFF7 JUMPI DUP1 PUSH4 0x72A1C45D EQ PUSH2 0xDE5 JUMPI DUP1 PUSH4 0x77C39C21 EQ PUSH2 0xDC7 JUMPI DUP1 PUSH4 0x7A83A44B EQ PUSH2 0xDA2 JUMPI DUP1 PUSH4 0x7C13F6CF EQ PUSH2 0xD6A JUMPI DUP1 PUSH4 0x7F52CADC EQ PUSH2 0xD4E JUMPI DUP1 PUSH4 0x80A8C849 EQ PUSH2 0xCC7 JUMPI DUP1 PUSH4 0x8A19C8BC EQ PUSH2 0xCA9 JUMPI DUP1 PUSH4 0xA0740184 EQ PUSH2 0xC79 JUMPI DUP1 PUSH4 0xA6EA915B EQ PUSH2 0xB47 JUMPI DUP1 PUSH4 0xB0611068 EQ PUSH2 0xA7A JUMPI DUP1 PUSH4 0xB0942CE5 EQ PUSH2 0xA5C JUMPI DUP1 PUSH4 0xB2BE4D65 EQ PUSH2 0x859 JUMPI DUP1 PUSH4 0xB8C39034 EQ PUSH2 0x716 JUMPI DUP1 PUSH4 0xC1FC006A EQ PUSH2 0x6ED JUMPI DUP1 PUSH4 0xC3A4B41A EQ PUSH2 0x6A7 JUMPI DUP1 PUSH4 0xCF3FC0B8 EQ PUSH2 0x680 JUMPI DUP1 PUSH4 0xD2291E11 EQ PUSH2 0x5FC JUMPI DUP1 PUSH4 0xD5A977BD EQ PUSH2 0x5D6 JUMPI DUP1 PUSH4 0xE0308323 EQ PUSH2 0x574 JUMPI DUP1 PUSH4 0xE1D5A2C8 EQ PUSH2 0x4C4 JUMPI DUP1 PUSH4 0xEED016BE EQ PUSH2 0x2EA JUMPI DUP1 PUSH4 0xF1BC33B4 EQ PUSH2 0x2CC JUMPI PUSH4 0xF8C8FA02 EQ PUSH2 0x176 JUMPI PUSH1 0x0 DUP1 REVERT JUMPDEST CALLVALUE PUSH2 0x2C9 JUMPI DUP1 PUSH1 0x3 NOT CALLDATASIZE ADD SLT PUSH2 0x2C9 JUMPI DUP1 SLOAD PUSH1 0x40 MLOAD PUSH4 0x2D05D3F PUSH1 0xE0 SHL DUP2 MSTORE SWAP1 PUSH1 0x20 SWAP1 DUP3 SWAP1 PUSH1 0x4 SWAP1 DUP3 SWAP1 PUSH1 0x1 PUSH1 0x1 PUSH1 0xA0 SHL SUB AND GAS STATICCALL DUP1 ISZERO PUSH2 0x2BE JUMPI DUP3 SWAP1 PUSH2 0x27F JUMPI JUMPDEST PUSH2 0x1CD SWAP2 POP PUSH1 0x1 PUSH1 0x1 PUSH1 0xA0 SHL SUB AND CALLER EQ PUSH2 0x2642 JUMP JUMPDEST PUSH1 0xC SLOAD PUSH1 0xFF DUP2 PUSH1 0x8 SHR AND PUSH2 0x23B JUMPI PUSH2 0x100 SWAP1 PUSH2 0xFF00 NOT AND OR PUSH1 0xC SSTORE PUSH1 0x0 DUP1 MLOAD PUSH1 0x20 PUSH2 0x30A5 DUP4 CODECOPY DUP2 MLOAD SWAP2 MSTORE PUSH1 0xA0 PUSH1 0xB SLOAD PUSH1 0x40 MLOAD SWAP1 DUP2 MSTORE PUSH1 0x60 PUSH1 0x20 DUP3 ADD MSTORE PUSH1 0x18 PUSH1 0x60 DUP3 ADD MSTORE PUSH24 0x119A5B985B081D1C985A5B9A5B99C818DBDB5C1B195D1959 PUSH1 0x42 SHL PUSH1 0x80 DUP3 ADD MSTORE TIMESTAMP PUSH1 0x40 DUP3 ADD MSTORE LOG1 DUP1 RETURN JUMPDEST PUSH1 0x64 PUSH1 0x40 MLOAD PUSH3 0x461BCD PUSH1 0xE5 SHL DUP2 MSTORE PUSH1 0x20 PUSH1 0x4 DUP3 ADD MSTORE PUSH1 0x20 PUSH1 0x24 DUP3 ADD MSTORE PUSH32 0x46696E616C20747261696E696E6720616C726561647920636F6D706C65746564 PUSH1 0x44 DUP3 ADD MSTORE REVERT JUMPDEST POP PUSH1 0x20 DUP2 RETURNDATASIZE PUSH1 0x20 GT PUSH2 0x2B6 JUMPI JUMPDEST DUP2 PUSH2 0x299 PUSH1 0x20 SWAP4 DUP4 PUSH2 0x20C7 JUMP JUMPDEST DUP2 ADD SUB SLT PUSH2 0x2B2 JUMPI PUSH2 0x2AD PUSH2 0x1CD SWAP2 PUSH2 0x262E JUMP JUMPDEST PUSH2 0x1B8 JUMP JUMPDEST POP DUP1 REVERT JUMPDEST RETURNDATASIZE SWAP2 POP PUSH2 0x28C JUMP JUMPDEST PUSH1 0x40 MLOAD RETURNDATASIZE DUP5 DUP3 RETURNDATACOPY RETURNDATASIZE SWAP1 REVERT JUMPDEST DUP1 REVERT JUMPDEST POP CALLVALUE PUSH2 0x2C9 JUMPI DUP1 PUSH1 0x3 NOT CALLDATASIZE ADD SLT PUSH2 0x2C9 JUMPI PUSH1 0x20 PUSH1 0x6 SLOAD PUSH1 0x40 MLOAD SWAP1 DUP2 MSTORE RETURN JUMPDEST POP CALLVALUE PUSH2 0x2C9 JUMPI PUSH2 0x2F9 CALLDATASIZE PUSH2 0x21FC JUMP JUMPDEST DUP3 SLOAD PUSH1 0x40 MLOAD PUSH4 0x2D05D3F PUSH1 0xE0 SHL DUP2 MSTORE SWAP1 PUSH1 0x20 SWAP1 DUP3 SWAP1 PUSH1 0x4 SWAP1 DUP3 SWAP1 PUSH1 0x1 PUSH1 0x1 PUSH1 0xA0 SHL SUB AND GAS STATICCALL DUP1 ISZERO PUSH2 0x4B9 JUMPI DUP5 SWAP1 PUSH2 0x47E JUMPI JUMPDEST PUSH2 0x340 SWAP2 POP PUSH1 0x1 PUSH1 0x1 PUSH1 0xA0 SHL SUB AND CALLER EQ PUSH2 0x2642 JUMP JUMPDEST PUSH1 0x9 SLOAD PUSH1 0x1 PUSH1 0x1 PUSH1 0xA0 SHL SUB AND SWAP1 PUSH2 0x358 DUP3 ISZERO ISZERO PUSH2 0x256D JUMP JUMPDEST DUP3 MLOAD ISZERO PUSH2 0x444 JUMPI PUSH1 0xB SLOAD PUSH1 0x1 DUP2 ADD DUP1 SWAP2 GT PUSH2 0x430 JUMPI SWAP1 DUP2 DUP6 SWAP4 SWAP3 PUSH1 0xB SSTORE PUSH2 0x37D PUSH2 0x2B24 JUMP JUMPDEST DUP3 EXTCODESIZE ISZERO PUSH2 0x42C JUMPI PUSH2 0x3C9 SWAP3 DUP5 SWAP3 DUP4 PUSH1 0x40 MLOAD DUP1 SWAP7 DUP2 SWAP6 DUP3 SWAP5 PUSH4 0x579BDAE3 PUSH1 0xE1 SHL DUP5 MSTORE PUSH1 0x60 PUSH1 0x4 DUP6 ADD MSTORE PUSH2 0x3B2 PUSH1 0x64 DUP6 ADD DUP14 PUSH2 0x2514 JUMP JUMPDEST SWAP2 PUSH1 0x24 DUP6 ADD MSTORE PUSH1 0x3 NOT DUP5 DUP4 SUB ADD PUSH1 0x44 DUP6 ADD MSTORE PUSH2 0x2514 JUMP JUMPDEST SUB SWAP3 GAS CALL DUP1 ISZERO PUSH2 0x2BE JUMPI PUSH2 0x417 JUMPI JUMPDEST POP PUSH32 0x24C323B0138F1F608C855CCCB8550AC649C15BF3CEA39B8FDBDE80D33258A74F DUP3 PUSH1 0xB SLOAD SWAP1 MLOAD PUSH2 0x411 PUSH1 0x40 MLOAD SWAP3 DUP4 SWAP3 TIMESTAMP SWAP2 DUP5 PUSH2 0x26FE JUMP JUMPDEST SUB SWAP1 LOG1 DUP1 RETURN JUMPDEST DUP2 PUSH2 0x421 SWAP2 PUSH2 0x20C7 JUMP JUMPDEST PUSH2 0x2B2 JUMPI DUP2 CODESIZE PUSH2 0x3D8 JUMP JUMPDEST DUP4 DUP1 REVERT JUMPDEST PUSH4 0x4E487B71 PUSH1 0xE0 SHL DUP6 MSTORE PUSH1 0x11 PUSH1 0x4 MSTORE PUSH1 0x24 DUP6 REVERT JUMPDEST PUSH1 0x40 MLOAD PUSH3 0x461BCD PUSH1 0xE5 SHL DUP2 MSTORE PUSH1 0x20 PUSH1 0x4 DUP3 ADD MSTORE PUSH1 0x12 PUSH1 0x24 DUP3 ADD MSTORE PUSH18 0x8ADAE0E8F240E6C2DAE0D8CA40C4C2E8C6D PUSH1 0x73 SHL PUSH1 0x44 DUP3 ADD MSTORE PUSH1 0x64 SWAP1 REVERT JUMPDEST POP PUSH1 0x20 DUP2 RETURNDATASIZE PUSH1 0x20 GT PUSH2 0x4B1 JUMPI JUMPDEST DUP2 PUSH2 0x498 PUSH1 0x20 SWAP4 DUP4 PUSH2 0x20C7 JUMP JUMPDEST DUP2 ADD SUB SLT PUSH2 0x42C JUMPI PUSH2 0x4AC PUSH2 0x340 SWAP2 PUSH2 0x262E JUMP JUMPDEST PUSH2 0x32B JUMP JUMPDEST RETURNDATASIZE SWAP2 POP PUSH2 0x48B JUMP JUMPDEST PUSH1 0x40 MLOAD RETURNDATASIZE DUP7 DUP3 RETURNDATACOPY RETURNDATASIZE SWAP1 REVERT JUMPDEST POP CALLVALUE PUSH2 0x2C9 JUMPI DUP1 PUSH1 0x3 NOT CALLDATASIZE ADD SLT PUSH2 0x2C9 JUMPI PUSH1 0x9 SLOAD PUSH1 0x1 PUSH1 0x1 PUSH1 0xA0 SHL SUB AND CALLER SUB PUSH2 0x541 JUMPI DUP1 PUSH1 0x40 MLOAD PUSH2 0x4F6 PUSH1 0x20 DUP3 PUSH2 0x20C7 JUMP JUMPDEST MSTORE PUSH1 0xB SLOAD PUSH1 0x1 DUP2 ADD DUP1 SWAP2 GT PUSH2 0x52D JUMPI PUSH1 0x20 DUP2 PUSH1 0x0 DUP1 MLOAD PUSH1 0x20 PUSH2 0x3125 DUP4 CODECOPY DUP2 MLOAD SWAP2 MSTORE SWAP3 PUSH1 0xB SSTORE PUSH1 0x40 MLOAD SWAP1 DUP2 MSTORE LOG1 PUSH2 0x52A PUSH2 0x2B24 JUMP JUMPDEST DUP1 RETURN JUMPDEST PUSH4 0x4E487B71 PUSH1 0xE0 SHL DUP3 MSTORE PUSH1 0x11 PUSH1 0x4 MSTORE PUSH1 0x24 DUP3 REVERT JUMPDEST PUSH1 0x40 MLOAD PUSH3 0x461BCD PUSH1 0xE5 SHL DUP2 MSTORE PUSH1 0x20 PUSH1 0x4 DUP3 ADD MSTORE PUSH1 0xB PUSH1 0x24 DUP3 ADD MSTORE PUSH11 0x4F6E6C7920766F74696E67 PUSH1 0xA8 SHL PUSH1 0x44 DUP3 ADD MSTORE PUSH1 0x64 SWAP1 REVERT JUMPDEST POP CALLVALUE PUSH2 0x2C9 JUMPI PUSH1 0x20 CALLDATASIZE PUSH1 0x3 NOT ADD SLT PUSH2 0x2C9 JUMPI PUSH1 0x4 CALLDATALOAD SWAP1 PUSH1 0x1 PUSH1 0x1 PUSH1 0x40 SHL SUB DUP3 GT PUSH2 0x2C9 JUMPI PUSH1 0x20 PUSH1 0xFF PUSH2 0x5C0 DUP3 PUSH2 0x5AD CALLDATASIZE PUSH1 0x4 DUP9 ADD PUSH2 0x2132 JUMP JUMPDEST DUP2 PUSH1 0x40 MLOAD SWAP4 DUP3 DUP6 DUP1 SWAP5 MLOAD SWAP4 DUP5 SWAP3 ADD PUSH2 0x24CC JUMP JUMPDEST DUP2 ADD PUSH1 0x8 DUP2 MSTORE SUB ADD SWAP1 KECCAK256 SLOAD AND PUSH1 0x40 MLOAD SWAP1 ISZERO ISZERO DUP2 MSTORE RETURN JUMPDEST POP CALLVALUE PUSH2 0x2C9 JUMPI DUP1 PUSH1 0x3 NOT CALLDATASIZE ADD SLT PUSH2 0x2C9 JUMPI PUSH1 0x20 PUSH1 0xFF PUSH1 0xC SLOAD PUSH1 0x8 SHR AND PUSH1 0x40 MLOAD SWAP1 ISZERO ISZERO DUP2 MSTORE RETURN JUMPDEST POP CALLVALUE PUSH2 0x2C9 JUMPI DUP1 PUSH1 0x3 NOT CALLDATASIZE ADD SLT PUSH2 0x2C9 JUMPI PUSH1 0x7 SLOAD PUSH2 0x619 DUP2 PUSH2 0x2100 JUMP JUMPDEST SWAP2 PUSH2 0x627 PUSH1 0x40 MLOAD SWAP4 DUP5 PUSH2 0x20C7 JUMP JUMPDEST DUP2 DUP4 MSTORE PUSH1 0x7 DUP2 MSTORE PUSH1 0x0 DUP1 MLOAD PUSH1 0x20 PUSH2 0x30C5 DUP4 CODECOPY DUP2 MLOAD SWAP2 MSTORE PUSH1 0x20 DUP5 ADD JUMPDEST DUP4 DUP4 LT PUSH2 0x663 JUMPI PUSH1 0x40 MLOAD PUSH1 0x20 DUP1 DUP3 MSTORE DUP2 SWAP1 PUSH2 0x65F SWAP1 DUP3 ADD DUP9 PUSH2 0x2514 JUMP JUMPDEST SUB SWAP1 RETURN JUMPDEST PUSH1 0x1 PUSH1 0x20 DUP2 SWAP3 PUSH2 0x672 DUP6 PUSH2 0x242A JUMP JUMPDEST DUP2 MSTORE ADD SWAP3 ADD SWAP3 ADD SWAP2 SWAP1 PUSH2 0x642 JUMP JUMPDEST POP CALLVALUE PUSH2 0x2C9 JUMPI DUP1 PUSH1 0x3 NOT CALLDATASIZE ADD SLT PUSH2 0x2C9 JUMPI SLOAD PUSH1 0x40 MLOAD PUSH1 0x1 PUSH1 0x1 PUSH1 0xA0 SHL SUB SWAP1 SWAP2 AND DUP2 MSTORE PUSH1 0x20 SWAP1 RETURN JUMPDEST POP CALLVALUE PUSH2 0x2C9 JUMPI DUP1 PUSH1 0x3 NOT CALLDATASIZE ADD SLT PUSH2 0x2C9 JUMPI PUSH1 0x9 SLOAD PUSH1 0x1 PUSH1 0x1 PUSH1 0xA0 SHL SUB AND ISZERO ISZERO DUP1 PUSH2 0x6D9 JUMPI JUMPDEST PUSH1 0x20 SWAP1 PUSH1 0x40 MLOAD SWAP1 ISZERO ISZERO DUP2 MSTORE RETURN JUMPDEST POP PUSH1 0xA SLOAD PUSH1 0x1 PUSH1 0x1 PUSH1 0xA0 SHL SUB AND ISZERO ISZERO PUSH2 0x6CC JUMP JUMPDEST POP CALLVALUE PUSH2 0x2C9 JUMPI DUP1 PUSH1 0x3 NOT CALLDATASIZE ADD SLT PUSH2 0x2C9 JUMPI PUSH1 0x9 SLOAD PUSH1 0x40 MLOAD PUSH1 0x1 PUSH1 0x1 PUSH1 0xA0 SHL SUB SWAP1 SWAP2 AND DUP2 MSTORE PUSH1 0x20 SWAP1 RETURN JUMPDEST POP CALLVALUE PUSH2 0x2C9 JUMPI PUSH1 0x20 CALLDATASIZE PUSH1 0x3 NOT ADD SLT PUSH2 0x2C9 JUMPI DUP1 SLOAD PUSH1 0x40 MLOAD PUSH4 0x2D05D3F PUSH1 0xE0 SHL DUP2 MSTORE PUSH1 0x4 DUP1 CALLDATALOAD SWAP3 PUSH1 0x20 SWAP2 DUP4 SWAP2 DUP3 SWAP1 PUSH1 0x1 PUSH1 0x1 PUSH1 0xA0 SHL SUB AND GAS STATICCALL DUP1 ISZERO PUSH2 0x84E JUMPI DUP4 SWAP1 PUSH2 0x80F JUMPI JUMPDEST PUSH2 0x770 SWAP2 POP PUSH1 0x1 PUSH1 0x1 PUSH1 0xA0 SHL SUB AND CALLER EQ PUSH2 0x2642 JUMP JUMPDEST PUSH1 0x9 SLOAD PUSH1 0x1 PUSH1 0x1 PUSH1 0xA0 SHL SUB AND PUSH2 0x787 DUP2 ISZERO ISZERO PUSH2 0x256D JUMP JUMPDEST PUSH1 0xB SLOAD DUP3 SUB PUSH2 0x7DA JUMPI DUP3 SWAP2 DUP2 EXTCODESIZE ISZERO PUSH2 0x7D6 JUMPI DUP3 SWAP2 PUSH1 0x24 DUP4 SWAP3 PUSH1 0x40 MLOAD SWAP5 DUP6 SWAP4 DUP5 SWAP3 PUSH4 0x2E30E40D PUSH1 0xE2 SHL DUP5 MSTORE PUSH1 0x4 DUP5 ADD MSTORE GAS CALL DUP1 ISZERO PUSH2 0x2BE JUMPI PUSH2 0x7C5 JUMPI POP RETURN JUMPDEST DUP2 PUSH2 0x7CF SWAP2 PUSH2 0x20C7 JUMP JUMPDEST PUSH2 0x2C9 JUMPI DUP1 RETURN JUMPDEST POP POP REVERT JUMPDEST PUSH1 0x40 MLOAD PUSH3 0x461BCD PUSH1 0xE5 SHL DUP2 MSTORE PUSH1 0x20 PUSH1 0x4 DUP3 ADD MSTORE PUSH1 0xD PUSH1 0x24 DUP3 ADD MSTORE PUSH13 0x125B9D985B1A59081C9BDD5B99 PUSH1 0x9A SHL PUSH1 0x44 DUP3 ADD MSTORE PUSH1 0x64 SWAP1 REVERT JUMPDEST POP PUSH1 0x20 DUP2 RETURNDATASIZE PUSH1 0x20 GT PUSH2 0x846 JUMPI JUMPDEST DUP2 PUSH2 0x829 PUSH1 0x20 SWAP4 DUP4 PUSH2 0x20C7 JUMP JUMPDEST DUP2 ADD SUB SLT PUSH2 0x842 JUMPI PUSH2 0x83D PUSH2 0x770 SWAP2 PUSH2 0x262E JUMP JUMPDEST PUSH2 0x75B JUMP JUMPDEST DUP3 DUP1 REVERT JUMPDEST RETURNDATASIZE SWAP2 POP PUSH2 0x81C JUMP JUMPDEST PUSH1 0x40 MLOAD RETURNDATASIZE DUP6 DUP3 RETURNDATACOPY RETURNDATASIZE SWAP1 REVERT JUMPDEST POP CALLVALUE PUSH2 0x2C9 JUMPI PUSH1 0x20 CALLDATASIZE PUSH1 0x3 NOT ADD SLT PUSH2 0x2C9 JUMPI PUSH1 0x4 CALLDATALOAD PUSH1 0x1 PUSH1 0x1 PUSH1 0x40 SHL SUB DUP2 GT PUSH2 0x2B2 JUMPI PUSH2 0x88A SWAP1 CALLDATASIZE SWAP1 PUSH1 0x4 ADD PUSH2 0x2132 JUMP JUMPDEST PUSH2 0x89F PUSH1 0x1 DUP1 PUSH1 0xA0 SHL SUB PUSH1 0x9 SLOAD AND CALLER EQ PUSH2 0x267D JUMP JUMPDEST PUSH1 0x40 MLOAD DUP2 MLOAD SWAP1 PUSH1 0x20 DUP2 DUP2 DUP6 ADD SWAP4 PUSH2 0x8B7 DUP2 DUP4 DUP8 PUSH2 0x24CC JUMP JUMPDEST DUP2 ADD PUSH1 0x8 DUP2 MSTORE SUB ADD SWAP1 KECCAK256 PUSH1 0x1 PUSH1 0xFF NOT DUP3 SLOAD AND OR SWAP1 SSTORE DUP3 DUP4 SWAP2 PUSH1 0x7 SLOAD SWAP3 JUMPDEST DUP4 DUP2 LT PUSH2 0x995 JUMPI JUMPDEST POP POP ISZERO PUSH2 0x929 JUMPI JUMPDEST POP PUSH2 0x912 PUSH1 0x0 DUP1 MLOAD PUSH1 0x20 PUSH2 0x3085 DUP4 CODECOPY DUP2 MLOAD SWAP2 MSTORE SWAP2 PUSH1 0xB SLOAD PUSH1 0x6 SLOAD PUSH1 0x40 MLOAD SWAP4 DUP5 SWAP4 PUSH1 0x80 DUP6 MSTORE PUSH1 0x80 DUP6 ADD SWAP1 PUSH2 0x24EF JUMP JUMPDEST SWAP2 PUSH1 0x20 DUP5 ADD MSTORE PUSH1 0x40 DUP4 ADD MSTORE TIMESTAMP PUSH1 0x60 DUP4 ADD MSTORE SUB SWAP1 LOG1 DUP1 RETURN JUMPDEST PUSH1 0x1 PUSH1 0x40 SHL DUP2 LT ISZERO PUSH2 0x981 JUMPI DUP1 PUSH1 0x1 PUSH2 0x945 SWAP3 ADD PUSH1 0x7 SSTORE PUSH2 0x2293 JUMP JUMPDEST PUSH2 0x96D JUMPI DUP2 PUSH2 0x966 PUSH1 0x0 DUP1 MLOAD PUSH1 0x20 PUSH2 0x3085 DUP4 CODECOPY DUP2 MLOAD SWAP2 MSTORE SWAP4 PUSH2 0x912 SWAP4 PUSH2 0x27A0 JUMP JUMPDEST SWAP2 POP PUSH2 0x8E4 JUMP JUMPDEST PUSH4 0x4E487B71 PUSH1 0xE0 SHL DUP4 MSTORE PUSH1 0x4 DUP4 SWAP1 MSTORE PUSH1 0x24 DUP4 REVERT JUMPDEST PUSH4 0x4E487B71 PUSH1 0xE0 SHL DUP4 MSTORE PUSH1 0x41 PUSH1 0x4 MSTORE PUSH1 0x24 DUP4 REVERT JUMPDEST PUSH2 0x99E DUP2 PUSH2 0x2293 JUMP JUMPDEST POP PUSH1 0x40 MLOAD DUP2 SLOAD SWAP2 DUP2 DUP10 PUSH2 0x9B0 DUP6 PUSH2 0x22C4 JUMP JUMPDEST SWAP3 DUP4 DUP4 MSTORE PUSH1 0x20 DUP4 ADD SWAP6 PUSH1 0x1 DUP2 AND SWAP1 DUP2 PUSH1 0x0 EQ PUSH2 0xA3D JUMPI POP PUSH1 0x1 EQ PUSH2 0x9FC JUMPI JUMPDEST POP PUSH2 0x9DC SWAP3 POP SUB DUP3 PUSH2 0x20C7 JUMP JUMPDEST MLOAD SWAP1 KECCAK256 DUP6 MLOAD DUP4 KECCAK256 EQ PUSH2 0x9F0 JUMPI PUSH1 0x1 ADD PUSH2 0x8D4 JUMP JUMPDEST POP POP POP PUSH1 0x1 CODESIZE DUP1 PUSH2 0x8DC JUMP JUMPDEST DUP12 MSTORE POP POP PUSH1 0x20 DUP10 KECCAK256 DUP10 SWAP2 DUP4 SWAP2 JUMPDEST DUP2 DUP5 LT PUSH2 0xA21 JUMPI POP POP PUSH1 0x20 PUSH2 0x9DC SWAP3 DUP3 ADD ADD CODESIZE PUSH2 0x9CF JUMP JUMPDEST PUSH1 0x20 SWAP2 SWAP3 POP DUP1 PUSH1 0x1 SWAP2 SLOAD DUP4 DUP7 DUP9 ADD ADD MSTORE ADD SWAP3 ADD SWAP2 SWAP1 DUP4 SWAP2 PUSH2 0xA09 JUMP JUMPDEST PUSH1 0xFF NOT AND DUP8 MSTORE POP PUSH2 0x9DC SWAP4 ISZERO ISZERO PUSH1 0x5 SHL DUP4 ADD PUSH1 0x20 ADD SWAP2 POP CODESIZE SWAP1 POP PUSH2 0x9CF JUMP JUMPDEST POP CALLVALUE PUSH2 0x2C9 JUMPI DUP1 PUSH1 0x3 NOT CALLDATASIZE ADD SLT PUSH2 0x2C9 JUMPI PUSH1 0x20 PUSH1 0x3 SLOAD PUSH1 0x40 MLOAD SWAP1 DUP2 MSTORE RETURN JUMPDEST POP CALLVALUE PUSH2 0x2C9 JUMPI PUSH2 0xA89 CALLDATASIZE PUSH2 0x2249 JUMP JUMPDEST SWAP1 PUSH2 0xA9F PUSH1 0x1 DUP1 PUSH1 0xA0 SHL SUB PUSH1 0x9 SLOAD AND CALLER EQ PUSH2 0x267D JUMP JUMPDEST PUSH1 0xA SLOAD DUP4 SWAP1 PUSH1 0x1 PUSH1 0x1 PUSH1 0xA0 SHL SUB AND PUSH2 0xAB8 DUP2 ISZERO ISZERO PUSH2 0x2AAF JUMP JUMPDEST PUSH1 0xB SLOAD SWAP1 DUP1 EXTCODESIZE ISZERO PUSH2 0x842 JUMPI PUSH1 0x40 MLOAD PUSH4 0xA6EA915B PUSH1 0xE0 SHL DUP2 MSTORE SWAP2 DUP4 SWAP2 DUP4 SWAP2 DUP3 SWAP1 DUP5 SWAP1 DUP3 SWAP1 PUSH2 0xAEA SWAP1 DUP12 DUP12 PUSH1 0x4 DUP6 ADD PUSH2 0x2AF6 JUMP JUMPDEST SUB SWAP3 GAS CALL DUP1 ISZERO PUSH2 0x2BE JUMPI PUSH2 0xB32 JUMPI JUMPDEST POP POP PUSH32 0x503607074D0E95D8C0C6B1660C3441384010E05305DA22AEF0594EB3FCAE6236 SWAP2 PUSH2 0x411 PUSH1 0xB SLOAD SWAP3 PUSH1 0x40 MLOAD SWAP4 DUP5 SWAP4 TIMESTAMP SWAP3 DUP6 PUSH2 0x26C9 JUMP JUMPDEST DUP2 PUSH2 0xB3C SWAP2 PUSH2 0x20C7 JUMP JUMPDEST PUSH2 0x842 JUMPI DUP3 CODESIZE PUSH2 0xAF9 JUMP JUMPDEST POP CALLVALUE PUSH2 0x2C9 JUMPI PUSH1 0x60 CALLDATASIZE PUSH1 0x3 NOT ADD SLT PUSH2 0x2C9 JUMPI DUP1 PUSH1 0x4 CALLDATALOAD PUSH1 0x1 PUSH1 0x1 PUSH1 0x40 SHL SUB DUP2 GT PUSH2 0xC76 JUMPI PUSH2 0xB79 SWAP1 CALLDATASIZE SWAP1 PUSH1 0x4 ADD PUSH2 0x2132 JUMP JUMPDEST PUSH1 0x24 CALLDATALOAD PUSH1 0x1 PUSH1 0x1 PUSH1 0x40 SHL SUB DUP2 GT PUSH2 0x7D6 JUMPI PUSH2 0xB98 SWAP1 CALLDATASIZE SWAP1 PUSH1 0x4 ADD PUSH2 0x2132 JUMP JUMPDEST DUP3 SLOAD PUSH1 0x40 MLOAD PUSH4 0x2D05D3F PUSH1 0xE0 SHL DUP2 MSTORE SWAP1 PUSH1 0x20 SWAP1 DUP3 SWAP1 PUSH1 0x4 SWAP1 DUP3 SWAP1 PUSH1 0x1 PUSH1 0x1 PUSH1 0xA0 SHL SUB AND GAS STATICCALL DUP1 ISZERO PUSH2 0x4B9 JUMPI DUP5 SWAP1 PUSH2 0xC3B JUMPI JUMPDEST PUSH2 0xBDF SWAP2 POP PUSH1 0x1 PUSH1 0x1 PUSH1 0xA0 SHL SUB AND CALLER EQ PUSH2 0x2642 JUMP JUMPDEST PUSH1 0xA SLOAD PUSH1 0x1 PUSH1 0x1 PUSH1 0xA0 SHL SUB AND SWAP2 PUSH2 0xBF7 DUP4 ISZERO ISZERO PUSH2 0x2AAF JUMP JUMPDEST DUP3 EXTCODESIZE ISZERO PUSH2 0xC36 JUMPI PUSH2 0xC25 SWAP3 DUP5 SWAP3 DUP4 PUSH1 0x40 MLOAD DUP1 SWAP7 DUP2 SWAP6 DUP3 SWAP5 PUSH4 0xA6EA915B PUSH1 0xE0 SHL DUP5 MSTORE PUSH1 0x44 CALLDATALOAD SWAP2 PUSH1 0x4 DUP6 ADD PUSH2 0x2AF6 JUMP JUMPDEST SUB SWAP3 GAS CALL DUP1 ISZERO PUSH2 0x2BE JUMPI PUSH2 0x7C5 JUMPI POP RETURN JUMPDEST POP POP POP REVERT JUMPDEST POP PUSH1 0x20 DUP2 RETURNDATASIZE PUSH1 0x20 GT PUSH2 0xC6E JUMPI JUMPDEST DUP2 PUSH2 0xC55 PUSH1 0x20 SWAP4 DUP4 PUSH2 0x20C7 JUMP JUMPDEST DUP2 ADD SUB SLT PUSH2 0xC36 JUMPI PUSH2 0xC69 PUSH2 0xBDF SWAP2 PUSH2 0x262E JUMP JUMPDEST PUSH2 0xBCA JUMP JUMPDEST RETURNDATASIZE SWAP2 POP PUSH2 0xC48 JUMP JUMPDEST POP REVERT JUMPDEST POP CALLVALUE PUSH2 0x2C9 JUMPI DUP1 PUSH1 0x3 NOT CALLDATASIZE ADD SLT PUSH2 0x2C9 JUMPI PUSH2 0x65F PUSH2 0xC95 PUSH2 0x23A5 JUMP JUMPDEST PUSH1 0x40 MLOAD SWAP2 DUP3 SWAP2 PUSH1 0x20 DUP4 MSTORE PUSH1 0x20 DUP4 ADD SWAP1 PUSH2 0x24EF JUMP JUMPDEST POP CALLVALUE PUSH2 0x2C9 JUMPI DUP1 PUSH1 0x3 NOT CALLDATASIZE ADD SLT PUSH2 0x2C9 JUMPI PUSH1 0x20 PUSH1 0xB SLOAD PUSH1 0x40 MLOAD SWAP1 DUP2 MSTORE RETURN JUMPDEST POP CALLVALUE PUSH2 0x2C9 JUMPI DUP1 PUSH1 0x3 NOT CALLDATASIZE ADD SLT PUSH2 0x2C9 JUMPI PUSH2 0xD1E PUSH1 0x3 SLOAD PUSH2 0x65F PUSH1 0xB SLOAD SWAP2 PUSH1 0x4 SLOAD SWAP3 PUSH1 0x6 SLOAD PUSH2 0xCF4 PUSH2 0x23A5 JUMP JUMPDEST SWAP5 PUSH2 0xCFD PUSH2 0x22FE JUMP JUMPDEST SWAP3 PUSH2 0xD2C PUSH2 0xD09 PUSH2 0x2882 JUMP JUMPDEST SWAP5 PUSH1 0x40 MLOAD SWAP10 DUP11 SWAP10 PUSH1 0xE0 DUP12 MSTORE PUSH1 0xE0 DUP12 ADD SWAP1 PUSH2 0x24EF JUMP JUMPDEST SWAP1 DUP10 DUP3 SUB PUSH1 0x20 DUP12 ADD MSTORE PUSH2 0x24EF JUMP JUMPDEST SWAP5 PUSH1 0x40 DUP9 ADD MSTORE PUSH1 0x60 DUP8 ADD MSTORE PUSH1 0x80 DUP7 ADD MSTORE PUSH1 0xA0 DUP6 ADD MSTORE DUP4 DUP3 SUB PUSH1 0xC0 DUP6 ADD MSTORE PUSH2 0x2514 JUMP JUMPDEST POP CALLVALUE PUSH2 0x2C9 JUMPI DUP1 PUSH1 0x3 NOT CALLDATASIZE ADD SLT PUSH2 0x2C9 JUMPI PUSH2 0x65F PUSH2 0xC95 PUSH2 0x22FE JUMP JUMPDEST POP CALLVALUE PUSH2 0x2C9 JUMPI DUP1 PUSH1 0x3 NOT CALLDATASIZE ADD SLT PUSH2 0x2C9 JUMPI PUSH2 0xD83 PUSH2 0x2944 JUMP JUMPDEST SWAP1 PUSH2 0x65F PUSH1 0x40 MLOAD SWAP3 DUP4 SWAP3 ISZERO ISZERO DUP4 MSTORE PUSH1 0x40 PUSH1 0x20 DUP5 ADD MSTORE PUSH1 0x40 DUP4 ADD SWAP1 PUSH2 0x24EF JUMP JUMPDEST POP CALLVALUE PUSH2 0x2C9 JUMPI DUP1 PUSH1 0x3 NOT CALLDATASIZE ADD SLT PUSH2 0x2C9 JUMPI PUSH1 0x20 PUSH2 0xDBD PUSH2 0x28E5 JUMP JUMPDEST PUSH1 0x40 MLOAD SWAP1 ISZERO ISZERO DUP2 MSTORE RETURN JUMPDEST POP CALLVALUE PUSH2 0x2C9 JUMPI DUP1 PUSH1 0x3 NOT CALLDATASIZE ADD SLT PUSH2 0x2C9 JUMPI PUSH1 0x20 PUSH1 0x4 SLOAD PUSH1 0x40 MLOAD SWAP1 DUP2 MSTORE RETURN JUMPDEST POP CALLVALUE PUSH2 0x2C9 JUMPI DUP1 PUSH1 0x3 NOT CALLDATASIZE ADD SLT PUSH2 0x2C9 JUMPI DUP1 SLOAD PUSH1 0x40 MLOAD PUSH4 0x2D05D3F PUSH1 0xE0 SHL DUP2 MSTORE SWAP1 PUSH1 0x20 SWAP1 DUP3 SWAP1 PUSH1 0x4 SWAP1 DUP3 SWAP1 PUSH1 0x1 PUSH1 0x1 PUSH1 0xA0 SHL SUB AND GAS STATICCALL SWAP1 DUP2 ISZERO PUSH2 0x2BE JUMPI DUP3 SWAP2 PUSH2 0xFBD JUMPI JUMPDEST POP PUSH1 0x3 SLOAD SWAP2 PUSH1 0x4 SLOAD SWAP3 PUSH1 0x20 SWAP4 PUSH1 0x40 MLOAD SWAP4 PUSH2 0xE43 DUP7 DUP7 PUSH2 0x20C7 JUMP JUMPDEST DUP4 DUP6 MSTORE PUSH1 0x40 MLOAD SWAP4 PUSH2 0xE54 DUP8 DUP7 PUSH2 0x20C7 JUMP JUMPDEST DUP1 DUP6 MSTORE PUSH1 0x40 MLOAD SWAP1 PUSH2 0xE65 DUP9 DUP4 PUSH2 0x20C7 JUMP JUMPDEST DUP1 DUP3 MSTORE PUSH1 0x40 MLOAD PUSH2 0xE75 DUP10 DUP3 PUSH2 0x20C7 JUMP JUMPDEST DUP2 DUP2 MSTORE PUSH1 0x40 MLOAD SWAP3 DUP4 DUP4 DUP12 PUSH1 0x1 SLOAD PUSH2 0xE8B DUP2 PUSH2 0x22C4 JUMP JUMPDEST DUP1 DUP6 MSTORE SWAP1 PUSH1 0x1 DUP2 AND SWAP1 DUP2 ISZERO PUSH2 0xFA3 JUMPI POP PUSH1 0x1 EQ PUSH2 0xF6C JUMPI JUMPDEST POP POP SUB PUSH2 0xEB0 SWAP1 DUP6 PUSH2 0x20C7 JUMP JUMPDEST PUSH2 0xEB8 PUSH2 0x22FE JUMP JUMPDEST SWAP5 PUSH2 0xEC1 PUSH2 0x2882 JUMP JUMPDEST SWAP9 PUSH1 0x40 MLOAD SWAP12 DUP13 SWAP12 PUSH2 0x180 DUP14 MSTORE PUSH2 0x180 DUP14 ADD PUSH2 0xEDB SWAP2 PUSH2 0x24EF JUMP JUMPDEST SWAP1 DUP13 DUP3 SUB SWAP1 DUP14 ADD MSTORE PUSH2 0xEEC SWAP2 PUSH2 0x24EF JUMP JUMPDEST PUSH1 0x1 PUSH1 0x1 PUSH1 0xA0 SHL SUB SWAP1 SWAP2 AND PUSH1 0x40 DUP12 ADD MSTORE DUP10 DUP2 SUB PUSH1 0x60 DUP12 ADD MSTORE PUSH2 0xF0D SWAP2 PUSH2 0x24EF JUMP JUMPDEST DUP9 DUP2 SUB PUSH1 0x80 DUP11 ADD MSTORE PUSH2 0xF1E SWAP2 PUSH2 0x24EF JUMP JUMPDEST SWAP1 DUP1 PUSH1 0xA0 DUP10 ADD MSTORE PUSH1 0xC0 DUP9 ADD MSTORE DUP7 DUP2 SUB PUSH1 0xE0 DUP9 ADD MSTORE PUSH2 0xF3B SWAP2 PUSH2 0x24EF JUMP JUMPDEST DUP6 DUP2 SUB PUSH2 0x100 DUP8 ADD MSTORE PUSH2 0xF4D SWAP2 PUSH2 0x24EF JUMP JUMPDEST SWAP2 PUSH2 0x120 DUP6 ADD MSTORE PUSH2 0x140 DUP5 ADD MSTORE DUP3 DUP2 SUB PUSH2 0x160 DUP5 ADD MSTORE PUSH2 0x65F SWAP2 PUSH2 0x2514 JUMP JUMPDEST PUSH1 0x1 DUP8 MSTORE DUP2 DUP8 KECCAK256 SWAP2 SWAP3 POP DUP7 SWAP2 JUMPDEST DUP2 DUP4 LT PUSH2 0xF8C JUMPI POP POP DUP3 ADD ADD DUP12 CODESIZE PUSH2 0xEA3 JUMP JUMPDEST DUP1 SLOAD DUP10 DUP5 ADD DUP6 ADD MSTORE DUP9 SWAP5 POP SWAP2 DUP4 ADD SWAP2 PUSH1 0x1 ADD PUSH2 0xF79 JUMP JUMPDEST PUSH1 0xFF NOT AND DUP6 DUP5 ADD MSTORE POP ISZERO ISZERO PUSH1 0x5 SHL DUP4 ADD ADD SWAP1 POP DUP12 CODESIZE PUSH2 0xEA3 JUMP JUMPDEST SWAP1 POP PUSH1 0x20 DUP2 RETURNDATASIZE PUSH1 0x20 GT PUSH2 0xFEF JUMPI JUMPDEST DUP2 PUSH2 0xFD8 PUSH1 0x20 SWAP4 DUP4 PUSH2 0x20C7 JUMP JUMPDEST DUP2 ADD SUB SLT PUSH2 0x2B2 JUMPI PUSH2 0xFE9 SWAP1 PUSH2 0x262E JUMP JUMPDEST CODESIZE PUSH2 0xE29 JUMP JUMPDEST RETURNDATASIZE SWAP2 POP PUSH2 0xFCB JUMP JUMPDEST POP CALLVALUE PUSH2 0x2C9 JUMPI DUP1 PUSH1 0x3 NOT CALLDATASIZE ADD SLT PUSH2 0x2C9 JUMPI PUSH1 0x20 PUSH1 0xFF PUSH1 0xC SLOAD AND PUSH1 0x40 MLOAD SWAP1 ISZERO ISZERO DUP2 MSTORE RETURN JUMPDEST POP CALLVALUE PUSH2 0x2C9 JUMPI PUSH1 0x20 CALLDATASIZE PUSH1 0x3 NOT ADD SLT PUSH2 0x2C9 JUMPI PUSH1 0x4 CALLDATALOAD PUSH1 0x5 SLOAD DUP2 LT ISZERO PUSH2 0x2B2 JUMPI PUSH1 0x5 SLOAD DUP2 LT ISZERO PUSH2 0x107D JUMPI PUSH1 0x5 DUP3 MSTORE PUSH1 0x0 DUP1 MLOAD PUSH1 0x20 PUSH2 0x3045 DUP4 CODECOPY DUP2 MLOAD SWAP2 MSTORE ADD SWAP1 DUP1 PUSH2 0x1069 JUMPI PUSH2 0x65F PUSH2 0xC95 DUP4 PUSH2 0x242A JUMP JUMPDEST PUSH4 0x4E487B71 PUSH1 0xE0 SHL DUP2 MSTORE PUSH1 0x4 DUP2 SWAP1 MSTORE PUSH1 0x24 SWAP1 REVERT JUMPDEST PUSH4 0x4E487B71 PUSH1 0xE0 SHL DUP3 MSTORE PUSH1 0x32 PUSH1 0x4 MSTORE PUSH1 0x24 DUP3 REVERT JUMPDEST POP CALLVALUE PUSH2 0x2C9 JUMPI PUSH2 0x100 CALLDATASIZE PUSH1 0x3 NOT ADD SLT PUSH2 0x2C9 JUMPI PUSH1 0x4 CALLDATALOAD PUSH1 0x1 PUSH1 0x1 PUSH1 0xA0 SHL SUB DUP2 AND SWAP1 DUP2 SWAP1 SUB PUSH2 0x2B2 JUMPI PUSH1 0x24 CALLDATALOAD PUSH1 0x1 PUSH1 0x1 PUSH1 0xA0 SHL SUB DUP2 AND SWAP1 DUP2 SWAP1 SUB PUSH2 0x842 JUMPI PUSH1 0x44 CALLDATALOAD PUSH1 0x1 PUSH1 0x1 PUSH1 0x40 SHL SUB DUP2 GT PUSH2 0x42C JUMPI PUSH2 0x10ED SWAP1 CALLDATASIZE SWAP1 PUSH1 0x4 ADD PUSH2 0x2132 JUMP JUMPDEST PUSH1 0x64 CALLDATALOAD PUSH1 0x1 PUSH1 0x1 PUSH1 0x40 SHL SUB DUP2 GT PUSH2 0x16B8 JUMPI PUSH2 0x110C SWAP1 CALLDATASIZE SWAP1 PUSH1 0x4 ADD PUSH2 0x2132 JUMP JUMPDEST PUSH1 0xA4 CALLDATALOAD SWAP1 PUSH1 0x84 CALLDATALOAD SWAP1 PUSH1 0xC4 CALLDATALOAD PUSH1 0x1 PUSH1 0x1 PUSH1 0x40 SHL SUB DUP2 GT PUSH2 0x16B4 JUMPI PUSH2 0x1133 SWAP1 CALLDATASIZE SWAP1 PUSH1 0x4 ADD PUSH2 0x217E JUMP JUMPDEST SWAP4 PUSH1 0xE4 CALLDATALOAD PUSH1 0x1 PUSH1 0x1 PUSH1 0x40 SHL SUB DUP2 GT PUSH2 0x16B0 JUMPI PUSH2 0x1153 SWAP1 CALLDATASIZE SWAP1 PUSH1 0x4 ADD PUSH2 0x2132 JUMP JUMPDEST POP PUSH1 0x9 SLOAD PUSH1 0x1 PUSH1 0x1 PUSH1 0xA0 SHL SUB DUP2 AND ISZERO DUP1 ISZERO DUP2 PUSH2 0x169C JUMPI JUMPDEST PUSH2 0x15CC JUMPI JUMPDEST DUP9 ISZERO ISZERO DUP1 PUSH2 0x15C3 JUMPI JUMPDEST ISZERO PUSH2 0x1581 JUMPI PUSH2 0x1186 SWAP1 PUSH2 0x2756 JUMP JUMPDEST PUSH1 0xA SLOAD PUSH2 0x119C PUSH1 0x1 PUSH1 0x1 PUSH1 0xA0 SHL SUB DUP3 AND ISZERO PUSH2 0x2756 JUMP JUMPDEST DUP5 ISZERO PUSH2 0x1544 JUMPI DUP6 ISZERO PUSH2 0x150A JUMPI PUSH1 0x1 PUSH1 0x1 PUSH1 0xA0 SHL SUB NOT SWAP2 DUP3 AND DUP10 OR PUSH1 0x9 SSTORE AND DUP7 OR PUSH1 0xA SSTORE PUSH2 0x11C7 PUSH2 0x2D85 JUMP JUMPDEST DUP1 MLOAD SWAP1 PUSH1 0x1 PUSH1 0x1 PUSH1 0x40 SHL SUB DUP3 GT PUSH2 0x14F6 JUMPI PUSH2 0x11E3 PUSH1 0x1 SLOAD PUSH2 0x22C4 JUMP JUMPDEST PUSH1 0x1F DUP2 GT PUSH2 0x14BA JUMPI JUMPDEST POP PUSH1 0x20 SWAP1 PUSH1 0x1F DUP4 GT PUSH1 0x1 EQ PUSH2 0x1455 JUMPI PUSH2 0x120F SWAP3 SWAP2 DUP11 SWAP2 DUP4 PUSH2 0x138A JUMPI JUMPDEST POP POP PUSH2 0x272B JUMP JUMPDEST PUSH1 0x1 SSTORE JUMPDEST DUP1 MLOAD SWAP1 PUSH1 0x1 PUSH1 0x1 PUSH1 0x40 SHL SUB DUP3 GT PUSH2 0x1441 JUMPI PUSH2 0x122F PUSH1 0x2 SLOAD PUSH2 0x22C4 JUMP JUMPDEST PUSH1 0x1F DUP2 GT PUSH2 0x13FA JUMPI JUMPDEST POP PUSH1 0x20 SWAP1 PUSH1 0x1F DUP4 GT PUSH1 0x1 EQ PUSH2 0x1395 JUMPI PUSH2 0x125A SWAP3 SWAP2 DUP10 SWAP2 DUP4 PUSH2 0x138A JUMPI POP POP PUSH2 0x272B JUMP JUMPDEST PUSH1 0x2 SSTORE JUMPDEST PUSH1 0x3 SSTORE PUSH1 0x4 SSTORE DUP1 MLOAD SWAP1 PUSH1 0x1 PUSH1 0x40 SHL DUP3 GT PUSH2 0x1376 JUMPI PUSH1 0x5 SLOAD DUP3 PUSH1 0x5 SSTORE DUP1 DUP4 LT PUSH2 0x12F4 JUMPI JUMPDEST POP PUSH1 0x5 DUP6 MSTORE DUP5 SWAP1 PUSH1 0x0 DUP1 MLOAD PUSH1 0x20 PUSH2 0x3045 DUP4 CODECOPY DUP2 MLOAD SWAP2 MSTORE SWAP1 PUSH1 0x20 ADD JUMPDEST DUP4 DUP4 LT PUSH2 0x12D7 JUMPI DUP7 PUSH32 0xB009E24DD5F140AB58ABB9E6F2187D998561150B7DA958EBAD23A90E26D7366B PUSH1 0x40 DUP9 DUP9 DUP3 MLOAD SWAP2 DUP3 MSTORE PUSH1 0x20 DUP3 ADD MSTORE LOG1 DUP1 RETURN JUMPDEST PUSH1 0x1 PUSH1 0x20 DUP3 PUSH2 0x12E8 DUP4 SWAP5 MLOAD DUP7 PUSH2 0x27A0 JUMP JUMPDEST ADD SWAP3 ADD SWAP3 ADD SWAP2 SWAP1 PUSH2 0x129C JUMP JUMPDEST PUSH1 0x5 DUP7 MSTORE PUSH1 0x0 DUP1 MLOAD PUSH1 0x20 PUSH2 0x3045 DUP4 CODECOPY DUP2 MLOAD SWAP2 MSTORE SWAP1 DUP2 ADD SWAP1 DUP4 ADD JUMPDEST DUP2 DUP2 LT PUSH2 0x131B JUMPI POP PUSH2 0x1281 JUMP JUMPDEST DUP1 PUSH2 0x1328 PUSH1 0x1 SWAP3 SLOAD PUSH2 0x22C4 JUMP JUMPDEST DUP1 PUSH2 0x1335 JUMPI JUMPDEST POP ADD PUSH2 0x130E JUMP JUMPDEST PUSH1 0x1F DUP2 GT DUP4 EQ PUSH2 0x134A JUMPI POP DUP8 DUP2 SSTORE JUMPDEST CODESIZE PUSH2 0x132E JUMP JUMPDEST DUP2 DUP10 MSTORE PUSH1 0x20 DUP10 KECCAK256 PUSH2 0x1365 SWAP2 PUSH1 0x1F ADD PUSH1 0x5 SHR DUP2 ADD SWAP1 DUP5 ADD PUSH2 0x2714 JUMP JUMPDEST DUP1 DUP9 MSTORE DUP8 PUSH1 0x20 DUP2 KECCAK256 DUP2 DUP4 SSTORE SSTORE PUSH2 0x1344 JUMP JUMPDEST PUSH4 0x4E487B71 PUSH1 0xE0 SHL DUP6 MSTORE PUSH1 0x41 PUSH1 0x4 MSTORE PUSH1 0x24 DUP6 REVERT JUMPDEST ADD MLOAD SWAP1 POP CODESIZE DUP1 PUSH2 0x1208 JUMP JUMPDEST PUSH1 0x2 DUP10 MSTORE DUP2 DUP10 KECCAK256 SWAP2 SWAP1 PUSH1 0x1F NOT DUP5 AND DUP11 JUMPDEST DUP2 DUP2 LT PUSH2 0x13E2 JUMPI POP SWAP1 DUP5 PUSH1 0x1 SWAP6 SWAP5 SWAP4 SWAP3 LT PUSH2 0x13C9 JUMPI JUMPDEST POP POP POP DUP2 SHL ADD PUSH1 0x2 SSTORE PUSH2 0x125E JUMP JUMPDEST ADD MLOAD PUSH1 0x0 NOT PUSH1 0xF8 DUP5 PUSH1 0x3 SHL AND SHR NOT AND SWAP1 SSTORE CODESIZE DUP1 DUP1 PUSH2 0x13BB JUMP JUMPDEST SWAP3 SWAP4 PUSH1 0x20 PUSH1 0x1 DUP2 SWAP3 DUP8 DUP7 ADD MLOAD DUP2 SSTORE ADD SWAP6 ADD SWAP4 ADD PUSH2 0x13A5 JUMP JUMPDEST PUSH1 0x2 DUP10 MSTORE PUSH2 0x1431 SWAP1 PUSH1 0x0 DUP1 MLOAD PUSH1 0x20 PUSH2 0x3065 DUP4 CODECOPY DUP2 MLOAD SWAP2 MSTORE PUSH1 0x1F DUP6 ADD PUSH1 0x5 SHR DUP2 ADD SWAP2 PUSH1 0x20 DUP7 LT PUSH2 0x1437 JUMPI JUMPDEST PUSH1 0x1F ADD PUSH1 0x5 SHR ADD SWAP1 PUSH2 0x2714 JUMP JUMPDEST CODESIZE PUSH2 0x1238 JUMP JUMPDEST SWAP1 SWAP2 POP DUP2 SWAP1 PUSH2 0x1424 JUMP JUMPDEST PUSH4 0x4E487B71 PUSH1 0xE0 SHL DUP9 MSTORE PUSH1 0x41 PUSH1 0x4 MSTORE PUSH1 0x24 DUP9 REVERT JUMPDEST PUSH1 0x1 DUP11 MSTORE DUP2 DUP11 KECCAK256 SWAP2 SWAP1 PUSH1 0x1F NOT DUP5 AND DUP12 JUMPDEST DUP2 DUP2 LT PUSH2 0x14A2 JUMPI POP SWAP1 DUP5 PUSH1 0x1 SWAP6 SWAP5 SWAP4 SWAP3 LT PUSH2 0x1489 JUMPI JUMPDEST POP POP POP DUP2 SHL ADD PUSH1 0x1 SSTORE PUSH2 0x1213 JUMP JUMPDEST ADD MLOAD PUSH1 0x0 NOT PUSH1 0xF8 DUP5 PUSH1 0x3 SHL AND SHR NOT AND SWAP1 SSTORE CODESIZE DUP1 DUP1 PUSH2 0x147B JUMP JUMPDEST SWAP3 SWAP4 PUSH1 0x20 PUSH1 0x1 DUP2 SWAP3 DUP8 DUP7 ADD MLOAD DUP2 SSTORE ADD SWAP6 ADD SWAP4 ADD PUSH2 0x1465 JUMP JUMPDEST PUSH1 0x1 DUP11 MSTORE PUSH2 0x14F0 SWAP1 PUSH1 0x0 DUP1 MLOAD PUSH1 0x20 PUSH2 0x3145 DUP4 CODECOPY DUP2 MLOAD SWAP2 MSTORE PUSH1 0x1F DUP6 ADD PUSH1 0x5 SHR DUP2 ADD SWAP2 PUSH1 0x20 DUP7 LT PUSH2 0x1437 JUMPI PUSH1 0x1F ADD PUSH1 0x5 SHR ADD SWAP1 PUSH2 0x2714 JUMP JUMPDEST CODESIZE PUSH2 0x11EC JUMP JUMPDEST PUSH4 0x4E487B71 PUSH1 0xE0 SHL DUP10 MSTORE PUSH1 0x41 PUSH1 0x4 MSTORE PUSH1 0x24 DUP10 REVERT JUMPDEST PUSH1 0x40 MLOAD PUSH3 0x461BCD PUSH1 0xE5 SHL DUP2 MSTORE PUSH1 0x20 PUSH1 0x4 DUP3 ADD MSTORE PUSH1 0x12 PUSH1 0x24 DUP3 ADD MSTORE PUSH18 0x496E76616C69642062617463682073697A65 PUSH1 0x70 SHL PUSH1 0x44 DUP3 ADD MSTORE PUSH1 0x64 SWAP1 REVERT JUMPDEST PUSH1 0x40 MLOAD PUSH3 0x461BCD PUSH1 0xE5 SHL DUP2 MSTORE PUSH1 0x20 PUSH1 0x4 DUP3 ADD MSTORE PUSH1 0x15 PUSH1 0x24 DUP3 ADD MSTORE PUSH21 0x24B73B30B634B21036B0BC1034BA32B930BA34B7B7 PUSH1 0x59 SHL PUSH1 0x44 DUP3 ADD MSTORE PUSH1 0x64 SWAP1 REVERT JUMPDEST PUSH1 0x40 MLOAD PUSH3 0x461BCD PUSH1 0xE5 SHL DUP2 MSTORE PUSH1 0x20 PUSH1 0x4 DUP3 ADD MSTORE PUSH1 0x1A PUSH1 0x24 DUP3 ADD MSTORE PUSH26 0x496E76616C696420636F6E747261637420616464726573736573 PUSH1 0x30 SHL PUSH1 0x44 DUP3 ADD MSTORE PUSH1 0x64 SWAP1 REVERT JUMPDEST POP DUP8 ISZERO ISZERO PUSH2 0x1178 JUMP JUMPDEST DUP10 SLOAD PUSH1 0x40 MLOAD PUSH4 0x2D05D3F PUSH1 0xE0 SHL DUP2 MSTORE SWAP1 PUSH1 0x20 SWAP1 DUP3 SWAP1 PUSH1 0x4 SWAP1 DUP3 SWAP1 PUSH1 0x1 PUSH1 0x1 PUSH1 0xA0 SHL SUB AND GAS STATICCALL SWAP1 DUP2 ISZERO PUSH2 0x1691 JUMPI DUP12 SWAP2 PUSH2 0x1653 JUMPI JUMPDEST POP PUSH1 0x1 PUSH1 0x1 PUSH1 0xA0 SHL SUB AND CALLER EQ PUSH2 0x116F JUMPI PUSH1 0x64 PUSH1 0x40 MLOAD PUSH3 0x461BCD PUSH1 0xE5 SHL DUP2 MSTORE PUSH1 0x20 PUSH1 0x4 DUP3 ADD MSTORE PUSH1 0x20 PUSH1 0x24 DUP3 ADD MSTORE PUSH32 0x4F6E6C792063726561746F7220616674657220696E697469616C207365747570 PUSH1 0x44 DUP3 ADD MSTORE REVERT JUMPDEST SWAP1 POP PUSH1 0x20 DUP2 RETURNDATASIZE PUSH1 0x20 GT PUSH2 0x1689 JUMPI JUMPDEST DUP2 PUSH2 0x166E PUSH1 0x20 SWAP4 DUP4 PUSH2 0x20C7 JUMP JUMPDEST DUP2 ADD SUB SLT PUSH2 0x1685 JUMPI PUSH2 0x167F SWAP1 PUSH2 0x262E JUMP JUMPDEST CODESIZE PUSH2 0x15FF JUMP JUMPDEST DUP11 DUP1 REVERT JUMPDEST RETURNDATASIZE SWAP2 POP PUSH2 0x1661 JUMP JUMPDEST PUSH1 0x40 MLOAD RETURNDATASIZE DUP14 DUP3 RETURNDATACOPY RETURNDATASIZE SWAP1 REVERT JUMPDEST POP PUSH1 0xA SLOAD PUSH1 0x1 PUSH1 0x1 PUSH1 0xA0 SHL SUB AND ISZERO ISZERO PUSH2 0x116A JUMP JUMPDEST DUP9 DUP1 REVERT JUMPDEST DUP8 DUP1 REVERT JUMPDEST DUP5 DUP1 REVERT JUMPDEST POP CALLVALUE PUSH2 0x2C9 JUMPI PUSH1 0x20 CALLDATASIZE PUSH1 0x3 NOT ADD SLT PUSH2 0x2C9 JUMPI PUSH1 0x4 CALLDATALOAD PUSH1 0x1 PUSH1 0x1 PUSH1 0x40 SHL SUB DUP2 GT PUSH2 0x2B2 JUMPI PUSH2 0x16ED SWAP1 CALLDATASIZE SWAP1 PUSH1 0x4 ADD PUSH2 0x2132 JUMP JUMPDEST DUP2 SLOAD PUSH1 0x40 MLOAD PUSH4 0x2D05D3F PUSH1 0xE0 SHL DUP2 MSTORE PUSH1 0x1 PUSH1 0x1 PUSH1 0xA0 SHL SUB SWAP1 SWAP2 AND SWAP1 PUSH1 0x20 DUP2 PUSH1 0x4 DUP2 DUP6 GAS STATICCALL SWAP1 DUP2 ISZERO PUSH2 0x4B9 JUMPI DUP5 SWAP2 PUSH2 0x183E JUMPI JUMPDEST POP PUSH1 0x4 SWAP2 PUSH1 0x20 SWAP2 PUSH2 0x173A SWAP1 PUSH1 0x1 PUSH1 0x1 PUSH1 0xA0 SHL SUB AND CALLER EQ PUSH2 0x2642 JUMP JUMPDEST PUSH1 0x40 MLOAD PUSH4 0x8BCF8B5 PUSH1 0xE2 SHL DUP2 MSTORE SWAP3 DUP4 SWAP2 DUP3 SWAP1 GAS STATICCALL SWAP1 DUP2 ISZERO PUSH2 0x84E JUMPI DUP4 SWAP2 PUSH2 0x180F JUMPI JUMPDEST POP ISZERO PUSH2 0x17DF JUMPI PUSH1 0xB SLOAD SWAP1 PUSH1 0x1 DUP3 ADD DUP1 SWAP3 GT PUSH2 0x17CB JUMPI DUP2 PUSH1 0x0 DUP1 MLOAD PUSH1 0x20 PUSH2 0x30A5 DUP4 CODECOPY DUP2 MLOAD SWAP2 MSTORE PUSH2 0x17B3 PUSH1 0x20 SWAP4 PUSH1 0x0 DUP1 MLOAD PUSH1 0x20 PUSH2 0x3125 DUP4 CODECOPY DUP2 MLOAD SWAP2 MSTORE SWAP6 PUSH1 0xB SSTORE PUSH1 0x40 MLOAD SWAP2 DUP3 SWAP2 DUP6 DUP4 MSTORE PUSH1 0x60 DUP8 DUP5 ADD MSTORE PUSH1 0x60 DUP4 ADD SWAP1 PUSH2 0x24EF JUMP JUMPDEST TIMESTAMP PUSH1 0x40 DUP4 ADD MSTORE SUB SWAP1 LOG1 PUSH1 0x40 MLOAD SWAP1 DUP2 MSTORE LOG1 PUSH2 0x52A PUSH2 0x2B24 JUMP JUMPDEST PUSH4 0x4E487B71 PUSH1 0xE0 SHL DUP4 MSTORE PUSH1 0x11 PUSH1 0x4 MSTORE PUSH1 0x24 DUP4 REVERT JUMPDEST PUSH1 0x40 MLOAD PUSH3 0x461BCD PUSH1 0xE5 SHL DUP2 MSTORE PUSH1 0x20 PUSH1 0x4 DUP3 ADD MSTORE PUSH1 0x8 PUSH1 0x24 DUP3 ADD MSTORE PUSH8 0x496E616374697665 PUSH1 0xC0 SHL PUSH1 0x44 DUP3 ADD MSTORE PUSH1 0x64 SWAP1 REVERT JUMPDEST PUSH2 0x1831 SWAP2 POP PUSH1 0x20 RETURNDATASIZE PUSH1 0x20 GT PUSH2 0x1837 JUMPI JUMPDEST PUSH2 0x1829 DUP2 DUP4 PUSH2 0x20C7 JUMP JUMPDEST DUP2 ADD SWAP1 PUSH2 0x273E JUMP JUMPDEST CODESIZE PUSH2 0x175C JUMP JUMPDEST POP RETURNDATASIZE PUSH2 0x181F JUMP JUMPDEST SWAP1 POP PUSH1 0x20 DUP2 RETURNDATASIZE PUSH1 0x20 GT PUSH2 0x187B JUMPI JUMPDEST DUP2 PUSH2 0x1859 PUSH1 0x20 SWAP4 DUP4 PUSH2 0x20C7 JUMP JUMPDEST DUP2 ADD SUB SLT PUSH2 0x42C JUMPI PUSH1 0x4 SWAP2 PUSH2 0x173A PUSH2 0x1872 PUSH1 0x20 SWAP4 PUSH2 0x262E JUMP JUMPDEST SWAP3 POP POP SWAP2 PUSH2 0x171F JUMP JUMPDEST RETURNDATASIZE SWAP2 POP PUSH2 0x184C JUMP JUMPDEST POP CALLVALUE PUSH2 0x2C9 JUMPI PUSH2 0x1906 PUSH32 0xA1E2F362CCC64DE291011914F5087C611557A7331C80F2CDD2AACF89B9DC564 PUSH2 0x18B6 CALLDATASIZE PUSH2 0x2249 JUMP JUMPDEST PUSH2 0x18CB PUSH1 0x1 DUP1 PUSH1 0xA0 SHL SUB PUSH1 0x9 SLOAD AND CALLER EQ PUSH2 0x267D JUMP JUMPDEST PUSH1 0x40 MLOAD PUSH1 0x20 DUP2 DUP5 MLOAD PUSH2 0x18E0 DUP2 DUP4 DUP6 DUP10 ADD PUSH2 0x24CC JUMP JUMPDEST DUP2 ADD PUSH1 0x8 DUP2 MSTORE SUB ADD SWAP1 KECCAK256 PUSH1 0xFF NOT DUP2 SLOAD AND SWAP1 SSTORE PUSH1 0xB SLOAD SWAP4 DUP5 SWAP3 PUSH1 0x40 MLOAD SWAP4 DUP5 SWAP4 TIMESTAMP SWAP3 DUP6 PUSH2 0x26C9 JUMP JUMPDEST SUB SWAP1 LOG1 PUSH1 0x1 SWAP1 DUP3 SWAP2 DUP4 PUSH1 0x7 SLOAD SWAP1 JUMPDEST DUP2 DUP2 LT PUSH2 0x19FC JUMPI POP DUP2 PUSH2 0x19F2 JUMPI JUMPDEST POP PUSH2 0x192B JUMPI DUP3 DUP1 RETURN JUMPDEST PUSH32 0x72DB402A1D505E0EE50FBA411E34BD1F9A6E90AB67B824C438255E747A886B28 SWAP2 PUSH2 0x195E PUSH1 0x40 MLOAD SWAP3 DUP4 SWAP3 TIMESTAMP SWAP2 DUP5 PUSH2 0x26FE JUMP JUMPDEST SUB SWAP1 LOG1 PUSH1 0x7 SLOAD DUP2 PUSH1 0x7 SSTORE DUP1 PUSH2 0x1972 JUMPI DUP1 DUP3 DUP1 RETURN JUMPDEST PUSH1 0x7 DUP3 MSTORE PUSH1 0x0 DUP1 MLOAD PUSH1 0x20 PUSH2 0x30C5 DUP4 CODECOPY DUP2 MLOAD SWAP2 MSTORE SWAP1 DUP2 ADD SWAP1 JUMPDEST DUP2 DUP2 LT PUSH2 0x1997 JUMPI POP DUP1 DUP3 DUP1 RETURN JUMPDEST DUP1 PUSH2 0x19A4 PUSH1 0x1 SWAP3 SLOAD PUSH2 0x22C4 JUMP JUMPDEST DUP1 PUSH2 0x19B1 JUMPI JUMPDEST POP ADD PUSH2 0x198A JUMP JUMPDEST PUSH1 0x1F DUP2 GT DUP4 EQ PUSH2 0x19C6 JUMPI POP DUP4 DUP2 SSTORE JUMPDEST CODESIZE PUSH2 0x19AA JUMP JUMPDEST DUP2 DUP6 MSTORE PUSH1 0x20 DUP6 KECCAK256 PUSH2 0x19E1 SWAP2 PUSH1 0x1F ADD PUSH1 0x5 SHR DUP2 ADD SWAP1 DUP5 ADD PUSH2 0x2714 JUMP JUMPDEST DUP1 DUP5 MSTORE DUP4 PUSH1 0x20 DUP2 KECCAK256 DUP2 DUP4 SSTORE SSTORE PUSH2 0x19C0 JUMP JUMPDEST SWAP1 POP ISZERO ISZERO CODESIZE PUSH2 0x1922 JUMP JUMPDEST SWAP2 PUSH2 0x1A06 DUP4 PUSH2 0x2293 JUMP JUMPDEST POP PUSH1 0x40 MLOAD SWAP1 DUP8 SWAP1 DUP1 SLOAD SWAP1 PUSH2 0x1A19 DUP3 PUSH2 0x22C4 JUMP JUMPDEST SWAP2 PUSH1 0x1 DUP2 AND SWAP1 DUP2 ISZERO PUSH2 0x1AAE JUMPI POP PUSH1 0x1 EQ PUSH2 0x1A7B JUMPI JUMPDEST POP POP PUSH1 0x8 DUP2 MSTORE DUP2 SWAP1 SUB PUSH1 0x20 ADD SWAP1 KECCAK256 SLOAD PUSH1 0xFF AND ISZERO PUSH2 0x1A51 JUMPI POP PUSH1 0x1 DUP6 SWAP3 JUMPDEST ADD PUSH2 0x1914 JUMP JUMPDEST SWAP2 SWAP4 PUSH1 0x0 NOT DUP2 EQ PUSH2 0x1A67 JUMPI PUSH1 0x1 DUP1 SWAP2 ADD SWAP5 PUSH2 0x1A4B JUMP JUMPDEST PUSH4 0x4E487B71 PUSH1 0xE0 SHL DUP7 MSTORE PUSH1 0x11 PUSH1 0x4 MSTORE PUSH1 0x24 DUP7 REVERT JUMPDEST SWAP1 SWAP2 POP DUP9 MSTORE PUSH1 0x20 DUP9 KECCAK256 DUP9 SWAP1 JUMPDEST DUP3 DUP3 LT PUSH2 0x1A9A JUMPI POP POP DUP2 ADD PUSH1 0x20 DUP3 PUSH2 0x1A2E JUMP JUMPDEST PUSH1 0x1 DUP2 PUSH1 0x20 SWAP3 SLOAD DUP5 DUP8 ADD MSTORE ADD SWAP2 ADD SWAP1 PUSH2 0x1A87 JUMP JUMPDEST PUSH1 0xFF NOT AND DUP6 MSTORE POP POP DUP1 ISZERO ISZERO MUL DUP3 ADD SWAP1 POP PUSH1 0x20 DUP3 PUSH2 0x1A2E JUMP JUMPDEST POP CALLVALUE PUSH2 0x2C9 JUMPI DUP1 PUSH1 0x3 NOT CALLDATASIZE ADD SLT PUSH2 0x2C9 JUMPI DUP1 SLOAD PUSH1 0x40 MLOAD PUSH4 0x2D05D3F PUSH1 0xE0 SHL DUP2 MSTORE SWAP1 PUSH1 0x20 SWAP1 DUP3 SWAP1 PUSH1 0x4 SWAP1 DUP3 SWAP1 PUSH1 0x1 PUSH1 0x1 PUSH1 0xA0 SHL SUB AND GAS STATICCALL DUP1 ISZERO PUSH2 0x2BE JUMPI DUP3 SWAP1 PUSH2 0x1B7E JUMPI JUMPDEST PUSH2 0x1B1E SWAP2 POP PUSH1 0x1 PUSH1 0x1 PUSH1 0xA0 SHL SUB AND CALLER EQ PUSH2 0x2642 JUMP JUMPDEST PUSH1 0xC SLOAD PUSH1 0xFF DUP2 AND PUSH2 0x1B3B JUMPI PUSH1 0xFF NOT AND PUSH1 0x1 OR PUSH1 0xC SSTORE PUSH2 0x52A PUSH2 0x2B24 JUMP JUMPDEST PUSH1 0x40 MLOAD PUSH3 0x461BCD PUSH1 0xE5 SHL DUP2 MSTORE PUSH1 0x20 PUSH1 0x4 DUP3 ADD MSTORE PUSH1 0x1B PUSH1 0x24 DUP3 ADD MSTORE PUSH27 0x105B1C9958591E481B585C9AD95908185CC8195E1A185D5CDD1959 PUSH1 0x2A SHL PUSH1 0x44 DUP3 ADD MSTORE PUSH1 0x64 SWAP1 REVERT JUMPDEST POP PUSH1 0x20 DUP2 RETURNDATASIZE PUSH1 0x20 GT PUSH2 0x1BB1 JUMPI JUMPDEST DUP2 PUSH2 0x1B98 PUSH1 0x20 SWAP4 DUP4 PUSH2 0x20C7 JUMP JUMPDEST DUP2 ADD SUB SLT PUSH2 0x2B2 JUMPI PUSH2 0x1BAC PUSH2 0x1B1E SWAP2 PUSH2 0x262E JUMP JUMPDEST PUSH2 0x1B09 JUMP JUMPDEST RETURNDATASIZE SWAP2 POP PUSH2 0x1B8B JUMP JUMPDEST POP CALLVALUE PUSH2 0x2C9 JUMPI PUSH2 0x1BC8 CALLDATASIZE PUSH2 0x21FC JUMP JUMPDEST PUSH1 0x9 SLOAD SWAP1 SWAP2 SWAP1 PUSH2 0x1BE2 SWAP1 PUSH1 0x1 PUSH1 0x1 PUSH1 0xA0 SHL SUB AND ISZERO ISZERO PUSH2 0x256D JUMP JUMPDEST DUP1 MLOAD DUP3 MLOAD SUB PUSH2 0x2069 JUMPI DUP1 MLOAD ISZERO PUSH2 0x2036 JUMPI DUP3 JUMPDEST DUP2 MLOAD DUP2 LT ISZERO PUSH2 0x1D0B JUMPI PUSH1 0xFF PUSH2 0x1C22 PUSH1 0x20 PUSH2 0x1C0E DUP5 DUP7 PUSH2 0x25B3 JUMP JUMPDEST MLOAD DUP2 PUSH1 0x40 MLOAD SWAP4 DUP3 DUP6 DUP1 SWAP5 MLOAD SWAP4 DUP5 SWAP3 ADD PUSH2 0x24CC JUMP JUMPDEST DUP2 ADD PUSH1 0x8 DUP2 MSTORE SUB ADD SWAP1 KECCAK256 SLOAD AND ISZERO PUSH2 0x1CC7 JUMPI PUSH2 0x1C3D DUP2 DUP4 PUSH2 0x25B3 JUMP JUMPDEST MLOAD MLOAD ISZERO PUSH2 0x1C90 JUMPI PUSH2 0x1C4E DUP2 DUP5 PUSH2 0x25B3 JUMP JUMPDEST MLOAD MLOAD ISZERO PUSH2 0x1C5D JUMPI PUSH1 0x1 ADD PUSH2 0x1BF4 JUMP JUMPDEST PUSH1 0x40 MLOAD PUSH3 0x461BCD PUSH1 0xE5 SHL DUP2 MSTORE PUSH1 0x20 PUSH1 0x4 DUP3 ADD MSTORE PUSH1 0xB PUSH1 0x24 DUP3 ADD MSTORE PUSH11 0x115B5C1D1E481B1858995B PUSH1 0xAA SHL PUSH1 0x44 DUP3 ADD MSTORE PUSH1 0x64 SWAP1 REVERT JUMPDEST PUSH1 0x40 MLOAD PUSH3 0x461BCD PUSH1 0xE5 SHL DUP2 MSTORE PUSH1 0x20 PUSH1 0x4 DUP3 ADD MSTORE PUSH1 0xF PUSH1 0x24 DUP3 ADD MSTORE PUSH15 0x115B5C1D1E481CD85B5C1B19481251 PUSH1 0x8A SHL PUSH1 0x44 DUP3 ADD MSTORE PUSH1 0x64 SWAP1 REVERT JUMPDEST PUSH1 0x40 MLOAD PUSH3 0x461BCD PUSH1 0xE5 SHL DUP2 MSTORE PUSH1 0x20 PUSH1 0x4 DUP3 ADD MSTORE PUSH1 0x1C PUSH1 0x24 DUP3 ADD MSTORE PUSH28 0x53616D706C65206E6F742061637469766520666F7220766F74696E67 PUSH1 0x20 SHL PUSH1 0x44 DUP3 ADD MSTORE PUSH1 0x64 SWAP1 REVERT JUMPDEST POP DUP3 SLOAD PUSH1 0x40 MLOAD PUSH4 0xB9EB40B PUSH1 0xE3 SHL DUP2 MSTORE CALLER PUSH1 0x4 DUP3 ADD MSTORE SWAP2 SWAP3 SWAP2 DUP5 SWAP2 PUSH1 0x1 PUSH1 0x1 PUSH1 0xA0 SHL SUB AND SWAP1 DUP3 DUP2 PUSH1 0x24 DUP2 DUP6 GAS STATICCALL SWAP1 DUP2 ISZERO PUSH2 0x84E JUMPI DUP4 SWAP2 PUSH2 0x201C JUMPI JUMPDEST POP MLOAD ISZERO PUSH2 0x1FA9 JUMPI JUMPDEST POP DUP1 SLOAD PUSH1 0x40 MLOAD PUSH4 0xB9EB40B PUSH1 0xE3 SHL DUP2 MSTORE CALLER PUSH1 0x4 DUP3 ADD MSTORE SWAP2 SWAP1 DUP3 SWAP1 PUSH1 0x24 SWAP1 DUP3 SWAP1 PUSH1 0x1 PUSH1 0x1 PUSH1 0xA0 SHL SUB AND GAS STATICCALL SWAP1 DUP2 ISZERO PUSH2 0x4B9 JUMPI DUP5 SWAP2 PUSH2 0x1F87 JUMPI JUMPDEST POP MLOAD ISZERO PUSH2 0x1F46 JUMPI PUSH1 0x9 SLOAD PUSH1 0x40 MLOAD PUSH4 0x20A7C73B PUSH1 0xE1 SHL DUP2 MSTORE CALLER PUSH1 0x4 DUP3 ADD MSTORE PUSH1 0x1 PUSH1 0x1 PUSH1 0xA0 SHL SUB SWAP1 SWAP2 AND SWAP3 SWAP1 PUSH1 0x20 DUP2 PUSH1 0x24 DUP2 DUP8 GAS STATICCALL SWAP1 DUP2 ISZERO PUSH2 0x1F3B JUMPI DUP6 SWAP2 PUSH2 0x1F09 JUMPI JUMPDEST POP ISZERO PUSH2 0x1EB4 JUMPI DUP4 JUMPDEST DUP5 DUP3 MLOAD DUP3 LT ISZERO PUSH2 0x1E51 JUMPI POP DUP1 PUSH32 0x55B5B37DB3E79E0CF5FA16C3B213F5856EBAF6A6E58C56813245533B65587BBD PUSH2 0x1E2E PUSH2 0x1E0B PUSH1 0x1 SWAP5 DUP7 PUSH2 0x25B3 JUMP JUMPDEST MLOAD PUSH2 0x1E42 PUSH2 0x1E19 DUP6 DUP10 PUSH2 0x25B3 JUMP JUMPDEST MLOAD PUSH1 0x40 MLOAD SWAP4 DUP5 SWAP4 PUSH1 0x80 DUP6 MSTORE PUSH1 0x80 DUP6 ADD SWAP1 PUSH2 0x24EF JUMP JUMPDEST SWAP1 CALLER PUSH1 0x20 DUP6 ADD MSTORE DUP4 DUP3 SUB PUSH1 0x40 DUP6 ADD MSTORE PUSH2 0x24EF JUMP JUMPDEST TIMESTAMP PUSH1 0x60 DUP4 ADD MSTORE SUB SWAP1 LOG1 ADD PUSH2 0x1DCF JUMP JUMPDEST SWAP4 SWAP3 SWAP1 POP DUP3 EXTCODESIZE ISZERO PUSH2 0xC36 JUMPI PUSH2 0x1E9D SWAP3 PUSH2 0x1E8B DUP6 DUP1 SWAP5 PUSH1 0x40 MLOAD SWAP7 DUP8 SWAP6 DUP7 SWAP5 DUP6 SWAP4 PUSH4 0x9A6E81AB PUSH1 0xE0 SHL DUP6 MSTORE PUSH1 0x60 PUSH1 0x4 DUP7 ADD MSTORE PUSH1 0x64 DUP6 ADD SWAP1 PUSH2 0x2514 JUMP JUMPDEST DUP4 DUP2 SUB PUSH1 0x3 NOT ADD PUSH1 0x24 DUP6 ADD MSTORE SWAP1 PUSH2 0x2514 JUMP JUMPDEST CALLER PUSH1 0x44 DUP4 ADD MSTORE SUB SWAP3 GAS CALL DUP1 ISZERO PUSH2 0x2BE JUMPI PUSH2 0x7C5 JUMPI POP RETURN JUMPDEST PUSH1 0x40 MLOAD PUSH3 0x461BCD PUSH1 0xE5 SHL DUP2 MSTORE PUSH1 0x20 PUSH1 0x4 DUP3 ADD MSTORE PUSH1 0x27 PUSH1 0x24 DUP3 ADD MSTORE PUSH32 0x566F746572206E6F74207265676973746572656420696E20766F74696E672063 PUSH1 0x44 DUP3 ADD MSTORE PUSH7 0x1BDB9D1C9858DD PUSH1 0xCA SHL PUSH1 0x64 DUP3 ADD MSTORE PUSH1 0x84 SWAP1 REVERT JUMPDEST SWAP1 POP PUSH1 0x20 DUP2 RETURNDATASIZE PUSH1 0x20 GT PUSH2 0x1F33 JUMPI JUMPDEST DUP2 PUSH2 0x1F24 PUSH1 0x20 SWAP4 DUP4 PUSH2 0x20C7 JUMP JUMPDEST DUP2 ADD SUB SLT PUSH2 0x16B8 JUMPI MLOAD CODESIZE PUSH2 0x1DC7 JUMP JUMPDEST RETURNDATASIZE SWAP2 POP PUSH2 0x1F17 JUMP JUMPDEST PUSH1 0x40 MLOAD RETURNDATASIZE DUP8 DUP3 RETURNDATACOPY RETURNDATASIZE SWAP1 REVERT JUMPDEST PUSH1 0x40 MLOAD PUSH3 0x461BCD PUSH1 0xE5 SHL DUP2 MSTORE PUSH1 0x20 PUSH1 0x4 DUP3 ADD MSTORE PUSH1 0x19 PUSH1 0x24 DUP3 ADD MSTORE PUSH25 0x139BDD0818481C1C9BDA9958DD081C185C9D1A58DA5C185B9D PUSH1 0x3A SHL PUSH1 0x44 DUP3 ADD MSTORE PUSH1 0x64 SWAP1 REVERT JUMPDEST PUSH2 0x1FA3 SWAP2 POP RETURNDATASIZE DUP1 DUP7 DUP4 RETURNDATACOPY PUSH2 0x1F9B DUP2 DUP4 PUSH2 0x20C7 JUMP JUMPDEST DUP2 ADD SWAP1 PUSH2 0x2609 JUMP JUMPDEST CODESIZE PUSH2 0x1D86 JUMP JUMPDEST DUP1 EXTCODESIZE ISZERO PUSH2 0x2B2 JUMPI DUP2 SWAP1 PUSH1 0xA4 PUSH1 0x40 MLOAD DUP1 SWAP5 DUP2 SWAP4 PUSH4 0x20011EB PUSH1 0xE1 SHL DUP4 MSTORE CALLER PUSH1 0x4 DUP5 ADD MSTORE PUSH1 0x60 PUSH1 0x24 DUP5 ADD MSTORE PUSH1 0xB PUSH1 0x64 DUP5 ADD MSTORE PUSH11 0x31B7B73A3934B13ABA37B9 PUSH1 0xA9 SHL PUSH1 0x84 DUP5 ADD MSTORE PUSH1 0x1 PUSH1 0x44 DUP5 ADD MSTORE GAS CALL DUP1 ISZERO PUSH2 0x4B9 JUMPI PUSH2 0x2008 JUMPI JUMPDEST DUP4 SWAP1 PUSH2 0x1D4E JUMP JUMPDEST DUP4 PUSH2 0x2015 SWAP2 SWAP5 SWAP3 SWAP5 PUSH2 0x20C7 JUMP JUMPDEST SWAP2 CODESIZE PUSH2 0x2001 JUMP JUMPDEST PUSH2 0x2030 SWAP2 POP RETURNDATASIZE DUP1 DUP6 DUP4 RETURNDATACOPY PUSH2 0x1F9B DUP2 DUP4 PUSH2 0x20C7 JUMP JUMPDEST CODESIZE PUSH2 0x1D46 JUMP JUMPDEST PUSH1 0x40 MLOAD PUSH3 0x461BCD PUSH1 0xE5 SHL DUP2 MSTORE PUSH1 0x20 PUSH1 0x4 DUP3 ADD MSTORE PUSH1 0xB PUSH1 0x24 DUP3 ADD MSTORE PUSH11 0x8ADAE0E8F240C4C2E8C6D PUSH1 0xAB SHL PUSH1 0x44 DUP3 ADD MSTORE PUSH1 0x64 SWAP1 REVERT JUMPDEST PUSH1 0x40 MLOAD PUSH3 0x461BCD PUSH1 0xE5 SHL DUP2 MSTORE PUSH1 0x20 PUSH1 0x4 DUP3 ADD MSTORE PUSH1 0x11 PUSH1 0x24 DUP3 ADD MSTORE PUSH17 0x4D69736D61746368656420617272617973 PUSH1 0x78 SHL PUSH1 0x44 DUP3 ADD MSTORE PUSH1 0x64 SWAP1 REVERT JUMPDEST SWAP1 POP CALLVALUE PUSH2 0x2B2 JUMPI DUP2 PUSH1 0x3 NOT CALLDATASIZE ADD SLT PUSH2 0x2B2 JUMPI PUSH1 0xA SLOAD PUSH1 0x1 PUSH1 0x1 PUSH1 0xA0 SHL SUB AND DUP2 MSTORE PUSH1 0x20 SWAP1 RETURN JUMPDEST PUSH1 0x1F SWAP1 SWAP2 ADD PUSH1 0x1F NOT AND DUP2 ADD SWAP1 PUSH1 0x1 PUSH1 0x1 PUSH1 0x40 SHL SUB DUP3 GT SWAP1 DUP3 LT OR PUSH2 0x20EA JUMPI PUSH1 0x40 MSTORE JUMP JUMPDEST PUSH4 0x4E487B71 PUSH1 0xE0 SHL PUSH1 0x0 MSTORE PUSH1 0x41 PUSH1 0x4 MSTORE PUSH1 0x24 PUSH1 0x0 REVERT JUMPDEST PUSH1 0x1 PUSH1 0x1 PUSH1 0x40 SHL SUB DUP2 GT PUSH2 0x20EA JUMPI PUSH1 0x5 SHL PUSH1 0x20 ADD SWAP1 JUMP JUMPDEST PUSH1 0x1 PUSH1 0x1 PUSH1 0x40 SHL SUB DUP2 GT PUSH2 0x20EA JUMPI PUSH1 0x1F ADD PUSH1 0x1F NOT AND PUSH1 0x20 ADD SWAP1 JUMP JUMPDEST DUP2 PUSH1 0x1F DUP3 ADD SLT ISZERO PUSH2 0x2179 JUMPI DUP1 CALLDATALOAD SWAP1 PUSH2 0x2149 DUP3 PUSH2 0x2117 JUMP JUMPDEST SWAP3 PUSH2 0x2157 PUSH1 0x40 MLOAD SWAP5 DUP6 PUSH2 0x20C7 JUMP JUMPDEST DUP3 DUP5 MSTORE PUSH1 0x20 DUP4 DUP4 ADD ADD GT PUSH2 0x2179 JUMPI DUP2 PUSH1 0x0 SWAP3 PUSH1 0x20 DUP1 SWAP4 ADD DUP4 DUP7 ADD CALLDATACOPY DUP4 ADD ADD MSTORE SWAP1 JUMP JUMPDEST PUSH1 0x0 DUP1 REVERT JUMPDEST SWAP1 DUP1 PUSH1 0x1F DUP4 ADD SLT ISZERO PUSH2 0x2179 JUMPI DUP2 CALLDATALOAD PUSH2 0x2195 DUP2 PUSH2 0x2100 JUMP JUMPDEST SWAP3 PUSH2 0x21A3 PUSH1 0x40 MLOAD SWAP5 DUP6 PUSH2 0x20C7 JUMP JUMPDEST DUP2 DUP5 MSTORE PUSH1 0x20 DUP1 DUP6 ADD SWAP3 PUSH1 0x5 SHL DUP3 ADD ADD SWAP2 DUP4 DUP4 GT PUSH2 0x2179 JUMPI PUSH1 0x20 DUP3 ADD SWAP1 JUMPDEST DUP4 DUP3 LT PUSH2 0x21CF JUMPI POP POP POP POP POP SWAP1 JUMP JUMPDEST DUP2 CALLDATALOAD PUSH1 0x1 PUSH1 0x1 PUSH1 0x40 SHL SUB DUP2 GT PUSH2 0x2179 JUMPI PUSH1 0x20 SWAP2 PUSH2 0x21F1 DUP8 DUP5 DUP1 SWAP5 DUP9 ADD ADD PUSH2 0x2132 JUMP JUMPDEST DUP2 MSTORE ADD SWAP2 ADD SWAP1 PUSH2 0x21C0 JUMP JUMPDEST SWAP1 PUSH1 0x40 PUSH1 0x3 NOT DUP4 ADD SLT PUSH2 0x2179 JUMPI PUSH1 0x4 CALLDATALOAD PUSH1 0x1 PUSH1 0x1 PUSH1 0x40 SHL SUB DUP2 GT PUSH2 0x2179 JUMPI DUP3 PUSH2 0x2227 SWAP2 PUSH1 0x4 ADD PUSH2 0x217E JUMP JUMPDEST SWAP2 PUSH1 0x24 CALLDATALOAD SWAP1 PUSH1 0x1 PUSH1 0x1 PUSH1 0x40 SHL SUB DUP3 GT PUSH2 0x2179 JUMPI PUSH2 0x2246 SWAP2 PUSH1 0x4 ADD PUSH2 0x217E JUMP JUMPDEST SWAP1 JUMP JUMPDEST SWAP1 PUSH1 0x40 PUSH1 0x3 NOT DUP4 ADD SLT PUSH2 0x2179 JUMPI PUSH1 0x4 CALLDATALOAD PUSH1 0x1 PUSH1 0x1 PUSH1 0x40 SHL SUB DUP2 GT PUSH2 0x2179 JUMPI DUP3 PUSH2 0x2274 SWAP2 PUSH1 0x4 ADD PUSH2 0x2132 JUMP JUMPDEST SWAP2 PUSH1 0x24 CALLDATALOAD SWAP1 PUSH1 0x1 PUSH1 0x1 PUSH1 0x40 SHL SUB DUP3 GT PUSH2 0x2179 JUMPI PUSH2 0x2246 SWAP2 PUSH1 0x4 ADD PUSH2 0x2132 JUMP JUMPDEST PUSH1 0x7 SLOAD DUP2 LT ISZERO PUSH2 0x22AE JUMPI PUSH1 0x7 PUSH1 0x0 MSTORE PUSH1 0x20 PUSH1 0x0 KECCAK256 ADD SWAP1 PUSH1 0x0 SWAP1 JUMP JUMPDEST PUSH4 0x4E487B71 PUSH1 0xE0 SHL PUSH1 0x0 MSTORE PUSH1 0x32 PUSH1 0x4 MSTORE PUSH1 0x24 PUSH1 0x0 REVERT JUMPDEST SWAP1 PUSH1 0x1 DUP3 DUP2 SHR SWAP3 AND DUP1 ISZERO PUSH2 0x22F4 JUMPI JUMPDEST PUSH1 0x20 DUP4 LT EQ PUSH2 0x22DE JUMPI JUMP JUMPDEST PUSH4 0x4E487B71 PUSH1 0xE0 SHL PUSH1 0x0 MSTORE PUSH1 0x22 PUSH1 0x4 MSTORE PUSH1 0x24 PUSH1 0x0 REVERT JUMPDEST SWAP2 PUSH1 0x7F AND SWAP2 PUSH2 0x22D3 JUMP JUMPDEST PUSH1 0x40 MLOAD SWAP1 PUSH1 0x0 DUP3 PUSH1 0x2 SLOAD SWAP2 PUSH2 0x2312 DUP4 PUSH2 0x22C4 JUMP JUMPDEST DUP1 DUP4 MSTORE SWAP3 PUSH1 0x1 DUP2 AND SWAP1 DUP2 ISZERO PUSH2 0x2386 JUMPI POP PUSH1 0x1 EQ PUSH2 0x2338 JUMPI JUMPDEST PUSH2 0x2336 SWAP3 POP SUB DUP4 PUSH2 0x20C7 JUMP JUMPDEST JUMP JUMPDEST POP PUSH1 0x2 PUSH1 0x0 SWAP1 DUP2 MSTORE SWAP1 SWAP2 PUSH1 0x0 DUP1 MLOAD PUSH1 0x20 PUSH2 0x3065 DUP4 CODECOPY DUP2 MLOAD SWAP2 MSTORE JUMPDEST DUP2 DUP4 LT PUSH2 0x236A JUMPI POP POP SWAP1 PUSH1 0x20 PUSH2 0x2336 SWAP3 DUP3 ADD ADD PUSH2 0x232A JUMP JUMPDEST PUSH1 0x20 SWAP2 SWAP4 POP DUP1 PUSH1 0x1 SWAP2 SLOAD DUP4 DUP6 DUP10 ADD ADD MSTORE ADD SWAP2 ADD SWAP1 SWAP2 DUP5 SWAP3 PUSH2 0x2352 JUMP JUMPDEST PUSH1 0x20 SWAP3 POP PUSH2 0x2336 SWAP5 SWAP2 POP PUSH1 0xFF NOT AND DUP3 DUP5 ADD MSTORE ISZERO ISZERO PUSH1 0x5 SHL DUP3 ADD ADD PUSH2 0x232A JUMP JUMPDEST PUSH1 0x40 MLOAD SWAP1 PUSH1 0x0 DUP3 PUSH1 0x1 SLOAD SWAP2 PUSH2 0x23B9 DUP4 PUSH2 0x22C4 JUMP JUMPDEST DUP1 DUP4 MSTORE SWAP3 PUSH1 0x1 DUP2 AND SWAP1 DUP2 ISZERO PUSH2 0x2386 JUMPI POP PUSH1 0x1 EQ PUSH2 0x23DC JUMPI PUSH2 0x2336 SWAP3 POP SUB DUP4 PUSH2 0x20C7 JUMP JUMPDEST POP PUSH1 0x1 PUSH1 0x0 SWAP1 DUP2 MSTORE SWAP1 SWAP2 PUSH1 0x0 DUP1 MLOAD PUSH1 0x20 PUSH2 0x3145 DUP4 CODECOPY DUP2 MLOAD SWAP2 MSTORE JUMPDEST DUP2 DUP4 LT PUSH2 0x240E JUMPI POP POP SWAP1 PUSH1 0x20 PUSH2 0x2336 SWAP3 DUP3 ADD ADD PUSH2 0x232A JUMP JUMPDEST PUSH1 0x20 SWAP2 SWAP4 POP DUP1 PUSH1 0x1 SWAP2 SLOAD DUP4 DUP6 DUP10 ADD ADD MSTORE ADD SWAP2 ADD SWAP1 SWAP2 DUP5 SWAP3 PUSH2 0x23F6 JUMP JUMPDEST SWAP1 PUSH1 0x40 MLOAD SWAP2 DUP3 PUSH1 0x0 DUP3 SLOAD SWAP3 PUSH2 0x243E DUP5 PUSH2 0x22C4 JUMP JUMPDEST DUP1 DUP5 MSTORE SWAP4 PUSH1 0x1 DUP2 AND SWAP1 DUP2 ISZERO PUSH2 0x24AA JUMPI POP PUSH1 0x1 EQ PUSH2 0x2463 JUMPI JUMPDEST POP PUSH2 0x2336 SWAP3 POP SUB DUP4 PUSH2 0x20C7 JUMP JUMPDEST SWAP1 POP PUSH1 0x0 SWAP3 SWAP2 SWAP3 MSTORE PUSH1 0x20 PUSH1 0x0 KECCAK256 SWAP1 PUSH1 0x0 SWAP2 JUMPDEST DUP2 DUP4 LT PUSH2 0x248E JUMPI POP POP SWAP1 PUSH1 0x20 PUSH2 0x2336 SWAP3 DUP3 ADD ADD CODESIZE PUSH2 0x2456 JUMP JUMPDEST PUSH1 0x20 SWAP2 SWAP4 POP DUP1 PUSH1 0x1 SWAP2 SLOAD DUP4 DUP6 DUP10 ADD ADD MSTORE ADD SWAP2 ADD SWAP1 SWAP2 DUP5 SWAP3 PUSH2 0x2475 JUMP JUMPDEST SWAP1 POP PUSH1 0x20 SWAP3 POP PUSH2 0x2336 SWAP5 SWAP2 POP PUSH1 0xFF NOT AND DUP3 DUP5 ADD MSTORE ISZERO ISZERO PUSH1 0x5 SHL DUP3 ADD ADD CODESIZE PUSH2 0x2456 JUMP JUMPDEST PUSH1 0x0 JUMPDEST DUP4 DUP2 LT PUSH2 0x24DF JUMPI POP POP PUSH1 0x0 SWAP2 ADD MSTORE JUMP JUMPDEST DUP2 DUP2 ADD MLOAD DUP4 DUP3 ADD MSTORE PUSH1 0x20 ADD PUSH2 0x24CF JUMP JUMPDEST SWAP1 PUSH1 0x20 SWAP2 PUSH2 0x2508 DUP2 MLOAD DUP1 SWAP3 DUP2 DUP6 MSTORE DUP6 DUP1 DUP7 ADD SWAP2 ADD PUSH2 0x24CC JUMP JUMPDEST PUSH1 0x1F ADD PUSH1 0x1F NOT AND ADD ADD SWAP1 JUMP JUMPDEST SWAP1 DUP1 PUSH1 0x20 DUP4 MLOAD SWAP2 DUP3 DUP2 MSTORE ADD SWAP2 PUSH1 0x20 DUP1 DUP4 PUSH1 0x5 SHL DUP4 ADD ADD SWAP5 ADD SWAP3 PUSH1 0x0 SWAP2 JUMPDEST DUP4 DUP4 LT PUSH2 0x2540 JUMPI POP POP POP POP POP SWAP1 JUMP JUMPDEST SWAP1 SWAP2 SWAP3 SWAP4 SWAP5 PUSH1 0x20 DUP1 PUSH2 0x255E PUSH1 0x1 SWAP4 PUSH1 0x1F NOT DUP7 DUP3 SUB ADD DUP8 MSTORE DUP10 MLOAD PUSH2 0x24EF JUMP JUMPDEST SWAP8 ADD SWAP4 ADD SWAP4 ADD SWAP2 SWAP4 SWAP3 SWAP1 PUSH2 0x2531 JUMP JUMPDEST ISZERO PUSH2 0x2574 JUMPI JUMP JUMPDEST PUSH1 0x40 MLOAD PUSH3 0x461BCD PUSH1 0xE5 SHL DUP2 MSTORE PUSH1 0x20 PUSH1 0x4 DUP3 ADD MSTORE PUSH1 0x17 PUSH1 0x24 DUP3 ADD MSTORE PUSH23 0x159BDD1A5B99C818DBDB9D1C9858DD081B9BDD081CD95D PUSH1 0x4A SHL PUSH1 0x44 DUP3 ADD MSTORE PUSH1 0x64 SWAP1 REVERT JUMPDEST DUP1 MLOAD DUP3 LT ISZERO PUSH2 0x22AE JUMPI PUSH1 0x20 SWAP2 PUSH1 0x5 SHL ADD ADD SWAP1 JUMP JUMPDEST DUP2 PUSH1 0x1F DUP3 ADD SLT ISZERO PUSH2 0x2179 JUMPI DUP1 MLOAD PUSH2 0x25DD DUP2 PUSH2 0x2117 JUMP JUMPDEST SWAP3 PUSH2 0x25EB PUSH1 0x40 MLOAD SWAP5 DUP6 PUSH2 0x20C7 JUMP JUMPDEST DUP2 DUP5 MSTORE PUSH1 0x20 DUP3 DUP5 ADD ADD GT PUSH2 0x2179 JUMPI PUSH2 0x2246 SWAP2 PUSH1 0x20 DUP1 DUP6 ADD SWAP2 ADD PUSH2 0x24CC JUMP JUMPDEST SWAP1 PUSH1 0x20 DUP3 DUP3 SUB SLT PUSH2 0x2179 JUMPI DUP2 MLOAD PUSH1 0x1 PUSH1 0x1 PUSH1 0x40 SHL SUB DUP2 GT PUSH2 0x2179 JUMPI PUSH2 0x2246 SWAP3 ADD PUSH2 0x25C7 JUMP JUMPDEST MLOAD SWAP1 PUSH1 0x1 PUSH1 0x1 PUSH1 0xA0 SHL SUB DUP3 AND DUP3 SUB PUSH2 0x2179 JUMPI JUMP JUMPDEST ISZERO PUSH2 0x2649 JUMPI JUMP JUMPDEST PUSH1 0x40 MLOAD PUSH3 0x461BCD PUSH1 0xE5 SHL DUP2 MSTORE PUSH1 0x20 PUSH1 0x4 DUP3 ADD MSTORE PUSH1 0xC PUSH1 0x24 DUP3 ADD MSTORE PUSH12 0x27B7363C9031B932B0BA37B9 PUSH1 0xA1 SHL PUSH1 0x44 DUP3 ADD MSTORE PUSH1 0x64 SWAP1 REVERT JUMPDEST ISZERO PUSH2 0x2684 JUMPI JUMP JUMPDEST PUSH1 0x40 MLOAD PUSH3 0x461BCD PUSH1 0xE5 SHL DUP2 MSTORE PUSH1 0x20 PUSH1 0x4 DUP3 ADD MSTORE PUSH1 0x1D PUSH1 0x24 DUP3 ADD MSTORE PUSH32 0x4F6E6C7920766F74696E6720636F6E74726163742063616E2063616C6C000000 PUSH1 0x44 DUP3 ADD MSTORE PUSH1 0x64 SWAP1 REVERT JUMPDEST SWAP1 PUSH1 0x60 SWAP3 PUSH2 0x26E6 PUSH2 0x26F4 SWAP3 SWAP8 SWAP7 SWAP6 SWAP8 PUSH1 0x80 DUP6 MSTORE PUSH1 0x80 DUP6 ADD SWAP1 PUSH2 0x24EF JUMP JUMPDEST SWAP1 DUP4 DUP3 SUB PUSH1 0x20 DUP6 ADD MSTORE PUSH2 0x24EF JUMP JUMPDEST SWAP5 PUSH1 0x40 DUP3 ADD MSTORE ADD MSTORE JUMP JUMPDEST PUSH1 0x40 SWAP2 SWAP5 SWAP4 SWAP3 PUSH1 0x60 DUP3 ADD SWAP6 DUP3 MSTORE PUSH1 0x20 DUP3 ADD MSTORE ADD MSTORE JUMP JUMPDEST DUP2 DUP2 LT PUSH2 0x271F JUMPI POP POP JUMP JUMPDEST PUSH1 0x0 DUP2 SSTORE PUSH1 0x1 ADD PUSH2 0x2714 JUMP JUMPDEST DUP2 PUSH1 0x1 SHL SWAP2 PUSH1 0x0 NOT SWAP1 PUSH1 0x3 SHL SHR NOT AND OR SWAP1 JUMP JUMPDEST SWAP1 DUP2 PUSH1 0x20 SWAP2 SUB SLT PUSH2 0x2179 JUMPI MLOAD DUP1 ISZERO ISZERO DUP2 SUB PUSH2 0x2179 JUMPI SWAP1 JUMP JUMPDEST ISZERO PUSH2 0x275D JUMPI JUMP JUMPDEST PUSH1 0x40 MLOAD PUSH3 0x461BCD PUSH1 0xE5 SHL DUP2 MSTORE PUSH1 0x20 PUSH1 0x4 DUP3 ADD MSTORE PUSH1 0x1B PUSH1 0x24 DUP3 ADD MSTORE PUSH27 0x10530818DBDB9D1C9858DD1CC8185B1C9958591E481B1A5B9AD959 PUSH1 0x2A SHL PUSH1 0x44 DUP3 ADD MSTORE PUSH1 0x64 SWAP1 REVERT JUMPDEST DUP2 MLOAD SWAP2 SWAP3 SWAP2 PUSH1 0x1 PUSH1 0x1 PUSH1 0x40 SHL SUB DUP2 GT PUSH2 0x20EA JUMPI PUSH2 0x27BD DUP3 SLOAD PUSH2 0x22C4 JUMP JUMPDEST PUSH1 0x1F DUP2 GT PUSH2 0x2850 JUMPI JUMPDEST POP PUSH1 0x20 PUSH1 0x1F DUP3 GT PUSH1 0x1 EQ PUSH2 0x27EE JUMPI DUP2 SWAP1 PUSH2 0x27EA SWAP4 SWAP5 SWAP6 PUSH1 0x0 SWAP3 PUSH2 0x138A JUMPI POP POP PUSH2 0x272B JUMP JUMPDEST SWAP1 SSTORE JUMP JUMPDEST PUSH1 0x1F NOT DUP3 AND SWAP1 DUP4 PUSH1 0x0 MSTORE DUP1 PUSH1 0x0 KECCAK256 SWAP2 PUSH1 0x0 JUMPDEST DUP2 DUP2 LT PUSH2 0x2838 JUMPI POP SWAP6 DUP4 PUSH1 0x1 SWAP6 SWAP7 SWAP8 LT PUSH2 0x281F JUMPI JUMPDEST POP POP POP DUP2 SHL ADD SWAP1 SSTORE JUMP JUMPDEST ADD MLOAD PUSH1 0x0 NOT PUSH1 0xF8 DUP5 PUSH1 0x3 SHL AND SHR NOT AND SWAP1 SSTORE CODESIZE DUP1 DUP1 PUSH2 0x2815 JUMP JUMPDEST SWAP2 SWAP3 PUSH1 0x20 PUSH1 0x1 DUP2 SWAP3 DUP7 DUP12 ADD MLOAD DUP2 SSTORE ADD SWAP5 ADD SWAP3 ADD PUSH2 0x2800 JUMP JUMPDEST PUSH2 0x287C SWAP1 DUP4 PUSH1 0x0 MSTORE PUSH1 0x20 PUSH1 0x0 KECCAK256 PUSH1 0x1F DUP5 ADD PUSH1 0x5 SHR DUP2 ADD SWAP2 PUSH1 0x20 DUP6 LT PUSH2 0x1437 JUMPI PUSH1 0x1F ADD PUSH1 0x5 SHR ADD SWAP1 PUSH2 0x2714 JUMP JUMPDEST CODESIZE PUSH2 0x27C6 JUMP JUMPDEST PUSH1 0x5 SLOAD SWAP1 PUSH2 0x288F DUP3 PUSH2 0x2100 JUMP JUMPDEST SWAP2 PUSH2 0x289D PUSH1 0x40 MLOAD SWAP4 DUP5 PUSH2 0x20C7 JUMP JUMPDEST DUP1 DUP4 MSTORE PUSH1 0x5 PUSH1 0x0 SWAP1 DUP2 MSTORE PUSH1 0x0 DUP1 MLOAD PUSH1 0x20 PUSH2 0x3045 DUP4 CODECOPY DUP2 MLOAD SWAP2 MSTORE PUSH1 0x20 DUP6 ADD JUMPDEST DUP4 DUP4 LT PUSH2 0x28C8 JUMPI POP POP POP POP JUMP JUMPDEST PUSH1 0x1 PUSH1 0x20 DUP2 SWAP3 PUSH2 0x28D7 DUP6 PUSH2 0x242A JUMP JUMPDEST DUP2 MSTORE ADD SWAP3 ADD SWAP3 ADD SWAP2 SWAP1 PUSH2 0x28BB JUMP JUMPDEST PUSH1 0x40 MLOAD PUSH4 0x61D25A0D PUSH1 0xE1 SHL DUP2 MSTORE PUSH1 0x20 DUP2 PUSH1 0x4 DUP2 ADDRESS GAS STATICCALL SWAP1 DUP2 ISZERO PUSH2 0x2938 JUMPI PUSH1 0x0 SWAP2 PUSH2 0x2919 JUMPI JUMPDEST POP PUSH2 0x2914 JUMPI PUSH1 0x1 SWAP1 JUMP JUMPDEST PUSH1 0x0 SWAP1 JUMP JUMPDEST PUSH2 0x2932 SWAP2 POP PUSH1 0x20 RETURNDATASIZE PUSH1 0x20 GT PUSH2 0x1837 JUMPI PUSH2 0x1829 DUP2 DUP4 PUSH2 0x20C7 JUMP JUMPDEST CODESIZE PUSH2 0x290A JUMP JUMPDEST PUSH1 0x40 MLOAD RETURNDATASIZE PUSH1 0x0 DUP3 RETURNDATACOPY RETURNDATASIZE SWAP1 REVERT JUMPDEST PUSH1 0x0 SLOAD PUSH1 0x40 MLOAD PUSH4 0x8BCF8B5 PUSH1 0xE2 SHL DUP2 MSTORE SWAP1 PUSH1 0x20 SWAP1 DUP3 SWAP1 PUSH1 0x4 SWAP1 DUP3 SWAP1 PUSH1 0x1 PUSH1 0x1 PUSH1 0xA0 SHL SUB AND GAS STATICCALL SWAP1 DUP2 ISZERO PUSH2 0x2938 JUMPI PUSH1 0x0 SWAP2 PUSH2 0x2A90 JUMPI JUMPDEST POP ISZERO PUSH2 0x2A53 JUMPI PUSH1 0x3 SLOAD DUP1 ISZERO ISZERO SWAP1 DUP2 PUSH2 0x2A46 JUMPI JUMPDEST POP PUSH2 0x2A0B JUMPI PUSH1 0xFF PUSH1 0xC SLOAD AND PUSH2 0x29D3 JUMPI PUSH1 0x0 SWAP1 PUSH1 0x40 MLOAD PUSH2 0x29AC PUSH1 0x40 DUP3 PUSH2 0x20C7 JUMP JUMPDEST PUSH1 0x17 DUP2 MSTORE PUSH23 0x50726F6A656374206973207374696C6C20616374697665 PUSH1 0x48 SHL PUSH1 0x20 DUP3 ADD MSTORE SWAP1 JUMP JUMPDEST PUSH1 0x1 SWAP1 PUSH1 0x40 MLOAD PUSH2 0x29E4 PUSH1 0x60 DUP3 PUSH2 0x20C7 JUMP JUMPDEST PUSH1 0x23 DUP2 MSTORE PUSH1 0x0 DUP1 MLOAD PUSH1 0x20 PUSH2 0x3105 DUP4 CODECOPY DUP2 MLOAD SWAP2 MSTORE PUSH1 0x20 DUP3 ADD MSTORE PUSH3 0x626C65 PUSH1 0xE8 SHL PUSH1 0x40 DUP3 ADD MSTORE SWAP1 JUMP JUMPDEST PUSH1 0x1 SWAP1 PUSH1 0x40 MLOAD PUSH2 0x2A1C PUSH1 0x40 DUP3 PUSH2 0x20C7 JUMP JUMPDEST PUSH1 0x1A DUP2 MSTORE PUSH26 0x13585E1A5B5D5B481A5D195C985D1A5BDB9CC81C995858DA1959 PUSH1 0x32 SHL PUSH1 0x20 DUP3 ADD MSTORE SWAP1 JUMP JUMPDEST SWAP1 POP PUSH1 0xB SLOAD LT ISZERO CODESIZE PUSH2 0x298C JUMP JUMPDEST PUSH1 0x1 SWAP1 PUSH1 0x40 MLOAD PUSH2 0x2A64 PUSH1 0x40 DUP3 PUSH2 0x20C7 JUMP JUMPDEST PUSH1 0x1C DUP2 MSTORE PUSH28 0x141C9BDA9958DD081B585B9D585B1B1E4819195858DD1A5D985D1959 PUSH1 0x22 SHL PUSH1 0x20 DUP3 ADD MSTORE SWAP1 JUMP JUMPDEST PUSH2 0x2AA9 SWAP2 POP PUSH1 0x20 RETURNDATASIZE PUSH1 0x20 GT PUSH2 0x1837 JUMPI PUSH2 0x1829 DUP2 DUP4 PUSH2 0x20C7 JUMP JUMPDEST CODESIZE PUSH2 0x2979 JUMP JUMPDEST ISZERO PUSH2 0x2AB6 JUMPI JUMP JUMPDEST PUSH1 0x40 MLOAD PUSH3 0x461BCD PUSH1 0xE5 SHL DUP2 MSTORE PUSH1 0x20 PUSH1 0x4 DUP3 ADD MSTORE PUSH1 0x18 PUSH1 0x24 DUP3 ADD MSTORE PUSH24 0x14DD1BDC9859D94818DBDB9D1C9858DD081B9BDD081CD95D PUSH1 0x42 SHL PUSH1 0x44 DUP3 ADD MSTORE PUSH1 0x64 SWAP1 REVERT JUMPDEST SWAP4 SWAP3 SWAP2 PUSH2 0x2B1F SWAP1 PUSH2 0x2B11 PUSH1 0x40 SWAP4 PUSH1 0x60 DUP9 MSTORE PUSH1 0x60 DUP9 ADD SWAP1 PUSH2 0x24EF JUMP JUMPDEST SWAP1 DUP7 DUP3 SUB PUSH1 0x20 DUP9 ADD MSTORE PUSH2 0x24EF JUMP JUMPDEST SWAP4 ADD MSTORE JUMP JUMPDEST PUSH1 0x0 SLOAD PUSH1 0x40 MLOAD PUSH4 0x8BCF8B5 PUSH1 0xE2 SHL DUP2 MSTORE SWAP1 PUSH1 0x20 SWAP1 DUP3 SWAP1 PUSH1 0x4 SWAP1 DUP3 SWAP1 PUSH1 0x1 PUSH1 0x1 PUSH1 0xA0 SHL SUB AND GAS STATICCALL SWAP1 DUP2 ISZERO PUSH2 0x2938 JUMPI PUSH1 0x0 SWAP2 PUSH2 0x2C33 JUMPI JUMPDEST POP ISZERO PUSH2 0x2336 JUMPI PUSH1 0x3 SLOAD DUP1 ISZERO ISZERO SWAP1 DUP2 PUSH2 0x2C26 JUMPI JUMPDEST POP PUSH2 0x2BD0 JUMPI PUSH1 0xFF PUSH1 0xC SLOAD AND PUSH2 0x2B7D JUMPI JUMP JUMPDEST PUSH1 0xB SLOAD PUSH1 0x40 MLOAD SWAP1 PUSH1 0x60 DUP3 MSTORE PUSH1 0x23 PUSH1 0x60 DUP4 ADD MSTORE PUSH1 0x0 DUP1 MLOAD PUSH1 0x20 PUSH2 0x3105 DUP4 CODECOPY DUP2 MLOAD SWAP2 MSTORE PUSH1 0x80 DUP4 ADD MSTORE PUSH3 0x626C65 PUSH1 0xE8 SHL PUSH1 0xA0 DUP4 ADD MSTORE PUSH1 0x20 DUP3 ADD MSTORE TIMESTAMP PUSH1 0x40 DUP3 ADD MSTORE PUSH1 0x0 DUP1 MLOAD PUSH1 0x20 PUSH2 0x30E5 DUP4 CODECOPY DUP2 MLOAD SWAP2 MSTORE PUSH1 0xC0 CALLER SWAP3 LOG2 JUMP JUMPDEST PUSH1 0xB SLOAD PUSH1 0x40 MLOAD SWAP1 PUSH1 0x60 DUP3 MSTORE PUSH1 0x1A PUSH1 0x60 DUP4 ADD MSTORE PUSH26 0x13585E1A5B5D5B481A5D195C985D1A5BDB9CC81C995858DA1959 PUSH1 0x32 SHL PUSH1 0x80 DUP4 ADD MSTORE PUSH1 0x20 DUP3 ADD MSTORE TIMESTAMP PUSH1 0x40 DUP3 ADD MSTORE PUSH1 0x0 DUP1 MLOAD PUSH1 0x20 PUSH2 0x30E5 DUP4 CODECOPY DUP2 MLOAD SWAP2 MSTORE PUSH1 0xA0 CALLER SWAP3 LOG2 JUMP JUMPDEST SWAP1 POP PUSH1 0xB SLOAD LT ISZERO CODESIZE PUSH2 0x2B6C JUMP JUMPDEST PUSH2 0x2C4C SWAP2 POP PUSH1 0x20 RETURNDATASIZE PUSH1 0x20 GT PUSH2 0x1837 JUMPI PUSH2 0x1829 DUP2 DUP4 PUSH2 0x20C7 JUMP JUMPDEST CODESIZE PUSH2 0x2B59 JUMP JUMPDEST SWAP1 DUP1 PUSH1 0x1F DUP4 ADD SLT ISZERO PUSH2 0x2179 JUMPI DUP2 MLOAD PUSH2 0x2C69 DUP2 PUSH2 0x2100 JUMP JUMPDEST SWAP3 PUSH2 0x2C77 PUSH1 0x40 MLOAD SWAP5 DUP6 PUSH2 0x20C7 JUMP JUMPDEST DUP2 DUP5 MSTORE PUSH1 0x20 DUP1 DUP6 ADD SWAP3 PUSH1 0x5 SHL DUP3 ADD ADD SWAP3 DUP4 GT PUSH2 0x2179 JUMPI PUSH1 0x20 ADD SWAP1 JUMPDEST DUP3 DUP3 LT PUSH2 0x2C9F JUMPI POP POP POP SWAP1 JUMP JUMPDEST PUSH1 0x20 DUP1 SWAP2 PUSH2 0x2CAC DUP5 PUSH2 0x262E JUMP JUMPDEST DUP2 MSTORE ADD SWAP2 ADD SWAP1 PUSH2 0x2C92 JUMP JUMPDEST SWAP1 DUP1 PUSH1 0x1F DUP4 ADD SLT ISZERO PUSH2 0x2179 JUMPI DUP2 MLOAD PUSH2 0x2CCE DUP2 PUSH2 0x2100 JUMP JUMPDEST SWAP3 PUSH2 0x2CDC PUSH1 0x40 MLOAD SWAP5 DUP6 PUSH2 0x20C7 JUMP JUMPDEST DUP2 DUP5 MSTORE PUSH1 0x20 DUP1 DUP6 ADD SWAP3 PUSH1 0x5 SHL DUP3 ADD ADD SWAP3 DUP4 GT PUSH2 0x2179 JUMPI PUSH1 0x20 ADD SWAP1 JUMPDEST DUP3 DUP3 LT PUSH2 0x2D04 JUMPI POP POP POP SWAP1 JUMP JUMPDEST DUP2 MLOAD DUP2 MSTORE PUSH1 0x20 SWAP2 DUP3 ADD SWAP2 ADD PUSH2 0x2CF7 JUMP JUMPDEST SWAP1 PUSH1 0x20 DUP1 DUP4 MLOAD SWAP3 DUP4 DUP2 MSTORE ADD SWAP3 ADD SWAP1 PUSH1 0x0 JUMPDEST DUP2 DUP2 LT PUSH2 0x2D32 JUMPI POP POP POP SWAP1 JUMP JUMPDEST DUP3 MLOAD PUSH1 0x1 PUSH1 0x1 PUSH1 0xA0 SHL SUB AND DUP5 MSTORE PUSH1 0x20 SWAP4 DUP5 ADD SWAP4 SWAP1 SWAP3 ADD SWAP2 PUSH1 0x1 ADD PUSH2 0x2D25 JUMP JUMPDEST SWAP1 PUSH1 0x20 DUP1 DUP4 MLOAD SWAP3 DUP4 DUP2 MSTORE ADD SWAP3 ADD SWAP1 PUSH1 0x0 JUMPDEST DUP2 DUP2 LT PUSH2 0x2D6F JUMPI POP POP POP SWAP1 JUMP JUMPDEST DUP3 MLOAD DUP5 MSTORE PUSH1 0x20 SWAP4 DUP5 ADD SWAP4 SWAP1 SWAP3 ADD SWAP2 PUSH1 0x1 ADD PUSH2 0x2D62 JUMP JUMPDEST PUSH1 0x9 SLOAD PUSH1 0x0 SWAP1 PUSH1 0x1 PUSH1 0x1 PUSH1 0xA0 SHL SUB AND DUP1 ISZERO PUSH2 0x3040 JUMPI DUP2 SLOAD PUSH1 0x40 MLOAD PUSH4 0xCAF64F7 PUSH1 0xE1 SHL DUP2 MSTORE SWAP2 SWAP1 DUP4 SWAP1 DUP4 SWAP1 PUSH1 0x4 SWAP1 DUP3 SWAP1 PUSH1 0x1 PUSH1 0x1 PUSH1 0xA0 SHL SUB AND GAS STATICCALL DUP1 ISZERO PUSH2 0x84E JUMPI DUP4 SWAP1 DUP5 SWAP4 DUP6 SWAP2 PUSH2 0x2F29 JUMPI JUMPDEST POP DUP2 MLOAD ISZERO PUSH2 0x2F22 JUMPI DUP5 SWAP2 PUSH2 0x2E2B PUSH2 0x2E07 SWAP3 PUSH2 0x2E19 PUSH1 0x40 MLOAD SWAP8 DUP9 SWAP6 DUP7 SWAP6 PUSH4 0xCDBF3D01 PUSH1 0xE0 SHL DUP8 MSTORE PUSH1 0x60 PUSH1 0x4 DUP9 ADD MSTORE PUSH1 0x64 DUP8 ADD SWAP1 PUSH2 0x2D14 JUMP JUMPDEST DUP6 DUP2 SUB PUSH1 0x3 NOT ADD PUSH1 0x24 DUP8 ADD MSTORE SWAP1 PUSH2 0x2514 JUMP JUMPDEST DUP4 DUP2 SUB PUSH1 0x3 NOT ADD PUSH1 0x44 DUP6 ADD MSTORE SWAP1 PUSH2 0x2D51 JUMP JUMPDEST SUB DUP2 DUP5 GAS STATICCALL SWAP2 DUP3 ISZERO PUSH2 0x84E JUMPI DUP4 SWAP1 DUP5 SWAP4 PUSH2 0x2EBD JUMPI JUMPDEST POP DUP1 MLOAD PUSH2 0x2E4E JUMPI JUMPDEST POP POP POP POP JUMP JUMPDEST DUP2 EXTCODESIZE ISZERO PUSH2 0x42C JUMPI SWAP2 DUP4 SWAP2 PUSH2 0x2E85 DUP4 PUSH2 0x2E97 SWAP6 PUSH1 0x40 MLOAD SWAP7 DUP8 SWAP6 DUP7 SWAP5 DUP6 SWAP4 PUSH4 0x1D70957F PUSH1 0xE2 SHL DUP6 MSTORE PUSH1 0x40 PUSH1 0x4 DUP7 ADD MSTORE PUSH1 0x44 DUP6 ADD SWAP1 PUSH2 0x2D14 JUMP JUMPDEST DUP4 DUP2 SUB PUSH1 0x3 NOT ADD PUSH1 0x24 DUP6 ADD MSTORE SWAP1 PUSH2 0x2D51 JUMP JUMPDEST SUB SWAP3 GAS CALL DUP1 ISZERO PUSH2 0x2BE JUMPI PUSH2 0x2EAD JUMPI JUMPDEST DUP1 DUP1 PUSH2 0x2E48 JUMP JUMPDEST DUP2 PUSH2 0x2EB7 SWAP2 PUSH2 0x20C7 JUMP JUMPDEST CODESIZE PUSH2 0x2EA6 JUMP JUMPDEST SWAP3 POP POP RETURNDATASIZE DUP1 DUP5 DUP5 RETURNDATACOPY PUSH2 0x2ECF DUP2 DUP5 PUSH2 0x20C7 JUMP JUMPDEST DUP3 ADD PUSH1 0x40 DUP4 DUP3 SUB SLT PUSH2 0x42C JUMPI DUP3 MLOAD PUSH1 0x1 PUSH1 0x1 PUSH1 0x40 SHL SUB DUP2 GT PUSH2 0x16B8 JUMPI DUP2 PUSH2 0x2EF7 SWAP2 DUP6 ADD PUSH2 0x2C52 JUMP JUMPDEST PUSH1 0x20 DUP5 ADD MLOAD SWAP1 SWAP4 PUSH1 0x1 PUSH1 0x1 PUSH1 0x40 SHL SUB DUP3 GT PUSH2 0x2F1E JUMPI PUSH2 0x2F17 SWAP3 SWAP2 ADD PUSH2 0x2CB7 JUMP JUMPDEST SWAP2 CODESIZE PUSH2 0x2E40 JUMP JUMPDEST DUP6 DUP1 REVERT JUMPDEST POP POP POP POP POP JUMP JUMPDEST SWAP4 POP POP POP RETURNDATASIZE DUP1 DUP5 DUP5 RETURNDATACOPY PUSH2 0x2F3C DUP2 DUP5 PUSH2 0x20C7 JUMP JUMPDEST DUP3 ADD PUSH1 0x80 DUP4 DUP3 SUB SLT PUSH2 0x42C JUMPI DUP3 MLOAD PUSH1 0x1 PUSH1 0x1 PUSH1 0x40 SHL SUB DUP2 GT PUSH2 0x16B8 JUMPI DUP2 PUSH2 0x2F64 SWAP2 DUP6 ADD PUSH2 0x2C52 JUMP JUMPDEST PUSH1 0x20 DUP5 ADD MLOAD PUSH1 0x1 PUSH1 0x1 PUSH1 0x40 SHL SUB DUP2 GT PUSH2 0x2F1E JUMPI DUP5 ADD SWAP2 DUP1 PUSH1 0x1F DUP5 ADD SLT ISZERO PUSH2 0x2F1E JUMPI DUP3 MLOAD SWAP3 PUSH2 0x2F91 DUP5 PUSH2 0x2100 JUMP JUMPDEST SWAP4 PUSH2 0x2F9F PUSH1 0x40 MLOAD SWAP6 DUP7 PUSH2 0x20C7 JUMP JUMPDEST DUP1 DUP6 MSTORE PUSH1 0x20 DUP1 DUP7 ADD SWAP2 PUSH1 0x5 SHL DUP4 ADD ADD SWAP2 DUP4 DUP4 GT PUSH2 0x16B0 JUMPI PUSH1 0x20 DUP2 ADD SWAP2 JUMPDEST DUP4 DUP4 LT PUSH2 0x3013 JUMPI POP POP POP POP PUSH1 0x40 DUP6 ADD MLOAD PUSH1 0x1 PUSH1 0x1 PUSH1 0x40 SHL SUB DUP2 GT PUSH2 0x300F JUMPI DUP2 PUSH2 0x2FE6 SWAP2 DUP8 ADD PUSH2 0x2CB7 JUMP JUMPDEST PUSH1 0x60 DUP7 ADD MLOAD SWAP1 SWAP6 PUSH1 0x1 PUSH1 0x1 PUSH1 0x40 SHL SUB DUP3 GT PUSH2 0x16B4 JUMPI PUSH2 0x3006 SWAP3 SWAP2 ADD PUSH2 0x2CB7 JUMP JUMPDEST POP SWAP1 SWAP3 CODESIZE PUSH2 0x2DD0 JUMP JUMPDEST DUP7 DUP1 REVERT JUMPDEST DUP3 MLOAD PUSH1 0x1 PUSH1 0x1 PUSH1 0x40 SHL SUB DUP2 GT PUSH2 0x1685 JUMPI PUSH1 0x20 SWAP2 PUSH2 0x3035 DUP8 DUP5 DUP1 SWAP5 DUP8 ADD ADD PUSH2 0x25C7 JUMP JUMPDEST DUP2 MSTORE ADD SWAP3 ADD SWAP2 PUSH2 0x2FBC JUMP JUMPDEST POP POP JUMP INVALID SUB PUSH12 0x6384B5ECA791C62761152D0C PUSH26 0xBB0604C104A5FB6F4EB0703F3154BB3DB0405787FA12A823E0F2 0xB7 PUSH4 0x1CC41B3B 0xA8 DUP3 DUP12 CALLER 0x21 0xCA DUP2 GT GT STATICCALL PUSH22 0xCD3AA3BB5ACE9B196ABB2588ECCEFB36F3E6C9B15D9E 0x26 0xC PUSH4 0x3D5B2E0B DUP16 BLOBHASH PUSH31 0x6E71C6C1C1EABB4BA47257D82C025E976BCDC375CC2E26DE94EFD111BCA20C 0xBC SWAP11 CALLER 0xD 0x29 PUSH21 0x55A66CC928B5EDB82AF9BD49922954155AB7B09426 SWAP5 0xBE LOG4 0xCE PREVRANDAO PUSH7 0x1D9A8736C688AE 0xE3 0xAB DUP10 LOG3 EXTCODECOPY BLOBBASEFEE PUSH16 0x38AA24238AED506E7F6DB5E298E1F32A 0xE 0xDE PUSH19 0xDBE23112C44E6F206D6F726520756E6C616265 PUSH13 0x65642073616D706C6573206176 PUSH2 0x696C PUSH2 0x9AA9 CALLVALUE 0xE5 0xA9 DUP14 SLT 0xB6 0xD 0xAB 0xEC 0xF CALLVALUE PUSH5 0x7F2B63B8FD 0x25 PUSH28 0xA6480E7DED4CC1EF24C573B10E2D527612073B26EECDFD717E6A320C DELEGATECALL 0x4B BLOBBASEFEE STATICCALL 0xC2 0xB0 PUSH20 0x2D9FCBE2B7FA0CF6A2646970667358221220C0BF 0xBA 0xBF PUSH14 0xBBD47E0CA3094C888B1DD7EBEB11 EXP EQ 0xC6 0xD 0x2E PUSH6 0x2CC124D79A96 0x4D PUSH5 0x736F6C6343 STOP ADDMOD SHR STOP CALLER "},"methodIdentifiers":{"alScenario()":"7f52cadc","baseProject()":"cf3fc0b8","currentRound()":"8a19c8bc","endBatchVoting(uint256)":"b8c39034","finalTraining()":"d5a977bd","getALConfiguration()":"80a8c849","getALProjectMetadata()":"72a1c45d","getCurrentBatchSampleIds()":"d2291e11","hasALContracts()":"c3a4b41a","incrementRound()":"e1d5a2c8","isSampleActive(string)":"e0308323","labelSpace(uint256)":"6ac4e50e","markFinalTrainingCompleted()":"f8c8fa02","maxIteration()":"b0942ce5","needsALDeployment()":"7a83a44b","notifyUnlabeledSamplesExhausted()":"19b21227","notifyVotingSessionEnded(string,string)":"29f5e65a","notifyVotingSessionStarted(string)":"b2be4d65","queryBatchSize()":"77c39c21","queryStrategy()":"a0740184","receiveFinalLabelFromVoting(string,string)":"b0611068","setupALProject(address,address,string,string,uint256,uint256,string[],string)":"5bb06c0b","shouldProjectEnd()":"7c13f6cf","startBatchVoting(string[],string[])":"eed016be","storageContract()":"11ce0267","storeFinalLabel(string,string,uint256)":"a6ea915b","submitBatchVote(string[],string[])":"1633e062","triggerNextRound(string)":"461e198b","unlabeledSamplesExhausted()":"6c86d124","votingContract()":"c1fc006a","votingTimeout()":"f1bc33b4"}}}}}