{"contracts/ALProjectDeployer.sol":{"ALProjectDeployer":{"abi":[{"inputs":[{"internalType":"bytes","name":"_alProjectBytecode","type":"bytes"},{"internalType":"bytes","name":"_alVotingBytecode","type":"bytes"},{"internalType":"bytes","name":"_alStorageBytecode","type":"bytes"},{"internalType":"address","name":"_linkerContract","type":"address"},{"internalType":"address","name":"_assetFactory","type":"address"}],"stateMutability":"nonpayable","type":"constructor"},{"anonymous":false,"inputs":[{"indexed":true,"internalType":"address","name":"alProject","type":"address"},{"indexed":true,"internalType":"address","name":"baseProject","type":"address"}],"name":"ALProjectCreated","type":"event"},{"anonymous":false,"inputs":[{"indexed":true,"internalType":"address","name":"baseProject","type":"address"},{"indexed":true,"internalType":"address","name":"alProject","type":"address"},{"indexed":false,"internalType":"address","name":"votingContract","type":"address"},{"indexed":false,"internalType":"address","name":"storageContract","type":"address"},{"indexed":false,"internalType":"address","name":"roCrateAsset","type":"address"}],"name":"ALProjectDeployed","type":"event"},{"anonymous":false,"inputs":[{"indexed":true,"internalType":"address","name":"storageContract","type":"address"},{"indexed":true,"internalType":"address","name":"alProject","type":"address"}],"name":"ALStorageCreated","type":"event"},{"anonymous":false,"inputs":[{"indexed":true,"internalType":"address","name":"votingContract","type":"address"},{"indexed":true,"internalType":"address","name":"alProject","type":"address"}],"name":"ALVotingCreated","type":"event"},{"anonymous":false,"inputs":[{"indexed":true,"internalType":"address","name":"baseProject","type":"address"},{"indexed":true,"internalType":"address","name":"alProject","type":"address"}],"name":"LinkingCompleted","type":"event"},{"anonymous":false,"inputs":[{"indexed":true,"internalType":"address","name":"baseProject","type":"address"},{"indexed":true,"internalType":"address","name":"alProject","type":"address"}],"name":"LinkingStarted","type":"event"},{"anonymous":false,"inputs":[{"indexed":true,"internalType":"address","name":"roCrateAsset","type":"address"},{"indexed":false,"internalType":"string","name":"ipfsHash","type":"string"},{"indexed":false,"internalType":"uint256","name":"viewerCount","type":"uint256"}],"name":"RoCrateAssetCreated","type":"event"},{"inputs":[{"internalType":"address","name":"originalCaller","type":"address"},{"internalType":"address","name":"baseProject","type":"address"},{"components":[{"internalType":"string","name":"queryStrategy","type":"string"},{"internalType":"string","name":"alScenario","type":"string"},{"internalType":"uint256","name":"maxIteration","type":"uint256"},{"internalType":"uint256","name":"queryBatchSize","type":"uint256"},{"internalType":"string[]","name":"labelSpace","type":"string[]"}],"internalType":"struct ALProjectDeployer.ALProjectConfig","name":"alConfig","type":"tuple"},{"components":[{"internalType":"string","name":"votingConsensus","type":"string"},{"internalType":"uint256","name":"votingTimeout","type":"uint256"}],"internalType":"struct ALProjectDeployer.VotingConfig","name":"votingConfig","type":"tuple"},{"internalType":"string","name":"rocrateHash","type":"string"},{"internalType":"address[]","name":"contributors","type":"address[]"},{"internalType":"uint256","name":"nonce","type":"uint256"}],"name":"deployAL","outputs":[{"internalType":"address","name":"alProject","type":"address"},{"internalType":"address","name":"votingContract","type":"address"},{"internalType":"address","name":"storageContract","type":"address"},{"internalType":"address","name":"roCrateAsset","type":"address"}],"stateMutability":"nonpayable","type":"function"}],"evm":{"bytecode":{"linkReferences":{},"object":"60c0604052346104ca5761157980380380610019816104cf565b92833981019060a0818303126104ca5780516001600160401b0381116104ca57826100459183016104f4565b60208201516001600160401b0381116104ca57836100649184016104f4565b604083015190936001600160401b0382116104ca576100849184016104f4565b9161009d60806100966060840161055f565b920161055f565b825190926001600160401b0382116102e95760005490600182811c921680156104c0575b60208310146102c95781601f849311610451575b50602090601f83116001146103eb576000926103e0575b50508160011b916000199060031b1c1916176000555b83516001600160401b0381116102e957600154600181811c911680156103d6575b60208210146102c957601f8111610371575b50602094601f821160011461030a579481929394956000926102ff575b50508160011b916000199060031b1c1916176001555b82516001600160401b0381116102e957600254600181811c911680156102df575b60208210146102c957601f8111610264575b506020601f82116001146101fd57819293946000926101f2575b50508160011b916000199060031b1c1916176002555b60805260a0526040516110059081610574823960805181610c6b015260a05181610aff0152f35b0151905038806101b5565b601f198216906002600052806000209160005b81811061024c57509583600195969710610233575b505050811b016002556101cb565b015160001960f88460031b161c19169055388080610225565b9192602060018192868b015181550194019201610210565b60026000527f405787fa12a823e0f2b7631cc41b3ba8828b3321ca811111fa75cd3aa3bb5ace601f830160051c810191602084106102bf575b601f0160051c01905b8181106102b3575061019b565b600081556001016102a6565b909150819061029d565b634e487b7160e01b600052602260045260246000fd5b90607f1690610189565b634e487b7160e01b600052604160045260246000fd5b015190503880610152565b601f198216956001600052806000209160005b88811061035957508360019596979810610340575b505050811b01600155610168565b015160001960f88460031b161c19169055388080610332565b9192602060018192868501518155019401920161031d565b60016000527fb10e2d527612073b26eecdfd717e6a320cf44b4afac2b0732d9fcbe2b7fa0cf6601f830160051c810191602084106103cc575b601f0160051c01905b8181106103c05750610135565b600081556001016103b3565b90915081906103aa565b90607f1690610123565b0151905038806100ec565b60008080528281209350601f198516905b8181106104395750908460019594939210610420575b505050811b01600055610102565b015160001960f88460031b161c19169055388080610412565b929360206001819287860151815501950193016103fc565b600080529091507f290decd9548b62a8d60345a988386fc84ba6bc95484008f6362f93160ef3e563601f840160051c810191602085106104b6575b90601f859493920160051c01905b8181106104a757506100d5565b6000815584935060010161049a565b909150819061048c565b91607f16916100c1565b600080fd5b6040519190601f01601f191682016001600160401b038111838210176102e957604052565b81601f820112156104ca578051906001600160401b0382116102e957610523601f8301601f19166020016104cf565b92828452602083830101116104ca5760005b82811061054a57505060206000918301015290565b80602080928401015182828701015201610535565b51906001600160a01b03821682036104ca5756fe6080604052600436101561001257600080fd5b60003560e01c631452ec371461002757600080fd5b346101145760e03660031901126101145761004061012a565b610048610139565b6044356001600160401b03811161011457610067903690600401610146565b916064356001600160401b03811161011457610087903690600401610154565b926084356001600160401b038111610114576100a7903690600401610162565b60a43594916001600160401b03861161011457610110966100cf6100db97369060040161018f565b95909460c43597610883565b604080516001600160a01b03958616815293851660208501529184169183019190915290911660608201529081906080820190565b0390f35b600080fd5b6001600160a01b0381160361011457565b6004359061013782610119565b565b6024359061013782610119565b908160a09103126101145790565b908160409103126101145790565b9181601f84011215610114578235916001600160401b038311610114576020838186019501011161011457565b9181601f84011215610114578235916001600160401b038311610114576020808501948460051b01011161011457565b634e487b7160e01b600052604160045260246000fd5b601f909101601f19168101906001600160401b038211908210176101f857604052565b6101bf565b90600091600054908160011c916001811680156102a8575b602084108114610292579081156102805750600114610232575050565b60008052919250907f290decd9548b62a8d60345a988386fc84ba6bc95484008f6362f93160ef3e5636000905b83821061026c5750500190565b60018160209254848601520191019061025f565b60ff1916825250811515909102019150565b634e487b7160e01b600052602260045260246000fd5b92607f1692610215565b90600091600154908160011c91600181168015610336575b6020841081146102925790811561028057506001146102e7575050565b6001600052919250907fb10e2d527612073b26eecdfd717e6a320cf44b4afac2b0732d9fcbe2b7fa0cf66000905b8382106103225750500190565b600181602092548486015201910190610315565b92607f16926102ca565b90600091600254908160011c916001811680156103c4575b602084108114610292579081156102805750600114610375575050565b6002600052919250907f405787fa12a823e0f2b7631cc41b3ba8828b3321ca811111fa75cd3aa3bb5ace6000905b8382106103b05750500190565b6001816020925484860152019101906103a3565b92607f1692610358565b60005b8381106103e15750506000910152565b81810151838201526020016103d1565b90610404602092828151948592016103ce565b0190565b1561040f57565b60405162461bcd60e51b815260206004820152601b60248201527a1053141c9bda9958dd0819195c1b1bde5b595b9d0819985a5b1959602a1b6044820152606490fd5b903590601e198136030182121561011457018035906001600160401b0382116101145760200191813603831361011457565b908060209392818452848401376000828201840152601f01601f1916010190565b949392916040926104cb9260018060a01b03168752606060208801526060870191610484565b930152565b156104d757565b60405162461bcd60e51b815260206004820152602160248201527f414c50726f6a656374566f74696e67206465706c6f796d656e74206661696c656044820152601960fa1b6064820152608490fd5b6001600160a01b03909116815260200190565b1561054057565b60405162461bcd60e51b815260206004820152602260248201527f414c50726f6a65637453746f72616765206465706c6f796d656e74206661696c604482015261195960f21b6064820152608490fd5b9081602091031261011457516105a581610119565b90565b9160209360e061060d93979697608086526105d2815180928160808a01528960a08a0191016103ce565b601f01601f1916850185810360a08181018989015260089083015267726f2d637261746560c01b60c083015260e00160408701520191610484565b90606081830391015282815201919060005b81811061062c5750505090565b909192602080600192863561064081610119565b848060a01b03168152019401910191909161061f565b6040513d6000823e3d90fd5b1561066957565b60405162461bcd60e51b815260206004820152601e60248201527f524f2d4372617465206173736574206372656174696f6e206661696c656400006044820152606490fd5b600091031261011457565b9392916020916104cb91604087526040870191610484565b903590601e198136030182121561011457018035906001600160401b03821161011457602001918160051b3603831361011457565b6001600160a01b039182168152918116602083015290911660408201526101006060820181905295989690959094610756949390926107489288019190610484565b918583036080870152610484565b9460a083015260c082015260e0818503910152808352602083019060208160051b8501019383600091601e1982360301905b848410610799575050505050505090565b90919293949596601f19828203018752873583811215610114578401602081019190356001600160401b038111610114578036038313610114576107e36020928392600195610484565b99019701959401929190610788565b6001600160401b0381116101f857601f01601f191660200190565b3d15610838573d9061081e826107f2565b9161082c60405193846101d5565b82523d6000602084013e565b606090565b1561084457565b60405162461bcd60e51b81526020600482015260176024820152761053081c1c9bda9958dd081cd95d1d5c0819985a5b1959604a1b6044820152606490fd5b90979895939487928a604051808c60208201906108b99160609160018060a01b0316815260406020820152600060408201520190565b03601f19810182526108cb90826101d5565b6040518060208101926108dd846101fd565b6108e6916103f1565b03601f19810182526108f890826101d5565b51906000f5966001600160a01b03881696610914881515610408565b6040516001600160a01b038d16978e919081908c908b8d7fe071dba44289d5675312e44197a300aea64fee36fda073c3b1e39a2c5c3912b0600080a361095a8180610452565b90916020013591602085019361096f946104a5565b03601f198101825261098190826101d5565b60405191826020810192610994846102b2565b61099d916103f1565b03601f19810184526109af90846101d5565b6001019151906000f59c6001600160a01b038e166109ce8115156104d0565b89604051917fdbac153c1128dda7ac3250a70cae3cfed3034f5ef400308e4f9a606dc1542ba1600080a380610a068c60208301610526565b03601f1981018252610a1890826101d5565b60405191826020810192610a2b84610340565b610a34916103f1565b03601f1981018452610a4690846101d5565b6002019151906000f59b886001600160a01b038e16610a66811515610539565b7f1d2fe8b5ce0b9037a171941652bb8174e14467b7f86e752f5a1f3b121b49849f600080a3610a9490610ee7565b60405168726f2d63726174652d60b81b602082015290819060298201610ab9916103f1565b670b5a5b9a5d1a585b60c21b815260080103601f1981018252610adc90826101d5565b604051636609c12960e01b81529b8c92610afd9287908690600487016105a8565b7f00000000000000000000000000000000000000000000000000000000000000006001600160a01b0316918c9103815a602094600091f1998a15610d945760009a610dc2575b506001600160a01b038a1694610b5a861515610662565b853b15610114576000610b81956040518097819263f2fde38b60e01b835260048301610526565b0381838a5af1928315610d9457610c9a967f801d6aab9291e9802c418e55874563fc1fafbb2d43431be1a599fa5559ef18f78f949660009897610bd8610c66968f999a8c9b610dae575b50604051938493846106b9565b0390a2610c588d6040519485938c8c7fac5edb0d13f3cb6ae9df8870cbb8174d772bee2817960a2c9feb9ee548f526f28b80a3610c158180610452565b610c226020840184610452565b91604085013593610c3c60608701359660808101906106d1565b98909760208c019e8f6337c7b18f60e01b905260248d01610706565b03601f1981018352826101d5565b5190827f00000000000000000000000000000000000000000000000000000000000000005af1610c9461080d565b5061083d565b803b156101145760405163562d0a1360e01b815260008180610cbf8760048301610526565b038183865af18015610d9457610d99575b50803b156101145760405163755cacc960e11b815260008180610cf68960048301610526565b038183865af18015610d9457610d79575b507fba71c3331c78b3552695e5bda0f98de04012e2c1641a94feb9a6e8dfe1385f5760405183837fca39dd33c07e8cee276302f3ce5f6d3b208cc910d150d79b933ff0e5b7df2d34600080a36001600160a01b038981168252888116602083015287166040820152606090a393929190565b80610d886000610d8e936101d5565b806106ae565b38610d07565b610656565b80610d886000610da8936101d5565b38610cd0565b80610d888d610dbc936101d5565b38610bcb565b610de5919a5060203d602011610dec575b610ddd81836101d5565b810190610590565b9838610b43565b503d610dd3565b60405190610e026040836101d5565b601082526f181899199a1a9b1b9c1cb0b131b232b360811b6020830152565b60405160609190610e3283826101d5565b602a815291601f1901366020840137565b634e487b7160e01b600052603260045260246000fd5b805115610e665760200190565b610e43565b805160011015610e665760210190565b908151811015610e66570160200190565b634e487b7160e01b600052601160045260246000fd5b90600c8201809211610eb057565b610e8c565b6002019081600211610eb057565b6003019081600311610eb057565b908160011b9180830460021490151715610eb057565b6001600160a01b0316610ef8610df3565b90610f01610e21565b916030610f0d84610e59565b536078610f1984610e6b565b5360005b60148110610f2b5750505090565b610f3481610ea2565b6020811015610e6657610f6290610f549085901a60041c600f1684610e7b565b516001600160f81b03191690565b610f81610f76610f7184610ed1565b610eb5565b9160001a9186610e7b565b53610f8b81610ea2565b906020821015610e6657610fa9610f54600f866001951a1685610e7b565b610fc8610fbd610fb884610ed1565b610ec3565b9160001a9187610e7b565b5301610f1d56fea2646970667358221220ed87958adc487242f288c336c5b2c32788502529f52cb0476c6d4ea8aa9697f764736f6c634300081c0033","opcodes":"PUSH1 0xC0 PUSH1 0x40 MSTORE CALLVALUE PUSH2 0x4CA JUMPI PUSH2 0x1579 DUP1 CODESIZE SUB DUP1 PUSH2 0x19 DUP2 PUSH2 0x4CF JUMP JUMPDEST SWAP3 DUP4 CODECOPY DUP2 ADD SWAP1 PUSH1 0xA0 DUP2 DUP4 SUB SLT PUSH2 0x4CA JUMPI DUP1 MLOAD PUSH1 0x1 PUSH1 0x1 PUSH1 0x40 SHL SUB DUP2 GT PUSH2 0x4CA JUMPI DUP3 PUSH2 0x45 SWAP2 DUP4 ADD PUSH2 0x4F4 JUMP JUMPDEST PUSH1 0x20 DUP3 ADD MLOAD PUSH1 0x1 PUSH1 0x1 PUSH1 0x40 SHL SUB DUP2 GT PUSH2 0x4CA JUMPI DUP4 PUSH2 0x64 SWAP2 DUP5 ADD PUSH2 0x4F4 JUMP JUMPDEST PUSH1 0x40 DUP4 ADD MLOAD SWAP1 SWAP4 PUSH1 0x1 PUSH1 0x1 PUSH1 0x40 SHL SUB DUP3 GT PUSH2 0x4CA JUMPI PUSH2 0x84 SWAP2 DUP5 ADD PUSH2 0x4F4 JUMP JUMPDEST SWAP2 PUSH2 0x9D PUSH1 0x80 PUSH2 0x96 PUSH1 0x60 DUP5 ADD PUSH2 0x55F JUMP JUMPDEST SWAP3 ADD PUSH2 0x55F JUMP JUMPDEST DUP3 MLOAD SWAP1 SWAP3 PUSH1 0x1 PUSH1 0x1 PUSH1 0x40 SHL SUB DUP3 GT PUSH2 0x2E9 JUMPI PUSH1 0x0 SLOAD SWAP1 PUSH1 0x1 DUP3 DUP2 SHR SWAP3 AND DUP1 ISZERO PUSH2 0x4C0 JUMPI JUMPDEST PUSH1 0x20 DUP4 LT EQ PUSH2 0x2C9 JUMPI DUP2 PUSH1 0x1F DUP5 SWAP4 GT PUSH2 0x451 JUMPI JUMPDEST POP PUSH1 0x20 SWAP1 PUSH1 0x1F DUP4 GT PUSH1 0x1 EQ PUSH2 0x3EB JUMPI PUSH1 0x0 SWAP3 PUSH2 0x3E0 JUMPI JUMPDEST POP POP DUP2 PUSH1 0x1 SHL SWAP2 PUSH1 0x0 NOT SWAP1 PUSH1 0x3 SHL SHR NOT AND OR PUSH1 0x0 SSTORE JUMPDEST DUP4 MLOAD PUSH1 0x1 PUSH1 0x1 PUSH1 0x40 SHL SUB DUP2 GT PUSH2 0x2E9 JUMPI PUSH1 0x1 SLOAD PUSH1 0x1 DUP2 DUP2 SHR SWAP2 AND DUP1 ISZERO PUSH2 0x3D6 JUMPI JUMPDEST PUSH1 0x20 DUP3 LT EQ PUSH2 0x2C9 JUMPI PUSH1 0x1F DUP2 GT PUSH2 0x371 JUMPI JUMPDEST POP PUSH1 0x20 SWAP5 PUSH1 0x1F DUP3 GT PUSH1 0x1 EQ PUSH2 0x30A JUMPI SWAP5 DUP2 SWAP3 SWAP4 SWAP5 SWAP6 PUSH1 0x0 SWAP3 PUSH2 0x2FF JUMPI JUMPDEST POP POP DUP2 PUSH1 0x1 SHL SWAP2 PUSH1 0x0 NOT SWAP1 PUSH1 0x3 SHL SHR NOT AND OR PUSH1 0x1 SSTORE JUMPDEST DUP3 MLOAD PUSH1 0x1 PUSH1 0x1 PUSH1 0x40 SHL SUB DUP2 GT PUSH2 0x2E9 JUMPI PUSH1 0x2 SLOAD PUSH1 0x1 DUP2 DUP2 SHR SWAP2 AND DUP1 ISZERO PUSH2 0x2DF JUMPI JUMPDEST PUSH1 0x20 DUP3 LT EQ PUSH2 0x2C9 JUMPI PUSH1 0x1F DUP2 GT PUSH2 0x264 JUMPI JUMPDEST POP PUSH1 0x20 PUSH1 0x1F DUP3 GT PUSH1 0x1 EQ PUSH2 0x1FD JUMPI DUP2 SWAP3 SWAP4 SWAP5 PUSH1 0x0 SWAP3 PUSH2 0x1F2 JUMPI JUMPDEST POP POP DUP2 PUSH1 0x1 SHL SWAP2 PUSH1 0x0 NOT SWAP1 PUSH1 0x3 SHL SHR NOT AND OR PUSH1 0x2 SSTORE JUMPDEST PUSH1 0x80 MSTORE PUSH1 0xA0 MSTORE PUSH1 0x40 MLOAD PUSH2 0x1005 SWAP1 DUP2 PUSH2 0x574 DUP3 CODECOPY PUSH1 0x80 MLOAD DUP2 PUSH2 0xC6B ADD MSTORE PUSH1 0xA0 MLOAD DUP2 PUSH2 0xAFF ADD MSTORE RETURN JUMPDEST ADD MLOAD SWAP1 POP CODESIZE DUP1 PUSH2 0x1B5 JUMP JUMPDEST PUSH1 0x1F NOT DUP3 AND SWAP1 PUSH1 0x2 PUSH1 0x0 MSTORE DUP1 PUSH1 0x0 KECCAK256 SWAP2 PUSH1 0x0 JUMPDEST DUP2 DUP2 LT PUSH2 0x24C JUMPI POP SWAP6 DUP4 PUSH1 0x1 SWAP6 SWAP7 SWAP8 LT PUSH2 0x233 JUMPI JUMPDEST POP POP POP DUP2 SHL ADD PUSH1 0x2 SSTORE PUSH2 0x1CB JUMP JUMPDEST ADD MLOAD PUSH1 0x0 NOT PUSH1 0xF8 DUP5 PUSH1 0x3 SHL AND SHR NOT AND SWAP1 SSTORE CODESIZE DUP1 DUP1 PUSH2 0x225 JUMP JUMPDEST SWAP2 SWAP3 PUSH1 0x20 PUSH1 0x1 DUP2 SWAP3 DUP7 DUP12 ADD MLOAD DUP2 SSTORE ADD SWAP5 ADD SWAP3 ADD PUSH2 0x210 JUMP JUMPDEST PUSH1 0x2 PUSH1 0x0 MSTORE PUSH32 0x405787FA12A823E0F2B7631CC41B3BA8828B3321CA811111FA75CD3AA3BB5ACE PUSH1 0x1F DUP4 ADD PUSH1 0x5 SHR DUP2 ADD SWAP2 PUSH1 0x20 DUP5 LT PUSH2 0x2BF JUMPI JUMPDEST PUSH1 0x1F ADD PUSH1 0x5 SHR ADD SWAP1 JUMPDEST DUP2 DUP2 LT PUSH2 0x2B3 JUMPI POP PUSH2 0x19B JUMP JUMPDEST PUSH1 0x0 DUP2 SSTORE PUSH1 0x1 ADD PUSH2 0x2A6 JUMP JUMPDEST SWAP1 SWAP2 POP DUP2 SWAP1 PUSH2 0x29D JUMP JUMPDEST PUSH4 0x4E487B71 PUSH1 0xE0 SHL PUSH1 0x0 MSTORE PUSH1 0x22 PUSH1 0x4 MSTORE PUSH1 0x24 PUSH1 0x0 REVERT JUMPDEST SWAP1 PUSH1 0x7F AND SWAP1 PUSH2 0x189 JUMP JUMPDEST PUSH4 0x4E487B71 PUSH1 0xE0 SHL PUSH1 0x0 MSTORE PUSH1 0x41 PUSH1 0x4 MSTORE PUSH1 0x24 PUSH1 0x0 REVERT JUMPDEST ADD MLOAD SWAP1 POP CODESIZE DUP1 PUSH2 0x152 JUMP JUMPDEST PUSH1 0x1F NOT DUP3 AND SWAP6 PUSH1 0x1 PUSH1 0x0 MSTORE DUP1 PUSH1 0x0 KECCAK256 SWAP2 PUSH1 0x0 JUMPDEST DUP9 DUP2 LT PUSH2 0x359 JUMPI POP DUP4 PUSH1 0x1 SWAP6 SWAP7 SWAP8 SWAP9 LT PUSH2 0x340 JUMPI JUMPDEST POP POP POP DUP2 SHL ADD PUSH1 0x1 SSTORE PUSH2 0x168 JUMP JUMPDEST ADD MLOAD PUSH1 0x0 NOT PUSH1 0xF8 DUP5 PUSH1 0x3 SHL AND SHR NOT AND SWAP1 SSTORE CODESIZE DUP1 DUP1 PUSH2 0x332 JUMP JUMPDEST SWAP2 SWAP3 PUSH1 0x20 PUSH1 0x1 DUP2 SWAP3 DUP7 DUP6 ADD MLOAD DUP2 SSTORE ADD SWAP5 ADD SWAP3 ADD PUSH2 0x31D JUMP JUMPDEST PUSH1 0x1 PUSH1 0x0 MSTORE PUSH32 0xB10E2D527612073B26EECDFD717E6A320CF44B4AFAC2B0732D9FCBE2B7FA0CF6 PUSH1 0x1F DUP4 ADD PUSH1 0x5 SHR DUP2 ADD SWAP2 PUSH1 0x20 DUP5 LT PUSH2 0x3CC JUMPI JUMPDEST PUSH1 0x1F ADD PUSH1 0x5 SHR ADD SWAP1 JUMPDEST DUP2 DUP2 LT PUSH2 0x3C0 JUMPI POP PUSH2 0x135 JUMP JUMPDEST PUSH1 0x0 DUP2 SSTORE PUSH1 0x1 ADD PUSH2 0x3B3 JUMP JUMPDEST SWAP1 SWAP2 POP DUP2 SWAP1 PUSH2 0x3AA JUMP JUMPDEST SWAP1 PUSH1 0x7F AND SWAP1 PUSH2 0x123 JUMP JUMPDEST ADD MLOAD SWAP1 POP CODESIZE DUP1 PUSH2 0xEC JUMP JUMPDEST PUSH1 0x0 DUP1 DUP1 MSTORE DUP3 DUP2 KECCAK256 SWAP4 POP PUSH1 0x1F NOT DUP6 AND SWAP1 JUMPDEST DUP2 DUP2 LT PUSH2 0x439 JUMPI POP SWAP1 DUP5 PUSH1 0x1 SWAP6 SWAP5 SWAP4 SWAP3 LT PUSH2 0x420 JUMPI JUMPDEST POP POP POP DUP2 SHL ADD PUSH1 0x0 SSTORE PUSH2 0x102 JUMP JUMPDEST ADD MLOAD PUSH1 0x0 NOT PUSH1 0xF8 DUP5 PUSH1 0x3 SHL AND SHR NOT AND SWAP1 SSTORE CODESIZE DUP1 DUP1 PUSH2 0x412 JUMP JUMPDEST SWAP3 SWAP4 PUSH1 0x20 PUSH1 0x1 DUP2 SWAP3 DUP8 DUP7 ADD MLOAD DUP2 SSTORE ADD SWAP6 ADD SWAP4 ADD PUSH2 0x3FC JUMP JUMPDEST PUSH1 0x0 DUP1 MSTORE SWAP1 SWAP2 POP PUSH32 0x290DECD9548B62A8D60345A988386FC84BA6BC95484008F6362F93160EF3E563 PUSH1 0x1F DUP5 ADD PUSH1 0x5 SHR DUP2 ADD SWAP2 PUSH1 0x20 DUP6 LT PUSH2 0x4B6 JUMPI JUMPDEST SWAP1 PUSH1 0x1F DUP6 SWAP5 SWAP4 SWAP3 ADD PUSH1 0x5 SHR ADD SWAP1 JUMPDEST DUP2 DUP2 LT PUSH2 0x4A7 JUMPI POP PUSH2 0xD5 JUMP JUMPDEST PUSH1 0x0 DUP2 SSTORE DUP5 SWAP4 POP PUSH1 0x1 ADD PUSH2 0x49A JUMP JUMPDEST SWAP1 SWAP2 POP DUP2 SWAP1 PUSH2 0x48C JUMP JUMPDEST SWAP2 PUSH1 0x7F AND SWAP2 PUSH2 0xC1 JUMP JUMPDEST PUSH1 0x0 DUP1 REVERT JUMPDEST PUSH1 0x40 MLOAD SWAP2 SWAP1 PUSH1 0x1F ADD PUSH1 0x1F NOT AND DUP3 ADD PUSH1 0x1 PUSH1 0x1 PUSH1 0x40 SHL SUB DUP2 GT DUP4 DUP3 LT OR PUSH2 0x2E9 JUMPI PUSH1 0x40 MSTORE JUMP JUMPDEST DUP2 PUSH1 0x1F DUP3 ADD SLT ISZERO PUSH2 0x4CA JUMPI DUP1 MLOAD SWAP1 PUSH1 0x1 PUSH1 0x1 PUSH1 0x40 SHL SUB DUP3 GT PUSH2 0x2E9 JUMPI PUSH2 0x523 PUSH1 0x1F DUP4 ADD PUSH1 0x1F NOT AND PUSH1 0x20 ADD PUSH2 0x4CF JUMP JUMPDEST SWAP3 DUP3 DUP5 MSTORE PUSH1 0x20 DUP4 DUP4 ADD ADD GT PUSH2 0x4CA JUMPI PUSH1 0x0 JUMPDEST DUP3 DUP2 LT PUSH2 0x54A JUMPI POP POP PUSH1 0x20 PUSH1 0x0 SWAP2 DUP4 ADD ADD MSTORE SWAP1 JUMP JUMPDEST DUP1 PUSH1 0x20 DUP1 SWAP3 DUP5 ADD ADD MLOAD DUP3 DUP3 DUP8 ADD ADD MSTORE ADD PUSH2 0x535 JUMP JUMPDEST MLOAD SWAP1 PUSH1 0x1 PUSH1 0x1 PUSH1 0xA0 SHL SUB DUP3 AND DUP3 SUB PUSH2 0x4CA JUMPI JUMP INVALID PUSH1 0x80 PUSH1 0x40 MSTORE PUSH1 0x4 CALLDATASIZE LT ISZERO PUSH2 0x12 JUMPI PUSH1 0x0 DUP1 REVERT JUMPDEST PUSH1 0x0 CALLDATALOAD PUSH1 0xE0 SHR PUSH4 0x1452EC37 EQ PUSH2 0x27 JUMPI PUSH1 0x0 DUP1 REVERT JUMPDEST CALLVALUE PUSH2 0x114 JUMPI PUSH1 0xE0 CALLDATASIZE PUSH1 0x3 NOT ADD SLT PUSH2 0x114 JUMPI PUSH2 0x40 PUSH2 0x12A JUMP JUMPDEST PUSH2 0x48 PUSH2 0x139 JUMP JUMPDEST PUSH1 0x44 CALLDATALOAD PUSH1 0x1 PUSH1 0x1 PUSH1 0x40 SHL SUB DUP2 GT PUSH2 0x114 JUMPI PUSH2 0x67 SWAP1 CALLDATASIZE SWAP1 PUSH1 0x4 ADD PUSH2 0x146 JUMP JUMPDEST SWAP2 PUSH1 0x64 CALLDATALOAD PUSH1 0x1 PUSH1 0x1 PUSH1 0x40 SHL SUB DUP2 GT PUSH2 0x114 JUMPI PUSH2 0x87 SWAP1 CALLDATASIZE SWAP1 PUSH1 0x4 ADD PUSH2 0x154 JUMP JUMPDEST SWAP3 PUSH1 0x84 CALLDATALOAD PUSH1 0x1 PUSH1 0x1 PUSH1 0x40 SHL SUB DUP2 GT PUSH2 0x114 JUMPI PUSH2 0xA7 SWAP1 CALLDATASIZE SWAP1 PUSH1 0x4 ADD PUSH2 0x162 JUMP JUMPDEST PUSH1 0xA4 CALLDATALOAD SWAP5 SWAP2 PUSH1 0x1 PUSH1 0x1 PUSH1 0x40 SHL SUB DUP7 GT PUSH2 0x114 JUMPI PUSH2 0x110 SWAP7 PUSH2 0xCF PUSH2 0xDB SWAP8 CALLDATASIZE SWAP1 PUSH1 0x4 ADD PUSH2 0x18F JUMP JUMPDEST SWAP6 SWAP1 SWAP5 PUSH1 0xC4 CALLDATALOAD SWAP8 PUSH2 0x883 JUMP JUMPDEST PUSH1 0x40 DUP1 MLOAD PUSH1 0x1 PUSH1 0x1 PUSH1 0xA0 SHL SUB SWAP6 DUP7 AND DUP2 MSTORE SWAP4 DUP6 AND PUSH1 0x20 DUP6 ADD MSTORE SWAP2 DUP5 AND SWAP2 DUP4 ADD SWAP2 SWAP1 SWAP2 MSTORE SWAP1 SWAP2 AND PUSH1 0x60 DUP3 ADD MSTORE SWAP1 DUP2 SWAP1 PUSH1 0x80 DUP3 ADD SWAP1 JUMP JUMPDEST SUB SWAP1 RETURN JUMPDEST PUSH1 0x0 DUP1 REVERT JUMPDEST PUSH1 0x1 PUSH1 0x1 PUSH1 0xA0 SHL SUB DUP2 AND SUB PUSH2 0x114 JUMPI JUMP JUMPDEST PUSH1 0x4 CALLDATALOAD SWAP1 PUSH2 0x137 DUP3 PUSH2 0x119 JUMP JUMPDEST JUMP JUMPDEST PUSH1 0x24 CALLDATALOAD SWAP1 PUSH2 0x137 DUP3 PUSH2 0x119 JUMP JUMPDEST SWAP1 DUP2 PUSH1 0xA0 SWAP2 SUB SLT PUSH2 0x114 JUMPI SWAP1 JUMP JUMPDEST SWAP1 DUP2 PUSH1 0x40 SWAP2 SUB SLT PUSH2 0x114 JUMPI SWAP1 JUMP JUMPDEST SWAP2 DUP2 PUSH1 0x1F DUP5 ADD SLT ISZERO PUSH2 0x114 JUMPI DUP3 CALLDATALOAD SWAP2 PUSH1 0x1 PUSH1 0x1 PUSH1 0x40 SHL SUB DUP4 GT PUSH2 0x114 JUMPI PUSH1 0x20 DUP4 DUP2 DUP7 ADD SWAP6 ADD ADD GT PUSH2 0x114 JUMPI JUMP JUMPDEST SWAP2 DUP2 PUSH1 0x1F DUP5 ADD SLT ISZERO PUSH2 0x114 JUMPI DUP3 CALLDATALOAD SWAP2 PUSH1 0x1 PUSH1 0x1 PUSH1 0x40 SHL SUB DUP4 GT PUSH2 0x114 JUMPI PUSH1 0x20 DUP1 DUP6 ADD SWAP5 DUP5 PUSH1 0x5 SHL ADD ADD GT PUSH2 0x114 JUMPI JUMP JUMPDEST PUSH4 0x4E487B71 PUSH1 0xE0 SHL PUSH1 0x0 MSTORE PUSH1 0x41 PUSH1 0x4 MSTORE PUSH1 0x24 PUSH1 0x0 REVERT JUMPDEST PUSH1 0x1F SWAP1 SWAP2 ADD PUSH1 0x1F NOT AND DUP2 ADD SWAP1 PUSH1 0x1 PUSH1 0x1 PUSH1 0x40 SHL SUB DUP3 GT SWAP1 DUP3 LT OR PUSH2 0x1F8 JUMPI PUSH1 0x40 MSTORE JUMP JUMPDEST PUSH2 0x1BF JUMP JUMPDEST SWAP1 PUSH1 0x0 SWAP2 PUSH1 0x0 SLOAD SWAP1 DUP2 PUSH1 0x1 SHR SWAP2 PUSH1 0x1 DUP2 AND DUP1 ISZERO PUSH2 0x2A8 JUMPI JUMPDEST PUSH1 0x20 DUP5 LT DUP2 EQ PUSH2 0x292 JUMPI SWAP1 DUP2 ISZERO PUSH2 0x280 JUMPI POP PUSH1 0x1 EQ PUSH2 0x232 JUMPI POP POP JUMP JUMPDEST PUSH1 0x0 DUP1 MSTORE SWAP2 SWAP3 POP SWAP1 PUSH32 0x290DECD9548B62A8D60345A988386FC84BA6BC95484008F6362F93160EF3E563 PUSH1 0x0 SWAP1 JUMPDEST DUP4 DUP3 LT PUSH2 0x26C JUMPI POP POP ADD SWAP1 JUMP JUMPDEST PUSH1 0x1 DUP2 PUSH1 0x20 SWAP3 SLOAD DUP5 DUP7 ADD MSTORE ADD SWAP2 ADD SWAP1 PUSH2 0x25F JUMP JUMPDEST PUSH1 0xFF NOT AND DUP3 MSTORE POP DUP2 ISZERO ISZERO SWAP1 SWAP2 MUL ADD SWAP2 POP JUMP JUMPDEST PUSH4 0x4E487B71 PUSH1 0xE0 SHL PUSH1 0x0 MSTORE PUSH1 0x22 PUSH1 0x4 MSTORE PUSH1 0x24 PUSH1 0x0 REVERT JUMPDEST SWAP3 PUSH1 0x7F AND SWAP3 PUSH2 0x215 JUMP JUMPDEST SWAP1 PUSH1 0x0 SWAP2 PUSH1 0x1 SLOAD SWAP1 DUP2 PUSH1 0x1 SHR SWAP2 PUSH1 0x1 DUP2 AND DUP1 ISZERO PUSH2 0x336 JUMPI JUMPDEST PUSH1 0x20 DUP5 LT DUP2 EQ PUSH2 0x292 JUMPI SWAP1 DUP2 ISZERO PUSH2 0x280 JUMPI POP PUSH1 0x1 EQ PUSH2 0x2E7 JUMPI POP POP JUMP JUMPDEST PUSH1 0x1 PUSH1 0x0 MSTORE SWAP2 SWAP3 POP SWAP1 PUSH32 0xB10E2D527612073B26EECDFD717E6A320CF44B4AFAC2B0732D9FCBE2B7FA0CF6 PUSH1 0x0 SWAP1 JUMPDEST DUP4 DUP3 LT PUSH2 0x322 JUMPI POP POP ADD SWAP1 JUMP JUMPDEST PUSH1 0x1 DUP2 PUSH1 0x20 SWAP3 SLOAD DUP5 DUP7 ADD MSTORE ADD SWAP2 ADD SWAP1 PUSH2 0x315 JUMP JUMPDEST SWAP3 PUSH1 0x7F AND SWAP3 PUSH2 0x2CA JUMP JUMPDEST SWAP1 PUSH1 0x0 SWAP2 PUSH1 0x2 SLOAD SWAP1 DUP2 PUSH1 0x1 SHR SWAP2 PUSH1 0x1 DUP2 AND DUP1 ISZERO PUSH2 0x3C4 JUMPI JUMPDEST PUSH1 0x20 DUP5 LT DUP2 EQ PUSH2 0x292 JUMPI SWAP1 DUP2 ISZERO PUSH2 0x280 JUMPI POP PUSH1 0x1 EQ PUSH2 0x375 JUMPI POP POP JUMP JUMPDEST PUSH1 0x2 PUSH1 0x0 MSTORE SWAP2 SWAP3 POP SWAP1 PUSH32 0x405787FA12A823E0F2B7631CC41B3BA8828B3321CA811111FA75CD3AA3BB5ACE PUSH1 0x0 SWAP1 JUMPDEST DUP4 DUP3 LT PUSH2 0x3B0 JUMPI POP POP ADD SWAP1 JUMP JUMPDEST PUSH1 0x1 DUP2 PUSH1 0x20 SWAP3 SLOAD DUP5 DUP7 ADD MSTORE ADD SWAP2 ADD SWAP1 PUSH2 0x3A3 JUMP JUMPDEST SWAP3 PUSH1 0x7F AND SWAP3 PUSH2 0x358 JUMP JUMPDEST PUSH1 0x0 JUMPDEST DUP4 DUP2 LT PUSH2 0x3E1 JUMPI POP POP PUSH1 0x0 SWAP2 ADD MSTORE JUMP JUMPDEST DUP2 DUP2 ADD MLOAD DUP4 DUP3 ADD MSTORE PUSH1 0x20 ADD PUSH2 0x3D1 JUMP JUMPDEST SWAP1 PUSH2 0x404 PUSH1 0x20 SWAP3 DUP3 DUP2 MLOAD SWAP5 DUP6 SWAP3 ADD PUSH2 0x3CE JUMP JUMPDEST ADD SWAP1 JUMP JUMPDEST ISZERO PUSH2 0x40F JUMPI JUMP JUMPDEST PUSH1 0x40 MLOAD PUSH3 0x461BCD PUSH1 0xE5 SHL DUP2 MSTORE PUSH1 0x20 PUSH1 0x4 DUP3 ADD MSTORE PUSH1 0x1B PUSH1 0x24 DUP3 ADD MSTORE PUSH27 0x1053141C9BDA9958DD0819195C1B1BDE5B595B9D0819985A5B1959 PUSH1 0x2A SHL PUSH1 0x44 DUP3 ADD MSTORE PUSH1 0x64 SWAP1 REVERT JUMPDEST SWAP1 CALLDATALOAD SWAP1 PUSH1 0x1E NOT DUP2 CALLDATASIZE SUB ADD DUP3 SLT ISZERO PUSH2 0x114 JUMPI ADD DUP1 CALLDATALOAD SWAP1 PUSH1 0x1 PUSH1 0x1 PUSH1 0x40 SHL SUB DUP3 GT PUSH2 0x114 JUMPI PUSH1 0x20 ADD SWAP2 DUP2 CALLDATASIZE SUB DUP4 SGT PUSH2 0x114 JUMPI JUMP JUMPDEST SWAP1 DUP1 PUSH1 0x20 SWAP4 SWAP3 DUP2 DUP5 MSTORE DUP5 DUP5 ADD CALLDATACOPY PUSH1 0x0 DUP3 DUP3 ADD DUP5 ADD MSTORE PUSH1 0x1F ADD PUSH1 0x1F NOT AND ADD ADD SWAP1 JUMP JUMPDEST SWAP5 SWAP4 SWAP3 SWAP2 PUSH1 0x40 SWAP3 PUSH2 0x4CB SWAP3 PUSH1 0x1 DUP1 PUSH1 0xA0 SHL SUB AND DUP8 MSTORE PUSH1 0x60 PUSH1 0x20 DUP9 ADD MSTORE PUSH1 0x60 DUP8 ADD SWAP2 PUSH2 0x484 JUMP JUMPDEST SWAP4 ADD MSTORE JUMP JUMPDEST ISZERO PUSH2 0x4D7 JUMPI JUMP JUMPDEST PUSH1 0x40 MLOAD PUSH3 0x461BCD PUSH1 0xE5 SHL DUP2 MSTORE PUSH1 0x20 PUSH1 0x4 DUP3 ADD MSTORE PUSH1 0x21 PUSH1 0x24 DUP3 ADD MSTORE PUSH32 0x414C50726F6A656374566F74696E67206465706C6F796D656E74206661696C65 PUSH1 0x44 DUP3 ADD MSTORE PUSH1 0x19 PUSH1 0xFA SHL PUSH1 0x64 DUP3 ADD MSTORE PUSH1 0x84 SWAP1 REVERT JUMPDEST PUSH1 0x1 PUSH1 0x1 PUSH1 0xA0 SHL SUB SWAP1 SWAP2 AND DUP2 MSTORE PUSH1 0x20 ADD SWAP1 JUMP JUMPDEST ISZERO PUSH2 0x540 JUMPI JUMP JUMPDEST PUSH1 0x40 MLOAD PUSH3 0x461BCD PUSH1 0xE5 SHL DUP2 MSTORE PUSH1 0x20 PUSH1 0x4 DUP3 ADD MSTORE PUSH1 0x22 PUSH1 0x24 DUP3 ADD MSTORE PUSH32 0x414C50726F6A65637453746F72616765206465706C6F796D656E74206661696C PUSH1 0x44 DUP3 ADD MSTORE PUSH2 0x1959 PUSH1 0xF2 SHL PUSH1 0x64 DUP3 ADD MSTORE PUSH1 0x84 SWAP1 REVERT JUMPDEST SWAP1 DUP2 PUSH1 0x20 SWAP2 SUB SLT PUSH2 0x114 JUMPI MLOAD PUSH2 0x5A5 DUP2 PUSH2 0x119 JUMP JUMPDEST SWAP1 JUMP JUMPDEST SWAP2 PUSH1 0x20 SWAP4 PUSH1 0xE0 PUSH2 0x60D SWAP4 SWAP8 SWAP7 SWAP8 PUSH1 0x80 DUP7 MSTORE PUSH2 0x5D2 DUP2 MLOAD DUP1 SWAP3 DUP2 PUSH1 0x80 DUP11 ADD MSTORE DUP10 PUSH1 0xA0 DUP11 ADD SWAP2 ADD PUSH2 0x3CE JUMP JUMPDEST PUSH1 0x1F ADD PUSH1 0x1F NOT AND DUP6 ADD DUP6 DUP2 SUB PUSH1 0xA0 DUP2 DUP2 ADD DUP10 DUP10 ADD MSTORE PUSH1 0x8 SWAP1 DUP4 ADD MSTORE PUSH8 0x726F2D6372617465 PUSH1 0xC0 SHL PUSH1 0xC0 DUP4 ADD MSTORE PUSH1 0xE0 ADD PUSH1 0x40 DUP8 ADD MSTORE ADD SWAP2 PUSH2 0x484 JUMP JUMPDEST SWAP1 PUSH1 0x60 DUP2 DUP4 SUB SWAP2 ADD MSTORE DUP3 DUP2 MSTORE ADD SWAP2 SWAP1 PUSH1 0x0 JUMPDEST DUP2 DUP2 LT PUSH2 0x62C JUMPI POP POP POP SWAP1 JUMP JUMPDEST SWAP1 SWAP2 SWAP3 PUSH1 0x20 DUP1 PUSH1 0x1 SWAP3 DUP7 CALLDATALOAD PUSH2 0x640 DUP2 PUSH2 0x119 JUMP JUMPDEST DUP5 DUP1 PUSH1 0xA0 SHL SUB AND DUP2 MSTORE ADD SWAP5 ADD SWAP2 ADD SWAP2 SWAP1 SWAP2 PUSH2 0x61F JUMP JUMPDEST PUSH1 0x40 MLOAD RETURNDATASIZE PUSH1 0x0 DUP3 RETURNDATACOPY RETURNDATASIZE SWAP1 REVERT JUMPDEST ISZERO PUSH2 0x669 JUMPI JUMP JUMPDEST PUSH1 0x40 MLOAD PUSH3 0x461BCD PUSH1 0xE5 SHL DUP2 MSTORE PUSH1 0x20 PUSH1 0x4 DUP3 ADD MSTORE PUSH1 0x1E PUSH1 0x24 DUP3 ADD MSTORE PUSH32 0x524F2D4372617465206173736574206372656174696F6E206661696C65640000 PUSH1 0x44 DUP3 ADD MSTORE PUSH1 0x64 SWAP1 REVERT JUMPDEST PUSH1 0x0 SWAP2 SUB SLT PUSH2 0x114 JUMPI JUMP JUMPDEST SWAP4 SWAP3 SWAP2 PUSH1 0x20 SWAP2 PUSH2 0x4CB SWAP2 PUSH1 0x40 DUP8 MSTORE PUSH1 0x40 DUP8 ADD SWAP2 PUSH2 0x484 JUMP JUMPDEST SWAP1 CALLDATALOAD SWAP1 PUSH1 0x1E NOT DUP2 CALLDATASIZE SUB ADD DUP3 SLT ISZERO PUSH2 0x114 JUMPI ADD DUP1 CALLDATALOAD SWAP1 PUSH1 0x1 PUSH1 0x1 PUSH1 0x40 SHL SUB DUP3 GT PUSH2 0x114 JUMPI PUSH1 0x20 ADD SWAP2 DUP2 PUSH1 0x5 SHL CALLDATASIZE SUB DUP4 SGT PUSH2 0x114 JUMPI JUMP JUMPDEST PUSH1 0x1 PUSH1 0x1 PUSH1 0xA0 SHL SUB SWAP2 DUP3 AND DUP2 MSTORE SWAP2 DUP2 AND PUSH1 0x20 DUP4 ADD MSTORE SWAP1 SWAP2 AND PUSH1 0x40 DUP3 ADD MSTORE PUSH2 0x100 PUSH1 0x60 DUP3 ADD DUP2 SWAP1 MSTORE SWAP6 SWAP9 SWAP7 SWAP1 SWAP6 SWAP1 SWAP5 PUSH2 0x756 SWAP5 SWAP4 SWAP1 SWAP3 PUSH2 0x748 SWAP3 DUP9 ADD SWAP2 SWAP1 PUSH2 0x484 JUMP JUMPDEST SWAP2 DUP6 DUP4 SUB PUSH1 0x80 DUP8 ADD MSTORE PUSH2 0x484 JUMP JUMPDEST SWAP5 PUSH1 0xA0 DUP4 ADD MSTORE PUSH1 0xC0 DUP3 ADD MSTORE PUSH1 0xE0 DUP2 DUP6 SUB SWAP2 ADD MSTORE DUP1 DUP4 MSTORE PUSH1 0x20 DUP4 ADD SWAP1 PUSH1 0x20 DUP2 PUSH1 0x5 SHL DUP6 ADD ADD SWAP4 DUP4 PUSH1 0x0 SWAP2 PUSH1 0x1E NOT DUP3 CALLDATASIZE SUB ADD SWAP1 JUMPDEST DUP5 DUP5 LT PUSH2 0x799 JUMPI POP POP POP POP POP POP POP SWAP1 JUMP JUMPDEST SWAP1 SWAP2 SWAP3 SWAP4 SWAP5 SWAP6 SWAP7 PUSH1 0x1F NOT DUP3 DUP3 SUB ADD DUP8 MSTORE DUP8 CALLDATALOAD DUP4 DUP2 SLT ISZERO PUSH2 0x114 JUMPI DUP5 ADD PUSH1 0x20 DUP2 ADD SWAP2 SWAP1 CALLDATALOAD PUSH1 0x1 PUSH1 0x1 PUSH1 0x40 SHL SUB DUP2 GT PUSH2 0x114 JUMPI DUP1 CALLDATASIZE SUB DUP4 SGT PUSH2 0x114 JUMPI PUSH2 0x7E3 PUSH1 0x20 SWAP3 DUP4 SWAP3 PUSH1 0x1 SWAP6 PUSH2 0x484 JUMP JUMPDEST SWAP10 ADD SWAP8 ADD SWAP6 SWAP5 ADD SWAP3 SWAP2 SWAP1 PUSH2 0x788 JUMP JUMPDEST PUSH1 0x1 PUSH1 0x1 PUSH1 0x40 SHL SUB DUP2 GT PUSH2 0x1F8 JUMPI PUSH1 0x1F ADD PUSH1 0x1F NOT AND PUSH1 0x20 ADD SWAP1 JUMP JUMPDEST RETURNDATASIZE ISZERO PUSH2 0x838 JUMPI RETURNDATASIZE SWAP1 PUSH2 0x81E DUP3 PUSH2 0x7F2 JUMP JUMPDEST SWAP2 PUSH2 0x82C PUSH1 0x40 MLOAD SWAP4 DUP5 PUSH2 0x1D5 JUMP JUMPDEST DUP3 MSTORE RETURNDATASIZE PUSH1 0x0 PUSH1 0x20 DUP5 ADD RETURNDATACOPY JUMP JUMPDEST PUSH1 0x60 SWAP1 JUMP JUMPDEST ISZERO PUSH2 0x844 JUMPI JUMP JUMPDEST PUSH1 0x40 MLOAD PUSH3 0x461BCD PUSH1 0xE5 SHL DUP2 MSTORE PUSH1 0x20 PUSH1 0x4 DUP3 ADD MSTORE PUSH1 0x17 PUSH1 0x24 DUP3 ADD MSTORE PUSH23 0x1053081C1C9BDA9958DD081CD95D1D5C0819985A5B1959 PUSH1 0x4A SHL PUSH1 0x44 DUP3 ADD MSTORE PUSH1 0x64 SWAP1 REVERT JUMPDEST SWAP1 SWAP8 SWAP9 SWAP6 SWAP4 SWAP5 DUP8 SWAP3 DUP11 PUSH1 0x40 MLOAD DUP1 DUP13 PUSH1 0x20 DUP3 ADD SWAP1 PUSH2 0x8B9 SWAP2 PUSH1 0x60 SWAP2 PUSH1 0x1 DUP1 PUSH1 0xA0 SHL SUB AND DUP2 MSTORE PUSH1 0x40 PUSH1 0x20 DUP3 ADD MSTORE PUSH1 0x0 PUSH1 0x40 DUP3 ADD MSTORE ADD SWAP1 JUMP JUMPDEST SUB PUSH1 0x1F NOT DUP2 ADD DUP3 MSTORE PUSH2 0x8CB SWAP1 DUP3 PUSH2 0x1D5 JUMP JUMPDEST PUSH1 0x40 MLOAD DUP1 PUSH1 0x20 DUP2 ADD SWAP3 PUSH2 0x8DD DUP5 PUSH2 0x1FD JUMP JUMPDEST PUSH2 0x8E6 SWAP2 PUSH2 0x3F1 JUMP JUMPDEST SUB PUSH1 0x1F NOT DUP2 ADD DUP3 MSTORE PUSH2 0x8F8 SWAP1 DUP3 PUSH2 0x1D5 JUMP JUMPDEST MLOAD SWAP1 PUSH1 0x0 CREATE2 SWAP7 PUSH1 0x1 PUSH1 0x1 PUSH1 0xA0 SHL SUB DUP9 AND SWAP7 PUSH2 0x914 DUP9 ISZERO ISZERO PUSH2 0x408 JUMP JUMPDEST PUSH1 0x40 MLOAD PUSH1 0x1 PUSH1 0x1 PUSH1 0xA0 SHL SUB DUP14 AND SWAP8 DUP15 SWAP2 SWAP1 DUP2 SWAP1 DUP13 SWAP1 DUP12 DUP14 PUSH32 0xE071DBA44289D5675312E44197A300AEA64FEE36FDA073C3B1E39A2C5C3912B0 PUSH1 0x0 DUP1 LOG3 PUSH2 0x95A DUP2 DUP1 PUSH2 0x452 JUMP JUMPDEST SWAP1 SWAP2 PUSH1 0x20 ADD CALLDATALOAD SWAP2 PUSH1 0x20 DUP6 ADD SWAP4 PUSH2 0x96F SWAP5 PUSH2 0x4A5 JUMP JUMPDEST SUB PUSH1 0x1F NOT DUP2 ADD DUP3 MSTORE PUSH2 0x981 SWAP1 DUP3 PUSH2 0x1D5 JUMP JUMPDEST PUSH1 0x40 MLOAD SWAP2 DUP3 PUSH1 0x20 DUP2 ADD SWAP3 PUSH2 0x994 DUP5 PUSH2 0x2B2 JUMP JUMPDEST PUSH2 0x99D SWAP2 PUSH2 0x3F1 JUMP JUMPDEST SUB PUSH1 0x1F NOT DUP2 ADD DUP5 MSTORE PUSH2 0x9AF SWAP1 DUP5 PUSH2 0x1D5 JUMP JUMPDEST PUSH1 0x1 ADD SWAP2 MLOAD SWAP1 PUSH1 0x0 CREATE2 SWAP13 PUSH1 0x1 PUSH1 0x1 PUSH1 0xA0 SHL SUB DUP15 AND PUSH2 0x9CE DUP2 ISZERO ISZERO PUSH2 0x4D0 JUMP JUMPDEST DUP10 PUSH1 0x40 MLOAD SWAP2 PUSH32 0xDBAC153C1128DDA7AC3250A70CAE3CFED3034F5EF400308E4F9A606DC1542BA1 PUSH1 0x0 DUP1 LOG3 DUP1 PUSH2 0xA06 DUP13 PUSH1 0x20 DUP4 ADD PUSH2 0x526 JUMP JUMPDEST SUB PUSH1 0x1F NOT DUP2 ADD DUP3 MSTORE PUSH2 0xA18 SWAP1 DUP3 PUSH2 0x1D5 JUMP JUMPDEST PUSH1 0x40 MLOAD SWAP2 DUP3 PUSH1 0x20 DUP2 ADD SWAP3 PUSH2 0xA2B DUP5 PUSH2 0x340 JUMP JUMPDEST PUSH2 0xA34 SWAP2 PUSH2 0x3F1 JUMP JUMPDEST SUB PUSH1 0x1F NOT DUP2 ADD DUP5 MSTORE PUSH2 0xA46 SWAP1 DUP5 PUSH2 0x1D5 JUMP JUMPDEST PUSH1 0x2 ADD SWAP2 MLOAD SWAP1 PUSH1 0x0 CREATE2 SWAP12 DUP9 PUSH1 0x1 PUSH1 0x1 PUSH1 0xA0 SHL SUB DUP15 AND PUSH2 0xA66 DUP2 ISZERO ISZERO PUSH2 0x539 JUMP JUMPDEST PUSH32 0x1D2FE8B5CE0B9037A171941652BB8174E14467B7F86E752F5A1F3B121B49849F PUSH1 0x0 DUP1 LOG3 PUSH2 0xA94 SWAP1 PUSH2 0xEE7 JUMP JUMPDEST PUSH1 0x40 MLOAD PUSH9 0x726F2D63726174652D PUSH1 0xB8 SHL PUSH1 0x20 DUP3 ADD MSTORE SWAP1 DUP2 SWAP1 PUSH1 0x29 DUP3 ADD PUSH2 0xAB9 SWAP2 PUSH2 0x3F1 JUMP JUMPDEST PUSH8 0xB5A5B9A5D1A585B PUSH1 0xC2 SHL DUP2 MSTORE PUSH1 0x8 ADD SUB PUSH1 0x1F NOT DUP2 ADD DUP3 MSTORE PUSH2 0xADC SWAP1 DUP3 PUSH2 0x1D5 JUMP JUMPDEST PUSH1 0x40 MLOAD PUSH4 0x6609C129 PUSH1 0xE0 SHL DUP2 MSTORE SWAP12 DUP13 SWAP3 PUSH2 0xAFD SWAP3 DUP8 SWAP1 DUP7 SWAP1 PUSH1 0x4 DUP8 ADD PUSH2 0x5A8 JUMP JUMPDEST PUSH32 0x0 PUSH1 0x1 PUSH1 0x1 PUSH1 0xA0 SHL SUB AND SWAP2 DUP13 SWAP2 SUB DUP2 GAS PUSH1 0x20 SWAP5 PUSH1 0x0 SWAP2 CALL SWAP10 DUP11 ISZERO PUSH2 0xD94 JUMPI PUSH1 0x0 SWAP11 PUSH2 0xDC2 JUMPI JUMPDEST POP PUSH1 0x1 PUSH1 0x1 PUSH1 0xA0 SHL SUB DUP11 AND SWAP5 PUSH2 0xB5A DUP7 ISZERO ISZERO PUSH2 0x662 JUMP JUMPDEST DUP6 EXTCODESIZE ISZERO PUSH2 0x114 JUMPI PUSH1 0x0 PUSH2 0xB81 SWAP6 PUSH1 0x40 MLOAD DUP1 SWAP8 DUP2 SWAP3 PUSH4 0xF2FDE38B PUSH1 0xE0 SHL DUP4 MSTORE PUSH1 0x4 DUP4 ADD PUSH2 0x526 JUMP JUMPDEST SUB DUP2 DUP4 DUP11 GAS CALL SWAP3 DUP4 ISZERO PUSH2 0xD94 JUMPI PUSH2 0xC9A SWAP7 PUSH32 0x801D6AAB9291E9802C418E55874563FC1FAFBB2D43431BE1A599FA5559EF18F7 DUP16 SWAP5 SWAP7 PUSH1 0x0 SWAP9 SWAP8 PUSH2 0xBD8 PUSH2 0xC66 SWAP7 DUP16 SWAP10 SWAP11 DUP13 SWAP12 PUSH2 0xDAE JUMPI JUMPDEST POP PUSH1 0x40 MLOAD SWAP4 DUP5 SWAP4 DUP5 PUSH2 0x6B9 JUMP JUMPDEST SUB SWAP1 LOG2 PUSH2 0xC58 DUP14 PUSH1 0x40 MLOAD SWAP5 DUP6 SWAP4 DUP13 DUP13 PUSH32 0xAC5EDB0D13F3CB6AE9DF8870CBB8174D772BEE2817960A2C9FEB9EE548F526F2 DUP12 DUP1 LOG3 PUSH2 0xC15 DUP2 DUP1 PUSH2 0x452 JUMP JUMPDEST PUSH2 0xC22 PUSH1 0x20 DUP5 ADD DUP5 PUSH2 0x452 JUMP JUMPDEST SWAP2 PUSH1 0x40 DUP6 ADD CALLDATALOAD SWAP4 PUSH2 0xC3C PUSH1 0x60 DUP8 ADD CALLDATALOAD SWAP7 PUSH1 0x80 DUP2 ADD SWAP1 PUSH2 0x6D1 JUMP JUMPDEST SWAP9 SWAP1 SWAP8 PUSH1 0x20 DUP13 ADD SWAP15 DUP16 PUSH4 0x37C7B18F PUSH1 0xE0 SHL SWAP1 MSTORE PUSH1 0x24 DUP14 ADD PUSH2 0x706 JUMP JUMPDEST SUB PUSH1 0x1F NOT DUP2 ADD DUP4 MSTORE DUP3 PUSH2 0x1D5 JUMP JUMPDEST MLOAD SWAP1 DUP3 PUSH32 0x0 GAS CALL PUSH2 0xC94 PUSH2 0x80D JUMP JUMPDEST POP PUSH2 0x83D JUMP JUMPDEST DUP1 EXTCODESIZE ISZERO PUSH2 0x114 JUMPI PUSH1 0x40 MLOAD PUSH4 0x562D0A13 PUSH1 0xE0 SHL DUP2 MSTORE PUSH1 0x0 DUP2 DUP1 PUSH2 0xCBF DUP8 PUSH1 0x4 DUP4 ADD PUSH2 0x526 JUMP JUMPDEST SUB DUP2 DUP4 DUP7 GAS CALL DUP1 ISZERO PUSH2 0xD94 JUMPI PUSH2 0xD99 JUMPI JUMPDEST POP DUP1 EXTCODESIZE ISZERO PUSH2 0x114 JUMPI PUSH1 0x40 MLOAD PUSH4 0x755CACC9 PUSH1 0xE1 SHL DUP2 MSTORE PUSH1 0x0 DUP2 DUP1 PUSH2 0xCF6 DUP10 PUSH1 0x4 DUP4 ADD PUSH2 0x526 JUMP JUMPDEST SUB DUP2 DUP4 DUP7 GAS CALL DUP1 ISZERO PUSH2 0xD94 JUMPI PUSH2 0xD79 JUMPI JUMPDEST POP PUSH32 0xBA71C3331C78B3552695E5BDA0F98DE04012E2C1641A94FEB9A6E8DFE1385F57 PUSH1 0x40 MLOAD DUP4 DUP4 PUSH32 0xCA39DD33C07E8CEE276302F3CE5F6D3B208CC910D150D79B933FF0E5B7DF2D34 PUSH1 0x0 DUP1 LOG3 PUSH1 0x1 PUSH1 0x1 PUSH1 0xA0 SHL SUB DUP10 DUP2 AND DUP3 MSTORE DUP9 DUP2 AND PUSH1 0x20 DUP4 ADD MSTORE DUP8 AND PUSH1 0x40 DUP3 ADD MSTORE PUSH1 0x60 SWAP1 LOG3 SWAP4 SWAP3 SWAP2 SWAP1 JUMP JUMPDEST DUP1 PUSH2 0xD88 PUSH1 0x0 PUSH2 0xD8E SWAP4 PUSH2 0x1D5 JUMP JUMPDEST DUP1 PUSH2 0x6AE JUMP JUMPDEST CODESIZE PUSH2 0xD07 JUMP JUMPDEST PUSH2 0x656 JUMP JUMPDEST DUP1 PUSH2 0xD88 PUSH1 0x0 PUSH2 0xDA8 SWAP4 PUSH2 0x1D5 JUMP JUMPDEST CODESIZE PUSH2 0xCD0 JUMP JUMPDEST DUP1 PUSH2 0xD88 DUP14 PUSH2 0xDBC SWAP4 PUSH2 0x1D5 JUMP JUMPDEST CODESIZE PUSH2 0xBCB JUMP JUMPDEST PUSH2 0xDE5 SWAP2 SWAP11 POP PUSH1 0x20 RETURNDATASIZE PUSH1 0x20 GT PUSH2 0xDEC JUMPI JUMPDEST PUSH2 0xDDD DUP2 DUP4 PUSH2 0x1D5 JUMP JUMPDEST DUP2 ADD SWAP1 PUSH2 0x590 JUMP JUMPDEST SWAP9 CODESIZE PUSH2 0xB43 JUMP JUMPDEST POP RETURNDATASIZE PUSH2 0xDD3 JUMP JUMPDEST PUSH1 0x40 MLOAD SWAP1 PUSH2 0xE02 PUSH1 0x40 DUP4 PUSH2 0x1D5 JUMP JUMPDEST PUSH1 0x10 DUP3 MSTORE PUSH16 0x181899199A1A9B1B9C1CB0B131B232B3 PUSH1 0x81 SHL PUSH1 0x20 DUP4 ADD MSTORE JUMP JUMPDEST PUSH1 0x40 MLOAD PUSH1 0x60 SWAP2 SWAP1 PUSH2 0xE32 DUP4 DUP3 PUSH2 0x1D5 JUMP JUMPDEST PUSH1 0x2A DUP2 MSTORE SWAP2 PUSH1 0x1F NOT ADD CALLDATASIZE PUSH1 0x20 DUP5 ADD CALLDATACOPY JUMP JUMPDEST PUSH4 0x4E487B71 PUSH1 0xE0 SHL PUSH1 0x0 MSTORE PUSH1 0x32 PUSH1 0x4 MSTORE PUSH1 0x24 PUSH1 0x0 REVERT JUMPDEST DUP1 MLOAD ISZERO PUSH2 0xE66 JUMPI PUSH1 0x20 ADD SWAP1 JUMP JUMPDEST PUSH2 0xE43 JUMP JUMPDEST DUP1 MLOAD PUSH1 0x1 LT ISZERO PUSH2 0xE66 JUMPI PUSH1 0x21 ADD SWAP1 JUMP JUMPDEST SWAP1 DUP2 MLOAD DUP2 LT ISZERO PUSH2 0xE66 JUMPI ADD PUSH1 0x20 ADD SWAP1 JUMP JUMPDEST PUSH4 0x4E487B71 PUSH1 0xE0 SHL PUSH1 0x0 MSTORE PUSH1 0x11 PUSH1 0x4 MSTORE PUSH1 0x24 PUSH1 0x0 REVERT JUMPDEST SWAP1 PUSH1 0xC DUP3 ADD DUP1 SWAP3 GT PUSH2 0xEB0 JUMPI JUMP JUMPDEST PUSH2 0xE8C JUMP JUMPDEST PUSH1 0x2 ADD SWAP1 DUP2 PUSH1 0x2 GT PUSH2 0xEB0 JUMPI JUMP JUMPDEST PUSH1 0x3 ADD SWAP1 DUP2 PUSH1 0x3 GT PUSH2 0xEB0 JUMPI JUMP JUMPDEST SWAP1 DUP2 PUSH1 0x1 SHL SWAP2 DUP1 DUP4 DIV PUSH1 0x2 EQ SWAP1 ISZERO OR ISZERO PUSH2 0xEB0 JUMPI JUMP JUMPDEST PUSH1 0x1 PUSH1 0x1 PUSH1 0xA0 SHL SUB AND PUSH2 0xEF8 PUSH2 0xDF3 JUMP JUMPDEST SWAP1 PUSH2 0xF01 PUSH2 0xE21 JUMP JUMPDEST SWAP2 PUSH1 0x30 PUSH2 0xF0D DUP5 PUSH2 0xE59 JUMP JUMPDEST MSTORE8 PUSH1 0x78 PUSH2 0xF19 DUP5 PUSH2 0xE6B JUMP JUMPDEST MSTORE8 PUSH1 0x0 JUMPDEST PUSH1 0x14 DUP2 LT PUSH2 0xF2B JUMPI POP POP POP SWAP1 JUMP JUMPDEST PUSH2 0xF34 DUP2 PUSH2 0xEA2 JUMP JUMPDEST PUSH1 0x20 DUP2 LT ISZERO PUSH2 0xE66 JUMPI PUSH2 0xF62 SWAP1 PUSH2 0xF54 SWAP1 DUP6 SWAP1 BYTE PUSH1 0x4 SHR PUSH1 0xF AND DUP5 PUSH2 0xE7B JUMP JUMPDEST MLOAD PUSH1 0x1 PUSH1 0x1 PUSH1 0xF8 SHL SUB NOT AND SWAP1 JUMP JUMPDEST PUSH2 0xF81 PUSH2 0xF76 PUSH2 0xF71 DUP5 PUSH2 0xED1 JUMP JUMPDEST PUSH2 0xEB5 JUMP JUMPDEST SWAP2 PUSH1 0x0 BYTE SWAP2 DUP7 PUSH2 0xE7B JUMP JUMPDEST MSTORE8 PUSH2 0xF8B DUP2 PUSH2 0xEA2 JUMP JUMPDEST SWAP1 PUSH1 0x20 DUP3 LT ISZERO PUSH2 0xE66 JUMPI PUSH2 0xFA9 PUSH2 0xF54 PUSH1 0xF DUP7 PUSH1 0x1 SWAP6 BYTE AND DUP6 PUSH2 0xE7B JUMP JUMPDEST PUSH2 0xFC8 PUSH2 0xFBD PUSH2 0xFB8 DUP5 PUSH2 0xED1 JUMP JUMPDEST PUSH2 0xEC3 JUMP JUMPDEST SWAP2 PUSH1 0x0 BYTE SWAP2 DUP8 PUSH2 0xE7B JUMP JUMPDEST MSTORE8 ADD PUSH2 0xF1D JUMP INVALID LOG2 PUSH5 0x6970667358 0x22 SLT KECCAK256 0xED DUP8 SWAP6 DUP11 0xDC BASEFEE PUSH19 0x42F288C336C5B2C32788502529F52CB0476C6D 0x4E 0xA8 0xAA SWAP7 SWAP8 0xF7 PUSH5 0x736F6C6343 STOP ADDMOD SHR STOP CALLER "},"methodIdentifiers":{"deployAL(address,address,(string,string,uint256,uint256,string[]),(string,uint256),string,address[],uint256)":"1452ec37"}}}}}