{"contracts/ALProjectLinker.sol":{"ALProjectLinker":{"abi":[{"anonymous":false,"inputs":[{"indexed":true,"internalType":"address","name":"baseProject","type":"address"},{"indexed":true,"internalType":"address","name":"alProject","type":"address"}],"name":"ALExtensionLinked","type":"event"},{"anonymous":false,"inputs":[{"indexed":true,"internalType":"address","name":"baseProject","type":"address"},{"indexed":true,"internalType":"address","name":"alProject","type":"address"},{"indexed":false,"internalType":"address","name":"votingContract","type":"address"},{"indexed":false,"internalType":"address","name":"storageContract","type":"address"}],"name":"ALProjectLinked","type":"event"},{"anonymous":false,"inputs":[{"indexed":true,"internalType":"address","name":"alProject","type":"address"}],"name":"ALProjectSetupCompleted","type":"event"},{"anonymous":false,"inputs":[{"indexed":true,"internalType":"address","name":"alProject","type":"address"}],"name":"ALProjectSetupStarted","type":"event"},{"anonymous":false,"inputs":[{"indexed":true,"internalType":"address","name":"baseProject","type":"address"},{"indexed":false,"internalType":"address","name":"rocrateAsset","type":"address"}],"name":"ROCrateAssetUpdated","type":"event"},{"inputs":[{"internalType":"address","name":"baseProject","type":"address"},{"internalType":"address","name":"alProject","type":"address"},{"internalType":"address","name":"votingContract","type":"address"},{"internalType":"address","name":"storageContract","type":"address"},{"internalType":"string","name":"queryStrategy","type":"string"},{"internalType":"string","name":"alScenario","type":"string"},{"internalType":"uint256","name":"maxIteration","type":"uint256"},{"internalType":"uint256","name":"queryBatchSize","type":"uint256"},{"internalType":"string[]","name":"labelSpace","type":"string[]"},{"internalType":"address","name":"rocrateAsset","type":"address"}],"name":"linkALProject","outputs":[],"stateMutability":"nonpayable","type":"function"},{"inputs":[{"internalType":"address","name":"alProject","type":"address"},{"internalType":"address","name":"votingContract","type":"address"},{"internalType":"address","name":"storageContract","type":"address"},{"internalType":"string","name":"queryStrategy","type":"string"},{"internalType":"string","name":"alScenario","type":"string"},{"internalType":"uint256","name":"maxIteration","type":"uint256"},{"internalType":"uint256","name":"queryBatchSize","type":"uint256"},{"internalType":"string[]","name":"labelSpace","type":"string[]"}],"name":"setupALProjectOnly","outputs":[],"stateMutability":"nonpayable","type":"function"}],"evm":{"bytecode":{"linkReferences":{},"object":"60808060405234601557610673908161001b8239f35b600080fdfe608080604052600436101561001357600080fd5b600090813560e01c90816337c7b18f146102e15750637be618d21461003757600080fd5b346102de576101403660031901126102de57610051610405565b610059610420565b90610062610436565b606435926001600160a01b038416919082850361028657856084356001600160401b0381116102bb5761009990369060040161044c565b969060a4356001600160401b0381116102dc576100ba90369060040161044c565b90610104356001600160401b038111610286576100db903690600401610479565b909a610124356001600160a01b03811698919291908990036102d85760018060a01b03169b604051968d60008051602061061e8339815191528a80a28d3b156102d4578a88968796610144968c9a635bb06c0b60e01b8a5260e4359560c4359560048c01610503565b0381838b5af180156102b0576102bf575b5060405194866000805160206105fe8339815191528380a26001600160a01b031694853b156102bb5763562d0a1360e01b8152600481018790528181602481838a5af180156102b05761029b575b50506040519085857f70bf1b66310b80fdfdc1137c7437cb575ed9fd7079c1f381418d72f648f948998980a3843b156102975763755cacc960e11b825260048201819052868083602481838a5af192831561028a578693610269575b505092604092917ff9349732be02926a8242dff9037c37e003ac8dd5211df0d3e61ef7e28e039d6d60207f9edf188cac833db7cea7f03b6100ef256d6f0e5d95e6af65fc6f5730f6b93e18968651908152a282516001600160a01b0390921682526020820152a380f35b819294935090610278916104a9565b6102865790839086386101ff565b8580fd5b50604051903d90823e3d90fd5b8680fd5b816102a5916104a9565b6102865785386101a3565b6040513d84823e3d90fd5b5080fd5b816102c9916104a9565b610286578538610155565b8880fd5b8780fd5b835b80fd5b82346102de576101003660031901126102de576102fc610405565b91610305610420565b9261030e610436565b906064356001600160401b0381116104015761032e90369060040161044c565b90959092906084356001600160401b0381116102975761035290369060040161044c565b9060e4356001600160401b0381116102d457610372903690600401610479565b6001600160a01b0390961699959690958a60008051602061061e8339815191528b80a28a3b156103fd57938997938997938897936103c597635bb06c0b60e01b8a5260c4359560a4359560048c01610503565b038183875af180156102b0576103ed575b50906000805160206105fe8339815191528280a280f35b816103f7916104a9565b826103d6565b8980fd5b8480fd5b600435906001600160a01b038216820361041b57565b600080fd5b602435906001600160a01b038216820361041b57565b604435906001600160a01b038216820361041b57565b9181601f8401121561041b578235916001600160401b03831161041b576020838186019501011161041b57565b9181601f8401121561041b578235916001600160401b03831161041b576020808501948460051b01011161041b57565b601f909101601f19168101906001600160401b038211908210176104cc57604052565b634e487b7160e01b600052604160045260246000fd5b908060209392818452848401376000828201840152601f01601f1916010190565b6001600160a01b0391821681529116602082015261010060408201819052989998959790969095909461054e9493909261054092890191906104e2565b9186830360608801526104e2565b93608084015260a083015281830360c0830152848352602083019460208160051b8501019382600091601e1982360301905b8484106105a257505050505050602092935060e0818303910152600081520190565b909192939496601f19828203018a5287358381121561041b578401602081019190356001600160401b03811161041b57803603831361041b576105eb60209283926001956104e2565b99019a0194019291909894939861058056fea3013482c0d194acd9164072807c2dfa8c7f2e464809f9abc40e1b08bfa50478403f0915017a90804b68ff7ab6d2c982eefe5a4ea3f39b54934b2d6174301d92a26469706673582212206aecd864b7fa49ae9b999793f6dd2b9690b72c0426ea84e8f101dfa2bba11f2e64736f6c634300081c0033","opcodes":"PUSH1 0x80 DUP1 PUSH1 0x40 MSTORE CALLVALUE PUSH1 0x15 JUMPI PUSH2 0x673 SWAP1 DUP2 PUSH2 0x1B DUP3 CODECOPY RETURN JUMPDEST PUSH1 0x0 DUP1 REVERT INVALID PUSH1 0x80 DUP1 PUSH1 0x40 MSTORE PUSH1 0x4 CALLDATASIZE LT ISZERO PUSH2 0x13 JUMPI PUSH1 0x0 DUP1 REVERT JUMPDEST PUSH1 0x0 SWAP1 DUP2 CALLDATALOAD PUSH1 0xE0 SHR SWAP1 DUP2 PUSH4 0x37C7B18F EQ PUSH2 0x2E1 JUMPI POP PUSH4 0x7BE618D2 EQ PUSH2 0x37 JUMPI PUSH1 0x0 DUP1 REVERT JUMPDEST CALLVALUE PUSH2 0x2DE JUMPI PUSH2 0x140 CALLDATASIZE PUSH1 0x3 NOT ADD SLT PUSH2 0x2DE JUMPI PUSH2 0x51 PUSH2 0x405 JUMP JUMPDEST PUSH2 0x59 PUSH2 0x420 JUMP JUMPDEST SWAP1 PUSH2 0x62 PUSH2 0x436 JUMP JUMPDEST PUSH1 0x64 CALLDATALOAD SWAP3 PUSH1 0x1 PUSH1 0x1 PUSH1 0xA0 SHL SUB DUP5 AND SWAP2 SWAP1 DUP3 DUP6 SUB PUSH2 0x286 JUMPI DUP6 PUSH1 0x84 CALLDATALOAD PUSH1 0x1 PUSH1 0x1 PUSH1 0x40 SHL SUB DUP2 GT PUSH2 0x2BB JUMPI PUSH2 0x99 SWAP1 CALLDATASIZE SWAP1 PUSH1 0x4 ADD PUSH2 0x44C JUMP JUMPDEST SWAP7 SWAP1 PUSH1 0xA4 CALLDATALOAD PUSH1 0x1 PUSH1 0x1 PUSH1 0x40 SHL SUB DUP2 GT PUSH2 0x2DC JUMPI PUSH2 0xBA SWAP1 CALLDATASIZE SWAP1 PUSH1 0x4 ADD PUSH2 0x44C JUMP JUMPDEST SWAP1 PUSH2 0x104 CALLDATALOAD PUSH1 0x1 PUSH1 0x1 PUSH1 0x40 SHL SUB DUP2 GT PUSH2 0x286 JUMPI PUSH2 0xDB SWAP1 CALLDATASIZE SWAP1 PUSH1 0x4 ADD PUSH2 0x479 JUMP JUMPDEST SWAP1 SWAP11 PUSH2 0x124 CALLDATALOAD PUSH1 0x1 PUSH1 0x1 PUSH1 0xA0 SHL SUB DUP2 AND SWAP9 SWAP2 SWAP3 SWAP2 SWAP1 DUP10 SWAP1 SUB PUSH2 0x2D8 JUMPI PUSH1 0x1 DUP1 PUSH1 0xA0 SHL SUB AND SWAP12 PUSH1 0x40 MLOAD SWAP7 DUP14 PUSH1 0x0 DUP1 MLOAD PUSH1 0x20 PUSH2 0x61E DUP4 CODECOPY DUP2 MLOAD SWAP2 MSTORE DUP11 DUP1 LOG2 DUP14 EXTCODESIZE ISZERO PUSH2 0x2D4 JUMPI DUP11 DUP9 SWAP7 DUP8 SWAP7 PUSH2 0x144 SWAP7 DUP13 SWAP11 PUSH4 0x5BB06C0B PUSH1 0xE0 SHL DUP11 MSTORE PUSH1 0xE4 CALLDATALOAD SWAP6 PUSH1 0xC4 CALLDATALOAD SWAP6 PUSH1 0x4 DUP13 ADD PUSH2 0x503 JUMP JUMPDEST SUB DUP2 DUP4 DUP12 GAS CALL DUP1 ISZERO PUSH2 0x2B0 JUMPI PUSH2 0x2BF JUMPI JUMPDEST POP PUSH1 0x40 MLOAD SWAP5 DUP7 PUSH1 0x0 DUP1 MLOAD PUSH1 0x20 PUSH2 0x5FE DUP4 CODECOPY DUP2 MLOAD SWAP2 MSTORE DUP4 DUP1 LOG2 PUSH1 0x1 PUSH1 0x1 PUSH1 0xA0 SHL SUB AND SWAP5 DUP6 EXTCODESIZE ISZERO PUSH2 0x2BB JUMPI PUSH4 0x562D0A13 PUSH1 0xE0 SHL DUP2 MSTORE PUSH1 0x4 DUP2 ADD DUP8 SWAP1 MSTORE DUP2 DUP2 PUSH1 0x24 DUP2 DUP4 DUP11 GAS CALL DUP1 ISZERO PUSH2 0x2B0 JUMPI PUSH2 0x29B JUMPI JUMPDEST POP POP PUSH1 0x40 MLOAD SWAP1 DUP6 DUP6 PUSH32 0x70BF1B66310B80FDFDC1137C7437CB575ED9FD7079C1F381418D72F648F94899 DUP10 DUP1 LOG3 DUP5 EXTCODESIZE ISZERO PUSH2 0x297 JUMPI PUSH4 0x755CACC9 PUSH1 0xE1 SHL DUP3 MSTORE PUSH1 0x4 DUP3 ADD DUP2 SWAP1 MSTORE DUP7 DUP1 DUP4 PUSH1 0x24 DUP2 DUP4 DUP11 GAS CALL SWAP3 DUP4 ISZERO PUSH2 0x28A JUMPI DUP7 SWAP4 PUSH2 0x269 JUMPI JUMPDEST POP POP SWAP3 PUSH1 0x40 SWAP3 SWAP2 PUSH32 0xF9349732BE02926A8242DFF9037C37E003AC8DD5211DF0D3E61EF7E28E039D6D PUSH1 0x20 PUSH32 0x9EDF188CAC833DB7CEA7F03B6100EF256D6F0E5D95E6AF65FC6F5730F6B93E18 SWAP7 DUP7 MLOAD SWAP1 DUP2 MSTORE LOG2 DUP3 MLOAD PUSH1 0x1 PUSH1 0x1 PUSH1 0xA0 SHL SUB SWAP1 SWAP3 AND DUP3 MSTORE PUSH1 0x20 DUP3 ADD MSTORE LOG3 DUP1 RETURN JUMPDEST DUP2 SWAP3 SWAP5 SWAP4 POP SWAP1 PUSH2 0x278 SWAP2 PUSH2 0x4A9 JUMP JUMPDEST PUSH2 0x286 JUMPI SWAP1 DUP4 SWAP1 DUP7 CODESIZE PUSH2 0x1FF JUMP JUMPDEST DUP6 DUP1 REVERT JUMPDEST POP PUSH1 0x40 MLOAD SWAP1 RETURNDATASIZE SWAP1 DUP3 RETURNDATACOPY RETURNDATASIZE SWAP1 REVERT JUMPDEST DUP7 DUP1 REVERT JUMPDEST DUP2 PUSH2 0x2A5 SWAP2 PUSH2 0x4A9 JUMP JUMPDEST PUSH2 0x286 JUMPI DUP6 CODESIZE PUSH2 0x1A3 JUMP JUMPDEST PUSH1 0x40 MLOAD RETURNDATASIZE DUP5 DUP3 RETURNDATACOPY RETURNDATASIZE SWAP1 REVERT JUMPDEST POP DUP1 REVERT JUMPDEST DUP2 PUSH2 0x2C9 SWAP2 PUSH2 0x4A9 JUMP JUMPDEST PUSH2 0x286 JUMPI DUP6 CODESIZE PUSH2 0x155 JUMP JUMPDEST DUP9 DUP1 REVERT JUMPDEST DUP8 DUP1 REVERT JUMPDEST DUP4 JUMPDEST DUP1 REVERT JUMPDEST DUP3 CALLVALUE PUSH2 0x2DE JUMPI PUSH2 0x100 CALLDATASIZE PUSH1 0x3 NOT ADD SLT PUSH2 0x2DE JUMPI PUSH2 0x2FC PUSH2 0x405 JUMP JUMPDEST SWAP2 PUSH2 0x305 PUSH2 0x420 JUMP JUMPDEST SWAP3 PUSH2 0x30E PUSH2 0x436 JUMP JUMPDEST SWAP1 PUSH1 0x64 CALLDATALOAD PUSH1 0x1 PUSH1 0x1 PUSH1 0x40 SHL SUB DUP2 GT PUSH2 0x401 JUMPI PUSH2 0x32E SWAP1 CALLDATASIZE SWAP1 PUSH1 0x4 ADD PUSH2 0x44C JUMP JUMPDEST SWAP1 SWAP6 SWAP1 SWAP3 SWAP1 PUSH1 0x84 CALLDATALOAD PUSH1 0x1 PUSH1 0x1 PUSH1 0x40 SHL SUB DUP2 GT PUSH2 0x297 JUMPI PUSH2 0x352 SWAP1 CALLDATASIZE SWAP1 PUSH1 0x4 ADD PUSH2 0x44C JUMP JUMPDEST SWAP1 PUSH1 0xE4 CALLDATALOAD PUSH1 0x1 PUSH1 0x1 PUSH1 0x40 SHL SUB DUP2 GT PUSH2 0x2D4 JUMPI PUSH2 0x372 SWAP1 CALLDATASIZE SWAP1 PUSH1 0x4 ADD PUSH2 0x479 JUMP JUMPDEST PUSH1 0x1 PUSH1 0x1 PUSH1 0xA0 SHL SUB SWAP1 SWAP7 AND SWAP10 SWAP6 SWAP7 SWAP1 SWAP6 DUP11 PUSH1 0x0 DUP1 MLOAD PUSH1 0x20 PUSH2 0x61E DUP4 CODECOPY DUP2 MLOAD SWAP2 MSTORE DUP12 DUP1 LOG2 DUP11 EXTCODESIZE ISZERO PUSH2 0x3FD JUMPI SWAP4 DUP10 SWAP8 SWAP4 DUP10 SWAP8 SWAP4 DUP9 SWAP8 SWAP4 PUSH2 0x3C5 SWAP8 PUSH4 0x5BB06C0B PUSH1 0xE0 SHL DUP11 MSTORE PUSH1 0xC4 CALLDATALOAD SWAP6 PUSH1 0xA4 CALLDATALOAD SWAP6 PUSH1 0x4 DUP13 ADD PUSH2 0x503 JUMP JUMPDEST SUB DUP2 DUP4 DUP8 GAS CALL DUP1 ISZERO PUSH2 0x2B0 JUMPI PUSH2 0x3ED JUMPI JUMPDEST POP SWAP1 PUSH1 0x0 DUP1 MLOAD PUSH1 0x20 PUSH2 0x5FE DUP4 CODECOPY DUP2 MLOAD SWAP2 MSTORE DUP3 DUP1 LOG2 DUP1 RETURN JUMPDEST DUP2 PUSH2 0x3F7 SWAP2 PUSH2 0x4A9 JUMP JUMPDEST DUP3 PUSH2 0x3D6 JUMP JUMPDEST DUP10 DUP1 REVERT JUMPDEST DUP5 DUP1 REVERT JUMPDEST PUSH1 0x4 CALLDATALOAD SWAP1 PUSH1 0x1 PUSH1 0x1 PUSH1 0xA0 SHL SUB DUP3 AND DUP3 SUB PUSH2 0x41B JUMPI JUMP JUMPDEST PUSH1 0x0 DUP1 REVERT JUMPDEST PUSH1 0x24 CALLDATALOAD SWAP1 PUSH1 0x1 PUSH1 0x1 PUSH1 0xA0 SHL SUB DUP3 AND DUP3 SUB PUSH2 0x41B JUMPI JUMP JUMPDEST PUSH1 0x44 CALLDATALOAD SWAP1 PUSH1 0x1 PUSH1 0x1 PUSH1 0xA0 SHL SUB DUP3 AND DUP3 SUB PUSH2 0x41B JUMPI JUMP JUMPDEST SWAP2 DUP2 PUSH1 0x1F DUP5 ADD SLT ISZERO PUSH2 0x41B JUMPI DUP3 CALLDATALOAD SWAP2 PUSH1 0x1 PUSH1 0x1 PUSH1 0x40 SHL SUB DUP4 GT PUSH2 0x41B JUMPI PUSH1 0x20 DUP4 DUP2 DUP7 ADD SWAP6 ADD ADD GT PUSH2 0x41B JUMPI JUMP JUMPDEST SWAP2 DUP2 PUSH1 0x1F DUP5 ADD SLT ISZERO PUSH2 0x41B JUMPI DUP3 CALLDATALOAD SWAP2 PUSH1 0x1 PUSH1 0x1 PUSH1 0x40 SHL SUB DUP4 GT PUSH2 0x41B JUMPI PUSH1 0x20 DUP1 DUP6 ADD SWAP5 DUP5 PUSH1 0x5 SHL ADD ADD GT PUSH2 0x41B JUMPI JUMP JUMPDEST PUSH1 0x1F SWAP1 SWAP2 ADD PUSH1 0x1F NOT AND DUP2 ADD SWAP1 PUSH1 0x1 PUSH1 0x1 PUSH1 0x40 SHL SUB DUP3 GT SWAP1 DUP3 LT OR PUSH2 0x4CC JUMPI PUSH1 0x40 MSTORE JUMP JUMPDEST PUSH4 0x4E487B71 PUSH1 0xE0 SHL PUSH1 0x0 MSTORE PUSH1 0x41 PUSH1 0x4 MSTORE PUSH1 0x24 PUSH1 0x0 REVERT JUMPDEST SWAP1 DUP1 PUSH1 0x20 SWAP4 SWAP3 DUP2 DUP5 MSTORE DUP5 DUP5 ADD CALLDATACOPY PUSH1 0x0 DUP3 DUP3 ADD DUP5 ADD MSTORE PUSH1 0x1F ADD PUSH1 0x1F NOT AND ADD ADD SWAP1 JUMP JUMPDEST PUSH1 0x1 PUSH1 0x1 PUSH1 0xA0 SHL SUB SWAP2 DUP3 AND DUP2 MSTORE SWAP2 AND PUSH1 0x20 DUP3 ADD MSTORE PUSH2 0x100 PUSH1 0x40 DUP3 ADD DUP2 SWAP1 MSTORE SWAP9 SWAP10 SWAP9 SWAP6 SWAP8 SWAP1 SWAP7 SWAP1 SWAP6 SWAP1 SWAP5 PUSH2 0x54E SWAP5 SWAP4 SWAP1 SWAP3 PUSH2 0x540 SWAP3 DUP10 ADD SWAP2 SWAP1 PUSH2 0x4E2 JUMP JUMPDEST SWAP2 DUP7 DUP4 SUB PUSH1 0x60 DUP9 ADD MSTORE PUSH2 0x4E2 JUMP JUMPDEST SWAP4 PUSH1 0x80 DUP5 ADD MSTORE PUSH1 0xA0 DUP4 ADD MSTORE DUP2 DUP4 SUB PUSH1 0xC0 DUP4 ADD MSTORE DUP5 DUP4 MSTORE PUSH1 0x20 DUP4 ADD SWAP5 PUSH1 0x20 DUP2 PUSH1 0x5 SHL DUP6 ADD ADD SWAP4 DUP3 PUSH1 0x0 SWAP2 PUSH1 0x1E NOT DUP3 CALLDATASIZE SUB ADD SWAP1 JUMPDEST DUP5 DUP5 LT PUSH2 0x5A2 JUMPI POP POP POP POP POP POP PUSH1 0x20 SWAP3 SWAP4 POP PUSH1 0xE0 DUP2 DUP4 SUB SWAP2 ADD MSTORE PUSH1 0x0 DUP2 MSTORE ADD SWAP1 JUMP JUMPDEST SWAP1 SWAP2 SWAP3 SWAP4 SWAP5 SWAP7 PUSH1 0x1F NOT DUP3 DUP3 SUB ADD DUP11 MSTORE DUP8 CALLDATALOAD DUP4 DUP2 SLT ISZERO PUSH2 0x41B JUMPI DUP5 ADD PUSH1 0x20 DUP2 ADD SWAP2 SWAP1 CALLDATALOAD PUSH1 0x1 PUSH1 0x1 PUSH1 0x40 SHL SUB DUP2 GT PUSH2 0x41B JUMPI DUP1 CALLDATASIZE SUB DUP4 SGT PUSH2 0x41B JUMPI PUSH2 0x5EB PUSH1 0x20 SWAP3 DUP4 SWAP3 PUSH1 0x1 SWAP6 PUSH2 0x4E2 JUMP JUMPDEST SWAP10 ADD SWAP11 ADD SWAP5 ADD SWAP3 SWAP2 SWAP1 SWAP9 SWAP5 SWAP4 SWAP9 PUSH2 0x580 JUMP INVALID LOG3 ADD CALLVALUE DUP3 0xC0 0xD1 SWAP5 0xAC 0xD9 AND BLOCKHASH PUSH19 0x807C2DFA8C7F2E464809F9ABC40E1B08BFA504 PUSH25 0x403F0915017A90804B68FF7AB6D2C982EEFE5A4EA3F39B5493 0x4B 0x2D PUSH2 0x7430 SAR SWAP3 LOG2 PUSH5 0x6970667358 0x22 SLT KECCAK256 PUSH11 0xECD864B7FA49AE9B999793 0xF6 0xDD 0x2B SWAP7 SWAP1 0xB7 0x2C DIV 0x26 0xEA DUP5 0xE8 CALL ADD 0xDF LOG2 0xBB LOG1 0x1F 0x2E PUSH5 0x736F6C6343 STOP ADDMOD SHR STOP CALLER "},"methodIdentifiers":{"linkALProject(address,address,address,address,string,string,uint256,uint256,string[],address)":"7be618d2","setupALProjectOnly(address,address,address,string,string,uint256,uint256,string[])":"37c7b18f"}}}}}