{"contracts/ProjectFactory.sol":{"ProjectFactory":{"abi":[{"inputs":[{"internalType":"address","name":"_templateRegistry","type":"address"}],"stateMutability":"nonpayable","type":"constructor"},{"anonymous":false,"inputs":[{"indexed":true,"internalType":"address","name":"creator","type":"address"},{"indexed":true,"internalType":"address","name":"projectAddress","type":"address"},{"indexed":false,"internalType":"string","name":"projectType","type":"string"},{"indexed":false,"internalType":"uint256","name":"templateId","type":"uint256"},{"indexed":false,"internalType":"uint256","name":"timestamp","type":"uint256"}],"name":"ProjectCreated","type":"event"},{"inputs":[{"internalType":"uint256","name":"","type":"uint256"}],"name":"allProjects","outputs":[{"internalType":"address","name":"","type":"address"}],"stateMutability":"view","type":"function"},{"inputs":[{"internalType":"address","name":"_projectAddress","type":"address"}],"name":"checkIsDALProject","outputs":[{"internalType":"bool","name":"","type":"bool"}],"stateMutability":"view","type":"function"},{"inputs":[{"internalType":"address","name":"_projectAddress","type":"address"}],"name":"checkIsProject","outputs":[{"internalType":"bool","name":"","type":"bool"}],"stateMutability":"view","type":"function"},{"inputs":[{"internalType":"string","name":"_projectData","type":"string"}],"name":"createCustomProject","outputs":[{"internalType":"address","name":"","type":"address"}],"stateMutability":"nonpayable","type":"function"},{"inputs":[{"internalType":"uint256","name":"_templateId","type":"uint256"},{"internalType":"string","name":"_projectData","type":"string"}],"name":"createProjectFromTemplate","outputs":[{"internalType":"address","name":"","type":"address"}],"stateMutability":"nonpayable","type":"function"},{"inputs":[{"internalType":"uint256","name":"","type":"uint256"}],"name":"dalProjects","outputs":[{"internalType":"address","name":"","type":"address"}],"stateMutability":"view","type":"function"},{"inputs":[],"name":"getAllProjects","outputs":[{"internalType":"address[]","name":"","type":"address[]"}],"stateMutability":"view","type":"function"},{"inputs":[],"name":"getDALProjectCount","outputs":[{"internalType":"uint256","name":"","type":"uint256"}],"stateMutability":"view","type":"function"},{"inputs":[],"name":"getDALProjects","outputs":[{"internalType":"address[]","name":"","type":"address[]"}],"stateMutability":"view","type":"function"},{"inputs":[],"name":"getProjectCount","outputs":[{"internalType":"uint256","name":"","type":"uint256"}],"stateMutability":"view","type":"function"},{"inputs":[{"internalType":"address","name":"_user","type":"address"}],"name":"getUserProjectCount","outputs":[{"internalType":"uint256","name":"","type":"uint256"}],"stateMutability":"view","type":"function"},{"inputs":[{"internalType":"address","name":"_user","type":"address"}],"name":"getUserProjects","outputs":[{"internalType":"address[]","name":"","type":"address[]"}],"stateMutability":"view","type":"function"},{"inputs":[{"internalType":"address","name":"","type":"address"}],"name":"isDALProject","outputs":[{"internalType":"bool","name":"","type":"bool"}],"stateMutability":"view","type":"function"},{"inputs":[{"internalType":"address","name":"","type":"address"}],"name":"isProject","outputs":[{"internalType":"bool","name":"","type":"bool"}],"stateMutability":"view","type":"function"},{"inputs":[],"name":"templateRegistry","outputs":[{"internalType":"contract ProjectTemplateRegistry","name":"","type":"address"}],"stateMutability":"view","type":"function"},{"inputs":[{"internalType":"address","name":"","type":"address"},{"internalType":"uint256","name":"","type":"uint256"}],"name":"userProjects","outputs":[{"internalType":"address","name":"","type":"address"}],"stateMutability":"view","type":"function"}],"evm":{"bytecode":{"linkReferences":{},"object":"60803460cb57601f61405038819003918201601f19168301916001600160401b0383118484101760d05780849260209460405283398101031260cb57516001600160a01b0381169081900360cb578015607557600080546001600160a01b031916919091179055604051613f6990816100e78239f35b60405162461bcd60e51b815260206004820152602860248201527f54656d706c61746520726567697374727920616464726573732063616e6e6f74604482015267206265207a65726f60c01b6064820152608490fd5b600080fd5b634e487b7160e01b600052604160045260246000fdfe608080604052600436101561001357600080fd5b60003560e01c90816305c8140814610966575080630e9eb496146100f25780632fa9c007146109035780633bcff3b0146108e55780633f3c9833146108a65780634780f786146104de57806353b3194c1461048857806380d038291461041b5780639c1fa044146103b1578063a0af81f014610388578063a375728a1461034e578063bb3098ff146102e1578063e32e723c14610251578063eabec3a314610131578063f0f847d6146100f25763f4d32852146100cf57600080fd5b346100ed5760003660031901126100ed576020600554604051908152f35b600080fd5b346100ed5760203660031901126100ed576001600160a01b036101136109a1565b166000526004602052602060ff604060002054166040519015158152f35b346100ed5760203660031901126100ed576004356001600160401b0381116100ed57610161903690600401610a23565b61016d81511515610b15565b604051906132ca808301916001600160401b0383118484101761023b57839261019c92610c0a85393390610b85565b03906000f0801561022f5760209060018060a01b031633600052600182526101c8816040600020610bec565b80600052600282526040600020600160ff198254161790556101e981610ba7565b80604051606081526006606082015265637573746f6d60d01b6080820152600084820152426040820152600080516020613ef483398151915260a03392a3604051908152f35b6040513d6000823e3d90fd5b634e487b7160e01b600052604160045260246000fd5b346100ed5760203660031901126100ed576001600160a01b036102726109a1565b166000526001602052604060002060405190816020825491828152019160005260206000209060005b8181106102c2576102be856102b2818703826109e5565b60405191829182610a6a565b0390f35b82546001600160a01b031684526020909301926001928301920161029b565b346100ed5760003660031901126100ed576040516005805480835260009182526020830191600080516020613ed483398151915291905b81811061032f576102be856102b2818703826109e5565b82546001600160a01b0316845260209093019260019283019201610318565b346100ed5760203660031901126100ed576001600160a01b0361036f6109a1565b1660005260016020526020604060002054604051908152f35b346100ed5760003660031901126100ed576000546040516001600160a01b039091168152602090f35b346100ed5760203660031901126100ed576004356005548110156100ed57600090600554811015610407576005909152600080516020613ed483398151915201546040516001600160a01b039091168152602090f35b634e487b7160e01b82526032600452602482fd5b346100ed5760003660031901126100ed576040516003805480835260009182526020830191600080516020613f1483398151915291905b818110610469576102be856102b2818703826109e5565b82546001600160a01b0316845260209093019260019283019201610452565b346100ed5760203660031901126100ed576004356003548110156100ed57600090600354811015610407576003909152600080516020613f1483398151915201546040516001600160a01b039091168152602090f35b346100ed5760403660031901126100ed576004356024356001600160401b0381116100ed576105136024913690600401610a23565b60008054604051630c550f3d60e21b81526004810186905293849182906001600160a01b03165afa801561022f576000928391610732575b50156106f45761055d81511515610b15565b604051906132ca808301916001600160401b0383118484101761023b57839261058c92610c0a85393390610b85565b03906000f0801561022f5760018060a01b03169060405160208101906105ce60208285516105bd8187858a01610aad565b81010301601f1981018352826109e5565b51902060405160208101906e6163746976655f6c6561726e696e6760881b8252600f81526105fd602f826109e5565b5190201461067f575b602092600080516020613ef483398151915283923360005260018652610630846040600020610bec565b83600052600286526040600020600160ff1982541617905561065184610ba7565b61066660405191606083526060830190610b60565b92868201524260408201528033930390a3604051908152f35b6000828152600460205260409020805460ff1916600117905560055492600160401b84101561023b57600080516020613ef483398151915283926106cd8660016020980160055560056109b7565b81546001600160a01b0360039290921b91821b191695901b94909417909355509250610606565b60405162461bcd60e51b815260206004820152601660248201527554656d706c617465206973206e6f742061637469766560501b6044820152606490fd5b90503d8084833e61074381836109e5565b81019060c0818303126108a25780516001600160401b03811161089e578261076c918301610ad0565b5060208101516001600160401b03811161089e578261078c918301610ad0565b5060408101516001600160401b03811161089e57826107ac918301610ad0565b60608201519092906001600160401b03811161085157820181601f820112156108515780516001600160401b03811161088a576020808260051b92604051906107f7838601836109e5565b81520191830101918383116108865760208101915b838310610855575050505060808201516001600160401b0381116108515782916108399160a09401610ad0565b50015192831515840361084e5750918461054b565b80fd5b8580fd5b82516001600160401b0381116108825760209161087787848094870101610ad0565b81520192019161080c565b8980fd5b8780fd5b634e487b7160e01b87526041600452602487fd5b8480fd5b8380fd5b346100ed5760203660031901126100ed576001600160a01b036108c76109a1565b166000526002602052602060ff604060002054166040519015158152f35b346100ed5760003660031901126100ed576020600354604051908152f35b346100ed5760403660031901126100ed5761091c6109a1565b6001600160a01b03166000908152600160205260409020805460243591908210156100ed5760209161094d916109b7565b905460405160039290921b1c6001600160a01b03168152f35b346100ed5760203660031901126100ed576020906001600160a01b0361098a6109a1565b166000526002825260ff6040600020541615158152f35b600435906001600160a01b03821682036100ed57565b80548210156109cf5760005260206000200190600090565b634e487b7160e01b600052603260045260246000fd5b601f909101601f19168101906001600160401b0382119082101761023b57604052565b6001600160401b03811161023b57601f01601f191660200190565b81601f820112156100ed57803590610a3a82610a08565b92610a4860405194856109e5565b828452602083830101116100ed57816000926020809301838601378301015290565b602060408183019282815284518094520192019060005b818110610a8e5750505090565b82516001600160a01b0316845260209384019390920191600101610a81565b60005b838110610ac05750506000910152565b8181015183820152602001610ab0565b81601f820112156100ed578051610ae681610a08565b92610af460405194856109e5565b818452602082840101116100ed57610b129160208085019101610aad565b90565b15610b1c57565b60405162461bcd60e51b815260206004820152601c60248201527b50726f6a65637420646174612063616e6e6f7420626520656d70747960201b6044820152606490fd5b90602091610b7981518092818552858086019101610aad565b601f01601f1916010190565b6001600160a01b039091168152604060208201819052610b1292910190610b60565b600354600160401b81101561023b57806001610bc8920160035560036109b7565b81546001600160a01b0393841660039290921b91821b9390911b1916919091179055565b8054600160401b81101561023b57610bc8916001820181556109b756fe6080604052346103bb576132ca80380380610019816103c0565b9283398101906040818303126103bb5780516001600160a01b03811691908290036103bb576020810151906001600160401b0382116103bb570182601f820112156103bb578051906001600160401b03821161029457610082601f8301601f19166020016103c0565b93828552602083830101116103bb5760005b8281106103a657505060206000918401015281511561037457600080546001600160a01b0319168217905581516001600160401b038111610294576100da6003546103e5565b601f811161031a575b50602092601f82116001146102b557928192936000926102aa575b50508160011b916000199060031b1c1916176003555b4260018190556002556000805460ff60a01b1916600160a01b179055600f5468010000000000000000811015610294576001810180600f5581101561027e577f8d1108e10bcb7c27dddfc02ed9d693a074039d026cf4ea4240b40f7d581ac8020180546001600160a01b031916821790556000818152601060205260409020805461019e906103e5565b601f811161025c575b50600e6631b932b0ba37b960c91b019055806000526011602052600160406000205580600052601260205242604060002055807f20bfd29f3d906f96fc35742fac45a554b19cbd4e21f8c4c1d84cb58fdfc32c896020604051428152a27fbceee304ac8d461cb65ac9f6dc37bbcb2c2c34c155224ffbfdc4752b89008f73608060405160408152600760408201526631b932b0ba37b960c91b606082015260016020820152a2604051612e9390816104378239f35b6102789082600052601f6020600020910160051c81019061041f565b386101a7565b634e487b7160e01b600052603260045260246000fd5b634e487b7160e01b600052604160045260246000fd5b0151905038806100fe565b601f198216936003600052806000209160005b86811061030257508360019596106102e9575b505050811b01600355610114565b015160001960f88460031b161c191690553880806102db565b919260206001819286850151815501940192016102c8565b6003600052610364907fc2575a0e9e593c00f959f8c92f12db2869c3395a3b0502d05e2516446f71f85b601f840160051c8101916020851061036a575b601f0160051c019061041f565b386100e3565b9091508190610357565b60405162461bcd60e51b815260206004820152600a602482015269456d707479206461746160b01b6044820152606490fd5b80602080928401015182828801015201610094565b600080fd5b6040519190601f01601f191682016001600160401b0381118382101761029457604052565b90600182811c92168015610415575b60208310146103ff57565b634e487b7160e01b600052602260045260246000fd5b91607f16916103f4565b81811061042a575050565b6000815560010161041f56fe608080604052600436101561001357600080fd5b60003560e01c90816302d05d3f146121a757508063040023d61461200257806306df453e14611f435780630ee2cb1014611f1a57806310218f4d14611df3578063195ec9ee14611be85780631af9fd1714611b5057806322f3e2d41461028757806329d811c2146118005780632b17b8be14611b195780633197cbb614611afb57806332c6afd014611a8757806335c1d34914611a5e578063383e1a5e146119fb57806346015978146119a05780634a79d50c146119df5780634be2d708146119a05780634f799e791461197757806355b31b55146110ab578063562d0a131461187357806358f43f7614611829578063594eb0bd1461180057806359abbfe4146117db5780635cf5a05814610cd85780635e1a6c17146117b25780637284e41614611796578063728f1112146116d55780637847f1de146114f557806378e97925146114d757806379ec4f191461146057806394c52f98146110c75780639c0768b3146110ab578063a1d7769d146102b2578063ab34c9e914611071578063b568647914610fd7578063b70825dc14610f95578063b9be92f914610dba578063bbffd04c14610d12578063c2e4fe5a14610cd8578063c2fc0d2614610ca8578063c3feda1714610bf9578063c6765d2814610a2d578063cc37bce514610a02578063cf09e0d0146109e4578063d64c58a7146109aa578063dfafe10f14610929578063dfb748aa1461086d578063e7aa3afc14610828578063eab9599214610746578063eacb13a014610667578063ef213106146105fe578063f7267cfd146105e0578063f75eade014610351578063fa352c00146102db578063fb033c8d146102b25763fba7cc791461028757600080fd5b346102ad5760003660031901126102ad57602060ff60005460a01c166040519015158152f35b600080fd5b346102ad5760003660031901126102ad576013546040516001600160a01b039091168152602090f35b346102ad5760203660031901126102ad576102f46121cb565b61030960018060a01b03600054163314612706565b6001600160a01b03166000818152601460205260408120805460ff191690553391907f76e6646868d096078ac7f3f1401c3aaa55dc84890ec74b99c699e4754714b18e9080a3005b346102ad5760403660031901126102ad5761036a6121cb565b6024356001600160401b0381116102ad5761038990369060040161221f565b60005490916001600160a01b038216916103b49060ff906103ab338614612706565b60a01c1661277a565b6001600160a01b03169081156105a15781146105645780600052600c60205260ff60036040600020015416610523576103ef82511515612741565b80600052601060205261040f6104096040600020546123e2565b156129ac565b61044760405161041e816121e1565b8281528360208201524260408201526001606082015282600052600c60205260406000206129ee565b600080600e54905b8181106104ee575b505015610496575b7f07501885e0e140e0232eed19016a41bde16b8de699d11e7a461f88d6ba58a9cd604051806104913395429083612b71565b0390a3005b600e54600160401b8110156104d8578060016104b79201600e55600e6123ca565b81546001600160a01b0360039290921b91821b19169083901b17905561045f565b634e487b7160e01b600052604160045260246000fd5b836104f8826123af565b905460039190911b1c6001600160a01b0316146105175760010161044f565b50505060018380610457565b60405162461bcd60e51b8152602060048201526019602482015278496e7669746174696f6e20616c72656164792065786973747360381b6044820152606490fd5b60405162461bcd60e51b815260206004820152601560248201527421b0b73737ba1034b73b34ba329031b932b0ba37b960591b6044820152606490fd5b60405162461bcd60e51b8152602060048201526017602482015276496e76616c696420696e7669746565206164647265737360481b6044820152606490fd5b346102ad5760003660031901126102ad576020600254604051908152f35b346102ad5760203660031901126102ad576001600160a01b0361061f6121cb565b166000908152600b6020526040902080546001600160a01b031661066361064860018401612664565b9260ff60036002830154920154169060405194859485612330565b0390f35b346102ad5760203660031901126102ad576106806121cb565b61069560018060a01b03600054163314612706565b6001600160a01b031680156106ed578060018060a01b03196008541617600855426002556040519081524260208201527f8a66dcde9fa30dcf180b8e82d67ac1dd3abd8362ee4ad7dd230fe0e63623b1e860403392a2005b60405162461bcd60e51b815260206004820152602b60248201527f46696e616c20524f2d43726174652061737365742063616e6e6f74206265207a60448201526a65726f206164647265737360a81b6064820152608490fd5b346102ad5760203660031901126102ad5761075f6121cb565b6000546001600160a01b03163314801561080f575b61077d90612965565b6001600160a01b031680156107bc5760018060a01b0319600754161760075542600255604051428152600080516020612dbe83398151915260203392a2005b60405162461bcd60e51b815260206004820152602560248201527f524f2d43726174652061737365742063616e6e6f74206265207a65726f206164604482015264647265737360d81b6064820152608490fd5b503360009081526014602052604090205460ff16610774565b346102ad5760003660031901126102ad576080600054600154906002546040519260ff8360a01c16151584526020840152604083015260018060a01b03166060820152f35b346102ad5760203660031901126102ad576108866121cb565b61089b60018060a01b03600054163314612706565b6108e460018060a01b0382169182600052600b6020526108c560ff60036040600020015416612b8d565b82600052600b6020526108de6001604060002001612664565b90612c0c565b80600052600b6020526108fa60406000206128f9565b604051904282527f423eb00b6a18c3ecfc2170a0e40ef0bad995279070614ba2e4be1b94f67eb88860203393a3005b346102ad5760203660031901126102ad576109a86109456121cb565b61095a60018060a01b03600054163314612706565b60018060a01b038116600052601060205261097c6104096040600020546123e2565b6040519061098b6040836121fc565b600b82526a31b7b73a3934b13aba37b960a91b6020830152612c0c565b005b346102ad5760203660031901126102ad576001600160a01b036109cb6121cb565b1660005260116020526020604060002054604051908152f35b346102ad5760003660031901126102ad576020600154604051908152f35b346102ad5760003660031901126102ad576013546040516001600160a01b0390911615158152602090f35b346102ad5760203660031901126102ad576004356001600160401b0381116102ad57610a5d90369060040161221f565b610a6e60ff60005460a01c1661277a565b610a7a815115156127b1565b336000526010602052610a916040600020546123e2565b15610bb85780516001600160401b0381116104d857610ab16003546123e2565b601f8111610b70575b50602091601f8211600114610b0c57610add9260009183610b01575b5050612801565b6003555b42600255604051428152600080516020612dbe83398151915260203392a2005b015190508380610ad6565b601f198216926003600052806000209160005b858110610b5857508360019510610b3f575b505050811b01600355610ae1565b015160001960f88460031b161c19169055828080610b31565b91926020600181928685015181550194019201610b1f565b6003600052610ba890600080516020612d9e833981519152601f840160051c81019160208510610bae575b601f0160051c01906127ea565b82610aba565b9091508190610b9b565b60405162461bcd60e51b8152602060048201526019602482015278139bdd0818481c1c9bda9958dd081c185c9d1a58da5c185b9d603a1b6044820152606490fd5b346102ad5760003660031901126102ad57600054610c21336001600160a01b03831614612706565b60ff8160a01c16610c725760ff60a01b1916600160a01b1760005542600281905560405190815233907fb351ba71ddc1d2bf39667cebde99fb92eb26b9f418d5049ba0200888ba81071590602090a2005b60405162461bcd60e51b815260206004820152600e60248201526d416c72656164792061637469766560901b6044820152606490fd5b346102ad5760003660031901126102ad57610663610cc461255a565b6040519182916020835260208301906122bb565b346102ad5760203660031901126102ad576001600160a01b03610cf96121cb565b166000526010602052610663610cc46040600020612664565b346102ad5760003660031901126102ad57600054610d3a336001600160a01b03831614612706565b60ff8160a01c1615610d825760ff60a01b1916600055426002556040514281527f17064d72ee4a5901e55dfa45024ea8f67cdb4895ba6364ab2f8e7223f642ad3660203392a2005b60405162461bcd60e51b815260206004820152601060248201526f416c726561647920696e61637469766560801b6044820152606490fd5b346102ad57610dc836612275565b9091610ddf60018060a01b03600054163314612706565b60018060a01b031690816000526010602052610dff6040600020546123e2565b15610f5c57610e1083511515612741565b610e1b811515612bc6565b6000828152601060205260409020835193906001600160401b0385116104d857610e4581546123e2565b601f8111610f2a575b506020601f8611600114610eb65785600080516020612e3e8339815191529596610e8092600091610eab575b50612801565b90555b8360005260116020528160406000205542600255610ea660405192839283612b71565b0390a2005b905084015188610e7a565b601f1986169082600052806000209160005b818110610f125750918791600080516020612e3e833981519152979860019410610ef9575b5050811b019055610e83565b85015160001960f88460031b161c191690558780610eed565b91926020600181928689015181550194019201610ec8565b610f5690826000526020600020601f880160051c81019160208910610bae57601f0160051c01906127ea565b85610e4e565b60405162461bcd60e51b8152602060048201526011602482015270139bdd0818481c185c9d1a58da5c185b9d607a1b6044820152606490fd5b346102ad5760203660031901126102ad57600435600e548110156102ad57610fbe6020916123af565b905460405160039290921b1c6001600160a01b03168152f35b346102ad5760203660031901126102ad57610ff06121cb565b61100560018060a01b03600054163314612706565b6001600160a01b03166000818152600b602052604090206003015461102c9060ff16612b8d565b80600052600b60205261104260406000206128f9565b604051904282527f1a69e67d1be897d0ca0cf1517b4d17e345b4272a80bc900f9fe8e96f261ca1db60203393a3005b346102ad5760203660031901126102ad576001600160a01b036110926121cb565b1660005260126020526020604060002054604051908152f35b346102ad5760003660031901126102ad57610663610cc46125df565b346102ad5760803660031901126102ad576004356001600160401b0381116102ad576110f790369060040161221f565b6024356001600160401b0381116102ad5761111690369060040161221f565b6044356001600160401b0381116102ad5761113590369060040161221f565b6064356001600160a01b038116908190036102ad5761115f60018060a01b03600054163314612706565b83516001600160401b0381116104d85761117a6004546123e2565b601f8111611423575b50602094601f82116001146113bc576111a99293949582916000926113b1575050612801565b6004555b82516001600160401b0381116104d8576111c86005546123e2565b601f811161137e575b506020601f82116001146113175781906111f593949560009261130c575050612801565b6005555b81516001600160401b0381116104d8576112146006546123e2565b601f81116112cf575b50602092601f821160011461126a576112419293829160009261125f575050612801565b6006555b600780546001600160a01b03191691909117905542600255005b015190508480610ad6565b601f198216936006600052806000209160005b8681106112b7575083600195961061129e575b505050811b01600655611245565b015160001960f88460031b161c19169055838080611290565b9192602060018192868501518155019401920161127d565b600660005261130690600080516020612dde833981519152601f840160051c81019160208510610bae57601f0160051c01906127ea565b8361121d565b015190508580610ad6565b601f198216906005600052806000209160005b8181106113665750958360019596971061134d575b505050811b016005556111f9565b015160001960f88460031b161c1916905584808061133f565b9192602060018192868b01518155019401920161132a565b6113ab9060056000526020600020601f840160051c81019160208510610bae57601f0160051c01906127ea565b846111d1565b015190508680610ad6565b601f198216956004600052806000209160005b88811061140b575083600195969798106113f2575b505050811b016004556111ad565b015160001960f88460031b161c191690558580806113e4565b919260206001819286850151815501940192016113cf565b600460005261145a90600080516020612dfe833981519152601f840160051c81019160208510610bae57601f0160051c01906127ea565b85611183565b346102ad5760403660031901126102ad576004356024359061148d60018060a01b03600054163314612706565b8181101561149d57600955600a55005b60405162461bcd60e51b8152602060048201526012602482015271496e76616c69642074696d652072616e676560701b6044820152606490fd5b346102ad5760003660031901126102ad576020600954604051908152f35b346102ad5760203660031901126102ad576004356001600160401b0381116102ad5761152590369060040161221f565b60005461153760ff8260a01c1661277a565b6001600160a01b0316331461169a5733600052600b60205260ff600360406000200154166116645761156b81511515612741565b6115a360405161157a816121e1565b3381528260208201524260408201526001606082015233600052600b60205260406000206129ee565b600080600d54905b81811061162f575b5050156115ed575b7fe4d6c018abd0178d4bce0856089ef1876318617b97a1d700bb98506598ab0afc60405180610ea63394429083612b71565b600d54600160401b8110156104d85780600161160e9201600d55600d6123ca565b81546001600160a01b0360039290921b91821b19163390911b1790556115bb565b61163881612394565b905460039190911b1c6001600160a01b03163314611658576001016115ab565b505050600182806115b3565b60405162461bcd60e51b815260206004820152600e60248201526d526571756573742065786973747360901b6044820152606490fd5b60405162461bcd60e51b815260206004820152601360248201527221b932b0ba37b91031b0b73737ba103537b4b760691b6044820152606490fd5b346102ad5760003660031901126102ad576116f760ff60005460a01c1661277a565b33600052600c60205261171460ff600360406000200154166128b7565b33600052601060205261172e6104096040600020546123e2565b33600052600c60205261175061174a6001604060002001612664565b33612c0c565b33600052600c60205261176660406000206128f9565b60405142815230907f7b7404d30440087c51e068aac60d434f5a3a121313c035893fdf187c11d077b660203392a3005b346102ad5760003660031901126102ad57610663610cc46124c3565b346102ad5760203660031901126102ad57600435600d548110156102ad57610fbe602091612394565b346102ad5760003660031901126102ad57604060015460025482519182526020820152f35b346102ad5760003660031901126102ad576008546040516001600160a01b039091168152602090f35b346102ad5760203660031901126102ad576001600160a01b0361184a6121cb565b166000908152600c6020526040902080546001600160a01b031661066361064860018401612664565b346102ad5760203660031901126102ad5761188c6121cb565b6000546001600160a01b03163314801561195e575b6118aa90612965565b6001600160a01b0316801561191a576013546001600160a01b0381166118da576001600160a01b03191617601355005b60405162461bcd60e51b8152602060048201526018602482015277105308195e1d195b9cda5bdb88185b1c9958591e481cd95d60421b6044820152606490fd5b60405162461bcd60e51b815260206004820152601c60248201527b496e76616c696420414c20657874656e73696f6e206164647265737360201b6044820152606490fd5b503360009081526014602052604090205460ff166118a1565b346102ad5760003660031901126102ad576007546040516001600160a01b039091168152602090f35b346102ad5760203660031901126102ad576001600160a01b036119c16121cb565b166000526014602052602060ff604060002054166040519015158152f35b346102ad5760003660031901126102ad57610663610cc461241c565b346102ad5760203660031901126102ad576001600160a01b03611a1c6121cb565b16600052600b602052611a326040600020612871565b60018060a01b038151166106636020830151926060604082015191015115159060405194859485612330565b346102ad5760203660031901126102ad57600435600f548110156102ad57610fbe602091612363565b346102ad5760003660031901126102ad5733600052600c602052611ab560ff600360406000200154166128b7565b33600052600c602052611acb60406000206128f9565b60405142815230907ff7bcbaa371c3a472d8f63f253317d896d63bf307f5e8e913f8eeb9351bc0d4c660203392a3005b346102ad5760003660031901126102ad576020600a54604051908152f35b346102ad5760203660031901126102ad576001600160a01b03611b3a6121cb565b16600052600c602052611a326040600020612871565b346102ad5760003660031901126102ad57600054600754600954600a54611bb3936001600160a01b03908116931691611bd4611b8a61241c565b94611b936124c3565b611bc1611b9e61255a565b91604051998a9960e08b5260e08b01906122bb565b9089820360208b01526122bb565b91604088015286820360608801526122bb565b92608085015260a084015260c08301520390f35b346102ad5760003660031901126102ad57600f54611c0581612814565b611c1260405191826121fc565b818152611c1e82612814565b602082019290601f1901368437611c3481612814565b611c4160405191826121fc565b818152601f19611c5083612814565b0160005b818110611de0575050611c668261282b565b611c6f8361282b565b9260005b818110611d495750506040519485946080860190608087525180915260a08601919060005b818110611d27575050508481036020860152825180825260208201916020808360051b8301019501926000915b838310611cf25788806106638a611ce48b8b85820360408701526122fc565b9083820360608501526122fc565b9193969750919394602080611d13600193601f198682030187528a516122bb565b980193019301909288979695949293611cc5565b82516001600160a01b0316845288975060209384019390920191600101611c98565b80611d5b600192989495969798612363565b838060a01b0391549060031b1c1680611d74838b61285d565b52806000526010602052611d8b6040600020612664565b611d95838961285d565b52611da0828861285d565b50806000526011602052604060002054611dba838861285d565b526000526012602052604060002054611dd3828961285d565b5201959493929195611c73565b6060602082850181019190915201611c54565b346102ad5760203660031901126102ad576004356001600160401b0381116102ad57611e2390369060040161221f565b600054611e419060ff906103ab336001600160a01b03831614612706565b611e4d815115156127b1565b80516001600160401b0381116104d857611e686003546123e2565b601f8111611edd575b50602091601f8211600114611e9357610add9260009183610b01575050612801565b601f198216926003600052806000209160005b858110611ec557508360019510610b3f57505050811b01600355610ae1565b91926020600181928685015181550194019201611ea6565b6003600052611f1490600080516020612d9e833981519152601f840160051c81019160208510610bae57601f0160051c01906127ea565b82611e71565b346102ad5760003660031901126102ad576000546040516001600160a01b039091168152602090f35b346102ad5760203660031901126102ad57611f5c6121cb565b611f7160018060a01b03600054163314612706565b6001600160a01b03168015611fc2578060005260146020526040600020600160ff1982541617905533907fd2af95cbcf620b475562306681071abd2f34d06fc92e808cd2f0b01388048a9b600080a3005b60405162461bcd60e51b8152602060048201526018602482015277496e76616c69642064656c6567617465206164647265737360401b6044820152606490fd5b346102ad5761201036612275565b61202860018060a09594951b03600054163314612706565b61203483511515612741565b61206b60018060a01b0383169283600052601060205261205b6104096040600020546123e2565b612066831515612bc6565b612b2c565b6000828152601060205260409020835193906001600160401b0385116104d85761209581546123e2565b601f8111612175575b506020601f86116001146121015785600080516020612e1e83398151915295966120cf92600091610eab5750612801565b90555b8360005260116020528160406000205583600052601260205242604060002055610ea660405192839283612b71565b601f1986169082600052806000209160005b81811061215d5750918791600080516020612e1e833981519152979860019410612144575b5050811b0190556120d2565b85015160001960f88460031b161c191690558780612138565b91926020600181928689015181550194019201612113565b6121a190826000526020600020601f880160051c81019160208910610bae57601f0160051c01906127ea565b8561209e565b346102ad5760003660031901126102ad576000546001600160a01b03168152602090f35b600435906001600160a01b03821682036102ad57565b608081019081106001600160401b038211176104d857604052565b601f909101601f19168101906001600160401b038211908210176104d857604052565b81601f820112156102ad578035906001600160401b0382116104d85760405192612253601f8401601f1916602001856121fc565b828452602083830101116102ad57816000926020809301838601378301015290565b9060606003198301126102ad576004356001600160a01b03811681036102ad5791602435906001600160401b0382116102ad576122b49160040161221f565b9060443590565b919082519283825260005b8481106122e7575050826000602080949584010152601f8019910116010190565b806020809284010151828286010152016122c6565b906020808351928381520192019060005b81811061231a5750505090565b825184526020938401939092019160010161230d565b929493906060926123569160018060a01b031685526080602086015260808501906122bb565b9460408401521515910152565b600f5481101561237e57600f60005260206000200190600090565b634e487b7160e01b600052603260045260246000fd5b600d5481101561237e57600d60005260206000200190600090565b600e5481101561237e57600e60005260206000200190600090565b805482101561237e5760005260206000200190600090565b90600182811c92168015612412575b60208310146123fc57565b634e487b7160e01b600052602260045260246000fd5b91607f16916123f1565b6040519060008260045491612430836123e2565b80835292600181169081156124a45750600114612456575b612454925003836121fc565b565b50600460009081529091600080516020612dfe8339815191525b81831061248857505090602061245492820101612448565b6020919350806001915483858901015201910190918492612470565b6020925061245494915060ff191682840152151560051b820101612448565b60405190600082600554916124d7836123e2565b80835292600181169081156124a457506001146124fa57612454925003836121fc565b506005600090815290917f036b6384b5eca791c62761152d0c79bb0604c104a5fb6f4eb0703f3154bb3db05b81831061253e57505090602061245492820101612448565b6020919350806001915483858901015201910190918492612526565b604051906000826006549161256e836123e2565b80835292600181169081156124a4575060011461259157612454925003836121fc565b50600660009081529091600080516020612dde8339815191525b8183106125c357505090602061245492820101612448565b60209193508060019154838589010152019101909184926125ab565b60405190600082600354916125f3836123e2565b80835292600181169081156124a4575060011461261657612454925003836121fc565b50600360009081529091600080516020612d9e8339815191525b81831061264857505090602061245492820101612448565b6020919350806001915483858901015201910190918492612630565b9060405191826000825492612678846123e2565b80845293600181169081156126e4575060011461269d575b50612454925003836121fc565b90506000929192526020600020906000915b8183106126c85750509060206124549282010138612690565b60209193508060019154838589010152019101909184926126af565b90506020925061245494915060ff191682840152151560051b82010138612690565b1561270d57565b60405162461bcd60e51b815260206004820152600c60248201526b27b7363c9031b932b0ba37b960a11b6044820152606490fd5b1561274857565b60405162461bcd60e51b815260206004820152600a602482015269456d70747920726f6c6560b01b6044820152606490fd5b1561278157565b60405162461bcd60e51b8152602060048201526008602482015267496e61637469766560c01b6044820152606490fd5b156127b857565b60405162461bcd60e51b815260206004820152600a602482015269456d707479206461746160b01b6044820152606490fd5b8181106127f5575050565b600081556001016127ea565b8160011b916000199060031b1c19161790565b6001600160401b0381116104d85760051b60200190565b9061283582612814565b61284260405191826121fc565b8281528092612853601f1991612814565b0190602036910137565b805182101561237e5760209160051b010190565b9060405161287e816121e1565b606060ff6003839560018060a01b03815416855261289e60018201612664565b6020860152600281015460408601520154161515910152565b156128be57565b60405162461bcd60e51b8152602060048201526013602482015272139bc81a5b9d9a5d185d1a5bdb88199bdd5b99606a1b6044820152606490fd5b60036000918281556001810161290f81546123e2565b9081612922575b50508260028201550155565b81601f8693116001146129395750555b3880612916565b8183526020832061295591601f0160051c8101906001016127ea565b8082528160208120915555612932565b1561296c57565b60405162461bcd60e51b81526020600482015260186024820152774f6e6c792063726561746f72206f722064656c656761746560401b6044820152606490fd5b156129b357565b60405162461bcd60e51b8152602060048201526013602482015272105b1c9958591e481c185c9d1a58da5c185b9d606a1b6044820152606490fd5b815181546001600160a01b0319166001600160a01b03919091161781556020820151805160018301916001600160401b0382116104d857612a2f83546123e2565b601f8111612afa575b50602090601f8311600114612a8e57826060959360039593612a6293600092612a83575050612801565b90555b6040840151600282015501910151151560ff80198354169116179055565b015190503880610ad6565b90601f1983169184600052816000209260005b818110612ae25750926001928592606098966003989610612aca575b505050811b019055612a65565b015160001983881b60f8161c19169055388080612abd565b92936020600181928786015181550195019301612aa1565b612b2690846000526020600020601f850160051c81019160208610610bae57601f0160051c01906127ea565b38612a38565b600f54600160401b8110156104d857806001612b4d9201600f55600f6123ca565b81546001600160a01b0393841660039290921b91821b9390911b1916919091179055565b929190612b886020916040865260408601906122bb565b930152565b15612b9457565b60405162461bcd60e51b815260206004820152600a602482015269139bc81c995c5d595cdd60b21b6044820152606490fd5b15612bcd57565b60405162461bcd60e51b8152602060048201526017602482015276576569676874206d75737420626520706f73697469766560481b6044820152606490fd5b90612c3e60018060a01b03831692836000526010602052612c346104096040600020546123e2565b6120666001612bc6565b600082815260106020526040902081516001600160401b0381116104d857612c6682546123e2565b601f8111612d6b575b506020601f8211600114612cf35791612ca482600080516020612e1e8339815191529593612cdc95600091612ce85750612801565b90555b8360005260116020526001604060002055836000526012602052426040600020556040519182916040835260408301906122bb565b600160208301520390a2565b905084015138610e7a565b601f1982169083600052806000209160005b818110612d53575092612cdc949260019282600080516020612e1e833981519152989610612d3a575b5050811b019055612ca7565b85015160001960f88460031b161c191690553880612d2e565b9192602060018192868a015181550194019201612d05565b612d9790836000526020600020601f840160051c81019160208510610bae57601f0160051c01906127ea565b38612c6f56fec2575a0e9e593c00f959f8c92f12db2869c3395a3b0502d05e2516446f71f85bc1756fd99ac9a2b1b22b5e701ddb022b897a002144d045b77ac35ce46610fef6f652222313e28459528d920b65115c16c04f3efc82aaedc97be59f3f377c0d3f8a35acfbc15ff81a39ae7d344fd709f28e8600b4aa8c65c6b64bfe7fe36bd19bbceee304ac8d461cb65ac9f6dc37bbcb2c2c34c155224ffbfdc4752b89008f73e8c250df70afa51c6916b9661d224a47fd9568cb0c1c9d0d49e2e45cc729a987a2646970667358221220ebbd49ba61c28a9389b1edbf9bef22da59a38bb9115a544b13ce2b43abad2a2d64736f6c634300081c0033036b6384b5eca791c62761152d0c79bb0604c104a5fb6f4eb0703f3154bb3db0f474a44bbf67e28a60e1e8977a0d7bdf30896d6b88b7c83710a32ad527611994c2575a0e9e593c00f959f8c92f12db2869c3395a3b0502d05e2516446f71f85ba26469706673582212200e0d4856fee67feeaf6bf04944299e1437523d64cefb25329485d9e8a6515c2c64736f6c634300081c0033","opcodes":"PUSH1 0x80 CALLVALUE PUSH1 0xCB JUMPI PUSH1 0x1F PUSH2 0x4050 CODESIZE DUP2 SWAP1 SUB SWAP2 DUP3 ADD PUSH1 0x1F NOT AND DUP4 ADD SWAP2 PUSH1 0x1 PUSH1 0x1 PUSH1 0x40 SHL SUB DUP4 GT DUP5 DUP5 LT OR PUSH1 0xD0 JUMPI DUP1 DUP5 SWAP3 PUSH1 0x20 SWAP5 PUSH1 0x40 MSTORE DUP4 CODECOPY DUP2 ADD SUB SLT PUSH1 0xCB JUMPI MLOAD PUSH1 0x1 PUSH1 0x1 PUSH1 0xA0 SHL SUB DUP2 AND SWAP1 DUP2 SWAP1 SUB PUSH1 0xCB JUMPI DUP1 ISZERO PUSH1 0x75 JUMPI PUSH1 0x0 DUP1 SLOAD PUSH1 0x1 PUSH1 0x1 PUSH1 0xA0 SHL SUB NOT AND SWAP2 SWAP1 SWAP2 OR SWAP1 SSTORE PUSH1 0x40 MLOAD PUSH2 0x3F69 SWAP1 DUP2 PUSH2 0xE7 DUP3 CODECOPY RETURN JUMPDEST PUSH1 0x40 MLOAD PUSH3 0x461BCD PUSH1 0xE5 SHL DUP2 MSTORE PUSH1 0x20 PUSH1 0x4 DUP3 ADD MSTORE PUSH1 0x28 PUSH1 0x24 DUP3 ADD MSTORE PUSH32 0x54656D706C61746520726567697374727920616464726573732063616E6E6F74 PUSH1 0x44 DUP3 ADD MSTORE PUSH8 0x206265207A65726F PUSH1 0xC0 SHL PUSH1 0x64 DUP3 ADD MSTORE PUSH1 0x84 SWAP1 REVERT JUMPDEST PUSH1 0x0 DUP1 REVERT JUMPDEST PUSH4 0x4E487B71 PUSH1 0xE0 SHL PUSH1 0x0 MSTORE PUSH1 0x41 PUSH1 0x4 MSTORE PUSH1 0x24 PUSH1 0x0 REVERT INVALID PUSH1 0x80 DUP1 PUSH1 0x40 MSTORE PUSH1 0x4 CALLDATASIZE LT ISZERO PUSH2 0x13 JUMPI PUSH1 0x0 DUP1 REVERT JUMPDEST PUSH1 0x0 CALLDATALOAD PUSH1 0xE0 SHR SWAP1 DUP2 PUSH4 0x5C81408 EQ PUSH2 0x966 JUMPI POP DUP1 PUSH4 0xE9EB496 EQ PUSH2 0xF2 JUMPI DUP1 PUSH4 0x2FA9C007 EQ PUSH2 0x903 JUMPI DUP1 PUSH4 0x3BCFF3B0 EQ PUSH2 0x8E5 JUMPI DUP1 PUSH4 0x3F3C9833 EQ PUSH2 0x8A6 JUMPI DUP1 PUSH4 0x4780F786 EQ PUSH2 0x4DE JUMPI DUP1 PUSH4 0x53B3194C EQ PUSH2 0x488 JUMPI DUP1 PUSH4 0x80D03829 EQ PUSH2 0x41B JUMPI DUP1 PUSH4 0x9C1FA044 EQ PUSH2 0x3B1 JUMPI DUP1 PUSH4 0xA0AF81F0 EQ PUSH2 0x388 JUMPI DUP1 PUSH4 0xA375728A EQ PUSH2 0x34E JUMPI DUP1 PUSH4 0xBB3098FF EQ PUSH2 0x2E1 JUMPI DUP1 PUSH4 0xE32E723C EQ PUSH2 0x251 JUMPI DUP1 PUSH4 0xEABEC3A3 EQ PUSH2 0x131 JUMPI DUP1 PUSH4 0xF0F847D6 EQ PUSH2 0xF2 JUMPI PUSH4 0xF4D32852 EQ PUSH2 0xCF JUMPI PUSH1 0x0 DUP1 REVERT JUMPDEST CALLVALUE PUSH2 0xED JUMPI PUSH1 0x0 CALLDATASIZE PUSH1 0x3 NOT ADD SLT PUSH2 0xED JUMPI PUSH1 0x20 PUSH1 0x5 SLOAD PUSH1 0x40 MLOAD SWAP1 DUP2 MSTORE RETURN JUMPDEST PUSH1 0x0 DUP1 REVERT JUMPDEST CALLVALUE PUSH2 0xED JUMPI PUSH1 0x20 CALLDATASIZE PUSH1 0x3 NOT ADD SLT PUSH2 0xED JUMPI PUSH1 0x1 PUSH1 0x1 PUSH1 0xA0 SHL SUB PUSH2 0x113 PUSH2 0x9A1 JUMP JUMPDEST AND PUSH1 0x0 MSTORE PUSH1 0x4 PUSH1 0x20 MSTORE PUSH1 0x20 PUSH1 0xFF PUSH1 0x40 PUSH1 0x0 KECCAK256 SLOAD AND PUSH1 0x40 MLOAD SWAP1 ISZERO ISZERO DUP2 MSTORE RETURN JUMPDEST CALLVALUE PUSH2 0xED JUMPI PUSH1 0x20 CALLDATASIZE PUSH1 0x3 NOT ADD SLT PUSH2 0xED JUMPI PUSH1 0x4 CALLDATALOAD PUSH1 0x1 PUSH1 0x1 PUSH1 0x40 SHL SUB DUP2 GT PUSH2 0xED JUMPI PUSH2 0x161 SWAP1 CALLDATASIZE SWAP1 PUSH1 0x4 ADD PUSH2 0xA23 JUMP JUMPDEST PUSH2 0x16D DUP2 MLOAD ISZERO ISZERO PUSH2 0xB15 JUMP JUMPDEST PUSH1 0x40 MLOAD SWAP1 PUSH2 0x32CA DUP1 DUP4 ADD SWAP2 PUSH1 0x1 PUSH1 0x1 PUSH1 0x40 SHL SUB DUP4 GT DUP5 DUP5 LT OR PUSH2 0x23B JUMPI DUP4 SWAP3 PUSH2 0x19C SWAP3 PUSH2 0xC0A DUP6 CODECOPY CALLER SWAP1 PUSH2 0xB85 JUMP JUMPDEST SUB SWAP1 PUSH1 0x0 CREATE DUP1 ISZERO PUSH2 0x22F JUMPI PUSH1 0x20 SWAP1 PUSH1 0x1 DUP1 PUSH1 0xA0 SHL SUB AND CALLER PUSH1 0x0 MSTORE PUSH1 0x1 DUP3 MSTORE PUSH2 0x1C8 DUP2 PUSH1 0x40 PUSH1 0x0 KECCAK256 PUSH2 0xBEC JUMP JUMPDEST DUP1 PUSH1 0x0 MSTORE PUSH1 0x2 DUP3 MSTORE PUSH1 0x40 PUSH1 0x0 KECCAK256 PUSH1 0x1 PUSH1 0xFF NOT DUP3 SLOAD AND OR SWAP1 SSTORE PUSH2 0x1E9 DUP2 PUSH2 0xBA7 JUMP JUMPDEST DUP1 PUSH1 0x40 MLOAD PUSH1 0x60 DUP2 MSTORE PUSH1 0x6 PUSH1 0x60 DUP3 ADD MSTORE PUSH6 0x637573746F6D PUSH1 0xD0 SHL PUSH1 0x80 DUP3 ADD MSTORE PUSH1 0x0 DUP5 DUP3 ADD MSTORE TIMESTAMP PUSH1 0x40 DUP3 ADD MSTORE PUSH1 0x0 DUP1 MLOAD PUSH1 0x20 PUSH2 0x3EF4 DUP4 CODECOPY DUP2 MLOAD SWAP2 MSTORE PUSH1 0xA0 CALLER SWAP3 LOG3 PUSH1 0x40 MLOAD SWAP1 DUP2 MSTORE RETURN JUMPDEST PUSH1 0x40 MLOAD RETURNDATASIZE PUSH1 0x0 DUP3 RETURNDATACOPY RETURNDATASIZE SWAP1 REVERT JUMPDEST PUSH4 0x4E487B71 PUSH1 0xE0 SHL PUSH1 0x0 MSTORE PUSH1 0x41 PUSH1 0x4 MSTORE PUSH1 0x24 PUSH1 0x0 REVERT JUMPDEST CALLVALUE PUSH2 0xED JUMPI PUSH1 0x20 CALLDATASIZE PUSH1 0x3 NOT ADD SLT PUSH2 0xED JUMPI PUSH1 0x1 PUSH1 0x1 PUSH1 0xA0 SHL SUB PUSH2 0x272 PUSH2 0x9A1 JUMP JUMPDEST AND PUSH1 0x0 MSTORE PUSH1 0x1 PUSH1 0x20 MSTORE PUSH1 0x40 PUSH1 0x0 KECCAK256 PUSH1 0x40 MLOAD SWAP1 DUP2 PUSH1 0x20 DUP3 SLOAD SWAP2 DUP3 DUP2 MSTORE ADD SWAP2 PUSH1 0x0 MSTORE PUSH1 0x20 PUSH1 0x0 KECCAK256 SWAP1 PUSH1 0x0 JUMPDEST DUP2 DUP2 LT PUSH2 0x2C2 JUMPI PUSH2 0x2BE DUP6 PUSH2 0x2B2 DUP2 DUP8 SUB DUP3 PUSH2 0x9E5 JUMP JUMPDEST PUSH1 0x40 MLOAD SWAP2 DUP3 SWAP2 DUP3 PUSH2 0xA6A JUMP JUMPDEST SUB SWAP1 RETURN JUMPDEST DUP3 SLOAD PUSH1 0x1 PUSH1 0x1 PUSH1 0xA0 SHL SUB AND DUP5 MSTORE PUSH1 0x20 SWAP1 SWAP4 ADD SWAP3 PUSH1 0x1 SWAP3 DUP4 ADD SWAP3 ADD PUSH2 0x29B JUMP JUMPDEST CALLVALUE PUSH2 0xED JUMPI PUSH1 0x0 CALLDATASIZE PUSH1 0x3 NOT ADD SLT PUSH2 0xED JUMPI PUSH1 0x40 MLOAD PUSH1 0x5 DUP1 SLOAD DUP1 DUP4 MSTORE PUSH1 0x0 SWAP2 DUP3 MSTORE PUSH1 0x20 DUP4 ADD SWAP2 PUSH1 0x0 DUP1 MLOAD PUSH1 0x20 PUSH2 0x3ED4 DUP4 CODECOPY DUP2 MLOAD SWAP2 MSTORE SWAP2 SWAP1 JUMPDEST DUP2 DUP2 LT PUSH2 0x32F JUMPI PUSH2 0x2BE DUP6 PUSH2 0x2B2 DUP2 DUP8 SUB DUP3 PUSH2 0x9E5 JUMP JUMPDEST DUP3 SLOAD PUSH1 0x1 PUSH1 0x1 PUSH1 0xA0 SHL SUB AND DUP5 MSTORE PUSH1 0x20 SWAP1 SWAP4 ADD SWAP3 PUSH1 0x1 SWAP3 DUP4 ADD SWAP3 ADD PUSH2 0x318 JUMP JUMPDEST CALLVALUE PUSH2 0xED JUMPI PUSH1 0x20 CALLDATASIZE PUSH1 0x3 NOT ADD SLT PUSH2 0xED JUMPI PUSH1 0x1 PUSH1 0x1 PUSH1 0xA0 SHL SUB PUSH2 0x36F PUSH2 0x9A1 JUMP JUMPDEST AND PUSH1 0x0 MSTORE PUSH1 0x1 PUSH1 0x20 MSTORE PUSH1 0x20 PUSH1 0x40 PUSH1 0x0 KECCAK256 SLOAD PUSH1 0x40 MLOAD SWAP1 DUP2 MSTORE RETURN JUMPDEST CALLVALUE PUSH2 0xED JUMPI PUSH1 0x0 CALLDATASIZE PUSH1 0x3 NOT ADD SLT PUSH2 0xED JUMPI PUSH1 0x0 SLOAD PUSH1 0x40 MLOAD PUSH1 0x1 PUSH1 0x1 PUSH1 0xA0 SHL SUB SWAP1 SWAP2 AND DUP2 MSTORE PUSH1 0x20 SWAP1 RETURN JUMPDEST CALLVALUE PUSH2 0xED JUMPI PUSH1 0x20 CALLDATASIZE PUSH1 0x3 NOT ADD SLT PUSH2 0xED JUMPI PUSH1 0x4 CALLDATALOAD PUSH1 0x5 SLOAD DUP2 LT ISZERO PUSH2 0xED JUMPI PUSH1 0x0 SWAP1 PUSH1 0x5 SLOAD DUP2 LT ISZERO PUSH2 0x407 JUMPI PUSH1 0x5 SWAP1 SWAP2 MSTORE PUSH1 0x0 DUP1 MLOAD PUSH1 0x20 PUSH2 0x3ED4 DUP4 CODECOPY DUP2 MLOAD SWAP2 MSTORE ADD SLOAD PUSH1 0x40 MLOAD PUSH1 0x1 PUSH1 0x1 PUSH1 0xA0 SHL SUB SWAP1 SWAP2 AND DUP2 MSTORE PUSH1 0x20 SWAP1 RETURN JUMPDEST PUSH4 0x4E487B71 PUSH1 0xE0 SHL DUP3 MSTORE PUSH1 0x32 PUSH1 0x4 MSTORE PUSH1 0x24 DUP3 REVERT JUMPDEST CALLVALUE PUSH2 0xED JUMPI PUSH1 0x0 CALLDATASIZE PUSH1 0x3 NOT ADD SLT PUSH2 0xED JUMPI PUSH1 0x40 MLOAD PUSH1 0x3 DUP1 SLOAD DUP1 DUP4 MSTORE PUSH1 0x0 SWAP2 DUP3 MSTORE PUSH1 0x20 DUP4 ADD SWAP2 PUSH1 0x0 DUP1 MLOAD PUSH1 0x20 PUSH2 0x3F14 DUP4 CODECOPY DUP2 MLOAD SWAP2 MSTORE SWAP2 SWAP1 JUMPDEST DUP2 DUP2 LT PUSH2 0x469 JUMPI PUSH2 0x2BE DUP6 PUSH2 0x2B2 DUP2 DUP8 SUB DUP3 PUSH2 0x9E5 JUMP JUMPDEST DUP3 SLOAD PUSH1 0x1 PUSH1 0x1 PUSH1 0xA0 SHL SUB AND DUP5 MSTORE PUSH1 0x20 SWAP1 SWAP4 ADD SWAP3 PUSH1 0x1 SWAP3 DUP4 ADD SWAP3 ADD PUSH2 0x452 JUMP JUMPDEST CALLVALUE PUSH2 0xED JUMPI PUSH1 0x20 CALLDATASIZE PUSH1 0x3 NOT ADD SLT PUSH2 0xED JUMPI PUSH1 0x4 CALLDATALOAD PUSH1 0x3 SLOAD DUP2 LT ISZERO PUSH2 0xED JUMPI PUSH1 0x0 SWAP1 PUSH1 0x3 SLOAD DUP2 LT ISZERO PUSH2 0x407 JUMPI PUSH1 0x3 SWAP1 SWAP2 MSTORE PUSH1 0x0 DUP1 MLOAD PUSH1 0x20 PUSH2 0x3F14 DUP4 CODECOPY DUP2 MLOAD SWAP2 MSTORE ADD SLOAD PUSH1 0x40 MLOAD PUSH1 0x1 PUSH1 0x1 PUSH1 0xA0 SHL SUB SWAP1 SWAP2 AND DUP2 MSTORE PUSH1 0x20 SWAP1 RETURN JUMPDEST CALLVALUE PUSH2 0xED JUMPI PUSH1 0x40 CALLDATASIZE PUSH1 0x3 NOT ADD SLT PUSH2 0xED JUMPI PUSH1 0x4 CALLDATALOAD PUSH1 0x24 CALLDATALOAD PUSH1 0x1 PUSH1 0x1 PUSH1 0x40 SHL SUB DUP2 GT PUSH2 0xED JUMPI PUSH2 0x513 PUSH1 0x24 SWAP2 CALLDATASIZE SWAP1 PUSH1 0x4 ADD PUSH2 0xA23 JUMP JUMPDEST PUSH1 0x0 DUP1 SLOAD PUSH1 0x40 MLOAD PUSH4 0xC550F3D PUSH1 0xE2 SHL DUP2 MSTORE PUSH1 0x4 DUP2 ADD DUP7 SWAP1 MSTORE SWAP4 DUP5 SWAP2 DUP3 SWAP1 PUSH1 0x1 PUSH1 0x1 PUSH1 0xA0 SHL SUB AND GAS STATICCALL DUP1 ISZERO PUSH2 0x22F JUMPI PUSH1 0x0 SWAP3 DUP4 SWAP2 PUSH2 0x732 JUMPI JUMPDEST POP ISZERO PUSH2 0x6F4 JUMPI PUSH2 0x55D DUP2 MLOAD ISZERO ISZERO PUSH2 0xB15 JUMP JUMPDEST PUSH1 0x40 MLOAD SWAP1 PUSH2 0x32CA DUP1 DUP4 ADD SWAP2 PUSH1 0x1 PUSH1 0x1 PUSH1 0x40 SHL SUB DUP4 GT DUP5 DUP5 LT OR PUSH2 0x23B JUMPI DUP4 SWAP3 PUSH2 0x58C SWAP3 PUSH2 0xC0A DUP6 CODECOPY CALLER SWAP1 PUSH2 0xB85 JUMP JUMPDEST SUB SWAP1 PUSH1 0x0 CREATE DUP1 ISZERO PUSH2 0x22F JUMPI PUSH1 0x1 DUP1 PUSH1 0xA0 SHL SUB AND SWAP1 PUSH1 0x40 MLOAD PUSH1 0x20 DUP2 ADD SWAP1 PUSH2 0x5CE PUSH1 0x20 DUP3 DUP6 MLOAD PUSH2 0x5BD DUP2 DUP8 DUP6 DUP11 ADD PUSH2 0xAAD JUMP JUMPDEST DUP2 ADD SUB ADD PUSH1 0x1F NOT DUP2 ADD DUP4 MSTORE DUP3 PUSH2 0x9E5 JUMP JUMPDEST MLOAD SWAP1 KECCAK256 PUSH1 0x40 MLOAD PUSH1 0x20 DUP2 ADD SWAP1 PUSH15 0x6163746976655F6C6561726E696E67 PUSH1 0x88 SHL DUP3 MSTORE PUSH1 0xF DUP2 MSTORE PUSH2 0x5FD PUSH1 0x2F DUP3 PUSH2 0x9E5 JUMP JUMPDEST MLOAD SWAP1 KECCAK256 EQ PUSH2 0x67F JUMPI JUMPDEST PUSH1 0x20 SWAP3 PUSH1 0x0 DUP1 MLOAD PUSH1 0x20 PUSH2 0x3EF4 DUP4 CODECOPY DUP2 MLOAD SWAP2 MSTORE DUP4 SWAP3 CALLER PUSH1 0x0 MSTORE PUSH1 0x1 DUP7 MSTORE PUSH2 0x630 DUP5 PUSH1 0x40 PUSH1 0x0 KECCAK256 PUSH2 0xBEC JUMP JUMPDEST DUP4 PUSH1 0x0 MSTORE PUSH1 0x2 DUP7 MSTORE PUSH1 0x40 PUSH1 0x0 KECCAK256 PUSH1 0x1 PUSH1 0xFF NOT DUP3 SLOAD AND OR SWAP1 SSTORE PUSH2 0x651 DUP5 PUSH2 0xBA7 JUMP JUMPDEST PUSH2 0x666 PUSH1 0x40 MLOAD SWAP2 PUSH1 0x60 DUP4 MSTORE PUSH1 0x60 DUP4 ADD SWAP1 PUSH2 0xB60 JUMP JUMPDEST SWAP3 DUP7 DUP3 ADD MSTORE TIMESTAMP PUSH1 0x40 DUP3 ADD MSTORE DUP1 CALLER SWAP4 SUB SWAP1 LOG3 PUSH1 0x40 MLOAD SWAP1 DUP2 MSTORE RETURN JUMPDEST PUSH1 0x0 DUP3 DUP2 MSTORE PUSH1 0x4 PUSH1 0x20 MSTORE PUSH1 0x40 SWAP1 KECCAK256 DUP1 SLOAD PUSH1 0xFF NOT AND PUSH1 0x1 OR SWAP1 SSTORE PUSH1 0x5 SLOAD SWAP3 PUSH1 0x1 PUSH1 0x40 SHL DUP5 LT ISZERO PUSH2 0x23B JUMPI PUSH1 0x0 DUP1 MLOAD PUSH1 0x20 PUSH2 0x3EF4 DUP4 CODECOPY DUP2 MLOAD SWAP2 MSTORE DUP4 SWAP3 PUSH2 0x6CD DUP7 PUSH1 0x1 PUSH1 0x20 SWAP9 ADD PUSH1 0x5 SSTORE PUSH1 0x5 PUSH2 0x9B7 JUMP JUMPDEST DUP2 SLOAD PUSH1 0x1 PUSH1 0x1 PUSH1 0xA0 SHL SUB PUSH1 0x3 SWAP3 SWAP1 SWAP3 SHL SWAP2 DUP3 SHL NOT AND SWAP6 SWAP1 SHL SWAP5 SWAP1 SWAP5 OR SWAP1 SWAP4 SSTORE POP SWAP3 POP PUSH2 0x606 JUMP JUMPDEST PUSH1 0x40 MLOAD PUSH3 0x461BCD PUSH1 0xE5 SHL DUP2 MSTORE PUSH1 0x20 PUSH1 0x4 DUP3 ADD MSTORE PUSH1 0x16 PUSH1 0x24 DUP3 ADD MSTORE PUSH22 0x54656D706C617465206973206E6F7420616374697665 PUSH1 0x50 SHL PUSH1 0x44 DUP3 ADD MSTORE PUSH1 0x64 SWAP1 REVERT JUMPDEST SWAP1 POP RETURNDATASIZE DUP1 DUP5 DUP4 RETURNDATACOPY PUSH2 0x743 DUP2 DUP4 PUSH2 0x9E5 JUMP JUMPDEST DUP2 ADD SWAP1 PUSH1 0xC0 DUP2 DUP4 SUB SLT PUSH2 0x8A2 JUMPI DUP1 MLOAD PUSH1 0x1 PUSH1 0x1 PUSH1 0x40 SHL SUB DUP2 GT PUSH2 0x89E JUMPI DUP3 PUSH2 0x76C SWAP2 DUP4 ADD PUSH2 0xAD0 JUMP JUMPDEST POP PUSH1 0x20 DUP2 ADD MLOAD PUSH1 0x1 PUSH1 0x1 PUSH1 0x40 SHL SUB DUP2 GT PUSH2 0x89E JUMPI DUP3 PUSH2 0x78C SWAP2 DUP4 ADD PUSH2 0xAD0 JUMP JUMPDEST POP PUSH1 0x40 DUP2 ADD MLOAD PUSH1 0x1 PUSH1 0x1 PUSH1 0x40 SHL SUB DUP2 GT PUSH2 0x89E JUMPI DUP3 PUSH2 0x7AC SWAP2 DUP4 ADD PUSH2 0xAD0 JUMP JUMPDEST PUSH1 0x60 DUP3 ADD MLOAD SWAP1 SWAP3 SWAP1 PUSH1 0x1 PUSH1 0x1 PUSH1 0x40 SHL SUB DUP2 GT PUSH2 0x851 JUMPI DUP3 ADD DUP2 PUSH1 0x1F DUP3 ADD SLT ISZERO PUSH2 0x851 JUMPI DUP1 MLOAD PUSH1 0x1 PUSH1 0x1 PUSH1 0x40 SHL SUB DUP2 GT PUSH2 0x88A JUMPI PUSH1 0x20 DUP1 DUP3 PUSH1 0x5 SHL SWAP3 PUSH1 0x40 MLOAD SWAP1 PUSH2 0x7F7 DUP4 DUP7 ADD DUP4 PUSH2 0x9E5 JUMP JUMPDEST DUP2 MSTORE ADD SWAP2 DUP4 ADD ADD SWAP2 DUP4 DUP4 GT PUSH2 0x886 JUMPI PUSH1 0x20 DUP2 ADD SWAP2 JUMPDEST DUP4 DUP4 LT PUSH2 0x855 JUMPI POP POP POP POP PUSH1 0x80 DUP3 ADD MLOAD PUSH1 0x1 PUSH1 0x1 PUSH1 0x40 SHL SUB DUP2 GT PUSH2 0x851 JUMPI DUP3 SWAP2 PUSH2 0x839 SWAP2 PUSH1 0xA0 SWAP5 ADD PUSH2 0xAD0 JUMP JUMPDEST POP ADD MLOAD SWAP3 DUP4 ISZERO ISZERO DUP5 SUB PUSH2 0x84E JUMPI POP SWAP2 DUP5 PUSH2 0x54B JUMP JUMPDEST DUP1 REVERT JUMPDEST DUP6 DUP1 REVERT JUMPDEST DUP3 MLOAD PUSH1 0x1 PUSH1 0x1 PUSH1 0x40 SHL SUB DUP2 GT PUSH2 0x882 JUMPI PUSH1 0x20 SWAP2 PUSH2 0x877 DUP8 DUP5 DUP1 SWAP5 DUP8 ADD ADD PUSH2 0xAD0 JUMP JUMPDEST DUP2 MSTORE ADD SWAP3 ADD SWAP2 PUSH2 0x80C JUMP JUMPDEST DUP10 DUP1 REVERT JUMPDEST DUP8 DUP1 REVERT JUMPDEST PUSH4 0x4E487B71 PUSH1 0xE0 SHL DUP8 MSTORE PUSH1 0x41 PUSH1 0x4 MSTORE PUSH1 0x24 DUP8 REVERT JUMPDEST DUP5 DUP1 REVERT JUMPDEST DUP4 DUP1 REVERT JUMPDEST CALLVALUE PUSH2 0xED JUMPI PUSH1 0x20 CALLDATASIZE PUSH1 0x3 NOT ADD SLT PUSH2 0xED JUMPI PUSH1 0x1 PUSH1 0x1 PUSH1 0xA0 SHL SUB PUSH2 0x8C7 PUSH2 0x9A1 JUMP JUMPDEST AND PUSH1 0x0 MSTORE PUSH1 0x2 PUSH1 0x20 MSTORE PUSH1 0x20 PUSH1 0xFF PUSH1 0x40 PUSH1 0x0 KECCAK256 SLOAD AND PUSH1 0x40 MLOAD SWAP1 ISZERO ISZERO DUP2 MSTORE RETURN JUMPDEST CALLVALUE PUSH2 0xED JUMPI PUSH1 0x0 CALLDATASIZE PUSH1 0x3 NOT ADD SLT PUSH2 0xED JUMPI PUSH1 0x20 PUSH1 0x3 SLOAD PUSH1 0x40 MLOAD SWAP1 DUP2 MSTORE RETURN JUMPDEST CALLVALUE PUSH2 0xED JUMPI PUSH1 0x40 CALLDATASIZE PUSH1 0x3 NOT ADD SLT PUSH2 0xED JUMPI PUSH2 0x91C PUSH2 0x9A1 JUMP JUMPDEST PUSH1 0x1 PUSH1 0x1 PUSH1 0xA0 SHL SUB AND PUSH1 0x0 SWAP1 DUP2 MSTORE PUSH1 0x1 PUSH1 0x20 MSTORE PUSH1 0x40 SWAP1 KECCAK256 DUP1 SLOAD PUSH1 0x24 CALLDATALOAD SWAP2 SWAP1 DUP3 LT ISZERO PUSH2 0xED JUMPI PUSH1 0x20 SWAP2 PUSH2 0x94D SWAP2 PUSH2 0x9B7 JUMP JUMPDEST SWAP1 SLOAD PUSH1 0x40 MLOAD PUSH1 0x3 SWAP3 SWAP1 SWAP3 SHL SHR PUSH1 0x1 PUSH1 0x1 PUSH1 0xA0 SHL SUB AND DUP2 MSTORE RETURN JUMPDEST CALLVALUE PUSH2 0xED JUMPI PUSH1 0x20 CALLDATASIZE PUSH1 0x3 NOT ADD SLT PUSH2 0xED JUMPI PUSH1 0x20 SWAP1 PUSH1 0x1 PUSH1 0x1 PUSH1 0xA0 SHL SUB PUSH2 0x98A PUSH2 0x9A1 JUMP JUMPDEST AND PUSH1 0x0 MSTORE PUSH1 0x2 DUP3 MSTORE PUSH1 0xFF PUSH1 0x40 PUSH1 0x0 KECCAK256 SLOAD AND ISZERO ISZERO DUP2 MSTORE RETURN JUMPDEST PUSH1 0x4 CALLDATALOAD SWAP1 PUSH1 0x1 PUSH1 0x1 PUSH1 0xA0 SHL SUB DUP3 AND DUP3 SUB PUSH2 0xED JUMPI JUMP JUMPDEST DUP1 SLOAD DUP3 LT ISZERO PUSH2 0x9CF JUMPI PUSH1 0x0 MSTORE PUSH1 0x20 PUSH1 0x0 KECCAK256 ADD SWAP1 PUSH1 0x0 SWAP1 JUMP JUMPDEST PUSH4 0x4E487B71 PUSH1 0xE0 SHL PUSH1 0x0 MSTORE PUSH1 0x32 PUSH1 0x4 MSTORE PUSH1 0x24 PUSH1 0x0 REVERT JUMPDEST PUSH1 0x1F SWAP1 SWAP2 ADD PUSH1 0x1F NOT AND DUP2 ADD SWAP1 PUSH1 0x1 PUSH1 0x1 PUSH1 0x40 SHL SUB DUP3 GT SWAP1 DUP3 LT OR PUSH2 0x23B JUMPI PUSH1 0x40 MSTORE JUMP JUMPDEST PUSH1 0x1 PUSH1 0x1 PUSH1 0x40 SHL SUB DUP2 GT PUSH2 0x23B JUMPI PUSH1 0x1F ADD PUSH1 0x1F NOT AND PUSH1 0x20 ADD SWAP1 JUMP JUMPDEST DUP2 PUSH1 0x1F DUP3 ADD SLT ISZERO PUSH2 0xED JUMPI DUP1 CALLDATALOAD SWAP1 PUSH2 0xA3A DUP3 PUSH2 0xA08 JUMP JUMPDEST SWAP3 PUSH2 0xA48 PUSH1 0x40 MLOAD SWAP5 DUP6 PUSH2 0x9E5 JUMP JUMPDEST DUP3 DUP5 MSTORE PUSH1 0x20 DUP4 DUP4 ADD ADD GT PUSH2 0xED JUMPI DUP2 PUSH1 0x0 SWAP3 PUSH1 0x20 DUP1 SWAP4 ADD DUP4 DUP7 ADD CALLDATACOPY DUP4 ADD ADD MSTORE SWAP1 JUMP JUMPDEST PUSH1 0x20 PUSH1 0x40 DUP2 DUP4 ADD SWAP3 DUP3 DUP2 MSTORE DUP5 MLOAD DUP1 SWAP5 MSTORE ADD SWAP3 ADD SWAP1 PUSH1 0x0 JUMPDEST DUP2 DUP2 LT PUSH2 0xA8E JUMPI POP POP POP SWAP1 JUMP JUMPDEST DUP3 MLOAD PUSH1 0x1 PUSH1 0x1 PUSH1 0xA0 SHL SUB AND DUP5 MSTORE PUSH1 0x20 SWAP4 DUP5 ADD SWAP4 SWAP1 SWAP3 ADD SWAP2 PUSH1 0x1 ADD PUSH2 0xA81 JUMP JUMPDEST PUSH1 0x0 JUMPDEST DUP4 DUP2 LT PUSH2 0xAC0 JUMPI POP POP PUSH1 0x0 SWAP2 ADD MSTORE JUMP JUMPDEST DUP2 DUP2 ADD MLOAD DUP4 DUP3 ADD MSTORE PUSH1 0x20 ADD PUSH2 0xAB0 JUMP JUMPDEST DUP2 PUSH1 0x1F DUP3 ADD SLT ISZERO PUSH2 0xED JUMPI DUP1 MLOAD PUSH2 0xAE6 DUP2 PUSH2 0xA08 JUMP JUMPDEST SWAP3 PUSH2 0xAF4 PUSH1 0x40 MLOAD SWAP5 DUP6 PUSH2 0x9E5 JUMP JUMPDEST DUP2 DUP5 MSTORE PUSH1 0x20 DUP3 DUP5 ADD ADD GT PUSH2 0xED JUMPI PUSH2 0xB12 SWAP2 PUSH1 0x20 DUP1 DUP6 ADD SWAP2 ADD PUSH2 0xAAD JUMP JUMPDEST SWAP1 JUMP JUMPDEST ISZERO PUSH2 0xB1C JUMPI JUMP JUMPDEST PUSH1 0x40 MLOAD PUSH3 0x461BCD PUSH1 0xE5 SHL DUP2 MSTORE PUSH1 0x20 PUSH1 0x4 DUP3 ADD MSTORE PUSH1 0x1C PUSH1 0x24 DUP3 ADD MSTORE PUSH28 0x50726F6A65637420646174612063616E6E6F7420626520656D707479 PUSH1 0x20 SHL PUSH1 0x44 DUP3 ADD MSTORE PUSH1 0x64 SWAP1 REVERT JUMPDEST SWAP1 PUSH1 0x20 SWAP2 PUSH2 0xB79 DUP2 MLOAD DUP1 SWAP3 DUP2 DUP6 MSTORE DUP6 DUP1 DUP7 ADD SWAP2 ADD PUSH2 0xAAD JUMP JUMPDEST PUSH1 0x1F ADD PUSH1 0x1F NOT AND ADD ADD SWAP1 JUMP JUMPDEST PUSH1 0x1 PUSH1 0x1 PUSH1 0xA0 SHL SUB SWAP1 SWAP2 AND DUP2 MSTORE PUSH1 0x40 PUSH1 0x20 DUP3 ADD DUP2 SWAP1 MSTORE PUSH2 0xB12 SWAP3 SWAP2 ADD SWAP1 PUSH2 0xB60 JUMP JUMPDEST PUSH1 0x3 SLOAD PUSH1 0x1 PUSH1 0x40 SHL DUP2 LT ISZERO PUSH2 0x23B JUMPI DUP1 PUSH1 0x1 PUSH2 0xBC8 SWAP3 ADD PUSH1 0x3 SSTORE PUSH1 0x3 PUSH2 0x9B7 JUMP JUMPDEST DUP2 SLOAD PUSH1 0x1 PUSH1 0x1 PUSH1 0xA0 SHL SUB SWAP4 DUP5 AND PUSH1 0x3 SWAP3 SWAP1 SWAP3 SHL SWAP2 DUP3 SHL SWAP4 SWAP1 SWAP2 SHL NOT AND SWAP2 SWAP1 SWAP2 OR SWAP1 SSTORE JUMP JUMPDEST DUP1 SLOAD PUSH1 0x1 PUSH1 0x40 SHL DUP2 LT ISZERO PUSH2 0x23B JUMPI PUSH2 0xBC8 SWAP2 PUSH1 0x1 DUP3 ADD DUP2 SSTORE PUSH2 0x9B7 JUMP INVALID PUSH1 0x80 PUSH1 0x40 MSTORE CALLVALUE PUSH2 0x3BB JUMPI PUSH2 0x32CA DUP1 CODESIZE SUB DUP1 PUSH2 0x19 DUP2 PUSH2 0x3C0 JUMP JUMPDEST SWAP3 DUP4 CODECOPY DUP2 ADD SWAP1 PUSH1 0x40 DUP2 DUP4 SUB SLT PUSH2 0x3BB JUMPI DUP1 MLOAD PUSH1 0x1 PUSH1 0x1 PUSH1 0xA0 SHL SUB DUP2 AND SWAP2 SWAP1 DUP3 SWAP1 SUB PUSH2 0x3BB JUMPI PUSH1 0x20 DUP2 ADD MLOAD SWAP1 PUSH1 0x1 PUSH1 0x1 PUSH1 0x40 SHL SUB DUP3 GT PUSH2 0x3BB JUMPI ADD DUP3 PUSH1 0x1F DUP3 ADD SLT ISZERO PUSH2 0x3BB JUMPI DUP1 MLOAD SWAP1 PUSH1 0x1 PUSH1 0x1 PUSH1 0x40 SHL SUB DUP3 GT PUSH2 0x294 JUMPI PUSH2 0x82 PUSH1 0x1F DUP4 ADD PUSH1 0x1F NOT AND PUSH1 0x20 ADD PUSH2 0x3C0 JUMP JUMPDEST SWAP4 DUP3 DUP6 MSTORE PUSH1 0x20 DUP4 DUP4 ADD ADD GT PUSH2 0x3BB JUMPI PUSH1 0x0 JUMPDEST DUP3 DUP2 LT PUSH2 0x3A6 JUMPI POP POP PUSH1 0x20 PUSH1 0x0 SWAP2 DUP5 ADD ADD MSTORE DUP2 MLOAD ISZERO PUSH2 0x374 JUMPI PUSH1 0x0 DUP1 SLOAD PUSH1 0x1 PUSH1 0x1 PUSH1 0xA0 SHL SUB NOT AND DUP3 OR SWAP1 SSTORE DUP2 MLOAD PUSH1 0x1 PUSH1 0x1 PUSH1 0x40 SHL SUB DUP2 GT PUSH2 0x294 JUMPI PUSH2 0xDA PUSH1 0x3 SLOAD PUSH2 0x3E5 JUMP JUMPDEST PUSH1 0x1F DUP2 GT PUSH2 0x31A JUMPI JUMPDEST POP PUSH1 0x20 SWAP3 PUSH1 0x1F DUP3 GT PUSH1 0x1 EQ PUSH2 0x2B5 JUMPI SWAP3 DUP2 SWAP3 SWAP4 PUSH1 0x0 SWAP3 PUSH2 0x2AA JUMPI JUMPDEST POP POP DUP2 PUSH1 0x1 SHL SWAP2 PUSH1 0x0 NOT SWAP1 PUSH1 0x3 SHL SHR NOT AND OR PUSH1 0x3 SSTORE JUMPDEST TIMESTAMP PUSH1 0x1 DUP2 SWAP1 SSTORE PUSH1 0x2 SSTORE PUSH1 0x0 DUP1 SLOAD PUSH1 0xFF PUSH1 0xA0 SHL NOT AND PUSH1 0x1 PUSH1 0xA0 SHL OR SWAP1 SSTORE PUSH1 0xF SLOAD PUSH9 0x10000000000000000 DUP2 LT ISZERO PUSH2 0x294 JUMPI PUSH1 0x1 DUP2 ADD DUP1 PUSH1 0xF SSTORE DUP2 LT ISZERO PUSH2 0x27E JUMPI PUSH32 0x8D1108E10BCB7C27DDDFC02ED9D693A074039D026CF4EA4240B40F7D581AC802 ADD DUP1 SLOAD PUSH1 0x1 PUSH1 0x1 PUSH1 0xA0 SHL SUB NOT AND DUP3 OR SWAP1 SSTORE PUSH1 0x0 DUP2 DUP2 MSTORE PUSH1 0x10 PUSH1 0x20 MSTORE PUSH1 0x40 SWAP1 KECCAK256 DUP1 SLOAD PUSH2 0x19E SWAP1 PUSH2 0x3E5 JUMP JUMPDEST PUSH1 0x1F DUP2 GT PUSH2 0x25C JUMPI JUMPDEST POP PUSH1 0xE PUSH7 0x31B932B0BA37B9 PUSH1 0xC9 SHL ADD SWAP1 SSTORE DUP1 PUSH1 0x0 MSTORE PUSH1 0x11 PUSH1 0x20 MSTORE PUSH1 0x1 PUSH1 0x40 PUSH1 0x0 KECCAK256 SSTORE DUP1 PUSH1 0x0 MSTORE PUSH1 0x12 PUSH1 0x20 MSTORE TIMESTAMP PUSH1 0x40 PUSH1 0x0 KECCAK256 SSTORE DUP1 PUSH32 0x20BFD29F3D906F96FC35742FAC45A554B19CBD4E21F8C4C1D84CB58FDFC32C89 PUSH1 0x20 PUSH1 0x40 MLOAD TIMESTAMP DUP2 MSTORE LOG2 PUSH32 0xBCEEE304AC8D461CB65AC9F6DC37BBCB2C2C34C155224FFBFDC4752B89008F73 PUSH1 0x80 PUSH1 0x40 MLOAD PUSH1 0x40 DUP2 MSTORE PUSH1 0x7 PUSH1 0x40 DUP3 ADD MSTORE PUSH7 0x31B932B0BA37B9 PUSH1 0xC9 SHL PUSH1 0x60 DUP3 ADD MSTORE PUSH1 0x1 PUSH1 0x20 DUP3 ADD MSTORE LOG2 PUSH1 0x40 MLOAD PUSH2 0x2E93 SWAP1 DUP2 PUSH2 0x437 DUP3 CODECOPY RETURN JUMPDEST PUSH2 0x278 SWAP1 DUP3 PUSH1 0x0 MSTORE PUSH1 0x1F PUSH1 0x20 PUSH1 0x0 KECCAK256 SWAP2 ADD PUSH1 0x5 SHR DUP2 ADD SWAP1 PUSH2 0x41F JUMP JUMPDEST CODESIZE PUSH2 0x1A7 JUMP JUMPDEST PUSH4 0x4E487B71 PUSH1 0xE0 SHL PUSH1 0x0 MSTORE PUSH1 0x32 PUSH1 0x4 MSTORE PUSH1 0x24 PUSH1 0x0 REVERT JUMPDEST PUSH4 0x4E487B71 PUSH1 0xE0 SHL PUSH1 0x0 MSTORE PUSH1 0x41 PUSH1 0x4 MSTORE PUSH1 0x24 PUSH1 0x0 REVERT JUMPDEST ADD MLOAD SWAP1 POP CODESIZE DUP1 PUSH2 0xFE JUMP JUMPDEST PUSH1 0x1F NOT DUP3 AND SWAP4 PUSH1 0x3 PUSH1 0x0 MSTORE DUP1 PUSH1 0x0 KECCAK256 SWAP2 PUSH1 0x0 JUMPDEST DUP7 DUP2 LT PUSH2 0x302 JUMPI POP DUP4 PUSH1 0x1 SWAP6 SWAP7 LT PUSH2 0x2E9 JUMPI JUMPDEST POP POP POP DUP2 SHL ADD PUSH1 0x3 SSTORE PUSH2 0x114 JUMP JUMPDEST ADD MLOAD PUSH1 0x0 NOT PUSH1 0xF8 DUP5 PUSH1 0x3 SHL AND SHR NOT AND SWAP1 SSTORE CODESIZE DUP1 DUP1 PUSH2 0x2DB JUMP JUMPDEST SWAP2 SWAP3 PUSH1 0x20 PUSH1 0x1 DUP2 SWAP3 DUP7 DUP6 ADD MLOAD DUP2 SSTORE ADD SWAP5 ADD SWAP3 ADD PUSH2 0x2C8 JUMP JUMPDEST PUSH1 0x3 PUSH1 0x0 MSTORE PUSH2 0x364 SWAP1 PUSH32 0xC2575A0E9E593C00F959F8C92F12DB2869C3395A3B0502D05E2516446F71F85B PUSH1 0x1F DUP5 ADD PUSH1 0x5 SHR DUP2 ADD SWAP2 PUSH1 0x20 DUP6 LT PUSH2 0x36A JUMPI JUMPDEST PUSH1 0x1F ADD PUSH1 0x5 SHR ADD SWAP1 PUSH2 0x41F JUMP JUMPDEST CODESIZE PUSH2 0xE3 JUMP JUMPDEST SWAP1 SWAP2 POP DUP2 SWAP1 PUSH2 0x357 JUMP JUMPDEST PUSH1 0x40 MLOAD PUSH3 0x461BCD PUSH1 0xE5 SHL DUP2 MSTORE PUSH1 0x20 PUSH1 0x4 DUP3 ADD MSTORE PUSH1 0xA PUSH1 0x24 DUP3 ADD MSTORE PUSH10 0x456D7074792064617461 PUSH1 0xB0 SHL PUSH1 0x44 DUP3 ADD MSTORE PUSH1 0x64 SWAP1 REVERT JUMPDEST DUP1 PUSH1 0x20 DUP1 SWAP3 DUP5 ADD ADD MLOAD DUP3 DUP3 DUP9 ADD ADD MSTORE ADD PUSH2 0x94 JUMP JUMPDEST PUSH1 0x0 DUP1 REVERT JUMPDEST PUSH1 0x40 MLOAD SWAP2 SWAP1 PUSH1 0x1F ADD PUSH1 0x1F NOT AND DUP3 ADD PUSH1 0x1 PUSH1 0x1 PUSH1 0x40 SHL SUB DUP2 GT DUP4 DUP3 LT OR PUSH2 0x294 JUMPI PUSH1 0x40 MSTORE JUMP JUMPDEST SWAP1 PUSH1 0x1 DUP3 DUP2 SHR SWAP3 AND DUP1 ISZERO PUSH2 0x415 JUMPI JUMPDEST PUSH1 0x20 DUP4 LT EQ PUSH2 0x3FF JUMPI JUMP JUMPDEST PUSH4 0x4E487B71 PUSH1 0xE0 SHL PUSH1 0x0 MSTORE PUSH1 0x22 PUSH1 0x4 MSTORE PUSH1 0x24 PUSH1 0x0 REVERT JUMPDEST SWAP2 PUSH1 0x7F AND SWAP2 PUSH2 0x3F4 JUMP JUMPDEST DUP2 DUP2 LT PUSH2 0x42A JUMPI POP POP JUMP JUMPDEST PUSH1 0x0 DUP2 SSTORE PUSH1 0x1 ADD PUSH2 0x41F JUMP INVALID PUSH1 0x80 DUP1 PUSH1 0x40 MSTORE PUSH1 0x4 CALLDATASIZE LT ISZERO PUSH2 0x13 JUMPI PUSH1 0x0 DUP1 REVERT JUMPDEST PUSH1 0x0 CALLDATALOAD PUSH1 0xE0 SHR SWAP1 DUP2 PUSH4 0x2D05D3F EQ PUSH2 0x21A7 JUMPI POP DUP1 PUSH4 0x40023D6 EQ PUSH2 0x2002 JUMPI DUP1 PUSH4 0x6DF453E EQ PUSH2 0x1F43 JUMPI DUP1 PUSH4 0xEE2CB10 EQ PUSH2 0x1F1A JUMPI DUP1 PUSH4 0x10218F4D EQ PUSH2 0x1DF3 JUMPI DUP1 PUSH4 0x195EC9EE EQ PUSH2 0x1BE8 JUMPI DUP1 PUSH4 0x1AF9FD17 EQ PUSH2 0x1B50 JUMPI DUP1 PUSH4 0x22F3E2D4 EQ PUSH2 0x287 JUMPI DUP1 PUSH4 0x29D811C2 EQ PUSH2 0x1800 JUMPI DUP1 PUSH4 0x2B17B8BE EQ PUSH2 0x1B19 JUMPI DUP1 PUSH4 0x3197CBB6 EQ PUSH2 0x1AFB JUMPI DUP1 PUSH4 0x32C6AFD0 EQ PUSH2 0x1A87 JUMPI DUP1 PUSH4 0x35C1D349 EQ PUSH2 0x1A5E JUMPI DUP1 PUSH4 0x383E1A5E EQ PUSH2 0x19FB JUMPI DUP1 PUSH4 0x46015978 EQ PUSH2 0x19A0 JUMPI DUP1 PUSH4 0x4A79D50C EQ PUSH2 0x19DF JUMPI DUP1 PUSH4 0x4BE2D708 EQ PUSH2 0x19A0 JUMPI DUP1 PUSH4 0x4F799E79 EQ PUSH2 0x1977 JUMPI DUP1 PUSH4 0x55B31B55 EQ PUSH2 0x10AB JUMPI DUP1 PUSH4 0x562D0A13 EQ PUSH2 0x1873 JUMPI DUP1 PUSH4 0x58F43F76 EQ PUSH2 0x1829 JUMPI DUP1 PUSH4 0x594EB0BD EQ PUSH2 0x1800 JUMPI DUP1 PUSH4 0x59ABBFE4 EQ PUSH2 0x17DB JUMPI DUP1 PUSH4 0x5CF5A058 EQ PUSH2 0xCD8 JUMPI DUP1 PUSH4 0x5E1A6C17 EQ PUSH2 0x17B2 JUMPI DUP1 PUSH4 0x7284E416 EQ PUSH2 0x1796 JUMPI DUP1 PUSH4 0x728F1112 EQ PUSH2 0x16D5 JUMPI DUP1 PUSH4 0x7847F1DE EQ PUSH2 0x14F5 JUMPI DUP1 PUSH4 0x78E97925 EQ PUSH2 0x14D7 JUMPI DUP1 PUSH4 0x79EC4F19 EQ PUSH2 0x1460 JUMPI DUP1 PUSH4 0x94C52F98 EQ PUSH2 0x10C7 JUMPI DUP1 PUSH4 0x9C0768B3 EQ PUSH2 0x10AB JUMPI DUP1 PUSH4 0xA1D7769D EQ PUSH2 0x2B2 JUMPI DUP1 PUSH4 0xAB34C9E9 EQ PUSH2 0x1071 JUMPI DUP1 PUSH4 0xB5686479 EQ PUSH2 0xFD7 JUMPI DUP1 PUSH4 0xB70825DC EQ PUSH2 0xF95 JUMPI DUP1 PUSH4 0xB9BE92F9 EQ PUSH2 0xDBA JUMPI DUP1 PUSH4 0xBBFFD04C EQ PUSH2 0xD12 JUMPI DUP1 PUSH4 0xC2E4FE5A EQ PUSH2 0xCD8 JUMPI DUP1 PUSH4 0xC2FC0D26 EQ PUSH2 0xCA8 JUMPI DUP1 PUSH4 0xC3FEDA17 EQ PUSH2 0xBF9 JUMPI DUP1 PUSH4 0xC6765D28 EQ PUSH2 0xA2D JUMPI DUP1 PUSH4 0xCC37BCE5 EQ PUSH2 0xA02 JUMPI DUP1 PUSH4 0xCF09E0D0 EQ PUSH2 0x9E4 JUMPI DUP1 PUSH4 0xD64C58A7 EQ PUSH2 0x9AA JUMPI DUP1 PUSH4 0xDFAFE10F EQ PUSH2 0x929 JUMPI DUP1 PUSH4 0xDFB748AA EQ PUSH2 0x86D JUMPI DUP1 PUSH4 0xE7AA3AFC EQ PUSH2 0x828 JUMPI DUP1 PUSH4 0xEAB95992 EQ PUSH2 0x746 JUMPI DUP1 PUSH4 0xEACB13A0 EQ PUSH2 0x667 JUMPI DUP1 PUSH4 0xEF213106 EQ PUSH2 0x5FE JUMPI DUP1 PUSH4 0xF7267CFD EQ PUSH2 0x5E0 JUMPI DUP1 PUSH4 0xF75EADE0 EQ PUSH2 0x351 JUMPI DUP1 PUSH4 0xFA352C00 EQ PUSH2 0x2DB JUMPI DUP1 PUSH4 0xFB033C8D EQ PUSH2 0x2B2 JUMPI PUSH4 0xFBA7CC79 EQ PUSH2 0x287 JUMPI PUSH1 0x0 DUP1 REVERT JUMPDEST CALLVALUE PUSH2 0x2AD JUMPI PUSH1 0x0 CALLDATASIZE PUSH1 0x3 NOT ADD SLT PUSH2 0x2AD JUMPI PUSH1 0x20 PUSH1 0xFF PUSH1 0x0 SLOAD PUSH1 0xA0 SHR AND PUSH1 0x40 MLOAD SWAP1 ISZERO ISZERO DUP2 MSTORE RETURN JUMPDEST PUSH1 0x0 DUP1 REVERT JUMPDEST CALLVALUE PUSH2 0x2AD JUMPI PUSH1 0x0 CALLDATASIZE PUSH1 0x3 NOT ADD SLT PUSH2 0x2AD JUMPI PUSH1 0x13 SLOAD PUSH1 0x40 MLOAD PUSH1 0x1 PUSH1 0x1 PUSH1 0xA0 SHL SUB SWAP1 SWAP2 AND DUP2 MSTORE PUSH1 0x20 SWAP1 RETURN JUMPDEST CALLVALUE PUSH2 0x2AD JUMPI PUSH1 0x20 CALLDATASIZE PUSH1 0x3 NOT ADD SLT PUSH2 0x2AD JUMPI PUSH2 0x2F4 PUSH2 0x21CB JUMP JUMPDEST PUSH2 0x309 PUSH1 0x1 DUP1 PUSH1 0xA0 SHL SUB PUSH1 0x0 SLOAD AND CALLER EQ PUSH2 0x2706 JUMP JUMPDEST PUSH1 0x1 PUSH1 0x1 PUSH1 0xA0 SHL SUB AND PUSH1 0x0 DUP2 DUP2 MSTORE PUSH1 0x14 PUSH1 0x20 MSTORE PUSH1 0x40 DUP2 KECCAK256 DUP1 SLOAD PUSH1 0xFF NOT AND SWAP1 SSTORE CALLER SWAP2 SWAP1 PUSH32 0x76E6646868D096078AC7F3F1401C3AAA55DC84890EC74B99C699E4754714B18E SWAP1 DUP1 LOG3 STOP JUMPDEST CALLVALUE PUSH2 0x2AD JUMPI PUSH1 0x40 CALLDATASIZE PUSH1 0x3 NOT ADD SLT PUSH2 0x2AD JUMPI PUSH2 0x36A PUSH2 0x21CB JUMP JUMPDEST PUSH1 0x24 CALLDATALOAD PUSH1 0x1 PUSH1 0x1 PUSH1 0x40 SHL SUB DUP2 GT PUSH2 0x2AD JUMPI PUSH2 0x389 SWAP1 CALLDATASIZE SWAP1 PUSH1 0x4 ADD PUSH2 0x221F JUMP JUMPDEST PUSH1 0x0 SLOAD SWAP1 SWAP2 PUSH1 0x1 PUSH1 0x1 PUSH1 0xA0 SHL SUB DUP3 AND SWAP2 PUSH2 0x3B4 SWAP1 PUSH1 0xFF SWAP1 PUSH2 0x3AB CALLER DUP7 EQ PUSH2 0x2706 JUMP JUMPDEST PUSH1 0xA0 SHR AND PUSH2 0x277A JUMP JUMPDEST PUSH1 0x1 PUSH1 0x1 PUSH1 0xA0 SHL SUB AND SWAP1 DUP2 ISZERO PUSH2 0x5A1 JUMPI DUP2 EQ PUSH2 0x564 JUMPI DUP1 PUSH1 0x0 MSTORE PUSH1 0xC PUSH1 0x20 MSTORE PUSH1 0xFF PUSH1 0x3 PUSH1 0x40 PUSH1 0x0 KECCAK256 ADD SLOAD AND PUSH2 0x523 JUMPI PUSH2 0x3EF DUP3 MLOAD ISZERO ISZERO PUSH2 0x2741 JUMP JUMPDEST DUP1 PUSH1 0x0 MSTORE PUSH1 0x10 PUSH1 0x20 MSTORE PUSH2 0x40F PUSH2 0x409 PUSH1 0x40 PUSH1 0x0 KECCAK256 SLOAD PUSH2 0x23E2 JUMP JUMPDEST ISZERO PUSH2 0x29AC JUMP JUMPDEST PUSH2 0x447 PUSH1 0x40 MLOAD PUSH2 0x41E DUP2 PUSH2 0x21E1 JUMP JUMPDEST DUP3 DUP2 MSTORE DUP4 PUSH1 0x20 DUP3 ADD MSTORE TIMESTAMP PUSH1 0x40 DUP3 ADD MSTORE PUSH1 0x1 PUSH1 0x60 DUP3 ADD MSTORE DUP3 PUSH1 0x0 MSTORE PUSH1 0xC PUSH1 0x20 MSTORE PUSH1 0x40 PUSH1 0x0 KECCAK256 PUSH2 0x29EE JUMP JUMPDEST PUSH1 0x0 DUP1 PUSH1 0xE SLOAD SWAP1 JUMPDEST DUP2 DUP2 LT PUSH2 0x4EE JUMPI JUMPDEST POP POP ISZERO PUSH2 0x496 JUMPI JUMPDEST PUSH32 0x7501885E0E140E0232EED19016A41BDE16B8DE699D11E7A461F88D6BA58A9CD PUSH1 0x40 MLOAD DUP1 PUSH2 0x491 CALLER SWAP6 TIMESTAMP SWAP1 DUP4 PUSH2 0x2B71 JUMP JUMPDEST SUB SWAP1 LOG3 STOP JUMPDEST PUSH1 0xE SLOAD PUSH1 0x1 PUSH1 0x40 SHL DUP2 LT ISZERO PUSH2 0x4D8 JUMPI DUP1 PUSH1 0x1 PUSH2 0x4B7 SWAP3 ADD PUSH1 0xE SSTORE PUSH1 0xE PUSH2 0x23CA JUMP JUMPDEST DUP2 SLOAD PUSH1 0x1 PUSH1 0x1 PUSH1 0xA0 SHL SUB PUSH1 0x3 SWAP3 SWAP1 SWAP3 SHL SWAP2 DUP3 SHL NOT AND SWAP1 DUP4 SWAP1 SHL OR SWAP1 SSTORE PUSH2 0x45F JUMP JUMPDEST PUSH4 0x4E487B71 PUSH1 0xE0 SHL PUSH1 0x0 MSTORE PUSH1 0x41 PUSH1 0x4 MSTORE PUSH1 0x24 PUSH1 0x0 REVERT JUMPDEST DUP4 PUSH2 0x4F8 DUP3 PUSH2 0x23AF JUMP JUMPDEST SWAP1 SLOAD PUSH1 0x3 SWAP2 SWAP1 SWAP2 SHL SHR PUSH1 0x1 PUSH1 0x1 PUSH1 0xA0 SHL SUB AND EQ PUSH2 0x517 JUMPI PUSH1 0x1 ADD PUSH2 0x44F JUMP JUMPDEST POP POP POP PUSH1 0x1 DUP4 DUP1 PUSH2 0x457 JUMP JUMPDEST PUSH1 0x40 MLOAD PUSH3 0x461BCD PUSH1 0xE5 SHL DUP2 MSTORE PUSH1 0x20 PUSH1 0x4 DUP3 ADD MSTORE PUSH1 0x19 PUSH1 0x24 DUP3 ADD MSTORE PUSH25 0x496E7669746174696F6E20616C726561647920657869737473 PUSH1 0x38 SHL PUSH1 0x44 DUP3 ADD MSTORE PUSH1 0x64 SWAP1 REVERT JUMPDEST PUSH1 0x40 MLOAD PUSH3 0x461BCD PUSH1 0xE5 SHL DUP2 MSTORE PUSH1 0x20 PUSH1 0x4 DUP3 ADD MSTORE PUSH1 0x15 PUSH1 0x24 DUP3 ADD MSTORE PUSH21 0x21B0B73737BA1034B73B34BA329031B932B0BA37B9 PUSH1 0x59 SHL PUSH1 0x44 DUP3 ADD MSTORE PUSH1 0x64 SWAP1 REVERT JUMPDEST PUSH1 0x40 MLOAD PUSH3 0x461BCD PUSH1 0xE5 SHL DUP2 MSTORE PUSH1 0x20 PUSH1 0x4 DUP3 ADD MSTORE PUSH1 0x17 PUSH1 0x24 DUP3 ADD MSTORE PUSH23 0x496E76616C696420696E76697465652061646472657373 PUSH1 0x48 SHL PUSH1 0x44 DUP3 ADD MSTORE PUSH1 0x64 SWAP1 REVERT JUMPDEST CALLVALUE PUSH2 0x2AD JUMPI PUSH1 0x0 CALLDATASIZE PUSH1 0x3 NOT ADD SLT PUSH2 0x2AD JUMPI PUSH1 0x20 PUSH1 0x2 SLOAD PUSH1 0x40 MLOAD SWAP1 DUP2 MSTORE RETURN JUMPDEST CALLVALUE PUSH2 0x2AD JUMPI PUSH1 0x20 CALLDATASIZE PUSH1 0x3 NOT ADD SLT PUSH2 0x2AD JUMPI PUSH1 0x1 PUSH1 0x1 PUSH1 0xA0 SHL SUB PUSH2 0x61F PUSH2 0x21CB JUMP JUMPDEST AND PUSH1 0x0 SWAP1 DUP2 MSTORE PUSH1 0xB PUSH1 0x20 MSTORE PUSH1 0x40 SWAP1 KECCAK256 DUP1 SLOAD PUSH1 0x1 PUSH1 0x1 PUSH1 0xA0 SHL SUB AND PUSH2 0x663 PUSH2 0x648 PUSH1 0x1 DUP5 ADD PUSH2 0x2664 JUMP JUMPDEST SWAP3 PUSH1 0xFF PUSH1 0x3 PUSH1 0x2 DUP4 ADD SLOAD SWAP3 ADD SLOAD AND SWAP1 PUSH1 0x40 MLOAD SWAP5 DUP6 SWAP5 DUP6 PUSH2 0x2330 JUMP JUMPDEST SUB SWAP1 RETURN JUMPDEST CALLVALUE PUSH2 0x2AD JUMPI PUSH1 0x20 CALLDATASIZE PUSH1 0x3 NOT ADD SLT PUSH2 0x2AD JUMPI PUSH2 0x680 PUSH2 0x21CB JUMP JUMPDEST PUSH2 0x695 PUSH1 0x1 DUP1 PUSH1 0xA0 SHL SUB PUSH1 0x0 SLOAD AND CALLER EQ PUSH2 0x2706 JUMP JUMPDEST PUSH1 0x1 PUSH1 0x1 PUSH1 0xA0 SHL SUB AND DUP1 ISZERO PUSH2 0x6ED JUMPI DUP1 PUSH1 0x1 DUP1 PUSH1 0xA0 SHL SUB NOT PUSH1 0x8 SLOAD AND OR PUSH1 0x8 SSTORE TIMESTAMP PUSH1 0x2 SSTORE PUSH1 0x40 MLOAD SWAP1 DUP2 MSTORE TIMESTAMP PUSH1 0x20 DUP3 ADD MSTORE PUSH32 0x8A66DCDE9FA30DCF180B8E82D67AC1DD3ABD8362EE4AD7DD230FE0E63623B1E8 PUSH1 0x40 CALLER SWAP3 LOG2 STOP JUMPDEST PUSH1 0x40 MLOAD PUSH3 0x461BCD PUSH1 0xE5 SHL DUP2 MSTORE PUSH1 0x20 PUSH1 0x4 DUP3 ADD MSTORE PUSH1 0x2B PUSH1 0x24 DUP3 ADD MSTORE PUSH32 0x46696E616C20524F2D43726174652061737365742063616E6E6F74206265207A PUSH1 0x44 DUP3 ADD MSTORE PUSH11 0x65726F2061646472657373 PUSH1 0xA8 SHL PUSH1 0x64 DUP3 ADD MSTORE PUSH1 0x84 SWAP1 REVERT JUMPDEST CALLVALUE PUSH2 0x2AD JUMPI PUSH1 0x20 CALLDATASIZE PUSH1 0x3 NOT ADD SLT PUSH2 0x2AD JUMPI PUSH2 0x75F PUSH2 0x21CB JUMP JUMPDEST PUSH1 0x0 SLOAD PUSH1 0x1 PUSH1 0x1 PUSH1 0xA0 SHL SUB AND CALLER EQ DUP1 ISZERO PUSH2 0x80F JUMPI JUMPDEST PUSH2 0x77D SWAP1 PUSH2 0x2965 JUMP JUMPDEST PUSH1 0x1 PUSH1 0x1 PUSH1 0xA0 SHL SUB AND DUP1 ISZERO PUSH2 0x7BC JUMPI PUSH1 0x1 DUP1 PUSH1 0xA0 SHL SUB NOT PUSH1 0x7 SLOAD AND OR PUSH1 0x7 SSTORE TIMESTAMP PUSH1 0x2 SSTORE PUSH1 0x40 MLOAD TIMESTAMP DUP2 MSTORE PUSH1 0x0 DUP1 MLOAD PUSH1 0x20 PUSH2 0x2DBE DUP4 CODECOPY DUP2 MLOAD SWAP2 MSTORE PUSH1 0x20 CALLER SWAP3 LOG2 STOP JUMPDEST PUSH1 0x40 MLOAD PUSH3 0x461BCD PUSH1 0xE5 SHL DUP2 MSTORE PUSH1 0x20 PUSH1 0x4 DUP3 ADD MSTORE PUSH1 0x25 PUSH1 0x24 DUP3 ADD MSTORE PUSH32 0x524F2D43726174652061737365742063616E6E6F74206265207A65726F206164 PUSH1 0x44 DUP3 ADD MSTORE PUSH5 0x6472657373 PUSH1 0xD8 SHL PUSH1 0x64 DUP3 ADD MSTORE PUSH1 0x84 SWAP1 REVERT JUMPDEST POP CALLER PUSH1 0x0 SWAP1 DUP2 MSTORE PUSH1 0x14 PUSH1 0x20 MSTORE PUSH1 0x40 SWAP1 KECCAK256 SLOAD PUSH1 0xFF AND PUSH2 0x774 JUMP JUMPDEST CALLVALUE PUSH2 0x2AD JUMPI PUSH1 0x0 CALLDATASIZE PUSH1 0x3 NOT ADD SLT PUSH2 0x2AD JUMPI PUSH1 0x80 PUSH1 0x0 SLOAD PUSH1 0x1 SLOAD SWAP1 PUSH1 0x2 SLOAD PUSH1 0x40 MLOAD SWAP3 PUSH1 0xFF DUP4 PUSH1 0xA0 SHR AND ISZERO ISZERO DUP5 MSTORE PUSH1 0x20 DUP5 ADD MSTORE PUSH1 0x40 DUP4 ADD MSTORE PUSH1 0x1 DUP1 PUSH1 0xA0 SHL SUB AND PUSH1 0x60 DUP3 ADD MSTORE RETURN JUMPDEST CALLVALUE PUSH2 0x2AD JUMPI PUSH1 0x20 CALLDATASIZE PUSH1 0x3 NOT ADD SLT PUSH2 0x2AD JUMPI PUSH2 0x886 PUSH2 0x21CB JUMP JUMPDEST PUSH2 0x89B PUSH1 0x1 DUP1 PUSH1 0xA0 SHL SUB PUSH1 0x0 SLOAD AND CALLER EQ PUSH2 0x2706 JUMP JUMPDEST PUSH2 0x8E4 PUSH1 0x1 DUP1 PUSH1 0xA0 SHL SUB DUP3 AND SWAP2 DUP3 PUSH1 0x0 MSTORE PUSH1 0xB PUSH1 0x20 MSTORE PUSH2 0x8C5 PUSH1 0xFF PUSH1 0x3 PUSH1 0x40 PUSH1 0x0 KECCAK256 ADD SLOAD AND PUSH2 0x2B8D JUMP JUMPDEST DUP3 PUSH1 0x0 MSTORE PUSH1 0xB PUSH1 0x20 MSTORE PUSH2 0x8DE PUSH1 0x1 PUSH1 0x40 PUSH1 0x0 KECCAK256 ADD PUSH2 0x2664 JUMP JUMPDEST SWAP1 PUSH2 0x2C0C JUMP JUMPDEST DUP1 PUSH1 0x0 MSTORE PUSH1 0xB PUSH1 0x20 MSTORE PUSH2 0x8FA PUSH1 0x40 PUSH1 0x0 KECCAK256 PUSH2 0x28F9 JUMP JUMPDEST PUSH1 0x40 MLOAD SWAP1 TIMESTAMP DUP3 MSTORE PUSH32 0x423EB00B6A18C3ECFC2170A0E40EF0BAD995279070614BA2E4BE1B94F67EB888 PUSH1 0x20 CALLER SWAP4 LOG3 STOP JUMPDEST CALLVALUE PUSH2 0x2AD JUMPI PUSH1 0x20 CALLDATASIZE PUSH1 0x3 NOT ADD SLT PUSH2 0x2AD JUMPI PUSH2 0x9A8 PUSH2 0x945 PUSH2 0x21CB JUMP JUMPDEST PUSH2 0x95A PUSH1 0x1 DUP1 PUSH1 0xA0 SHL SUB PUSH1 0x0 SLOAD AND CALLER EQ PUSH2 0x2706 JUMP JUMPDEST PUSH1 0x1 DUP1 PUSH1 0xA0 SHL SUB DUP2 AND PUSH1 0x0 MSTORE PUSH1 0x10 PUSH1 0x20 MSTORE PUSH2 0x97C PUSH2 0x409 PUSH1 0x40 PUSH1 0x0 KECCAK256 SLOAD PUSH2 0x23E2 JUMP JUMPDEST PUSH1 0x40 MLOAD SWAP1 PUSH2 0x98B PUSH1 0x40 DUP4 PUSH2 0x21FC JUMP JUMPDEST PUSH1 0xB DUP3 MSTORE PUSH11 0x31B7B73A3934B13ABA37B9 PUSH1 0xA9 SHL PUSH1 0x20 DUP4 ADD MSTORE PUSH2 0x2C0C JUMP JUMPDEST STOP JUMPDEST CALLVALUE PUSH2 0x2AD JUMPI PUSH1 0x20 CALLDATASIZE PUSH1 0x3 NOT ADD SLT PUSH2 0x2AD JUMPI PUSH1 0x1 PUSH1 0x1 PUSH1 0xA0 SHL SUB PUSH2 0x9CB PUSH2 0x21CB JUMP JUMPDEST AND PUSH1 0x0 MSTORE PUSH1 0x11 PUSH1 0x20 MSTORE PUSH1 0x20 PUSH1 0x40 PUSH1 0x0 KECCAK256 SLOAD PUSH1 0x40 MLOAD SWAP1 DUP2 MSTORE RETURN JUMPDEST CALLVALUE PUSH2 0x2AD JUMPI PUSH1 0x0 CALLDATASIZE PUSH1 0x3 NOT ADD SLT PUSH2 0x2AD JUMPI PUSH1 0x20 PUSH1 0x1 SLOAD PUSH1 0x40 MLOAD SWAP1 DUP2 MSTORE RETURN JUMPDEST CALLVALUE PUSH2 0x2AD JUMPI PUSH1 0x0 CALLDATASIZE PUSH1 0x3 NOT ADD SLT PUSH2 0x2AD JUMPI PUSH1 0x13 SLOAD PUSH1 0x40 MLOAD PUSH1 0x1 PUSH1 0x1 PUSH1 0xA0 SHL SUB SWAP1 SWAP2 AND ISZERO ISZERO DUP2 MSTORE PUSH1 0x20 SWAP1 RETURN JUMPDEST CALLVALUE PUSH2 0x2AD JUMPI PUSH1 0x20 CALLDATASIZE PUSH1 0x3 NOT ADD SLT PUSH2 0x2AD JUMPI PUSH1 0x4 CALLDATALOAD PUSH1 0x1 PUSH1 0x1 PUSH1 0x40 SHL SUB DUP2 GT PUSH2 0x2AD JUMPI PUSH2 0xA5D SWAP1 CALLDATASIZE SWAP1 PUSH1 0x4 ADD PUSH2 0x221F JUMP JUMPDEST PUSH2 0xA6E PUSH1 0xFF PUSH1 0x0 SLOAD PUSH1 0xA0 SHR AND PUSH2 0x277A JUMP JUMPDEST PUSH2 0xA7A DUP2 MLOAD ISZERO ISZERO PUSH2 0x27B1 JUMP JUMPDEST CALLER PUSH1 0x0 MSTORE PUSH1 0x10 PUSH1 0x20 MSTORE PUSH2 0xA91 PUSH1 0x40 PUSH1 0x0 KECCAK256 SLOAD PUSH2 0x23E2 JUMP JUMPDEST ISZERO PUSH2 0xBB8 JUMPI DUP1 MLOAD PUSH1 0x1 PUSH1 0x1 PUSH1 0x40 SHL SUB DUP2 GT PUSH2 0x4D8 JUMPI PUSH2 0xAB1 PUSH1 0x3 SLOAD PUSH2 0x23E2 JUMP JUMPDEST PUSH1 0x1F DUP2 GT PUSH2 0xB70 JUMPI JUMPDEST POP PUSH1 0x20 SWAP2 PUSH1 0x1F DUP3 GT PUSH1 0x1 EQ PUSH2 0xB0C JUMPI PUSH2 0xADD SWAP3 PUSH1 0x0 SWAP2 DUP4 PUSH2 0xB01 JUMPI JUMPDEST POP POP PUSH2 0x2801 JUMP JUMPDEST PUSH1 0x3 SSTORE JUMPDEST TIMESTAMP PUSH1 0x2 SSTORE PUSH1 0x40 MLOAD TIMESTAMP DUP2 MSTORE PUSH1 0x0 DUP1 MLOAD PUSH1 0x20 PUSH2 0x2DBE DUP4 CODECOPY DUP2 MLOAD SWAP2 MSTORE PUSH1 0x20 CALLER SWAP3 LOG2 STOP JUMPDEST ADD MLOAD SWAP1 POP DUP4 DUP1 PUSH2 0xAD6 JUMP JUMPDEST PUSH1 0x1F NOT DUP3 AND SWAP3 PUSH1 0x3 PUSH1 0x0 MSTORE DUP1 PUSH1 0x0 KECCAK256 SWAP2 PUSH1 0x0 JUMPDEST DUP6 DUP2 LT PUSH2 0xB58 JUMPI POP DUP4 PUSH1 0x1 SWAP6 LT PUSH2 0xB3F JUMPI JUMPDEST POP POP POP DUP2 SHL ADD PUSH1 0x3 SSTORE PUSH2 0xAE1 JUMP JUMPDEST ADD MLOAD PUSH1 0x0 NOT PUSH1 0xF8 DUP5 PUSH1 0x3 SHL AND SHR NOT AND SWAP1 SSTORE DUP3 DUP1 DUP1 PUSH2 0xB31 JUMP JUMPDEST SWAP2 SWAP3 PUSH1 0x20 PUSH1 0x1 DUP2 SWAP3 DUP7 DUP6 ADD MLOAD DUP2 SSTORE ADD SWAP5 ADD SWAP3 ADD PUSH2 0xB1F JUMP JUMPDEST PUSH1 0x3 PUSH1 0x0 MSTORE PUSH2 0xBA8 SWAP1 PUSH1 0x0 DUP1 MLOAD PUSH1 0x20 PUSH2 0x2D9E DUP4 CODECOPY DUP2 MLOAD SWAP2 MSTORE PUSH1 0x1F DUP5 ADD PUSH1 0x5 SHR DUP2 ADD SWAP2 PUSH1 0x20 DUP6 LT PUSH2 0xBAE JUMPI JUMPDEST PUSH1 0x1F ADD PUSH1 0x5 SHR ADD SWAP1 PUSH2 0x27EA JUMP JUMPDEST DUP3 PUSH2 0xABA JUMP JUMPDEST SWAP1 SWAP2 POP DUP2 SWAP1 PUSH2 0xB9B JUMP JUMPDEST PUSH1 0x40 MLOAD PUSH3 0x461BCD PUSH1 0xE5 SHL DUP2 MSTORE PUSH1 0x20 PUSH1 0x4 DUP3 ADD MSTORE PUSH1 0x19 PUSH1 0x24 DUP3 ADD MSTORE PUSH25 0x139BDD0818481C1C9BDA9958DD081C185C9D1A58DA5C185B9D PUSH1 0x3A SHL PUSH1 0x44 DUP3 ADD MSTORE PUSH1 0x64 SWAP1 REVERT JUMPDEST CALLVALUE PUSH2 0x2AD JUMPI PUSH1 0x0 CALLDATASIZE PUSH1 0x3 NOT ADD SLT PUSH2 0x2AD JUMPI PUSH1 0x0 SLOAD PUSH2 0xC21 CALLER PUSH1 0x1 PUSH1 0x1 PUSH1 0xA0 SHL SUB DUP4 AND EQ PUSH2 0x2706 JUMP JUMPDEST PUSH1 0xFF DUP2 PUSH1 0xA0 SHR AND PUSH2 0xC72 JUMPI PUSH1 0xFF PUSH1 0xA0 SHL NOT AND PUSH1 0x1 PUSH1 0xA0 SHL OR PUSH1 0x0 SSTORE TIMESTAMP PUSH1 0x2 DUP2 SWAP1 SSTORE PUSH1 0x40 MLOAD SWAP1 DUP2 MSTORE CALLER SWAP1 PUSH32 0xB351BA71DDC1D2BF39667CEBDE99FB92EB26B9F418D5049BA0200888BA810715 SWAP1 PUSH1 0x20 SWAP1 LOG2 STOP JUMPDEST PUSH1 0x40 MLOAD PUSH3 0x461BCD PUSH1 0xE5 SHL DUP2 MSTORE PUSH1 0x20 PUSH1 0x4 DUP3 ADD MSTORE PUSH1 0xE PUSH1 0x24 DUP3 ADD MSTORE PUSH14 0x416C726561647920616374697665 PUSH1 0x90 SHL PUSH1 0x44 DUP3 ADD MSTORE PUSH1 0x64 SWAP1 REVERT JUMPDEST CALLVALUE PUSH2 0x2AD JUMPI PUSH1 0x0 CALLDATASIZE PUSH1 0x3 NOT ADD SLT PUSH2 0x2AD JUMPI PUSH2 0x663 PUSH2 0xCC4 PUSH2 0x255A JUMP JUMPDEST PUSH1 0x40 MLOAD SWAP2 DUP3 SWAP2 PUSH1 0x20 DUP4 MSTORE PUSH1 0x20 DUP4 ADD SWAP1 PUSH2 0x22BB JUMP JUMPDEST CALLVALUE PUSH2 0x2AD JUMPI PUSH1 0x20 CALLDATASIZE PUSH1 0x3 NOT ADD SLT PUSH2 0x2AD JUMPI PUSH1 0x1 PUSH1 0x1 PUSH1 0xA0 SHL SUB PUSH2 0xCF9 PUSH2 0x21CB JUMP JUMPDEST AND PUSH1 0x0 MSTORE PUSH1 0x10 PUSH1 0x20 MSTORE PUSH2 0x663 PUSH2 0xCC4 PUSH1 0x40 PUSH1 0x0 KECCAK256 PUSH2 0x2664 JUMP JUMPDEST CALLVALUE PUSH2 0x2AD JUMPI PUSH1 0x0 CALLDATASIZE PUSH1 0x3 NOT ADD SLT PUSH2 0x2AD JUMPI PUSH1 0x0 SLOAD PUSH2 0xD3A CALLER PUSH1 0x1 PUSH1 0x1 PUSH1 0xA0 SHL SUB DUP4 AND EQ PUSH2 0x2706 JUMP JUMPDEST PUSH1 0xFF DUP2 PUSH1 0xA0 SHR AND ISZERO PUSH2 0xD82 JUMPI PUSH1 0xFF PUSH1 0xA0 SHL NOT AND PUSH1 0x0 SSTORE TIMESTAMP PUSH1 0x2 SSTORE PUSH1 0x40 MLOAD TIMESTAMP DUP2 MSTORE PUSH32 0x17064D72EE4A5901E55DFA45024EA8F67CDB4895BA6364AB2F8E7223F642AD36 PUSH1 0x20 CALLER SWAP3 LOG2 STOP JUMPDEST PUSH1 0x40 MLOAD PUSH3 0x461BCD PUSH1 0xE5 SHL DUP2 MSTORE PUSH1 0x20 PUSH1 0x4 DUP3 ADD MSTORE PUSH1 0x10 PUSH1 0x24 DUP3 ADD MSTORE PUSH16 0x416C726561647920696E616374697665 PUSH1 0x80 SHL PUSH1 0x44 DUP3 ADD MSTORE PUSH1 0x64 SWAP1 REVERT JUMPDEST CALLVALUE PUSH2 0x2AD JUMPI PUSH2 0xDC8 CALLDATASIZE PUSH2 0x2275 JUMP JUMPDEST SWAP1 SWAP2 PUSH2 0xDDF PUSH1 0x1 DUP1 PUSH1 0xA0 SHL SUB PUSH1 0x0 SLOAD AND CALLER EQ PUSH2 0x2706 JUMP JUMPDEST PUSH1 0x1 DUP1 PUSH1 0xA0 SHL SUB AND SWAP1 DUP2 PUSH1 0x0 MSTORE PUSH1 0x10 PUSH1 0x20 MSTORE PUSH2 0xDFF PUSH1 0x40 PUSH1 0x0 KECCAK256 SLOAD PUSH2 0x23E2 JUMP JUMPDEST ISZERO PUSH2 0xF5C JUMPI PUSH2 0xE10 DUP4 MLOAD ISZERO ISZERO PUSH2 0x2741 JUMP JUMPDEST PUSH2 0xE1B DUP2 ISZERO ISZERO PUSH2 0x2BC6 JUMP JUMPDEST PUSH1 0x0 DUP3 DUP2 MSTORE PUSH1 0x10 PUSH1 0x20 MSTORE PUSH1 0x40 SWAP1 KECCAK256 DUP4 MLOAD SWAP4 SWAP1 PUSH1 0x1 PUSH1 0x1 PUSH1 0x40 SHL SUB DUP6 GT PUSH2 0x4D8 JUMPI PUSH2 0xE45 DUP2 SLOAD PUSH2 0x23E2 JUMP JUMPDEST PUSH1 0x1F DUP2 GT PUSH2 0xF2A JUMPI JUMPDEST POP PUSH1 0x20 PUSH1 0x1F DUP7 GT PUSH1 0x1 EQ PUSH2 0xEB6 JUMPI DUP6 PUSH1 0x0 DUP1 MLOAD PUSH1 0x20 PUSH2 0x2E3E DUP4 CODECOPY DUP2 MLOAD SWAP2 MSTORE SWAP6 SWAP7 PUSH2 0xE80 SWAP3 PUSH1 0x0 SWAP2 PUSH2 0xEAB JUMPI JUMPDEST POP PUSH2 0x2801 JUMP JUMPDEST SWAP1 SSTORE JUMPDEST DUP4 PUSH1 0x0 MSTORE PUSH1 0x11 PUSH1 0x20 MSTORE DUP2 PUSH1 0x40 PUSH1 0x0 KECCAK256 SSTORE TIMESTAMP PUSH1 0x2 SSTORE PUSH2 0xEA6 PUSH1 0x40 MLOAD SWAP3 DUP4 SWAP3 DUP4 PUSH2 0x2B71 JUMP JUMPDEST SUB SWAP1 LOG2 STOP JUMPDEST SWAP1 POP DUP5 ADD MLOAD DUP9 PUSH2 0xE7A JUMP JUMPDEST PUSH1 0x1F NOT DUP7 AND SWAP1 DUP3 PUSH1 0x0 MSTORE DUP1 PUSH1 0x0 KECCAK256 SWAP2 PUSH1 0x0 JUMPDEST DUP2 DUP2 LT PUSH2 0xF12 JUMPI POP SWAP2 DUP8 SWAP2 PUSH1 0x0 DUP1 MLOAD PUSH1 0x20 PUSH2 0x2E3E DUP4 CODECOPY DUP2 MLOAD SWAP2 MSTORE SWAP8 SWAP9 PUSH1 0x1 SWAP5 LT PUSH2 0xEF9 JUMPI JUMPDEST POP POP DUP2 SHL ADD SWAP1 SSTORE PUSH2 0xE83 JUMP JUMPDEST DUP6 ADD MLOAD PUSH1 0x0 NOT PUSH1 0xF8 DUP5 PUSH1 0x3 SHL AND SHR NOT AND SWAP1 SSTORE DUP8 DUP1 PUSH2 0xEED JUMP JUMPDEST SWAP2 SWAP3 PUSH1 0x20 PUSH1 0x1 DUP2 SWAP3 DUP7 DUP10 ADD MLOAD DUP2 SSTORE ADD SWAP5 ADD SWAP3 ADD PUSH2 0xEC8 JUMP JUMPDEST PUSH2 0xF56 SWAP1 DUP3 PUSH1 0x0 MSTORE PUSH1 0x20 PUSH1 0x0 KECCAK256 PUSH1 0x1F DUP9 ADD PUSH1 0x5 SHR DUP2 ADD SWAP2 PUSH1 0x20 DUP10 LT PUSH2 0xBAE JUMPI PUSH1 0x1F ADD PUSH1 0x5 SHR ADD SWAP1 PUSH2 0x27EA JUMP JUMPDEST DUP6 PUSH2 0xE4E JUMP JUMPDEST PUSH1 0x40 MLOAD PUSH3 0x461BCD PUSH1 0xE5 SHL DUP2 MSTORE PUSH1 0x20 PUSH1 0x4 DUP3 ADD MSTORE PUSH1 0x11 PUSH1 0x24 DUP3 ADD MSTORE PUSH17 0x139BDD0818481C185C9D1A58DA5C185B9D PUSH1 0x7A SHL PUSH1 0x44 DUP3 ADD MSTORE PUSH1 0x64 SWAP1 REVERT JUMPDEST CALLVALUE PUSH2 0x2AD JUMPI PUSH1 0x20 CALLDATASIZE PUSH1 0x3 NOT ADD SLT PUSH2 0x2AD JUMPI PUSH1 0x4 CALLDATALOAD PUSH1 0xE SLOAD DUP2 LT ISZERO PUSH2 0x2AD JUMPI PUSH2 0xFBE PUSH1 0x20 SWAP2 PUSH2 0x23AF JUMP JUMPDEST SWAP1 SLOAD PUSH1 0x40 MLOAD PUSH1 0x3 SWAP3 SWAP1 SWAP3 SHL SHR PUSH1 0x1 PUSH1 0x1 PUSH1 0xA0 SHL SUB AND DUP2 MSTORE RETURN JUMPDEST CALLVALUE PUSH2 0x2AD JUMPI PUSH1 0x20 CALLDATASIZE PUSH1 0x3 NOT ADD SLT PUSH2 0x2AD JUMPI PUSH2 0xFF0 PUSH2 0x21CB JUMP JUMPDEST PUSH2 0x1005 PUSH1 0x1 DUP1 PUSH1 0xA0 SHL SUB PUSH1 0x0 SLOAD AND CALLER EQ PUSH2 0x2706 JUMP JUMPDEST PUSH1 0x1 PUSH1 0x1 PUSH1 0xA0 SHL SUB AND PUSH1 0x0 DUP2 DUP2 MSTORE PUSH1 0xB PUSH1 0x20 MSTORE PUSH1 0x40 SWAP1 KECCAK256 PUSH1 0x3 ADD SLOAD PUSH2 0x102C SWAP1 PUSH1 0xFF AND PUSH2 0x2B8D JUMP JUMPDEST DUP1 PUSH1 0x0 MSTORE PUSH1 0xB PUSH1 0x20 MSTORE PUSH2 0x1042 PUSH1 0x40 PUSH1 0x0 KECCAK256 PUSH2 0x28F9 JUMP JUMPDEST PUSH1 0x40 MLOAD SWAP1 TIMESTAMP DUP3 MSTORE PUSH32 0x1A69E67D1BE897D0CA0CF1517B4D17E345B4272A80BC900F9FE8E96F261CA1DB PUSH1 0x20 CALLER SWAP4 LOG3 STOP JUMPDEST CALLVALUE PUSH2 0x2AD JUMPI PUSH1 0x20 CALLDATASIZE PUSH1 0x3 NOT ADD SLT PUSH2 0x2AD JUMPI PUSH1 0x1 PUSH1 0x1 PUSH1 0xA0 SHL SUB PUSH2 0x1092 PUSH2 0x21CB JUMP JUMPDEST AND PUSH1 0x0 MSTORE PUSH1 0x12 PUSH1 0x20 MSTORE PUSH1 0x20 PUSH1 0x40 PUSH1 0x0 KECCAK256 SLOAD PUSH1 0x40 MLOAD SWAP1 DUP2 MSTORE RETURN JUMPDEST CALLVALUE PUSH2 0x2AD JUMPI PUSH1 0x0 CALLDATASIZE PUSH1 0x3 NOT ADD SLT PUSH2 0x2AD JUMPI PUSH2 0x663 PUSH2 0xCC4 PUSH2 0x25DF JUMP JUMPDEST CALLVALUE PUSH2 0x2AD JUMPI PUSH1 0x80 CALLDATASIZE PUSH1 0x3 NOT ADD SLT PUSH2 0x2AD JUMPI PUSH1 0x4 CALLDATALOAD PUSH1 0x1 PUSH1 0x1 PUSH1 0x40 SHL SUB DUP2 GT PUSH2 0x2AD JUMPI PUSH2 0x10F7 SWAP1 CALLDATASIZE SWAP1 PUSH1 0x4 ADD PUSH2 0x221F JUMP JUMPDEST PUSH1 0x24 CALLDATALOAD PUSH1 0x1 PUSH1 0x1 PUSH1 0x40 SHL SUB DUP2 GT PUSH2 0x2AD JUMPI PUSH2 0x1116 SWAP1 CALLDATASIZE SWAP1 PUSH1 0x4 ADD PUSH2 0x221F JUMP JUMPDEST PUSH1 0x44 CALLDATALOAD PUSH1 0x1 PUSH1 0x1 PUSH1 0x40 SHL SUB DUP2 GT PUSH2 0x2AD JUMPI PUSH2 0x1135 SWAP1 CALLDATASIZE SWAP1 PUSH1 0x4 ADD PUSH2 0x221F JUMP JUMPDEST PUSH1 0x64 CALLDATALOAD PUSH1 0x1 PUSH1 0x1 PUSH1 0xA0 SHL SUB DUP2 AND SWAP1 DUP2 SWAP1 SUB PUSH2 0x2AD JUMPI PUSH2 0x115F PUSH1 0x1 DUP1 PUSH1 0xA0 SHL SUB PUSH1 0x0 SLOAD AND CALLER EQ PUSH2 0x2706 JUMP JUMPDEST DUP4 MLOAD PUSH1 0x1 PUSH1 0x1 PUSH1 0x40 SHL SUB DUP2 GT PUSH2 0x4D8 JUMPI PUSH2 0x117A PUSH1 0x4 SLOAD PUSH2 0x23E2 JUMP JUMPDEST PUSH1 0x1F DUP2 GT PUSH2 0x1423 JUMPI JUMPDEST POP PUSH1 0x20 SWAP5 PUSH1 0x1F DUP3 GT PUSH1 0x1 EQ PUSH2 0x13BC JUMPI PUSH2 0x11A9 SWAP3 SWAP4 SWAP5 SWAP6 DUP3 SWAP2 PUSH1 0x0 SWAP3 PUSH2 0x13B1 JUMPI POP POP PUSH2 0x2801 JUMP JUMPDEST PUSH1 0x4 SSTORE JUMPDEST DUP3 MLOAD PUSH1 0x1 PUSH1 0x1 PUSH1 0x40 SHL SUB DUP2 GT PUSH2 0x4D8 JUMPI PUSH2 0x11C8 PUSH1 0x5 SLOAD PUSH2 0x23E2 JUMP JUMPDEST PUSH1 0x1F DUP2 GT PUSH2 0x137E JUMPI JUMPDEST POP PUSH1 0x20 PUSH1 0x1F DUP3 GT PUSH1 0x1 EQ PUSH2 0x1317 JUMPI DUP2 SWAP1 PUSH2 0x11F5 SWAP4 SWAP5 SWAP6 PUSH1 0x0 SWAP3 PUSH2 0x130C JUMPI POP POP PUSH2 0x2801 JUMP JUMPDEST PUSH1 0x5 SSTORE JUMPDEST DUP2 MLOAD PUSH1 0x1 PUSH1 0x1 PUSH1 0x40 SHL SUB DUP2 GT PUSH2 0x4D8 JUMPI PUSH2 0x1214 PUSH1 0x6 SLOAD PUSH2 0x23E2 JUMP JUMPDEST PUSH1 0x1F DUP2 GT PUSH2 0x12CF JUMPI JUMPDEST POP PUSH1 0x20 SWAP3 PUSH1 0x1F DUP3 GT PUSH1 0x1 EQ PUSH2 0x126A JUMPI PUSH2 0x1241 SWAP3 SWAP4 DUP3 SWAP2 PUSH1 0x0 SWAP3 PUSH2 0x125F JUMPI POP POP PUSH2 0x2801 JUMP JUMPDEST PUSH1 0x6 SSTORE JUMPDEST PUSH1 0x7 DUP1 SLOAD PUSH1 0x1 PUSH1 0x1 PUSH1 0xA0 SHL SUB NOT AND SWAP2 SWAP1 SWAP2 OR SWAP1 SSTORE TIMESTAMP PUSH1 0x2 SSTORE STOP JUMPDEST ADD MLOAD SWAP1 POP DUP5 DUP1 PUSH2 0xAD6 JUMP JUMPDEST PUSH1 0x1F NOT DUP3 AND SWAP4 PUSH1 0x6 PUSH1 0x0 MSTORE DUP1 PUSH1 0x0 KECCAK256 SWAP2 PUSH1 0x0 JUMPDEST DUP7 DUP2 LT PUSH2 0x12B7 JUMPI POP DUP4 PUSH1 0x1 SWAP6 SWAP7 LT PUSH2 0x129E JUMPI JUMPDEST POP POP POP DUP2 SHL ADD PUSH1 0x6 SSTORE PUSH2 0x1245 JUMP JUMPDEST ADD MLOAD PUSH1 0x0 NOT PUSH1 0xF8 DUP5 PUSH1 0x3 SHL AND SHR NOT AND SWAP1 SSTORE DUP4 DUP1 DUP1 PUSH2 0x1290 JUMP JUMPDEST SWAP2 SWAP3 PUSH1 0x20 PUSH1 0x1 DUP2 SWAP3 DUP7 DUP6 ADD MLOAD DUP2 SSTORE ADD SWAP5 ADD SWAP3 ADD PUSH2 0x127D JUMP JUMPDEST PUSH1 0x6 PUSH1 0x0 MSTORE PUSH2 0x1306 SWAP1 PUSH1 0x0 DUP1 MLOAD PUSH1 0x20 PUSH2 0x2DDE DUP4 CODECOPY DUP2 MLOAD SWAP2 MSTORE PUSH1 0x1F DUP5 ADD PUSH1 0x5 SHR DUP2 ADD SWAP2 PUSH1 0x20 DUP6 LT PUSH2 0xBAE JUMPI PUSH1 0x1F ADD PUSH1 0x5 SHR ADD SWAP1 PUSH2 0x27EA JUMP JUMPDEST DUP4 PUSH2 0x121D JUMP JUMPDEST ADD MLOAD SWAP1 POP DUP6 DUP1 PUSH2 0xAD6 JUMP JUMPDEST PUSH1 0x1F NOT DUP3 AND SWAP1 PUSH1 0x5 PUSH1 0x0 MSTORE DUP1 PUSH1 0x0 KECCAK256 SWAP2 PUSH1 0x0 JUMPDEST DUP2 DUP2 LT PUSH2 0x1366 JUMPI POP SWAP6 DUP4 PUSH1 0x1 SWAP6 SWAP7 SWAP8 LT PUSH2 0x134D JUMPI JUMPDEST POP POP POP DUP2 SHL ADD PUSH1 0x5 SSTORE PUSH2 0x11F9 JUMP JUMPDEST ADD MLOAD PUSH1 0x0 NOT PUSH1 0xF8 DUP5 PUSH1 0x3 SHL AND SHR NOT AND SWAP1 SSTORE DUP5 DUP1 DUP1 PUSH2 0x133F JUMP JUMPDEST SWAP2 SWAP3 PUSH1 0x20 PUSH1 0x1 DUP2 SWAP3 DUP7 DUP12 ADD MLOAD DUP2 SSTORE ADD SWAP5 ADD SWAP3 ADD PUSH2 0x132A JUMP JUMPDEST PUSH2 0x13AB SWAP1 PUSH1 0x5 PUSH1 0x0 MSTORE PUSH1 0x20 PUSH1 0x0 KECCAK256 PUSH1 0x1F DUP5 ADD PUSH1 0x5 SHR DUP2 ADD SWAP2 PUSH1 0x20 DUP6 LT PUSH2 0xBAE JUMPI PUSH1 0x1F ADD PUSH1 0x5 SHR ADD SWAP1 PUSH2 0x27EA JUMP JUMPDEST DUP5 PUSH2 0x11D1 JUMP JUMPDEST ADD MLOAD SWAP1 POP DUP7 DUP1 PUSH2 0xAD6 JUMP JUMPDEST PUSH1 0x1F NOT DUP3 AND SWAP6 PUSH1 0x4 PUSH1 0x0 MSTORE DUP1 PUSH1 0x0 KECCAK256 SWAP2 PUSH1 0x0 JUMPDEST DUP9 DUP2 LT PUSH2 0x140B JUMPI POP DUP4 PUSH1 0x1 SWAP6 SWAP7 SWAP8 SWAP9 LT PUSH2 0x13F2 JUMPI JUMPDEST POP POP POP DUP2 SHL ADD PUSH1 0x4 SSTORE PUSH2 0x11AD JUMP JUMPDEST ADD MLOAD PUSH1 0x0 NOT PUSH1 0xF8 DUP5 PUSH1 0x3 SHL AND SHR NOT AND SWAP1 SSTORE DUP6 DUP1 DUP1 PUSH2 0x13E4 JUMP JUMPDEST SWAP2 SWAP3 PUSH1 0x20 PUSH1 0x1 DUP2 SWAP3 DUP7 DUP6 ADD MLOAD DUP2 SSTORE ADD SWAP5 ADD SWAP3 ADD PUSH2 0x13CF JUMP JUMPDEST PUSH1 0x4 PUSH1 0x0 MSTORE PUSH2 0x145A SWAP1 PUSH1 0x0 DUP1 MLOAD PUSH1 0x20 PUSH2 0x2DFE DUP4 CODECOPY DUP2 MLOAD SWAP2 MSTORE PUSH1 0x1F DUP5 ADD PUSH1 0x5 SHR DUP2 ADD SWAP2 PUSH1 0x20 DUP6 LT PUSH2 0xBAE JUMPI PUSH1 0x1F ADD PUSH1 0x5 SHR ADD SWAP1 PUSH2 0x27EA JUMP JUMPDEST DUP6 PUSH2 0x1183 JUMP JUMPDEST CALLVALUE PUSH2 0x2AD JUMPI PUSH1 0x40 CALLDATASIZE PUSH1 0x3 NOT ADD SLT PUSH2 0x2AD JUMPI PUSH1 0x4 CALLDATALOAD PUSH1 0x24 CALLDATALOAD SWAP1 PUSH2 0x148D PUSH1 0x1 DUP1 PUSH1 0xA0 SHL SUB PUSH1 0x0 SLOAD AND CALLER EQ PUSH2 0x2706 JUMP JUMPDEST DUP2 DUP2 LT ISZERO PUSH2 0x149D JUMPI PUSH1 0x9 SSTORE PUSH1 0xA SSTORE STOP JUMPDEST PUSH1 0x40 MLOAD PUSH3 0x461BCD PUSH1 0xE5 SHL DUP2 MSTORE PUSH1 0x20 PUSH1 0x4 DUP3 ADD MSTORE PUSH1 0x12 PUSH1 0x24 DUP3 ADD MSTORE PUSH18 0x496E76616C69642074696D652072616E6765 PUSH1 0x70 SHL PUSH1 0x44 DUP3 ADD MSTORE PUSH1 0x64 SWAP1 REVERT JUMPDEST CALLVALUE PUSH2 0x2AD JUMPI PUSH1 0x0 CALLDATASIZE PUSH1 0x3 NOT ADD SLT PUSH2 0x2AD JUMPI PUSH1 0x20 PUSH1 0x9 SLOAD PUSH1 0x40 MLOAD SWAP1 DUP2 MSTORE RETURN JUMPDEST CALLVALUE PUSH2 0x2AD JUMPI PUSH1 0x20 CALLDATASIZE PUSH1 0x3 NOT ADD SLT PUSH2 0x2AD JUMPI PUSH1 0x4 CALLDATALOAD PUSH1 0x1 PUSH1 0x1 PUSH1 0x40 SHL SUB DUP2 GT PUSH2 0x2AD JUMPI PUSH2 0x1525 SWAP1 CALLDATASIZE SWAP1 PUSH1 0x4 ADD PUSH2 0x221F JUMP JUMPDEST PUSH1 0x0 SLOAD PUSH2 0x1537 PUSH1 0xFF DUP3 PUSH1 0xA0 SHR AND PUSH2 0x277A JUMP JUMPDEST PUSH1 0x1 PUSH1 0x1 PUSH1 0xA0 SHL SUB AND CALLER EQ PUSH2 0x169A JUMPI CALLER PUSH1 0x0 MSTORE PUSH1 0xB PUSH1 0x20 MSTORE PUSH1 0xFF PUSH1 0x3 PUSH1 0x40 PUSH1 0x0 KECCAK256 ADD SLOAD AND PUSH2 0x1664 JUMPI PUSH2 0x156B DUP2 MLOAD ISZERO ISZERO PUSH2 0x2741 JUMP JUMPDEST PUSH2 0x15A3 PUSH1 0x40 MLOAD PUSH2 0x157A DUP2 PUSH2 0x21E1 JUMP JUMPDEST CALLER DUP2 MSTORE DUP3 PUSH1 0x20 DUP3 ADD MSTORE TIMESTAMP PUSH1 0x40 DUP3 ADD MSTORE PUSH1 0x1 PUSH1 0x60 DUP3 ADD MSTORE CALLER PUSH1 0x0 MSTORE PUSH1 0xB PUSH1 0x20 MSTORE PUSH1 0x40 PUSH1 0x0 KECCAK256 PUSH2 0x29EE JUMP JUMPDEST PUSH1 0x0 DUP1 PUSH1 0xD SLOAD SWAP1 JUMPDEST DUP2 DUP2 LT PUSH2 0x162F JUMPI JUMPDEST POP POP ISZERO PUSH2 0x15ED JUMPI JUMPDEST PUSH32 0xE4D6C018ABD0178D4BCE0856089EF1876318617B97A1D700BB98506598AB0AFC PUSH1 0x40 MLOAD DUP1 PUSH2 0xEA6 CALLER SWAP5 TIMESTAMP SWAP1 DUP4 PUSH2 0x2B71 JUMP JUMPDEST PUSH1 0xD SLOAD PUSH1 0x1 PUSH1 0x40 SHL DUP2 LT ISZERO PUSH2 0x4D8 JUMPI DUP1 PUSH1 0x1 PUSH2 0x160E SWAP3 ADD PUSH1 0xD SSTORE PUSH1 0xD PUSH2 0x23CA JUMP JUMPDEST DUP2 SLOAD PUSH1 0x1 PUSH1 0x1 PUSH1 0xA0 SHL SUB PUSH1 0x3 SWAP3 SWAP1 SWAP3 SHL SWAP2 DUP3 SHL NOT AND CALLER SWAP1 SWAP2 SHL OR SWAP1 SSTORE PUSH2 0x15BB JUMP JUMPDEST PUSH2 0x1638 DUP2 PUSH2 0x2394 JUMP JUMPDEST SWAP1 SLOAD PUSH1 0x3 SWAP2 SWAP1 SWAP2 SHL SHR PUSH1 0x1 PUSH1 0x1 PUSH1 0xA0 SHL SUB AND CALLER EQ PUSH2 0x1658 JUMPI PUSH1 0x1 ADD PUSH2 0x15AB JUMP JUMPDEST POP POP POP PUSH1 0x1 DUP3 DUP1 PUSH2 0x15B3 JUMP JUMPDEST PUSH1 0x40 MLOAD PUSH3 0x461BCD PUSH1 0xE5 SHL DUP2 MSTORE PUSH1 0x20 PUSH1 0x4 DUP3 ADD MSTORE PUSH1 0xE PUSH1 0x24 DUP3 ADD MSTORE PUSH14 0x5265717565737420657869737473 PUSH1 0x90 SHL PUSH1 0x44 DUP3 ADD MSTORE PUSH1 0x64 SWAP1 REVERT JUMPDEST PUSH1 0x40 MLOAD PUSH3 0x461BCD PUSH1 0xE5 SHL DUP2 MSTORE PUSH1 0x20 PUSH1 0x4 DUP3 ADD MSTORE PUSH1 0x13 PUSH1 0x24 DUP3 ADD MSTORE PUSH19 0x21B932B0BA37B91031B0B73737BA103537B4B7 PUSH1 0x69 SHL PUSH1 0x44 DUP3 ADD MSTORE PUSH1 0x64 SWAP1 REVERT JUMPDEST CALLVALUE PUSH2 0x2AD JUMPI PUSH1 0x0 CALLDATASIZE PUSH1 0x3 NOT ADD SLT PUSH2 0x2AD JUMPI PUSH2 0x16F7 PUSH1 0xFF PUSH1 0x0 SLOAD PUSH1 0xA0 SHR AND PUSH2 0x277A JUMP JUMPDEST CALLER PUSH1 0x0 MSTORE PUSH1 0xC PUSH1 0x20 MSTORE PUSH2 0x1714 PUSH1 0xFF PUSH1 0x3 PUSH1 0x40 PUSH1 0x0 KECCAK256 ADD SLOAD AND PUSH2 0x28B7 JUMP JUMPDEST CALLER PUSH1 0x0 MSTORE PUSH1 0x10 PUSH1 0x20 MSTORE PUSH2 0x172E PUSH2 0x409 PUSH1 0x40 PUSH1 0x0 KECCAK256 SLOAD PUSH2 0x23E2 JUMP JUMPDEST CALLER PUSH1 0x0 MSTORE PUSH1 0xC PUSH1 0x20 MSTORE PUSH2 0x1750 PUSH2 0x174A PUSH1 0x1 PUSH1 0x40 PUSH1 0x0 KECCAK256 ADD PUSH2 0x2664 JUMP JUMPDEST CALLER PUSH2 0x2C0C JUMP JUMPDEST CALLER PUSH1 0x0 MSTORE PUSH1 0xC PUSH1 0x20 MSTORE PUSH2 0x1766 PUSH1 0x40 PUSH1 0x0 KECCAK256 PUSH2 0x28F9 JUMP JUMPDEST PUSH1 0x40 MLOAD TIMESTAMP DUP2 MSTORE ADDRESS SWAP1 PUSH32 0x7B7404D30440087C51E068AAC60D434F5A3A121313C035893FDF187C11D077B6 PUSH1 0x20 CALLER SWAP3 LOG3 STOP JUMPDEST CALLVALUE PUSH2 0x2AD JUMPI PUSH1 0x0 CALLDATASIZE PUSH1 0x3 NOT ADD SLT PUSH2 0x2AD JUMPI PUSH2 0x663 PUSH2 0xCC4 PUSH2 0x24C3 JUMP JUMPDEST CALLVALUE PUSH2 0x2AD JUMPI PUSH1 0x20 CALLDATASIZE PUSH1 0x3 NOT ADD SLT PUSH2 0x2AD JUMPI PUSH1 0x4 CALLDATALOAD PUSH1 0xD SLOAD DUP2 LT ISZERO PUSH2 0x2AD JUMPI PUSH2 0xFBE PUSH1 0x20 SWAP2 PUSH2 0x2394 JUMP JUMPDEST CALLVALUE PUSH2 0x2AD JUMPI PUSH1 0x0 CALLDATASIZE PUSH1 0x3 NOT ADD SLT PUSH2 0x2AD JUMPI PUSH1 0x40 PUSH1 0x1 SLOAD PUSH1 0x2 SLOAD DUP3 MLOAD SWAP2 DUP3 MSTORE PUSH1 0x20 DUP3 ADD MSTORE RETURN JUMPDEST CALLVALUE PUSH2 0x2AD JUMPI PUSH1 0x0 CALLDATASIZE PUSH1 0x3 NOT ADD SLT PUSH2 0x2AD JUMPI PUSH1 0x8 SLOAD PUSH1 0x40 MLOAD PUSH1 0x1 PUSH1 0x1 PUSH1 0xA0 SHL SUB SWAP1 SWAP2 AND DUP2 MSTORE PUSH1 0x20 SWAP1 RETURN JUMPDEST CALLVALUE PUSH2 0x2AD JUMPI PUSH1 0x20 CALLDATASIZE PUSH1 0x3 NOT ADD SLT PUSH2 0x2AD JUMPI PUSH1 0x1 PUSH1 0x1 PUSH1 0xA0 SHL SUB PUSH2 0x184A PUSH2 0x21CB JUMP JUMPDEST AND PUSH1 0x0 SWAP1 DUP2 MSTORE PUSH1 0xC PUSH1 0x20 MSTORE PUSH1 0x40 SWAP1 KECCAK256 DUP1 SLOAD PUSH1 0x1 PUSH1 0x1 PUSH1 0xA0 SHL SUB AND PUSH2 0x663 PUSH2 0x648 PUSH1 0x1 DUP5 ADD PUSH2 0x2664 JUMP JUMPDEST CALLVALUE PUSH2 0x2AD JUMPI PUSH1 0x20 CALLDATASIZE PUSH1 0x3 NOT ADD SLT PUSH2 0x2AD JUMPI PUSH2 0x188C PUSH2 0x21CB JUMP JUMPDEST PUSH1 0x0 SLOAD PUSH1 0x1 PUSH1 0x1 PUSH1 0xA0 SHL SUB AND CALLER EQ DUP1 ISZERO PUSH2 0x195E JUMPI JUMPDEST PUSH2 0x18AA SWAP1 PUSH2 0x2965 JUMP JUMPDEST PUSH1 0x1 PUSH1 0x1 PUSH1 0xA0 SHL SUB AND DUP1 ISZERO PUSH2 0x191A JUMPI PUSH1 0x13 SLOAD PUSH1 0x1 PUSH1 0x1 PUSH1 0xA0 SHL SUB DUP2 AND PUSH2 0x18DA JUMPI PUSH1 0x1 PUSH1 0x1 PUSH1 0xA0 SHL SUB NOT AND OR PUSH1 0x13 SSTORE STOP JUMPDEST PUSH1 0x40 MLOAD PUSH3 0x461BCD PUSH1 0xE5 SHL DUP2 MSTORE PUSH1 0x20 PUSH1 0x4 DUP3 ADD MSTORE PUSH1 0x18 PUSH1 0x24 DUP3 ADD MSTORE PUSH24 0x105308195E1D195B9CDA5BDB88185B1C9958591E481CD95D PUSH1 0x42 SHL PUSH1 0x44 DUP3 ADD MSTORE PUSH1 0x64 SWAP1 REVERT JUMPDEST PUSH1 0x40 MLOAD PUSH3 0x461BCD PUSH1 0xE5 SHL DUP2 MSTORE PUSH1 0x20 PUSH1 0x4 DUP3 ADD MSTORE PUSH1 0x1C PUSH1 0x24 DUP3 ADD MSTORE PUSH28 0x496E76616C696420414C20657874656E73696F6E2061646472657373 PUSH1 0x20 SHL PUSH1 0x44 DUP3 ADD MSTORE PUSH1 0x64 SWAP1 REVERT JUMPDEST POP CALLER PUSH1 0x0 SWAP1 DUP2 MSTORE PUSH1 0x14 PUSH1 0x20 MSTORE PUSH1 0x40 SWAP1 KECCAK256 SLOAD PUSH1 0xFF AND PUSH2 0x18A1 JUMP JUMPDEST CALLVALUE PUSH2 0x2AD JUMPI PUSH1 0x0 CALLDATASIZE PUSH1 0x3 NOT ADD SLT PUSH2 0x2AD JUMPI PUSH1 0x7 SLOAD PUSH1 0x40 MLOAD PUSH1 0x1 PUSH1 0x1 PUSH1 0xA0 SHL SUB SWAP1 SWAP2 AND DUP2 MSTORE PUSH1 0x20 SWAP1 RETURN JUMPDEST CALLVALUE PUSH2 0x2AD JUMPI PUSH1 0x20 CALLDATASIZE PUSH1 0x3 NOT ADD SLT PUSH2 0x2AD JUMPI PUSH1 0x1 PUSH1 0x1 PUSH1 0xA0 SHL SUB PUSH2 0x19C1 PUSH2 0x21CB JUMP JUMPDEST AND PUSH1 0x0 MSTORE PUSH1 0x14 PUSH1 0x20 MSTORE PUSH1 0x20 PUSH1 0xFF PUSH1 0x40 PUSH1 0x0 KECCAK256 SLOAD AND PUSH1 0x40 MLOAD SWAP1 ISZERO ISZERO DUP2 MSTORE RETURN JUMPDEST CALLVALUE PUSH2 0x2AD JUMPI PUSH1 0x0 CALLDATASIZE PUSH1 0x3 NOT ADD SLT PUSH2 0x2AD JUMPI PUSH2 0x663 PUSH2 0xCC4 PUSH2 0x241C JUMP JUMPDEST CALLVALUE PUSH2 0x2AD JUMPI PUSH1 0x20 CALLDATASIZE PUSH1 0x3 NOT ADD SLT PUSH2 0x2AD JUMPI PUSH1 0x1 PUSH1 0x1 PUSH1 0xA0 SHL SUB PUSH2 0x1A1C PUSH2 0x21CB JUMP JUMPDEST AND PUSH1 0x0 MSTORE PUSH1 0xB PUSH1 0x20 MSTORE PUSH2 0x1A32 PUSH1 0x40 PUSH1 0x0 KECCAK256 PUSH2 0x2871 JUMP JUMPDEST PUSH1 0x1 DUP1 PUSH1 0xA0 SHL SUB DUP2 MLOAD AND PUSH2 0x663 PUSH1 0x20 DUP4 ADD MLOAD SWAP3 PUSH1 0x60 PUSH1 0x40 DUP3 ADD MLOAD SWAP2 ADD MLOAD ISZERO ISZERO SWAP1 PUSH1 0x40 MLOAD SWAP5 DUP6 SWAP5 DUP6 PUSH2 0x2330 JUMP JUMPDEST CALLVALUE PUSH2 0x2AD JUMPI PUSH1 0x20 CALLDATASIZE PUSH1 0x3 NOT ADD SLT PUSH2 0x2AD JUMPI PUSH1 0x4 CALLDATALOAD PUSH1 0xF SLOAD DUP2 LT ISZERO PUSH2 0x2AD JUMPI PUSH2 0xFBE PUSH1 0x20 SWAP2 PUSH2 0x2363 JUMP JUMPDEST CALLVALUE PUSH2 0x2AD JUMPI PUSH1 0x0 CALLDATASIZE PUSH1 0x3 NOT ADD SLT PUSH2 0x2AD JUMPI CALLER PUSH1 0x0 MSTORE PUSH1 0xC PUSH1 0x20 MSTORE PUSH2 0x1AB5 PUSH1 0xFF PUSH1 0x3 PUSH1 0x40 PUSH1 0x0 KECCAK256 ADD SLOAD AND PUSH2 0x28B7 JUMP JUMPDEST CALLER PUSH1 0x0 MSTORE PUSH1 0xC PUSH1 0x20 MSTORE PUSH2 0x1ACB PUSH1 0x40 PUSH1 0x0 KECCAK256 PUSH2 0x28F9 JUMP JUMPDEST PUSH1 0x40 MLOAD TIMESTAMP DUP2 MSTORE ADDRESS SWAP1 PUSH32 0xF7BCBAA371C3A472D8F63F253317D896D63BF307F5E8E913F8EEB9351BC0D4C6 PUSH1 0x20 CALLER SWAP3 LOG3 STOP JUMPDEST CALLVALUE PUSH2 0x2AD JUMPI PUSH1 0x0 CALLDATASIZE PUSH1 0x3 NOT ADD SLT PUSH2 0x2AD JUMPI PUSH1 0x20 PUSH1 0xA SLOAD PUSH1 0x40 MLOAD SWAP1 DUP2 MSTORE RETURN JUMPDEST CALLVALUE PUSH2 0x2AD JUMPI PUSH1 0x20 CALLDATASIZE PUSH1 0x3 NOT ADD SLT PUSH2 0x2AD JUMPI PUSH1 0x1 PUSH1 0x1 PUSH1 0xA0 SHL SUB PUSH2 0x1B3A PUSH2 0x21CB JUMP JUMPDEST AND PUSH1 0x0 MSTORE PUSH1 0xC PUSH1 0x20 MSTORE PUSH2 0x1A32 PUSH1 0x40 PUSH1 0x0 KECCAK256 PUSH2 0x2871 JUMP JUMPDEST CALLVALUE PUSH2 0x2AD JUMPI PUSH1 0x0 CALLDATASIZE PUSH1 0x3 NOT ADD SLT PUSH2 0x2AD JUMPI PUSH1 0x0 SLOAD PUSH1 0x7 SLOAD PUSH1 0x9 SLOAD PUSH1 0xA SLOAD PUSH2 0x1BB3 SWAP4 PUSH1 0x1 PUSH1 0x1 PUSH1 0xA0 SHL SUB SWAP1 DUP2 AND SWAP4 AND SWAP2 PUSH2 0x1BD4 PUSH2 0x1B8A PUSH2 0x241C JUMP JUMPDEST SWAP5 PUSH2 0x1B93 PUSH2 0x24C3 JUMP JUMPDEST PUSH2 0x1BC1 PUSH2 0x1B9E PUSH2 0x255A JUMP JUMPDEST SWAP2 PUSH1 0x40 MLOAD SWAP10 DUP11 SWAP10 PUSH1 0xE0 DUP12 MSTORE PUSH1 0xE0 DUP12 ADD SWAP1 PUSH2 0x22BB JUMP JUMPDEST SWAP1 DUP10 DUP3 SUB PUSH1 0x20 DUP12 ADD MSTORE PUSH2 0x22BB JUMP JUMPDEST SWAP2 PUSH1 0x40 DUP9 ADD MSTORE DUP7 DUP3 SUB PUSH1 0x60 DUP9 ADD MSTORE PUSH2 0x22BB JUMP JUMPDEST SWAP3 PUSH1 0x80 DUP6 ADD MSTORE PUSH1 0xA0 DUP5 ADD MSTORE PUSH1 0xC0 DUP4 ADD MSTORE SUB SWAP1 RETURN JUMPDEST CALLVALUE PUSH2 0x2AD JUMPI PUSH1 0x0 CALLDATASIZE PUSH1 0x3 NOT ADD SLT PUSH2 0x2AD JUMPI PUSH1 0xF SLOAD PUSH2 0x1C05 DUP2 PUSH2 0x2814 JUMP JUMPDEST PUSH2 0x1C12 PUSH1 0x40 MLOAD SWAP2 DUP3 PUSH2 0x21FC JUMP JUMPDEST DUP2 DUP2 MSTORE PUSH2 0x1C1E DUP3 PUSH2 0x2814 JUMP JUMPDEST PUSH1 0x20 DUP3 ADD SWAP3 SWAP1 PUSH1 0x1F NOT ADD CALLDATASIZE DUP5 CALLDATACOPY PUSH2 0x1C34 DUP2 PUSH2 0x2814 JUMP JUMPDEST PUSH2 0x1C41 PUSH1 0x40 MLOAD SWAP2 DUP3 PUSH2 0x21FC JUMP JUMPDEST DUP2 DUP2 MSTORE PUSH1 0x1F NOT PUSH2 0x1C50 DUP4 PUSH2 0x2814 JUMP JUMPDEST ADD PUSH1 0x0 JUMPDEST DUP2 DUP2 LT PUSH2 0x1DE0 JUMPI POP POP PUSH2 0x1C66 DUP3 PUSH2 0x282B JUMP JUMPDEST PUSH2 0x1C6F DUP4 PUSH2 0x282B JUMP JUMPDEST SWAP3 PUSH1 0x0 JUMPDEST DUP2 DUP2 LT PUSH2 0x1D49 JUMPI POP POP PUSH1 0x40 MLOAD SWAP5 DUP6 SWAP5 PUSH1 0x80 DUP7 ADD SWAP1 PUSH1 0x80 DUP8 MSTORE MLOAD DUP1 SWAP2 MSTORE PUSH1 0xA0 DUP7 ADD SWAP2 SWAP1 PUSH1 0x0 JUMPDEST DUP2 DUP2 LT PUSH2 0x1D27 JUMPI POP POP POP DUP5 DUP2 SUB PUSH1 0x20 DUP7 ADD MSTORE DUP3 MLOAD DUP1 DUP3 MSTORE PUSH1 0x20 DUP3 ADD SWAP2 PUSH1 0x20 DUP1 DUP4 PUSH1 0x5 SHL DUP4 ADD ADD SWAP6 ADD SWAP3 PUSH1 0x0 SWAP2 JUMPDEST DUP4 DUP4 LT PUSH2 0x1CF2 JUMPI DUP9 DUP1 PUSH2 0x663 DUP11 PUSH2 0x1CE4 DUP12 DUP12 DUP6 DUP3 SUB PUSH1 0x40 DUP8 ADD MSTORE PUSH2 0x22FC JUMP JUMPDEST SWAP1 DUP4 DUP3 SUB PUSH1 0x60 DUP6 ADD MSTORE PUSH2 0x22FC JUMP JUMPDEST SWAP2 SWAP4 SWAP7 SWAP8 POP SWAP2 SWAP4 SWAP5 PUSH1 0x20 DUP1 PUSH2 0x1D13 PUSH1 0x1 SWAP4 PUSH1 0x1F NOT DUP7 DUP3 SUB ADD DUP8 MSTORE DUP11 MLOAD PUSH2 0x22BB JUMP JUMPDEST SWAP9 ADD SWAP4 ADD SWAP4 ADD SWAP1 SWAP3 DUP9 SWAP8 SWAP7 SWAP6 SWAP5 SWAP3 SWAP4 PUSH2 0x1CC5 JUMP JUMPDEST DUP3 MLOAD PUSH1 0x1 PUSH1 0x1 PUSH1 0xA0 SHL SUB AND DUP5 MSTORE DUP9 SWAP8 POP PUSH1 0x20 SWAP4 DUP5 ADD SWAP4 SWAP1 SWAP3 ADD SWAP2 PUSH1 0x1 ADD PUSH2 0x1C98 JUMP JUMPDEST DUP1 PUSH2 0x1D5B PUSH1 0x1 SWAP3 SWAP9 SWAP5 SWAP6 SWAP7 SWAP8 SWAP9 PUSH2 0x2363 JUMP JUMPDEST DUP4 DUP1 PUSH1 0xA0 SHL SUB SWAP2 SLOAD SWAP1 PUSH1 0x3 SHL SHR AND DUP1 PUSH2 0x1D74 DUP4 DUP12 PUSH2 0x285D JUMP JUMPDEST MSTORE DUP1 PUSH1 0x0 MSTORE PUSH1 0x10 PUSH1 0x20 MSTORE PUSH2 0x1D8B PUSH1 0x40 PUSH1 0x0 KECCAK256 PUSH2 0x2664 JUMP JUMPDEST PUSH2 0x1D95 DUP4 DUP10 PUSH2 0x285D JUMP JUMPDEST MSTORE PUSH2 0x1DA0 DUP3 DUP9 PUSH2 0x285D JUMP JUMPDEST POP DUP1 PUSH1 0x0 MSTORE PUSH1 0x11 PUSH1 0x20 MSTORE PUSH1 0x40 PUSH1 0x0 KECCAK256 SLOAD PUSH2 0x1DBA DUP4 DUP9 PUSH2 0x285D JUMP JUMPDEST MSTORE PUSH1 0x0 MSTORE PUSH1 0x12 PUSH1 0x20 MSTORE PUSH1 0x40 PUSH1 0x0 KECCAK256 SLOAD PUSH2 0x1DD3 DUP3 DUP10 PUSH2 0x285D JUMP JUMPDEST MSTORE ADD SWAP6 SWAP5 SWAP4 SWAP3 SWAP2 SWAP6 PUSH2 0x1C73 JUMP JUMPDEST PUSH1 0x60 PUSH1 0x20 DUP3 DUP6 ADD DUP2 ADD SWAP2 SWAP1 SWAP2 MSTORE ADD PUSH2 0x1C54 JUMP JUMPDEST CALLVALUE PUSH2 0x2AD JUMPI PUSH1 0x20 CALLDATASIZE PUSH1 0x3 NOT ADD SLT PUSH2 0x2AD JUMPI PUSH1 0x4 CALLDATALOAD PUSH1 0x1 PUSH1 0x1 PUSH1 0x40 SHL SUB DUP2 GT PUSH2 0x2AD JUMPI PUSH2 0x1E23 SWAP1 CALLDATASIZE SWAP1 PUSH1 0x4 ADD PUSH2 0x221F JUMP JUMPDEST PUSH1 0x0 SLOAD PUSH2 0x1E41 SWAP1 PUSH1 0xFF SWAP1 PUSH2 0x3AB CALLER PUSH1 0x1 PUSH1 0x1 PUSH1 0xA0 SHL SUB DUP4 AND EQ PUSH2 0x2706 JUMP JUMPDEST PUSH2 0x1E4D DUP2 MLOAD ISZERO ISZERO PUSH2 0x27B1 JUMP JUMPDEST DUP1 MLOAD PUSH1 0x1 PUSH1 0x1 PUSH1 0x40 SHL SUB DUP2 GT PUSH2 0x4D8 JUMPI PUSH2 0x1E68 PUSH1 0x3 SLOAD PUSH2 0x23E2 JUMP JUMPDEST PUSH1 0x1F DUP2 GT PUSH2 0x1EDD JUMPI JUMPDEST POP PUSH1 0x20 SWAP2 PUSH1 0x1F DUP3 GT PUSH1 0x1 EQ PUSH2 0x1E93 JUMPI PUSH2 0xADD SWAP3 PUSH1 0x0 SWAP2 DUP4 PUSH2 0xB01 JUMPI POP POP PUSH2 0x2801 JUMP JUMPDEST PUSH1 0x1F NOT DUP3 AND SWAP3 PUSH1 0x3 PUSH1 0x0 MSTORE DUP1 PUSH1 0x0 KECCAK256 SWAP2 PUSH1 0x0 JUMPDEST DUP6 DUP2 LT PUSH2 0x1EC5 JUMPI POP DUP4 PUSH1 0x1 SWAP6 LT PUSH2 0xB3F JUMPI POP POP POP DUP2 SHL ADD PUSH1 0x3 SSTORE PUSH2 0xAE1 JUMP JUMPDEST SWAP2 SWAP3 PUSH1 0x20 PUSH1 0x1 DUP2 SWAP3 DUP7 DUP6 ADD MLOAD DUP2 SSTORE ADD SWAP5 ADD SWAP3 ADD PUSH2 0x1EA6 JUMP JUMPDEST PUSH1 0x3 PUSH1 0x0 MSTORE PUSH2 0x1F14 SWAP1 PUSH1 0x0 DUP1 MLOAD PUSH1 0x20 PUSH2 0x2D9E DUP4 CODECOPY DUP2 MLOAD SWAP2 MSTORE PUSH1 0x1F DUP5 ADD PUSH1 0x5 SHR DUP2 ADD SWAP2 PUSH1 0x20 DUP6 LT PUSH2 0xBAE JUMPI PUSH1 0x1F ADD PUSH1 0x5 SHR ADD SWAP1 PUSH2 0x27EA JUMP JUMPDEST DUP3 PUSH2 0x1E71 JUMP JUMPDEST CALLVALUE PUSH2 0x2AD JUMPI PUSH1 0x0 CALLDATASIZE PUSH1 0x3 NOT ADD SLT PUSH2 0x2AD JUMPI PUSH1 0x0 SLOAD PUSH1 0x40 MLOAD PUSH1 0x1 PUSH1 0x1 PUSH1 0xA0 SHL SUB SWAP1 SWAP2 AND DUP2 MSTORE PUSH1 0x20 SWAP1 RETURN JUMPDEST CALLVALUE PUSH2 0x2AD JUMPI PUSH1 0x20 CALLDATASIZE PUSH1 0x3 NOT ADD SLT PUSH2 0x2AD JUMPI PUSH2 0x1F5C PUSH2 0x21CB JUMP JUMPDEST PUSH2 0x1F71 PUSH1 0x1 DUP1 PUSH1 0xA0 SHL SUB PUSH1 0x0 SLOAD AND CALLER EQ PUSH2 0x2706 JUMP JUMPDEST PUSH1 0x1 PUSH1 0x1 PUSH1 0xA0 SHL SUB AND DUP1 ISZERO PUSH2 0x1FC2 JUMPI DUP1 PUSH1 0x0 MSTORE PUSH1 0x14 PUSH1 0x20 MSTORE PUSH1 0x40 PUSH1 0x0 KECCAK256 PUSH1 0x1 PUSH1 0xFF NOT DUP3 SLOAD AND OR SWAP1 SSTORE CALLER SWAP1 PUSH32 0xD2AF95CBCF620B475562306681071ABD2F34D06FC92E808CD2F0B01388048A9B PUSH1 0x0 DUP1 LOG3 STOP JUMPDEST PUSH1 0x40 MLOAD PUSH3 0x461BCD PUSH1 0xE5 SHL DUP2 MSTORE PUSH1 0x20 PUSH1 0x4 DUP3 ADD MSTORE PUSH1 0x18 PUSH1 0x24 DUP3 ADD MSTORE PUSH24 0x496E76616C69642064656C65676174652061646472657373 PUSH1 0x40 SHL PUSH1 0x44 DUP3 ADD MSTORE PUSH1 0x64 SWAP1 REVERT JUMPDEST CALLVALUE PUSH2 0x2AD JUMPI PUSH2 0x2010 CALLDATASIZE PUSH2 0x2275 JUMP JUMPDEST PUSH2 0x2028 PUSH1 0x1 DUP1 PUSH1 0xA0 SWAP6 SWAP5 SWAP6 SHL SUB PUSH1 0x0 SLOAD AND CALLER EQ PUSH2 0x2706 JUMP JUMPDEST PUSH2 0x2034 DUP4 MLOAD ISZERO ISZERO PUSH2 0x2741 JUMP JUMPDEST PUSH2 0x206B PUSH1 0x1 DUP1 PUSH1 0xA0 SHL SUB DUP4 AND SWAP3 DUP4 PUSH1 0x0 MSTORE PUSH1 0x10 PUSH1 0x20 MSTORE PUSH2 0x205B PUSH2 0x409 PUSH1 0x40 PUSH1 0x0 KECCAK256 SLOAD PUSH2 0x23E2 JUMP JUMPDEST PUSH2 0x2066 DUP4 ISZERO ISZERO PUSH2 0x2BC6 JUMP JUMPDEST PUSH2 0x2B2C JUMP JUMPDEST PUSH1 0x0 DUP3 DUP2 MSTORE PUSH1 0x10 PUSH1 0x20 MSTORE PUSH1 0x40 SWAP1 KECCAK256 DUP4 MLOAD SWAP4 SWAP1 PUSH1 0x1 PUSH1 0x1 PUSH1 0x40 SHL SUB DUP6 GT PUSH2 0x4D8 JUMPI PUSH2 0x2095 DUP2 SLOAD PUSH2 0x23E2 JUMP JUMPDEST PUSH1 0x1F DUP2 GT PUSH2 0x2175 JUMPI JUMPDEST POP PUSH1 0x20 PUSH1 0x1F DUP7 GT PUSH1 0x1 EQ PUSH2 0x2101 JUMPI DUP6 PUSH1 0x0 DUP1 MLOAD PUSH1 0x20 PUSH2 0x2E1E DUP4 CODECOPY DUP2 MLOAD SWAP2 MSTORE SWAP6 SWAP7 PUSH2 0x20CF SWAP3 PUSH1 0x0 SWAP2 PUSH2 0xEAB JUMPI POP PUSH2 0x2801 JUMP JUMPDEST SWAP1 SSTORE JUMPDEST DUP4 PUSH1 0x0 MSTORE PUSH1 0x11 PUSH1 0x20 MSTORE DUP2 PUSH1 0x40 PUSH1 0x0 KECCAK256 SSTORE DUP4 PUSH1 0x0 MSTORE PUSH1 0x12 PUSH1 0x20 MSTORE TIMESTAMP PUSH1 0x40 PUSH1 0x0 KECCAK256 SSTORE PUSH2 0xEA6 PUSH1 0x40 MLOAD SWAP3 DUP4 SWAP3 DUP4 PUSH2 0x2B71 JUMP JUMPDEST PUSH1 0x1F NOT DUP7 AND SWAP1 DUP3 PUSH1 0x0 MSTORE DUP1 PUSH1 0x0 KECCAK256 SWAP2 PUSH1 0x0 JUMPDEST DUP2 DUP2 LT PUSH2 0x215D JUMPI POP SWAP2 DUP8 SWAP2 PUSH1 0x0 DUP1 MLOAD PUSH1 0x20 PUSH2 0x2E1E DUP4 CODECOPY DUP2 MLOAD SWAP2 MSTORE SWAP8 SWAP9 PUSH1 0x1 SWAP5 LT PUSH2 0x2144 JUMPI JUMPDEST POP POP DUP2 SHL ADD SWAP1 SSTORE PUSH2 0x20D2 JUMP JUMPDEST DUP6 ADD MLOAD PUSH1 0x0 NOT PUSH1 0xF8 DUP5 PUSH1 0x3 SHL AND SHR NOT AND SWAP1 SSTORE DUP8 DUP1 PUSH2 0x2138 JUMP JUMPDEST SWAP2 SWAP3 PUSH1 0x20 PUSH1 0x1 DUP2 SWAP3 DUP7 DUP10 ADD MLOAD DUP2 SSTORE ADD SWAP5 ADD SWAP3 ADD PUSH2 0x2113 JUMP JUMPDEST PUSH2 0x21A1 SWAP1 DUP3 PUSH1 0x0 MSTORE PUSH1 0x20 PUSH1 0x0 KECCAK256 PUSH1 0x1F DUP9 ADD PUSH1 0x5 SHR DUP2 ADD SWAP2 PUSH1 0x20 DUP10 LT PUSH2 0xBAE JUMPI PUSH1 0x1F ADD PUSH1 0x5 SHR ADD SWAP1 PUSH2 0x27EA JUMP JUMPDEST DUP6 PUSH2 0x209E JUMP JUMPDEST CALLVALUE PUSH2 0x2AD JUMPI PUSH1 0x0 CALLDATASIZE PUSH1 0x3 NOT ADD SLT PUSH2 0x2AD JUMPI PUSH1 0x0 SLOAD PUSH1 0x1 PUSH1 0x1 PUSH1 0xA0 SHL SUB AND DUP2 MSTORE PUSH1 0x20 SWAP1 RETURN JUMPDEST PUSH1 0x4 CALLDATALOAD SWAP1 PUSH1 0x1 PUSH1 0x1 PUSH1 0xA0 SHL SUB DUP3 AND DUP3 SUB PUSH2 0x2AD JUMPI JUMP JUMPDEST PUSH1 0x80 DUP2 ADD SWAP1 DUP2 LT PUSH1 0x1 PUSH1 0x1 PUSH1 0x40 SHL SUB DUP3 GT OR PUSH2 0x4D8 JUMPI PUSH1 0x40 MSTORE JUMP JUMPDEST PUSH1 0x1F SWAP1 SWAP2 ADD PUSH1 0x1F NOT AND DUP2 ADD SWAP1 PUSH1 0x1 PUSH1 0x1 PUSH1 0x40 SHL SUB DUP3 GT SWAP1 DUP3 LT OR PUSH2 0x4D8 JUMPI PUSH1 0x40 MSTORE JUMP JUMPDEST DUP2 PUSH1 0x1F DUP3 ADD SLT ISZERO PUSH2 0x2AD JUMPI DUP1 CALLDATALOAD SWAP1 PUSH1 0x1 PUSH1 0x1 PUSH1 0x40 SHL SUB DUP3 GT PUSH2 0x4D8 JUMPI PUSH1 0x40 MLOAD SWAP3 PUSH2 0x2253 PUSH1 0x1F DUP5 ADD PUSH1 0x1F NOT AND PUSH1 0x20 ADD DUP6 PUSH2 0x21FC JUMP JUMPDEST DUP3 DUP5 MSTORE PUSH1 0x20 DUP4 DUP4 ADD ADD GT PUSH2 0x2AD JUMPI DUP2 PUSH1 0x0 SWAP3 PUSH1 0x20 DUP1 SWAP4 ADD DUP4 DUP7 ADD CALLDATACOPY DUP4 ADD ADD MSTORE SWAP1 JUMP JUMPDEST SWAP1 PUSH1 0x60 PUSH1 0x3 NOT DUP4 ADD SLT PUSH2 0x2AD JUMPI PUSH1 0x4 CALLDATALOAD PUSH1 0x1 PUSH1 0x1 PUSH1 0xA0 SHL SUB DUP2 AND DUP2 SUB PUSH2 0x2AD JUMPI SWAP2 PUSH1 0x24 CALLDATALOAD SWAP1 PUSH1 0x1 PUSH1 0x1 PUSH1 0x40 SHL SUB DUP3 GT PUSH2 0x2AD JUMPI PUSH2 0x22B4 SWAP2 PUSH1 0x4 ADD PUSH2 0x221F JUMP JUMPDEST SWAP1 PUSH1 0x44 CALLDATALOAD SWAP1 JUMP JUMPDEST SWAP2 SWAP1 DUP3 MLOAD SWAP3 DUP4 DUP3 MSTORE PUSH1 0x0 JUMPDEST DUP5 DUP2 LT PUSH2 0x22E7 JUMPI POP POP DUP3 PUSH1 0x0 PUSH1 0x20 DUP1 SWAP5 SWAP6 DUP5 ADD ADD MSTORE PUSH1 0x1F DUP1 NOT SWAP2 ADD AND ADD ADD SWAP1 JUMP JUMPDEST DUP1 PUSH1 0x20 DUP1 SWAP3 DUP5 ADD ADD MLOAD DUP3 DUP3 DUP7 ADD ADD MSTORE ADD PUSH2 0x22C6 JUMP JUMPDEST SWAP1 PUSH1 0x20 DUP1 DUP4 MLOAD SWAP3 DUP4 DUP2 MSTORE ADD SWAP3 ADD SWAP1 PUSH1 0x0 JUMPDEST DUP2 DUP2 LT PUSH2 0x231A JUMPI POP POP POP SWAP1 JUMP JUMPDEST DUP3 MLOAD DUP5 MSTORE PUSH1 0x20 SWAP4 DUP5 ADD SWAP4 SWAP1 SWAP3 ADD SWAP2 PUSH1 0x1 ADD PUSH2 0x230D JUMP JUMPDEST SWAP3 SWAP5 SWAP4 SWAP1 PUSH1 0x60 SWAP3 PUSH2 0x2356 SWAP2 PUSH1 0x1 DUP1 PUSH1 0xA0 SHL SUB AND DUP6 MSTORE PUSH1 0x80 PUSH1 0x20 DUP7 ADD MSTORE PUSH1 0x80 DUP6 ADD SWAP1 PUSH2 0x22BB JUMP JUMPDEST SWAP5 PUSH1 0x40 DUP5 ADD MSTORE ISZERO ISZERO SWAP2 ADD MSTORE JUMP JUMPDEST PUSH1 0xF SLOAD DUP2 LT ISZERO PUSH2 0x237E JUMPI PUSH1 0xF PUSH1 0x0 MSTORE PUSH1 0x20 PUSH1 0x0 KECCAK256 ADD SWAP1 PUSH1 0x0 SWAP1 JUMP JUMPDEST PUSH4 0x4E487B71 PUSH1 0xE0 SHL PUSH1 0x0 MSTORE PUSH1 0x32 PUSH1 0x4 MSTORE PUSH1 0x24 PUSH1 0x0 REVERT JUMPDEST PUSH1 0xD SLOAD DUP2 LT ISZERO PUSH2 0x237E JUMPI PUSH1 0xD PUSH1 0x0 MSTORE PUSH1 0x20 PUSH1 0x0 KECCAK256 ADD SWAP1 PUSH1 0x0 SWAP1 JUMP JUMPDEST PUSH1 0xE SLOAD DUP2 LT ISZERO PUSH2 0x237E JUMPI PUSH1 0xE PUSH1 0x0 MSTORE PUSH1 0x20 PUSH1 0x0 KECCAK256 ADD SWAP1 PUSH1 0x0 SWAP1 JUMP JUMPDEST DUP1 SLOAD DUP3 LT ISZERO PUSH2 0x237E JUMPI PUSH1 0x0 MSTORE PUSH1 0x20 PUSH1 0x0 KECCAK256 ADD SWAP1 PUSH1 0x0 SWAP1 JUMP JUMPDEST SWAP1 PUSH1 0x1 DUP3 DUP2 SHR SWAP3 AND DUP1 ISZERO PUSH2 0x2412 JUMPI JUMPDEST PUSH1 0x20 DUP4 LT EQ PUSH2 0x23FC JUMPI JUMP JUMPDEST PUSH4 0x4E487B71 PUSH1 0xE0 SHL PUSH1 0x0 MSTORE PUSH1 0x22 PUSH1 0x4 MSTORE PUSH1 0x24 PUSH1 0x0 REVERT JUMPDEST SWAP2 PUSH1 0x7F AND SWAP2 PUSH2 0x23F1 JUMP JUMPDEST PUSH1 0x40 MLOAD SWAP1 PUSH1 0x0 DUP3 PUSH1 0x4 SLOAD SWAP2 PUSH2 0x2430 DUP4 PUSH2 0x23E2 JUMP JUMPDEST DUP1 DUP4 MSTORE SWAP3 PUSH1 0x1 DUP2 AND SWAP1 DUP2 ISZERO PUSH2 0x24A4 JUMPI POP PUSH1 0x1 EQ PUSH2 0x2456 JUMPI JUMPDEST PUSH2 0x2454 SWAP3 POP SUB DUP4 PUSH2 0x21FC JUMP JUMPDEST JUMP JUMPDEST POP PUSH1 0x4 PUSH1 0x0 SWAP1 DUP2 MSTORE SWAP1 SWAP2 PUSH1 0x0 DUP1 MLOAD PUSH1 0x20 PUSH2 0x2DFE DUP4 CODECOPY DUP2 MLOAD SWAP2 MSTORE JUMPDEST DUP2 DUP4 LT PUSH2 0x2488 JUMPI POP POP SWAP1 PUSH1 0x20 PUSH2 0x2454 SWAP3 DUP3 ADD ADD PUSH2 0x2448 JUMP JUMPDEST PUSH1 0x20 SWAP2 SWAP4 POP DUP1 PUSH1 0x1 SWAP2 SLOAD DUP4 DUP6 DUP10 ADD ADD MSTORE ADD SWAP2 ADD SWAP1 SWAP2 DUP5 SWAP3 PUSH2 0x2470 JUMP JUMPDEST PUSH1 0x20 SWAP3 POP PUSH2 0x2454 SWAP5 SWAP2 POP PUSH1 0xFF NOT AND DUP3 DUP5 ADD MSTORE ISZERO ISZERO PUSH1 0x5 SHL DUP3 ADD ADD PUSH2 0x2448 JUMP JUMPDEST PUSH1 0x40 MLOAD SWAP1 PUSH1 0x0 DUP3 PUSH1 0x5 SLOAD SWAP2 PUSH2 0x24D7 DUP4 PUSH2 0x23E2 JUMP JUMPDEST DUP1 DUP4 MSTORE SWAP3 PUSH1 0x1 DUP2 AND SWAP1 DUP2 ISZERO PUSH2 0x24A4 JUMPI POP PUSH1 0x1 EQ PUSH2 0x24FA JUMPI PUSH2 0x2454 SWAP3 POP SUB DUP4 PUSH2 0x21FC JUMP JUMPDEST POP PUSH1 0x5 PUSH1 0x0 SWAP1 DUP2 MSTORE SWAP1 SWAP2 PUSH32 0x36B6384B5ECA791C62761152D0C79BB0604C104A5FB6F4EB0703F3154BB3DB0 JUMPDEST DUP2 DUP4 LT PUSH2 0x253E JUMPI POP POP SWAP1 PUSH1 0x20 PUSH2 0x2454 SWAP3 DUP3 ADD ADD PUSH2 0x2448 JUMP JUMPDEST PUSH1 0x20 SWAP2 SWAP4 POP DUP1 PUSH1 0x1 SWAP2 SLOAD DUP4 DUP6 DUP10 ADD ADD MSTORE ADD SWAP2 ADD SWAP1 SWAP2 DUP5 SWAP3 PUSH2 0x2526 JUMP JUMPDEST PUSH1 0x40 MLOAD SWAP1 PUSH1 0x0 DUP3 PUSH1 0x6 SLOAD SWAP2 PUSH2 0x256E DUP4 PUSH2 0x23E2 JUMP JUMPDEST DUP1 DUP4 MSTORE SWAP3 PUSH1 0x1 DUP2 AND SWAP1 DUP2 ISZERO PUSH2 0x24A4 JUMPI POP PUSH1 0x1 EQ PUSH2 0x2591 JUMPI PUSH2 0x2454 SWAP3 POP SUB DUP4 PUSH2 0x21FC JUMP JUMPDEST POP PUSH1 0x6 PUSH1 0x0 SWAP1 DUP2 MSTORE SWAP1 SWAP2 PUSH1 0x0 DUP1 MLOAD PUSH1 0x20 PUSH2 0x2DDE DUP4 CODECOPY DUP2 MLOAD SWAP2 MSTORE JUMPDEST DUP2 DUP4 LT PUSH2 0x25C3 JUMPI POP POP SWAP1 PUSH1 0x20 PUSH2 0x2454 SWAP3 DUP3 ADD ADD PUSH2 0x2448 JUMP JUMPDEST PUSH1 0x20 SWAP2 SWAP4 POP DUP1 PUSH1 0x1 SWAP2 SLOAD DUP4 DUP6 DUP10 ADD ADD MSTORE ADD SWAP2 ADD SWAP1 SWAP2 DUP5 SWAP3 PUSH2 0x25AB JUMP JUMPDEST PUSH1 0x40 MLOAD SWAP1 PUSH1 0x0 DUP3 PUSH1 0x3 SLOAD SWAP2 PUSH2 0x25F3 DUP4 PUSH2 0x23E2 JUMP JUMPDEST DUP1 DUP4 MSTORE SWAP3 PUSH1 0x1 DUP2 AND SWAP1 DUP2 ISZERO PUSH2 0x24A4 JUMPI POP PUSH1 0x1 EQ PUSH2 0x2616 JUMPI PUSH2 0x2454 SWAP3 POP SUB DUP4 PUSH2 0x21FC JUMP JUMPDEST POP PUSH1 0x3 PUSH1 0x0 SWAP1 DUP2 MSTORE SWAP1 SWAP2 PUSH1 0x0 DUP1 MLOAD PUSH1 0x20 PUSH2 0x2D9E DUP4 CODECOPY DUP2 MLOAD SWAP2 MSTORE JUMPDEST DUP2 DUP4 LT PUSH2 0x2648 JUMPI POP POP SWAP1 PUSH1 0x20 PUSH2 0x2454 SWAP3 DUP3 ADD ADD PUSH2 0x2448 JUMP JUMPDEST PUSH1 0x20 SWAP2 SWAP4 POP DUP1 PUSH1 0x1 SWAP2 SLOAD DUP4 DUP6 DUP10 ADD ADD MSTORE ADD SWAP2 ADD SWAP1 SWAP2 DUP5 SWAP3 PUSH2 0x2630 JUMP JUMPDEST SWAP1 PUSH1 0x40 MLOAD SWAP2 DUP3 PUSH1 0x0 DUP3 SLOAD SWAP3 PUSH2 0x2678 DUP5 PUSH2 0x23E2 JUMP JUMPDEST DUP1 DUP5 MSTORE SWAP4 PUSH1 0x1 DUP2 AND SWAP1 DUP2 ISZERO PUSH2 0x26E4 JUMPI POP PUSH1 0x1 EQ PUSH2 0x269D JUMPI JUMPDEST POP PUSH2 0x2454 SWAP3 POP SUB DUP4 PUSH2 0x21FC JUMP JUMPDEST SWAP1 POP PUSH1 0x0 SWAP3 SWAP2 SWAP3 MSTORE PUSH1 0x20 PUSH1 0x0 KECCAK256 SWAP1 PUSH1 0x0 SWAP2 JUMPDEST DUP2 DUP4 LT PUSH2 0x26C8 JUMPI POP POP SWAP1 PUSH1 0x20 PUSH2 0x2454 SWAP3 DUP3 ADD ADD CODESIZE PUSH2 0x2690 JUMP JUMPDEST PUSH1 0x20 SWAP2 SWAP4 POP DUP1 PUSH1 0x1 SWAP2 SLOAD DUP4 DUP6 DUP10 ADD ADD MSTORE ADD SWAP2 ADD SWAP1 SWAP2 DUP5 SWAP3 PUSH2 0x26AF JUMP JUMPDEST SWAP1 POP PUSH1 0x20 SWAP3 POP PUSH2 0x2454 SWAP5 SWAP2 POP PUSH1 0xFF NOT AND DUP3 DUP5 ADD MSTORE ISZERO ISZERO PUSH1 0x5 SHL DUP3 ADD ADD CODESIZE PUSH2 0x2690 JUMP JUMPDEST ISZERO PUSH2 0x270D JUMPI JUMP JUMPDEST PUSH1 0x40 MLOAD PUSH3 0x461BCD PUSH1 0xE5 SHL DUP2 MSTORE PUSH1 0x20 PUSH1 0x4 DUP3 ADD MSTORE PUSH1 0xC PUSH1 0x24 DUP3 ADD MSTORE PUSH12 0x27B7363C9031B932B0BA37B9 PUSH1 0xA1 SHL PUSH1 0x44 DUP3 ADD MSTORE PUSH1 0x64 SWAP1 REVERT JUMPDEST ISZERO PUSH2 0x2748 JUMPI JUMP JUMPDEST PUSH1 0x40 MLOAD PUSH3 0x461BCD PUSH1 0xE5 SHL DUP2 MSTORE PUSH1 0x20 PUSH1 0x4 DUP3 ADD MSTORE PUSH1 0xA PUSH1 0x24 DUP3 ADD MSTORE PUSH10 0x456D70747920726F6C65 PUSH1 0xB0 SHL PUSH1 0x44 DUP3 ADD MSTORE PUSH1 0x64 SWAP1 REVERT JUMPDEST ISZERO PUSH2 0x2781 JUMPI JUMP JUMPDEST PUSH1 0x40 MLOAD PUSH3 0x461BCD PUSH1 0xE5 SHL DUP2 MSTORE PUSH1 0x20 PUSH1 0x4 DUP3 ADD MSTORE PUSH1 0x8 PUSH1 0x24 DUP3 ADD MSTORE PUSH8 0x496E616374697665 PUSH1 0xC0 SHL PUSH1 0x44 DUP3 ADD MSTORE PUSH1 0x64 SWAP1 REVERT JUMPDEST ISZERO PUSH2 0x27B8 JUMPI JUMP JUMPDEST PUSH1 0x40 MLOAD PUSH3 0x461BCD PUSH1 0xE5 SHL DUP2 MSTORE PUSH1 0x20 PUSH1 0x4 DUP3 ADD MSTORE PUSH1 0xA PUSH1 0x24 DUP3 ADD MSTORE PUSH10 0x456D7074792064617461 PUSH1 0xB0 SHL PUSH1 0x44 DUP3 ADD MSTORE PUSH1 0x64 SWAP1 REVERT JUMPDEST DUP2 DUP2 LT PUSH2 0x27F5 JUMPI POP POP JUMP JUMPDEST PUSH1 0x0 DUP2 SSTORE PUSH1 0x1 ADD PUSH2 0x27EA JUMP JUMPDEST DUP2 PUSH1 0x1 SHL SWAP2 PUSH1 0x0 NOT SWAP1 PUSH1 0x3 SHL SHR NOT AND OR SWAP1 JUMP JUMPDEST PUSH1 0x1 PUSH1 0x1 PUSH1 0x40 SHL SUB DUP2 GT PUSH2 0x4D8 JUMPI PUSH1 0x5 SHL PUSH1 0x20 ADD SWAP1 JUMP JUMPDEST SWAP1 PUSH2 0x2835 DUP3 PUSH2 0x2814 JUMP JUMPDEST PUSH2 0x2842 PUSH1 0x40 MLOAD SWAP2 DUP3 PUSH2 0x21FC JUMP JUMPDEST DUP3 DUP2 MSTORE DUP1 SWAP3 PUSH2 0x2853 PUSH1 0x1F NOT SWAP2 PUSH2 0x2814 JUMP JUMPDEST ADD SWAP1 PUSH1 0x20 CALLDATASIZE SWAP2 ADD CALLDATACOPY JUMP JUMPDEST DUP1 MLOAD DUP3 LT ISZERO PUSH2 0x237E JUMPI PUSH1 0x20 SWAP2 PUSH1 0x5 SHL ADD ADD SWAP1 JUMP JUMPDEST SWAP1 PUSH1 0x40 MLOAD PUSH2 0x287E DUP2 PUSH2 0x21E1 JUMP JUMPDEST PUSH1 0x60 PUSH1 0xFF PUSH1 0x3 DUP4 SWAP6 PUSH1 0x1 DUP1 PUSH1 0xA0 SHL SUB DUP2 SLOAD AND DUP6 MSTORE PUSH2 0x289E PUSH1 0x1 DUP3 ADD PUSH2 0x2664 JUMP JUMPDEST PUSH1 0x20 DUP7 ADD MSTORE PUSH1 0x2 DUP2 ADD SLOAD PUSH1 0x40 DUP7 ADD MSTORE ADD SLOAD AND ISZERO ISZERO SWAP2 ADD MSTORE JUMP JUMPDEST ISZERO PUSH2 0x28BE JUMPI JUMP JUMPDEST PUSH1 0x40 MLOAD PUSH3 0x461BCD PUSH1 0xE5 SHL DUP2 MSTORE PUSH1 0x20 PUSH1 0x4 DUP3 ADD MSTORE PUSH1 0x13 PUSH1 0x24 DUP3 ADD MSTORE PUSH19 0x139BC81A5B9D9A5D185D1A5BDB88199BDD5B99 PUSH1 0x6A SHL PUSH1 0x44 DUP3 ADD MSTORE PUSH1 0x64 SWAP1 REVERT JUMPDEST PUSH1 0x3 PUSH1 0x0 SWAP2 DUP3 DUP2 SSTORE PUSH1 0x1 DUP2 ADD PUSH2 0x290F DUP2 SLOAD PUSH2 0x23E2 JUMP JUMPDEST SWAP1 DUP2 PUSH2 0x2922 JUMPI JUMPDEST POP POP DUP3 PUSH1 0x2 DUP3 ADD SSTORE ADD SSTORE JUMP JUMPDEST DUP2 PUSH1 0x1F DUP7 SWAP4 GT PUSH1 0x1 EQ PUSH2 0x2939 JUMPI POP SSTORE JUMPDEST CODESIZE DUP1 PUSH2 0x2916 JUMP JUMPDEST DUP2 DUP4 MSTORE PUSH1 0x20 DUP4 KECCAK256 PUSH2 0x2955 SWAP2 PUSH1 0x1F ADD PUSH1 0x5 SHR DUP2 ADD SWAP1 PUSH1 0x1 ADD PUSH2 0x27EA JUMP JUMPDEST DUP1 DUP3 MSTORE DUP2 PUSH1 0x20 DUP2 KECCAK256 SWAP2 SSTORE SSTORE PUSH2 0x2932 JUMP JUMPDEST ISZERO PUSH2 0x296C JUMPI JUMP JUMPDEST PUSH1 0x40 MLOAD PUSH3 0x461BCD PUSH1 0xE5 SHL DUP2 MSTORE PUSH1 0x20 PUSH1 0x4 DUP3 ADD MSTORE PUSH1 0x18 PUSH1 0x24 DUP3 ADD MSTORE PUSH24 0x4F6E6C792063726561746F72206F722064656C6567617465 PUSH1 0x40 SHL PUSH1 0x44 DUP3 ADD MSTORE PUSH1 0x64 SWAP1 REVERT JUMPDEST ISZERO PUSH2 0x29B3 JUMPI JUMP JUMPDEST PUSH1 0x40 MLOAD PUSH3 0x461BCD PUSH1 0xE5 SHL DUP2 MSTORE PUSH1 0x20 PUSH1 0x4 DUP3 ADD MSTORE PUSH1 0x13 PUSH1 0x24 DUP3 ADD MSTORE PUSH19 0x105B1C9958591E481C185C9D1A58DA5C185B9D PUSH1 0x6A SHL PUSH1 0x44 DUP3 ADD MSTORE PUSH1 0x64 SWAP1 REVERT JUMPDEST DUP2 MLOAD DUP2 SLOAD PUSH1 0x1 PUSH1 0x1 PUSH1 0xA0 SHL SUB NOT AND PUSH1 0x1 PUSH1 0x1 PUSH1 0xA0 SHL SUB SWAP2 SWAP1 SWAP2 AND OR DUP2 SSTORE PUSH1 0x20 DUP3 ADD MLOAD DUP1 MLOAD PUSH1 0x1 DUP4 ADD SWAP2 PUSH1 0x1 PUSH1 0x1 PUSH1 0x40 SHL SUB DUP3 GT PUSH2 0x4D8 JUMPI PUSH2 0x2A2F DUP4 SLOAD PUSH2 0x23E2 JUMP JUMPDEST PUSH1 0x1F DUP2 GT PUSH2 0x2AFA JUMPI JUMPDEST POP PUSH1 0x20 SWAP1 PUSH1 0x1F DUP4 GT PUSH1 0x1 EQ PUSH2 0x2A8E JUMPI DUP3 PUSH1 0x60 SWAP6 SWAP4 PUSH1 0x3 SWAP6 SWAP4 PUSH2 0x2A62 SWAP4 PUSH1 0x0 SWAP3 PUSH2 0x2A83 JUMPI POP POP PUSH2 0x2801 JUMP JUMPDEST SWAP1 SSTORE JUMPDEST PUSH1 0x40 DUP5 ADD MLOAD PUSH1 0x2 DUP3 ADD SSTORE ADD SWAP2 ADD MLOAD ISZERO ISZERO PUSH1 0xFF DUP1 NOT DUP4 SLOAD AND SWAP2 AND OR SWAP1 SSTORE JUMP JUMPDEST ADD MLOAD SWAP1 POP CODESIZE DUP1 PUSH2 0xAD6 JUMP JUMPDEST SWAP1 PUSH1 0x1F NOT DUP4 AND SWAP2 DUP5 PUSH1 0x0 MSTORE DUP2 PUSH1 0x0 KECCAK256 SWAP3 PUSH1 0x0 JUMPDEST DUP2 DUP2 LT PUSH2 0x2AE2 JUMPI POP SWAP3 PUSH1 0x1 SWAP3 DUP6 SWAP3 PUSH1 0x60 SWAP9 SWAP7 PUSH1 0x3 SWAP9 SWAP7 LT PUSH2 0x2ACA JUMPI JUMPDEST POP POP POP DUP2 SHL ADD SWAP1 SSTORE PUSH2 0x2A65 JUMP JUMPDEST ADD MLOAD PUSH1 0x0 NOT DUP4 DUP9 SHL PUSH1 0xF8 AND SHR NOT AND SWAP1 SSTORE CODESIZE DUP1 DUP1 PUSH2 0x2ABD JUMP JUMPDEST SWAP3 SWAP4 PUSH1 0x20 PUSH1 0x1 DUP2 SWAP3 DUP8 DUP7 ADD MLOAD DUP2 SSTORE ADD SWAP6 ADD SWAP4 ADD PUSH2 0x2AA1 JUMP JUMPDEST PUSH2 0x2B26 SWAP1 DUP5 PUSH1 0x0 MSTORE PUSH1 0x20 PUSH1 0x0 KECCAK256 PUSH1 0x1F DUP6 ADD PUSH1 0x5 SHR DUP2 ADD SWAP2 PUSH1 0x20 DUP7 LT PUSH2 0xBAE JUMPI PUSH1 0x1F ADD PUSH1 0x5 SHR ADD SWAP1 PUSH2 0x27EA JUMP JUMPDEST CODESIZE PUSH2 0x2A38 JUMP JUMPDEST PUSH1 0xF SLOAD PUSH1 0x1 PUSH1 0x40 SHL DUP2 LT ISZERO PUSH2 0x4D8 JUMPI DUP1 PUSH1 0x1 PUSH2 0x2B4D SWAP3 ADD PUSH1 0xF SSTORE PUSH1 0xF PUSH2 0x23CA JUMP JUMPDEST DUP2 SLOAD PUSH1 0x1 PUSH1 0x1 PUSH1 0xA0 SHL SUB SWAP4 DUP5 AND PUSH1 0x3 SWAP3 SWAP1 SWAP3 SHL SWAP2 DUP3 SHL SWAP4 SWAP1 SWAP2 SHL NOT AND SWAP2 SWAP1 SWAP2 OR SWAP1 SSTORE JUMP JUMPDEST SWAP3 SWAP2 SWAP1 PUSH2 0x2B88 PUSH1 0x20 SWAP2 PUSH1 0x40 DUP7 MSTORE PUSH1 0x40 DUP7 ADD SWAP1 PUSH2 0x22BB JUMP JUMPDEST SWAP4 ADD MSTORE JUMP JUMPDEST ISZERO PUSH2 0x2B94 JUMPI JUMP JUMPDEST PUSH1 0x40 MLOAD PUSH3 0x461BCD PUSH1 0xE5 SHL DUP2 MSTORE PUSH1 0x20 PUSH1 0x4 DUP3 ADD MSTORE PUSH1 0xA PUSH1 0x24 DUP3 ADD MSTORE PUSH10 0x139BC81C995C5D595CDD PUSH1 0xB2 SHL PUSH1 0x44 DUP3 ADD MSTORE PUSH1 0x64 SWAP1 REVERT JUMPDEST ISZERO PUSH2 0x2BCD JUMPI JUMP JUMPDEST PUSH1 0x40 MLOAD PUSH3 0x461BCD PUSH1 0xE5 SHL DUP2 MSTORE PUSH1 0x20 PUSH1 0x4 DUP3 ADD MSTORE PUSH1 0x17 PUSH1 0x24 DUP3 ADD MSTORE PUSH23 0x576569676874206D75737420626520706F736974697665 PUSH1 0x48 SHL PUSH1 0x44 DUP3 ADD MSTORE PUSH1 0x64 SWAP1 REVERT JUMPDEST SWAP1 PUSH2 0x2C3E PUSH1 0x1 DUP1 PUSH1 0xA0 SHL SUB DUP4 AND SWAP3 DUP4 PUSH1 0x0 MSTORE PUSH1 0x10 PUSH1 0x20 MSTORE PUSH2 0x2C34 PUSH2 0x409 PUSH1 0x40 PUSH1 0x0 KECCAK256 SLOAD PUSH2 0x23E2 JUMP JUMPDEST PUSH2 0x2066 PUSH1 0x1 PUSH2 0x2BC6 JUMP JUMPDEST PUSH1 0x0 DUP3 DUP2 MSTORE PUSH1 0x10 PUSH1 0x20 MSTORE PUSH1 0x40 SWAP1 KECCAK256 DUP2 MLOAD PUSH1 0x1 PUSH1 0x1 PUSH1 0x40 SHL SUB DUP2 GT PUSH2 0x4D8 JUMPI PUSH2 0x2C66 DUP3 SLOAD PUSH2 0x23E2 JUMP JUMPDEST PUSH1 0x1F DUP2 GT PUSH2 0x2D6B JUMPI JUMPDEST POP PUSH1 0x20 PUSH1 0x1F DUP3 GT PUSH1 0x1 EQ PUSH2 0x2CF3 JUMPI SWAP2 PUSH2 0x2CA4 DUP3 PUSH1 0x0 DUP1 MLOAD PUSH1 0x20 PUSH2 0x2E1E DUP4 CODECOPY DUP2 MLOAD SWAP2 MSTORE SWAP6 SWAP4 PUSH2 0x2CDC SWAP6 PUSH1 0x0 SWAP2 PUSH2 0x2CE8 JUMPI POP PUSH2 0x2801 JUMP JUMPDEST SWAP1 SSTORE JUMPDEST DUP4 PUSH1 0x0 MSTORE PUSH1 0x11 PUSH1 0x20 MSTORE PUSH1 0x1 PUSH1 0x40 PUSH1 0x0 KECCAK256 SSTORE DUP4 PUSH1 0x0 MSTORE PUSH1 0x12 PUSH1 0x20 MSTORE TIMESTAMP PUSH1 0x40 PUSH1 0x0 KECCAK256 SSTORE PUSH1 0x40 MLOAD SWAP2 DUP3 SWAP2 PUSH1 0x40 DUP4 MSTORE PUSH1 0x40 DUP4 ADD SWAP1 PUSH2 0x22BB JUMP JUMPDEST PUSH1 0x1 PUSH1 0x20 DUP4 ADD MSTORE SUB SWAP1 LOG2 JUMP JUMPDEST SWAP1 POP DUP5 ADD MLOAD CODESIZE PUSH2 0xE7A JUMP JUMPDEST PUSH1 0x1F NOT DUP3 AND SWAP1 DUP4 PUSH1 0x0 MSTORE DUP1 PUSH1 0x0 KECCAK256 SWAP2 PUSH1 0x0 JUMPDEST DUP2 DUP2 LT PUSH2 0x2D53 JUMPI POP SWAP3 PUSH2 0x2CDC SWAP5 SWAP3 PUSH1 0x1 SWAP3 DUP3 PUSH1 0x0 DUP1 MLOAD PUSH1 0x20 PUSH2 0x2E1E DUP4 CODECOPY DUP2 MLOAD SWAP2 MSTORE SWAP9 SWAP7 LT PUSH2 0x2D3A JUMPI JUMPDEST POP POP DUP2 SHL ADD SWAP1 SSTORE PUSH2 0x2CA7 JUMP JUMPDEST DUP6 ADD MLOAD PUSH1 0x0 NOT PUSH1 0xF8 DUP5 PUSH1 0x3 SHL AND SHR NOT AND SWAP1 SSTORE CODESIZE DUP1 PUSH2 0x2D2E JUMP JUMPDEST SWAP2 SWAP3 PUSH1 0x20 PUSH1 0x1 DUP2 SWAP3 DUP7 DUP11 ADD MLOAD DUP2 SSTORE ADD SWAP5 ADD SWAP3 ADD PUSH2 0x2D05 JUMP JUMPDEST PUSH2 0x2D97 SWAP1 DUP4 PUSH1 0x0 MSTORE PUSH1 0x20 PUSH1 0x0 KECCAK256 PUSH1 0x1F DUP5 ADD PUSH1 0x5 SHR DUP2 ADD SWAP2 PUSH1 0x20 DUP6 LT PUSH2 0xBAE JUMPI PUSH1 0x1F ADD PUSH1 0x5 SHR ADD SWAP1 PUSH2 0x27EA JUMP JUMPDEST CODESIZE PUSH2 0x2C6F JUMP INVALID 0xC2 JUMPI GAS 0xE SWAP15 MSIZE EXTCODECOPY STOP 0xF9 MSIZE 0xF8 0xC9 0x2F SLT 0xDB 0x28 PUSH10 0xC3395A3B0502D05E2516 PREVRANDAO PUSH16 0x71F85BC1756FD99AC9A2B1B22B5E701D 0xDB MUL 0x2B DUP10 PUSH27 0x2144D045B77AC35CE46610FEF6F652222313E28459528D920B65 GT TLOAD AND 0xC0 0x4F RETURNDATACOPY 0xFC DUP3 0xAA 0xED 0xC9 PUSH28 0xE59F3F377C0D3F8A35ACFBC15FF81A39AE7D344FD709F28E8600B4AA DUP13 PUSH6 0xC6B64BFE7FE3 PUSH12 0xD19BBCEEE304AC8D461CB65A 0xC9 0xF6 0xDC CALLDATACOPY 0xBB 0xCB 0x2C 0x2C CALLVALUE 0xC1 SSTORE 0x22 0x4F 0xFB REVERT 0xC4 PUSH22 0x2B89008F73E8C250DF70AFA51C6916B9661D224A47FD SWAP6 PUSH9 0xCB0C1C9D0D49E2E45C 0xC7 0x29 0xA9 DUP8 LOG2 PUSH5 0x6970667358 0x22 SLT KECCAK256 0xEB 0xBD BLOBHASH 0xBA PUSH2 0xC28A SWAP4 DUP10 0xB1 0xED 0xBF SWAP12 0xEF 0x22 0xDA MSIZE LOG3 DUP12 0xB9 GT GAS SLOAD 0x4B SGT 0xCE 0x2B NUMBER 0xAB 0xAD 0x2A 0x2D PUSH5 0x736F6C6343 STOP ADDMOD SHR STOP CALLER SUB PUSH12 0x6384B5ECA791C62761152D0C PUSH26 0xBB0604C104A5FB6F4EB0703F3154BB3DB0F474A44BBF67E28A60 0xE1 0xE8 SWAP8 PUSH27 0xD7BDF30896D6B88B7C83710A32AD527611994C2575A0E9E593C00 0xF9 MSIZE 0xF8 0xC9 0x2F SLT 0xDB 0x28 PUSH10 0xC3395A3B0502D05E2516 PREVRANDAO PUSH16 0x71F85BA26469706673582212200E0D48 JUMP INVALID 0xE6 PUSH32 0xEEAF6BF04944299E1437523D64CEFB25329485D9E8A6515C2C64736F6C634300 ADDMOD SHR STOP CALLER "},"methodIdentifiers":{"allProjects(uint256)":"53b3194c","checkIsDALProject(address)":"f0f847d6","checkIsProject(address)":"3f3c9833","createCustomProject(string)":"eabec3a3","createProjectFromTemplate(uint256,string)":"4780f786","dalProjects(uint256)":"9c1fa044","getAllProjects()":"80d03829","getDALProjectCount()":"f4d32852","getDALProjects()":"bb3098ff","getProjectCount()":"3bcff3b0","getUserProjectCount(address)":"a375728a","getUserProjects(address)":"e32e723c","isDALProject(address)":"0e9eb496","isProject(address)":"05c81408","templateRegistry()":"a0af81f0","userProjects(address,uint256)":"2fa9c007"}}}}}