{"contracts/ProjectTemplateRegistry.sol":{"ProjectTemplateRegistry":{"abi":[{"inputs":[],"stateMutability":"nonpayable","type":"constructor"},{"anonymous":false,"inputs":[{"indexed":true,"internalType":"uint256","name":"templateId","type":"uint256"},{"indexed":false,"internalType":"uint256","name":"timestamp","type":"uint256"}],"name":"TemplateDeactivated","type":"event"},{"anonymous":false,"inputs":[{"indexed":true,"internalType":"uint256","name":"templateId","type":"uint256"},{"indexed":false,"internalType":"string","name":"name","type":"string"},{"indexed":false,"internalType":"string","name":"projectType","type":"string"},{"indexed":true,"internalType":"address","name":"creator","type":"address"},{"indexed":false,"internalType":"uint256","name":"timestamp","type":"uint256"}],"name":"TemplateRegistered","type":"event"},{"anonymous":false,"inputs":[{"indexed":true,"internalType":"uint256","name":"templateId","type":"uint256"},{"indexed":false,"internalType":"string","name":"name","type":"string"},{"indexed":false,"internalType":"uint256","name":"timestamp","type":"uint256"}],"name":"TemplateUpdated","type":"event"},{"inputs":[{"internalType":"uint256","name":"_templateId","type":"uint256"},{"internalType":"string","name":"_fieldName","type":"string"},{"internalType":"string","name":"_fieldType","type":"string"},{"internalType":"bool","name":"_isRequired","type":"bool"},{"internalType":"string","name":"_defaultValue","type":"string"}],"name":"addTemplateField","outputs":[],"stateMutability":"nonpayable","type":"function"},{"inputs":[{"internalType":"string","name":"_name","type":"string"},{"internalType":"string","name":"_description","type":"string"},{"internalType":"string","name":"_projectType","type":"string"},{"internalType":"string[]","name":"_participantRoles","type":"string[]"},{"internalType":"string","name":"_exampleJSON","type":"string"}],"name":"createTemplate","outputs":[{"internalType":"uint256","name":"","type":"uint256"}],"stateMutability":"nonpayable","type":"function"},{"inputs":[{"internalType":"uint256","name":"_templateId","type":"uint256"}],"name":"deactivateTemplate","outputs":[],"stateMutability":"nonpayable","type":"function"},{"inputs":[],"name":"getAllTemplates","outputs":[{"internalType":"uint256[]","name":"","type":"uint256[]"}],"stateMutability":"view","type":"function"},{"inputs":[{"internalType":"uint256","name":"_templateId","type":"uint256"}],"name":"getTemplate","outputs":[{"internalType":"string","name":"name","type":"string"},{"internalType":"string","name":"description","type":"string"},{"internalType":"string","name":"projectType","type":"string"},{"internalType":"string[]","name":"participantRoles","type":"string[]"},{"internalType":"string","name":"exampleJSON","type":"string"},{"internalType":"bool","name":"isActive","type":"bool"}],"stateMutability":"view","type":"function"},{"inputs":[],"name":"getTemplateCount","outputs":[{"internalType":"uint256","name":"","type":"uint256"}],"stateMutability":"view","type":"function"},{"inputs":[{"internalType":"uint256","name":"_templateId","type":"uint256"}],"name":"getTemplateFields","outputs":[{"internalType":"string[]","name":"fieldNames","type":"string[]"},{"internalType":"string[]","name":"fieldTypes","type":"string[]"},{"internalType":"bool[]","name":"isRequired","type":"bool[]"},{"internalType":"string[]","name":"defaultValues","type":"string[]"}],"stateMutability":"view","type":"function"},{"inputs":[{"internalType":"string","name":"_projectType","type":"string"}],"name":"getTemplatesByType","outputs":[{"internalType":"uint256[]","name":"","type":"uint256[]"}],"stateMutability":"view","type":"function"},{"inputs":[{"internalType":"uint256","name":"","type":"uint256"}],"name":"templates","outputs":[{"internalType":"string","name":"name","type":"string"},{"internalType":"string","name":"description","type":"string"},{"internalType":"string","name":"projectType","type":"string"},{"internalType":"string","name":"exampleJSON","type":"string"},{"internalType":"bool","name":"isActive","type":"bool"},{"internalType":"address","name":"creator","type":"address"},{"internalType":"uint256","name":"createdAt","type":"uint256"}],"stateMutability":"view","type":"function"},{"inputs":[{"internalType":"address","name":"","type":"address"},{"internalType":"uint256","name":"","type":"uint256"}],"name":"templatesByCreator","outputs":[{"internalType":"uint256","name":"","type":"uint256"}],"stateMutability":"view","type":"function"},{"inputs":[{"internalType":"string","name":"","type":"string"},{"internalType":"uint256","name":"","type":"uint256"}],"name":"templatesByType","outputs":[{"internalType":"uint256","name":"","type":"uint256"}],"stateMutability":"view","type":"function"}],"evm":{"bytecode":{"linkReferences":{},"object":"608060405234611cf257610011611d3b565b61001b6040611d16565b600a8152693230ba30afb7bbb732b960b11b602082015261003b82611d71565b5261004581611d71565b506100506040611d16565b600a81526930b3b3b932b3b0ba37b960b11b602082015261007082611d94565b5261007a81611d94565b506100856040611d16565b600b81526a31b7b7b93234b730ba37b960a91b60208201526100a682611da4565b526100b081611da4565b506100bc610200611d16565b906101dc82527f7b2270726f6a6563745f6964223a22666c2d63616e6365722d73747564792d3060208301527f31222c2274797065223a226665646572617465645f6c6561726e696e67222c2260408301527f6f626a656374697665223a2243616e636572207374756479204149222c22726f60608301527f6c6573223a5b22646174615f6f776e6572222c2261676772656761746f72222c60808301527f22636f6f7264696e61746f72225d2c227061727469636970616e7473223a5b7b60a08301527f226964223a223078414243222c22726f6c65223a22646174615f6f776e65722260c08301527f7d2c7b226964223a223078444546222c22726f6c65223a22616767726567617460e08301527f6f72227d5d2c22617373657473223a7b226461746173657473223a5b223078486101008301527f494a222c2230784c4d4e225d2c2273637269707473223a5b2230784f5051225d6101208301527f7d2c22776f726b666c6f77223a7b227374657073223a5b7b2273746570223a226101408301527f6c6f63616c5f747261696e696e67222c226578656375746f72223a22307841426101608301527f43227d2c7b2273746570223a226167677265676174696f6e222c2265786563756101808301527f746f72223a223078444546227d5d7d2c22706f6c6963696573223a7b226163636101a08301527f657373223a7b223078444546223a5b22766965775f726573756c7473225d2c226101c08301527f3078414243223a5b22657865637574655f737465705f31225d7d7d7d000000006101e083015260005490610310611dee565b505061031b82611db4565b509061033061032a8354611e3a565b83611e8b565b7f466564657261746564204c6561726e696e670000000000000000000000000024825560018201805461036290611e3a565b601f8111611ccd575b50607b81556000527f6865726520646174612072656d61696e73206469737472696275746564000000600160206000207f436f6c6c61626f726174697665206d616368696e65206c6561726e696e67207781550155600282016103d76103d18254611e3a565b82611e8b565b7f6665646572617465645f6c6561726e696e670000000000000000000000000024905580516003830191680100000000000000008211611795578254828455808310611c4f575b50602001916000526020600020916000905b828210611b88575050845160058401925090506001600160401b038111611795576104658161045f8454611e3a565b84611eb5565b6020601f8211600114611b1a57816004949392610490926108939798600092611937575b5050611efa565b90555b6104ac60068201600160ff198254161781553090611f0d565b426007820155016105236104be611cf7565b6104c86040611d16565b600a8152691c1c9bda9958dd17da5960b21b602082015281526104eb6040611d16565b6006815265737472696e6760d01b60208201526020820152600160408201526105146020611d16565b60008152606082015282611f32565b6105a861052e611cf7565b6105386040611d16565b60048152637479706560e01b602082015281526105556040611d16565b6006815265737472696e6760d01b602082015260208201526001604082015261057e6040611d16565b60128152716665646572617465645f6c6561726e696e6760701b6020820152606082015282611f32565b6105df6105b3611cf7565b6105bd6040611d16565b60098152686f626a65637469766560b81b602082015281526104eb6040611d16565b6106816105ea611cf7565b6105f46040611d16565b6005815264726f6c657360d81b602082015281526106126040611d16565b6005815264617272617960d81b602082015260208201526001604082015261063a6060611d16565b602981527f5b22646174615f6f776e6572222c2261676772656761746f72222c22636f6f7260208201526864696e61746f72225d60b81b6040820152606082015282611f32565b6106fd61068c611cf7565b6106966040611d16565b600c81526b7061727469636970616e747360a01b602082015281526106bb6040611d16565b6005815264617272617960d81b60208201526020820152600160408201526106e36040611d16565b60028152615b5d60f01b6020820152606082015282611f32565b61078f610708611cf7565b6107126040611d16565b600681526561737365747360d01b602082015281526107316040611d16565b60068152651bd89a9958dd60d21b602082015260208201526001604082015261075a6040611d16565b601c81527f7b226461746173657473223a5b5d2c2273637269707473223a5b5d7d000000006020820152606082015282611f32565b61081261079a611cf7565b6107a46040611d16565b6008815267776f726b666c6f7760c01b602082015281526107c56040611d16565b60068152651bd89a9958dd60d21b60208201526020820152600160408201526107ee6040611d16565b600c81526b7b227374657073223a5b5d7d60a01b6020820152606082015282611f32565b61081a611cf7565b906108256040611d16565b6008815267706f6c696369657360c01b602082015282526108466040611d16565b60068152651bd89a9958dd60d21b602082015260208301526001604083015261086f6040611d16565b600d81526c7b22616363657373223a7b7d7d60981b60208201526060830152611f32565b6108c1816032604051716665646572617465645f6c6561726e696e6760701b81526001601282015220612197565b3060005260026020526108d8816040600020612197565b60405190606082526012606083015271466564657261746564204c6561726e696e6760701b608083015260a06020830152601260a0830152716665646572617465645f6c6561726e696e6760701b60c0830152426040830152600080516020613ab583398151915260e03093a361094d611d3b565b6109576040611d16565b600a8152693932b9b2b0b931b432b960b11b602082015261097782611d71565b5261098181611d71565b5061098c6040611d16565b60088152673932bb34b2bbb2b960c11b60208201526109aa82611d94565b526109b481611d94565b506109bf6040611d16565b600b81526a31b7b7b93234b730ba37b960a91b60208201526109e082611da4565b526109ea81611da4565b506109f66101a0611d16565b9061017f82527f7b2270726f6a6563745f6964223a2272657365617263682d636f6c6c61622d3060208301527f31222c2274797065223a2272657365617263685f636f6c6c61626f726174696f60408301527f6e222c226f626a656374697665223a22436c696d617465206368616e6765207260608301527f65736561726368222c22726f6c6573223a5b2272657365617263686572222c2260808301527f7265766965776572222c22636f6f7264696e61746f72225d2c2270617274696360a08301527f6970616e7473223a5b7b226964223a223078414243222c22726f6c65223a227260c08301527f657365617263686572227d2c7b226964223a223078444546222c22726f6c652260e08301527f3a227265766965776572227d5d2c2272657365617263685f6172656173223a5b6101008301527f22636c696d617465222c22656e7669726f6e6d656e74225d2c227075626c69636101208301527f6174696f6e73223a5b5d2c226d696c6573746f6e6573223a5b7b226e616d65226101408301527f3a224461746120636f6c6c656374696f6e222c22646561646c696e65223a22326101608301527f3032352d31322d3331222c22636f6d706c65746564223a66616c73657d5d7d0061018083015260005490610bd5611dee565b5050610be082611db4565b5090610bef61032a8354611e3a565b7f526573656172636820436f6c6c61626f726174696f6e0000000000000000002c8255600182018054610c2190611e3a565b601f8111611af5575b50605981556000526b696f6e20706c6174666f726d60a01b600160206000207f41636164656d696320616e6420726573656172636820636f6c6c61626f7261748155015560028201610c7f6103d18254611e3a565b7f72657365617263685f636f6c6c61626f726174696f6e0000000000000000002c905580516003830191680100000000000000008211611795578254828455808310611a77575b50602001916000526020600020916000905b8282106119b0575050845160058401925090506001600160401b03811161179557610d078161045f8454611e3a565b6020601f821160011461194257816004949392610d3192610fa89798600092611937575050611efa565b90555b610d4d60068201600160ff198254161781553090611f0d565b42600782015501610d5f6104be611cf7565b610ddd610d6a611cf7565b610d746040611d16565b60048152637479706560e01b60208201528152610d916040611d16565b6006815265737472696e6760d01b6020820152602082015260016040820152610dba6040611d16565b60168152600080516020613ad58339815191526020820152606082015282611f32565b610de86105b3611cf7565b610e88610df3611cf7565b610dfd6040611d16565b6005815264726f6c657360d81b60208201528152610e1b6040611d16565b6005815264617272617960d81b6020820152602082015260016040820152610e436060611d16565b602781527f5b2272657365617263686572222c227265766965776572222c22636f6f7264696020820152666e61746f72225d60c81b6040820152606082015282611f32565b610e9361068c611cf7565b610ecf610e9e611cf7565b610ea86040611d16565b600e81526d72657365617263685f617265617360901b602082015281526106bb6040611d16565b610f31610eda611cf7565b610ee46040611d16565b600c81526b7075626c69636174696f6e7360a01b60208201528152610f096040611d16565b6005815264617272617960d81b60208201526020820152600060408201526106e36040611d16565b610f39611cf7565b90610f446040611d16565b600a8152696d696c6573746f6e657360b01b60208201528252610f676040611d16565b6005815264617272617960d81b6020820152602083015260006040830152610f8f6040611d16565b60028152615b5d60f01b60208201526060830152611f32565b610fcf816036604051600080516020613ad583398151915281526001601682015220612197565b306000526002602052610fe6816040600020612197565b6040519060608252601660608301527f526573656172636820436f6c6c61626f726174696f6e00000000000000000000608083015260a06020830152601660a0830152600080516020613ad583398151915260c0830152426040830152600080516020613ab583398151915260e03093a3606061106281611d16565b6002815290601f190160005b81811061192657826110806040611d16565b600b81526a31b7b7b93234b730ba37b960a91b60208201526110a182611d71565b526110ab81611d71565b506110b66040611d16565b600b81526a31b7b73a3934b13aba37b960a91b60208201526110d782611d94565b526110e181611d94565b506110ed610220611d16565b906101f682527f7b2270726f6a6563745f6964223a22616c2d63616e6365722d6465746563746960208301527f6f6e2d3031222c2274797065223a226163746976655f6c6561726e696e67222c60408301527f226f626a656374697665223a22416374697665206c6561726e696e6720666f7260608301527f2063616e63657220646574656374696f6e206d6f64656c222c22726f6c65732260808301527f3a5b22636f6f7264696e61746f72222c22636f6e7472696275746f72225d2c2260a08301527f7061727469636970616e7473223a5b7b226964223a223078414243222c22726f60c08301527f6c65223a22636f6f7264696e61746f72227d2c7b226964223a2230784445462260e08301527f2c22726f6c65223a22636f6e7472696275746f72227d5d2c22706f6c696369656101008301527f73223a7b227065726d697373696f6e73223a7b22636f6f7264696e61746f72226101208301527f3a5b226d616e6167655f70726f6a656374222c2273746172745f726f756e64736101408301527f222c22617070726f76655f7061727469636970616e7473222c22766965775f616101608301527f6c6c222c226d6f646966795f73657474696e6773225d2c22636f6e74726962756101808301527f746f72223a5b22766f7465222c22766965775f726573756c7473222c227375626101a08301527f6d69745f6c6162656c73225d7d2c22766f74696e67223a7b22656e61626c65646101c08301527f223a747275652c227468726573686f6c64223a302e352c227265766f6361626c6101e08301527f655f6279223a22636f6f7264696e61746f72227d7d7d0000000000000000000061020083015260005490611368611dee565b505061137382611db4565b509061138261032a8354611e3a565b7f416374697665204c6561726e696e67000000000000000000000000000000001e82556001820180546113b490611e3a565b601f8111611901575b5060838155600052606760f81b600260206000207f436f6c6c61626f72617469766520616374697665206c6561726e696e6720666f81557f72206d616368696e65206c6561726e696e67206d6f64656c20747261696e696e600182015501556002820161142d6103d18254611e3a565b7f6163746976655f6c6561726e696e67000000000000000000000000000000001e905580516003830191680100000000000000008211611795578254828455808310611883575b50602001916000526020600020916000905b8282106117ab575050845160058401925090506001600160401b038111611795576114b58161045f8454611e3a565b6020601f8211600114611727578160049493926114df92611664979860009261171c575050611efa565b90555b6114fb60068201600160ff198254161781553090611f0d565b4260078201550161150d6104be611cf7565b61158f611518611cf7565b6115226040611d16565b60048152637479706560e01b6020820152815261153f6040611d16565b6006815265737472696e6760d01b60208201526020820152600160408201526115686040611d16565b600f81526e6163746976655f6c6561726e696e6760881b6020820152606082015282611f32565b61159a6105b3611cf7565b61162a6115a5611cf7565b6115af6040611d16565b6005815264726f6c657360d81b602082015281526115cd6040611d16565b6005815264617272617960d81b60208201526020820152600160408201526115f56040611d16565b601d81527f5b22636f6f7264696e61746f72222c22636f6e7472696275746f72225d0000006020820152606082015282611f32565b610812611635611cf7565b61163f6040611d16565b600c81526b7061727469636970616e747360a01b60208201528152610f096040611d16565b61168f81602f6040516e6163746976655f6c6561726e696e6760881b81526001600f82015220612197565b3060005260026020526116a6816040600020612197565b6040519060608252600f60608301526e416374697665204c6561726e696e6760881b608083015260a06020830152600f60a08301526e6163746976655f6c6561726e696e6760881b60c0830152426040830152600080516020613ab583398151915260e03093a36040516118ef90816121c68239f35b015190508880610489565b601f1982169583600052816000209660005b81811061177d57509660019284926004979695611664999a10611764575b505050811b0190556114e2565b015160001960f88460031b161c19169055878080611757565b83830151895560019098019760209384019301611739565b634e487b7160e01b600052604160045260246000fd5b80518051906001600160401b038211611795576117d2826117cc8854611e3a565b88611eb5565b602090601f831160011461181657926117fc8360019594602094879660009261180b575050611efa565b87555b01940191019092611486565b015190508d80610489565b90601f1983169187600052816000209260005b81811061186b5750936020936001969387969383889510611852575b505050811b0187556117ff565b015160001960f88460031b161c191690558c8080611845565b92936020600181928786015181550195019301611829565b8360005282602060002091820191015b8181106118a05750611474565b806118ad60019254611e3a565b806118ba575b5001611893565b601f811183146118d05750600081555b896118b3565b6118ee908260005283601f6020600020920160051c82019101611e74565b80600052600060208120818355556118ca565b61192090826000526003601f6020600020920160051c82019101611e74565b856113bd565b80606060208093860101520161106e565b015190503880610489565b601f1982169583600052816000209660005b81811061199857509660019284926004979695610fa8999a1061197f575b505050811b019055610d34565b015160001960f88460031b161c19169055388080611972565b83830151895560019098019760209384019301611954565b80518051906001600160401b038211611795576119d1826117cc8854611e3a565b602090601f8311600114611a0a57926119fb83600195946020948796600092611937575050611efa565b87555b01940191019092610cd8565b90601f1983169187600052816000209260005b818110611a5f5750936020936001969387969383889510611a46575b505050811b0187556119fe565b015160001960f88460031b161c19169055388080611a39565b92936020600181928786015181550195019301611a1d565b8360005282602060002091820191015b818110611a945750610cc6565b80611aa160019254611e3a565b80611aae575b5001611a87565b601f81118314611ac45750600081555b38611aa7565b611ae2908260005283601f6020600020920160051c82019101611e74565b8060005260006020812081835555611abe565b611b1490826000526002601f6020600020920160051c82019101611e74565b38610c2a565b601f1982169583600052816000209660005b818110611b7057509660019284926004979695610893999a10611b57575b505050811b019055610493565b015160001960f88460031b161c19169055388080611b4a565b83830151895560019098019760209384019301611b2c565b80518051906001600160401b03821161179557611ba9826117cc8854611e3a565b602090601f8311600114611be25792611bd383600195946020948796600092611937575050611efa565b87555b01940191019092610430565b90601f1983169187600052816000209260005b818110611c375750936020936001969387969383889510611c1e575b505050811b018755611bd6565b015160001960f88460031b161c19169055388080611c11565b92936020600181928786015181550195019301611bf5565b8360005282602060002091820191015b818110611c6c575061041e565b80611c7960019254611e3a565b80611c86575b5001611c5f565b601f81118314611c9c5750600081555b38611c7f565b611cba908260005283601f6020600020920160051c82019101611e74565b8060005260006020812081835555611c96565b611cec90826000526002601f6020600020920160051c82019101611e74565b3861036b565b600080fd5b60405190608082016001600160401b0381118382101761179557604052565b6040519190601f01601f191682016001600160401b0381118382101761179557604052565b608090611d4782611d16565b6003815291601f19018260005b828110611d6057505050565b806060602080938501015201611d54565b805115611d7e5760200190565b634e487b7160e01b600052603260045260246000fd5b805160011015611d7e5760400190565b805160021015611d7e5760600190565b600054811015611d7e57600080805260039190911b7f290decd9548b62a8d60345a988386fc84ba6bc95484008f6362f93160ef3e5630191565b60005468010000000000000000811015611795576001810160005560008054821015611e2657808060209252209060031b0190600090565b634e487b7160e01b81526032600452602490fd5b90600182811c92168015611e6a575b6020831014611e5457565b634e487b7160e01b600052602260045260246000fd5b91607f1691611e49565b818110611e7f575050565b60008155600101611e74565b90601f8111611e98575050565b611eb391600052601f6020600020910160051c810190611e74565b565b9190601f8111611ec457505050565b611eb3926000526020600020906020601f840160051c83019310611ef0575b601f0160051c0190611e74565b9091508190611ee3565b8160011b916000199060031b1c19161790565b8054610100600160a81b03191660089290921b610100600160a81b0316919091179055565b805490680100000000000000008210156117955760018201808255821015611d7e5760005260206000209060021b0191815192835160018060401b03811161179557611f828161045f8454611e3a565b602094601f821160011461213257611fa7929394958291600092611937575050611efa565b81555b6020830151805160018301916001600160401b03821161179557611fd882611fd28554611e3a565b85611eb5565b602090601f83116001146120c65782606095936003959361200193600092611937575050611efa565b90555b600281016040860151151560ff801983541691161790550192015191825160018060401b0381116117955761203d8161045f8454611e3a565b6020601f8211600114612064578190612060939495600092611937575050611efa565b9055565b601f1982169083600052806000209160005b8181106120ae57509583600195969710612095575b505050811b019055565b015160001960f88460031b161c1916905538808061208b565b9192602060018192868b015181550194019201612076565b90601f1983169184600052816000209260005b81811061211a5750926001928592606098966003989610612102575b505050811b019055612004565b015160001983881b60f8161c191690553880806120f5565b929360206001819287860151815501950193016120d9565b601f1982169583600052806000209160005b88811061217f57508360019596979810612166575b505050811b018155611faa565b015160001960f88460031b161c19169055388080612159565b91926020600181928685015181550194019201612144565b805490680100000000000000008210156117955760018201808255821015611d7e576000526020600020015556fe6080604052600436101561001257600080fd5b60003560e01c80631d1a689e146113db57806331543cf4146111b55780635016959a146111975780638e46a300146111295780639a33dab0146110dd578063a12228e214611037578063bc52565214610f63578063d3ebf9c514610729578063d830082f146106af578063df715769146102395763e74ed18a1461009557600080fd5b346102345760203660031901126102345760046100bf81356100ba600054821061177a565b61164b565b50018054906100cd8261184f565b906100d78361184f565b6100e084611763565b906100ee60405192836115d2565b8482526100fa85611763565b602083019590601f19013687376101108161184f565b9360005b82811061019157505050610146602091610139604051966080885260808801906114f6565b90868203848801526114f6565b918483036040860152519182815201939060005b818110610179578480610175888783820360608501526114f6565b0390f35b8251151586526020958601959092019160010161015a565b806101a76101a160019385611833565b506116bf565b6101b1828a6117c0565b526101bc81896117c0565b506101d2826101cb8386611833565b50016116bf565b6101dc82876117c0565b526101e781866117c0565b5060ff60026101f68386611833565b5001541661020482886117c0565b901515905261021860036101cb8386611833565b61022282896117c0565b5261022d81886117c0565b5001610114565b600080fd5b346102345760a0366003190112610234576004356024356001600160401b0381116102345761026c9036906004016115f5565b906044356001600160401b0381116102345761028c9036906004016115f5565b91606435801515809103610234576084356001600160401b038111610234576102b99036906004016115f5565b926102c7600054821061177a565b6102d08161164b565b506006015460081c6001600160a01b0316330361065e576102f260049161164b565b500160405192610301846115b7565b83526020830194855260408301918252606083019384528054600160401b8110156104e85761033591600182018155611833565b92909261064857518051906001600160401b0382116104e8576103588454611685565b601f8111610616575b50602090601f83116001146105af576103859291600091836105a4575b50506117eb565b82555b92518051939060018301906001600160401b0386116104e8576103ab8254611685565b601f8111610572575b50602090601f87116001146105095795806103db92600397986000926104fe5750506117eb565b90555b600282019051151560ff8019835416911617905501905190815160018060401b0381116104e85761040f8254611685565b601f81116104ab575b50602092601f821160011461044b5761043c929382916000926104405750506117eb565b9055005b01519050848061037e565b601f1982169383600052806000209160005b868110610493575083600195961061047a575b505050811b019055005b015160001960f88460031b161c19169055838080610470565b9192602060018192868501518155019401920161045d565b6104d890836000526020600020601f840160051c810191602085106104de575b601f0160051c01906117d4565b83610418565b90915081906104cb565b634e487b7160e01b600052604160045260246000fd5b01519050888061037e565b90601f1987169183600052816000209260005b81811061055a57509160019391896003999a9410610542575b505050811b0190556103de565b015160001983891b60f8161c19169055878080610535565b9293602060018192878601518155019501930161051c565b61059e90836000526020600020601f890160051c81019160208a106104de57601f0160051c01906117d4565b866103b4565b01519050878061037e565b90601f1983169185600052816000209260005b8181106105fe57509084600195949392106105e5575b505050811b018255610388565b015160001960f88460031b161c191690558680806105d8565b929360206001819287860151815501950193016105c2565b61064290856000526020600020601f850160051c810191602086106104de57601f0160051c01906117d4565b86610361565b634e487b7160e01b600052600060045260246000fd5b60405162461bcd60e51b8152602060048201526024808201527f4f6e6c792074656d706c6174652063726561746f722063616e20616464206669604482015263656c647360e01b6064820152608490fd5b34610234576040366003190112610234576004356001600160401b038111610234576106df9036906004016115f5565b6106fb60206024359281604051938285809451938492016114ae565b8101600181520301902080548210156102345760209161071a91611589565b90549060031b1c604051908152f35b346102345760a0366003190112610234576004356001600160401b038111610234576107599036906004016115f5565b6024356001600160401b038111610234576107789036906004016115f5565b906044356001600160401b038111610234576107989036906004016115f5565b906064356001600160401b0381116102345736602382011215610234578060040135926107c484611763565b916107d260405193846115d2565b84835260208301906024829660051b820101903682116102345760248101925b828410610f345750506084359150506001600160401b0381116102345761081d9036906004016115f5565b91835115610eef57815115610eab5760005494600160401b8610156104e8576001860160005561084c8661164b565b50506108578661164b565b5085519097906001600160401b0381116104e8576108758954611685565b601f8111610e79575b506020601f8211600114610e135790806108a092600091610e08575b506117eb565b88555b805160018901916001600160401b0382116104e8576108c28354611685565b601f8111610dd6575b50602090601f8311600114610d6f576108ee929160009183610d645750506117eb565b90555b825160028801906001600160401b0381116104e8576109108254611685565b601f8111610d32575b506020601f8211600114610cce57908061093a92600091610cc357506117eb565b90555b90516003870191600160401b82116104e8578254828455808310610c45575b50916000526020600020916000905b828210610b3b575050835196915050600581016001600160401b0387116104e857602096869461099b8354611685565b601f8111610b0b575b508890601f8311600114610a8d5782610a6d959360008051602061189a8339815191529795936109dc93600092610a825750506117eb565b90555b6006810180546001600160a81b0319163360081b610100600160a81b0316176001179055426007909101556040518151610a359186918a908290610a2681838986016114ae565b810160018152030190206117fe565b3360005260028752610a4b8460406000206117fe565b610a60604051956060875260608701906114d1565b90858203888701526114d1565b924260408201528033940390a3604051908152f35b015190508c8061037e565b90601f1983169184600052816000209260005b818110610af15750926001928592610a6d989660008051602061189a8339815191529a989610610ad8575b505050811b0190556109df565b015160001960f88460031b161c191690558b8080610acb565b8284015185558b9950600190940193928c01928c01610aa0565b610b3590846000528a600020601f850160051c8101918c86106104de57601f0160051c01906117d4565b896109a4565b80518051906001600160401b0382116104e857610b588654611685565b601f8111610c13575b50602090601f8311600114610ba65792610b8c83600195946020948796600092610b9b5750506117eb565b87555b0194019101909261096b565b015190508f8061037e565b90601f1983169187600052816000209260005b818110610bfb5750936020936001969387969383889510610be2575b505050811b018755610b8f565b015160001960f88460031b161c191690558e8080610bd5565b92936020600181928786015181550195019301610bb9565b610c3f90876000526020600020601f850160051c810191602086106104de57601f0160051c01906117d4565b8b610b61565b8360005282602060002091820191015b818110610c62575061095c565b80610c6f60019254611685565b80610c7c575b5001610c55565b601f81118314610c925750600081555b8b610c75565b610cb0908260005283601f6020600020920160051c820191016117d4565b8060005260006020812081835555610c8c565b90508601518b61089a565b601f1982169083600052806000209160005b818110610d1a57509083600194939210610d01575b5050811b01905561093d565b87015160001960f88460031b161c191690558a80610cf5565b9192602060018192868c015181550194019201610ce0565b610d5e90836000526020600020601f840160051c810191602085106104de57601f0160051c01906117d4565b89610919565b015190508b8061037e565b90601f1983169184600052816000209260005b818110610dbe5750908460019594939210610da5575b505050811b0190556108f1565b015160001960f88460031b161c191690558a8080610d98565b92936020600181928786015181550195019301610d82565b610e0290846000526020600020601f850160051c810191602086106104de57601f0160051c01906117d4565b8a6108cb565b90508801518b61089a565b601f198216908a600052806000209160005b8a828210610e615750509083600194939210610e48575b5050811b0188556108a3565b89015160001960f88460031b161c191690558a80610e3c565b60018495602093958493015181550194019201610e25565b610ea5908a6000526020600020601f840160051c810191602085106104de57601f0160051c01906117d4565b8961087e565b60405162461bcd60e51b815260206004820152601c60248201527b50726f6a65637420747970652063616e6e6f7420626520656d70747960201b6044820152606490fd5b60405162461bcd60e51b815260206004820152601d60248201527f54656d706c617465206e616d652063616e6e6f7420626520656d7074790000006044820152606490fd5b83356001600160401b03811161023457602091610f588392602436918701016115f5565b8152019301926107f2565b346102345760203660031901126102345760043560005481101561023457610f8d610fe59161164b565b50610f97816116bf565b90610fa4600182016116bf565b61100f610fb3600284016116bf565b611001610fc2600586016116bf565b91610ff36007600688015497015495604051998a9960e08b5260e08b01906114d1565b9089820360208b01526114d1565b9087820360408901526114d1565b9085820360608701526114d1565b60ff83161515608085015260089290921c6001600160a01b031660a084015260c08301520390f35b34610234576020366003190112610234576004356001600160401b03811161023457602061106c61107f9236906004016115f5565b81604051938285809451938492016114ae565b8101600181520301902060405190816020825491828152019160005260206000209060005b8181106110c757610175856110bb818703826115d2565b6040519182918261154f565b82548452602090930192600192830192016110a4565b34610234576040366003190112610234576004356001600160a01b0381169081900361023457602435906000526002602052604060002080548210156102345760209161071a91611589565b346102345760003660031901126102345760005461114681611763565b9061115460405192836115d2565b808252601f1961116382611763565b0136602084013760005b8181106111825760405180610175858261154f565b8080611190600193866117c0565b520161116d565b34610234576000366003190112610234576020600054604051908152f35b34610234576020366003190112610234576111d96004356100ba600054821061177a565b506040519061012082016001600160401b038111838210176104e857604052611201816116bf565b825261120f600182016116bf565b9060208301918252611223600282016116bf565b92604081019384526003820193845461123b81611763565b9561124960405197886115d2565b818752602087019060005260206000206000915b8383106113be5750505050606082019485526004830194855461127f81611763565b9061128d60405192836115d2565b80825260208201976000526020600020976000905b8282106113625761132089896113588a61134a8b61133c8c8c608086015261132e6112cf600589016116bf565b958660a0820152600760068a01549960ff8b1615159a8b60c085015260018060a01b039060081c1660e0840152015461010082015251985193519151936040519a8b9a60c08c5260c08c01906114d1565b908a820360208c01526114d1565b9088820360408a01526114d1565b9086820360608801526114f6565b9084820360808601526114d1565b9060a08301520390f35b600460206001928c6113ab60036040519261137c846115b7565b611385816116bf565b84526113928882016116bf565b8685015260ff60028201541615156040850152016116bf565b60608201528152019a01910190986112a2565b6001602081926113cd856116bf565b81520192019201919061125d565b34610234576020366003190112610234576004356113fc600054821061177a565b6114058161164b565b506006015460081c6001600160a01b0316330361145d5760066114278261164b565b500160ff1981541690557f7207c44586dc0a66684a1bcea62a6cf5b1e7e6365b0f6de987db6c32bd50cec56020604051428152a2005b60405162461bcd60e51b8152602060048201526024808201527f4f6e6c792074656d706c6174652063726561746f722063616e206465616374696044820152637661746560e01b6064820152608490fd5b60005b8381106114c15750506000910152565b81810151838201526020016114b1565b906020916114ea815180928185528580860191016114ae565b601f01601f1916010190565b9080602083519182815201916020808360051b8301019401926000915b83831061152257505050505090565b9091929394602080611540600193601f1986820301875289516114d1565b97019301930191939290611513565b602060408183019282815284518094520192019060005b8181106115735750505090565b8251845260209384019390920191600101611566565b80548210156115a15760005260206000200190600090565b634e487b7160e01b600052603260045260246000fd5b608081019081106001600160401b038211176104e857604052565b601f909101601f19168101906001600160401b038211908210176104e857604052565b81601f82011215610234578035906001600160401b0382116104e85760405192611629601f8401601f1916602001856115d2565b8284526020838301011161023457816000926020809301838601378301015290565b6000548110156115a157600080805260039190911b7f290decd9548b62a8d60345a988386fc84ba6bc95484008f6362f93160ef3e5630191565b90600182811c921680156116b5575b602083101461169f57565b634e487b7160e01b600052602260045260246000fd5b91607f1691611694565b90604051918260008254926116d384611685565b808452936001811690811561174157506001146116fa575b506116f8925003836115d2565b565b90506000929192526020600020906000915b8183106117255750509060206116f892820101386116eb565b602091935080600191548385890101520191019091849261170c565b9050602092506116f894915060ff191682840152151560051b820101386116eb565b6001600160401b0381116104e85760051b60200190565b1561178157565b60405162461bcd60e51b815260206004820152601760248201527615195b5c1b185d1948191bd95cc81b9bdd08195e1a5cdd604a1b6044820152606490fd5b80518210156115a15760209160051b010190565b8181106117df575050565b600081556001016117d4565b8160011b916000199060031b1c19161790565b8054600160401b8110156104e85761181b91600182018155611589565b819291549060031b91821b91600019901b1916179055565b80548210156115a15760005260206000209060021b0190600090565b9061185982611763565b61186660405191826115d2565b8281528092611877601f1991611763565b019060005b82811061188857505050565b80606060208093850101520161187c56fed2079278fcb22234a7956bcc5eb65ad7662583e56aa048fa17163cfa522af8d3a264697066735822122089c7978ef8462e538ba070809618f693b17798c60e58f46cb23d11b2b637ff3064736f6c634300081c0033d2079278fcb22234a7956bcc5eb65ad7662583e56aa048fa17163cfa522af8d372657365617263685f636f6c6c61626f726174696f6e00000000000000000000","opcodes":"PUSH1 0x80 PUSH1 0x40 MSTORE CALLVALUE PUSH2 0x1CF2 JUMPI PUSH2 0x11 PUSH2 0x1D3B JUMP JUMPDEST PUSH2 0x1B PUSH1 0x40 PUSH2 0x1D16 JUMP JUMPDEST PUSH1 0xA DUP2 MSTORE PUSH10 0x3230BA30AFB7BBB732B9 PUSH1 0xB1 SHL PUSH1 0x20 DUP3 ADD MSTORE PUSH2 0x3B DUP3 PUSH2 0x1D71 JUMP JUMPDEST MSTORE PUSH2 0x45 DUP2 PUSH2 0x1D71 JUMP JUMPDEST POP PUSH2 0x50 PUSH1 0x40 PUSH2 0x1D16 JUMP JUMPDEST PUSH1 0xA DUP2 MSTORE PUSH10 0x30B3B3B932B3B0BA37B9 PUSH1 0xB1 SHL PUSH1 0x20 DUP3 ADD MSTORE PUSH2 0x70 DUP3 PUSH2 0x1D94 JUMP JUMPDEST MSTORE PUSH2 0x7A DUP2 PUSH2 0x1D94 JUMP JUMPDEST POP PUSH2 0x85 PUSH1 0x40 PUSH2 0x1D16 JUMP JUMPDEST PUSH1 0xB DUP2 MSTORE PUSH11 0x31B7B7B93234B730BA37B9 PUSH1 0xA9 SHL PUSH1 0x20 DUP3 ADD MSTORE PUSH2 0xA6 DUP3 PUSH2 0x1DA4 JUMP JUMPDEST MSTORE PUSH2 0xB0 DUP2 PUSH2 0x1DA4 JUMP JUMPDEST POP PUSH2 0xBC PUSH2 0x200 PUSH2 0x1D16 JUMP JUMPDEST SWAP1 PUSH2 0x1DC DUP3 MSTORE PUSH32 0x7B2270726F6A6563745F6964223A22666C2D63616E6365722D73747564792D30 PUSH1 0x20 DUP4 ADD MSTORE PUSH32 0x31222C2274797065223A226665646572617465645F6C6561726E696E67222C22 PUSH1 0x40 DUP4 ADD MSTORE PUSH32 0x6F626A656374697665223A2243616E636572207374756479204149222C22726F PUSH1 0x60 DUP4 ADD MSTORE PUSH32 0x6C6573223A5B22646174615F6F776E6572222C2261676772656761746F72222C PUSH1 0x80 DUP4 ADD MSTORE PUSH32 0x22636F6F7264696E61746F72225D2C227061727469636970616E7473223A5B7B PUSH1 0xA0 DUP4 ADD MSTORE PUSH32 0x226964223A223078414243222C22726F6C65223A22646174615F6F776E657222 PUSH1 0xC0 DUP4 ADD MSTORE PUSH32 0x7D2C7B226964223A223078444546222C22726F6C65223A226167677265676174 PUSH1 0xE0 DUP4 ADD MSTORE PUSH32 0x6F72227D5D2C22617373657473223A7B226461746173657473223A5B22307848 PUSH2 0x100 DUP4 ADD MSTORE PUSH32 0x494A222C2230784C4D4E225D2C2273637269707473223A5B2230784F5051225D PUSH2 0x120 DUP4 ADD MSTORE PUSH32 0x7D2C22776F726B666C6F77223A7B227374657073223A5B7B2273746570223A22 PUSH2 0x140 DUP4 ADD MSTORE PUSH32 0x6C6F63616C5F747261696E696E67222C226578656375746F72223A2230784142 PUSH2 0x160 DUP4 ADD MSTORE PUSH32 0x43227D2C7B2273746570223A226167677265676174696F6E222C226578656375 PUSH2 0x180 DUP4 ADD MSTORE PUSH32 0x746F72223A223078444546227D5D7D2C22706F6C6963696573223A7B22616363 PUSH2 0x1A0 DUP4 ADD MSTORE PUSH32 0x657373223A7B223078444546223A5B22766965775F726573756C7473225D2C22 PUSH2 0x1C0 DUP4 ADD MSTORE PUSH32 0x3078414243223A5B22657865637574655F737465705F31225D7D7D7D00000000 PUSH2 0x1E0 DUP4 ADD MSTORE PUSH1 0x0 SLOAD SWAP1 PUSH2 0x310 PUSH2 0x1DEE JUMP JUMPDEST POP POP PUSH2 0x31B DUP3 PUSH2 0x1DB4 JUMP JUMPDEST POP SWAP1 PUSH2 0x330 PUSH2 0x32A DUP4 SLOAD PUSH2 0x1E3A JUMP JUMPDEST DUP4 PUSH2 0x1E8B JUMP JUMPDEST PUSH32 0x466564657261746564204C6561726E696E670000000000000000000000000024 DUP3 SSTORE PUSH1 0x1 DUP3 ADD DUP1 SLOAD PUSH2 0x362 SWAP1 PUSH2 0x1E3A JUMP JUMPDEST PUSH1 0x1F DUP2 GT PUSH2 0x1CCD JUMPI JUMPDEST POP PUSH1 0x7B DUP2 SSTORE PUSH1 0x0 MSTORE PUSH32 0x6865726520646174612072656D61696E73206469737472696275746564000000 PUSH1 0x1 PUSH1 0x20 PUSH1 0x0 KECCAK256 PUSH32 0x436F6C6C61626F726174697665206D616368696E65206C6561726E696E672077 DUP2 SSTORE ADD SSTORE PUSH1 0x2 DUP3 ADD PUSH2 0x3D7 PUSH2 0x3D1 DUP3 SLOAD PUSH2 0x1E3A JUMP JUMPDEST DUP3 PUSH2 0x1E8B JUMP JUMPDEST PUSH32 0x6665646572617465645F6C6561726E696E670000000000000000000000000024 SWAP1 SSTORE DUP1 MLOAD PUSH1 0x3 DUP4 ADD SWAP2 PUSH9 0x10000000000000000 DUP3 GT PUSH2 0x1795 JUMPI DUP3 SLOAD DUP3 DUP5 SSTORE DUP1 DUP4 LT PUSH2 0x1C4F JUMPI JUMPDEST POP PUSH1 0x20 ADD SWAP2 PUSH1 0x0 MSTORE PUSH1 0x20 PUSH1 0x0 KECCAK256 SWAP2 PUSH1 0x0 SWAP1 JUMPDEST DUP3 DUP3 LT PUSH2 0x1B88 JUMPI POP POP DUP5 MLOAD PUSH1 0x5 DUP5 ADD SWAP3 POP SWAP1 POP PUSH1 0x1 PUSH1 0x1 PUSH1 0x40 SHL SUB DUP2 GT PUSH2 0x1795 JUMPI PUSH2 0x465 DUP2 PUSH2 0x45F DUP5 SLOAD PUSH2 0x1E3A JUMP JUMPDEST DUP5 PUSH2 0x1EB5 JUMP JUMPDEST PUSH1 0x20 PUSH1 0x1F DUP3 GT PUSH1 0x1 EQ PUSH2 0x1B1A JUMPI DUP2 PUSH1 0x4 SWAP5 SWAP4 SWAP3 PUSH2 0x490 SWAP3 PUSH2 0x893 SWAP8 SWAP9 PUSH1 0x0 SWAP3 PUSH2 0x1937 JUMPI JUMPDEST POP POP PUSH2 0x1EFA JUMP JUMPDEST SWAP1 SSTORE JUMPDEST PUSH2 0x4AC PUSH1 0x6 DUP3 ADD PUSH1 0x1 PUSH1 0xFF NOT DUP3 SLOAD AND OR DUP2 SSTORE ADDRESS SWAP1 PUSH2 0x1F0D JUMP JUMPDEST TIMESTAMP PUSH1 0x7 DUP3 ADD SSTORE ADD PUSH2 0x523 PUSH2 0x4BE PUSH2 0x1CF7 JUMP JUMPDEST PUSH2 0x4C8 PUSH1 0x40 PUSH2 0x1D16 JUMP JUMPDEST PUSH1 0xA DUP2 MSTORE PUSH10 0x1C1C9BDA9958DD17DA59 PUSH1 0xB2 SHL PUSH1 0x20 DUP3 ADD MSTORE DUP2 MSTORE PUSH2 0x4EB PUSH1 0x40 PUSH2 0x1D16 JUMP JUMPDEST PUSH1 0x6 DUP2 MSTORE PUSH6 0x737472696E67 PUSH1 0xD0 SHL PUSH1 0x20 DUP3 ADD MSTORE PUSH1 0x20 DUP3 ADD MSTORE PUSH1 0x1 PUSH1 0x40 DUP3 ADD MSTORE PUSH2 0x514 PUSH1 0x20 PUSH2 0x1D16 JUMP JUMPDEST PUSH1 0x0 DUP2 MSTORE PUSH1 0x60 DUP3 ADD MSTORE DUP3 PUSH2 0x1F32 JUMP JUMPDEST PUSH2 0x5A8 PUSH2 0x52E PUSH2 0x1CF7 JUMP JUMPDEST PUSH2 0x538 PUSH1 0x40 PUSH2 0x1D16 JUMP JUMPDEST PUSH1 0x4 DUP2 MSTORE PUSH4 0x74797065 PUSH1 0xE0 SHL PUSH1 0x20 DUP3 ADD MSTORE DUP2 MSTORE PUSH2 0x555 PUSH1 0x40 PUSH2 0x1D16 JUMP JUMPDEST PUSH1 0x6 DUP2 MSTORE PUSH6 0x737472696E67 PUSH1 0xD0 SHL PUSH1 0x20 DUP3 ADD MSTORE PUSH1 0x20 DUP3 ADD MSTORE PUSH1 0x1 PUSH1 0x40 DUP3 ADD MSTORE PUSH2 0x57E PUSH1 0x40 PUSH2 0x1D16 JUMP JUMPDEST PUSH1 0x12 DUP2 MSTORE PUSH18 0x6665646572617465645F6C6561726E696E67 PUSH1 0x70 SHL PUSH1 0x20 DUP3 ADD MSTORE PUSH1 0x60 DUP3 ADD MSTORE DUP3 PUSH2 0x1F32 JUMP JUMPDEST PUSH2 0x5DF PUSH2 0x5B3 PUSH2 0x1CF7 JUMP JUMPDEST PUSH2 0x5BD PUSH1 0x40 PUSH2 0x1D16 JUMP JUMPDEST PUSH1 0x9 DUP2 MSTORE PUSH9 0x6F626A656374697665 PUSH1 0xB8 SHL PUSH1 0x20 DUP3 ADD MSTORE DUP2 MSTORE PUSH2 0x4EB PUSH1 0x40 PUSH2 0x1D16 JUMP JUMPDEST PUSH2 0x681 PUSH2 0x5EA PUSH2 0x1CF7 JUMP JUMPDEST PUSH2 0x5F4 PUSH1 0x40 PUSH2 0x1D16 JUMP JUMPDEST PUSH1 0x5 DUP2 MSTORE PUSH5 0x726F6C6573 PUSH1 0xD8 SHL PUSH1 0x20 DUP3 ADD MSTORE DUP2 MSTORE PUSH2 0x612 PUSH1 0x40 PUSH2 0x1D16 JUMP JUMPDEST PUSH1 0x5 DUP2 MSTORE PUSH5 0x6172726179 PUSH1 0xD8 SHL PUSH1 0x20 DUP3 ADD MSTORE PUSH1 0x20 DUP3 ADD MSTORE PUSH1 0x1 PUSH1 0x40 DUP3 ADD MSTORE PUSH2 0x63A PUSH1 0x60 PUSH2 0x1D16 JUMP JUMPDEST PUSH1 0x29 DUP2 MSTORE PUSH32 0x5B22646174615F6F776E6572222C2261676772656761746F72222C22636F6F72 PUSH1 0x20 DUP3 ADD MSTORE PUSH9 0x64696E61746F72225D PUSH1 0xB8 SHL PUSH1 0x40 DUP3 ADD MSTORE PUSH1 0x60 DUP3 ADD MSTORE DUP3 PUSH2 0x1F32 JUMP JUMPDEST PUSH2 0x6FD PUSH2 0x68C PUSH2 0x1CF7 JUMP JUMPDEST PUSH2 0x696 PUSH1 0x40 PUSH2 0x1D16 JUMP JUMPDEST PUSH1 0xC DUP2 MSTORE PUSH12 0x7061727469636970616E7473 PUSH1 0xA0 SHL PUSH1 0x20 DUP3 ADD MSTORE DUP2 MSTORE PUSH2 0x6BB PUSH1 0x40 PUSH2 0x1D16 JUMP JUMPDEST PUSH1 0x5 DUP2 MSTORE PUSH5 0x6172726179 PUSH1 0xD8 SHL PUSH1 0x20 DUP3 ADD MSTORE PUSH1 0x20 DUP3 ADD MSTORE PUSH1 0x1 PUSH1 0x40 DUP3 ADD MSTORE PUSH2 0x6E3 PUSH1 0x40 PUSH2 0x1D16 JUMP JUMPDEST PUSH1 0x2 DUP2 MSTORE PUSH2 0x5B5D PUSH1 0xF0 SHL PUSH1 0x20 DUP3 ADD MSTORE PUSH1 0x60 DUP3 ADD MSTORE DUP3 PUSH2 0x1F32 JUMP JUMPDEST PUSH2 0x78F PUSH2 0x708 PUSH2 0x1CF7 JUMP JUMPDEST PUSH2 0x712 PUSH1 0x40 PUSH2 0x1D16 JUMP JUMPDEST PUSH1 0x6 DUP2 MSTORE PUSH6 0x617373657473 PUSH1 0xD0 SHL PUSH1 0x20 DUP3 ADD MSTORE DUP2 MSTORE PUSH2 0x731 PUSH1 0x40 PUSH2 0x1D16 JUMP JUMPDEST PUSH1 0x6 DUP2 MSTORE PUSH6 0x1BD89A9958DD PUSH1 0xD2 SHL PUSH1 0x20 DUP3 ADD MSTORE PUSH1 0x20 DUP3 ADD MSTORE PUSH1 0x1 PUSH1 0x40 DUP3 ADD MSTORE PUSH2 0x75A PUSH1 0x40 PUSH2 0x1D16 JUMP JUMPDEST PUSH1 0x1C DUP2 MSTORE PUSH32 0x7B226461746173657473223A5B5D2C2273637269707473223A5B5D7D00000000 PUSH1 0x20 DUP3 ADD MSTORE PUSH1 0x60 DUP3 ADD MSTORE DUP3 PUSH2 0x1F32 JUMP JUMPDEST PUSH2 0x812 PUSH2 0x79A PUSH2 0x1CF7 JUMP JUMPDEST PUSH2 0x7A4 PUSH1 0x40 PUSH2 0x1D16 JUMP JUMPDEST PUSH1 0x8 DUP2 MSTORE PUSH8 0x776F726B666C6F77 PUSH1 0xC0 SHL PUSH1 0x20 DUP3 ADD MSTORE DUP2 MSTORE PUSH2 0x7C5 PUSH1 0x40 PUSH2 0x1D16 JUMP JUMPDEST PUSH1 0x6 DUP2 MSTORE PUSH6 0x1BD89A9958DD PUSH1 0xD2 SHL PUSH1 0x20 DUP3 ADD MSTORE PUSH1 0x20 DUP3 ADD MSTORE PUSH1 0x1 PUSH1 0x40 DUP3 ADD MSTORE PUSH2 0x7EE PUSH1 0x40 PUSH2 0x1D16 JUMP JUMPDEST PUSH1 0xC DUP2 MSTORE PUSH12 0x7B227374657073223A5B5D7D PUSH1 0xA0 SHL PUSH1 0x20 DUP3 ADD MSTORE PUSH1 0x60 DUP3 ADD MSTORE DUP3 PUSH2 0x1F32 JUMP JUMPDEST PUSH2 0x81A PUSH2 0x1CF7 JUMP JUMPDEST SWAP1 PUSH2 0x825 PUSH1 0x40 PUSH2 0x1D16 JUMP JUMPDEST PUSH1 0x8 DUP2 MSTORE PUSH8 0x706F6C6963696573 PUSH1 0xC0 SHL PUSH1 0x20 DUP3 ADD MSTORE DUP3 MSTORE PUSH2 0x846 PUSH1 0x40 PUSH2 0x1D16 JUMP JUMPDEST PUSH1 0x6 DUP2 MSTORE PUSH6 0x1BD89A9958DD PUSH1 0xD2 SHL PUSH1 0x20 DUP3 ADD MSTORE PUSH1 0x20 DUP4 ADD MSTORE PUSH1 0x1 PUSH1 0x40 DUP4 ADD MSTORE PUSH2 0x86F PUSH1 0x40 PUSH2 0x1D16 JUMP JUMPDEST PUSH1 0xD DUP2 MSTORE PUSH13 0x7B22616363657373223A7B7D7D PUSH1 0x98 SHL PUSH1 0x20 DUP3 ADD MSTORE PUSH1 0x60 DUP4 ADD MSTORE PUSH2 0x1F32 JUMP JUMPDEST PUSH2 0x8C1 DUP2 PUSH1 0x32 PUSH1 0x40 MLOAD PUSH18 0x6665646572617465645F6C6561726E696E67 PUSH1 0x70 SHL DUP2 MSTORE PUSH1 0x1 PUSH1 0x12 DUP3 ADD MSTORE KECCAK256 PUSH2 0x2197 JUMP JUMPDEST ADDRESS PUSH1 0x0 MSTORE PUSH1 0x2 PUSH1 0x20 MSTORE PUSH2 0x8D8 DUP2 PUSH1 0x40 PUSH1 0x0 KECCAK256 PUSH2 0x2197 JUMP JUMPDEST PUSH1 0x40 MLOAD SWAP1 PUSH1 0x60 DUP3 MSTORE PUSH1 0x12 PUSH1 0x60 DUP4 ADD MSTORE PUSH18 0x466564657261746564204C6561726E696E67 PUSH1 0x70 SHL PUSH1 0x80 DUP4 ADD MSTORE PUSH1 0xA0 PUSH1 0x20 DUP4 ADD MSTORE PUSH1 0x12 PUSH1 0xA0 DUP4 ADD MSTORE PUSH18 0x6665646572617465645F6C6561726E696E67 PUSH1 0x70 SHL PUSH1 0xC0 DUP4 ADD MSTORE TIMESTAMP PUSH1 0x40 DUP4 ADD MSTORE PUSH1 0x0 DUP1 MLOAD PUSH1 0x20 PUSH2 0x3AB5 DUP4 CODECOPY DUP2 MLOAD SWAP2 MSTORE PUSH1 0xE0 ADDRESS SWAP4 LOG3 PUSH2 0x94D PUSH2 0x1D3B JUMP JUMPDEST PUSH2 0x957 PUSH1 0x40 PUSH2 0x1D16 JUMP JUMPDEST PUSH1 0xA DUP2 MSTORE PUSH10 0x3932B9B2B0B931B432B9 PUSH1 0xB1 SHL PUSH1 0x20 DUP3 ADD MSTORE PUSH2 0x977 DUP3 PUSH2 0x1D71 JUMP JUMPDEST MSTORE PUSH2 0x981 DUP2 PUSH2 0x1D71 JUMP JUMPDEST POP PUSH2 0x98C PUSH1 0x40 PUSH2 0x1D16 JUMP JUMPDEST PUSH1 0x8 DUP2 MSTORE PUSH8 0x3932BB34B2BBB2B9 PUSH1 0xC1 SHL PUSH1 0x20 DUP3 ADD MSTORE PUSH2 0x9AA DUP3 PUSH2 0x1D94 JUMP JUMPDEST MSTORE PUSH2 0x9B4 DUP2 PUSH2 0x1D94 JUMP JUMPDEST POP PUSH2 0x9BF PUSH1 0x40 PUSH2 0x1D16 JUMP JUMPDEST PUSH1 0xB DUP2 MSTORE PUSH11 0x31B7B7B93234B730BA37B9 PUSH1 0xA9 SHL PUSH1 0x20 DUP3 ADD MSTORE PUSH2 0x9E0 DUP3 PUSH2 0x1DA4 JUMP JUMPDEST MSTORE PUSH2 0x9EA DUP2 PUSH2 0x1DA4 JUMP JUMPDEST POP PUSH2 0x9F6 PUSH2 0x1A0 PUSH2 0x1D16 JUMP JUMPDEST SWAP1 PUSH2 0x17F DUP3 MSTORE PUSH32 0x7B2270726F6A6563745F6964223A2272657365617263682D636F6C6C61622D30 PUSH1 0x20 DUP4 ADD MSTORE PUSH32 0x31222C2274797065223A2272657365617263685F636F6C6C61626F726174696F PUSH1 0x40 DUP4 ADD MSTORE PUSH32 0x6E222C226F626A656374697665223A22436C696D617465206368616E67652072 PUSH1 0x60 DUP4 ADD MSTORE PUSH32 0x65736561726368222C22726F6C6573223A5B2272657365617263686572222C22 PUSH1 0x80 DUP4 ADD MSTORE PUSH32 0x7265766965776572222C22636F6F7264696E61746F72225D2C22706172746963 PUSH1 0xA0 DUP4 ADD MSTORE PUSH32 0x6970616E7473223A5B7B226964223A223078414243222C22726F6C65223A2272 PUSH1 0xC0 DUP4 ADD MSTORE PUSH32 0x657365617263686572227D2C7B226964223A223078444546222C22726F6C6522 PUSH1 0xE0 DUP4 ADD MSTORE PUSH32 0x3A227265766965776572227D5D2C2272657365617263685F6172656173223A5B PUSH2 0x100 DUP4 ADD MSTORE PUSH32 0x22636C696D617465222C22656E7669726F6E6D656E74225D2C227075626C6963 PUSH2 0x120 DUP4 ADD MSTORE PUSH32 0x6174696F6E73223A5B5D2C226D696C6573746F6E6573223A5B7B226E616D6522 PUSH2 0x140 DUP4 ADD MSTORE PUSH32 0x3A224461746120636F6C6C656374696F6E222C22646561646C696E65223A2232 PUSH2 0x160 DUP4 ADD MSTORE PUSH32 0x3032352D31322D3331222C22636F6D706C65746564223A66616C73657D5D7D00 PUSH2 0x180 DUP4 ADD MSTORE PUSH1 0x0 SLOAD SWAP1 PUSH2 0xBD5 PUSH2 0x1DEE JUMP JUMPDEST POP POP PUSH2 0xBE0 DUP3 PUSH2 0x1DB4 JUMP JUMPDEST POP SWAP1 PUSH2 0xBEF PUSH2 0x32A DUP4 SLOAD PUSH2 0x1E3A JUMP JUMPDEST PUSH32 0x526573656172636820436F6C6C61626F726174696F6E0000000000000000002C DUP3 SSTORE PUSH1 0x1 DUP3 ADD DUP1 SLOAD PUSH2 0xC21 SWAP1 PUSH2 0x1E3A JUMP JUMPDEST PUSH1 0x1F DUP2 GT PUSH2 0x1AF5 JUMPI JUMPDEST POP PUSH1 0x59 DUP2 SSTORE PUSH1 0x0 MSTORE PUSH12 0x696F6E20706C6174666F726D PUSH1 0xA0 SHL PUSH1 0x1 PUSH1 0x20 PUSH1 0x0 KECCAK256 PUSH32 0x41636164656D696320616E6420726573656172636820636F6C6C61626F726174 DUP2 SSTORE ADD SSTORE PUSH1 0x2 DUP3 ADD PUSH2 0xC7F PUSH2 0x3D1 DUP3 SLOAD PUSH2 0x1E3A JUMP JUMPDEST PUSH32 0x72657365617263685F636F6C6C61626F726174696F6E0000000000000000002C SWAP1 SSTORE DUP1 MLOAD PUSH1 0x3 DUP4 ADD SWAP2 PUSH9 0x10000000000000000 DUP3 GT PUSH2 0x1795 JUMPI DUP3 SLOAD DUP3 DUP5 SSTORE DUP1 DUP4 LT PUSH2 0x1A77 JUMPI JUMPDEST POP PUSH1 0x20 ADD SWAP2 PUSH1 0x0 MSTORE PUSH1 0x20 PUSH1 0x0 KECCAK256 SWAP2 PUSH1 0x0 SWAP1 JUMPDEST DUP3 DUP3 LT PUSH2 0x19B0 JUMPI POP POP DUP5 MLOAD PUSH1 0x5 DUP5 ADD SWAP3 POP SWAP1 POP PUSH1 0x1 PUSH1 0x1 PUSH1 0x40 SHL SUB DUP2 GT PUSH2 0x1795 JUMPI PUSH2 0xD07 DUP2 PUSH2 0x45F DUP5 SLOAD PUSH2 0x1E3A JUMP JUMPDEST PUSH1 0x20 PUSH1 0x1F DUP3 GT PUSH1 0x1 EQ PUSH2 0x1942 JUMPI DUP2 PUSH1 0x4 SWAP5 SWAP4 SWAP3 PUSH2 0xD31 SWAP3 PUSH2 0xFA8 SWAP8 SWAP9 PUSH1 0x0 SWAP3 PUSH2 0x1937 JUMPI POP POP PUSH2 0x1EFA JUMP JUMPDEST SWAP1 SSTORE JUMPDEST PUSH2 0xD4D PUSH1 0x6 DUP3 ADD PUSH1 0x1 PUSH1 0xFF NOT DUP3 SLOAD AND OR DUP2 SSTORE ADDRESS SWAP1 PUSH2 0x1F0D JUMP JUMPDEST TIMESTAMP PUSH1 0x7 DUP3 ADD SSTORE ADD PUSH2 0xD5F PUSH2 0x4BE PUSH2 0x1CF7 JUMP JUMPDEST PUSH2 0xDDD PUSH2 0xD6A PUSH2 0x1CF7 JUMP JUMPDEST PUSH2 0xD74 PUSH1 0x40 PUSH2 0x1D16 JUMP JUMPDEST PUSH1 0x4 DUP2 MSTORE PUSH4 0x74797065 PUSH1 0xE0 SHL PUSH1 0x20 DUP3 ADD MSTORE DUP2 MSTORE PUSH2 0xD91 PUSH1 0x40 PUSH2 0x1D16 JUMP JUMPDEST PUSH1 0x6 DUP2 MSTORE PUSH6 0x737472696E67 PUSH1 0xD0 SHL PUSH1 0x20 DUP3 ADD MSTORE PUSH1 0x20 DUP3 ADD MSTORE PUSH1 0x1 PUSH1 0x40 DUP3 ADD MSTORE PUSH2 0xDBA PUSH1 0x40 PUSH2 0x1D16 JUMP JUMPDEST PUSH1 0x16 DUP2 MSTORE PUSH1 0x0 DUP1 MLOAD PUSH1 0x20 PUSH2 0x3AD5 DUP4 CODECOPY DUP2 MLOAD SWAP2 MSTORE PUSH1 0x20 DUP3 ADD MSTORE PUSH1 0x60 DUP3 ADD MSTORE DUP3 PUSH2 0x1F32 JUMP JUMPDEST PUSH2 0xDE8 PUSH2 0x5B3 PUSH2 0x1CF7 JUMP JUMPDEST PUSH2 0xE88 PUSH2 0xDF3 PUSH2 0x1CF7 JUMP JUMPDEST PUSH2 0xDFD PUSH1 0x40 PUSH2 0x1D16 JUMP JUMPDEST PUSH1 0x5 DUP2 MSTORE PUSH5 0x726F6C6573 PUSH1 0xD8 SHL PUSH1 0x20 DUP3 ADD MSTORE DUP2 MSTORE PUSH2 0xE1B PUSH1 0x40 PUSH2 0x1D16 JUMP JUMPDEST PUSH1 0x5 DUP2 MSTORE PUSH5 0x6172726179 PUSH1 0xD8 SHL PUSH1 0x20 DUP3 ADD MSTORE PUSH1 0x20 DUP3 ADD MSTORE PUSH1 0x1 PUSH1 0x40 DUP3 ADD MSTORE PUSH2 0xE43 PUSH1 0x60 PUSH2 0x1D16 JUMP JUMPDEST PUSH1 0x27 DUP2 MSTORE PUSH32 0x5B2272657365617263686572222C227265766965776572222C22636F6F726469 PUSH1 0x20 DUP3 ADD MSTORE PUSH7 0x6E61746F72225D PUSH1 0xC8 SHL PUSH1 0x40 DUP3 ADD MSTORE PUSH1 0x60 DUP3 ADD MSTORE DUP3 PUSH2 0x1F32 JUMP JUMPDEST PUSH2 0xE93 PUSH2 0x68C PUSH2 0x1CF7 JUMP JUMPDEST PUSH2 0xECF PUSH2 0xE9E PUSH2 0x1CF7 JUMP JUMPDEST PUSH2 0xEA8 PUSH1 0x40 PUSH2 0x1D16 JUMP JUMPDEST PUSH1 0xE DUP2 MSTORE PUSH14 0x72657365617263685F6172656173 PUSH1 0x90 SHL PUSH1 0x20 DUP3 ADD MSTORE DUP2 MSTORE PUSH2 0x6BB PUSH1 0x40 PUSH2 0x1D16 JUMP JUMPDEST PUSH2 0xF31 PUSH2 0xEDA PUSH2 0x1CF7 JUMP JUMPDEST PUSH2 0xEE4 PUSH1 0x40 PUSH2 0x1D16 JUMP JUMPDEST PUSH1 0xC DUP2 MSTORE PUSH12 0x7075626C69636174696F6E73 PUSH1 0xA0 SHL PUSH1 0x20 DUP3 ADD MSTORE DUP2 MSTORE PUSH2 0xF09 PUSH1 0x40 PUSH2 0x1D16 JUMP JUMPDEST PUSH1 0x5 DUP2 MSTORE PUSH5 0x6172726179 PUSH1 0xD8 SHL PUSH1 0x20 DUP3 ADD MSTORE PUSH1 0x20 DUP3 ADD MSTORE PUSH1 0x0 PUSH1 0x40 DUP3 ADD MSTORE PUSH2 0x6E3 PUSH1 0x40 PUSH2 0x1D16 JUMP JUMPDEST PUSH2 0xF39 PUSH2 0x1CF7 JUMP JUMPDEST SWAP1 PUSH2 0xF44 PUSH1 0x40 PUSH2 0x1D16 JUMP JUMPDEST PUSH1 0xA DUP2 MSTORE PUSH10 0x6D696C6573746F6E6573 PUSH1 0xB0 SHL PUSH1 0x20 DUP3 ADD MSTORE DUP3 MSTORE PUSH2 0xF67 PUSH1 0x40 PUSH2 0x1D16 JUMP JUMPDEST PUSH1 0x5 DUP2 MSTORE PUSH5 0x6172726179 PUSH1 0xD8 SHL PUSH1 0x20 DUP3 ADD MSTORE PUSH1 0x20 DUP4 ADD MSTORE PUSH1 0x0 PUSH1 0x40 DUP4 ADD MSTORE PUSH2 0xF8F PUSH1 0x40 PUSH2 0x1D16 JUMP JUMPDEST PUSH1 0x2 DUP2 MSTORE PUSH2 0x5B5D PUSH1 0xF0 SHL PUSH1 0x20 DUP3 ADD MSTORE PUSH1 0x60 DUP4 ADD MSTORE PUSH2 0x1F32 JUMP JUMPDEST PUSH2 0xFCF DUP2 PUSH1 0x36 PUSH1 0x40 MLOAD PUSH1 0x0 DUP1 MLOAD PUSH1 0x20 PUSH2 0x3AD5 DUP4 CODECOPY DUP2 MLOAD SWAP2 MSTORE DUP2 MSTORE PUSH1 0x1 PUSH1 0x16 DUP3 ADD MSTORE KECCAK256 PUSH2 0x2197 JUMP JUMPDEST ADDRESS PUSH1 0x0 MSTORE PUSH1 0x2 PUSH1 0x20 MSTORE PUSH2 0xFE6 DUP2 PUSH1 0x40 PUSH1 0x0 KECCAK256 PUSH2 0x2197 JUMP JUMPDEST PUSH1 0x40 MLOAD SWAP1 PUSH1 0x60 DUP3 MSTORE PUSH1 0x16 PUSH1 0x60 DUP4 ADD MSTORE PUSH32 0x526573656172636820436F6C6C61626F726174696F6E00000000000000000000 PUSH1 0x80 DUP4 ADD MSTORE PUSH1 0xA0 PUSH1 0x20 DUP4 ADD MSTORE PUSH1 0x16 PUSH1 0xA0 DUP4 ADD MSTORE PUSH1 0x0 DUP1 MLOAD PUSH1 0x20 PUSH2 0x3AD5 DUP4 CODECOPY DUP2 MLOAD SWAP2 MSTORE PUSH1 0xC0 DUP4 ADD MSTORE TIMESTAMP PUSH1 0x40 DUP4 ADD MSTORE PUSH1 0x0 DUP1 MLOAD PUSH1 0x20 PUSH2 0x3AB5 DUP4 CODECOPY DUP2 MLOAD SWAP2 MSTORE PUSH1 0xE0 ADDRESS SWAP4 LOG3 PUSH1 0x60 PUSH2 0x1062 DUP2 PUSH2 0x1D16 JUMP JUMPDEST PUSH1 0x2 DUP2 MSTORE SWAP1 PUSH1 0x1F NOT ADD PUSH1 0x0 JUMPDEST DUP2 DUP2 LT PUSH2 0x1926 JUMPI DUP3 PUSH2 0x1080 PUSH1 0x40 PUSH2 0x1D16 JUMP JUMPDEST PUSH1 0xB DUP2 MSTORE PUSH11 0x31B7B7B93234B730BA37B9 PUSH1 0xA9 SHL PUSH1 0x20 DUP3 ADD MSTORE PUSH2 0x10A1 DUP3 PUSH2 0x1D71 JUMP JUMPDEST MSTORE PUSH2 0x10AB DUP2 PUSH2 0x1D71 JUMP JUMPDEST POP PUSH2 0x10B6 PUSH1 0x40 PUSH2 0x1D16 JUMP JUMPDEST PUSH1 0xB DUP2 MSTORE PUSH11 0x31B7B73A3934B13ABA37B9 PUSH1 0xA9 SHL PUSH1 0x20 DUP3 ADD MSTORE PUSH2 0x10D7 DUP3 PUSH2 0x1D94 JUMP JUMPDEST MSTORE PUSH2 0x10E1 DUP2 PUSH2 0x1D94 JUMP JUMPDEST POP PUSH2 0x10ED PUSH2 0x220 PUSH2 0x1D16 JUMP JUMPDEST SWAP1 PUSH2 0x1F6 DUP3 MSTORE PUSH32 0x7B2270726F6A6563745F6964223A22616C2D63616E6365722D64657465637469 PUSH1 0x20 DUP4 ADD MSTORE PUSH32 0x6F6E2D3031222C2274797065223A226163746976655F6C6561726E696E67222C PUSH1 0x40 DUP4 ADD MSTORE PUSH32 0x226F626A656374697665223A22416374697665206C6561726E696E6720666F72 PUSH1 0x60 DUP4 ADD MSTORE PUSH32 0x2063616E63657220646574656374696F6E206D6F64656C222C22726F6C657322 PUSH1 0x80 DUP4 ADD MSTORE PUSH32 0x3A5B22636F6F7264696E61746F72222C22636F6E7472696275746F72225D2C22 PUSH1 0xA0 DUP4 ADD MSTORE PUSH32 0x7061727469636970616E7473223A5B7B226964223A223078414243222C22726F PUSH1 0xC0 DUP4 ADD MSTORE PUSH32 0x6C65223A22636F6F7264696E61746F72227D2C7B226964223A22307844454622 PUSH1 0xE0 DUP4 ADD MSTORE PUSH32 0x2C22726F6C65223A22636F6E7472696275746F72227D5D2C22706F6C69636965 PUSH2 0x100 DUP4 ADD MSTORE PUSH32 0x73223A7B227065726D697373696F6E73223A7B22636F6F7264696E61746F7222 PUSH2 0x120 DUP4 ADD MSTORE PUSH32 0x3A5B226D616E6167655F70726F6A656374222C2273746172745F726F756E6473 PUSH2 0x140 DUP4 ADD MSTORE PUSH32 0x222C22617070726F76655F7061727469636970616E7473222C22766965775F61 PUSH2 0x160 DUP4 ADD MSTORE PUSH32 0x6C6C222C226D6F646966795F73657474696E6773225D2C22636F6E7472696275 PUSH2 0x180 DUP4 ADD MSTORE PUSH32 0x746F72223A5B22766F7465222C22766965775F726573756C7473222C22737562 PUSH2 0x1A0 DUP4 ADD MSTORE PUSH32 0x6D69745F6C6162656C73225D7D2C22766F74696E67223A7B22656E61626C6564 PUSH2 0x1C0 DUP4 ADD MSTORE PUSH32 0x223A747275652C227468726573686F6C64223A302E352C227265766F6361626C PUSH2 0x1E0 DUP4 ADD MSTORE PUSH32 0x655F6279223A22636F6F7264696E61746F72227D7D7D00000000000000000000 PUSH2 0x200 DUP4 ADD MSTORE PUSH1 0x0 SLOAD SWAP1 PUSH2 0x1368 PUSH2 0x1DEE JUMP JUMPDEST POP POP PUSH2 0x1373 DUP3 PUSH2 0x1DB4 JUMP JUMPDEST POP SWAP1 PUSH2 0x1382 PUSH2 0x32A DUP4 SLOAD PUSH2 0x1E3A JUMP JUMPDEST PUSH32 0x416374697665204C6561726E696E67000000000000000000000000000000001E DUP3 SSTORE PUSH1 0x1 DUP3 ADD DUP1 SLOAD PUSH2 0x13B4 SWAP1 PUSH2 0x1E3A JUMP JUMPDEST PUSH1 0x1F DUP2 GT PUSH2 0x1901 JUMPI JUMPDEST POP PUSH1 0x83 DUP2 SSTORE PUSH1 0x0 MSTORE PUSH1 0x67 PUSH1 0xF8 SHL PUSH1 0x2 PUSH1 0x20 PUSH1 0x0 KECCAK256 PUSH32 0x436F6C6C61626F72617469766520616374697665206C6561726E696E6720666F DUP2 SSTORE PUSH32 0x72206D616368696E65206C6561726E696E67206D6F64656C20747261696E696E PUSH1 0x1 DUP3 ADD SSTORE ADD SSTORE PUSH1 0x2 DUP3 ADD PUSH2 0x142D PUSH2 0x3D1 DUP3 SLOAD PUSH2 0x1E3A JUMP JUMPDEST PUSH32 0x6163746976655F6C6561726E696E67000000000000000000000000000000001E SWAP1 SSTORE DUP1 MLOAD PUSH1 0x3 DUP4 ADD SWAP2 PUSH9 0x10000000000000000 DUP3 GT PUSH2 0x1795 JUMPI DUP3 SLOAD DUP3 DUP5 SSTORE DUP1 DUP4 LT PUSH2 0x1883 JUMPI JUMPDEST POP PUSH1 0x20 ADD SWAP2 PUSH1 0x0 MSTORE PUSH1 0x20 PUSH1 0x0 KECCAK256 SWAP2 PUSH1 0x0 SWAP1 JUMPDEST DUP3 DUP3 LT PUSH2 0x17AB JUMPI POP POP DUP5 MLOAD PUSH1 0x5 DUP5 ADD SWAP3 POP SWAP1 POP PUSH1 0x1 PUSH1 0x1 PUSH1 0x40 SHL SUB DUP2 GT PUSH2 0x1795 JUMPI PUSH2 0x14B5 DUP2 PUSH2 0x45F DUP5 SLOAD PUSH2 0x1E3A JUMP JUMPDEST PUSH1 0x20 PUSH1 0x1F DUP3 GT PUSH1 0x1 EQ PUSH2 0x1727 JUMPI DUP2 PUSH1 0x4 SWAP5 SWAP4 SWAP3 PUSH2 0x14DF SWAP3 PUSH2 0x1664 SWAP8 SWAP9 PUSH1 0x0 SWAP3 PUSH2 0x171C JUMPI POP POP PUSH2 0x1EFA JUMP JUMPDEST SWAP1 SSTORE JUMPDEST PUSH2 0x14FB PUSH1 0x6 DUP3 ADD PUSH1 0x1 PUSH1 0xFF NOT DUP3 SLOAD AND OR DUP2 SSTORE ADDRESS SWAP1 PUSH2 0x1F0D JUMP JUMPDEST TIMESTAMP PUSH1 0x7 DUP3 ADD SSTORE ADD PUSH2 0x150D PUSH2 0x4BE PUSH2 0x1CF7 JUMP JUMPDEST PUSH2 0x158F PUSH2 0x1518 PUSH2 0x1CF7 JUMP JUMPDEST PUSH2 0x1522 PUSH1 0x40 PUSH2 0x1D16 JUMP JUMPDEST PUSH1 0x4 DUP2 MSTORE PUSH4 0x74797065 PUSH1 0xE0 SHL PUSH1 0x20 DUP3 ADD MSTORE DUP2 MSTORE PUSH2 0x153F PUSH1 0x40 PUSH2 0x1D16 JUMP JUMPDEST PUSH1 0x6 DUP2 MSTORE PUSH6 0x737472696E67 PUSH1 0xD0 SHL PUSH1 0x20 DUP3 ADD MSTORE PUSH1 0x20 DUP3 ADD MSTORE PUSH1 0x1 PUSH1 0x40 DUP3 ADD MSTORE PUSH2 0x1568 PUSH1 0x40 PUSH2 0x1D16 JUMP JUMPDEST PUSH1 0xF DUP2 MSTORE PUSH15 0x6163746976655F6C6561726E696E67 PUSH1 0x88 SHL PUSH1 0x20 DUP3 ADD MSTORE PUSH1 0x60 DUP3 ADD MSTORE DUP3 PUSH2 0x1F32 JUMP JUMPDEST PUSH2 0x159A PUSH2 0x5B3 PUSH2 0x1CF7 JUMP JUMPDEST PUSH2 0x162A PUSH2 0x15A5 PUSH2 0x1CF7 JUMP JUMPDEST PUSH2 0x15AF PUSH1 0x40 PUSH2 0x1D16 JUMP JUMPDEST PUSH1 0x5 DUP2 MSTORE PUSH5 0x726F6C6573 PUSH1 0xD8 SHL PUSH1 0x20 DUP3 ADD MSTORE DUP2 MSTORE PUSH2 0x15CD PUSH1 0x40 PUSH2 0x1D16 JUMP JUMPDEST PUSH1 0x5 DUP2 MSTORE PUSH5 0x6172726179 PUSH1 0xD8 SHL PUSH1 0x20 DUP3 ADD MSTORE PUSH1 0x20 DUP3 ADD MSTORE PUSH1 0x1 PUSH1 0x40 DUP3 ADD MSTORE PUSH2 0x15F5 PUSH1 0x40 PUSH2 0x1D16 JUMP JUMPDEST PUSH1 0x1D DUP2 MSTORE PUSH32 0x5B22636F6F7264696E61746F72222C22636F6E7472696275746F72225D000000 PUSH1 0x20 DUP3 ADD MSTORE PUSH1 0x60 DUP3 ADD MSTORE DUP3 PUSH2 0x1F32 JUMP JUMPDEST PUSH2 0x812 PUSH2 0x1635 PUSH2 0x1CF7 JUMP JUMPDEST PUSH2 0x163F PUSH1 0x40 PUSH2 0x1D16 JUMP JUMPDEST PUSH1 0xC DUP2 MSTORE PUSH12 0x7061727469636970616E7473 PUSH1 0xA0 SHL PUSH1 0x20 DUP3 ADD MSTORE DUP2 MSTORE PUSH2 0xF09 PUSH1 0x40 PUSH2 0x1D16 JUMP JUMPDEST PUSH2 0x168F DUP2 PUSH1 0x2F PUSH1 0x40 MLOAD PUSH15 0x6163746976655F6C6561726E696E67 PUSH1 0x88 SHL DUP2 MSTORE PUSH1 0x1 PUSH1 0xF DUP3 ADD MSTORE KECCAK256 PUSH2 0x2197 JUMP JUMPDEST ADDRESS PUSH1 0x0 MSTORE PUSH1 0x2 PUSH1 0x20 MSTORE PUSH2 0x16A6 DUP2 PUSH1 0x40 PUSH1 0x0 KECCAK256 PUSH2 0x2197 JUMP JUMPDEST PUSH1 0x40 MLOAD SWAP1 PUSH1 0x60 DUP3 MSTORE PUSH1 0xF PUSH1 0x60 DUP4 ADD MSTORE PUSH15 0x416374697665204C6561726E696E67 PUSH1 0x88 SHL PUSH1 0x80 DUP4 ADD MSTORE PUSH1 0xA0 PUSH1 0x20 DUP4 ADD MSTORE PUSH1 0xF PUSH1 0xA0 DUP4 ADD MSTORE PUSH15 0x6163746976655F6C6561726E696E67 PUSH1 0x88 SHL PUSH1 0xC0 DUP4 ADD MSTORE TIMESTAMP PUSH1 0x40 DUP4 ADD MSTORE PUSH1 0x0 DUP1 MLOAD PUSH1 0x20 PUSH2 0x3AB5 DUP4 CODECOPY DUP2 MLOAD SWAP2 MSTORE PUSH1 0xE0 ADDRESS SWAP4 LOG3 PUSH1 0x40 MLOAD PUSH2 0x18EF SWAP1 DUP2 PUSH2 0x21C6 DUP3 CODECOPY RETURN JUMPDEST ADD MLOAD SWAP1 POP DUP9 DUP1 PUSH2 0x489 JUMP JUMPDEST PUSH1 0x1F NOT DUP3 AND SWAP6 DUP4 PUSH1 0x0 MSTORE DUP2 PUSH1 0x0 KECCAK256 SWAP7 PUSH1 0x0 JUMPDEST DUP2 DUP2 LT PUSH2 0x177D JUMPI POP SWAP7 PUSH1 0x1 SWAP3 DUP5 SWAP3 PUSH1 0x4 SWAP8 SWAP7 SWAP6 PUSH2 0x1664 SWAP10 SWAP11 LT PUSH2 0x1764 JUMPI JUMPDEST POP POP POP DUP2 SHL ADD SWAP1 SSTORE PUSH2 0x14E2 JUMP JUMPDEST ADD MLOAD PUSH1 0x0 NOT PUSH1 0xF8 DUP5 PUSH1 0x3 SHL AND SHR NOT AND SWAP1 SSTORE DUP8 DUP1 DUP1 PUSH2 0x1757 JUMP JUMPDEST DUP4 DUP4 ADD MLOAD DUP10 SSTORE PUSH1 0x1 SWAP1 SWAP9 ADD SWAP8 PUSH1 0x20 SWAP4 DUP5 ADD SWAP4 ADD PUSH2 0x1739 JUMP JUMPDEST PUSH4 0x4E487B71 PUSH1 0xE0 SHL PUSH1 0x0 MSTORE PUSH1 0x41 PUSH1 0x4 MSTORE PUSH1 0x24 PUSH1 0x0 REVERT JUMPDEST DUP1 MLOAD DUP1 MLOAD SWAP1 PUSH1 0x1 PUSH1 0x1 PUSH1 0x40 SHL SUB DUP3 GT PUSH2 0x1795 JUMPI PUSH2 0x17D2 DUP3 PUSH2 0x17CC DUP9 SLOAD PUSH2 0x1E3A JUMP JUMPDEST DUP9 PUSH2 0x1EB5 JUMP JUMPDEST PUSH1 0x20 SWAP1 PUSH1 0x1F DUP4 GT PUSH1 0x1 EQ PUSH2 0x1816 JUMPI SWAP3 PUSH2 0x17FC DUP4 PUSH1 0x1 SWAP6 SWAP5 PUSH1 0x20 SWAP5 DUP8 SWAP7 PUSH1 0x0 SWAP3 PUSH2 0x180B JUMPI POP POP PUSH2 0x1EFA JUMP JUMPDEST DUP8 SSTORE JUMPDEST ADD SWAP5 ADD SWAP2 ADD SWAP1 SWAP3 PUSH2 0x1486 JUMP JUMPDEST ADD MLOAD SWAP1 POP DUP14 DUP1 PUSH2 0x489 JUMP JUMPDEST SWAP1 PUSH1 0x1F NOT DUP4 AND SWAP2 DUP8 PUSH1 0x0 MSTORE DUP2 PUSH1 0x0 KECCAK256 SWAP3 PUSH1 0x0 JUMPDEST DUP2 DUP2 LT PUSH2 0x186B JUMPI POP SWAP4 PUSH1 0x20 SWAP4 PUSH1 0x1 SWAP7 SWAP4 DUP8 SWAP7 SWAP4 DUP4 DUP9 SWAP6 LT PUSH2 0x1852 JUMPI JUMPDEST POP POP POP DUP2 SHL ADD DUP8 SSTORE PUSH2 0x17FF JUMP JUMPDEST ADD MLOAD PUSH1 0x0 NOT PUSH1 0xF8 DUP5 PUSH1 0x3 SHL AND SHR NOT AND SWAP1 SSTORE DUP13 DUP1 DUP1 PUSH2 0x1845 JUMP JUMPDEST SWAP3 SWAP4 PUSH1 0x20 PUSH1 0x1 DUP2 SWAP3 DUP8 DUP7 ADD MLOAD DUP2 SSTORE ADD SWAP6 ADD SWAP4 ADD PUSH2 0x1829 JUMP JUMPDEST DUP4 PUSH1 0x0 MSTORE DUP3 PUSH1 0x20 PUSH1 0x0 KECCAK256 SWAP2 DUP3 ADD SWAP2 ADD JUMPDEST DUP2 DUP2 LT PUSH2 0x18A0 JUMPI POP PUSH2 0x1474 JUMP JUMPDEST DUP1 PUSH2 0x18AD PUSH1 0x1 SWAP3 SLOAD PUSH2 0x1E3A JUMP JUMPDEST DUP1 PUSH2 0x18BA JUMPI JUMPDEST POP ADD PUSH2 0x1893 JUMP JUMPDEST PUSH1 0x1F DUP2 GT DUP4 EQ PUSH2 0x18D0 JUMPI POP PUSH1 0x0 DUP2 SSTORE JUMPDEST DUP10 PUSH2 0x18B3 JUMP JUMPDEST PUSH2 0x18EE SWAP1 DUP3 PUSH1 0x0 MSTORE DUP4 PUSH1 0x1F PUSH1 0x20 PUSH1 0x0 KECCAK256 SWAP3 ADD PUSH1 0x5 SHR DUP3 ADD SWAP2 ADD PUSH2 0x1E74 JUMP JUMPDEST DUP1 PUSH1 0x0 MSTORE PUSH1 0x0 PUSH1 0x20 DUP2 KECCAK256 DUP2 DUP4 SSTORE SSTORE PUSH2 0x18CA JUMP JUMPDEST PUSH2 0x1920 SWAP1 DUP3 PUSH1 0x0 MSTORE PUSH1 0x3 PUSH1 0x1F PUSH1 0x20 PUSH1 0x0 KECCAK256 SWAP3 ADD PUSH1 0x5 SHR DUP3 ADD SWAP2 ADD PUSH2 0x1E74 JUMP JUMPDEST DUP6 PUSH2 0x13BD JUMP JUMPDEST DUP1 PUSH1 0x60 PUSH1 0x20 DUP1 SWAP4 DUP7 ADD ADD MSTORE ADD PUSH2 0x106E JUMP JUMPDEST ADD MLOAD SWAP1 POP CODESIZE DUP1 PUSH2 0x489 JUMP JUMPDEST PUSH1 0x1F NOT DUP3 AND SWAP6 DUP4 PUSH1 0x0 MSTORE DUP2 PUSH1 0x0 KECCAK256 SWAP7 PUSH1 0x0 JUMPDEST DUP2 DUP2 LT PUSH2 0x1998 JUMPI POP SWAP7 PUSH1 0x1 SWAP3 DUP5 SWAP3 PUSH1 0x4 SWAP8 SWAP7 SWAP6 PUSH2 0xFA8 SWAP10 SWAP11 LT PUSH2 0x197F JUMPI JUMPDEST POP POP POP DUP2 SHL ADD SWAP1 SSTORE PUSH2 0xD34 JUMP JUMPDEST ADD MLOAD PUSH1 0x0 NOT PUSH1 0xF8 DUP5 PUSH1 0x3 SHL AND SHR NOT AND SWAP1 SSTORE CODESIZE DUP1 DUP1 PUSH2 0x1972 JUMP JUMPDEST DUP4 DUP4 ADD MLOAD DUP10 SSTORE PUSH1 0x1 SWAP1 SWAP9 ADD SWAP8 PUSH1 0x20 SWAP4 DUP5 ADD SWAP4 ADD PUSH2 0x1954 JUMP JUMPDEST DUP1 MLOAD DUP1 MLOAD SWAP1 PUSH1 0x1 PUSH1 0x1 PUSH1 0x40 SHL SUB DUP3 GT PUSH2 0x1795 JUMPI PUSH2 0x19D1 DUP3 PUSH2 0x17CC DUP9 SLOAD PUSH2 0x1E3A JUMP JUMPDEST PUSH1 0x20 SWAP1 PUSH1 0x1F DUP4 GT PUSH1 0x1 EQ PUSH2 0x1A0A JUMPI SWAP3 PUSH2 0x19FB DUP4 PUSH1 0x1 SWAP6 SWAP5 PUSH1 0x20 SWAP5 DUP8 SWAP7 PUSH1 0x0 SWAP3 PUSH2 0x1937 JUMPI POP POP PUSH2 0x1EFA JUMP JUMPDEST DUP8 SSTORE JUMPDEST ADD SWAP5 ADD SWAP2 ADD SWAP1 SWAP3 PUSH2 0xCD8 JUMP JUMPDEST SWAP1 PUSH1 0x1F NOT DUP4 AND SWAP2 DUP8 PUSH1 0x0 MSTORE DUP2 PUSH1 0x0 KECCAK256 SWAP3 PUSH1 0x0 JUMPDEST DUP2 DUP2 LT PUSH2 0x1A5F JUMPI POP SWAP4 PUSH1 0x20 SWAP4 PUSH1 0x1 SWAP7 SWAP4 DUP8 SWAP7 SWAP4 DUP4 DUP9 SWAP6 LT PUSH2 0x1A46 JUMPI JUMPDEST POP POP POP DUP2 SHL ADD DUP8 SSTORE PUSH2 0x19FE JUMP JUMPDEST ADD MLOAD PUSH1 0x0 NOT PUSH1 0xF8 DUP5 PUSH1 0x3 SHL AND SHR NOT AND SWAP1 SSTORE CODESIZE DUP1 DUP1 PUSH2 0x1A39 JUMP JUMPDEST SWAP3 SWAP4 PUSH1 0x20 PUSH1 0x1 DUP2 SWAP3 DUP8 DUP7 ADD MLOAD DUP2 SSTORE ADD SWAP6 ADD SWAP4 ADD PUSH2 0x1A1D JUMP JUMPDEST DUP4 PUSH1 0x0 MSTORE DUP3 PUSH1 0x20 PUSH1 0x0 KECCAK256 SWAP2 DUP3 ADD SWAP2 ADD JUMPDEST DUP2 DUP2 LT PUSH2 0x1A94 JUMPI POP PUSH2 0xCC6 JUMP JUMPDEST DUP1 PUSH2 0x1AA1 PUSH1 0x1 SWAP3 SLOAD PUSH2 0x1E3A JUMP JUMPDEST DUP1 PUSH2 0x1AAE JUMPI JUMPDEST POP ADD PUSH2 0x1A87 JUMP JUMPDEST PUSH1 0x1F DUP2 GT DUP4 EQ PUSH2 0x1AC4 JUMPI POP PUSH1 0x0 DUP2 SSTORE JUMPDEST CODESIZE PUSH2 0x1AA7 JUMP JUMPDEST PUSH2 0x1AE2 SWAP1 DUP3 PUSH1 0x0 MSTORE DUP4 PUSH1 0x1F PUSH1 0x20 PUSH1 0x0 KECCAK256 SWAP3 ADD PUSH1 0x5 SHR DUP3 ADD SWAP2 ADD PUSH2 0x1E74 JUMP JUMPDEST DUP1 PUSH1 0x0 MSTORE PUSH1 0x0 PUSH1 0x20 DUP2 KECCAK256 DUP2 DUP4 SSTORE SSTORE PUSH2 0x1ABE JUMP JUMPDEST PUSH2 0x1B14 SWAP1 DUP3 PUSH1 0x0 MSTORE PUSH1 0x2 PUSH1 0x1F PUSH1 0x20 PUSH1 0x0 KECCAK256 SWAP3 ADD PUSH1 0x5 SHR DUP3 ADD SWAP2 ADD PUSH2 0x1E74 JUMP JUMPDEST CODESIZE PUSH2 0xC2A JUMP JUMPDEST PUSH1 0x1F NOT DUP3 AND SWAP6 DUP4 PUSH1 0x0 MSTORE DUP2 PUSH1 0x0 KECCAK256 SWAP7 PUSH1 0x0 JUMPDEST DUP2 DUP2 LT PUSH2 0x1B70 JUMPI POP SWAP7 PUSH1 0x1 SWAP3 DUP5 SWAP3 PUSH1 0x4 SWAP8 SWAP7 SWAP6 PUSH2 0x893 SWAP10 SWAP11 LT PUSH2 0x1B57 JUMPI JUMPDEST POP POP POP DUP2 SHL ADD SWAP1 SSTORE PUSH2 0x493 JUMP JUMPDEST ADD MLOAD PUSH1 0x0 NOT PUSH1 0xF8 DUP5 PUSH1 0x3 SHL AND SHR NOT AND SWAP1 SSTORE CODESIZE DUP1 DUP1 PUSH2 0x1B4A JUMP JUMPDEST DUP4 DUP4 ADD MLOAD DUP10 SSTORE PUSH1 0x1 SWAP1 SWAP9 ADD SWAP8 PUSH1 0x20 SWAP4 DUP5 ADD SWAP4 ADD PUSH2 0x1B2C JUMP JUMPDEST DUP1 MLOAD DUP1 MLOAD SWAP1 PUSH1 0x1 PUSH1 0x1 PUSH1 0x40 SHL SUB DUP3 GT PUSH2 0x1795 JUMPI PUSH2 0x1BA9 DUP3 PUSH2 0x17CC DUP9 SLOAD PUSH2 0x1E3A JUMP JUMPDEST PUSH1 0x20 SWAP1 PUSH1 0x1F DUP4 GT PUSH1 0x1 EQ PUSH2 0x1BE2 JUMPI SWAP3 PUSH2 0x1BD3 DUP4 PUSH1 0x1 SWAP6 SWAP5 PUSH1 0x20 SWAP5 DUP8 SWAP7 PUSH1 0x0 SWAP3 PUSH2 0x1937 JUMPI POP POP PUSH2 0x1EFA JUMP JUMPDEST DUP8 SSTORE JUMPDEST ADD SWAP5 ADD SWAP2 ADD SWAP1 SWAP3 PUSH2 0x430 JUMP JUMPDEST SWAP1 PUSH1 0x1F NOT DUP4 AND SWAP2 DUP8 PUSH1 0x0 MSTORE DUP2 PUSH1 0x0 KECCAK256 SWAP3 PUSH1 0x0 JUMPDEST DUP2 DUP2 LT PUSH2 0x1C37 JUMPI POP SWAP4 PUSH1 0x20 SWAP4 PUSH1 0x1 SWAP7 SWAP4 DUP8 SWAP7 SWAP4 DUP4 DUP9 SWAP6 LT PUSH2 0x1C1E JUMPI JUMPDEST POP POP POP DUP2 SHL ADD DUP8 SSTORE PUSH2 0x1BD6 JUMP JUMPDEST ADD MLOAD PUSH1 0x0 NOT PUSH1 0xF8 DUP5 PUSH1 0x3 SHL AND SHR NOT AND SWAP1 SSTORE CODESIZE DUP1 DUP1 PUSH2 0x1C11 JUMP JUMPDEST SWAP3 SWAP4 PUSH1 0x20 PUSH1 0x1 DUP2 SWAP3 DUP8 DUP7 ADD MLOAD DUP2 SSTORE ADD SWAP6 ADD SWAP4 ADD PUSH2 0x1BF5 JUMP JUMPDEST DUP4 PUSH1 0x0 MSTORE DUP3 PUSH1 0x20 PUSH1 0x0 KECCAK256 SWAP2 DUP3 ADD SWAP2 ADD JUMPDEST DUP2 DUP2 LT PUSH2 0x1C6C JUMPI POP PUSH2 0x41E JUMP JUMPDEST DUP1 PUSH2 0x1C79 PUSH1 0x1 SWAP3 SLOAD PUSH2 0x1E3A JUMP JUMPDEST DUP1 PUSH2 0x1C86 JUMPI JUMPDEST POP ADD PUSH2 0x1C5F JUMP JUMPDEST PUSH1 0x1F DUP2 GT DUP4 EQ PUSH2 0x1C9C JUMPI POP PUSH1 0x0 DUP2 SSTORE JUMPDEST CODESIZE PUSH2 0x1C7F JUMP JUMPDEST PUSH2 0x1CBA SWAP1 DUP3 PUSH1 0x0 MSTORE DUP4 PUSH1 0x1F PUSH1 0x20 PUSH1 0x0 KECCAK256 SWAP3 ADD PUSH1 0x5 SHR DUP3 ADD SWAP2 ADD PUSH2 0x1E74 JUMP JUMPDEST DUP1 PUSH1 0x0 MSTORE PUSH1 0x0 PUSH1 0x20 DUP2 KECCAK256 DUP2 DUP4 SSTORE SSTORE PUSH2 0x1C96 JUMP JUMPDEST PUSH2 0x1CEC SWAP1 DUP3 PUSH1 0x0 MSTORE PUSH1 0x2 PUSH1 0x1F PUSH1 0x20 PUSH1 0x0 KECCAK256 SWAP3 ADD PUSH1 0x5 SHR DUP3 ADD SWAP2 ADD PUSH2 0x1E74 JUMP JUMPDEST CODESIZE PUSH2 0x36B JUMP JUMPDEST PUSH1 0x0 DUP1 REVERT JUMPDEST PUSH1 0x40 MLOAD SWAP1 PUSH1 0x80 DUP3 ADD PUSH1 0x1 PUSH1 0x1 PUSH1 0x40 SHL SUB DUP2 GT DUP4 DUP3 LT OR PUSH2 0x1795 JUMPI PUSH1 0x40 MSTORE JUMP JUMPDEST PUSH1 0x40 MLOAD SWAP2 SWAP1 PUSH1 0x1F ADD PUSH1 0x1F NOT AND DUP3 ADD PUSH1 0x1 PUSH1 0x1 PUSH1 0x40 SHL SUB DUP2 GT DUP4 DUP3 LT OR PUSH2 0x1795 JUMPI PUSH1 0x40 MSTORE JUMP JUMPDEST PUSH1 0x80 SWAP1 PUSH2 0x1D47 DUP3 PUSH2 0x1D16 JUMP JUMPDEST PUSH1 0x3 DUP2 MSTORE SWAP2 PUSH1 0x1F NOT ADD DUP3 PUSH1 0x0 JUMPDEST DUP3 DUP2 LT PUSH2 0x1D60 JUMPI POP POP POP JUMP JUMPDEST DUP1 PUSH1 0x60 PUSH1 0x20 DUP1 SWAP4 DUP6 ADD ADD MSTORE ADD PUSH2 0x1D54 JUMP JUMPDEST DUP1 MLOAD ISZERO PUSH2 0x1D7E JUMPI PUSH1 0x20 ADD SWAP1 JUMP JUMPDEST PUSH4 0x4E487B71 PUSH1 0xE0 SHL PUSH1 0x0 MSTORE PUSH1 0x32 PUSH1 0x4 MSTORE PUSH1 0x24 PUSH1 0x0 REVERT JUMPDEST DUP1 MLOAD PUSH1 0x1 LT ISZERO PUSH2 0x1D7E JUMPI PUSH1 0x40 ADD SWAP1 JUMP JUMPDEST DUP1 MLOAD PUSH1 0x2 LT ISZERO PUSH2 0x1D7E JUMPI PUSH1 0x60 ADD SWAP1 JUMP JUMPDEST PUSH1 0x0 SLOAD DUP2 LT ISZERO PUSH2 0x1D7E JUMPI PUSH1 0x0 DUP1 DUP1 MSTORE PUSH1 0x3 SWAP2 SWAP1 SWAP2 SHL PUSH32 0x290DECD9548B62A8D60345A988386FC84BA6BC95484008F6362F93160EF3E563 ADD SWAP2 JUMP JUMPDEST PUSH1 0x0 SLOAD PUSH9 0x10000000000000000 DUP2 LT ISZERO PUSH2 0x1795 JUMPI PUSH1 0x1 DUP2 ADD PUSH1 0x0 SSTORE PUSH1 0x0 DUP1 SLOAD DUP3 LT ISZERO PUSH2 0x1E26 JUMPI DUP1 DUP1 PUSH1 0x20 SWAP3 MSTORE KECCAK256 SWAP1 PUSH1 0x3 SHL ADD SWAP1 PUSH1 0x0 SWAP1 JUMP JUMPDEST PUSH4 0x4E487B71 PUSH1 0xE0 SHL DUP2 MSTORE PUSH1 0x32 PUSH1 0x4 MSTORE PUSH1 0x24 SWAP1 REVERT JUMPDEST SWAP1 PUSH1 0x1 DUP3 DUP2 SHR SWAP3 AND DUP1 ISZERO PUSH2 0x1E6A JUMPI JUMPDEST PUSH1 0x20 DUP4 LT EQ PUSH2 0x1E54 JUMPI JUMP JUMPDEST PUSH4 0x4E487B71 PUSH1 0xE0 SHL PUSH1 0x0 MSTORE PUSH1 0x22 PUSH1 0x4 MSTORE PUSH1 0x24 PUSH1 0x0 REVERT JUMPDEST SWAP2 PUSH1 0x7F AND SWAP2 PUSH2 0x1E49 JUMP JUMPDEST DUP2 DUP2 LT PUSH2 0x1E7F JUMPI POP POP JUMP JUMPDEST PUSH1 0x0 DUP2 SSTORE PUSH1 0x1 ADD PUSH2 0x1E74 JUMP JUMPDEST SWAP1 PUSH1 0x1F DUP2 GT PUSH2 0x1E98 JUMPI POP POP JUMP JUMPDEST PUSH2 0x1EB3 SWAP2 PUSH1 0x0 MSTORE PUSH1 0x1F PUSH1 0x20 PUSH1 0x0 KECCAK256 SWAP2 ADD PUSH1 0x5 SHR DUP2 ADD SWAP1 PUSH2 0x1E74 JUMP JUMPDEST JUMP JUMPDEST SWAP2 SWAP1 PUSH1 0x1F DUP2 GT PUSH2 0x1EC4 JUMPI POP POP POP JUMP JUMPDEST PUSH2 0x1EB3 SWAP3 PUSH1 0x0 MSTORE PUSH1 0x20 PUSH1 0x0 KECCAK256 SWAP1 PUSH1 0x20 PUSH1 0x1F DUP5 ADD PUSH1 0x5 SHR DUP4 ADD SWAP4 LT PUSH2 0x1EF0 JUMPI JUMPDEST PUSH1 0x1F ADD PUSH1 0x5 SHR ADD SWAP1 PUSH2 0x1E74 JUMP JUMPDEST SWAP1 SWAP2 POP DUP2 SWAP1 PUSH2 0x1EE3 JUMP JUMPDEST DUP2 PUSH1 0x1 SHL SWAP2 PUSH1 0x0 NOT SWAP1 PUSH1 0x3 SHL SHR NOT AND OR SWAP1 JUMP JUMPDEST DUP1 SLOAD PUSH2 0x100 PUSH1 0x1 PUSH1 0xA8 SHL SUB NOT AND PUSH1 0x8 SWAP3 SWAP1 SWAP3 SHL PUSH2 0x100 PUSH1 0x1 PUSH1 0xA8 SHL SUB AND SWAP2 SWAP1 SWAP2 OR SWAP1 SSTORE JUMP JUMPDEST DUP1 SLOAD SWAP1 PUSH9 0x10000000000000000 DUP3 LT ISZERO PUSH2 0x1795 JUMPI PUSH1 0x1 DUP3 ADD DUP1 DUP3 SSTORE DUP3 LT ISZERO PUSH2 0x1D7E JUMPI PUSH1 0x0 MSTORE PUSH1 0x20 PUSH1 0x0 KECCAK256 SWAP1 PUSH1 0x2 SHL ADD SWAP2 DUP2 MLOAD SWAP3 DUP4 MLOAD PUSH1 0x1 DUP1 PUSH1 0x40 SHL SUB DUP2 GT PUSH2 0x1795 JUMPI PUSH2 0x1F82 DUP2 PUSH2 0x45F DUP5 SLOAD PUSH2 0x1E3A JUMP JUMPDEST PUSH1 0x20 SWAP5 PUSH1 0x1F DUP3 GT PUSH1 0x1 EQ PUSH2 0x2132 JUMPI PUSH2 0x1FA7 SWAP3 SWAP4 SWAP5 SWAP6 DUP3 SWAP2 PUSH1 0x0 SWAP3 PUSH2 0x1937 JUMPI POP POP PUSH2 0x1EFA JUMP JUMPDEST DUP2 SSTORE JUMPDEST PUSH1 0x20 DUP4 ADD MLOAD DUP1 MLOAD PUSH1 0x1 DUP4 ADD SWAP2 PUSH1 0x1 PUSH1 0x1 PUSH1 0x40 SHL SUB DUP3 GT PUSH2 0x1795 JUMPI PUSH2 0x1FD8 DUP3 PUSH2 0x1FD2 DUP6 SLOAD PUSH2 0x1E3A JUMP JUMPDEST DUP6 PUSH2 0x1EB5 JUMP JUMPDEST PUSH1 0x20 SWAP1 PUSH1 0x1F DUP4 GT PUSH1 0x1 EQ PUSH2 0x20C6 JUMPI DUP3 PUSH1 0x60 SWAP6 SWAP4 PUSH1 0x3 SWAP6 SWAP4 PUSH2 0x2001 SWAP4 PUSH1 0x0 SWAP3 PUSH2 0x1937 JUMPI POP POP PUSH2 0x1EFA JUMP JUMPDEST SWAP1 SSTORE JUMPDEST PUSH1 0x2 DUP2 ADD PUSH1 0x40 DUP7 ADD MLOAD ISZERO ISZERO PUSH1 0xFF DUP1 NOT DUP4 SLOAD AND SWAP2 AND OR SWAP1 SSTORE ADD SWAP3 ADD MLOAD SWAP2 DUP3 MLOAD PUSH1 0x1 DUP1 PUSH1 0x40 SHL SUB DUP2 GT PUSH2 0x1795 JUMPI PUSH2 0x203D DUP2 PUSH2 0x45F DUP5 SLOAD PUSH2 0x1E3A JUMP JUMPDEST PUSH1 0x20 PUSH1 0x1F DUP3 GT PUSH1 0x1 EQ PUSH2 0x2064 JUMPI DUP2 SWAP1 PUSH2 0x2060 SWAP4 SWAP5 SWAP6 PUSH1 0x0 SWAP3 PUSH2 0x1937 JUMPI POP POP PUSH2 0x1EFA JUMP JUMPDEST SWAP1 SSTORE JUMP JUMPDEST PUSH1 0x1F NOT DUP3 AND SWAP1 DUP4 PUSH1 0x0 MSTORE DUP1 PUSH1 0x0 KECCAK256 SWAP2 PUSH1 0x0 JUMPDEST DUP2 DUP2 LT PUSH2 0x20AE JUMPI POP SWAP6 DUP4 PUSH1 0x1 SWAP6 SWAP7 SWAP8 LT PUSH2 0x2095 JUMPI JUMPDEST POP POP POP DUP2 SHL ADD SWAP1 SSTORE JUMP JUMPDEST ADD MLOAD PUSH1 0x0 NOT PUSH1 0xF8 DUP5 PUSH1 0x3 SHL AND SHR NOT AND SWAP1 SSTORE CODESIZE DUP1 DUP1 PUSH2 0x208B JUMP JUMPDEST SWAP2 SWAP3 PUSH1 0x20 PUSH1 0x1 DUP2 SWAP3 DUP7 DUP12 ADD MLOAD DUP2 SSTORE ADD SWAP5 ADD SWAP3 ADD PUSH2 0x2076 JUMP JUMPDEST SWAP1 PUSH1 0x1F NOT DUP4 AND SWAP2 DUP5 PUSH1 0x0 MSTORE DUP2 PUSH1 0x0 KECCAK256 SWAP3 PUSH1 0x0 JUMPDEST DUP2 DUP2 LT PUSH2 0x211A JUMPI POP SWAP3 PUSH1 0x1 SWAP3 DUP6 SWAP3 PUSH1 0x60 SWAP9 SWAP7 PUSH1 0x3 SWAP9 SWAP7 LT PUSH2 0x2102 JUMPI JUMPDEST POP POP POP DUP2 SHL ADD SWAP1 SSTORE PUSH2 0x2004 JUMP JUMPDEST ADD MLOAD PUSH1 0x0 NOT DUP4 DUP9 SHL PUSH1 0xF8 AND SHR NOT AND SWAP1 SSTORE CODESIZE DUP1 DUP1 PUSH2 0x20F5 JUMP JUMPDEST SWAP3 SWAP4 PUSH1 0x20 PUSH1 0x1 DUP2 SWAP3 DUP8 DUP7 ADD MLOAD DUP2 SSTORE ADD SWAP6 ADD SWAP4 ADD PUSH2 0x20D9 JUMP JUMPDEST PUSH1 0x1F NOT DUP3 AND SWAP6 DUP4 PUSH1 0x0 MSTORE DUP1 PUSH1 0x0 KECCAK256 SWAP2 PUSH1 0x0 JUMPDEST DUP9 DUP2 LT PUSH2 0x217F JUMPI POP DUP4 PUSH1 0x1 SWAP6 SWAP7 SWAP8 SWAP9 LT PUSH2 0x2166 JUMPI JUMPDEST POP POP POP DUP2 SHL ADD DUP2 SSTORE PUSH2 0x1FAA JUMP JUMPDEST ADD MLOAD PUSH1 0x0 NOT PUSH1 0xF8 DUP5 PUSH1 0x3 SHL AND SHR NOT AND SWAP1 SSTORE CODESIZE DUP1 DUP1 PUSH2 0x2159 JUMP JUMPDEST SWAP2 SWAP3 PUSH1 0x20 PUSH1 0x1 DUP2 SWAP3 DUP7 DUP6 ADD MLOAD DUP2 SSTORE ADD SWAP5 ADD SWAP3 ADD PUSH2 0x2144 JUMP JUMPDEST DUP1 SLOAD SWAP1 PUSH9 0x10000000000000000 DUP3 LT ISZERO PUSH2 0x1795 JUMPI PUSH1 0x1 DUP3 ADD DUP1 DUP3 SSTORE DUP3 LT ISZERO PUSH2 0x1D7E JUMPI PUSH1 0x0 MSTORE PUSH1 0x20 PUSH1 0x0 KECCAK256 ADD SSTORE JUMP INVALID PUSH1 0x80 PUSH1 0x40 MSTORE PUSH1 0x4 CALLDATASIZE LT ISZERO PUSH2 0x12 JUMPI PUSH1 0x0 DUP1 REVERT JUMPDEST PUSH1 0x0 CALLDATALOAD PUSH1 0xE0 SHR DUP1 PUSH4 0x1D1A689E EQ PUSH2 0x13DB JUMPI DUP1 PUSH4 0x31543CF4 EQ PUSH2 0x11B5 JUMPI DUP1 PUSH4 0x5016959A EQ PUSH2 0x1197 JUMPI DUP1 PUSH4 0x8E46A300 EQ PUSH2 0x1129 JUMPI DUP1 PUSH4 0x9A33DAB0 EQ PUSH2 0x10DD JUMPI DUP1 PUSH4 0xA12228E2 EQ PUSH2 0x1037 JUMPI DUP1 PUSH4 0xBC525652 EQ PUSH2 0xF63 JUMPI DUP1 PUSH4 0xD3EBF9C5 EQ PUSH2 0x729 JUMPI DUP1 PUSH4 0xD830082F EQ PUSH2 0x6AF JUMPI DUP1 PUSH4 0xDF715769 EQ PUSH2 0x239 JUMPI PUSH4 0xE74ED18A EQ PUSH2 0x95 JUMPI PUSH1 0x0 DUP1 REVERT JUMPDEST CALLVALUE PUSH2 0x234 JUMPI PUSH1 0x20 CALLDATASIZE PUSH1 0x3 NOT ADD SLT PUSH2 0x234 JUMPI PUSH1 0x4 PUSH2 0xBF DUP2 CALLDATALOAD PUSH2 0xBA PUSH1 0x0 SLOAD DUP3 LT PUSH2 0x177A JUMP JUMPDEST PUSH2 0x164B JUMP JUMPDEST POP ADD DUP1 SLOAD SWAP1 PUSH2 0xCD DUP3 PUSH2 0x184F JUMP JUMPDEST SWAP1 PUSH2 0xD7 DUP4 PUSH2 0x184F JUMP JUMPDEST PUSH2 0xE0 DUP5 PUSH2 0x1763 JUMP JUMPDEST SWAP1 PUSH2 0xEE PUSH1 0x40 MLOAD SWAP3 DUP4 PUSH2 0x15D2 JUMP JUMPDEST DUP5 DUP3 MSTORE PUSH2 0xFA DUP6 PUSH2 0x1763 JUMP JUMPDEST PUSH1 0x20 DUP4 ADD SWAP6 SWAP1 PUSH1 0x1F NOT ADD CALLDATASIZE DUP8 CALLDATACOPY PUSH2 0x110 DUP2 PUSH2 0x184F JUMP JUMPDEST SWAP4 PUSH1 0x0 JUMPDEST DUP3 DUP2 LT PUSH2 0x191 JUMPI POP POP POP PUSH2 0x146 PUSH1 0x20 SWAP2 PUSH2 0x139 PUSH1 0x40 MLOAD SWAP7 PUSH1 0x80 DUP9 MSTORE PUSH1 0x80 DUP9 ADD SWAP1 PUSH2 0x14F6 JUMP JUMPDEST SWAP1 DUP7 DUP3 SUB DUP5 DUP9 ADD MSTORE PUSH2 0x14F6 JUMP JUMPDEST SWAP2 DUP5 DUP4 SUB PUSH1 0x40 DUP7 ADD MSTORE MLOAD SWAP2 DUP3 DUP2 MSTORE ADD SWAP4 SWAP1 PUSH1 0x0 JUMPDEST DUP2 DUP2 LT PUSH2 0x179 JUMPI DUP5 DUP1 PUSH2 0x175 DUP9 DUP8 DUP4 DUP3 SUB PUSH1 0x60 DUP6 ADD MSTORE PUSH2 0x14F6 JUMP JUMPDEST SUB SWAP1 RETURN JUMPDEST DUP3 MLOAD ISZERO ISZERO DUP7 MSTORE PUSH1 0x20 SWAP6 DUP7 ADD SWAP6 SWAP1 SWAP3 ADD SWAP2 PUSH1 0x1 ADD PUSH2 0x15A JUMP JUMPDEST DUP1 PUSH2 0x1A7 PUSH2 0x1A1 PUSH1 0x1 SWAP4 DUP6 PUSH2 0x1833 JUMP JUMPDEST POP PUSH2 0x16BF JUMP JUMPDEST PUSH2 0x1B1 DUP3 DUP11 PUSH2 0x17C0 JUMP JUMPDEST MSTORE PUSH2 0x1BC DUP2 DUP10 PUSH2 0x17C0 JUMP JUMPDEST POP PUSH2 0x1D2 DUP3 PUSH2 0x1CB DUP4 DUP7 PUSH2 0x1833 JUMP JUMPDEST POP ADD PUSH2 0x16BF JUMP JUMPDEST PUSH2 0x1DC DUP3 DUP8 PUSH2 0x17C0 JUMP JUMPDEST MSTORE PUSH2 0x1E7 DUP2 DUP7 PUSH2 0x17C0 JUMP JUMPDEST POP PUSH1 0xFF PUSH1 0x2 PUSH2 0x1F6 DUP4 DUP7 PUSH2 0x1833 JUMP JUMPDEST POP ADD SLOAD AND PUSH2 0x204 DUP3 DUP9 PUSH2 0x17C0 JUMP JUMPDEST SWAP1 ISZERO ISZERO SWAP1 MSTORE PUSH2 0x218 PUSH1 0x3 PUSH2 0x1CB DUP4 DUP7 PUSH2 0x1833 JUMP JUMPDEST PUSH2 0x222 DUP3 DUP10 PUSH2 0x17C0 JUMP JUMPDEST MSTORE PUSH2 0x22D DUP2 DUP9 PUSH2 0x17C0 JUMP JUMPDEST POP ADD PUSH2 0x114 JUMP JUMPDEST PUSH1 0x0 DUP1 REVERT JUMPDEST CALLVALUE PUSH2 0x234 JUMPI PUSH1 0xA0 CALLDATASIZE PUSH1 0x3 NOT ADD SLT PUSH2 0x234 JUMPI PUSH1 0x4 CALLDATALOAD PUSH1 0x24 CALLDATALOAD PUSH1 0x1 PUSH1 0x1 PUSH1 0x40 SHL SUB DUP2 GT PUSH2 0x234 JUMPI PUSH2 0x26C SWAP1 CALLDATASIZE SWAP1 PUSH1 0x4 ADD PUSH2 0x15F5 JUMP JUMPDEST SWAP1 PUSH1 0x44 CALLDATALOAD PUSH1 0x1 PUSH1 0x1 PUSH1 0x40 SHL SUB DUP2 GT PUSH2 0x234 JUMPI PUSH2 0x28C SWAP1 CALLDATASIZE SWAP1 PUSH1 0x4 ADD PUSH2 0x15F5 JUMP JUMPDEST SWAP2 PUSH1 0x64 CALLDATALOAD DUP1 ISZERO ISZERO DUP1 SWAP2 SUB PUSH2 0x234 JUMPI PUSH1 0x84 CALLDATALOAD PUSH1 0x1 PUSH1 0x1 PUSH1 0x40 SHL SUB DUP2 GT PUSH2 0x234 JUMPI PUSH2 0x2B9 SWAP1 CALLDATASIZE SWAP1 PUSH1 0x4 ADD PUSH2 0x15F5 JUMP JUMPDEST SWAP3 PUSH2 0x2C7 PUSH1 0x0 SLOAD DUP3 LT PUSH2 0x177A JUMP JUMPDEST PUSH2 0x2D0 DUP2 PUSH2 0x164B JUMP JUMPDEST POP PUSH1 0x6 ADD SLOAD PUSH1 0x8 SHR PUSH1 0x1 PUSH1 0x1 PUSH1 0xA0 SHL SUB AND CALLER SUB PUSH2 0x65E JUMPI PUSH2 0x2F2 PUSH1 0x4 SWAP2 PUSH2 0x164B JUMP JUMPDEST POP ADD PUSH1 0x40 MLOAD SWAP3 PUSH2 0x301 DUP5 PUSH2 0x15B7 JUMP JUMPDEST DUP4 MSTORE PUSH1 0x20 DUP4 ADD SWAP5 DUP6 MSTORE PUSH1 0x40 DUP4 ADD SWAP2 DUP3 MSTORE PUSH1 0x60 DUP4 ADD SWAP4 DUP5 MSTORE DUP1 SLOAD PUSH1 0x1 PUSH1 0x40 SHL DUP2 LT ISZERO PUSH2 0x4E8 JUMPI PUSH2 0x335 SWAP2 PUSH1 0x1 DUP3 ADD DUP2 SSTORE PUSH2 0x1833 JUMP JUMPDEST SWAP3 SWAP1 SWAP3 PUSH2 0x648 JUMPI MLOAD DUP1 MLOAD SWAP1 PUSH1 0x1 PUSH1 0x1 PUSH1 0x40 SHL SUB DUP3 GT PUSH2 0x4E8 JUMPI PUSH2 0x358 DUP5 SLOAD PUSH2 0x1685 JUMP JUMPDEST PUSH1 0x1F DUP2 GT PUSH2 0x616 JUMPI JUMPDEST POP PUSH1 0x20 SWAP1 PUSH1 0x1F DUP4 GT PUSH1 0x1 EQ PUSH2 0x5AF JUMPI PUSH2 0x385 SWAP3 SWAP2 PUSH1 0x0 SWAP2 DUP4 PUSH2 0x5A4 JUMPI JUMPDEST POP POP PUSH2 0x17EB JUMP JUMPDEST DUP3 SSTORE JUMPDEST SWAP3 MLOAD DUP1 MLOAD SWAP4 SWAP1 PUSH1 0x1 DUP4 ADD SWAP1 PUSH1 0x1 PUSH1 0x1 PUSH1 0x40 SHL SUB DUP7 GT PUSH2 0x4E8 JUMPI PUSH2 0x3AB DUP3 SLOAD PUSH2 0x1685 JUMP JUMPDEST PUSH1 0x1F DUP2 GT PUSH2 0x572 JUMPI JUMPDEST POP PUSH1 0x20 SWAP1 PUSH1 0x1F DUP8 GT PUSH1 0x1 EQ PUSH2 0x509 JUMPI SWAP6 DUP1 PUSH2 0x3DB SWAP3 PUSH1 0x3 SWAP8 SWAP9 PUSH1 0x0 SWAP3 PUSH2 0x4FE JUMPI POP POP PUSH2 0x17EB JUMP JUMPDEST SWAP1 SSTORE JUMPDEST PUSH1 0x2 DUP3 ADD SWAP1 MLOAD ISZERO ISZERO PUSH1 0xFF DUP1 NOT DUP4 SLOAD AND SWAP2 AND OR SWAP1 SSTORE ADD SWAP1 MLOAD SWAP1 DUP2 MLOAD PUSH1 0x1 DUP1 PUSH1 0x40 SHL SUB DUP2 GT PUSH2 0x4E8 JUMPI PUSH2 0x40F DUP3 SLOAD PUSH2 0x1685 JUMP JUMPDEST PUSH1 0x1F DUP2 GT PUSH2 0x4AB JUMPI JUMPDEST POP PUSH1 0x20 SWAP3 PUSH1 0x1F DUP3 GT PUSH1 0x1 EQ PUSH2 0x44B JUMPI PUSH2 0x43C SWAP3 SWAP4 DUP3 SWAP2 PUSH1 0x0 SWAP3 PUSH2 0x440 JUMPI POP POP PUSH2 0x17EB JUMP JUMPDEST SWAP1 SSTORE STOP JUMPDEST ADD MLOAD SWAP1 POP DUP5 DUP1 PUSH2 0x37E JUMP JUMPDEST PUSH1 0x1F NOT DUP3 AND SWAP4 DUP4 PUSH1 0x0 MSTORE DUP1 PUSH1 0x0 KECCAK256 SWAP2 PUSH1 0x0 JUMPDEST DUP7 DUP2 LT PUSH2 0x493 JUMPI POP DUP4 PUSH1 0x1 SWAP6 SWAP7 LT PUSH2 0x47A JUMPI JUMPDEST POP POP POP DUP2 SHL ADD SWAP1 SSTORE STOP JUMPDEST ADD MLOAD PUSH1 0x0 NOT PUSH1 0xF8 DUP5 PUSH1 0x3 SHL AND SHR NOT AND SWAP1 SSTORE DUP4 DUP1 DUP1 PUSH2 0x470 JUMP JUMPDEST SWAP2 SWAP3 PUSH1 0x20 PUSH1 0x1 DUP2 SWAP3 DUP7 DUP6 ADD MLOAD DUP2 SSTORE ADD SWAP5 ADD SWAP3 ADD PUSH2 0x45D JUMP JUMPDEST PUSH2 0x4D8 SWAP1 DUP4 PUSH1 0x0 MSTORE PUSH1 0x20 PUSH1 0x0 KECCAK256 PUSH1 0x1F DUP5 ADD PUSH1 0x5 SHR DUP2 ADD SWAP2 PUSH1 0x20 DUP6 LT PUSH2 0x4DE JUMPI JUMPDEST PUSH1 0x1F ADD PUSH1 0x5 SHR ADD SWAP1 PUSH2 0x17D4 JUMP JUMPDEST DUP4 PUSH2 0x418 JUMP JUMPDEST SWAP1 SWAP2 POP DUP2 SWAP1 PUSH2 0x4CB JUMP JUMPDEST PUSH4 0x4E487B71 PUSH1 0xE0 SHL PUSH1 0x0 MSTORE PUSH1 0x41 PUSH1 0x4 MSTORE PUSH1 0x24 PUSH1 0x0 REVERT JUMPDEST ADD MLOAD SWAP1 POP DUP9 DUP1 PUSH2 0x37E JUMP JUMPDEST SWAP1 PUSH1 0x1F NOT DUP8 AND SWAP2 DUP4 PUSH1 0x0 MSTORE DUP2 PUSH1 0x0 KECCAK256 SWAP3 PUSH1 0x0 JUMPDEST DUP2 DUP2 LT PUSH2 0x55A JUMPI POP SWAP2 PUSH1 0x1 SWAP4 SWAP2 DUP10 PUSH1 0x3 SWAP10 SWAP11 SWAP5 LT PUSH2 0x542 JUMPI JUMPDEST POP POP POP DUP2 SHL ADD SWAP1 SSTORE PUSH2 0x3DE JUMP JUMPDEST ADD MLOAD PUSH1 0x0 NOT DUP4 DUP10 SHL PUSH1 0xF8 AND SHR NOT AND SWAP1 SSTORE DUP8 DUP1 DUP1 PUSH2 0x535 JUMP JUMPDEST SWAP3 SWAP4 PUSH1 0x20 PUSH1 0x1 DUP2 SWAP3 DUP8 DUP7 ADD MLOAD DUP2 SSTORE ADD SWAP6 ADD SWAP4 ADD PUSH2 0x51C JUMP JUMPDEST PUSH2 0x59E SWAP1 DUP4 PUSH1 0x0 MSTORE PUSH1 0x20 PUSH1 0x0 KECCAK256 PUSH1 0x1F DUP10 ADD PUSH1 0x5 SHR DUP2 ADD SWAP2 PUSH1 0x20 DUP11 LT PUSH2 0x4DE JUMPI PUSH1 0x1F ADD PUSH1 0x5 SHR ADD SWAP1 PUSH2 0x17D4 JUMP JUMPDEST DUP7 PUSH2 0x3B4 JUMP JUMPDEST ADD MLOAD SWAP1 POP DUP8 DUP1 PUSH2 0x37E JUMP JUMPDEST SWAP1 PUSH1 0x1F NOT DUP4 AND SWAP2 DUP6 PUSH1 0x0 MSTORE DUP2 PUSH1 0x0 KECCAK256 SWAP3 PUSH1 0x0 JUMPDEST DUP2 DUP2 LT PUSH2 0x5FE JUMPI POP SWAP1 DUP5 PUSH1 0x1 SWAP6 SWAP5 SWAP4 SWAP3 LT PUSH2 0x5E5 JUMPI JUMPDEST POP POP POP DUP2 SHL ADD DUP3 SSTORE PUSH2 0x388 JUMP JUMPDEST ADD MLOAD PUSH1 0x0 NOT PUSH1 0xF8 DUP5 PUSH1 0x3 SHL AND SHR NOT AND SWAP1 SSTORE DUP7 DUP1 DUP1 PUSH2 0x5D8 JUMP JUMPDEST SWAP3 SWAP4 PUSH1 0x20 PUSH1 0x1 DUP2 SWAP3 DUP8 DUP7 ADD MLOAD DUP2 SSTORE ADD SWAP6 ADD SWAP4 ADD PUSH2 0x5C2 JUMP JUMPDEST PUSH2 0x642 SWAP1 DUP6 PUSH1 0x0 MSTORE PUSH1 0x20 PUSH1 0x0 KECCAK256 PUSH1 0x1F DUP6 ADD PUSH1 0x5 SHR DUP2 ADD SWAP2 PUSH1 0x20 DUP7 LT PUSH2 0x4DE JUMPI PUSH1 0x1F ADD PUSH1 0x5 SHR ADD SWAP1 PUSH2 0x17D4 JUMP JUMPDEST DUP7 PUSH2 0x361 JUMP JUMPDEST PUSH4 0x4E487B71 PUSH1 0xE0 SHL PUSH1 0x0 MSTORE PUSH1 0x0 PUSH1 0x4 MSTORE PUSH1 0x24 PUSH1 0x0 REVERT JUMPDEST PUSH1 0x40 MLOAD PUSH3 0x461BCD PUSH1 0xE5 SHL DUP2 MSTORE PUSH1 0x20 PUSH1 0x4 DUP3 ADD MSTORE PUSH1 0x24 DUP1 DUP3 ADD MSTORE PUSH32 0x4F6E6C792074656D706C6174652063726561746F722063616E20616464206669 PUSH1 0x44 DUP3 ADD MSTORE PUSH4 0x656C6473 PUSH1 0xE0 SHL PUSH1 0x64 DUP3 ADD MSTORE PUSH1 0x84 SWAP1 REVERT JUMPDEST CALLVALUE PUSH2 0x234 JUMPI PUSH1 0x40 CALLDATASIZE PUSH1 0x3 NOT ADD SLT PUSH2 0x234 JUMPI PUSH1 0x4 CALLDATALOAD PUSH1 0x1 PUSH1 0x1 PUSH1 0x40 SHL SUB DUP2 GT PUSH2 0x234 JUMPI PUSH2 0x6DF SWAP1 CALLDATASIZE SWAP1 PUSH1 0x4 ADD PUSH2 0x15F5 JUMP JUMPDEST PUSH2 0x6FB PUSH1 0x20 PUSH1 0x24 CALLDATALOAD SWAP3 DUP2 PUSH1 0x40 MLOAD SWAP4 DUP3 DUP6 DUP1 SWAP5 MLOAD SWAP4 DUP5 SWAP3 ADD PUSH2 0x14AE JUMP JUMPDEST DUP2 ADD PUSH1 0x1 DUP2 MSTORE SUB ADD SWAP1 KECCAK256 DUP1 SLOAD DUP3 LT ISZERO PUSH2 0x234 JUMPI PUSH1 0x20 SWAP2 PUSH2 0x71A SWAP2 PUSH2 0x1589 JUMP JUMPDEST SWAP1 SLOAD SWAP1 PUSH1 0x3 SHL SHR PUSH1 0x40 MLOAD SWAP1 DUP2 MSTORE RETURN JUMPDEST CALLVALUE PUSH2 0x234 JUMPI PUSH1 0xA0 CALLDATASIZE PUSH1 0x3 NOT ADD SLT PUSH2 0x234 JUMPI PUSH1 0x4 CALLDATALOAD PUSH1 0x1 PUSH1 0x1 PUSH1 0x40 SHL SUB DUP2 GT PUSH2 0x234 JUMPI PUSH2 0x759 SWAP1 CALLDATASIZE SWAP1 PUSH1 0x4 ADD PUSH2 0x15F5 JUMP JUMPDEST PUSH1 0x24 CALLDATALOAD PUSH1 0x1 PUSH1 0x1 PUSH1 0x40 SHL SUB DUP2 GT PUSH2 0x234 JUMPI PUSH2 0x778 SWAP1 CALLDATASIZE SWAP1 PUSH1 0x4 ADD PUSH2 0x15F5 JUMP JUMPDEST SWAP1 PUSH1 0x44 CALLDATALOAD PUSH1 0x1 PUSH1 0x1 PUSH1 0x40 SHL SUB DUP2 GT PUSH2 0x234 JUMPI PUSH2 0x798 SWAP1 CALLDATASIZE SWAP1 PUSH1 0x4 ADD PUSH2 0x15F5 JUMP JUMPDEST SWAP1 PUSH1 0x64 CALLDATALOAD PUSH1 0x1 PUSH1 0x1 PUSH1 0x40 SHL SUB DUP2 GT PUSH2 0x234 JUMPI CALLDATASIZE PUSH1 0x23 DUP3 ADD SLT ISZERO PUSH2 0x234 JUMPI DUP1 PUSH1 0x4 ADD CALLDATALOAD SWAP3 PUSH2 0x7C4 DUP5 PUSH2 0x1763 JUMP JUMPDEST SWAP2 PUSH2 0x7D2 PUSH1 0x40 MLOAD SWAP4 DUP5 PUSH2 0x15D2 JUMP JUMPDEST DUP5 DUP4 MSTORE PUSH1 0x20 DUP4 ADD SWAP1 PUSH1 0x24 DUP3 SWAP7 PUSH1 0x5 SHL DUP3 ADD ADD SWAP1 CALLDATASIZE DUP3 GT PUSH2 0x234 JUMPI PUSH1 0x24 DUP2 ADD SWAP3 JUMPDEST DUP3 DUP5 LT PUSH2 0xF34 JUMPI POP POP PUSH1 0x84 CALLDATALOAD SWAP2 POP POP PUSH1 0x1 PUSH1 0x1 PUSH1 0x40 SHL SUB DUP2 GT PUSH2 0x234 JUMPI PUSH2 0x81D SWAP1 CALLDATASIZE SWAP1 PUSH1 0x4 ADD PUSH2 0x15F5 JUMP JUMPDEST SWAP2 DUP4 MLOAD ISZERO PUSH2 0xEEF JUMPI DUP2 MLOAD ISZERO PUSH2 0xEAB JUMPI PUSH1 0x0 SLOAD SWAP5 PUSH1 0x1 PUSH1 0x40 SHL DUP7 LT ISZERO PUSH2 0x4E8 JUMPI PUSH1 0x1 DUP7 ADD PUSH1 0x0 SSTORE PUSH2 0x84C DUP7 PUSH2 0x164B JUMP JUMPDEST POP POP PUSH2 0x857 DUP7 PUSH2 0x164B JUMP JUMPDEST POP DUP6 MLOAD SWAP1 SWAP8 SWAP1 PUSH1 0x1 PUSH1 0x1 PUSH1 0x40 SHL SUB DUP2 GT PUSH2 0x4E8 JUMPI PUSH2 0x875 DUP10 SLOAD PUSH2 0x1685 JUMP JUMPDEST PUSH1 0x1F DUP2 GT PUSH2 0xE79 JUMPI JUMPDEST POP PUSH1 0x20 PUSH1 0x1F DUP3 GT PUSH1 0x1 EQ PUSH2 0xE13 JUMPI SWAP1 DUP1 PUSH2 0x8A0 SWAP3 PUSH1 0x0 SWAP2 PUSH2 0xE08 JUMPI JUMPDEST POP PUSH2 0x17EB JUMP JUMPDEST DUP9 SSTORE JUMPDEST DUP1 MLOAD PUSH1 0x1 DUP10 ADD SWAP2 PUSH1 0x1 PUSH1 0x1 PUSH1 0x40 SHL SUB DUP3 GT PUSH2 0x4E8 JUMPI PUSH2 0x8C2 DUP4 SLOAD PUSH2 0x1685 JUMP JUMPDEST PUSH1 0x1F DUP2 GT PUSH2 0xDD6 JUMPI JUMPDEST POP PUSH1 0x20 SWAP1 PUSH1 0x1F DUP4 GT PUSH1 0x1 EQ PUSH2 0xD6F JUMPI PUSH2 0x8EE SWAP3 SWAP2 PUSH1 0x0 SWAP2 DUP4 PUSH2 0xD64 JUMPI POP POP PUSH2 0x17EB JUMP JUMPDEST SWAP1 SSTORE JUMPDEST DUP3 MLOAD PUSH1 0x2 DUP9 ADD SWAP1 PUSH1 0x1 PUSH1 0x1 PUSH1 0x40 SHL SUB DUP2 GT PUSH2 0x4E8 JUMPI PUSH2 0x910 DUP3 SLOAD PUSH2 0x1685 JUMP JUMPDEST PUSH1 0x1F DUP2 GT PUSH2 0xD32 JUMPI JUMPDEST POP PUSH1 0x20 PUSH1 0x1F DUP3 GT PUSH1 0x1 EQ PUSH2 0xCCE JUMPI SWAP1 DUP1 PUSH2 0x93A SWAP3 PUSH1 0x0 SWAP2 PUSH2 0xCC3 JUMPI POP PUSH2 0x17EB JUMP JUMPDEST SWAP1 SSTORE JUMPDEST SWAP1 MLOAD PUSH1 0x3 DUP8 ADD SWAP2 PUSH1 0x1 PUSH1 0x40 SHL DUP3 GT PUSH2 0x4E8 JUMPI DUP3 SLOAD DUP3 DUP5 SSTORE DUP1 DUP4 LT PUSH2 0xC45 JUMPI JUMPDEST POP SWAP2 PUSH1 0x0 MSTORE PUSH1 0x20 PUSH1 0x0 KECCAK256 SWAP2 PUSH1 0x0 SWAP1 JUMPDEST DUP3 DUP3 LT PUSH2 0xB3B JUMPI POP POP DUP4 MLOAD SWAP7 SWAP2 POP POP PUSH1 0x5 DUP2 ADD PUSH1 0x1 PUSH1 0x1 PUSH1 0x40 SHL SUB DUP8 GT PUSH2 0x4E8 JUMPI PUSH1 0x20 SWAP7 DUP7 SWAP5 PUSH2 0x99B DUP4 SLOAD PUSH2 0x1685 JUMP JUMPDEST PUSH1 0x1F DUP2 GT PUSH2 0xB0B JUMPI JUMPDEST POP DUP9 SWAP1 PUSH1 0x1F DUP4 GT PUSH1 0x1 EQ PUSH2 0xA8D JUMPI DUP3 PUSH2 0xA6D SWAP6 SWAP4 PUSH1 0x0 DUP1 MLOAD PUSH1 0x20 PUSH2 0x189A DUP4 CODECOPY DUP2 MLOAD SWAP2 MSTORE SWAP8 SWAP6 SWAP4 PUSH2 0x9DC SWAP4 PUSH1 0x0 SWAP3 PUSH2 0xA82 JUMPI POP POP PUSH2 0x17EB JUMP JUMPDEST SWAP1 SSTORE JUMPDEST PUSH1 0x6 DUP2 ADD DUP1 SLOAD PUSH1 0x1 PUSH1 0x1 PUSH1 0xA8 SHL SUB NOT AND CALLER PUSH1 0x8 SHL PUSH2 0x100 PUSH1 0x1 PUSH1 0xA8 SHL SUB AND OR PUSH1 0x1 OR SWAP1 SSTORE TIMESTAMP PUSH1 0x7 SWAP1 SWAP2 ADD SSTORE PUSH1 0x40 MLOAD DUP2 MLOAD PUSH2 0xA35 SWAP2 DUP7 SWAP2 DUP11 SWAP1 DUP3 SWAP1 PUSH2 0xA26 DUP2 DUP4 DUP10 DUP7 ADD PUSH2 0x14AE JUMP JUMPDEST DUP2 ADD PUSH1 0x1 DUP2 MSTORE SUB ADD SWAP1 KECCAK256 PUSH2 0x17FE JUMP JUMPDEST CALLER PUSH1 0x0 MSTORE PUSH1 0x2 DUP8 MSTORE PUSH2 0xA4B DUP5 PUSH1 0x40 PUSH1 0x0 KECCAK256 PUSH2 0x17FE JUMP JUMPDEST PUSH2 0xA60 PUSH1 0x40 MLOAD SWAP6 PUSH1 0x60 DUP8 MSTORE PUSH1 0x60 DUP8 ADD SWAP1 PUSH2 0x14D1 JUMP JUMPDEST SWAP1 DUP6 DUP3 SUB DUP9 DUP8 ADD MSTORE PUSH2 0x14D1 JUMP JUMPDEST SWAP3 TIMESTAMP PUSH1 0x40 DUP3 ADD MSTORE DUP1 CALLER SWAP5 SUB SWAP1 LOG3 PUSH1 0x40 MLOAD SWAP1 DUP2 MSTORE RETURN JUMPDEST ADD MLOAD SWAP1 POP DUP13 DUP1 PUSH2 0x37E JUMP JUMPDEST SWAP1 PUSH1 0x1F NOT DUP4 AND SWAP2 DUP5 PUSH1 0x0 MSTORE DUP2 PUSH1 0x0 KECCAK256 SWAP3 PUSH1 0x0 JUMPDEST DUP2 DUP2 LT PUSH2 0xAF1 JUMPI POP SWAP3 PUSH1 0x1 SWAP3 DUP6 SWAP3 PUSH2 0xA6D SWAP9 SWAP7 PUSH1 0x0 DUP1 MLOAD PUSH1 0x20 PUSH2 0x189A DUP4 CODECOPY DUP2 MLOAD SWAP2 MSTORE SWAP11 SWAP9 SWAP7 LT PUSH2 0xAD8 JUMPI JUMPDEST POP POP POP DUP2 SHL ADD SWAP1 SSTORE PUSH2 0x9DF JUMP JUMPDEST ADD MLOAD PUSH1 0x0 NOT PUSH1 0xF8 DUP5 PUSH1 0x3 SHL AND SHR NOT AND SWAP1 SSTORE DUP12 DUP1 DUP1 PUSH2 0xACB JUMP JUMPDEST DUP3 DUP5 ADD MLOAD DUP6 SSTORE DUP12 SWAP10 POP PUSH1 0x1 SWAP1 SWAP5 ADD SWAP4 SWAP3 DUP13 ADD SWAP3 DUP13 ADD PUSH2 0xAA0 JUMP JUMPDEST PUSH2 0xB35 SWAP1 DUP5 PUSH1 0x0 MSTORE DUP11 PUSH1 0x0 KECCAK256 PUSH1 0x1F DUP6 ADD PUSH1 0x5 SHR DUP2 ADD SWAP2 DUP13 DUP7 LT PUSH2 0x4DE JUMPI PUSH1 0x1F ADD PUSH1 0x5 SHR ADD SWAP1 PUSH2 0x17D4 JUMP JUMPDEST DUP10 PUSH2 0x9A4 JUMP JUMPDEST DUP1 MLOAD DUP1 MLOAD SWAP1 PUSH1 0x1 PUSH1 0x1 PUSH1 0x40 SHL SUB DUP3 GT PUSH2 0x4E8 JUMPI PUSH2 0xB58 DUP7 SLOAD PUSH2 0x1685 JUMP JUMPDEST PUSH1 0x1F DUP2 GT PUSH2 0xC13 JUMPI JUMPDEST POP PUSH1 0x20 SWAP1 PUSH1 0x1F DUP4 GT PUSH1 0x1 EQ PUSH2 0xBA6 JUMPI SWAP3 PUSH2 0xB8C DUP4 PUSH1 0x1 SWAP6 SWAP5 PUSH1 0x20 SWAP5 DUP8 SWAP7 PUSH1 0x0 SWAP3 PUSH2 0xB9B JUMPI POP POP PUSH2 0x17EB JUMP JUMPDEST DUP8 SSTORE JUMPDEST ADD SWAP5 ADD SWAP2 ADD SWAP1 SWAP3 PUSH2 0x96B JUMP JUMPDEST ADD MLOAD SWAP1 POP DUP16 DUP1 PUSH2 0x37E JUMP JUMPDEST SWAP1 PUSH1 0x1F NOT DUP4 AND SWAP2 DUP8 PUSH1 0x0 MSTORE DUP2 PUSH1 0x0 KECCAK256 SWAP3 PUSH1 0x0 JUMPDEST DUP2 DUP2 LT PUSH2 0xBFB JUMPI POP SWAP4 PUSH1 0x20 SWAP4 PUSH1 0x1 SWAP7 SWAP4 DUP8 SWAP7 SWAP4 DUP4 DUP9 SWAP6 LT PUSH2 0xBE2 JUMPI JUMPDEST POP POP POP DUP2 SHL ADD DUP8 SSTORE PUSH2 0xB8F JUMP JUMPDEST ADD MLOAD PUSH1 0x0 NOT PUSH1 0xF8 DUP5 PUSH1 0x3 SHL AND SHR NOT AND SWAP1 SSTORE DUP15 DUP1 DUP1 PUSH2 0xBD5 JUMP JUMPDEST SWAP3 SWAP4 PUSH1 0x20 PUSH1 0x1 DUP2 SWAP3 DUP8 DUP7 ADD MLOAD DUP2 SSTORE ADD SWAP6 ADD SWAP4 ADD PUSH2 0xBB9 JUMP JUMPDEST PUSH2 0xC3F SWAP1 DUP8 PUSH1 0x0 MSTORE PUSH1 0x20 PUSH1 0x0 KECCAK256 PUSH1 0x1F DUP6 ADD PUSH1 0x5 SHR DUP2 ADD SWAP2 PUSH1 0x20 DUP7 LT PUSH2 0x4DE JUMPI PUSH1 0x1F ADD PUSH1 0x5 SHR ADD SWAP1 PUSH2 0x17D4 JUMP JUMPDEST DUP12 PUSH2 0xB61 JUMP JUMPDEST DUP4 PUSH1 0x0 MSTORE DUP3 PUSH1 0x20 PUSH1 0x0 KECCAK256 SWAP2 DUP3 ADD SWAP2 ADD JUMPDEST DUP2 DUP2 LT PUSH2 0xC62 JUMPI POP PUSH2 0x95C JUMP JUMPDEST DUP1 PUSH2 0xC6F PUSH1 0x1 SWAP3 SLOAD PUSH2 0x1685 JUMP JUMPDEST DUP1 PUSH2 0xC7C JUMPI JUMPDEST POP ADD PUSH2 0xC55 JUMP JUMPDEST PUSH1 0x1F DUP2 GT DUP4 EQ PUSH2 0xC92 JUMPI POP PUSH1 0x0 DUP2 SSTORE JUMPDEST DUP12 PUSH2 0xC75 JUMP JUMPDEST PUSH2 0xCB0 SWAP1 DUP3 PUSH1 0x0 MSTORE DUP4 PUSH1 0x1F PUSH1 0x20 PUSH1 0x0 KECCAK256 SWAP3 ADD PUSH1 0x5 SHR DUP3 ADD SWAP2 ADD PUSH2 0x17D4 JUMP JUMPDEST DUP1 PUSH1 0x0 MSTORE PUSH1 0x0 PUSH1 0x20 DUP2 KECCAK256 DUP2 DUP4 SSTORE SSTORE PUSH2 0xC8C JUMP JUMPDEST SWAP1 POP DUP7 ADD MLOAD DUP12 PUSH2 0x89A JUMP JUMPDEST PUSH1 0x1F NOT DUP3 AND SWAP1 DUP4 PUSH1 0x0 MSTORE DUP1 PUSH1 0x0 KECCAK256 SWAP2 PUSH1 0x0 JUMPDEST DUP2 DUP2 LT PUSH2 0xD1A JUMPI POP SWAP1 DUP4 PUSH1 0x1 SWAP5 SWAP4 SWAP3 LT PUSH2 0xD01 JUMPI JUMPDEST POP POP DUP2 SHL ADD SWAP1 SSTORE PUSH2 0x93D JUMP JUMPDEST DUP8 ADD MLOAD PUSH1 0x0 NOT PUSH1 0xF8 DUP5 PUSH1 0x3 SHL AND SHR NOT AND SWAP1 SSTORE DUP11 DUP1 PUSH2 0xCF5 JUMP JUMPDEST SWAP2 SWAP3 PUSH1 0x20 PUSH1 0x1 DUP2 SWAP3 DUP7 DUP13 ADD MLOAD DUP2 SSTORE ADD SWAP5 ADD SWAP3 ADD PUSH2 0xCE0 JUMP JUMPDEST PUSH2 0xD5E SWAP1 DUP4 PUSH1 0x0 MSTORE PUSH1 0x20 PUSH1 0x0 KECCAK256 PUSH1 0x1F DUP5 ADD PUSH1 0x5 SHR DUP2 ADD SWAP2 PUSH1 0x20 DUP6 LT PUSH2 0x4DE JUMPI PUSH1 0x1F ADD PUSH1 0x5 SHR ADD SWAP1 PUSH2 0x17D4 JUMP JUMPDEST DUP10 PUSH2 0x919 JUMP JUMPDEST ADD MLOAD SWAP1 POP DUP12 DUP1 PUSH2 0x37E JUMP JUMPDEST SWAP1 PUSH1 0x1F NOT DUP4 AND SWAP2 DUP5 PUSH1 0x0 MSTORE DUP2 PUSH1 0x0 KECCAK256 SWAP3 PUSH1 0x0 JUMPDEST DUP2 DUP2 LT PUSH2 0xDBE JUMPI POP SWAP1 DUP5 PUSH1 0x1 SWAP6 SWAP5 SWAP4 SWAP3 LT PUSH2 0xDA5 JUMPI JUMPDEST POP POP POP DUP2 SHL ADD SWAP1 SSTORE PUSH2 0x8F1 JUMP JUMPDEST ADD MLOAD PUSH1 0x0 NOT PUSH1 0xF8 DUP5 PUSH1 0x3 SHL AND SHR NOT AND SWAP1 SSTORE DUP11 DUP1 DUP1 PUSH2 0xD98 JUMP JUMPDEST SWAP3 SWAP4 PUSH1 0x20 PUSH1 0x1 DUP2 SWAP3 DUP8 DUP7 ADD MLOAD DUP2 SSTORE ADD SWAP6 ADD SWAP4 ADD PUSH2 0xD82 JUMP JUMPDEST PUSH2 0xE02 SWAP1 DUP5 PUSH1 0x0 MSTORE PUSH1 0x20 PUSH1 0x0 KECCAK256 PUSH1 0x1F DUP6 ADD PUSH1 0x5 SHR DUP2 ADD SWAP2 PUSH1 0x20 DUP7 LT PUSH2 0x4DE JUMPI PUSH1 0x1F ADD PUSH1 0x5 SHR ADD SWAP1 PUSH2 0x17D4 JUMP JUMPDEST DUP11 PUSH2 0x8CB JUMP JUMPDEST SWAP1 POP DUP9 ADD MLOAD DUP12 PUSH2 0x89A JUMP JUMPDEST PUSH1 0x1F NOT DUP3 AND SWAP1 DUP11 PUSH1 0x0 MSTORE DUP1 PUSH1 0x0 KECCAK256 SWAP2 PUSH1 0x0 JUMPDEST DUP11 DUP3 DUP3 LT PUSH2 0xE61 JUMPI POP POP SWAP1 DUP4 PUSH1 0x1 SWAP5 SWAP4 SWAP3 LT PUSH2 0xE48 JUMPI JUMPDEST POP POP DUP2 SHL ADD DUP9 SSTORE PUSH2 0x8A3 JUMP JUMPDEST DUP10 ADD MLOAD PUSH1 0x0 NOT PUSH1 0xF8 DUP5 PUSH1 0x3 SHL AND SHR NOT AND SWAP1 SSTORE DUP11 DUP1 PUSH2 0xE3C JUMP JUMPDEST PUSH1 0x1 DUP5 SWAP6 PUSH1 0x20 SWAP4 SWAP6 DUP5 SWAP4 ADD MLOAD DUP2 SSTORE ADD SWAP5 ADD SWAP3 ADD PUSH2 0xE25 JUMP JUMPDEST PUSH2 0xEA5 SWAP1 DUP11 PUSH1 0x0 MSTORE PUSH1 0x20 PUSH1 0x0 KECCAK256 PUSH1 0x1F DUP5 ADD PUSH1 0x5 SHR DUP2 ADD SWAP2 PUSH1 0x20 DUP6 LT PUSH2 0x4DE JUMPI PUSH1 0x1F ADD PUSH1 0x5 SHR ADD SWAP1 PUSH2 0x17D4 JUMP JUMPDEST DUP10 PUSH2 0x87E JUMP JUMPDEST PUSH1 0x40 MLOAD PUSH3 0x461BCD PUSH1 0xE5 SHL DUP2 MSTORE PUSH1 0x20 PUSH1 0x4 DUP3 ADD MSTORE PUSH1 0x1C PUSH1 0x24 DUP3 ADD MSTORE PUSH28 0x50726F6A65637420747970652063616E6E6F7420626520656D707479 PUSH1 0x20 SHL PUSH1 0x44 DUP3 ADD MSTORE PUSH1 0x64 SWAP1 REVERT JUMPDEST PUSH1 0x40 MLOAD PUSH3 0x461BCD PUSH1 0xE5 SHL DUP2 MSTORE PUSH1 0x20 PUSH1 0x4 DUP3 ADD MSTORE PUSH1 0x1D PUSH1 0x24 DUP3 ADD MSTORE PUSH32 0x54656D706C617465206E616D652063616E6E6F7420626520656D707479000000 PUSH1 0x44 DUP3 ADD MSTORE PUSH1 0x64 SWAP1 REVERT JUMPDEST DUP4 CALLDATALOAD PUSH1 0x1 PUSH1 0x1 PUSH1 0x40 SHL SUB DUP2 GT PUSH2 0x234 JUMPI PUSH1 0x20 SWAP2 PUSH2 0xF58 DUP4 SWAP3 PUSH1 0x24 CALLDATASIZE SWAP2 DUP8 ADD ADD PUSH2 0x15F5 JUMP JUMPDEST DUP2 MSTORE ADD SWAP4 ADD SWAP3 PUSH2 0x7F2 JUMP JUMPDEST CALLVALUE PUSH2 0x234 JUMPI PUSH1 0x20 CALLDATASIZE PUSH1 0x3 NOT ADD SLT PUSH2 0x234 JUMPI PUSH1 0x4 CALLDATALOAD PUSH1 0x0 SLOAD DUP2 LT ISZERO PUSH2 0x234 JUMPI PUSH2 0xF8D PUSH2 0xFE5 SWAP2 PUSH2 0x164B JUMP JUMPDEST POP PUSH2 0xF97 DUP2 PUSH2 0x16BF JUMP JUMPDEST SWAP1 PUSH2 0xFA4 PUSH1 0x1 DUP3 ADD PUSH2 0x16BF JUMP JUMPDEST PUSH2 0x100F PUSH2 0xFB3 PUSH1 0x2 DUP5 ADD PUSH2 0x16BF JUMP JUMPDEST PUSH2 0x1001 PUSH2 0xFC2 PUSH1 0x5 DUP7 ADD PUSH2 0x16BF JUMP JUMPDEST SWAP2 PUSH2 0xFF3 PUSH1 0x7 PUSH1 0x6 DUP9 ADD SLOAD SWAP8 ADD SLOAD SWAP6 PUSH1 0x40 MLOAD SWAP10 DUP11 SWAP10 PUSH1 0xE0 DUP12 MSTORE PUSH1 0xE0 DUP12 ADD SWAP1 PUSH2 0x14D1 JUMP JUMPDEST SWAP1 DUP10 DUP3 SUB PUSH1 0x20 DUP12 ADD MSTORE PUSH2 0x14D1 JUMP JUMPDEST SWAP1 DUP8 DUP3 SUB PUSH1 0x40 DUP10 ADD MSTORE PUSH2 0x14D1 JUMP JUMPDEST SWAP1 DUP6 DUP3 SUB PUSH1 0x60 DUP8 ADD MSTORE PUSH2 0x14D1 JUMP JUMPDEST PUSH1 0xFF DUP4 AND ISZERO ISZERO PUSH1 0x80 DUP6 ADD MSTORE PUSH1 0x8 SWAP3 SWAP1 SWAP3 SHR PUSH1 0x1 PUSH1 0x1 PUSH1 0xA0 SHL SUB AND PUSH1 0xA0 DUP5 ADD MSTORE PUSH1 0xC0 DUP4 ADD MSTORE SUB SWAP1 RETURN JUMPDEST CALLVALUE PUSH2 0x234 JUMPI PUSH1 0x20 CALLDATASIZE PUSH1 0x3 NOT ADD SLT PUSH2 0x234 JUMPI PUSH1 0x4 CALLDATALOAD PUSH1 0x1 PUSH1 0x1 PUSH1 0x40 SHL SUB DUP2 GT PUSH2 0x234 JUMPI PUSH1 0x20 PUSH2 0x106C PUSH2 0x107F SWAP3 CALLDATASIZE SWAP1 PUSH1 0x4 ADD PUSH2 0x15F5 JUMP JUMPDEST DUP2 PUSH1 0x40 MLOAD SWAP4 DUP3 DUP6 DUP1 SWAP5 MLOAD SWAP4 DUP5 SWAP3 ADD PUSH2 0x14AE JUMP JUMPDEST DUP2 ADD PUSH1 0x1 DUP2 MSTORE SUB ADD SWAP1 KECCAK256 PUSH1 0x40 MLOAD SWAP1 DUP2 PUSH1 0x20 DUP3 SLOAD SWAP2 DUP3 DUP2 MSTORE ADD SWAP2 PUSH1 0x0 MSTORE PUSH1 0x20 PUSH1 0x0 KECCAK256 SWAP1 PUSH1 0x0 JUMPDEST DUP2 DUP2 LT PUSH2 0x10C7 JUMPI PUSH2 0x175 DUP6 PUSH2 0x10BB DUP2 DUP8 SUB DUP3 PUSH2 0x15D2 JUMP JUMPDEST PUSH1 0x40 MLOAD SWAP2 DUP3 SWAP2 DUP3 PUSH2 0x154F JUMP JUMPDEST DUP3 SLOAD DUP5 MSTORE PUSH1 0x20 SWAP1 SWAP4 ADD SWAP3 PUSH1 0x1 SWAP3 DUP4 ADD SWAP3 ADD PUSH2 0x10A4 JUMP JUMPDEST CALLVALUE PUSH2 0x234 JUMPI PUSH1 0x40 CALLDATASIZE PUSH1 0x3 NOT ADD SLT PUSH2 0x234 JUMPI PUSH1 0x4 CALLDATALOAD PUSH1 0x1 PUSH1 0x1 PUSH1 0xA0 SHL SUB DUP2 AND SWAP1 DUP2 SWAP1 SUB PUSH2 0x234 JUMPI PUSH1 0x24 CALLDATALOAD SWAP1 PUSH1 0x0 MSTORE PUSH1 0x2 PUSH1 0x20 MSTORE PUSH1 0x40 PUSH1 0x0 KECCAK256 DUP1 SLOAD DUP3 LT ISZERO PUSH2 0x234 JUMPI PUSH1 0x20 SWAP2 PUSH2 0x71A SWAP2 PUSH2 0x1589 JUMP JUMPDEST CALLVALUE PUSH2 0x234 JUMPI PUSH1 0x0 CALLDATASIZE PUSH1 0x3 NOT ADD SLT PUSH2 0x234 JUMPI PUSH1 0x0 SLOAD PUSH2 0x1146 DUP2 PUSH2 0x1763 JUMP JUMPDEST SWAP1 PUSH2 0x1154 PUSH1 0x40 MLOAD SWAP3 DUP4 PUSH2 0x15D2 JUMP JUMPDEST DUP1 DUP3 MSTORE PUSH1 0x1F NOT PUSH2 0x1163 DUP3 PUSH2 0x1763 JUMP JUMPDEST ADD CALLDATASIZE PUSH1 0x20 DUP5 ADD CALLDATACOPY PUSH1 0x0 JUMPDEST DUP2 DUP2 LT PUSH2 0x1182 JUMPI PUSH1 0x40 MLOAD DUP1 PUSH2 0x175 DUP6 DUP3 PUSH2 0x154F JUMP JUMPDEST DUP1 DUP1 PUSH2 0x1190 PUSH1 0x1 SWAP4 DUP7 PUSH2 0x17C0 JUMP JUMPDEST MSTORE ADD PUSH2 0x116D JUMP JUMPDEST CALLVALUE PUSH2 0x234 JUMPI PUSH1 0x0 CALLDATASIZE PUSH1 0x3 NOT ADD SLT PUSH2 0x234 JUMPI PUSH1 0x20 PUSH1 0x0 SLOAD PUSH1 0x40 MLOAD SWAP1 DUP2 MSTORE RETURN JUMPDEST CALLVALUE PUSH2 0x234 JUMPI PUSH1 0x20 CALLDATASIZE PUSH1 0x3 NOT ADD SLT PUSH2 0x234 JUMPI PUSH2 0x11D9 PUSH1 0x4 CALLDATALOAD PUSH2 0xBA PUSH1 0x0 SLOAD DUP3 LT PUSH2 0x177A JUMP JUMPDEST POP PUSH1 0x40 MLOAD SWAP1 PUSH2 0x120 DUP3 ADD PUSH1 0x1 PUSH1 0x1 PUSH1 0x40 SHL SUB DUP2 GT DUP4 DUP3 LT OR PUSH2 0x4E8 JUMPI PUSH1 0x40 MSTORE PUSH2 0x1201 DUP2 PUSH2 0x16BF JUMP JUMPDEST DUP3 MSTORE PUSH2 0x120F PUSH1 0x1 DUP3 ADD PUSH2 0x16BF JUMP JUMPDEST SWAP1 PUSH1 0x20 DUP4 ADD SWAP2 DUP3 MSTORE PUSH2 0x1223 PUSH1 0x2 DUP3 ADD PUSH2 0x16BF JUMP JUMPDEST SWAP3 PUSH1 0x40 DUP2 ADD SWAP4 DUP5 MSTORE PUSH1 0x3 DUP3 ADD SWAP4 DUP5 SLOAD PUSH2 0x123B DUP2 PUSH2 0x1763 JUMP JUMPDEST SWAP6 PUSH2 0x1249 PUSH1 0x40 MLOAD SWAP8 DUP9 PUSH2 0x15D2 JUMP JUMPDEST DUP2 DUP8 MSTORE PUSH1 0x20 DUP8 ADD SWAP1 PUSH1 0x0 MSTORE PUSH1 0x20 PUSH1 0x0 KECCAK256 PUSH1 0x0 SWAP2 JUMPDEST DUP4 DUP4 LT PUSH2 0x13BE JUMPI POP POP POP POP PUSH1 0x60 DUP3 ADD SWAP5 DUP6 MSTORE PUSH1 0x4 DUP4 ADD SWAP5 DUP6 SLOAD PUSH2 0x127F DUP2 PUSH2 0x1763 JUMP JUMPDEST SWAP1 PUSH2 0x128D PUSH1 0x40 MLOAD SWAP3 DUP4 PUSH2 0x15D2 JUMP JUMPDEST DUP1 DUP3 MSTORE PUSH1 0x20 DUP3 ADD SWAP8 PUSH1 0x0 MSTORE PUSH1 0x20 PUSH1 0x0 KECCAK256 SWAP8 PUSH1 0x0 SWAP1 JUMPDEST DUP3 DUP3 LT PUSH2 0x1362 JUMPI PUSH2 0x1320 DUP10 DUP10 PUSH2 0x1358 DUP11 PUSH2 0x134A DUP12 PUSH2 0x133C DUP13 DUP13 PUSH1 0x80 DUP7 ADD MSTORE PUSH2 0x132E PUSH2 0x12CF PUSH1 0x5 DUP10 ADD PUSH2 0x16BF JUMP JUMPDEST SWAP6 DUP7 PUSH1 0xA0 DUP3 ADD MSTORE PUSH1 0x7 PUSH1 0x6 DUP11 ADD SLOAD SWAP10 PUSH1 0xFF DUP12 AND ISZERO ISZERO SWAP11 DUP12 PUSH1 0xC0 DUP6 ADD MSTORE PUSH1 0x1 DUP1 PUSH1 0xA0 SHL SUB SWAP1 PUSH1 0x8 SHR AND PUSH1 0xE0 DUP5 ADD MSTORE ADD SLOAD PUSH2 0x100 DUP3 ADD MSTORE MLOAD SWAP9 MLOAD SWAP4 MLOAD SWAP2 MLOAD SWAP4 PUSH1 0x40 MLOAD SWAP11 DUP12 SWAP11 PUSH1 0xC0 DUP13 MSTORE PUSH1 0xC0 DUP13 ADD SWAP1 PUSH2 0x14D1 JUMP JUMPDEST SWAP1 DUP11 DUP3 SUB PUSH1 0x20 DUP13 ADD MSTORE PUSH2 0x14D1 JUMP JUMPDEST SWAP1 DUP9 DUP3 SUB PUSH1 0x40 DUP11 ADD MSTORE PUSH2 0x14D1 JUMP JUMPDEST SWAP1 DUP7 DUP3 SUB PUSH1 0x60 DUP9 ADD MSTORE PUSH2 0x14F6 JUMP JUMPDEST SWAP1 DUP5 DUP3 SUB PUSH1 0x80 DUP7 ADD MSTORE PUSH2 0x14D1 JUMP JUMPDEST SWAP1 PUSH1 0xA0 DUP4 ADD MSTORE SUB SWAP1 RETURN JUMPDEST PUSH1 0x4 PUSH1 0x20 PUSH1 0x1 SWAP3 DUP13 PUSH2 0x13AB PUSH1 0x3 PUSH1 0x40 MLOAD SWAP3 PUSH2 0x137C DUP5 PUSH2 0x15B7 JUMP JUMPDEST PUSH2 0x1385 DUP2 PUSH2 0x16BF JUMP JUMPDEST DUP5 MSTORE PUSH2 0x1392 DUP9 DUP3 ADD PUSH2 0x16BF JUMP JUMPDEST DUP7 DUP6 ADD MSTORE PUSH1 0xFF PUSH1 0x2 DUP3 ADD SLOAD AND ISZERO ISZERO PUSH1 0x40 DUP6 ADD MSTORE ADD PUSH2 0x16BF JUMP JUMPDEST PUSH1 0x60 DUP3 ADD MSTORE DUP2 MSTORE ADD SWAP11 ADD SWAP2 ADD SWAP1 SWAP9 PUSH2 0x12A2 JUMP JUMPDEST PUSH1 0x1 PUSH1 0x20 DUP2 SWAP3 PUSH2 0x13CD DUP6 PUSH2 0x16BF JUMP JUMPDEST DUP2 MSTORE ADD SWAP3 ADD SWAP3 ADD SWAP2 SWAP1 PUSH2 0x125D JUMP JUMPDEST CALLVALUE PUSH2 0x234 JUMPI PUSH1 0x20 CALLDATASIZE PUSH1 0x3 NOT ADD SLT PUSH2 0x234 JUMPI PUSH1 0x4 CALLDATALOAD PUSH2 0x13FC PUSH1 0x0 SLOAD DUP3 LT PUSH2 0x177A JUMP JUMPDEST PUSH2 0x1405 DUP2 PUSH2 0x164B JUMP JUMPDEST POP PUSH1 0x6 ADD SLOAD PUSH1 0x8 SHR PUSH1 0x1 PUSH1 0x1 PUSH1 0xA0 SHL SUB AND CALLER SUB PUSH2 0x145D JUMPI PUSH1 0x6 PUSH2 0x1427 DUP3 PUSH2 0x164B JUMP JUMPDEST POP ADD PUSH1 0xFF NOT DUP2 SLOAD AND SWAP1 SSTORE PUSH32 0x7207C44586DC0A66684A1BCEA62A6CF5B1E7E6365B0F6DE987DB6C32BD50CEC5 PUSH1 0x20 PUSH1 0x40 MLOAD TIMESTAMP DUP2 MSTORE LOG2 STOP JUMPDEST PUSH1 0x40 MLOAD PUSH3 0x461BCD PUSH1 0xE5 SHL DUP2 MSTORE PUSH1 0x20 PUSH1 0x4 DUP3 ADD MSTORE PUSH1 0x24 DUP1 DUP3 ADD MSTORE PUSH32 0x4F6E6C792074656D706C6174652063726561746F722063616E20646561637469 PUSH1 0x44 DUP3 ADD MSTORE PUSH4 0x76617465 PUSH1 0xE0 SHL PUSH1 0x64 DUP3 ADD MSTORE PUSH1 0x84 SWAP1 REVERT JUMPDEST PUSH1 0x0 JUMPDEST DUP4 DUP2 LT PUSH2 0x14C1 JUMPI POP POP PUSH1 0x0 SWAP2 ADD MSTORE JUMP JUMPDEST DUP2 DUP2 ADD MLOAD DUP4 DUP3 ADD MSTORE PUSH1 0x20 ADD PUSH2 0x14B1 JUMP JUMPDEST SWAP1 PUSH1 0x20 SWAP2 PUSH2 0x14EA DUP2 MLOAD DUP1 SWAP3 DUP2 DUP6 MSTORE DUP6 DUP1 DUP7 ADD SWAP2 ADD PUSH2 0x14AE JUMP JUMPDEST PUSH1 0x1F ADD PUSH1 0x1F NOT AND ADD ADD SWAP1 JUMP JUMPDEST SWAP1 DUP1 PUSH1 0x20 DUP4 MLOAD SWAP2 DUP3 DUP2 MSTORE ADD SWAP2 PUSH1 0x20 DUP1 DUP4 PUSH1 0x5 SHL DUP4 ADD ADD SWAP5 ADD SWAP3 PUSH1 0x0 SWAP2 JUMPDEST DUP4 DUP4 LT PUSH2 0x1522 JUMPI POP POP POP POP POP SWAP1 JUMP JUMPDEST SWAP1 SWAP2 SWAP3 SWAP4 SWAP5 PUSH1 0x20 DUP1 PUSH2 0x1540 PUSH1 0x1 SWAP4 PUSH1 0x1F NOT DUP7 DUP3 SUB ADD DUP8 MSTORE DUP10 MLOAD PUSH2 0x14D1 JUMP JUMPDEST SWAP8 ADD SWAP4 ADD SWAP4 ADD SWAP2 SWAP4 SWAP3 SWAP1 PUSH2 0x1513 JUMP JUMPDEST PUSH1 0x20 PUSH1 0x40 DUP2 DUP4 ADD SWAP3 DUP3 DUP2 MSTORE DUP5 MLOAD DUP1 SWAP5 MSTORE ADD SWAP3 ADD SWAP1 PUSH1 0x0 JUMPDEST DUP2 DUP2 LT PUSH2 0x1573 JUMPI POP POP POP SWAP1 JUMP JUMPDEST DUP3 MLOAD DUP5 MSTORE PUSH1 0x20 SWAP4 DUP5 ADD SWAP4 SWAP1 SWAP3 ADD SWAP2 PUSH1 0x1 ADD PUSH2 0x1566 JUMP JUMPDEST DUP1 SLOAD DUP3 LT ISZERO PUSH2 0x15A1 JUMPI PUSH1 0x0 MSTORE PUSH1 0x20 PUSH1 0x0 KECCAK256 ADD SWAP1 PUSH1 0x0 SWAP1 JUMP JUMPDEST PUSH4 0x4E487B71 PUSH1 0xE0 SHL PUSH1 0x0 MSTORE PUSH1 0x32 PUSH1 0x4 MSTORE PUSH1 0x24 PUSH1 0x0 REVERT JUMPDEST PUSH1 0x80 DUP2 ADD SWAP1 DUP2 LT PUSH1 0x1 PUSH1 0x1 PUSH1 0x40 SHL SUB DUP3 GT OR PUSH2 0x4E8 JUMPI PUSH1 0x40 MSTORE JUMP JUMPDEST PUSH1 0x1F SWAP1 SWAP2 ADD PUSH1 0x1F NOT AND DUP2 ADD SWAP1 PUSH1 0x1 PUSH1 0x1 PUSH1 0x40 SHL SUB DUP3 GT SWAP1 DUP3 LT OR PUSH2 0x4E8 JUMPI PUSH1 0x40 MSTORE JUMP JUMPDEST DUP2 PUSH1 0x1F DUP3 ADD SLT ISZERO PUSH2 0x234 JUMPI DUP1 CALLDATALOAD SWAP1 PUSH1 0x1 PUSH1 0x1 PUSH1 0x40 SHL SUB DUP3 GT PUSH2 0x4E8 JUMPI PUSH1 0x40 MLOAD SWAP3 PUSH2 0x1629 PUSH1 0x1F DUP5 ADD PUSH1 0x1F NOT AND PUSH1 0x20 ADD DUP6 PUSH2 0x15D2 JUMP JUMPDEST DUP3 DUP5 MSTORE PUSH1 0x20 DUP4 DUP4 ADD ADD GT PUSH2 0x234 JUMPI DUP2 PUSH1 0x0 SWAP3 PUSH1 0x20 DUP1 SWAP4 ADD DUP4 DUP7 ADD CALLDATACOPY DUP4 ADD ADD MSTORE SWAP1 JUMP JUMPDEST PUSH1 0x0 SLOAD DUP2 LT ISZERO PUSH2 0x15A1 JUMPI PUSH1 0x0 DUP1 DUP1 MSTORE PUSH1 0x3 SWAP2 SWAP1 SWAP2 SHL PUSH32 0x290DECD9548B62A8D60345A988386FC84BA6BC95484008F6362F93160EF3E563 ADD SWAP2 JUMP JUMPDEST SWAP1 PUSH1 0x1 DUP3 DUP2 SHR SWAP3 AND DUP1 ISZERO PUSH2 0x16B5 JUMPI JUMPDEST PUSH1 0x20 DUP4 LT EQ PUSH2 0x169F JUMPI JUMP JUMPDEST PUSH4 0x4E487B71 PUSH1 0xE0 SHL PUSH1 0x0 MSTORE PUSH1 0x22 PUSH1 0x4 MSTORE PUSH1 0x24 PUSH1 0x0 REVERT JUMPDEST SWAP2 PUSH1 0x7F AND SWAP2 PUSH2 0x1694 JUMP JUMPDEST SWAP1 PUSH1 0x40 MLOAD SWAP2 DUP3 PUSH1 0x0 DUP3 SLOAD SWAP3 PUSH2 0x16D3 DUP5 PUSH2 0x1685 JUMP JUMPDEST DUP1 DUP5 MSTORE SWAP4 PUSH1 0x1 DUP2 AND SWAP1 DUP2 ISZERO PUSH2 0x1741 JUMPI POP PUSH1 0x1 EQ PUSH2 0x16FA JUMPI JUMPDEST POP PUSH2 0x16F8 SWAP3 POP SUB DUP4 PUSH2 0x15D2 JUMP JUMPDEST JUMP JUMPDEST SWAP1 POP PUSH1 0x0 SWAP3 SWAP2 SWAP3 MSTORE PUSH1 0x20 PUSH1 0x0 KECCAK256 SWAP1 PUSH1 0x0 SWAP2 JUMPDEST DUP2 DUP4 LT PUSH2 0x1725 JUMPI POP POP SWAP1 PUSH1 0x20 PUSH2 0x16F8 SWAP3 DUP3 ADD ADD CODESIZE PUSH2 0x16EB JUMP JUMPDEST PUSH1 0x20 SWAP2 SWAP4 POP DUP1 PUSH1 0x1 SWAP2 SLOAD DUP4 DUP6 DUP10 ADD ADD MSTORE ADD SWAP2 ADD SWAP1 SWAP2 DUP5 SWAP3 PUSH2 0x170C JUMP JUMPDEST SWAP1 POP PUSH1 0x20 SWAP3 POP PUSH2 0x16F8 SWAP5 SWAP2 POP PUSH1 0xFF NOT AND DUP3 DUP5 ADD MSTORE ISZERO ISZERO PUSH1 0x5 SHL DUP3 ADD ADD CODESIZE PUSH2 0x16EB JUMP JUMPDEST PUSH1 0x1 PUSH1 0x1 PUSH1 0x40 SHL SUB DUP2 GT PUSH2 0x4E8 JUMPI PUSH1 0x5 SHL PUSH1 0x20 ADD SWAP1 JUMP JUMPDEST ISZERO PUSH2 0x1781 JUMPI JUMP JUMPDEST PUSH1 0x40 MLOAD PUSH3 0x461BCD PUSH1 0xE5 SHL DUP2 MSTORE PUSH1 0x20 PUSH1 0x4 DUP3 ADD MSTORE PUSH1 0x17 PUSH1 0x24 DUP3 ADD MSTORE PUSH23 0x15195B5C1B185D1948191BD95CC81B9BDD08195E1A5CDD PUSH1 0x4A SHL PUSH1 0x44 DUP3 ADD MSTORE PUSH1 0x64 SWAP1 REVERT JUMPDEST DUP1 MLOAD DUP3 LT ISZERO PUSH2 0x15A1 JUMPI PUSH1 0x20 SWAP2 PUSH1 0x5 SHL ADD ADD SWAP1 JUMP JUMPDEST DUP2 DUP2 LT PUSH2 0x17DF JUMPI POP POP JUMP JUMPDEST PUSH1 0x0 DUP2 SSTORE PUSH1 0x1 ADD PUSH2 0x17D4 JUMP JUMPDEST DUP2 PUSH1 0x1 SHL SWAP2 PUSH1 0x0 NOT SWAP1 PUSH1 0x3 SHL SHR NOT AND OR SWAP1 JUMP JUMPDEST DUP1 SLOAD PUSH1 0x1 PUSH1 0x40 SHL DUP2 LT ISZERO PUSH2 0x4E8 JUMPI PUSH2 0x181B SWAP2 PUSH1 0x1 DUP3 ADD DUP2 SSTORE PUSH2 0x1589 JUMP JUMPDEST DUP2 SWAP3 SWAP2 SLOAD SWAP1 PUSH1 0x3 SHL SWAP2 DUP3 SHL SWAP2 PUSH1 0x0 NOT SWAP1 SHL NOT AND OR SWAP1 SSTORE JUMP JUMPDEST DUP1 SLOAD DUP3 LT ISZERO PUSH2 0x15A1 JUMPI PUSH1 0x0 MSTORE PUSH1 0x20 PUSH1 0x0 KECCAK256 SWAP1 PUSH1 0x2 SHL ADD SWAP1 PUSH1 0x0 SWAP1 JUMP JUMPDEST SWAP1 PUSH2 0x1859 DUP3 PUSH2 0x1763 JUMP JUMPDEST PUSH2 0x1866 PUSH1 0x40 MLOAD SWAP2 DUP3 PUSH2 0x15D2 JUMP JUMPDEST DUP3 DUP2 MSTORE DUP1 SWAP3 PUSH2 0x1877 PUSH1 0x1F NOT SWAP2 PUSH2 0x1763 JUMP JUMPDEST ADD SWAP1 PUSH1 0x0 JUMPDEST DUP3 DUP2 LT PUSH2 0x1888 JUMPI POP POP POP JUMP JUMPDEST DUP1 PUSH1 0x60 PUSH1 0x20 DUP1 SWAP4 DUP6 ADD ADD MSTORE ADD PUSH2 0x187C JUMP INVALID 0xD2 SMOD SWAP3 PUSH25 0xFCB22234A7956BCC5EB65AD7662583E56AA048FA17163CFA52 0x2A 0xF8 0xD3 LOG2 PUSH5 0x6970667358 0x22 SLT KECCAK256 DUP10 0xC7 SWAP8 DUP15 0xF8 CHAINID 0x2E MSTORE8 DUP12 LOG0 PUSH17 0x809618F693B17798C60E58F46CB23D11B2 0xB6 CALLDATACOPY SELFDESTRUCT ADDRESS PUSH5 0x736F6C6343 STOP ADDMOD SHR STOP CALLER 0xD2 SMOD SWAP3 PUSH25 0xFCB22234A7956BCC5EB65AD7662583E56AA048FA17163CFA52 0x2A 0xF8 0xD3 PUSH19 0x657365617263685F636F6C6C61626F72617469 PUSH16 0x6E000000000000000000000000000000 "},"methodIdentifiers":{"addTemplateField(uint256,string,string,bool,string)":"df715769","createTemplate(string,string,string,string[],string)":"d3ebf9c5","deactivateTemplate(uint256)":"1d1a689e","getAllTemplates()":"8e46a300","getTemplate(uint256)":"31543cf4","getTemplateCount()":"5016959a","getTemplateFields(uint256)":"e74ed18a","getTemplatesByType(string)":"a12228e2","templates(uint256)":"bc525652","templatesByCreator(address,uint256)":"9a33dab0","templatesByType(string,uint256)":"d830082f"}}}}}