{"contracts/ALProjectVoting.sol":{"ALProjectVoting":{"abi":[{"inputs":[{"internalType":"address","name":"_project","type":"address"},{"internalType":"string","name":"_votingConsensus","type":"string"},{"internalType":"uint256","name":"_votingTimeoutSeconds","type":"uint256"}],"stateMutability":"nonpayable","type":"constructor"},{"anonymous":false,"inputs":[{"indexed":false,"internalType":"uint256","name":"round","type":"uint256"},{"indexed":false,"internalType":"uint256","name":"completedSamples","type":"uint256"},{"indexed":false,"internalType":"uint256","name":"timestamp","type":"uint256"}],"name":"BatchCompleted","type":"event"},{"anonymous":false,"inputs":[{"indexed":false,"internalType":"uint256","name":"round","type":"uint256"},{"indexed":false,"internalType":"string","name":"sampleId","type":"string"},{"indexed":false,"internalType":"string","name":"finalLabel","type":"string"},{"indexed":false,"internalType":"uint256","name":"remainingSamples","type":"uint256"}],"name":"BatchSampleCompleted","type":"event"},{"anonymous":false,"inputs":[{"indexed":false,"internalType":"uint256","name":"round","type":"uint256"},{"indexed":false,"internalType":"string[]","name":"sampleIds","type":"string[]"},{"indexed":false,"internalType":"uint256","name":"startTime","type":"uint256"}],"name":"BatchStarted","type":"event"},{"anonymous":false,"inputs":[{"indexed":false,"internalType":"string","name":"sampleId","type":"string"},{"indexed":false,"internalType":"string","name":"label","type":"string"}],"name":"ConsensusReached","type":"event"},{"anonymous":false,"inputs":[{"indexed":false,"internalType":"string","name":"sampleId","type":"string"},{"indexed":false,"internalType":"string","name":"finalLabel","type":"string"},{"indexed":false,"internalType":"uint256","name":"timestamp","type":"uint256"}],"name":"LabelStoredInProject","type":"event"},{"anonymous":false,"inputs":[{"indexed":false,"internalType":"string","name":"sampleId","type":"string"},{"indexed":false,"internalType":"uint256","name":"endTime","type":"uint256"}],"name":"TimeoutReached","type":"event"},{"anonymous":false,"inputs":[{"indexed":false,"internalType":"string","name":"sampleId","type":"string"},{"indexed":true,"internalType":"address","name":"voter","type":"address"},{"indexed":false,"internalType":"string","name":"label","type":"string"},{"indexed":false,"internalType":"bool","name":"support","type":"bool"},{"indexed":false,"internalType":"uint256","name":"timestamp","type":"uint256"}],"name":"VoteSubmitted","type":"event"},{"anonymous":false,"inputs":[{"indexed":false,"internalType":"string","name":"sampleId","type":"string"},{"indexed":false,"internalType":"uint256","name":"endTime","type":"uint256"}],"name":"VotingSessionEnded","type":"event"},{"anonymous":false,"inputs":[{"indexed":false,"internalType":"string","name":"sampleId","type":"string"},{"indexed":false,"internalType":"string","name":"finalLabel","type":"string"},{"indexed":false,"internalType":"uint256","name":"endTime","type":"uint256"},{"indexed":false,"internalType":"string","name":"reason","type":"string"}],"name":"VotingSessionFinalized","type":"event"},{"anonymous":false,"inputs":[{"indexed":false,"internalType":"string","name":"sampleId","type":"string"},{"indexed":false,"internalType":"uint256","name":"startTime","type":"uint256"}],"name":"VotingSessionStarted","type":"event"},{"inputs":[{"internalType":"uint256","name":"","type":"uint256"}],"name":"batches","outputs":[{"internalType":"uint256","name":"round","type":"uint256"},{"internalType":"uint256","name":"completedCount","type":"uint256"},{"internalType":"bool","name":"isActive","type":"bool"},{"internalType":"uint256","name":"startTime","type":"uint256"}],"stateMutability":"view","type":"function"},{"inputs":[{"internalType":"string","name":"sampleId","type":"string"}],"name":"checkAndFinalizeTimeout","outputs":[],"stateMutability":"nonpayable","type":"function"},{"inputs":[{"internalType":"string[]","name":"allSampleIds","type":"string[]"},{"internalType":"bool[]","name":"sampleActiveStates","type":"bool[]"},{"internalType":"string[]","name":"labelSpace","type":"string[]"},{"internalType":"uint256","name":"votingTimeout","type":"uint256"},{"internalType":"uint256","name":"_currentRound","type":"uint256"}],"name":"computeActiveBatch","outputs":[{"internalType":"string[]","name":"activeSampleIds","type":"string[]"},{"internalType":"string[]","name":"sampleData","type":"string[]"},{"internalType":"string[]","name":"labelOptions","type":"string[]"},{"internalType":"uint256","name":"timeRemaining","type":"uint256"},{"internalType":"uint256","name":"round","type":"uint256"}],"stateMutability":"view","type":"function"},{"inputs":[{"internalType":"uint256","name":"round","type":"uint256"},{"internalType":"string[]","name":"sampleIds","type":"string[]"},{"internalType":"bool[]","name":"sampleActiveStates","type":"bool[]"}],"name":"computeBatchProgress","outputs":[{"internalType":"uint256","name":"_round","type":"uint256"},{"internalType":"uint256","name":"totalSamples","type":"uint256"},{"internalType":"uint256","name":"activeSamplesCount","type":"uint256"},{"internalType":"uint256","name":"completedSamples","type":"uint256"},{"internalType":"string[]","name":"_sampleIds","type":"string[]"},{"internalType":"bool","name":"batchActive","type":"bool"}],"stateMutability":"pure","type":"function"},{"inputs":[{"internalType":"address[]","name":"participants","type":"address[]"},{"internalType":"string[]","name":"roles","type":"string[]"},{"internalType":"uint256[]","name":"weights","type":"uint256[]"}],"name":"computeEligibleVoters","outputs":[{"internalType":"address[]","name":"voters","type":"address[]"},{"internalType":"uint256[]","name":"eligibleWeights","type":"uint256[]"}],"stateMutability":"pure","type":"function"},{"inputs":[],"name":"consensusThreshold","outputs":[{"internalType":"uint256","name":"","type":"uint256"}],"stateMutability":"view","type":"function"},{"inputs":[],"name":"currentRound","outputs":[{"internalType":"uint256","name":"","type":"uint256"}],"stateMutability":"view","type":"function"},{"inputs":[{"internalType":"uint256","name":"round","type":"uint256"}],"name":"endBatchVoting","outputs":[],"stateMutability":"nonpayable","type":"function"},{"inputs":[{"internalType":"uint256","name":"round","type":"uint256"}],"name":"getBatchSamples","outputs":[{"internalType":"string[]","name":"","type":"string[]"}],"stateMutability":"view","type":"function"},{"inputs":[{"internalType":"uint256","name":"round","type":"uint256"}],"name":"getBatchStatus","outputs":[{"internalType":"bool","name":"isActive","type":"bool"},{"internalType":"uint256","name":"totalSamples","type":"uint256"},{"internalType":"uint256","name":"completedSamples","type":"uint256"},{"internalType":"uint256","name":"remainingSamples","type":"uint256"},{"internalType":"uint256","name":"startTime","type":"uint256"},{"internalType":"string[]","name":"sampleIds","type":"string[]"},{"internalType":"string[]","name":"sampleDataHashes","type":"string[]"},{"internalType":"uint256[]","name":"sampleOriginalIndices","type":"uint256[]"}],"stateMutability":"view","type":"function"},{"inputs":[],"name":"getCurrentBatchProgress","outputs":[{"internalType":"uint256","name":"round","type":"uint256"},{"internalType":"bool","name":"isActive","type":"bool"},{"internalType":"uint256","name":"totalSamples","type":"uint256"},{"internalType":"uint256","name":"completedSamples","type":"uint256"},{"internalType":"string[]","name":"sampleIds","type":"string[]"}],"stateMutability":"view","type":"function"},{"inputs":[{"internalType":"string","name":"sampleId","type":"string"}],"name":"getFinalLabel","outputs":[{"internalType":"string","name":"","type":"string"}],"stateMutability":"view","type":"function"},{"inputs":[{"internalType":"string","name":"sampleId","type":"string"}],"name":"getSampleOriginalIndex","outputs":[{"internalType":"uint256","name":"","type":"uint256"}],"stateMutability":"view","type":"function"},{"inputs":[],"name":"getVoterList","outputs":[{"components":[{"internalType":"address","name":"addr","type":"address"},{"internalType":"uint256","name":"weight","type":"uint256"}],"internalType":"struct ALProjectVoting.Voter[]","name":"","type":"tuple[]"}],"stateMutability":"view","type":"function"},{"inputs":[{"internalType":"string","name":"sampleId","type":"string"}],"name":"getVotes","outputs":[{"components":[{"internalType":"address","name":"voter","type":"address"},{"internalType":"string","name":"label","type":"string"},{"internalType":"bool","name":"support","type":"bool"},{"internalType":"uint256","name":"timestamp","type":"uint256"}],"internalType":"struct ALProjectVoting.Vote[]","name":"","type":"tuple[]"}],"stateMutability":"view","type":"function"},{"inputs":[{"internalType":"string","name":"sampleId","type":"string"}],"name":"getVotingDistribution","outputs":[{"internalType":"string[]","name":"labels","type":"string[]"},{"internalType":"uint256[]","name":"voteCounts","type":"uint256[]"},{"internalType":"uint256[]","name":"voteWeights","type":"uint256[]"}],"stateMutability":"view","type":"function"},{"inputs":[{"internalType":"string","name":"sampleId","type":"string"}],"name":"getVotingResult","outputs":[{"internalType":"bool","name":"isFinalized","type":"bool"},{"internalType":"string","name":"finalLabel","type":"string"},{"internalType":"uint256","name":"totalVotes","type":"uint256"},{"internalType":"uint256","name":"votedCount","type":"uint256"}],"stateMutability":"view","type":"function"},{"inputs":[{"internalType":"string","name":"sampleId","type":"string"}],"name":"getVotingSession","outputs":[{"internalType":"uint256","name":"startTime","type":"uint256"},{"internalType":"bool","name":"isActive","type":"bool"},{"internalType":"bool","name":"isFinalized","type":"bool"},{"internalType":"string","name":"finalLabel","type":"string"}],"stateMutability":"view","type":"function"},{"inputs":[{"internalType":"string","name":"sampleId","type":"string"}],"name":"getVotingSessionStatus","outputs":[{"internalType":"bool","name":"isActive","type":"bool"},{"internalType":"bool","name":"isFinalized","type":"bool"},{"internalType":"string","name":"finalLabel","type":"string"},{"internalType":"uint256","name":"startTime","type":"uint256"},{"internalType":"uint256","name":"timeRemaining","type":"uint256"},{"internalType":"uint256","name":"votedCount","type":"uint256"},{"internalType":"uint256","name":"totalVoters","type":"uint256"}],"stateMutability":"view","type":"function"},{"inputs":[{"internalType":"string","name":"sampleId","type":"string"},{"internalType":"address","name":"user","type":"address"}],"name":"hasUserVoted","outputs":[{"internalType":"bool","name":"","type":"bool"}],"stateMutability":"view","type":"function"},{"inputs":[{"internalType":"string","name":"sampleId","type":"string"}],"name":"isTimeoutReached","outputs":[{"internalType":"bool","name":"","type":"bool"}],"stateMutability":"view","type":"function"},{"inputs":[{"internalType":"string","name":"sampleId","type":"string"}],"name":"isVotingActive","outputs":[{"internalType":"bool","name":"","type":"bool"}],"stateMutability":"view","type":"function"},{"inputs":[{"internalType":"string","name":"sampleId","type":"string"},{"internalType":"string","name":"finalLabel","type":"string"}],"name":"notifyMainContractExternal","outputs":[],"stateMutability":"nonpayable","type":"function"},{"inputs":[],"name":"project","outputs":[{"internalType":"address","name":"","type":"address"}],"stateMutability":"view","type":"function"},{"inputs":[{"internalType":"address[]","name":"_voters","type":"address[]"},{"internalType":"uint256[]","name":"_weights","type":"uint256[]"}],"name":"setVoters","outputs":[],"stateMutability":"nonpayable","type":"function"},{"inputs":[{"internalType":"string[]","name":"sampleIds","type":"string[]"},{"internalType":"uint256","name":"round","type":"uint256"},{"internalType":"string[]","name":"sampleDataHashes","type":"string[]"},{"internalType":"uint256[]","name":"originalIndices","type":"uint256[]"}],"name":"startBatchVoting","outputs":[],"stateMutability":"nonpayable","type":"function"},{"inputs":[{"internalType":"string[]","name":"sampleIds","type":"string[]"},{"internalType":"string[]","name":"labels","type":"string[]"},{"internalType":"bool[]","name":"support","type":"bool[]"}],"name":"submitBatchVote","outputs":[],"stateMutability":"nonpayable","type":"function"},{"inputs":[{"internalType":"string[]","name":"sampleIds","type":"string[]"},{"internalType":"string[]","name":"labels","type":"string[]"},{"internalType":"address","name":"voter","type":"address"}],"name":"submitBatchVoteOnBehalf","outputs":[],"stateMutability":"nonpayable","type":"function"},{"inputs":[{"internalType":"uint256","name":"","type":"uint256"}],"name":"voterList","outputs":[{"internalType":"address","name":"","type":"address"}],"stateMutability":"view","type":"function"},{"inputs":[{"internalType":"address","name":"","type":"address"}],"name":"voterWeights","outputs":[{"internalType":"uint256","name":"","type":"uint256"}],"stateMutability":"view","type":"function"},{"inputs":[{"internalType":"string","name":"","type":"string"},{"internalType":"uint256","name":"","type":"uint256"}],"name":"votes","outputs":[{"internalType":"address","name":"voter","type":"address"},{"internalType":"string","name":"label","type":"string"},{"internalType":"bool","name":"support","type":"bool"},{"internalType":"uint256","name":"timestamp","type":"uint256"}],"stateMutability":"view","type":"function"},{"inputs":[],"name":"votingConsensus","outputs":[{"internalType":"string","name":"","type":"string"}],"stateMutability":"view","type":"function"},{"inputs":[{"internalType":"string","name":"","type":"string"}],"name":"votingSessions","outputs":[{"internalType":"uint256","name":"startTime","type":"uint256"},{"internalType":"bool","name":"isActive","type":"bool"},{"internalType":"bool","name":"isFinalized","type":"bool"},{"internalType":"string","name":"finalLabel","type":"string"},{"internalType":"uint256","name":"totalVoters","type":"uint256"},{"internalType":"uint256","name":"round","type":"uint256"}],"stateMutability":"view","type":"function"},{"inputs":[],"name":"votingTimeoutSeconds","outputs":[{"internalType":"uint256","name":"","type":"uint256"}],"stateMutability":"view","type":"function"},{"inputs":[{"internalType":"string","name":"sampleId","type":"string"}],"name":"wasConsensusAchieved","outputs":[{"internalType":"bool","name":"","type":"bool"}],"stateMutability":"view","type":"function"}],"evm":{"bytecode":{"linkReferences":{},"object":"60806040523461029757614b91803803806100198161029c565b9283398101906060818303126102975780516001600160a01b03811691908290036102975760208101516001600160401b03811161029757810183601f82011215610297578051906001600160401b03821161023557610082601f8301601f191660200161029c565b94828652602083830101116102975760005b82811061028257505060009084016020015260400151603360015590801561024b57600080546001600160a01b03191691909117905581516001600160401b03811161023557600354600181811c9116801561022b575b602082101461021557601f81116101b0575b50602092601f821160011461014b5792819293600092610140575b50508160011b916000199060031b1c1916176003555b6002556040516148cf90816102c28239f35b015190503880610118565b601f198216936003600052806000209160005b868110610198575083600195961061017f575b505050811b0160035561012e565b015160001960f88460031b161c19169055388080610171565b9192602060018192868501518155019401920161015e565b60036000527fc2575a0e9e593c00f959f8c92f12db2869c3395a3b0502d05e2516446f71f85b601f830160051c8101916020841061020b575b601f0160051c01905b8181106101ff57506100fd565b600081556001016101f2565b90915081906101e9565b634e487b7160e01b600052602260045260246000fd5b90607f16906100eb565b634e487b7160e01b600052604160045260246000fd5b60405162461bcd60e51b815260206004820152600f60248201526e496e76616c6964206164647265737360881b6044820152606490fd5b80602080928401015182828901015201610094565b600080fd5b6040519190601f01601f191682016001600160401b038111838210176102355760405256fe6080604052600436101561001257600080fd5b60003560e01c806304574fe814612b7f57806326a0613a14612b455780632d1bbc8e146129fd57806333f9625d146121f9578063367cb924146120975780634149738514612009578063414f8e7614611fcb578063428f833814611f7e57806350e2e8af14611f3c57806355d389a414611e5b5780635c97951e14611d2d5780636042ad6114611c715780636787225b14611c2f57806368acb1ab14611bec57806372678fcc14611a8657806375c255fc1461185f57806379c4ab15146117da578063805265e51461167a5780638520eb781461160c5780638a19c8bc146115ee5780639a6e81ab14611185578063a58df19a14611167578063a76fd84e14611061578063ab40d3ba14610f92578063b28d92ae14610e52578063b32c4d8d14610dff578063b49c447e14610d8b578063b8c3903414610c31578063cdbf3d01146108e3578063db7cde8b146107c2578063e7016ca71461077e578063f02a0f751461029c578063f18a5cec146101e9578063f60ca60d146101c05763f9b0b5b91461019d57600080fd5b346101bb5760003660031901126101bb576020600154604051908152f35b600080fd5b346101bb5760003660031901126101bb576000546040516001600160a01b039091168152602090f35b346101bb5760203660031901126101bb576004356001600160401b0381116101bb57602061021e610231923690600401612c95565b8160405193828580945193849201612cdc565b81016007815203019020805460018201549161024f60028201612f0e565b61028d600460038401549301549160ff60405196879687528181161515602088015260081c161515604086015260c0606086015260c0850190612cff565b91608084015260a08301520390f35b346101bb5760603660031901126101bb576004356001600160401b0381116101bb576102cc903690600401612dc8565b6024356001600160401b0381116101bb576102eb903690600401612dc8565b6044356001600160401b0381116101bb5761030a903690600401613088565b336000526004602052604060002054156107405782518251036106fb5782518151036106b75790339060005b845181101561057c578061034c600192876131ac565b5161035782856131ac565b519061036383886131ac565b5115159160405161039760ff878551936020818189019661038581838a612cdc565b81016007815203019020015416613424565b6103c660ff8760405160208188516103b081838a612cdc565b81016007815203019020015460081c161561346c565b6103fe60ff60406005815160208189516103e181838b612cdc565b81016007815203019020016000908c8252602052205416156134b7565b61040783613e48565b6105625760008051602061487a83398151915292916104c6916104676040516020818751610436818388612cdc565b810160068152030190206040519061044d82612c21565b33825284602083015288604083015242606083015261352f565b85604060058151602081895161047e81838a612cdc565b81016007815203019020016000908d8252602052208960ff198254161790556104df575b506104b860405193608085526080850190612cff565b908382036020850152612cff565b9260408201524260608201528033930390a25b01610336565b610508600660405160208188516104f7818389612cdc565b810160078152030190200183612fd8565b6105128154613373565b905533600052600460205261055a6105526007610542602060406000205495604051809381928c51928391612cdc565b8101848152030190200184612fd8565b918254613417565b90558b6104a2565b50506105779150610571613502565b90613e82565b6104d9565b848051610586575b005b61059a61059460049261319f565b51612fb2565b0154801515806106a8575b6105ab57005b60005260086020526105c360016040600020016131e3565b60005b815181101561058457806105dc600192846131ac565b5160405160ff84835192602081818701956105f8818389612cdc565b810160078152030190200154169081610675575b50610619575b50016105c6565b61062281614384565b8051156106635760008051602061485a8339815191529161064a6106446136df565b82613e82565b6106596040519283928361334b565b0390a15b83610612565b50610670906105716136a7565b61065d565b60ff915061069160208692604051809381928851928391612cdc565b81016007815203019020015460081c16158561060c565b506106b2816142dd565b6105a5565b606460405162461bcd60e51b815260206004820152602060248201527f4d69736d6174636865642073616d706c6549647320616e6420737570706f72746044820152fd5b60405162461bcd60e51b815260206004820152601f60248201527f4d69736d6174636865642073616d706c6549647320616e64206c6162656c73006044820152606490fd5b60405162461bcd60e51b81526020600482015260166024820152752737ba1030903932b3b4b9ba32b932b2103b37ba32b960511b6044820152606490fd5b346101bb5760203660031901126101bb576004356001600160401b0381116101bb576107b86107b36020923690600401612c95565b613d99565b6040519015158152f35b346101bb5760203660031901126101bb576004356001600160401b0381116101bb576107f2903690600401612c95565b604051908051916020818184019461080b818388612cdc565b8101600781520301902060009260006005549060058401905b82811061089657505050600261085660206108689360ff600187015460081c1696604051938492839251928391612cdc565b81016006815203019020549201612f0e565b9261088760405194859415158552608060208601526080850190612cff565b91604084015260608301520390f35b60ff60406108a383612ea3565b905460039190911b1c6001600160a01b0316600090815260208590522054166108cf575b600101610824565b956108db600191613373565b9690506108c7565b346101bb5760603660031901126101bb576004356001600160401b0381116101bb5761091390369060040161301a565b6024356001600160401b0381116101bb57610932903690600401612dc8565b906044356001600160401b0381116101bb57610952903690600401612e46565b908051835103610be1578051825103610b9057600090815b8151811015610a145761097d81866131ac565b516020815191012061098d613cd2565b602081519101201480156109ec575b80156109c4575b6109b0575b60010161096a565b916109bc600191613373565b9290506109a8565b506109cf81866131ac565b51602081519101206109df613d20565b60208151910120146109a3565b506109f781866131ac565b5160208151910120610a07613cf7565b602081519101201461099c565b509091610a2083612db1565b610a2d6040519182612c57565b838152610a4e610a3c85612db1565b602083019590601f190136873761316d565b9260009560005b8251811015610b3557610a6881836131ac565b5160208151910120610a78613cd2565b60208151910120148015610b0d575b8015610ae5575b610a9b575b600101610a55565b96600190610add906001600160a01b03610ab58b876131ac565b5116610ac182886131ac565b52610acc8a886131ac565b51610ad7828a6131ac565b52613373565b979050610a93565b50610af081836131ac565b5160208151910120610b00613d20565b6020815191012014610a8e565b50610b1881836131ac565b5160208151910120610b28613cf7565b6020815191012014610a87565b868487604051916040830190604084525180915260608301939060005b818110610b71578480610b6d88878382036020850152612d7d565b0390f35b82516001600160a01b0316865260209586019590920191600101610b52565b60405162461bcd60e51b8152602060048201526024808201527f5061727469636970616e74732f77656967687473206c656e677468206d69736d6044820152630c2e8c6d60e31b6064820152608490fd5b60405162461bcd60e51b815260206004820152602260248201527f5061727469636970616e74732f726f6c6573206c656e677468206d69736d61746044820152610c6d60f31b6064820152608490fd5b346101bb5760203660031901126101bb57600435610c5a60018060a01b0360005416331461323b565b80600052600860205260ff6003604060002001541615610d53576000526008602052610c8c60016040600020016131e3565b60005b81518110156105845780610ca5600192846131ac565b5160405160ff8483519260208181870195610cc1818389612cdc565b810160078152030190200154169081610d20575b50610ce2575b5001610c8f565b610d1a90604090610cf582519283612c57565b60138252724d616e75616c20626174636820656e64696e6760681b6020830152613e82565b83610cdb565b60ff9150610d3c60208692604051809381928851928391612cdc565b81016007815203019020015460081c161585610cd5565b60405162461bcd60e51b815260206004820152601060248201526f4261746368206e6f742061637469766560801b6044820152606490fd5b346101bb5760203660031901126101bb576004356001600160401b0381116101bb57610df1610b6d610dcc610dc7610de3943690600401612c95565b613a7e565b919390604051958695606087526060870190612d24565b908582036020870152612d7d565b908382036040850152612d7d565b346101bb5760203660031901126101bb57600435600052600860205260806040600020805490600281015490600460ff600383015416910154916040519384526020840152151560408301526060820152f35b346101bb5760003660031901126101bb57600554610e6f81612db1565b90610e7d6040519283612c57565b808252601f19610e8c82612db1565b0160005b818110610f6d57505060005b818110610efe578260405180916020820160208352815180915260206040840192019060005b818110610ed0575050500390f35b825180516001600160a01b031685526020908101518186015286955060409094019390920191600101610ec2565b80610f0a600192612ea3565b838060a01b0391549060031b1c16610f2182612ea3565b848060a01b0391549060031b1c16600052600460205260406000205460405191610f4a83612c3c565b82526020820152610f5b82866131ac565b52610f6681856131ac565b5001610e9c565b602090604051610f7c81612c3c565b6000815260008382015282828701015201610e90565b346101bb5760a03660031901126101bb576004356001600160401b0381116101bb57610fc2903690600401612dc8565b6024356001600160401b0381116101bb57610fe1903690600401613088565b604435916001600160401b0383116101bb5761101c611052926110449261100f611036963690600401612dc8565b6084359260643592613759565b93959260409591955197889760a0895260a0890190612d24565b908782036020890152612d24565b908582036040870152612d24565b91606084015260808301520390f35b346101bb5760603660031901126101bb576024356001600160401b0381116101bb57611091903690600401612dc8565b6044356001600160401b0381116101bb576110b0903690600401613088565b906110be815183511461370e565b600080805b8351821015611114576110d682866131ac565b51156110f0576110e7600191613373565b915b01906110c3565b908351611100575b6001906110e9565b9161110c600191613373565b9290506110f8565b835183811515868161115d575b6111519192604051958695600435875260208701526040860152606085015260c0608085015260c0840190612d24565b90151560a08301520390f35b8415159150611121565b346101bb5760003660031901126101bb576020600254604051908152f35b346101bb5760603660031901126101bb576004356001600160401b0381116101bb576111b5903690600401612dc8565b6024356001600160401b0381116101bb576111d4903690600401612dc8565b6044356001600160a01b038116908190036101bb576111fe60018060a01b0360005416331461323b565b82518251036115b55782511561158257806000526004602052604060002054156115465760009160005b84518110156114305761123b81866131ac565b5161124682846131ac565b5160405161126660ff60018551936020818189019661038581838a612cdc565b61128060ff600160405160208188516103b081838a612cdc565b6112b860ff604060058151602081895161129b81838b612cdc565b81016007815203019020016000908a8252602052205416156134b7565b83156113f9575b918591600194936112cf83613e48565b6113e557916113cf6104b89260008051602061487a833981519152946113326040516020818751611301818388612cdc565b810160068152030190206040519061131882612c21565b8982528460208301528b604083015242606083015261352f565b6040600581516020818851611348818389612cdc565b8101600781520301902001600090898252602052208960ff1982541617905561137f600660405160208188516104f7818389612cdc565b6113898154613373565b90558660005260046020526113b96105526007610542602060406000205495604051809381928c51928391612cdc565b9055604051938493608085526080850190612cff565b8660408301524260608301520390a25b01611228565b50506113f49150610571613502565b6113df565b95506001929185916004604051602081806114188d8851928391612cdc565b810160078152030190200154979193945091506112bf565b8380151580611537575b61144057005b600052600860205261145860016040600020016131e3565b60005b81518110156105845780611471600192846131ac565b5160405160ff848351926020818187019561148d818389612cdc565b810160078152030190200154169081611504575b506114ae575b500161145b565b6114b781614384565b8051156114f25760008051602061485a833981519152916114d96106446136df565b6114e86040519283928361334b565b0390a15b836114a7565b506114ff906105716136a7565b6114ec565b60ff915061152060208692604051809381928851928391612cdc565b81016007815203019020015460081c1615856114a1565b50611541816142dd565b61143a565b60405162461bcd60e51b8152602060048201526014602482015273159bdd195c881b9bdd081c9959da5cdd195c995960621b6044820152606490fd5b60405162461bcd60e51b815260206004820152600b60248201526a08adae0e8f240c4c2e8c6d60ab1b6044820152606490fd5b60405162461bcd60e51b81526020600482015260116024820152704d69736d6174636865642061727261797360781b6044820152606490fd5b346101bb5760003660031901126101bb576020600954604051908152f35b346101bb5760003660031901126101bb57600954806000526008602052604060002090610b6d60ff600384015416926001810161164f60028254930154916131e3565b916040519586958652151560208601526040850152606084015260a0608084015260a0830190612d24565b346101bb5760203660031901126101bb576004356001600160401b0381116101bb57602061021e6116af923690600401612c95565b810160068152030190208054906116c582612db1565b916116d36040519384612c57565b80835260208301809260005260206000206000915b83831061178657848660405191829160208301906020845251809152604083019060408160051b85010192916000905b82821061172757505050500390f35b919360019193955060208091603f19898203018552875190848060a01b038251168152606080611764858501516080878601526080850190612cff565b9360408101511515604085015201519101529601920192018594939192611718565b6004602060019260405161179981612c21565b848060a01b0386541681526117af858701612f0e565b8382015260ff60028701541615156040820152600386015460608201528152019201920191906116e8565b346101bb5760203660031901126101bb576004356001600160401b0381116101bb57602061021e61180f923690600401612c95565b810160078152030190208054610b6d61182f600260018501549401612f0e565b60ff60405194859485528181161515602086015260081c1615156040840152608060608401526080830190612cff565b346101bb5760403660031901126101bb576004356001600160401b0381116101bb5761188f90369060040161301a565b6024356001600160401b0381116101bb576118ae903690600401612e46565b906118c460018060a01b0360005416331461323b565b8051825103611a4c5760005b60055481101561190957806118e6600192612ea3565b838060a01b0391549060031b1c16600052600460205260006040812055016118d0565b50600554600060055580611a13575b5060005b81518110156105845761192f81846131ac565b51156119ce5761193f81846131ac565b516001600160a01b0361195283856131ac565b51166000908152600460205260409020556001600160a01b0361197582846131ac565b51600554929116600160401b8310156119b857611999836001809501600555612ea3565b819291549060031b91821b91858060a01b03901b19161790550161191c565b634e487b7160e01b600052604160045260246000fd5b60405162461bcd60e51b815260206004820152601d60248201527f576569676874206d7573742062652067726561746572207468616e20300000006044820152606490fd5b6005600052611a46907f036b6384b5eca791c62761152d0c79bb0604c104a5fb6f4eb0703f3154bb3db090810190613284565b82611918565b60405162461bcd60e51b81526020600482015260126024820152714d69736d617463686564206c656e6774687360701b6044820152606490fd5b346101bb5760203660031901126101bb576004356001600160401b0381116101bb57602061021e611abb923690600401612c95565b81016007815203019020600060025480151580611bde575b80611bcc575b611ba7575b5060009060009260055460058201945b818110611b5a57505060ff9350600181015492815492611b41611b18600260038601549501612f0e565b6040519787818a99161515895260081c161515602088015260e0604088015260e0870190612cff565b936060860152608085015260a084015260c08301520390f35b60ff6040611b6783612ea3565b905460039190911b1c6001600160a01b031660009081526020899052205416611b93575b600101611aee565b93611b9f600191613373565b949050611b8b565b611bb2908354613417565b80421015611ade57611bc6915042906131c0565b82611ade565b5060ff600184015460081c1615611ad9565b5060ff600184015416611ad3565b346101bb5760203660031901126101bb576004356000526008602052610b6d611c1b60016040600020016131e3565b604051918291602083526020830190612d24565b346101bb5760203660031901126101bb576004356001600160401b0381116101bb57611c69611c646020923690600401612c95565b613382565b604051908152f35b346101bb5760403660031901126101bb576004356001600160401b0381116101bb57611ca1903690600401612c95565b611cbd6020602435928160405193828580945193849201612cdc565b810160068152030190209081548110156101bb57611cda91612ffe565b5080546001600160a01b0316611cf260018301612f0e565b91600360ff600283015416910154611d1c6040519485948552608060208601526080850190612cff565b911515604084015260608301520390f35b346101bb5760403660031901126101bb576004356001600160401b0381116101bb57611d5d903690600401612c95565b6024356001600160401b0381116101bb57611d7c903690600401612c95565b90303303611e21576000546001600160a01b0316803b156101bb576000604051809263160c220d60e31b8252818381611db989896004840161334b565b03925af1611e10575b506000546001600160a01b031691823b156101bb57611dfb92600092836040518096819582946314faf32d60e11b84526004840161334b565b03925af1611e0557005b600061058491612c57565b6000611e1b91612c57565b82611dc2565b60405162461bcd60e51b8152602060048201526012602482015271496e7465726e616c2063616c6c206f6e6c7960701b6044820152606490fd5b346101bb5760003660031901126101bb576040516000600354611e7d81612ed4565b8084529060018116908115611f185750600114611eb9575b610b6d83611ea581850382612c57565b604051918291602083526020830190612cff565b600360009081527fc2575a0e9e593c00f959f8c92f12db2869c3395a3b0502d05e2516446f71f85b939250905b808210611efe57509091508101602001611ea5611e95565b919260018160209254838588010152019101909291611ee6565b60ff191660208086019190915291151560051b84019091019150611ea59050611e95565b346101bb5760203660031901126101bb576004356005548110156101bb57611f65602091612ea3565b905460405160039290921b1c6001600160a01b03168152f35b346101bb5760203660031901126101bb576004356001600160401b0381116101bb57611ea56002611fbb602061021e610b6d953690600401612c95565b8101600781520301902001612f0e565b346101bb5760203660031901126101bb576004356001600160a01b038116908190036101bb5760005260046020526020604060002054604051908152f35b346101bb5760403660031901126101bb576004356001600160401b0381116101bb57612039903690600401612c95565b602435906001600160a01b03821682036101bb5761206860206005928160405193828580945193849201612cdc565b81016007815203019020019060018060a01b0316600052602052602060ff604060002054166040519015158152f35b346101bb5760203660031901126101bb576004356001600160401b0381116101bb576120c7903690600401612c95565b61212860ff6001612112602060405161210185858951938581818d01966120ef81838a612cdc565b810160078152030190200154166132ca565b604051809381928951928391612cdc565b81016007815203019020015460081c161561330b565b61213181613e48565b156121ba576121b57ffe2a617c3a0856bbd203e77cee3d518a00f599c8a955224e80b1d0a1afd95703916121a760405161216c606082612c57565b602281527f54696d656f75742072656163686564202d2065787465726e616c20747269676760208201526132b960f11b604082015282613e82565b6040519182914290836132ae565b0390a1005b60405162461bcd60e51b8152602060048201526017602482015276151a5b595bdd5d081b9bdd081c995858da1959081e595d604a1b6044820152606490fd5b346101bb5760803660031901126101bb576004356001600160401b0381116101bb57612229903690600401612dc8565b6024356044356001600160401b0381116101bb5761224b903690600401612dc8565b906064356001600160401b0381116101bb5761226b903690600401612e46565b9261228160018060a01b0360005416331461323b565b8051156129c35780518351036129705780518451036129135781600052600860205260ff600360406000200154166128c25760008281526008602052604090208281558151600190910190600160401b81116119b8578154818355808210612844575b5060208301916000526020600020916000905b82821061273a5750505060008381526008602052604081206002810182905560038101805460ff191660011790554260049091015590505b815181101561249b5761234281856131ac565b51836000526008602052612367600560406000200161236184866131ac565b51612fd8565b815190916001600160401b0382116119b8576123838354612ed4565b601f811161245e575b50602090601f83116001146123f35791806123b59260019695946000926123e8575b505061329b565b90555b6123c281876131ac565b518460005260086020526123e1600660406000200161236184876131ac565b550161232f565b015190508a806123ae565b90601f1983169184600052816000209260005b81811061244657509160019695949291838895931061242d575b505050811b0190556123b8565b015160001960f88460031b161c19169055898080612420565b92936020600181928786015181550195019301612406565b61248b90846000526020600020601f850160051c81019160208610612491575b601f0160051c0190613284565b8861238c565b909150819061247e565b508160095560005b81518110156126f0576124b681836131ac565b519060405160ff6001845192602081818801956124d4818389612cdc565b810160078152030190200154166126a15760ff600160405160208187516124fc818389612cdc565b81016007815203019020015460081c166126615760046125bf602087936040518751612529818385612cdc565b81019060078252838142930301902055600160405183818a5161254d818388612cdc565b8101600781520301902001600160ff19825416179055600160405183818a51612577818388612cdc565b810160078152030190200161ff00198154169055600554600360405184818b516125a2818389612cdc565b810160078152030190200155604051809381928951928391612cdc565b8101600781520301902001557f1a6063ea5a85373503082e9047ebbde10c2ef86a0029b81921668e4a2ea190e3604051806125fb4286836132ae565b0390a16000546001600160a01b031691823b156101bb576000612640600194829360405194858094819363b2be4d6560e01b8352602060048401526024830190612cff565b03925af1612650575b50016124a3565b600061265b91612c57565b84612649565b60405162461bcd60e51b815260206004820152601860248201527714d85b5c1b1948185b1c9958591e48199a5b985b1a5e995960421b6044820152606490fd5b60405162461bcd60e51b815260206004820152602160248201527f53616d706c6520616c726561647920686173206163746976652073657373696f6044820152603760f91b6064820152608490fd5b507f915b7f3f33ca682a46c0a82bcae59307624896b80801e6ea2c6e702a10499ece9161272f6040519283928352606060208401526060830190612d24565b4260408301520390a1005b80518051906001600160401b0382116119b8576127578654612ed4565b601f8111612812575b50602090601f83116001146127a5579261278b8360019594602094879660009261279a57505061329b565b87555b019401910190926122f7565b015190508e806123ae565b90601f1983169187600052816000209260005b8181106127fa57509360209360019693879693838895106127e1575b505050811b01875561278e565b015160001960f88460031b161c191690558d80806127d4565b929360206001819287860151815501950193016127b8565b61283e90876000526020600020601f850160051c8101916020861061249157601f0160051c0190613284565b8a612760565b8260005281602060002091820191015b81811061286157506122e4565b8061286e60019254612ed4565b8061287b575b5001612854565b601f811183146128915750600081555b89612874565b6128af908260005283601f6020600020920160051c82019101613284565b806000526000602081208183555561288b565b60405162461bcd60e51b815260206004820152602360248201527f426174636820616c72656164792061637469766520666f72207468697320726f6044820152621d5b9960ea1b6064820152608490fd5b60405162461bcd60e51b815260206004820152602f60248201527f53616d706c652049447320616e64206f726967696e616c20696e64696365732060448201526e0d8cadccee8d040dad2e6dac2e8c6d608b1b6064820152608490fd5b60405162461bcd60e51b815260206004820152602560248201527f53616d706c652049447320616e6420686173686573206c656e677468206d69736044820152640dac2e8c6d60db1b6064820152608490fd5b60405162461bcd60e51b815260206004820152601260248201527108adae0e8f240e6c2dae0d8ca40c4c2e8c6d60731b6044820152606490fd5b346101bb5760203660031901126101bb576004356000526008602052604060002060018101805491612a2e83613123565b612a378461316d565b91600060058201600683018654925b888110612ad0578888610b6d89612ac28a612ab48b60ff60038201541696600282015491612a826004612a79858d6131c0565b920154926131e3565b926040519a8b9a15158b5260208b015260408a01526060890152608088015261010060a0880152610100870190612d24565b9085820360c0870152612d24565b9083820360e0850152612d7d565b600084821015612b315790612b1f83612af2836020868e600198522001612f0e565b612b04612aff8883612fd8565b612f0e565b612b0e858c6131ac565b52612b19848b6131ac565b50612fd8565b54612b2a828a6131ac565b5201612a46565b634e487b7160e01b81526032600452602490fd5b346101bb5760203660031901126101bb576004356001600160401b0381116101bb576107b8612b7a6020923690600401612c95565b613e48565b346101bb5760203660031901126101bb576004356001600160401b0381116101bb57612bb16020913690600401612c95565b60405160ff6001835192858181870195612bcc818389612cdc565b810160078152030190200154169182612bec575b50506040519015158152f35b60ff925083600192612c0992604051938492839251928391612cdc565b81016007815203019020015460081c16158280612be0565b608081019081106001600160401b038211176119b857604052565b604081019081106001600160401b038211176119b857604052565b601f909101601f19168101906001600160401b038211908210176119b857604052565b6001600160401b0381116119b857601f01601f191660200190565b81601f820112156101bb57803590612cac82612c7a565b92612cba6040519485612c57565b828452602083830101116101bb57816000926020809301838601378301015290565b60005b838110612cef5750506000910152565b8181015183820152602001612cdf565b90602091612d1881518092818552858086019101612cdc565b601f01601f1916010190565b9080602083519182815201916020808360051b8301019401926000915b838310612d5057505050505090565b9091929394602080612d6e600193601f198682030187528951612cff565b97019301930191939290612d41565b906020808351928381520192019060005b818110612d9b5750505090565b8251845260209384019390920191600101612d8e565b6001600160401b0381116119b85760051b60200190565b9080601f830112156101bb578135612ddf81612db1565b92612ded6040519485612c57565b81845260208085019260051b820101918383116101bb5760208201905b838210612e1957505050505090565b81356001600160401b0381116101bb57602091612e3b87848094880101612c95565b815201910190612e0a565b9080601f830112156101bb578135612e5d81612db1565b92612e6b6040519485612c57565b81845260208085019260051b8201019283116101bb57602001905b828210612e935750505090565b8135815260209182019101612e86565b600554811015612ebe57600560005260206000200190600090565b634e487b7160e01b600052603260045260246000fd5b90600182811c92168015612f04575b6020831014612eee57565b634e487b7160e01b600052602260045260246000fd5b91607f1691612ee3565b9060405191826000825492612f2284612ed4565b8084529360018116908115612f905750600114612f49575b50612f4792500383612c57565b565b90506000929192526020600020906000915b818310612f74575050906020612f479282010138612f3a565b6020919350806001915483858901015201910190918492612f5b565b905060209250612f4794915060ff191682840152151560051b82010138612f3a565b6020612fcb918160405193828580945193849201612cdc565b8101600781520301902090565b602090612ff2928260405194838680955193849201612cdc565b82019081520301902090565b8054821015612ebe5760005260206000209060021b0190600090565b9080601f830112156101bb5781359061303282612db1565b926130406040519485612c57565b82845260208085019360051b8201019182116101bb57602001915b8183106130685750505090565b82356001600160a01b03811681036101bb5781526020928301920161305b565b9080601f830112156101bb578135906130a082612db1565b926130ae6040519485612c57565b82845260208085019360051b8201019182116101bb57602001915b8183106130d65750505090565b823580151581036101bb578152602092830192016130c9565b604051906130fe602083612c57565b600080835282815b82811061311257505050565b806060602080938501015201613106565b9061312d82612db1565b61313a6040519182612c57565b828152809261314b601f1991612db1565b019060005b82811061315c57505050565b806060602080938501015201613150565b9061317782612db1565b6131846040519182612c57565b8281528092613195601f1991612db1565b0190602036910137565b805115612ebe5760200190565b8051821015612ebe5760209160051b010190565b919082039182116131cd57565b634e487b7160e01b600052601160045260246000fd5b9081546131ef81612db1565b926131fd6040519485612c57565b818452602084019060005260206000206000915b83831061321e5750505050565b60016020819261322d85612f0e565b815201920192019190613211565b1561324257565b60405162461bcd60e51b815260206004820152601a60248201527913db9b1e481b585a5b881c1c9bda9958dd0818d85b8818d85b1b60321b6044820152606490fd5b81811061328f575050565b60008155600101613284565b8160011b916000199060031b1c19161790565b9291906132c5602091604086526040860190612cff565b930152565b156132d157565b60405162461bcd60e51b815260206004820152601260248201527153657373696f6e206e6f742061637469766560701b6044820152606490fd5b1561331257565b60405162461bcd60e51b8152602060048201526011602482015270105b1c9958591e48199a5b985b1a5e9959607a1b6044820152606490fd5b909161336261337093604084526040840190612cff565b916020818403910152612cff565b90565b60001981146131cd5760010190565b6009549060015b8281111561339957505050600090565b8060005260086020526133b260016040600020016131e3565b9260005b8451811015613406576133c981866131ac565b516020815191012084516020860120146133e5576001016133b6565b505061340292506000526008602052600660406000200190612fd8565b5490565b50925061341290613373565b613389565b919082018092116131cd57565b1561342b57565b60405162461bcd60e51b8152602060048201526019602482015278566f74696e672073657373696f6e206e6f742061637469766560381b6044820152606490fd5b1561347357565b606460405162461bcd60e51b815260206004820152602060248201527f566f74696e672073657373696f6e20616c72656164792066696e616c697a65646044820152fd5b156134be57565b60405162461bcd60e51b815260206004820152601c60248201527b416c726561647920766f746564206f6e20746869732073616d706c6560201b6044820152606490fd5b60405190613511604083612c57565b600f82526e151a5b595bdd5d081c995858da1959608a1b6020830152565b8054600160401b8110156119b85761354c91600182018155612ffe565b91909161369157805182546001600160a01b0319166001600160a01b03919091161782556020810151805160018401916001600160401b0382116119b8576135948354612ed4565b601f811161365f575b50602090601f83116001146135f3578260039593606095936135c7936000926135e857505061329b565b90555b600284016040820151151560ff801983541691161790550151910155565b0151905038806123ae565b90601f1983169184600052816000209260005b818110613647575092600192859260039896606098961061362f575b505050811b0190556135ca565b015160001983891b60f8161c19169055388080613622565b92936020600181928786015181550195019301613606565b61368b90846000526020600020601f850160051c8101916020861061249157601f0160051c0190613284565b3861359d565b634e487b7160e01b600052600060045260246000fd5b604051906136b6604083612c57565b601a825279082d8d840ecdee8cae4e640c6dedae0d8cae8cac840c4c2e8c6d60331b6020830152565b604051906136ee604083612c57565b601182527010dbdb9cd95b9cdd5cc81c995858da1959607a1b6020830152565b1561371557565b60405162461bcd60e51b815260206004820152600f60248201526e098cadccee8d040dad2e6dac2e8c6d608b1b6044820152606490fd5b519081151582036101bb57565b9293909461376a845187511461370e565b60009360005b81518110156137a55761378381896131ac565b51613791575b600101613770565b9461379d600191613373565b959050613789565b509193949092948015613a53576137bb90613123565b9360009360005b8451811015613818576137d5818a6131ac565b516137e3575b6001016137c2565b946138106001916137f488886131ac565b516137ff828b6131ac565b5261380a818a6131ac565b50613373565b9590506137db565b50959250939250945061382b8251613123565b94836000526008602052604060002093600560009501945b84518110156138f35780613859600192876131ac565b51613867612aff8983612fd8565b80519091901561388f575061387c828b6131ac565b52613887818a6131ac565b505b01613843565b90506138d8603060405180936f029b0b6b83632903230ba30903337b9160851b60208301526138c78151809260208686019101612cdc565b81010301601f198101835282612c57565b6138e2828b6131ac565b526138ed818a6131ac565b50613889565b5092909350939093600093815161390d575b509493929190565b61393d8561391a8461319f565b51604051809381926379c4ab1560e01b8352602060048401526024830190612cff565b0381305afa908115613a485786918791889161399f575b5081613996575b50613967575b50613905565b61397490959295426131c0565b908082106139875750505b923880613961565b61399192506131c0565b61397f565b9050153861395b565b925050503d8087833e6139b28183612c57565b810190608081830312613a445780516139cd6020830161374c565b926139da6040840161374c565b606084015190936001600160401b038211613a3c570181601f82011215613a4057805191613a0783612c7a565b90613a156040519283612c57565b83825260208484010111613a3c5790602080613a349493019101612cdc565b919038613954565b8a80fd5b8980fd5b8680fd5b6040513d88823e3d90fd5b50505091509150613a626130ef565b90613a6b6130ef565b92613a746130ef565b9293929160009190565b60405181519060208181850193613a96818387612cdc565b81016006815203019020918254613aac81612db1565b93613aba6040519586612c57565b818552602085019060005260206000206000915b838310613c7e5750505050613af191602091604051938492839251928391612cdc565b8101600781520301902090805115613c3d57613b0d8151613123565b90600093845b8251811015613b9f576020613b2882856131ac565b510151600060208201815b898110613b70575b505015613b4c575b50600101613b13565b86613b6991613b5e60019499886131ac565b5261380a81876131ac565b9590613b43565b613b7a81896131ac565b51602081519101208451832014613b9357600101613b33565b50505060013880613b3b565b509192939050613bae81613123565b90613bb88161316d565b94613bc28261316d565b94600782019160060160005b848110613bdf575050505050929190565b80613bec600192856131ac565b51613bf782896131ac565b52613c0281886131ac565b50613c118361236183876131ac565b54613c1c828c6131ac565b52613c2b8561236183876131ac565b54613c36828b6131ac565b5201613bce565b5050613c476130ef565b60405191602091613c588385612c57565b60008452600036813760405192613c6f8185612c57565b60008452506000368137929190565b60046020600192604051613c9181612c21565b848060a01b038654168152613ca7858701612f0e565b8382015260ff6002870154161515604082015260038601546060820152815201920192019190613ace565b60405190613ce1604083612c57565b600782526631b932b0ba37b960c91b6020830152565b60405190613d06604083612c57565b600b82526a31b7b73a3934b13aba37b960a91b6020830152565b60405190613d2f604083612c57565b600b82526a31b7b7b93234b730ba37b960a91b6020830152565b60405190613d58604083612c57565b600c82526b4e4f5f434f4e53454e53555360a01b6020830152565b60405190613d82604083612c57565b60088252674e4f5f564f54455360c01b6020830152565b60405160ff600183519260208181870195613db5818389612cdc565b81016007815203019020015460081c1615613e07576002611fbb6020613de693604051809381928851928391612cdc565b80518015908115613e2b575b508015613e0e575b613e075761337091614535565b5050600090565b5080516020820120613e1e613d73565b6020815191012014613dfa565b90506020820120613e3a613d49565b602081519101201438613df2565b6002548015613e0757613e6d6020613e7d938160405193828580945193849201612cdc565b8101600781520301902054613417565b421190565b906000604051613ea460ff6001865193602081818a01966120ef81838a612cdc565b613ebe60ff6001604051602081895161211281838a612cdc565b60016040516020818751613ed3818388612cdc565b810160078152030190200160ff19815416905560016040516020818751613efb818388612cdc565b810160078152030190200161010061ff0019825416179055613f1c846146bd565b9260026040516020818851613f32818389612cdc565b8101600781520301902001845160018060401b0381116142c957613f568254612ed4565b601f8111614299575b506020601f821160011461421d5761400f61402394602094613f9c856004999660008051602061483a833981519152968c91614212575b5061329b565b90555b7f8a0cc662156da5580404150064cc81955de64ef5a8090364795edcbac842999160405180613fd08d4290836132ae565b0390a160405191829160808352613ffb613fee8d6080860190612cff565b848103898601528c612cff565b904260408501528382036060850152612cff565b0390a1604051809381928951928391612cdc565b810160078152030190200154801515806141f9575b6140d6575b50303b156140d357604051632e4bca8f60e11b81529080828061406486886004840161334b565b038183305af191826140c3575b505061407b575050565b7fdabbbde127ef4ac1b0a84891a674bfc7b3ceff8d1e7350abd0f7c48021420d32916140b86104b892604051938493606085526060850190612cff565b4260408301520390a1565b816140cd91612c57565b38614071565b80fd5b8082526008602052600260408320016140ef8154613373565b905580825260086020527f145f86831bf675d553efc81172882ecdb1776f5bdfa7f1b8367ad08b5788874061413b600160408520015483855260086020526002604086200154906131c0565b60405180918482526080602083015261416861415a608084018a612cff565b838103604085015288612cff565b9060608301520390a180825260086020526002604083200154818352600860205260016040842001541161403d576060817fcdf3a25ac86d8c6a422a8356f0fb7d6cc09b23caca39fd699cbc6038e558736492845260086020526003604085200160ff198154169055808452600860205260026040852001546040519182526020820152426040820152a13861403d565b50808252600860205260ff600360408420015416614038565b90508c015138613f96565b82865280862090601f198316875b81811061428157509460209460018560008051602061483a8339815191529561400f9560049b986140239b10614268575b5050811b019055613f9f565b8d015160001960f88460031b161c19169055388061425c565b9192602060018192868d01518155019401920161422b565b6142c39083875260208720601f840160051c8101916020851061249157601f0160051c0190613284565b38613f5f565b634e487b7160e01b85526041600452602485fd5b60005260086020526142f560016040600020016131e3565b80511561437e576005546000915b81831061431257505050600190565b61431b83612ea3565b905460039190911b1c6001600160a01b03169160005b82518110156143715760ff6040600561434d61059485886131ac565b016000908782526020522054161561436757600101614331565b5050505050600090565b5091509160010191614303565b50600090565b606091604051602081845161439c8183858901612cdc565b810160068152030190208054906143b282612db1565b946143c06040519687612c57565b82865260208601916000526020600020906000925b8484106144e25750505050508251156144d1576143f28351613123565b90600090815b855181101561447957602061440d82886131ac565b510151600060208201815b86811061444a575b505015614431575b506001016143f8565b8361444391613b5e60019496886131ac565b9290614428565b61445481896131ac565b5160208151910120845183201461446d57600101614418565b50505060013880614420565b5093509160005b8381106144a05750505050604051614499602082612c57565b6000815290565b6144b46144ad82856131ac565b5183614535565b6144c057600101614480565b9190506144cd92506131ac565b5190565b915050604051614499602082612c57565b600460206001926040516144f581612c21565b848060a01b03875416815261450b858801612f0e565b8382015260ff600288015416151560408201526003870154868201528152019301930192916143d5565b6020614551919392938160405193828580945193849201612cdc565b81016006815203019020805461456681612db1565b916145746040519384612c57565b818352602083019060005260206000206000915b83831061466957505050508051156146625760009081825b82518110156146075760206145b582856131ac565b5101516020815191012086516020880120146145d4575b6001016145a0565b906145de90613373565b9060406145eb82856131ac565b510151156145cc57926145ff600191613373565b9390506145cc565b509091929350801561465a578214614620575050600090565b516064820291808304606414901517156131cd578015614644576001549104101590565b634e487b7160e01b600052601260045260246000fd5b505050600090565b5060009150565b6004602060019260405161467c81612c21565b848060a01b038654168152614692858701612f0e565b8382015260ff6002870154161515604082015260038601546060820152815201920192019190614588565b606090604051815190602081818501936146d8818387612cdc565b810160068152030190208054906146ee82612db1565b946146fc6040519687612c57565b82865260208601916000526020600020906000925b8484106147e65750505050508251156147db57602061473e91600793604051938492839251928391612cdc565b81018481520301902001602092604051614759602082612c57565b600081529260009160005b82518110156147be57604061477982856131ac565b510151614789575b600101614764565b8661479482856131ac565b5101516147a18682612fd8565b548581116147b1575b5050614781565b90965093506001386147aa565b509450505050805115156000146147d25790565b50613370613d49565b505050613370613d73565b600460206001926040516147f981612c21565b848060a01b03875416815261480f858801612f0e565b8382015260ff6002880154161515604082015260038701548682015281520193019301929161471156fea8e1279888c174a6fbf4fd42a8be4469b313be30a5edac87aff45c5f8a450deb0cc62c8b09788a11d11e96187c34c67fad5e9651cadc6ace24e1518490bed9812579d0860b48f37c239a6db657bad6560c277bbce0a8a989d70227407fc62e06a26469706673582212206c0fcd80aa4f5eeab206922bbd1c59658eaa92b677c0b1680a3e934f026dedfe64736f6c634300081c0033","opcodes":"PUSH1 0x80 PUSH1 0x40 MSTORE CALLVALUE PUSH2 0x297 JUMPI PUSH2 0x4B91 DUP1 CODESIZE SUB DUP1 PUSH2 0x19 DUP2 PUSH2 0x29C JUMP JUMPDEST SWAP3 DUP4 CODECOPY DUP2 ADD SWAP1 PUSH1 0x60 DUP2 DUP4 SUB SLT PUSH2 0x297 JUMPI DUP1 MLOAD PUSH1 0x1 PUSH1 0x1 PUSH1 0xA0 SHL SUB DUP2 AND SWAP2 SWAP1 DUP3 SWAP1 SUB PUSH2 0x297 JUMPI PUSH1 0x20 DUP2 ADD MLOAD PUSH1 0x1 PUSH1 0x1 PUSH1 0x40 SHL SUB DUP2 GT PUSH2 0x297 JUMPI DUP2 ADD DUP4 PUSH1 0x1F DUP3 ADD SLT ISZERO PUSH2 0x297 JUMPI DUP1 MLOAD SWAP1 PUSH1 0x1 PUSH1 0x1 PUSH1 0x40 SHL SUB DUP3 GT PUSH2 0x235 JUMPI PUSH2 0x82 PUSH1 0x1F DUP4 ADD PUSH1 0x1F NOT AND PUSH1 0x20 ADD PUSH2 0x29C JUMP JUMPDEST SWAP5 DUP3 DUP7 MSTORE PUSH1 0x20 DUP4 DUP4 ADD ADD GT PUSH2 0x297 JUMPI PUSH1 0x0 JUMPDEST DUP3 DUP2 LT PUSH2 0x282 JUMPI POP POP PUSH1 0x0 SWAP1 DUP5 ADD PUSH1 0x20 ADD MSTORE PUSH1 0x40 ADD MLOAD PUSH1 0x33 PUSH1 0x1 SSTORE SWAP1 DUP1 ISZERO PUSH2 0x24B JUMPI PUSH1 0x0 DUP1 SLOAD PUSH1 0x1 PUSH1 0x1 PUSH1 0xA0 SHL SUB NOT AND SWAP2 SWAP1 SWAP2 OR SWAP1 SSTORE DUP2 MLOAD PUSH1 0x1 PUSH1 0x1 PUSH1 0x40 SHL SUB DUP2 GT PUSH2 0x235 JUMPI PUSH1 0x3 SLOAD PUSH1 0x1 DUP2 DUP2 SHR SWAP2 AND DUP1 ISZERO PUSH2 0x22B JUMPI JUMPDEST PUSH1 0x20 DUP3 LT EQ PUSH2 0x215 JUMPI PUSH1 0x1F DUP2 GT PUSH2 0x1B0 JUMPI JUMPDEST POP PUSH1 0x20 SWAP3 PUSH1 0x1F DUP3 GT PUSH1 0x1 EQ PUSH2 0x14B JUMPI SWAP3 DUP2 SWAP3 SWAP4 PUSH1 0x0 SWAP3 PUSH2 0x140 JUMPI JUMPDEST POP POP DUP2 PUSH1 0x1 SHL SWAP2 PUSH1 0x0 NOT SWAP1 PUSH1 0x3 SHL SHR NOT AND OR PUSH1 0x3 SSTORE JUMPDEST PUSH1 0x2 SSTORE PUSH1 0x40 MLOAD PUSH2 0x48CF SWAP1 DUP2 PUSH2 0x2C2 DUP3 CODECOPY RETURN JUMPDEST ADD MLOAD SWAP1 POP CODESIZE DUP1 PUSH2 0x118 JUMP JUMPDEST PUSH1 0x1F NOT DUP3 AND SWAP4 PUSH1 0x3 PUSH1 0x0 MSTORE DUP1 PUSH1 0x0 KECCAK256 SWAP2 PUSH1 0x0 JUMPDEST DUP7 DUP2 LT PUSH2 0x198 JUMPI POP DUP4 PUSH1 0x1 SWAP6 SWAP7 LT PUSH2 0x17F JUMPI JUMPDEST POP POP POP DUP2 SHL ADD PUSH1 0x3 SSTORE PUSH2 0x12E JUMP JUMPDEST ADD MLOAD PUSH1 0x0 NOT PUSH1 0xF8 DUP5 PUSH1 0x3 SHL AND SHR NOT AND SWAP1 SSTORE CODESIZE DUP1 DUP1 PUSH2 0x171 JUMP JUMPDEST SWAP2 SWAP3 PUSH1 0x20 PUSH1 0x1 DUP2 SWAP3 DUP7 DUP6 ADD MLOAD DUP2 SSTORE ADD SWAP5 ADD SWAP3 ADD PUSH2 0x15E JUMP JUMPDEST PUSH1 0x3 PUSH1 0x0 MSTORE PUSH32 0xC2575A0E9E593C00F959F8C92F12DB2869C3395A3B0502D05E2516446F71F85B PUSH1 0x1F DUP4 ADD PUSH1 0x5 SHR DUP2 ADD SWAP2 PUSH1 0x20 DUP5 LT PUSH2 0x20B JUMPI JUMPDEST PUSH1 0x1F ADD PUSH1 0x5 SHR ADD SWAP1 JUMPDEST DUP2 DUP2 LT PUSH2 0x1FF JUMPI POP PUSH2 0xFD JUMP JUMPDEST PUSH1 0x0 DUP2 SSTORE PUSH1 0x1 ADD PUSH2 0x1F2 JUMP JUMPDEST SWAP1 SWAP2 POP DUP2 SWAP1 PUSH2 0x1E9 JUMP JUMPDEST PUSH4 0x4E487B71 PUSH1 0xE0 SHL PUSH1 0x0 MSTORE PUSH1 0x22 PUSH1 0x4 MSTORE PUSH1 0x24 PUSH1 0x0 REVERT JUMPDEST SWAP1 PUSH1 0x7F AND SWAP1 PUSH2 0xEB JUMP JUMPDEST PUSH4 0x4E487B71 PUSH1 0xE0 SHL PUSH1 0x0 MSTORE PUSH1 0x41 PUSH1 0x4 MSTORE PUSH1 0x24 PUSH1 0x0 REVERT JUMPDEST PUSH1 0x40 MLOAD PUSH3 0x461BCD PUSH1 0xE5 SHL DUP2 MSTORE PUSH1 0x20 PUSH1 0x4 DUP3 ADD MSTORE PUSH1 0xF PUSH1 0x24 DUP3 ADD MSTORE PUSH15 0x496E76616C69642061646472657373 PUSH1 0x88 SHL PUSH1 0x44 DUP3 ADD MSTORE PUSH1 0x64 SWAP1 REVERT JUMPDEST DUP1 PUSH1 0x20 DUP1 SWAP3 DUP5 ADD ADD MLOAD DUP3 DUP3 DUP10 ADD ADD MSTORE ADD PUSH2 0x94 JUMP JUMPDEST PUSH1 0x0 DUP1 REVERT JUMPDEST PUSH1 0x40 MLOAD SWAP2 SWAP1 PUSH1 0x1F ADD PUSH1 0x1F NOT AND DUP3 ADD PUSH1 0x1 PUSH1 0x1 PUSH1 0x40 SHL SUB DUP2 GT DUP4 DUP3 LT OR PUSH2 0x235 JUMPI PUSH1 0x40 MSTORE JUMP INVALID PUSH1 0x80 PUSH1 0x40 MSTORE PUSH1 0x4 CALLDATASIZE LT ISZERO PUSH2 0x12 JUMPI PUSH1 0x0 DUP1 REVERT JUMPDEST PUSH1 0x0 CALLDATALOAD PUSH1 0xE0 SHR DUP1 PUSH4 0x4574FE8 EQ PUSH2 0x2B7F JUMPI DUP1 PUSH4 0x26A0613A EQ PUSH2 0x2B45 JUMPI DUP1 PUSH4 0x2D1BBC8E EQ PUSH2 0x29FD JUMPI DUP1 PUSH4 0x33F9625D EQ PUSH2 0x21F9 JUMPI DUP1 PUSH4 0x367CB924 EQ PUSH2 0x2097 JUMPI DUP1 PUSH4 0x41497385 EQ PUSH2 0x2009 JUMPI DUP1 PUSH4 0x414F8E76 EQ PUSH2 0x1FCB JUMPI DUP1 PUSH4 0x428F8338 EQ PUSH2 0x1F7E JUMPI DUP1 PUSH4 0x50E2E8AF EQ PUSH2 0x1F3C JUMPI DUP1 PUSH4 0x55D389A4 EQ PUSH2 0x1E5B JUMPI DUP1 PUSH4 0x5C97951E EQ PUSH2 0x1D2D JUMPI DUP1 PUSH4 0x6042AD61 EQ PUSH2 0x1C71 JUMPI DUP1 PUSH4 0x6787225B EQ PUSH2 0x1C2F JUMPI DUP1 PUSH4 0x68ACB1AB EQ PUSH2 0x1BEC JUMPI DUP1 PUSH4 0x72678FCC EQ PUSH2 0x1A86 JUMPI DUP1 PUSH4 0x75C255FC EQ PUSH2 0x185F JUMPI DUP1 PUSH4 0x79C4AB15 EQ PUSH2 0x17DA JUMPI DUP1 PUSH4 0x805265E5 EQ PUSH2 0x167A JUMPI DUP1 PUSH4 0x8520EB78 EQ PUSH2 0x160C JUMPI DUP1 PUSH4 0x8A19C8BC EQ PUSH2 0x15EE JUMPI DUP1 PUSH4 0x9A6E81AB EQ PUSH2 0x1185 JUMPI DUP1 PUSH4 0xA58DF19A EQ PUSH2 0x1167 JUMPI DUP1 PUSH4 0xA76FD84E EQ PUSH2 0x1061 JUMPI DUP1 PUSH4 0xAB40D3BA EQ PUSH2 0xF92 JUMPI DUP1 PUSH4 0xB28D92AE EQ PUSH2 0xE52 JUMPI DUP1 PUSH4 0xB32C4D8D EQ PUSH2 0xDFF JUMPI DUP1 PUSH4 0xB49C447E EQ PUSH2 0xD8B JUMPI DUP1 PUSH4 0xB8C39034 EQ PUSH2 0xC31 JUMPI DUP1 PUSH4 0xCDBF3D01 EQ PUSH2 0x8E3 JUMPI DUP1 PUSH4 0xDB7CDE8B EQ PUSH2 0x7C2 JUMPI DUP1 PUSH4 0xE7016CA7 EQ PUSH2 0x77E JUMPI DUP1 PUSH4 0xF02A0F75 EQ PUSH2 0x29C JUMPI DUP1 PUSH4 0xF18A5CEC EQ PUSH2 0x1E9 JUMPI DUP1 PUSH4 0xF60CA60D EQ PUSH2 0x1C0 JUMPI PUSH4 0xF9B0B5B9 EQ PUSH2 0x19D JUMPI PUSH1 0x0 DUP1 REVERT JUMPDEST CALLVALUE PUSH2 0x1BB JUMPI PUSH1 0x0 CALLDATASIZE PUSH1 0x3 NOT ADD SLT PUSH2 0x1BB JUMPI PUSH1 0x20 PUSH1 0x1 SLOAD PUSH1 0x40 MLOAD SWAP1 DUP2 MSTORE RETURN JUMPDEST PUSH1 0x0 DUP1 REVERT JUMPDEST CALLVALUE PUSH2 0x1BB JUMPI PUSH1 0x0 CALLDATASIZE PUSH1 0x3 NOT ADD SLT PUSH2 0x1BB JUMPI PUSH1 0x0 SLOAD PUSH1 0x40 MLOAD PUSH1 0x1 PUSH1 0x1 PUSH1 0xA0 SHL SUB SWAP1 SWAP2 AND DUP2 MSTORE PUSH1 0x20 SWAP1 RETURN JUMPDEST CALLVALUE PUSH2 0x1BB JUMPI PUSH1 0x20 CALLDATASIZE PUSH1 0x3 NOT ADD SLT PUSH2 0x1BB JUMPI PUSH1 0x4 CALLDATALOAD PUSH1 0x1 PUSH1 0x1 PUSH1 0x40 SHL SUB DUP2 GT PUSH2 0x1BB JUMPI PUSH1 0x20 PUSH2 0x21E PUSH2 0x231 SWAP3 CALLDATASIZE SWAP1 PUSH1 0x4 ADD PUSH2 0x2C95 JUMP JUMPDEST DUP2 PUSH1 0x40 MLOAD SWAP4 DUP3 DUP6 DUP1 SWAP5 MLOAD SWAP4 DUP5 SWAP3 ADD PUSH2 0x2CDC JUMP JUMPDEST DUP2 ADD PUSH1 0x7 DUP2 MSTORE SUB ADD SWAP1 KECCAK256 DUP1 SLOAD PUSH1 0x1 DUP3 ADD SLOAD SWAP2 PUSH2 0x24F PUSH1 0x2 DUP3 ADD PUSH2 0x2F0E JUMP JUMPDEST PUSH2 0x28D PUSH1 0x4 PUSH1 0x3 DUP5 ADD SLOAD SWAP4 ADD SLOAD SWAP2 PUSH1 0xFF PUSH1 0x40 MLOAD SWAP7 DUP8 SWAP7 DUP8 MSTORE DUP2 DUP2 AND ISZERO ISZERO PUSH1 0x20 DUP9 ADD MSTORE PUSH1 0x8 SHR AND ISZERO ISZERO PUSH1 0x40 DUP7 ADD MSTORE PUSH1 0xC0 PUSH1 0x60 DUP7 ADD MSTORE PUSH1 0xC0 DUP6 ADD SWAP1 PUSH2 0x2CFF JUMP JUMPDEST SWAP2 PUSH1 0x80 DUP5 ADD MSTORE PUSH1 0xA0 DUP4 ADD MSTORE SUB SWAP1 RETURN JUMPDEST CALLVALUE PUSH2 0x1BB JUMPI PUSH1 0x60 CALLDATASIZE PUSH1 0x3 NOT ADD SLT PUSH2 0x1BB JUMPI PUSH1 0x4 CALLDATALOAD PUSH1 0x1 PUSH1 0x1 PUSH1 0x40 SHL SUB DUP2 GT PUSH2 0x1BB JUMPI PUSH2 0x2CC SWAP1 CALLDATASIZE SWAP1 PUSH1 0x4 ADD PUSH2 0x2DC8 JUMP JUMPDEST PUSH1 0x24 CALLDATALOAD PUSH1 0x1 PUSH1 0x1 PUSH1 0x40 SHL SUB DUP2 GT PUSH2 0x1BB JUMPI PUSH2 0x2EB SWAP1 CALLDATASIZE SWAP1 PUSH1 0x4 ADD PUSH2 0x2DC8 JUMP JUMPDEST PUSH1 0x44 CALLDATALOAD PUSH1 0x1 PUSH1 0x1 PUSH1 0x40 SHL SUB DUP2 GT PUSH2 0x1BB JUMPI PUSH2 0x30A SWAP1 CALLDATASIZE SWAP1 PUSH1 0x4 ADD PUSH2 0x3088 JUMP JUMPDEST CALLER PUSH1 0x0 MSTORE PUSH1 0x4 PUSH1 0x20 MSTORE PUSH1 0x40 PUSH1 0x0 KECCAK256 SLOAD ISZERO PUSH2 0x740 JUMPI DUP3 MLOAD DUP3 MLOAD SUB PUSH2 0x6FB JUMPI DUP3 MLOAD DUP2 MLOAD SUB PUSH2 0x6B7 JUMPI SWAP1 CALLER SWAP1 PUSH1 0x0 JUMPDEST DUP5 MLOAD DUP2 LT ISZERO PUSH2 0x57C JUMPI DUP1 PUSH2 0x34C PUSH1 0x1 SWAP3 DUP8 PUSH2 0x31AC JUMP JUMPDEST MLOAD PUSH2 0x357 DUP3 DUP6 PUSH2 0x31AC JUMP JUMPDEST MLOAD SWAP1 PUSH2 0x363 DUP4 DUP9 PUSH2 0x31AC JUMP JUMPDEST MLOAD ISZERO ISZERO SWAP2 PUSH1 0x40 MLOAD PUSH2 0x397 PUSH1 0xFF DUP8 DUP6 MLOAD SWAP4 PUSH1 0x20 DUP2 DUP2 DUP10 ADD SWAP7 PUSH2 0x385 DUP2 DUP4 DUP11 PUSH2 0x2CDC JUMP JUMPDEST DUP2 ADD PUSH1 0x7 DUP2 MSTORE SUB ADD SWAP1 KECCAK256 ADD SLOAD AND PUSH2 0x3424 JUMP JUMPDEST PUSH2 0x3C6 PUSH1 0xFF DUP8 PUSH1 0x40 MLOAD PUSH1 0x20 DUP2 DUP9 MLOAD PUSH2 0x3B0 DUP2 DUP4 DUP11 PUSH2 0x2CDC JUMP JUMPDEST DUP2 ADD PUSH1 0x7 DUP2 MSTORE SUB ADD SWAP1 KECCAK256 ADD SLOAD PUSH1 0x8 SHR AND ISZERO PUSH2 0x346C JUMP JUMPDEST PUSH2 0x3FE PUSH1 0xFF PUSH1 0x40 PUSH1 0x5 DUP2 MLOAD PUSH1 0x20 DUP2 DUP10 MLOAD PUSH2 0x3E1 DUP2 DUP4 DUP12 PUSH2 0x2CDC JUMP JUMPDEST DUP2 ADD PUSH1 0x7 DUP2 MSTORE SUB ADD SWAP1 KECCAK256 ADD PUSH1 0x0 SWAP1 DUP13 DUP3 MSTORE PUSH1 0x20 MSTORE KECCAK256 SLOAD AND ISZERO PUSH2 0x34B7 JUMP JUMPDEST PUSH2 0x407 DUP4 PUSH2 0x3E48 JUMP JUMPDEST PUSH2 0x562 JUMPI PUSH1 0x0 DUP1 MLOAD PUSH1 0x20 PUSH2 0x487A DUP4 CODECOPY DUP2 MLOAD SWAP2 MSTORE SWAP3 SWAP2 PUSH2 0x4C6 SWAP2 PUSH2 0x467 PUSH1 0x40 MLOAD PUSH1 0x20 DUP2 DUP8 MLOAD PUSH2 0x436 DUP2 DUP4 DUP9 PUSH2 0x2CDC JUMP JUMPDEST DUP2 ADD PUSH1 0x6 DUP2 MSTORE SUB ADD SWAP1 KECCAK256 PUSH1 0x40 MLOAD SWAP1 PUSH2 0x44D DUP3 PUSH2 0x2C21 JUMP JUMPDEST CALLER DUP3 MSTORE DUP5 PUSH1 0x20 DUP4 ADD MSTORE DUP9 PUSH1 0x40 DUP4 ADD MSTORE TIMESTAMP PUSH1 0x60 DUP4 ADD MSTORE PUSH2 0x352F JUMP JUMPDEST DUP6 PUSH1 0x40 PUSH1 0x5 DUP2 MLOAD PUSH1 0x20 DUP2 DUP10 MLOAD PUSH2 0x47E DUP2 DUP4 DUP11 PUSH2 0x2CDC JUMP JUMPDEST DUP2 ADD PUSH1 0x7 DUP2 MSTORE SUB ADD SWAP1 KECCAK256 ADD PUSH1 0x0 SWAP1 DUP14 DUP3 MSTORE PUSH1 0x20 MSTORE KECCAK256 DUP10 PUSH1 0xFF NOT DUP3 SLOAD AND OR SWAP1 SSTORE PUSH2 0x4DF JUMPI JUMPDEST POP PUSH2 0x4B8 PUSH1 0x40 MLOAD SWAP4 PUSH1 0x80 DUP6 MSTORE PUSH1 0x80 DUP6 ADD SWAP1 PUSH2 0x2CFF JUMP JUMPDEST SWAP1 DUP4 DUP3 SUB PUSH1 0x20 DUP6 ADD MSTORE PUSH2 0x2CFF JUMP JUMPDEST SWAP3 PUSH1 0x40 DUP3 ADD MSTORE TIMESTAMP PUSH1 0x60 DUP3 ADD MSTORE DUP1 CALLER SWAP4 SUB SWAP1 LOG2 JUMPDEST ADD PUSH2 0x336 JUMP JUMPDEST PUSH2 0x508 PUSH1 0x6 PUSH1 0x40 MLOAD PUSH1 0x20 DUP2 DUP9 MLOAD PUSH2 0x4F7 DUP2 DUP4 DUP10 PUSH2 0x2CDC JUMP JUMPDEST DUP2 ADD PUSH1 0x7 DUP2 MSTORE SUB ADD SWAP1 KECCAK256 ADD DUP4 PUSH2 0x2FD8 JUMP JUMPDEST PUSH2 0x512 DUP2 SLOAD PUSH2 0x3373 JUMP JUMPDEST SWAP1 SSTORE CALLER PUSH1 0x0 MSTORE PUSH1 0x4 PUSH1 0x20 MSTORE PUSH2 0x55A PUSH2 0x552 PUSH1 0x7 PUSH2 0x542 PUSH1 0x20 PUSH1 0x40 PUSH1 0x0 KECCAK256 SLOAD SWAP6 PUSH1 0x40 MLOAD DUP1 SWAP4 DUP2 SWAP3 DUP13 MLOAD SWAP3 DUP4 SWAP2 PUSH2 0x2CDC JUMP JUMPDEST DUP2 ADD DUP5 DUP2 MSTORE SUB ADD SWAP1 KECCAK256 ADD DUP5 PUSH2 0x2FD8 JUMP JUMPDEST SWAP2 DUP3 SLOAD PUSH2 0x3417 JUMP JUMPDEST SWAP1 SSTORE DUP12 PUSH2 0x4A2 JUMP JUMPDEST POP POP PUSH2 0x577 SWAP2 POP PUSH2 0x571 PUSH2 0x3502 JUMP JUMPDEST SWAP1 PUSH2 0x3E82 JUMP JUMPDEST PUSH2 0x4D9 JUMP JUMPDEST DUP5 DUP1 MLOAD PUSH2 0x586 JUMPI JUMPDEST STOP JUMPDEST PUSH2 0x59A PUSH2 0x594 PUSH1 0x4 SWAP3 PUSH2 0x319F JUMP JUMPDEST MLOAD PUSH2 0x2FB2 JUMP JUMPDEST ADD SLOAD DUP1 ISZERO ISZERO DUP1 PUSH2 0x6A8 JUMPI JUMPDEST PUSH2 0x5AB JUMPI STOP JUMPDEST PUSH1 0x0 MSTORE PUSH1 0x8 PUSH1 0x20 MSTORE PUSH2 0x5C3 PUSH1 0x1 PUSH1 0x40 PUSH1 0x0 KECCAK256 ADD PUSH2 0x31E3 JUMP JUMPDEST PUSH1 0x0 JUMPDEST DUP2 MLOAD DUP2 LT ISZERO PUSH2 0x584 JUMPI DUP1 PUSH2 0x5DC PUSH1 0x1 SWAP3 DUP5 PUSH2 0x31AC JUMP JUMPDEST MLOAD PUSH1 0x40 MLOAD PUSH1 0xFF DUP5 DUP4 MLOAD SWAP3 PUSH1 0x20 DUP2 DUP2 DUP8 ADD SWAP6 PUSH2 0x5F8 DUP2 DUP4 DUP10 PUSH2 0x2CDC JUMP JUMPDEST DUP2 ADD PUSH1 0x7 DUP2 MSTORE SUB ADD SWAP1 KECCAK256 ADD SLOAD AND SWAP1 DUP2 PUSH2 0x675 JUMPI JUMPDEST POP PUSH2 0x619 JUMPI JUMPDEST POP ADD PUSH2 0x5C6 JUMP JUMPDEST PUSH2 0x622 DUP2 PUSH2 0x4384 JUMP JUMPDEST DUP1 MLOAD ISZERO PUSH2 0x663 JUMPI PUSH1 0x0 DUP1 MLOAD PUSH1 0x20 PUSH2 0x485A DUP4 CODECOPY DUP2 MLOAD SWAP2 MSTORE SWAP2 PUSH2 0x64A PUSH2 0x644 PUSH2 0x36DF JUMP JUMPDEST DUP3 PUSH2 0x3E82 JUMP JUMPDEST PUSH2 0x659 PUSH1 0x40 MLOAD SWAP3 DUP4 SWAP3 DUP4 PUSH2 0x334B JUMP JUMPDEST SUB SWAP1 LOG1 JUMPDEST DUP4 PUSH2 0x612 JUMP JUMPDEST POP PUSH2 0x670 SWAP1 PUSH2 0x571 PUSH2 0x36A7 JUMP JUMPDEST PUSH2 0x65D JUMP JUMPDEST PUSH1 0xFF SWAP2 POP PUSH2 0x691 PUSH1 0x20 DUP7 SWAP3 PUSH1 0x40 MLOAD DUP1 SWAP4 DUP2 SWAP3 DUP9 MLOAD SWAP3 DUP4 SWAP2 PUSH2 0x2CDC JUMP JUMPDEST DUP2 ADD PUSH1 0x7 DUP2 MSTORE SUB ADD SWAP1 KECCAK256 ADD SLOAD PUSH1 0x8 SHR AND ISZERO DUP6 PUSH2 0x60C JUMP JUMPDEST POP PUSH2 0x6B2 DUP2 PUSH2 0x42DD JUMP JUMPDEST PUSH2 0x5A5 JUMP JUMPDEST PUSH1 0x64 PUSH1 0x40 MLOAD PUSH3 0x461BCD PUSH1 0xE5 SHL DUP2 MSTORE PUSH1 0x20 PUSH1 0x4 DUP3 ADD MSTORE PUSH1 0x20 PUSH1 0x24 DUP3 ADD MSTORE PUSH32 0x4D69736D6174636865642073616D706C6549647320616E6420737570706F7274 PUSH1 0x44 DUP3 ADD MSTORE REVERT JUMPDEST PUSH1 0x40 MLOAD PUSH3 0x461BCD PUSH1 0xE5 SHL DUP2 MSTORE PUSH1 0x20 PUSH1 0x4 DUP3 ADD MSTORE PUSH1 0x1F PUSH1 0x24 DUP3 ADD MSTORE PUSH32 0x4D69736D6174636865642073616D706C6549647320616E64206C6162656C7300 PUSH1 0x44 DUP3 ADD MSTORE PUSH1 0x64 SWAP1 REVERT JUMPDEST PUSH1 0x40 MLOAD PUSH3 0x461BCD PUSH1 0xE5 SHL DUP2 MSTORE PUSH1 0x20 PUSH1 0x4 DUP3 ADD MSTORE PUSH1 0x16 PUSH1 0x24 DUP3 ADD MSTORE PUSH22 0x2737BA1030903932B3B4B9BA32B932B2103B37BA32B9 PUSH1 0x51 SHL PUSH1 0x44 DUP3 ADD MSTORE PUSH1 0x64 SWAP1 REVERT JUMPDEST CALLVALUE PUSH2 0x1BB JUMPI PUSH1 0x20 CALLDATASIZE PUSH1 0x3 NOT ADD SLT PUSH2 0x1BB JUMPI PUSH1 0x4 CALLDATALOAD PUSH1 0x1 PUSH1 0x1 PUSH1 0x40 SHL SUB DUP2 GT PUSH2 0x1BB JUMPI PUSH2 0x7B8 PUSH2 0x7B3 PUSH1 0x20 SWAP3 CALLDATASIZE SWAP1 PUSH1 0x4 ADD PUSH2 0x2C95 JUMP JUMPDEST PUSH2 0x3D99 JUMP JUMPDEST PUSH1 0x40 MLOAD SWAP1 ISZERO ISZERO DUP2 MSTORE RETURN JUMPDEST CALLVALUE PUSH2 0x1BB JUMPI PUSH1 0x20 CALLDATASIZE PUSH1 0x3 NOT ADD SLT PUSH2 0x1BB JUMPI PUSH1 0x4 CALLDATALOAD PUSH1 0x1 PUSH1 0x1 PUSH1 0x40 SHL SUB DUP2 GT PUSH2 0x1BB JUMPI PUSH2 0x7F2 SWAP1 CALLDATASIZE SWAP1 PUSH1 0x4 ADD PUSH2 0x2C95 JUMP JUMPDEST PUSH1 0x40 MLOAD SWAP1 DUP1 MLOAD SWAP2 PUSH1 0x20 DUP2 DUP2 DUP5 ADD SWAP5 PUSH2 0x80B DUP2 DUP4 DUP9 PUSH2 0x2CDC JUMP JUMPDEST DUP2 ADD PUSH1 0x7 DUP2 MSTORE SUB ADD SWAP1 KECCAK256 PUSH1 0x0 SWAP3 PUSH1 0x0 PUSH1 0x5 SLOAD SWAP1 PUSH1 0x5 DUP5 ADD SWAP1 JUMPDEST DUP3 DUP2 LT PUSH2 0x896 JUMPI POP POP POP PUSH1 0x2 PUSH2 0x856 PUSH1 0x20 PUSH2 0x868 SWAP4 PUSH1 0xFF PUSH1 0x1 DUP8 ADD SLOAD PUSH1 0x8 SHR AND SWAP7 PUSH1 0x40 MLOAD SWAP4 DUP5 SWAP3 DUP4 SWAP3 MLOAD SWAP3 DUP4 SWAP2 PUSH2 0x2CDC JUMP JUMPDEST DUP2 ADD PUSH1 0x6 DUP2 MSTORE SUB ADD SWAP1 KECCAK256 SLOAD SWAP3 ADD PUSH2 0x2F0E JUMP JUMPDEST SWAP3 PUSH2 0x887 PUSH1 0x40 MLOAD SWAP5 DUP6 SWAP5 ISZERO ISZERO DUP6 MSTORE PUSH1 0x80 PUSH1 0x20 DUP7 ADD MSTORE PUSH1 0x80 DUP6 ADD SWAP1 PUSH2 0x2CFF JUMP JUMPDEST SWAP2 PUSH1 0x40 DUP5 ADD MSTORE PUSH1 0x60 DUP4 ADD MSTORE SUB SWAP1 RETURN JUMPDEST PUSH1 0xFF PUSH1 0x40 PUSH2 0x8A3 DUP4 PUSH2 0x2EA3 JUMP JUMPDEST SWAP1 SLOAD PUSH1 0x3 SWAP2 SWAP1 SWAP2 SHL SHR PUSH1 0x1 PUSH1 0x1 PUSH1 0xA0 SHL SUB AND PUSH1 0x0 SWAP1 DUP2 MSTORE PUSH1 0x20 DUP6 SWAP1 MSTORE KECCAK256 SLOAD AND PUSH2 0x8CF JUMPI JUMPDEST PUSH1 0x1 ADD PUSH2 0x824 JUMP JUMPDEST SWAP6 PUSH2 0x8DB PUSH1 0x1 SWAP2 PUSH2 0x3373 JUMP JUMPDEST SWAP7 SWAP1 POP PUSH2 0x8C7 JUMP JUMPDEST CALLVALUE PUSH2 0x1BB JUMPI PUSH1 0x60 CALLDATASIZE PUSH1 0x3 NOT ADD SLT PUSH2 0x1BB JUMPI PUSH1 0x4 CALLDATALOAD PUSH1 0x1 PUSH1 0x1 PUSH1 0x40 SHL SUB DUP2 GT PUSH2 0x1BB JUMPI PUSH2 0x913 SWAP1 CALLDATASIZE SWAP1 PUSH1 0x4 ADD PUSH2 0x301A JUMP JUMPDEST PUSH1 0x24 CALLDATALOAD PUSH1 0x1 PUSH1 0x1 PUSH1 0x40 SHL SUB DUP2 GT PUSH2 0x1BB JUMPI PUSH2 0x932 SWAP1 CALLDATASIZE SWAP1 PUSH1 0x4 ADD PUSH2 0x2DC8 JUMP JUMPDEST SWAP1 PUSH1 0x44 CALLDATALOAD PUSH1 0x1 PUSH1 0x1 PUSH1 0x40 SHL SUB DUP2 GT PUSH2 0x1BB JUMPI PUSH2 0x952 SWAP1 CALLDATASIZE SWAP1 PUSH1 0x4 ADD PUSH2 0x2E46 JUMP JUMPDEST SWAP1 DUP1 MLOAD DUP4 MLOAD SUB PUSH2 0xBE1 JUMPI DUP1 MLOAD DUP3 MLOAD SUB PUSH2 0xB90 JUMPI PUSH1 0x0 SWAP1 DUP2 JUMPDEST DUP2 MLOAD DUP2 LT ISZERO PUSH2 0xA14 JUMPI PUSH2 0x97D DUP2 DUP7 PUSH2 0x31AC JUMP JUMPDEST MLOAD PUSH1 0x20 DUP2 MLOAD SWAP2 ADD KECCAK256 PUSH2 0x98D PUSH2 0x3CD2 JUMP JUMPDEST PUSH1 0x20 DUP2 MLOAD SWAP2 ADD KECCAK256 EQ DUP1 ISZERO PUSH2 0x9EC JUMPI JUMPDEST DUP1 ISZERO PUSH2 0x9C4 JUMPI JUMPDEST PUSH2 0x9B0 JUMPI JUMPDEST PUSH1 0x1 ADD PUSH2 0x96A JUMP JUMPDEST SWAP2 PUSH2 0x9BC PUSH1 0x1 SWAP2 PUSH2 0x3373 JUMP JUMPDEST SWAP3 SWAP1 POP PUSH2 0x9A8 JUMP JUMPDEST POP PUSH2 0x9CF DUP2 DUP7 PUSH2 0x31AC JUMP JUMPDEST MLOAD PUSH1 0x20 DUP2 MLOAD SWAP2 ADD KECCAK256 PUSH2 0x9DF PUSH2 0x3D20 JUMP JUMPDEST PUSH1 0x20 DUP2 MLOAD SWAP2 ADD KECCAK256 EQ PUSH2 0x9A3 JUMP JUMPDEST POP PUSH2 0x9F7 DUP2 DUP7 PUSH2 0x31AC JUMP JUMPDEST MLOAD PUSH1 0x20 DUP2 MLOAD SWAP2 ADD KECCAK256 PUSH2 0xA07 PUSH2 0x3CF7 JUMP JUMPDEST PUSH1 0x20 DUP2 MLOAD SWAP2 ADD KECCAK256 EQ PUSH2 0x99C JUMP JUMPDEST POP SWAP1 SWAP2 PUSH2 0xA20 DUP4 PUSH2 0x2DB1 JUMP JUMPDEST PUSH2 0xA2D PUSH1 0x40 MLOAD SWAP2 DUP3 PUSH2 0x2C57 JUMP JUMPDEST DUP4 DUP2 MSTORE PUSH2 0xA4E PUSH2 0xA3C DUP6 PUSH2 0x2DB1 JUMP JUMPDEST PUSH1 0x20 DUP4 ADD SWAP6 SWAP1 PUSH1 0x1F NOT ADD CALLDATASIZE DUP8 CALLDATACOPY PUSH2 0x316D JUMP JUMPDEST SWAP3 PUSH1 0x0 SWAP6 PUSH1 0x0 JUMPDEST DUP3 MLOAD DUP2 LT ISZERO PUSH2 0xB35 JUMPI PUSH2 0xA68 DUP2 DUP4 PUSH2 0x31AC JUMP JUMPDEST MLOAD PUSH1 0x20 DUP2 MLOAD SWAP2 ADD KECCAK256 PUSH2 0xA78 PUSH2 0x3CD2 JUMP JUMPDEST PUSH1 0x20 DUP2 MLOAD SWAP2 ADD KECCAK256 EQ DUP1 ISZERO PUSH2 0xB0D JUMPI JUMPDEST DUP1 ISZERO PUSH2 0xAE5 JUMPI JUMPDEST PUSH2 0xA9B JUMPI JUMPDEST PUSH1 0x1 ADD PUSH2 0xA55 JUMP JUMPDEST SWAP7 PUSH1 0x1 SWAP1 PUSH2 0xADD SWAP1 PUSH1 0x1 PUSH1 0x1 PUSH1 0xA0 SHL SUB PUSH2 0xAB5 DUP12 DUP8 PUSH2 0x31AC JUMP JUMPDEST MLOAD AND PUSH2 0xAC1 DUP3 DUP9 PUSH2 0x31AC JUMP JUMPDEST MSTORE PUSH2 0xACC DUP11 DUP9 PUSH2 0x31AC JUMP JUMPDEST MLOAD PUSH2 0xAD7 DUP3 DUP11 PUSH2 0x31AC JUMP JUMPDEST MSTORE PUSH2 0x3373 JUMP JUMPDEST SWAP8 SWAP1 POP PUSH2 0xA93 JUMP JUMPDEST POP PUSH2 0xAF0 DUP2 DUP4 PUSH2 0x31AC JUMP JUMPDEST MLOAD PUSH1 0x20 DUP2 MLOAD SWAP2 ADD KECCAK256 PUSH2 0xB00 PUSH2 0x3D20 JUMP JUMPDEST PUSH1 0x20 DUP2 MLOAD SWAP2 ADD KECCAK256 EQ PUSH2 0xA8E JUMP JUMPDEST POP PUSH2 0xB18 DUP2 DUP4 PUSH2 0x31AC JUMP JUMPDEST MLOAD PUSH1 0x20 DUP2 MLOAD SWAP2 ADD KECCAK256 PUSH2 0xB28 PUSH2 0x3CF7 JUMP JUMPDEST PUSH1 0x20 DUP2 MLOAD SWAP2 ADD KECCAK256 EQ PUSH2 0xA87 JUMP JUMPDEST DUP7 DUP5 DUP8 PUSH1 0x40 MLOAD SWAP2 PUSH1 0x40 DUP4 ADD SWAP1 PUSH1 0x40 DUP5 MSTORE MLOAD DUP1 SWAP2 MSTORE PUSH1 0x60 DUP4 ADD SWAP4 SWAP1 PUSH1 0x0 JUMPDEST DUP2 DUP2 LT PUSH2 0xB71 JUMPI DUP5 DUP1 PUSH2 0xB6D DUP9 DUP8 DUP4 DUP3 SUB PUSH1 0x20 DUP6 ADD MSTORE PUSH2 0x2D7D JUMP JUMPDEST SUB SWAP1 RETURN JUMPDEST DUP3 MLOAD PUSH1 0x1 PUSH1 0x1 PUSH1 0xA0 SHL SUB AND DUP7 MSTORE PUSH1 0x20 SWAP6 DUP7 ADD SWAP6 SWAP1 SWAP3 ADD SWAP2 PUSH1 0x1 ADD PUSH2 0xB52 JUMP JUMPDEST PUSH1 0x40 MLOAD PUSH3 0x461BCD PUSH1 0xE5 SHL DUP2 MSTORE PUSH1 0x20 PUSH1 0x4 DUP3 ADD MSTORE PUSH1 0x24 DUP1 DUP3 ADD MSTORE PUSH32 0x5061727469636970616E74732F77656967687473206C656E677468206D69736D PUSH1 0x44 DUP3 ADD MSTORE PUSH4 0xC2E8C6D PUSH1 0xE3 SHL PUSH1 0x64 DUP3 ADD MSTORE PUSH1 0x84 SWAP1 REVERT JUMPDEST PUSH1 0x40 MLOAD PUSH3 0x461BCD PUSH1 0xE5 SHL DUP2 MSTORE PUSH1 0x20 PUSH1 0x4 DUP3 ADD MSTORE PUSH1 0x22 PUSH1 0x24 DUP3 ADD MSTORE PUSH32 0x5061727469636970616E74732F726F6C6573206C656E677468206D69736D6174 PUSH1 0x44 DUP3 ADD MSTORE PUSH2 0xC6D PUSH1 0xF3 SHL PUSH1 0x64 DUP3 ADD MSTORE PUSH1 0x84 SWAP1 REVERT JUMPDEST CALLVALUE PUSH2 0x1BB JUMPI PUSH1 0x20 CALLDATASIZE PUSH1 0x3 NOT ADD SLT PUSH2 0x1BB JUMPI PUSH1 0x4 CALLDATALOAD PUSH2 0xC5A PUSH1 0x1 DUP1 PUSH1 0xA0 SHL SUB PUSH1 0x0 SLOAD AND CALLER EQ PUSH2 0x323B JUMP JUMPDEST DUP1 PUSH1 0x0 MSTORE PUSH1 0x8 PUSH1 0x20 MSTORE PUSH1 0xFF PUSH1 0x3 PUSH1 0x40 PUSH1 0x0 KECCAK256 ADD SLOAD AND ISZERO PUSH2 0xD53 JUMPI PUSH1 0x0 MSTORE PUSH1 0x8 PUSH1 0x20 MSTORE PUSH2 0xC8C PUSH1 0x1 PUSH1 0x40 PUSH1 0x0 KECCAK256 ADD PUSH2 0x31E3 JUMP JUMPDEST PUSH1 0x0 JUMPDEST DUP2 MLOAD DUP2 LT ISZERO PUSH2 0x584 JUMPI DUP1 PUSH2 0xCA5 PUSH1 0x1 SWAP3 DUP5 PUSH2 0x31AC JUMP JUMPDEST MLOAD PUSH1 0x40 MLOAD PUSH1 0xFF DUP5 DUP4 MLOAD SWAP3 PUSH1 0x20 DUP2 DUP2 DUP8 ADD SWAP6 PUSH2 0xCC1 DUP2 DUP4 DUP10 PUSH2 0x2CDC JUMP JUMPDEST DUP2 ADD PUSH1 0x7 DUP2 MSTORE SUB ADD SWAP1 KECCAK256 ADD SLOAD AND SWAP1 DUP2 PUSH2 0xD20 JUMPI JUMPDEST POP PUSH2 0xCE2 JUMPI JUMPDEST POP ADD PUSH2 0xC8F JUMP JUMPDEST PUSH2 0xD1A SWAP1 PUSH1 0x40 SWAP1 PUSH2 0xCF5 DUP3 MLOAD SWAP3 DUP4 PUSH2 0x2C57 JUMP JUMPDEST PUSH1 0x13 DUP3 MSTORE PUSH19 0x4D616E75616C20626174636820656E64696E67 PUSH1 0x68 SHL PUSH1 0x20 DUP4 ADD MSTORE PUSH2 0x3E82 JUMP JUMPDEST DUP4 PUSH2 0xCDB JUMP JUMPDEST PUSH1 0xFF SWAP2 POP PUSH2 0xD3C PUSH1 0x20 DUP7 SWAP3 PUSH1 0x40 MLOAD DUP1 SWAP4 DUP2 SWAP3 DUP9 MLOAD SWAP3 DUP4 SWAP2 PUSH2 0x2CDC JUMP JUMPDEST DUP2 ADD PUSH1 0x7 DUP2 MSTORE SUB ADD SWAP1 KECCAK256 ADD SLOAD PUSH1 0x8 SHR AND ISZERO DUP6 PUSH2 0xCD5 JUMP JUMPDEST PUSH1 0x40 MLOAD PUSH3 0x461BCD PUSH1 0xE5 SHL DUP2 MSTORE PUSH1 0x20 PUSH1 0x4 DUP3 ADD MSTORE PUSH1 0x10 PUSH1 0x24 DUP3 ADD MSTORE PUSH16 0x4261746368206E6F7420616374697665 PUSH1 0x80 SHL PUSH1 0x44 DUP3 ADD MSTORE PUSH1 0x64 SWAP1 REVERT JUMPDEST CALLVALUE PUSH2 0x1BB JUMPI PUSH1 0x20 CALLDATASIZE PUSH1 0x3 NOT ADD SLT PUSH2 0x1BB JUMPI PUSH1 0x4 CALLDATALOAD PUSH1 0x1 PUSH1 0x1 PUSH1 0x40 SHL SUB DUP2 GT PUSH2 0x1BB JUMPI PUSH2 0xDF1 PUSH2 0xB6D PUSH2 0xDCC PUSH2 0xDC7 PUSH2 0xDE3 SWAP5 CALLDATASIZE SWAP1 PUSH1 0x4 ADD PUSH2 0x2C95 JUMP JUMPDEST PUSH2 0x3A7E JUMP JUMPDEST SWAP2 SWAP4 SWAP1 PUSH1 0x40 MLOAD SWAP6 DUP7 SWAP6 PUSH1 0x60 DUP8 MSTORE PUSH1 0x60 DUP8 ADD SWAP1 PUSH2 0x2D24 JUMP JUMPDEST SWAP1 DUP6 DUP3 SUB PUSH1 0x20 DUP8 ADD MSTORE PUSH2 0x2D7D JUMP JUMPDEST SWAP1 DUP4 DUP3 SUB PUSH1 0x40 DUP6 ADD MSTORE PUSH2 0x2D7D JUMP JUMPDEST CALLVALUE PUSH2 0x1BB JUMPI PUSH1 0x20 CALLDATASIZE PUSH1 0x3 NOT ADD SLT PUSH2 0x1BB JUMPI PUSH1 0x4 CALLDATALOAD PUSH1 0x0 MSTORE PUSH1 0x8 PUSH1 0x20 MSTORE PUSH1 0x80 PUSH1 0x40 PUSH1 0x0 KECCAK256 DUP1 SLOAD SWAP1 PUSH1 0x2 DUP2 ADD SLOAD SWAP1 PUSH1 0x4 PUSH1 0xFF PUSH1 0x3 DUP4 ADD SLOAD AND SWAP2 ADD SLOAD SWAP2 PUSH1 0x40 MLOAD SWAP4 DUP5 MSTORE PUSH1 0x20 DUP5 ADD MSTORE ISZERO ISZERO PUSH1 0x40 DUP4 ADD MSTORE PUSH1 0x60 DUP3 ADD MSTORE RETURN JUMPDEST CALLVALUE PUSH2 0x1BB JUMPI PUSH1 0x0 CALLDATASIZE PUSH1 0x3 NOT ADD SLT PUSH2 0x1BB JUMPI PUSH1 0x5 SLOAD PUSH2 0xE6F DUP2 PUSH2 0x2DB1 JUMP JUMPDEST SWAP1 PUSH2 0xE7D PUSH1 0x40 MLOAD SWAP3 DUP4 PUSH2 0x2C57 JUMP JUMPDEST DUP1 DUP3 MSTORE PUSH1 0x1F NOT PUSH2 0xE8C DUP3 PUSH2 0x2DB1 JUMP JUMPDEST ADD PUSH1 0x0 JUMPDEST DUP2 DUP2 LT PUSH2 0xF6D JUMPI POP POP PUSH1 0x0 JUMPDEST DUP2 DUP2 LT PUSH2 0xEFE JUMPI DUP3 PUSH1 0x40 MLOAD DUP1 SWAP2 PUSH1 0x20 DUP3 ADD PUSH1 0x20 DUP4 MSTORE DUP2 MLOAD DUP1 SWAP2 MSTORE PUSH1 0x20 PUSH1 0x40 DUP5 ADD SWAP3 ADD SWAP1 PUSH1 0x0 JUMPDEST DUP2 DUP2 LT PUSH2 0xED0 JUMPI POP POP POP SUB SWAP1 RETURN JUMPDEST DUP3 MLOAD DUP1 MLOAD PUSH1 0x1 PUSH1 0x1 PUSH1 0xA0 SHL SUB AND DUP6 MSTORE PUSH1 0x20 SWAP1 DUP2 ADD MLOAD DUP2 DUP7 ADD MSTORE DUP7 SWAP6 POP PUSH1 0x40 SWAP1 SWAP5 ADD SWAP4 SWAP1 SWAP3 ADD SWAP2 PUSH1 0x1 ADD PUSH2 0xEC2 JUMP JUMPDEST DUP1 PUSH2 0xF0A PUSH1 0x1 SWAP3 PUSH2 0x2EA3 JUMP JUMPDEST DUP4 DUP1 PUSH1 0xA0 SHL SUB SWAP2 SLOAD SWAP1 PUSH1 0x3 SHL SHR AND PUSH2 0xF21 DUP3 PUSH2 0x2EA3 JUMP JUMPDEST DUP5 DUP1 PUSH1 0xA0 SHL SUB SWAP2 SLOAD SWAP1 PUSH1 0x3 SHL SHR AND PUSH1 0x0 MSTORE PUSH1 0x4 PUSH1 0x20 MSTORE PUSH1 0x40 PUSH1 0x0 KECCAK256 SLOAD PUSH1 0x40 MLOAD SWAP2 PUSH2 0xF4A DUP4 PUSH2 0x2C3C JUMP JUMPDEST DUP3 MSTORE PUSH1 0x20 DUP3 ADD MSTORE PUSH2 0xF5B DUP3 DUP7 PUSH2 0x31AC JUMP JUMPDEST MSTORE PUSH2 0xF66 DUP2 DUP6 PUSH2 0x31AC JUMP JUMPDEST POP ADD PUSH2 0xE9C JUMP JUMPDEST PUSH1 0x20 SWAP1 PUSH1 0x40 MLOAD PUSH2 0xF7C DUP2 PUSH2 0x2C3C JUMP JUMPDEST PUSH1 0x0 DUP2 MSTORE PUSH1 0x0 DUP4 DUP3 ADD MSTORE DUP3 DUP3 DUP8 ADD ADD MSTORE ADD PUSH2 0xE90 JUMP JUMPDEST CALLVALUE PUSH2 0x1BB JUMPI PUSH1 0xA0 CALLDATASIZE PUSH1 0x3 NOT ADD SLT PUSH2 0x1BB JUMPI PUSH1 0x4 CALLDATALOAD PUSH1 0x1 PUSH1 0x1 PUSH1 0x40 SHL SUB DUP2 GT PUSH2 0x1BB JUMPI PUSH2 0xFC2 SWAP1 CALLDATASIZE SWAP1 PUSH1 0x4 ADD PUSH2 0x2DC8 JUMP JUMPDEST PUSH1 0x24 CALLDATALOAD PUSH1 0x1 PUSH1 0x1 PUSH1 0x40 SHL SUB DUP2 GT PUSH2 0x1BB JUMPI PUSH2 0xFE1 SWAP1 CALLDATASIZE SWAP1 PUSH1 0x4 ADD PUSH2 0x3088 JUMP JUMPDEST PUSH1 0x44 CALLDATALOAD SWAP2 PUSH1 0x1 PUSH1 0x1 PUSH1 0x40 SHL SUB DUP4 GT PUSH2 0x1BB JUMPI PUSH2 0x101C PUSH2 0x1052 SWAP3 PUSH2 0x1044 SWAP3 PUSH2 0x100F PUSH2 0x1036 SWAP7 CALLDATASIZE SWAP1 PUSH1 0x4 ADD PUSH2 0x2DC8 JUMP JUMPDEST PUSH1 0x84 CALLDATALOAD SWAP3 PUSH1 0x64 CALLDATALOAD SWAP3 PUSH2 0x3759 JUMP JUMPDEST SWAP4 SWAP6 SWAP3 PUSH1 0x40 SWAP6 SWAP2 SWAP6 MLOAD SWAP8 DUP9 SWAP8 PUSH1 0xA0 DUP10 MSTORE PUSH1 0xA0 DUP10 ADD SWAP1 PUSH2 0x2D24 JUMP JUMPDEST SWAP1 DUP8 DUP3 SUB PUSH1 0x20 DUP10 ADD MSTORE PUSH2 0x2D24 JUMP JUMPDEST SWAP1 DUP6 DUP3 SUB PUSH1 0x40 DUP8 ADD MSTORE PUSH2 0x2D24 JUMP JUMPDEST SWAP2 PUSH1 0x60 DUP5 ADD MSTORE PUSH1 0x80 DUP4 ADD MSTORE SUB SWAP1 RETURN JUMPDEST CALLVALUE PUSH2 0x1BB JUMPI PUSH1 0x60 CALLDATASIZE PUSH1 0x3 NOT ADD SLT PUSH2 0x1BB JUMPI PUSH1 0x24 CALLDATALOAD PUSH1 0x1 PUSH1 0x1 PUSH1 0x40 SHL SUB DUP2 GT PUSH2 0x1BB JUMPI PUSH2 0x1091 SWAP1 CALLDATASIZE SWAP1 PUSH1 0x4 ADD PUSH2 0x2DC8 JUMP JUMPDEST PUSH1 0x44 CALLDATALOAD PUSH1 0x1 PUSH1 0x1 PUSH1 0x40 SHL SUB DUP2 GT PUSH2 0x1BB JUMPI PUSH2 0x10B0 SWAP1 CALLDATASIZE SWAP1 PUSH1 0x4 ADD PUSH2 0x3088 JUMP JUMPDEST SWAP1 PUSH2 0x10BE DUP2 MLOAD DUP4 MLOAD EQ PUSH2 0x370E JUMP JUMPDEST PUSH1 0x0 DUP1 DUP1 JUMPDEST DUP4 MLOAD DUP3 LT ISZERO PUSH2 0x1114 JUMPI PUSH2 0x10D6 DUP3 DUP7 PUSH2 0x31AC JUMP JUMPDEST MLOAD ISZERO PUSH2 0x10F0 JUMPI PUSH2 0x10E7 PUSH1 0x1 SWAP2 PUSH2 0x3373 JUMP JUMPDEST SWAP2 JUMPDEST ADD SWAP1 PUSH2 0x10C3 JUMP JUMPDEST SWAP1 DUP4 MLOAD PUSH2 0x1100 JUMPI JUMPDEST PUSH1 0x1 SWAP1 PUSH2 0x10E9 JUMP JUMPDEST SWAP2 PUSH2 0x110C PUSH1 0x1 SWAP2 PUSH2 0x3373 JUMP JUMPDEST SWAP3 SWAP1 POP PUSH2 0x10F8 JUMP JUMPDEST DUP4 MLOAD DUP4 DUP2 ISZERO ISZERO DUP7 DUP2 PUSH2 0x115D JUMPI JUMPDEST PUSH2 0x1151 SWAP2 SWAP3 PUSH1 0x40 MLOAD SWAP6 DUP7 SWAP6 PUSH1 0x4 CALLDATALOAD DUP8 MSTORE PUSH1 0x20 DUP8 ADD MSTORE PUSH1 0x40 DUP7 ADD MSTORE PUSH1 0x60 DUP6 ADD MSTORE PUSH1 0xC0 PUSH1 0x80 DUP6 ADD MSTORE PUSH1 0xC0 DUP5 ADD SWAP1 PUSH2 0x2D24 JUMP JUMPDEST SWAP1 ISZERO ISZERO PUSH1 0xA0 DUP4 ADD MSTORE SUB SWAP1 RETURN JUMPDEST DUP5 ISZERO ISZERO SWAP2 POP PUSH2 0x1121 JUMP JUMPDEST CALLVALUE PUSH2 0x1BB JUMPI PUSH1 0x0 CALLDATASIZE PUSH1 0x3 NOT ADD SLT PUSH2 0x1BB JUMPI PUSH1 0x20 PUSH1 0x2 SLOAD PUSH1 0x40 MLOAD SWAP1 DUP2 MSTORE RETURN JUMPDEST CALLVALUE PUSH2 0x1BB JUMPI PUSH1 0x60 CALLDATASIZE PUSH1 0x3 NOT ADD SLT PUSH2 0x1BB JUMPI PUSH1 0x4 CALLDATALOAD PUSH1 0x1 PUSH1 0x1 PUSH1 0x40 SHL SUB DUP2 GT PUSH2 0x1BB JUMPI PUSH2 0x11B5 SWAP1 CALLDATASIZE SWAP1 PUSH1 0x4 ADD PUSH2 0x2DC8 JUMP JUMPDEST PUSH1 0x24 CALLDATALOAD PUSH1 0x1 PUSH1 0x1 PUSH1 0x40 SHL SUB DUP2 GT PUSH2 0x1BB JUMPI PUSH2 0x11D4 SWAP1 CALLDATASIZE SWAP1 PUSH1 0x4 ADD PUSH2 0x2DC8 JUMP JUMPDEST PUSH1 0x44 CALLDATALOAD PUSH1 0x1 PUSH1 0x1 PUSH1 0xA0 SHL SUB DUP2 AND SWAP1 DUP2 SWAP1 SUB PUSH2 0x1BB JUMPI PUSH2 0x11FE PUSH1 0x1 DUP1 PUSH1 0xA0 SHL SUB PUSH1 0x0 SLOAD AND CALLER EQ PUSH2 0x323B JUMP JUMPDEST DUP3 MLOAD DUP3 MLOAD SUB PUSH2 0x15B5 JUMPI DUP3 MLOAD ISZERO PUSH2 0x1582 JUMPI DUP1 PUSH1 0x0 MSTORE PUSH1 0x4 PUSH1 0x20 MSTORE PUSH1 0x40 PUSH1 0x0 KECCAK256 SLOAD ISZERO PUSH2 0x1546 JUMPI PUSH1 0x0 SWAP2 PUSH1 0x0 JUMPDEST DUP5 MLOAD DUP2 LT ISZERO PUSH2 0x1430 JUMPI PUSH2 0x123B DUP2 DUP7 PUSH2 0x31AC JUMP JUMPDEST MLOAD PUSH2 0x1246 DUP3 DUP5 PUSH2 0x31AC JUMP JUMPDEST MLOAD PUSH1 0x40 MLOAD PUSH2 0x1266 PUSH1 0xFF PUSH1 0x1 DUP6 MLOAD SWAP4 PUSH1 0x20 DUP2 DUP2 DUP10 ADD SWAP7 PUSH2 0x385 DUP2 DUP4 DUP11 PUSH2 0x2CDC JUMP JUMPDEST PUSH2 0x1280 PUSH1 0xFF PUSH1 0x1 PUSH1 0x40 MLOAD PUSH1 0x20 DUP2 DUP9 MLOAD PUSH2 0x3B0 DUP2 DUP4 DUP11 PUSH2 0x2CDC JUMP JUMPDEST PUSH2 0x12B8 PUSH1 0xFF PUSH1 0x40 PUSH1 0x5 DUP2 MLOAD PUSH1 0x20 DUP2 DUP10 MLOAD PUSH2 0x129B DUP2 DUP4 DUP12 PUSH2 0x2CDC JUMP JUMPDEST DUP2 ADD PUSH1 0x7 DUP2 MSTORE SUB ADD SWAP1 KECCAK256 ADD PUSH1 0x0 SWAP1 DUP11 DUP3 MSTORE PUSH1 0x20 MSTORE KECCAK256 SLOAD AND ISZERO PUSH2 0x34B7 JUMP JUMPDEST DUP4 ISZERO PUSH2 0x13F9 JUMPI JUMPDEST SWAP2 DUP6 SWAP2 PUSH1 0x1 SWAP5 SWAP4 PUSH2 0x12CF DUP4 PUSH2 0x3E48 JUMP JUMPDEST PUSH2 0x13E5 JUMPI SWAP2 PUSH2 0x13CF PUSH2 0x4B8 SWAP3 PUSH1 0x0 DUP1 MLOAD PUSH1 0x20 PUSH2 0x487A DUP4 CODECOPY DUP2 MLOAD SWAP2 MSTORE SWAP5 PUSH2 0x1332 PUSH1 0x40 MLOAD PUSH1 0x20 DUP2 DUP8 MLOAD PUSH2 0x1301 DUP2 DUP4 DUP9 PUSH2 0x2CDC JUMP JUMPDEST DUP2 ADD PUSH1 0x6 DUP2 MSTORE SUB ADD SWAP1 KECCAK256 PUSH1 0x40 MLOAD SWAP1 PUSH2 0x1318 DUP3 PUSH2 0x2C21 JUMP JUMPDEST DUP10 DUP3 MSTORE DUP5 PUSH1 0x20 DUP4 ADD MSTORE DUP12 PUSH1 0x40 DUP4 ADD MSTORE TIMESTAMP PUSH1 0x60 DUP4 ADD MSTORE PUSH2 0x352F JUMP JUMPDEST PUSH1 0x40 PUSH1 0x5 DUP2 MLOAD PUSH1 0x20 DUP2 DUP9 MLOAD PUSH2 0x1348 DUP2 DUP4 DUP10 PUSH2 0x2CDC JUMP JUMPDEST DUP2 ADD PUSH1 0x7 DUP2 MSTORE SUB ADD SWAP1 KECCAK256 ADD PUSH1 0x0 SWAP1 DUP10 DUP3 MSTORE PUSH1 0x20 MSTORE KECCAK256 DUP10 PUSH1 0xFF NOT DUP3 SLOAD AND OR SWAP1 SSTORE PUSH2 0x137F PUSH1 0x6 PUSH1 0x40 MLOAD PUSH1 0x20 DUP2 DUP9 MLOAD PUSH2 0x4F7 DUP2 DUP4 DUP10 PUSH2 0x2CDC JUMP JUMPDEST PUSH2 0x1389 DUP2 SLOAD PUSH2 0x3373 JUMP JUMPDEST SWAP1 SSTORE DUP7 PUSH1 0x0 MSTORE PUSH1 0x4 PUSH1 0x20 MSTORE PUSH2 0x13B9 PUSH2 0x552 PUSH1 0x7 PUSH2 0x542 PUSH1 0x20 PUSH1 0x40 PUSH1 0x0 KECCAK256 SLOAD SWAP6 PUSH1 0x40 MLOAD DUP1 SWAP4 DUP2 SWAP3 DUP13 MLOAD SWAP3 DUP4 SWAP2 PUSH2 0x2CDC JUMP JUMPDEST SWAP1 SSTORE PUSH1 0x40 MLOAD SWAP4 DUP5 SWAP4 PUSH1 0x80 DUP6 MSTORE PUSH1 0x80 DUP6 ADD SWAP1 PUSH2 0x2CFF JUMP JUMPDEST DUP7 PUSH1 0x40 DUP4 ADD MSTORE TIMESTAMP PUSH1 0x60 DUP4 ADD MSTORE SUB SWAP1 LOG2 JUMPDEST ADD PUSH2 0x1228 JUMP JUMPDEST POP POP PUSH2 0x13F4 SWAP2 POP PUSH2 0x571 PUSH2 0x3502 JUMP JUMPDEST PUSH2 0x13DF JUMP JUMPDEST SWAP6 POP PUSH1 0x1 SWAP3 SWAP2 DUP6 SWAP2 PUSH1 0x4 PUSH1 0x40 MLOAD PUSH1 0x20 DUP2 DUP1 PUSH2 0x1418 DUP14 DUP9 MLOAD SWAP3 DUP4 SWAP2 PUSH2 0x2CDC JUMP JUMPDEST DUP2 ADD PUSH1 0x7 DUP2 MSTORE SUB ADD SWAP1 KECCAK256 ADD SLOAD SWAP8 SWAP2 SWAP4 SWAP5 POP SWAP2 POP PUSH2 0x12BF JUMP JUMPDEST DUP4 DUP1 ISZERO ISZERO DUP1 PUSH2 0x1537 JUMPI JUMPDEST PUSH2 0x1440 JUMPI STOP JUMPDEST PUSH1 0x0 MSTORE PUSH1 0x8 PUSH1 0x20 MSTORE PUSH2 0x1458 PUSH1 0x1 PUSH1 0x40 PUSH1 0x0 KECCAK256 ADD PUSH2 0x31E3 JUMP JUMPDEST PUSH1 0x0 JUMPDEST DUP2 MLOAD DUP2 LT ISZERO PUSH2 0x584 JUMPI DUP1 PUSH2 0x1471 PUSH1 0x1 SWAP3 DUP5 PUSH2 0x31AC JUMP JUMPDEST MLOAD PUSH1 0x40 MLOAD PUSH1 0xFF DUP5 DUP4 MLOAD SWAP3 PUSH1 0x20 DUP2 DUP2 DUP8 ADD SWAP6 PUSH2 0x148D DUP2 DUP4 DUP10 PUSH2 0x2CDC JUMP JUMPDEST DUP2 ADD PUSH1 0x7 DUP2 MSTORE SUB ADD SWAP1 KECCAK256 ADD SLOAD AND SWAP1 DUP2 PUSH2 0x1504 JUMPI JUMPDEST POP PUSH2 0x14AE JUMPI JUMPDEST POP ADD PUSH2 0x145B JUMP JUMPDEST PUSH2 0x14B7 DUP2 PUSH2 0x4384 JUMP JUMPDEST DUP1 MLOAD ISZERO PUSH2 0x14F2 JUMPI PUSH1 0x0 DUP1 MLOAD PUSH1 0x20 PUSH2 0x485A DUP4 CODECOPY DUP2 MLOAD SWAP2 MSTORE SWAP2 PUSH2 0x14D9 PUSH2 0x644 PUSH2 0x36DF JUMP JUMPDEST PUSH2 0x14E8 PUSH1 0x40 MLOAD SWAP3 DUP4 SWAP3 DUP4 PUSH2 0x334B JUMP JUMPDEST SUB SWAP1 LOG1 JUMPDEST DUP4 PUSH2 0x14A7 JUMP JUMPDEST POP PUSH2 0x14FF SWAP1 PUSH2 0x571 PUSH2 0x36A7 JUMP JUMPDEST PUSH2 0x14EC JUMP JUMPDEST PUSH1 0xFF SWAP2 POP PUSH2 0x1520 PUSH1 0x20 DUP7 SWAP3 PUSH1 0x40 MLOAD DUP1 SWAP4 DUP2 SWAP3 DUP9 MLOAD SWAP3 DUP4 SWAP2 PUSH2 0x2CDC JUMP JUMPDEST DUP2 ADD PUSH1 0x7 DUP2 MSTORE SUB ADD SWAP1 KECCAK256 ADD SLOAD PUSH1 0x8 SHR AND ISZERO DUP6 PUSH2 0x14A1 JUMP JUMPDEST POP PUSH2 0x1541 DUP2 PUSH2 0x42DD JUMP JUMPDEST PUSH2 0x143A JUMP JUMPDEST PUSH1 0x40 MLOAD PUSH3 0x461BCD PUSH1 0xE5 SHL DUP2 MSTORE PUSH1 0x20 PUSH1 0x4 DUP3 ADD MSTORE PUSH1 0x14 PUSH1 0x24 DUP3 ADD MSTORE PUSH20 0x159BDD195C881B9BDD081C9959DA5CDD195C9959 PUSH1 0x62 SHL PUSH1 0x44 DUP3 ADD MSTORE PUSH1 0x64 SWAP1 REVERT JUMPDEST PUSH1 0x40 MLOAD PUSH3 0x461BCD PUSH1 0xE5 SHL DUP2 MSTORE PUSH1 0x20 PUSH1 0x4 DUP3 ADD MSTORE PUSH1 0xB PUSH1 0x24 DUP3 ADD MSTORE PUSH11 0x8ADAE0E8F240C4C2E8C6D PUSH1 0xAB SHL PUSH1 0x44 DUP3 ADD MSTORE PUSH1 0x64 SWAP1 REVERT JUMPDEST PUSH1 0x40 MLOAD PUSH3 0x461BCD PUSH1 0xE5 SHL DUP2 MSTORE PUSH1 0x20 PUSH1 0x4 DUP3 ADD MSTORE PUSH1 0x11 PUSH1 0x24 DUP3 ADD MSTORE PUSH17 0x4D69736D61746368656420617272617973 PUSH1 0x78 SHL PUSH1 0x44 DUP3 ADD MSTORE PUSH1 0x64 SWAP1 REVERT JUMPDEST CALLVALUE PUSH2 0x1BB JUMPI PUSH1 0x0 CALLDATASIZE PUSH1 0x3 NOT ADD SLT PUSH2 0x1BB JUMPI PUSH1 0x20 PUSH1 0x9 SLOAD PUSH1 0x40 MLOAD SWAP1 DUP2 MSTORE RETURN JUMPDEST CALLVALUE PUSH2 0x1BB JUMPI PUSH1 0x0 CALLDATASIZE PUSH1 0x3 NOT ADD SLT PUSH2 0x1BB JUMPI PUSH1 0x9 SLOAD DUP1 PUSH1 0x0 MSTORE PUSH1 0x8 PUSH1 0x20 MSTORE PUSH1 0x40 PUSH1 0x0 KECCAK256 SWAP1 PUSH2 0xB6D PUSH1 0xFF PUSH1 0x3 DUP5 ADD SLOAD AND SWAP3 PUSH1 0x1 DUP2 ADD PUSH2 0x164F PUSH1 0x2 DUP3 SLOAD SWAP4 ADD SLOAD SWAP2 PUSH2 0x31E3 JUMP JUMPDEST SWAP2 PUSH1 0x40 MLOAD SWAP6 DUP7 SWAP6 DUP7 MSTORE ISZERO ISZERO PUSH1 0x20 DUP7 ADD MSTORE PUSH1 0x40 DUP6 ADD MSTORE PUSH1 0x60 DUP5 ADD MSTORE PUSH1 0xA0 PUSH1 0x80 DUP5 ADD MSTORE PUSH1 0xA0 DUP4 ADD SWAP1 PUSH2 0x2D24 JUMP JUMPDEST CALLVALUE PUSH2 0x1BB JUMPI PUSH1 0x20 CALLDATASIZE PUSH1 0x3 NOT ADD SLT PUSH2 0x1BB JUMPI PUSH1 0x4 CALLDATALOAD PUSH1 0x1 PUSH1 0x1 PUSH1 0x40 SHL SUB DUP2 GT PUSH2 0x1BB JUMPI PUSH1 0x20 PUSH2 0x21E PUSH2 0x16AF SWAP3 CALLDATASIZE SWAP1 PUSH1 0x4 ADD PUSH2 0x2C95 JUMP JUMPDEST DUP2 ADD PUSH1 0x6 DUP2 MSTORE SUB ADD SWAP1 KECCAK256 DUP1 SLOAD SWAP1 PUSH2 0x16C5 DUP3 PUSH2 0x2DB1 JUMP JUMPDEST SWAP2 PUSH2 0x16D3 PUSH1 0x40 MLOAD SWAP4 DUP5 PUSH2 0x2C57 JUMP JUMPDEST DUP1 DUP4 MSTORE PUSH1 0x20 DUP4 ADD DUP1 SWAP3 PUSH1 0x0 MSTORE PUSH1 0x20 PUSH1 0x0 KECCAK256 PUSH1 0x0 SWAP2 JUMPDEST DUP4 DUP4 LT PUSH2 0x1786 JUMPI DUP5 DUP7 PUSH1 0x40 MLOAD SWAP2 DUP3 SWAP2 PUSH1 0x20 DUP4 ADD SWAP1 PUSH1 0x20 DUP5 MSTORE MLOAD DUP1 SWAP2 MSTORE PUSH1 0x40 DUP4 ADD SWAP1 PUSH1 0x40 DUP2 PUSH1 0x5 SHL DUP6 ADD ADD SWAP3 SWAP2 PUSH1 0x0 SWAP1 JUMPDEST DUP3 DUP3 LT PUSH2 0x1727 JUMPI POP POP POP POP SUB SWAP1 RETURN JUMPDEST SWAP2 SWAP4 PUSH1 0x1 SWAP2 SWAP4 SWAP6 POP PUSH1 0x20 DUP1 SWAP2 PUSH1 0x3F NOT DUP10 DUP3 SUB ADD DUP6 MSTORE DUP8 MLOAD SWAP1 DUP5 DUP1 PUSH1 0xA0 SHL SUB DUP3 MLOAD AND DUP2 MSTORE PUSH1 0x60 DUP1 PUSH2 0x1764 DUP6 DUP6 ADD MLOAD PUSH1 0x80 DUP8 DUP7 ADD MSTORE PUSH1 0x80 DUP6 ADD SWAP1 PUSH2 0x2CFF JUMP JUMPDEST SWAP4 PUSH1 0x40 DUP2 ADD MLOAD ISZERO ISZERO PUSH1 0x40 DUP6 ADD MSTORE ADD MLOAD SWAP2 ADD MSTORE SWAP7 ADD SWAP3 ADD SWAP3 ADD DUP6 SWAP5 SWAP4 SWAP2 SWAP3 PUSH2 0x1718 JUMP JUMPDEST PUSH1 0x4 PUSH1 0x20 PUSH1 0x1 SWAP3 PUSH1 0x40 MLOAD PUSH2 0x1799 DUP2 PUSH2 0x2C21 JUMP JUMPDEST DUP5 DUP1 PUSH1 0xA0 SHL SUB DUP7 SLOAD AND DUP2 MSTORE PUSH2 0x17AF DUP6 DUP8 ADD PUSH2 0x2F0E JUMP JUMPDEST DUP4 DUP3 ADD MSTORE PUSH1 0xFF PUSH1 0x2 DUP8 ADD SLOAD AND ISZERO ISZERO PUSH1 0x40 DUP3 ADD MSTORE PUSH1 0x3 DUP7 ADD SLOAD PUSH1 0x60 DUP3 ADD MSTORE DUP2 MSTORE ADD SWAP3 ADD SWAP3 ADD SWAP2 SWAP1 PUSH2 0x16E8 JUMP JUMPDEST CALLVALUE PUSH2 0x1BB JUMPI PUSH1 0x20 CALLDATASIZE PUSH1 0x3 NOT ADD SLT PUSH2 0x1BB JUMPI PUSH1 0x4 CALLDATALOAD PUSH1 0x1 PUSH1 0x1 PUSH1 0x40 SHL SUB DUP2 GT PUSH2 0x1BB JUMPI PUSH1 0x20 PUSH2 0x21E PUSH2 0x180F SWAP3 CALLDATASIZE SWAP1 PUSH1 0x4 ADD PUSH2 0x2C95 JUMP JUMPDEST DUP2 ADD PUSH1 0x7 DUP2 MSTORE SUB ADD SWAP1 KECCAK256 DUP1 SLOAD PUSH2 0xB6D PUSH2 0x182F PUSH1 0x2 PUSH1 0x1 DUP6 ADD SLOAD SWAP5 ADD PUSH2 0x2F0E JUMP JUMPDEST PUSH1 0xFF PUSH1 0x40 MLOAD SWAP5 DUP6 SWAP5 DUP6 MSTORE DUP2 DUP2 AND ISZERO ISZERO PUSH1 0x20 DUP7 ADD MSTORE PUSH1 0x8 SHR AND ISZERO ISZERO PUSH1 0x40 DUP5 ADD MSTORE PUSH1 0x80 PUSH1 0x60 DUP5 ADD MSTORE PUSH1 0x80 DUP4 ADD SWAP1 PUSH2 0x2CFF JUMP JUMPDEST CALLVALUE PUSH2 0x1BB JUMPI PUSH1 0x40 CALLDATASIZE PUSH1 0x3 NOT ADD SLT PUSH2 0x1BB JUMPI PUSH1 0x4 CALLDATALOAD PUSH1 0x1 PUSH1 0x1 PUSH1 0x40 SHL SUB DUP2 GT PUSH2 0x1BB JUMPI PUSH2 0x188F SWAP1 CALLDATASIZE SWAP1 PUSH1 0x4 ADD PUSH2 0x301A JUMP JUMPDEST PUSH1 0x24 CALLDATALOAD PUSH1 0x1 PUSH1 0x1 PUSH1 0x40 SHL SUB DUP2 GT PUSH2 0x1BB JUMPI PUSH2 0x18AE SWAP1 CALLDATASIZE SWAP1 PUSH1 0x4 ADD PUSH2 0x2E46 JUMP JUMPDEST SWAP1 PUSH2 0x18C4 PUSH1 0x1 DUP1 PUSH1 0xA0 SHL SUB PUSH1 0x0 SLOAD AND CALLER EQ PUSH2 0x323B JUMP JUMPDEST DUP1 MLOAD DUP3 MLOAD SUB PUSH2 0x1A4C JUMPI PUSH1 0x0 JUMPDEST PUSH1 0x5 SLOAD DUP2 LT ISZERO PUSH2 0x1909 JUMPI DUP1 PUSH2 0x18E6 PUSH1 0x1 SWAP3 PUSH2 0x2EA3 JUMP JUMPDEST DUP4 DUP1 PUSH1 0xA0 SHL SUB SWAP2 SLOAD SWAP1 PUSH1 0x3 SHL SHR AND PUSH1 0x0 MSTORE PUSH1 0x4 PUSH1 0x20 MSTORE PUSH1 0x0 PUSH1 0x40 DUP2 KECCAK256 SSTORE ADD PUSH2 0x18D0 JUMP JUMPDEST POP PUSH1 0x5 SLOAD PUSH1 0x0 PUSH1 0x5 SSTORE DUP1 PUSH2 0x1A13 JUMPI JUMPDEST POP PUSH1 0x0 JUMPDEST DUP2 MLOAD DUP2 LT ISZERO PUSH2 0x584 JUMPI PUSH2 0x192F DUP2 DUP5 PUSH2 0x31AC JUMP JUMPDEST MLOAD ISZERO PUSH2 0x19CE JUMPI PUSH2 0x193F DUP2 DUP5 PUSH2 0x31AC JUMP JUMPDEST MLOAD PUSH1 0x1 PUSH1 0x1 PUSH1 0xA0 SHL SUB PUSH2 0x1952 DUP4 DUP6 PUSH2 0x31AC JUMP JUMPDEST MLOAD AND PUSH1 0x0 SWAP1 DUP2 MSTORE PUSH1 0x4 PUSH1 0x20 MSTORE PUSH1 0x40 SWAP1 KECCAK256 SSTORE PUSH1 0x1 PUSH1 0x1 PUSH1 0xA0 SHL SUB PUSH2 0x1975 DUP3 DUP5 PUSH2 0x31AC JUMP JUMPDEST MLOAD PUSH1 0x5 SLOAD SWAP3 SWAP2 AND PUSH1 0x1 PUSH1 0x40 SHL DUP4 LT ISZERO PUSH2 0x19B8 JUMPI PUSH2 0x1999 DUP4 PUSH1 0x1 DUP1 SWAP6 ADD PUSH1 0x5 SSTORE PUSH2 0x2EA3 JUMP JUMPDEST DUP2 SWAP3 SWAP2 SLOAD SWAP1 PUSH1 0x3 SHL SWAP2 DUP3 SHL SWAP2 DUP6 DUP1 PUSH1 0xA0 SHL SUB SWAP1 SHL NOT AND OR SWAP1 SSTORE ADD PUSH2 0x191C JUMP JUMPDEST PUSH4 0x4E487B71 PUSH1 0xE0 SHL PUSH1 0x0 MSTORE PUSH1 0x41 PUSH1 0x4 MSTORE PUSH1 0x24 PUSH1 0x0 REVERT JUMPDEST PUSH1 0x40 MLOAD PUSH3 0x461BCD PUSH1 0xE5 SHL DUP2 MSTORE PUSH1 0x20 PUSH1 0x4 DUP3 ADD MSTORE PUSH1 0x1D PUSH1 0x24 DUP3 ADD MSTORE PUSH32 0x576569676874206D7573742062652067726561746572207468616E2030000000 PUSH1 0x44 DUP3 ADD MSTORE PUSH1 0x64 SWAP1 REVERT JUMPDEST PUSH1 0x5 PUSH1 0x0 MSTORE PUSH2 0x1A46 SWAP1 PUSH32 0x36B6384B5ECA791C62761152D0C79BB0604C104A5FB6F4EB0703F3154BB3DB0 SWAP1 DUP2 ADD SWAP1 PUSH2 0x3284 JUMP JUMPDEST DUP3 PUSH2 0x1918 JUMP JUMPDEST PUSH1 0x40 MLOAD PUSH3 0x461BCD PUSH1 0xE5 SHL DUP2 MSTORE PUSH1 0x20 PUSH1 0x4 DUP3 ADD MSTORE PUSH1 0x12 PUSH1 0x24 DUP3 ADD MSTORE PUSH18 0x4D69736D617463686564206C656E67746873 PUSH1 0x70 SHL PUSH1 0x44 DUP3 ADD MSTORE PUSH1 0x64 SWAP1 REVERT JUMPDEST CALLVALUE PUSH2 0x1BB JUMPI PUSH1 0x20 CALLDATASIZE PUSH1 0x3 NOT ADD SLT PUSH2 0x1BB JUMPI PUSH1 0x4 CALLDATALOAD PUSH1 0x1 PUSH1 0x1 PUSH1 0x40 SHL SUB DUP2 GT PUSH2 0x1BB JUMPI PUSH1 0x20 PUSH2 0x21E PUSH2 0x1ABB SWAP3 CALLDATASIZE SWAP1 PUSH1 0x4 ADD PUSH2 0x2C95 JUMP JUMPDEST DUP2 ADD PUSH1 0x7 DUP2 MSTORE SUB ADD SWAP1 KECCAK256 PUSH1 0x0 PUSH1 0x2 SLOAD DUP1 ISZERO ISZERO DUP1 PUSH2 0x1BDE JUMPI JUMPDEST DUP1 PUSH2 0x1BCC JUMPI JUMPDEST PUSH2 0x1BA7 JUMPI JUMPDEST POP PUSH1 0x0 SWAP1 PUSH1 0x0 SWAP3 PUSH1 0x5 SLOAD PUSH1 0x5 DUP3 ADD SWAP5 JUMPDEST DUP2 DUP2 LT PUSH2 0x1B5A JUMPI POP POP PUSH1 0xFF SWAP4 POP PUSH1 0x1 DUP2 ADD SLOAD SWAP3 DUP2 SLOAD SWAP3 PUSH2 0x1B41 PUSH2 0x1B18 PUSH1 0x2 PUSH1 0x3 DUP7 ADD SLOAD SWAP6 ADD PUSH2 0x2F0E JUMP JUMPDEST PUSH1 0x40 MLOAD SWAP8 DUP8 DUP2 DUP11 SWAP10 AND ISZERO ISZERO DUP10 MSTORE PUSH1 0x8 SHR AND ISZERO ISZERO PUSH1 0x20 DUP9 ADD MSTORE PUSH1 0xE0 PUSH1 0x40 DUP9 ADD MSTORE PUSH1 0xE0 DUP8 ADD SWAP1 PUSH2 0x2CFF JUMP JUMPDEST SWAP4 PUSH1 0x60 DUP7 ADD MSTORE PUSH1 0x80 DUP6 ADD MSTORE PUSH1 0xA0 DUP5 ADD MSTORE PUSH1 0xC0 DUP4 ADD MSTORE SUB SWAP1 RETURN JUMPDEST PUSH1 0xFF PUSH1 0x40 PUSH2 0x1B67 DUP4 PUSH2 0x2EA3 JUMP JUMPDEST SWAP1 SLOAD PUSH1 0x3 SWAP2 SWAP1 SWAP2 SHL SHR PUSH1 0x1 PUSH1 0x1 PUSH1 0xA0 SHL SUB AND PUSH1 0x0 SWAP1 DUP2 MSTORE PUSH1 0x20 DUP10 SWAP1 MSTORE KECCAK256 SLOAD AND PUSH2 0x1B93 JUMPI JUMPDEST PUSH1 0x1 ADD PUSH2 0x1AEE JUMP JUMPDEST SWAP4 PUSH2 0x1B9F PUSH1 0x1 SWAP2 PUSH2 0x3373 JUMP JUMPDEST SWAP5 SWAP1 POP PUSH2 0x1B8B JUMP JUMPDEST PUSH2 0x1BB2 SWAP1 DUP4 SLOAD PUSH2 0x3417 JUMP JUMPDEST DUP1 TIMESTAMP LT ISZERO PUSH2 0x1ADE JUMPI PUSH2 0x1BC6 SWAP2 POP TIMESTAMP SWAP1 PUSH2 0x31C0 JUMP JUMPDEST DUP3 PUSH2 0x1ADE JUMP JUMPDEST POP PUSH1 0xFF PUSH1 0x1 DUP5 ADD SLOAD PUSH1 0x8 SHR AND ISZERO PUSH2 0x1AD9 JUMP JUMPDEST POP PUSH1 0xFF PUSH1 0x1 DUP5 ADD SLOAD AND PUSH2 0x1AD3 JUMP JUMPDEST CALLVALUE PUSH2 0x1BB JUMPI PUSH1 0x20 CALLDATASIZE PUSH1 0x3 NOT ADD SLT PUSH2 0x1BB JUMPI PUSH1 0x4 CALLDATALOAD PUSH1 0x0 MSTORE PUSH1 0x8 PUSH1 0x20 MSTORE PUSH2 0xB6D PUSH2 0x1C1B PUSH1 0x1 PUSH1 0x40 PUSH1 0x0 KECCAK256 ADD PUSH2 0x31E3 JUMP JUMPDEST PUSH1 0x40 MLOAD SWAP2 DUP3 SWAP2 PUSH1 0x20 DUP4 MSTORE PUSH1 0x20 DUP4 ADD SWAP1 PUSH2 0x2D24 JUMP JUMPDEST CALLVALUE PUSH2 0x1BB JUMPI PUSH1 0x20 CALLDATASIZE PUSH1 0x3 NOT ADD SLT PUSH2 0x1BB JUMPI PUSH1 0x4 CALLDATALOAD PUSH1 0x1 PUSH1 0x1 PUSH1 0x40 SHL SUB DUP2 GT PUSH2 0x1BB JUMPI PUSH2 0x1C69 PUSH2 0x1C64 PUSH1 0x20 SWAP3 CALLDATASIZE SWAP1 PUSH1 0x4 ADD PUSH2 0x2C95 JUMP JUMPDEST PUSH2 0x3382 JUMP JUMPDEST PUSH1 0x40 MLOAD SWAP1 DUP2 MSTORE RETURN JUMPDEST CALLVALUE PUSH2 0x1BB JUMPI PUSH1 0x40 CALLDATASIZE PUSH1 0x3 NOT ADD SLT PUSH2 0x1BB JUMPI PUSH1 0x4 CALLDATALOAD PUSH1 0x1 PUSH1 0x1 PUSH1 0x40 SHL SUB DUP2 GT PUSH2 0x1BB JUMPI PUSH2 0x1CA1 SWAP1 CALLDATASIZE SWAP1 PUSH1 0x4 ADD PUSH2 0x2C95 JUMP JUMPDEST PUSH2 0x1CBD PUSH1 0x20 PUSH1 0x24 CALLDATALOAD SWAP3 DUP2 PUSH1 0x40 MLOAD SWAP4 DUP3 DUP6 DUP1 SWAP5 MLOAD SWAP4 DUP5 SWAP3 ADD PUSH2 0x2CDC JUMP JUMPDEST DUP2 ADD PUSH1 0x6 DUP2 MSTORE SUB ADD SWAP1 KECCAK256 SWAP1 DUP2 SLOAD DUP2 LT ISZERO PUSH2 0x1BB JUMPI PUSH2 0x1CDA SWAP2 PUSH2 0x2FFE JUMP JUMPDEST POP DUP1 SLOAD PUSH1 0x1 PUSH1 0x1 PUSH1 0xA0 SHL SUB AND PUSH2 0x1CF2 PUSH1 0x1 DUP4 ADD PUSH2 0x2F0E JUMP JUMPDEST SWAP2 PUSH1 0x3 PUSH1 0xFF PUSH1 0x2 DUP4 ADD SLOAD AND SWAP2 ADD SLOAD PUSH2 0x1D1C PUSH1 0x40 MLOAD SWAP5 DUP6 SWAP5 DUP6 MSTORE PUSH1 0x80 PUSH1 0x20 DUP7 ADD MSTORE PUSH1 0x80 DUP6 ADD SWAP1 PUSH2 0x2CFF JUMP JUMPDEST SWAP2 ISZERO ISZERO PUSH1 0x40 DUP5 ADD MSTORE PUSH1 0x60 DUP4 ADD MSTORE SUB SWAP1 RETURN JUMPDEST CALLVALUE PUSH2 0x1BB JUMPI PUSH1 0x40 CALLDATASIZE PUSH1 0x3 NOT ADD SLT PUSH2 0x1BB JUMPI PUSH1 0x4 CALLDATALOAD PUSH1 0x1 PUSH1 0x1 PUSH1 0x40 SHL SUB DUP2 GT PUSH2 0x1BB JUMPI PUSH2 0x1D5D SWAP1 CALLDATASIZE SWAP1 PUSH1 0x4 ADD PUSH2 0x2C95 JUMP JUMPDEST PUSH1 0x24 CALLDATALOAD PUSH1 0x1 PUSH1 0x1 PUSH1 0x40 SHL SUB DUP2 GT PUSH2 0x1BB JUMPI PUSH2 0x1D7C SWAP1 CALLDATASIZE SWAP1 PUSH1 0x4 ADD PUSH2 0x2C95 JUMP JUMPDEST SWAP1 ADDRESS CALLER SUB PUSH2 0x1E21 JUMPI PUSH1 0x0 SLOAD PUSH1 0x1 PUSH1 0x1 PUSH1 0xA0 SHL SUB AND DUP1 EXTCODESIZE ISZERO PUSH2 0x1BB JUMPI PUSH1 0x0 PUSH1 0x40 MLOAD DUP1 SWAP3 PUSH4 0x160C220D PUSH1 0xE3 SHL DUP3 MSTORE DUP2 DUP4 DUP2 PUSH2 0x1DB9 DUP10 DUP10 PUSH1 0x4 DUP5 ADD PUSH2 0x334B JUMP JUMPDEST SUB SWAP3 GAS CALL PUSH2 0x1E10 JUMPI JUMPDEST POP PUSH1 0x0 SLOAD PUSH1 0x1 PUSH1 0x1 PUSH1 0xA0 SHL SUB AND SWAP2 DUP3 EXTCODESIZE ISZERO PUSH2 0x1BB JUMPI PUSH2 0x1DFB SWAP3 PUSH1 0x0 SWAP3 DUP4 PUSH1 0x40 MLOAD DUP1 SWAP7 DUP2 SWAP6 DUP3 SWAP5 PUSH4 0x14FAF32D PUSH1 0xE1 SHL DUP5 MSTORE PUSH1 0x4 DUP5 ADD PUSH2 0x334B JUMP JUMPDEST SUB SWAP3 GAS CALL PUSH2 0x1E05 JUMPI STOP JUMPDEST PUSH1 0x0 PUSH2 0x584 SWAP2 PUSH2 0x2C57 JUMP JUMPDEST PUSH1 0x0 PUSH2 0x1E1B SWAP2 PUSH2 0x2C57 JUMP JUMPDEST DUP3 PUSH2 0x1DC2 JUMP JUMPDEST PUSH1 0x40 MLOAD PUSH3 0x461BCD PUSH1 0xE5 SHL DUP2 MSTORE PUSH1 0x20 PUSH1 0x4 DUP3 ADD MSTORE PUSH1 0x12 PUSH1 0x24 DUP3 ADD MSTORE PUSH18 0x496E7465726E616C2063616C6C206F6E6C79 PUSH1 0x70 SHL PUSH1 0x44 DUP3 ADD MSTORE PUSH1 0x64 SWAP1 REVERT JUMPDEST CALLVALUE PUSH2 0x1BB JUMPI PUSH1 0x0 CALLDATASIZE PUSH1 0x3 NOT ADD SLT PUSH2 0x1BB JUMPI PUSH1 0x40 MLOAD PUSH1 0x0 PUSH1 0x3 SLOAD PUSH2 0x1E7D DUP2 PUSH2 0x2ED4 JUMP JUMPDEST DUP1 DUP5 MSTORE SWAP1 PUSH1 0x1 DUP2 AND SWAP1 DUP2 ISZERO PUSH2 0x1F18 JUMPI POP PUSH1 0x1 EQ PUSH2 0x1EB9 JUMPI JUMPDEST PUSH2 0xB6D DUP4 PUSH2 0x1EA5 DUP2 DUP6 SUB DUP3 PUSH2 0x2C57 JUMP JUMPDEST PUSH1 0x40 MLOAD SWAP2 DUP3 SWAP2 PUSH1 0x20 DUP4 MSTORE PUSH1 0x20 DUP4 ADD SWAP1 PUSH2 0x2CFF JUMP JUMPDEST PUSH1 0x3 PUSH1 0x0 SWAP1 DUP2 MSTORE PUSH32 0xC2575A0E9E593C00F959F8C92F12DB2869C3395A3B0502D05E2516446F71F85B SWAP4 SWAP3 POP SWAP1 JUMPDEST DUP1 DUP3 LT PUSH2 0x1EFE JUMPI POP SWAP1 SWAP2 POP DUP2 ADD PUSH1 0x20 ADD PUSH2 0x1EA5 PUSH2 0x1E95 JUMP JUMPDEST SWAP2 SWAP3 PUSH1 0x1 DUP2 PUSH1 0x20 SWAP3 SLOAD DUP4 DUP6 DUP9 ADD ADD MSTORE ADD SWAP2 ADD SWAP1 SWAP3 SWAP2 PUSH2 0x1EE6 JUMP JUMPDEST PUSH1 0xFF NOT AND PUSH1 0x20 DUP1 DUP7 ADD SWAP2 SWAP1 SWAP2 MSTORE SWAP2 ISZERO ISZERO PUSH1 0x5 SHL DUP5 ADD SWAP1 SWAP2 ADD SWAP2 POP PUSH2 0x1EA5 SWAP1 POP PUSH2 0x1E95 JUMP JUMPDEST CALLVALUE PUSH2 0x1BB JUMPI PUSH1 0x20 CALLDATASIZE PUSH1 0x3 NOT ADD SLT PUSH2 0x1BB JUMPI PUSH1 0x4 CALLDATALOAD PUSH1 0x5 SLOAD DUP2 LT ISZERO PUSH2 0x1BB JUMPI PUSH2 0x1F65 PUSH1 0x20 SWAP2 PUSH2 0x2EA3 JUMP JUMPDEST SWAP1 SLOAD PUSH1 0x40 MLOAD PUSH1 0x3 SWAP3 SWAP1 SWAP3 SHL SHR PUSH1 0x1 PUSH1 0x1 PUSH1 0xA0 SHL SUB AND DUP2 MSTORE RETURN JUMPDEST CALLVALUE PUSH2 0x1BB JUMPI PUSH1 0x20 CALLDATASIZE PUSH1 0x3 NOT ADD SLT PUSH2 0x1BB JUMPI PUSH1 0x4 CALLDATALOAD PUSH1 0x1 PUSH1 0x1 PUSH1 0x40 SHL SUB DUP2 GT PUSH2 0x1BB JUMPI PUSH2 0x1EA5 PUSH1 0x2 PUSH2 0x1FBB PUSH1 0x20 PUSH2 0x21E PUSH2 0xB6D SWAP6 CALLDATASIZE SWAP1 PUSH1 0x4 ADD PUSH2 0x2C95 JUMP JUMPDEST DUP2 ADD PUSH1 0x7 DUP2 MSTORE SUB ADD SWAP1 KECCAK256 ADD PUSH2 0x2F0E JUMP JUMPDEST CALLVALUE PUSH2 0x1BB JUMPI PUSH1 0x20 CALLDATASIZE PUSH1 0x3 NOT ADD SLT PUSH2 0x1BB JUMPI PUSH1 0x4 CALLDATALOAD PUSH1 0x1 PUSH1 0x1 PUSH1 0xA0 SHL SUB DUP2 AND SWAP1 DUP2 SWAP1 SUB PUSH2 0x1BB JUMPI PUSH1 0x0 MSTORE PUSH1 0x4 PUSH1 0x20 MSTORE PUSH1 0x20 PUSH1 0x40 PUSH1 0x0 KECCAK256 SLOAD PUSH1 0x40 MLOAD SWAP1 DUP2 MSTORE RETURN JUMPDEST CALLVALUE PUSH2 0x1BB JUMPI PUSH1 0x40 CALLDATASIZE PUSH1 0x3 NOT ADD SLT PUSH2 0x1BB JUMPI PUSH1 0x4 CALLDATALOAD PUSH1 0x1 PUSH1 0x1 PUSH1 0x40 SHL SUB DUP2 GT PUSH2 0x1BB JUMPI PUSH2 0x2039 SWAP1 CALLDATASIZE SWAP1 PUSH1 0x4 ADD PUSH2 0x2C95 JUMP JUMPDEST PUSH1 0x24 CALLDATALOAD SWAP1 PUSH1 0x1 PUSH1 0x1 PUSH1 0xA0 SHL SUB DUP3 AND DUP3 SUB PUSH2 0x1BB JUMPI PUSH2 0x2068 PUSH1 0x20 PUSH1 0x5 SWAP3 DUP2 PUSH1 0x40 MLOAD SWAP4 DUP3 DUP6 DUP1 SWAP5 MLOAD SWAP4 DUP5 SWAP3 ADD PUSH2 0x2CDC JUMP JUMPDEST DUP2 ADD PUSH1 0x7 DUP2 MSTORE SUB ADD SWAP1 KECCAK256 ADD SWAP1 PUSH1 0x1 DUP1 PUSH1 0xA0 SHL SUB AND PUSH1 0x0 MSTORE PUSH1 0x20 MSTORE PUSH1 0x20 PUSH1 0xFF PUSH1 0x40 PUSH1 0x0 KECCAK256 SLOAD AND PUSH1 0x40 MLOAD SWAP1 ISZERO ISZERO DUP2 MSTORE RETURN JUMPDEST CALLVALUE PUSH2 0x1BB JUMPI PUSH1 0x20 CALLDATASIZE PUSH1 0x3 NOT ADD SLT PUSH2 0x1BB JUMPI PUSH1 0x4 CALLDATALOAD PUSH1 0x1 PUSH1 0x1 PUSH1 0x40 SHL SUB DUP2 GT PUSH2 0x1BB JUMPI PUSH2 0x20C7 SWAP1 CALLDATASIZE SWAP1 PUSH1 0x4 ADD PUSH2 0x2C95 JUMP JUMPDEST PUSH2 0x2128 PUSH1 0xFF PUSH1 0x1 PUSH2 0x2112 PUSH1 0x20 PUSH1 0x40 MLOAD PUSH2 0x2101 DUP6 DUP6 DUP10 MLOAD SWAP4 DUP6 DUP2 DUP2 DUP14 ADD SWAP7 PUSH2 0x20EF DUP2 DUP4 DUP11 PUSH2 0x2CDC JUMP JUMPDEST DUP2 ADD PUSH1 0x7 DUP2 MSTORE SUB ADD SWAP1 KECCAK256 ADD SLOAD AND PUSH2 0x32CA JUMP JUMPDEST PUSH1 0x40 MLOAD DUP1 SWAP4 DUP2 SWAP3 DUP10 MLOAD SWAP3 DUP4 SWAP2 PUSH2 0x2CDC JUMP JUMPDEST DUP2 ADD PUSH1 0x7 DUP2 MSTORE SUB ADD SWAP1 KECCAK256 ADD SLOAD PUSH1 0x8 SHR AND ISZERO PUSH2 0x330B JUMP JUMPDEST PUSH2 0x2131 DUP2 PUSH2 0x3E48 JUMP JUMPDEST ISZERO PUSH2 0x21BA JUMPI PUSH2 0x21B5 PUSH32 0xFE2A617C3A0856BBD203E77CEE3D518A00F599C8A955224E80B1D0A1AFD95703 SWAP2 PUSH2 0x21A7 PUSH1 0x40 MLOAD PUSH2 0x216C PUSH1 0x60 DUP3 PUSH2 0x2C57 JUMP JUMPDEST PUSH1 0x22 DUP2 MSTORE PUSH32 0x54696D656F75742072656163686564202D2065787465726E616C207472696767 PUSH1 0x20 DUP3 ADD MSTORE PUSH2 0x32B9 PUSH1 0xF1 SHL PUSH1 0x40 DUP3 ADD MSTORE DUP3 PUSH2 0x3E82 JUMP JUMPDEST PUSH1 0x40 MLOAD SWAP2 DUP3 SWAP2 TIMESTAMP SWAP1 DUP4 PUSH2 0x32AE JUMP JUMPDEST SUB SWAP1 LOG1 STOP JUMPDEST PUSH1 0x40 MLOAD PUSH3 0x461BCD PUSH1 0xE5 SHL DUP2 MSTORE PUSH1 0x20 PUSH1 0x4 DUP3 ADD MSTORE PUSH1 0x17 PUSH1 0x24 DUP3 ADD MSTORE PUSH23 0x151A5B595BDD5D081B9BDD081C995858DA1959081E595D PUSH1 0x4A SHL PUSH1 0x44 DUP3 ADD MSTORE PUSH1 0x64 SWAP1 REVERT JUMPDEST CALLVALUE PUSH2 0x1BB JUMPI PUSH1 0x80 CALLDATASIZE PUSH1 0x3 NOT ADD SLT PUSH2 0x1BB JUMPI PUSH1 0x4 CALLDATALOAD PUSH1 0x1 PUSH1 0x1 PUSH1 0x40 SHL SUB DUP2 GT PUSH2 0x1BB JUMPI PUSH2 0x2229 SWAP1 CALLDATASIZE SWAP1 PUSH1 0x4 ADD PUSH2 0x2DC8 JUMP JUMPDEST PUSH1 0x24 CALLDATALOAD PUSH1 0x44 CALLDATALOAD PUSH1 0x1 PUSH1 0x1 PUSH1 0x40 SHL SUB DUP2 GT PUSH2 0x1BB JUMPI PUSH2 0x224B SWAP1 CALLDATASIZE SWAP1 PUSH1 0x4 ADD PUSH2 0x2DC8 JUMP JUMPDEST SWAP1 PUSH1 0x64 CALLDATALOAD PUSH1 0x1 PUSH1 0x1 PUSH1 0x40 SHL SUB DUP2 GT PUSH2 0x1BB JUMPI PUSH2 0x226B SWAP1 CALLDATASIZE SWAP1 PUSH1 0x4 ADD PUSH2 0x2E46 JUMP JUMPDEST SWAP3 PUSH2 0x2281 PUSH1 0x1 DUP1 PUSH1 0xA0 SHL SUB PUSH1 0x0 SLOAD AND CALLER EQ PUSH2 0x323B JUMP JUMPDEST DUP1 MLOAD ISZERO PUSH2 0x29C3 JUMPI DUP1 MLOAD DUP4 MLOAD SUB PUSH2 0x2970 JUMPI DUP1 MLOAD DUP5 MLOAD SUB PUSH2 0x2913 JUMPI DUP2 PUSH1 0x0 MSTORE PUSH1 0x8 PUSH1 0x20 MSTORE PUSH1 0xFF PUSH1 0x3 PUSH1 0x40 PUSH1 0x0 KECCAK256 ADD SLOAD AND PUSH2 0x28C2 JUMPI PUSH1 0x0 DUP3 DUP2 MSTORE PUSH1 0x8 PUSH1 0x20 MSTORE PUSH1 0x40 SWAP1 KECCAK256 DUP3 DUP2 SSTORE DUP2 MLOAD PUSH1 0x1 SWAP1 SWAP2 ADD SWAP1 PUSH1 0x1 PUSH1 0x40 SHL DUP2 GT PUSH2 0x19B8 JUMPI DUP2 SLOAD DUP2 DUP4 SSTORE DUP1 DUP3 LT PUSH2 0x2844 JUMPI JUMPDEST POP PUSH1 0x20 DUP4 ADD SWAP2 PUSH1 0x0 MSTORE PUSH1 0x20 PUSH1 0x0 KECCAK256 SWAP2 PUSH1 0x0 SWAP1 JUMPDEST DUP3 DUP3 LT PUSH2 0x273A JUMPI POP POP POP PUSH1 0x0 DUP4 DUP2 MSTORE PUSH1 0x8 PUSH1 0x20 MSTORE PUSH1 0x40 DUP2 KECCAK256 PUSH1 0x2 DUP2 ADD DUP3 SWAP1 SSTORE PUSH1 0x3 DUP2 ADD DUP1 SLOAD PUSH1 0xFF NOT AND PUSH1 0x1 OR SWAP1 SSTORE TIMESTAMP PUSH1 0x4 SWAP1 SWAP2 ADD SSTORE SWAP1 POP JUMPDEST DUP2 MLOAD DUP2 LT ISZERO PUSH2 0x249B JUMPI PUSH2 0x2342 DUP2 DUP6 PUSH2 0x31AC JUMP JUMPDEST MLOAD DUP4 PUSH1 0x0 MSTORE PUSH1 0x8 PUSH1 0x20 MSTORE PUSH2 0x2367 PUSH1 0x5 PUSH1 0x40 PUSH1 0x0 KECCAK256 ADD PUSH2 0x2361 DUP5 DUP7 PUSH2 0x31AC JUMP JUMPDEST MLOAD PUSH2 0x2FD8 JUMP JUMPDEST DUP2 MLOAD SWAP1 SWAP2 PUSH1 0x1 PUSH1 0x1 PUSH1 0x40 SHL SUB DUP3 GT PUSH2 0x19B8 JUMPI PUSH2 0x2383 DUP4 SLOAD PUSH2 0x2ED4 JUMP JUMPDEST PUSH1 0x1F DUP2 GT PUSH2 0x245E JUMPI JUMPDEST POP PUSH1 0x20 SWAP1 PUSH1 0x1F DUP4 GT PUSH1 0x1 EQ PUSH2 0x23F3 JUMPI SWAP2 DUP1 PUSH2 0x23B5 SWAP3 PUSH1 0x1 SWAP7 SWAP6 SWAP5 PUSH1 0x0 SWAP3 PUSH2 0x23E8 JUMPI JUMPDEST POP POP PUSH2 0x329B JUMP JUMPDEST SWAP1 SSTORE JUMPDEST PUSH2 0x23C2 DUP2 DUP8 PUSH2 0x31AC JUMP JUMPDEST MLOAD DUP5 PUSH1 0x0 MSTORE PUSH1 0x8 PUSH1 0x20 MSTORE PUSH2 0x23E1 PUSH1 0x6 PUSH1 0x40 PUSH1 0x0 KECCAK256 ADD PUSH2 0x2361 DUP5 DUP8 PUSH2 0x31AC JUMP JUMPDEST SSTORE ADD PUSH2 0x232F JUMP JUMPDEST ADD MLOAD SWAP1 POP DUP11 DUP1 PUSH2 0x23AE JUMP JUMPDEST SWAP1 PUSH1 0x1F NOT DUP4 AND SWAP2 DUP5 PUSH1 0x0 MSTORE DUP2 PUSH1 0x0 KECCAK256 SWAP3 PUSH1 0x0 JUMPDEST DUP2 DUP2 LT PUSH2 0x2446 JUMPI POP SWAP2 PUSH1 0x1 SWAP7 SWAP6 SWAP5 SWAP3 SWAP2 DUP4 DUP9 SWAP6 SWAP4 LT PUSH2 0x242D JUMPI JUMPDEST POP POP POP DUP2 SHL ADD SWAP1 SSTORE PUSH2 0x23B8 JUMP JUMPDEST ADD MLOAD PUSH1 0x0 NOT PUSH1 0xF8 DUP5 PUSH1 0x3 SHL AND SHR NOT AND SWAP1 SSTORE DUP10 DUP1 DUP1 PUSH2 0x2420 JUMP JUMPDEST SWAP3 SWAP4 PUSH1 0x20 PUSH1 0x1 DUP2 SWAP3 DUP8 DUP7 ADD MLOAD DUP2 SSTORE ADD SWAP6 ADD SWAP4 ADD PUSH2 0x2406 JUMP JUMPDEST PUSH2 0x248B SWAP1 DUP5 PUSH1 0x0 MSTORE PUSH1 0x20 PUSH1 0x0 KECCAK256 PUSH1 0x1F DUP6 ADD PUSH1 0x5 SHR DUP2 ADD SWAP2 PUSH1 0x20 DUP7 LT PUSH2 0x2491 JUMPI JUMPDEST PUSH1 0x1F ADD PUSH1 0x5 SHR ADD SWAP1 PUSH2 0x3284 JUMP JUMPDEST DUP9 PUSH2 0x238C JUMP JUMPDEST SWAP1 SWAP2 POP DUP2 SWAP1 PUSH2 0x247E JUMP JUMPDEST POP DUP2 PUSH1 0x9 SSTORE PUSH1 0x0 JUMPDEST DUP2 MLOAD DUP2 LT ISZERO PUSH2 0x26F0 JUMPI PUSH2 0x24B6 DUP2 DUP4 PUSH2 0x31AC JUMP JUMPDEST MLOAD SWAP1 PUSH1 0x40 MLOAD PUSH1 0xFF PUSH1 0x1 DUP5 MLOAD SWAP3 PUSH1 0x20 DUP2 DUP2 DUP9 ADD SWAP6 PUSH2 0x24D4 DUP2 DUP4 DUP10 PUSH2 0x2CDC JUMP JUMPDEST DUP2 ADD PUSH1 0x7 DUP2 MSTORE SUB ADD SWAP1 KECCAK256 ADD SLOAD AND PUSH2 0x26A1 JUMPI PUSH1 0xFF PUSH1 0x1 PUSH1 0x40 MLOAD PUSH1 0x20 DUP2 DUP8 MLOAD PUSH2 0x24FC DUP2 DUP4 DUP10 PUSH2 0x2CDC JUMP JUMPDEST DUP2 ADD PUSH1 0x7 DUP2 MSTORE SUB ADD SWAP1 KECCAK256 ADD SLOAD PUSH1 0x8 SHR AND PUSH2 0x2661 JUMPI PUSH1 0x4 PUSH2 0x25BF PUSH1 0x20 DUP8 SWAP4 PUSH1 0x40 MLOAD DUP8 MLOAD PUSH2 0x2529 DUP2 DUP4 DUP6 PUSH2 0x2CDC JUMP JUMPDEST DUP2 ADD SWAP1 PUSH1 0x7 DUP3 MSTORE DUP4 DUP2 TIMESTAMP SWAP4 SUB ADD SWAP1 KECCAK256 SSTORE PUSH1 0x1 PUSH1 0x40 MLOAD DUP4 DUP2 DUP11 MLOAD PUSH2 0x254D DUP2 DUP4 DUP9 PUSH2 0x2CDC JUMP JUMPDEST DUP2 ADD PUSH1 0x7 DUP2 MSTORE SUB ADD SWAP1 KECCAK256 ADD PUSH1 0x1 PUSH1 0xFF NOT DUP3 SLOAD AND OR SWAP1 SSTORE PUSH1 0x1 PUSH1 0x40 MLOAD DUP4 DUP2 DUP11 MLOAD PUSH2 0x2577 DUP2 DUP4 DUP9 PUSH2 0x2CDC JUMP JUMPDEST DUP2 ADD PUSH1 0x7 DUP2 MSTORE SUB ADD SWAP1 KECCAK256 ADD PUSH2 0xFF00 NOT DUP2 SLOAD AND SWAP1 SSTORE PUSH1 0x5 SLOAD PUSH1 0x3 PUSH1 0x40 MLOAD DUP5 DUP2 DUP12 MLOAD PUSH2 0x25A2 DUP2 DUP4 DUP10 PUSH2 0x2CDC JUMP JUMPDEST DUP2 ADD PUSH1 0x7 DUP2 MSTORE SUB ADD SWAP1 KECCAK256 ADD SSTORE PUSH1 0x40 MLOAD DUP1 SWAP4 DUP2 SWAP3 DUP10 MLOAD SWAP3 DUP4 SWAP2 PUSH2 0x2CDC JUMP JUMPDEST DUP2 ADD PUSH1 0x7 DUP2 MSTORE SUB ADD SWAP1 KECCAK256 ADD SSTORE PUSH32 0x1A6063EA5A85373503082E9047EBBDE10C2EF86A0029B81921668E4A2EA190E3 PUSH1 0x40 MLOAD DUP1 PUSH2 0x25FB TIMESTAMP DUP7 DUP4 PUSH2 0x32AE JUMP JUMPDEST SUB SWAP1 LOG1 PUSH1 0x0 SLOAD PUSH1 0x1 PUSH1 0x1 PUSH1 0xA0 SHL SUB AND SWAP2 DUP3 EXTCODESIZE ISZERO PUSH2 0x1BB JUMPI PUSH1 0x0 PUSH2 0x2640 PUSH1 0x1 SWAP5 DUP3 SWAP4 PUSH1 0x40 MLOAD SWAP5 DUP6 DUP1 SWAP5 DUP2 SWAP4 PUSH4 0xB2BE4D65 PUSH1 0xE0 SHL DUP4 MSTORE PUSH1 0x20 PUSH1 0x4 DUP5 ADD MSTORE PUSH1 0x24 DUP4 ADD SWAP1 PUSH2 0x2CFF JUMP JUMPDEST SUB SWAP3 GAS CALL PUSH2 0x2650 JUMPI JUMPDEST POP ADD PUSH2 0x24A3 JUMP JUMPDEST PUSH1 0x0 PUSH2 0x265B SWAP2 PUSH2 0x2C57 JUMP JUMPDEST DUP5 PUSH2 0x2649 JUMP JUMPDEST PUSH1 0x40 MLOAD PUSH3 0x461BCD PUSH1 0xE5 SHL DUP2 MSTORE PUSH1 0x20 PUSH1 0x4 DUP3 ADD MSTORE PUSH1 0x18 PUSH1 0x24 DUP3 ADD MSTORE PUSH24 0x14D85B5C1B1948185B1C9958591E48199A5B985B1A5E9959 PUSH1 0x42 SHL PUSH1 0x44 DUP3 ADD MSTORE PUSH1 0x64 SWAP1 REVERT JUMPDEST PUSH1 0x40 MLOAD PUSH3 0x461BCD PUSH1 0xE5 SHL DUP2 MSTORE PUSH1 0x20 PUSH1 0x4 DUP3 ADD MSTORE PUSH1 0x21 PUSH1 0x24 DUP3 ADD MSTORE PUSH32 0x53616D706C6520616C726561647920686173206163746976652073657373696F PUSH1 0x44 DUP3 ADD MSTORE PUSH1 0x37 PUSH1 0xF9 SHL PUSH1 0x64 DUP3 ADD MSTORE PUSH1 0x84 SWAP1 REVERT JUMPDEST POP PUSH32 0x915B7F3F33CA682A46C0A82BCAE59307624896B80801E6EA2C6E702A10499ECE SWAP2 PUSH2 0x272F PUSH1 0x40 MLOAD SWAP3 DUP4 SWAP3 DUP4 MSTORE PUSH1 0x60 PUSH1 0x20 DUP5 ADD MSTORE PUSH1 0x60 DUP4 ADD SWAP1 PUSH2 0x2D24 JUMP JUMPDEST TIMESTAMP PUSH1 0x40 DUP4 ADD MSTORE SUB SWAP1 LOG1 STOP JUMPDEST DUP1 MLOAD DUP1 MLOAD SWAP1 PUSH1 0x1 PUSH1 0x1 PUSH1 0x40 SHL SUB DUP3 GT PUSH2 0x19B8 JUMPI PUSH2 0x2757 DUP7 SLOAD PUSH2 0x2ED4 JUMP JUMPDEST PUSH1 0x1F DUP2 GT PUSH2 0x2812 JUMPI JUMPDEST POP PUSH1 0x20 SWAP1 PUSH1 0x1F DUP4 GT PUSH1 0x1 EQ PUSH2 0x27A5 JUMPI SWAP3 PUSH2 0x278B DUP4 PUSH1 0x1 SWAP6 SWAP5 PUSH1 0x20 SWAP5 DUP8 SWAP7 PUSH1 0x0 SWAP3 PUSH2 0x279A JUMPI POP POP PUSH2 0x329B JUMP JUMPDEST DUP8 SSTORE JUMPDEST ADD SWAP5 ADD SWAP2 ADD SWAP1 SWAP3 PUSH2 0x22F7 JUMP JUMPDEST ADD MLOAD SWAP1 POP DUP15 DUP1 PUSH2 0x23AE JUMP JUMPDEST SWAP1 PUSH1 0x1F NOT DUP4 AND SWAP2 DUP8 PUSH1 0x0 MSTORE DUP2 PUSH1 0x0 KECCAK256 SWAP3 PUSH1 0x0 JUMPDEST DUP2 DUP2 LT PUSH2 0x27FA JUMPI POP SWAP4 PUSH1 0x20 SWAP4 PUSH1 0x1 SWAP7 SWAP4 DUP8 SWAP7 SWAP4 DUP4 DUP9 SWAP6 LT PUSH2 0x27E1 JUMPI JUMPDEST POP POP POP DUP2 SHL ADD DUP8 SSTORE PUSH2 0x278E JUMP JUMPDEST ADD MLOAD PUSH1 0x0 NOT PUSH1 0xF8 DUP5 PUSH1 0x3 SHL AND SHR NOT AND SWAP1 SSTORE DUP14 DUP1 DUP1 PUSH2 0x27D4 JUMP JUMPDEST SWAP3 SWAP4 PUSH1 0x20 PUSH1 0x1 DUP2 SWAP3 DUP8 DUP7 ADD MLOAD DUP2 SSTORE ADD SWAP6 ADD SWAP4 ADD PUSH2 0x27B8 JUMP JUMPDEST PUSH2 0x283E SWAP1 DUP8 PUSH1 0x0 MSTORE PUSH1 0x20 PUSH1 0x0 KECCAK256 PUSH1 0x1F DUP6 ADD PUSH1 0x5 SHR DUP2 ADD SWAP2 PUSH1 0x20 DUP7 LT PUSH2 0x2491 JUMPI PUSH1 0x1F ADD PUSH1 0x5 SHR ADD SWAP1 PUSH2 0x3284 JUMP JUMPDEST DUP11 PUSH2 0x2760 JUMP JUMPDEST DUP3 PUSH1 0x0 MSTORE DUP2 PUSH1 0x20 PUSH1 0x0 KECCAK256 SWAP2 DUP3 ADD SWAP2 ADD JUMPDEST DUP2 DUP2 LT PUSH2 0x2861 JUMPI POP PUSH2 0x22E4 JUMP JUMPDEST DUP1 PUSH2 0x286E PUSH1 0x1 SWAP3 SLOAD PUSH2 0x2ED4 JUMP JUMPDEST DUP1 PUSH2 0x287B JUMPI JUMPDEST POP ADD PUSH2 0x2854 JUMP JUMPDEST PUSH1 0x1F DUP2 GT DUP4 EQ PUSH2 0x2891 JUMPI POP PUSH1 0x0 DUP2 SSTORE JUMPDEST DUP10 PUSH2 0x2874 JUMP JUMPDEST PUSH2 0x28AF SWAP1 DUP3 PUSH1 0x0 MSTORE DUP4 PUSH1 0x1F PUSH1 0x20 PUSH1 0x0 KECCAK256 SWAP3 ADD PUSH1 0x5 SHR DUP3 ADD SWAP2 ADD PUSH2 0x3284 JUMP JUMPDEST DUP1 PUSH1 0x0 MSTORE PUSH1 0x0 PUSH1 0x20 DUP2 KECCAK256 DUP2 DUP4 SSTORE SSTORE PUSH2 0x288B JUMP JUMPDEST PUSH1 0x40 MLOAD PUSH3 0x461BCD PUSH1 0xE5 SHL DUP2 MSTORE PUSH1 0x20 PUSH1 0x4 DUP3 ADD MSTORE PUSH1 0x23 PUSH1 0x24 DUP3 ADD MSTORE PUSH32 0x426174636820616C72656164792061637469766520666F72207468697320726F PUSH1 0x44 DUP3 ADD MSTORE PUSH3 0x1D5B99 PUSH1 0xEA SHL PUSH1 0x64 DUP3 ADD MSTORE PUSH1 0x84 SWAP1 REVERT JUMPDEST PUSH1 0x40 MLOAD PUSH3 0x461BCD PUSH1 0xE5 SHL DUP2 MSTORE PUSH1 0x20 PUSH1 0x4 DUP3 ADD MSTORE PUSH1 0x2F PUSH1 0x24 DUP3 ADD MSTORE PUSH32 0x53616D706C652049447320616E64206F726967696E616C20696E646963657320 PUSH1 0x44 DUP3 ADD MSTORE PUSH15 0xD8CADCCEE8D040DAD2E6DAC2E8C6D PUSH1 0x8B SHL PUSH1 0x64 DUP3 ADD MSTORE PUSH1 0x84 SWAP1 REVERT JUMPDEST PUSH1 0x40 MLOAD PUSH3 0x461BCD PUSH1 0xE5 SHL DUP2 MSTORE PUSH1 0x20 PUSH1 0x4 DUP3 ADD MSTORE PUSH1 0x25 PUSH1 0x24 DUP3 ADD MSTORE PUSH32 0x53616D706C652049447320616E6420686173686573206C656E677468206D6973 PUSH1 0x44 DUP3 ADD MSTORE PUSH5 0xDAC2E8C6D PUSH1 0xDB SHL PUSH1 0x64 DUP3 ADD MSTORE PUSH1 0x84 SWAP1 REVERT JUMPDEST PUSH1 0x40 MLOAD PUSH3 0x461BCD PUSH1 0xE5 SHL DUP2 MSTORE PUSH1 0x20 PUSH1 0x4 DUP3 ADD MSTORE PUSH1 0x12 PUSH1 0x24 DUP3 ADD MSTORE PUSH18 0x8ADAE0E8F240E6C2DAE0D8CA40C4C2E8C6D PUSH1 0x73 SHL PUSH1 0x44 DUP3 ADD MSTORE PUSH1 0x64 SWAP1 REVERT JUMPDEST CALLVALUE PUSH2 0x1BB JUMPI PUSH1 0x20 CALLDATASIZE PUSH1 0x3 NOT ADD SLT PUSH2 0x1BB JUMPI PUSH1 0x4 CALLDATALOAD PUSH1 0x0 MSTORE PUSH1 0x8 PUSH1 0x20 MSTORE PUSH1 0x40 PUSH1 0x0 KECCAK256 PUSH1 0x1 DUP2 ADD DUP1 SLOAD SWAP2 PUSH2 0x2A2E DUP4 PUSH2 0x3123 JUMP JUMPDEST PUSH2 0x2A37 DUP5 PUSH2 0x316D JUMP JUMPDEST SWAP2 PUSH1 0x0 PUSH1 0x5 DUP3 ADD PUSH1 0x6 DUP4 ADD DUP7 SLOAD SWAP3 JUMPDEST DUP9 DUP2 LT PUSH2 0x2AD0 JUMPI DUP9 DUP9 PUSH2 0xB6D DUP10 PUSH2 0x2AC2 DUP11 PUSH2 0x2AB4 DUP12 PUSH1 0xFF PUSH1 0x3 DUP3 ADD SLOAD AND SWAP7 PUSH1 0x2 DUP3 ADD SLOAD SWAP2 PUSH2 0x2A82 PUSH1 0x4 PUSH2 0x2A79 DUP6 DUP14 PUSH2 0x31C0 JUMP JUMPDEST SWAP3 ADD SLOAD SWAP3 PUSH2 0x31E3 JUMP JUMPDEST SWAP3 PUSH1 0x40 MLOAD SWAP11 DUP12 SWAP11 ISZERO ISZERO DUP12 MSTORE PUSH1 0x20 DUP12 ADD MSTORE PUSH1 0x40 DUP11 ADD MSTORE PUSH1 0x60 DUP10 ADD MSTORE PUSH1 0x80 DUP9 ADD MSTORE PUSH2 0x100 PUSH1 0xA0 DUP9 ADD MSTORE PUSH2 0x100 DUP8 ADD SWAP1 PUSH2 0x2D24 JUMP JUMPDEST SWAP1 DUP6 DUP3 SUB PUSH1 0xC0 DUP8 ADD MSTORE PUSH2 0x2D24 JUMP JUMPDEST SWAP1 DUP4 DUP3 SUB PUSH1 0xE0 DUP6 ADD MSTORE PUSH2 0x2D7D JUMP JUMPDEST PUSH1 0x0 DUP5 DUP3 LT ISZERO PUSH2 0x2B31 JUMPI SWAP1 PUSH2 0x2B1F DUP4 PUSH2 0x2AF2 DUP4 PUSH1 0x20 DUP7 DUP15 PUSH1 0x1 SWAP9 MSTORE KECCAK256 ADD PUSH2 0x2F0E JUMP JUMPDEST PUSH2 0x2B04 PUSH2 0x2AFF DUP9 DUP4 PUSH2 0x2FD8 JUMP JUMPDEST PUSH2 0x2F0E JUMP JUMPDEST PUSH2 0x2B0E DUP6 DUP13 PUSH2 0x31AC JUMP JUMPDEST MSTORE PUSH2 0x2B19 DUP5 DUP12 PUSH2 0x31AC JUMP JUMPDEST POP PUSH2 0x2FD8 JUMP JUMPDEST SLOAD PUSH2 0x2B2A DUP3 DUP11 PUSH2 0x31AC JUMP JUMPDEST MSTORE ADD PUSH2 0x2A46 JUMP JUMPDEST PUSH4 0x4E487B71 PUSH1 0xE0 SHL DUP2 MSTORE PUSH1 0x32 PUSH1 0x4 MSTORE PUSH1 0x24 SWAP1 REVERT JUMPDEST CALLVALUE PUSH2 0x1BB JUMPI PUSH1 0x20 CALLDATASIZE PUSH1 0x3 NOT ADD SLT PUSH2 0x1BB JUMPI PUSH1 0x4 CALLDATALOAD PUSH1 0x1 PUSH1 0x1 PUSH1 0x40 SHL SUB DUP2 GT PUSH2 0x1BB JUMPI PUSH2 0x7B8 PUSH2 0x2B7A PUSH1 0x20 SWAP3 CALLDATASIZE SWAP1 PUSH1 0x4 ADD PUSH2 0x2C95 JUMP JUMPDEST PUSH2 0x3E48 JUMP JUMPDEST CALLVALUE PUSH2 0x1BB JUMPI PUSH1 0x20 CALLDATASIZE PUSH1 0x3 NOT ADD SLT PUSH2 0x1BB JUMPI PUSH1 0x4 CALLDATALOAD PUSH1 0x1 PUSH1 0x1 PUSH1 0x40 SHL SUB DUP2 GT PUSH2 0x1BB JUMPI PUSH2 0x2BB1 PUSH1 0x20 SWAP2 CALLDATASIZE SWAP1 PUSH1 0x4 ADD PUSH2 0x2C95 JUMP JUMPDEST PUSH1 0x40 MLOAD PUSH1 0xFF PUSH1 0x1 DUP4 MLOAD SWAP3 DUP6 DUP2 DUP2 DUP8 ADD SWAP6 PUSH2 0x2BCC DUP2 DUP4 DUP10 PUSH2 0x2CDC JUMP JUMPDEST DUP2 ADD PUSH1 0x7 DUP2 MSTORE SUB ADD SWAP1 KECCAK256 ADD SLOAD AND SWAP2 DUP3 PUSH2 0x2BEC JUMPI JUMPDEST POP POP PUSH1 0x40 MLOAD SWAP1 ISZERO ISZERO DUP2 MSTORE RETURN JUMPDEST PUSH1 0xFF SWAP3 POP DUP4 PUSH1 0x1 SWAP3 PUSH2 0x2C09 SWAP3 PUSH1 0x40 MLOAD SWAP4 DUP5 SWAP3 DUP4 SWAP3 MLOAD SWAP3 DUP4 SWAP2 PUSH2 0x2CDC JUMP JUMPDEST DUP2 ADD PUSH1 0x7 DUP2 MSTORE SUB ADD SWAP1 KECCAK256 ADD SLOAD PUSH1 0x8 SHR AND ISZERO DUP3 DUP1 PUSH2 0x2BE0 JUMP JUMPDEST PUSH1 0x80 DUP2 ADD SWAP1 DUP2 LT PUSH1 0x1 PUSH1 0x1 PUSH1 0x40 SHL SUB DUP3 GT OR PUSH2 0x19B8 JUMPI PUSH1 0x40 MSTORE JUMP JUMPDEST PUSH1 0x40 DUP2 ADD SWAP1 DUP2 LT PUSH1 0x1 PUSH1 0x1 PUSH1 0x40 SHL SUB DUP3 GT OR PUSH2 0x19B8 JUMPI PUSH1 0x40 MSTORE JUMP JUMPDEST PUSH1 0x1F SWAP1 SWAP2 ADD PUSH1 0x1F NOT AND DUP2 ADD SWAP1 PUSH1 0x1 PUSH1 0x1 PUSH1 0x40 SHL SUB DUP3 GT SWAP1 DUP3 LT OR PUSH2 0x19B8 JUMPI PUSH1 0x40 MSTORE JUMP JUMPDEST PUSH1 0x1 PUSH1 0x1 PUSH1 0x40 SHL SUB DUP2 GT PUSH2 0x19B8 JUMPI PUSH1 0x1F ADD PUSH1 0x1F NOT AND PUSH1 0x20 ADD SWAP1 JUMP JUMPDEST DUP2 PUSH1 0x1F DUP3 ADD SLT ISZERO PUSH2 0x1BB JUMPI DUP1 CALLDATALOAD SWAP1 PUSH2 0x2CAC DUP3 PUSH2 0x2C7A JUMP JUMPDEST SWAP3 PUSH2 0x2CBA PUSH1 0x40 MLOAD SWAP5 DUP6 PUSH2 0x2C57 JUMP JUMPDEST DUP3 DUP5 MSTORE PUSH1 0x20 DUP4 DUP4 ADD ADD GT PUSH2 0x1BB JUMPI DUP2 PUSH1 0x0 SWAP3 PUSH1 0x20 DUP1 SWAP4 ADD DUP4 DUP7 ADD CALLDATACOPY DUP4 ADD ADD MSTORE SWAP1 JUMP JUMPDEST PUSH1 0x0 JUMPDEST DUP4 DUP2 LT PUSH2 0x2CEF JUMPI POP POP PUSH1 0x0 SWAP2 ADD MSTORE JUMP JUMPDEST DUP2 DUP2 ADD MLOAD DUP4 DUP3 ADD MSTORE PUSH1 0x20 ADD PUSH2 0x2CDF JUMP JUMPDEST SWAP1 PUSH1 0x20 SWAP2 PUSH2 0x2D18 DUP2 MLOAD DUP1 SWAP3 DUP2 DUP6 MSTORE DUP6 DUP1 DUP7 ADD SWAP2 ADD PUSH2 0x2CDC JUMP JUMPDEST PUSH1 0x1F ADD PUSH1 0x1F NOT AND ADD ADD SWAP1 JUMP JUMPDEST SWAP1 DUP1 PUSH1 0x20 DUP4 MLOAD SWAP2 DUP3 DUP2 MSTORE ADD SWAP2 PUSH1 0x20 DUP1 DUP4 PUSH1 0x5 SHL DUP4 ADD ADD SWAP5 ADD SWAP3 PUSH1 0x0 SWAP2 JUMPDEST DUP4 DUP4 LT PUSH2 0x2D50 JUMPI POP POP POP POP POP SWAP1 JUMP JUMPDEST SWAP1 SWAP2 SWAP3 SWAP4 SWAP5 PUSH1 0x20 DUP1 PUSH2 0x2D6E PUSH1 0x1 SWAP4 PUSH1 0x1F NOT DUP7 DUP3 SUB ADD DUP8 MSTORE DUP10 MLOAD PUSH2 0x2CFF JUMP JUMPDEST SWAP8 ADD SWAP4 ADD SWAP4 ADD SWAP2 SWAP4 SWAP3 SWAP1 PUSH2 0x2D41 JUMP JUMPDEST SWAP1 PUSH1 0x20 DUP1 DUP4 MLOAD SWAP3 DUP4 DUP2 MSTORE ADD SWAP3 ADD SWAP1 PUSH1 0x0 JUMPDEST DUP2 DUP2 LT PUSH2 0x2D9B JUMPI POP POP POP SWAP1 JUMP JUMPDEST DUP3 MLOAD DUP5 MSTORE PUSH1 0x20 SWAP4 DUP5 ADD SWAP4 SWAP1 SWAP3 ADD SWAP2 PUSH1 0x1 ADD PUSH2 0x2D8E JUMP JUMPDEST PUSH1 0x1 PUSH1 0x1 PUSH1 0x40 SHL SUB DUP2 GT PUSH2 0x19B8 JUMPI PUSH1 0x5 SHL PUSH1 0x20 ADD SWAP1 JUMP JUMPDEST SWAP1 DUP1 PUSH1 0x1F DUP4 ADD SLT ISZERO PUSH2 0x1BB JUMPI DUP2 CALLDATALOAD PUSH2 0x2DDF DUP2 PUSH2 0x2DB1 JUMP JUMPDEST SWAP3 PUSH2 0x2DED PUSH1 0x40 MLOAD SWAP5 DUP6 PUSH2 0x2C57 JUMP JUMPDEST DUP2 DUP5 MSTORE PUSH1 0x20 DUP1 DUP6 ADD SWAP3 PUSH1 0x5 SHL DUP3 ADD ADD SWAP2 DUP4 DUP4 GT PUSH2 0x1BB JUMPI PUSH1 0x20 DUP3 ADD SWAP1 JUMPDEST DUP4 DUP3 LT PUSH2 0x2E19 JUMPI POP POP POP POP POP SWAP1 JUMP JUMPDEST DUP2 CALLDATALOAD PUSH1 0x1 PUSH1 0x1 PUSH1 0x40 SHL SUB DUP2 GT PUSH2 0x1BB JUMPI PUSH1 0x20 SWAP2 PUSH2 0x2E3B DUP8 DUP5 DUP1 SWAP5 DUP9 ADD ADD PUSH2 0x2C95 JUMP JUMPDEST DUP2 MSTORE ADD SWAP2 ADD SWAP1 PUSH2 0x2E0A JUMP JUMPDEST SWAP1 DUP1 PUSH1 0x1F DUP4 ADD SLT ISZERO PUSH2 0x1BB JUMPI DUP2 CALLDATALOAD PUSH2 0x2E5D DUP2 PUSH2 0x2DB1 JUMP JUMPDEST SWAP3 PUSH2 0x2E6B PUSH1 0x40 MLOAD SWAP5 DUP6 PUSH2 0x2C57 JUMP JUMPDEST DUP2 DUP5 MSTORE PUSH1 0x20 DUP1 DUP6 ADD SWAP3 PUSH1 0x5 SHL DUP3 ADD ADD SWAP3 DUP4 GT PUSH2 0x1BB JUMPI PUSH1 0x20 ADD SWAP1 JUMPDEST DUP3 DUP3 LT PUSH2 0x2E93 JUMPI POP POP POP SWAP1 JUMP JUMPDEST DUP2 CALLDATALOAD DUP2 MSTORE PUSH1 0x20 SWAP2 DUP3 ADD SWAP2 ADD PUSH2 0x2E86 JUMP JUMPDEST PUSH1 0x5 SLOAD DUP2 LT ISZERO PUSH2 0x2EBE JUMPI PUSH1 0x5 PUSH1 0x0 MSTORE PUSH1 0x20 PUSH1 0x0 KECCAK256 ADD SWAP1 PUSH1 0x0 SWAP1 JUMP JUMPDEST PUSH4 0x4E487B71 PUSH1 0xE0 SHL PUSH1 0x0 MSTORE PUSH1 0x32 PUSH1 0x4 MSTORE PUSH1 0x24 PUSH1 0x0 REVERT JUMPDEST SWAP1 PUSH1 0x1 DUP3 DUP2 SHR SWAP3 AND DUP1 ISZERO PUSH2 0x2F04 JUMPI JUMPDEST PUSH1 0x20 DUP4 LT EQ PUSH2 0x2EEE JUMPI JUMP JUMPDEST PUSH4 0x4E487B71 PUSH1 0xE0 SHL PUSH1 0x0 MSTORE PUSH1 0x22 PUSH1 0x4 MSTORE PUSH1 0x24 PUSH1 0x0 REVERT JUMPDEST SWAP2 PUSH1 0x7F AND SWAP2 PUSH2 0x2EE3 JUMP JUMPDEST SWAP1 PUSH1 0x40 MLOAD SWAP2 DUP3 PUSH1 0x0 DUP3 SLOAD SWAP3 PUSH2 0x2F22 DUP5 PUSH2 0x2ED4 JUMP JUMPDEST DUP1 DUP5 MSTORE SWAP4 PUSH1 0x1 DUP2 AND SWAP1 DUP2 ISZERO PUSH2 0x2F90 JUMPI POP PUSH1 0x1 EQ PUSH2 0x2F49 JUMPI JUMPDEST POP PUSH2 0x2F47 SWAP3 POP SUB DUP4 PUSH2 0x2C57 JUMP JUMPDEST JUMP JUMPDEST SWAP1 POP PUSH1 0x0 SWAP3 SWAP2 SWAP3 MSTORE PUSH1 0x20 PUSH1 0x0 KECCAK256 SWAP1 PUSH1 0x0 SWAP2 JUMPDEST DUP2 DUP4 LT PUSH2 0x2F74 JUMPI POP POP SWAP1 PUSH1 0x20 PUSH2 0x2F47 SWAP3 DUP3 ADD ADD CODESIZE PUSH2 0x2F3A JUMP JUMPDEST PUSH1 0x20 SWAP2 SWAP4 POP DUP1 PUSH1 0x1 SWAP2 SLOAD DUP4 DUP6 DUP10 ADD ADD MSTORE ADD SWAP2 ADD SWAP1 SWAP2 DUP5 SWAP3 PUSH2 0x2F5B JUMP JUMPDEST SWAP1 POP PUSH1 0x20 SWAP3 POP PUSH2 0x2F47 SWAP5 SWAP2 POP PUSH1 0xFF NOT AND DUP3 DUP5 ADD MSTORE ISZERO ISZERO PUSH1 0x5 SHL DUP3 ADD ADD CODESIZE PUSH2 0x2F3A JUMP JUMPDEST PUSH1 0x20 PUSH2 0x2FCB SWAP2 DUP2 PUSH1 0x40 MLOAD SWAP4 DUP3 DUP6 DUP1 SWAP5 MLOAD SWAP4 DUP5 SWAP3 ADD PUSH2 0x2CDC JUMP JUMPDEST DUP2 ADD PUSH1 0x7 DUP2 MSTORE SUB ADD SWAP1 KECCAK256 SWAP1 JUMP JUMPDEST PUSH1 0x20 SWAP1 PUSH2 0x2FF2 SWAP3 DUP3 PUSH1 0x40 MLOAD SWAP5 DUP4 DUP7 DUP1 SWAP6 MLOAD SWAP4 DUP5 SWAP3 ADD PUSH2 0x2CDC JUMP JUMPDEST DUP3 ADD SWAP1 DUP2 MSTORE SUB ADD SWAP1 KECCAK256 SWAP1 JUMP JUMPDEST DUP1 SLOAD DUP3 LT ISZERO PUSH2 0x2EBE JUMPI PUSH1 0x0 MSTORE PUSH1 0x20 PUSH1 0x0 KECCAK256 SWAP1 PUSH1 0x2 SHL ADD SWAP1 PUSH1 0x0 SWAP1 JUMP JUMPDEST SWAP1 DUP1 PUSH1 0x1F DUP4 ADD SLT ISZERO PUSH2 0x1BB JUMPI DUP2 CALLDATALOAD SWAP1 PUSH2 0x3032 DUP3 PUSH2 0x2DB1 JUMP JUMPDEST SWAP3 PUSH2 0x3040 PUSH1 0x40 MLOAD SWAP5 DUP6 PUSH2 0x2C57 JUMP JUMPDEST DUP3 DUP5 MSTORE PUSH1 0x20 DUP1 DUP6 ADD SWAP4 PUSH1 0x5 SHL DUP3 ADD ADD SWAP2 DUP3 GT PUSH2 0x1BB JUMPI PUSH1 0x20 ADD SWAP2 JUMPDEST DUP2 DUP4 LT PUSH2 0x3068 JUMPI POP POP POP SWAP1 JUMP JUMPDEST DUP3 CALLDATALOAD PUSH1 0x1 PUSH1 0x1 PUSH1 0xA0 SHL SUB DUP2 AND DUP2 SUB PUSH2 0x1BB JUMPI DUP2 MSTORE PUSH1 0x20 SWAP3 DUP4 ADD SWAP3 ADD PUSH2 0x305B JUMP JUMPDEST SWAP1 DUP1 PUSH1 0x1F DUP4 ADD SLT ISZERO PUSH2 0x1BB JUMPI DUP2 CALLDATALOAD SWAP1 PUSH2 0x30A0 DUP3 PUSH2 0x2DB1 JUMP JUMPDEST SWAP3 PUSH2 0x30AE PUSH1 0x40 MLOAD SWAP5 DUP6 PUSH2 0x2C57 JUMP JUMPDEST DUP3 DUP5 MSTORE PUSH1 0x20 DUP1 DUP6 ADD SWAP4 PUSH1 0x5 SHL DUP3 ADD ADD SWAP2 DUP3 GT PUSH2 0x1BB JUMPI PUSH1 0x20 ADD SWAP2 JUMPDEST DUP2 DUP4 LT PUSH2 0x30D6 JUMPI POP POP POP SWAP1 JUMP JUMPDEST DUP3 CALLDATALOAD DUP1 ISZERO ISZERO DUP2 SUB PUSH2 0x1BB JUMPI DUP2 MSTORE PUSH1 0x20 SWAP3 DUP4 ADD SWAP3 ADD PUSH2 0x30C9 JUMP JUMPDEST PUSH1 0x40 MLOAD SWAP1 PUSH2 0x30FE PUSH1 0x20 DUP4 PUSH2 0x2C57 JUMP JUMPDEST PUSH1 0x0 DUP1 DUP4 MSTORE DUP3 DUP2 JUMPDEST DUP3 DUP2 LT PUSH2 0x3112 JUMPI POP POP POP JUMP JUMPDEST DUP1 PUSH1 0x60 PUSH1 0x20 DUP1 SWAP4 DUP6 ADD ADD MSTORE ADD PUSH2 0x3106 JUMP JUMPDEST SWAP1 PUSH2 0x312D DUP3 PUSH2 0x2DB1 JUMP JUMPDEST PUSH2 0x313A PUSH1 0x40 MLOAD SWAP2 DUP3 PUSH2 0x2C57 JUMP JUMPDEST DUP3 DUP2 MSTORE DUP1 SWAP3 PUSH2 0x314B PUSH1 0x1F NOT SWAP2 PUSH2 0x2DB1 JUMP JUMPDEST ADD SWAP1 PUSH1 0x0 JUMPDEST DUP3 DUP2 LT PUSH2 0x315C JUMPI POP POP POP JUMP JUMPDEST DUP1 PUSH1 0x60 PUSH1 0x20 DUP1 SWAP4 DUP6 ADD ADD MSTORE ADD PUSH2 0x3150 JUMP JUMPDEST SWAP1 PUSH2 0x3177 DUP3 PUSH2 0x2DB1 JUMP JUMPDEST PUSH2 0x3184 PUSH1 0x40 MLOAD SWAP2 DUP3 PUSH2 0x2C57 JUMP JUMPDEST DUP3 DUP2 MSTORE DUP1 SWAP3 PUSH2 0x3195 PUSH1 0x1F NOT SWAP2 PUSH2 0x2DB1 JUMP JUMPDEST ADD SWAP1 PUSH1 0x20 CALLDATASIZE SWAP2 ADD CALLDATACOPY JUMP JUMPDEST DUP1 MLOAD ISZERO PUSH2 0x2EBE JUMPI PUSH1 0x20 ADD SWAP1 JUMP JUMPDEST DUP1 MLOAD DUP3 LT ISZERO PUSH2 0x2EBE JUMPI PUSH1 0x20 SWAP2 PUSH1 0x5 SHL ADD ADD SWAP1 JUMP JUMPDEST SWAP2 SWAP1 DUP3 SUB SWAP2 DUP3 GT PUSH2 0x31CD JUMPI JUMP JUMPDEST PUSH4 0x4E487B71 PUSH1 0xE0 SHL PUSH1 0x0 MSTORE PUSH1 0x11 PUSH1 0x4 MSTORE PUSH1 0x24 PUSH1 0x0 REVERT JUMPDEST SWAP1 DUP2 SLOAD PUSH2 0x31EF DUP2 PUSH2 0x2DB1 JUMP JUMPDEST SWAP3 PUSH2 0x31FD PUSH1 0x40 MLOAD SWAP5 DUP6 PUSH2 0x2C57 JUMP JUMPDEST DUP2 DUP5 MSTORE PUSH1 0x20 DUP5 ADD SWAP1 PUSH1 0x0 MSTORE PUSH1 0x20 PUSH1 0x0 KECCAK256 PUSH1 0x0 SWAP2 JUMPDEST DUP4 DUP4 LT PUSH2 0x321E JUMPI POP POP POP POP JUMP JUMPDEST PUSH1 0x1 PUSH1 0x20 DUP2 SWAP3 PUSH2 0x322D DUP6 PUSH2 0x2F0E JUMP JUMPDEST DUP2 MSTORE ADD SWAP3 ADD SWAP3 ADD SWAP2 SWAP1 PUSH2 0x3211 JUMP JUMPDEST ISZERO PUSH2 0x3242 JUMPI JUMP JUMPDEST PUSH1 0x40 MLOAD PUSH3 0x461BCD PUSH1 0xE5 SHL DUP2 MSTORE PUSH1 0x20 PUSH1 0x4 DUP3 ADD MSTORE PUSH1 0x1A PUSH1 0x24 DUP3 ADD MSTORE PUSH26 0x13DB9B1E481B585A5B881C1C9BDA9958DD0818D85B8818D85B1B PUSH1 0x32 SHL PUSH1 0x44 DUP3 ADD MSTORE PUSH1 0x64 SWAP1 REVERT JUMPDEST DUP2 DUP2 LT PUSH2 0x328F JUMPI POP POP JUMP JUMPDEST PUSH1 0x0 DUP2 SSTORE PUSH1 0x1 ADD PUSH2 0x3284 JUMP JUMPDEST DUP2 PUSH1 0x1 SHL SWAP2 PUSH1 0x0 NOT SWAP1 PUSH1 0x3 SHL SHR NOT AND OR SWAP1 JUMP JUMPDEST SWAP3 SWAP2 SWAP1 PUSH2 0x32C5 PUSH1 0x20 SWAP2 PUSH1 0x40 DUP7 MSTORE PUSH1 0x40 DUP7 ADD SWAP1 PUSH2 0x2CFF JUMP JUMPDEST SWAP4 ADD MSTORE JUMP JUMPDEST ISZERO PUSH2 0x32D1 JUMPI JUMP JUMPDEST PUSH1 0x40 MLOAD PUSH3 0x461BCD PUSH1 0xE5 SHL DUP2 MSTORE PUSH1 0x20 PUSH1 0x4 DUP3 ADD MSTORE PUSH1 0x12 PUSH1 0x24 DUP3 ADD MSTORE PUSH18 0x53657373696F6E206E6F7420616374697665 PUSH1 0x70 SHL PUSH1 0x44 DUP3 ADD MSTORE PUSH1 0x64 SWAP1 REVERT JUMPDEST ISZERO PUSH2 0x3312 JUMPI JUMP JUMPDEST PUSH1 0x40 MLOAD PUSH3 0x461BCD PUSH1 0xE5 SHL DUP2 MSTORE PUSH1 0x20 PUSH1 0x4 DUP3 ADD MSTORE PUSH1 0x11 PUSH1 0x24 DUP3 ADD MSTORE PUSH17 0x105B1C9958591E48199A5B985B1A5E9959 PUSH1 0x7A SHL PUSH1 0x44 DUP3 ADD MSTORE PUSH1 0x64 SWAP1 REVERT JUMPDEST SWAP1 SWAP2 PUSH2 0x3362 PUSH2 0x3370 SWAP4 PUSH1 0x40 DUP5 MSTORE PUSH1 0x40 DUP5 ADD SWAP1 PUSH2 0x2CFF JUMP JUMPDEST SWAP2 PUSH1 0x20 DUP2 DUP5 SUB SWAP2 ADD MSTORE PUSH2 0x2CFF JUMP JUMPDEST SWAP1 JUMP JUMPDEST PUSH1 0x0 NOT DUP2 EQ PUSH2 0x31CD JUMPI PUSH1 0x1 ADD SWAP1 JUMP JUMPDEST PUSH1 0x9 SLOAD SWAP1 PUSH1 0x1 JUMPDEST DUP3 DUP2 GT ISZERO PUSH2 0x3399 JUMPI POP POP POP PUSH1 0x0 SWAP1 JUMP JUMPDEST DUP1 PUSH1 0x0 MSTORE PUSH1 0x8 PUSH1 0x20 MSTORE PUSH2 0x33B2 PUSH1 0x1 PUSH1 0x40 PUSH1 0x0 KECCAK256 ADD PUSH2 0x31E3 JUMP JUMPDEST SWAP3 PUSH1 0x0 JUMPDEST DUP5 MLOAD DUP2 LT ISZERO PUSH2 0x3406 JUMPI PUSH2 0x33C9 DUP2 DUP7 PUSH2 0x31AC JUMP JUMPDEST MLOAD PUSH1 0x20 DUP2 MLOAD SWAP2 ADD KECCAK256 DUP5 MLOAD PUSH1 0x20 DUP7 ADD KECCAK256 EQ PUSH2 0x33E5 JUMPI PUSH1 0x1 ADD PUSH2 0x33B6 JUMP JUMPDEST POP POP PUSH2 0x3402 SWAP3 POP PUSH1 0x0 MSTORE PUSH1 0x8 PUSH1 0x20 MSTORE PUSH1 0x6 PUSH1 0x40 PUSH1 0x0 KECCAK256 ADD SWAP1 PUSH2 0x2FD8 JUMP JUMPDEST SLOAD SWAP1 JUMP JUMPDEST POP SWAP3 POP PUSH2 0x3412 SWAP1 PUSH2 0x3373 JUMP JUMPDEST PUSH2 0x3389 JUMP JUMPDEST SWAP2 SWAP1 DUP3 ADD DUP1 SWAP3 GT PUSH2 0x31CD JUMPI JUMP JUMPDEST ISZERO PUSH2 0x342B JUMPI JUMP JUMPDEST PUSH1 0x40 MLOAD PUSH3 0x461BCD PUSH1 0xE5 SHL DUP2 MSTORE PUSH1 0x20 PUSH1 0x4 DUP3 ADD MSTORE PUSH1 0x19 PUSH1 0x24 DUP3 ADD MSTORE PUSH25 0x566F74696E672073657373696F6E206E6F7420616374697665 PUSH1 0x38 SHL PUSH1 0x44 DUP3 ADD MSTORE PUSH1 0x64 SWAP1 REVERT JUMPDEST ISZERO PUSH2 0x3473 JUMPI JUMP JUMPDEST PUSH1 0x64 PUSH1 0x40 MLOAD PUSH3 0x461BCD PUSH1 0xE5 SHL DUP2 MSTORE PUSH1 0x20 PUSH1 0x4 DUP3 ADD MSTORE PUSH1 0x20 PUSH1 0x24 DUP3 ADD MSTORE PUSH32 0x566F74696E672073657373696F6E20616C72656164792066696E616C697A6564 PUSH1 0x44 DUP3 ADD MSTORE REVERT JUMPDEST ISZERO PUSH2 0x34BE JUMPI JUMP JUMPDEST PUSH1 0x40 MLOAD PUSH3 0x461BCD PUSH1 0xE5 SHL DUP2 MSTORE PUSH1 0x20 PUSH1 0x4 DUP3 ADD MSTORE PUSH1 0x1C PUSH1 0x24 DUP3 ADD MSTORE PUSH28 0x416C726561647920766F746564206F6E20746869732073616D706C65 PUSH1 0x20 SHL PUSH1 0x44 DUP3 ADD MSTORE PUSH1 0x64 SWAP1 REVERT JUMPDEST PUSH1 0x40 MLOAD SWAP1 PUSH2 0x3511 PUSH1 0x40 DUP4 PUSH2 0x2C57 JUMP JUMPDEST PUSH1 0xF DUP3 MSTORE PUSH15 0x151A5B595BDD5D081C995858DA1959 PUSH1 0x8A SHL PUSH1 0x20 DUP4 ADD MSTORE JUMP JUMPDEST DUP1 SLOAD PUSH1 0x1 PUSH1 0x40 SHL DUP2 LT ISZERO PUSH2 0x19B8 JUMPI PUSH2 0x354C SWAP2 PUSH1 0x1 DUP3 ADD DUP2 SSTORE PUSH2 0x2FFE JUMP JUMPDEST SWAP2 SWAP1 SWAP2 PUSH2 0x3691 JUMPI DUP1 MLOAD DUP3 SLOAD PUSH1 0x1 PUSH1 0x1 PUSH1 0xA0 SHL SUB NOT AND PUSH1 0x1 PUSH1 0x1 PUSH1 0xA0 SHL SUB SWAP2 SWAP1 SWAP2 AND OR DUP3 SSTORE PUSH1 0x20 DUP2 ADD MLOAD DUP1 MLOAD PUSH1 0x1 DUP5 ADD SWAP2 PUSH1 0x1 PUSH1 0x1 PUSH1 0x40 SHL SUB DUP3 GT PUSH2 0x19B8 JUMPI PUSH2 0x3594 DUP4 SLOAD PUSH2 0x2ED4 JUMP JUMPDEST PUSH1 0x1F DUP2 GT PUSH2 0x365F JUMPI JUMPDEST POP PUSH1 0x20 SWAP1 PUSH1 0x1F DUP4 GT PUSH1 0x1 EQ PUSH2 0x35F3 JUMPI DUP3 PUSH1 0x3 SWAP6 SWAP4 PUSH1 0x60 SWAP6 SWAP4 PUSH2 0x35C7 SWAP4 PUSH1 0x0 SWAP3 PUSH2 0x35E8 JUMPI POP POP PUSH2 0x329B JUMP JUMPDEST SWAP1 SSTORE JUMPDEST PUSH1 0x2 DUP5 ADD PUSH1 0x40 DUP3 ADD MLOAD ISZERO ISZERO PUSH1 0xFF DUP1 NOT DUP4 SLOAD AND SWAP2 AND OR SWAP1 SSTORE ADD MLOAD SWAP2 ADD SSTORE JUMP JUMPDEST ADD MLOAD SWAP1 POP CODESIZE DUP1 PUSH2 0x23AE JUMP JUMPDEST SWAP1 PUSH1 0x1F NOT DUP4 AND SWAP2 DUP5 PUSH1 0x0 MSTORE DUP2 PUSH1 0x0 KECCAK256 SWAP3 PUSH1 0x0 JUMPDEST DUP2 DUP2 LT PUSH2 0x3647 JUMPI POP SWAP3 PUSH1 0x1 SWAP3 DUP6 SWAP3 PUSH1 0x3 SWAP9 SWAP7 PUSH1 0x60 SWAP9 SWAP7 LT PUSH2 0x362F JUMPI JUMPDEST POP POP POP DUP2 SHL ADD SWAP1 SSTORE PUSH2 0x35CA JUMP JUMPDEST ADD MLOAD PUSH1 0x0 NOT DUP4 DUP10 SHL PUSH1 0xF8 AND SHR NOT AND SWAP1 SSTORE CODESIZE DUP1 DUP1 PUSH2 0x3622 JUMP JUMPDEST SWAP3 SWAP4 PUSH1 0x20 PUSH1 0x1 DUP2 SWAP3 DUP8 DUP7 ADD MLOAD DUP2 SSTORE ADD SWAP6 ADD SWAP4 ADD PUSH2 0x3606 JUMP JUMPDEST PUSH2 0x368B SWAP1 DUP5 PUSH1 0x0 MSTORE PUSH1 0x20 PUSH1 0x0 KECCAK256 PUSH1 0x1F DUP6 ADD PUSH1 0x5 SHR DUP2 ADD SWAP2 PUSH1 0x20 DUP7 LT PUSH2 0x2491 JUMPI PUSH1 0x1F ADD PUSH1 0x5 SHR ADD SWAP1 PUSH2 0x3284 JUMP JUMPDEST CODESIZE PUSH2 0x359D JUMP JUMPDEST PUSH4 0x4E487B71 PUSH1 0xE0 SHL PUSH1 0x0 MSTORE PUSH1 0x0 PUSH1 0x4 MSTORE PUSH1 0x24 PUSH1 0x0 REVERT JUMPDEST PUSH1 0x40 MLOAD SWAP1 PUSH2 0x36B6 PUSH1 0x40 DUP4 PUSH2 0x2C57 JUMP JUMPDEST PUSH1 0x1A DUP3 MSTORE PUSH26 0x82D8D840ECDEE8CAE4E640C6DEDAE0D8CAE8CAC840C4C2E8C6D PUSH1 0x33 SHL PUSH1 0x20 DUP4 ADD MSTORE JUMP JUMPDEST PUSH1 0x40 MLOAD SWAP1 PUSH2 0x36EE PUSH1 0x40 DUP4 PUSH2 0x2C57 JUMP JUMPDEST PUSH1 0x11 DUP3 MSTORE PUSH17 0x10DBDB9CD95B9CDD5CC81C995858DA1959 PUSH1 0x7A SHL PUSH1 0x20 DUP4 ADD MSTORE JUMP JUMPDEST ISZERO PUSH2 0x3715 JUMPI JUMP JUMPDEST PUSH1 0x40 MLOAD PUSH3 0x461BCD PUSH1 0xE5 SHL DUP2 MSTORE PUSH1 0x20 PUSH1 0x4 DUP3 ADD MSTORE PUSH1 0xF PUSH1 0x24 DUP3 ADD MSTORE PUSH15 0x98CADCCEE8D040DAD2E6DAC2E8C6D PUSH1 0x8B SHL PUSH1 0x44 DUP3 ADD MSTORE PUSH1 0x64 SWAP1 REVERT JUMPDEST MLOAD SWAP1 DUP2 ISZERO ISZERO DUP3 SUB PUSH2 0x1BB JUMPI JUMP JUMPDEST SWAP3 SWAP4 SWAP1 SWAP5 PUSH2 0x376A DUP5 MLOAD DUP8 MLOAD EQ PUSH2 0x370E JUMP JUMPDEST PUSH1 0x0 SWAP4 PUSH1 0x0 JUMPDEST DUP2 MLOAD DUP2 LT ISZERO PUSH2 0x37A5 JUMPI PUSH2 0x3783 DUP2 DUP10 PUSH2 0x31AC JUMP JUMPDEST MLOAD PUSH2 0x3791 JUMPI JUMPDEST PUSH1 0x1 ADD PUSH2 0x3770 JUMP JUMPDEST SWAP5 PUSH2 0x379D PUSH1 0x1 SWAP2 PUSH2 0x3373 JUMP JUMPDEST SWAP6 SWAP1 POP PUSH2 0x3789 JUMP JUMPDEST POP SWAP2 SWAP4 SWAP5 SWAP1 SWAP3 SWAP5 DUP1 ISZERO PUSH2 0x3A53 JUMPI PUSH2 0x37BB SWAP1 PUSH2 0x3123 JUMP JUMPDEST SWAP4 PUSH1 0x0 SWAP4 PUSH1 0x0 JUMPDEST DUP5 MLOAD DUP2 LT ISZERO PUSH2 0x3818 JUMPI PUSH2 0x37D5 DUP2 DUP11 PUSH2 0x31AC JUMP JUMPDEST MLOAD PUSH2 0x37E3 JUMPI JUMPDEST PUSH1 0x1 ADD PUSH2 0x37C2 JUMP JUMPDEST SWAP5 PUSH2 0x3810 PUSH1 0x1 SWAP2 PUSH2 0x37F4 DUP9 DUP9 PUSH2 0x31AC JUMP JUMPDEST MLOAD PUSH2 0x37FF DUP3 DUP12 PUSH2 0x31AC JUMP JUMPDEST MSTORE PUSH2 0x380A DUP2 DUP11 PUSH2 0x31AC JUMP JUMPDEST POP PUSH2 0x3373 JUMP JUMPDEST SWAP6 SWAP1 POP PUSH2 0x37DB JUMP JUMPDEST POP SWAP6 SWAP3 POP SWAP4 SWAP3 POP SWAP5 POP PUSH2 0x382B DUP3 MLOAD PUSH2 0x3123 JUMP JUMPDEST SWAP5 DUP4 PUSH1 0x0 MSTORE PUSH1 0x8 PUSH1 0x20 MSTORE PUSH1 0x40 PUSH1 0x0 KECCAK256 SWAP4 PUSH1 0x5 PUSH1 0x0 SWAP6 ADD SWAP5 JUMPDEST DUP5 MLOAD DUP2 LT ISZERO PUSH2 0x38F3 JUMPI DUP1 PUSH2 0x3859 PUSH1 0x1 SWAP3 DUP8 PUSH2 0x31AC JUMP JUMPDEST MLOAD PUSH2 0x3867 PUSH2 0x2AFF DUP10 DUP4 PUSH2 0x2FD8 JUMP JUMPDEST DUP1 MLOAD SWAP1 SWAP2 SWAP1 ISZERO PUSH2 0x388F JUMPI POP PUSH2 0x387C DUP3 DUP12 PUSH2 0x31AC JUMP JUMPDEST MSTORE PUSH2 0x3887 DUP2 DUP11 PUSH2 0x31AC JUMP JUMPDEST POP JUMPDEST ADD PUSH2 0x3843 JUMP JUMPDEST SWAP1 POP PUSH2 0x38D8 PUSH1 0x30 PUSH1 0x40 MLOAD DUP1 SWAP4 PUSH16 0x29B0B6B83632903230BA30903337B91 PUSH1 0x85 SHL PUSH1 0x20 DUP4 ADD MSTORE PUSH2 0x38C7 DUP2 MLOAD DUP1 SWAP3 PUSH1 0x20 DUP7 DUP7 ADD SWAP2 ADD PUSH2 0x2CDC JUMP JUMPDEST DUP2 ADD SUB ADD PUSH1 0x1F NOT DUP2 ADD DUP4 MSTORE DUP3 PUSH2 0x2C57 JUMP JUMPDEST PUSH2 0x38E2 DUP3 DUP12 PUSH2 0x31AC JUMP JUMPDEST MSTORE PUSH2 0x38ED DUP2 DUP11 PUSH2 0x31AC JUMP JUMPDEST POP PUSH2 0x3889 JUMP JUMPDEST POP SWAP3 SWAP1 SWAP4 POP SWAP4 SWAP1 SWAP4 PUSH1 0x0 SWAP4 DUP2 MLOAD PUSH2 0x390D JUMPI JUMPDEST POP SWAP5 SWAP4 SWAP3 SWAP2 SWAP1 JUMP JUMPDEST PUSH2 0x393D DUP6 PUSH2 0x391A DUP5 PUSH2 0x319F JUMP JUMPDEST MLOAD PUSH1 0x40 MLOAD DUP1 SWAP4 DUP2 SWAP3 PUSH4 0x79C4AB15 PUSH1 0xE0 SHL DUP4 MSTORE PUSH1 0x20 PUSH1 0x4 DUP5 ADD MSTORE PUSH1 0x24 DUP4 ADD SWAP1 PUSH2 0x2CFF JUMP JUMPDEST SUB DUP2 ADDRESS GAS STATICCALL SWAP1 DUP2 ISZERO PUSH2 0x3A48 JUMPI DUP7 SWAP2 DUP8 SWAP2 DUP9 SWAP2 PUSH2 0x399F JUMPI JUMPDEST POP DUP2 PUSH2 0x3996 JUMPI JUMPDEST POP PUSH2 0x3967 JUMPI JUMPDEST POP PUSH2 0x3905 JUMP JUMPDEST PUSH2 0x3974 SWAP1 SWAP6 SWAP3 SWAP6 TIMESTAMP PUSH2 0x31C0 JUMP JUMPDEST SWAP1 DUP1 DUP3 LT PUSH2 0x3987 JUMPI POP POP JUMPDEST SWAP3 CODESIZE DUP1 PUSH2 0x3961 JUMP JUMPDEST PUSH2 0x3991 SWAP3 POP PUSH2 0x31C0 JUMP JUMPDEST PUSH2 0x397F JUMP JUMPDEST SWAP1 POP ISZERO CODESIZE PUSH2 0x395B JUMP JUMPDEST SWAP3 POP POP POP RETURNDATASIZE DUP1 DUP8 DUP4 RETURNDATACOPY PUSH2 0x39B2 DUP2 DUP4 PUSH2 0x2C57 JUMP JUMPDEST DUP2 ADD SWAP1 PUSH1 0x80 DUP2 DUP4 SUB SLT PUSH2 0x3A44 JUMPI DUP1 MLOAD PUSH2 0x39CD PUSH1 0x20 DUP4 ADD PUSH2 0x374C JUMP JUMPDEST SWAP3 PUSH2 0x39DA PUSH1 0x40 DUP5 ADD PUSH2 0x374C JUMP JUMPDEST PUSH1 0x60 DUP5 ADD MLOAD SWAP1 SWAP4 PUSH1 0x1 PUSH1 0x1 PUSH1 0x40 SHL SUB DUP3 GT PUSH2 0x3A3C JUMPI ADD DUP2 PUSH1 0x1F DUP3 ADD SLT ISZERO PUSH2 0x3A40 JUMPI DUP1 MLOAD SWAP2 PUSH2 0x3A07 DUP4 PUSH2 0x2C7A JUMP JUMPDEST SWAP1 PUSH2 0x3A15 PUSH1 0x40 MLOAD SWAP3 DUP4 PUSH2 0x2C57 JUMP JUMPDEST DUP4 DUP3 MSTORE PUSH1 0x20 DUP5 DUP5 ADD ADD GT PUSH2 0x3A3C JUMPI SWAP1 PUSH1 0x20 DUP1 PUSH2 0x3A34 SWAP5 SWAP4 ADD SWAP2 ADD PUSH2 0x2CDC JUMP JUMPDEST SWAP2 SWAP1 CODESIZE PUSH2 0x3954 JUMP JUMPDEST DUP11 DUP1 REVERT JUMPDEST DUP10 DUP1 REVERT JUMPDEST DUP7 DUP1 REVERT JUMPDEST PUSH1 0x40 MLOAD RETURNDATASIZE DUP9 DUP3 RETURNDATACOPY RETURNDATASIZE SWAP1 REVERT JUMPDEST POP POP POP SWAP2 POP SWAP2 POP PUSH2 0x3A62 PUSH2 0x30EF JUMP JUMPDEST SWAP1 PUSH2 0x3A6B PUSH2 0x30EF JUMP JUMPDEST SWAP3 PUSH2 0x3A74 PUSH2 0x30EF JUMP JUMPDEST SWAP3 SWAP4 SWAP3 SWAP2 PUSH1 0x0 SWAP2 SWAP1 JUMP JUMPDEST PUSH1 0x40 MLOAD DUP2 MLOAD SWAP1 PUSH1 0x20 DUP2 DUP2 DUP6 ADD SWAP4 PUSH2 0x3A96 DUP2 DUP4 DUP8 PUSH2 0x2CDC JUMP JUMPDEST DUP2 ADD PUSH1 0x6 DUP2 MSTORE SUB ADD SWAP1 KECCAK256 SWAP2 DUP3 SLOAD PUSH2 0x3AAC DUP2 PUSH2 0x2DB1 JUMP JUMPDEST SWAP4 PUSH2 0x3ABA PUSH1 0x40 MLOAD SWAP6 DUP7 PUSH2 0x2C57 JUMP JUMPDEST DUP2 DUP6 MSTORE PUSH1 0x20 DUP6 ADD SWAP1 PUSH1 0x0 MSTORE PUSH1 0x20 PUSH1 0x0 KECCAK256 PUSH1 0x0 SWAP2 JUMPDEST DUP4 DUP4 LT PUSH2 0x3C7E JUMPI POP POP POP POP PUSH2 0x3AF1 SWAP2 PUSH1 0x20 SWAP2 PUSH1 0x40 MLOAD SWAP4 DUP5 SWAP3 DUP4 SWAP3 MLOAD SWAP3 DUP4 SWAP2 PUSH2 0x2CDC JUMP JUMPDEST DUP2 ADD PUSH1 0x7 DUP2 MSTORE SUB ADD SWAP1 KECCAK256 SWAP1 DUP1 MLOAD ISZERO PUSH2 0x3C3D JUMPI PUSH2 0x3B0D DUP2 MLOAD PUSH2 0x3123 JUMP JUMPDEST SWAP1 PUSH1 0x0 SWAP4 DUP5 JUMPDEST DUP3 MLOAD DUP2 LT ISZERO PUSH2 0x3B9F JUMPI PUSH1 0x20 PUSH2 0x3B28 DUP3 DUP6 PUSH2 0x31AC JUMP JUMPDEST MLOAD ADD MLOAD PUSH1 0x0 PUSH1 0x20 DUP3 ADD DUP2 JUMPDEST DUP10 DUP2 LT PUSH2 0x3B70 JUMPI JUMPDEST POP POP ISZERO PUSH2 0x3B4C JUMPI JUMPDEST POP PUSH1 0x1 ADD PUSH2 0x3B13 JUMP JUMPDEST DUP7 PUSH2 0x3B69 SWAP2 PUSH2 0x3B5E PUSH1 0x1 SWAP5 SWAP10 DUP9 PUSH2 0x31AC JUMP JUMPDEST MSTORE PUSH2 0x380A DUP2 DUP8 PUSH2 0x31AC JUMP JUMPDEST SWAP6 SWAP1 PUSH2 0x3B43 JUMP JUMPDEST PUSH2 0x3B7A DUP2 DUP10 PUSH2 0x31AC JUMP JUMPDEST MLOAD PUSH1 0x20 DUP2 MLOAD SWAP2 ADD KECCAK256 DUP5 MLOAD DUP4 KECCAK256 EQ PUSH2 0x3B93 JUMPI PUSH1 0x1 ADD PUSH2 0x3B33 JUMP JUMPDEST POP POP POP PUSH1 0x1 CODESIZE DUP1 PUSH2 0x3B3B JUMP JUMPDEST POP SWAP2 SWAP3 SWAP4 SWAP1 POP PUSH2 0x3BAE DUP2 PUSH2 0x3123 JUMP JUMPDEST SWAP1 PUSH2 0x3BB8 DUP2 PUSH2 0x316D JUMP JUMPDEST SWAP5 PUSH2 0x3BC2 DUP3 PUSH2 0x316D JUMP JUMPDEST SWAP5 PUSH1 0x7 DUP3 ADD SWAP2 PUSH1 0x6 ADD PUSH1 0x0 JUMPDEST DUP5 DUP2 LT PUSH2 0x3BDF JUMPI POP POP POP POP POP SWAP3 SWAP2 SWAP1 JUMP JUMPDEST DUP1 PUSH2 0x3BEC PUSH1 0x1 SWAP3 DUP6 PUSH2 0x31AC JUMP JUMPDEST MLOAD PUSH2 0x3BF7 DUP3 DUP10 PUSH2 0x31AC JUMP JUMPDEST MSTORE PUSH2 0x3C02 DUP2 DUP9 PUSH2 0x31AC JUMP JUMPDEST POP PUSH2 0x3C11 DUP4 PUSH2 0x2361 DUP4 DUP8 PUSH2 0x31AC JUMP JUMPDEST SLOAD PUSH2 0x3C1C DUP3 DUP13 PUSH2 0x31AC JUMP JUMPDEST MSTORE PUSH2 0x3C2B DUP6 PUSH2 0x2361 DUP4 DUP8 PUSH2 0x31AC JUMP JUMPDEST SLOAD PUSH2 0x3C36 DUP3 DUP12 PUSH2 0x31AC JUMP JUMPDEST MSTORE ADD PUSH2 0x3BCE JUMP JUMPDEST POP POP PUSH2 0x3C47 PUSH2 0x30EF JUMP JUMPDEST PUSH1 0x40 MLOAD SWAP2 PUSH1 0x20 SWAP2 PUSH2 0x3C58 DUP4 DUP6 PUSH2 0x2C57 JUMP JUMPDEST PUSH1 0x0 DUP5 MSTORE PUSH1 0x0 CALLDATASIZE DUP2 CALLDATACOPY PUSH1 0x40 MLOAD SWAP3 PUSH2 0x3C6F DUP2 DUP6 PUSH2 0x2C57 JUMP JUMPDEST PUSH1 0x0 DUP5 MSTORE POP PUSH1 0x0 CALLDATASIZE DUP2 CALLDATACOPY SWAP3 SWAP2 SWAP1 JUMP JUMPDEST PUSH1 0x4 PUSH1 0x20 PUSH1 0x1 SWAP3 PUSH1 0x40 MLOAD PUSH2 0x3C91 DUP2 PUSH2 0x2C21 JUMP JUMPDEST DUP5 DUP1 PUSH1 0xA0 SHL SUB DUP7 SLOAD AND DUP2 MSTORE PUSH2 0x3CA7 DUP6 DUP8 ADD PUSH2 0x2F0E JUMP JUMPDEST DUP4 DUP3 ADD MSTORE PUSH1 0xFF PUSH1 0x2 DUP8 ADD SLOAD AND ISZERO ISZERO PUSH1 0x40 DUP3 ADD MSTORE PUSH1 0x3 DUP7 ADD SLOAD PUSH1 0x60 DUP3 ADD MSTORE DUP2 MSTORE ADD SWAP3 ADD SWAP3 ADD SWAP2 SWAP1 PUSH2 0x3ACE JUMP JUMPDEST PUSH1 0x40 MLOAD SWAP1 PUSH2 0x3CE1 PUSH1 0x40 DUP4 PUSH2 0x2C57 JUMP JUMPDEST PUSH1 0x7 DUP3 MSTORE PUSH7 0x31B932B0BA37B9 PUSH1 0xC9 SHL PUSH1 0x20 DUP4 ADD MSTORE JUMP JUMPDEST PUSH1 0x40 MLOAD SWAP1 PUSH2 0x3D06 PUSH1 0x40 DUP4 PUSH2 0x2C57 JUMP JUMPDEST PUSH1 0xB DUP3 MSTORE PUSH11 0x31B7B73A3934B13ABA37B9 PUSH1 0xA9 SHL PUSH1 0x20 DUP4 ADD MSTORE JUMP JUMPDEST PUSH1 0x40 MLOAD SWAP1 PUSH2 0x3D2F PUSH1 0x40 DUP4 PUSH2 0x2C57 JUMP JUMPDEST PUSH1 0xB DUP3 MSTORE PUSH11 0x31B7B7B93234B730BA37B9 PUSH1 0xA9 SHL PUSH1 0x20 DUP4 ADD MSTORE JUMP JUMPDEST PUSH1 0x40 MLOAD SWAP1 PUSH2 0x3D58 PUSH1 0x40 DUP4 PUSH2 0x2C57 JUMP JUMPDEST PUSH1 0xC DUP3 MSTORE PUSH12 0x4E4F5F434F4E53454E535553 PUSH1 0xA0 SHL PUSH1 0x20 DUP4 ADD MSTORE JUMP JUMPDEST PUSH1 0x40 MLOAD SWAP1 PUSH2 0x3D82 PUSH1 0x40 DUP4 PUSH2 0x2C57 JUMP JUMPDEST PUSH1 0x8 DUP3 MSTORE PUSH8 0x4E4F5F564F544553 PUSH1 0xC0 SHL PUSH1 0x20 DUP4 ADD MSTORE JUMP JUMPDEST PUSH1 0x40 MLOAD PUSH1 0xFF PUSH1 0x1 DUP4 MLOAD SWAP3 PUSH1 0x20 DUP2 DUP2 DUP8 ADD SWAP6 PUSH2 0x3DB5 DUP2 DUP4 DUP10 PUSH2 0x2CDC JUMP JUMPDEST DUP2 ADD PUSH1 0x7 DUP2 MSTORE SUB ADD SWAP1 KECCAK256 ADD SLOAD PUSH1 0x8 SHR AND ISZERO PUSH2 0x3E07 JUMPI PUSH1 0x2 PUSH2 0x1FBB PUSH1 0x20 PUSH2 0x3DE6 SWAP4 PUSH1 0x40 MLOAD DUP1 SWAP4 DUP2 SWAP3 DUP9 MLOAD SWAP3 DUP4 SWAP2 PUSH2 0x2CDC JUMP JUMPDEST DUP1 MLOAD DUP1 ISZERO SWAP1 DUP2 ISZERO PUSH2 0x3E2B JUMPI JUMPDEST POP DUP1 ISZERO PUSH2 0x3E0E JUMPI JUMPDEST PUSH2 0x3E07 JUMPI PUSH2 0x3370 SWAP2 PUSH2 0x4535 JUMP JUMPDEST POP POP PUSH1 0x0 SWAP1 JUMP JUMPDEST POP DUP1 MLOAD PUSH1 0x20 DUP3 ADD KECCAK256 PUSH2 0x3E1E PUSH2 0x3D73 JUMP JUMPDEST PUSH1 0x20 DUP2 MLOAD SWAP2 ADD KECCAK256 EQ PUSH2 0x3DFA JUMP JUMPDEST SWAP1 POP PUSH1 0x20 DUP3 ADD KECCAK256 PUSH2 0x3E3A PUSH2 0x3D49 JUMP JUMPDEST PUSH1 0x20 DUP2 MLOAD SWAP2 ADD KECCAK256 EQ CODESIZE PUSH2 0x3DF2 JUMP JUMPDEST PUSH1 0x2 SLOAD DUP1 ISZERO PUSH2 0x3E07 JUMPI PUSH2 0x3E6D PUSH1 0x20 PUSH2 0x3E7D SWAP4 DUP2 PUSH1 0x40 MLOAD SWAP4 DUP3 DUP6 DUP1 SWAP5 MLOAD SWAP4 DUP5 SWAP3 ADD PUSH2 0x2CDC JUMP JUMPDEST DUP2 ADD PUSH1 0x7 DUP2 MSTORE SUB ADD SWAP1 KECCAK256 SLOAD PUSH2 0x3417 JUMP JUMPDEST TIMESTAMP GT SWAP1 JUMP JUMPDEST SWAP1 PUSH1 0x0 PUSH1 0x40 MLOAD PUSH2 0x3EA4 PUSH1 0xFF PUSH1 0x1 DUP7 MLOAD SWAP4 PUSH1 0x20 DUP2 DUP2 DUP11 ADD SWAP7 PUSH2 0x20EF DUP2 DUP4 DUP11 PUSH2 0x2CDC JUMP JUMPDEST PUSH2 0x3EBE PUSH1 0xFF PUSH1 0x1 PUSH1 0x40 MLOAD PUSH1 0x20 DUP2 DUP10 MLOAD PUSH2 0x2112 DUP2 DUP4 DUP11 PUSH2 0x2CDC JUMP JUMPDEST PUSH1 0x1 PUSH1 0x40 MLOAD PUSH1 0x20 DUP2 DUP8 MLOAD PUSH2 0x3ED3 DUP2 DUP4 DUP9 PUSH2 0x2CDC JUMP JUMPDEST DUP2 ADD PUSH1 0x7 DUP2 MSTORE SUB ADD SWAP1 KECCAK256 ADD PUSH1 0xFF NOT DUP2 SLOAD AND SWAP1 SSTORE PUSH1 0x1 PUSH1 0x40 MLOAD PUSH1 0x20 DUP2 DUP8 MLOAD PUSH2 0x3EFB DUP2 DUP4 DUP9 PUSH2 0x2CDC JUMP JUMPDEST DUP2 ADD PUSH1 0x7 DUP2 MSTORE SUB ADD SWAP1 KECCAK256 ADD PUSH2 0x100 PUSH2 0xFF00 NOT DUP3 SLOAD AND OR SWAP1 SSTORE PUSH2 0x3F1C DUP5 PUSH2 0x46BD JUMP JUMPDEST SWAP3 PUSH1 0x2 PUSH1 0x40 MLOAD PUSH1 0x20 DUP2 DUP9 MLOAD PUSH2 0x3F32 DUP2 DUP4 DUP10 PUSH2 0x2CDC JUMP JUMPDEST DUP2 ADD PUSH1 0x7 DUP2 MSTORE SUB ADD SWAP1 KECCAK256 ADD DUP5 MLOAD PUSH1 0x1 DUP1 PUSH1 0x40 SHL SUB DUP2 GT PUSH2 0x42C9 JUMPI PUSH2 0x3F56 DUP3 SLOAD PUSH2 0x2ED4 JUMP JUMPDEST PUSH1 0x1F DUP2 GT PUSH2 0x4299 JUMPI JUMPDEST POP PUSH1 0x20 PUSH1 0x1F DUP3 GT PUSH1 0x1 EQ PUSH2 0x421D JUMPI PUSH2 0x400F PUSH2 0x4023 SWAP5 PUSH1 0x20 SWAP5 PUSH2 0x3F9C DUP6 PUSH1 0x4 SWAP10 SWAP7 PUSH1 0x0 DUP1 MLOAD PUSH1 0x20 PUSH2 0x483A DUP4 CODECOPY DUP2 MLOAD SWAP2 MSTORE SWAP7 DUP13 SWAP2 PUSH2 0x4212 JUMPI JUMPDEST POP PUSH2 0x329B JUMP JUMPDEST SWAP1 SSTORE JUMPDEST PUSH32 0x8A0CC662156DA5580404150064CC81955DE64EF5A8090364795EDCBAC8429991 PUSH1 0x40 MLOAD DUP1 PUSH2 0x3FD0 DUP14 TIMESTAMP SWAP1 DUP4 PUSH2 0x32AE JUMP JUMPDEST SUB SWAP1 LOG1 PUSH1 0x40 MLOAD SWAP2 DUP3 SWAP2 PUSH1 0x80 DUP4 MSTORE PUSH2 0x3FFB PUSH2 0x3FEE DUP14 PUSH1 0x80 DUP7 ADD SWAP1 PUSH2 0x2CFF JUMP JUMPDEST DUP5 DUP2 SUB DUP10 DUP7 ADD MSTORE DUP13 PUSH2 0x2CFF JUMP JUMPDEST SWAP1 TIMESTAMP PUSH1 0x40 DUP6 ADD MSTORE DUP4 DUP3 SUB PUSH1 0x60 DUP6 ADD MSTORE PUSH2 0x2CFF JUMP JUMPDEST SUB SWAP1 LOG1 PUSH1 0x40 MLOAD DUP1 SWAP4 DUP2 SWAP3 DUP10 MLOAD SWAP3 DUP4 SWAP2 PUSH2 0x2CDC JUMP JUMPDEST DUP2 ADD PUSH1 0x7 DUP2 MSTORE SUB ADD SWAP1 KECCAK256 ADD SLOAD DUP1 ISZERO ISZERO DUP1 PUSH2 0x41F9 JUMPI JUMPDEST PUSH2 0x40D6 JUMPI JUMPDEST POP ADDRESS EXTCODESIZE ISZERO PUSH2 0x40D3 JUMPI PUSH1 0x40 MLOAD PUSH4 0x2E4BCA8F PUSH1 0xE1 SHL DUP2 MSTORE SWAP1 DUP1 DUP3 DUP1 PUSH2 0x4064 DUP7 DUP9 PUSH1 0x4 DUP5 ADD PUSH2 0x334B JUMP JUMPDEST SUB DUP2 DUP4 ADDRESS GAS CALL SWAP2 DUP3 PUSH2 0x40C3 JUMPI JUMPDEST POP POP PUSH2 0x407B JUMPI POP POP JUMP JUMPDEST PUSH32 0xDABBBDE127EF4AC1B0A84891A674BFC7B3CEFF8D1E7350ABD0F7C48021420D32 SWAP2 PUSH2 0x40B8 PUSH2 0x4B8 SWAP3 PUSH1 0x40 MLOAD SWAP4 DUP5 SWAP4 PUSH1 0x60 DUP6 MSTORE PUSH1 0x60 DUP6 ADD SWAP1 PUSH2 0x2CFF JUMP JUMPDEST TIMESTAMP PUSH1 0x40 DUP4 ADD MSTORE SUB SWAP1 LOG1 JUMP JUMPDEST DUP2 PUSH2 0x40CD SWAP2 PUSH2 0x2C57 JUMP JUMPDEST CODESIZE PUSH2 0x4071 JUMP JUMPDEST DUP1 REVERT JUMPDEST DUP1 DUP3 MSTORE PUSH1 0x8 PUSH1 0x20 MSTORE PUSH1 0x2 PUSH1 0x40 DUP4 KECCAK256 ADD PUSH2 0x40EF DUP2 SLOAD PUSH2 0x3373 JUMP JUMPDEST SWAP1 SSTORE DUP1 DUP3 MSTORE PUSH1 0x8 PUSH1 0x20 MSTORE PUSH32 0x145F86831BF675D553EFC81172882ECDB1776F5BDFA7F1B8367AD08B57888740 PUSH2 0x413B PUSH1 0x1 PUSH1 0x40 DUP6 KECCAK256 ADD SLOAD DUP4 DUP6 MSTORE PUSH1 0x8 PUSH1 0x20 MSTORE PUSH1 0x2 PUSH1 0x40 DUP7 KECCAK256 ADD SLOAD SWAP1 PUSH2 0x31C0 JUMP JUMPDEST PUSH1 0x40 MLOAD DUP1 SWAP2 DUP5 DUP3 MSTORE PUSH1 0x80 PUSH1 0x20 DUP4 ADD MSTORE PUSH2 0x4168 PUSH2 0x415A PUSH1 0x80 DUP5 ADD DUP11 PUSH2 0x2CFF JUMP JUMPDEST DUP4 DUP2 SUB PUSH1 0x40 DUP6 ADD MSTORE DUP9 PUSH2 0x2CFF JUMP JUMPDEST SWAP1 PUSH1 0x60 DUP4 ADD MSTORE SUB SWAP1 LOG1 DUP1 DUP3 MSTORE PUSH1 0x8 PUSH1 0x20 MSTORE PUSH1 0x2 PUSH1 0x40 DUP4 KECCAK256 ADD SLOAD DUP2 DUP4 MSTORE PUSH1 0x8 PUSH1 0x20 MSTORE PUSH1 0x1 PUSH1 0x40 DUP5 KECCAK256 ADD SLOAD GT PUSH2 0x403D JUMPI PUSH1 0x60 DUP2 PUSH32 0xCDF3A25AC86D8C6A422A8356F0FB7D6CC09B23CACA39FD699CBC6038E5587364 SWAP3 DUP5 MSTORE PUSH1 0x8 PUSH1 0x20 MSTORE PUSH1 0x3 PUSH1 0x40 DUP6 KECCAK256 ADD PUSH1 0xFF NOT DUP2 SLOAD AND SWAP1 SSTORE DUP1 DUP5 MSTORE PUSH1 0x8 PUSH1 0x20 MSTORE PUSH1 0x2 PUSH1 0x40 DUP6 KECCAK256 ADD SLOAD PUSH1 0x40 MLOAD SWAP2 DUP3 MSTORE PUSH1 0x20 DUP3 ADD MSTORE TIMESTAMP PUSH1 0x40 DUP3 ADD MSTORE LOG1 CODESIZE PUSH2 0x403D JUMP JUMPDEST POP DUP1 DUP3 MSTORE PUSH1 0x8 PUSH1 0x20 MSTORE PUSH1 0xFF PUSH1 0x3 PUSH1 0x40 DUP5 KECCAK256 ADD SLOAD AND PUSH2 0x4038 JUMP JUMPDEST SWAP1 POP DUP13 ADD MLOAD CODESIZE PUSH2 0x3F96 JUMP JUMPDEST DUP3 DUP7 MSTORE DUP1 DUP7 KECCAK256 SWAP1 PUSH1 0x1F NOT DUP4 AND DUP8 JUMPDEST DUP2 DUP2 LT PUSH2 0x4281 JUMPI POP SWAP5 PUSH1 0x20 SWAP5 PUSH1 0x1 DUP6 PUSH1 0x0 DUP1 MLOAD PUSH1 0x20 PUSH2 0x483A DUP4 CODECOPY DUP2 MLOAD SWAP2 MSTORE SWAP6 PUSH2 0x400F SWAP6 PUSH1 0x4 SWAP12 SWAP9 PUSH2 0x4023 SWAP12 LT PUSH2 0x4268 JUMPI JUMPDEST POP POP DUP2 SHL ADD SWAP1 SSTORE PUSH2 0x3F9F JUMP JUMPDEST DUP14 ADD MLOAD PUSH1 0x0 NOT PUSH1 0xF8 DUP5 PUSH1 0x3 SHL AND SHR NOT AND SWAP1 SSTORE CODESIZE DUP1 PUSH2 0x425C JUMP JUMPDEST SWAP2 SWAP3 PUSH1 0x20 PUSH1 0x1 DUP2 SWAP3 DUP7 DUP14 ADD MLOAD DUP2 SSTORE ADD SWAP5 ADD SWAP3 ADD PUSH2 0x422B JUMP JUMPDEST PUSH2 0x42C3 SWAP1 DUP4 DUP8 MSTORE PUSH1 0x20 DUP8 KECCAK256 PUSH1 0x1F DUP5 ADD PUSH1 0x5 SHR DUP2 ADD SWAP2 PUSH1 0x20 DUP6 LT PUSH2 0x2491 JUMPI PUSH1 0x1F ADD PUSH1 0x5 SHR ADD SWAP1 PUSH2 0x3284 JUMP JUMPDEST CODESIZE PUSH2 0x3F5F JUMP JUMPDEST PUSH4 0x4E487B71 PUSH1 0xE0 SHL DUP6 MSTORE PUSH1 0x41 PUSH1 0x4 MSTORE PUSH1 0x24 DUP6 REVERT JUMPDEST PUSH1 0x0 MSTORE PUSH1 0x8 PUSH1 0x20 MSTORE PUSH2 0x42F5 PUSH1 0x1 PUSH1 0x40 PUSH1 0x0 KECCAK256 ADD PUSH2 0x31E3 JUMP JUMPDEST DUP1 MLOAD ISZERO PUSH2 0x437E JUMPI PUSH1 0x5 SLOAD PUSH1 0x0 SWAP2 JUMPDEST DUP2 DUP4 LT PUSH2 0x4312 JUMPI POP POP POP PUSH1 0x1 SWAP1 JUMP JUMPDEST PUSH2 0x431B DUP4 PUSH2 0x2EA3 JUMP JUMPDEST SWAP1 SLOAD PUSH1 0x3 SWAP2 SWAP1 SWAP2 SHL SHR PUSH1 0x1 PUSH1 0x1 PUSH1 0xA0 SHL SUB AND SWAP2 PUSH1 0x0 JUMPDEST DUP3 MLOAD DUP2 LT ISZERO PUSH2 0x4371 JUMPI PUSH1 0xFF PUSH1 0x40 PUSH1 0x5 PUSH2 0x434D PUSH2 0x594 DUP6 DUP9 PUSH2 0x31AC JUMP JUMPDEST ADD PUSH1 0x0 SWAP1 DUP8 DUP3 MSTORE PUSH1 0x20 MSTORE KECCAK256 SLOAD AND ISZERO PUSH2 0x4367 JUMPI PUSH1 0x1 ADD PUSH2 0x4331 JUMP JUMPDEST POP POP POP POP POP PUSH1 0x0 SWAP1 JUMP JUMPDEST POP SWAP2 POP SWAP2 PUSH1 0x1 ADD SWAP2 PUSH2 0x4303 JUMP JUMPDEST POP PUSH1 0x0 SWAP1 JUMP JUMPDEST PUSH1 0x60 SWAP2 PUSH1 0x40 MLOAD PUSH1 0x20 DUP2 DUP5 MLOAD PUSH2 0x439C DUP2 DUP4 DUP6 DUP10 ADD PUSH2 0x2CDC JUMP JUMPDEST DUP2 ADD PUSH1 0x6 DUP2 MSTORE SUB ADD SWAP1 KECCAK256 DUP1 SLOAD SWAP1 PUSH2 0x43B2 DUP3 PUSH2 0x2DB1 JUMP JUMPDEST SWAP5 PUSH2 0x43C0 PUSH1 0x40 MLOAD SWAP7 DUP8 PUSH2 0x2C57 JUMP JUMPDEST DUP3 DUP7 MSTORE PUSH1 0x20 DUP7 ADD SWAP2 PUSH1 0x0 MSTORE PUSH1 0x20 PUSH1 0x0 KECCAK256 SWAP1 PUSH1 0x0 SWAP3 JUMPDEST DUP5 DUP5 LT PUSH2 0x44E2 JUMPI POP POP POP POP POP DUP3 MLOAD ISZERO PUSH2 0x44D1 JUMPI PUSH2 0x43F2 DUP4 MLOAD PUSH2 0x3123 JUMP JUMPDEST SWAP1 PUSH1 0x0 SWAP1 DUP2 JUMPDEST DUP6 MLOAD DUP2 LT ISZERO PUSH2 0x4479 JUMPI PUSH1 0x20 PUSH2 0x440D DUP3 DUP9 PUSH2 0x31AC JUMP JUMPDEST MLOAD ADD MLOAD PUSH1 0x0 PUSH1 0x20 DUP3 ADD DUP2 JUMPDEST DUP7 DUP2 LT PUSH2 0x444A JUMPI JUMPDEST POP POP ISZERO PUSH2 0x4431 JUMPI JUMPDEST POP PUSH1 0x1 ADD PUSH2 0x43F8 JUMP JUMPDEST DUP4 PUSH2 0x4443 SWAP2 PUSH2 0x3B5E PUSH1 0x1 SWAP5 SWAP7 DUP9 PUSH2 0x31AC JUMP JUMPDEST SWAP3 SWAP1 PUSH2 0x4428 JUMP JUMPDEST PUSH2 0x4454 DUP2 DUP10 PUSH2 0x31AC JUMP JUMPDEST MLOAD PUSH1 0x20 DUP2 MLOAD SWAP2 ADD KECCAK256 DUP5 MLOAD DUP4 KECCAK256 EQ PUSH2 0x446D JUMPI PUSH1 0x1 ADD PUSH2 0x4418 JUMP JUMPDEST POP POP POP PUSH1 0x1 CODESIZE DUP1 PUSH2 0x4420 JUMP JUMPDEST POP SWAP4 POP SWAP2 PUSH1 0x0 JUMPDEST DUP4 DUP2 LT PUSH2 0x44A0 JUMPI POP POP POP POP PUSH1 0x40 MLOAD PUSH2 0x4499 PUSH1 0x20 DUP3 PUSH2 0x2C57 JUMP JUMPDEST PUSH1 0x0 DUP2 MSTORE SWAP1 JUMP JUMPDEST PUSH2 0x44B4 PUSH2 0x44AD DUP3 DUP6 PUSH2 0x31AC JUMP JUMPDEST MLOAD DUP4 PUSH2 0x4535 JUMP JUMPDEST PUSH2 0x44C0 JUMPI PUSH1 0x1 ADD PUSH2 0x4480 JUMP JUMPDEST SWAP2 SWAP1 POP PUSH2 0x44CD SWAP3 POP PUSH2 0x31AC JUMP JUMPDEST MLOAD SWAP1 JUMP JUMPDEST SWAP2 POP POP PUSH1 0x40 MLOAD PUSH2 0x4499 PUSH1 0x20 DUP3 PUSH2 0x2C57 JUMP JUMPDEST PUSH1 0x4 PUSH1 0x20 PUSH1 0x1 SWAP3 PUSH1 0x40 MLOAD PUSH2 0x44F5 DUP2 PUSH2 0x2C21 JUMP JUMPDEST DUP5 DUP1 PUSH1 0xA0 SHL SUB DUP8 SLOAD AND DUP2 MSTORE PUSH2 0x450B DUP6 DUP9 ADD PUSH2 0x2F0E JUMP JUMPDEST DUP4 DUP3 ADD MSTORE PUSH1 0xFF PUSH1 0x2 DUP9 ADD SLOAD AND ISZERO ISZERO PUSH1 0x40 DUP3 ADD MSTORE PUSH1 0x3 DUP8 ADD SLOAD DUP7 DUP3 ADD MSTORE DUP2 MSTORE ADD SWAP4 ADD SWAP4 ADD SWAP3 SWAP2 PUSH2 0x43D5 JUMP JUMPDEST PUSH1 0x20 PUSH2 0x4551 SWAP2 SWAP4 SWAP3 SWAP4 DUP2 PUSH1 0x40 MLOAD SWAP4 DUP3 DUP6 DUP1 SWAP5 MLOAD SWAP4 DUP5 SWAP3 ADD PUSH2 0x2CDC JUMP JUMPDEST DUP2 ADD PUSH1 0x6 DUP2 MSTORE SUB ADD SWAP1 KECCAK256 DUP1 SLOAD PUSH2 0x4566 DUP2 PUSH2 0x2DB1 JUMP JUMPDEST SWAP2 PUSH2 0x4574 PUSH1 0x40 MLOAD SWAP4 DUP5 PUSH2 0x2C57 JUMP JUMPDEST DUP2 DUP4 MSTORE PUSH1 0x20 DUP4 ADD SWAP1 PUSH1 0x0 MSTORE PUSH1 0x20 PUSH1 0x0 KECCAK256 PUSH1 0x0 SWAP2 JUMPDEST DUP4 DUP4 LT PUSH2 0x4669 JUMPI POP POP POP POP DUP1 MLOAD ISZERO PUSH2 0x4662 JUMPI PUSH1 0x0 SWAP1 DUP2 DUP3 JUMPDEST DUP3 MLOAD DUP2 LT ISZERO PUSH2 0x4607 JUMPI PUSH1 0x20 PUSH2 0x45B5 DUP3 DUP6 PUSH2 0x31AC JUMP JUMPDEST MLOAD ADD MLOAD PUSH1 0x20 DUP2 MLOAD SWAP2 ADD KECCAK256 DUP7 MLOAD PUSH1 0x20 DUP9 ADD KECCAK256 EQ PUSH2 0x45D4 JUMPI JUMPDEST PUSH1 0x1 ADD PUSH2 0x45A0 JUMP JUMPDEST SWAP1 PUSH2 0x45DE SWAP1 PUSH2 0x3373 JUMP JUMPDEST SWAP1 PUSH1 0x40 PUSH2 0x45EB DUP3 DUP6 PUSH2 0x31AC JUMP JUMPDEST MLOAD ADD MLOAD ISZERO PUSH2 0x45CC JUMPI SWAP3 PUSH2 0x45FF PUSH1 0x1 SWAP2 PUSH2 0x3373 JUMP JUMPDEST SWAP4 SWAP1 POP PUSH2 0x45CC JUMP JUMPDEST POP SWAP1 SWAP2 SWAP3 SWAP4 POP DUP1 ISZERO PUSH2 0x465A JUMPI DUP3 EQ PUSH2 0x4620 JUMPI POP POP PUSH1 0x0 SWAP1 JUMP JUMPDEST MLOAD PUSH1 0x64 DUP3 MUL SWAP2 DUP1 DUP4 DIV PUSH1 0x64 EQ SWAP1 ISZERO OR ISZERO PUSH2 0x31CD JUMPI DUP1 ISZERO PUSH2 0x4644 JUMPI PUSH1 0x1 SLOAD SWAP2 DIV LT ISZERO SWAP1 JUMP JUMPDEST PUSH4 0x4E487B71 PUSH1 0xE0 SHL PUSH1 0x0 MSTORE PUSH1 0x12 PUSH1 0x4 MSTORE PUSH1 0x24 PUSH1 0x0 REVERT JUMPDEST POP POP POP PUSH1 0x0 SWAP1 JUMP JUMPDEST POP PUSH1 0x0 SWAP2 POP JUMP JUMPDEST PUSH1 0x4 PUSH1 0x20 PUSH1 0x1 SWAP3 PUSH1 0x40 MLOAD PUSH2 0x467C DUP2 PUSH2 0x2C21 JUMP JUMPDEST DUP5 DUP1 PUSH1 0xA0 SHL SUB DUP7 SLOAD AND DUP2 MSTORE PUSH2 0x4692 DUP6 DUP8 ADD PUSH2 0x2F0E JUMP JUMPDEST DUP4 DUP3 ADD MSTORE PUSH1 0xFF PUSH1 0x2 DUP8 ADD SLOAD AND ISZERO ISZERO PUSH1 0x40 DUP3 ADD MSTORE PUSH1 0x3 DUP7 ADD SLOAD PUSH1 0x60 DUP3 ADD MSTORE DUP2 MSTORE ADD SWAP3 ADD SWAP3 ADD SWAP2 SWAP1 PUSH2 0x4588 JUMP JUMPDEST PUSH1 0x60 SWAP1 PUSH1 0x40 MLOAD DUP2 MLOAD SWAP1 PUSH1 0x20 DUP2 DUP2 DUP6 ADD SWAP4 PUSH2 0x46D8 DUP2 DUP4 DUP8 PUSH2 0x2CDC JUMP JUMPDEST DUP2 ADD PUSH1 0x6 DUP2 MSTORE SUB ADD SWAP1 KECCAK256 DUP1 SLOAD SWAP1 PUSH2 0x46EE DUP3 PUSH2 0x2DB1 JUMP JUMPDEST SWAP5 PUSH2 0x46FC PUSH1 0x40 MLOAD SWAP7 DUP8 PUSH2 0x2C57 JUMP JUMPDEST DUP3 DUP7 MSTORE PUSH1 0x20 DUP7 ADD SWAP2 PUSH1 0x0 MSTORE PUSH1 0x20 PUSH1 0x0 KECCAK256 SWAP1 PUSH1 0x0 SWAP3 JUMPDEST DUP5 DUP5 LT PUSH2 0x47E6 JUMPI POP POP POP POP POP DUP3 MLOAD ISZERO PUSH2 0x47DB JUMPI PUSH1 0x20 PUSH2 0x473E SWAP2 PUSH1 0x7 SWAP4 PUSH1 0x40 MLOAD SWAP4 DUP5 SWAP3 DUP4 SWAP3 MLOAD SWAP3 DUP4 SWAP2 PUSH2 0x2CDC JUMP JUMPDEST DUP2 ADD DUP5 DUP2 MSTORE SUB ADD SWAP1 KECCAK256 ADD PUSH1 0x20 SWAP3 PUSH1 0x40 MLOAD PUSH2 0x4759 PUSH1 0x20 DUP3 PUSH2 0x2C57 JUMP JUMPDEST PUSH1 0x0 DUP2 MSTORE SWAP3 PUSH1 0x0 SWAP2 PUSH1 0x0 JUMPDEST DUP3 MLOAD DUP2 LT ISZERO PUSH2 0x47BE JUMPI PUSH1 0x40 PUSH2 0x4779 DUP3 DUP6 PUSH2 0x31AC JUMP JUMPDEST MLOAD ADD MLOAD PUSH2 0x4789 JUMPI JUMPDEST PUSH1 0x1 ADD PUSH2 0x4764 JUMP JUMPDEST DUP7 PUSH2 0x4794 DUP3 DUP6 PUSH2 0x31AC JUMP JUMPDEST MLOAD ADD MLOAD PUSH2 0x47A1 DUP7 DUP3 PUSH2 0x2FD8 JUMP JUMPDEST SLOAD DUP6 DUP2 GT PUSH2 0x47B1 JUMPI JUMPDEST POP POP PUSH2 0x4781 JUMP JUMPDEST SWAP1 SWAP7 POP SWAP4 POP PUSH1 0x1 CODESIZE PUSH2 0x47AA JUMP JUMPDEST POP SWAP5 POP POP POP POP DUP1 MLOAD ISZERO ISZERO PUSH1 0x0 EQ PUSH2 0x47D2 JUMPI SWAP1 JUMP JUMPDEST POP PUSH2 0x3370 PUSH2 0x3D49 JUMP JUMPDEST POP POP POP PUSH2 0x3370 PUSH2 0x3D73 JUMP JUMPDEST PUSH1 0x4 PUSH1 0x20 PUSH1 0x1 SWAP3 PUSH1 0x40 MLOAD PUSH2 0x47F9 DUP2 PUSH2 0x2C21 JUMP JUMPDEST DUP5 DUP1 PUSH1 0xA0 SHL SUB DUP8 SLOAD AND DUP2 MSTORE PUSH2 0x480F DUP6 DUP9 ADD PUSH2 0x2F0E JUMP JUMPDEST DUP4 DUP3 ADD MSTORE PUSH1 0xFF PUSH1 0x2 DUP9 ADD SLOAD AND ISZERO ISZERO PUSH1 0x40 DUP3 ADD MSTORE PUSH1 0x3 DUP8 ADD SLOAD DUP7 DUP3 ADD MSTORE DUP2 MSTORE ADD SWAP4 ADD SWAP4 ADD SWAP3 SWAP2 PUSH2 0x4711 JUMP INVALID 0xA8 0xE1 0x27 SWAP9 DUP9 0xC1 PUSH21 0xA6FBF4FD42A8BE4469B313BE30A5EDAC87AFF45C5F DUP11 GASLIMIT 0xD 0xEB 0xC 0xC6 0x2C DUP12 MULMOD PUSH25 0x8A11D11E96187C34C67FAD5E9651CADC6ACE24E1518490BED9 DUP2 0x25 PUSH26 0xD0860B48F37C239A6DB657BAD6560C277BBCE0A8A989D7022740 PUSH32 0xC62E06A26469706673582212206C0FCD80AA4F5EEAB206922BBD1C59658EAA92 0xB6 PUSH24 0xC0B1680A3E934F026DEDFE64736F6C634300081C00330000 "},"methodIdentifiers":{"batches(uint256)":"b32c4d8d","checkAndFinalizeTimeout(string)":"367cb924","computeActiveBatch(string[],bool[],string[],uint256,uint256)":"ab40d3ba","computeBatchProgress(uint256,string[],bool[])":"a76fd84e","computeEligibleVoters(address[],string[],uint256[])":"cdbf3d01","consensusThreshold()":"f9b0b5b9","currentRound()":"8a19c8bc","endBatchVoting(uint256)":"b8c39034","getBatchSamples(uint256)":"68acb1ab","getBatchStatus(uint256)":"2d1bbc8e","getCurrentBatchProgress()":"8520eb78","getFinalLabel(string)":"428f8338","getSampleOriginalIndex(string)":"6787225b","getVoterList()":"b28d92ae","getVotes(string)":"805265e5","getVotingDistribution(string)":"b49c447e","getVotingResult(string)":"db7cde8b","getVotingSession(string)":"79c4ab15","getVotingSessionStatus(string)":"72678fcc","hasUserVoted(string,address)":"41497385","isTimeoutReached(string)":"26a0613a","isVotingActive(string)":"04574fe8","notifyMainContractExternal(string,string)":"5c97951e","project()":"f60ca60d","setVoters(address[],uint256[])":"75c255fc","startBatchVoting(string[],uint256,string[],uint256[])":"33f9625d","submitBatchVote(string[],string[],bool[])":"f02a0f75","submitBatchVoteOnBehalf(string[],string[],address)":"9a6e81ab","voterList(uint256)":"50e2e8af","voterWeights(address)":"414f8e76","votes(string,uint256)":"6042ad61","votingConsensus()":"55d389a4","votingSessions(string)":"f18a5cec","votingTimeoutSeconds()":"a58df19a","wasConsensusAchieved(string)":"e7016ca7"}}}}}