{"contracts/ALProjectStorage.sol":{"ALProjectStorage":{"abi":[{"inputs":[{"internalType":"address","name":"_project","type":"address"}],"stateMutability":"nonpayable","type":"constructor"},{"anonymous":false,"inputs":[{"indexed":false,"internalType":"string","name":"sampleId","type":"string"},{"indexed":false,"internalType":"string","name":"label","type":"string"},{"indexed":false,"internalType":"uint256","name":"round","type":"uint256"},{"indexed":false,"internalType":"uint256","name":"timestamp","type":"uint256"},{"indexed":false,"internalType":"uint256","name":"originalIndex","type":"uint256"}],"name":"LabelFinalized","type":"event"},{"inputs":[{"internalType":"string","name":"","type":"string"}],"name":"finalLabels","outputs":[{"internalType":"string","name":"sampleId","type":"string"},{"internalType":"string","name":"label","type":"string"},{"internalType":"uint256","name":"round","type":"uint256"},{"internalType":"uint256","name":"timestamp","type":"uint256"},{"internalType":"uint256","name":"originalIndex","type":"uint256"}],"stateMutability":"view","type":"function"},{"inputs":[{"internalType":"string","name":"sampleId","type":"string"}],"name":"getFinalLabel","outputs":[{"internalType":"string","name":"label","type":"string"},{"internalType":"uint256","name":"round","type":"uint256"},{"internalType":"uint256","name":"timestamp","type":"uint256"},{"internalType":"uint256","name":"originalIndex","type":"uint256"}],"stateMutability":"view","type":"function"},{"inputs":[{"internalType":"string","name":"sampleId","type":"string"}],"name":"getLabel","outputs":[{"internalType":"string","name":"","type":"string"}],"stateMutability":"view","type":"function"},{"inputs":[{"internalType":"string","name":"sampleId","type":"string"}],"name":"hasFinalLabel","outputs":[{"internalType":"bool","name":"","type":"bool"}],"stateMutability":"view","type":"function"},{"inputs":[{"internalType":"string","name":"sampleId","type":"string"}],"name":"isValidSampleId","outputs":[{"internalType":"bool","name":"","type":"bool"}],"stateMutability":"pure","type":"function"},{"inputs":[],"name":"project","outputs":[{"internalType":"address","name":"","type":"address"}],"stateMutability":"view","type":"function"},{"inputs":[{"internalType":"string","name":"sampleId","type":"string"},{"internalType":"string","name":"label","type":"string"},{"internalType":"uint256","name":"round","type":"uint256"},{"internalType":"uint256","name":"originalIndex","type":"uint256"}],"name":"storeFinalLabel","outputs":[],"stateMutability":"nonpayable","type":"function"}],"evm":{"bytecode":{"linkReferences":{},"object":"60803460ba57601f610a2338819003918201601f19168301916001600160401b0383118484101760bf5780849260209460405283398101031260ba57516001600160a01b0381169081900360ba578015607557600080546001600160a01b03191691909117905560405161094d90816100d68239f35b60405162461bcd60e51b815260206004820152601760248201527f496e76616c69642070726f6a65637420616464726573730000000000000000006044820152606490fd5b600080fd5b634e487b7160e01b600052604160045260246000fdfe6080604052600436101561001257600080fd5b60003560e01c8063074529cf146102e157806308837df61461028d5780630f7fcf401461022d5780633ae94379146101b4578063428f8338146100fd5780638bb7b700146100975763f60ca60d1461006957600080fd5b34610092576000366003190112610092576000546040516001600160a01b039091168152602090f35b600080fd5b34610092576020366003190112610092576004356001600160401b038111610092576100f36100e360206100d081943690600401610741565b8160405193828580945193849201610797565b81016001815203019020546107df565b1515604051908152f35b34610092576020366003190112610092576004356001600160401b0381116100925761013560206100d06101a0933690600401610741565b8101600181520301902060405161014b81610703565b61015482610819565b8152608061016460018401610819565b928360208401526002810154928360408201526004600383015492836060840152015492839101526040519485946080865260808601906107ba565b926020850152604084015260608301520390f35b34610092576020366003190112610092576004356001600160401b0381116100925760206100d06101e9923690600401610741565b810160018152030190206101fc81610819565b61022961020b60018401610819565b926002810154906004600382015491015491604051958695866108bd565b0390f35b34610092576020366003190112610092576004356001600160401b03811161009257610279600161026a60206100d0610229953690600401610741565b81018481520301902001610819565b6040519182916020835260208301906107ba565b34610092576020366003190112610092576004356001600160401b038111610092576102bf6020913690600401610741565b5180151590816102d5575b506040519015158152f35b604091501115826102ca565b34610092576080366003190112610092576004356001600160401b03811161009257610311903690600401610741565b6024356001600160401b03811161009257610330903690600401610741565b6000546044359190606435906001600160a01b031633036106c15783511561068057815115610643576040519361036685610703565b808552602085019483865260408101858152606082014281526080830191858352604051602081875161039c8183858c01610797565b60019082019081520301902093518051906001600160401b03821161056a5781906103c787546107df565b601f81116105f0575b50602090601f831160011461058b57600092610580575b50508160011b916000199060031b1c19161784555b9751805190989060018501906001600160401b03811161056a5761042082546107df565b601f8111610522575b506020601f82116001146104a1579181610491999897969492600496946000805160206108f88339815191529e600092610496575b50508160011b916000199060031b1c19161790555b516002850155516003840155519101556040519485944292866108bd565b0390a1005b015190508e8061045e565b601f1982169b83600052816000209c60005b81811061050a5750926000805160206108f88339815191529d6004979593600193836104919e9d9c9b9997106104f1575b505050811b019055610473565b015160001960f88460031b161c191690558e80806104e4565b838301518f556001909e019d602093840193016104b3565b826000526020600020601f830160051c81019160208410610560575b601f0160051c01905b8181106105545750610429565b60008155600101610547565b909150819061053e565b634e487b7160e01b600052604160045260246000fd5b015190508b806103e7565b60008881528281209350601f198516905b8181106105d857509084600195949392106105bf575b505050811b0184556103fc565b015160001960f88460031b161c191690558b80806105b2565b9293602060018192878601518155019501930161059c565b909150866000526020600020601f840160051c81019160208510610639575b90601f859493920160051c01905b81811061062a57506103d0565b6000815584935060010161061d565b909150819061060f565b60405162461bcd60e51b81526020600482015260156024820152744c6162656c2063616e6e6f7420626520656d70747960581b6044820152606490fd5b60405162461bcd60e51b815260206004820152601960248201527853616d706c652049442063616e6e6f7420626520656d70747960381b6044820152606490fd5b60405162461bcd60e51b815260206004820152601a60248201527913db9b1e481b585a5b881c1c9bda9958dd0818d85b8818d85b1b60321b6044820152606490fd5b60a081019081106001600160401b0382111761056a57604052565b601f909101601f19168101906001600160401b0382119082101761056a57604052565b81601f82011215610092578035906001600160401b03821161056a5760405192610775601f8401601f19166020018561071e565b8284526020838301011161009257816000926020809301838601378301015290565b60005b8381106107aa5750506000910152565b818101518382015260200161079a565b906020916107d381518092818552858086019101610797565b601f01601f1916010190565b90600182811c9216801561080f575b60208310146107f957565b634e487b7160e01b600052602260045260246000fd5b91607f16916107ee565b906040519182600082549261082d846107df565b808452936001811690811561089b5750600114610854575b506108529250038361071e565b565b90506000929192526020600020906000915b81831061087f5750509060206108529282010138610845565b6020919350806001915483858901015201910190918492610866565b90506020925061085294915060ff191682840152151560051b82010138610845565b916108e8906108da6080959897969360a0865260a08601906107ba565b9084820360208601526107ba565b9560408301526060820152015256feb0e756f0c1c632595c3f40dff440428f92276069c1ba300b5514be22d9b3e7e2a2646970667358221220217b933e47b37e085da6fedfc4815f9d76d18f90bea58ea3dbf1f4b056efd00b64736f6c634300081c0033","opcodes":"PUSH1 0x80 CALLVALUE PUSH1 0xBA JUMPI PUSH1 0x1F PUSH2 0xA23 CODESIZE DUP2 SWAP1 SUB SWAP2 DUP3 ADD PUSH1 0x1F NOT AND DUP4 ADD SWAP2 PUSH1 0x1 PUSH1 0x1 PUSH1 0x40 SHL SUB DUP4 GT DUP5 DUP5 LT OR PUSH1 0xBF JUMPI DUP1 DUP5 SWAP3 PUSH1 0x20 SWAP5 PUSH1 0x40 MSTORE DUP4 CODECOPY DUP2 ADD SUB SLT PUSH1 0xBA JUMPI MLOAD PUSH1 0x1 PUSH1 0x1 PUSH1 0xA0 SHL SUB DUP2 AND SWAP1 DUP2 SWAP1 SUB PUSH1 0xBA JUMPI DUP1 ISZERO PUSH1 0x75 JUMPI PUSH1 0x0 DUP1 SLOAD PUSH1 0x1 PUSH1 0x1 PUSH1 0xA0 SHL SUB NOT AND SWAP2 SWAP1 SWAP2 OR SWAP1 SSTORE PUSH1 0x40 MLOAD PUSH2 0x94D SWAP1 DUP2 PUSH2 0xD6 DUP3 CODECOPY RETURN JUMPDEST PUSH1 0x40 MLOAD PUSH3 0x461BCD PUSH1 0xE5 SHL DUP2 MSTORE PUSH1 0x20 PUSH1 0x4 DUP3 ADD MSTORE PUSH1 0x17 PUSH1 0x24 DUP3 ADD MSTORE PUSH32 0x496E76616C69642070726F6A6563742061646472657373000000000000000000 PUSH1 0x44 DUP3 ADD MSTORE PUSH1 0x64 SWAP1 REVERT JUMPDEST PUSH1 0x0 DUP1 REVERT JUMPDEST PUSH4 0x4E487B71 PUSH1 0xE0 SHL PUSH1 0x0 MSTORE PUSH1 0x41 PUSH1 0x4 MSTORE PUSH1 0x24 PUSH1 0x0 REVERT INVALID PUSH1 0x80 PUSH1 0x40 MSTORE PUSH1 0x4 CALLDATASIZE LT ISZERO PUSH2 0x12 JUMPI PUSH1 0x0 DUP1 REVERT JUMPDEST PUSH1 0x0 CALLDATALOAD PUSH1 0xE0 SHR DUP1 PUSH4 0x74529CF EQ PUSH2 0x2E1 JUMPI DUP1 PUSH4 0x8837DF6 EQ PUSH2 0x28D JUMPI DUP1 PUSH4 0xF7FCF40 EQ PUSH2 0x22D JUMPI DUP1 PUSH4 0x3AE94379 EQ PUSH2 0x1B4 JUMPI DUP1 PUSH4 0x428F8338 EQ PUSH2 0xFD JUMPI DUP1 PUSH4 0x8BB7B700 EQ PUSH2 0x97 JUMPI PUSH4 0xF60CA60D EQ PUSH2 0x69 JUMPI PUSH1 0x0 DUP1 REVERT JUMPDEST CALLVALUE PUSH2 0x92 JUMPI PUSH1 0x0 CALLDATASIZE PUSH1 0x3 NOT ADD SLT PUSH2 0x92 JUMPI PUSH1 0x0 SLOAD PUSH1 0x40 MLOAD PUSH1 0x1 PUSH1 0x1 PUSH1 0xA0 SHL SUB SWAP1 SWAP2 AND DUP2 MSTORE PUSH1 0x20 SWAP1 RETURN JUMPDEST PUSH1 0x0 DUP1 REVERT JUMPDEST CALLVALUE PUSH2 0x92 JUMPI PUSH1 0x20 CALLDATASIZE PUSH1 0x3 NOT ADD SLT PUSH2 0x92 JUMPI PUSH1 0x4 CALLDATALOAD PUSH1 0x1 PUSH1 0x1 PUSH1 0x40 SHL SUB DUP2 GT PUSH2 0x92 JUMPI PUSH2 0xF3 PUSH2 0xE3 PUSH1 0x20 PUSH2 0xD0 DUP2 SWAP5 CALLDATASIZE SWAP1 PUSH1 0x4 ADD PUSH2 0x741 JUMP JUMPDEST DUP2 PUSH1 0x40 MLOAD SWAP4 DUP3 DUP6 DUP1 SWAP5 MLOAD SWAP4 DUP5 SWAP3 ADD PUSH2 0x797 JUMP JUMPDEST DUP2 ADD PUSH1 0x1 DUP2 MSTORE SUB ADD SWAP1 KECCAK256 SLOAD PUSH2 0x7DF JUMP JUMPDEST ISZERO ISZERO PUSH1 0x40 MLOAD SWAP1 DUP2 MSTORE RETURN JUMPDEST CALLVALUE PUSH2 0x92 JUMPI PUSH1 0x20 CALLDATASIZE PUSH1 0x3 NOT ADD SLT PUSH2 0x92 JUMPI PUSH1 0x4 CALLDATALOAD PUSH1 0x1 PUSH1 0x1 PUSH1 0x40 SHL SUB DUP2 GT PUSH2 0x92 JUMPI PUSH2 0x135 PUSH1 0x20 PUSH2 0xD0 PUSH2 0x1A0 SWAP4 CALLDATASIZE SWAP1 PUSH1 0x4 ADD PUSH2 0x741 JUMP JUMPDEST DUP2 ADD PUSH1 0x1 DUP2 MSTORE SUB ADD SWAP1 KECCAK256 PUSH1 0x40 MLOAD PUSH2 0x14B DUP2 PUSH2 0x703 JUMP JUMPDEST PUSH2 0x154 DUP3 PUSH2 0x819 JUMP JUMPDEST DUP2 MSTORE PUSH1 0x80 PUSH2 0x164 PUSH1 0x1 DUP5 ADD PUSH2 0x819 JUMP JUMPDEST SWAP3 DUP4 PUSH1 0x20 DUP5 ADD MSTORE PUSH1 0x2 DUP2 ADD SLOAD SWAP3 DUP4 PUSH1 0x40 DUP3 ADD MSTORE PUSH1 0x4 PUSH1 0x3 DUP4 ADD SLOAD SWAP3 DUP4 PUSH1 0x60 DUP5 ADD MSTORE ADD SLOAD SWAP3 DUP4 SWAP2 ADD MSTORE PUSH1 0x40 MLOAD SWAP5 DUP6 SWAP5 PUSH1 0x80 DUP7 MSTORE PUSH1 0x80 DUP7 ADD SWAP1 PUSH2 0x7BA JUMP JUMPDEST SWAP3 PUSH1 0x20 DUP6 ADD MSTORE PUSH1 0x40 DUP5 ADD MSTORE PUSH1 0x60 DUP4 ADD MSTORE SUB SWAP1 RETURN JUMPDEST CALLVALUE PUSH2 0x92 JUMPI PUSH1 0x20 CALLDATASIZE PUSH1 0x3 NOT ADD SLT PUSH2 0x92 JUMPI PUSH1 0x4 CALLDATALOAD PUSH1 0x1 PUSH1 0x1 PUSH1 0x40 SHL SUB DUP2 GT PUSH2 0x92 JUMPI PUSH1 0x20 PUSH2 0xD0 PUSH2 0x1E9 SWAP3 CALLDATASIZE SWAP1 PUSH1 0x4 ADD PUSH2 0x741 JUMP JUMPDEST DUP2 ADD PUSH1 0x1 DUP2 MSTORE SUB ADD SWAP1 KECCAK256 PUSH2 0x1FC DUP2 PUSH2 0x819 JUMP JUMPDEST PUSH2 0x229 PUSH2 0x20B PUSH1 0x1 DUP5 ADD PUSH2 0x819 JUMP JUMPDEST SWAP3 PUSH1 0x2 DUP2 ADD SLOAD SWAP1 PUSH1 0x4 PUSH1 0x3 DUP3 ADD SLOAD SWAP2 ADD SLOAD SWAP2 PUSH1 0x40 MLOAD SWAP6 DUP7 SWAP6 DUP7 PUSH2 0x8BD JUMP JUMPDEST SUB SWAP1 RETURN JUMPDEST CALLVALUE PUSH2 0x92 JUMPI PUSH1 0x20 CALLDATASIZE PUSH1 0x3 NOT ADD SLT PUSH2 0x92 JUMPI PUSH1 0x4 CALLDATALOAD PUSH1 0x1 PUSH1 0x1 PUSH1 0x40 SHL SUB DUP2 GT PUSH2 0x92 JUMPI PUSH2 0x279 PUSH1 0x1 PUSH2 0x26A PUSH1 0x20 PUSH2 0xD0 PUSH2 0x229 SWAP6 CALLDATASIZE SWAP1 PUSH1 0x4 ADD PUSH2 0x741 JUMP JUMPDEST DUP2 ADD DUP5 DUP2 MSTORE SUB ADD SWAP1 KECCAK256 ADD PUSH2 0x819 JUMP JUMPDEST PUSH1 0x40 MLOAD SWAP2 DUP3 SWAP2 PUSH1 0x20 DUP4 MSTORE PUSH1 0x20 DUP4 ADD SWAP1 PUSH2 0x7BA JUMP JUMPDEST CALLVALUE PUSH2 0x92 JUMPI PUSH1 0x20 CALLDATASIZE PUSH1 0x3 NOT ADD SLT PUSH2 0x92 JUMPI PUSH1 0x4 CALLDATALOAD PUSH1 0x1 PUSH1 0x1 PUSH1 0x40 SHL SUB DUP2 GT PUSH2 0x92 JUMPI PUSH2 0x2BF PUSH1 0x20 SWAP2 CALLDATASIZE SWAP1 PUSH1 0x4 ADD PUSH2 0x741 JUMP JUMPDEST MLOAD DUP1 ISZERO ISZERO SWAP1 DUP2 PUSH2 0x2D5 JUMPI JUMPDEST POP PUSH1 0x40 MLOAD SWAP1 ISZERO ISZERO DUP2 MSTORE RETURN JUMPDEST PUSH1 0x40 SWAP2 POP GT ISZERO DUP3 PUSH2 0x2CA JUMP JUMPDEST CALLVALUE PUSH2 0x92 JUMPI PUSH1 0x80 CALLDATASIZE PUSH1 0x3 NOT ADD SLT PUSH2 0x92 JUMPI PUSH1 0x4 CALLDATALOAD PUSH1 0x1 PUSH1 0x1 PUSH1 0x40 SHL SUB DUP2 GT PUSH2 0x92 JUMPI PUSH2 0x311 SWAP1 CALLDATASIZE SWAP1 PUSH1 0x4 ADD PUSH2 0x741 JUMP JUMPDEST PUSH1 0x24 CALLDATALOAD PUSH1 0x1 PUSH1 0x1 PUSH1 0x40 SHL SUB DUP2 GT PUSH2 0x92 JUMPI PUSH2 0x330 SWAP1 CALLDATASIZE SWAP1 PUSH1 0x4 ADD PUSH2 0x741 JUMP JUMPDEST PUSH1 0x0 SLOAD PUSH1 0x44 CALLDATALOAD SWAP2 SWAP1 PUSH1 0x64 CALLDATALOAD SWAP1 PUSH1 0x1 PUSH1 0x1 PUSH1 0xA0 SHL SUB AND CALLER SUB PUSH2 0x6C1 JUMPI DUP4 MLOAD ISZERO PUSH2 0x680 JUMPI DUP2 MLOAD ISZERO PUSH2 0x643 JUMPI PUSH1 0x40 MLOAD SWAP4 PUSH2 0x366 DUP6 PUSH2 0x703 JUMP JUMPDEST DUP1 DUP6 MSTORE PUSH1 0x20 DUP6 ADD SWAP5 DUP4 DUP7 MSTORE PUSH1 0x40 DUP2 ADD DUP6 DUP2 MSTORE PUSH1 0x60 DUP3 ADD TIMESTAMP DUP2 MSTORE PUSH1 0x80 DUP4 ADD SWAP2 DUP6 DUP4 MSTORE PUSH1 0x40 MLOAD PUSH1 0x20 DUP2 DUP8 MLOAD PUSH2 0x39C DUP2 DUP4 DUP6 DUP13 ADD PUSH2 0x797 JUMP JUMPDEST PUSH1 0x1 SWAP1 DUP3 ADD SWAP1 DUP2 MSTORE SUB ADD SWAP1 KECCAK256 SWAP4 MLOAD DUP1 MLOAD SWAP1 PUSH1 0x1 PUSH1 0x1 PUSH1 0x40 SHL SUB DUP3 GT PUSH2 0x56A JUMPI DUP2 SWAP1 PUSH2 0x3C7 DUP8 SLOAD PUSH2 0x7DF JUMP JUMPDEST PUSH1 0x1F DUP2 GT PUSH2 0x5F0 JUMPI JUMPDEST POP PUSH1 0x20 SWAP1 PUSH1 0x1F DUP4 GT PUSH1 0x1 EQ PUSH2 0x58B JUMPI PUSH1 0x0 SWAP3 PUSH2 0x580 JUMPI JUMPDEST POP POP DUP2 PUSH1 0x1 SHL SWAP2 PUSH1 0x0 NOT SWAP1 PUSH1 0x3 SHL SHR NOT AND OR DUP5 SSTORE JUMPDEST SWAP8 MLOAD DUP1 MLOAD SWAP1 SWAP9 SWAP1 PUSH1 0x1 DUP6 ADD SWAP1 PUSH1 0x1 PUSH1 0x1 PUSH1 0x40 SHL SUB DUP2 GT PUSH2 0x56A JUMPI PUSH2 0x420 DUP3 SLOAD PUSH2 0x7DF JUMP JUMPDEST PUSH1 0x1F DUP2 GT PUSH2 0x522 JUMPI JUMPDEST POP PUSH1 0x20 PUSH1 0x1F DUP3 GT PUSH1 0x1 EQ PUSH2 0x4A1 JUMPI SWAP2 DUP2 PUSH2 0x491 SWAP10 SWAP9 SWAP8 SWAP7 SWAP5 SWAP3 PUSH1 0x4 SWAP7 SWAP5 PUSH1 0x0 DUP1 MLOAD PUSH1 0x20 PUSH2 0x8F8 DUP4 CODECOPY DUP2 MLOAD SWAP2 MSTORE SWAP15 PUSH1 0x0 SWAP3 PUSH2 0x496 JUMPI JUMPDEST POP POP DUP2 PUSH1 0x1 SHL SWAP2 PUSH1 0x0 NOT SWAP1 PUSH1 0x3 SHL SHR NOT AND OR SWAP1 SSTORE JUMPDEST MLOAD PUSH1 0x2 DUP6 ADD SSTORE MLOAD PUSH1 0x3 DUP5 ADD SSTORE MLOAD SWAP2 ADD SSTORE PUSH1 0x40 MLOAD SWAP5 DUP6 SWAP5 TIMESTAMP SWAP3 DUP7 PUSH2 0x8BD JUMP JUMPDEST SUB SWAP1 LOG1 STOP JUMPDEST ADD MLOAD SWAP1 POP DUP15 DUP1 PUSH2 0x45E JUMP JUMPDEST PUSH1 0x1F NOT DUP3 AND SWAP12 DUP4 PUSH1 0x0 MSTORE DUP2 PUSH1 0x0 KECCAK256 SWAP13 PUSH1 0x0 JUMPDEST DUP2 DUP2 LT PUSH2 0x50A JUMPI POP SWAP3 PUSH1 0x0 DUP1 MLOAD PUSH1 0x20 PUSH2 0x8F8 DUP4 CODECOPY DUP2 MLOAD SWAP2 MSTORE SWAP14 PUSH1 0x4 SWAP8 SWAP6 SWAP4 PUSH1 0x1 SWAP4 DUP4 PUSH2 0x491 SWAP15 SWAP14 SWAP13 SWAP12 SWAP10 SWAP8 LT PUSH2 0x4F1 JUMPI JUMPDEST POP POP POP DUP2 SHL ADD SWAP1 SSTORE PUSH2 0x473 JUMP JUMPDEST ADD MLOAD PUSH1 0x0 NOT PUSH1 0xF8 DUP5 PUSH1 0x3 SHL AND SHR NOT AND SWAP1 SSTORE DUP15 DUP1 DUP1 PUSH2 0x4E4 JUMP JUMPDEST DUP4 DUP4 ADD MLOAD DUP16 SSTORE PUSH1 0x1 SWAP1 SWAP15 ADD SWAP14 PUSH1 0x20 SWAP4 DUP5 ADD SWAP4 ADD PUSH2 0x4B3 JUMP JUMPDEST DUP3 PUSH1 0x0 MSTORE PUSH1 0x20 PUSH1 0x0 KECCAK256 PUSH1 0x1F DUP4 ADD PUSH1 0x5 SHR DUP2 ADD SWAP2 PUSH1 0x20 DUP5 LT PUSH2 0x560 JUMPI JUMPDEST PUSH1 0x1F ADD PUSH1 0x5 SHR ADD SWAP1 JUMPDEST DUP2 DUP2 LT PUSH2 0x554 JUMPI POP PUSH2 0x429 JUMP JUMPDEST PUSH1 0x0 DUP2 SSTORE PUSH1 0x1 ADD PUSH2 0x547 JUMP JUMPDEST SWAP1 SWAP2 POP DUP2 SWAP1 PUSH2 0x53E JUMP JUMPDEST PUSH4 0x4E487B71 PUSH1 0xE0 SHL PUSH1 0x0 MSTORE PUSH1 0x41 PUSH1 0x4 MSTORE PUSH1 0x24 PUSH1 0x0 REVERT JUMPDEST ADD MLOAD SWAP1 POP DUP12 DUP1 PUSH2 0x3E7 JUMP JUMPDEST PUSH1 0x0 DUP9 DUP2 MSTORE DUP3 DUP2 KECCAK256 SWAP4 POP PUSH1 0x1F NOT DUP6 AND SWAP1 JUMPDEST DUP2 DUP2 LT PUSH2 0x5D8 JUMPI POP SWAP1 DUP5 PUSH1 0x1 SWAP6 SWAP5 SWAP4 SWAP3 LT PUSH2 0x5BF JUMPI JUMPDEST POP POP POP DUP2 SHL ADD DUP5 SSTORE PUSH2 0x3FC JUMP JUMPDEST ADD MLOAD PUSH1 0x0 NOT PUSH1 0xF8 DUP5 PUSH1 0x3 SHL AND SHR NOT AND SWAP1 SSTORE DUP12 DUP1 DUP1 PUSH2 0x5B2 JUMP JUMPDEST SWAP3 SWAP4 PUSH1 0x20 PUSH1 0x1 DUP2 SWAP3 DUP8 DUP7 ADD MLOAD DUP2 SSTORE ADD SWAP6 ADD SWAP4 ADD PUSH2 0x59C JUMP JUMPDEST SWAP1 SWAP2 POP DUP7 PUSH1 0x0 MSTORE PUSH1 0x20 PUSH1 0x0 KECCAK256 PUSH1 0x1F DUP5 ADD PUSH1 0x5 SHR DUP2 ADD SWAP2 PUSH1 0x20 DUP6 LT PUSH2 0x639 JUMPI JUMPDEST SWAP1 PUSH1 0x1F DUP6 SWAP5 SWAP4 SWAP3 ADD PUSH1 0x5 SHR ADD SWAP1 JUMPDEST DUP2 DUP2 LT PUSH2 0x62A JUMPI POP PUSH2 0x3D0 JUMP JUMPDEST PUSH1 0x0 DUP2 SSTORE DUP5 SWAP4 POP PUSH1 0x1 ADD PUSH2 0x61D JUMP JUMPDEST SWAP1 SWAP2 POP DUP2 SWAP1 PUSH2 0x60F JUMP JUMPDEST PUSH1 0x40 MLOAD PUSH3 0x461BCD PUSH1 0xE5 SHL DUP2 MSTORE PUSH1 0x20 PUSH1 0x4 DUP3 ADD MSTORE PUSH1 0x15 PUSH1 0x24 DUP3 ADD MSTORE PUSH21 0x4C6162656C2063616E6E6F7420626520656D707479 PUSH1 0x58 SHL PUSH1 0x44 DUP3 ADD MSTORE PUSH1 0x64 SWAP1 REVERT JUMPDEST PUSH1 0x40 MLOAD PUSH3 0x461BCD PUSH1 0xE5 SHL DUP2 MSTORE PUSH1 0x20 PUSH1 0x4 DUP3 ADD MSTORE PUSH1 0x19 PUSH1 0x24 DUP3 ADD MSTORE PUSH25 0x53616D706C652049442063616E6E6F7420626520656D707479 PUSH1 0x38 SHL PUSH1 0x44 DUP3 ADD MSTORE PUSH1 0x64 SWAP1 REVERT JUMPDEST PUSH1 0x40 MLOAD PUSH3 0x461BCD PUSH1 0xE5 SHL DUP2 MSTORE PUSH1 0x20 PUSH1 0x4 DUP3 ADD MSTORE PUSH1 0x1A PUSH1 0x24 DUP3 ADD MSTORE PUSH26 0x13DB9B1E481B585A5B881C1C9BDA9958DD0818D85B8818D85B1B PUSH1 0x32 SHL PUSH1 0x44 DUP3 ADD MSTORE PUSH1 0x64 SWAP1 REVERT JUMPDEST PUSH1 0xA0 DUP2 ADD SWAP1 DUP2 LT PUSH1 0x1 PUSH1 0x1 PUSH1 0x40 SHL SUB DUP3 GT OR PUSH2 0x56A JUMPI PUSH1 0x40 MSTORE JUMP JUMPDEST PUSH1 0x1F SWAP1 SWAP2 ADD PUSH1 0x1F NOT AND DUP2 ADD SWAP1 PUSH1 0x1 PUSH1 0x1 PUSH1 0x40 SHL SUB DUP3 GT SWAP1 DUP3 LT OR PUSH2 0x56A JUMPI PUSH1 0x40 MSTORE JUMP JUMPDEST DUP2 PUSH1 0x1F DUP3 ADD SLT ISZERO PUSH2 0x92 JUMPI DUP1 CALLDATALOAD SWAP1 PUSH1 0x1 PUSH1 0x1 PUSH1 0x40 SHL SUB DUP3 GT PUSH2 0x56A JUMPI PUSH1 0x40 MLOAD SWAP3 PUSH2 0x775 PUSH1 0x1F DUP5 ADD PUSH1 0x1F NOT AND PUSH1 0x20 ADD DUP6 PUSH2 0x71E JUMP JUMPDEST DUP3 DUP5 MSTORE PUSH1 0x20 DUP4 DUP4 ADD ADD GT PUSH2 0x92 JUMPI DUP2 PUSH1 0x0 SWAP3 PUSH1 0x20 DUP1 SWAP4 ADD DUP4 DUP7 ADD CALLDATACOPY DUP4 ADD ADD MSTORE SWAP1 JUMP JUMPDEST PUSH1 0x0 JUMPDEST DUP4 DUP2 LT PUSH2 0x7AA JUMPI POP POP PUSH1 0x0 SWAP2 ADD MSTORE JUMP JUMPDEST DUP2 DUP2 ADD MLOAD DUP4 DUP3 ADD MSTORE PUSH1 0x20 ADD PUSH2 0x79A JUMP JUMPDEST SWAP1 PUSH1 0x20 SWAP2 PUSH2 0x7D3 DUP2 MLOAD DUP1 SWAP3 DUP2 DUP6 MSTORE DUP6 DUP1 DUP7 ADD SWAP2 ADD PUSH2 0x797 JUMP JUMPDEST PUSH1 0x1F ADD PUSH1 0x1F NOT AND ADD ADD SWAP1 JUMP JUMPDEST SWAP1 PUSH1 0x1 DUP3 DUP2 SHR SWAP3 AND DUP1 ISZERO PUSH2 0x80F JUMPI JUMPDEST PUSH1 0x20 DUP4 LT EQ PUSH2 0x7F9 JUMPI JUMP JUMPDEST PUSH4 0x4E487B71 PUSH1 0xE0 SHL PUSH1 0x0 MSTORE PUSH1 0x22 PUSH1 0x4 MSTORE PUSH1 0x24 PUSH1 0x0 REVERT JUMPDEST SWAP2 PUSH1 0x7F AND SWAP2 PUSH2 0x7EE JUMP JUMPDEST SWAP1 PUSH1 0x40 MLOAD SWAP2 DUP3 PUSH1 0x0 DUP3 SLOAD SWAP3 PUSH2 0x82D DUP5 PUSH2 0x7DF JUMP JUMPDEST DUP1 DUP5 MSTORE SWAP4 PUSH1 0x1 DUP2 AND SWAP1 DUP2 ISZERO PUSH2 0x89B JUMPI POP PUSH1 0x1 EQ PUSH2 0x854 JUMPI JUMPDEST POP PUSH2 0x852 SWAP3 POP SUB DUP4 PUSH2 0x71E JUMP JUMPDEST JUMP JUMPDEST SWAP1 POP PUSH1 0x0 SWAP3 SWAP2 SWAP3 MSTORE PUSH1 0x20 PUSH1 0x0 KECCAK256 SWAP1 PUSH1 0x0 SWAP2 JUMPDEST DUP2 DUP4 LT PUSH2 0x87F JUMPI POP POP SWAP1 PUSH1 0x20 PUSH2 0x852 SWAP3 DUP3 ADD ADD CODESIZE PUSH2 0x845 JUMP JUMPDEST PUSH1 0x20 SWAP2 SWAP4 POP DUP1 PUSH1 0x1 SWAP2 SLOAD DUP4 DUP6 DUP10 ADD ADD MSTORE ADD SWAP2 ADD SWAP1 SWAP2 DUP5 SWAP3 PUSH2 0x866 JUMP JUMPDEST SWAP1 POP PUSH1 0x20 SWAP3 POP PUSH2 0x852 SWAP5 SWAP2 POP PUSH1 0xFF NOT AND DUP3 DUP5 ADD MSTORE ISZERO ISZERO PUSH1 0x5 SHL DUP3 ADD ADD CODESIZE PUSH2 0x845 JUMP JUMPDEST SWAP2 PUSH2 0x8E8 SWAP1 PUSH2 0x8DA PUSH1 0x80 SWAP6 SWAP9 SWAP8 SWAP7 SWAP4 PUSH1 0xA0 DUP7 MSTORE PUSH1 0xA0 DUP7 ADD SWAP1 PUSH2 0x7BA JUMP JUMPDEST SWAP1 DUP5 DUP3 SUB PUSH1 0x20 DUP7 ADD MSTORE PUSH2 0x7BA JUMP JUMPDEST SWAP6 PUSH1 0x40 DUP4 ADD MSTORE PUSH1 0x60 DUP3 ADD MSTORE ADD MSTORE JUMP INVALID 0xB0 0xE7 JUMP CREATE 0xC1 0xC6 ORIGIN MSIZE TLOAD EXTCODEHASH BLOCKHASH 0xDF DELEGATECALL BLOCKHASH TIMESTAMP DUP16 SWAP3 0x27 PUSH1 0x69 0xC1 0xBA ADDRESS SIGNEXTEND SSTORE EQ 0xBE 0x22 0xD9 0xB3 0xE7 0xE2 LOG2 PUSH5 0x6970667358 0x22 SLT KECCAK256 0x21 PUSH28 0x933E47B37E085DA6FEDFC4815F9D76D18F90BEA58EA3DBF1F4B056EF 0xD0 SIGNEXTEND PUSH5 0x736F6C6343 STOP ADDMOD SHR STOP CALLER "},"methodIdentifiers":{"finalLabels(string)":"3ae94379","getFinalLabel(string)":"428f8338","getLabel(string)":"0f7fcf40","hasFinalLabel(string)":"8bb7b700","isValidSampleId(string)":"08837df6","project()":"f60ca60d","storeFinalLabel(string,string,uint256,uint256)":"074529cf"}}}}}